{
	"data": {
		"bytecode": {
			"linkReferences": {},
			"object": "60806040523480156200001157600080fd5b506040518060400160405280600a81526020017f52616e646f6d49647631000000000000000000000000000000000000000000008152506040518060400160405280600681526020017f524e444d76310000000000000000000000000000000000000000000000000000815250816000908051906020019062000096929190620000b8565b508060019080519060200190620000af929190620000b8565b505050620001cd565b828054620000c69062000168565b90600052602060002090601f016020900481019282620000ea576000855562000136565b82601f106200010557805160ff191683800117855562000136565b8280016001018555821562000136579182015b828111156200013557825182559160200191906001019062000118565b5b50905062000145919062000149565b5090565b5b80821115620001645760008160009055506001016200014a565b5090565b600060028204905060018216806200018157607f821691505b602082108114156200019857620001976200019e565b5b50919050565b7f4e487b7100000000000000000000000000000000000000000000000000000000600052602260045260246000fd5b612aaa80620001dd6000396000f3fe608060405234801561001057600080fd5b50600436106100f55760003560e01c80636a62784211610097578063b88d4fde11610066578063b88d4fde14610282578063c87b56dd1461029e578063e985e9c5146102ce578063fac333ac146102fe576100f5565b80636a627842146101fc57806370a082311461021857806395d89b4114610248578063a22cb46514610266576100f5565b8063095ea7b3116100d3578063095ea7b31461017857806323b872dd1461019457806342842e0e146101b05780636352211e146101cc576100f5565b806301ffc9a7146100fa57806306fdde031461012a578063081812fc14610148575b600080fd5b610114600480360381019061010f9190611b0f565b61032e565b6040516101219190611f91565b60405180910390f35b610132610410565b60405161013f9190611fac565b60405180910390f35b610162600480360381019061015d9190611b69565b6104a2565b60405161016f9190611f2a565b60405180910390f35b610192600480360381019061018d9190611acf565b610527565b005b6101ae60048036038101906101a991906119b9565b61063f565b005b6101ca60048036038101906101c591906119b9565b61069f565b005b6101e660048036038101906101e19190611b69565b6106bf565b6040516101f39190611f2a565b60405180910390f35b6102166004803603810190610211919061194c565b610771565b005b610232600480360381019061022d919061194c565b6107ca565b60405161023f91906121ae565b60405180910390f35b610250610882565b60405161025d9190611fac565b60405180910390f35b610280600480360381019061027b9190611a8f565b610914565b005b61029c60048036038101906102979190611a0c565b61092a565b005b6102b860048036038101906102b39190611b69565b61098c565b6040516102c59190611fac565b60405180910390f35b6102e860048036038101906102e39190611979565b610a33565b6040516102f59190611f91565b60405180910390f35b61031860048036038101906103139190611b69565b610ac7565b60405161032591906121ae565b60405180910390f35b60007f80ac58cd000000000000000000000000000000000000000000000000000000007bffffffffffffffffffffffffffffffffffffffffffffffffffffffff1916827bffffffffffffffffffffffffffffffffffffffffffffffffffffffff191614806103f957507f5b5e139f000000000000000000000000000000000000000000000000000000007bffffffffffffffffffffffffffffffffffffffffffffffffffffffff1916827bffffffffffffffffffffffffffffffffffffffffffffffffffffffff1916145b80610409575061040882610ae2565b5b9050919050565b60606000805461041f906123dd565b80601f016020809104026020016040519081016040528092919081815260200182805461044b906123dd565b80156104985780601f1061046d57610100808354040283529160200191610498565b820191906000526020600020905b81548152906001019060200180831161047b57829003601f168201915b5050505050905090565b60006104ad82610b4c565b6104ec576040517f08c379a00000000000000000000000000000000000000000000000000000000081526004016104e39061210e565b60405180910390fd5b6004600083815260200190815260200160002060009054906101000a900473ffffffffffffffffffffffffffffffffffffffff169050919050565b6000610532826106bf565b90508073ffffffffffffffffffffffffffffffffffffffff168373ffffffffffffffffffffffffffffffffffffffff1614156105a3576040517f08c379a000000000000000000000000000000000000000000000000000000000815260040161059a9061214e565b60405180910390fd5b8073ffffffffffffffffffffffffffffffffffffffff166105c2610bb8565b73ffffffffffffffffffffffffffffffffffffffff1614806105f157506105f0816105eb610bb8565b610a33565b5b610630576040517f08c379a00000000000000000000000000000000000000000000000000000000081526004016106279061208e565b60405180910390fd5b61063a8383610bc0565b505050565b61065061064a610bb8565b82610c79565b61068f576040517f08c379a00000000000000000000000000000000000000000000000000000000081526004016106869061216e565b60405180910390fd5b61069a838383610d57565b505050565b6106ba8383836040518060200160405280600081525061092a565b505050565b6000806002600084815260200190815260200160002060009054906101000a900473ffffffffffffffffffffffffffffffffffffffff169050600073ffffffffffffffffffffffffffffffffffffffff168173ffffffffffffffffffffffffffffffffffffffff161415610768576040517f08c379a000000000000000000000000000000000000000000000000000000000815260040161075f906120ce565b60405180910390fd5b80915050919050565b6000600b54334260014361078591906122e9565b406040516020016107999493929190611edc565b6040516020818303038152906040528051906020012060001c90506107c6826107c183610fbe565b61111b565b5050565b60008073ffffffffffffffffffffffffffffffffffffffff168273ffffffffffffffffffffffffffffffffffffffff16141561083b576040517f08c379a0000000000000000000000000000000000000000000000000000000008152600401610832906120ae565b60405180910390fd5b600360008373ffffffffffffffffffffffffffffffffffffffff1673ffffffffffffffffffffffffffffffffffffffff168152602001908152602001600020549050919050565b606060018054610891906123dd565b80601f01602080910402602001604051908101604052809291908181526020018280546108bd906123dd565b801561090a5780601f106108df5761010080835404028352916020019161090a565b820191906000526020600020905b8154815290600101906020018083116108ed57829003601f168201915b5050505050905090565b61092661091f610bb8565b8383611139565b5050565b61093b610935610bb8565b83610c79565b61097a576040517f08c379a00000000000000000000000000000000000000000000000000000000081526004016109719061216e565b60405180910390fd5b610986848484846112a6565b50505050565b606061099782610b4c565b6109d6576040517f08c379a00000000000000000000000000000000000000000000000000000000081526004016109cd9061212e565b60405180910390fd5b60006109e0611302565b90506000815111610a005760405180602001604052806000815250610a2b565b80610a0a84611319565b604051602001610a1b929190611eb8565b6040516020818303038152906040525b915050919050565b6000600560008473ffffffffffffffffffffffffffffffffffffffff1673ffffffffffffffffffffffffffffffffffffffff16815260200190815260200160002060008373ffffffffffffffffffffffffffffffffffffffff1673ffffffffffffffffffffffffffffffffffffffff16815260200190815260200160002060009054906101000a900460ff16905092915050565b60068160058110610ad757600080fd5b016000915090505481565b60007f01ffc9a7000000000000000000000000000000000000000000000000000000007bffffffffffffffffffffffffffffffffffffffffffffffffffffffff1916827bffffffffffffffffffffffffffffffffffffffffffffffffffffffff1916149050919050565b60008073ffffffffffffffffffffffffffffffffffffffff166002600084815260200190815260200160002060009054906101000a900473ffffffffffffffffffffffffffffffffffffffff1673ffffffffffffffffffffffffffffffffffffffff1614159050919050565b600033905090565b816004600083815260200190815260200160002060006101000a81548173ffffffffffffffffffffffffffffffffffffffff021916908373ffffffffffffffffffffffffffffffffffffffff160217905550808273ffffffffffffffffffffffffffffffffffffffff16610c33836106bf565b73ffffffffffffffffffffffffffffffffffffffff167f8c5be1e5ebec7d5bd14f71427d1e84f3dd0314c0f7b2291e5b200ac8c7c3b92560405160405180910390a45050565b6000610c8482610b4c565b610cc3576040517f08c379a0000000000000000000000000000000000000000000000000000000008152600401610cba9061206e565b60405180910390fd5b6000610cce836106bf565b90508073ffffffffffffffffffffffffffffffffffffffff168473ffffffffffffffffffffffffffffffffffffffff161480610d105750610d0f8185610a33565b5b80610d4e57508373ffffffffffffffffffffffffffffffffffffffff16610d36846104a2565b73ffffffffffffffffffffffffffffffffffffffff16145b91505092915050565b8273ffffffffffffffffffffffffffffffffffffffff16610d77826106bf565b73ffffffffffffffffffffffffffffffffffffffff1614610dcd576040517f08c379a0000000000000000000000000000000000000000000000000000000008152600401610dc490611fee565b60405180910390fd5b600073ffffffffffffffffffffffffffffffffffffffff168273ffffffffffffffffffffffffffffffffffffffff161415610e3d576040517f08c379a0000000000000000000000000000000000000000000000000000000008152600401610e349061202e565b60405180910390fd5b610e4883838361147a565b610e53600082610bc0565b6001600360008573ffffffffffffffffffffffffffffffffffffffff1673ffffffffffffffffffffffffffffffffffffffff1681526020019081526020016000206000828254610ea391906122e9565b925050819055506001600360008473ffffffffffffffffffffffffffffffffffffffff1673ffffffffffffffffffffffffffffffffffffffff1681526020019081526020016000206000828254610efa9190612262565b92505081905550816002600083815260200190815260200160002060006101000a81548173ffffffffffffffffffffffffffffffffffffffff021916908373ffffffffffffffffffffffffffffffffffffffff160217905550808273ffffffffffffffffffffffffffffffffffffffff168473ffffffffffffffffffffffffffffffffffffffff167fddf252ad1be2c89b69c2b068fc378daa952ba7f163c4a11628f55a4df523b3ef60405160405180910390a4610fb983838361147f565b505050565b600080600b6000815480929190610fd490612440565b919050556005610fe491906122e9565b905060008111611029576040517f08c379a00000000000000000000000000000000000000000000000000000000081526004016110209061218e565b60405180910390fd5b6000818461103791906124c1565b905060006006826005811061104f5761104e61257f565b5b0154141561105d5780611074565b600681600581106110715761107061257f565b5b01545b92506000600660018461108791906122e9565b600581106110985761109761257f565b5b0154146110c65760066001836110ae91906122e9565b600581106110bf576110be61257f565b5b01546110d4565b6001826110d391906122e9565b5b600682600581106110e8576110e761257f565b5b0181905550600060066001846110fe91906122e9565b6005811061110f5761110e61257f565b5b01819055505050919050565b611135828260405180602001604052806000815250611484565b5050565b8173ffffffffffffffffffffffffffffffffffffffff168373ffffffffffffffffffffffffffffffffffffffff1614156111a8576040517f08c379a000000000000000000000000000000000000000000000000000000000815260040161119f9061204e565b60405180910390fd5b80600560008573ffffffffffffffffffffffffffffffffffffffff1673ffffffffffffffffffffffffffffffffffffffff16815260200190815260200160002060008473ffffffffffffffffffffffffffffffffffffffff1673ffffffffffffffffffffffffffffffffffffffff16815260200190815260200160002060006101000a81548160ff0219169083151502179055508173ffffffffffffffffffffffffffffffffffffffff168373ffffffffffffffffffffffffffffffffffffffff167f17307eab39ab6107e8899845ad3d59bd9653f200f220920489ca2b5937696c31836040516112999190611f91565b60405180910390a3505050565b6112b1848484610d57565b6112bd848484846114df565b6112fc576040517f08c379a00000000000000000000000000000000000000000000000000000000081526004016112f390611fce565b60405180910390fd5b50505050565b606060405180602001604052806000815250905090565b60606000821415611361576040518060400160405280600181526020017f30000000000000000000000000000000000000000000000000000000000000008152509050611475565b600082905060005b6000821461139357808061137c90612440565b915050600a8261138c91906122b8565b9150611369565b60008167ffffffffffffffff8111156113af576113ae6125ae565b5b6040519080825280601f01601f1916602001820160405280156113e15781602001600182028036833780820191505090505b5090505b6000851461146e576001826113fa91906122e9565b9150600a8561140991906124c1565b60306114159190612262565b60f81b81838151811061142b5761142a61257f565b5b60200101907effffffffffffffffffffffffffffffffffffffffffffffffffffffffffffff1916908160001a905350600a8561146791906122b8565b94506113e5565b8093505050505b919050565b505050565b505050565b61148e8383611676565b61149b60008484846114df565b6114da576040517f08c379a00000000000000000000000000000000000000000000000000000000081526004016114d190611fce565b60405180910390fd5b505050565b60006115008473ffffffffffffffffffffffffffffffffffffffff16611850565b15611669578373ffffffffffffffffffffffffffffffffffffffff1663150b7a02611529610bb8565b8786866040518563ffffffff1660e01b815260040161154b9493929190611f45565b602060405180830381600087803b15801561156557600080fd5b505af192505050801561159657506040513d601f19601f820116820180604052508101906115939190611b3c565b60015b611619573d80600081146115c6576040519150601f19603f3d011682016040523d82523d6000602084013e6115cb565b606091505b50600081511415611611576040517f08c379a000000000000000000000000000000000000000000000000000000000815260040161160890611fce565b60405180910390fd5b805181602001fd5b63150b7a0260e01b7bffffffffffffffffffffffffffffffffffffffffffffffffffffffff1916817bffffffffffffffffffffffffffffffffffffffffffffffffffffffff19161491505061166e565b600190505b949350505050565b600073ffffffffffffffffffffffffffffffffffffffff168273ffffffffffffffffffffffffffffffffffffffff1614156116e6576040517f08c379a00000000000000000000000000000000000000000000000000000000081526004016116dd906120ee565b60405180910390fd5b6116ef81610b4c565b1561172f576040517f08c379a00000000000000000000000000000000000000000000000000000000081526004016117269061200e565b60405180910390fd5b61173b6000838361147a565b6001600360008473ffffffffffffffffffffffffffffffffffffffff1673ffffffffffffffffffffffffffffffffffffffff168152602001908152602001600020600082825461178b9190612262565b92505081905550816002600083815260200190815260200160002060006101000a81548173ffffffffffffffffffffffffffffffffffffffff021916908373ffffffffffffffffffffffffffffffffffffffff160217905550808273ffffffffffffffffffffffffffffffffffffffff16600073ffffffffffffffffffffffffffffffffffffffff167fddf252ad1be2c89b69c2b068fc378daa952ba7f163c4a11628f55a4df523b3ef60405160405180910390a461184c6000838361147f565b5050565b6000808273ffffffffffffffffffffffffffffffffffffffff163b119050919050565b6000611886611881846121ee565b6121c9565b9050828152602081018484840111156118a2576118a16125e2565b5b6118ad84828561239b565b509392505050565b6000813590506118c481612a18565b92915050565b6000813590506118d981612a2f565b92915050565b6000813590506118ee81612a46565b92915050565b60008151905061190381612a46565b92915050565b600082601f83011261191e5761191d6125dd565b5b813561192e848260208601611873565b91505092915050565b60008135905061194681612a5d565b92915050565b600060208284031215611962576119616125ec565b5b6000611970848285016118b5565b91505092915050565b600080604083850312156119905761198f6125ec565b5b600061199e858286016118b5565b92505060206119af858286016118b5565b9150509250929050565b6000806000606084860312156119d2576119d16125ec565b5b60006119e0868287016118b5565b93505060206119f1868287016118b5565b9250506040611a0286828701611937565b9150509250925092565b60008060008060808587031215611a2657611a256125ec565b5b6000611a34878288016118b5565b9450506020611a45878288016118b5565b9350506040611a5687828801611937565b925050606085013567ffffffffffffffff811115611a7757611a766125e7565b5b611a8387828801611909565b91505092959194509250565b60008060408385031215611aa657611aa56125ec565b5b6000611ab4858286016118b5565b9250506020611ac5858286016118ca565b9150509250929050565b60008060408385031215611ae657611ae56125ec565b5b6000611af4858286016118b5565b9250506020611b0585828601611937565b9150509250929050565b600060208284031215611b2557611b246125ec565b5b6000611b33848285016118df565b91505092915050565b600060208284031215611b5257611b516125ec565b5b6000611b60848285016118f4565b91505092915050565b600060208284031215611b7f57611b7e6125ec565b5b6000611b8d84828501611937565b91505092915050565b611b9f8161231d565b82525050565b611bb6611bb18261231d565b612489565b82525050565b611bc58161232f565b82525050565b611bdc611bd78261233b565b61249b565b82525050565b6000611bed8261221f565b611bf78185612235565b9350611c078185602086016123aa565b611c10816125f1565b840191505092915050565b6000611c268261222a565b611c308185612246565b9350611c408185602086016123aa565b611c49816125f1565b840191505092915050565b6000611c5f8261222a565b611c698185612257565b9350611c798185602086016123aa565b80840191505092915050565b6000611c92603283612246565b9150611c9d8261260f565b604082019050919050565b6000611cb5602583612246565b9150611cc08261265e565b604082019050919050565b6000611cd8601c83612246565b9150611ce3826126ad565b602082019050919050565b6000611cfb602483612246565b9150611d06826126d6565b604082019050919050565b6000611d1e601983612246565b9150611d2982612725565b602082019050919050565b6000611d41602c83612246565b9150611d4c8261274e565b604082019050919050565b6000611d64603883612246565b9150611d6f8261279d565b604082019050919050565b6000611d87602a83612246565b9150611d92826127ec565b604082019050919050565b6000611daa602983612246565b9150611db58261283b565b604082019050919050565b6000611dcd602083612246565b9150611dd88261288a565b602082019050919050565b6000611df0602c83612246565b9150611dfb826128b3565b604082019050919050565b6000611e13602f83612246565b9150611e1e82612902565b604082019050919050565b6000611e36602183612246565b9150611e4182612951565b604082019050919050565b6000611e59603183612246565b9150611e64826129a0565b604082019050919050565b6000611e7c600b83612246565b9150611e87826129ef565b602082019050919050565b611e9b81612391565b82525050565b611eb2611ead82612391565b6124b7565b82525050565b6000611ec48285611c54565b9150611ed08284611c54565b91508190509392505050565b6000611ee88287611ea1565b602082019150611ef88286611ba5565b601482019150611f088285611ea1565b602082019150611f188284611bcb565b60208201915081905095945050505050565b6000602082019050611f3f6000830184611b96565b92915050565b6000608082019050611f5a6000830187611b96565b611f676020830186611b96565b611f746040830185611e92565b8181036060830152611f868184611be2565b905095945050505050565b6000602082019050611fa66000830184611bbc565b92915050565b60006020820190508181036000830152611fc68184611c1b565b905092915050565b60006020820190508181036000830152611fe781611c85565b9050919050565b6000602082019050818103600083015261200781611ca8565b9050919050565b6000602082019050818103600083015261202781611ccb565b9050919050565b6000602082019050818103600083015261204781611cee565b9050919050565b6000602082019050818103600083015261206781611d11565b9050919050565b6000602082019050818103600083015261208781611d34565b9050919050565b600060208201905081810360008301526120a781611d57565b9050919050565b600060208201905081810360008301526120c781611d7a565b9050919050565b600060208201905081810360008301526120e781611d9d565b9050919050565b6000602082019050818103600083015261210781611dc0565b9050919050565b6000602082019050818103600083015261212781611de3565b9050919050565b6000602082019050818103600083015261214781611e06565b9050919050565b6000602082019050818103600083015261216781611e29565b9050919050565b6000602082019050818103600083015261218781611e4c565b9050919050565b600060208201905081810360008301526121a781611e6f565b9050919050565b60006020820190506121c36000830184611e92565b92915050565b60006121d36121e4565b90506121df828261240f565b919050565b6000604051905090565b600067ffffffffffffffff821115612209576122086125ae565b5b612212826125f1565b9050602081019050919050565b600081519050919050565b600081519050919050565b600082825260208201905092915050565b600082825260208201905092915050565b600081905092915050565b600061226d82612391565b915061227883612391565b9250827fffffffffffffffffffffffffffffffffffffffffffffffffffffffffffffffff038211156122ad576122ac6124f2565b5b828201905092915050565b60006122c382612391565b91506122ce83612391565b9250826122de576122dd612521565b5b828204905092915050565b60006122f482612391565b91506122ff83612391565b925082821015612312576123116124f2565b5b828203905092915050565b600061232882612371565b9050919050565b60008115159050919050565b6000819050919050565b60007fffffffff0000000000000000000000000000000000000000000000000000000082169050919050565b600073ffffffffffffffffffffffffffffffffffffffff82169050919050565b6000819050919050565b82818337600083830152505050565b60005b838110156123c85780820151818401526020810190506123ad565b838111156123d7576000848401525b50505050565b600060028204905060018216806123f557607f821691505b6020821081141561240957612408612550565b5b50919050565b612418826125f1565b810181811067ffffffffffffffff82111715612437576124366125ae565b5b80604052505050565b600061244b82612391565b91507fffffffffffffffffffffffffffffffffffffffffffffffffffffffffffffffff82141561247e5761247d6124f2565b5b600182019050919050565b6000612494826124a5565b9050919050565b6000819050919050565b60006124b082612602565b9050919050565b6000819050919050565b60006124cc82612391565b91506124d783612391565b9250826124e7576124e6612521565b5b828206905092915050565b7f4e487b7100000000000000000000000000000000000000000000000000000000600052601160045260246000fd5b7f4e487b7100000000000000000000000000000000000000000000000000000000600052601260045260246000fd5b7f4e487b7100000000000000000000000000000000000000000000000000000000600052602260045260246000fd5b7f4e487b7100000000000000000000000000000000000000000000000000000000600052603260045260246000fd5b7f4e487b7100000000000000000000000000000000000000000000000000000000600052604160045260246000fd5b600080fd5b600080fd5b600080fd5b600080fd5b6000601f19601f8301169050919050565b60008160601b9050919050565b7f4552433732313a207472616e7366657220746f206e6f6e20455243373231526560008201527f63656976657220696d706c656d656e7465720000000000000000000000000000602082015250565b7f4552433732313a207472616e736665722066726f6d20696e636f72726563742060008201527f6f776e6572000000000000000000000000000000000000000000000000000000602082015250565b7f4552433732313a20746f6b656e20616c7265616479206d696e74656400000000600082015250565b7f4552433732313a207472616e7366657220746f20746865207a65726f2061646460008201527f7265737300000000000000000000000000000000000000000000000000000000602082015250565b7f4552433732313a20617070726f766520746f2063616c6c657200000000000000600082015250565b7f4552433732313a206f70657261746f7220717565727920666f72206e6f6e657860008201527f697374656e7420746f6b656e0000000000000000000000000000000000000000602082015250565b7f4552433732313a20617070726f76652063616c6c6572206973206e6f74206f7760008201527f6e6572206e6f7220617070726f76656420666f7220616c6c0000000000000000602082015250565b7f4552433732313a2062616c616e636520717565727920666f7220746865207a6560008201527f726f206164647265737300000000000000000000000000000000000000000000602082015250565b7f4552433732313a206f776e657220717565727920666f72206e6f6e657869737460008201527f656e7420746f6b656e0000000000000000000000000000000000000000000000602082015250565b7f4552433732313a206d696e7420746f20746865207a65726f2061646472657373600082015250565b7f4552433732313a20617070726f76656420717565727920666f72206e6f6e657860008201527f697374656e7420746f6b656e0000000000000000000000000000000000000000602082015250565b7f4552433732314d657461646174613a2055524920717565727920666f72206e6f60008201527f6e6578697374656e7420746f6b656e0000000000000000000000000000000000602082015250565b7f4552433732313a20617070726f76616c20746f2063757272656e74206f776e6560008201527f7200000000000000000000000000000000000000000000000000000000000000602082015250565b7f4552433732313a207472616e736665722063616c6c6572206973206e6f74206f60008201527f776e6572206e6f7220617070726f766564000000000000000000000000000000602082015250565b7f6e6f20696473206c656674000000000000000000000000000000000000000000600082015250565b612a218161231d565b8114612a2c57600080fd5b50565b612a388161232f565b8114612a4357600080fd5b50565b612a4f81612345565b8114612a5a57600080fd5b50565b612a6681612391565b8114612a7157600080fd5b5056fea264697066735822122033e627b9b35ef3c807d3fbeb1d67ffd8ca71d6e1e501913896a5cf5e09079f7f64736f6c63430008070033",
			"opcodes": "PUSH1 0x80 PUSH1 0x40 MSTORE CALLVALUE DUP1 ISZERO PUSH3 0x11 JUMPI PUSH1 0x0 DUP1 REVERT JUMPDEST POP PUSH1 0x40 MLOAD DUP1 PUSH1 0x40 ADD PUSH1 0x40 MSTORE DUP1 PUSH1 0xA DUP2 MSTORE PUSH1 0x20 ADD PUSH32 0x52616E646F6D4964763100000000000000000000000000000000000000000000 DUP2 MSTORE POP PUSH1 0x40 MLOAD DUP1 PUSH1 0x40 ADD PUSH1 0x40 MSTORE DUP1 PUSH1 0x6 DUP2 MSTORE PUSH1 0x20 ADD PUSH32 0x524E444D76310000000000000000000000000000000000000000000000000000 DUP2 MSTORE POP DUP2 PUSH1 0x0 SWAP1 DUP1 MLOAD SWAP1 PUSH1 0x20 ADD SWAP1 PUSH3 0x96 SWAP3 SWAP2 SWAP1 PUSH3 0xB8 JUMP JUMPDEST POP DUP1 PUSH1 0x1 SWAP1 DUP1 MLOAD SWAP1 PUSH1 0x20 ADD SWAP1 PUSH3 0xAF SWAP3 SWAP2 SWAP1 PUSH3 0xB8 JUMP JUMPDEST POP POP POP PUSH3 0x1CD JUMP JUMPDEST DUP3 DUP1 SLOAD PUSH3 0xC6 SWAP1 PUSH3 0x168 JUMP JUMPDEST SWAP1 PUSH1 0x0 MSTORE PUSH1 0x20 PUSH1 0x0 KECCAK256 SWAP1 PUSH1 0x1F ADD PUSH1 0x20 SWAP1 DIV DUP2 ADD SWAP3 DUP3 PUSH3 0xEA JUMPI PUSH1 0x0 DUP6 SSTORE PUSH3 0x136 JUMP JUMPDEST DUP3 PUSH1 0x1F LT PUSH3 0x105 JUMPI DUP1 MLOAD PUSH1 0xFF NOT AND DUP4 DUP1 ADD OR DUP6 SSTORE PUSH3 0x136 JUMP JUMPDEST DUP3 DUP1 ADD PUSH1 0x1 ADD DUP6 SSTORE DUP3 ISZERO PUSH3 0x136 JUMPI SWAP2 DUP3 ADD JUMPDEST DUP3 DUP2 GT ISZERO PUSH3 0x135 JUMPI DUP3 MLOAD DUP3 SSTORE SWAP2 PUSH1 0x20 ADD SWAP2 SWAP1 PUSH1 0x1 ADD SWAP1 PUSH3 0x118 JUMP JUMPDEST JUMPDEST POP SWAP1 POP PUSH3 0x145 SWAP2 SWAP1 PUSH3 0x149 JUMP JUMPDEST POP SWAP1 JUMP JUMPDEST JUMPDEST DUP1 DUP3 GT ISZERO PUSH3 0x164 JUMPI PUSH1 0x0 DUP2 PUSH1 0x0 SWAP1 SSTORE POP PUSH1 0x1 ADD PUSH3 0x14A JUMP JUMPDEST POP SWAP1 JUMP JUMPDEST PUSH1 0x0 PUSH1 0x2 DUP3 DIV SWAP1 POP PUSH1 0x1 DUP3 AND DUP1 PUSH3 0x181 JUMPI PUSH1 0x7F DUP3 AND SWAP2 POP JUMPDEST PUSH1 0x20 DUP3 LT DUP2 EQ ISZERO PUSH3 0x198 JUMPI PUSH3 0x197 PUSH3 0x19E JUMP JUMPDEST JUMPDEST POP SWAP2 SWAP1 POP JUMP JUMPDEST PUSH32 0x4E487B7100000000000000000000000000000000000000000000000000000000 PUSH1 0x0 MSTORE PUSH1 0x22 PUSH1 0x4 MSTORE PUSH1 0x24 PUSH1 0x0 REVERT JUMPDEST PUSH2 0x2AAA DUP1 PUSH3 0x1DD PUSH1 0x0 CODECOPY PUSH1 0x0 RETURN INVALID PUSH1 0x80 PUSH1 0x40 MSTORE CALLVALUE DUP1 ISZERO PUSH2 0x10 JUMPI PUSH1 0x0 DUP1 REVERT JUMPDEST POP PUSH1 0x4 CALLDATASIZE LT PUSH2 0xF5 JUMPI PUSH1 0x0 CALLDATALOAD PUSH1 0xE0 SHR DUP1 PUSH4 0x6A627842 GT PUSH2 0x97 JUMPI DUP1 PUSH4 0xB88D4FDE GT PUSH2 0x66 JUMPI DUP1 PUSH4 0xB88D4FDE EQ PUSH2 0x282 JUMPI DUP1 PUSH4 0xC87B56DD EQ PUSH2 0x29E JUMPI DUP1 PUSH4 0xE985E9C5 EQ PUSH2 0x2CE JUMPI DUP1 PUSH4 0xFAC333AC EQ PUSH2 0x2FE JUMPI PUSH2 0xF5 JUMP JUMPDEST DUP1 PUSH4 0x6A627842 EQ PUSH2 0x1FC JUMPI DUP1 PUSH4 0x70A08231 EQ PUSH2 0x218 JUMPI DUP1 PUSH4 0x95D89B41 EQ PUSH2 0x248 JUMPI DUP1 PUSH4 0xA22CB465 EQ PUSH2 0x266 JUMPI PUSH2 0xF5 JUMP JUMPDEST DUP1 PUSH4 0x95EA7B3 GT PUSH2 0xD3 JUMPI DUP1 PUSH4 0x95EA7B3 EQ PUSH2 0x178 JUMPI DUP1 PUSH4 0x23B872DD EQ PUSH2 0x194 JUMPI DUP1 PUSH4 0x42842E0E EQ PUSH2 0x1B0 JUMPI DUP1 PUSH4 0x6352211E EQ PUSH2 0x1CC JUMPI PUSH2 0xF5 JUMP JUMPDEST DUP1 PUSH4 0x1FFC9A7 EQ PUSH2 0xFA JUMPI DUP1 PUSH4 0x6FDDE03 EQ PUSH2 0x12A JUMPI DUP1 PUSH4 0x81812FC EQ PUSH2 0x148 JUMPI JUMPDEST PUSH1 0x0 DUP1 REVERT JUMPDEST PUSH2 0x114 PUSH1 0x4 DUP1 CALLDATASIZE SUB DUP2 ADD SWAP1 PUSH2 0x10F SWAP2 SWAP1 PUSH2 0x1B0F JUMP JUMPDEST PUSH2 0x32E JUMP JUMPDEST PUSH1 0x40 MLOAD PUSH2 0x121 SWAP2 SWAP1 PUSH2 0x1F91 JUMP JUMPDEST PUSH1 0x40 MLOAD DUP1 SWAP2 SUB SWAP1 RETURN JUMPDEST PUSH2 0x132 PUSH2 0x410 JUMP JUMPDEST PUSH1 0x40 MLOAD PUSH2 0x13F SWAP2 SWAP1 PUSH2 0x1FAC JUMP JUMPDEST PUSH1 0x40 MLOAD DUP1 SWAP2 SUB SWAP1 RETURN JUMPDEST PUSH2 0x162 PUSH1 0x4 DUP1 CALLDATASIZE SUB DUP2 ADD SWAP1 PUSH2 0x15D SWAP2 SWAP1 PUSH2 0x1B69 JUMP JUMPDEST PUSH2 0x4A2 JUMP JUMPDEST PUSH1 0x40 MLOAD PUSH2 0x16F SWAP2 SWAP1 PUSH2 0x1F2A JUMP JUMPDEST PUSH1 0x40 MLOAD DUP1 SWAP2 SUB SWAP1 RETURN JUMPDEST PUSH2 0x192 PUSH1 0x4 DUP1 CALLDATASIZE SUB DUP2 ADD SWAP1 PUSH2 0x18D SWAP2 SWAP1 PUSH2 0x1ACF JUMP JUMPDEST PUSH2 0x527 JUMP JUMPDEST STOP JUMPDEST PUSH2 0x1AE PUSH1 0x4 DUP1 CALLDATASIZE SUB DUP2 ADD SWAP1 PUSH2 0x1A9 SWAP2 SWAP1 PUSH2 0x19B9 JUMP JUMPDEST PUSH2 0x63F JUMP JUMPDEST STOP JUMPDEST PUSH2 0x1CA PUSH1 0x4 DUP1 CALLDATASIZE SUB DUP2 ADD SWAP1 PUSH2 0x1C5 SWAP2 SWAP1 PUSH2 0x19B9 JUMP JUMPDEST PUSH2 0x69F JUMP JUMPDEST STOP JUMPDEST PUSH2 0x1E6 PUSH1 0x4 DUP1 CALLDATASIZE SUB DUP2 ADD SWAP1 PUSH2 0x1E1 SWAP2 SWAP1 PUSH2 0x1B69 JUMP JUMPDEST PUSH2 0x6BF JUMP JUMPDEST PUSH1 0x40 MLOAD PUSH2 0x1F3 SWAP2 SWAP1 PUSH2 0x1F2A JUMP JUMPDEST PUSH1 0x40 MLOAD DUP1 SWAP2 SUB SWAP1 RETURN JUMPDEST PUSH2 0x216 PUSH1 0x4 DUP1 CALLDATASIZE SUB DUP2 ADD SWAP1 PUSH2 0x211 SWAP2 SWAP1 PUSH2 0x194C JUMP JUMPDEST PUSH2 0x771 JUMP JUMPDEST STOP JUMPDEST PUSH2 0x232 PUSH1 0x4 DUP1 CALLDATASIZE SUB DUP2 ADD SWAP1 PUSH2 0x22D SWAP2 SWAP1 PUSH2 0x194C JUMP JUMPDEST PUSH2 0x7CA JUMP JUMPDEST PUSH1 0x40 MLOAD PUSH2 0x23F SWAP2 SWAP1 PUSH2 0x21AE JUMP JUMPDEST PUSH1 0x40 MLOAD DUP1 SWAP2 SUB SWAP1 RETURN JUMPDEST PUSH2 0x250 PUSH2 0x882 JUMP JUMPDEST PUSH1 0x40 MLOAD PUSH2 0x25D SWAP2 SWAP1 PUSH2 0x1FAC JUMP JUMPDEST PUSH1 0x40 MLOAD DUP1 SWAP2 SUB SWAP1 RETURN JUMPDEST PUSH2 0x280 PUSH1 0x4 DUP1 CALLDATASIZE SUB DUP2 ADD SWAP1 PUSH2 0x27B SWAP2 SWAP1 PUSH2 0x1A8F JUMP JUMPDEST PUSH2 0x914 JUMP JUMPDEST STOP JUMPDEST PUSH2 0x29C PUSH1 0x4 DUP1 CALLDATASIZE SUB DUP2 ADD SWAP1 PUSH2 0x297 SWAP2 SWAP1 PUSH2 0x1A0C JUMP JUMPDEST PUSH2 0x92A JUMP JUMPDEST STOP JUMPDEST PUSH2 0x2B8 PUSH1 0x4 DUP1 CALLDATASIZE SUB DUP2 ADD SWAP1 PUSH2 0x2B3 SWAP2 SWAP1 PUSH2 0x1B69 JUMP JUMPDEST PUSH2 0x98C JUMP JUMPDEST PUSH1 0x40 MLOAD PUSH2 0x2C5 SWAP2 SWAP1 PUSH2 0x1FAC JUMP JUMPDEST PUSH1 0x40 MLOAD DUP1 SWAP2 SUB SWAP1 RETURN JUMPDEST PUSH2 0x2E8 PUSH1 0x4 DUP1 CALLDATASIZE SUB DUP2 ADD SWAP1 PUSH2 0x2E3 SWAP2 SWAP1 PUSH2 0x1979 JUMP JUMPDEST PUSH2 0xA33 JUMP JUMPDEST PUSH1 0x40 MLOAD PUSH2 0x2F5 SWAP2 SWAP1 PUSH2 0x1F91 JUMP JUMPDEST PUSH1 0x40 MLOAD DUP1 SWAP2 SUB SWAP1 RETURN JUMPDEST PUSH2 0x318 PUSH1 0x4 DUP1 CALLDATASIZE SUB DUP2 ADD SWAP1 PUSH2 0x313 SWAP2 SWAP1 PUSH2 0x1B69 JUMP JUMPDEST PUSH2 0xAC7 JUMP JUMPDEST PUSH1 0x40 MLOAD PUSH2 0x325 SWAP2 SWAP1 PUSH2 0x21AE JUMP JUMPDEST PUSH1 0x40 MLOAD DUP1 SWAP2 SUB SWAP1 RETURN JUMPDEST PUSH1 0x0 PUSH32 0x80AC58CD00000000000000000000000000000000000000000000000000000000 PUSH28 0xFFFFFFFFFFFFFFFFFFFFFFFFFFFFFFFFFFFFFFFFFFFFFFFFFFFFFFFF NOT AND DUP3 PUSH28 0xFFFFFFFFFFFFFFFFFFFFFFFFFFFFFFFFFFFFFFFFFFFFFFFFFFFFFFFF NOT AND EQ DUP1 PUSH2 0x3F9 JUMPI POP PUSH32 0x5B5E139F00000000000000000000000000000000000000000000000000000000 PUSH28 0xFFFFFFFFFFFFFFFFFFFFFFFFFFFFFFFFFFFFFFFFFFFFFFFFFFFFFFFF NOT AND DUP3 PUSH28 0xFFFFFFFFFFFFFFFFFFFFFFFFFFFFFFFFFFFFFFFFFFFFFFFFFFFFFFFF NOT AND EQ JUMPDEST DUP1 PUSH2 0x409 JUMPI POP PUSH2 0x408 DUP3 PUSH2 0xAE2 JUMP JUMPDEST JUMPDEST SWAP1 POP SWAP2 SWAP1 POP JUMP JUMPDEST PUSH1 0x60 PUSH1 0x0 DUP1 SLOAD PUSH2 0x41F SWAP1 PUSH2 0x23DD JUMP JUMPDEST DUP1 PUSH1 0x1F ADD PUSH1 0x20 DUP1 SWAP2 DIV MUL PUSH1 0x20 ADD PUSH1 0x40 MLOAD SWAP1 DUP2 ADD PUSH1 0x40 MSTORE DUP1 SWAP3 SWAP2 SWAP1 DUP2 DUP2 MSTORE PUSH1 0x20 ADD DUP3 DUP1 SLOAD PUSH2 0x44B SWAP1 PUSH2 0x23DD JUMP JUMPDEST DUP1 ISZERO PUSH2 0x498 JUMPI DUP1 PUSH1 0x1F LT PUSH2 0x46D JUMPI PUSH2 0x100 DUP1 DUP4 SLOAD DIV MUL DUP4 MSTORE SWAP2 PUSH1 0x20 ADD SWAP2 PUSH2 0x498 JUMP JUMPDEST DUP3 ADD SWAP2 SWAP1 PUSH1 0x0 MSTORE PUSH1 0x20 PUSH1 0x0 KECCAK256 SWAP1 JUMPDEST DUP2 SLOAD DUP2 MSTORE SWAP1 PUSH1 0x1 ADD SWAP1 PUSH1 0x20 ADD DUP1 DUP4 GT PUSH2 0x47B JUMPI DUP3 SWAP1 SUB PUSH1 0x1F AND DUP3 ADD SWAP2 JUMPDEST POP POP POP POP POP SWAP1 POP SWAP1 JUMP JUMPDEST PUSH1 0x0 PUSH2 0x4AD DUP3 PUSH2 0xB4C JUMP JUMPDEST PUSH2 0x4EC JUMPI PUSH1 0x40 MLOAD PUSH32 0x8C379A000000000000000000000000000000000000000000000000000000000 DUP2 MSTORE PUSH1 0x4 ADD PUSH2 0x4E3 SWAP1 PUSH2 0x210E JUMP JUMPDEST PUSH1 0x40 MLOAD DUP1 SWAP2 SUB SWAP1 REVERT JUMPDEST PUSH1 0x4 PUSH1 0x0 DUP4 DUP2 MSTORE PUSH1 0x20 ADD SWAP1 DUP2 MSTORE PUSH1 0x20 ADD PUSH1 0x0 KECCAK256 PUSH1 0x0 SWAP1 SLOAD SWAP1 PUSH2 0x100 EXP SWAP1 DIV PUSH20 0xFFFFFFFFFFFFFFFFFFFFFFFFFFFFFFFFFFFFFFFF AND SWAP1 POP SWAP2 SWAP1 POP JUMP JUMPDEST PUSH1 0x0 PUSH2 0x532 DUP3 PUSH2 0x6BF JUMP JUMPDEST SWAP1 POP DUP1 PUSH20 0xFFFFFFFFFFFFFFFFFFFFFFFFFFFFFFFFFFFFFFFF AND DUP4 PUSH20 0xFFFFFFFFFFFFFFFFFFFFFFFFFFFFFFFFFFFFFFFF AND EQ ISZERO PUSH2 0x5A3 JUMPI PUSH1 0x40 MLOAD PUSH32 0x8C379A000000000000000000000000000000000000000000000000000000000 DUP2 MSTORE PUSH1 0x4 ADD PUSH2 0x59A SWAP1 PUSH2 0x214E JUMP JUMPDEST PUSH1 0x40 MLOAD DUP1 SWAP2 SUB SWAP1 REVERT JUMPDEST DUP1 PUSH20 0xFFFFFFFFFFFFFFFFFFFFFFFFFFFFFFFFFFFFFFFF AND PUSH2 0x5C2 PUSH2 0xBB8 JUMP JUMPDEST PUSH20 0xFFFFFFFFFFFFFFFFFFFFFFFFFFFFFFFFFFFFFFFF AND EQ DUP1 PUSH2 0x5F1 JUMPI POP PUSH2 0x5F0 DUP2 PUSH2 0x5EB PUSH2 0xBB8 JUMP JUMPDEST PUSH2 0xA33 JUMP JUMPDEST JUMPDEST PUSH2 0x630 JUMPI PUSH1 0x40 MLOAD PUSH32 0x8C379A000000000000000000000000000000000000000000000000000000000 DUP2 MSTORE PUSH1 0x4 ADD PUSH2 0x627 SWAP1 PUSH2 0x208E JUMP JUMPDEST PUSH1 0x40 MLOAD DUP1 SWAP2 SUB SWAP1 REVERT JUMPDEST PUSH2 0x63A DUP4 DUP4 PUSH2 0xBC0 JUMP JUMPDEST POP POP POP JUMP JUMPDEST PUSH2 0x650 PUSH2 0x64A PUSH2 0xBB8 JUMP JUMPDEST DUP3 PUSH2 0xC79 JUMP JUMPDEST PUSH2 0x68F JUMPI PUSH1 0x40 MLOAD PUSH32 0x8C379A000000000000000000000000000000000000000000000000000000000 DUP2 MSTORE PUSH1 0x4 ADD PUSH2 0x686 SWAP1 PUSH2 0x216E JUMP JUMPDEST PUSH1 0x40 MLOAD DUP1 SWAP2 SUB SWAP1 REVERT JUMPDEST PUSH2 0x69A DUP4 DUP4 DUP4 PUSH2 0xD57 JUMP JUMPDEST POP POP POP JUMP JUMPDEST PUSH2 0x6BA DUP4 DUP4 DUP4 PUSH1 0x40 MLOAD DUP1 PUSH1 0x20 ADD PUSH1 0x40 MSTORE DUP1 PUSH1 0x0 DUP2 MSTORE POP PUSH2 0x92A JUMP JUMPDEST POP POP POP JUMP JUMPDEST PUSH1 0x0 DUP1 PUSH1 0x2 PUSH1 0x0 DUP5 DUP2 MSTORE PUSH1 0x20 ADD SWAP1 DUP2 MSTORE PUSH1 0x20 ADD PUSH1 0x0 KECCAK256 PUSH1 0x0 SWAP1 SLOAD SWAP1 PUSH2 0x100 EXP SWAP1 DIV PUSH20 0xFFFFFFFFFFFFFFFFFFFFFFFFFFFFFFFFFFFFFFFF AND SWAP1 POP PUSH1 0x0 PUSH20 0xFFFFFFFFFFFFFFFFFFFFFFFFFFFFFFFFFFFFFFFF AND DUP2 PUSH20 0xFFFFFFFFFFFFFFFFFFFFFFFFFFFFFFFFFFFFFFFF AND EQ ISZERO PUSH2 0x768 JUMPI PUSH1 0x40 MLOAD PUSH32 0x8C379A000000000000000000000000000000000000000000000000000000000 DUP2 MSTORE PUSH1 0x4 ADD PUSH2 0x75F SWAP1 PUSH2 0x20CE JUMP JUMPDEST PUSH1 0x40 MLOAD DUP1 SWAP2 SUB SWAP1 REVERT JUMPDEST DUP1 SWAP2 POP POP SWAP2 SWAP1 POP JUMP JUMPDEST PUSH1 0x0 PUSH1 0xB SLOAD CALLER TIMESTAMP PUSH1 0x1 NUMBER PUSH2 0x785 SWAP2 SWAP1 PUSH2 0x22E9 JUMP JUMPDEST BLOCKHASH PUSH1 0x40 MLOAD PUSH1 0x20 ADD PUSH2 0x799 SWAP5 SWAP4 SWAP3 SWAP2 SWAP1 PUSH2 0x1EDC JUMP JUMPDEST PUSH1 0x40 MLOAD PUSH1 0x20 DUP2 DUP4 SUB SUB DUP2 MSTORE SWAP1 PUSH1 0x40 MSTORE DUP1 MLOAD SWAP1 PUSH1 0x20 ADD KECCAK256 PUSH1 0x0 SHR SWAP1 POP PUSH2 0x7C6 DUP3 PUSH2 0x7C1 DUP4 PUSH2 0xFBE JUMP JUMPDEST PUSH2 0x111B JUMP JUMPDEST POP POP JUMP JUMPDEST PUSH1 0x0 DUP1 PUSH20 0xFFFFFFFFFFFFFFFFFFFFFFFFFFFFFFFFFFFFFFFF AND DUP3 PUSH20 0xFFFFFFFFFFFFFFFFFFFFFFFFFFFFFFFFFFFFFFFF AND EQ ISZERO PUSH2 0x83B JUMPI PUSH1 0x40 MLOAD PUSH32 0x8C379A000000000000000000000000000000000000000000000000000000000 DUP2 MSTORE PUSH1 0x4 ADD PUSH2 0x832 SWAP1 PUSH2 0x20AE JUMP JUMPDEST PUSH1 0x40 MLOAD DUP1 SWAP2 SUB SWAP1 REVERT JUMPDEST PUSH1 0x3 PUSH1 0x0 DUP4 PUSH20 0xFFFFFFFFFFFFFFFFFFFFFFFFFFFFFFFFFFFFFFFF AND PUSH20 0xFFFFFFFFFFFFFFFFFFFFFFFFFFFFFFFFFFFFFFFF AND DUP2 MSTORE PUSH1 0x20 ADD SWAP1 DUP2 MSTORE PUSH1 0x20 ADD PUSH1 0x0 KECCAK256 SLOAD SWAP1 POP SWAP2 SWAP1 POP JUMP JUMPDEST PUSH1 0x60 PUSH1 0x1 DUP1 SLOAD PUSH2 0x891 SWAP1 PUSH2 0x23DD JUMP JUMPDEST DUP1 PUSH1 0x1F ADD PUSH1 0x20 DUP1 SWAP2 DIV MUL PUSH1 0x20 ADD PUSH1 0x40 MLOAD SWAP1 DUP2 ADD PUSH1 0x40 MSTORE DUP1 SWAP3 SWAP2 SWAP1 DUP2 DUP2 MSTORE PUSH1 0x20 ADD DUP3 DUP1 SLOAD PUSH2 0x8BD SWAP1 PUSH2 0x23DD JUMP JUMPDEST DUP1 ISZERO PUSH2 0x90A JUMPI DUP1 PUSH1 0x1F LT PUSH2 0x8DF JUMPI PUSH2 0x100 DUP1 DUP4 SLOAD DIV MUL DUP4 MSTORE SWAP2 PUSH1 0x20 ADD SWAP2 PUSH2 0x90A JUMP JUMPDEST DUP3 ADD SWAP2 SWAP1 PUSH1 0x0 MSTORE PUSH1 0x20 PUSH1 0x0 KECCAK256 SWAP1 JUMPDEST DUP2 SLOAD DUP2 MSTORE SWAP1 PUSH1 0x1 ADD SWAP1 PUSH1 0x20 ADD DUP1 DUP4 GT PUSH2 0x8ED JUMPI DUP3 SWAP1 SUB PUSH1 0x1F AND DUP3 ADD SWAP2 JUMPDEST POP POP POP POP POP SWAP1 POP SWAP1 JUMP JUMPDEST PUSH2 0x926 PUSH2 0x91F PUSH2 0xBB8 JUMP JUMPDEST DUP4 DUP4 PUSH2 0x1139 JUMP JUMPDEST POP POP JUMP JUMPDEST PUSH2 0x93B PUSH2 0x935 PUSH2 0xBB8 JUMP JUMPDEST DUP4 PUSH2 0xC79 JUMP JUMPDEST PUSH2 0x97A JUMPI PUSH1 0x40 MLOAD PUSH32 0x8C379A000000000000000000000000000000000000000000000000000000000 DUP2 MSTORE PUSH1 0x4 ADD PUSH2 0x971 SWAP1 PUSH2 0x216E JUMP JUMPDEST PUSH1 0x40 MLOAD DUP1 SWAP2 SUB SWAP1 REVERT JUMPDEST PUSH2 0x986 DUP5 DUP5 DUP5 DUP5 PUSH2 0x12A6 JUMP JUMPDEST POP POP POP POP JUMP JUMPDEST PUSH1 0x60 PUSH2 0x997 DUP3 PUSH2 0xB4C JUMP JUMPDEST PUSH2 0x9D6 JUMPI PUSH1 0x40 MLOAD PUSH32 0x8C379A000000000000000000000000000000000000000000000000000000000 DUP2 MSTORE PUSH1 0x4 ADD PUSH2 0x9CD SWAP1 PUSH2 0x212E JUMP JUMPDEST PUSH1 0x40 MLOAD DUP1 SWAP2 SUB SWAP1 REVERT JUMPDEST PUSH1 0x0 PUSH2 0x9E0 PUSH2 0x1302 JUMP JUMPDEST SWAP1 POP PUSH1 0x0 DUP2 MLOAD GT PUSH2 0xA00 JUMPI PUSH1 0x40 MLOAD DUP1 PUSH1 0x20 ADD PUSH1 0x40 MSTORE DUP1 PUSH1 0x0 DUP2 MSTORE POP PUSH2 0xA2B JUMP JUMPDEST DUP1 PUSH2 0xA0A DUP5 PUSH2 0x1319 JUMP JUMPDEST PUSH1 0x40 MLOAD PUSH1 0x20 ADD PUSH2 0xA1B SWAP3 SWAP2 SWAP1 PUSH2 0x1EB8 JUMP JUMPDEST PUSH1 0x40 MLOAD PUSH1 0x20 DUP2 DUP4 SUB SUB DUP2 MSTORE SWAP1 PUSH1 0x40 MSTORE JUMPDEST SWAP2 POP POP SWAP2 SWAP1 POP JUMP JUMPDEST PUSH1 0x0 PUSH1 0x5 PUSH1 0x0 DUP5 PUSH20 0xFFFFFFFFFFFFFFFFFFFFFFFFFFFFFFFFFFFFFFFF AND PUSH20 0xFFFFFFFFFFFFFFFFFFFFFFFFFFFFFFFFFFFFFFFF AND DUP2 MSTORE PUSH1 0x20 ADD SWAP1 DUP2 MSTORE PUSH1 0x20 ADD PUSH1 0x0 KECCAK256 PUSH1 0x0 DUP4 PUSH20 0xFFFFFFFFFFFFFFFFFFFFFFFFFFFFFFFFFFFFFFFF AND PUSH20 0xFFFFFFFFFFFFFFFFFFFFFFFFFFFFFFFFFFFFFFFF AND DUP2 MSTORE PUSH1 0x20 ADD SWAP1 DUP2 MSTORE PUSH1 0x20 ADD PUSH1 0x0 KECCAK256 PUSH1 0x0 SWAP1 SLOAD SWAP1 PUSH2 0x100 EXP SWAP1 DIV PUSH1 0xFF AND SWAP1 POP SWAP3 SWAP2 POP POP JUMP JUMPDEST PUSH1 0x6 DUP2 PUSH1 0x5 DUP2 LT PUSH2 0xAD7 JUMPI PUSH1 0x0 DUP1 REVERT JUMPDEST ADD PUSH1 0x0 SWAP2 POP SWAP1 POP SLOAD DUP2 JUMP JUMPDEST PUSH1 0x0 PUSH32 0x1FFC9A700000000000000000000000000000000000000000000000000000000 PUSH28 0xFFFFFFFFFFFFFFFFFFFFFFFFFFFFFFFFFFFFFFFFFFFFFFFFFFFFFFFF NOT AND DUP3 PUSH28 0xFFFFFFFFFFFFFFFFFFFFFFFFFFFFFFFFFFFFFFFFFFFFFFFFFFFFFFFF NOT AND EQ SWAP1 POP SWAP2 SWAP1 POP JUMP JUMPDEST PUSH1 0x0 DUP1 PUSH20 0xFFFFFFFFFFFFFFFFFFFFFFFFFFFFFFFFFFFFFFFF AND PUSH1 0x2 PUSH1 0x0 DUP5 DUP2 MSTORE PUSH1 0x20 ADD SWAP1 DUP2 MSTORE PUSH1 0x20 ADD PUSH1 0x0 KECCAK256 PUSH1 0x0 SWAP1 SLOAD SWAP1 PUSH2 0x100 EXP SWAP1 DIV PUSH20 0xFFFFFFFFFFFFFFFFFFFFFFFFFFFFFFFFFFFFFFFF AND PUSH20 0xFFFFFFFFFFFFFFFFFFFFFFFFFFFFFFFFFFFFFFFF AND EQ ISZERO SWAP1 POP SWAP2 SWAP1 POP JUMP JUMPDEST PUSH1 0x0 CALLER SWAP1 POP SWAP1 JUMP JUMPDEST DUP2 PUSH1 0x4 PUSH1 0x0 DUP4 DUP2 MSTORE PUSH1 0x20 ADD SWAP1 DUP2 MSTORE PUSH1 0x20 ADD PUSH1 0x0 KECCAK256 PUSH1 0x0 PUSH2 0x100 EXP DUP2 SLOAD DUP2 PUSH20 0xFFFFFFFFFFFFFFFFFFFFFFFFFFFFFFFFFFFFFFFF MUL NOT AND SWAP1 DUP4 PUSH20 0xFFFFFFFFFFFFFFFFFFFFFFFFFFFFFFFFFFFFFFFF AND MUL OR SWAP1 SSTORE POP DUP1 DUP3 PUSH20 0xFFFFFFFFFFFFFFFFFFFFFFFFFFFFFFFFFFFFFFFF AND PUSH2 0xC33 DUP4 PUSH2 0x6BF JUMP JUMPDEST PUSH20 0xFFFFFFFFFFFFFFFFFFFFFFFFFFFFFFFFFFFFFFFF AND PUSH32 0x8C5BE1E5EBEC7D5BD14F71427D1E84F3DD0314C0F7B2291E5B200AC8C7C3B925 PUSH1 0x40 MLOAD PUSH1 0x40 MLOAD DUP1 SWAP2 SUB SWAP1 LOG4 POP POP JUMP JUMPDEST PUSH1 0x0 PUSH2 0xC84 DUP3 PUSH2 0xB4C JUMP JUMPDEST PUSH2 0xCC3 JUMPI PUSH1 0x40 MLOAD PUSH32 0x8C379A000000000000000000000000000000000000000000000000000000000 DUP2 MSTORE PUSH1 0x4 ADD PUSH2 0xCBA SWAP1 PUSH2 0x206E JUMP JUMPDEST PUSH1 0x40 MLOAD DUP1 SWAP2 SUB SWAP1 REVERT JUMPDEST PUSH1 0x0 PUSH2 0xCCE DUP4 PUSH2 0x6BF JUMP JUMPDEST SWAP1 POP DUP1 PUSH20 0xFFFFFFFFFFFFFFFFFFFFFFFFFFFFFFFFFFFFFFFF AND DUP5 PUSH20 0xFFFFFFFFFFFFFFFFFFFFFFFFFFFFFFFFFFFFFFFF AND EQ DUP1 PUSH2 0xD10 JUMPI POP PUSH2 0xD0F DUP2 DUP6 PUSH2 0xA33 JUMP JUMPDEST JUMPDEST DUP1 PUSH2 0xD4E JUMPI POP DUP4 PUSH20 0xFFFFFFFFFFFFFFFFFFFFFFFFFFFFFFFFFFFFFFFF AND PUSH2 0xD36 DUP5 PUSH2 0x4A2 JUMP JUMPDEST PUSH20 0xFFFFFFFFFFFFFFFFFFFFFFFFFFFFFFFFFFFFFFFF AND EQ JUMPDEST SWAP2 POP POP SWAP3 SWAP2 POP POP JUMP JUMPDEST DUP3 PUSH20 0xFFFFFFFFFFFFFFFFFFFFFFFFFFFFFFFFFFFFFFFF AND PUSH2 0xD77 DUP3 PUSH2 0x6BF JUMP JUMPDEST PUSH20 0xFFFFFFFFFFFFFFFFFFFFFFFFFFFFFFFFFFFFFFFF AND EQ PUSH2 0xDCD JUMPI PUSH1 0x40 MLOAD PUSH32 0x8C379A000000000000000000000000000000000000000000000000000000000 DUP2 MSTORE PUSH1 0x4 ADD PUSH2 0xDC4 SWAP1 PUSH2 0x1FEE JUMP JUMPDEST PUSH1 0x40 MLOAD DUP1 SWAP2 SUB SWAP1 REVERT JUMPDEST PUSH1 0x0 PUSH20 0xFFFFFFFFFFFFFFFFFFFFFFFFFFFFFFFFFFFFFFFF AND DUP3 PUSH20 0xFFFFFFFFFFFFFFFFFFFFFFFFFFFFFFFFFFFFFFFF AND EQ ISZERO PUSH2 0xE3D JUMPI PUSH1 0x40 MLOAD PUSH32 0x8C379A000000000000000000000000000000000000000000000000000000000 DUP2 MSTORE PUSH1 0x4 ADD PUSH2 0xE34 SWAP1 PUSH2 0x202E JUMP JUMPDEST PUSH1 0x40 MLOAD DUP1 SWAP2 SUB SWAP1 REVERT JUMPDEST PUSH2 0xE48 DUP4 DUP4 DUP4 PUSH2 0x147A JUMP JUMPDEST PUSH2 0xE53 PUSH1 0x0 DUP3 PUSH2 0xBC0 JUMP JUMPDEST PUSH1 0x1 PUSH1 0x3 PUSH1 0x0 DUP6 PUSH20 0xFFFFFFFFFFFFFFFFFFFFFFFFFFFFFFFFFFFFFFFF AND PUSH20 0xFFFFFFFFFFFFFFFFFFFFFFFFFFFFFFFFFFFFFFFF AND DUP2 MSTORE PUSH1 0x20 ADD SWAP1 DUP2 MSTORE PUSH1 0x20 ADD PUSH1 0x0 KECCAK256 PUSH1 0x0 DUP3 DUP3 SLOAD PUSH2 0xEA3 SWAP2 SWAP1 PUSH2 0x22E9 JUMP JUMPDEST SWAP3 POP POP DUP2 SWAP1 SSTORE POP PUSH1 0x1 PUSH1 0x3 PUSH1 0x0 DUP5 PUSH20 0xFFFFFFFFFFFFFFFFFFFFFFFFFFFFFFFFFFFFFFFF AND PUSH20 0xFFFFFFFFFFFFFFFFFFFFFFFFFFFFFFFFFFFFFFFF AND DUP2 MSTORE PUSH1 0x20 ADD SWAP1 DUP2 MSTORE PUSH1 0x20 ADD PUSH1 0x0 KECCAK256 PUSH1 0x0 DUP3 DUP3 SLOAD PUSH2 0xEFA SWAP2 SWAP1 PUSH2 0x2262 JUMP JUMPDEST SWAP3 POP POP DUP2 SWAP1 SSTORE POP DUP2 PUSH1 0x2 PUSH1 0x0 DUP4 DUP2 MSTORE PUSH1 0x20 ADD SWAP1 DUP2 MSTORE PUSH1 0x20 ADD PUSH1 0x0 KECCAK256 PUSH1 0x0 PUSH2 0x100 EXP DUP2 SLOAD DUP2 PUSH20 0xFFFFFFFFFFFFFFFFFFFFFFFFFFFFFFFFFFFFFFFF MUL NOT AND SWAP1 DUP4 PUSH20 0xFFFFFFFFFFFFFFFFFFFFFFFFFFFFFFFFFFFFFFFF AND MUL OR SWAP1 SSTORE POP DUP1 DUP3 PUSH20 0xFFFFFFFFFFFFFFFFFFFFFFFFFFFFFFFFFFFFFFFF AND DUP5 PUSH20 0xFFFFFFFFFFFFFFFFFFFFFFFFFFFFFFFFFFFFFFFF AND PUSH32 0xDDF252AD1BE2C89B69C2B068FC378DAA952BA7F163C4A11628F55A4DF523B3EF PUSH1 0x40 MLOAD PUSH1 0x40 MLOAD DUP1 SWAP2 SUB SWAP1 LOG4 PUSH2 0xFB9 DUP4 DUP4 DUP4 PUSH2 0x147F JUMP JUMPDEST POP POP POP JUMP JUMPDEST PUSH1 0x0 DUP1 PUSH1 0xB PUSH1 0x0 DUP2 SLOAD DUP1 SWAP3 SWAP2 SWAP1 PUSH2 0xFD4 SWAP1 PUSH2 0x2440 JUMP JUMPDEST SWAP2 SWAP1 POP SSTORE PUSH1 0x5 PUSH2 0xFE4 SWAP2 SWAP1 PUSH2 0x22E9 JUMP JUMPDEST SWAP1 POP PUSH1 0x0 DUP2 GT PUSH2 0x1029 JUMPI PUSH1 0x40 MLOAD PUSH32 0x8C379A000000000000000000000000000000000000000000000000000000000 DUP2 MSTORE PUSH1 0x4 ADD PUSH2 0x1020 SWAP1 PUSH2 0x218E JUMP JUMPDEST PUSH1 0x40 MLOAD DUP1 SWAP2 SUB SWAP1 REVERT JUMPDEST PUSH1 0x0 DUP2 DUP5 PUSH2 0x1037 SWAP2 SWAP1 PUSH2 0x24C1 JUMP JUMPDEST SWAP1 POP PUSH1 0x0 PUSH1 0x6 DUP3 PUSH1 0x5 DUP2 LT PUSH2 0x104F JUMPI PUSH2 0x104E PUSH2 0x257F JUMP JUMPDEST JUMPDEST ADD SLOAD EQ ISZERO PUSH2 0x105D JUMPI DUP1 PUSH2 0x1074 JUMP JUMPDEST PUSH1 0x6 DUP2 PUSH1 0x5 DUP2 LT PUSH2 0x1071 JUMPI PUSH2 0x1070 PUSH2 0x257F JUMP JUMPDEST JUMPDEST ADD SLOAD JUMPDEST SWAP3 POP PUSH1 0x0 PUSH1 0x6 PUSH1 0x1 DUP5 PUSH2 0x1087 SWAP2 SWAP1 PUSH2 0x22E9 JUMP JUMPDEST PUSH1 0x5 DUP2 LT PUSH2 0x1098 JUMPI PUSH2 0x1097 PUSH2 0x257F JUMP JUMPDEST JUMPDEST ADD SLOAD EQ PUSH2 0x10C6 JUMPI PUSH1 0x6 PUSH1 0x1 DUP4 PUSH2 0x10AE SWAP2 SWAP1 PUSH2 0x22E9 JUMP JUMPDEST PUSH1 0x5 DUP2 LT PUSH2 0x10BF JUMPI PUSH2 0x10BE PUSH2 0x257F JUMP JUMPDEST JUMPDEST ADD SLOAD PUSH2 0x10D4 JUMP JUMPDEST PUSH1 0x1 DUP3 PUSH2 0x10D3 SWAP2 SWAP1 PUSH2 0x22E9 JUMP JUMPDEST JUMPDEST PUSH1 0x6 DUP3 PUSH1 0x5 DUP2 LT PUSH2 0x10E8 JUMPI PUSH2 0x10E7 PUSH2 0x257F JUMP JUMPDEST JUMPDEST ADD DUP2 SWAP1 SSTORE POP PUSH1 0x0 PUSH1 0x6 PUSH1 0x1 DUP5 PUSH2 0x10FE SWAP2 SWAP1 PUSH2 0x22E9 JUMP JUMPDEST PUSH1 0x5 DUP2 LT PUSH2 0x110F JUMPI PUSH2 0x110E PUSH2 0x257F JUMP JUMPDEST JUMPDEST ADD DUP2 SWAP1 SSTORE POP POP POP SWAP2 SWAP1 POP JUMP JUMPDEST PUSH2 0x1135 DUP3 DUP3 PUSH1 0x40 MLOAD DUP1 PUSH1 0x20 ADD PUSH1 0x40 MSTORE DUP1 PUSH1 0x0 DUP2 MSTORE POP PUSH2 0x1484 JUMP JUMPDEST POP POP JUMP JUMPDEST DUP2 PUSH20 0xFFFFFFFFFFFFFFFFFFFFFFFFFFFFFFFFFFFFFFFF AND DUP4 PUSH20 0xFFFFFFFFFFFFFFFFFFFFFFFFFFFFFFFFFFFFFFFF AND EQ ISZERO PUSH2 0x11A8 JUMPI PUSH1 0x40 MLOAD PUSH32 0x8C379A000000000000000000000000000000000000000000000000000000000 DUP2 MSTORE PUSH1 0x4 ADD PUSH2 0x119F SWAP1 PUSH2 0x204E JUMP JUMPDEST PUSH1 0x40 MLOAD DUP1 SWAP2 SUB SWAP1 REVERT JUMPDEST DUP1 PUSH1 0x5 PUSH1 0x0 DUP6 PUSH20 0xFFFFFFFFFFFFFFFFFFFFFFFFFFFFFFFFFFFFFFFF AND PUSH20 0xFFFFFFFFFFFFFFFFFFFFFFFFFFFFFFFFFFFFFFFF AND DUP2 MSTORE PUSH1 0x20 ADD SWAP1 DUP2 MSTORE PUSH1 0x20 ADD PUSH1 0x0 KECCAK256 PUSH1 0x0 DUP5 PUSH20 0xFFFFFFFFFFFFFFFFFFFFFFFFFFFFFFFFFFFFFFFF AND PUSH20 0xFFFFFFFFFFFFFFFFFFFFFFFFFFFFFFFFFFFFFFFF AND DUP2 MSTORE PUSH1 0x20 ADD SWAP1 DUP2 MSTORE PUSH1 0x20 ADD PUSH1 0x0 KECCAK256 PUSH1 0x0 PUSH2 0x100 EXP DUP2 SLOAD DUP2 PUSH1 0xFF MUL NOT AND SWAP1 DUP4 ISZERO ISZERO MUL OR SWAP1 SSTORE POP DUP2 PUSH20 0xFFFFFFFFFFFFFFFFFFFFFFFFFFFFFFFFFFFFFFFF AND DUP4 PUSH20 0xFFFFFFFFFFFFFFFFFFFFFFFFFFFFFFFFFFFFFFFF AND PUSH32 0x17307EAB39AB6107E8899845AD3D59BD9653F200F220920489CA2B5937696C31 DUP4 PUSH1 0x40 MLOAD PUSH2 0x1299 SWAP2 SWAP1 PUSH2 0x1F91 JUMP JUMPDEST PUSH1 0x40 MLOAD DUP1 SWAP2 SUB SWAP1 LOG3 POP POP POP JUMP JUMPDEST PUSH2 0x12B1 DUP5 DUP5 DUP5 PUSH2 0xD57 JUMP JUMPDEST PUSH2 0x12BD DUP5 DUP5 DUP5 DUP5 PUSH2 0x14DF JUMP JUMPDEST PUSH2 0x12FC JUMPI PUSH1 0x40 MLOAD PUSH32 0x8C379A000000000000000000000000000000000000000000000000000000000 DUP2 MSTORE PUSH1 0x4 ADD PUSH2 0x12F3 SWAP1 PUSH2 0x1FCE JUMP JUMPDEST PUSH1 0x40 MLOAD DUP1 SWAP2 SUB SWAP1 REVERT JUMPDEST POP POP POP POP JUMP JUMPDEST PUSH1 0x60 PUSH1 0x40 MLOAD DUP1 PUSH1 0x20 ADD PUSH1 0x40 MSTORE DUP1 PUSH1 0x0 DUP2 MSTORE POP SWAP1 POP SWAP1 JUMP JUMPDEST PUSH1 0x60 PUSH1 0x0 DUP3 EQ ISZERO PUSH2 0x1361 JUMPI PUSH1 0x40 MLOAD DUP1 PUSH1 0x40 ADD PUSH1 0x40 MSTORE DUP1 PUSH1 0x1 DUP2 MSTORE PUSH1 0x20 ADD PUSH32 0x3000000000000000000000000000000000000000000000000000000000000000 DUP2 MSTORE POP SWAP1 POP PUSH2 0x1475 JUMP JUMPDEST PUSH1 0x0 DUP3 SWAP1 POP PUSH1 0x0 JUMPDEST PUSH1 0x0 DUP3 EQ PUSH2 0x1393 JUMPI DUP1 DUP1 PUSH2 0x137C SWAP1 PUSH2 0x2440 JUMP JUMPDEST SWAP2 POP POP PUSH1 0xA DUP3 PUSH2 0x138C SWAP2 SWAP1 PUSH2 0x22B8 JUMP JUMPDEST SWAP2 POP PUSH2 0x1369 JUMP JUMPDEST PUSH1 0x0 DUP2 PUSH8 0xFFFFFFFFFFFFFFFF DUP2 GT ISZERO PUSH2 0x13AF JUMPI PUSH2 0x13AE PUSH2 0x25AE JUMP JUMPDEST JUMPDEST PUSH1 0x40 MLOAD SWAP1 DUP1 DUP3 MSTORE DUP1 PUSH1 0x1F ADD PUSH1 0x1F NOT AND PUSH1 0x20 ADD DUP3 ADD PUSH1 0x40 MSTORE DUP1 ISZERO PUSH2 0x13E1 JUMPI DUP2 PUSH1 0x20 ADD PUSH1 0x1 DUP3 MUL DUP1 CALLDATASIZE DUP4 CALLDATACOPY DUP1 DUP3 ADD SWAP2 POP POP SWAP1 POP JUMPDEST POP SWAP1 POP JUMPDEST PUSH1 0x0 DUP6 EQ PUSH2 0x146E JUMPI PUSH1 0x1 DUP3 PUSH2 0x13FA SWAP2 SWAP1 PUSH2 0x22E9 JUMP JUMPDEST SWAP2 POP PUSH1 0xA DUP6 PUSH2 0x1409 SWAP2 SWAP1 PUSH2 0x24C1 JUMP JUMPDEST PUSH1 0x30 PUSH2 0x1415 SWAP2 SWAP1 PUSH2 0x2262 JUMP JUMPDEST PUSH1 0xF8 SHL DUP2 DUP4 DUP2 MLOAD DUP2 LT PUSH2 0x142B JUMPI PUSH2 0x142A PUSH2 0x257F JUMP JUMPDEST JUMPDEST PUSH1 0x20 ADD ADD SWAP1 PUSH31 0xFFFFFFFFFFFFFFFFFFFFFFFFFFFFFFFFFFFFFFFFFFFFFFFFFFFFFFFFFFFFFF NOT AND SWAP1 DUP2 PUSH1 0x0 BYTE SWAP1 MSTORE8 POP PUSH1 0xA DUP6 PUSH2 0x1467 SWAP2 SWAP1 PUSH2 0x22B8 JUMP JUMPDEST SWAP5 POP PUSH2 0x13E5 JUMP JUMPDEST DUP1 SWAP4 POP POP POP POP JUMPDEST SWAP2 SWAP1 POP JUMP JUMPDEST POP POP POP JUMP JUMPDEST POP POP POP JUMP JUMPDEST PUSH2 0x148E DUP4 DUP4 PUSH2 0x1676 JUMP JUMPDEST PUSH2 0x149B PUSH1 0x0 DUP5 DUP5 DUP5 PUSH2 0x14DF JUMP JUMPDEST PUSH2 0x14DA JUMPI PUSH1 0x40 MLOAD PUSH32 0x8C379A000000000000000000000000000000000000000000000000000000000 DUP2 MSTORE PUSH1 0x4 ADD PUSH2 0x14D1 SWAP1 PUSH2 0x1FCE JUMP JUMPDEST PUSH1 0x40 MLOAD DUP1 SWAP2 SUB SWAP1 REVERT JUMPDEST POP POP POP JUMP JUMPDEST PUSH1 0x0 PUSH2 0x1500 DUP5 PUSH20 0xFFFFFFFFFFFFFFFFFFFFFFFFFFFFFFFFFFFFFFFF AND PUSH2 0x1850 JUMP JUMPDEST ISZERO PUSH2 0x1669 JUMPI DUP4 PUSH20 0xFFFFFFFFFFFFFFFFFFFFFFFFFFFFFFFFFFFFFFFF AND PUSH4 0x150B7A02 PUSH2 0x1529 PUSH2 0xBB8 JUMP JUMPDEST DUP8 DUP7 DUP7 PUSH1 0x40 MLOAD DUP6 PUSH4 0xFFFFFFFF AND PUSH1 0xE0 SHL DUP2 MSTORE PUSH1 0x4 ADD PUSH2 0x154B SWAP5 SWAP4 SWAP3 SWAP2 SWAP1 PUSH2 0x1F45 JUMP JUMPDEST PUSH1 0x20 PUSH1 0x40 MLOAD DUP1 DUP4 SUB DUP2 PUSH1 0x0 DUP8 DUP1 EXTCODESIZE ISZERO DUP1 ISZERO PUSH2 0x1565 JUMPI PUSH1 0x0 DUP1 REVERT JUMPDEST POP GAS CALL SWAP3 POP POP POP DUP1 ISZERO PUSH2 0x1596 JUMPI POP PUSH1 0x40 MLOAD RETURNDATASIZE PUSH1 0x1F NOT PUSH1 0x1F DUP3 ADD AND DUP3 ADD DUP1 PUSH1 0x40 MSTORE POP DUP2 ADD SWAP1 PUSH2 0x1593 SWAP2 SWAP1 PUSH2 0x1B3C JUMP JUMPDEST PUSH1 0x1 JUMPDEST PUSH2 0x1619 JUMPI RETURNDATASIZE DUP1 PUSH1 0x0 DUP2 EQ PUSH2 0x15C6 JUMPI PUSH1 0x40 MLOAD SWAP2 POP PUSH1 0x1F NOT PUSH1 0x3F RETURNDATASIZE ADD AND DUP3 ADD PUSH1 0x40 MSTORE RETURNDATASIZE DUP3 MSTORE RETURNDATASIZE PUSH1 0x0 PUSH1 0x20 DUP5 ADD RETURNDATACOPY PUSH2 0x15CB JUMP JUMPDEST PUSH1 0x60 SWAP2 POP JUMPDEST POP PUSH1 0x0 DUP2 MLOAD EQ ISZERO PUSH2 0x1611 JUMPI PUSH1 0x40 MLOAD PUSH32 0x8C379A000000000000000000000000000000000000000000000000000000000 DUP2 MSTORE PUSH1 0x4 ADD PUSH2 0x1608 SWAP1 PUSH2 0x1FCE JUMP JUMPDEST PUSH1 0x40 MLOAD DUP1 SWAP2 SUB SWAP1 REVERT JUMPDEST DUP1 MLOAD DUP2 PUSH1 0x20 ADD REVERT JUMPDEST PUSH4 0x150B7A02 PUSH1 0xE0 SHL PUSH28 0xFFFFFFFFFFFFFFFFFFFFFFFFFFFFFFFFFFFFFFFFFFFFFFFFFFFFFFFF NOT AND DUP2 PUSH28 0xFFFFFFFFFFFFFFFFFFFFFFFFFFFFFFFFFFFFFFFFFFFFFFFFFFFFFFFF NOT AND EQ SWAP2 POP POP PUSH2 0x166E JUMP JUMPDEST PUSH1 0x1 SWAP1 POP JUMPDEST SWAP5 SWAP4 POP POP POP POP JUMP JUMPDEST PUSH1 0x0 PUSH20 0xFFFFFFFFFFFFFFFFFFFFFFFFFFFFFFFFFFFFFFFF AND DUP3 PUSH20 0xFFFFFFFFFFFFFFFFFFFFFFFFFFFFFFFFFFFFFFFF AND EQ ISZERO PUSH2 0x16E6 JUMPI PUSH1 0x40 MLOAD PUSH32 0x8C379A000000000000000000000000000000000000000000000000000000000 DUP2 MSTORE PUSH1 0x4 ADD PUSH2 0x16DD SWAP1 PUSH2 0x20EE JUMP JUMPDEST PUSH1 0x40 MLOAD DUP1 SWAP2 SUB SWAP1 REVERT JUMPDEST PUSH2 0x16EF DUP2 PUSH2 0xB4C JUMP JUMPDEST ISZERO PUSH2 0x172F JUMPI PUSH1 0x40 MLOAD PUSH32 0x8C379A000000000000000000000000000000000000000000000000000000000 DUP2 MSTORE PUSH1 0x4 ADD PUSH2 0x1726 SWAP1 PUSH2 0x200E JUMP JUMPDEST PUSH1 0x40 MLOAD DUP1 SWAP2 SUB SWAP1 REVERT JUMPDEST PUSH2 0x173B PUSH1 0x0 DUP4 DUP4 PUSH2 0x147A JUMP JUMPDEST PUSH1 0x1 PUSH1 0x3 PUSH1 0x0 DUP5 PUSH20 0xFFFFFFFFFFFFFFFFFFFFFFFFFFFFFFFFFFFFFFFF AND PUSH20 0xFFFFFFFFFFFFFFFFFFFFFFFFFFFFFFFFFFFFFFFF AND DUP2 MSTORE PUSH1 0x20 ADD SWAP1 DUP2 MSTORE PUSH1 0x20 ADD PUSH1 0x0 KECCAK256 PUSH1 0x0 DUP3 DUP3 SLOAD PUSH2 0x178B SWAP2 SWAP1 PUSH2 0x2262 JUMP JUMPDEST SWAP3 POP POP DUP2 SWAP1 SSTORE POP DUP2 PUSH1 0x2 PUSH1 0x0 DUP4 DUP2 MSTORE PUSH1 0x20 ADD SWAP1 DUP2 MSTORE PUSH1 0x20 ADD PUSH1 0x0 KECCAK256 PUSH1 0x0 PUSH2 0x100 EXP DUP2 SLOAD DUP2 PUSH20 0xFFFFFFFFFFFFFFFFFFFFFFFFFFFFFFFFFFFFFFFF MUL NOT AND SWAP1 DUP4 PUSH20 0xFFFFFFFFFFFFFFFFFFFFFFFFFFFFFFFFFFFFFFFF AND MUL OR SWAP1 SSTORE POP DUP1 DUP3 PUSH20 0xFFFFFFFFFFFFFFFFFFFFFFFFFFFFFFFFFFFFFFFF AND PUSH1 0x0 PUSH20 0xFFFFFFFFFFFFFFFFFFFFFFFFFFFFFFFFFFFFFFFF AND PUSH32 0xDDF252AD1BE2C89B69C2B068FC378DAA952BA7F163C4A11628F55A4DF523B3EF PUSH1 0x40 MLOAD PUSH1 0x40 MLOAD DUP1 SWAP2 SUB SWAP1 LOG4 PUSH2 0x184C PUSH1 0x0 DUP4 DUP4 PUSH2 0x147F JUMP JUMPDEST POP POP JUMP JUMPDEST PUSH1 0x0 DUP1 DUP3 PUSH20 0xFFFFFFFFFFFFFFFFFFFFFFFFFFFFFFFFFFFFFFFF AND EXTCODESIZE GT SWAP1 POP SWAP2 SWAP1 POP JUMP JUMPDEST PUSH1 0x0 PUSH2 0x1886 PUSH2 0x1881 DUP5 PUSH2 0x21EE JUMP JUMPDEST PUSH2 0x21C9 JUMP JUMPDEST SWAP1 POP DUP3 DUP2 MSTORE PUSH1 0x20 DUP2 ADD DUP5 DUP5 DUP5 ADD GT ISZERO PUSH2 0x18A2 JUMPI PUSH2 0x18A1 PUSH2 0x25E2 JUMP JUMPDEST JUMPDEST PUSH2 0x18AD DUP5 DUP3 DUP6 PUSH2 0x239B JUMP JUMPDEST POP SWAP4 SWAP3 POP POP POP JUMP JUMPDEST PUSH1 0x0 DUP2 CALLDATALOAD SWAP1 POP PUSH2 0x18C4 DUP2 PUSH2 0x2A18 JUMP JUMPDEST SWAP3 SWAP2 POP POP JUMP JUMPDEST PUSH1 0x0 DUP2 CALLDATALOAD SWAP1 POP PUSH2 0x18D9 DUP2 PUSH2 0x2A2F JUMP JUMPDEST SWAP3 SWAP2 POP POP JUMP JUMPDEST PUSH1 0x0 DUP2 CALLDATALOAD SWAP1 POP PUSH2 0x18EE DUP2 PUSH2 0x2A46 JUMP JUMPDEST SWAP3 SWAP2 POP POP JUMP JUMPDEST PUSH1 0x0 DUP2 MLOAD SWAP1 POP PUSH2 0x1903 DUP2 PUSH2 0x2A46 JUMP JUMPDEST SWAP3 SWAP2 POP POP JUMP JUMPDEST PUSH1 0x0 DUP3 PUSH1 0x1F DUP4 ADD SLT PUSH2 0x191E JUMPI PUSH2 0x191D PUSH2 0x25DD JUMP JUMPDEST JUMPDEST DUP2 CALLDATALOAD PUSH2 0x192E DUP5 DUP3 PUSH1 0x20 DUP7 ADD PUSH2 0x1873 JUMP JUMPDEST SWAP2 POP POP SWAP3 SWAP2 POP POP JUMP JUMPDEST PUSH1 0x0 DUP2 CALLDATALOAD SWAP1 POP PUSH2 0x1946 DUP2 PUSH2 0x2A5D JUMP JUMPDEST SWAP3 SWAP2 POP POP JUMP JUMPDEST PUSH1 0x0 PUSH1 0x20 DUP3 DUP5 SUB SLT ISZERO PUSH2 0x1962 JUMPI PUSH2 0x1961 PUSH2 0x25EC JUMP JUMPDEST JUMPDEST PUSH1 0x0 PUSH2 0x1970 DUP5 DUP3 DUP6 ADD PUSH2 0x18B5 JUMP JUMPDEST SWAP2 POP POP SWAP3 SWAP2 POP POP JUMP JUMPDEST PUSH1 0x0 DUP1 PUSH1 0x40 DUP4 DUP6 SUB SLT ISZERO PUSH2 0x1990 JUMPI PUSH2 0x198F PUSH2 0x25EC JUMP JUMPDEST JUMPDEST PUSH1 0x0 PUSH2 0x199E DUP6 DUP3 DUP7 ADD PUSH2 0x18B5 JUMP JUMPDEST SWAP3 POP POP PUSH1 0x20 PUSH2 0x19AF DUP6 DUP3 DUP7 ADD PUSH2 0x18B5 JUMP JUMPDEST SWAP2 POP POP SWAP3 POP SWAP3 SWAP1 POP JUMP JUMPDEST PUSH1 0x0 DUP1 PUSH1 0x0 PUSH1 0x60 DUP5 DUP7 SUB SLT ISZERO PUSH2 0x19D2 JUMPI PUSH2 0x19D1 PUSH2 0x25EC JUMP JUMPDEST JUMPDEST PUSH1 0x0 PUSH2 0x19E0 DUP7 DUP3 DUP8 ADD PUSH2 0x18B5 JUMP JUMPDEST SWAP4 POP POP PUSH1 0x20 PUSH2 0x19F1 DUP7 DUP3 DUP8 ADD PUSH2 0x18B5 JUMP JUMPDEST SWAP3 POP POP PUSH1 0x40 PUSH2 0x1A02 DUP7 DUP3 DUP8 ADD PUSH2 0x1937 JUMP JUMPDEST SWAP2 POP POP SWAP3 POP SWAP3 POP SWAP3 JUMP JUMPDEST PUSH1 0x0 DUP1 PUSH1 0x0 DUP1 PUSH1 0x80 DUP6 DUP8 SUB SLT ISZERO PUSH2 0x1A26 JUMPI PUSH2 0x1A25 PUSH2 0x25EC JUMP JUMPDEST JUMPDEST PUSH1 0x0 PUSH2 0x1A34 DUP8 DUP3 DUP9 ADD PUSH2 0x18B5 JUMP JUMPDEST SWAP5 POP POP PUSH1 0x20 PUSH2 0x1A45 DUP8 DUP3 DUP9 ADD PUSH2 0x18B5 JUMP JUMPDEST SWAP4 POP POP PUSH1 0x40 PUSH2 0x1A56 DUP8 DUP3 DUP9 ADD PUSH2 0x1937 JUMP JUMPDEST SWAP3 POP POP PUSH1 0x60 DUP6 ADD CALLDATALOAD PUSH8 0xFFFFFFFFFFFFFFFF DUP2 GT ISZERO PUSH2 0x1A77 JUMPI PUSH2 0x1A76 PUSH2 0x25E7 JUMP JUMPDEST JUMPDEST PUSH2 0x1A83 DUP8 DUP3 DUP9 ADD PUSH2 0x1909 JUMP JUMPDEST SWAP2 POP POP SWAP3 SWAP6 SWAP2 SWAP5 POP SWAP3 POP JUMP JUMPDEST PUSH1 0x0 DUP1 PUSH1 0x40 DUP4 DUP6 SUB SLT ISZERO PUSH2 0x1AA6 JUMPI PUSH2 0x1AA5 PUSH2 0x25EC JUMP JUMPDEST JUMPDEST PUSH1 0x0 PUSH2 0x1AB4 DUP6 DUP3 DUP7 ADD PUSH2 0x18B5 JUMP JUMPDEST SWAP3 POP POP PUSH1 0x20 PUSH2 0x1AC5 DUP6 DUP3 DUP7 ADD PUSH2 0x18CA JUMP JUMPDEST SWAP2 POP POP SWAP3 POP SWAP3 SWAP1 POP JUMP JUMPDEST PUSH1 0x0 DUP1 PUSH1 0x40 DUP4 DUP6 SUB SLT ISZERO PUSH2 0x1AE6 JUMPI PUSH2 0x1AE5 PUSH2 0x25EC JUMP JUMPDEST JUMPDEST PUSH1 0x0 PUSH2 0x1AF4 DUP6 DUP3 DUP7 ADD PUSH2 0x18B5 JUMP JUMPDEST SWAP3 POP POP PUSH1 0x20 PUSH2 0x1B05 DUP6 DUP3 DUP7 ADD PUSH2 0x1937 JUMP JUMPDEST SWAP2 POP POP SWAP3 POP SWAP3 SWAP1 POP JUMP JUMPDEST PUSH1 0x0 PUSH1 0x20 DUP3 DUP5 SUB SLT ISZERO PUSH2 0x1B25 JUMPI PUSH2 0x1B24 PUSH2 0x25EC JUMP JUMPDEST JUMPDEST PUSH1 0x0 PUSH2 0x1B33 DUP5 DUP3 DUP6 ADD PUSH2 0x18DF JUMP JUMPDEST SWAP2 POP POP SWAP3 SWAP2 POP POP JUMP JUMPDEST PUSH1 0x0 PUSH1 0x20 DUP3 DUP5 SUB SLT ISZERO PUSH2 0x1B52 JUMPI PUSH2 0x1B51 PUSH2 0x25EC JUMP JUMPDEST JUMPDEST PUSH1 0x0 PUSH2 0x1B60 DUP5 DUP3 DUP6 ADD PUSH2 0x18F4 JUMP JUMPDEST SWAP2 POP POP SWAP3 SWAP2 POP POP JUMP JUMPDEST PUSH1 0x0 PUSH1 0x20 DUP3 DUP5 SUB SLT ISZERO PUSH2 0x1B7F JUMPI PUSH2 0x1B7E PUSH2 0x25EC JUMP JUMPDEST JUMPDEST PUSH1 0x0 PUSH2 0x1B8D DUP5 DUP3 DUP6 ADD PUSH2 0x1937 JUMP JUMPDEST SWAP2 POP POP SWAP3 SWAP2 POP POP JUMP JUMPDEST PUSH2 0x1B9F DUP2 PUSH2 0x231D JUMP JUMPDEST DUP3 MSTORE POP POP JUMP JUMPDEST PUSH2 0x1BB6 PUSH2 0x1BB1 DUP3 PUSH2 0x231D JUMP JUMPDEST PUSH2 0x2489 JUMP JUMPDEST DUP3 MSTORE POP POP JUMP JUMPDEST PUSH2 0x1BC5 DUP2 PUSH2 0x232F JUMP JUMPDEST DUP3 MSTORE POP POP JUMP JUMPDEST PUSH2 0x1BDC PUSH2 0x1BD7 DUP3 PUSH2 0x233B JUMP JUMPDEST PUSH2 0x249B JUMP JUMPDEST DUP3 MSTORE POP POP JUMP JUMPDEST PUSH1 0x0 PUSH2 0x1BED DUP3 PUSH2 0x221F JUMP JUMPDEST PUSH2 0x1BF7 DUP2 DUP6 PUSH2 0x2235 JUMP JUMPDEST SWAP4 POP PUSH2 0x1C07 DUP2 DUP6 PUSH1 0x20 DUP7 ADD PUSH2 0x23AA JUMP JUMPDEST PUSH2 0x1C10 DUP2 PUSH2 0x25F1 JUMP JUMPDEST DUP5 ADD SWAP2 POP POP SWAP3 SWAP2 POP POP JUMP JUMPDEST PUSH1 0x0 PUSH2 0x1C26 DUP3 PUSH2 0x222A JUMP JUMPDEST PUSH2 0x1C30 DUP2 DUP6 PUSH2 0x2246 JUMP JUMPDEST SWAP4 POP PUSH2 0x1C40 DUP2 DUP6 PUSH1 0x20 DUP7 ADD PUSH2 0x23AA JUMP JUMPDEST PUSH2 0x1C49 DUP2 PUSH2 0x25F1 JUMP JUMPDEST DUP5 ADD SWAP2 POP POP SWAP3 SWAP2 POP POP JUMP JUMPDEST PUSH1 0x0 PUSH2 0x1C5F DUP3 PUSH2 0x222A JUMP JUMPDEST PUSH2 0x1C69 DUP2 DUP6 PUSH2 0x2257 JUMP JUMPDEST SWAP4 POP PUSH2 0x1C79 DUP2 DUP6 PUSH1 0x20 DUP7 ADD PUSH2 0x23AA JUMP JUMPDEST DUP1 DUP5 ADD SWAP2 POP POP SWAP3 SWAP2 POP POP JUMP JUMPDEST PUSH1 0x0 PUSH2 0x1C92 PUSH1 0x32 DUP4 PUSH2 0x2246 JUMP JUMPDEST SWAP2 POP PUSH2 0x1C9D DUP3 PUSH2 0x260F JUMP JUMPDEST PUSH1 0x40 DUP3 ADD SWAP1 POP SWAP2 SWAP1 POP JUMP JUMPDEST PUSH1 0x0 PUSH2 0x1CB5 PUSH1 0x25 DUP4 PUSH2 0x2246 JUMP JUMPDEST SWAP2 POP PUSH2 0x1CC0 DUP3 PUSH2 0x265E JUMP JUMPDEST PUSH1 0x40 DUP3 ADD SWAP1 POP SWAP2 SWAP1 POP JUMP JUMPDEST PUSH1 0x0 PUSH2 0x1CD8 PUSH1 0x1C DUP4 PUSH2 0x2246 JUMP JUMPDEST SWAP2 POP PUSH2 0x1CE3 DUP3 PUSH2 0x26AD JUMP JUMPDEST PUSH1 0x20 DUP3 ADD SWAP1 POP SWAP2 SWAP1 POP JUMP JUMPDEST PUSH1 0x0 PUSH2 0x1CFB PUSH1 0x24 DUP4 PUSH2 0x2246 JUMP JUMPDEST SWAP2 POP PUSH2 0x1D06 DUP3 PUSH2 0x26D6 JUMP JUMPDEST PUSH1 0x40 DUP3 ADD SWAP1 POP SWAP2 SWAP1 POP JUMP JUMPDEST PUSH1 0x0 PUSH2 0x1D1E PUSH1 0x19 DUP4 PUSH2 0x2246 JUMP JUMPDEST SWAP2 POP PUSH2 0x1D29 DUP3 PUSH2 0x2725 JUMP JUMPDEST PUSH1 0x20 DUP3 ADD SWAP1 POP SWAP2 SWAP1 POP JUMP JUMPDEST PUSH1 0x0 PUSH2 0x1D41 PUSH1 0x2C DUP4 PUSH2 0x2246 JUMP JUMPDEST SWAP2 POP PUSH2 0x1D4C DUP3 PUSH2 0x274E JUMP JUMPDEST PUSH1 0x40 DUP3 ADD SWAP1 POP SWAP2 SWAP1 POP JUMP JUMPDEST PUSH1 0x0 PUSH2 0x1D64 PUSH1 0x38 DUP4 PUSH2 0x2246 JUMP JUMPDEST SWAP2 POP PUSH2 0x1D6F DUP3 PUSH2 0x279D JUMP JUMPDEST PUSH1 0x40 DUP3 ADD SWAP1 POP SWAP2 SWAP1 POP JUMP JUMPDEST PUSH1 0x0 PUSH2 0x1D87 PUSH1 0x2A DUP4 PUSH2 0x2246 JUMP JUMPDEST SWAP2 POP PUSH2 0x1D92 DUP3 PUSH2 0x27EC JUMP JUMPDEST PUSH1 0x40 DUP3 ADD SWAP1 POP SWAP2 SWAP1 POP JUMP JUMPDEST PUSH1 0x0 PUSH2 0x1DAA PUSH1 0x29 DUP4 PUSH2 0x2246 JUMP JUMPDEST SWAP2 POP PUSH2 0x1DB5 DUP3 PUSH2 0x283B JUMP JUMPDEST PUSH1 0x40 DUP3 ADD SWAP1 POP SWAP2 SWAP1 POP JUMP JUMPDEST PUSH1 0x0 PUSH2 0x1DCD PUSH1 0x20 DUP4 PUSH2 0x2246 JUMP JUMPDEST SWAP2 POP PUSH2 0x1DD8 DUP3 PUSH2 0x288A JUMP JUMPDEST PUSH1 0x20 DUP3 ADD SWAP1 POP SWAP2 SWAP1 POP JUMP JUMPDEST PUSH1 0x0 PUSH2 0x1DF0 PUSH1 0x2C DUP4 PUSH2 0x2246 JUMP JUMPDEST SWAP2 POP PUSH2 0x1DFB DUP3 PUSH2 0x28B3 JUMP JUMPDEST PUSH1 0x40 DUP3 ADD SWAP1 POP SWAP2 SWAP1 POP JUMP JUMPDEST PUSH1 0x0 PUSH2 0x1E13 PUSH1 0x2F DUP4 PUSH2 0x2246 JUMP JUMPDEST SWAP2 POP PUSH2 0x1E1E DUP3 PUSH2 0x2902 JUMP JUMPDEST PUSH1 0x40 DUP3 ADD SWAP1 POP SWAP2 SWAP1 POP JUMP JUMPDEST PUSH1 0x0 PUSH2 0x1E36 PUSH1 0x21 DUP4 PUSH2 0x2246 JUMP JUMPDEST SWAP2 POP PUSH2 0x1E41 DUP3 PUSH2 0x2951 JUMP JUMPDEST PUSH1 0x40 DUP3 ADD SWAP1 POP SWAP2 SWAP1 POP JUMP JUMPDEST PUSH1 0x0 PUSH2 0x1E59 PUSH1 0x31 DUP4 PUSH2 0x2246 JUMP JUMPDEST SWAP2 POP PUSH2 0x1E64 DUP3 PUSH2 0x29A0 JUMP JUMPDEST PUSH1 0x40 DUP3 ADD SWAP1 POP SWAP2 SWAP1 POP JUMP JUMPDEST PUSH1 0x0 PUSH2 0x1E7C PUSH1 0xB DUP4 PUSH2 0x2246 JUMP JUMPDEST SWAP2 POP PUSH2 0x1E87 DUP3 PUSH2 0x29EF JUMP JUMPDEST PUSH1 0x20 DUP3 ADD SWAP1 POP SWAP2 SWAP1 POP JUMP JUMPDEST PUSH2 0x1E9B DUP2 PUSH2 0x2391 JUMP JUMPDEST DUP3 MSTORE POP POP JUMP JUMPDEST PUSH2 0x1EB2 PUSH2 0x1EAD DUP3 PUSH2 0x2391 JUMP JUMPDEST PUSH2 0x24B7 JUMP JUMPDEST DUP3 MSTORE POP POP JUMP JUMPDEST PUSH1 0x0 PUSH2 0x1EC4 DUP3 DUP6 PUSH2 0x1C54 JUMP JUMPDEST SWAP2 POP PUSH2 0x1ED0 DUP3 DUP5 PUSH2 0x1C54 JUMP JUMPDEST SWAP2 POP DUP2 SWAP1 POP SWAP4 SWAP3 POP POP POP JUMP JUMPDEST PUSH1 0x0 PUSH2 0x1EE8 DUP3 DUP8 PUSH2 0x1EA1 JUMP JUMPDEST PUSH1 0x20 DUP3 ADD SWAP2 POP PUSH2 0x1EF8 DUP3 DUP7 PUSH2 0x1BA5 JUMP JUMPDEST PUSH1 0x14 DUP3 ADD SWAP2 POP PUSH2 0x1F08 DUP3 DUP6 PUSH2 0x1EA1 JUMP JUMPDEST PUSH1 0x20 DUP3 ADD SWAP2 POP PUSH2 0x1F18 DUP3 DUP5 PUSH2 0x1BCB JUMP JUMPDEST PUSH1 0x20 DUP3 ADD SWAP2 POP DUP2 SWAP1 POP SWAP6 SWAP5 POP POP POP POP POP JUMP JUMPDEST PUSH1 0x0 PUSH1 0x20 DUP3 ADD SWAP1 POP PUSH2 0x1F3F PUSH1 0x0 DUP4 ADD DUP5 PUSH2 0x1B96 JUMP JUMPDEST SWAP3 SWAP2 POP POP JUMP JUMPDEST PUSH1 0x0 PUSH1 0x80 DUP3 ADD SWAP1 POP PUSH2 0x1F5A PUSH1 0x0 DUP4 ADD DUP8 PUSH2 0x1B96 JUMP JUMPDEST PUSH2 0x1F67 PUSH1 0x20 DUP4 ADD DUP7 PUSH2 0x1B96 JUMP JUMPDEST PUSH2 0x1F74 PUSH1 0x40 DUP4 ADD DUP6 PUSH2 0x1E92 JUMP JUMPDEST DUP2 DUP2 SUB PUSH1 0x60 DUP4 ADD MSTORE PUSH2 0x1F86 DUP2 DUP5 PUSH2 0x1BE2 JUMP JUMPDEST SWAP1 POP SWAP6 SWAP5 POP POP POP POP POP JUMP JUMPDEST PUSH1 0x0 PUSH1 0x20 DUP3 ADD SWAP1 POP PUSH2 0x1FA6 PUSH1 0x0 DUP4 ADD DUP5 PUSH2 0x1BBC JUMP JUMPDEST SWAP3 SWAP2 POP POP JUMP JUMPDEST PUSH1 0x0 PUSH1 0x20 DUP3 ADD SWAP1 POP DUP2 DUP2 SUB PUSH1 0x0 DUP4 ADD MSTORE PUSH2 0x1FC6 DUP2 DUP5 PUSH2 0x1C1B JUMP JUMPDEST SWAP1 POP SWAP3 SWAP2 POP POP JUMP JUMPDEST PUSH1 0x0 PUSH1 0x20 DUP3 ADD SWAP1 POP DUP2 DUP2 SUB PUSH1 0x0 DUP4 ADD MSTORE PUSH2 0x1FE7 DUP2 PUSH2 0x1C85 JUMP JUMPDEST SWAP1 POP SWAP2 SWAP1 POP JUMP JUMPDEST PUSH1 0x0 PUSH1 0x20 DUP3 ADD SWAP1 POP DUP2 DUP2 SUB PUSH1 0x0 DUP4 ADD MSTORE PUSH2 0x2007 DUP2 PUSH2 0x1CA8 JUMP JUMPDEST SWAP1 POP SWAP2 SWAP1 POP JUMP JUMPDEST PUSH1 0x0 PUSH1 0x20 DUP3 ADD SWAP1 POP DUP2 DUP2 SUB PUSH1 0x0 DUP4 ADD MSTORE PUSH2 0x2027 DUP2 PUSH2 0x1CCB JUMP JUMPDEST SWAP1 POP SWAP2 SWAP1 POP JUMP JUMPDEST PUSH1 0x0 PUSH1 0x20 DUP3 ADD SWAP1 POP DUP2 DUP2 SUB PUSH1 0x0 DUP4 ADD MSTORE PUSH2 0x2047 DUP2 PUSH2 0x1CEE JUMP JUMPDEST SWAP1 POP SWAP2 SWAP1 POP JUMP JUMPDEST PUSH1 0x0 PUSH1 0x20 DUP3 ADD SWAP1 POP DUP2 DUP2 SUB PUSH1 0x0 DUP4 ADD MSTORE PUSH2 0x2067 DUP2 PUSH2 0x1D11 JUMP JUMPDEST SWAP1 POP SWAP2 SWAP1 POP JUMP JUMPDEST PUSH1 0x0 PUSH1 0x20 DUP3 ADD SWAP1 POP DUP2 DUP2 SUB PUSH1 0x0 DUP4 ADD MSTORE PUSH2 0x2087 DUP2 PUSH2 0x1D34 JUMP JUMPDEST SWAP1 POP SWAP2 SWAP1 POP JUMP JUMPDEST PUSH1 0x0 PUSH1 0x20 DUP3 ADD SWAP1 POP DUP2 DUP2 SUB PUSH1 0x0 DUP4 ADD MSTORE PUSH2 0x20A7 DUP2 PUSH2 0x1D57 JUMP JUMPDEST SWAP1 POP SWAP2 SWAP1 POP JUMP JUMPDEST PUSH1 0x0 PUSH1 0x20 DUP3 ADD SWAP1 POP DUP2 DUP2 SUB PUSH1 0x0 DUP4 ADD MSTORE PUSH2 0x20C7 DUP2 PUSH2 0x1D7A JUMP JUMPDEST SWAP1 POP SWAP2 SWAP1 POP JUMP JUMPDEST PUSH1 0x0 PUSH1 0x20 DUP3 ADD SWAP1 POP DUP2 DUP2 SUB PUSH1 0x0 DUP4 ADD MSTORE PUSH2 0x20E7 DUP2 PUSH2 0x1D9D JUMP JUMPDEST SWAP1 POP SWAP2 SWAP1 POP JUMP JUMPDEST PUSH1 0x0 PUSH1 0x20 DUP3 ADD SWAP1 POP DUP2 DUP2 SUB PUSH1 0x0 DUP4 ADD MSTORE PUSH2 0x2107 DUP2 PUSH2 0x1DC0 JUMP JUMPDEST SWAP1 POP SWAP2 SWAP1 POP JUMP JUMPDEST PUSH1 0x0 PUSH1 0x20 DUP3 ADD SWAP1 POP DUP2 DUP2 SUB PUSH1 0x0 DUP4 ADD MSTORE PUSH2 0x2127 DUP2 PUSH2 0x1DE3 JUMP JUMPDEST SWAP1 POP SWAP2 SWAP1 POP JUMP JUMPDEST PUSH1 0x0 PUSH1 0x20 DUP3 ADD SWAP1 POP DUP2 DUP2 SUB PUSH1 0x0 DUP4 ADD MSTORE PUSH2 0x2147 DUP2 PUSH2 0x1E06 JUMP JUMPDEST SWAP1 POP SWAP2 SWAP1 POP JUMP JUMPDEST PUSH1 0x0 PUSH1 0x20 DUP3 ADD SWAP1 POP DUP2 DUP2 SUB PUSH1 0x0 DUP4 ADD MSTORE PUSH2 0x2167 DUP2 PUSH2 0x1E29 JUMP JUMPDEST SWAP1 POP SWAP2 SWAP1 POP JUMP JUMPDEST PUSH1 0x0 PUSH1 0x20 DUP3 ADD SWAP1 POP DUP2 DUP2 SUB PUSH1 0x0 DUP4 ADD MSTORE PUSH2 0x2187 DUP2 PUSH2 0x1E4C JUMP JUMPDEST SWAP1 POP SWAP2 SWAP1 POP JUMP JUMPDEST PUSH1 0x0 PUSH1 0x20 DUP3 ADD SWAP1 POP DUP2 DUP2 SUB PUSH1 0x0 DUP4 ADD MSTORE PUSH2 0x21A7 DUP2 PUSH2 0x1E6F JUMP JUMPDEST SWAP1 POP SWAP2 SWAP1 POP JUMP JUMPDEST PUSH1 0x0 PUSH1 0x20 DUP3 ADD SWAP1 POP PUSH2 0x21C3 PUSH1 0x0 DUP4 ADD DUP5 PUSH2 0x1E92 JUMP JUMPDEST SWAP3 SWAP2 POP POP JUMP JUMPDEST PUSH1 0x0 PUSH2 0x21D3 PUSH2 0x21E4 JUMP JUMPDEST SWAP1 POP PUSH2 0x21DF DUP3 DUP3 PUSH2 0x240F JUMP JUMPDEST SWAP2 SWAP1 POP JUMP JUMPDEST PUSH1 0x0 PUSH1 0x40 MLOAD SWAP1 POP SWAP1 JUMP JUMPDEST PUSH1 0x0 PUSH8 0xFFFFFFFFFFFFFFFF DUP3 GT ISZERO PUSH2 0x2209 JUMPI PUSH2 0x2208 PUSH2 0x25AE JUMP JUMPDEST JUMPDEST PUSH2 0x2212 DUP3 PUSH2 0x25F1 JUMP JUMPDEST SWAP1 POP PUSH1 0x20 DUP2 ADD SWAP1 POP SWAP2 SWAP1 POP JUMP JUMPDEST PUSH1 0x0 DUP2 MLOAD SWAP1 POP SWAP2 SWAP1 POP JUMP JUMPDEST PUSH1 0x0 DUP2 MLOAD SWAP1 POP SWAP2 SWAP1 POP JUMP JUMPDEST PUSH1 0x0 DUP3 DUP3 MSTORE PUSH1 0x20 DUP3 ADD SWAP1 POP SWAP3 SWAP2 POP POP JUMP JUMPDEST PUSH1 0x0 DUP3 DUP3 MSTORE PUSH1 0x20 DUP3 ADD SWAP1 POP SWAP3 SWAP2 POP POP JUMP JUMPDEST PUSH1 0x0 DUP2 SWAP1 POP SWAP3 SWAP2 POP POP JUMP JUMPDEST PUSH1 0x0 PUSH2 0x226D DUP3 PUSH2 0x2391 JUMP JUMPDEST SWAP2 POP PUSH2 0x2278 DUP4 PUSH2 0x2391 JUMP JUMPDEST SWAP3 POP DUP3 PUSH32 0xFFFFFFFFFFFFFFFFFFFFFFFFFFFFFFFFFFFFFFFFFFFFFFFFFFFFFFFFFFFFFFFF SUB DUP3 GT ISZERO PUSH2 0x22AD JUMPI PUSH2 0x22AC PUSH2 0x24F2 JUMP JUMPDEST JUMPDEST DUP3 DUP3 ADD SWAP1 POP SWAP3 SWAP2 POP POP JUMP JUMPDEST PUSH1 0x0 PUSH2 0x22C3 DUP3 PUSH2 0x2391 JUMP JUMPDEST SWAP2 POP PUSH2 0x22CE DUP4 PUSH2 0x2391 JUMP JUMPDEST SWAP3 POP DUP3 PUSH2 0x22DE JUMPI PUSH2 0x22DD PUSH2 0x2521 JUMP JUMPDEST JUMPDEST DUP3 DUP3 DIV SWAP1 POP SWAP3 SWAP2 POP POP JUMP JUMPDEST PUSH1 0x0 PUSH2 0x22F4 DUP3 PUSH2 0x2391 JUMP JUMPDEST SWAP2 POP PUSH2 0x22FF DUP4 PUSH2 0x2391 JUMP JUMPDEST SWAP3 POP DUP3 DUP3 LT ISZERO PUSH2 0x2312 JUMPI PUSH2 0x2311 PUSH2 0x24F2 JUMP JUMPDEST JUMPDEST DUP3 DUP3 SUB SWAP1 POP SWAP3 SWAP2 POP POP JUMP JUMPDEST PUSH1 0x0 PUSH2 0x2328 DUP3 PUSH2 0x2371 JUMP JUMPDEST SWAP1 POP SWAP2 SWAP1 POP JUMP JUMPDEST PUSH1 0x0 DUP2 ISZERO ISZERO SWAP1 POP SWAP2 SWAP1 POP JUMP JUMPDEST PUSH1 0x0 DUP2 SWAP1 POP SWAP2 SWAP1 POP JUMP JUMPDEST PUSH1 0x0 PUSH32 0xFFFFFFFF00000000000000000000000000000000000000000000000000000000 DUP3 AND SWAP1 POP SWAP2 SWAP1 POP JUMP JUMPDEST PUSH1 0x0 PUSH20 0xFFFFFFFFFFFFFFFFFFFFFFFFFFFFFFFFFFFFFFFF DUP3 AND SWAP1 POP SWAP2 SWAP1 POP JUMP JUMPDEST PUSH1 0x0 DUP2 SWAP1 POP SWAP2 SWAP1 POP JUMP JUMPDEST DUP3 DUP2 DUP4 CALLDATACOPY PUSH1 0x0 DUP4 DUP4 ADD MSTORE POP POP POP JUMP JUMPDEST PUSH1 0x0 JUMPDEST DUP4 DUP2 LT ISZERO PUSH2 0x23C8 JUMPI DUP1 DUP3 ADD MLOAD DUP2 DUP5 ADD MSTORE PUSH1 0x20 DUP2 ADD SWAP1 POP PUSH2 0x23AD JUMP JUMPDEST DUP4 DUP2 GT ISZERO PUSH2 0x23D7 JUMPI PUSH1 0x0 DUP5 DUP5 ADD MSTORE JUMPDEST POP POP POP POP JUMP JUMPDEST PUSH1 0x0 PUSH1 0x2 DUP3 DIV SWAP1 POP PUSH1 0x1 DUP3 AND DUP1 PUSH2 0x23F5 JUMPI PUSH1 0x7F DUP3 AND SWAP2 POP JUMPDEST PUSH1 0x20 DUP3 LT DUP2 EQ ISZERO PUSH2 0x2409 JUMPI PUSH2 0x2408 PUSH2 0x2550 JUMP JUMPDEST JUMPDEST POP SWAP2 SWAP1 POP JUMP JUMPDEST PUSH2 0x2418 DUP3 PUSH2 0x25F1 JUMP JUMPDEST DUP2 ADD DUP2 DUP2 LT PUSH8 0xFFFFFFFFFFFFFFFF DUP3 GT OR ISZERO PUSH2 0x2437 JUMPI PUSH2 0x2436 PUSH2 0x25AE JUMP JUMPDEST JUMPDEST DUP1 PUSH1 0x40 MSTORE POP POP POP JUMP JUMPDEST PUSH1 0x0 PUSH2 0x244B DUP3 PUSH2 0x2391 JUMP JUMPDEST SWAP2 POP PUSH32 0xFFFFFFFFFFFFFFFFFFFFFFFFFFFFFFFFFFFFFFFFFFFFFFFFFFFFFFFFFFFFFFFF DUP3 EQ ISZERO PUSH2 0x247E JUMPI PUSH2 0x247D PUSH2 0x24F2 JUMP JUMPDEST JUMPDEST PUSH1 0x1 DUP3 ADD SWAP1 POP SWAP2 SWAP1 POP JUMP JUMPDEST PUSH1 0x0 PUSH2 0x2494 DUP3 PUSH2 0x24A5 JUMP JUMPDEST SWAP1 POP SWAP2 SWAP1 POP JUMP JUMPDEST PUSH1 0x0 DUP2 SWAP1 POP SWAP2 SWAP1 POP JUMP JUMPDEST PUSH1 0x0 PUSH2 0x24B0 DUP3 PUSH2 0x2602 JUMP JUMPDEST SWAP1 POP SWAP2 SWAP1 POP JUMP JUMPDEST PUSH1 0x0 DUP2 SWAP1 POP SWAP2 SWAP1 POP JUMP JUMPDEST PUSH1 0x0 PUSH2 0x24CC DUP3 PUSH2 0x2391 JUMP JUMPDEST SWAP2 POP PUSH2 0x24D7 DUP4 PUSH2 0x2391 JUMP JUMPDEST SWAP3 POP DUP3 PUSH2 0x24E7 JUMPI PUSH2 0x24E6 PUSH2 0x2521 JUMP JUMPDEST JUMPDEST DUP3 DUP3 MOD SWAP1 POP SWAP3 SWAP2 POP POP JUMP JUMPDEST PUSH32 0x4E487B7100000000000000000000000000000000000000000000000000000000 PUSH1 0x0 MSTORE PUSH1 0x11 PUSH1 0x4 MSTORE PUSH1 0x24 PUSH1 0x0 REVERT JUMPDEST PUSH32 0x4E487B7100000000000000000000000000000000000000000000000000000000 PUSH1 0x0 MSTORE PUSH1 0x12 PUSH1 0x4 MSTORE PUSH1 0x24 PUSH1 0x0 REVERT JUMPDEST PUSH32 0x4E487B7100000000000000000000000000000000000000000000000000000000 PUSH1 0x0 MSTORE PUSH1 0x22 PUSH1 0x4 MSTORE PUSH1 0x24 PUSH1 0x0 REVERT JUMPDEST PUSH32 0x4E487B7100000000000000000000000000000000000000000000000000000000 PUSH1 0x0 MSTORE PUSH1 0x32 PUSH1 0x4 MSTORE PUSH1 0x24 PUSH1 0x0 REVERT JUMPDEST PUSH32 0x4E487B7100000000000000000000000000000000000000000000000000000000 PUSH1 0x0 MSTORE PUSH1 0x41 PUSH1 0x4 MSTORE PUSH1 0x24 PUSH1 0x0 REVERT JUMPDEST PUSH1 0x0 DUP1 REVERT JUMPDEST PUSH1 0x0 DUP1 REVERT JUMPDEST PUSH1 0x0 DUP1 REVERT JUMPDEST PUSH1 0x0 DUP1 REVERT JUMPDEST PUSH1 0x0 PUSH1 0x1F NOT PUSH1 0x1F DUP4 ADD AND SWAP1 POP SWAP2 SWAP1 POP JUMP JUMPDEST PUSH1 0x0 DUP2 PUSH1 0x60 SHL SWAP1 POP SWAP2 SWAP1 POP JUMP JUMPDEST PUSH32 0x4552433732313A207472616E7366657220746F206E6F6E204552433732315265 PUSH1 0x0 DUP3 ADD MSTORE PUSH32 0x63656976657220696D706C656D656E7465720000000000000000000000000000 PUSH1 0x20 DUP3 ADD MSTORE POP JUMP JUMPDEST PUSH32 0x4552433732313A207472616E736665722066726F6D20696E636F727265637420 PUSH1 0x0 DUP3 ADD MSTORE PUSH32 0x6F776E6572000000000000000000000000000000000000000000000000000000 PUSH1 0x20 DUP3 ADD MSTORE POP JUMP JUMPDEST PUSH32 0x4552433732313A20746F6B656E20616C7265616479206D696E74656400000000 PUSH1 0x0 DUP3 ADD MSTORE POP JUMP JUMPDEST PUSH32 0x4552433732313A207472616E7366657220746F20746865207A65726F20616464 PUSH1 0x0 DUP3 ADD MSTORE PUSH32 0x7265737300000000000000000000000000000000000000000000000000000000 PUSH1 0x20 DUP3 ADD MSTORE POP JUMP JUMPDEST PUSH32 0x4552433732313A20617070726F766520746F2063616C6C657200000000000000 PUSH1 0x0 DUP3 ADD MSTORE POP JUMP JUMPDEST PUSH32 0x4552433732313A206F70657261746F7220717565727920666F72206E6F6E6578 PUSH1 0x0 DUP3 ADD MSTORE PUSH32 0x697374656E7420746F6B656E0000000000000000000000000000000000000000 PUSH1 0x20 DUP3 ADD MSTORE POP JUMP JUMPDEST PUSH32 0x4552433732313A20617070726F76652063616C6C6572206973206E6F74206F77 PUSH1 0x0 DUP3 ADD MSTORE PUSH32 0x6E6572206E6F7220617070726F76656420666F7220616C6C0000000000000000 PUSH1 0x20 DUP3 ADD MSTORE POP JUMP JUMPDEST PUSH32 0x4552433732313A2062616C616E636520717565727920666F7220746865207A65 PUSH1 0x0 DUP3 ADD MSTORE PUSH32 0x726F206164647265737300000000000000000000000000000000000000000000 PUSH1 0x20 DUP3 ADD MSTORE POP JUMP JUMPDEST PUSH32 0x4552433732313A206F776E657220717565727920666F72206E6F6E6578697374 PUSH1 0x0 DUP3 ADD MSTORE PUSH32 0x656E7420746F6B656E0000000000000000000000000000000000000000000000 PUSH1 0x20 DUP3 ADD MSTORE POP JUMP JUMPDEST PUSH32 0x4552433732313A206D696E7420746F20746865207A65726F2061646472657373 PUSH1 0x0 DUP3 ADD MSTORE POP JUMP JUMPDEST PUSH32 0x4552433732313A20617070726F76656420717565727920666F72206E6F6E6578 PUSH1 0x0 DUP3 ADD MSTORE PUSH32 0x697374656E7420746F6B656E0000000000000000000000000000000000000000 PUSH1 0x20 DUP3 ADD MSTORE POP JUMP JUMPDEST PUSH32 0x4552433732314D657461646174613A2055524920717565727920666F72206E6F PUSH1 0x0 DUP3 ADD MSTORE PUSH32 0x6E6578697374656E7420746F6B656E0000000000000000000000000000000000 PUSH1 0x20 DUP3 ADD MSTORE POP JUMP JUMPDEST PUSH32 0x4552433732313A20617070726F76616C20746F2063757272656E74206F776E65 PUSH1 0x0 DUP3 ADD MSTORE PUSH32 0x7200000000000000000000000000000000000000000000000000000000000000 PUSH1 0x20 DUP3 ADD MSTORE POP JUMP JUMPDEST PUSH32 0x4552433732313A207472616E736665722063616C6C6572206973206E6F74206F PUSH1 0x0 DUP3 ADD MSTORE PUSH32 0x776E6572206E6F7220617070726F766564000000000000000000000000000000 PUSH1 0x20 DUP3 ADD MSTORE POP JUMP JUMPDEST PUSH32 0x6E6F20696473206C656674000000000000000000000000000000000000000000 PUSH1 0x0 DUP3 ADD MSTORE POP JUMP JUMPDEST PUSH2 0x2A21 DUP2 PUSH2 0x231D JUMP JUMPDEST DUP2 EQ PUSH2 0x2A2C JUMPI PUSH1 0x0 DUP1 REVERT JUMPDEST POP JUMP JUMPDEST PUSH2 0x2A38 DUP2 PUSH2 0x232F JUMP JUMPDEST DUP2 EQ PUSH2 0x2A43 JUMPI PUSH1 0x0 DUP1 REVERT JUMPDEST POP JUMP JUMPDEST PUSH2 0x2A4F DUP2 PUSH2 0x2345 JUMP JUMPDEST DUP2 EQ PUSH2 0x2A5A JUMPI PUSH1 0x0 DUP1 REVERT JUMPDEST POP JUMP JUMPDEST PUSH2 0x2A66 DUP2 PUSH2 0x2391 JUMP JUMPDEST DUP2 EQ PUSH2 0x2A71 JUMPI PUSH1 0x0 DUP1 REVERT JUMPDEST POP JUMP INVALID LOG2 PUSH5 0x6970667358 0x22 SLT KECCAK256 CALLER 0xE6 0x27 0xB9 0xB3 0x5E RETURN 0xC8 SMOD 0xD3 0xFB 0xEB SAR PUSH8 0xFFD8CA71D6E1E501 SWAP2 CODESIZE SWAP7 0xA5 0xCF 0x5E MULMOD SMOD SWAP16 PUSH32 0x64736F6C63430008070033000000000000000000000000000000000000000000 "
		},
		"gasEstimates": {
			"creation": {
				"codeDepositCost": "2184400",
				"executionCost": "infinite",
				"totalCost": "infinite"
			},
			"external": {
				"approve(address,uint256)": "infinite",
				"balanceOf(address)": "2924",
				"getApproved(uint256)": "5228",
				"ids(uint256)": "infinite",
				"isApprovedForAll(address,address)": "infinite",
				"mint(address)": "infinite",
				"name()": "infinite",
				"ownerOf(uint256)": "3066",
				"safeTransferFrom(address,address,uint256)": "infinite",
				"safeTransferFrom(address,address,uint256,bytes)": "infinite",
				"setApprovalForAll(address,bool)": "infinite",
				"supportsInterface(bytes4)": "797",
				"symbol()": "infinite",
				"tokenURI(uint256)": "3373",
				"transferFrom(address,address,uint256)": "infinite"
			},
			"internal": {
				"_pickRandomUniqueId(uint256)": "infinite"
			}
		},
		"methodIdentifiers": {
			"approve(address,uint256)": "095ea7b3",
			"balanceOf(address)": "70a08231",
			"getApproved(uint256)": "081812fc",
			"ids(uint256)": "fac333ac",
			"isApprovedForAll(address,address)": "e985e9c5",
			"mint(address)": "6a627842",
			"name()": "06fdde03",
			"ownerOf(uint256)": "6352211e",
			"safeTransferFrom(address,address,uint256)": "42842e0e",
			"safeTransferFrom(address,address,uint256,bytes)": "b88d4fde",
			"setApprovalForAll(address,bool)": "a22cb465",
			"supportsInterface(bytes4)": "01ffc9a7",
			"symbol()": "95d89b41",
			"tokenURI(uint256)": "c87b56dd",
			"transferFrom(address,address,uint256)": "23b872dd"
		}
	},
	"abi": [
		{
			"inputs": [],
			"stateMutability": "nonpayable",
			"type": "constructor"
		},
		{
			"anonymous": false,
			"inputs": [
				{
					"indexed": true,
					"internalType": "address",
					"name": "owner",
					"type": "address"
				},
				{
					"indexed": true,
					"internalType": "address",
					"name": "approved",
					"type": "address"
				},
				{
					"indexed": true,
					"internalType": "uint256",
					"name": "tokenId",
					"type": "uint256"
				}
			],
			"name": "Approval",
			"type": "event"
		},
		{
			"anonymous": false,
			"inputs": [
				{
					"indexed": true,
					"internalType": "address",
					"name": "owner",
					"type": "address"
				},
				{
					"indexed": true,
					"internalType": "address",
					"name": "operator",
					"type": "address"
				},
				{
					"indexed": false,
					"internalType": "bool",
					"name": "approved",
					"type": "bool"
				}
			],
			"name": "ApprovalForAll",
			"type": "event"
		},
		{
			"anonymous": false,
			"inputs": [
				{
					"indexed": true,
					"internalType": "address",
					"name": "from",
					"type": "address"
				},
				{
					"indexed": true,
					"internalType": "address",
					"name": "to",
					"type": "address"
				},
				{
					"indexed": true,
					"internalType": "uint256",
					"name": "tokenId",
					"type": "uint256"
				}
			],
			"name": "Transfer",
			"type": "event"
		},
		{
			"inputs": [
				{
					"internalType": "address",
					"name": "to",
					"type": "address"
				},
				{
					"internalType": "uint256",
					"name": "tokenId",
					"type": "uint256"
				}
			],
			"name": "approve",
			"outputs": [],
			"stateMutability": "nonpayable",
			"type": "function"
		},
		{
			"inputs": [
				{
					"internalType": "address",
					"name": "owner",
					"type": "address"
				}
			],
			"name": "balanceOf",
			"outputs": [
				{
					"internalType": "uint256",
					"name": "",
					"type": "uint256"
				}
			],
			"stateMutability": "view",
			"type": "function"
		},
		{
			"inputs": [
				{
					"internalType": "uint256",
					"name": "tokenId",
					"type": "uint256"
				}
			],
			"name": "getApproved",
			"outputs": [
				{
					"internalType": "address",
					"name": "",
					"type": "address"
				}
			],
			"stateMutability": "view",
			"type": "function"
		},
		{
			"inputs": [
				{
					"internalType": "uint256",
					"name": "",
					"type": "uint256"
				}
			],
			"name": "ids",
			"outputs": [
				{
					"internalType": "uint256",
					"name": "",
					"type": "uint256"
				}
			],
			"stateMutability": "view",
			"type": "function"
		},
		{
			"inputs": [
				{
					"internalType": "address",
					"name": "owner",
					"type": "address"
				},
				{
					"internalType": "address",
					"name": "operator",
					"type": "address"
				}
			],
			"name": "isApprovedForAll",
			"outputs": [
				{
					"internalType": "bool",
					"name": "",
					"type": "bool"
				}
			],
			"stateMutability": "view",
			"type": "function"
		},
		{
			"inputs": [
				{
					"internalType": "address",
					"name": "_to",
					"type": "address"
				}
			],
			"name": "mint",
			"outputs": [],
			"stateMutability": "nonpayable",
			"type": "function"
		},
		{
			"inputs": [],
			"name": "name",
			"outputs": [
				{
					"internalType": "string",
					"name": "",
					"type": "string"
				}
			],
			"stateMutability": "view",
			"type": "function"
		},
		{
			"inputs": [
				{
					"internalType": "uint256",
					"name": "tokenId",
					"type": "uint256"
				}
			],
			"name": "ownerOf",
			"outputs": [
				{
					"internalType": "address",
					"name": "",
					"type": "address"
				}
			],
			"stateMutability": "view",
			"type": "function"
		},
		{
			"inputs": [
				{
					"internalType": "address",
					"name": "from",
					"type": "address"
				},
				{
					"internalType": "address",
					"name": "to",
					"type": "address"
				},
				{
					"internalType": "uint256",
					"name": "tokenId",
					"type": "uint256"
				}
			],
			"name": "safeTransferFrom",
			"outputs": [],
			"stateMutability": "nonpayable",
			"type": "function"
		},
		{
			"inputs": [
				{
					"internalType": "address",
					"name": "from",
					"type": "address"
				},
				{
					"internalType": "address",
					"name": "to",
					"type": "address"
				},
				{
					"internalType": "uint256",
					"name": "tokenId",
					"type": "uint256"
				},
				{
					"internalType": "bytes",
					"name": "_data",
					"type": "bytes"
				}
			],
			"name": "safeTransferFrom",
			"outputs": [],
			"stateMutability": "nonpayable",
			"type": "function"
		},
		{
			"inputs": [
				{
					"internalType": "address",
					"name": "operator",
					"type": "address"
				},
				{
					"internalType": "bool",
					"name": "approved",
					"type": "bool"
				}
			],
			"name": "setApprovalForAll",
			"outputs": [],
			"stateMutability": "nonpayable",
			"type": "function"
		},
		{
			"inputs": [
				{
					"internalType": "bytes4",
					"name": "interfaceId",
					"type": "bytes4"
				}
			],
			"name": "supportsInterface",
			"outputs": [
				{
					"internalType": "bool",
					"name": "",
					"type": "bool"
				}
			],
			"stateMutability": "view",
			"type": "function"
		},
		{
			"inputs": [],
			"name": "symbol",
			"outputs": [
				{
					"internalType": "string",
					"name": "",
					"type": "string"
				}
			],
			"stateMutability": "view",
			"type": "function"
		},
		{
			"inputs": [
				{
					"internalType": "uint256",
					"name": "tokenId",
					"type": "uint256"
				}
			],
			"name": "tokenURI",
			"outputs": [
				{
					"internalType": "string",
					"name": "",
					"type": "string"
				}
			],
			"stateMutability": "view",
			"type": "function"
		},
		{
			"inputs": [
				{
					"internalType": "address",
					"name": "from",
					"type": "address"
				},
				{
					"internalType": "address",
					"name": "to",
					"type": "address"
				},
				{
					"internalType": "uint256",
					"name": "tokenId",
					"type": "uint256"
				}
			],
			"name": "transferFrom",
			"outputs": [],
			"stateMutability": "nonpayable",
			"type": "function"
		}
	]
}