{
	"data": {
		"bytecode": {
			"linkReferences": {},
			"object": "6080604052600061040c60006101000a81548167ffffffffffffffff021916908367ffffffffffffffff1602179055503480156200003c57600080fd5b506040516200657b3803806200657b83398181016040528101906200006291906200050f565b6040518060400160405280600781526020017f4a6f6c616d616e000000000000000000000000000000000000000000000000008152506040518060400160405280600281526020017f4a4c0000000000000000000000000000000000000000000000000000000000008152508160009080519060200190620000e6929190620003e1565b508060019080519060200190620000ff929190620003e1565b5050506200012262000116620001b660201b60201c565b620001be60201b60201c565b3361040e60006101000a81548173ffffffffffffffffffffffffffffffffffffffff021916908373ffffffffffffffffffffffffffffffffffffffff1602179055508061040f90805190602001906200017d929190620003e1565b50600061040d81905550600061040a8190555061271061040b81905550620001af6000801b336200028460201b60201c565b50620006e4565b600033905090565b6000600a60009054906101000a900473ffffffffffffffffffffffffffffffffffffffff16905081600a60006101000a81548173ffffffffffffffffffffffffffffffffffffffff021916908373ffffffffffffffffffffffffffffffffffffffff1602179055508173ffffffffffffffffffffffffffffffffffffffff168173ffffffffffffffffffffffffffffffffffffffff167f8be0079c531659141344cd1fd0a4f28419497f9722a3daafe3b4186f6b6457e060405160405180910390a35050565b6200029682826200037660201b60201c565b62000372576001600b600084815260200190815260200160002060000160008373ffffffffffffffffffffffffffffffffffffffff1673ffffffffffffffffffffffffffffffffffffffff16815260200190815260200160002060006101000a81548160ff02191690831515021790555062000317620001b660201b60201c565b73ffffffffffffffffffffffffffffffffffffffff168173ffffffffffffffffffffffffffffffffffffffff16837f2f8788117e7eff1d82e926ec794901d17c78024a50270940304540a733656f0d60405160405180910390a45b5050565b6000600b600084815260200190815260200160002060000160008373ffffffffffffffffffffffffffffffffffffffff1673ffffffffffffffffffffffffffffffffffffffff16815260200190815260200160002060009054906101000a900460ff16905092915050565b828054620003ef90620005f5565b90600052602060002090601f0160209004810192826200041357600085556200045f565b82601f106200042e57805160ff19168380011785556200045f565b828001600101855582156200045f579182015b828111156200045e57825182559160200191906001019062000441565b5b5090506200046e919062000472565b5090565b5b808211156200048d57600081600090555060010162000473565b5090565b6000620004a8620004a28462000589565b62000560565b905082815260208101848484011115620004c757620004c6620006c4565b5b620004d4848285620005bf565b509392505050565b600082601f830112620004f457620004f3620006bf565b5b81516200050684826020860162000491565b91505092915050565b600060208284031215620005285762000527620006ce565b5b600082015167ffffffffffffffff811115620005495762000548620006c9565b5b6200055784828501620004dc565b91505092915050565b60006200056c6200057f565b90506200057a82826200062b565b919050565b6000604051905090565b600067ffffffffffffffff821115620005a757620005a662000690565b5b620005b282620006d3565b9050602081019050919050565b60005b83811015620005df578082015181840152602081019050620005c2565b83811115620005ef576000848401525b50505050565b600060028204905060018216806200060e57607f821691505b6020821081141562000625576200062462000661565b5b50919050565b6200063682620006d3565b810181811067ffffffffffffffff8211171562000658576200065762000690565b5b80604052505050565b7f4e487b7100000000000000000000000000000000000000000000000000000000600052602260045260246000fd5b7f4e487b7100000000000000000000000000000000000000000000000000000000600052604160045260246000fd5b600080fd5b600080fd5b600080fd5b600080fd5b6000601f19601f8301169050919050565b615e8780620006f46000396000f3fe6080604052600436106103765760003560e01c80636352211e116101d1578063b88d4fde11610102578063e7cd4a04116100a0578063eecf20331161006f578063eecf203314610d34578063f2fde38b14610d5f578063f8b2cb4f14610d88578063f99031a714610dc557610376565b8063e7cd4a0414610c66578063e8f7802614610c8f578063e985e9c514610ccc578063ed14d64014610d0957610376565b8063d2c45618116100dc578063d2c4561814610b98578063d539139314610bd5578063d547741f14610c00578063d54f62b014610c2957610376565b8063b88d4fde14610b16578063c1514d9214610b3f578063c87b56dd14610b5b57610376565b806390e41b6e1161016f578063a217fddf11610149578063a217fddf14610a6c578063a22cb46514610a97578063b2bdfa7b14610ac0578063b6612d7614610aeb57610376565b806390e41b6e146109c757806391d1485414610a0457806395d89b4114610a4157610376565b8063715018a6116101ab578063715018a61461095057806373ff361b1461096757806374e3447a146109715780638da5cb5b1461099c57610376565b80636352211e146108ab57806370446bbe146108e857806370a082311461091357610376565b80632f745c59116102ab57806342842e0e116102495780634e722994116102235780634e722994146108125780634f6ccce71461083b5780635aa961e51461087857806362c9fe06146108a157610376565b806342842e0e146107a057806342f6487a146107c95780634707a389146107e757610376565b806336568abe1161028557806336568abe146106e1578063378741271461070a5780633e334cf01461074757806340d097c31461078457610376565b80632f745c591461064b57806335a5cfcb1461068857806335db70b5146106b657610376565b806318160ddd1161031857806323b872dd116102f257806323b872dd1461057f578063248a9ca3146105a85780632f08480d146105e55780632f2ff15d1461062257610376565b806318160ddd146104ee5780631caaa487146105195780632042e5c21461055657610376565b8063081812fc11610354578063081812fc1461040e578063095ea7b31461044b5780630c401d7e146104745780630d4cc788146104b157610376565b806301ffc9a71461037b57806303ee438c146103b857806306fdde03146103e3575b600080fd5b34801561038757600080fd5b506103a2600480360381019061039d919061450d565b610e02565b6040516103af9190614db2565b60405180910390f35b3480156103c457600080fd5b506103cd610e14565b6040516103da9190614de8565b60405180910390f35b3480156103ef57600080fd5b506103f8610ea3565b6040516104059190614de8565b60405180910390f35b34801561041a57600080fd5b5061043560048036038101906104309190614567565b610f35565b6040516104429190614d29565b60405180910390f35b34801561045757600080fd5b50610472600480360381019061046d9190614460565b610fba565b005b34801561048057600080fd5b5061049b60048036038101906104969190614567565b6110d2565b6040516104a89190614db2565b60405180910390f35b3480156104bd57600080fd5b506104d860048036038101906104d39190614567565b6110f3565b6040516104e59190614d90565b60405180910390f35b3480156104fa57600080fd5b5061050361115f565b604051610510919061512a565b60405180910390f35b34801561052557600080fd5b50610540600480360381019061053b9190614567565b61116c565b60405161054d9190614d29565b60405180910390f35b34801561056257600080fd5b5061057d600480360381019061057891906142dd565b6111a0565b005b34801561058b57600080fd5b506105a660048036038101906105a1919061434a565b6112a2565b005b3480156105b457600080fd5b506105cf60048036038101906105ca91906144a0565b611302565b6040516105dc9190614dcd565b60405180910390f35b3480156105f157600080fd5b5061060c60048036038101906106079190614460565b611322565b604051610619919061512a565b60405180910390f35b34801561062e57600080fd5b50610649600480360381019061064491906144cd565b611354565b005b34801561065757600080fd5b50610672600480360381019061066d9190614460565b611375565b60405161067f919061512a565b60405180910390f35b34801561069457600080fd5b5061069d61141a565b6040516106ad9493929190615145565b60405180910390f35b3480156106c257600080fd5b506106cb61145f565b6040516106d8919061518a565b60405180910390f35b3480156106ed57600080fd5b50610708600480360381019061070391906144cd565b61147a565b005b34801561071657600080fd5b50610731600480360381019061072c9190614567565b6114fd565b60405161073e919061512a565b60405180910390f35b34801561075357600080fd5b5061076e60048036038101906107699190614567565b61151c565b60405161077b919061512a565b60405180910390f35b61079e600480360381019061079991906142dd565b61153d565b005b3480156107ac57600080fd5b506107c760048036038101906107c2919061434a565b611792565b005b6107d16117b2565b6040516107de9190614db2565b60405180910390f35b3480156107f357600080fd5b506107fc611960565b604051610809919061512a565b60405180910390f35b34801561081e57600080fd5b5061083960048036038101906108349190614567565b611966565b005b34801561084757600080fd5b50610862600480360381019061085d9190614567565b611993565b60405161086f919061512a565b60405180910390f35b34801561088457600080fd5b5061089f600480360381019061089a91906145d4565b611a04565b005b6108a9611a31565b005b3480156108b757600080fd5b506108d260048036038101906108cd9190614567565b611a50565b6040516108df9190614d29565b60405180910390f35b3480156108f457600080fd5b506108fd611b02565b60405161090a919061512a565b60405180910390f35b34801561091f57600080fd5b5061093a600480360381019061093591906142dd565b611b08565b604051610947919061512a565b60405180910390f35b34801561095c57600080fd5b50610965611bc0565b005b61096f611c48565b005b34801561097d57600080fd5b50610986611c91565b6040516109939190614dcd565b60405180910390f35b3480156109a857600080fd5b506109b1611cb5565b6040516109be9190614d29565b60405180910390f35b3480156109d357600080fd5b506109ee60048036038101906109e991906142dd565b611cdf565b6040516109fb9190614d90565b60405180910390f35b348015610a1057600080fd5b50610a2b6004803603810190610a2691906144cd565b611d77565b604051610a389190614db2565b60405180910390f35b348015610a4d57600080fd5b50610a56611de2565b604051610a639190614de8565b60405180910390f35b348015610a7857600080fd5b50610a81611e74565b604051610a8e9190614dcd565b60405180910390f35b348015610aa357600080fd5b50610abe6004803603810190610ab99190614420565b611e7b565b005b348015610acc57600080fd5b50610ad5611e91565b604051610ae29190614d29565b60405180910390f35b348015610af757600080fd5b50610b00611eb8565b604051610b0d919061512a565b60405180910390f35b348015610b2257600080fd5b50610b3d6004803603810190610b38919061439d565b611ebf565b005b610b596004803603810190610b5491906142dd565b611f21565b005b348015610b6757600080fd5b50610b826004803603810190610b7d9190614567565b6121d4565b604051610b8f9190614de8565b60405180910390f35b348015610ba457600080fd5b50610bbf6004803603810190610bba9190614567565b612226565b604051610bcc9190614db2565b60405180910390f35b348015610be157600080fd5b50610bea612247565b604051610bf79190614dcd565b60405180910390f35b348015610c0c57600080fd5b50610c276004803603810190610c2291906144cd565b61226b565b005b348015610c3557600080fd5b50610c506004803603810190610c4b9190614594565b61228c565b604051610c5d919061512a565b60405180910390f35b348015610c7257600080fd5b50610c8d6004803603810190610c8891906142dd565b6122be565b005b348015610c9b57600080fd5b50610cb66004803603810190610cb19190614567565b6123c0565b604051610cc3919061512a565b60405180910390f35b348015610cd857600080fd5b50610cf36004803603810190610cee919061430a565b6123e5565b604051610d009190614db2565b60405180910390f35b348015610d1557600080fd5b50610d1e612479565b604051610d2b919061512a565b60405180910390f35b348015610d4057600080fd5b50610d496124b2565b604051610d56919061512a565b60405180910390f35b348015610d6b57600080fd5b50610d866004803603810190610d8191906142dd565b6124b9565b005b348015610d9457600080fd5b50610daf6004803603810190610daa91906142dd565b6125b1565b604051610dbc919061512a565b60405180910390f35b348015610dd157600080fd5b50610dec6004803603810190610de791906142dd565b6125d2565b604051610df99190614db2565b60405180910390f35b6000610e0d826125f3565b9050919050565b61040f8054610e22906154aa565b80601f0160208091040260200160405190810160405280929190818152602001828054610e4e906154aa565b8015610e9b5780601f10610e7057610100808354040283529160200191610e9b565b820191906000526020600020905b815481529060010190602001808311610e7e57829003601f168201915b505050505081565b606060008054610eb2906154aa565b80601f0160208091040260200160405190810160405280929190818152602001828054610ede906154aa565b8015610f2b5780601f10610f0057610100808354040283529160200191610f2b565b820191906000526020600020905b815481529060010190602001808311610f0e57829003601f168201915b5050505050905090565b6000610f408261266d565b610f7f576040517f08c379a0000000000000000000000000000000000000000000000000000000008152600401610f769061502a565b60405180910390fd5b6004600083815260200190815260200160002060009054906101000a900473ffffffffffffffffffffffffffffffffffffffff169050919050565b6000610fc582611a50565b90508073ffffffffffffffffffffffffffffffffffffffff168373ffffffffffffffffffffffffffffffffffffffff161415611036576040517f08c379a000000000000000000000000000000000000000000000000000000000815260040161102d9061506a565b60405180910390fd5b8073ffffffffffffffffffffffffffffffffffffffff166110556126d9565b73ffffffffffffffffffffffffffffffffffffffff16148061108457506110838161107e6126d9565b6123e5565b5b6110c3576040517f08c379a00000000000000000000000000000000000000000000000000000000081526004016110ba90614f8a565b60405180910390fd5b6110cd83836126e1565b505050565b6104106020528060005260406000206000915054906101000a900460ff1681565b6060610417600083815260200190815260200160002080548060200260200160405190810160405280929190818152602001828054801561115357602002820191906000526020600020905b81548152602001906001019080831161113f575b50505050509050919050565b6000600880549050905090565b6104136020528060005260406000206000915054906101000a900473ffffffffffffffffffffffffffffffffffffffff1681565b6111a86126d9565b73ffffffffffffffffffffffffffffffffffffffff166111c6611cb5565b73ffffffffffffffffffffffffffffffffffffffff161461121c576040517f08c379a00000000000000000000000000000000000000000000000000000000081526004016112139061504a565b60405180910390fd5b600061041560008373ffffffffffffffffffffffffffffffffffffffff1673ffffffffffffffffffffffffffffffffffffffff16815260200190815260200160002060006101000a81548160ff02191690831515021790555061129f7fb696df569c2dfecb5a24edfd39d7f55b0f442be14350cbc68dbe8eb35489d3a68261279a565b50565b6112b36112ad6126d9565b8261287c565b6112f2576040517f08c379a00000000000000000000000000000000000000000000000000000000081526004016112e99061508a565b60405180910390fd5b6112fd83838361295a565b505050565b6000600b6000838152602001908152602001600020600101549050919050565b610414602052816000526040600020818154811061133f57600080fd5b90600052602060002001600091509150505481565b61135d82611302565b61136681612bc1565b6113708383612bd5565b505050565b600061138083611b08565b82106113c1576040517f08c379a00000000000000000000000000000000000000000000000000000000081526004016113b890614e2a565b60405180910390fd5b600660008473ffffffffffffffffffffffffffffffffffffffff1673ffffffffffffffffffffffffffffffffffffffff168152602001908152602001600020600083815260200190815260200160002054905092915050565b60008060008061040a5461040b5461040c60009054906101000a900467ffffffffffffffff1661040d548167ffffffffffffffff169150935093509350935090919293565b61040c60009054906101000a900467ffffffffffffffff1681565b6114826126d9565b73ffffffffffffffffffffffffffffffffffffffff168173ffffffffffffffffffffffffffffffffffffffff16146114ef576040517f08c379a00000000000000000000000000000000000000000000000000000000081526004016114e69061510a565b60405180910390fd5b6114f9828261279a565b5050565b6104126020528060005260406000206000915090508060000154905081565b60006104126000838152602001908152602001600020600001549050919050565b7f9f2df0fed2c77648de5860a4cc508cd0818c85b8b8a1ab4ceeef8d981c8956a661156781612bc1565b61040a546103e8116115ae576040517f08c379a00000000000000000000000000000000000000000000000000000000081526004016115a59061500a565b60405180910390fd5b3461040c60009054906101000a900467ffffffffffffffff1667ffffffffffffffff161115611612576040517f08c379a000000000000000000000000000000000000000000000000000000000815260040161160990614f6a565b60405180910390fd5b600061040a549050611631600161040a54612cb690919063ffffffff16565b61040a819055506000611642612ccc565b90506040518060200160405280826000015181525061041260008481526020019081526020016000206000820151816000015590505083610413600084815260200190815260200160002060006101000a81548173ffffffffffffffffffffffffffffffffffffffff021916908373ffffffffffffffffffffffffffffffffffffffff16021790555061041460003373ffffffffffffffffffffffffffffffffffffffff1673ffffffffffffffffffffffffffffffffffffffff168152602001908152602001600020816000015190806001815401808255809150506001900390600052602060002001600090919091909150556117438160000151611966565b61041760008081526020019081526020016000208160000151908060018154018082558091505060019003906000526020600020016000909190919091505561178c8483612d6d565b50505050565b6117ad83838360405180602001604052806000815250611ebf565b505050565b60006117bc612f47565b6117fb576040517f08c379a00000000000000000000000000000000000000000000000000000000081526004016117f2906150ea565b60405180910390fd5b611803612f79565b611842576040517f08c379a000000000000000000000000000000000000000000000000000000000815260040161183990614eaa565b60405180910390fd5b600061040e60009054906101000a900473ffffffffffffffffffffffffffffffffffffffff1673ffffffffffffffffffffffffffffffffffffffff163460405161188b90614c8c565b60006040518083038185875af1925050503d80600081146118c8576040519150601f19603f3d011682016040523d82523d6000602084013e6118cd565b606091505b5050905080611911576040517f08c379a000000000000000000000000000000000000000000000000000000000815260040161190890614eea565b60405180910390fd5b6119273461040d54612cb690919063ffffffff16565b61040d819055506119587f9f2df0fed2c77648de5860a4cc508cd0818c85b8b8a1ab4ceeef8d981c8956a633612bd5565b600191505090565b61272481565b61041681908060018154018082558091505060019003906000526020600020016000909190919091505550565b600061199d61115f565b82106119de576040517f08c379a00000000000000000000000000000000000000000000000000000000081526004016119d5906150ca565b60405180910390fd5b600882815481106119f2576119f161567b565b5b90600052602060002001549050919050565b8061040c60006101000a81548167ffffffffffffffff021916908367ffffffffffffffff16021790555050565b6000611a3b6117b2565b90508015611a4d57611a4c33611f21565b5b50565b6000806002600084815260200190815260200160002060009054906101000a900473ffffffffffffffffffffffffffffffffffffffff169050600073ffffffffffffffffffffffffffffffffffffffff168173ffffffffffffffffffffffffffffffffffffffff161415611af9576040517f08c379a0000000000000000000000000000000000000000000000000000000008152600401611af090614fca565b60405180910390fd5b80915050919050565b6103e881565b60008073ffffffffffffffffffffffffffffffffffffffff168273ffffffffffffffffffffffffffffffffffffffff161415611b79576040517f08c379a0000000000000000000000000000000000000000000000000000000008152600401611b7090614faa565b60405180910390fd5b600360008373ffffffffffffffffffffffffffffffffffffffff1673ffffffffffffffffffffffffffffffffffffffff168152602001908152602001600020549050919050565b611bc86126d9565b73ffffffffffffffffffffffffffffffffffffffff16611be6611cb5565b73ffffffffffffffffffffffffffffffffffffffff1614611c3c576040517f08c379a0000000000000000000000000000000000000000000000000000000008152600401611c339061504a565b60405180910390fd5b611c466000612fb4565b565b6000611c526117b2565b90508015611c8e57611c633361153d565b611c8d7f9f2df0fed2c77648de5860a4cc508cd0818c85b8b8a1ab4ceeef8d981c8956a63361147a565b5b50565b7fb696df569c2dfecb5a24edfd39d7f55b0f442be14350cbc68dbe8eb35489d3a681565b6000600a60009054906101000a900473ffffffffffffffffffffffffffffffffffffffff16905090565b606061041460008373ffffffffffffffffffffffffffffffffffffffff1673ffffffffffffffffffffffffffffffffffffffff168152602001908152602001600020805480602002602001604051908101604052809291908181526020018280548015611d6b57602002820191906000526020600020905b815481526020019060010190808311611d57575b50505050509050919050565b6000600b600084815260200190815260200160002060000160008373ffffffffffffffffffffffffffffffffffffffff1673ffffffffffffffffffffffffffffffffffffffff16815260200190815260200160002060009054906101000a900460ff16905092915050565b606060018054611df1906154aa565b80601f0160208091040260200160405190810160405280929190818152602001828054611e1d906154aa565b8015611e6a5780601f10611e3f57610100808354040283529160200191611e6a565b820191906000526020600020905b815481529060010190602001808311611e4d57829003601f168201915b5050505050905090565b6000801b81565b611e8d611e866126d9565b838361307a565b5050565b61040e60009054906101000a900473ffffffffffffffffffffffffffffffffffffffff1681565b61040b5481565b611ed0611eca6126d9565b8361287c565b611f0f576040517f08c379a0000000000000000000000000000000000000000000000000000000008152600401611f069061508a565b60405180910390fd5b611f1b848484846131e7565b50505050565b7fb696df569c2dfecb5a24edfd39d7f55b0f442be14350cbc68dbe8eb35489d3a6611f4b81612bc1565b6001151561041560003373ffffffffffffffffffffffffffffffffffffffff1673ffffffffffffffffffffffffffffffffffffffff16815260200190815260200160002060009054906101000a900460ff16151514611fa957600080fd5b61040b5461272411611ff0576040517f08c379a0000000000000000000000000000000000000000000000000000000008152600401611fe79061500a565b60405180910390fd5b3461040c60009054906101000a900467ffffffffffffffff1667ffffffffffffffff161115612054576040517f08c379a000000000000000000000000000000000000000000000000000000000815260040161204b90614f6a565b60405180910390fd5b600061040b549050612073600161040b54612cb690919063ffffffff16565b61040b819055506000612084613243565b90506040518060200160405280826000015181525061041260008481526020019081526020016000206000820151816000015590505083610413600084815260200190815260200160002060006101000a81548173ffffffffffffffffffffffffffffffffffffffff021916908373ffffffffffffffffffffffffffffffffffffffff16021790555061041460003373ffffffffffffffffffffffffffffffffffffffff1673ffffffffffffffffffffffffffffffffffffffff168152602001908152602001600020816000015190806001815401808255809150506001900390600052602060002001600090919091909150556104176000808152602001908152602001600020816000015190806001815401808255809150506001900390600052602060002001600090919091909150556121c48160000151611966565b6121ce8483612d6d565b50505050565b606060006121f86104126000858152602001908152602001600020600001546132e4565b905061040f8160405160200161220f929190614c52565b604051602081830303815290604052915050919050565b6104116020528060005260406000206000915054906101000a900460ff1681565b7f9f2df0fed2c77648de5860a4cc508cd0818c85b8b8a1ab4ceeef8d981c8956a681565b61227482611302565b61227d81612bc1565b612287838361279a565b505050565b61041760205281600052604060002081815481106122a957600080fd5b90600052602060002001600091509150505481565b6122c66126d9565b73ffffffffffffffffffffffffffffffffffffffff166122e4611cb5565b73ffffffffffffffffffffffffffffffffffffffff161461233a576040517f08c379a00000000000000000000000000000000000000000000000000000000081526004016123319061504a565b60405180910390fd5b600161041560008373ffffffffffffffffffffffffffffffffffffffff1673ffffffffffffffffffffffffffffffffffffffff16815260200190815260200160002060006101000a81548160ff0219169083151502179055506123bd7fb696df569c2dfecb5a24edfd39d7f55b0f442be14350cbc68dbe8eb35489d3a682612bd5565b50565b61041681815481106123d157600080fd5b906000526020600020016000915090505481565b6000600560008473ffffffffffffffffffffffffffffffffffffffff1673ffffffffffffffffffffffffffffffffffffffff16815260200190815260200160002060008373ffffffffffffffffffffffffffffffffffffffff1673ffffffffffffffffffffffffffffffffffffffff16815260200190815260200160002060009054906101000a900460ff16905092915050565b60006104166001610416805490506124919190615378565b815481106124a2576124a161567b565b5b9060005260206000200154905090565b61040a5481565b6124c16126d9565b73ffffffffffffffffffffffffffffffffffffffff166124df611cb5565b73ffffffffffffffffffffffffffffffffffffffff1614612535576040517f08c379a000000000000000000000000000000000000000000000000000000000815260040161252c9061504a565b60405180910390fd5b600073ffffffffffffffffffffffffffffffffffffffff168173ffffffffffffffffffffffffffffffffffffffff1614156125a5576040517f08c379a000000000000000000000000000000000000000000000000000000000815260040161259c90614e6a565b60405180910390fd5b6125ae81612fb4565b50565b60008173ffffffffffffffffffffffffffffffffffffffff16319050919050565b6104156020528060005260406000206000915054906101000a900460ff1681565b60007f7965db0b000000000000000000000000000000000000000000000000000000007bffffffffffffffffffffffffffffffffffffffffffffffffffffffff1916827bffffffffffffffffffffffffffffffffffffffffffffffffffffffff19161480612666575061266582613445565b5b9050919050565b60008073ffffffffffffffffffffffffffffffffffffffff166002600084815260200190815260200160002060009054906101000a900473ffffffffffffffffffffffffffffffffffffffff1673ffffffffffffffffffffffffffffffffffffffff1614159050919050565b600033905090565b816004600083815260200190815260200160002060006101000a81548173ffffffffffffffffffffffffffffffffffffffff021916908373ffffffffffffffffffffffffffffffffffffffff160217905550808273ffffffffffffffffffffffffffffffffffffffff1661275483611a50565b73ffffffffffffffffffffffffffffffffffffffff167f8c5be1e5ebec7d5bd14f71427d1e84f3dd0314c0f7b2291e5b200ac8c7c3b92560405160405180910390a45050565b6127a48282611d77565b15612878576000600b600084815260200190815260200160002060000160008373ffffffffffffffffffffffffffffffffffffffff1673ffffffffffffffffffffffffffffffffffffffff16815260200190815260200160002060006101000a81548160ff02191690831515021790555061281d6126d9565b73ffffffffffffffffffffffffffffffffffffffff168173ffffffffffffffffffffffffffffffffffffffff16837ff6391f5c32d9c69d2a47ea670b442974b53935d1edc7fd64eb21e047a839171b60405160405180910390a45b5050565b60006128878261266d565b6128c6576040517f08c379a00000000000000000000000000000000000000000000000000000000081526004016128bd90614f4a565b60405180910390fd5b60006128d183611a50565b90508073ffffffffffffffffffffffffffffffffffffffff168473ffffffffffffffffffffffffffffffffffffffff161480612913575061291281856123e5565b5b8061295157508373ffffffffffffffffffffffffffffffffffffffff1661293984610f35565b73ffffffffffffffffffffffffffffffffffffffff16145b91505092915050565b8273ffffffffffffffffffffffffffffffffffffffff1661297a82611a50565b73ffffffffffffffffffffffffffffffffffffffff16146129d0576040517f08c379a00000000000000000000000000000000000000000000000000000000081526004016129c790614e8a565b60405180910390fd5b600073ffffffffffffffffffffffffffffffffffffffff168273ffffffffffffffffffffffffffffffffffffffff161415612a40576040517f08c379a0000000000000000000000000000000000000000000000000000000008152600401612a3790614f0a565b60405180910390fd5b612a4b8383836134bf565b612a566000826126e1565b6001600360008573ffffffffffffffffffffffffffffffffffffffff1673ffffffffffffffffffffffffffffffffffffffff1681526020019081526020016000206000828254612aa69190615378565b925050819055506001600360008473ffffffffffffffffffffffffffffffffffffffff1673ffffffffffffffffffffffffffffffffffffffff1681526020019081526020016000206000828254612afd9190615297565b92505081905550816002600083815260200190815260200160002060006101000a81548173ffffffffffffffffffffffffffffffffffffffff021916908373ffffffffffffffffffffffffffffffffffffffff160217905550808273ffffffffffffffffffffffffffffffffffffffff168473ffffffffffffffffffffffffffffffffffffffff167fddf252ad1be2c89b69c2b068fc378daa952ba7f163c4a11628f55a4df523b3ef60405160405180910390a4612bbc8383836135d3565b505050565b612bd281612bcd6126d9565b6135d8565b50565b612bdf8282611d77565b612cb2576001600b600084815260200190815260200160002060000160008373ffffffffffffffffffffffffffffffffffffffff1673ffffffffffffffffffffffffffffffffffffffff16815260200190815260200160002060006101000a81548160ff021916908315150217905550612c576126d9565b73ffffffffffffffffffffffffffffffffffffffff168173ffffffffffffffffffffffffffffffffffffffff16837f2f8788117e7eff1d82e926ec794901d17c78024a50270940304540a733656f0d60405160405180910390a45b5050565b60008183612cc49190615297565b905092915050565b612cd46141c7565b612cdc6141c7565b6000610408543342600143612cf19190615378565b40604051602001612d059493929190614cdb565b6040516020818303038152906040528051906020012060001c90506000612d2b82613675565b90506001610410600083815260200190815260200160002060006101000a81548160ff0219169083151502179055508083600001818152505082935050505090565b600073ffffffffffffffffffffffffffffffffffffffff168273ffffffffffffffffffffffffffffffffffffffff161415612ddd576040517f08c379a0000000000000000000000000000000000000000000000000000000008152600401612dd490614fea565b60405180910390fd5b612de68161266d565b15612e26576040517f08c379a0000000000000000000000000000000000000000000000000000000008152600401612e1d90614eca565b60405180910390fd5b612e32600083836134bf565b6001600360008473ffffffffffffffffffffffffffffffffffffffff1673ffffffffffffffffffffffffffffffffffffffff1681526020019081526020016000206000828254612e829190615297565b92505081905550816002600083815260200190815260200160002060006101000a81548173ffffffffffffffffffffffffffffffffffffffff021916908373ffffffffffffffffffffffffffffffffffffffff160217905550808273ffffffffffffffffffffffffffffffffffffffff16600073ffffffffffffffffffffffffffffffffffffffff167fddf252ad1be2c89b69c2b068fc378daa952ba7f163c4a11628f55a4df523b3ef60405160405180910390a4612f43600083836135d3565b5050565b6000343373ffffffffffffffffffffffffffffffffffffffff16311015612f715760009050612f76565b600190505b90565b60003461040c60009054906101000a900467ffffffffffffffff1667ffffffffffffffff1614612fac5760009050612fb1565b600190505b90565b6000600a60009054906101000a900473ffffffffffffffffffffffffffffffffffffffff16905081600a60006101000a81548173ffffffffffffffffffffffffffffffffffffffff021916908373ffffffffffffffffffffffffffffffffffffffff1602179055508173ffffffffffffffffffffffffffffffffffffffff168173ffffffffffffffffffffffffffffffffffffffff167f8be0079c531659141344cd1fd0a4f28419497f9722a3daafe3b4186f6b6457e060405160405180910390a35050565b8173ffffffffffffffffffffffffffffffffffffffff168373ffffffffffffffffffffffffffffffffffffffff1614156130e9576040517f08c379a00000000000000000000000000000000000000000000000000000000081526004016130e090614f2a565b60405180910390fd5b80600560008573ffffffffffffffffffffffffffffffffffffffff1673ffffffffffffffffffffffffffffffffffffffff16815260200190815260200160002060008473ffffffffffffffffffffffffffffffffffffffff1673ffffffffffffffffffffffffffffffffffffffff16815260200190815260200160002060006101000a81548160ff0219169083151502179055508173ffffffffffffffffffffffffffffffffffffffff168373ffffffffffffffffffffffffffffffffffffffff167f17307eab39ab6107e8899845ad3d59bd9653f200f220920489ca2b5937696c31836040516131da9190614db2565b60405180910390a3505050565b6131f284848461295a565b6131fe848484846137f7565b61323d576040517f08c379a000000000000000000000000000000000000000000000000000000000815260040161323490614e4a565b60405180910390fd5b50505050565b61324b6141c7565b6132536141c7565b60006104095433426001436132689190615378565b4060405160200161327c9493929190614cdb565b6040516020818303038152906040528051906020012060001c905060006132a28261398e565b90506001610411600083815260200190815260200160002060006101000a81548160ff0219169083151502179055508083600001818152505082935050505090565b6060600082141561332c576040518060400160405280600181526020017f30000000000000000000000000000000000000000000000000000000000000008152509050613440565b600082905060005b6000821461335e5780806133479061550d565b915050600a8261335791906152ed565b9150613334565b60008167ffffffffffffffff81111561337a576133796156aa565b5b6040519080825280601f01601f1916602001820160405280156133ac5781602001600182028036833780820191505090505b5090505b60008514613439576001826133c59190615378565b9150600a856133d4919061558e565b60306133e09190615297565b60f81b8183815181106133f6576133f561567b565b5b60200101907effffffffffffffffffffffffffffffffffffffffffffffffffffffffffffff1916908160001a905350600a8561343291906152ed565b94506133b0565b8093505050505b919050565b60007f780e9d63000000000000000000000000000000000000000000000000000000007bffffffffffffffffffffffffffffffffffffffffffffffffffffffff1916827bffffffffffffffffffffffffffffffffffffffffffffffffffffffff191614806134b857506134b782613b11565b5b9050919050565b6134ca838383613bf3565b600073ffffffffffffffffffffffffffffffffffffffff168373ffffffffffffffffffffffffffffffffffffffff16141561350d5761350881613bf8565b61354c565b8173ffffffffffffffffffffffffffffffffffffffff168373ffffffffffffffffffffffffffffffffffffffff161461354b5761354a8382613c41565b5b5b600073ffffffffffffffffffffffffffffffffffffffff168273ffffffffffffffffffffffffffffffffffffffff16141561358f5761358a81613dae565b6135ce565b8273ffffffffffffffffffffffffffffffffffffffff168273ffffffffffffffffffffffffffffffffffffffff16146135cd576135cc8282613e7f565b5b5b505050565b505050565b6135e28282611d77565b613671576136078173ffffffffffffffffffffffffffffffffffffffff166014613efe565b6136158360001c6020613efe565b604051602001613626929190614ca1565b6040516020818303038152906040526040517f08c379a00000000000000000000000000000000000000000000000000000000081526004016136689190614de8565b60405180910390fd5b5050565b600080610408600081548092919061368c9061550d565b919050556103e861369d9190615378565b9050600081116136e2576040517f08c379a00000000000000000000000000000000000000000000000000000000081526004016136d9906150aa565b60405180910390fd5b600081846136f0919061558e565b9050600080600c836103e8811061370a5761370961567b565b5b015414156137245760018261371f9190615297565b613748565b6001600c836103e8811061373b5761373a61567b565b5b01546137479190615297565b5b90506000600c60018561375b9190615378565b6103e8811061376d5761376c61567b565b5b01541461379c57600c6001846137839190615378565b6103e881106137955761379461567b565b5b01546137aa565b6001836137a99190615378565b5b600c836103e881106137bf576137be61567b565b5b01819055506000600c6001856137d59190615378565b6103e881106137e7576137e661567b565b5b0181905550809350505050919050565b60006138188473ffffffffffffffffffffffffffffffffffffffff1661413a565b15613981578373ffffffffffffffffffffffffffffffffffffffff1663150b7a026138416126d9565b8786866040518563ffffffff1660e01b81526004016138639493929190614d44565b602060405180830381600087803b15801561387d57600080fd5b505af19250505080156138ae57506040513d601f19601f820116820180604052508101906138ab919061453a565b60015b613931573d80600081146138de576040519150601f19603f3d011682016040523d82523d6000602084013e6138e3565b606091505b50600081511415613929576040517f08c379a000000000000000000000000000000000000000000000000000000000815260040161392090614e4a565b60405180910390fd5b805181602001fd5b63150b7a0260e01b7bffffffffffffffffffffffffffffffffffffffffffffffffffffffff1916817bffffffffffffffffffffffffffffffffffffffffffffffffffffffff191614915050613986565b600190505b949350505050565b60008061040960008154809291906139a59061550d565b9190505560146139b59190615378565b9050600081116139fa576040517f08c379a00000000000000000000000000000000000000000000000000000000081526004016139f1906150aa565b60405180910390fd5b60008184613a08919061558e565b90506000806103f48360148110613a2257613a2161567b565b5b01541415613a3d5761271082613a389190615297565b613a62565b6127106103f48360148110613a5557613a5461567b565b5b0154613a619190615297565b5b905060006103f4600185613a769190615378565b60148110613a8757613a8661567b565b5b015414613ab6576103f4600184613a9e9190615378565b60148110613aaf57613aae61567b565b5b0154613ac4565b600183613ac39190615378565b5b6103f48360148110613ad957613ad861567b565b5b018190555060006103f4600185613af09190615378565b60148110613b0157613b0061567b565b5b0181905550809350505050919050565b60007f80ac58cd000000000000000000000000000000000000000000000000000000007bffffffffffffffffffffffffffffffffffffffffffffffffffffffff1916827bffffffffffffffffffffffffffffffffffffffffffffffffffffffff19161480613bdc57507f5b5e139f000000000000000000000000000000000000000000000000000000007bffffffffffffffffffffffffffffffffffffffffffffffffffffffff1916827bffffffffffffffffffffffffffffffffffffffffffffffffffffffff1916145b80613bec5750613beb8261415d565b5b9050919050565b505050565b6008805490506009600083815260200190815260200160002081905550600881908060018154018082558091505060019003906000526020600020016000909190919091505550565b60006001613c4e84611b08565b613c589190615378565b9050600060076000848152602001908152602001600020549050818114613d3d576000600660008673ffffffffffffffffffffffffffffffffffffffff1673ffffffffffffffffffffffffffffffffffffffff168152602001908152602001600020600084815260200190815260200160002054905080600660008773ffffffffffffffffffffffffffffffffffffffff1673ffffffffffffffffffffffffffffffffffffffff168152602001908152602001600020600084815260200190815260200160002081905550816007600083815260200190815260200160002081905550505b6007600084815260200190815260200160002060009055600660008573ffffffffffffffffffffffffffffffffffffffff1673ffffffffffffffffffffffffffffffffffffffff16815260200190815260200160002060008381526020019081526020016000206000905550505050565b60006001600880549050613dc29190615378565b9050600060096000848152602001908152602001600020549050600060088381548110613df257613df161567b565b5b906000526020600020015490508060088381548110613e1457613e1361567b565b5b906000526020600020018190555081600960008381526020019081526020016000208190555060096000858152602001908152602001600020600090556008805480613e6357613e6261564c565b5b6001900381819060005260206000200160009055905550505050565b6000613e8a83611b08565b905081600660008573ffffffffffffffffffffffffffffffffffffffff1673ffffffffffffffffffffffffffffffffffffffff168152602001908152602001600020600083815260200190815260200160002081905550806007600084815260200190815260200160002081905550505050565b606060006002836002613f11919061531e565b613f1b9190615297565b67ffffffffffffffff811115613f3457613f336156aa565b5b6040519080825280601f01601f191660200182016040528015613f665781602001600182028036833780820191505090505b5090507f300000000000000000000000000000000000000000000000000000000000000081600081518110613f9e57613f9d61567b565b5b60200101907effffffffffffffffffffffffffffffffffffffffffffffffffffffffffffff1916908160001a9053507f7800000000000000000000000000000000000000000000000000000000000000816001815181106140025761400161567b565b5b60200101907effffffffffffffffffffffffffffffffffffffffffffffffffffffffffffff1916908160001a90535060006001846002614042919061531e565b61404c9190615297565b90505b60018111156140ec577f3031323334353637383961626364656600000000000000000000000000000000600f86166010811061408e5761408d61567b565b5b1a60f81b8282815181106140a5576140a461567b565b5b60200101907effffffffffffffffffffffffffffffffffffffffffffffffffffffffffffff1916908160001a905350600485901c9450806140e590615480565b905061404f565b5060008414614130576040517f08c379a000000000000000000000000000000000000000000000000000000000815260040161412790614e0a565b60405180910390fd5b8091505092915050565b6000808273ffffffffffffffffffffffffffffffffffffffff163b119050919050565b60007f01ffc9a7000000000000000000000000000000000000000000000000000000007bffffffffffffffffffffffffffffffffffffffffffffffffffffffff1916827bffffffffffffffffffffffffffffffffffffffffffffffffffffffff1916149050919050565b6040518060200160405280600081525090565b60006141ed6141e8846151ca565b6151a5565b905082815260208101848484011115614209576142086156de565b5b61421484828561543e565b509392505050565b60008135905061422b81615dc7565b92915050565b60008135905061424081615dde565b92915050565b60008135905061425581615df5565b92915050565b60008135905061426a81615e0c565b92915050565b60008151905061427f81615e0c565b92915050565b600082601f83011261429a576142996156d9565b5b81356142aa8482602086016141da565b91505092915050565b6000813590506142c281615e23565b92915050565b6000813590506142d781615e3a565b92915050565b6000602082840312156142f3576142f26156e8565b5b60006143018482850161421c565b91505092915050565b60008060408385031215614321576143206156e8565b5b600061432f8582860161421c565b92505060206143408582860161421c565b9150509250929050565b600080600060608486031215614363576143626156e8565b5b60006143718682870161421c565b93505060206143828682870161421c565b9250506040614393868287016142b3565b9150509250925092565b600080600080608085870312156143b7576143b66156e8565b5b60006143c58782880161421c565b94505060206143d68782880161421c565b93505060406143e7878288016142b3565b925050606085013567ffffffffffffffff811115614408576144076156e3565b5b61441487828801614285565b91505092959194509250565b60008060408385031215614437576144366156e8565b5b60006144458582860161421c565b925050602061445685828601614231565b9150509250929050565b60008060408385031215614477576144766156e8565b5b60006144858582860161421c565b9250506020614496858286016142b3565b9150509250929050565b6000602082840312156144b6576144b56156e8565b5b60006144c484828501614246565b91505092915050565b600080604083850312156144e4576144e36156e8565b5b60006144f285828601614246565b92505060206145038582860161421c565b9150509250929050565b600060208284031215614523576145226156e8565b5b60006145318482850161425b565b91505092915050565b6000602082840312156145505761454f6156e8565b5b600061455e84828501614270565b91505092915050565b60006020828403121561457d5761457c6156e8565b5b600061458b848285016142b3565b91505092915050565b600080604083850312156145ab576145aa6156e8565b5b60006145b9858286016142b3565b92505060206145ca858286016142b3565b9150509250929050565b6000602082840312156145ea576145e96156e8565b5b60006145f8848285016142c8565b91505092915050565b600061460d8383614c0e565b60208301905092915050565b614622816153ac565b82525050565b614639614634826153ac565b615556565b82525050565b600061464a82615220565b614654818561524e565b935061465f836151fb565b8060005b838110156146905781516146778882614601565b975061468283615241565b925050600181019050614663565b5085935050505092915050565b6146a6816153be565b82525050565b6146b5816153ca565b82525050565b6146cc6146c7826153ca565b615568565b82525050565b60006146dd8261522b565b6146e7818561525f565b93506146f781856020860161544d565b614700816156ed565b840191505092915050565b600061471682615236565b614720818561527b565b935061473081856020860161544d565b614739816156ed565b840191505092915050565b600061474f82615236565b614759818561528c565b935061476981856020860161544d565b80840191505092915050565b60008154614782816154aa565b61478c818661528c565b945060018216600081146147a757600181146147b8576147eb565b60ff198316865281860193506147eb565b6147c18561520b565b60005b838110156147e3578154818901526001820191506020810190506147c4565b838801955050505b50505092915050565b600061480160208361527b565b915061480c8261570b565b602082019050919050565b6000614824602b8361527b565b915061482f82615734565b604082019050919050565b600061484760328361527b565b915061485282615783565b604082019050919050565b600061486a60268361527b565b9150614875826157d2565b604082019050919050565b600061488d60258361527b565b915061489882615821565b604082019050919050565b60006148b0600b8361527b565b91506148bb82615870565b602082019050919050565b60006148d3601c8361527b565b91506148de82615899565b602082019050919050565b60006148f660148361527b565b9150614901826158c2565b602082019050919050565b600061491960248361527b565b9150614924826158eb565b604082019050919050565b600061493c60198361527b565b91506149478261593a565b602082019050919050565b600061495f602c8361527b565b915061496a82615963565b604082019050919050565b6000614982600f8361527b565b915061498d826159b2565b602082019050919050565b60006149a560388361527b565b91506149b0826159db565b604082019050919050565b60006149c8602a8361527b565b91506149d382615a2a565b604082019050919050565b60006149eb60298361527b565b91506149f682615a79565b604082019050919050565b6000614a0e60208361527b565b9150614a1982615ac8565b602082019050919050565b6000614a31601b8361527b565b9150614a3c82615af1565b602082019050919050565b6000614a54602c8361527b565b9150614a5f82615b1a565b604082019050919050565b6000614a7760058361528c565b9150614a8282615b69565b600582019050919050565b6000614a9a60208361527b565b9150614aa582615b92565b602082019050919050565b6000614abd60218361527b565b9150614ac882615bbb565b604082019050919050565b6000614ae0600083615270565b9150614aeb82615c0a565b600082019050919050565b6000614b0360318361527b565b9150614b0e82615c0d565b604082019050919050565b6000614b26600b8361527b565b9150614b3182615c5c565b602082019050919050565b6000614b49602c8361527b565b9150614b5482615c85565b604082019050919050565b6000614b6c60178361528c565b9150614b7782615cd4565b601782019050919050565b6000614b8f600d8361527b565b9150614b9a82615cfd565b602082019050919050565b6000614bb260118361528c565b9150614bbd82615d26565b601182019050919050565b6000614bd5602f8361527b565b9150614be082615d4f565b604082019050919050565b6000614bf860018361528c565b9150614c0382615d9e565b600182019050919050565b614c1781615420565b82525050565b614c2681615420565b82525050565b614c3d614c3882615420565b615584565b82525050565b614c4c8161542a565b82525050565b6000614c5e8285614775565b9150614c6982614beb565b9150614c758284614744565b9150614c8082614a6a565b91508190509392505050565b6000614c9782614ad3565b9150819050919050565b6000614cac82614b5f565b9150614cb88285614744565b9150614cc382614ba5565b9150614ccf8284614744565b91508190509392505050565b6000614ce78287614c2c565b602082019150614cf78286614628565b601482019150614d078285614c2c565b602082019150614d1782846146bb565b60208201915081905095945050505050565b6000602082019050614d3e6000830184614619565b92915050565b6000608082019050614d596000830187614619565b614d666020830186614619565b614d736040830185614c1d565b8181036060830152614d8581846146d2565b905095945050505050565b60006020820190508181036000830152614daa818461463f565b905092915050565b6000602082019050614dc7600083018461469d565b92915050565b6000602082019050614de260008301846146ac565b92915050565b60006020820190508181036000830152614e02818461470b565b905092915050565b60006020820190508181036000830152614e23816147f4565b9050919050565b60006020820190508181036000830152614e4381614817565b9050919050565b60006020820190508181036000830152614e638161483a565b9050919050565b60006020820190508181036000830152614e838161485d565b9050919050565b60006020820190508181036000830152614ea381614880565b9050919050565b60006020820190508181036000830152614ec3816148a3565b9050919050565b60006020820190508181036000830152614ee3816148c6565b9050919050565b60006020820190508181036000830152614f03816148e9565b9050919050565b60006020820190508181036000830152614f238161490c565b9050919050565b60006020820190508181036000830152614f438161492f565b9050919050565b60006020820190508181036000830152614f6381614952565b9050919050565b60006020820190508181036000830152614f8381614975565b9050919050565b60006020820190508181036000830152614fa381614998565b9050919050565b60006020820190508181036000830152614fc3816149bb565b9050919050565b60006020820190508181036000830152614fe3816149de565b9050919050565b6000602082019050818103600083015261500381614a01565b9050919050565b6000602082019050818103600083015261502381614a24565b9050919050565b6000602082019050818103600083015261504381614a47565b9050919050565b6000602082019050818103600083015261506381614a8d565b9050919050565b6000602082019050818103600083015261508381614ab0565b9050919050565b600060208201905081810360008301526150a381614af6565b9050919050565b600060208201905081810360008301526150c381614b19565b9050919050565b600060208201905081810360008301526150e381614b3c565b9050919050565b6000602082019050818103600083015261510381614b82565b9050919050565b6000602082019050818103600083015261512381614bc8565b9050919050565b600060208201905061513f6000830184614c1d565b92915050565b600060808201905061515a6000830187614c1d565b6151676020830186614c1d565b6151746040830185614c1d565b6151816060830184614c1d565b95945050505050565b600060208201905061519f6000830184614c43565b92915050565b60006151af6151c0565b90506151bb82826154dc565b919050565b6000604051905090565b600067ffffffffffffffff8211156151e5576151e46156aa565b5b6151ee826156ed565b9050602081019050919050565b6000819050602082019050919050565b60008190508160005260206000209050919050565b600081519050919050565b600081519050919050565b600081519050919050565b6000602082019050919050565b600082825260208201905092915050565b600082825260208201905092915050565b600081905092915050565b600082825260208201905092915050565b600081905092915050565b60006152a282615420565b91506152ad83615420565b9250827fffffffffffffffffffffffffffffffffffffffffffffffffffffffffffffffff038211156152e2576152e16155bf565b5b828201905092915050565b60006152f882615420565b915061530383615420565b925082615313576153126155ee565b5b828204905092915050565b600061532982615420565b915061533483615420565b9250817fffffffffffffffffffffffffffffffffffffffffffffffffffffffffffffffff048311821515161561536d5761536c6155bf565b5b828202905092915050565b600061538382615420565b915061538e83615420565b9250828210156153a1576153a06155bf565b5b828203905092915050565b60006153b782615400565b9050919050565b60008115159050919050565b6000819050919050565b60007fffffffff0000000000000000000000000000000000000000000000000000000082169050919050565b600073ffffffffffffffffffffffffffffffffffffffff82169050919050565b6000819050919050565b600067ffffffffffffffff82169050919050565b82818337600083830152505050565b60005b8381101561546b578082015181840152602081019050615450565b8381111561547a576000848401525b50505050565b600061548b82615420565b9150600082141561549f5761549e6155bf565b5b600182039050919050565b600060028204905060018216806154c257607f821691505b602082108114156154d6576154d561561d565b5b50919050565b6154e5826156ed565b810181811067ffffffffffffffff82111715615504576155036156aa565b5b80604052505050565b600061551882615420565b91507fffffffffffffffffffffffffffffffffffffffffffffffffffffffffffffffff82141561554b5761554a6155bf565b5b600182019050919050565b600061556182615572565b9050919050565b6000819050919050565b600061557d826156fe565b9050919050565b6000819050919050565b600061559982615420565b91506155a483615420565b9250826155b4576155b36155ee565b5b828206905092915050565b7f4e487b7100000000000000000000000000000000000000000000000000000000600052601160045260246000fd5b7f4e487b7100000000000000000000000000000000000000000000000000000000600052601260045260246000fd5b7f4e487b7100000000000000000000000000000000000000000000000000000000600052602260045260246000fd5b7f4e487b7100000000000000000000000000000000000000000000000000000000600052603160045260246000fd5b7f4e487b7100000000000000000000000000000000000000000000000000000000600052603260045260246000fd5b7f4e487b7100000000000000000000000000000000000000000000000000000000600052604160045260246000fd5b600080fd5b600080fd5b600080fd5b600080fd5b6000601f19601f8301169050919050565b60008160601b9050919050565b7f537472696e67733a20686578206c656e67746820696e73756666696369656e74600082015250565b7f455243373231456e756d657261626c653a206f776e657220696e646578206f7560008201527f74206f6620626f756e6473000000000000000000000000000000000000000000602082015250565b7f4552433732313a207472616e7366657220746f206e6f6e20455243373231526560008201527f63656976657220696d706c656d656e7465720000000000000000000000000000602082015250565b7f4f776e61626c653a206e6577206f776e657220697320746865207a65726f206160008201527f6464726573730000000000000000000000000000000000000000000000000000602082015250565b7f4552433732313a207472616e736665722066726f6d20696e636f72726563742060008201527f6f776e6572000000000000000000000000000000000000000000000000000000602082015250565b7f636865636b207072696365000000000000000000000000000000000000000000600082015250565b7f4552433732313a20746f6b656e20616c7265616479206d696e74656400000000600082015250565b7f4661696c656420746f2073656e64206d6f6e6579000000000000000000000000600082015250565b7f4552433732313a207472616e7366657220746f20746865207a65726f2061646460008201527f7265737300000000000000000000000000000000000000000000000000000000602082015250565b7f4552433732313a20617070726f766520746f2063616c6c657200000000000000600082015250565b7f4552433732313a206f70657261746f7220717565727920666f72206e6f6e657860008201527f697374656e7420746f6b656e0000000000000000000000000000000000000000602082015250565b7f4e6f7420656e6f756768206b6c61790000000000000000000000000000000000600082015250565b7f4552433732313a20617070726f76652063616c6c6572206973206e6f74206f7760008201527f6e6572206e6f7220617070726f76656420666f7220616c6c0000000000000000602082015250565b7f4552433732313a2062616c616e636520717565727920666f7220746865207a6560008201527f726f206164647265737300000000000000000000000000000000000000000000602082015250565b7f4552433732313a206f776e657220717565727920666f72206e6f6e657869737460008201527f656e7420746f6b656e0000000000000000000000000000000000000000000000602082015250565b7f4552433732313a206d696e7420746f20746865207a65726f2061646472657373600082015250565b7f4e6f206d6f7265206d696e74696e6720697320706f737369626c650000000000600082015250565b7f4552433732313a20617070726f76656420717565727920666f72206e6f6e657860008201527f697374656e7420746f6b656e0000000000000000000000000000000000000000602082015250565b7f2e6a736f6e000000000000000000000000000000000000000000000000000000600082015250565b7f4f776e61626c653a2063616c6c6572206973206e6f7420746865206f776e6572600082015250565b7f4552433732313a20617070726f76616c20746f2063757272656e74206f776e6560008201527f7200000000000000000000000000000000000000000000000000000000000000602082015250565b50565b7f4552433732313a207472616e736665722063616c6c6572206973206e6f74206f60008201527f776e6572206e6f7220617070726f766564000000000000000000000000000000602082015250565b7f6e6f20696473206c656674000000000000000000000000000000000000000000600082015250565b7f455243373231456e756d657261626c653a20676c6f62616c20696e646578206f60008201527f7574206f6620626f756e64730000000000000000000000000000000000000000602082015250565b7f416363657373436f6e74726f6c3a206163636f756e7420000000000000000000600082015250565b7f636865636b2062616c616e636500000000000000000000000000000000000000600082015250565b7f206973206d697373696e6720726f6c6520000000000000000000000000000000600082015250565b7f416363657373436f6e74726f6c3a2063616e206f6e6c792072656e6f756e636560008201527f20726f6c657320666f722073656c660000000000000000000000000000000000602082015250565b7f2f00000000000000000000000000000000000000000000000000000000000000600082015250565b615dd0816153ac565b8114615ddb57600080fd5b50565b615de7816153be565b8114615df257600080fd5b50565b615dfe816153ca565b8114615e0957600080fd5b50565b615e15816153d4565b8114615e2057600080fd5b50565b615e2c81615420565b8114615e3757600080fd5b50565b615e438161542a565b8114615e4e57600080fd5b5056fea26469706673582212206acfbd58a452b2484ff0e19940be06ae1f06a2c61a033e80a2cfb0b95d87d21b64736f6c63430008070033",
			"opcodes": "PUSH1 0x80 PUSH1 0x40 MSTORE PUSH1 0x0 PUSH2 0x40C PUSH1 0x0 PUSH2 0x100 EXP DUP2 SLOAD DUP2 PUSH8 0xFFFFFFFFFFFFFFFF MUL NOT AND SWAP1 DUP4 PUSH8 0xFFFFFFFFFFFFFFFF AND MUL OR SWAP1 SSTORE POP CALLVALUE DUP1 ISZERO PUSH3 0x3C JUMPI PUSH1 0x0 DUP1 REVERT JUMPDEST POP PUSH1 0x40 MLOAD PUSH3 0x657B CODESIZE SUB DUP1 PUSH3 0x657B DUP4 CODECOPY DUP2 DUP2 ADD PUSH1 0x40 MSTORE DUP2 ADD SWAP1 PUSH3 0x62 SWAP2 SWAP1 PUSH3 0x50F JUMP JUMPDEST PUSH1 0x40 MLOAD DUP1 PUSH1 0x40 ADD PUSH1 0x40 MSTORE DUP1 PUSH1 0x7 DUP2 MSTORE PUSH1 0x20 ADD PUSH32 0x4A6F6C616D616E00000000000000000000000000000000000000000000000000 DUP2 MSTORE POP PUSH1 0x40 MLOAD DUP1 PUSH1 0x40 ADD PUSH1 0x40 MSTORE DUP1 PUSH1 0x2 DUP2 MSTORE PUSH1 0x20 ADD PUSH32 0x4A4C000000000000000000000000000000000000000000000000000000000000 DUP2 MSTORE POP DUP2 PUSH1 0x0 SWAP1 DUP1 MLOAD SWAP1 PUSH1 0x20 ADD SWAP1 PUSH3 0xE6 SWAP3 SWAP2 SWAP1 PUSH3 0x3E1 JUMP JUMPDEST POP DUP1 PUSH1 0x1 SWAP1 DUP1 MLOAD SWAP1 PUSH1 0x20 ADD SWAP1 PUSH3 0xFF SWAP3 SWAP2 SWAP1 PUSH3 0x3E1 JUMP JUMPDEST POP POP POP PUSH3 0x122 PUSH3 0x116 PUSH3 0x1B6 PUSH1 0x20 SHL PUSH1 0x20 SHR JUMP JUMPDEST PUSH3 0x1BE PUSH1 0x20 SHL PUSH1 0x20 SHR JUMP JUMPDEST CALLER PUSH2 0x40E PUSH1 0x0 PUSH2 0x100 EXP DUP2 SLOAD DUP2 PUSH20 0xFFFFFFFFFFFFFFFFFFFFFFFFFFFFFFFFFFFFFFFF MUL NOT AND SWAP1 DUP4 PUSH20 0xFFFFFFFFFFFFFFFFFFFFFFFFFFFFFFFFFFFFFFFF AND MUL OR SWAP1 SSTORE POP DUP1 PUSH2 0x40F SWAP1 DUP1 MLOAD SWAP1 PUSH1 0x20 ADD SWAP1 PUSH3 0x17D SWAP3 SWAP2 SWAP1 PUSH3 0x3E1 JUMP JUMPDEST POP PUSH1 0x0 PUSH2 0x40D DUP2 SWAP1 SSTORE POP PUSH1 0x0 PUSH2 0x40A DUP2 SWAP1 SSTORE POP PUSH2 0x2710 PUSH2 0x40B DUP2 SWAP1 SSTORE POP PUSH3 0x1AF PUSH1 0x0 DUP1 SHL CALLER PUSH3 0x284 PUSH1 0x20 SHL PUSH1 0x20 SHR JUMP JUMPDEST POP PUSH3 0x6E4 JUMP JUMPDEST PUSH1 0x0 CALLER SWAP1 POP SWAP1 JUMP JUMPDEST PUSH1 0x0 PUSH1 0xA PUSH1 0x0 SWAP1 SLOAD SWAP1 PUSH2 0x100 EXP SWAP1 DIV PUSH20 0xFFFFFFFFFFFFFFFFFFFFFFFFFFFFFFFFFFFFFFFF AND SWAP1 POP DUP2 PUSH1 0xA PUSH1 0x0 PUSH2 0x100 EXP DUP2 SLOAD DUP2 PUSH20 0xFFFFFFFFFFFFFFFFFFFFFFFFFFFFFFFFFFFFFFFF MUL NOT AND SWAP1 DUP4 PUSH20 0xFFFFFFFFFFFFFFFFFFFFFFFFFFFFFFFFFFFFFFFF AND MUL OR SWAP1 SSTORE POP DUP2 PUSH20 0xFFFFFFFFFFFFFFFFFFFFFFFFFFFFFFFFFFFFFFFF AND DUP2 PUSH20 0xFFFFFFFFFFFFFFFFFFFFFFFFFFFFFFFFFFFFFFFF AND PUSH32 0x8BE0079C531659141344CD1FD0A4F28419497F9722A3DAAFE3B4186F6B6457E0 PUSH1 0x40 MLOAD PUSH1 0x40 MLOAD DUP1 SWAP2 SUB SWAP1 LOG3 POP POP JUMP JUMPDEST PUSH3 0x296 DUP3 DUP3 PUSH3 0x376 PUSH1 0x20 SHL PUSH1 0x20 SHR JUMP JUMPDEST PUSH3 0x372 JUMPI PUSH1 0x1 PUSH1 0xB PUSH1 0x0 DUP5 DUP2 MSTORE PUSH1 0x20 ADD SWAP1 DUP2 MSTORE PUSH1 0x20 ADD PUSH1 0x0 KECCAK256 PUSH1 0x0 ADD PUSH1 0x0 DUP4 PUSH20 0xFFFFFFFFFFFFFFFFFFFFFFFFFFFFFFFFFFFFFFFF AND PUSH20 0xFFFFFFFFFFFFFFFFFFFFFFFFFFFFFFFFFFFFFFFF AND DUP2 MSTORE PUSH1 0x20 ADD SWAP1 DUP2 MSTORE PUSH1 0x20 ADD PUSH1 0x0 KECCAK256 PUSH1 0x0 PUSH2 0x100 EXP DUP2 SLOAD DUP2 PUSH1 0xFF MUL NOT AND SWAP1 DUP4 ISZERO ISZERO MUL OR SWAP1 SSTORE POP PUSH3 0x317 PUSH3 0x1B6 PUSH1 0x20 SHL PUSH1 0x20 SHR JUMP JUMPDEST PUSH20 0xFFFFFFFFFFFFFFFFFFFFFFFFFFFFFFFFFFFFFFFF AND DUP2 PUSH20 0xFFFFFFFFFFFFFFFFFFFFFFFFFFFFFFFFFFFFFFFF AND DUP4 PUSH32 0x2F8788117E7EFF1D82E926EC794901D17C78024A50270940304540A733656F0D PUSH1 0x40 MLOAD PUSH1 0x40 MLOAD DUP1 SWAP2 SUB SWAP1 LOG4 JUMPDEST POP POP JUMP JUMPDEST PUSH1 0x0 PUSH1 0xB PUSH1 0x0 DUP5 DUP2 MSTORE PUSH1 0x20 ADD SWAP1 DUP2 MSTORE PUSH1 0x20 ADD PUSH1 0x0 KECCAK256 PUSH1 0x0 ADD PUSH1 0x0 DUP4 PUSH20 0xFFFFFFFFFFFFFFFFFFFFFFFFFFFFFFFFFFFFFFFF AND PUSH20 0xFFFFFFFFFFFFFFFFFFFFFFFFFFFFFFFFFFFFFFFF AND DUP2 MSTORE PUSH1 0x20 ADD SWAP1 DUP2 MSTORE PUSH1 0x20 ADD PUSH1 0x0 KECCAK256 PUSH1 0x0 SWAP1 SLOAD SWAP1 PUSH2 0x100 EXP SWAP1 DIV PUSH1 0xFF AND SWAP1 POP SWAP3 SWAP2 POP POP JUMP JUMPDEST DUP3 DUP1 SLOAD PUSH3 0x3EF SWAP1 PUSH3 0x5F5 JUMP JUMPDEST SWAP1 PUSH1 0x0 MSTORE PUSH1 0x20 PUSH1 0x0 KECCAK256 SWAP1 PUSH1 0x1F ADD PUSH1 0x20 SWAP1 DIV DUP2 ADD SWAP3 DUP3 PUSH3 0x413 JUMPI PUSH1 0x0 DUP6 SSTORE PUSH3 0x45F JUMP JUMPDEST DUP3 PUSH1 0x1F LT PUSH3 0x42E JUMPI DUP1 MLOAD PUSH1 0xFF NOT AND DUP4 DUP1 ADD OR DUP6 SSTORE PUSH3 0x45F JUMP JUMPDEST DUP3 DUP1 ADD PUSH1 0x1 ADD DUP6 SSTORE DUP3 ISZERO PUSH3 0x45F JUMPI SWAP2 DUP3 ADD JUMPDEST DUP3 DUP2 GT ISZERO PUSH3 0x45E JUMPI DUP3 MLOAD DUP3 SSTORE SWAP2 PUSH1 0x20 ADD SWAP2 SWAP1 PUSH1 0x1 ADD SWAP1 PUSH3 0x441 JUMP JUMPDEST JUMPDEST POP SWAP1 POP PUSH3 0x46E SWAP2 SWAP1 PUSH3 0x472 JUMP JUMPDEST POP SWAP1 JUMP JUMPDEST JUMPDEST DUP1 DUP3 GT ISZERO PUSH3 0x48D JUMPI PUSH1 0x0 DUP2 PUSH1 0x0 SWAP1 SSTORE POP PUSH1 0x1 ADD PUSH3 0x473 JUMP JUMPDEST POP SWAP1 JUMP JUMPDEST PUSH1 0x0 PUSH3 0x4A8 PUSH3 0x4A2 DUP5 PUSH3 0x589 JUMP JUMPDEST PUSH3 0x560 JUMP JUMPDEST SWAP1 POP DUP3 DUP2 MSTORE PUSH1 0x20 DUP2 ADD DUP5 DUP5 DUP5 ADD GT ISZERO PUSH3 0x4C7 JUMPI PUSH3 0x4C6 PUSH3 0x6C4 JUMP JUMPDEST JUMPDEST PUSH3 0x4D4 DUP5 DUP3 DUP6 PUSH3 0x5BF JUMP JUMPDEST POP SWAP4 SWAP3 POP POP POP JUMP JUMPDEST PUSH1 0x0 DUP3 PUSH1 0x1F DUP4 ADD SLT PUSH3 0x4F4 JUMPI PUSH3 0x4F3 PUSH3 0x6BF JUMP JUMPDEST JUMPDEST DUP2 MLOAD PUSH3 0x506 DUP5 DUP3 PUSH1 0x20 DUP7 ADD PUSH3 0x491 JUMP JUMPDEST SWAP2 POP POP SWAP3 SWAP2 POP POP JUMP JUMPDEST PUSH1 0x0 PUSH1 0x20 DUP3 DUP5 SUB SLT ISZERO PUSH3 0x528 JUMPI PUSH3 0x527 PUSH3 0x6CE JUMP JUMPDEST JUMPDEST PUSH1 0x0 DUP3 ADD MLOAD PUSH8 0xFFFFFFFFFFFFFFFF DUP2 GT ISZERO PUSH3 0x549 JUMPI PUSH3 0x548 PUSH3 0x6C9 JUMP JUMPDEST JUMPDEST PUSH3 0x557 DUP5 DUP3 DUP6 ADD PUSH3 0x4DC JUMP JUMPDEST SWAP2 POP POP SWAP3 SWAP2 POP POP JUMP JUMPDEST PUSH1 0x0 PUSH3 0x56C PUSH3 0x57F JUMP JUMPDEST SWAP1 POP PUSH3 0x57A DUP3 DUP3 PUSH3 0x62B JUMP JUMPDEST SWAP2 SWAP1 POP JUMP JUMPDEST PUSH1 0x0 PUSH1 0x40 MLOAD SWAP1 POP SWAP1 JUMP JUMPDEST PUSH1 0x0 PUSH8 0xFFFFFFFFFFFFFFFF DUP3 GT ISZERO PUSH3 0x5A7 JUMPI PUSH3 0x5A6 PUSH3 0x690 JUMP JUMPDEST JUMPDEST PUSH3 0x5B2 DUP3 PUSH3 0x6D3 JUMP JUMPDEST SWAP1 POP PUSH1 0x20 DUP2 ADD SWAP1 POP SWAP2 SWAP1 POP JUMP JUMPDEST PUSH1 0x0 JUMPDEST DUP4 DUP2 LT ISZERO PUSH3 0x5DF JUMPI DUP1 DUP3 ADD MLOAD DUP2 DUP5 ADD MSTORE PUSH1 0x20 DUP2 ADD SWAP1 POP PUSH3 0x5C2 JUMP JUMPDEST DUP4 DUP2 GT ISZERO PUSH3 0x5EF JUMPI PUSH1 0x0 DUP5 DUP5 ADD MSTORE JUMPDEST POP POP POP POP JUMP JUMPDEST PUSH1 0x0 PUSH1 0x2 DUP3 DIV SWAP1 POP PUSH1 0x1 DUP3 AND DUP1 PUSH3 0x60E JUMPI PUSH1 0x7F DUP3 AND SWAP2 POP JUMPDEST PUSH1 0x20 DUP3 LT DUP2 EQ ISZERO PUSH3 0x625 JUMPI PUSH3 0x624 PUSH3 0x661 JUMP JUMPDEST JUMPDEST POP SWAP2 SWAP1 POP JUMP JUMPDEST PUSH3 0x636 DUP3 PUSH3 0x6D3 JUMP JUMPDEST DUP2 ADD DUP2 DUP2 LT PUSH8 0xFFFFFFFFFFFFFFFF DUP3 GT OR ISZERO PUSH3 0x658 JUMPI PUSH3 0x657 PUSH3 0x690 JUMP JUMPDEST JUMPDEST DUP1 PUSH1 0x40 MSTORE POP POP POP JUMP JUMPDEST PUSH32 0x4E487B7100000000000000000000000000000000000000000000000000000000 PUSH1 0x0 MSTORE PUSH1 0x22 PUSH1 0x4 MSTORE PUSH1 0x24 PUSH1 0x0 REVERT JUMPDEST PUSH32 0x4E487B7100000000000000000000000000000000000000000000000000000000 PUSH1 0x0 MSTORE PUSH1 0x41 PUSH1 0x4 MSTORE PUSH1 0x24 PUSH1 0x0 REVERT JUMPDEST PUSH1 0x0 DUP1 REVERT JUMPDEST PUSH1 0x0 DUP1 REVERT JUMPDEST PUSH1 0x0 DUP1 REVERT JUMPDEST PUSH1 0x0 DUP1 REVERT JUMPDEST PUSH1 0x0 PUSH1 0x1F NOT PUSH1 0x1F DUP4 ADD AND SWAP1 POP SWAP2 SWAP1 POP JUMP JUMPDEST PUSH2 0x5E87 DUP1 PUSH3 0x6F4 PUSH1 0x0 CODECOPY PUSH1 0x0 RETURN INVALID PUSH1 0x80 PUSH1 0x40 MSTORE PUSH1 0x4 CALLDATASIZE LT PUSH2 0x376 JUMPI PUSH1 0x0 CALLDATALOAD PUSH1 0xE0 SHR DUP1 PUSH4 0x6352211E GT PUSH2 0x1D1 JUMPI DUP1 PUSH4 0xB88D4FDE GT PUSH2 0x102 JUMPI DUP1 PUSH4 0xE7CD4A04 GT PUSH2 0xA0 JUMPI DUP1 PUSH4 0xEECF2033 GT PUSH2 0x6F JUMPI DUP1 PUSH4 0xEECF2033 EQ PUSH2 0xD34 JUMPI DUP1 PUSH4 0xF2FDE38B EQ PUSH2 0xD5F JUMPI DUP1 PUSH4 0xF8B2CB4F EQ PUSH2 0xD88 JUMPI DUP1 PUSH4 0xF99031A7 EQ PUSH2 0xDC5 JUMPI PUSH2 0x376 JUMP JUMPDEST DUP1 PUSH4 0xE7CD4A04 EQ PUSH2 0xC66 JUMPI DUP1 PUSH4 0xE8F78026 EQ PUSH2 0xC8F JUMPI DUP1 PUSH4 0xE985E9C5 EQ PUSH2 0xCCC JUMPI DUP1 PUSH4 0xED14D640 EQ PUSH2 0xD09 JUMPI PUSH2 0x376 JUMP JUMPDEST DUP1 PUSH4 0xD2C45618 GT PUSH2 0xDC JUMPI DUP1 PUSH4 0xD2C45618 EQ PUSH2 0xB98 JUMPI DUP1 PUSH4 0xD5391393 EQ PUSH2 0xBD5 JUMPI DUP1 PUSH4 0xD547741F EQ PUSH2 0xC00 JUMPI DUP1 PUSH4 0xD54F62B0 EQ PUSH2 0xC29 JUMPI PUSH2 0x376 JUMP JUMPDEST DUP1 PUSH4 0xB88D4FDE EQ PUSH2 0xB16 JUMPI DUP1 PUSH4 0xC1514D92 EQ PUSH2 0xB3F JUMPI DUP1 PUSH4 0xC87B56DD EQ PUSH2 0xB5B JUMPI PUSH2 0x376 JUMP JUMPDEST DUP1 PUSH4 0x90E41B6E GT PUSH2 0x16F JUMPI DUP1 PUSH4 0xA217FDDF GT PUSH2 0x149 JUMPI DUP1 PUSH4 0xA217FDDF EQ PUSH2 0xA6C JUMPI DUP1 PUSH4 0xA22CB465 EQ PUSH2 0xA97 JUMPI DUP1 PUSH4 0xB2BDFA7B EQ PUSH2 0xAC0 JUMPI DUP1 PUSH4 0xB6612D76 EQ PUSH2 0xAEB JUMPI PUSH2 0x376 JUMP JUMPDEST DUP1 PUSH4 0x90E41B6E EQ PUSH2 0x9C7 JUMPI DUP1 PUSH4 0x91D14854 EQ PUSH2 0xA04 JUMPI DUP1 PUSH4 0x95D89B41 EQ PUSH2 0xA41 JUMPI PUSH2 0x376 JUMP JUMPDEST DUP1 PUSH4 0x715018A6 GT PUSH2 0x1AB JUMPI DUP1 PUSH4 0x715018A6 EQ PUSH2 0x950 JUMPI DUP1 PUSH4 0x73FF361B EQ PUSH2 0x967 JUMPI DUP1 PUSH4 0x74E3447A EQ PUSH2 0x971 JUMPI DUP1 PUSH4 0x8DA5CB5B EQ PUSH2 0x99C JUMPI PUSH2 0x376 JUMP JUMPDEST DUP1 PUSH4 0x6352211E EQ PUSH2 0x8AB JUMPI DUP1 PUSH4 0x70446BBE EQ PUSH2 0x8E8 JUMPI DUP1 PUSH4 0x70A08231 EQ PUSH2 0x913 JUMPI PUSH2 0x376 JUMP JUMPDEST DUP1 PUSH4 0x2F745C59 GT PUSH2 0x2AB JUMPI DUP1 PUSH4 0x42842E0E GT PUSH2 0x249 JUMPI DUP1 PUSH4 0x4E722994 GT PUSH2 0x223 JUMPI DUP1 PUSH4 0x4E722994 EQ PUSH2 0x812 JUMPI DUP1 PUSH4 0x4F6CCCE7 EQ PUSH2 0x83B JUMPI DUP1 PUSH4 0x5AA961E5 EQ PUSH2 0x878 JUMPI DUP1 PUSH4 0x62C9FE06 EQ PUSH2 0x8A1 JUMPI PUSH2 0x376 JUMP JUMPDEST DUP1 PUSH4 0x42842E0E EQ PUSH2 0x7A0 JUMPI DUP1 PUSH4 0x42F6487A EQ PUSH2 0x7C9 JUMPI DUP1 PUSH4 0x4707A389 EQ PUSH2 0x7E7 JUMPI PUSH2 0x376 JUMP JUMPDEST DUP1 PUSH4 0x36568ABE GT PUSH2 0x285 JUMPI DUP1 PUSH4 0x36568ABE EQ PUSH2 0x6E1 JUMPI DUP1 PUSH4 0x37874127 EQ PUSH2 0x70A JUMPI DUP1 PUSH4 0x3E334CF0 EQ PUSH2 0x747 JUMPI DUP1 PUSH4 0x40D097C3 EQ PUSH2 0x784 JUMPI PUSH2 0x376 JUMP JUMPDEST DUP1 PUSH4 0x2F745C59 EQ PUSH2 0x64B JUMPI DUP1 PUSH4 0x35A5CFCB EQ PUSH2 0x688 JUMPI DUP1 PUSH4 0x35DB70B5 EQ PUSH2 0x6B6 JUMPI PUSH2 0x376 JUMP JUMPDEST DUP1 PUSH4 0x18160DDD GT PUSH2 0x318 JUMPI DUP1 PUSH4 0x23B872DD GT PUSH2 0x2F2 JUMPI DUP1 PUSH4 0x23B872DD EQ PUSH2 0x57F JUMPI DUP1 PUSH4 0x248A9CA3 EQ PUSH2 0x5A8 JUMPI DUP1 PUSH4 0x2F08480D EQ PUSH2 0x5E5 JUMPI DUP1 PUSH4 0x2F2FF15D EQ PUSH2 0x622 JUMPI PUSH2 0x376 JUMP JUMPDEST DUP1 PUSH4 0x18160DDD EQ PUSH2 0x4EE JUMPI DUP1 PUSH4 0x1CAAA487 EQ PUSH2 0x519 JUMPI DUP1 PUSH4 0x2042E5C2 EQ PUSH2 0x556 JUMPI PUSH2 0x376 JUMP JUMPDEST DUP1 PUSH4 0x81812FC GT PUSH2 0x354 JUMPI DUP1 PUSH4 0x81812FC EQ PUSH2 0x40E JUMPI DUP1 PUSH4 0x95EA7B3 EQ PUSH2 0x44B JUMPI DUP1 PUSH4 0xC401D7E EQ PUSH2 0x474 JUMPI DUP1 PUSH4 0xD4CC788 EQ PUSH2 0x4B1 JUMPI PUSH2 0x376 JUMP JUMPDEST DUP1 PUSH4 0x1FFC9A7 EQ PUSH2 0x37B JUMPI DUP1 PUSH4 0x3EE438C EQ PUSH2 0x3B8 JUMPI DUP1 PUSH4 0x6FDDE03 EQ PUSH2 0x3E3 JUMPI JUMPDEST PUSH1 0x0 DUP1 REVERT JUMPDEST CALLVALUE DUP1 ISZERO PUSH2 0x387 JUMPI PUSH1 0x0 DUP1 REVERT JUMPDEST POP PUSH2 0x3A2 PUSH1 0x4 DUP1 CALLDATASIZE SUB DUP2 ADD SWAP1 PUSH2 0x39D SWAP2 SWAP1 PUSH2 0x450D JUMP JUMPDEST PUSH2 0xE02 JUMP JUMPDEST PUSH1 0x40 MLOAD PUSH2 0x3AF SWAP2 SWAP1 PUSH2 0x4DB2 JUMP JUMPDEST PUSH1 0x40 MLOAD DUP1 SWAP2 SUB SWAP1 RETURN JUMPDEST CALLVALUE DUP1 ISZERO PUSH2 0x3C4 JUMPI PUSH1 0x0 DUP1 REVERT JUMPDEST POP PUSH2 0x3CD PUSH2 0xE14 JUMP JUMPDEST PUSH1 0x40 MLOAD PUSH2 0x3DA SWAP2 SWAP1 PUSH2 0x4DE8 JUMP JUMPDEST PUSH1 0x40 MLOAD DUP1 SWAP2 SUB SWAP1 RETURN JUMPDEST CALLVALUE DUP1 ISZERO PUSH2 0x3EF JUMPI PUSH1 0x0 DUP1 REVERT JUMPDEST POP PUSH2 0x3F8 PUSH2 0xEA3 JUMP JUMPDEST PUSH1 0x40 MLOAD PUSH2 0x405 SWAP2 SWAP1 PUSH2 0x4DE8 JUMP JUMPDEST PUSH1 0x40 MLOAD DUP1 SWAP2 SUB SWAP1 RETURN JUMPDEST CALLVALUE DUP1 ISZERO PUSH2 0x41A JUMPI PUSH1 0x0 DUP1 REVERT JUMPDEST POP PUSH2 0x435 PUSH1 0x4 DUP1 CALLDATASIZE SUB DUP2 ADD SWAP1 PUSH2 0x430 SWAP2 SWAP1 PUSH2 0x4567 JUMP JUMPDEST PUSH2 0xF35 JUMP JUMPDEST PUSH1 0x40 MLOAD PUSH2 0x442 SWAP2 SWAP1 PUSH2 0x4D29 JUMP JUMPDEST PUSH1 0x40 MLOAD DUP1 SWAP2 SUB SWAP1 RETURN JUMPDEST CALLVALUE DUP1 ISZERO PUSH2 0x457 JUMPI PUSH1 0x0 DUP1 REVERT JUMPDEST POP PUSH2 0x472 PUSH1 0x4 DUP1 CALLDATASIZE SUB DUP2 ADD SWAP1 PUSH2 0x46D SWAP2 SWAP1 PUSH2 0x4460 JUMP JUMPDEST PUSH2 0xFBA JUMP JUMPDEST STOP JUMPDEST CALLVALUE DUP1 ISZERO PUSH2 0x480 JUMPI PUSH1 0x0 DUP1 REVERT JUMPDEST POP PUSH2 0x49B PUSH1 0x4 DUP1 CALLDATASIZE SUB DUP2 ADD SWAP1 PUSH2 0x496 SWAP2 SWAP1 PUSH2 0x4567 JUMP JUMPDEST PUSH2 0x10D2 JUMP JUMPDEST PUSH1 0x40 MLOAD PUSH2 0x4A8 SWAP2 SWAP1 PUSH2 0x4DB2 JUMP JUMPDEST PUSH1 0x40 MLOAD DUP1 SWAP2 SUB SWAP1 RETURN JUMPDEST CALLVALUE DUP1 ISZERO PUSH2 0x4BD JUMPI PUSH1 0x0 DUP1 REVERT JUMPDEST POP PUSH2 0x4D8 PUSH1 0x4 DUP1 CALLDATASIZE SUB DUP2 ADD SWAP1 PUSH2 0x4D3 SWAP2 SWAP1 PUSH2 0x4567 JUMP JUMPDEST PUSH2 0x10F3 JUMP JUMPDEST PUSH1 0x40 MLOAD PUSH2 0x4E5 SWAP2 SWAP1 PUSH2 0x4D90 JUMP JUMPDEST PUSH1 0x40 MLOAD DUP1 SWAP2 SUB SWAP1 RETURN JUMPDEST CALLVALUE DUP1 ISZERO PUSH2 0x4FA JUMPI PUSH1 0x0 DUP1 REVERT JUMPDEST POP PUSH2 0x503 PUSH2 0x115F JUMP JUMPDEST PUSH1 0x40 MLOAD PUSH2 0x510 SWAP2 SWAP1 PUSH2 0x512A JUMP JUMPDEST PUSH1 0x40 MLOAD DUP1 SWAP2 SUB SWAP1 RETURN JUMPDEST CALLVALUE DUP1 ISZERO PUSH2 0x525 JUMPI PUSH1 0x0 DUP1 REVERT JUMPDEST POP PUSH2 0x540 PUSH1 0x4 DUP1 CALLDATASIZE SUB DUP2 ADD SWAP1 PUSH2 0x53B SWAP2 SWAP1 PUSH2 0x4567 JUMP JUMPDEST PUSH2 0x116C JUMP JUMPDEST PUSH1 0x40 MLOAD PUSH2 0x54D SWAP2 SWAP1 PUSH2 0x4D29 JUMP JUMPDEST PUSH1 0x40 MLOAD DUP1 SWAP2 SUB SWAP1 RETURN JUMPDEST CALLVALUE DUP1 ISZERO PUSH2 0x562 JUMPI PUSH1 0x0 DUP1 REVERT JUMPDEST POP PUSH2 0x57D PUSH1 0x4 DUP1 CALLDATASIZE SUB DUP2 ADD SWAP1 PUSH2 0x578 SWAP2 SWAP1 PUSH2 0x42DD JUMP JUMPDEST PUSH2 0x11A0 JUMP JUMPDEST STOP JUMPDEST CALLVALUE DUP1 ISZERO PUSH2 0x58B JUMPI PUSH1 0x0 DUP1 REVERT JUMPDEST POP PUSH2 0x5A6 PUSH1 0x4 DUP1 CALLDATASIZE SUB DUP2 ADD SWAP1 PUSH2 0x5A1 SWAP2 SWAP1 PUSH2 0x434A JUMP JUMPDEST PUSH2 0x12A2 JUMP JUMPDEST STOP JUMPDEST CALLVALUE DUP1 ISZERO PUSH2 0x5B4 JUMPI PUSH1 0x0 DUP1 REVERT JUMPDEST POP PUSH2 0x5CF PUSH1 0x4 DUP1 CALLDATASIZE SUB DUP2 ADD SWAP1 PUSH2 0x5CA SWAP2 SWAP1 PUSH2 0x44A0 JUMP JUMPDEST PUSH2 0x1302 JUMP JUMPDEST PUSH1 0x40 MLOAD PUSH2 0x5DC SWAP2 SWAP1 PUSH2 0x4DCD JUMP JUMPDEST PUSH1 0x40 MLOAD DUP1 SWAP2 SUB SWAP1 RETURN JUMPDEST CALLVALUE DUP1 ISZERO PUSH2 0x5F1 JUMPI PUSH1 0x0 DUP1 REVERT JUMPDEST POP PUSH2 0x60C PUSH1 0x4 DUP1 CALLDATASIZE SUB DUP2 ADD SWAP1 PUSH2 0x607 SWAP2 SWAP1 PUSH2 0x4460 JUMP JUMPDEST PUSH2 0x1322 JUMP JUMPDEST PUSH1 0x40 MLOAD PUSH2 0x619 SWAP2 SWAP1 PUSH2 0x512A JUMP JUMPDEST PUSH1 0x40 MLOAD DUP1 SWAP2 SUB SWAP1 RETURN JUMPDEST CALLVALUE DUP1 ISZERO PUSH2 0x62E JUMPI PUSH1 0x0 DUP1 REVERT JUMPDEST POP PUSH2 0x649 PUSH1 0x4 DUP1 CALLDATASIZE SUB DUP2 ADD SWAP1 PUSH2 0x644 SWAP2 SWAP1 PUSH2 0x44CD JUMP JUMPDEST PUSH2 0x1354 JUMP JUMPDEST STOP JUMPDEST CALLVALUE DUP1 ISZERO PUSH2 0x657 JUMPI PUSH1 0x0 DUP1 REVERT JUMPDEST POP PUSH2 0x672 PUSH1 0x4 DUP1 CALLDATASIZE SUB DUP2 ADD SWAP1 PUSH2 0x66D SWAP2 SWAP1 PUSH2 0x4460 JUMP JUMPDEST PUSH2 0x1375 JUMP JUMPDEST PUSH1 0x40 MLOAD PUSH2 0x67F SWAP2 SWAP1 PUSH2 0x512A JUMP JUMPDEST PUSH1 0x40 MLOAD DUP1 SWAP2 SUB SWAP1 RETURN JUMPDEST CALLVALUE DUP1 ISZERO PUSH2 0x694 JUMPI PUSH1 0x0 DUP1 REVERT JUMPDEST POP PUSH2 0x69D PUSH2 0x141A JUMP JUMPDEST PUSH1 0x40 MLOAD PUSH2 0x6AD SWAP5 SWAP4 SWAP3 SWAP2 SWAP1 PUSH2 0x5145 JUMP JUMPDEST PUSH1 0x40 MLOAD DUP1 SWAP2 SUB SWAP1 RETURN JUMPDEST CALLVALUE DUP1 ISZERO PUSH2 0x6C2 JUMPI PUSH1 0x0 DUP1 REVERT JUMPDEST POP PUSH2 0x6CB PUSH2 0x145F JUMP JUMPDEST PUSH1 0x40 MLOAD PUSH2 0x6D8 SWAP2 SWAP1 PUSH2 0x518A JUMP JUMPDEST PUSH1 0x40 MLOAD DUP1 SWAP2 SUB SWAP1 RETURN JUMPDEST CALLVALUE DUP1 ISZERO PUSH2 0x6ED JUMPI PUSH1 0x0 DUP1 REVERT JUMPDEST POP PUSH2 0x708 PUSH1 0x4 DUP1 CALLDATASIZE SUB DUP2 ADD SWAP1 PUSH2 0x703 SWAP2 SWAP1 PUSH2 0x44CD JUMP JUMPDEST PUSH2 0x147A JUMP JUMPDEST STOP JUMPDEST CALLVALUE DUP1 ISZERO PUSH2 0x716 JUMPI PUSH1 0x0 DUP1 REVERT JUMPDEST POP PUSH2 0x731 PUSH1 0x4 DUP1 CALLDATASIZE SUB DUP2 ADD SWAP1 PUSH2 0x72C SWAP2 SWAP1 PUSH2 0x4567 JUMP JUMPDEST PUSH2 0x14FD JUMP JUMPDEST PUSH1 0x40 MLOAD PUSH2 0x73E SWAP2 SWAP1 PUSH2 0x512A JUMP JUMPDEST PUSH1 0x40 MLOAD DUP1 SWAP2 SUB SWAP1 RETURN JUMPDEST CALLVALUE DUP1 ISZERO PUSH2 0x753 JUMPI PUSH1 0x0 DUP1 REVERT JUMPDEST POP PUSH2 0x76E PUSH1 0x4 DUP1 CALLDATASIZE SUB DUP2 ADD SWAP1 PUSH2 0x769 SWAP2 SWAP1 PUSH2 0x4567 JUMP JUMPDEST PUSH2 0x151C JUMP JUMPDEST PUSH1 0x40 MLOAD PUSH2 0x77B SWAP2 SWAP1 PUSH2 0x512A JUMP JUMPDEST PUSH1 0x40 MLOAD DUP1 SWAP2 SUB SWAP1 RETURN JUMPDEST PUSH2 0x79E PUSH1 0x4 DUP1 CALLDATASIZE SUB DUP2 ADD SWAP1 PUSH2 0x799 SWAP2 SWAP1 PUSH2 0x42DD JUMP JUMPDEST PUSH2 0x153D JUMP JUMPDEST STOP JUMPDEST CALLVALUE DUP1 ISZERO PUSH2 0x7AC JUMPI PUSH1 0x0 DUP1 REVERT JUMPDEST POP PUSH2 0x7C7 PUSH1 0x4 DUP1 CALLDATASIZE SUB DUP2 ADD SWAP1 PUSH2 0x7C2 SWAP2 SWAP1 PUSH2 0x434A JUMP JUMPDEST PUSH2 0x1792 JUMP JUMPDEST STOP JUMPDEST PUSH2 0x7D1 PUSH2 0x17B2 JUMP JUMPDEST PUSH1 0x40 MLOAD PUSH2 0x7DE SWAP2 SWAP1 PUSH2 0x4DB2 JUMP JUMPDEST PUSH1 0x40 MLOAD DUP1 SWAP2 SUB SWAP1 RETURN JUMPDEST CALLVALUE DUP1 ISZERO PUSH2 0x7F3 JUMPI PUSH1 0x0 DUP1 REVERT JUMPDEST POP PUSH2 0x7FC PUSH2 0x1960 JUMP JUMPDEST PUSH1 0x40 MLOAD PUSH2 0x809 SWAP2 SWAP1 PUSH2 0x512A JUMP JUMPDEST PUSH1 0x40 MLOAD DUP1 SWAP2 SUB SWAP1 RETURN JUMPDEST CALLVALUE DUP1 ISZERO PUSH2 0x81E JUMPI PUSH1 0x0 DUP1 REVERT JUMPDEST POP PUSH2 0x839 PUSH1 0x4 DUP1 CALLDATASIZE SUB DUP2 ADD SWAP1 PUSH2 0x834 SWAP2 SWAP1 PUSH2 0x4567 JUMP JUMPDEST PUSH2 0x1966 JUMP JUMPDEST STOP JUMPDEST CALLVALUE DUP1 ISZERO PUSH2 0x847 JUMPI PUSH1 0x0 DUP1 REVERT JUMPDEST POP PUSH2 0x862 PUSH1 0x4 DUP1 CALLDATASIZE SUB DUP2 ADD SWAP1 PUSH2 0x85D SWAP2 SWAP1 PUSH2 0x4567 JUMP JUMPDEST PUSH2 0x1993 JUMP JUMPDEST PUSH1 0x40 MLOAD PUSH2 0x86F SWAP2 SWAP1 PUSH2 0x512A JUMP JUMPDEST PUSH1 0x40 MLOAD DUP1 SWAP2 SUB SWAP1 RETURN JUMPDEST CALLVALUE DUP1 ISZERO PUSH2 0x884 JUMPI PUSH1 0x0 DUP1 REVERT JUMPDEST POP PUSH2 0x89F PUSH1 0x4 DUP1 CALLDATASIZE SUB DUP2 ADD SWAP1 PUSH2 0x89A SWAP2 SWAP1 PUSH2 0x45D4 JUMP JUMPDEST PUSH2 0x1A04 JUMP JUMPDEST STOP JUMPDEST PUSH2 0x8A9 PUSH2 0x1A31 JUMP JUMPDEST STOP JUMPDEST CALLVALUE DUP1 ISZERO PUSH2 0x8B7 JUMPI PUSH1 0x0 DUP1 REVERT JUMPDEST POP PUSH2 0x8D2 PUSH1 0x4 DUP1 CALLDATASIZE SUB DUP2 ADD SWAP1 PUSH2 0x8CD SWAP2 SWAP1 PUSH2 0x4567 JUMP JUMPDEST PUSH2 0x1A50 JUMP JUMPDEST PUSH1 0x40 MLOAD PUSH2 0x8DF SWAP2 SWAP1 PUSH2 0x4D29 JUMP JUMPDEST PUSH1 0x40 MLOAD DUP1 SWAP2 SUB SWAP1 RETURN JUMPDEST CALLVALUE DUP1 ISZERO PUSH2 0x8F4 JUMPI PUSH1 0x0 DUP1 REVERT JUMPDEST POP PUSH2 0x8FD PUSH2 0x1B02 JUMP JUMPDEST PUSH1 0x40 MLOAD PUSH2 0x90A SWAP2 SWAP1 PUSH2 0x512A JUMP JUMPDEST PUSH1 0x40 MLOAD DUP1 SWAP2 SUB SWAP1 RETURN JUMPDEST CALLVALUE DUP1 ISZERO PUSH2 0x91F JUMPI PUSH1 0x0 DUP1 REVERT JUMPDEST POP PUSH2 0x93A PUSH1 0x4 DUP1 CALLDATASIZE SUB DUP2 ADD SWAP1 PUSH2 0x935 SWAP2 SWAP1 PUSH2 0x42DD JUMP JUMPDEST PUSH2 0x1B08 JUMP JUMPDEST PUSH1 0x40 MLOAD PUSH2 0x947 SWAP2 SWAP1 PUSH2 0x512A JUMP JUMPDEST PUSH1 0x40 MLOAD DUP1 SWAP2 SUB SWAP1 RETURN JUMPDEST CALLVALUE DUP1 ISZERO PUSH2 0x95C JUMPI PUSH1 0x0 DUP1 REVERT JUMPDEST POP PUSH2 0x965 PUSH2 0x1BC0 JUMP JUMPDEST STOP JUMPDEST PUSH2 0x96F PUSH2 0x1C48 JUMP JUMPDEST STOP JUMPDEST CALLVALUE DUP1 ISZERO PUSH2 0x97D JUMPI PUSH1 0x0 DUP1 REVERT JUMPDEST POP PUSH2 0x986 PUSH2 0x1C91 JUMP JUMPDEST PUSH1 0x40 MLOAD PUSH2 0x993 SWAP2 SWAP1 PUSH2 0x4DCD JUMP JUMPDEST PUSH1 0x40 MLOAD DUP1 SWAP2 SUB SWAP1 RETURN JUMPDEST CALLVALUE DUP1 ISZERO PUSH2 0x9A8 JUMPI PUSH1 0x0 DUP1 REVERT JUMPDEST POP PUSH2 0x9B1 PUSH2 0x1CB5 JUMP JUMPDEST PUSH1 0x40 MLOAD PUSH2 0x9BE SWAP2 SWAP1 PUSH2 0x4D29 JUMP JUMPDEST PUSH1 0x40 MLOAD DUP1 SWAP2 SUB SWAP1 RETURN JUMPDEST CALLVALUE DUP1 ISZERO PUSH2 0x9D3 JUMPI PUSH1 0x0 DUP1 REVERT JUMPDEST POP PUSH2 0x9EE PUSH1 0x4 DUP1 CALLDATASIZE SUB DUP2 ADD SWAP1 PUSH2 0x9E9 SWAP2 SWAP1 PUSH2 0x42DD JUMP JUMPDEST PUSH2 0x1CDF JUMP JUMPDEST PUSH1 0x40 MLOAD PUSH2 0x9FB SWAP2 SWAP1 PUSH2 0x4D90 JUMP JUMPDEST PUSH1 0x40 MLOAD DUP1 SWAP2 SUB SWAP1 RETURN JUMPDEST CALLVALUE DUP1 ISZERO PUSH2 0xA10 JUMPI PUSH1 0x0 DUP1 REVERT JUMPDEST POP PUSH2 0xA2B PUSH1 0x4 DUP1 CALLDATASIZE SUB DUP2 ADD SWAP1 PUSH2 0xA26 SWAP2 SWAP1 PUSH2 0x44CD JUMP JUMPDEST PUSH2 0x1D77 JUMP JUMPDEST PUSH1 0x40 MLOAD PUSH2 0xA38 SWAP2 SWAP1 PUSH2 0x4DB2 JUMP JUMPDEST PUSH1 0x40 MLOAD DUP1 SWAP2 SUB SWAP1 RETURN JUMPDEST CALLVALUE DUP1 ISZERO PUSH2 0xA4D JUMPI PUSH1 0x0 DUP1 REVERT JUMPDEST POP PUSH2 0xA56 PUSH2 0x1DE2 JUMP JUMPDEST PUSH1 0x40 MLOAD PUSH2 0xA63 SWAP2 SWAP1 PUSH2 0x4DE8 JUMP JUMPDEST PUSH1 0x40 MLOAD DUP1 SWAP2 SUB SWAP1 RETURN JUMPDEST CALLVALUE DUP1 ISZERO PUSH2 0xA78 JUMPI PUSH1 0x0 DUP1 REVERT JUMPDEST POP PUSH2 0xA81 PUSH2 0x1E74 JUMP JUMPDEST PUSH1 0x40 MLOAD PUSH2 0xA8E SWAP2 SWAP1 PUSH2 0x4DCD JUMP JUMPDEST PUSH1 0x40 MLOAD DUP1 SWAP2 SUB SWAP1 RETURN JUMPDEST CALLVALUE DUP1 ISZERO PUSH2 0xAA3 JUMPI PUSH1 0x0 DUP1 REVERT JUMPDEST POP PUSH2 0xABE PUSH1 0x4 DUP1 CALLDATASIZE SUB DUP2 ADD SWAP1 PUSH2 0xAB9 SWAP2 SWAP1 PUSH2 0x4420 JUMP JUMPDEST PUSH2 0x1E7B JUMP JUMPDEST STOP JUMPDEST CALLVALUE DUP1 ISZERO PUSH2 0xACC JUMPI PUSH1 0x0 DUP1 REVERT JUMPDEST POP PUSH2 0xAD5 PUSH2 0x1E91 JUMP JUMPDEST PUSH1 0x40 MLOAD PUSH2 0xAE2 SWAP2 SWAP1 PUSH2 0x4D29 JUMP JUMPDEST PUSH1 0x40 MLOAD DUP1 SWAP2 SUB SWAP1 RETURN JUMPDEST CALLVALUE DUP1 ISZERO PUSH2 0xAF7 JUMPI PUSH1 0x0 DUP1 REVERT JUMPDEST POP PUSH2 0xB00 PUSH2 0x1EB8 JUMP JUMPDEST PUSH1 0x40 MLOAD PUSH2 0xB0D SWAP2 SWAP1 PUSH2 0x512A JUMP JUMPDEST PUSH1 0x40 MLOAD DUP1 SWAP2 SUB SWAP1 RETURN JUMPDEST CALLVALUE DUP1 ISZERO PUSH2 0xB22 JUMPI PUSH1 0x0 DUP1 REVERT JUMPDEST POP PUSH2 0xB3D PUSH1 0x4 DUP1 CALLDATASIZE SUB DUP2 ADD SWAP1 PUSH2 0xB38 SWAP2 SWAP1 PUSH2 0x439D JUMP JUMPDEST PUSH2 0x1EBF JUMP JUMPDEST STOP JUMPDEST PUSH2 0xB59 PUSH1 0x4 DUP1 CALLDATASIZE SUB DUP2 ADD SWAP1 PUSH2 0xB54 SWAP2 SWAP1 PUSH2 0x42DD JUMP JUMPDEST PUSH2 0x1F21 JUMP JUMPDEST STOP JUMPDEST CALLVALUE DUP1 ISZERO PUSH2 0xB67 JUMPI PUSH1 0x0 DUP1 REVERT JUMPDEST POP PUSH2 0xB82 PUSH1 0x4 DUP1 CALLDATASIZE SUB DUP2 ADD SWAP1 PUSH2 0xB7D SWAP2 SWAP1 PUSH2 0x4567 JUMP JUMPDEST PUSH2 0x21D4 JUMP JUMPDEST PUSH1 0x40 MLOAD PUSH2 0xB8F SWAP2 SWAP1 PUSH2 0x4DE8 JUMP JUMPDEST PUSH1 0x40 MLOAD DUP1 SWAP2 SUB SWAP1 RETURN JUMPDEST CALLVALUE DUP1 ISZERO PUSH2 0xBA4 JUMPI PUSH1 0x0 DUP1 REVERT JUMPDEST POP PUSH2 0xBBF PUSH1 0x4 DUP1 CALLDATASIZE SUB DUP2 ADD SWAP1 PUSH2 0xBBA SWAP2 SWAP1 PUSH2 0x4567 JUMP JUMPDEST PUSH2 0x2226 JUMP JUMPDEST PUSH1 0x40 MLOAD PUSH2 0xBCC SWAP2 SWAP1 PUSH2 0x4DB2 JUMP JUMPDEST PUSH1 0x40 MLOAD DUP1 SWAP2 SUB SWAP1 RETURN JUMPDEST CALLVALUE DUP1 ISZERO PUSH2 0xBE1 JUMPI PUSH1 0x0 DUP1 REVERT JUMPDEST POP PUSH2 0xBEA PUSH2 0x2247 JUMP JUMPDEST PUSH1 0x40 MLOAD PUSH2 0xBF7 SWAP2 SWAP1 PUSH2 0x4DCD JUMP JUMPDEST PUSH1 0x40 MLOAD DUP1 SWAP2 SUB SWAP1 RETURN JUMPDEST CALLVALUE DUP1 ISZERO PUSH2 0xC0C JUMPI PUSH1 0x0 DUP1 REVERT JUMPDEST POP PUSH2 0xC27 PUSH1 0x4 DUP1 CALLDATASIZE SUB DUP2 ADD SWAP1 PUSH2 0xC22 SWAP2 SWAP1 PUSH2 0x44CD JUMP JUMPDEST PUSH2 0x226B JUMP JUMPDEST STOP JUMPDEST CALLVALUE DUP1 ISZERO PUSH2 0xC35 JUMPI PUSH1 0x0 DUP1 REVERT JUMPDEST POP PUSH2 0xC50 PUSH1 0x4 DUP1 CALLDATASIZE SUB DUP2 ADD SWAP1 PUSH2 0xC4B SWAP2 SWAP1 PUSH2 0x4594 JUMP JUMPDEST PUSH2 0x228C JUMP JUMPDEST PUSH1 0x40 MLOAD PUSH2 0xC5D SWAP2 SWAP1 PUSH2 0x512A JUMP JUMPDEST PUSH1 0x40 MLOAD DUP1 SWAP2 SUB SWAP1 RETURN JUMPDEST CALLVALUE DUP1 ISZERO PUSH2 0xC72 JUMPI PUSH1 0x0 DUP1 REVERT JUMPDEST POP PUSH2 0xC8D PUSH1 0x4 DUP1 CALLDATASIZE SUB DUP2 ADD SWAP1 PUSH2 0xC88 SWAP2 SWAP1 PUSH2 0x42DD JUMP JUMPDEST PUSH2 0x22BE JUMP JUMPDEST STOP JUMPDEST CALLVALUE DUP1 ISZERO PUSH2 0xC9B JUMPI PUSH1 0x0 DUP1 REVERT JUMPDEST POP PUSH2 0xCB6 PUSH1 0x4 DUP1 CALLDATASIZE SUB DUP2 ADD SWAP1 PUSH2 0xCB1 SWAP2 SWAP1 PUSH2 0x4567 JUMP JUMPDEST PUSH2 0x23C0 JUMP JUMPDEST PUSH1 0x40 MLOAD PUSH2 0xCC3 SWAP2 SWAP1 PUSH2 0x512A JUMP JUMPDEST PUSH1 0x40 MLOAD DUP1 SWAP2 SUB SWAP1 RETURN JUMPDEST CALLVALUE DUP1 ISZERO PUSH2 0xCD8 JUMPI PUSH1 0x0 DUP1 REVERT JUMPDEST POP PUSH2 0xCF3 PUSH1 0x4 DUP1 CALLDATASIZE SUB DUP2 ADD SWAP1 PUSH2 0xCEE SWAP2 SWAP1 PUSH2 0x430A JUMP JUMPDEST PUSH2 0x23E5 JUMP JUMPDEST PUSH1 0x40 MLOAD PUSH2 0xD00 SWAP2 SWAP1 PUSH2 0x4DB2 JUMP JUMPDEST PUSH1 0x40 MLOAD DUP1 SWAP2 SUB SWAP1 RETURN JUMPDEST CALLVALUE DUP1 ISZERO PUSH2 0xD15 JUMPI PUSH1 0x0 DUP1 REVERT JUMPDEST POP PUSH2 0xD1E PUSH2 0x2479 JUMP JUMPDEST PUSH1 0x40 MLOAD PUSH2 0xD2B SWAP2 SWAP1 PUSH2 0x512A JUMP JUMPDEST PUSH1 0x40 MLOAD DUP1 SWAP2 SUB SWAP1 RETURN JUMPDEST CALLVALUE DUP1 ISZERO PUSH2 0xD40 JUMPI PUSH1 0x0 DUP1 REVERT JUMPDEST POP PUSH2 0xD49 PUSH2 0x24B2 JUMP JUMPDEST PUSH1 0x40 MLOAD PUSH2 0xD56 SWAP2 SWAP1 PUSH2 0x512A JUMP JUMPDEST PUSH1 0x40 MLOAD DUP1 SWAP2 SUB SWAP1 RETURN JUMPDEST CALLVALUE DUP1 ISZERO PUSH2 0xD6B JUMPI PUSH1 0x0 DUP1 REVERT JUMPDEST POP PUSH2 0xD86 PUSH1 0x4 DUP1 CALLDATASIZE SUB DUP2 ADD SWAP1 PUSH2 0xD81 SWAP2 SWAP1 PUSH2 0x42DD JUMP JUMPDEST PUSH2 0x24B9 JUMP JUMPDEST STOP JUMPDEST CALLVALUE DUP1 ISZERO PUSH2 0xD94 JUMPI PUSH1 0x0 DUP1 REVERT JUMPDEST POP PUSH2 0xDAF PUSH1 0x4 DUP1 CALLDATASIZE SUB DUP2 ADD SWAP1 PUSH2 0xDAA SWAP2 SWAP1 PUSH2 0x42DD JUMP JUMPDEST PUSH2 0x25B1 JUMP JUMPDEST PUSH1 0x40 MLOAD PUSH2 0xDBC SWAP2 SWAP1 PUSH2 0x512A JUMP JUMPDEST PUSH1 0x40 MLOAD DUP1 SWAP2 SUB SWAP1 RETURN JUMPDEST CALLVALUE DUP1 ISZERO PUSH2 0xDD1 JUMPI PUSH1 0x0 DUP1 REVERT JUMPDEST POP PUSH2 0xDEC PUSH1 0x4 DUP1 CALLDATASIZE SUB DUP2 ADD SWAP1 PUSH2 0xDE7 SWAP2 SWAP1 PUSH2 0x42DD JUMP JUMPDEST PUSH2 0x25D2 JUMP JUMPDEST PUSH1 0x40 MLOAD PUSH2 0xDF9 SWAP2 SWAP1 PUSH2 0x4DB2 JUMP JUMPDEST PUSH1 0x40 MLOAD DUP1 SWAP2 SUB SWAP1 RETURN JUMPDEST PUSH1 0x0 PUSH2 0xE0D DUP3 PUSH2 0x25F3 JUMP JUMPDEST SWAP1 POP SWAP2 SWAP1 POP JUMP JUMPDEST PUSH2 0x40F DUP1 SLOAD PUSH2 0xE22 SWAP1 PUSH2 0x54AA JUMP JUMPDEST DUP1 PUSH1 0x1F ADD PUSH1 0x20 DUP1 SWAP2 DIV MUL PUSH1 0x20 ADD PUSH1 0x40 MLOAD SWAP1 DUP2 ADD PUSH1 0x40 MSTORE DUP1 SWAP3 SWAP2 SWAP1 DUP2 DUP2 MSTORE PUSH1 0x20 ADD DUP3 DUP1 SLOAD PUSH2 0xE4E SWAP1 PUSH2 0x54AA JUMP JUMPDEST DUP1 ISZERO PUSH2 0xE9B JUMPI DUP1 PUSH1 0x1F LT PUSH2 0xE70 JUMPI PUSH2 0x100 DUP1 DUP4 SLOAD DIV MUL DUP4 MSTORE SWAP2 PUSH1 0x20 ADD SWAP2 PUSH2 0xE9B JUMP JUMPDEST DUP3 ADD SWAP2 SWAP1 PUSH1 0x0 MSTORE PUSH1 0x20 PUSH1 0x0 KECCAK256 SWAP1 JUMPDEST DUP2 SLOAD DUP2 MSTORE SWAP1 PUSH1 0x1 ADD SWAP1 PUSH1 0x20 ADD DUP1 DUP4 GT PUSH2 0xE7E JUMPI DUP3 SWAP1 SUB PUSH1 0x1F AND DUP3 ADD SWAP2 JUMPDEST POP POP POP POP POP DUP2 JUMP JUMPDEST PUSH1 0x60 PUSH1 0x0 DUP1 SLOAD PUSH2 0xEB2 SWAP1 PUSH2 0x54AA JUMP JUMPDEST DUP1 PUSH1 0x1F ADD PUSH1 0x20 DUP1 SWAP2 DIV MUL PUSH1 0x20 ADD PUSH1 0x40 MLOAD SWAP1 DUP2 ADD PUSH1 0x40 MSTORE DUP1 SWAP3 SWAP2 SWAP1 DUP2 DUP2 MSTORE PUSH1 0x20 ADD DUP3 DUP1 SLOAD PUSH2 0xEDE SWAP1 PUSH2 0x54AA JUMP JUMPDEST DUP1 ISZERO PUSH2 0xF2B JUMPI DUP1 PUSH1 0x1F LT PUSH2 0xF00 JUMPI PUSH2 0x100 DUP1 DUP4 SLOAD DIV MUL DUP4 MSTORE SWAP2 PUSH1 0x20 ADD SWAP2 PUSH2 0xF2B JUMP JUMPDEST DUP3 ADD SWAP2 SWAP1 PUSH1 0x0 MSTORE PUSH1 0x20 PUSH1 0x0 KECCAK256 SWAP1 JUMPDEST DUP2 SLOAD DUP2 MSTORE SWAP1 PUSH1 0x1 ADD SWAP1 PUSH1 0x20 ADD DUP1 DUP4 GT PUSH2 0xF0E JUMPI DUP3 SWAP1 SUB PUSH1 0x1F AND DUP3 ADD SWAP2 JUMPDEST POP POP POP POP POP SWAP1 POP SWAP1 JUMP JUMPDEST PUSH1 0x0 PUSH2 0xF40 DUP3 PUSH2 0x266D JUMP JUMPDEST PUSH2 0xF7F JUMPI PUSH1 0x40 MLOAD PUSH32 0x8C379A000000000000000000000000000000000000000000000000000000000 DUP2 MSTORE PUSH1 0x4 ADD PUSH2 0xF76 SWAP1 PUSH2 0x502A JUMP JUMPDEST PUSH1 0x40 MLOAD DUP1 SWAP2 SUB SWAP1 REVERT JUMPDEST PUSH1 0x4 PUSH1 0x0 DUP4 DUP2 MSTORE PUSH1 0x20 ADD SWAP1 DUP2 MSTORE PUSH1 0x20 ADD PUSH1 0x0 KECCAK256 PUSH1 0x0 SWAP1 SLOAD SWAP1 PUSH2 0x100 EXP SWAP1 DIV PUSH20 0xFFFFFFFFFFFFFFFFFFFFFFFFFFFFFFFFFFFFFFFF AND SWAP1 POP SWAP2 SWAP1 POP JUMP JUMPDEST PUSH1 0x0 PUSH2 0xFC5 DUP3 PUSH2 0x1A50 JUMP JUMPDEST SWAP1 POP DUP1 PUSH20 0xFFFFFFFFFFFFFFFFFFFFFFFFFFFFFFFFFFFFFFFF AND DUP4 PUSH20 0xFFFFFFFFFFFFFFFFFFFFFFFFFFFFFFFFFFFFFFFF AND EQ ISZERO PUSH2 0x1036 JUMPI PUSH1 0x40 MLOAD PUSH32 0x8C379A000000000000000000000000000000000000000000000000000000000 DUP2 MSTORE PUSH1 0x4 ADD PUSH2 0x102D SWAP1 PUSH2 0x506A JUMP JUMPDEST PUSH1 0x40 MLOAD DUP1 SWAP2 SUB SWAP1 REVERT JUMPDEST DUP1 PUSH20 0xFFFFFFFFFFFFFFFFFFFFFFFFFFFFFFFFFFFFFFFF AND PUSH2 0x1055 PUSH2 0x26D9 JUMP JUMPDEST PUSH20 0xFFFFFFFFFFFFFFFFFFFFFFFFFFFFFFFFFFFFFFFF AND EQ DUP1 PUSH2 0x1084 JUMPI POP PUSH2 0x1083 DUP2 PUSH2 0x107E PUSH2 0x26D9 JUMP JUMPDEST PUSH2 0x23E5 JUMP JUMPDEST JUMPDEST PUSH2 0x10C3 JUMPI PUSH1 0x40 MLOAD PUSH32 0x8C379A000000000000000000000000000000000000000000000000000000000 DUP2 MSTORE PUSH1 0x4 ADD PUSH2 0x10BA SWAP1 PUSH2 0x4F8A JUMP JUMPDEST PUSH1 0x40 MLOAD DUP1 SWAP2 SUB SWAP1 REVERT JUMPDEST PUSH2 0x10CD DUP4 DUP4 PUSH2 0x26E1 JUMP JUMPDEST POP POP POP JUMP JUMPDEST PUSH2 0x410 PUSH1 0x20 MSTORE DUP1 PUSH1 0x0 MSTORE PUSH1 0x40 PUSH1 0x0 KECCAK256 PUSH1 0x0 SWAP2 POP SLOAD SWAP1 PUSH2 0x100 EXP SWAP1 DIV PUSH1 0xFF AND DUP2 JUMP JUMPDEST PUSH1 0x60 PUSH2 0x417 PUSH1 0x0 DUP4 DUP2 MSTORE PUSH1 0x20 ADD SWAP1 DUP2 MSTORE PUSH1 0x20 ADD PUSH1 0x0 KECCAK256 DUP1 SLOAD DUP1 PUSH1 0x20 MUL PUSH1 0x20 ADD PUSH1 0x40 MLOAD SWAP1 DUP2 ADD PUSH1 0x40 MSTORE DUP1 SWAP3 SWAP2 SWAP1 DUP2 DUP2 MSTORE PUSH1 0x20 ADD DUP3 DUP1 SLOAD DUP1 ISZERO PUSH2 0x1153 JUMPI PUSH1 0x20 MUL DUP3 ADD SWAP2 SWAP1 PUSH1 0x0 MSTORE PUSH1 0x20 PUSH1 0x0 KECCAK256 SWAP1 JUMPDEST DUP2 SLOAD DUP2 MSTORE PUSH1 0x20 ADD SWAP1 PUSH1 0x1 ADD SWAP1 DUP1 DUP4 GT PUSH2 0x113F JUMPI JUMPDEST POP POP POP POP POP SWAP1 POP SWAP2 SWAP1 POP JUMP JUMPDEST PUSH1 0x0 PUSH1 0x8 DUP1 SLOAD SWAP1 POP SWAP1 POP SWAP1 JUMP JUMPDEST PUSH2 0x413 PUSH1 0x20 MSTORE DUP1 PUSH1 0x0 MSTORE PUSH1 0x40 PUSH1 0x0 KECCAK256 PUSH1 0x0 SWAP2 POP SLOAD SWAP1 PUSH2 0x100 EXP SWAP1 DIV PUSH20 0xFFFFFFFFFFFFFFFFFFFFFFFFFFFFFFFFFFFFFFFF AND DUP2 JUMP JUMPDEST PUSH2 0x11A8 PUSH2 0x26D9 JUMP JUMPDEST PUSH20 0xFFFFFFFFFFFFFFFFFFFFFFFFFFFFFFFFFFFFFFFF AND PUSH2 0x11C6 PUSH2 0x1CB5 JUMP JUMPDEST PUSH20 0xFFFFFFFFFFFFFFFFFFFFFFFFFFFFFFFFFFFFFFFF AND EQ PUSH2 0x121C JUMPI PUSH1 0x40 MLOAD PUSH32 0x8C379A000000000000000000000000000000000000000000000000000000000 DUP2 MSTORE PUSH1 0x4 ADD PUSH2 0x1213 SWAP1 PUSH2 0x504A JUMP JUMPDEST PUSH1 0x40 MLOAD DUP1 SWAP2 SUB SWAP1 REVERT JUMPDEST PUSH1 0x0 PUSH2 0x415 PUSH1 0x0 DUP4 PUSH20 0xFFFFFFFFFFFFFFFFFFFFFFFFFFFFFFFFFFFFFFFF AND PUSH20 0xFFFFFFFFFFFFFFFFFFFFFFFFFFFFFFFFFFFFFFFF AND DUP2 MSTORE PUSH1 0x20 ADD SWAP1 DUP2 MSTORE PUSH1 0x20 ADD PUSH1 0x0 KECCAK256 PUSH1 0x0 PUSH2 0x100 EXP DUP2 SLOAD DUP2 PUSH1 0xFF MUL NOT AND SWAP1 DUP4 ISZERO ISZERO MUL OR SWAP1 SSTORE POP PUSH2 0x129F PUSH32 0xB696DF569C2DFECB5A24EDFD39D7F55B0F442BE14350CBC68DBE8EB35489D3A6 DUP3 PUSH2 0x279A JUMP JUMPDEST POP JUMP JUMPDEST PUSH2 0x12B3 PUSH2 0x12AD PUSH2 0x26D9 JUMP JUMPDEST DUP3 PUSH2 0x287C JUMP JUMPDEST PUSH2 0x12F2 JUMPI PUSH1 0x40 MLOAD PUSH32 0x8C379A000000000000000000000000000000000000000000000000000000000 DUP2 MSTORE PUSH1 0x4 ADD PUSH2 0x12E9 SWAP1 PUSH2 0x508A JUMP JUMPDEST PUSH1 0x40 MLOAD DUP1 SWAP2 SUB SWAP1 REVERT JUMPDEST PUSH2 0x12FD DUP4 DUP4 DUP4 PUSH2 0x295A JUMP JUMPDEST POP POP POP JUMP JUMPDEST PUSH1 0x0 PUSH1 0xB PUSH1 0x0 DUP4 DUP2 MSTORE PUSH1 0x20 ADD SWAP1 DUP2 MSTORE PUSH1 0x20 ADD PUSH1 0x0 KECCAK256 PUSH1 0x1 ADD SLOAD SWAP1 POP SWAP2 SWAP1 POP JUMP JUMPDEST PUSH2 0x414 PUSH1 0x20 MSTORE DUP2 PUSH1 0x0 MSTORE PUSH1 0x40 PUSH1 0x0 KECCAK256 DUP2 DUP2 SLOAD DUP2 LT PUSH2 0x133F JUMPI PUSH1 0x0 DUP1 REVERT JUMPDEST SWAP1 PUSH1 0x0 MSTORE PUSH1 0x20 PUSH1 0x0 KECCAK256 ADD PUSH1 0x0 SWAP2 POP SWAP2 POP POP SLOAD DUP2 JUMP JUMPDEST PUSH2 0x135D DUP3 PUSH2 0x1302 JUMP JUMPDEST PUSH2 0x1366 DUP2 PUSH2 0x2BC1 JUMP JUMPDEST PUSH2 0x1370 DUP4 DUP4 PUSH2 0x2BD5 JUMP JUMPDEST POP POP POP JUMP JUMPDEST PUSH1 0x0 PUSH2 0x1380 DUP4 PUSH2 0x1B08 JUMP JUMPDEST DUP3 LT PUSH2 0x13C1 JUMPI PUSH1 0x40 MLOAD PUSH32 0x8C379A000000000000000000000000000000000000000000000000000000000 DUP2 MSTORE PUSH1 0x4 ADD PUSH2 0x13B8 SWAP1 PUSH2 0x4E2A JUMP JUMPDEST PUSH1 0x40 MLOAD DUP1 SWAP2 SUB SWAP1 REVERT JUMPDEST PUSH1 0x6 PUSH1 0x0 DUP5 PUSH20 0xFFFFFFFFFFFFFFFFFFFFFFFFFFFFFFFFFFFFFFFF AND PUSH20 0xFFFFFFFFFFFFFFFFFFFFFFFFFFFFFFFFFFFFFFFF AND DUP2 MSTORE PUSH1 0x20 ADD SWAP1 DUP2 MSTORE PUSH1 0x20 ADD PUSH1 0x0 KECCAK256 PUSH1 0x0 DUP4 DUP2 MSTORE PUSH1 0x20 ADD SWAP1 DUP2 MSTORE PUSH1 0x20 ADD PUSH1 0x0 KECCAK256 SLOAD SWAP1 POP SWAP3 SWAP2 POP POP JUMP JUMPDEST PUSH1 0x0 DUP1 PUSH1 0x0 DUP1 PUSH2 0x40A SLOAD PUSH2 0x40B SLOAD PUSH2 0x40C PUSH1 0x0 SWAP1 SLOAD SWAP1 PUSH2 0x100 EXP SWAP1 DIV PUSH8 0xFFFFFFFFFFFFFFFF AND PUSH2 0x40D SLOAD DUP2 PUSH8 0xFFFFFFFFFFFFFFFF AND SWAP2 POP SWAP4 POP SWAP4 POP SWAP4 POP SWAP4 POP SWAP1 SWAP2 SWAP3 SWAP4 JUMP JUMPDEST PUSH2 0x40C PUSH1 0x0 SWAP1 SLOAD SWAP1 PUSH2 0x100 EXP SWAP1 DIV PUSH8 0xFFFFFFFFFFFFFFFF AND DUP2 JUMP JUMPDEST PUSH2 0x1482 PUSH2 0x26D9 JUMP JUMPDEST PUSH20 0xFFFFFFFFFFFFFFFFFFFFFFFFFFFFFFFFFFFFFFFF AND DUP2 PUSH20 0xFFFFFFFFFFFFFFFFFFFFFFFFFFFFFFFFFFFFFFFF AND EQ PUSH2 0x14EF JUMPI PUSH1 0x40 MLOAD PUSH32 0x8C379A000000000000000000000000000000000000000000000000000000000 DUP2 MSTORE PUSH1 0x4 ADD PUSH2 0x14E6 SWAP1 PUSH2 0x510A JUMP JUMPDEST PUSH1 0x40 MLOAD DUP1 SWAP2 SUB SWAP1 REVERT JUMPDEST PUSH2 0x14F9 DUP3 DUP3 PUSH2 0x279A JUMP JUMPDEST POP POP JUMP JUMPDEST PUSH2 0x412 PUSH1 0x20 MSTORE DUP1 PUSH1 0x0 MSTORE PUSH1 0x40 PUSH1 0x0 KECCAK256 PUSH1 0x0 SWAP2 POP SWAP1 POP DUP1 PUSH1 0x0 ADD SLOAD SWAP1 POP DUP2 JUMP JUMPDEST PUSH1 0x0 PUSH2 0x412 PUSH1 0x0 DUP4 DUP2 MSTORE PUSH1 0x20 ADD SWAP1 DUP2 MSTORE PUSH1 0x20 ADD PUSH1 0x0 KECCAK256 PUSH1 0x0 ADD SLOAD SWAP1 POP SWAP2 SWAP1 POP JUMP JUMPDEST PUSH32 0x9F2DF0FED2C77648DE5860A4CC508CD0818C85B8B8A1AB4CEEEF8D981C8956A6 PUSH2 0x1567 DUP2 PUSH2 0x2BC1 JUMP JUMPDEST PUSH2 0x40A SLOAD PUSH2 0x3E8 GT PUSH2 0x15AE JUMPI PUSH1 0x40 MLOAD PUSH32 0x8C379A000000000000000000000000000000000000000000000000000000000 DUP2 MSTORE PUSH1 0x4 ADD PUSH2 0x15A5 SWAP1 PUSH2 0x500A JUMP JUMPDEST PUSH1 0x40 MLOAD DUP1 SWAP2 SUB SWAP1 REVERT JUMPDEST CALLVALUE PUSH2 0x40C PUSH1 0x0 SWAP1 SLOAD SWAP1 PUSH2 0x100 EXP SWAP1 DIV PUSH8 0xFFFFFFFFFFFFFFFF AND PUSH8 0xFFFFFFFFFFFFFFFF AND GT ISZERO PUSH2 0x1612 JUMPI PUSH1 0x40 MLOAD PUSH32 0x8C379A000000000000000000000000000000000000000000000000000000000 DUP2 MSTORE PUSH1 0x4 ADD PUSH2 0x1609 SWAP1 PUSH2 0x4F6A JUMP JUMPDEST PUSH1 0x40 MLOAD DUP1 SWAP2 SUB SWAP1 REVERT JUMPDEST PUSH1 0x0 PUSH2 0x40A SLOAD SWAP1 POP PUSH2 0x1631 PUSH1 0x1 PUSH2 0x40A SLOAD PUSH2 0x2CB6 SWAP1 SWAP2 SWAP1 PUSH4 0xFFFFFFFF AND JUMP JUMPDEST PUSH2 0x40A DUP2 SWAP1 SSTORE POP PUSH1 0x0 PUSH2 0x1642 PUSH2 0x2CCC JUMP JUMPDEST SWAP1 POP PUSH1 0x40 MLOAD DUP1 PUSH1 0x20 ADD PUSH1 0x40 MSTORE DUP1 DUP3 PUSH1 0x0 ADD MLOAD DUP2 MSTORE POP PUSH2 0x412 PUSH1 0x0 DUP5 DUP2 MSTORE PUSH1 0x20 ADD SWAP1 DUP2 MSTORE PUSH1 0x20 ADD PUSH1 0x0 KECCAK256 PUSH1 0x0 DUP3 ADD MLOAD DUP2 PUSH1 0x0 ADD SSTORE SWAP1 POP POP DUP4 PUSH2 0x413 PUSH1 0x0 DUP5 DUP2 MSTORE PUSH1 0x20 ADD SWAP1 DUP2 MSTORE PUSH1 0x20 ADD PUSH1 0x0 KECCAK256 PUSH1 0x0 PUSH2 0x100 EXP DUP2 SLOAD DUP2 PUSH20 0xFFFFFFFFFFFFFFFFFFFFFFFFFFFFFFFFFFFFFFFF MUL NOT AND SWAP1 DUP4 PUSH20 0xFFFFFFFFFFFFFFFFFFFFFFFFFFFFFFFFFFFFFFFF AND MUL OR SWAP1 SSTORE POP PUSH2 0x414 PUSH1 0x0 CALLER PUSH20 0xFFFFFFFFFFFFFFFFFFFFFFFFFFFFFFFFFFFFFFFF AND PUSH20 0xFFFFFFFFFFFFFFFFFFFFFFFFFFFFFFFFFFFFFFFF AND DUP2 MSTORE PUSH1 0x20 ADD SWAP1 DUP2 MSTORE PUSH1 0x20 ADD PUSH1 0x0 KECCAK256 DUP2 PUSH1 0x0 ADD MLOAD SWAP1 DUP1 PUSH1 0x1 DUP2 SLOAD ADD DUP1 DUP3 SSTORE DUP1 SWAP2 POP POP PUSH1 0x1 SWAP1 SUB SWAP1 PUSH1 0x0 MSTORE PUSH1 0x20 PUSH1 0x0 KECCAK256 ADD PUSH1 0x0 SWAP1 SWAP2 SWAP1 SWAP2 SWAP1 SWAP2 POP SSTORE PUSH2 0x1743 DUP2 PUSH1 0x0 ADD MLOAD PUSH2 0x1966 JUMP JUMPDEST PUSH2 0x417 PUSH1 0x0 DUP1 DUP2 MSTORE PUSH1 0x20 ADD SWAP1 DUP2 MSTORE PUSH1 0x20 ADD PUSH1 0x0 KECCAK256 DUP2 PUSH1 0x0 ADD MLOAD SWAP1 DUP1 PUSH1 0x1 DUP2 SLOAD ADD DUP1 DUP3 SSTORE DUP1 SWAP2 POP POP PUSH1 0x1 SWAP1 SUB SWAP1 PUSH1 0x0 MSTORE PUSH1 0x20 PUSH1 0x0 KECCAK256 ADD PUSH1 0x0 SWAP1 SWAP2 SWAP1 SWAP2 SWAP1 SWAP2 POP SSTORE PUSH2 0x178C DUP5 DUP4 PUSH2 0x2D6D JUMP JUMPDEST POP POP POP POP JUMP JUMPDEST PUSH2 0x17AD DUP4 DUP4 DUP4 PUSH1 0x40 MLOAD DUP1 PUSH1 0x20 ADD PUSH1 0x40 MSTORE DUP1 PUSH1 0x0 DUP2 MSTORE POP PUSH2 0x1EBF JUMP JUMPDEST POP POP POP JUMP JUMPDEST PUSH1 0x0 PUSH2 0x17BC PUSH2 0x2F47 JUMP JUMPDEST PUSH2 0x17FB JUMPI PUSH1 0x40 MLOAD PUSH32 0x8C379A000000000000000000000000000000000000000000000000000000000 DUP2 MSTORE PUSH1 0x4 ADD PUSH2 0x17F2 SWAP1 PUSH2 0x50EA JUMP JUMPDEST PUSH1 0x40 MLOAD DUP1 SWAP2 SUB SWAP1 REVERT JUMPDEST PUSH2 0x1803 PUSH2 0x2F79 JUMP JUMPDEST PUSH2 0x1842 JUMPI PUSH1 0x40 MLOAD PUSH32 0x8C379A000000000000000000000000000000000000000000000000000000000 DUP2 MSTORE PUSH1 0x4 ADD PUSH2 0x1839 SWAP1 PUSH2 0x4EAA JUMP JUMPDEST PUSH1 0x40 MLOAD DUP1 SWAP2 SUB SWAP1 REVERT JUMPDEST PUSH1 0x0 PUSH2 0x40E PUSH1 0x0 SWAP1 SLOAD SWAP1 PUSH2 0x100 EXP SWAP1 DIV PUSH20 0xFFFFFFFFFFFFFFFFFFFFFFFFFFFFFFFFFFFFFFFF AND PUSH20 0xFFFFFFFFFFFFFFFFFFFFFFFFFFFFFFFFFFFFFFFF AND CALLVALUE PUSH1 0x40 MLOAD PUSH2 0x188B SWAP1 PUSH2 0x4C8C JUMP JUMPDEST PUSH1 0x0 PUSH1 0x40 MLOAD DUP1 DUP4 SUB DUP2 DUP6 DUP8 GAS CALL SWAP3 POP POP POP RETURNDATASIZE DUP1 PUSH1 0x0 DUP2 EQ PUSH2 0x18C8 JUMPI PUSH1 0x40 MLOAD SWAP2 POP PUSH1 0x1F NOT PUSH1 0x3F RETURNDATASIZE ADD AND DUP3 ADD PUSH1 0x40 MSTORE RETURNDATASIZE DUP3 MSTORE RETURNDATASIZE PUSH1 0x0 PUSH1 0x20 DUP5 ADD RETURNDATACOPY PUSH2 0x18CD JUMP JUMPDEST PUSH1 0x60 SWAP2 POP JUMPDEST POP POP SWAP1 POP DUP1 PUSH2 0x1911 JUMPI PUSH1 0x40 MLOAD PUSH32 0x8C379A000000000000000000000000000000000000000000000000000000000 DUP2 MSTORE PUSH1 0x4 ADD PUSH2 0x1908 SWAP1 PUSH2 0x4EEA JUMP JUMPDEST PUSH1 0x40 MLOAD DUP1 SWAP2 SUB SWAP1 REVERT JUMPDEST PUSH2 0x1927 CALLVALUE PUSH2 0x40D SLOAD PUSH2 0x2CB6 SWAP1 SWAP2 SWAP1 PUSH4 0xFFFFFFFF AND JUMP JUMPDEST PUSH2 0x40D DUP2 SWAP1 SSTORE POP PUSH2 0x1958 PUSH32 0x9F2DF0FED2C77648DE5860A4CC508CD0818C85B8B8A1AB4CEEEF8D981C8956A6 CALLER PUSH2 0x2BD5 JUMP JUMPDEST PUSH1 0x1 SWAP2 POP POP SWAP1 JUMP JUMPDEST PUSH2 0x2724 DUP2 JUMP JUMPDEST PUSH2 0x416 DUP2 SWAP1 DUP1 PUSH1 0x1 DUP2 SLOAD ADD DUP1 DUP3 SSTORE DUP1 SWAP2 POP POP PUSH1 0x1 SWAP1 SUB SWAP1 PUSH1 0x0 MSTORE PUSH1 0x20 PUSH1 0x0 KECCAK256 ADD PUSH1 0x0 SWAP1 SWAP2 SWAP1 SWAP2 SWAP1 SWAP2 POP SSTORE POP JUMP JUMPDEST PUSH1 0x0 PUSH2 0x199D PUSH2 0x115F JUMP JUMPDEST DUP3 LT PUSH2 0x19DE JUMPI PUSH1 0x40 MLOAD PUSH32 0x8C379A000000000000000000000000000000000000000000000000000000000 DUP2 MSTORE PUSH1 0x4 ADD PUSH2 0x19D5 SWAP1 PUSH2 0x50CA JUMP JUMPDEST PUSH1 0x40 MLOAD DUP1 SWAP2 SUB SWAP1 REVERT JUMPDEST PUSH1 0x8 DUP3 DUP2 SLOAD DUP2 LT PUSH2 0x19F2 JUMPI PUSH2 0x19F1 PUSH2 0x567B JUMP JUMPDEST JUMPDEST SWAP1 PUSH1 0x0 MSTORE PUSH1 0x20 PUSH1 0x0 KECCAK256 ADD SLOAD SWAP1 POP SWAP2 SWAP1 POP JUMP JUMPDEST DUP1 PUSH2 0x40C PUSH1 0x0 PUSH2 0x100 EXP DUP2 SLOAD DUP2 PUSH8 0xFFFFFFFFFFFFFFFF MUL NOT AND SWAP1 DUP4 PUSH8 0xFFFFFFFFFFFFFFFF AND MUL OR SWAP1 SSTORE POP POP JUMP JUMPDEST PUSH1 0x0 PUSH2 0x1A3B PUSH2 0x17B2 JUMP JUMPDEST SWAP1 POP DUP1 ISZERO PUSH2 0x1A4D JUMPI PUSH2 0x1A4C CALLER PUSH2 0x1F21 JUMP JUMPDEST JUMPDEST POP JUMP JUMPDEST PUSH1 0x0 DUP1 PUSH1 0x2 PUSH1 0x0 DUP5 DUP2 MSTORE PUSH1 0x20 ADD SWAP1 DUP2 MSTORE PUSH1 0x20 ADD PUSH1 0x0 KECCAK256 PUSH1 0x0 SWAP1 SLOAD SWAP1 PUSH2 0x100 EXP SWAP1 DIV PUSH20 0xFFFFFFFFFFFFFFFFFFFFFFFFFFFFFFFFFFFFFFFF AND SWAP1 POP PUSH1 0x0 PUSH20 0xFFFFFFFFFFFFFFFFFFFFFFFFFFFFFFFFFFFFFFFF AND DUP2 PUSH20 0xFFFFFFFFFFFFFFFFFFFFFFFFFFFFFFFFFFFFFFFF AND EQ ISZERO PUSH2 0x1AF9 JUMPI PUSH1 0x40 MLOAD PUSH32 0x8C379A000000000000000000000000000000000000000000000000000000000 DUP2 MSTORE PUSH1 0x4 ADD PUSH2 0x1AF0 SWAP1 PUSH2 0x4FCA JUMP JUMPDEST PUSH1 0x40 MLOAD DUP1 SWAP2 SUB SWAP1 REVERT JUMPDEST DUP1 SWAP2 POP POP SWAP2 SWAP1 POP JUMP JUMPDEST PUSH2 0x3E8 DUP2 JUMP JUMPDEST PUSH1 0x0 DUP1 PUSH20 0xFFFFFFFFFFFFFFFFFFFFFFFFFFFFFFFFFFFFFFFF AND DUP3 PUSH20 0xFFFFFFFFFFFFFFFFFFFFFFFFFFFFFFFFFFFFFFFF AND EQ ISZERO PUSH2 0x1B79 JUMPI PUSH1 0x40 MLOAD PUSH32 0x8C379A000000000000000000000000000000000000000000000000000000000 DUP2 MSTORE PUSH1 0x4 ADD PUSH2 0x1B70 SWAP1 PUSH2 0x4FAA JUMP JUMPDEST PUSH1 0x40 MLOAD DUP1 SWAP2 SUB SWAP1 REVERT JUMPDEST PUSH1 0x3 PUSH1 0x0 DUP4 PUSH20 0xFFFFFFFFFFFFFFFFFFFFFFFFFFFFFFFFFFFFFFFF AND PUSH20 0xFFFFFFFFFFFFFFFFFFFFFFFFFFFFFFFFFFFFFFFF AND DUP2 MSTORE PUSH1 0x20 ADD SWAP1 DUP2 MSTORE PUSH1 0x20 ADD PUSH1 0x0 KECCAK256 SLOAD SWAP1 POP SWAP2 SWAP1 POP JUMP JUMPDEST PUSH2 0x1BC8 PUSH2 0x26D9 JUMP JUMPDEST PUSH20 0xFFFFFFFFFFFFFFFFFFFFFFFFFFFFFFFFFFFFFFFF AND PUSH2 0x1BE6 PUSH2 0x1CB5 JUMP JUMPDEST PUSH20 0xFFFFFFFFFFFFFFFFFFFFFFFFFFFFFFFFFFFFFFFF AND EQ PUSH2 0x1C3C JUMPI PUSH1 0x40 MLOAD PUSH32 0x8C379A000000000000000000000000000000000000000000000000000000000 DUP2 MSTORE PUSH1 0x4 ADD PUSH2 0x1C33 SWAP1 PUSH2 0x504A JUMP JUMPDEST PUSH1 0x40 MLOAD DUP1 SWAP2 SUB SWAP1 REVERT JUMPDEST PUSH2 0x1C46 PUSH1 0x0 PUSH2 0x2FB4 JUMP JUMPDEST JUMP JUMPDEST PUSH1 0x0 PUSH2 0x1C52 PUSH2 0x17B2 JUMP JUMPDEST SWAP1 POP DUP1 ISZERO PUSH2 0x1C8E JUMPI PUSH2 0x1C63 CALLER PUSH2 0x153D JUMP JUMPDEST PUSH2 0x1C8D PUSH32 0x9F2DF0FED2C77648DE5860A4CC508CD0818C85B8B8A1AB4CEEEF8D981C8956A6 CALLER PUSH2 0x147A JUMP JUMPDEST JUMPDEST POP JUMP JUMPDEST PUSH32 0xB696DF569C2DFECB5A24EDFD39D7F55B0F442BE14350CBC68DBE8EB35489D3A6 DUP2 JUMP JUMPDEST PUSH1 0x0 PUSH1 0xA PUSH1 0x0 SWAP1 SLOAD SWAP1 PUSH2 0x100 EXP SWAP1 DIV PUSH20 0xFFFFFFFFFFFFFFFFFFFFFFFFFFFFFFFFFFFFFFFF AND SWAP1 POP SWAP1 JUMP JUMPDEST PUSH1 0x60 PUSH2 0x414 PUSH1 0x0 DUP4 PUSH20 0xFFFFFFFFFFFFFFFFFFFFFFFFFFFFFFFFFFFFFFFF AND PUSH20 0xFFFFFFFFFFFFFFFFFFFFFFFFFFFFFFFFFFFFFFFF AND DUP2 MSTORE PUSH1 0x20 ADD SWAP1 DUP2 MSTORE PUSH1 0x20 ADD PUSH1 0x0 KECCAK256 DUP1 SLOAD DUP1 PUSH1 0x20 MUL PUSH1 0x20 ADD PUSH1 0x40 MLOAD SWAP1 DUP2 ADD PUSH1 0x40 MSTORE DUP1 SWAP3 SWAP2 SWAP1 DUP2 DUP2 MSTORE PUSH1 0x20 ADD DUP3 DUP1 SLOAD DUP1 ISZERO PUSH2 0x1D6B JUMPI PUSH1 0x20 MUL DUP3 ADD SWAP2 SWAP1 PUSH1 0x0 MSTORE PUSH1 0x20 PUSH1 0x0 KECCAK256 SWAP1 JUMPDEST DUP2 SLOAD DUP2 MSTORE PUSH1 0x20 ADD SWAP1 PUSH1 0x1 ADD SWAP1 DUP1 DUP4 GT PUSH2 0x1D57 JUMPI JUMPDEST POP POP POP POP POP SWAP1 POP SWAP2 SWAP1 POP JUMP JUMPDEST PUSH1 0x0 PUSH1 0xB PUSH1 0x0 DUP5 DUP2 MSTORE PUSH1 0x20 ADD SWAP1 DUP2 MSTORE PUSH1 0x20 ADD PUSH1 0x0 KECCAK256 PUSH1 0x0 ADD PUSH1 0x0 DUP4 PUSH20 0xFFFFFFFFFFFFFFFFFFFFFFFFFFFFFFFFFFFFFFFF AND PUSH20 0xFFFFFFFFFFFFFFFFFFFFFFFFFFFFFFFFFFFFFFFF AND DUP2 MSTORE PUSH1 0x20 ADD SWAP1 DUP2 MSTORE PUSH1 0x20 ADD PUSH1 0x0 KECCAK256 PUSH1 0x0 SWAP1 SLOAD SWAP1 PUSH2 0x100 EXP SWAP1 DIV PUSH1 0xFF AND SWAP1 POP SWAP3 SWAP2 POP POP JUMP JUMPDEST PUSH1 0x60 PUSH1 0x1 DUP1 SLOAD PUSH2 0x1DF1 SWAP1 PUSH2 0x54AA JUMP JUMPDEST DUP1 PUSH1 0x1F ADD PUSH1 0x20 DUP1 SWAP2 DIV MUL PUSH1 0x20 ADD PUSH1 0x40 MLOAD SWAP1 DUP2 ADD PUSH1 0x40 MSTORE DUP1 SWAP3 SWAP2 SWAP1 DUP2 DUP2 MSTORE PUSH1 0x20 ADD DUP3 DUP1 SLOAD PUSH2 0x1E1D SWAP1 PUSH2 0x54AA JUMP JUMPDEST DUP1 ISZERO PUSH2 0x1E6A JUMPI DUP1 PUSH1 0x1F LT PUSH2 0x1E3F JUMPI PUSH2 0x100 DUP1 DUP4 SLOAD DIV MUL DUP4 MSTORE SWAP2 PUSH1 0x20 ADD SWAP2 PUSH2 0x1E6A JUMP JUMPDEST DUP3 ADD SWAP2 SWAP1 PUSH1 0x0 MSTORE PUSH1 0x20 PUSH1 0x0 KECCAK256 SWAP1 JUMPDEST DUP2 SLOAD DUP2 MSTORE SWAP1 PUSH1 0x1 ADD SWAP1 PUSH1 0x20 ADD DUP1 DUP4 GT PUSH2 0x1E4D JUMPI DUP3 SWAP1 SUB PUSH1 0x1F AND DUP3 ADD SWAP2 JUMPDEST POP POP POP POP POP SWAP1 POP SWAP1 JUMP JUMPDEST PUSH1 0x0 DUP1 SHL DUP2 JUMP JUMPDEST PUSH2 0x1E8D PUSH2 0x1E86 PUSH2 0x26D9 JUMP JUMPDEST DUP4 DUP4 PUSH2 0x307A JUMP JUMPDEST POP POP JUMP JUMPDEST PUSH2 0x40E PUSH1 0x0 SWAP1 SLOAD SWAP1 PUSH2 0x100 EXP SWAP1 DIV PUSH20 0xFFFFFFFFFFFFFFFFFFFFFFFFFFFFFFFFFFFFFFFF AND DUP2 JUMP JUMPDEST PUSH2 0x40B SLOAD DUP2 JUMP JUMPDEST PUSH2 0x1ED0 PUSH2 0x1ECA PUSH2 0x26D9 JUMP JUMPDEST DUP4 PUSH2 0x287C JUMP JUMPDEST PUSH2 0x1F0F JUMPI PUSH1 0x40 MLOAD PUSH32 0x8C379A000000000000000000000000000000000000000000000000000000000 DUP2 MSTORE PUSH1 0x4 ADD PUSH2 0x1F06 SWAP1 PUSH2 0x508A JUMP JUMPDEST PUSH1 0x40 MLOAD DUP1 SWAP2 SUB SWAP1 REVERT JUMPDEST PUSH2 0x1F1B DUP5 DUP5 DUP5 DUP5 PUSH2 0x31E7 JUMP JUMPDEST POP POP POP POP JUMP JUMPDEST PUSH32 0xB696DF569C2DFECB5A24EDFD39D7F55B0F442BE14350CBC68DBE8EB35489D3A6 PUSH2 0x1F4B DUP2 PUSH2 0x2BC1 JUMP JUMPDEST PUSH1 0x1 ISZERO ISZERO PUSH2 0x415 PUSH1 0x0 CALLER PUSH20 0xFFFFFFFFFFFFFFFFFFFFFFFFFFFFFFFFFFFFFFFF AND PUSH20 0xFFFFFFFFFFFFFFFFFFFFFFFFFFFFFFFFFFFFFFFF AND DUP2 MSTORE PUSH1 0x20 ADD SWAP1 DUP2 MSTORE PUSH1 0x20 ADD PUSH1 0x0 KECCAK256 PUSH1 0x0 SWAP1 SLOAD SWAP1 PUSH2 0x100 EXP SWAP1 DIV PUSH1 0xFF AND ISZERO ISZERO EQ PUSH2 0x1FA9 JUMPI PUSH1 0x0 DUP1 REVERT JUMPDEST PUSH2 0x40B SLOAD PUSH2 0x2724 GT PUSH2 0x1FF0 JUMPI PUSH1 0x40 MLOAD PUSH32 0x8C379A000000000000000000000000000000000000000000000000000000000 DUP2 MSTORE PUSH1 0x4 ADD PUSH2 0x1FE7 SWAP1 PUSH2 0x500A JUMP JUMPDEST PUSH1 0x40 MLOAD DUP1 SWAP2 SUB SWAP1 REVERT JUMPDEST CALLVALUE PUSH2 0x40C PUSH1 0x0 SWAP1 SLOAD SWAP1 PUSH2 0x100 EXP SWAP1 DIV PUSH8 0xFFFFFFFFFFFFFFFF AND PUSH8 0xFFFFFFFFFFFFFFFF AND GT ISZERO PUSH2 0x2054 JUMPI PUSH1 0x40 MLOAD PUSH32 0x8C379A000000000000000000000000000000000000000000000000000000000 DUP2 MSTORE PUSH1 0x4 ADD PUSH2 0x204B SWAP1 PUSH2 0x4F6A JUMP JUMPDEST PUSH1 0x40 MLOAD DUP1 SWAP2 SUB SWAP1 REVERT JUMPDEST PUSH1 0x0 PUSH2 0x40B SLOAD SWAP1 POP PUSH2 0x2073 PUSH1 0x1 PUSH2 0x40B SLOAD PUSH2 0x2CB6 SWAP1 SWAP2 SWAP1 PUSH4 0xFFFFFFFF AND JUMP JUMPDEST PUSH2 0x40B DUP2 SWAP1 SSTORE POP PUSH1 0x0 PUSH2 0x2084 PUSH2 0x3243 JUMP JUMPDEST SWAP1 POP PUSH1 0x40 MLOAD DUP1 PUSH1 0x20 ADD PUSH1 0x40 MSTORE DUP1 DUP3 PUSH1 0x0 ADD MLOAD DUP2 MSTORE POP PUSH2 0x412 PUSH1 0x0 DUP5 DUP2 MSTORE PUSH1 0x20 ADD SWAP1 DUP2 MSTORE PUSH1 0x20 ADD PUSH1 0x0 KECCAK256 PUSH1 0x0 DUP3 ADD MLOAD DUP2 PUSH1 0x0 ADD SSTORE SWAP1 POP POP DUP4 PUSH2 0x413 PUSH1 0x0 DUP5 DUP2 MSTORE PUSH1 0x20 ADD SWAP1 DUP2 MSTORE PUSH1 0x20 ADD PUSH1 0x0 KECCAK256 PUSH1 0x0 PUSH2 0x100 EXP DUP2 SLOAD DUP2 PUSH20 0xFFFFFFFFFFFFFFFFFFFFFFFFFFFFFFFFFFFFFFFF MUL NOT AND SWAP1 DUP4 PUSH20 0xFFFFFFFFFFFFFFFFFFFFFFFFFFFFFFFFFFFFFFFF AND MUL OR SWAP1 SSTORE POP PUSH2 0x414 PUSH1 0x0 CALLER PUSH20 0xFFFFFFFFFFFFFFFFFFFFFFFFFFFFFFFFFFFFFFFF AND PUSH20 0xFFFFFFFFFFFFFFFFFFFFFFFFFFFFFFFFFFFFFFFF AND DUP2 MSTORE PUSH1 0x20 ADD SWAP1 DUP2 MSTORE PUSH1 0x20 ADD PUSH1 0x0 KECCAK256 DUP2 PUSH1 0x0 ADD MLOAD SWAP1 DUP1 PUSH1 0x1 DUP2 SLOAD ADD DUP1 DUP3 SSTORE DUP1 SWAP2 POP POP PUSH1 0x1 SWAP1 SUB SWAP1 PUSH1 0x0 MSTORE PUSH1 0x20 PUSH1 0x0 KECCAK256 ADD PUSH1 0x0 SWAP1 SWAP2 SWAP1 SWAP2 SWAP1 SWAP2 POP SSTORE PUSH2 0x417 PUSH1 0x0 DUP1 DUP2 MSTORE PUSH1 0x20 ADD SWAP1 DUP2 MSTORE PUSH1 0x20 ADD PUSH1 0x0 KECCAK256 DUP2 PUSH1 0x0 ADD MLOAD SWAP1 DUP1 PUSH1 0x1 DUP2 SLOAD ADD DUP1 DUP3 SSTORE DUP1 SWAP2 POP POP PUSH1 0x1 SWAP1 SUB SWAP1 PUSH1 0x0 MSTORE PUSH1 0x20 PUSH1 0x0 KECCAK256 ADD PUSH1 0x0 SWAP1 SWAP2 SWAP1 SWAP2 SWAP1 SWAP2 POP SSTORE PUSH2 0x21C4 DUP2 PUSH1 0x0 ADD MLOAD PUSH2 0x1966 JUMP JUMPDEST PUSH2 0x21CE DUP5 DUP4 PUSH2 0x2D6D JUMP JUMPDEST POP POP POP POP JUMP JUMPDEST PUSH1 0x60 PUSH1 0x0 PUSH2 0x21F8 PUSH2 0x412 PUSH1 0x0 DUP6 DUP2 MSTORE PUSH1 0x20 ADD SWAP1 DUP2 MSTORE PUSH1 0x20 ADD PUSH1 0x0 KECCAK256 PUSH1 0x0 ADD SLOAD PUSH2 0x32E4 JUMP JUMPDEST SWAP1 POP PUSH2 0x40F DUP2 PUSH1 0x40 MLOAD PUSH1 0x20 ADD PUSH2 0x220F SWAP3 SWAP2 SWAP1 PUSH2 0x4C52 JUMP JUMPDEST PUSH1 0x40 MLOAD PUSH1 0x20 DUP2 DUP4 SUB SUB DUP2 MSTORE SWAP1 PUSH1 0x40 MSTORE SWAP2 POP POP SWAP2 SWAP1 POP JUMP JUMPDEST PUSH2 0x411 PUSH1 0x20 MSTORE DUP1 PUSH1 0x0 MSTORE PUSH1 0x40 PUSH1 0x0 KECCAK256 PUSH1 0x0 SWAP2 POP SLOAD SWAP1 PUSH2 0x100 EXP SWAP1 DIV PUSH1 0xFF AND DUP2 JUMP JUMPDEST PUSH32 0x9F2DF0FED2C77648DE5860A4CC508CD0818C85B8B8A1AB4CEEEF8D981C8956A6 DUP2 JUMP JUMPDEST PUSH2 0x2274 DUP3 PUSH2 0x1302 JUMP JUMPDEST PUSH2 0x227D DUP2 PUSH2 0x2BC1 JUMP JUMPDEST PUSH2 0x2287 DUP4 DUP4 PUSH2 0x279A JUMP JUMPDEST POP POP POP JUMP JUMPDEST PUSH2 0x417 PUSH1 0x20 MSTORE DUP2 PUSH1 0x0 MSTORE PUSH1 0x40 PUSH1 0x0 KECCAK256 DUP2 DUP2 SLOAD DUP2 LT PUSH2 0x22A9 JUMPI PUSH1 0x0 DUP1 REVERT JUMPDEST SWAP1 PUSH1 0x0 MSTORE PUSH1 0x20 PUSH1 0x0 KECCAK256 ADD PUSH1 0x0 SWAP2 POP SWAP2 POP POP SLOAD DUP2 JUMP JUMPDEST PUSH2 0x22C6 PUSH2 0x26D9 JUMP JUMPDEST PUSH20 0xFFFFFFFFFFFFFFFFFFFFFFFFFFFFFFFFFFFFFFFF AND PUSH2 0x22E4 PUSH2 0x1CB5 JUMP JUMPDEST PUSH20 0xFFFFFFFFFFFFFFFFFFFFFFFFFFFFFFFFFFFFFFFF AND EQ PUSH2 0x233A JUMPI PUSH1 0x40 MLOAD PUSH32 0x8C379A000000000000000000000000000000000000000000000000000000000 DUP2 MSTORE PUSH1 0x4 ADD PUSH2 0x2331 SWAP1 PUSH2 0x504A JUMP JUMPDEST PUSH1 0x40 MLOAD DUP1 SWAP2 SUB SWAP1 REVERT JUMPDEST PUSH1 0x1 PUSH2 0x415 PUSH1 0x0 DUP4 PUSH20 0xFFFFFFFFFFFFFFFFFFFFFFFFFFFFFFFFFFFFFFFF AND PUSH20 0xFFFFFFFFFFFFFFFFFFFFFFFFFFFFFFFFFFFFFFFF AND DUP2 MSTORE PUSH1 0x20 ADD SWAP1 DUP2 MSTORE PUSH1 0x20 ADD PUSH1 0x0 KECCAK256 PUSH1 0x0 PUSH2 0x100 EXP DUP2 SLOAD DUP2 PUSH1 0xFF MUL NOT AND SWAP1 DUP4 ISZERO ISZERO MUL OR SWAP1 SSTORE POP PUSH2 0x23BD PUSH32 0xB696DF569C2DFECB5A24EDFD39D7F55B0F442BE14350CBC68DBE8EB35489D3A6 DUP3 PUSH2 0x2BD5 JUMP JUMPDEST POP JUMP JUMPDEST PUSH2 0x416 DUP2 DUP2 SLOAD DUP2 LT PUSH2 0x23D1 JUMPI PUSH1 0x0 DUP1 REVERT JUMPDEST SWAP1 PUSH1 0x0 MSTORE PUSH1 0x20 PUSH1 0x0 KECCAK256 ADD PUSH1 0x0 SWAP2 POP SWAP1 POP SLOAD DUP2 JUMP JUMPDEST PUSH1 0x0 PUSH1 0x5 PUSH1 0x0 DUP5 PUSH20 0xFFFFFFFFFFFFFFFFFFFFFFFFFFFFFFFFFFFFFFFF AND PUSH20 0xFFFFFFFFFFFFFFFFFFFFFFFFFFFFFFFFFFFFFFFF AND DUP2 MSTORE PUSH1 0x20 ADD SWAP1 DUP2 MSTORE PUSH1 0x20 ADD PUSH1 0x0 KECCAK256 PUSH1 0x0 DUP4 PUSH20 0xFFFFFFFFFFFFFFFFFFFFFFFFFFFFFFFFFFFFFFFF AND PUSH20 0xFFFFFFFFFFFFFFFFFFFFFFFFFFFFFFFFFFFFFFFF AND DUP2 MSTORE PUSH1 0x20 ADD SWAP1 DUP2 MSTORE PUSH1 0x20 ADD PUSH1 0x0 KECCAK256 PUSH1 0x0 SWAP1 SLOAD SWAP1 PUSH2 0x100 EXP SWAP1 DIV PUSH1 0xFF AND SWAP1 POP SWAP3 SWAP2 POP POP JUMP JUMPDEST PUSH1 0x0 PUSH2 0x416 PUSH1 0x1 PUSH2 0x416 DUP1 SLOAD SWAP1 POP PUSH2 0x2491 SWAP2 SWAP1 PUSH2 0x5378 JUMP JUMPDEST DUP2 SLOAD DUP2 LT PUSH2 0x24A2 JUMPI PUSH2 0x24A1 PUSH2 0x567B JUMP JUMPDEST JUMPDEST SWAP1 PUSH1 0x0 MSTORE PUSH1 0x20 PUSH1 0x0 KECCAK256 ADD SLOAD SWAP1 POP SWAP1 JUMP JUMPDEST PUSH2 0x40A SLOAD DUP2 JUMP JUMPDEST PUSH2 0x24C1 PUSH2 0x26D9 JUMP JUMPDEST PUSH20 0xFFFFFFFFFFFFFFFFFFFFFFFFFFFFFFFFFFFFFFFF AND PUSH2 0x24DF PUSH2 0x1CB5 JUMP JUMPDEST PUSH20 0xFFFFFFFFFFFFFFFFFFFFFFFFFFFFFFFFFFFFFFFF AND EQ PUSH2 0x2535 JUMPI PUSH1 0x40 MLOAD PUSH32 0x8C379A000000000000000000000000000000000000000000000000000000000 DUP2 MSTORE PUSH1 0x4 ADD PUSH2 0x252C SWAP1 PUSH2 0x504A JUMP JUMPDEST PUSH1 0x40 MLOAD DUP1 SWAP2 SUB SWAP1 REVERT JUMPDEST PUSH1 0x0 PUSH20 0xFFFFFFFFFFFFFFFFFFFFFFFFFFFFFFFFFFFFFFFF AND DUP2 PUSH20 0xFFFFFFFFFFFFFFFFFFFFFFFFFFFFFFFFFFFFFFFF AND EQ ISZERO PUSH2 0x25A5 JUMPI PUSH1 0x40 MLOAD PUSH32 0x8C379A000000000000000000000000000000000000000000000000000000000 DUP2 MSTORE PUSH1 0x4 ADD PUSH2 0x259C SWAP1 PUSH2 0x4E6A JUMP JUMPDEST PUSH1 0x40 MLOAD DUP1 SWAP2 SUB SWAP1 REVERT JUMPDEST PUSH2 0x25AE DUP2 PUSH2 0x2FB4 JUMP JUMPDEST POP JUMP JUMPDEST PUSH1 0x0 DUP2 PUSH20 0xFFFFFFFFFFFFFFFFFFFFFFFFFFFFFFFFFFFFFFFF AND BALANCE SWAP1 POP SWAP2 SWAP1 POP JUMP JUMPDEST PUSH2 0x415 PUSH1 0x20 MSTORE DUP1 PUSH1 0x0 MSTORE PUSH1 0x40 PUSH1 0x0 KECCAK256 PUSH1 0x0 SWAP2 POP SLOAD SWAP1 PUSH2 0x100 EXP SWAP1 DIV PUSH1 0xFF AND DUP2 JUMP JUMPDEST PUSH1 0x0 PUSH32 0x7965DB0B00000000000000000000000000000000000000000000000000000000 PUSH28 0xFFFFFFFFFFFFFFFFFFFFFFFFFFFFFFFFFFFFFFFFFFFFFFFFFFFFFFFF NOT AND DUP3 PUSH28 0xFFFFFFFFFFFFFFFFFFFFFFFFFFFFFFFFFFFFFFFFFFFFFFFFFFFFFFFF NOT AND EQ DUP1 PUSH2 0x2666 JUMPI POP PUSH2 0x2665 DUP3 PUSH2 0x3445 JUMP JUMPDEST JUMPDEST SWAP1 POP SWAP2 SWAP1 POP JUMP JUMPDEST PUSH1 0x0 DUP1 PUSH20 0xFFFFFFFFFFFFFFFFFFFFFFFFFFFFFFFFFFFFFFFF AND PUSH1 0x2 PUSH1 0x0 DUP5 DUP2 MSTORE PUSH1 0x20 ADD SWAP1 DUP2 MSTORE PUSH1 0x20 ADD PUSH1 0x0 KECCAK256 PUSH1 0x0 SWAP1 SLOAD SWAP1 PUSH2 0x100 EXP SWAP1 DIV PUSH20 0xFFFFFFFFFFFFFFFFFFFFFFFFFFFFFFFFFFFFFFFF AND PUSH20 0xFFFFFFFFFFFFFFFFFFFFFFFFFFFFFFFFFFFFFFFF AND EQ ISZERO SWAP1 POP SWAP2 SWAP1 POP JUMP JUMPDEST PUSH1 0x0 CALLER SWAP1 POP SWAP1 JUMP JUMPDEST DUP2 PUSH1 0x4 PUSH1 0x0 DUP4 DUP2 MSTORE PUSH1 0x20 ADD SWAP1 DUP2 MSTORE PUSH1 0x20 ADD PUSH1 0x0 KECCAK256 PUSH1 0x0 PUSH2 0x100 EXP DUP2 SLOAD DUP2 PUSH20 0xFFFFFFFFFFFFFFFFFFFFFFFFFFFFFFFFFFFFFFFF MUL NOT AND SWAP1 DUP4 PUSH20 0xFFFFFFFFFFFFFFFFFFFFFFFFFFFFFFFFFFFFFFFF AND MUL OR SWAP1 SSTORE POP DUP1 DUP3 PUSH20 0xFFFFFFFFFFFFFFFFFFFFFFFFFFFFFFFFFFFFFFFF AND PUSH2 0x2754 DUP4 PUSH2 0x1A50 JUMP JUMPDEST PUSH20 0xFFFFFFFFFFFFFFFFFFFFFFFFFFFFFFFFFFFFFFFF AND PUSH32 0x8C5BE1E5EBEC7D5BD14F71427D1E84F3DD0314C0F7B2291E5B200AC8C7C3B925 PUSH1 0x40 MLOAD PUSH1 0x40 MLOAD DUP1 SWAP2 SUB SWAP1 LOG4 POP POP JUMP JUMPDEST PUSH2 0x27A4 DUP3 DUP3 PUSH2 0x1D77 JUMP JUMPDEST ISZERO PUSH2 0x2878 JUMPI PUSH1 0x0 PUSH1 0xB PUSH1 0x0 DUP5 DUP2 MSTORE PUSH1 0x20 ADD SWAP1 DUP2 MSTORE PUSH1 0x20 ADD PUSH1 0x0 KECCAK256 PUSH1 0x0 ADD PUSH1 0x0 DUP4 PUSH20 0xFFFFFFFFFFFFFFFFFFFFFFFFFFFFFFFFFFFFFFFF AND PUSH20 0xFFFFFFFFFFFFFFFFFFFFFFFFFFFFFFFFFFFFFFFF AND DUP2 MSTORE PUSH1 0x20 ADD SWAP1 DUP2 MSTORE PUSH1 0x20 ADD PUSH1 0x0 KECCAK256 PUSH1 0x0 PUSH2 0x100 EXP DUP2 SLOAD DUP2 PUSH1 0xFF MUL NOT AND SWAP1 DUP4 ISZERO ISZERO MUL OR SWAP1 SSTORE POP PUSH2 0x281D PUSH2 0x26D9 JUMP JUMPDEST PUSH20 0xFFFFFFFFFFFFFFFFFFFFFFFFFFFFFFFFFFFFFFFF AND DUP2 PUSH20 0xFFFFFFFFFFFFFFFFFFFFFFFFFFFFFFFFFFFFFFFF AND DUP4 PUSH32 0xF6391F5C32D9C69D2A47EA670B442974B53935D1EDC7FD64EB21E047A839171B PUSH1 0x40 MLOAD PUSH1 0x40 MLOAD DUP1 SWAP2 SUB SWAP1 LOG4 JUMPDEST POP POP JUMP JUMPDEST PUSH1 0x0 PUSH2 0x2887 DUP3 PUSH2 0x266D JUMP JUMPDEST PUSH2 0x28C6 JUMPI PUSH1 0x40 MLOAD PUSH32 0x8C379A000000000000000000000000000000000000000000000000000000000 DUP2 MSTORE PUSH1 0x4 ADD PUSH2 0x28BD SWAP1 PUSH2 0x4F4A JUMP JUMPDEST PUSH1 0x40 MLOAD DUP1 SWAP2 SUB SWAP1 REVERT JUMPDEST PUSH1 0x0 PUSH2 0x28D1 DUP4 PUSH2 0x1A50 JUMP JUMPDEST SWAP1 POP DUP1 PUSH20 0xFFFFFFFFFFFFFFFFFFFFFFFFFFFFFFFFFFFFFFFF AND DUP5 PUSH20 0xFFFFFFFFFFFFFFFFFFFFFFFFFFFFFFFFFFFFFFFF AND EQ DUP1 PUSH2 0x2913 JUMPI POP PUSH2 0x2912 DUP2 DUP6 PUSH2 0x23E5 JUMP JUMPDEST JUMPDEST DUP1 PUSH2 0x2951 JUMPI POP DUP4 PUSH20 0xFFFFFFFFFFFFFFFFFFFFFFFFFFFFFFFFFFFFFFFF AND PUSH2 0x2939 DUP5 PUSH2 0xF35 JUMP JUMPDEST PUSH20 0xFFFFFFFFFFFFFFFFFFFFFFFFFFFFFFFFFFFFFFFF AND EQ JUMPDEST SWAP2 POP POP SWAP3 SWAP2 POP POP JUMP JUMPDEST DUP3 PUSH20 0xFFFFFFFFFFFFFFFFFFFFFFFFFFFFFFFFFFFFFFFF AND PUSH2 0x297A DUP3 PUSH2 0x1A50 JUMP JUMPDEST PUSH20 0xFFFFFFFFFFFFFFFFFFFFFFFFFFFFFFFFFFFFFFFF AND EQ PUSH2 0x29D0 JUMPI PUSH1 0x40 MLOAD PUSH32 0x8C379A000000000000000000000000000000000000000000000000000000000 DUP2 MSTORE PUSH1 0x4 ADD PUSH2 0x29C7 SWAP1 PUSH2 0x4E8A JUMP JUMPDEST PUSH1 0x40 MLOAD DUP1 SWAP2 SUB SWAP1 REVERT JUMPDEST PUSH1 0x0 PUSH20 0xFFFFFFFFFFFFFFFFFFFFFFFFFFFFFFFFFFFFFFFF AND DUP3 PUSH20 0xFFFFFFFFFFFFFFFFFFFFFFFFFFFFFFFFFFFFFFFF AND EQ ISZERO PUSH2 0x2A40 JUMPI PUSH1 0x40 MLOAD PUSH32 0x8C379A000000000000000000000000000000000000000000000000000000000 DUP2 MSTORE PUSH1 0x4 ADD PUSH2 0x2A37 SWAP1 PUSH2 0x4F0A JUMP JUMPDEST PUSH1 0x40 MLOAD DUP1 SWAP2 SUB SWAP1 REVERT JUMPDEST PUSH2 0x2A4B DUP4 DUP4 DUP4 PUSH2 0x34BF JUMP JUMPDEST PUSH2 0x2A56 PUSH1 0x0 DUP3 PUSH2 0x26E1 JUMP JUMPDEST PUSH1 0x1 PUSH1 0x3 PUSH1 0x0 DUP6 PUSH20 0xFFFFFFFFFFFFFFFFFFFFFFFFFFFFFFFFFFFFFFFF AND PUSH20 0xFFFFFFFFFFFFFFFFFFFFFFFFFFFFFFFFFFFFFFFF AND DUP2 MSTORE PUSH1 0x20 ADD SWAP1 DUP2 MSTORE PUSH1 0x20 ADD PUSH1 0x0 KECCAK256 PUSH1 0x0 DUP3 DUP3 SLOAD PUSH2 0x2AA6 SWAP2 SWAP1 PUSH2 0x5378 JUMP JUMPDEST SWAP3 POP POP DUP2 SWAP1 SSTORE POP PUSH1 0x1 PUSH1 0x3 PUSH1 0x0 DUP5 PUSH20 0xFFFFFFFFFFFFFFFFFFFFFFFFFFFFFFFFFFFFFFFF AND PUSH20 0xFFFFFFFFFFFFFFFFFFFFFFFFFFFFFFFFFFFFFFFF AND DUP2 MSTORE PUSH1 0x20 ADD SWAP1 DUP2 MSTORE PUSH1 0x20 ADD PUSH1 0x0 KECCAK256 PUSH1 0x0 DUP3 DUP3 SLOAD PUSH2 0x2AFD SWAP2 SWAP1 PUSH2 0x5297 JUMP JUMPDEST SWAP3 POP POP DUP2 SWAP1 SSTORE POP DUP2 PUSH1 0x2 PUSH1 0x0 DUP4 DUP2 MSTORE PUSH1 0x20 ADD SWAP1 DUP2 MSTORE PUSH1 0x20 ADD PUSH1 0x0 KECCAK256 PUSH1 0x0 PUSH2 0x100 EXP DUP2 SLOAD DUP2 PUSH20 0xFFFFFFFFFFFFFFFFFFFFFFFFFFFFFFFFFFFFFFFF MUL NOT AND SWAP1 DUP4 PUSH20 0xFFFFFFFFFFFFFFFFFFFFFFFFFFFFFFFFFFFFFFFF AND MUL OR SWAP1 SSTORE POP DUP1 DUP3 PUSH20 0xFFFFFFFFFFFFFFFFFFFFFFFFFFFFFFFFFFFFFFFF AND DUP5 PUSH20 0xFFFFFFFFFFFFFFFFFFFFFFFFFFFFFFFFFFFFFFFF AND PUSH32 0xDDF252AD1BE2C89B69C2B068FC378DAA952BA7F163C4A11628F55A4DF523B3EF PUSH1 0x40 MLOAD PUSH1 0x40 MLOAD DUP1 SWAP2 SUB SWAP1 LOG4 PUSH2 0x2BBC DUP4 DUP4 DUP4 PUSH2 0x35D3 JUMP JUMPDEST POP POP POP JUMP JUMPDEST PUSH2 0x2BD2 DUP2 PUSH2 0x2BCD PUSH2 0x26D9 JUMP JUMPDEST PUSH2 0x35D8 JUMP JUMPDEST POP JUMP JUMPDEST PUSH2 0x2BDF DUP3 DUP3 PUSH2 0x1D77 JUMP JUMPDEST PUSH2 0x2CB2 JUMPI PUSH1 0x1 PUSH1 0xB PUSH1 0x0 DUP5 DUP2 MSTORE PUSH1 0x20 ADD SWAP1 DUP2 MSTORE PUSH1 0x20 ADD PUSH1 0x0 KECCAK256 PUSH1 0x0 ADD PUSH1 0x0 DUP4 PUSH20 0xFFFFFFFFFFFFFFFFFFFFFFFFFFFFFFFFFFFFFFFF AND PUSH20 0xFFFFFFFFFFFFFFFFFFFFFFFFFFFFFFFFFFFFFFFF AND DUP2 MSTORE PUSH1 0x20 ADD SWAP1 DUP2 MSTORE PUSH1 0x20 ADD PUSH1 0x0 KECCAK256 PUSH1 0x0 PUSH2 0x100 EXP DUP2 SLOAD DUP2 PUSH1 0xFF MUL NOT AND SWAP1 DUP4 ISZERO ISZERO MUL OR SWAP1 SSTORE POP PUSH2 0x2C57 PUSH2 0x26D9 JUMP JUMPDEST PUSH20 0xFFFFFFFFFFFFFFFFFFFFFFFFFFFFFFFFFFFFFFFF AND DUP2 PUSH20 0xFFFFFFFFFFFFFFFFFFFFFFFFFFFFFFFFFFFFFFFF AND DUP4 PUSH32 0x2F8788117E7EFF1D82E926EC794901D17C78024A50270940304540A733656F0D PUSH1 0x40 MLOAD PUSH1 0x40 MLOAD DUP1 SWAP2 SUB SWAP1 LOG4 JUMPDEST POP POP JUMP JUMPDEST PUSH1 0x0 DUP2 DUP4 PUSH2 0x2CC4 SWAP2 SWAP1 PUSH2 0x5297 JUMP JUMPDEST SWAP1 POP SWAP3 SWAP2 POP POP JUMP JUMPDEST PUSH2 0x2CD4 PUSH2 0x41C7 JUMP JUMPDEST PUSH2 0x2CDC PUSH2 0x41C7 JUMP JUMPDEST PUSH1 0x0 PUSH2 0x408 SLOAD CALLER TIMESTAMP PUSH1 0x1 NUMBER PUSH2 0x2CF1 SWAP2 SWAP1 PUSH2 0x5378 JUMP JUMPDEST BLOCKHASH PUSH1 0x40 MLOAD PUSH1 0x20 ADD PUSH2 0x2D05 SWAP5 SWAP4 SWAP3 SWAP2 SWAP1 PUSH2 0x4CDB JUMP JUMPDEST PUSH1 0x40 MLOAD PUSH1 0x20 DUP2 DUP4 SUB SUB DUP2 MSTORE SWAP1 PUSH1 0x40 MSTORE DUP1 MLOAD SWAP1 PUSH1 0x20 ADD KECCAK256 PUSH1 0x0 SHR SWAP1 POP PUSH1 0x0 PUSH2 0x2D2B DUP3 PUSH2 0x3675 JUMP JUMPDEST SWAP1 POP PUSH1 0x1 PUSH2 0x410 PUSH1 0x0 DUP4 DUP2 MSTORE PUSH1 0x20 ADD SWAP1 DUP2 MSTORE PUSH1 0x20 ADD PUSH1 0x0 KECCAK256 PUSH1 0x0 PUSH2 0x100 EXP DUP2 SLOAD DUP2 PUSH1 0xFF MUL NOT AND SWAP1 DUP4 ISZERO ISZERO MUL OR SWAP1 SSTORE POP DUP1 DUP4 PUSH1 0x0 ADD DUP2 DUP2 MSTORE POP POP DUP3 SWAP4 POP POP POP POP SWAP1 JUMP JUMPDEST PUSH1 0x0 PUSH20 0xFFFFFFFFFFFFFFFFFFFFFFFFFFFFFFFFFFFFFFFF AND DUP3 PUSH20 0xFFFFFFFFFFFFFFFFFFFFFFFFFFFFFFFFFFFFFFFF AND EQ ISZERO PUSH2 0x2DDD JUMPI PUSH1 0x40 MLOAD PUSH32 0x8C379A000000000000000000000000000000000000000000000000000000000 DUP2 MSTORE PUSH1 0x4 ADD PUSH2 0x2DD4 SWAP1 PUSH2 0x4FEA JUMP JUMPDEST PUSH1 0x40 MLOAD DUP1 SWAP2 SUB SWAP1 REVERT JUMPDEST PUSH2 0x2DE6 DUP2 PUSH2 0x266D JUMP JUMPDEST ISZERO PUSH2 0x2E26 JUMPI PUSH1 0x40 MLOAD PUSH32 0x8C379A000000000000000000000000000000000000000000000000000000000 DUP2 MSTORE PUSH1 0x4 ADD PUSH2 0x2E1D SWAP1 PUSH2 0x4ECA JUMP JUMPDEST PUSH1 0x40 MLOAD DUP1 SWAP2 SUB SWAP1 REVERT JUMPDEST PUSH2 0x2E32 PUSH1 0x0 DUP4 DUP4 PUSH2 0x34BF JUMP JUMPDEST PUSH1 0x1 PUSH1 0x3 PUSH1 0x0 DUP5 PUSH20 0xFFFFFFFFFFFFFFFFFFFFFFFFFFFFFFFFFFFFFFFF AND PUSH20 0xFFFFFFFFFFFFFFFFFFFFFFFFFFFFFFFFFFFFFFFF AND DUP2 MSTORE PUSH1 0x20 ADD SWAP1 DUP2 MSTORE PUSH1 0x20 ADD PUSH1 0x0 KECCAK256 PUSH1 0x0 DUP3 DUP3 SLOAD PUSH2 0x2E82 SWAP2 SWAP1 PUSH2 0x5297 JUMP JUMPDEST SWAP3 POP POP DUP2 SWAP1 SSTORE POP DUP2 PUSH1 0x2 PUSH1 0x0 DUP4 DUP2 MSTORE PUSH1 0x20 ADD SWAP1 DUP2 MSTORE PUSH1 0x20 ADD PUSH1 0x0 KECCAK256 PUSH1 0x0 PUSH2 0x100 EXP DUP2 SLOAD DUP2 PUSH20 0xFFFFFFFFFFFFFFFFFFFFFFFFFFFFFFFFFFFFFFFF MUL NOT AND SWAP1 DUP4 PUSH20 0xFFFFFFFFFFFFFFFFFFFFFFFFFFFFFFFFFFFFFFFF AND MUL OR SWAP1 SSTORE POP DUP1 DUP3 PUSH20 0xFFFFFFFFFFFFFFFFFFFFFFFFFFFFFFFFFFFFFFFF AND PUSH1 0x0 PUSH20 0xFFFFFFFFFFFFFFFFFFFFFFFFFFFFFFFFFFFFFFFF AND PUSH32 0xDDF252AD1BE2C89B69C2B068FC378DAA952BA7F163C4A11628F55A4DF523B3EF PUSH1 0x40 MLOAD PUSH1 0x40 MLOAD DUP1 SWAP2 SUB SWAP1 LOG4 PUSH2 0x2F43 PUSH1 0x0 DUP4 DUP4 PUSH2 0x35D3 JUMP JUMPDEST POP POP JUMP JUMPDEST PUSH1 0x0 CALLVALUE CALLER PUSH20 0xFFFFFFFFFFFFFFFFFFFFFFFFFFFFFFFFFFFFFFFF AND BALANCE LT ISZERO PUSH2 0x2F71 JUMPI PUSH1 0x0 SWAP1 POP PUSH2 0x2F76 JUMP JUMPDEST PUSH1 0x1 SWAP1 POP JUMPDEST SWAP1 JUMP JUMPDEST PUSH1 0x0 CALLVALUE PUSH2 0x40C PUSH1 0x0 SWAP1 SLOAD SWAP1 PUSH2 0x100 EXP SWAP1 DIV PUSH8 0xFFFFFFFFFFFFFFFF AND PUSH8 0xFFFFFFFFFFFFFFFF AND EQ PUSH2 0x2FAC JUMPI PUSH1 0x0 SWAP1 POP PUSH2 0x2FB1 JUMP JUMPDEST PUSH1 0x1 SWAP1 POP JUMPDEST SWAP1 JUMP JUMPDEST PUSH1 0x0 PUSH1 0xA PUSH1 0x0 SWAP1 SLOAD SWAP1 PUSH2 0x100 EXP SWAP1 DIV PUSH20 0xFFFFFFFFFFFFFFFFFFFFFFFFFFFFFFFFFFFFFFFF AND SWAP1 POP DUP2 PUSH1 0xA PUSH1 0x0 PUSH2 0x100 EXP DUP2 SLOAD DUP2 PUSH20 0xFFFFFFFFFFFFFFFFFFFFFFFFFFFFFFFFFFFFFFFF MUL NOT AND SWAP1 DUP4 PUSH20 0xFFFFFFFFFFFFFFFFFFFFFFFFFFFFFFFFFFFFFFFF AND MUL OR SWAP1 SSTORE POP DUP2 PUSH20 0xFFFFFFFFFFFFFFFFFFFFFFFFFFFFFFFFFFFFFFFF AND DUP2 PUSH20 0xFFFFFFFFFFFFFFFFFFFFFFFFFFFFFFFFFFFFFFFF AND PUSH32 0x8BE0079C531659141344CD1FD0A4F28419497F9722A3DAAFE3B4186F6B6457E0 PUSH1 0x40 MLOAD PUSH1 0x40 MLOAD DUP1 SWAP2 SUB SWAP1 LOG3 POP POP JUMP JUMPDEST DUP2 PUSH20 0xFFFFFFFFFFFFFFFFFFFFFFFFFFFFFFFFFFFFFFFF AND DUP4 PUSH20 0xFFFFFFFFFFFFFFFFFFFFFFFFFFFFFFFFFFFFFFFF AND EQ ISZERO PUSH2 0x30E9 JUMPI PUSH1 0x40 MLOAD PUSH32 0x8C379A000000000000000000000000000000000000000000000000000000000 DUP2 MSTORE PUSH1 0x4 ADD PUSH2 0x30E0 SWAP1 PUSH2 0x4F2A JUMP JUMPDEST PUSH1 0x40 MLOAD DUP1 SWAP2 SUB SWAP1 REVERT JUMPDEST DUP1 PUSH1 0x5 PUSH1 0x0 DUP6 PUSH20 0xFFFFFFFFFFFFFFFFFFFFFFFFFFFFFFFFFFFFFFFF AND PUSH20 0xFFFFFFFFFFFFFFFFFFFFFFFFFFFFFFFFFFFFFFFF AND DUP2 MSTORE PUSH1 0x20 ADD SWAP1 DUP2 MSTORE PUSH1 0x20 ADD PUSH1 0x0 KECCAK256 PUSH1 0x0 DUP5 PUSH20 0xFFFFFFFFFFFFFFFFFFFFFFFFFFFFFFFFFFFFFFFF AND PUSH20 0xFFFFFFFFFFFFFFFFFFFFFFFFFFFFFFFFFFFFFFFF AND DUP2 MSTORE PUSH1 0x20 ADD SWAP1 DUP2 MSTORE PUSH1 0x20 ADD PUSH1 0x0 KECCAK256 PUSH1 0x0 PUSH2 0x100 EXP DUP2 SLOAD DUP2 PUSH1 0xFF MUL NOT AND SWAP1 DUP4 ISZERO ISZERO MUL OR SWAP1 SSTORE POP DUP2 PUSH20 0xFFFFFFFFFFFFFFFFFFFFFFFFFFFFFFFFFFFFFFFF AND DUP4 PUSH20 0xFFFFFFFFFFFFFFFFFFFFFFFFFFFFFFFFFFFFFFFF AND PUSH32 0x17307EAB39AB6107E8899845AD3D59BD9653F200F220920489CA2B5937696C31 DUP4 PUSH1 0x40 MLOAD PUSH2 0x31DA SWAP2 SWAP1 PUSH2 0x4DB2 JUMP JUMPDEST PUSH1 0x40 MLOAD DUP1 SWAP2 SUB SWAP1 LOG3 POP POP POP JUMP JUMPDEST PUSH2 0x31F2 DUP5 DUP5 DUP5 PUSH2 0x295A JUMP JUMPDEST PUSH2 0x31FE DUP5 DUP5 DUP5 DUP5 PUSH2 0x37F7 JUMP JUMPDEST PUSH2 0x323D JUMPI PUSH1 0x40 MLOAD PUSH32 0x8C379A000000000000000000000000000000000000000000000000000000000 DUP2 MSTORE PUSH1 0x4 ADD PUSH2 0x3234 SWAP1 PUSH2 0x4E4A JUMP JUMPDEST PUSH1 0x40 MLOAD DUP1 SWAP2 SUB SWAP1 REVERT JUMPDEST POP POP POP POP JUMP JUMPDEST PUSH2 0x324B PUSH2 0x41C7 JUMP JUMPDEST PUSH2 0x3253 PUSH2 0x41C7 JUMP JUMPDEST PUSH1 0x0 PUSH2 0x409 SLOAD CALLER TIMESTAMP PUSH1 0x1 NUMBER PUSH2 0x3268 SWAP2 SWAP1 PUSH2 0x5378 JUMP JUMPDEST BLOCKHASH PUSH1 0x40 MLOAD PUSH1 0x20 ADD PUSH2 0x327C SWAP5 SWAP4 SWAP3 SWAP2 SWAP1 PUSH2 0x4CDB JUMP JUMPDEST PUSH1 0x40 MLOAD PUSH1 0x20 DUP2 DUP4 SUB SUB DUP2 MSTORE SWAP1 PUSH1 0x40 MSTORE DUP1 MLOAD SWAP1 PUSH1 0x20 ADD KECCAK256 PUSH1 0x0 SHR SWAP1 POP PUSH1 0x0 PUSH2 0x32A2 DUP3 PUSH2 0x398E JUMP JUMPDEST SWAP1 POP PUSH1 0x1 PUSH2 0x411 PUSH1 0x0 DUP4 DUP2 MSTORE PUSH1 0x20 ADD SWAP1 DUP2 MSTORE PUSH1 0x20 ADD PUSH1 0x0 KECCAK256 PUSH1 0x0 PUSH2 0x100 EXP DUP2 SLOAD DUP2 PUSH1 0xFF MUL NOT AND SWAP1 DUP4 ISZERO ISZERO MUL OR SWAP1 SSTORE POP DUP1 DUP4 PUSH1 0x0 ADD DUP2 DUP2 MSTORE POP POP DUP3 SWAP4 POP POP POP POP SWAP1 JUMP JUMPDEST PUSH1 0x60 PUSH1 0x0 DUP3 EQ ISZERO PUSH2 0x332C JUMPI PUSH1 0x40 MLOAD DUP1 PUSH1 0x40 ADD PUSH1 0x40 MSTORE DUP1 PUSH1 0x1 DUP2 MSTORE PUSH1 0x20 ADD PUSH32 0x3000000000000000000000000000000000000000000000000000000000000000 DUP2 MSTORE POP SWAP1 POP PUSH2 0x3440 JUMP JUMPDEST PUSH1 0x0 DUP3 SWAP1 POP PUSH1 0x0 JUMPDEST PUSH1 0x0 DUP3 EQ PUSH2 0x335E JUMPI DUP1 DUP1 PUSH2 0x3347 SWAP1 PUSH2 0x550D JUMP JUMPDEST SWAP2 POP POP PUSH1 0xA DUP3 PUSH2 0x3357 SWAP2 SWAP1 PUSH2 0x52ED JUMP JUMPDEST SWAP2 POP PUSH2 0x3334 JUMP JUMPDEST PUSH1 0x0 DUP2 PUSH8 0xFFFFFFFFFFFFFFFF DUP2 GT ISZERO PUSH2 0x337A JUMPI PUSH2 0x3379 PUSH2 0x56AA JUMP JUMPDEST JUMPDEST PUSH1 0x40 MLOAD SWAP1 DUP1 DUP3 MSTORE DUP1 PUSH1 0x1F ADD PUSH1 0x1F NOT AND PUSH1 0x20 ADD DUP3 ADD PUSH1 0x40 MSTORE DUP1 ISZERO PUSH2 0x33AC JUMPI DUP2 PUSH1 0x20 ADD PUSH1 0x1 DUP3 MUL DUP1 CALLDATASIZE DUP4 CALLDATACOPY DUP1 DUP3 ADD SWAP2 POP POP SWAP1 POP JUMPDEST POP SWAP1 POP JUMPDEST PUSH1 0x0 DUP6 EQ PUSH2 0x3439 JUMPI PUSH1 0x1 DUP3 PUSH2 0x33C5 SWAP2 SWAP1 PUSH2 0x5378 JUMP JUMPDEST SWAP2 POP PUSH1 0xA DUP6 PUSH2 0x33D4 SWAP2 SWAP1 PUSH2 0x558E JUMP JUMPDEST PUSH1 0x30 PUSH2 0x33E0 SWAP2 SWAP1 PUSH2 0x5297 JUMP JUMPDEST PUSH1 0xF8 SHL DUP2 DUP4 DUP2 MLOAD DUP2 LT PUSH2 0x33F6 JUMPI PUSH2 0x33F5 PUSH2 0x567B JUMP JUMPDEST JUMPDEST PUSH1 0x20 ADD ADD SWAP1 PUSH31 0xFFFFFFFFFFFFFFFFFFFFFFFFFFFFFFFFFFFFFFFFFFFFFFFFFFFFFFFFFFFFFF NOT AND SWAP1 DUP2 PUSH1 0x0 BYTE SWAP1 MSTORE8 POP PUSH1 0xA DUP6 PUSH2 0x3432 SWAP2 SWAP1 PUSH2 0x52ED JUMP JUMPDEST SWAP5 POP PUSH2 0x33B0 JUMP JUMPDEST DUP1 SWAP4 POP POP POP POP JUMPDEST SWAP2 SWAP1 POP JUMP JUMPDEST PUSH1 0x0 PUSH32 0x780E9D6300000000000000000000000000000000000000000000000000000000 PUSH28 0xFFFFFFFFFFFFFFFFFFFFFFFFFFFFFFFFFFFFFFFFFFFFFFFFFFFFFFFF NOT AND DUP3 PUSH28 0xFFFFFFFFFFFFFFFFFFFFFFFFFFFFFFFFFFFFFFFFFFFFFFFFFFFFFFFF NOT AND EQ DUP1 PUSH2 0x34B8 JUMPI POP PUSH2 0x34B7 DUP3 PUSH2 0x3B11 JUMP JUMPDEST JUMPDEST SWAP1 POP SWAP2 SWAP1 POP JUMP JUMPDEST PUSH2 0x34CA DUP4 DUP4 DUP4 PUSH2 0x3BF3 JUMP JUMPDEST PUSH1 0x0 PUSH20 0xFFFFFFFFFFFFFFFFFFFFFFFFFFFFFFFFFFFFFFFF AND DUP4 PUSH20 0xFFFFFFFFFFFFFFFFFFFFFFFFFFFFFFFFFFFFFFFF AND EQ ISZERO PUSH2 0x350D JUMPI PUSH2 0x3508 DUP2 PUSH2 0x3BF8 JUMP JUMPDEST PUSH2 0x354C JUMP JUMPDEST DUP2 PUSH20 0xFFFFFFFFFFFFFFFFFFFFFFFFFFFFFFFFFFFFFFFF AND DUP4 PUSH20 0xFFFFFFFFFFFFFFFFFFFFFFFFFFFFFFFFFFFFFFFF AND EQ PUSH2 0x354B JUMPI PUSH2 0x354A DUP4 DUP3 PUSH2 0x3C41 JUMP JUMPDEST JUMPDEST JUMPDEST PUSH1 0x0 PUSH20 0xFFFFFFFFFFFFFFFFFFFFFFFFFFFFFFFFFFFFFFFF AND DUP3 PUSH20 0xFFFFFFFFFFFFFFFFFFFFFFFFFFFFFFFFFFFFFFFF AND EQ ISZERO PUSH2 0x358F JUMPI PUSH2 0x358A DUP2 PUSH2 0x3DAE JUMP JUMPDEST PUSH2 0x35CE JUMP JUMPDEST DUP3 PUSH20 0xFFFFFFFFFFFFFFFFFFFFFFFFFFFFFFFFFFFFFFFF AND DUP3 PUSH20 0xFFFFFFFFFFFFFFFFFFFFFFFFFFFFFFFFFFFFFFFF AND EQ PUSH2 0x35CD JUMPI PUSH2 0x35CC DUP3 DUP3 PUSH2 0x3E7F JUMP JUMPDEST JUMPDEST JUMPDEST POP POP POP JUMP JUMPDEST POP POP POP JUMP JUMPDEST PUSH2 0x35E2 DUP3 DUP3 PUSH2 0x1D77 JUMP JUMPDEST PUSH2 0x3671 JUMPI PUSH2 0x3607 DUP2 PUSH20 0xFFFFFFFFFFFFFFFFFFFFFFFFFFFFFFFFFFFFFFFF AND PUSH1 0x14 PUSH2 0x3EFE JUMP JUMPDEST PUSH2 0x3615 DUP4 PUSH1 0x0 SHR PUSH1 0x20 PUSH2 0x3EFE JUMP JUMPDEST PUSH1 0x40 MLOAD PUSH1 0x20 ADD PUSH2 0x3626 SWAP3 SWAP2 SWAP1 PUSH2 0x4CA1 JUMP JUMPDEST PUSH1 0x40 MLOAD PUSH1 0x20 DUP2 DUP4 SUB SUB DUP2 MSTORE SWAP1 PUSH1 0x40 MSTORE PUSH1 0x40 MLOAD PUSH32 0x8C379A000000000000000000000000000000000000000000000000000000000 DUP2 MSTORE PUSH1 0x4 ADD PUSH2 0x3668 SWAP2 SWAP1 PUSH2 0x4DE8 JUMP JUMPDEST PUSH1 0x40 MLOAD DUP1 SWAP2 SUB SWAP1 REVERT JUMPDEST POP POP JUMP JUMPDEST PUSH1 0x0 DUP1 PUSH2 0x408 PUSH1 0x0 DUP2 SLOAD DUP1 SWAP3 SWAP2 SWAP1 PUSH2 0x368C SWAP1 PUSH2 0x550D JUMP JUMPDEST SWAP2 SWAP1 POP SSTORE PUSH2 0x3E8 PUSH2 0x369D SWAP2 SWAP1 PUSH2 0x5378 JUMP JUMPDEST SWAP1 POP PUSH1 0x0 DUP2 GT PUSH2 0x36E2 JUMPI PUSH1 0x40 MLOAD PUSH32 0x8C379A000000000000000000000000000000000000000000000000000000000 DUP2 MSTORE PUSH1 0x4 ADD PUSH2 0x36D9 SWAP1 PUSH2 0x50AA JUMP JUMPDEST PUSH1 0x40 MLOAD DUP1 SWAP2 SUB SWAP1 REVERT JUMPDEST PUSH1 0x0 DUP2 DUP5 PUSH2 0x36F0 SWAP2 SWAP1 PUSH2 0x558E JUMP JUMPDEST SWAP1 POP PUSH1 0x0 DUP1 PUSH1 0xC DUP4 PUSH2 0x3E8 DUP2 LT PUSH2 0x370A JUMPI PUSH2 0x3709 PUSH2 0x567B JUMP JUMPDEST JUMPDEST ADD SLOAD EQ ISZERO PUSH2 0x3724 JUMPI PUSH1 0x1 DUP3 PUSH2 0x371F SWAP2 SWAP1 PUSH2 0x5297 JUMP JUMPDEST PUSH2 0x3748 JUMP JUMPDEST PUSH1 0x1 PUSH1 0xC DUP4 PUSH2 0x3E8 DUP2 LT PUSH2 0x373B JUMPI PUSH2 0x373A PUSH2 0x567B JUMP JUMPDEST JUMPDEST ADD SLOAD PUSH2 0x3747 SWAP2 SWAP1 PUSH2 0x5297 JUMP JUMPDEST JUMPDEST SWAP1 POP PUSH1 0x0 PUSH1 0xC PUSH1 0x1 DUP6 PUSH2 0x375B SWAP2 SWAP1 PUSH2 0x5378 JUMP JUMPDEST PUSH2 0x3E8 DUP2 LT PUSH2 0x376D JUMPI PUSH2 0x376C PUSH2 0x567B JUMP JUMPDEST JUMPDEST ADD SLOAD EQ PUSH2 0x379C JUMPI PUSH1 0xC PUSH1 0x1 DUP5 PUSH2 0x3783 SWAP2 SWAP1 PUSH2 0x5378 JUMP JUMPDEST PUSH2 0x3E8 DUP2 LT PUSH2 0x3795 JUMPI PUSH2 0x3794 PUSH2 0x567B JUMP JUMPDEST JUMPDEST ADD SLOAD PUSH2 0x37AA JUMP JUMPDEST PUSH1 0x1 DUP4 PUSH2 0x37A9 SWAP2 SWAP1 PUSH2 0x5378 JUMP JUMPDEST JUMPDEST PUSH1 0xC DUP4 PUSH2 0x3E8 DUP2 LT PUSH2 0x37BF JUMPI PUSH2 0x37BE PUSH2 0x567B JUMP JUMPDEST JUMPDEST ADD DUP2 SWAP1 SSTORE POP PUSH1 0x0 PUSH1 0xC PUSH1 0x1 DUP6 PUSH2 0x37D5 SWAP2 SWAP1 PUSH2 0x5378 JUMP JUMPDEST PUSH2 0x3E8 DUP2 LT PUSH2 0x37E7 JUMPI PUSH2 0x37E6 PUSH2 0x567B JUMP JUMPDEST JUMPDEST ADD DUP2 SWAP1 SSTORE POP DUP1 SWAP4 POP POP POP POP SWAP2 SWAP1 POP JUMP JUMPDEST PUSH1 0x0 PUSH2 0x3818 DUP5 PUSH20 0xFFFFFFFFFFFFFFFFFFFFFFFFFFFFFFFFFFFFFFFF AND PUSH2 0x413A JUMP JUMPDEST ISZERO PUSH2 0x3981 JUMPI DUP4 PUSH20 0xFFFFFFFFFFFFFFFFFFFFFFFFFFFFFFFFFFFFFFFF AND PUSH4 0x150B7A02 PUSH2 0x3841 PUSH2 0x26D9 JUMP JUMPDEST DUP8 DUP7 DUP7 PUSH1 0x40 MLOAD DUP6 PUSH4 0xFFFFFFFF AND PUSH1 0xE0 SHL DUP2 MSTORE PUSH1 0x4 ADD PUSH2 0x3863 SWAP5 SWAP4 SWAP3 SWAP2 SWAP1 PUSH2 0x4D44 JUMP JUMPDEST PUSH1 0x20 PUSH1 0x40 MLOAD DUP1 DUP4 SUB DUP2 PUSH1 0x0 DUP8 DUP1 EXTCODESIZE ISZERO DUP1 ISZERO PUSH2 0x387D JUMPI PUSH1 0x0 DUP1 REVERT JUMPDEST POP GAS CALL SWAP3 POP POP POP DUP1 ISZERO PUSH2 0x38AE JUMPI POP PUSH1 0x40 MLOAD RETURNDATASIZE PUSH1 0x1F NOT PUSH1 0x1F DUP3 ADD AND DUP3 ADD DUP1 PUSH1 0x40 MSTORE POP DUP2 ADD SWAP1 PUSH2 0x38AB SWAP2 SWAP1 PUSH2 0x453A JUMP JUMPDEST PUSH1 0x1 JUMPDEST PUSH2 0x3931 JUMPI RETURNDATASIZE DUP1 PUSH1 0x0 DUP2 EQ PUSH2 0x38DE JUMPI PUSH1 0x40 MLOAD SWAP2 POP PUSH1 0x1F NOT PUSH1 0x3F RETURNDATASIZE ADD AND DUP3 ADD PUSH1 0x40 MSTORE RETURNDATASIZE DUP3 MSTORE RETURNDATASIZE PUSH1 0x0 PUSH1 0x20 DUP5 ADD RETURNDATACOPY PUSH2 0x38E3 JUMP JUMPDEST PUSH1 0x60 SWAP2 POP JUMPDEST POP PUSH1 0x0 DUP2 MLOAD EQ ISZERO PUSH2 0x3929 JUMPI PUSH1 0x40 MLOAD PUSH32 0x8C379A000000000000000000000000000000000000000000000000000000000 DUP2 MSTORE PUSH1 0x4 ADD PUSH2 0x3920 SWAP1 PUSH2 0x4E4A JUMP JUMPDEST PUSH1 0x40 MLOAD DUP1 SWAP2 SUB SWAP1 REVERT JUMPDEST DUP1 MLOAD DUP2 PUSH1 0x20 ADD REVERT JUMPDEST PUSH4 0x150B7A02 PUSH1 0xE0 SHL PUSH28 0xFFFFFFFFFFFFFFFFFFFFFFFFFFFFFFFFFFFFFFFFFFFFFFFFFFFFFFFF NOT AND DUP2 PUSH28 0xFFFFFFFFFFFFFFFFFFFFFFFFFFFFFFFFFFFFFFFFFFFFFFFFFFFFFFFF NOT AND EQ SWAP2 POP POP PUSH2 0x3986 JUMP JUMPDEST PUSH1 0x1 SWAP1 POP JUMPDEST SWAP5 SWAP4 POP POP POP POP JUMP JUMPDEST PUSH1 0x0 DUP1 PUSH2 0x409 PUSH1 0x0 DUP2 SLOAD DUP1 SWAP3 SWAP2 SWAP1 PUSH2 0x39A5 SWAP1 PUSH2 0x550D JUMP JUMPDEST SWAP2 SWAP1 POP SSTORE PUSH1 0x14 PUSH2 0x39B5 SWAP2 SWAP1 PUSH2 0x5378 JUMP JUMPDEST SWAP1 POP PUSH1 0x0 DUP2 GT PUSH2 0x39FA JUMPI PUSH1 0x40 MLOAD PUSH32 0x8C379A000000000000000000000000000000000000000000000000000000000 DUP2 MSTORE PUSH1 0x4 ADD PUSH2 0x39F1 SWAP1 PUSH2 0x50AA JUMP JUMPDEST PUSH1 0x40 MLOAD DUP1 SWAP2 SUB SWAP1 REVERT JUMPDEST PUSH1 0x0 DUP2 DUP5 PUSH2 0x3A08 SWAP2 SWAP1 PUSH2 0x558E JUMP JUMPDEST SWAP1 POP PUSH1 0x0 DUP1 PUSH2 0x3F4 DUP4 PUSH1 0x14 DUP2 LT PUSH2 0x3A22 JUMPI PUSH2 0x3A21 PUSH2 0x567B JUMP JUMPDEST JUMPDEST ADD SLOAD EQ ISZERO PUSH2 0x3A3D JUMPI PUSH2 0x2710 DUP3 PUSH2 0x3A38 SWAP2 SWAP1 PUSH2 0x5297 JUMP JUMPDEST PUSH2 0x3A62 JUMP JUMPDEST PUSH2 0x2710 PUSH2 0x3F4 DUP4 PUSH1 0x14 DUP2 LT PUSH2 0x3A55 JUMPI PUSH2 0x3A54 PUSH2 0x567B JUMP JUMPDEST JUMPDEST ADD SLOAD PUSH2 0x3A61 SWAP2 SWAP1 PUSH2 0x5297 JUMP JUMPDEST JUMPDEST SWAP1 POP PUSH1 0x0 PUSH2 0x3F4 PUSH1 0x1 DUP6 PUSH2 0x3A76 SWAP2 SWAP1 PUSH2 0x5378 JUMP JUMPDEST PUSH1 0x14 DUP2 LT PUSH2 0x3A87 JUMPI PUSH2 0x3A86 PUSH2 0x567B JUMP JUMPDEST JUMPDEST ADD SLOAD EQ PUSH2 0x3AB6 JUMPI PUSH2 0x3F4 PUSH1 0x1 DUP5 PUSH2 0x3A9E SWAP2 SWAP1 PUSH2 0x5378 JUMP JUMPDEST PUSH1 0x14 DUP2 LT PUSH2 0x3AAF JUMPI PUSH2 0x3AAE PUSH2 0x567B JUMP JUMPDEST JUMPDEST ADD SLOAD PUSH2 0x3AC4 JUMP JUMPDEST PUSH1 0x1 DUP4 PUSH2 0x3AC3 SWAP2 SWAP1 PUSH2 0x5378 JUMP JUMPDEST JUMPDEST PUSH2 0x3F4 DUP4 PUSH1 0x14 DUP2 LT PUSH2 0x3AD9 JUMPI PUSH2 0x3AD8 PUSH2 0x567B JUMP JUMPDEST JUMPDEST ADD DUP2 SWAP1 SSTORE POP PUSH1 0x0 PUSH2 0x3F4 PUSH1 0x1 DUP6 PUSH2 0x3AF0 SWAP2 SWAP1 PUSH2 0x5378 JUMP JUMPDEST PUSH1 0x14 DUP2 LT PUSH2 0x3B01 JUMPI PUSH2 0x3B00 PUSH2 0x567B JUMP JUMPDEST JUMPDEST ADD DUP2 SWAP1 SSTORE POP DUP1 SWAP4 POP POP POP POP SWAP2 SWAP1 POP JUMP JUMPDEST PUSH1 0x0 PUSH32 0x80AC58CD00000000000000000000000000000000000000000000000000000000 PUSH28 0xFFFFFFFFFFFFFFFFFFFFFFFFFFFFFFFFFFFFFFFFFFFFFFFFFFFFFFFF NOT AND DUP3 PUSH28 0xFFFFFFFFFFFFFFFFFFFFFFFFFFFFFFFFFFFFFFFFFFFFFFFFFFFFFFFF NOT AND EQ DUP1 PUSH2 0x3BDC JUMPI POP PUSH32 0x5B5E139F00000000000000000000000000000000000000000000000000000000 PUSH28 0xFFFFFFFFFFFFFFFFFFFFFFFFFFFFFFFFFFFFFFFFFFFFFFFFFFFFFFFF NOT AND DUP3 PUSH28 0xFFFFFFFFFFFFFFFFFFFFFFFFFFFFFFFFFFFFFFFFFFFFFFFFFFFFFFFF NOT AND EQ JUMPDEST DUP1 PUSH2 0x3BEC JUMPI POP PUSH2 0x3BEB DUP3 PUSH2 0x415D JUMP JUMPDEST JUMPDEST SWAP1 POP SWAP2 SWAP1 POP JUMP JUMPDEST POP POP POP JUMP JUMPDEST PUSH1 0x8 DUP1 SLOAD SWAP1 POP PUSH1 0x9 PUSH1 0x0 DUP4 DUP2 MSTORE PUSH1 0x20 ADD SWAP1 DUP2 MSTORE PUSH1 0x20 ADD PUSH1 0x0 KECCAK256 DUP2 SWAP1 SSTORE POP PUSH1 0x8 DUP2 SWAP1 DUP1 PUSH1 0x1 DUP2 SLOAD ADD DUP1 DUP3 SSTORE DUP1 SWAP2 POP POP PUSH1 0x1 SWAP1 SUB SWAP1 PUSH1 0x0 MSTORE PUSH1 0x20 PUSH1 0x0 KECCAK256 ADD PUSH1 0x0 SWAP1 SWAP2 SWAP1 SWAP2 SWAP1 SWAP2 POP SSTORE POP JUMP JUMPDEST PUSH1 0x0 PUSH1 0x1 PUSH2 0x3C4E DUP5 PUSH2 0x1B08 JUMP JUMPDEST PUSH2 0x3C58 SWAP2 SWAP1 PUSH2 0x5378 JUMP JUMPDEST SWAP1 POP PUSH1 0x0 PUSH1 0x7 PUSH1 0x0 DUP5 DUP2 MSTORE PUSH1 0x20 ADD SWAP1 DUP2 MSTORE PUSH1 0x20 ADD PUSH1 0x0 KECCAK256 SLOAD SWAP1 POP DUP2 DUP2 EQ PUSH2 0x3D3D JUMPI PUSH1 0x0 PUSH1 0x6 PUSH1 0x0 DUP7 PUSH20 0xFFFFFFFFFFFFFFFFFFFFFFFFFFFFFFFFFFFFFFFF AND PUSH20 0xFFFFFFFFFFFFFFFFFFFFFFFFFFFFFFFFFFFFFFFF AND DUP2 MSTORE PUSH1 0x20 ADD SWAP1 DUP2 MSTORE PUSH1 0x20 ADD PUSH1 0x0 KECCAK256 PUSH1 0x0 DUP5 DUP2 MSTORE PUSH1 0x20 ADD SWAP1 DUP2 MSTORE PUSH1 0x20 ADD PUSH1 0x0 KECCAK256 SLOAD SWAP1 POP DUP1 PUSH1 0x6 PUSH1 0x0 DUP8 PUSH20 0xFFFFFFFFFFFFFFFFFFFFFFFFFFFFFFFFFFFFFFFF AND PUSH20 0xFFFFFFFFFFFFFFFFFFFFFFFFFFFFFFFFFFFFFFFF AND DUP2 MSTORE PUSH1 0x20 ADD SWAP1 DUP2 MSTORE PUSH1 0x20 ADD PUSH1 0x0 KECCAK256 PUSH1 0x0 DUP5 DUP2 MSTORE PUSH1 0x20 ADD SWAP1 DUP2 MSTORE PUSH1 0x20 ADD PUSH1 0x0 KECCAK256 DUP2 SWAP1 SSTORE POP DUP2 PUSH1 0x7 PUSH1 0x0 DUP4 DUP2 MSTORE PUSH1 0x20 ADD SWAP1 DUP2 MSTORE PUSH1 0x20 ADD PUSH1 0x0 KECCAK256 DUP2 SWAP1 SSTORE POP POP JUMPDEST PUSH1 0x7 PUSH1 0x0 DUP5 DUP2 MSTORE PUSH1 0x20 ADD SWAP1 DUP2 MSTORE PUSH1 0x20 ADD PUSH1 0x0 KECCAK256 PUSH1 0x0 SWAP1 SSTORE PUSH1 0x6 PUSH1 0x0 DUP6 PUSH20 0xFFFFFFFFFFFFFFFFFFFFFFFFFFFFFFFFFFFFFFFF AND PUSH20 0xFFFFFFFFFFFFFFFFFFFFFFFFFFFFFFFFFFFFFFFF AND DUP2 MSTORE PUSH1 0x20 ADD SWAP1 DUP2 MSTORE PUSH1 0x20 ADD PUSH1 0x0 KECCAK256 PUSH1 0x0 DUP4 DUP2 MSTORE PUSH1 0x20 ADD SWAP1 DUP2 MSTORE PUSH1 0x20 ADD PUSH1 0x0 KECCAK256 PUSH1 0x0 SWAP1 SSTORE POP POP POP POP JUMP JUMPDEST PUSH1 0x0 PUSH1 0x1 PUSH1 0x8 DUP1 SLOAD SWAP1 POP PUSH2 0x3DC2 SWAP2 SWAP1 PUSH2 0x5378 JUMP JUMPDEST SWAP1 POP PUSH1 0x0 PUSH1 0x9 PUSH1 0x0 DUP5 DUP2 MSTORE PUSH1 0x20 ADD SWAP1 DUP2 MSTORE PUSH1 0x20 ADD PUSH1 0x0 KECCAK256 SLOAD SWAP1 POP PUSH1 0x0 PUSH1 0x8 DUP4 DUP2 SLOAD DUP2 LT PUSH2 0x3DF2 JUMPI PUSH2 0x3DF1 PUSH2 0x567B JUMP JUMPDEST JUMPDEST SWAP1 PUSH1 0x0 MSTORE PUSH1 0x20 PUSH1 0x0 KECCAK256 ADD SLOAD SWAP1 POP DUP1 PUSH1 0x8 DUP4 DUP2 SLOAD DUP2 LT PUSH2 0x3E14 JUMPI PUSH2 0x3E13 PUSH2 0x567B JUMP JUMPDEST JUMPDEST SWAP1 PUSH1 0x0 MSTORE PUSH1 0x20 PUSH1 0x0 KECCAK256 ADD DUP2 SWAP1 SSTORE POP DUP2 PUSH1 0x9 PUSH1 0x0 DUP4 DUP2 MSTORE PUSH1 0x20 ADD SWAP1 DUP2 MSTORE PUSH1 0x20 ADD PUSH1 0x0 KECCAK256 DUP2 SWAP1 SSTORE POP PUSH1 0x9 PUSH1 0x0 DUP6 DUP2 MSTORE PUSH1 0x20 ADD SWAP1 DUP2 MSTORE PUSH1 0x20 ADD PUSH1 0x0 KECCAK256 PUSH1 0x0 SWAP1 SSTORE PUSH1 0x8 DUP1 SLOAD DUP1 PUSH2 0x3E63 JUMPI PUSH2 0x3E62 PUSH2 0x564C JUMP JUMPDEST JUMPDEST PUSH1 0x1 SWAP1 SUB DUP2 DUP2 SWAP1 PUSH1 0x0 MSTORE PUSH1 0x20 PUSH1 0x0 KECCAK256 ADD PUSH1 0x0 SWAP1 SSTORE SWAP1 SSTORE POP POP POP POP JUMP JUMPDEST PUSH1 0x0 PUSH2 0x3E8A DUP4 PUSH2 0x1B08 JUMP JUMPDEST SWAP1 POP DUP2 PUSH1 0x6 PUSH1 0x0 DUP6 PUSH20 0xFFFFFFFFFFFFFFFFFFFFFFFFFFFFFFFFFFFFFFFF AND PUSH20 0xFFFFFFFFFFFFFFFFFFFFFFFFFFFFFFFFFFFFFFFF AND DUP2 MSTORE PUSH1 0x20 ADD SWAP1 DUP2 MSTORE PUSH1 0x20 ADD PUSH1 0x0 KECCAK256 PUSH1 0x0 DUP4 DUP2 MSTORE PUSH1 0x20 ADD SWAP1 DUP2 MSTORE PUSH1 0x20 ADD PUSH1 0x0 KECCAK256 DUP2 SWAP1 SSTORE POP DUP1 PUSH1 0x7 PUSH1 0x0 DUP5 DUP2 MSTORE PUSH1 0x20 ADD SWAP1 DUP2 MSTORE PUSH1 0x20 ADD PUSH1 0x0 KECCAK256 DUP2 SWAP1 SSTORE POP POP POP POP JUMP JUMPDEST PUSH1 0x60 PUSH1 0x0 PUSH1 0x2 DUP4 PUSH1 0x2 PUSH2 0x3F11 SWAP2 SWAP1 PUSH2 0x531E JUMP JUMPDEST PUSH2 0x3F1B SWAP2 SWAP1 PUSH2 0x5297 JUMP JUMPDEST PUSH8 0xFFFFFFFFFFFFFFFF DUP2 GT ISZERO PUSH2 0x3F34 JUMPI PUSH2 0x3F33 PUSH2 0x56AA JUMP JUMPDEST JUMPDEST PUSH1 0x40 MLOAD SWAP1 DUP1 DUP3 MSTORE DUP1 PUSH1 0x1F ADD PUSH1 0x1F NOT AND PUSH1 0x20 ADD DUP3 ADD PUSH1 0x40 MSTORE DUP1 ISZERO PUSH2 0x3F66 JUMPI DUP2 PUSH1 0x20 ADD PUSH1 0x1 DUP3 MUL DUP1 CALLDATASIZE DUP4 CALLDATACOPY DUP1 DUP3 ADD SWAP2 POP POP SWAP1 POP JUMPDEST POP SWAP1 POP PUSH32 0x3000000000000000000000000000000000000000000000000000000000000000 DUP2 PUSH1 0x0 DUP2 MLOAD DUP2 LT PUSH2 0x3F9E JUMPI PUSH2 0x3F9D PUSH2 0x567B JUMP JUMPDEST JUMPDEST PUSH1 0x20 ADD ADD SWAP1 PUSH31 0xFFFFFFFFFFFFFFFFFFFFFFFFFFFFFFFFFFFFFFFFFFFFFFFFFFFFFFFFFFFFFF NOT AND SWAP1 DUP2 PUSH1 0x0 BYTE SWAP1 MSTORE8 POP PUSH32 0x7800000000000000000000000000000000000000000000000000000000000000 DUP2 PUSH1 0x1 DUP2 MLOAD DUP2 LT PUSH2 0x4002 JUMPI PUSH2 0x4001 PUSH2 0x567B JUMP JUMPDEST JUMPDEST PUSH1 0x20 ADD ADD SWAP1 PUSH31 0xFFFFFFFFFFFFFFFFFFFFFFFFFFFFFFFFFFFFFFFFFFFFFFFFFFFFFFFFFFFFFF NOT AND SWAP1 DUP2 PUSH1 0x0 BYTE SWAP1 MSTORE8 POP PUSH1 0x0 PUSH1 0x1 DUP5 PUSH1 0x2 PUSH2 0x4042 SWAP2 SWAP1 PUSH2 0x531E JUMP JUMPDEST PUSH2 0x404C SWAP2 SWAP1 PUSH2 0x5297 JUMP JUMPDEST SWAP1 POP JUMPDEST PUSH1 0x1 DUP2 GT ISZERO PUSH2 0x40EC JUMPI PUSH32 0x3031323334353637383961626364656600000000000000000000000000000000 PUSH1 0xF DUP7 AND PUSH1 0x10 DUP2 LT PUSH2 0x408E JUMPI PUSH2 0x408D PUSH2 0x567B JUMP JUMPDEST JUMPDEST BYTE PUSH1 0xF8 SHL DUP3 DUP3 DUP2 MLOAD DUP2 LT PUSH2 0x40A5 JUMPI PUSH2 0x40A4 PUSH2 0x567B JUMP JUMPDEST JUMPDEST PUSH1 0x20 ADD ADD SWAP1 PUSH31 0xFFFFFFFFFFFFFFFFFFFFFFFFFFFFFFFFFFFFFFFFFFFFFFFFFFFFFFFFFFFFFF NOT AND SWAP1 DUP2 PUSH1 0x0 BYTE SWAP1 MSTORE8 POP PUSH1 0x4 DUP6 SWAP1 SHR SWAP5 POP DUP1 PUSH2 0x40E5 SWAP1 PUSH2 0x5480 JUMP JUMPDEST SWAP1 POP PUSH2 0x404F JUMP JUMPDEST POP PUSH1 0x0 DUP5 EQ PUSH2 0x4130 JUMPI PUSH1 0x40 MLOAD PUSH32 0x8C379A000000000000000000000000000000000000000000000000000000000 DUP2 MSTORE PUSH1 0x4 ADD PUSH2 0x4127 SWAP1 PUSH2 0x4E0A JUMP JUMPDEST PUSH1 0x40 MLOAD DUP1 SWAP2 SUB SWAP1 REVERT JUMPDEST DUP1 SWAP2 POP POP SWAP3 SWAP2 POP POP JUMP JUMPDEST PUSH1 0x0 DUP1 DUP3 PUSH20 0xFFFFFFFFFFFFFFFFFFFFFFFFFFFFFFFFFFFFFFFF AND EXTCODESIZE GT SWAP1 POP SWAP2 SWAP1 POP JUMP JUMPDEST PUSH1 0x0 PUSH32 0x1FFC9A700000000000000000000000000000000000000000000000000000000 PUSH28 0xFFFFFFFFFFFFFFFFFFFFFFFFFFFFFFFFFFFFFFFFFFFFFFFFFFFFFFFF NOT AND DUP3 PUSH28 0xFFFFFFFFFFFFFFFFFFFFFFFFFFFFFFFFFFFFFFFFFFFFFFFFFFFFFFFF NOT AND EQ SWAP1 POP SWAP2 SWAP1 POP JUMP JUMPDEST PUSH1 0x40 MLOAD DUP1 PUSH1 0x20 ADD PUSH1 0x40 MSTORE DUP1 PUSH1 0x0 DUP2 MSTORE POP SWAP1 JUMP JUMPDEST PUSH1 0x0 PUSH2 0x41ED PUSH2 0x41E8 DUP5 PUSH2 0x51CA JUMP JUMPDEST PUSH2 0x51A5 JUMP JUMPDEST SWAP1 POP DUP3 DUP2 MSTORE PUSH1 0x20 DUP2 ADD DUP5 DUP5 DUP5 ADD GT ISZERO PUSH2 0x4209 JUMPI PUSH2 0x4208 PUSH2 0x56DE JUMP JUMPDEST JUMPDEST PUSH2 0x4214 DUP5 DUP3 DUP6 PUSH2 0x543E JUMP JUMPDEST POP SWAP4 SWAP3 POP POP POP JUMP JUMPDEST PUSH1 0x0 DUP2 CALLDATALOAD SWAP1 POP PUSH2 0x422B DUP2 PUSH2 0x5DC7 JUMP JUMPDEST SWAP3 SWAP2 POP POP JUMP JUMPDEST PUSH1 0x0 DUP2 CALLDATALOAD SWAP1 POP PUSH2 0x4240 DUP2 PUSH2 0x5DDE JUMP JUMPDEST SWAP3 SWAP2 POP POP JUMP JUMPDEST PUSH1 0x0 DUP2 CALLDATALOAD SWAP1 POP PUSH2 0x4255 DUP2 PUSH2 0x5DF5 JUMP JUMPDEST SWAP3 SWAP2 POP POP JUMP JUMPDEST PUSH1 0x0 DUP2 CALLDATALOAD SWAP1 POP PUSH2 0x426A DUP2 PUSH2 0x5E0C JUMP JUMPDEST SWAP3 SWAP2 POP POP JUMP JUMPDEST PUSH1 0x0 DUP2 MLOAD SWAP1 POP PUSH2 0x427F DUP2 PUSH2 0x5E0C JUMP JUMPDEST SWAP3 SWAP2 POP POP JUMP JUMPDEST PUSH1 0x0 DUP3 PUSH1 0x1F DUP4 ADD SLT PUSH2 0x429A JUMPI PUSH2 0x4299 PUSH2 0x56D9 JUMP JUMPDEST JUMPDEST DUP2 CALLDATALOAD PUSH2 0x42AA DUP5 DUP3 PUSH1 0x20 DUP7 ADD PUSH2 0x41DA JUMP JUMPDEST SWAP2 POP POP SWAP3 SWAP2 POP POP JUMP JUMPDEST PUSH1 0x0 DUP2 CALLDATALOAD SWAP1 POP PUSH2 0x42C2 DUP2 PUSH2 0x5E23 JUMP JUMPDEST SWAP3 SWAP2 POP POP JUMP JUMPDEST PUSH1 0x0 DUP2 CALLDATALOAD SWAP1 POP PUSH2 0x42D7 DUP2 PUSH2 0x5E3A JUMP JUMPDEST SWAP3 SWAP2 POP POP JUMP JUMPDEST PUSH1 0x0 PUSH1 0x20 DUP3 DUP5 SUB SLT ISZERO PUSH2 0x42F3 JUMPI PUSH2 0x42F2 PUSH2 0x56E8 JUMP JUMPDEST JUMPDEST PUSH1 0x0 PUSH2 0x4301 DUP5 DUP3 DUP6 ADD PUSH2 0x421C JUMP JUMPDEST SWAP2 POP POP SWAP3 SWAP2 POP POP JUMP JUMPDEST PUSH1 0x0 DUP1 PUSH1 0x40 DUP4 DUP6 SUB SLT ISZERO PUSH2 0x4321 JUMPI PUSH2 0x4320 PUSH2 0x56E8 JUMP JUMPDEST JUMPDEST PUSH1 0x0 PUSH2 0x432F DUP6 DUP3 DUP7 ADD PUSH2 0x421C JUMP JUMPDEST SWAP3 POP POP PUSH1 0x20 PUSH2 0x4340 DUP6 DUP3 DUP7 ADD PUSH2 0x421C JUMP JUMPDEST SWAP2 POP POP SWAP3 POP SWAP3 SWAP1 POP JUMP JUMPDEST PUSH1 0x0 DUP1 PUSH1 0x0 PUSH1 0x60 DUP5 DUP7 SUB SLT ISZERO PUSH2 0x4363 JUMPI PUSH2 0x4362 PUSH2 0x56E8 JUMP JUMPDEST JUMPDEST PUSH1 0x0 PUSH2 0x4371 DUP7 DUP3 DUP8 ADD PUSH2 0x421C JUMP JUMPDEST SWAP4 POP POP PUSH1 0x20 PUSH2 0x4382 DUP7 DUP3 DUP8 ADD PUSH2 0x421C JUMP JUMPDEST SWAP3 POP POP PUSH1 0x40 PUSH2 0x4393 DUP7 DUP3 DUP8 ADD PUSH2 0x42B3 JUMP JUMPDEST SWAP2 POP POP SWAP3 POP SWAP3 POP SWAP3 JUMP JUMPDEST PUSH1 0x0 DUP1 PUSH1 0x0 DUP1 PUSH1 0x80 DUP6 DUP8 SUB SLT ISZERO PUSH2 0x43B7 JUMPI PUSH2 0x43B6 PUSH2 0x56E8 JUMP JUMPDEST JUMPDEST PUSH1 0x0 PUSH2 0x43C5 DUP8 DUP3 DUP9 ADD PUSH2 0x421C JUMP JUMPDEST SWAP5 POP POP PUSH1 0x20 PUSH2 0x43D6 DUP8 DUP3 DUP9 ADD PUSH2 0x421C JUMP JUMPDEST SWAP4 POP POP PUSH1 0x40 PUSH2 0x43E7 DUP8 DUP3 DUP9 ADD PUSH2 0x42B3 JUMP JUMPDEST SWAP3 POP POP PUSH1 0x60 DUP6 ADD CALLDATALOAD PUSH8 0xFFFFFFFFFFFFFFFF DUP2 GT ISZERO PUSH2 0x4408 JUMPI PUSH2 0x4407 PUSH2 0x56E3 JUMP JUMPDEST JUMPDEST PUSH2 0x4414 DUP8 DUP3 DUP9 ADD PUSH2 0x4285 JUMP JUMPDEST SWAP2 POP POP SWAP3 SWAP6 SWAP2 SWAP5 POP SWAP3 POP JUMP JUMPDEST PUSH1 0x0 DUP1 PUSH1 0x40 DUP4 DUP6 SUB SLT ISZERO PUSH2 0x4437 JUMPI PUSH2 0x4436 PUSH2 0x56E8 JUMP JUMPDEST JUMPDEST PUSH1 0x0 PUSH2 0x4445 DUP6 DUP3 DUP7 ADD PUSH2 0x421C JUMP JUMPDEST SWAP3 POP POP PUSH1 0x20 PUSH2 0x4456 DUP6 DUP3 DUP7 ADD PUSH2 0x4231 JUMP JUMPDEST SWAP2 POP POP SWAP3 POP SWAP3 SWAP1 POP JUMP JUMPDEST PUSH1 0x0 DUP1 PUSH1 0x40 DUP4 DUP6 SUB SLT ISZERO PUSH2 0x4477 JUMPI PUSH2 0x4476 PUSH2 0x56E8 JUMP JUMPDEST JUMPDEST PUSH1 0x0 PUSH2 0x4485 DUP6 DUP3 DUP7 ADD PUSH2 0x421C JUMP JUMPDEST SWAP3 POP POP PUSH1 0x20 PUSH2 0x4496 DUP6 DUP3 DUP7 ADD PUSH2 0x42B3 JUMP JUMPDEST SWAP2 POP POP SWAP3 POP SWAP3 SWAP1 POP JUMP JUMPDEST PUSH1 0x0 PUSH1 0x20 DUP3 DUP5 SUB SLT ISZERO PUSH2 0x44B6 JUMPI PUSH2 0x44B5 PUSH2 0x56E8 JUMP JUMPDEST JUMPDEST PUSH1 0x0 PUSH2 0x44C4 DUP5 DUP3 DUP6 ADD PUSH2 0x4246 JUMP JUMPDEST SWAP2 POP POP SWAP3 SWAP2 POP POP JUMP JUMPDEST PUSH1 0x0 DUP1 PUSH1 0x40 DUP4 DUP6 SUB SLT ISZERO PUSH2 0x44E4 JUMPI PUSH2 0x44E3 PUSH2 0x56E8 JUMP JUMPDEST JUMPDEST PUSH1 0x0 PUSH2 0x44F2 DUP6 DUP3 DUP7 ADD PUSH2 0x4246 JUMP JUMPDEST SWAP3 POP POP PUSH1 0x20 PUSH2 0x4503 DUP6 DUP3 DUP7 ADD PUSH2 0x421C JUMP JUMPDEST SWAP2 POP POP SWAP3 POP SWAP3 SWAP1 POP JUMP JUMPDEST PUSH1 0x0 PUSH1 0x20 DUP3 DUP5 SUB SLT ISZERO PUSH2 0x4523 JUMPI PUSH2 0x4522 PUSH2 0x56E8 JUMP JUMPDEST JUMPDEST PUSH1 0x0 PUSH2 0x4531 DUP5 DUP3 DUP6 ADD PUSH2 0x425B JUMP JUMPDEST SWAP2 POP POP SWAP3 SWAP2 POP POP JUMP JUMPDEST PUSH1 0x0 PUSH1 0x20 DUP3 DUP5 SUB SLT ISZERO PUSH2 0x4550 JUMPI PUSH2 0x454F PUSH2 0x56E8 JUMP JUMPDEST JUMPDEST PUSH1 0x0 PUSH2 0x455E DUP5 DUP3 DUP6 ADD PUSH2 0x4270 JUMP JUMPDEST SWAP2 POP POP SWAP3 SWAP2 POP POP JUMP JUMPDEST PUSH1 0x0 PUSH1 0x20 DUP3 DUP5 SUB SLT ISZERO PUSH2 0x457D JUMPI PUSH2 0x457C PUSH2 0x56E8 JUMP JUMPDEST JUMPDEST PUSH1 0x0 PUSH2 0x458B DUP5 DUP3 DUP6 ADD PUSH2 0x42B3 JUMP JUMPDEST SWAP2 POP POP SWAP3 SWAP2 POP POP JUMP JUMPDEST PUSH1 0x0 DUP1 PUSH1 0x40 DUP4 DUP6 SUB SLT ISZERO PUSH2 0x45AB JUMPI PUSH2 0x45AA PUSH2 0x56E8 JUMP JUMPDEST JUMPDEST PUSH1 0x0 PUSH2 0x45B9 DUP6 DUP3 DUP7 ADD PUSH2 0x42B3 JUMP JUMPDEST SWAP3 POP POP PUSH1 0x20 PUSH2 0x45CA DUP6 DUP3 DUP7 ADD PUSH2 0x42B3 JUMP JUMPDEST SWAP2 POP POP SWAP3 POP SWAP3 SWAP1 POP JUMP JUMPDEST PUSH1 0x0 PUSH1 0x20 DUP3 DUP5 SUB SLT ISZERO PUSH2 0x45EA JUMPI PUSH2 0x45E9 PUSH2 0x56E8 JUMP JUMPDEST JUMPDEST PUSH1 0x0 PUSH2 0x45F8 DUP5 DUP3 DUP6 ADD PUSH2 0x42C8 JUMP JUMPDEST SWAP2 POP POP SWAP3 SWAP2 POP POP JUMP JUMPDEST PUSH1 0x0 PUSH2 0x460D DUP4 DUP4 PUSH2 0x4C0E JUMP JUMPDEST PUSH1 0x20 DUP4 ADD SWAP1 POP SWAP3 SWAP2 POP POP JUMP JUMPDEST PUSH2 0x4622 DUP2 PUSH2 0x53AC JUMP JUMPDEST DUP3 MSTORE POP POP JUMP JUMPDEST PUSH2 0x4639 PUSH2 0x4634 DUP3 PUSH2 0x53AC JUMP JUMPDEST PUSH2 0x5556 JUMP JUMPDEST DUP3 MSTORE POP POP JUMP JUMPDEST PUSH1 0x0 PUSH2 0x464A DUP3 PUSH2 0x5220 JUMP JUMPDEST PUSH2 0x4654 DUP2 DUP6 PUSH2 0x524E JUMP JUMPDEST SWAP4 POP PUSH2 0x465F DUP4 PUSH2 0x51FB JUMP JUMPDEST DUP1 PUSH1 0x0 JUMPDEST DUP4 DUP2 LT ISZERO PUSH2 0x4690 JUMPI DUP2 MLOAD PUSH2 0x4677 DUP9 DUP3 PUSH2 0x4601 JUMP JUMPDEST SWAP8 POP PUSH2 0x4682 DUP4 PUSH2 0x5241 JUMP JUMPDEST SWAP3 POP POP PUSH1 0x1 DUP2 ADD SWAP1 POP PUSH2 0x4663 JUMP JUMPDEST POP DUP6 SWAP4 POP POP POP POP SWAP3 SWAP2 POP POP JUMP JUMPDEST PUSH2 0x46A6 DUP2 PUSH2 0x53BE JUMP JUMPDEST DUP3 MSTORE POP POP JUMP JUMPDEST PUSH2 0x46B5 DUP2 PUSH2 0x53CA JUMP JUMPDEST DUP3 MSTORE POP POP JUMP JUMPDEST PUSH2 0x46CC PUSH2 0x46C7 DUP3 PUSH2 0x53CA JUMP JUMPDEST PUSH2 0x5568 JUMP JUMPDEST DUP3 MSTORE POP POP JUMP JUMPDEST PUSH1 0x0 PUSH2 0x46DD DUP3 PUSH2 0x522B JUMP JUMPDEST PUSH2 0x46E7 DUP2 DUP6 PUSH2 0x525F JUMP JUMPDEST SWAP4 POP PUSH2 0x46F7 DUP2 DUP6 PUSH1 0x20 DUP7 ADD PUSH2 0x544D JUMP JUMPDEST PUSH2 0x4700 DUP2 PUSH2 0x56ED JUMP JUMPDEST DUP5 ADD SWAP2 POP POP SWAP3 SWAP2 POP POP JUMP JUMPDEST PUSH1 0x0 PUSH2 0x4716 DUP3 PUSH2 0x5236 JUMP JUMPDEST PUSH2 0x4720 DUP2 DUP6 PUSH2 0x527B JUMP JUMPDEST SWAP4 POP PUSH2 0x4730 DUP2 DUP6 PUSH1 0x20 DUP7 ADD PUSH2 0x544D JUMP JUMPDEST PUSH2 0x4739 DUP2 PUSH2 0x56ED JUMP JUMPDEST DUP5 ADD SWAP2 POP POP SWAP3 SWAP2 POP POP JUMP JUMPDEST PUSH1 0x0 PUSH2 0x474F DUP3 PUSH2 0x5236 JUMP JUMPDEST PUSH2 0x4759 DUP2 DUP6 PUSH2 0x528C JUMP JUMPDEST SWAP4 POP PUSH2 0x4769 DUP2 DUP6 PUSH1 0x20 DUP7 ADD PUSH2 0x544D JUMP JUMPDEST DUP1 DUP5 ADD SWAP2 POP POP SWAP3 SWAP2 POP POP JUMP JUMPDEST PUSH1 0x0 DUP2 SLOAD PUSH2 0x4782 DUP2 PUSH2 0x54AA JUMP JUMPDEST PUSH2 0x478C DUP2 DUP7 PUSH2 0x528C JUMP JUMPDEST SWAP5 POP PUSH1 0x1 DUP3 AND PUSH1 0x0 DUP2 EQ PUSH2 0x47A7 JUMPI PUSH1 0x1 DUP2 EQ PUSH2 0x47B8 JUMPI PUSH2 0x47EB JUMP JUMPDEST PUSH1 0xFF NOT DUP4 AND DUP7 MSTORE DUP2 DUP7 ADD SWAP4 POP PUSH2 0x47EB JUMP JUMPDEST PUSH2 0x47C1 DUP6 PUSH2 0x520B JUMP JUMPDEST PUSH1 0x0 JUMPDEST DUP4 DUP2 LT ISZERO PUSH2 0x47E3 JUMPI DUP2 SLOAD DUP2 DUP10 ADD MSTORE PUSH1 0x1 DUP3 ADD SWAP2 POP PUSH1 0x20 DUP2 ADD SWAP1 POP PUSH2 0x47C4 JUMP JUMPDEST DUP4 DUP9 ADD SWAP6 POP POP POP JUMPDEST POP POP POP SWAP3 SWAP2 POP POP JUMP JUMPDEST PUSH1 0x0 PUSH2 0x4801 PUSH1 0x20 DUP4 PUSH2 0x527B JUMP JUMPDEST SWAP2 POP PUSH2 0x480C DUP3 PUSH2 0x570B JUMP JUMPDEST PUSH1 0x20 DUP3 ADD SWAP1 POP SWAP2 SWAP1 POP JUMP JUMPDEST PUSH1 0x0 PUSH2 0x4824 PUSH1 0x2B DUP4 PUSH2 0x527B JUMP JUMPDEST SWAP2 POP PUSH2 0x482F DUP3 PUSH2 0x5734 JUMP JUMPDEST PUSH1 0x40 DUP3 ADD SWAP1 POP SWAP2 SWAP1 POP JUMP JUMPDEST PUSH1 0x0 PUSH2 0x4847 PUSH1 0x32 DUP4 PUSH2 0x527B JUMP JUMPDEST SWAP2 POP PUSH2 0x4852 DUP3 PUSH2 0x5783 JUMP JUMPDEST PUSH1 0x40 DUP3 ADD SWAP1 POP SWAP2 SWAP1 POP JUMP JUMPDEST PUSH1 0x0 PUSH2 0x486A PUSH1 0x26 DUP4 PUSH2 0x527B JUMP JUMPDEST SWAP2 POP PUSH2 0x4875 DUP3 PUSH2 0x57D2 JUMP JUMPDEST PUSH1 0x40 DUP3 ADD SWAP1 POP SWAP2 SWAP1 POP JUMP JUMPDEST PUSH1 0x0 PUSH2 0x488D PUSH1 0x25 DUP4 PUSH2 0x527B JUMP JUMPDEST SWAP2 POP PUSH2 0x4898 DUP3 PUSH2 0x5821 JUMP JUMPDEST PUSH1 0x40 DUP3 ADD SWAP1 POP SWAP2 SWAP1 POP JUMP JUMPDEST PUSH1 0x0 PUSH2 0x48B0 PUSH1 0xB DUP4 PUSH2 0x527B JUMP JUMPDEST SWAP2 POP PUSH2 0x48BB DUP3 PUSH2 0x5870 JUMP JUMPDEST PUSH1 0x20 DUP3 ADD SWAP1 POP SWAP2 SWAP1 POP JUMP JUMPDEST PUSH1 0x0 PUSH2 0x48D3 PUSH1 0x1C DUP4 PUSH2 0x527B JUMP JUMPDEST SWAP2 POP PUSH2 0x48DE DUP3 PUSH2 0x5899 JUMP JUMPDEST PUSH1 0x20 DUP3 ADD SWAP1 POP SWAP2 SWAP1 POP JUMP JUMPDEST PUSH1 0x0 PUSH2 0x48F6 PUSH1 0x14 DUP4 PUSH2 0x527B JUMP JUMPDEST SWAP2 POP PUSH2 0x4901 DUP3 PUSH2 0x58C2 JUMP JUMPDEST PUSH1 0x20 DUP3 ADD SWAP1 POP SWAP2 SWAP1 POP JUMP JUMPDEST PUSH1 0x0 PUSH2 0x4919 PUSH1 0x24 DUP4 PUSH2 0x527B JUMP JUMPDEST SWAP2 POP PUSH2 0x4924 DUP3 PUSH2 0x58EB JUMP JUMPDEST PUSH1 0x40 DUP3 ADD SWAP1 POP SWAP2 SWAP1 POP JUMP JUMPDEST PUSH1 0x0 PUSH2 0x493C PUSH1 0x19 DUP4 PUSH2 0x527B JUMP JUMPDEST SWAP2 POP PUSH2 0x4947 DUP3 PUSH2 0x593A JUMP JUMPDEST PUSH1 0x20 DUP3 ADD SWAP1 POP SWAP2 SWAP1 POP JUMP JUMPDEST PUSH1 0x0 PUSH2 0x495F PUSH1 0x2C DUP4 PUSH2 0x527B JUMP JUMPDEST SWAP2 POP PUSH2 0x496A DUP3 PUSH2 0x5963 JUMP JUMPDEST PUSH1 0x40 DUP3 ADD SWAP1 POP SWAP2 SWAP1 POP JUMP JUMPDEST PUSH1 0x0 PUSH2 0x4982 PUSH1 0xF DUP4 PUSH2 0x527B JUMP JUMPDEST SWAP2 POP PUSH2 0x498D DUP3 PUSH2 0x59B2 JUMP JUMPDEST PUSH1 0x20 DUP3 ADD SWAP1 POP SWAP2 SWAP1 POP JUMP JUMPDEST PUSH1 0x0 PUSH2 0x49A5 PUSH1 0x38 DUP4 PUSH2 0x527B JUMP JUMPDEST SWAP2 POP PUSH2 0x49B0 DUP3 PUSH2 0x59DB JUMP JUMPDEST PUSH1 0x40 DUP3 ADD SWAP1 POP SWAP2 SWAP1 POP JUMP JUMPDEST PUSH1 0x0 PUSH2 0x49C8 PUSH1 0x2A DUP4 PUSH2 0x527B JUMP JUMPDEST SWAP2 POP PUSH2 0x49D3 DUP3 PUSH2 0x5A2A JUMP JUMPDEST PUSH1 0x40 DUP3 ADD SWAP1 POP SWAP2 SWAP1 POP JUMP JUMPDEST PUSH1 0x0 PUSH2 0x49EB PUSH1 0x29 DUP4 PUSH2 0x527B JUMP JUMPDEST SWAP2 POP PUSH2 0x49F6 DUP3 PUSH2 0x5A79 JUMP JUMPDEST PUSH1 0x40 DUP3 ADD SWAP1 POP SWAP2 SWAP1 POP JUMP JUMPDEST PUSH1 0x0 PUSH2 0x4A0E PUSH1 0x20 DUP4 PUSH2 0x527B JUMP JUMPDEST SWAP2 POP PUSH2 0x4A19 DUP3 PUSH2 0x5AC8 JUMP JUMPDEST PUSH1 0x20 DUP3 ADD SWAP1 POP SWAP2 SWAP1 POP JUMP JUMPDEST PUSH1 0x0 PUSH2 0x4A31 PUSH1 0x1B DUP4 PUSH2 0x527B JUMP JUMPDEST SWAP2 POP PUSH2 0x4A3C DUP3 PUSH2 0x5AF1 JUMP JUMPDEST PUSH1 0x20 DUP3 ADD SWAP1 POP SWAP2 SWAP1 POP JUMP JUMPDEST PUSH1 0x0 PUSH2 0x4A54 PUSH1 0x2C DUP4 PUSH2 0x527B JUMP JUMPDEST SWAP2 POP PUSH2 0x4A5F DUP3 PUSH2 0x5B1A JUMP JUMPDEST PUSH1 0x40 DUP3 ADD SWAP1 POP SWAP2 SWAP1 POP JUMP JUMPDEST PUSH1 0x0 PUSH2 0x4A77 PUSH1 0x5 DUP4 PUSH2 0x528C JUMP JUMPDEST SWAP2 POP PUSH2 0x4A82 DUP3 PUSH2 0x5B69 JUMP JUMPDEST PUSH1 0x5 DUP3 ADD SWAP1 POP SWAP2 SWAP1 POP JUMP JUMPDEST PUSH1 0x0 PUSH2 0x4A9A PUSH1 0x20 DUP4 PUSH2 0x527B JUMP JUMPDEST SWAP2 POP PUSH2 0x4AA5 DUP3 PUSH2 0x5B92 JUMP JUMPDEST PUSH1 0x20 DUP3 ADD SWAP1 POP SWAP2 SWAP1 POP JUMP JUMPDEST PUSH1 0x0 PUSH2 0x4ABD PUSH1 0x21 DUP4 PUSH2 0x527B JUMP JUMPDEST SWAP2 POP PUSH2 0x4AC8 DUP3 PUSH2 0x5BBB JUMP JUMPDEST PUSH1 0x40 DUP3 ADD SWAP1 POP SWAP2 SWAP1 POP JUMP JUMPDEST PUSH1 0x0 PUSH2 0x4AE0 PUSH1 0x0 DUP4 PUSH2 0x5270 JUMP JUMPDEST SWAP2 POP PUSH2 0x4AEB DUP3 PUSH2 0x5C0A JUMP JUMPDEST PUSH1 0x0 DUP3 ADD SWAP1 POP SWAP2 SWAP1 POP JUMP JUMPDEST PUSH1 0x0 PUSH2 0x4B03 PUSH1 0x31 DUP4 PUSH2 0x527B JUMP JUMPDEST SWAP2 POP PUSH2 0x4B0E DUP3 PUSH2 0x5C0D JUMP JUMPDEST PUSH1 0x40 DUP3 ADD SWAP1 POP SWAP2 SWAP1 POP JUMP JUMPDEST PUSH1 0x0 PUSH2 0x4B26 PUSH1 0xB DUP4 PUSH2 0x527B JUMP JUMPDEST SWAP2 POP PUSH2 0x4B31 DUP3 PUSH2 0x5C5C JUMP JUMPDEST PUSH1 0x20 DUP3 ADD SWAP1 POP SWAP2 SWAP1 POP JUMP JUMPDEST PUSH1 0x0 PUSH2 0x4B49 PUSH1 0x2C DUP4 PUSH2 0x527B JUMP JUMPDEST SWAP2 POP PUSH2 0x4B54 DUP3 PUSH2 0x5C85 JUMP JUMPDEST PUSH1 0x40 DUP3 ADD SWAP1 POP SWAP2 SWAP1 POP JUMP JUMPDEST PUSH1 0x0 PUSH2 0x4B6C PUSH1 0x17 DUP4 PUSH2 0x528C JUMP JUMPDEST SWAP2 POP PUSH2 0x4B77 DUP3 PUSH2 0x5CD4 JUMP JUMPDEST PUSH1 0x17 DUP3 ADD SWAP1 POP SWAP2 SWAP1 POP JUMP JUMPDEST PUSH1 0x0 PUSH2 0x4B8F PUSH1 0xD DUP4 PUSH2 0x527B JUMP JUMPDEST SWAP2 POP PUSH2 0x4B9A DUP3 PUSH2 0x5CFD JUMP JUMPDEST PUSH1 0x20 DUP3 ADD SWAP1 POP SWAP2 SWAP1 POP JUMP JUMPDEST PUSH1 0x0 PUSH2 0x4BB2 PUSH1 0x11 DUP4 PUSH2 0x528C JUMP JUMPDEST SWAP2 POP PUSH2 0x4BBD DUP3 PUSH2 0x5D26 JUMP JUMPDEST PUSH1 0x11 DUP3 ADD SWAP1 POP SWAP2 SWAP1 POP JUMP JUMPDEST PUSH1 0x0 PUSH2 0x4BD5 PUSH1 0x2F DUP4 PUSH2 0x527B JUMP JUMPDEST SWAP2 POP PUSH2 0x4BE0 DUP3 PUSH2 0x5D4F JUMP JUMPDEST PUSH1 0x40 DUP3 ADD SWAP1 POP SWAP2 SWAP1 POP JUMP JUMPDEST PUSH1 0x0 PUSH2 0x4BF8 PUSH1 0x1 DUP4 PUSH2 0x528C JUMP JUMPDEST SWAP2 POP PUSH2 0x4C03 DUP3 PUSH2 0x5D9E JUMP JUMPDEST PUSH1 0x1 DUP3 ADD SWAP1 POP SWAP2 SWAP1 POP JUMP JUMPDEST PUSH2 0x4C17 DUP2 PUSH2 0x5420 JUMP JUMPDEST DUP3 MSTORE POP POP JUMP JUMPDEST PUSH2 0x4C26 DUP2 PUSH2 0x5420 JUMP JUMPDEST DUP3 MSTORE POP POP JUMP JUMPDEST PUSH2 0x4C3D PUSH2 0x4C38 DUP3 PUSH2 0x5420 JUMP JUMPDEST PUSH2 0x5584 JUMP JUMPDEST DUP3 MSTORE POP POP JUMP JUMPDEST PUSH2 0x4C4C DUP2 PUSH2 0x542A JUMP JUMPDEST DUP3 MSTORE POP POP JUMP JUMPDEST PUSH1 0x0 PUSH2 0x4C5E DUP3 DUP6 PUSH2 0x4775 JUMP JUMPDEST SWAP2 POP PUSH2 0x4C69 DUP3 PUSH2 0x4BEB JUMP JUMPDEST SWAP2 POP PUSH2 0x4C75 DUP3 DUP5 PUSH2 0x4744 JUMP JUMPDEST SWAP2 POP PUSH2 0x4C80 DUP3 PUSH2 0x4A6A JUMP JUMPDEST SWAP2 POP DUP2 SWAP1 POP SWAP4 SWAP3 POP POP POP JUMP JUMPDEST PUSH1 0x0 PUSH2 0x4C97 DUP3 PUSH2 0x4AD3 JUMP JUMPDEST SWAP2 POP DUP2 SWAP1 POP SWAP2 SWAP1 POP JUMP JUMPDEST PUSH1 0x0 PUSH2 0x4CAC DUP3 PUSH2 0x4B5F JUMP JUMPDEST SWAP2 POP PUSH2 0x4CB8 DUP3 DUP6 PUSH2 0x4744 JUMP JUMPDEST SWAP2 POP PUSH2 0x4CC3 DUP3 PUSH2 0x4BA5 JUMP JUMPDEST SWAP2 POP PUSH2 0x4CCF DUP3 DUP5 PUSH2 0x4744 JUMP JUMPDEST SWAP2 POP DUP2 SWAP1 POP SWAP4 SWAP3 POP POP POP JUMP JUMPDEST PUSH1 0x0 PUSH2 0x4CE7 DUP3 DUP8 PUSH2 0x4C2C JUMP JUMPDEST PUSH1 0x20 DUP3 ADD SWAP2 POP PUSH2 0x4CF7 DUP3 DUP7 PUSH2 0x4628 JUMP JUMPDEST PUSH1 0x14 DUP3 ADD SWAP2 POP PUSH2 0x4D07 DUP3 DUP6 PUSH2 0x4C2C JUMP JUMPDEST PUSH1 0x20 DUP3 ADD SWAP2 POP PUSH2 0x4D17 DUP3 DUP5 PUSH2 0x46BB JUMP JUMPDEST PUSH1 0x20 DUP3 ADD SWAP2 POP DUP2 SWAP1 POP SWAP6 SWAP5 POP POP POP POP POP JUMP JUMPDEST PUSH1 0x0 PUSH1 0x20 DUP3 ADD SWAP1 POP PUSH2 0x4D3E PUSH1 0x0 DUP4 ADD DUP5 PUSH2 0x4619 JUMP JUMPDEST SWAP3 SWAP2 POP POP JUMP JUMPDEST PUSH1 0x0 PUSH1 0x80 DUP3 ADD SWAP1 POP PUSH2 0x4D59 PUSH1 0x0 DUP4 ADD DUP8 PUSH2 0x4619 JUMP JUMPDEST PUSH2 0x4D66 PUSH1 0x20 DUP4 ADD DUP7 PUSH2 0x4619 JUMP JUMPDEST PUSH2 0x4D73 PUSH1 0x40 DUP4 ADD DUP6 PUSH2 0x4C1D JUMP JUMPDEST DUP2 DUP2 SUB PUSH1 0x60 DUP4 ADD MSTORE PUSH2 0x4D85 DUP2 DUP5 PUSH2 0x46D2 JUMP JUMPDEST SWAP1 POP SWAP6 SWAP5 POP POP POP POP POP JUMP JUMPDEST PUSH1 0x0 PUSH1 0x20 DUP3 ADD SWAP1 POP DUP2 DUP2 SUB PUSH1 0x0 DUP4 ADD MSTORE PUSH2 0x4DAA DUP2 DUP5 PUSH2 0x463F JUMP JUMPDEST SWAP1 POP SWAP3 SWAP2 POP POP JUMP JUMPDEST PUSH1 0x0 PUSH1 0x20 DUP3 ADD SWAP1 POP PUSH2 0x4DC7 PUSH1 0x0 DUP4 ADD DUP5 PUSH2 0x469D JUMP JUMPDEST SWAP3 SWAP2 POP POP JUMP JUMPDEST PUSH1 0x0 PUSH1 0x20 DUP3 ADD SWAP1 POP PUSH2 0x4DE2 PUSH1 0x0 DUP4 ADD DUP5 PUSH2 0x46AC JUMP JUMPDEST SWAP3 SWAP2 POP POP JUMP JUMPDEST PUSH1 0x0 PUSH1 0x20 DUP3 ADD SWAP1 POP DUP2 DUP2 SUB PUSH1 0x0 DUP4 ADD MSTORE PUSH2 0x4E02 DUP2 DUP5 PUSH2 0x470B JUMP JUMPDEST SWAP1 POP SWAP3 SWAP2 POP POP JUMP JUMPDEST PUSH1 0x0 PUSH1 0x20 DUP3 ADD SWAP1 POP DUP2 DUP2 SUB PUSH1 0x0 DUP4 ADD MSTORE PUSH2 0x4E23 DUP2 PUSH2 0x47F4 JUMP JUMPDEST SWAP1 POP SWAP2 SWAP1 POP JUMP JUMPDEST PUSH1 0x0 PUSH1 0x20 DUP3 ADD SWAP1 POP DUP2 DUP2 SUB PUSH1 0x0 DUP4 ADD MSTORE PUSH2 0x4E43 DUP2 PUSH2 0x4817 JUMP JUMPDEST SWAP1 POP SWAP2 SWAP1 POP JUMP JUMPDEST PUSH1 0x0 PUSH1 0x20 DUP3 ADD SWAP1 POP DUP2 DUP2 SUB PUSH1 0x0 DUP4 ADD MSTORE PUSH2 0x4E63 DUP2 PUSH2 0x483A JUMP JUMPDEST SWAP1 POP SWAP2 SWAP1 POP JUMP JUMPDEST PUSH1 0x0 PUSH1 0x20 DUP3 ADD SWAP1 POP DUP2 DUP2 SUB PUSH1 0x0 DUP4 ADD MSTORE PUSH2 0x4E83 DUP2 PUSH2 0x485D JUMP JUMPDEST SWAP1 POP SWAP2 SWAP1 POP JUMP JUMPDEST PUSH1 0x0 PUSH1 0x20 DUP3 ADD SWAP1 POP DUP2 DUP2 SUB PUSH1 0x0 DUP4 ADD MSTORE PUSH2 0x4EA3 DUP2 PUSH2 0x4880 JUMP JUMPDEST SWAP1 POP SWAP2 SWAP1 POP JUMP JUMPDEST PUSH1 0x0 PUSH1 0x20 DUP3 ADD SWAP1 POP DUP2 DUP2 SUB PUSH1 0x0 DUP4 ADD MSTORE PUSH2 0x4EC3 DUP2 PUSH2 0x48A3 JUMP JUMPDEST SWAP1 POP SWAP2 SWAP1 POP JUMP JUMPDEST PUSH1 0x0 PUSH1 0x20 DUP3 ADD SWAP1 POP DUP2 DUP2 SUB PUSH1 0x0 DUP4 ADD MSTORE PUSH2 0x4EE3 DUP2 PUSH2 0x48C6 JUMP JUMPDEST SWAP1 POP SWAP2 SWAP1 POP JUMP JUMPDEST PUSH1 0x0 PUSH1 0x20 DUP3 ADD SWAP1 POP DUP2 DUP2 SUB PUSH1 0x0 DUP4 ADD MSTORE PUSH2 0x4F03 DUP2 PUSH2 0x48E9 JUMP JUMPDEST SWAP1 POP SWAP2 SWAP1 POP JUMP JUMPDEST PUSH1 0x0 PUSH1 0x20 DUP3 ADD SWAP1 POP DUP2 DUP2 SUB PUSH1 0x0 DUP4 ADD MSTORE PUSH2 0x4F23 DUP2 PUSH2 0x490C JUMP JUMPDEST SWAP1 POP SWAP2 SWAP1 POP JUMP JUMPDEST PUSH1 0x0 PUSH1 0x20 DUP3 ADD SWAP1 POP DUP2 DUP2 SUB PUSH1 0x0 DUP4 ADD MSTORE PUSH2 0x4F43 DUP2 PUSH2 0x492F JUMP JUMPDEST SWAP1 POP SWAP2 SWAP1 POP JUMP JUMPDEST PUSH1 0x0 PUSH1 0x20 DUP3 ADD SWAP1 POP DUP2 DUP2 SUB PUSH1 0x0 DUP4 ADD MSTORE PUSH2 0x4F63 DUP2 PUSH2 0x4952 JUMP JUMPDEST SWAP1 POP SWAP2 SWAP1 POP JUMP JUMPDEST PUSH1 0x0 PUSH1 0x20 DUP3 ADD SWAP1 POP DUP2 DUP2 SUB PUSH1 0x0 DUP4 ADD MSTORE PUSH2 0x4F83 DUP2 PUSH2 0x4975 JUMP JUMPDEST SWAP1 POP SWAP2 SWAP1 POP JUMP JUMPDEST PUSH1 0x0 PUSH1 0x20 DUP3 ADD SWAP1 POP DUP2 DUP2 SUB PUSH1 0x0 DUP4 ADD MSTORE PUSH2 0x4FA3 DUP2 PUSH2 0x4998 JUMP JUMPDEST SWAP1 POP SWAP2 SWAP1 POP JUMP JUMPDEST PUSH1 0x0 PUSH1 0x20 DUP3 ADD SWAP1 POP DUP2 DUP2 SUB PUSH1 0x0 DUP4 ADD MSTORE PUSH2 0x4FC3 DUP2 PUSH2 0x49BB JUMP JUMPDEST SWAP1 POP SWAP2 SWAP1 POP JUMP JUMPDEST PUSH1 0x0 PUSH1 0x20 DUP3 ADD SWAP1 POP DUP2 DUP2 SUB PUSH1 0x0 DUP4 ADD MSTORE PUSH2 0x4FE3 DUP2 PUSH2 0x49DE JUMP JUMPDEST SWAP1 POP SWAP2 SWAP1 POP JUMP JUMPDEST PUSH1 0x0 PUSH1 0x20 DUP3 ADD SWAP1 POP DUP2 DUP2 SUB PUSH1 0x0 DUP4 ADD MSTORE PUSH2 0x5003 DUP2 PUSH2 0x4A01 JUMP JUMPDEST SWAP1 POP SWAP2 SWAP1 POP JUMP JUMPDEST PUSH1 0x0 PUSH1 0x20 DUP3 ADD SWAP1 POP DUP2 DUP2 SUB PUSH1 0x0 DUP4 ADD MSTORE PUSH2 0x5023 DUP2 PUSH2 0x4A24 JUMP JUMPDEST SWAP1 POP SWAP2 SWAP1 POP JUMP JUMPDEST PUSH1 0x0 PUSH1 0x20 DUP3 ADD SWAP1 POP DUP2 DUP2 SUB PUSH1 0x0 DUP4 ADD MSTORE PUSH2 0x5043 DUP2 PUSH2 0x4A47 JUMP JUMPDEST SWAP1 POP SWAP2 SWAP1 POP JUMP JUMPDEST PUSH1 0x0 PUSH1 0x20 DUP3 ADD SWAP1 POP DUP2 DUP2 SUB PUSH1 0x0 DUP4 ADD MSTORE PUSH2 0x5063 DUP2 PUSH2 0x4A8D JUMP JUMPDEST SWAP1 POP SWAP2 SWAP1 POP JUMP JUMPDEST PUSH1 0x0 PUSH1 0x20 DUP3 ADD SWAP1 POP DUP2 DUP2 SUB PUSH1 0x0 DUP4 ADD MSTORE PUSH2 0x5083 DUP2 PUSH2 0x4AB0 JUMP JUMPDEST SWAP1 POP SWAP2 SWAP1 POP JUMP JUMPDEST PUSH1 0x0 PUSH1 0x20 DUP3 ADD SWAP1 POP DUP2 DUP2 SUB PUSH1 0x0 DUP4 ADD MSTORE PUSH2 0x50A3 DUP2 PUSH2 0x4AF6 JUMP JUMPDEST SWAP1 POP SWAP2 SWAP1 POP JUMP JUMPDEST PUSH1 0x0 PUSH1 0x20 DUP3 ADD SWAP1 POP DUP2 DUP2 SUB PUSH1 0x0 DUP4 ADD MSTORE PUSH2 0x50C3 DUP2 PUSH2 0x4B19 JUMP JUMPDEST SWAP1 POP SWAP2 SWAP1 POP JUMP JUMPDEST PUSH1 0x0 PUSH1 0x20 DUP3 ADD SWAP1 POP DUP2 DUP2 SUB PUSH1 0x0 DUP4 ADD MSTORE PUSH2 0x50E3 DUP2 PUSH2 0x4B3C JUMP JUMPDEST SWAP1 POP SWAP2 SWAP1 POP JUMP JUMPDEST PUSH1 0x0 PUSH1 0x20 DUP3 ADD SWAP1 POP DUP2 DUP2 SUB PUSH1 0x0 DUP4 ADD MSTORE PUSH2 0x5103 DUP2 PUSH2 0x4B82 JUMP JUMPDEST SWAP1 POP SWAP2 SWAP1 POP JUMP JUMPDEST PUSH1 0x0 PUSH1 0x20 DUP3 ADD SWAP1 POP DUP2 DUP2 SUB PUSH1 0x0 DUP4 ADD MSTORE PUSH2 0x5123 DUP2 PUSH2 0x4BC8 JUMP JUMPDEST SWAP1 POP SWAP2 SWAP1 POP JUMP JUMPDEST PUSH1 0x0 PUSH1 0x20 DUP3 ADD SWAP1 POP PUSH2 0x513F PUSH1 0x0 DUP4 ADD DUP5 PUSH2 0x4C1D JUMP JUMPDEST SWAP3 SWAP2 POP POP JUMP JUMPDEST PUSH1 0x0 PUSH1 0x80 DUP3 ADD SWAP1 POP PUSH2 0x515A PUSH1 0x0 DUP4 ADD DUP8 PUSH2 0x4C1D JUMP JUMPDEST PUSH2 0x5167 PUSH1 0x20 DUP4 ADD DUP7 PUSH2 0x4C1D JUMP JUMPDEST PUSH2 0x5174 PUSH1 0x40 DUP4 ADD DUP6 PUSH2 0x4C1D JUMP JUMPDEST PUSH2 0x5181 PUSH1 0x60 DUP4 ADD DUP5 PUSH2 0x4C1D JUMP JUMPDEST SWAP6 SWAP5 POP POP POP POP POP JUMP JUMPDEST PUSH1 0x0 PUSH1 0x20 DUP3 ADD SWAP1 POP PUSH2 0x519F PUSH1 0x0 DUP4 ADD DUP5 PUSH2 0x4C43 JUMP JUMPDEST SWAP3 SWAP2 POP POP JUMP JUMPDEST PUSH1 0x0 PUSH2 0x51AF PUSH2 0x51C0 JUMP JUMPDEST SWAP1 POP PUSH2 0x51BB DUP3 DUP3 PUSH2 0x54DC JUMP JUMPDEST SWAP2 SWAP1 POP JUMP JUMPDEST PUSH1 0x0 PUSH1 0x40 MLOAD SWAP1 POP SWAP1 JUMP JUMPDEST PUSH1 0x0 PUSH8 0xFFFFFFFFFFFFFFFF DUP3 GT ISZERO PUSH2 0x51E5 JUMPI PUSH2 0x51E4 PUSH2 0x56AA JUMP JUMPDEST JUMPDEST PUSH2 0x51EE DUP3 PUSH2 0x56ED JUMP JUMPDEST SWAP1 POP PUSH1 0x20 DUP2 ADD SWAP1 POP SWAP2 SWAP1 POP JUMP JUMPDEST PUSH1 0x0 DUP2 SWAP1 POP PUSH1 0x20 DUP3 ADD SWAP1 POP SWAP2 SWAP1 POP JUMP JUMPDEST PUSH1 0x0 DUP2 SWAP1 POP DUP2 PUSH1 0x0 MSTORE PUSH1 0x20 PUSH1 0x0 KECCAK256 SWAP1 POP SWAP2 SWAP1 POP JUMP JUMPDEST PUSH1 0x0 DUP2 MLOAD SWAP1 POP SWAP2 SWAP1 POP JUMP JUMPDEST PUSH1 0x0 DUP2 MLOAD SWAP1 POP SWAP2 SWAP1 POP JUMP JUMPDEST PUSH1 0x0 DUP2 MLOAD SWAP1 POP SWAP2 SWAP1 POP JUMP JUMPDEST PUSH1 0x0 PUSH1 0x20 DUP3 ADD SWAP1 POP SWAP2 SWAP1 POP JUMP JUMPDEST PUSH1 0x0 DUP3 DUP3 MSTORE PUSH1 0x20 DUP3 ADD SWAP1 POP SWAP3 SWAP2 POP POP JUMP JUMPDEST PUSH1 0x0 DUP3 DUP3 MSTORE PUSH1 0x20 DUP3 ADD SWAP1 POP SWAP3 SWAP2 POP POP JUMP JUMPDEST PUSH1 0x0 DUP2 SWAP1 POP SWAP3 SWAP2 POP POP JUMP JUMPDEST PUSH1 0x0 DUP3 DUP3 MSTORE PUSH1 0x20 DUP3 ADD SWAP1 POP SWAP3 SWAP2 POP POP JUMP JUMPDEST PUSH1 0x0 DUP2 SWAP1 POP SWAP3 SWAP2 POP POP JUMP JUMPDEST PUSH1 0x0 PUSH2 0x52A2 DUP3 PUSH2 0x5420 JUMP JUMPDEST SWAP2 POP PUSH2 0x52AD DUP4 PUSH2 0x5420 JUMP JUMPDEST SWAP3 POP DUP3 PUSH32 0xFFFFFFFFFFFFFFFFFFFFFFFFFFFFFFFFFFFFFFFFFFFFFFFFFFFFFFFFFFFFFFFF SUB DUP3 GT ISZERO PUSH2 0x52E2 JUMPI PUSH2 0x52E1 PUSH2 0x55BF JUMP JUMPDEST JUMPDEST DUP3 DUP3 ADD SWAP1 POP SWAP3 SWAP2 POP POP JUMP JUMPDEST PUSH1 0x0 PUSH2 0x52F8 DUP3 PUSH2 0x5420 JUMP JUMPDEST SWAP2 POP PUSH2 0x5303 DUP4 PUSH2 0x5420 JUMP JUMPDEST SWAP3 POP DUP3 PUSH2 0x5313 JUMPI PUSH2 0x5312 PUSH2 0x55EE JUMP JUMPDEST JUMPDEST DUP3 DUP3 DIV SWAP1 POP SWAP3 SWAP2 POP POP JUMP JUMPDEST PUSH1 0x0 PUSH2 0x5329 DUP3 PUSH2 0x5420 JUMP JUMPDEST SWAP2 POP PUSH2 0x5334 DUP4 PUSH2 0x5420 JUMP JUMPDEST SWAP3 POP DUP2 PUSH32 0xFFFFFFFFFFFFFFFFFFFFFFFFFFFFFFFFFFFFFFFFFFFFFFFFFFFFFFFFFFFFFFFF DIV DUP4 GT DUP3 ISZERO ISZERO AND ISZERO PUSH2 0x536D JUMPI PUSH2 0x536C PUSH2 0x55BF JUMP JUMPDEST JUMPDEST DUP3 DUP3 MUL SWAP1 POP SWAP3 SWAP2 POP POP JUMP JUMPDEST PUSH1 0x0 PUSH2 0x5383 DUP3 PUSH2 0x5420 JUMP JUMPDEST SWAP2 POP PUSH2 0x538E DUP4 PUSH2 0x5420 JUMP JUMPDEST SWAP3 POP DUP3 DUP3 LT ISZERO PUSH2 0x53A1 JUMPI PUSH2 0x53A0 PUSH2 0x55BF JUMP JUMPDEST JUMPDEST DUP3 DUP3 SUB SWAP1 POP SWAP3 SWAP2 POP POP JUMP JUMPDEST PUSH1 0x0 PUSH2 0x53B7 DUP3 PUSH2 0x5400 JUMP JUMPDEST SWAP1 POP SWAP2 SWAP1 POP JUMP JUMPDEST PUSH1 0x0 DUP2 ISZERO ISZERO SWAP1 POP SWAP2 SWAP1 POP JUMP JUMPDEST PUSH1 0x0 DUP2 SWAP1 POP SWAP2 SWAP1 POP JUMP JUMPDEST PUSH1 0x0 PUSH32 0xFFFFFFFF00000000000000000000000000000000000000000000000000000000 DUP3 AND SWAP1 POP SWAP2 SWAP1 POP JUMP JUMPDEST PUSH1 0x0 PUSH20 0xFFFFFFFFFFFFFFFFFFFFFFFFFFFFFFFFFFFFFFFF DUP3 AND SWAP1 POP SWAP2 SWAP1 POP JUMP JUMPDEST PUSH1 0x0 DUP2 SWAP1 POP SWAP2 SWAP1 POP JUMP JUMPDEST PUSH1 0x0 PUSH8 0xFFFFFFFFFFFFFFFF DUP3 AND SWAP1 POP SWAP2 SWAP1 POP JUMP JUMPDEST DUP3 DUP2 DUP4 CALLDATACOPY PUSH1 0x0 DUP4 DUP4 ADD MSTORE POP POP POP JUMP JUMPDEST PUSH1 0x0 JUMPDEST DUP4 DUP2 LT ISZERO PUSH2 0x546B JUMPI DUP1 DUP3 ADD MLOAD DUP2 DUP5 ADD MSTORE PUSH1 0x20 DUP2 ADD SWAP1 POP PUSH2 0x5450 JUMP JUMPDEST DUP4 DUP2 GT ISZERO PUSH2 0x547A JUMPI PUSH1 0x0 DUP5 DUP5 ADD MSTORE JUMPDEST POP POP POP POP JUMP JUMPDEST PUSH1 0x0 PUSH2 0x548B DUP3 PUSH2 0x5420 JUMP JUMPDEST SWAP2 POP PUSH1 0x0 DUP3 EQ ISZERO PUSH2 0x549F JUMPI PUSH2 0x549E PUSH2 0x55BF JUMP JUMPDEST JUMPDEST PUSH1 0x1 DUP3 SUB SWAP1 POP SWAP2 SWAP1 POP JUMP JUMPDEST PUSH1 0x0 PUSH1 0x2 DUP3 DIV SWAP1 POP PUSH1 0x1 DUP3 AND DUP1 PUSH2 0x54C2 JUMPI PUSH1 0x7F DUP3 AND SWAP2 POP JUMPDEST PUSH1 0x20 DUP3 LT DUP2 EQ ISZERO PUSH2 0x54D6 JUMPI PUSH2 0x54D5 PUSH2 0x561D JUMP JUMPDEST JUMPDEST POP SWAP2 SWAP1 POP JUMP JUMPDEST PUSH2 0x54E5 DUP3 PUSH2 0x56ED JUMP JUMPDEST DUP2 ADD DUP2 DUP2 LT PUSH8 0xFFFFFFFFFFFFFFFF DUP3 GT OR ISZERO PUSH2 0x5504 JUMPI PUSH2 0x5503 PUSH2 0x56AA JUMP JUMPDEST JUMPDEST DUP1 PUSH1 0x40 MSTORE POP POP POP JUMP JUMPDEST PUSH1 0x0 PUSH2 0x5518 DUP3 PUSH2 0x5420 JUMP JUMPDEST SWAP2 POP PUSH32 0xFFFFFFFFFFFFFFFFFFFFFFFFFFFFFFFFFFFFFFFFFFFFFFFFFFFFFFFFFFFFFFFF DUP3 EQ ISZERO PUSH2 0x554B JUMPI PUSH2 0x554A PUSH2 0x55BF JUMP JUMPDEST JUMPDEST PUSH1 0x1 DUP3 ADD SWAP1 POP SWAP2 SWAP1 POP JUMP JUMPDEST PUSH1 0x0 PUSH2 0x5561 DUP3 PUSH2 0x5572 JUMP JUMPDEST SWAP1 POP SWAP2 SWAP1 POP JUMP JUMPDEST PUSH1 0x0 DUP2 SWAP1 POP SWAP2 SWAP1 POP JUMP JUMPDEST PUSH1 0x0 PUSH2 0x557D DUP3 PUSH2 0x56FE JUMP JUMPDEST SWAP1 POP SWAP2 SWAP1 POP JUMP JUMPDEST PUSH1 0x0 DUP2 SWAP1 POP SWAP2 SWAP1 POP JUMP JUMPDEST PUSH1 0x0 PUSH2 0x5599 DUP3 PUSH2 0x5420 JUMP JUMPDEST SWAP2 POP PUSH2 0x55A4 DUP4 PUSH2 0x5420 JUMP JUMPDEST SWAP3 POP DUP3 PUSH2 0x55B4 JUMPI PUSH2 0x55B3 PUSH2 0x55EE JUMP JUMPDEST JUMPDEST DUP3 DUP3 MOD SWAP1 POP SWAP3 SWAP2 POP POP JUMP JUMPDEST PUSH32 0x4E487B7100000000000000000000000000000000000000000000000000000000 PUSH1 0x0 MSTORE PUSH1 0x11 PUSH1 0x4 MSTORE PUSH1 0x24 PUSH1 0x0 REVERT JUMPDEST PUSH32 0x4E487B7100000000000000000000000000000000000000000000000000000000 PUSH1 0x0 MSTORE PUSH1 0x12 PUSH1 0x4 MSTORE PUSH1 0x24 PUSH1 0x0 REVERT JUMPDEST PUSH32 0x4E487B7100000000000000000000000000000000000000000000000000000000 PUSH1 0x0 MSTORE PUSH1 0x22 PUSH1 0x4 MSTORE PUSH1 0x24 PUSH1 0x0 REVERT JUMPDEST PUSH32 0x4E487B7100000000000000000000000000000000000000000000000000000000 PUSH1 0x0 MSTORE PUSH1 0x31 PUSH1 0x4 MSTORE PUSH1 0x24 PUSH1 0x0 REVERT JUMPDEST PUSH32 0x4E487B7100000000000000000000000000000000000000000000000000000000 PUSH1 0x0 MSTORE PUSH1 0x32 PUSH1 0x4 MSTORE PUSH1 0x24 PUSH1 0x0 REVERT JUMPDEST PUSH32 0x4E487B7100000000000000000000000000000000000000000000000000000000 PUSH1 0x0 MSTORE PUSH1 0x41 PUSH1 0x4 MSTORE PUSH1 0x24 PUSH1 0x0 REVERT JUMPDEST PUSH1 0x0 DUP1 REVERT JUMPDEST PUSH1 0x0 DUP1 REVERT JUMPDEST PUSH1 0x0 DUP1 REVERT JUMPDEST PUSH1 0x0 DUP1 REVERT JUMPDEST PUSH1 0x0 PUSH1 0x1F NOT PUSH1 0x1F DUP4 ADD AND SWAP1 POP SWAP2 SWAP1 POP JUMP JUMPDEST PUSH1 0x0 DUP2 PUSH1 0x60 SHL SWAP1 POP SWAP2 SWAP1 POP JUMP JUMPDEST PUSH32 0x537472696E67733A20686578206C656E67746820696E73756666696369656E74 PUSH1 0x0 DUP3 ADD MSTORE POP JUMP JUMPDEST PUSH32 0x455243373231456E756D657261626C653A206F776E657220696E646578206F75 PUSH1 0x0 DUP3 ADD MSTORE PUSH32 0x74206F6620626F756E6473000000000000000000000000000000000000000000 PUSH1 0x20 DUP3 ADD MSTORE POP JUMP JUMPDEST PUSH32 0x4552433732313A207472616E7366657220746F206E6F6E204552433732315265 PUSH1 0x0 DUP3 ADD MSTORE PUSH32 0x63656976657220696D706C656D656E7465720000000000000000000000000000 PUSH1 0x20 DUP3 ADD MSTORE POP JUMP JUMPDEST PUSH32 0x4F776E61626C653A206E6577206F776E657220697320746865207A65726F2061 PUSH1 0x0 DUP3 ADD MSTORE PUSH32 0x6464726573730000000000000000000000000000000000000000000000000000 PUSH1 0x20 DUP3 ADD MSTORE POP JUMP JUMPDEST PUSH32 0x4552433732313A207472616E736665722066726F6D20696E636F727265637420 PUSH1 0x0 DUP3 ADD MSTORE PUSH32 0x6F776E6572000000000000000000000000000000000000000000000000000000 PUSH1 0x20 DUP3 ADD MSTORE POP JUMP JUMPDEST PUSH32 0x636865636B207072696365000000000000000000000000000000000000000000 PUSH1 0x0 DUP3 ADD MSTORE POP JUMP JUMPDEST PUSH32 0x4552433732313A20746F6B656E20616C7265616479206D696E74656400000000 PUSH1 0x0 DUP3 ADD MSTORE POP JUMP JUMPDEST PUSH32 0x4661696C656420746F2073656E64206D6F6E6579000000000000000000000000 PUSH1 0x0 DUP3 ADD MSTORE POP JUMP JUMPDEST PUSH32 0x4552433732313A207472616E7366657220746F20746865207A65726F20616464 PUSH1 0x0 DUP3 ADD MSTORE PUSH32 0x7265737300000000000000000000000000000000000000000000000000000000 PUSH1 0x20 DUP3 ADD MSTORE POP JUMP JUMPDEST PUSH32 0x4552433732313A20617070726F766520746F2063616C6C657200000000000000 PUSH1 0x0 DUP3 ADD MSTORE POP JUMP JUMPDEST PUSH32 0x4552433732313A206F70657261746F7220717565727920666F72206E6F6E6578 PUSH1 0x0 DUP3 ADD MSTORE PUSH32 0x697374656E7420746F6B656E0000000000000000000000000000000000000000 PUSH1 0x20 DUP3 ADD MSTORE POP JUMP JUMPDEST PUSH32 0x4E6F7420656E6F756768206B6C61790000000000000000000000000000000000 PUSH1 0x0 DUP3 ADD MSTORE POP JUMP JUMPDEST PUSH32 0x4552433732313A20617070726F76652063616C6C6572206973206E6F74206F77 PUSH1 0x0 DUP3 ADD MSTORE PUSH32 0x6E6572206E6F7220617070726F76656420666F7220616C6C0000000000000000 PUSH1 0x20 DUP3 ADD MSTORE POP JUMP JUMPDEST PUSH32 0x4552433732313A2062616C616E636520717565727920666F7220746865207A65 PUSH1 0x0 DUP3 ADD MSTORE PUSH32 0x726F206164647265737300000000000000000000000000000000000000000000 PUSH1 0x20 DUP3 ADD MSTORE POP JUMP JUMPDEST PUSH32 0x4552433732313A206F776E657220717565727920666F72206E6F6E6578697374 PUSH1 0x0 DUP3 ADD MSTORE PUSH32 0x656E7420746F6B656E0000000000000000000000000000000000000000000000 PUSH1 0x20 DUP3 ADD MSTORE POP JUMP JUMPDEST PUSH32 0x4552433732313A206D696E7420746F20746865207A65726F2061646472657373 PUSH1 0x0 DUP3 ADD MSTORE POP JUMP JUMPDEST PUSH32 0x4E6F206D6F7265206D696E74696E6720697320706F737369626C650000000000 PUSH1 0x0 DUP3 ADD MSTORE POP JUMP JUMPDEST PUSH32 0x4552433732313A20617070726F76656420717565727920666F72206E6F6E6578 PUSH1 0x0 DUP3 ADD MSTORE PUSH32 0x697374656E7420746F6B656E0000000000000000000000000000000000000000 PUSH1 0x20 DUP3 ADD MSTORE POP JUMP JUMPDEST PUSH32 0x2E6A736F6E000000000000000000000000000000000000000000000000000000 PUSH1 0x0 DUP3 ADD MSTORE POP JUMP JUMPDEST PUSH32 0x4F776E61626C653A2063616C6C6572206973206E6F7420746865206F776E6572 PUSH1 0x0 DUP3 ADD MSTORE POP JUMP JUMPDEST PUSH32 0x4552433732313A20617070726F76616C20746F2063757272656E74206F776E65 PUSH1 0x0 DUP3 ADD MSTORE PUSH32 0x7200000000000000000000000000000000000000000000000000000000000000 PUSH1 0x20 DUP3 ADD MSTORE POP JUMP JUMPDEST POP JUMP JUMPDEST PUSH32 0x4552433732313A207472616E736665722063616C6C6572206973206E6F74206F PUSH1 0x0 DUP3 ADD MSTORE PUSH32 0x776E6572206E6F7220617070726F766564000000000000000000000000000000 PUSH1 0x20 DUP3 ADD MSTORE POP JUMP JUMPDEST PUSH32 0x6E6F20696473206C656674000000000000000000000000000000000000000000 PUSH1 0x0 DUP3 ADD MSTORE POP JUMP JUMPDEST PUSH32 0x455243373231456E756D657261626C653A20676C6F62616C20696E646578206F PUSH1 0x0 DUP3 ADD MSTORE PUSH32 0x7574206F6620626F756E64730000000000000000000000000000000000000000 PUSH1 0x20 DUP3 ADD MSTORE POP JUMP JUMPDEST PUSH32 0x416363657373436F6E74726F6C3A206163636F756E7420000000000000000000 PUSH1 0x0 DUP3 ADD MSTORE POP JUMP JUMPDEST PUSH32 0x636865636B2062616C616E636500000000000000000000000000000000000000 PUSH1 0x0 DUP3 ADD MSTORE POP JUMP JUMPDEST PUSH32 0x206973206D697373696E6720726F6C6520000000000000000000000000000000 PUSH1 0x0 DUP3 ADD MSTORE POP JUMP JUMPDEST PUSH32 0x416363657373436F6E74726F6C3A2063616E206F6E6C792072656E6F756E6365 PUSH1 0x0 DUP3 ADD MSTORE PUSH32 0x20726F6C657320666F722073656C660000000000000000000000000000000000 PUSH1 0x20 DUP3 ADD MSTORE POP JUMP JUMPDEST PUSH32 0x2F00000000000000000000000000000000000000000000000000000000000000 PUSH1 0x0 DUP3 ADD MSTORE POP JUMP JUMPDEST PUSH2 0x5DD0 DUP2 PUSH2 0x53AC JUMP JUMPDEST DUP2 EQ PUSH2 0x5DDB JUMPI PUSH1 0x0 DUP1 REVERT JUMPDEST POP JUMP JUMPDEST PUSH2 0x5DE7 DUP2 PUSH2 0x53BE JUMP JUMPDEST DUP2 EQ PUSH2 0x5DF2 JUMPI PUSH1 0x0 DUP1 REVERT JUMPDEST POP JUMP JUMPDEST PUSH2 0x5DFE DUP2 PUSH2 0x53CA JUMP JUMPDEST DUP2 EQ PUSH2 0x5E09 JUMPI PUSH1 0x0 DUP1 REVERT JUMPDEST POP JUMP JUMPDEST PUSH2 0x5E15 DUP2 PUSH2 0x53D4 JUMP JUMPDEST DUP2 EQ PUSH2 0x5E20 JUMPI PUSH1 0x0 DUP1 REVERT JUMPDEST POP JUMP JUMPDEST PUSH2 0x5E2C DUP2 PUSH2 0x5420 JUMP JUMPDEST DUP2 EQ PUSH2 0x5E37 JUMPI PUSH1 0x0 DUP1 REVERT JUMPDEST POP JUMP JUMPDEST PUSH2 0x5E43 DUP2 PUSH2 0x542A JUMP JUMPDEST DUP2 EQ PUSH2 0x5E4E JUMPI PUSH1 0x0 DUP1 REVERT JUMPDEST POP JUMP INVALID LOG2 PUSH5 0x6970667358 0x22 SLT KECCAK256 PUSH11 0xCFBD58A452B2484FF0E199 BLOCKHASH 0xBE MOD 0xAE 0x1F MOD LOG2 0xC6 BYTE SUB RETURNDATACOPY DUP1 LOG2 0xCF 0xB0 0xB9 0x5D DUP8 0xD2 SHL PUSH5 0x736F6C6343 STOP ADDMOD SMOD STOP CALLER "
		},
		"gasEstimates": {
			"creation": {
				"codeDepositCost": "4839800",
				"executionCost": "infinite",
				"totalCost": "infinite"
			},
			"external": {
				"AlreadyMint(uint256)": "2909",
				"DEFAULT_ADMIN_ROLE()": "402",
				"MAX_NORMAL_TOKEN_COUNT()": "420",
				"MAX_SPECIAL_TOKEN_COUNT()": "441",
				"MINTER_ROLE()": "418",
				"SPECIAL_MINTER_ROLE()": "441",
				"SpecialAlreadyMint(uint256)": "2863",
				"_normalTokenIdCount()": "2495",
				"_owner()": "2625",
				"_specialTokenIdCount()": "2562",
				"addWhiteList(address)": "infinite",
				"approve(address,uint256)": "infinite",
				"balanceOf(address)": "2992",
				"getApproved(uint256)": "5229",
				"getBalance(address)": "3367",
				"getCurrent()": "infinite",
				"getJolamanTokenType(uint256)": "infinite",
				"getLatestJolamanData()": "infinite",
				"getRoleAdmin(bytes32)": "infinite",
				"getTotalJolamanData(uint256)": "infinite",
				"getTotalOwnedTokens(address)": "infinite",
				"grantRole(bytes32,address)": "infinite",
				"hasRole(bytes32,address)": "3230",
				"isApprovedForAll(address,address)": "infinite",
				"isWhiteList(address)": "2977",
				"latestJolamanData(uint256)": "infinite",
				"mappedJolamanTokenData(uint256)": "infinite",
				"metadataURI()": "infinite",
				"mintingPrice()": "2584",
				"name()": "infinite",
				"owner()": "2656",
				"ownerOf(uint256)": "3046",
				"payandMint()": "3213",
				"payment()": "3195",
				"removeWhiteList(address)": "infinite",
				"renounceOwnership()": "30442",
				"renounceRole(bytes32,address)": "infinite",
				"revokeRole(bytes32,address)": "infinite",
				"safeMint(address)": "infinite",
				"safeMintforWhitelist(address)": "infinite",
				"safeTransferFrom(address,address,uint256)": "infinite",
				"safeTransferFrom(address,address,uint256,bytes)": "infinite",
				"setApprovalForAll(address,bool)": "infinite",
				"setLatestJolamanData(uint256)": "46896",
				"setMintingPrice(uint64)": "24790",
				"specialPayandMint()": "3256",
				"supportsInterface(bytes4)": "1064",
				"symbol()": "infinite",
				"tokenByIndex(uint256)": "infinite",
				"tokenOfOwnerByIndex(address,uint256)": "infinite",
				"tokenOwner(uint256)": "2930",
				"tokenURI(uint256)": "infinite",
				"totalJolamanData(uint256,uint256)": "infinite",
				"totalOwnedTokens(address,uint256)": "infinite",
				"totalSupply()": "2514",
				"transferFrom(address,address,uint256)": "infinite",
				"transferOwnership(address)": "30811"
			},
			"internal": {
				"checkBalance()": "2664",
				"checkVal()": "2198",
				"getRandSpecialTokenType(uint256)": "infinite",
				"getRandTokenType(uint256)": "infinite",
				"mappingWrap(uint256,address)": "infinite",
				"randomGenerator()": "infinite",
				"specialRandomGenerator()": "infinite"
			}
		},
		"methodIdentifiers": {
			"AlreadyMint(uint256)": "0c401d7e",
			"DEFAULT_ADMIN_ROLE()": "a217fddf",
			"MAX_NORMAL_TOKEN_COUNT()": "70446bbe",
			"MAX_SPECIAL_TOKEN_COUNT()": "4707a389",
			"MINTER_ROLE()": "d5391393",
			"SPECIAL_MINTER_ROLE()": "74e3447a",
			"SpecialAlreadyMint(uint256)": "d2c45618",
			"_normalTokenIdCount()": "eecf2033",
			"_owner()": "b2bdfa7b",
			"_specialTokenIdCount()": "b6612d76",
			"addWhiteList(address)": "e7cd4a04",
			"approve(address,uint256)": "095ea7b3",
			"balanceOf(address)": "70a08231",
			"getApproved(uint256)": "081812fc",
			"getBalance(address)": "f8b2cb4f",
			"getCurrent()": "35a5cfcb",
			"getJolamanTokenType(uint256)": "3e334cf0",
			"getLatestJolamanData()": "ed14d640",
			"getRoleAdmin(bytes32)": "248a9ca3",
			"getTotalJolamanData(uint256)": "0d4cc788",
			"getTotalOwnedTokens(address)": "90e41b6e",
			"grantRole(bytes32,address)": "2f2ff15d",
			"hasRole(bytes32,address)": "91d14854",
			"isApprovedForAll(address,address)": "e985e9c5",
			"isWhiteList(address)": "f99031a7",
			"latestJolamanData(uint256)": "e8f78026",
			"mappedJolamanTokenData(uint256)": "37874127",
			"metadataURI()": "03ee438c",
			"mintingPrice()": "35db70b5",
			"name()": "06fdde03",
			"owner()": "8da5cb5b",
			"ownerOf(uint256)": "6352211e",
			"payandMint()": "73ff361b",
			"payment()": "42f6487a",
			"removeWhiteList(address)": "2042e5c2",
			"renounceOwnership()": "715018a6",
			"renounceRole(bytes32,address)": "36568abe",
			"revokeRole(bytes32,address)": "d547741f",
			"safeMint(address)": "40d097c3",
			"safeMintforWhitelist(address)": "c1514d92",
			"safeTransferFrom(address,address,uint256)": "42842e0e",
			"safeTransferFrom(address,address,uint256,bytes)": "b88d4fde",
			"setApprovalForAll(address,bool)": "a22cb465",
			"setLatestJolamanData(uint256)": "4e722994",
			"setMintingPrice(uint64)": "5aa961e5",
			"specialPayandMint()": "62c9fe06",
			"supportsInterface(bytes4)": "01ffc9a7",
			"symbol()": "95d89b41",
			"tokenByIndex(uint256)": "4f6ccce7",
			"tokenOfOwnerByIndex(address,uint256)": "2f745c59",
			"tokenOwner(uint256)": "1caaa487",
			"tokenURI(uint256)": "c87b56dd",
			"totalJolamanData(uint256,uint256)": "d54f62b0",
			"totalOwnedTokens(address,uint256)": "2f08480d",
			"totalSupply()": "18160ddd",
			"transferFrom(address,address,uint256)": "23b872dd",
			"transferOwnership(address)": "f2fde38b"
		}
	},
	"abi": [
		{
			"inputs": [
				{
					"internalType": "string",
					"name": "_metadataURI",
					"type": "string"
				}
			],
			"stateMutability": "nonpayable",
			"type": "constructor"
		},
		{
			"anonymous": false,
			"inputs": [
				{
					"indexed": true,
					"internalType": "address",
					"name": "owner",
					"type": "address"
				},
				{
					"indexed": true,
					"internalType": "address",
					"name": "approved",
					"type": "address"
				},
				{
					"indexed": true,
					"internalType": "uint256",
					"name": "tokenId",
					"type": "uint256"
				}
			],
			"name": "Approval",
			"type": "event"
		},
		{
			"anonymous": false,
			"inputs": [
				{
					"indexed": true,
					"internalType": "address",
					"name": "owner",
					"type": "address"
				},
				{
					"indexed": true,
					"internalType": "address",
					"name": "operator",
					"type": "address"
				},
				{
					"indexed": false,
					"internalType": "bool",
					"name": "approved",
					"type": "bool"
				}
			],
			"name": "ApprovalForAll",
			"type": "event"
		},
		{
			"anonymous": false,
			"inputs": [
				{
					"indexed": true,
					"internalType": "address",
					"name": "previousOwner",
					"type": "address"
				},
				{
					"indexed": true,
					"internalType": "address",
					"name": "newOwner",
					"type": "address"
				}
			],
			"name": "OwnershipTransferred",
			"type": "event"
		},
		{
			"anonymous": false,
			"inputs": [
				{
					"indexed": true,
					"internalType": "bytes32",
					"name": "role",
					"type": "bytes32"
				},
				{
					"indexed": true,
					"internalType": "bytes32",
					"name": "previousAdminRole",
					"type": "bytes32"
				},
				{
					"indexed": true,
					"internalType": "bytes32",
					"name": "newAdminRole",
					"type": "bytes32"
				}
			],
			"name": "RoleAdminChanged",
			"type": "event"
		},
		{
			"anonymous": false,
			"inputs": [
				{
					"indexed": true,
					"internalType": "bytes32",
					"name": "role",
					"type": "bytes32"
				},
				{
					"indexed": true,
					"internalType": "address",
					"name": "account",
					"type": "address"
				},
				{
					"indexed": true,
					"internalType": "address",
					"name": "sender",
					"type": "address"
				}
			],
			"name": "RoleGranted",
			"type": "event"
		},
		{
			"anonymous": false,
			"inputs": [
				{
					"indexed": true,
					"internalType": "bytes32",
					"name": "role",
					"type": "bytes32"
				},
				{
					"indexed": true,
					"internalType": "address",
					"name": "account",
					"type": "address"
				},
				{
					"indexed": true,
					"internalType": "address",
					"name": "sender",
					"type": "address"
				}
			],
			"name": "RoleRevoked",
			"type": "event"
		},
		{
			"anonymous": false,
			"inputs": [
				{
					"indexed": true,
					"internalType": "address",
					"name": "from",
					"type": "address"
				},
				{
					"indexed": true,
					"internalType": "address",
					"name": "to",
					"type": "address"
				},
				{
					"indexed": true,
					"internalType": "uint256",
					"name": "tokenId",
					"type": "uint256"
				}
			],
			"name": "Transfer",
			"type": "event"
		},
		{
			"inputs": [
				{
					"internalType": "uint256",
					"name": "",
					"type": "uint256"
				}
			],
			"name": "AlreadyMint",
			"outputs": [
				{
					"internalType": "bool",
					"name": "",
					"type": "bool"
				}
			],
			"stateMutability": "view",
			"type": "function"
		},
		{
			"inputs": [],
			"name": "DEFAULT_ADMIN_ROLE",
			"outputs": [
				{
					"internalType": "bytes32",
					"name": "",
					"type": "bytes32"
				}
			],
			"stateMutability": "view",
			"type": "function"
		},
		{
			"inputs": [],
			"name": "MAX_NORMAL_TOKEN_COUNT",
			"outputs": [
				{
					"internalType": "uint256",
					"name": "",
					"type": "uint256"
				}
			],
			"stateMutability": "view",
			"type": "function"
		},
		{
			"inputs": [],
			"name": "MAX_SPECIAL_TOKEN_COUNT",
			"outputs": [
				{
					"internalType": "uint256",
					"name": "",
					"type": "uint256"
				}
			],
			"stateMutability": "view",
			"type": "function"
		},
		{
			"inputs": [],
			"name": "MINTER_ROLE",
			"outputs": [
				{
					"internalType": "bytes32",
					"name": "",
					"type": "bytes32"
				}
			],
			"stateMutability": "view",
			"type": "function"
		},
		{
			"inputs": [],
			"name": "SPECIAL_MINTER_ROLE",
			"outputs": [
				{
					"internalType": "bytes32",
					"name": "",
					"type": "bytes32"
				}
			],
			"stateMutability": "view",
			"type": "function"
		},
		{
			"inputs": [
				{
					"internalType": "uint256",
					"name": "",
					"type": "uint256"
				}
			],
			"name": "SpecialAlreadyMint",
			"outputs": [
				{
					"internalType": "bool",
					"name": "",
					"type": "bool"
				}
			],
			"stateMutability": "view",
			"type": "function"
		},
		{
			"inputs": [],
			"name": "_normalTokenIdCount",
			"outputs": [
				{
					"internalType": "uint256",
					"name": "",
					"type": "uint256"
				}
			],
			"stateMutability": "view",
			"type": "function"
		},
		{
			"inputs": [],
			"name": "_owner",
			"outputs": [
				{
					"internalType": "address",
					"name": "",
					"type": "address"
				}
			],
			"stateMutability": "view",
			"type": "function"
		},
		{
			"inputs": [],
			"name": "_specialTokenIdCount",
			"outputs": [
				{
					"internalType": "uint256",
					"name": "",
					"type": "uint256"
				}
			],
			"stateMutability": "view",
			"type": "function"
		},
		{
			"inputs": [
				{
					"internalType": "address",
					"name": "_toWhiteList",
					"type": "address"
				}
			],
			"name": "addWhiteList",
			"outputs": [],
			"stateMutability": "nonpayable",
			"type": "function"
		},
		{
			"inputs": [
				{
					"internalType": "address",
					"name": "to",
					"type": "address"
				},
				{
					"internalType": "uint256",
					"name": "tokenId",
					"type": "uint256"
				}
			],
			"name": "approve",
			"outputs": [],
			"stateMutability": "nonpayable",
			"type": "function"
		},
		{
			"inputs": [
				{
					"internalType": "address",
					"name": "owner",
					"type": "address"
				}
			],
			"name": "balanceOf",
			"outputs": [
				{
					"internalType": "uint256",
					"name": "",
					"type": "uint256"
				}
			],
			"stateMutability": "view",
			"type": "function"
		},
		{
			"inputs": [
				{
					"internalType": "uint256",
					"name": "tokenId",
					"type": "uint256"
				}
			],
			"name": "getApproved",
			"outputs": [
				{
					"internalType": "address",
					"name": "",
					"type": "address"
				}
			],
			"stateMutability": "view",
			"type": "function"
		},
		{
			"inputs": [
				{
					"internalType": "address",
					"name": "_to",
					"type": "address"
				}
			],
			"name": "getBalance",
			"outputs": [
				{
					"internalType": "uint256",
					"name": "",
					"type": "uint256"
				}
			],
			"stateMutability": "view",
			"type": "function"
		},
		{
			"inputs": [],
			"name": "getCurrent",
			"outputs": [
				{
					"internalType": "uint256",
					"name": "",
					"type": "uint256"
				},
				{
					"internalType": "uint256",
					"name": "",
					"type": "uint256"
				},
				{
					"internalType": "uint256",
					"name": "",
					"type": "uint256"
				},
				{
					"internalType": "uint256",
					"name": "",
					"type": "uint256"
				}
			],
			"stateMutability": "view",
			"type": "function"
		},
		{
			"inputs": [
				{
					"internalType": "uint256",
					"name": "_tokenId",
					"type": "uint256"
				}
			],
			"name": "getJolamanTokenType",
			"outputs": [
				{
					"internalType": "uint256",
					"name": "",
					"type": "uint256"
				}
			],
			"stateMutability": "view",
			"type": "function"
		},
		{
			"inputs": [],
			"name": "getLatestJolamanData",
			"outputs": [
				{
					"internalType": "uint256",
					"name": "",
					"type": "uint256"
				}
			],
			"stateMutability": "view",
			"type": "function"
		},
		{
			"inputs": [
				{
					"internalType": "bytes32",
					"name": "role",
					"type": "bytes32"
				}
			],
			"name": "getRoleAdmin",
			"outputs": [
				{
					"internalType": "bytes32",
					"name": "",
					"type": "bytes32"
				}
			],
			"stateMutability": "view",
			"type": "function"
		},
		{
			"inputs": [
				{
					"internalType": "uint256",
					"name": "x",
					"type": "uint256"
				}
			],
			"name": "getTotalJolamanData",
			"outputs": [
				{
					"internalType": "uint256[]",
					"name": "",
					"type": "uint256[]"
				}
			],
			"stateMutability": "view",
			"type": "function"
		},
		{
			"inputs": [
				{
					"internalType": "address",
					"name": "ownerAddress",
					"type": "address"
				}
			],
			"name": "getTotalOwnedTokens",
			"outputs": [
				{
					"internalType": "uint256[]",
					"name": "",
					"type": "uint256[]"
				}
			],
			"stateMutability": "view",
			"type": "function"
		},
		{
			"inputs": [
				{
					"internalType": "bytes32",
					"name": "role",
					"type": "bytes32"
				},
				{
					"internalType": "address",
					"name": "account",
					"type": "address"
				}
			],
			"name": "grantRole",
			"outputs": [],
			"stateMutability": "nonpayable",
			"type": "function"
		},
		{
			"inputs": [
				{
					"internalType": "bytes32",
					"name": "role",
					"type": "bytes32"
				},
				{
					"internalType": "address",
					"name": "account",
					"type": "address"
				}
			],
			"name": "hasRole",
			"outputs": [
				{
					"internalType": "bool",
					"name": "",
					"type": "bool"
				}
			],
			"stateMutability": "view",
			"type": "function"
		},
		{
			"inputs": [
				{
					"internalType": "address",
					"name": "owner",
					"type": "address"
				},
				{
					"internalType": "address",
					"name": "operator",
					"type": "address"
				}
			],
			"name": "isApprovedForAll",
			"outputs": [
				{
					"internalType": "bool",
					"name": "",
					"type": "bool"
				}
			],
			"stateMutability": "view",
			"type": "function"
		},
		{
			"inputs": [
				{
					"internalType": "address",
					"name": "",
					"type": "address"
				}
			],
			"name": "isWhiteList",
			"outputs": [
				{
					"internalType": "bool",
					"name": "",
					"type": "bool"
				}
			],
			"stateMutability": "view",
			"type": "function"
		},
		{
			"inputs": [
				{
					"internalType": "uint256",
					"name": "",
					"type": "uint256"
				}
			],
			"name": "latestJolamanData",
			"outputs": [
				{
					"internalType": "uint256",
					"name": "",
					"type": "uint256"
				}
			],
			"stateMutability": "view",
			"type": "function"
		},
		{
			"inputs": [
				{
					"internalType": "uint256",
					"name": "",
					"type": "uint256"
				}
			],
			"name": "mappedJolamanTokenData",
			"outputs": [
				{
					"internalType": "uint256",
					"name": "jolamanTokenType",
					"type": "uint256"
				}
			],
			"stateMutability": "view",
			"type": "function"
		},
		{
			"inputs": [],
			"name": "metadataURI",
			"outputs": [
				{
					"internalType": "string",
					"name": "",
					"type": "string"
				}
			],
			"stateMutability": "view",
			"type": "function"
		},
		{
			"inputs": [],
			"name": "mintingPrice",
			"outputs": [
				{
					"internalType": "uint64",
					"name": "",
					"type": "uint64"
				}
			],
			"stateMutability": "view",
			"type": "function"
		},
		{
			"inputs": [],
			"name": "name",
			"outputs": [
				{
					"internalType": "string",
					"name": "",
					"type": "string"
				}
			],
			"stateMutability": "view",
			"type": "function"
		},
		{
			"inputs": [],
			"name": "owner",
			"outputs": [
				{
					"internalType": "address",
					"name": "",
					"type": "address"
				}
			],
			"stateMutability": "view",
			"type": "function"
		},
		{
			"inputs": [
				{
					"internalType": "uint256",
					"name": "tokenId",
					"type": "uint256"
				}
			],
			"name": "ownerOf",
			"outputs": [
				{
					"internalType": "address",
					"name": "",
					"type": "address"
				}
			],
			"stateMutability": "view",
			"type": "function"
		},
		{
			"inputs": [],
			"name": "payandMint",
			"outputs": [],
			"stateMutability": "payable",
			"type": "function"
		},
		{
			"inputs": [],
			"name": "payment",
			"outputs": [
				{
					"internalType": "bool",
					"name": "",
					"type": "bool"
				}
			],
			"stateMutability": "payable",
			"type": "function"
		},
		{
			"inputs": [
				{
					"internalType": "address",
					"name": "_toWhiteList",
					"type": "address"
				}
			],
			"name": "removeWhiteList",
			"outputs": [],
			"stateMutability": "nonpayable",
			"type": "function"
		},
		{
			"inputs": [],
			"name": "renounceOwnership",
			"outputs": [],
			"stateMutability": "nonpayable",
			"type": "function"
		},
		{
			"inputs": [
				{
					"internalType": "bytes32",
					"name": "role",
					"type": "bytes32"
				},
				{
					"internalType": "address",
					"name": "account",
					"type": "address"
				}
			],
			"name": "renounceRole",
			"outputs": [],
			"stateMutability": "nonpayable",
			"type": "function"
		},
		{
			"inputs": [
				{
					"internalType": "bytes32",
					"name": "role",
					"type": "bytes32"
				},
				{
					"internalType": "address",
					"name": "account",
					"type": "address"
				}
			],
			"name": "revokeRole",
			"outputs": [],
			"stateMutability": "nonpayable",
			"type": "function"
		},
		{
			"inputs": [
				{
					"internalType": "address",
					"name": "to",
					"type": "address"
				}
			],
			"name": "safeMint",
			"outputs": [],
			"stateMutability": "payable",
			"type": "function"
		},
		{
			"inputs": [
				{
					"internalType": "address",
					"name": "to",
					"type": "address"
				}
			],
			"name": "safeMintforWhitelist",
			"outputs": [],
			"stateMutability": "payable",
			"type": "function"
		},
		{
			"inputs": [
				{
					"internalType": "address",
					"name": "from",
					"type": "address"
				},
				{
					"internalType": "address",
					"name": "to",
					"type": "address"
				},
				{
					"internalType": "uint256",
					"name": "tokenId",
					"type": "uint256"
				}
			],
			"name": "safeTransferFrom",
			"outputs": [],
			"stateMutability": "nonpayable",
			"type": "function"
		},
		{
			"inputs": [
				{
					"internalType": "address",
					"name": "from",
					"type": "address"
				},
				{
					"internalType": "address",
					"name": "to",
					"type": "address"
				},
				{
					"internalType": "uint256",
					"name": "tokenId",
					"type": "uint256"
				},
				{
					"internalType": "bytes",
					"name": "_data",
					"type": "bytes"
				}
			],
			"name": "safeTransferFrom",
			"outputs": [],
			"stateMutability": "nonpayable",
			"type": "function"
		},
		{
			"inputs": [
				{
					"internalType": "address",
					"name": "operator",
					"type": "address"
				},
				{
					"internalType": "bool",
					"name": "approved",
					"type": "bool"
				}
			],
			"name": "setApprovalForAll",
			"outputs": [],
			"stateMutability": "nonpayable",
			"type": "function"
		},
		{
			"inputs": [
				{
					"internalType": "uint256",
					"name": "joldata",
					"type": "uint256"
				}
			],
			"name": "setLatestJolamanData",
			"outputs": [],
			"stateMutability": "nonpayable",
			"type": "function"
		},
		{
			"inputs": [
				{
					"internalType": "uint64",
					"name": "_price",
					"type": "uint64"
				}
			],
			"name": "setMintingPrice",
			"outputs": [],
			"stateMutability": "nonpayable",
			"type": "function"
		},
		{
			"inputs": [],
			"name": "specialPayandMint",
			"outputs": [],
			"stateMutability": "payable",
			"type": "function"
		},
		{
			"inputs": [
				{
					"internalType": "bytes4",
					"name": "interfaceId",
					"type": "bytes4"
				}
			],
			"name": "supportsInterface",
			"outputs": [
				{
					"internalType": "bool",
					"name": "",
					"type": "bool"
				}
			],
			"stateMutability": "view",
			"type": "function"
		},
		{
			"inputs": [],
			"name": "symbol",
			"outputs": [
				{
					"internalType": "string",
					"name": "",
					"type": "string"
				}
			],
			"stateMutability": "view",
			"type": "function"
		},
		{
			"inputs": [
				{
					"internalType": "uint256",
					"name": "index",
					"type": "uint256"
				}
			],
			"name": "tokenByIndex",
			"outputs": [
				{
					"internalType": "uint256",
					"name": "",
					"type": "uint256"
				}
			],
			"stateMutability": "view",
			"type": "function"
		},
		{
			"inputs": [
				{
					"internalType": "address",
					"name": "owner",
					"type": "address"
				},
				{
					"internalType": "uint256",
					"name": "index",
					"type": "uint256"
				}
			],
			"name": "tokenOfOwnerByIndex",
			"outputs": [
				{
					"internalType": "uint256",
					"name": "",
					"type": "uint256"
				}
			],
			"stateMutability": "view",
			"type": "function"
		},
		{
			"inputs": [
				{
					"internalType": "uint256",
					"name": "",
					"type": "uint256"
				}
			],
			"name": "tokenOwner",
			"outputs": [
				{
					"internalType": "address",
					"name": "",
					"type": "address"
				}
			],
			"stateMutability": "view",
			"type": "function"
		},
		{
			"inputs": [
				{
					"internalType": "uint256",
					"name": "_tokenId",
					"type": "uint256"
				}
			],
			"name": "tokenURI",
			"outputs": [
				{
					"internalType": "string",
					"name": "",
					"type": "string"
				}
			],
			"stateMutability": "view",
			"type": "function"
		},
		{
			"inputs": [
				{
					"internalType": "uint256",
					"name": "",
					"type": "uint256"
				},
				{
					"internalType": "uint256",
					"name": "",
					"type": "uint256"
				}
			],
			"name": "totalJolamanData",
			"outputs": [
				{
					"internalType": "uint256",
					"name": "",
					"type": "uint256"
				}
			],
			"stateMutability": "view",
			"type": "function"
		},
		{
			"inputs": [
				{
					"internalType": "address",
					"name": "",
					"type": "address"
				},
				{
					"internalType": "uint256",
					"name": "",
					"type": "uint256"
				}
			],
			"name": "totalOwnedTokens",
			"outputs": [
				{
					"internalType": "uint256",
					"name": "",
					"type": "uint256"
				}
			],
			"stateMutability": "view",
			"type": "function"
		},
		{
			"inputs": [],
			"name": "totalSupply",
			"outputs": [
				{
					"internalType": "uint256",
					"name": "",
					"type": "uint256"
				}
			],
			"stateMutability": "view",
			"type": "function"
		},
		{
			"inputs": [
				{
					"internalType": "address",
					"name": "from",
					"type": "address"
				},
				{
					"internalType": "address",
					"name": "to",
					"type": "address"
				},
				{
					"internalType": "uint256",
					"name": "tokenId",
					"type": "uint256"
				}
			],
			"name": "transferFrom",
			"outputs": [],
			"stateMutability": "nonpayable",
			"type": "function"
		},
		{
			"inputs": [
				{
					"internalType": "address",
					"name": "newOwner",
					"type": "address"
				}
			],
			"name": "transferOwnership",
			"outputs": [],
			"stateMutability": "nonpayable",
			"type": "function"
		}
	]
}