{
  "contractName": "DonateContract",
  "abi": [
    {
      "inputs": [],
      "stateMutability": "nonpayable",
      "type": "constructor"
    },
    {
      "inputs": [],
      "name": "pay",
      "outputs": [],
      "stateMutability": "payable",
      "type": "function"
    },
    {
      "inputs": [],
      "name": "getTotalIncome",
      "outputs": [
        {
          "internalType": "uint256",
          "name": "",
          "type": "uint256"
        }
      ],
      "stateMutability": "view",
      "type": "function"
    },
    {
      "inputs": [
        {
          "internalType": "address",
          "name": "_address",
          "type": "address"
        }
      ],
      "name": "getBalance",
      "outputs": [
        {
          "internalType": "uint256",
          "name": "",
          "type": "uint256"
        }
      ],
      "stateMutability": "view",
      "type": "function"
    }
  ],
  "bytecode": "0x608060405234801561001057600080fd5b5033600160006101000a81548173ffffffffffffffffffffffffffffffffffffffff021916908373ffffffffffffffffffffffffffffffffffffffff1602179055506104e5806100616000396000f3fe6080604052600436106100345760003560e01c80631b9265b81461003957806324b6046a14610043578063f8b2cb4f1461006e575b600080fd5b6100416100ab565b005b34801561004f57600080fd5b506100586101db565b6040516100659190610250565b60405180910390f35b34801561007a57600080fd5b50610095600480360381019061009091906102ce565b6101e4565b6040516100a29190610250565b60405180910390f35b6100b3610205565b6100f2576040517f08c379a00000000000000000000000000000000000000000000000000000000081526004016100e990610358565b60405180910390fd5b6000600160009054906101000a900473ffffffffffffffffffffffffffffffffffffffff1673ffffffffffffffffffffffffffffffffffffffff163460405161013a906103a9565b60006040518083038185875af1925050503d8060008114610177576040519150601f19603f3d011682016040523d82523d6000602084013e61017c565b606091505b50509050806101c0576040517f08c379a00000000000000000000000000000000000000000000000000000000081526004016101b79061040a565b60405180910390fd5b346000808282546101d19190610459565b9250508190555050565b60008054905090565b60008173ffffffffffffffffffffffffffffffffffffffff16319050919050565b6000343373ffffffffffffffffffffffffffffffffffffffff1631111561022f5760019050610234565b600090505b90565b6000819050919050565b61024a81610237565b82525050565b60006020820190506102656000830184610241565b92915050565b600080fd5b600073ffffffffffffffffffffffffffffffffffffffff82169050919050565b600061029b82610270565b9050919050565b6102ab81610290565b81146102b657600080fd5b50565b6000813590506102c8816102a2565b92915050565b6000602082840312156102e4576102e361026b565b5b60006102f2848285016102b9565b91505092915050565b600082825260208201905092915050565b7f62616c616e6365206e6f7420656e6f7567680000000000000000000000000000600082015250565b60006103426012836102fb565b915061034d8261030c565b602082019050919050565b6000602082019050818103600083015261037181610335565b9050919050565b600081905092915050565b50565b6000610393600083610378565b915061039e82610383565b600082019050919050565b60006103b482610386565b9150819050919050565b7f4661696c656420746f2073656e64206d6f6e6579000000000000000000000000600082015250565b60006103f46014836102fb565b91506103ff826103be565b602082019050919050565b60006020820190508181036000830152610423816103e7565b9050919050565b7f4e487b7100000000000000000000000000000000000000000000000000000000600052601160045260246000fd5b600061046482610237565b915061046f83610237565b9250827fffffffffffffffffffffffffffffffffffffffffffffffffffffffffffffffff038211156104a4576104a361042a565b5b82820190509291505056fea26469706673582212201a11407f0fce40bc6e7c9e2ff23b193aad8ac5d86236c048d2850bb932618d4164736f6c634300080e0033",
  "immutableReferences": {},
  "source": "// SPDX-License-Identifier: MIT\r\npragma solidity ^0.8.0;\r\n\r\ncontract DonateContract {\r\n\r\n  uint totalIncome; // the amount of donations\r\n  address payable owner; // contract creator's address\r\n  constructor() {\r\n    owner = payable(msg.sender); // setting the contract creator\r\n  }\r\n\r\n  function checkBalance() internal returns (bool) {\r\n      if (msg.sender.balance > msg.value) {\r\n          return true;\r\n      } else {\r\n          return false;\r\n      }\r\n  }\r\n  function pay() public payable {\r\n    require(checkBalance(), \"balance not enough\");\r\n    (bool success,) = owner.call{value: msg.value}(\"\");\r\n    require(success, \"Failed to send money\");\r\n    totalIncome += msg.value;\r\n  }\r\n\r\n  function getTotalIncome() view public returns(uint) {\r\n    return totalIncome;\r\n  }\r\n  function getBalance(address _address) view public returns(uint) {\r\n    return _address.balance;\r\n  }\r\n}\r\n\r\n\r\n",
  "sourcePath": "D:\\kyoungil\\Blockchain_based_Fintech\\workspace\\nft-defi-hashbrand\\nft-gusaguo\\contracts\\klayTransfetTest.sol",
  "compiler": {
    "name": "solc",
    "version": "0.8.14+commit.80d49f37.Emscripten.clang"
  },
  "schemaVersion": "3.4.7",
  "updatedAt": "2022-06-03T13:18:37.495Z",
  "devdoc": {
    "kind": "dev",
    "methods": {},
    "version": 1
  },
  "userdoc": {
    "kind": "user",
    "methods": {},
    "version": 1
  }
}