{
  "contractName": "MintToken",
  "abi": [
    {
      "inputs": [
        {
          "internalType": "string",
          "name": "_name",
          "type": "string"
        },
        {
          "internalType": "string",
          "name": "_symbol",
          "type": "string"
        },
        {
          "internalType": "string",
          "name": "_metadataURI",
          "type": "string"
        }
      ],
      "stateMutability": "nonpayable",
      "type": "constructor"
    },
    {
      "anonymous": false,
      "inputs": [
        {
          "indexed": true,
          "internalType": "address",
          "name": "owner",
          "type": "address"
        },
        {
          "indexed": true,
          "internalType": "address",
          "name": "approved",
          "type": "address"
        },
        {
          "indexed": true,
          "internalType": "uint256",
          "name": "tokenId",
          "type": "uint256"
        }
      ],
      "name": "Approval",
      "type": "event"
    },
    {
      "anonymous": false,
      "inputs": [
        {
          "indexed": true,
          "internalType": "address",
          "name": "owner",
          "type": "address"
        },
        {
          "indexed": true,
          "internalType": "address",
          "name": "operator",
          "type": "address"
        },
        {
          "indexed": false,
          "internalType": "bool",
          "name": "approved",
          "type": "bool"
        }
      ],
      "name": "ApprovalForAll",
      "type": "event"
    },
    {
      "anonymous": false,
      "inputs": [
        {
          "indexed": true,
          "internalType": "address",
          "name": "previousOwner",
          "type": "address"
        },
        {
          "indexed": true,
          "internalType": "address",
          "name": "newOwner",
          "type": "address"
        }
      ],
      "name": "OwnershipTransferred",
      "type": "event"
    },
    {
      "anonymous": false,
      "inputs": [
        {
          "indexed": true,
          "internalType": "address",
          "name": "from",
          "type": "address"
        },
        {
          "indexed": true,
          "internalType": "address",
          "name": "to",
          "type": "address"
        },
        {
          "indexed": true,
          "internalType": "uint256",
          "name": "tokenId",
          "type": "uint256"
        }
      ],
      "name": "Transfer",
      "type": "event"
    },
    {
      "inputs": [
        {
          "internalType": "uint256",
          "name": "",
          "type": "uint256"
        }
      ],
      "name": "AlreadyMint",
      "outputs": [
        {
          "internalType": "uint256",
          "name": "",
          "type": "uint256"
        }
      ],
      "stateMutability": "view",
      "type": "function"
    },
    {
      "inputs": [],
      "name": "MAX_TOKEN_COUNT",
      "outputs": [
        {
          "internalType": "uint256",
          "name": "",
          "type": "uint256"
        }
      ],
      "stateMutability": "view",
      "type": "function"
    },
    {
      "inputs": [],
      "name": "TOKEN_RANK_LENGTH",
      "outputs": [
        {
          "internalType": "uint256",
          "name": "",
          "type": "uint256"
        }
      ],
      "stateMutability": "view",
      "type": "function"
    },
    {
      "inputs": [],
      "name": "TOKEN_TYPE_LENGTH",
      "outputs": [
        {
          "internalType": "uint256",
          "name": "",
          "type": "uint256"
        }
      ],
      "stateMutability": "view",
      "type": "function"
    },
    {
      "inputs": [
        {
          "internalType": "address",
          "name": "to",
          "type": "address"
        },
        {
          "internalType": "uint256",
          "name": "tokenId",
          "type": "uint256"
        }
      ],
      "name": "approve",
      "outputs": [],
      "stateMutability": "nonpayable",
      "type": "function"
    },
    {
      "inputs": [
        {
          "internalType": "address",
          "name": "owner",
          "type": "address"
        }
      ],
      "name": "balanceOf",
      "outputs": [
        {
          "internalType": "uint256",
          "name": "",
          "type": "uint256"
        }
      ],
      "stateMutability": "view",
      "type": "function"
    },
    {
      "inputs": [
        {
          "internalType": "uint256",
          "name": "",
          "type": "uint256"
        },
        {
          "internalType": "uint256",
          "name": "",
          "type": "uint256"
        }
      ],
      "name": "gemTokenCount",
      "outputs": [
        {
          "internalType": "uint256",
          "name": "",
          "type": "uint256"
        }
      ],
      "stateMutability": "view",
      "type": "function"
    },
    {
      "inputs": [
        {
          "internalType": "uint256",
          "name": "",
          "type": "uint256"
        }
      ],
      "name": "gemTokenData",
      "outputs": [
        {
          "internalType": "uint256",
          "name": "gemTokenType",
          "type": "uint256"
        }
      ],
      "stateMutability": "view",
      "type": "function"
    },
    {
      "inputs": [],
      "name": "gemTokenPrice",
      "outputs": [
        {
          "internalType": "uint256",
          "name": "",
          "type": "uint256"
        }
      ],
      "stateMutability": "view",
      "type": "function"
    },
    {
      "inputs": [
        {
          "internalType": "uint256",
          "name": "tokenId",
          "type": "uint256"
        }
      ],
      "name": "getApproved",
      "outputs": [
        {
          "internalType": "address",
          "name": "",
          "type": "address"
        }
      ],
      "stateMutability": "view",
      "type": "function"
    },
    {
      "inputs": [
        {
          "internalType": "address",
          "name": "owner",
          "type": "address"
        },
        {
          "internalType": "address",
          "name": "operator",
          "type": "address"
        }
      ],
      "name": "isApprovedForAll",
      "outputs": [
        {
          "internalType": "bool",
          "name": "",
          "type": "bool"
        }
      ],
      "stateMutability": "view",
      "type": "function"
    },
    {
      "inputs": [
        {
          "internalType": "address",
          "name": "",
          "type": "address"
        }
      ],
      "name": "isWhiteList",
      "outputs": [
        {
          "internalType": "bool",
          "name": "",
          "type": "bool"
        }
      ],
      "stateMutability": "view",
      "type": "function"
    },
    {
      "inputs": [],
      "name": "metadataURI",
      "outputs": [
        {
          "internalType": "string",
          "name": "",
          "type": "string"
        }
      ],
      "stateMutability": "view",
      "type": "function"
    },
    {
      "inputs": [],
      "name": "name",
      "outputs": [
        {
          "internalType": "string",
          "name": "",
          "type": "string"
        }
      ],
      "stateMutability": "view",
      "type": "function"
    },
    {
      "inputs": [],
      "name": "owner",
      "outputs": [
        {
          "internalType": "address",
          "name": "",
          "type": "address"
        }
      ],
      "stateMutability": "view",
      "type": "function"
    },
    {
      "inputs": [
        {
          "internalType": "uint256",
          "name": "tokenId",
          "type": "uint256"
        }
      ],
      "name": "ownerOf",
      "outputs": [
        {
          "internalType": "address",
          "name": "",
          "type": "address"
        }
      ],
      "stateMutability": "view",
      "type": "function"
    },
    {
      "inputs": [],
      "name": "renounceOwnership",
      "outputs": [],
      "stateMutability": "nonpayable",
      "type": "function"
    },
    {
      "inputs": [
        {
          "internalType": "address",
          "name": "from",
          "type": "address"
        },
        {
          "internalType": "address",
          "name": "to",
          "type": "address"
        },
        {
          "internalType": "uint256",
          "name": "tokenId",
          "type": "uint256"
        }
      ],
      "name": "safeTransferFrom",
      "outputs": [],
      "stateMutability": "nonpayable",
      "type": "function"
    },
    {
      "inputs": [
        {
          "internalType": "address",
          "name": "from",
          "type": "address"
        },
        {
          "internalType": "address",
          "name": "to",
          "type": "address"
        },
        {
          "internalType": "uint256",
          "name": "tokenId",
          "type": "uint256"
        },
        {
          "internalType": "bytes",
          "name": "_data",
          "type": "bytes"
        }
      ],
      "name": "safeTransferFrom",
      "outputs": [],
      "stateMutability": "nonpayable",
      "type": "function"
    },
    {
      "inputs": [
        {
          "internalType": "address",
          "name": "operator",
          "type": "address"
        },
        {
          "internalType": "bool",
          "name": "approved",
          "type": "bool"
        }
      ],
      "name": "setApprovalForAll",
      "outputs": [],
      "stateMutability": "nonpayable",
      "type": "function"
    },
    {
      "inputs": [
        {
          "internalType": "bytes4",
          "name": "interfaceId",
          "type": "bytes4"
        }
      ],
      "name": "supportsInterface",
      "outputs": [
        {
          "internalType": "bool",
          "name": "",
          "type": "bool"
        }
      ],
      "stateMutability": "view",
      "type": "function"
    },
    {
      "inputs": [],
      "name": "symbol",
      "outputs": [
        {
          "internalType": "string",
          "name": "",
          "type": "string"
        }
      ],
      "stateMutability": "view",
      "type": "function"
    },
    {
      "inputs": [
        {
          "internalType": "uint256",
          "name": "index",
          "type": "uint256"
        }
      ],
      "name": "tokenByIndex",
      "outputs": [
        {
          "internalType": "uint256",
          "name": "",
          "type": "uint256"
        }
      ],
      "stateMutability": "view",
      "type": "function"
    },
    {
      "inputs": [
        {
          "internalType": "address",
          "name": "owner",
          "type": "address"
        },
        {
          "internalType": "uint256",
          "name": "index",
          "type": "uint256"
        }
      ],
      "name": "tokenOfOwnerByIndex",
      "outputs": [
        {
          "internalType": "uint256",
          "name": "",
          "type": "uint256"
        }
      ],
      "stateMutability": "view",
      "type": "function"
    },
    {
      "inputs": [],
      "name": "totalSupply",
      "outputs": [
        {
          "internalType": "uint256",
          "name": "",
          "type": "uint256"
        }
      ],
      "stateMutability": "view",
      "type": "function"
    },
    {
      "inputs": [
        {
          "internalType": "address",
          "name": "from",
          "type": "address"
        },
        {
          "internalType": "address",
          "name": "to",
          "type": "address"
        },
        {
          "internalType": "uint256",
          "name": "tokenId",
          "type": "uint256"
        }
      ],
      "name": "transferFrom",
      "outputs": [],
      "stateMutability": "nonpayable",
      "type": "function"
    },
    {
      "inputs": [
        {
          "internalType": "address",
          "name": "newOwner",
          "type": "address"
        }
      ],
      "name": "transferOwnership",
      "outputs": [],
      "stateMutability": "nonpayable",
      "type": "function"
    },
    {
      "inputs": [
        {
          "internalType": "uint256",
          "name": "_tokenId",
          "type": "uint256"
        }
      ],
      "name": "tokenURI",
      "outputs": [
        {
          "internalType": "string",
          "name": "",
          "type": "string"
        }
      ],
      "stateMutability": "view",
      "type": "function"
    },
    {
      "inputs": [
        {
          "internalType": "address",
          "name": "_toWhiteList",
          "type": "address"
        }
      ],
      "name": "giveWhiteList",
      "outputs": [],
      "stateMutability": "nonpayable",
      "type": "function"
    },
    {
      "inputs": [],
      "name": "mintGemToken",
      "outputs": [],
      "stateMutability": "payable",
      "type": "function"
    },
    {
      "inputs": [
        {
          "internalType": "uint256",
          "name": "_tokenId",
          "type": "uint256"
        }
      ],
      "name": "getGemTokenType",
      "outputs": [
        {
          "internalType": "uint256",
          "name": "",
          "type": "uint256"
        }
      ],
      "stateMutability": "view",
      "type": "function"
    }
  ],
  "bytecode": "0x608060405260b4600c553480156200001657600080fd5b506040516200412f3803806200412f83398181016040528101906200003c9190620003cf565b828281600090805190602001906200005692919062000182565b5080600190805190602001906200006f92919062000182565b5050506200009262000086620000b460201b60201c565b620000bc60201b60201c565b80600b9080519060200190620000aa92919062000182565b50505050620004ec565b600033905090565b6000600a60009054906101000a900473ffffffffffffffffffffffffffffffffffffffff16905081600a60006101000a81548173ffffffffffffffffffffffffffffffffffffffff021916908373ffffffffffffffffffffffffffffffffffffffff1602179055508173ffffffffffffffffffffffffffffffffffffffff168173ffffffffffffffffffffffffffffffffffffffff167f8be0079c531659141344cd1fd0a4f28419497f9722a3daafe3b4186f6b6457e060405160405180910390a35050565b8280546200019090620004b7565b90600052602060002090601f016020900481019282620001b4576000855562000200565b82601f10620001cf57805160ff191683800117855562000200565b8280016001018555821562000200579182015b82811115620001ff578251825591602001919060010190620001e2565b5b5090506200020f919062000213565b5090565b5b808211156200022e57600081600090555060010162000214565b5090565b6000604051905090565b600080fd5b600080fd5b600080fd5b600080fd5b6000601f19601f8301169050919050565b7f4e487b7100000000000000000000000000000000000000000000000000000000600052604160045260246000fd5b6200029b8262000250565b810181811067ffffffffffffffff82111715620002bd57620002bc62000261565b5b80604052505050565b6000620002d262000232565b9050620002e0828262000290565b919050565b600067ffffffffffffffff82111562000303576200030262000261565b5b6200030e8262000250565b9050602081019050919050565b60005b838110156200033b5780820151818401526020810190506200031e565b838111156200034b576000848401525b50505050565b6000620003686200036284620002e5565b620002c6565b9050828152602081018484840111156200038757620003866200024b565b5b620003948482856200031b565b509392505050565b600082601f830112620003b457620003b362000246565b5b8151620003c684826020860162000351565b91505092915050565b600080600060608486031215620003eb57620003ea6200023c565b5b600084015167ffffffffffffffff8111156200040c576200040b62000241565b5b6200041a868287016200039c565b935050602084015167ffffffffffffffff8111156200043e576200043d62000241565b5b6200044c868287016200039c565b925050604084015167ffffffffffffffff81111562000470576200046f62000241565b5b6200047e868287016200039c565b9150509250925092565b7f4e487b7100000000000000000000000000000000000000000000000000000000600052602260045260246000fd5b60006002820490506001821680620004d057607f821691505b602082108103620004e657620004e562000488565b5b50919050565b613c3380620004fc6000396000f3fe6080604052600436106101d85760003560e01c806364eeeb7311610102578063c87b56dd11610095578063e985e9c511610064578063e985e9c5146106d9578063f2fde38b14610716578063f99031a71461073f578063fdef166b1461077c576101d8565b8063c87b56dd1461063e578063d0bbb0d71461067b578063d31cc788146106a6578063e0f67eb2146106b0576101d8565b806395d89b41116100d157806395d89b4114610584578063a22cb465146105af578063a3805054146105d8578063b88d4fde14610615576101d8565b806364eeeb73146104da57806370a0823114610505578063715018a6146105425780638da5cb5b14610559576101d8565b80630c401d7e1161017a57806333bea36b1161014957806333bea36b146103fa57806342842e0e146104375780634f6ccce7146104605780636352211e1461049d576101d8565b80630c401d7e1461032c57806318160ddd1461036957806323b872dd146103945780632f745c59146103bd576101d8565b80630700bfef116101b65780630700bfef1461027057806307c7f4eb1461029b578063081812fc146102c6578063095ea7b314610303576101d8565b806301ffc9a7146101dd57806303ee438c1461021a57806306fdde0314610245575b600080fd5b3480156101e957600080fd5b5061020460048036038101906101ff91906126ce565b6107b9565b6040516102119190612716565b60405180910390f35b34801561022657600080fd5b5061022f610833565b60405161023c91906127ca565b60405180910390f35b34801561025157600080fd5b5061025a6108c1565b60405161026791906127ca565b60405180910390f35b34801561027c57600080fd5b50610285610953565b6040516102929190612805565b60405180910390f35b3480156102a757600080fd5b506102b0610959565b6040516102bd9190612805565b60405180910390f35b3480156102d257600080fd5b506102ed60048036038101906102e8919061284c565b61095e565b6040516102fa91906128ba565b60405180910390f35b34801561030f57600080fd5b5061032a60048036038101906103259190612901565b6109e3565b005b34801561033857600080fd5b50610353600480360381019061034e919061284c565b610afa565b6040516103609190612805565b60405180910390f35b34801561037557600080fd5b5061037e610b1e565b60405161038b9190612805565b60405180910390f35b3480156103a057600080fd5b506103bb60048036038101906103b69190612941565b610b2b565b005b3480156103c957600080fd5b506103e460048036038101906103df9190612901565b610b8b565b6040516103f19190612805565b60405180910390f35b34801561040657600080fd5b50610421600480360381019061041c9190612994565b610c30565b60405161042e9190612805565b60405180910390f35b34801561044357600080fd5b5061045e60048036038101906104599190612941565b610c5e565b005b34801561046c57600080fd5b506104876004803603810190610482919061284c565b610c7e565b6040516104949190612805565b60405180910390f35b3480156104a957600080fd5b506104c460048036038101906104bf919061284c565b610cef565b6040516104d191906128ba565b60405180910390f35b3480156104e657600080fd5b506104ef610da0565b6040516104fc9190612805565b60405180910390f35b34801561051157600080fd5b5061052c600480360381019061052791906129d4565b610da5565b6040516105399190612805565b60405180910390f35b34801561054e57600080fd5b50610557610e5c565b005b34801561056557600080fd5b5061056e610ee4565b60405161057b91906128ba565b60405180910390f35b34801561059057600080fd5b50610599610f0e565b6040516105a691906127ca565b60405180910390f35b3480156105bb57600080fd5b506105d660048036038101906105d19190612a2d565b610fa0565b005b3480156105e457600080fd5b506105ff60048036038101906105fa919061284c565b610fb6565b60405161060c9190612805565b60405180910390f35b34801561062157600080fd5b5061063c60048036038101906106379190612ba2565b610fd6565b005b34801561064a57600080fd5b506106656004803603810190610660919061284c565b611038565b60405161067291906127ca565b60405180910390f35b34801561068757600080fd5b50610690611088565b60405161069d9190612805565b60405180910390f35b6106ae61108e565b005b3480156106bc57600080fd5b506106d760048036038101906106d291906129d4565b6111d3565b005b3480156106e557600080fd5b5061070060048036038101906106fb9190612c25565b6112aa565b60405161070d9190612716565b60405180910390f35b34801561072257600080fd5b5061073d600480360381019061073891906129d4565b61133e565b005b34801561074b57600080fd5b50610766600480360381019061076191906129d4565b611435565b6040516107739190612716565b60405180910390f35b34801561078857600080fd5b506107a3600480360381019061079e919061284c565b611455565b6040516107b09190612805565b60405180910390f35b60007f780e9d63000000000000000000000000000000000000000000000000000000007bffffffffffffffffffffffffffffffffffffffffffffffffffffffff1916827bffffffffffffffffffffffffffffffffffffffffffffffffffffffff1916148061082c575061082b82611473565b5b9050919050565b600b805461084090612c94565b80601f016020809104026020016040519081016040528092919081815260200182805461086c90612c94565b80156108b95780601f1061088e576101008083540402835291602001916108b9565b820191906000526020600020905b81548152906001019060200180831161089c57829003601f168201915b505050505081565b6060600080546108d090612c94565b80601f01602080910402602001604051908101604052809291908181526020018280546108fc90612c94565b80156109495780601f1061091e57610100808354040283529160200191610949565b820191906000526020600020905b81548152906001019060200180831161092c57829003601f168201915b5050505050905090565b600c5481565b600481565b600061096982611555565b6109a8576040517f08c379a000000000000000000000000000000000000000000000000000000000815260040161099f90612d37565b60405180910390fd5b6004600083815260200190815260200160002060009054906101000a900473ffffffffffffffffffffffffffffffffffffffff169050919050565b60006109ee82610cef565b90508073ffffffffffffffffffffffffffffffffffffffff168373ffffffffffffffffffffffffffffffffffffffff1603610a5e576040517f08c379a0000000000000000000000000000000000000000000000000000000008152600401610a5590612dc9565b60405180910390fd5b8073ffffffffffffffffffffffffffffffffffffffff16610a7d6115c1565b73ffffffffffffffffffffffffffffffffffffffff161480610aac5750610aab81610aa66115c1565b6112aa565b5b610aeb576040517f08c379a0000000000000000000000000000000000000000000000000000000008152600401610ae290612e5b565b60405180910390fd5b610af583836115c9565b505050565b600d8181548110610b0a57600080fd5b906000526020600020016000915090505481565b6000600880549050905090565b610b3c610b366115c1565b82611682565b610b7b576040517f08c379a0000000000000000000000000000000000000000000000000000000008152600401610b7290612eed565b60405180910390fd5b610b86838383611760565b505050565b6000610b9683610da5565b8210610bd7576040517f08c379a0000000000000000000000000000000000000000000000000000000008152600401610bce90612f7f565b60405180910390fd5b600660008473ffffffffffffffffffffffffffffffffffffffff1673ffffffffffffffffffffffffffffffffffffffff168152602001908152602001600020600083815260200190815260200160002054905092915050565b60108260048110610c4057600080fd5b600402018160048110610c5257600080fd5b01600091509150505481565b610c7983838360405180602001604052806000815250610fd6565b505050565b6000610c88610b1e565b8210610cc9576040517f08c379a0000000000000000000000000000000000000000000000000000000008152600401610cc090613011565b60405180910390fd5b60088281548110610cdd57610cdc613031565b5b90600052602060002001549050919050565b6000806002600084815260200190815260200160002060009054906101000a900473ffffffffffffffffffffffffffffffffffffffff169050600073ffffffffffffffffffffffffffffffffffffffff168173ffffffffffffffffffffffffffffffffffffffff1603610d97576040517f08c379a0000000000000000000000000000000000000000000000000000000008152600401610d8e906130d2565b60405180910390fd5b80915050919050565b600481565b60008073ffffffffffffffffffffffffffffffffffffffff168273ffffffffffffffffffffffffffffffffffffffff1603610e15576040517f08c379a0000000000000000000000000000000000000000000000000000000008152600401610e0c90613164565b60405180910390fd5b600360008373ffffffffffffffffffffffffffffffffffffffff1673ffffffffffffffffffffffffffffffffffffffff168152602001908152602001600020549050919050565b610e646115c1565b73ffffffffffffffffffffffffffffffffffffffff16610e82610ee4565b73ffffffffffffffffffffffffffffffffffffffff1614610ed8576040517f08c379a0000000000000000000000000000000000000000000000000000000008152600401610ecf906131d0565b60405180910390fd5b610ee260006119c6565b565b6000600a60009054906101000a900473ffffffffffffffffffffffffffffffffffffffff16905090565b606060018054610f1d90612c94565b80601f0160208091040260200160405190810160405280929190818152602001828054610f4990612c94565b8015610f965780601f10610f6b57610100808354040283529160200191610f96565b820191906000526020600020905b815481529060010190602001808311610f7957829003601f168201915b5050505050905090565b610fb2610fab6115c1565b8383611a8c565b5050565b6000600e6000838152602001908152602001600020600001549050919050565b610fe7610fe16115c1565b83611682565b611026576040517f08c379a000000000000000000000000000000000000000000000000000000000815260040161101d90612eed565b60405180910390fd5b61103284848484611bf8565b50505050565b6060600061105b600e600085815260200190815260200160002060000154611c54565b9050600b81604051602001611071929190613358565b604051602081830303815290604052915050919050565b6103e881565b611096610b1e565b6103e8116110d9576040517f08c379a00000000000000000000000000000000000000000000000000000000081526004016110d0906133de565b60405180910390fd5b34600c54111561111e576040517f08c379a00000000000000000000000000000000000000000000000000000000081526004016111159061344a565b60405180910390fd5b6000600161112a610b1e565b6111349190613499565b905060006111423383611db4565b905060405180602001604052808260000151815250600e60008481526020019081526020016000206000820151816000015590505061117f610ee4565b73ffffffffffffffffffffffffffffffffffffffff166108fc349081150290604051600060405180830381858888f193505050501580156111c4573d6000803e3d6000fd5b506111cf3383611e40565b5050565b6111db6115c1565b73ffffffffffffffffffffffffffffffffffffffff166111f9610ee4565b73ffffffffffffffffffffffffffffffffffffffff161461124f576040517f08c379a0000000000000000000000000000000000000000000000000000000008152600401611246906131d0565b60405180910390fd5b6001600f60008373ffffffffffffffffffffffffffffffffffffffff1673ffffffffffffffffffffffffffffffffffffffff16815260200190815260200160002060006101000a81548160ff02191690831515021790555050565b6000600560008473ffffffffffffffffffffffffffffffffffffffff1673ffffffffffffffffffffffffffffffffffffffff16815260200190815260200160002060008373ffffffffffffffffffffffffffffffffffffffff1673ffffffffffffffffffffffffffffffffffffffff16815260200190815260200160002060009054906101000a900460ff16905092915050565b6113466115c1565b73ffffffffffffffffffffffffffffffffffffffff16611364610ee4565b73ffffffffffffffffffffffffffffffffffffffff16146113ba576040517f08c379a00000000000000000000000000000000000000000000000000000000081526004016113b1906131d0565b60405180910390fd5b600073ffffffffffffffffffffffffffffffffffffffff168173ffffffffffffffffffffffffffffffffffffffff1603611429576040517f08c379a000000000000000000000000000000000000000000000000000000000815260040161142090613561565b60405180910390fd5b611432816119c6565b50565b600f6020528060005260406000206000915054906101000a900460ff1681565b600e6020528060005260406000206000915090508060000154905081565b60007f80ac58cd000000000000000000000000000000000000000000000000000000007bffffffffffffffffffffffffffffffffffffffffffffffffffffffff1916827bffffffffffffffffffffffffffffffffffffffffffffffffffffffff1916148061153e57507f5b5e139f000000000000000000000000000000000000000000000000000000007bffffffffffffffffffffffffffffffffffffffffffffffffffffffff1916827bffffffffffffffffffffffffffffffffffffffffffffffffffffffff1916145b8061154e575061154d82612019565b5b9050919050565b60008073ffffffffffffffffffffffffffffffffffffffff166002600084815260200190815260200160002060009054906101000a900473ffffffffffffffffffffffffffffffffffffffff1673ffffffffffffffffffffffffffffffffffffffff1614159050919050565b600033905090565b816004600083815260200190815260200160002060006101000a81548173ffffffffffffffffffffffffffffffffffffffff021916908373ffffffffffffffffffffffffffffffffffffffff160217905550808273ffffffffffffffffffffffffffffffffffffffff1661163c83610cef565b73ffffffffffffffffffffffffffffffffffffffff167f8c5be1e5ebec7d5bd14f71427d1e84f3dd0314c0f7b2291e5b200ac8c7c3b92560405160405180910390a45050565b600061168d82611555565b6116cc576040517f08c379a00000000000000000000000000000000000000000000000000000000081526004016116c3906135f3565b60405180910390fd5b60006116d783610cef565b90508073ffffffffffffffffffffffffffffffffffffffff168473ffffffffffffffffffffffffffffffffffffffff161480611719575061171881856112aa565b5b8061175757508373ffffffffffffffffffffffffffffffffffffffff1661173f8461095e565b73ffffffffffffffffffffffffffffffffffffffff16145b91505092915050565b8273ffffffffffffffffffffffffffffffffffffffff1661178082610cef565b73ffffffffffffffffffffffffffffffffffffffff16146117d6576040517f08c379a00000000000000000000000000000000000000000000000000000000081526004016117cd90613685565b60405180910390fd5b600073ffffffffffffffffffffffffffffffffffffffff168273ffffffffffffffffffffffffffffffffffffffff1603611845576040517f08c379a000000000000000000000000000000000000000000000000000000000815260040161183c90613717565b60405180910390fd5b611850838383612083565b61185b6000826115c9565b6001600360008573ffffffffffffffffffffffffffffffffffffffff1673ffffffffffffffffffffffffffffffffffffffff16815260200190815260200160002060008282546118ab9190613737565b925050819055506001600360008473ffffffffffffffffffffffffffffffffffffffff1673ffffffffffffffffffffffffffffffffffffffff16815260200190815260200160002060008282546119029190613499565b92505081905550816002600083815260200190815260200160002060006101000a81548173ffffffffffffffffffffffffffffffffffffffff021916908373ffffffffffffffffffffffffffffffffffffffff160217905550808273ffffffffffffffffffffffffffffffffffffffff168473ffffffffffffffffffffffffffffffffffffffff167fddf252ad1be2c89b69c2b068fc378daa952ba7f163c4a11628f55a4df523b3ef60405160405180910390a46119c1838383612195565b505050565b6000600a60009054906101000a900473ffffffffffffffffffffffffffffffffffffffff16905081600a60006101000a81548173ffffffffffffffffffffffffffffffffffffffff021916908373ffffffffffffffffffffffffffffffffffffffff1602179055508173ffffffffffffffffffffffffffffffffffffffff168173ffffffffffffffffffffffffffffffffffffffff167f8be0079c531659141344cd1fd0a4f28419497f9722a3daafe3b4186f6b6457e060405160405180910390a35050565b8173ffffffffffffffffffffffffffffffffffffffff168373ffffffffffffffffffffffffffffffffffffffff1603611afa576040517f08c379a0000000000000000000000000000000000000000000000000000000008152600401611af1906137b7565b60405180910390fd5b80600560008573ffffffffffffffffffffffffffffffffffffffff1673ffffffffffffffffffffffffffffffffffffffff16815260200190815260200160002060008473ffffffffffffffffffffffffffffffffffffffff1673ffffffffffffffffffffffffffffffffffffffff16815260200190815260200160002060006101000a81548160ff0219169083151502179055508173ffffffffffffffffffffffffffffffffffffffff168373ffffffffffffffffffffffffffffffffffffffff167f17307eab39ab6107e8899845ad3d59bd9653f200f220920489ca2b5937696c3183604051611beb9190612716565b60405180910390a3505050565b611c03848484611760565b611c0f8484848461219a565b611c4e576040517f08c379a0000000000000000000000000000000000000000000000000000000008152600401611c4590613849565b60405180910390fd5b50505050565b606060008203611c9b576040518060400160405280600181526020017f30000000000000000000000000000000000000000000000000000000000000008152509050611daf565b600082905060005b60008214611ccd578080611cb690613869565b915050600a82611cc691906138e0565b9150611ca3565b60008167ffffffffffffffff811115611ce957611ce8612a77565b5b6040519080825280601f01601f191660200182016040528015611d1b5781602001600182028036833780820191505090505b5090505b60008514611da857600182611d349190613737565b9150600a85611d439190613911565b6030611d4f9190613499565b60f81b818381518110611d6557611d64613031565b5b60200101907effffffffffffffffffffffffffffffffffffffffffffffffffffffffffffff1916908160001a905350600a85611da191906138e0565b9450611d1f565b8093505050505b919050565b611dbc61264f565b611dc461264f565b6103e842408585604051602001611ddd939291906139d6565b6040516020818303038152906040528051906020012060001c611e009190613911565b816000018181525050600d816000015190806001815401808255809150506001900390600052602060002001600090919091909150558091505092915050565b600073ffffffffffffffffffffffffffffffffffffffff168273ffffffffffffffffffffffffffffffffffffffff1603611eaf576040517f08c379a0000000000000000000000000000000000000000000000000000000008152600401611ea690613a5f565b60405180910390fd5b611eb881611555565b15611ef8576040517f08c379a0000000000000000000000000000000000000000000000000000000008152600401611eef90613acb565b60405180910390fd5b611f0460008383612083565b6001600360008473ffffffffffffffffffffffffffffffffffffffff1673ffffffffffffffffffffffffffffffffffffffff1681526020019081526020016000206000828254611f549190613499565b92505081905550816002600083815260200190815260200160002060006101000a81548173ffffffffffffffffffffffffffffffffffffffff021916908373ffffffffffffffffffffffffffffffffffffffff160217905550808273ffffffffffffffffffffffffffffffffffffffff16600073ffffffffffffffffffffffffffffffffffffffff167fddf252ad1be2c89b69c2b068fc378daa952ba7f163c4a11628f55a4df523b3ef60405160405180910390a461201560008383612195565b5050565b60007f01ffc9a7000000000000000000000000000000000000000000000000000000007bffffffffffffffffffffffffffffffffffffffffffffffffffffffff1916827bffffffffffffffffffffffffffffffffffffffffffffffffffffffff1916149050919050565b61208e838383612321565b600073ffffffffffffffffffffffffffffffffffffffff168373ffffffffffffffffffffffffffffffffffffffff16036120d0576120cb81612326565b61210f565b8173ffffffffffffffffffffffffffffffffffffffff168373ffffffffffffffffffffffffffffffffffffffff161461210e5761210d838261236f565b5b5b600073ffffffffffffffffffffffffffffffffffffffff168273ffffffffffffffffffffffffffffffffffffffff16036121515761214c816124dc565b612190565b8273ffffffffffffffffffffffffffffffffffffffff168273ffffffffffffffffffffffffffffffffffffffff161461218f5761218e82826125ad565b5b5b505050565b505050565b60006121bb8473ffffffffffffffffffffffffffffffffffffffff1661262c565b15612314578373ffffffffffffffffffffffffffffffffffffffff1663150b7a026121e46115c1565b8786866040518563ffffffff1660e01b81526004016122069493929190613b40565b6020604051808303816000875af192505050801561224257506040513d601f19601f8201168201806040525081019061223f9190613ba1565b60015b6122c4573d8060008114612272576040519150601f19603f3d011682016040523d82523d6000602084013e612277565b606091505b5060008151036122bc576040517f08c379a00000000000000000000000000000000000000000000000000000000081526004016122b390613849565b60405180910390fd5b805181602001fd5b63150b7a0260e01b7bffffffffffffffffffffffffffffffffffffffffffffffffffffffff1916817bffffffffffffffffffffffffffffffffffffffffffffffffffffffff191614915050612319565b600190505b949350505050565b505050565b6008805490506009600083815260200190815260200160002081905550600881908060018154018082558091505060019003906000526020600020016000909190919091505550565b6000600161237c84610da5565b6123869190613737565b905060006007600084815260200190815260200160002054905081811461246b576000600660008673ffffffffffffffffffffffffffffffffffffffff1673ffffffffffffffffffffffffffffffffffffffff168152602001908152602001600020600084815260200190815260200160002054905080600660008773ffffffffffffffffffffffffffffffffffffffff1673ffffffffffffffffffffffffffffffffffffffff168152602001908152602001600020600084815260200190815260200160002081905550816007600083815260200190815260200160002081905550505b6007600084815260200190815260200160002060009055600660008573ffffffffffffffffffffffffffffffffffffffff1673ffffffffffffffffffffffffffffffffffffffff16815260200190815260200160002060008381526020019081526020016000206000905550505050565b600060016008805490506124f09190613737565b90506000600960008481526020019081526020016000205490506000600883815481106125205761251f613031565b5b90600052602060002001549050806008838154811061254257612541613031565b5b90600052602060002001819055508160096000838152602001908152602001600020819055506009600085815260200190815260200160002060009055600880548061259157612590613bce565b5b6001900381819060005260206000200160009055905550505050565b60006125b883610da5565b905081600660008573ffffffffffffffffffffffffffffffffffffffff1673ffffffffffffffffffffffffffffffffffffffff168152602001908152602001600020600083815260200190815260200160002081905550806007600084815260200190815260200160002081905550505050565b6000808273ffffffffffffffffffffffffffffffffffffffff163b119050919050565b6040518060200160405280600081525090565b6000604051905090565b600080fd5b600080fd5b60007fffffffff0000000000000000000000000000000000000000000000000000000082169050919050565b6126ab81612676565b81146126b657600080fd5b50565b6000813590506126c8816126a2565b92915050565b6000602082840312156126e4576126e361266c565b5b60006126f2848285016126b9565b91505092915050565b60008115159050919050565b612710816126fb565b82525050565b600060208201905061272b6000830184612707565b92915050565b600081519050919050565b600082825260208201905092915050565b60005b8381101561276b578082015181840152602081019050612750565b8381111561277a576000848401525b50505050565b6000601f19601f8301169050919050565b600061279c82612731565b6127a6818561273c565b93506127b681856020860161274d565b6127bf81612780565b840191505092915050565b600060208201905081810360008301526127e48184612791565b905092915050565b6000819050919050565b6127ff816127ec565b82525050565b600060208201905061281a60008301846127f6565b92915050565b612829816127ec565b811461283457600080fd5b50565b60008135905061284681612820565b92915050565b6000602082840312156128625761286161266c565b5b600061287084828501612837565b91505092915050565b600073ffffffffffffffffffffffffffffffffffffffff82169050919050565b60006128a482612879565b9050919050565b6128b481612899565b82525050565b60006020820190506128cf60008301846128ab565b92915050565b6128de81612899565b81146128e957600080fd5b50565b6000813590506128fb816128d5565b92915050565b600080604083850312156129185761291761266c565b5b6000612926858286016128ec565b925050602061293785828601612837565b9150509250929050565b60008060006060848603121561295a5761295961266c565b5b6000612968868287016128ec565b9350506020612979868287016128ec565b925050604061298a86828701612837565b9150509250925092565b600080604083850312156129ab576129aa61266c565b5b60006129b985828601612837565b92505060206129ca85828601612837565b9150509250929050565b6000602082840312156129ea576129e961266c565b5b60006129f8848285016128ec565b91505092915050565b612a0a816126fb565b8114612a1557600080fd5b50565b600081359050612a2781612a01565b92915050565b60008060408385031215612a4457612a4361266c565b5b6000612a52858286016128ec565b9250506020612a6385828601612a18565b9150509250929050565b600080fd5b600080fd5b7f4e487b7100000000000000000000000000000000000000000000000000000000600052604160045260246000fd5b612aaf82612780565b810181811067ffffffffffffffff82111715612ace57612acd612a77565b5b80604052505050565b6000612ae1612662565b9050612aed8282612aa6565b919050565b600067ffffffffffffffff821115612b0d57612b0c612a77565b5b612b1682612780565b9050602081019050919050565b82818337600083830152505050565b6000612b45612b4084612af2565b612ad7565b905082815260208101848484011115612b6157612b60612a72565b5b612b6c848285612b23565b509392505050565b600082601f830112612b8957612b88612a6d565b5b8135612b99848260208601612b32565b91505092915050565b60008060008060808587031215612bbc57612bbb61266c565b5b6000612bca878288016128ec565b9450506020612bdb878288016128ec565b9350506040612bec87828801612837565b925050606085013567ffffffffffffffff811115612c0d57612c0c612671565b5b612c1987828801612b74565b91505092959194509250565b60008060408385031215612c3c57612c3b61266c565b5b6000612c4a858286016128ec565b9250506020612c5b858286016128ec565b9150509250929050565b7f4e487b7100000000000000000000000000000000000000000000000000000000600052602260045260246000fd5b60006002820490506001821680612cac57607f821691505b602082108103612cbf57612cbe612c65565b5b50919050565b7f4552433732313a20617070726f76656420717565727920666f72206e6f6e657860008201527f697374656e7420746f6b656e0000000000000000000000000000000000000000602082015250565b6000612d21602c8361273c565b9150612d2c82612cc5565b604082019050919050565b60006020820190508181036000830152612d5081612d14565b9050919050565b7f4552433732313a20617070726f76616c20746f2063757272656e74206f776e6560008201527f7200000000000000000000000000000000000000000000000000000000000000602082015250565b6000612db360218361273c565b9150612dbe82612d57565b604082019050919050565b60006020820190508181036000830152612de281612da6565b9050919050565b7f4552433732313a20617070726f76652063616c6c6572206973206e6f74206f7760008201527f6e6572206e6f7220617070726f76656420666f7220616c6c0000000000000000602082015250565b6000612e4560388361273c565b9150612e5082612de9565b604082019050919050565b60006020820190508181036000830152612e7481612e38565b9050919050565b7f4552433732313a207472616e736665722063616c6c6572206973206e6f74206f60008201527f776e6572206e6f7220617070726f766564000000000000000000000000000000602082015250565b6000612ed760318361273c565b9150612ee282612e7b565b604082019050919050565b60006020820190508181036000830152612f0681612eca565b9050919050565b7f455243373231456e756d657261626c653a206f776e657220696e646578206f7560008201527f74206f6620626f756e6473000000000000000000000000000000000000000000602082015250565b6000612f69602b8361273c565b9150612f7482612f0d565b604082019050919050565b60006020820190508181036000830152612f9881612f5c565b9050919050565b7f455243373231456e756d657261626c653a20676c6f62616c20696e646578206f60008201527f7574206f6620626f756e64730000000000000000000000000000000000000000602082015250565b6000612ffb602c8361273c565b915061300682612f9f565b604082019050919050565b6000602082019050818103600083015261302a81612fee565b9050919050565b7f4e487b7100000000000000000000000000000000000000000000000000000000600052603260045260246000fd5b7f4552433732313a206f776e657220717565727920666f72206e6f6e657869737460008201527f656e7420746f6b656e0000000000000000000000000000000000000000000000602082015250565b60006130bc60298361273c565b91506130c782613060565b604082019050919050565b600060208201905081810360008301526130eb816130af565b9050919050565b7f4552433732313a2062616c616e636520717565727920666f7220746865207a6560008201527f726f206164647265737300000000000000000000000000000000000000000000602082015250565b600061314e602a8361273c565b9150613159826130f2565b604082019050919050565b6000602082019050818103600083015261317d81613141565b9050919050565b7f4f776e61626c653a2063616c6c6572206973206e6f7420746865206f776e6572600082015250565b60006131ba60208361273c565b91506131c582613184565b602082019050919050565b600060208201905081810360008301526131e9816131ad565b9050919050565b600081905092915050565b60008190508160005260206000209050919050565b6000815461321d81612c94565b61322781866131f0565b94506001821660008114613242576001811461325357613286565b60ff19831686528186019350613286565b61325c856131fb565b60005b8381101561327e5781548189015260018201915060208101905061325f565b838801955050505b50505092915050565b7f2f00000000000000000000000000000000000000000000000000000000000000600082015250565b60006132c56001836131f0565b91506132d08261328f565b600182019050919050565b60006132e682612731565b6132f081856131f0565b935061330081856020860161274d565b80840191505092915050565b7f2e6a736f6e000000000000000000000000000000000000000000000000000000600082015250565b60006133426005836131f0565b915061334d8261330c565b600582019050919050565b60006133648285613210565b915061336f826132b8565b915061337b82846132db565b915061338682613335565b91508190509392505050565b7f4e6f6d6f7265206d696e74696e20697320706f737369626c6500000000000000600082015250565b60006133c860198361273c565b91506133d382613392565b602082019050919050565b600060208201905081810360008301526133f7816133bb565b9050919050565b7f4e6f7420656e6f756768206b6c61790000000000000000000000000000000000600082015250565b6000613434600f8361273c565b915061343f826133fe565b602082019050919050565b6000602082019050818103600083015261346381613427565b9050919050565b7f4e487b7100000000000000000000000000000000000000000000000000000000600052601160045260246000fd5b60006134a4826127ec565b91506134af836127ec565b9250827fffffffffffffffffffffffffffffffffffffffffffffffffffffffffffffffff038211156134e4576134e361346a565b5b828201905092915050565b7f4f776e61626c653a206e6577206f776e657220697320746865207a65726f206160008201527f6464726573730000000000000000000000000000000000000000000000000000602082015250565b600061354b60268361273c565b9150613556826134ef565b604082019050919050565b6000602082019050818103600083015261357a8161353e565b9050919050565b7f4552433732313a206f70657261746f7220717565727920666f72206e6f6e657860008201527f697374656e7420746f6b656e0000000000000000000000000000000000000000602082015250565b60006135dd602c8361273c565b91506135e882613581565b604082019050919050565b6000602082019050818103600083015261360c816135d0565b9050919050565b7f4552433732313a207472616e736665722066726f6d20696e636f72726563742060008201527f6f776e6572000000000000000000000000000000000000000000000000000000602082015250565b600061366f60258361273c565b915061367a82613613565b604082019050919050565b6000602082019050818103600083015261369e81613662565b9050919050565b7f4552433732313a207472616e7366657220746f20746865207a65726f2061646460008201527f7265737300000000000000000000000000000000000000000000000000000000602082015250565b600061370160248361273c565b915061370c826136a5565b604082019050919050565b60006020820190508181036000830152613730816136f4565b9050919050565b6000613742826127ec565b915061374d836127ec565b9250828210156137605761375f61346a565b5b828203905092915050565b7f4552433732313a20617070726f766520746f2063616c6c657200000000000000600082015250565b60006137a160198361273c565b91506137ac8261376b565b602082019050919050565b600060208201905081810360008301526137d081613794565b9050919050565b7f4552433732313a207472616e7366657220746f206e6f6e20455243373231526560008201527f63656976657220696d706c656d656e7465720000000000000000000000000000602082015250565b600061383360328361273c565b915061383e826137d7565b604082019050919050565b6000602082019050818103600083015261386281613826565b9050919050565b6000613874826127ec565b91507fffffffffffffffffffffffffffffffffffffffffffffffffffffffffffffffff82036138a6576138a561346a565b5b600182019050919050565b7f4e487b7100000000000000000000000000000000000000000000000000000000600052601260045260246000fd5b60006138eb826127ec565b91506138f6836127ec565b925082613906576139056138b1565b5b828204905092915050565b600061391c826127ec565b9150613927836127ec565b925082613937576139366138b1565b5b828206905092915050565b6000819050919050565b6000819050919050565b61396761396282613942565b61394c565b82525050565b60008160601b9050919050565b60006139858261396d565b9050919050565b60006139978261397a565b9050919050565b6139af6139aa82612899565b61398c565b82525050565b6000819050919050565b6139d06139cb826127ec565b6139b5565b82525050565b60006139e28286613956565b6020820191506139f2828561399e565b601482019150613a0282846139bf565b602082019150819050949350505050565b7f4552433732313a206d696e7420746f20746865207a65726f2061646472657373600082015250565b6000613a4960208361273c565b9150613a5482613a13565b602082019050919050565b60006020820190508181036000830152613a7881613a3c565b9050919050565b7f4552433732313a20746f6b656e20616c7265616479206d696e74656400000000600082015250565b6000613ab5601c8361273c565b9150613ac082613a7f565b602082019050919050565b60006020820190508181036000830152613ae481613aa8565b9050919050565b600081519050919050565b600082825260208201905092915050565b6000613b1282613aeb565b613b1c8185613af6565b9350613b2c81856020860161274d565b613b3581612780565b840191505092915050565b6000608082019050613b5560008301876128ab565b613b6260208301866128ab565b613b6f60408301856127f6565b8181036060830152613b818184613b07565b905095945050505050565b600081519050613b9b816126a2565b92915050565b600060208284031215613bb757613bb661266c565b5b6000613bc584828501613b8c565b91505092915050565b7f4e487b7100000000000000000000000000000000000000000000000000000000600052603160045260246000fdfea2646970667358221220dc2b44447401eb1dcdf13201a25973dc5f0bce508a7c0b0bd506473da7bbad2d64736f6c634300080e0033",
  "immutableReferences": {},
  "source": "// SPDX-License-Identifier: MIT\r\n\r\npragma solidity ^0.8.7;\r\n\r\nimport \"@openzeppelin/contracts/token/ERC721/extensions/ERC721Enumerable.sol\";\r\n//openzepplin string  \r\nimport \"@openzeppelin/contracts/utils/Strings.sol\";\r\n// contract      openzepplin  \r\nimport \"@openzeppelin/contracts/access/Ownable.sol\";\r\n\r\ncontract MintToken is ERC721Enumerable, Ownable {\r\n    // NFT   \r\n    uint constant public MAX_TOKEN_COUNT = 1000;\r\n    uint constant public TOKEN_RANK_LENGTH = 4;\r\n    uint constant public TOKEN_TYPE_LENGTH = 4;\r\n\r\n    string public metadataURI;\r\n\r\n    uint public gemTokenPrice = 10 * 18;\r\n    uint[] public AlreadyMint;  \r\n    \r\n    constructor(string memory _name, string memory _symbol, string memory _metadataURI) ERC721(_name, _symbol) {\r\n        //    IPFS  metadata   \r\n        metadataURI = _metadataURI;\r\n    }\r\n\r\n    // Token Rank Type \r\n    struct GemTokenData {\r\n        uint gemTokenType;\r\n    }\r\n\r\n    // tokenId   rank, type  \r\n    mapping(uint => GemTokenData) public gemTokenData;\r\n    mapping(address => bool) public isWhiteList;\r\n\r\n    uint[TOKEN_RANK_LENGTH][TOKEN_TYPE_LENGTH] public gemTokenCount;\r\n\r\n    // ERC721 tokenURI            \r\n    function tokenURI(uint _tokenId) override public view returns (string memory) {\r\n        // String.toString() openzeppelin   \r\n        string memory gemTokenType = Strings.toString(gemTokenData[_tokenId].gemTokenType);\r\n\r\n        // abi.encodePacked(arg) arg   \r\n        // ex) https://gateway.pinata.cloud/ipfs/Qma7X5uQUmZDYWVmeJa7UKv2T89pRem5htGCa5o8p7hL3G/1/1.json\r\n        return string(abi.encodePacked(metadataURI, '/', gemTokenType, '.json'));\r\n    }\r\n\r\n\r\n    function giveWhiteList(address _toWhiteList) public onlyOwner{\r\n        isWhiteList[_toWhiteList] = true;\r\n    }\r\n\r\n    function mintGemToken() public payable {\r\n        require(MAX_TOKEN_COUNT > totalSupply(), \"Nomore mintin is possible\");\r\n        require(gemTokenPrice <= msg.value, \"Not enough klay\");\r\n        // totalSupply ERC721 Enumerable    NFT   NFT  return  \r\n        uint tokenId = totalSupply() + 1;\r\n\r\n        GemTokenData memory randomTokenData = randomGenerator(msg.sender, tokenId);\r\n\r\n        gemTokenData[tokenId] = GemTokenData(randomTokenData.gemTokenType);\r\n\r\n        payable(owner()).transfer(msg.value);\r\n\r\n        // , totkalSupply   tokenId\r\n        _mint(msg.sender, tokenId);\r\n    }\r\n\r\n    //    NFT     \r\n    function getGemTokenType(uint _tokenId) public view returns(uint) {\r\n        return gemTokenData[_tokenId].gemTokenType;\r\n    }\r\n\r\n    //  nft \r\n    function randomGenerator(address _msgSender, uint _tokenId) private returns (GemTokenData memory) {\r\n\r\n        GemTokenData memory randomTokenData;\r\n        randomTokenData.gemTokenType = uint(keccak256(abi.encodePacked(blockhash(block.timestamp), _msgSender, _tokenId))) % 1000;\r\n        AlreadyMint.push(randomTokenData.gemTokenType);\r\n\r\n        return randomTokenData;\r\n\r\n    }\r\n}",
  "sourcePath": "D:\\kyoungil\\Blockchain_based_Fintech\\workspace\\nft-defi-hashbrand\\nft-gusaguo\\contracts\\testKIP17.sol",
  "compiler": {
    "name": "solc",
    "version": "0.8.14+commit.80d49f37.Emscripten.clang"
  },
  "schemaVersion": "3.4.7",
  "updatedAt": "2022-06-03T13:18:37.506Z",
  "devdoc": {
    "kind": "dev",
    "methods": {
      "approve(address,uint256)": {
        "details": "See {IERC721-approve}."
      },
      "balanceOf(address)": {
        "details": "See {IERC721-balanceOf}."
      },
      "getApproved(uint256)": {
        "details": "See {IERC721-getApproved}."
      },
      "isApprovedForAll(address,address)": {
        "details": "See {IERC721-isApprovedForAll}."
      },
      "name()": {
        "details": "See {IERC721Metadata-name}."
      },
      "owner()": {
        "details": "Returns the address of the current owner."
      },
      "ownerOf(uint256)": {
        "details": "See {IERC721-ownerOf}."
      },
      "renounceOwnership()": {
        "details": "Leaves the contract without owner. It will not be possible to call `onlyOwner` functions anymore. Can only be called by the current owner. NOTE: Renouncing ownership will leave the contract without an owner, thereby removing any functionality that is only available to the owner."
      },
      "safeTransferFrom(address,address,uint256)": {
        "details": "See {IERC721-safeTransferFrom}."
      },
      "safeTransferFrom(address,address,uint256,bytes)": {
        "details": "See {IERC721-safeTransferFrom}."
      },
      "setApprovalForAll(address,bool)": {
        "details": "See {IERC721-setApprovalForAll}."
      },
      "supportsInterface(bytes4)": {
        "details": "See {IERC165-supportsInterface}."
      },
      "symbol()": {
        "details": "See {IERC721Metadata-symbol}."
      },
      "tokenByIndex(uint256)": {
        "details": "See {IERC721Enumerable-tokenByIndex}."
      },
      "tokenOfOwnerByIndex(address,uint256)": {
        "details": "See {IERC721Enumerable-tokenOfOwnerByIndex}."
      },
      "totalSupply()": {
        "details": "See {IERC721Enumerable-totalSupply}."
      },
      "transferFrom(address,address,uint256)": {
        "details": "See {IERC721-transferFrom}."
      },
      "transferOwnership(address)": {
        "details": "Transfers ownership of the contract to a new account (`newOwner`). Can only be called by the current owner."
      }
    },
    "version": 1
  },
  "userdoc": {
    "kind": "user",
    "methods": {},
    "version": 1
  }
}