{
  "contractName": "RandomJolaman",
  "abi": [
    {
      "inputs": [],
      "stateMutability": "nonpayable",
      "type": "constructor"
    },
    {
      "anonymous": false,
      "inputs": [
        {
          "indexed": true,
          "internalType": "address",
          "name": "owner",
          "type": "address"
        },
        {
          "indexed": true,
          "internalType": "address",
          "name": "approved",
          "type": "address"
        },
        {
          "indexed": true,
          "internalType": "uint256",
          "name": "tokenId",
          "type": "uint256"
        }
      ],
      "name": "Approval",
      "type": "event"
    },
    {
      "anonymous": false,
      "inputs": [
        {
          "indexed": true,
          "internalType": "address",
          "name": "owner",
          "type": "address"
        },
        {
          "indexed": true,
          "internalType": "address",
          "name": "operator",
          "type": "address"
        },
        {
          "indexed": false,
          "internalType": "bool",
          "name": "approved",
          "type": "bool"
        }
      ],
      "name": "ApprovalForAll",
      "type": "event"
    },
    {
      "anonymous": false,
      "inputs": [
        {
          "indexed": true,
          "internalType": "bytes32",
          "name": "role",
          "type": "bytes32"
        },
        {
          "indexed": true,
          "internalType": "bytes32",
          "name": "previousAdminRole",
          "type": "bytes32"
        },
        {
          "indexed": true,
          "internalType": "bytes32",
          "name": "newAdminRole",
          "type": "bytes32"
        }
      ],
      "name": "RoleAdminChanged",
      "type": "event"
    },
    {
      "anonymous": false,
      "inputs": [
        {
          "indexed": true,
          "internalType": "bytes32",
          "name": "role",
          "type": "bytes32"
        },
        {
          "indexed": true,
          "internalType": "address",
          "name": "account",
          "type": "address"
        },
        {
          "indexed": true,
          "internalType": "address",
          "name": "sender",
          "type": "address"
        }
      ],
      "name": "RoleGranted",
      "type": "event"
    },
    {
      "anonymous": false,
      "inputs": [
        {
          "indexed": true,
          "internalType": "bytes32",
          "name": "role",
          "type": "bytes32"
        },
        {
          "indexed": true,
          "internalType": "address",
          "name": "account",
          "type": "address"
        },
        {
          "indexed": true,
          "internalType": "address",
          "name": "sender",
          "type": "address"
        }
      ],
      "name": "RoleRevoked",
      "type": "event"
    },
    {
      "anonymous": false,
      "inputs": [
        {
          "indexed": true,
          "internalType": "address",
          "name": "from",
          "type": "address"
        },
        {
          "indexed": true,
          "internalType": "address",
          "name": "to",
          "type": "address"
        },
        {
          "indexed": true,
          "internalType": "uint256",
          "name": "tokenId",
          "type": "uint256"
        }
      ],
      "name": "Transfer",
      "type": "event"
    },
    {
      "inputs": [],
      "name": "DEFAULT_ADMIN_ROLE",
      "outputs": [
        {
          "internalType": "bytes32",
          "name": "",
          "type": "bytes32"
        }
      ],
      "stateMutability": "view",
      "type": "function",
      "constant": true
    },
    {
      "inputs": [],
      "name": "MINTER_ROLE",
      "outputs": [
        {
          "internalType": "bytes32",
          "name": "",
          "type": "bytes32"
        }
      ],
      "stateMutability": "view",
      "type": "function",
      "constant": true
    },
    {
      "inputs": [
        {
          "internalType": "address",
          "name": "to",
          "type": "address"
        },
        {
          "internalType": "uint256",
          "name": "tokenId",
          "type": "uint256"
        }
      ],
      "name": "approve",
      "outputs": [],
      "stateMutability": "nonpayable",
      "type": "function"
    },
    {
      "inputs": [
        {
          "internalType": "address",
          "name": "owner",
          "type": "address"
        }
      ],
      "name": "balanceOf",
      "outputs": [
        {
          "internalType": "uint256",
          "name": "",
          "type": "uint256"
        }
      ],
      "stateMutability": "view",
      "type": "function",
      "constant": true
    },
    {
      "inputs": [
        {
          "internalType": "uint256",
          "name": "tokenId",
          "type": "uint256"
        }
      ],
      "name": "burn",
      "outputs": [],
      "stateMutability": "nonpayable",
      "type": "function"
    },
    {
      "inputs": [
        {
          "internalType": "uint256",
          "name": "tokenId",
          "type": "uint256"
        }
      ],
      "name": "getApproved",
      "outputs": [
        {
          "internalType": "address",
          "name": "",
          "type": "address"
        }
      ],
      "stateMutability": "view",
      "type": "function",
      "constant": true
    },
    {
      "inputs": [
        {
          "internalType": "bytes32",
          "name": "role",
          "type": "bytes32"
        }
      ],
      "name": "getRoleAdmin",
      "outputs": [
        {
          "internalType": "bytes32",
          "name": "",
          "type": "bytes32"
        }
      ],
      "stateMutability": "view",
      "type": "function",
      "constant": true
    },
    {
      "inputs": [
        {
          "internalType": "bytes32",
          "name": "role",
          "type": "bytes32"
        },
        {
          "internalType": "address",
          "name": "account",
          "type": "address"
        }
      ],
      "name": "grantRole",
      "outputs": [],
      "stateMutability": "nonpayable",
      "type": "function"
    },
    {
      "inputs": [
        {
          "internalType": "bytes32",
          "name": "role",
          "type": "bytes32"
        },
        {
          "internalType": "address",
          "name": "account",
          "type": "address"
        }
      ],
      "name": "hasRole",
      "outputs": [
        {
          "internalType": "bool",
          "name": "",
          "type": "bool"
        }
      ],
      "stateMutability": "view",
      "type": "function",
      "constant": true
    },
    {
      "inputs": [
        {
          "internalType": "address",
          "name": "owner",
          "type": "address"
        },
        {
          "internalType": "address",
          "name": "operator",
          "type": "address"
        }
      ],
      "name": "isApprovedForAll",
      "outputs": [
        {
          "internalType": "bool",
          "name": "",
          "type": "bool"
        }
      ],
      "stateMutability": "view",
      "type": "function",
      "constant": true
    },
    {
      "inputs": [],
      "name": "name",
      "outputs": [
        {
          "internalType": "string",
          "name": "",
          "type": "string"
        }
      ],
      "stateMutability": "view",
      "type": "function",
      "constant": true
    },
    {
      "inputs": [],
      "name": "owner",
      "outputs": [
        {
          "internalType": "address",
          "name": "",
          "type": "address"
        }
      ],
      "stateMutability": "view",
      "type": "function",
      "constant": true
    },
    {
      "inputs": [
        {
          "internalType": "uint256",
          "name": "tokenId",
          "type": "uint256"
        }
      ],
      "name": "ownerOf",
      "outputs": [
        {
          "internalType": "address",
          "name": "",
          "type": "address"
        }
      ],
      "stateMutability": "view",
      "type": "function",
      "constant": true
    },
    {
      "inputs": [
        {
          "internalType": "bytes32",
          "name": "role",
          "type": "bytes32"
        },
        {
          "internalType": "address",
          "name": "account",
          "type": "address"
        }
      ],
      "name": "renounceRole",
      "outputs": [],
      "stateMutability": "nonpayable",
      "type": "function"
    },
    {
      "inputs": [
        {
          "internalType": "bytes32",
          "name": "role",
          "type": "bytes32"
        },
        {
          "internalType": "address",
          "name": "account",
          "type": "address"
        }
      ],
      "name": "revokeRole",
      "outputs": [],
      "stateMutability": "nonpayable",
      "type": "function"
    },
    {
      "inputs": [
        {
          "internalType": "address",
          "name": "from",
          "type": "address"
        },
        {
          "internalType": "address",
          "name": "to",
          "type": "address"
        },
        {
          "internalType": "uint256",
          "name": "tokenId",
          "type": "uint256"
        }
      ],
      "name": "safeTransferFrom",
      "outputs": [],
      "stateMutability": "nonpayable",
      "type": "function"
    },
    {
      "inputs": [
        {
          "internalType": "address",
          "name": "from",
          "type": "address"
        },
        {
          "internalType": "address",
          "name": "to",
          "type": "address"
        },
        {
          "internalType": "uint256",
          "name": "tokenId",
          "type": "uint256"
        },
        {
          "internalType": "bytes",
          "name": "_data",
          "type": "bytes"
        }
      ],
      "name": "safeTransferFrom",
      "outputs": [],
      "stateMutability": "nonpayable",
      "type": "function"
    },
    {
      "inputs": [
        {
          "internalType": "address",
          "name": "operator",
          "type": "address"
        },
        {
          "internalType": "bool",
          "name": "approved",
          "type": "bool"
        }
      ],
      "name": "setApprovalForAll",
      "outputs": [],
      "stateMutability": "nonpayable",
      "type": "function"
    },
    {
      "inputs": [],
      "name": "symbol",
      "outputs": [
        {
          "internalType": "string",
          "name": "",
          "type": "string"
        }
      ],
      "stateMutability": "view",
      "type": "function",
      "constant": true
    },
    {
      "inputs": [
        {
          "internalType": "uint256",
          "name": "tokenId",
          "type": "uint256"
        }
      ],
      "name": "tokenURI",
      "outputs": [
        {
          "internalType": "string",
          "name": "",
          "type": "string"
        }
      ],
      "stateMutability": "view",
      "type": "function",
      "constant": true
    },
    {
      "inputs": [
        {
          "internalType": "address",
          "name": "from",
          "type": "address"
        },
        {
          "internalType": "address",
          "name": "to",
          "type": "address"
        },
        {
          "internalType": "uint256",
          "name": "tokenId",
          "type": "uint256"
        }
      ],
      "name": "transferFrom",
      "outputs": [],
      "stateMutability": "nonpayable",
      "type": "function"
    },
    {
      "inputs": [
        {
          "internalType": "address",
          "name": "to",
          "type": "address"
        }
      ],
      "name": "safeMint",
      "outputs": [],
      "stateMutability": "nonpayable",
      "type": "function"
    },
    {
      "inputs": [
        {
          "internalType": "bytes4",
          "name": "interfaceId",
          "type": "bytes4"
        }
      ],
      "name": "supportsInterface",
      "outputs": [
        {
          "internalType": "bool",
          "name": "",
          "type": "bool"
        }
      ],
      "stateMutability": "view",
      "type": "function",
      "constant": true
    },
    {
      "inputs": [],
      "name": "getBalance",
      "outputs": [
        {
          "internalType": "uint256",
          "name": "",
          "type": "uint256"
        }
      ],
      "stateMutability": "view",
      "type": "function",
      "constant": true
    },
    {
      "inputs": [
        {
          "internalType": "uint64",
          "name": "_price",
          "type": "uint64"
        }
      ],
      "name": "setMintingPrice",
      "outputs": [],
      "stateMutability": "nonpayable",
      "type": "function"
    },
    {
      "inputs": [],
      "name": "pay",
      "outputs": [],
      "stateMutability": "payable",
      "type": "function",
      "payable": true
    }
  ],
  "bytecode": "0x6080604052671bc16d674ec80000600760006101000a81548167ffffffffffffffff021916908367ffffffffffffffff1602179055503480156200004257600080fd5b506040518060400160405280600781526020017f4a6f6c616d616e000000000000000000000000000000000000000000000000008152506040518060400160405280600281526020017f4a4c0000000000000000000000000000000000000000000000000000000000008152508160009080519060200190620000c7929190620002d6565b508060019080519060200190620000e0929190620002d6565b50505033600960006101000a81548173ffffffffffffffffffffffffffffffffffffffff021916908373ffffffffffffffffffffffffffffffffffffffff160217905550620001396000801b336200017160201b60201c565b6200016b7f9f2df0fed2c77648de5860a4cc508cd0818c85b8b8a1ab4ceeef8d981c8956a6336200017160201b60201c565b620003ea565b6200018382826200026360201b60201c565b6200025f5760016006600084815260200190815260200160002060000160008373ffffffffffffffffffffffffffffffffffffffff1673ffffffffffffffffffffffffffffffffffffffff16815260200190815260200160002060006101000a81548160ff02191690831515021790555062000204620002ce60201b60201c565b73ffffffffffffffffffffffffffffffffffffffff168173ffffffffffffffffffffffffffffffffffffffff16837f2f8788117e7eff1d82e926ec794901d17c78024a50270940304540a733656f0d60405160405180910390a45b5050565b60006006600084815260200190815260200160002060000160008373ffffffffffffffffffffffffffffffffffffffff1673ffffffffffffffffffffffffffffffffffffffff16815260200190815260200160002060009054906101000a900460ff16905092915050565b600033905090565b828054620002e490620003b5565b90600052602060002090601f01602090048101928262000308576000855562000354565b82601f106200032357805160ff191683800117855562000354565b8280016001018555821562000354579182015b828111156200035357825182559160200191906001019062000336565b5b50905062000363919062000367565b5090565b5b808211156200038257600081600090555060010162000368565b5090565b7f4e487b7100000000000000000000000000000000000000000000000000000000600052602260045260246000fd5b60006002820490506001821680620003ce57607f821691505b602082108103620003e457620003e362000386565b5b50919050565b613a7580620003fa6000396000f3fe6080604052600436106101815760003560e01c80635aa961e5116100d1578063a217fddf1161008a578063c87b56dd11610064578063c87b56dd1461056f578063d5391393146105ac578063d547741f146105d7578063e985e9c51461060057610181565b8063a217fddf146104f2578063a22cb4651461051d578063b88d4fde1461054657610181565b80635aa961e5146103bc5780636352211e146103e557806370a08231146104225780638da5cb5b1461045f57806391d148541461048a57806395d89b41146104c757610181565b806323b872dd1161013e57806336568abe1161011857806336568abe1461031857806340d097c31461034157806342842e0e1461036a57806342966c681461039357610181565b806323b872dd14610289578063248a9ca3146102b25780632f2ff15d146102ef57610181565b806301ffc9a71461018657806306fdde03146101c3578063081812fc146101ee578063095ea7b31461022b57806312065fe0146102545780631b9265b81461027f575b600080fd5b34801561019257600080fd5b506101ad60048036038101906101a891906124bd565b61063d565b6040516101ba9190612505565b60405180910390f35b3480156101cf57600080fd5b506101d861064f565b6040516101e591906125b9565b60405180910390f35b3480156101fa57600080fd5b5061021560048036038101906102109190612611565b6106e1565b604051610222919061267f565b60405180910390f35b34801561023757600080fd5b50610252600480360381019061024d91906126c6565b610766565b005b34801561026057600080fd5b5061026961087d565b6040516102769190612715565b60405180910390f35b61028761089c565b005b34801561029557600080fd5b506102b060048036038101906102ab9190612730565b6109cf565b005b3480156102be57600080fd5b506102d960048036038101906102d491906127b9565b610a2f565b6040516102e691906127f5565b60405180910390f35b3480156102fb57600080fd5b5061031660048036038101906103119190612810565b610a4f565b005b34801561032457600080fd5b5061033f600480360381019061033a9190612810565b610a70565b005b34801561034d57600080fd5b5061036860048036038101906103639190612850565b610af3565b005b34801561037657600080fd5b50610391600480360381019061038c9190612730565b610b44565b005b34801561039f57600080fd5b506103ba60048036038101906103b59190612611565b610b64565b005b3480156103c857600080fd5b506103e360048036038101906103de91906128bd565b610bc0565b005b3480156103f157600080fd5b5061040c60048036038101906104079190612611565b610bec565b604051610419919061267f565b60405180910390f35b34801561042e57600080fd5b5061044960048036038101906104449190612850565b610c9d565b6040516104569190612715565b60405180910390f35b34801561046b57600080fd5b50610474610d54565b604051610481919061267f565b60405180910390f35b34801561049657600080fd5b506104b160048036038101906104ac9190612810565b610d7a565b6040516104be9190612505565b60405180910390f35b3480156104d357600080fd5b506104dc610de5565b6040516104e991906125b9565b60405180910390f35b3480156104fe57600080fd5b50610507610e77565b60405161051491906127f5565b60405180910390f35b34801561052957600080fd5b50610544600480360381019061053f9190612916565b610e7e565b005b34801561055257600080fd5b5061056d60048036038101906105689190612a8b565b610e94565b005b34801561057b57600080fd5b5061059660048036038101906105919190612611565b610ef6565b6040516105a391906125b9565b60405180910390f35b3480156105b857600080fd5b506105c1610f9d565b6040516105ce91906127f5565b60405180910390f35b3480156105e357600080fd5b506105fe60048036038101906105f99190612810565b610fc1565b005b34801561060c57600080fd5b5061062760048036038101906106229190612b0e565b610fe2565b6040516106349190612505565b60405180910390f35b600061064882611076565b9050919050565b60606000805461065e90612b7d565b80601f016020809104026020016040519081016040528092919081815260200182805461068a90612b7d565b80156106d75780601f106106ac576101008083540402835291602001916106d7565b820191906000526020600020905b8154815290600101906020018083116106ba57829003601f168201915b5050505050905090565b60006106ec826110f0565b61072b576040517f08c379a000000000000000000000000000000000000000000000000000000000815260040161072290612c20565b60405180910390fd5b6004600083815260200190815260200160002060009054906101000a900473ffffffffffffffffffffffffffffffffffffffff169050919050565b600061077182610bec565b90508073ffffffffffffffffffffffffffffffffffffffff168373ffffffffffffffffffffffffffffffffffffffff16036107e1576040517f08c379a00000000000000000000000000000000000000000000000000000000081526004016107d890612cb2565b60405180910390fd5b8073ffffffffffffffffffffffffffffffffffffffff1661080061115c565b73ffffffffffffffffffffffffffffffffffffffff16148061082f575061082e8161082961115c565b610fe2565b5b61086e576040517f08c379a000000000000000000000000000000000000000000000000000000000815260040161086590612d44565b60405180910390fd5b6108788383611164565b505050565b60003373ffffffffffffffffffffffffffffffffffffffff1631905090565b6108a461121d565b6108e3576040517f08c379a00000000000000000000000000000000000000000000000000000000081526004016108da90612db0565b60405180910390fd5b6000600960009054906101000a900473ffffffffffffffffffffffffffffffffffffffff1673ffffffffffffffffffffffffffffffffffffffff163460405161092b90612e01565b60006040518083038185875af1925050503d8060008114610968576040519150601f19603f3d011682016040523d82523d6000602084013e61096d565b606091505b50509050806109b1576040517f08c379a00000000000000000000000000000000000000000000000000000000081526004016109a890612e62565b60405180910390fd5b6109c634600a5461124f90919063ffffffff16565b600a8190555050565b6109e06109da61115c565b82611265565b610a1f576040517f08c379a0000000000000000000000000000000000000000000000000000000008152600401610a1690612ef4565b60405180910390fd5b610a2a838383611343565b505050565b600060066000838152602001908152602001600020600101549050919050565b610a5882610a2f565b610a61816115a9565b610a6b83836115bd565b505050565b610a7861115c565b73ffffffffffffffffffffffffffffffffffffffff168173ffffffffffffffffffffffffffffffffffffffff1614610ae5576040517f08c379a0000000000000000000000000000000000000000000000000000000008152600401610adc90612f86565b60405180910390fd5b610aef828261169e565b5050565b7f9f2df0fed2c77648de5860a4cc508cd0818c85b8b8a1ab4ceeef8d981c8956a6610b1d816115a9565b6000610b296008611780565b9050610b35600861178e565b610b3f83826117a4565b505050565b610b5f83838360405180602001604052806000815250610e94565b505050565b610b75610b6f61115c565b82611265565b610bb4576040517f08c379a0000000000000000000000000000000000000000000000000000000008152600401610bab90613018565b60405180910390fd5b610bbd816117c2565b50565b80600760006101000a81548167ffffffffffffffff021916908367ffffffffffffffff16021790555050565b6000806002600084815260200190815260200160002060009054906101000a900473ffffffffffffffffffffffffffffffffffffffff169050600073ffffffffffffffffffffffffffffffffffffffff168173ffffffffffffffffffffffffffffffffffffffff1603610c94576040517f08c379a0000000000000000000000000000000000000000000000000000000008152600401610c8b906130aa565b60405180910390fd5b80915050919050565b60008073ffffffffffffffffffffffffffffffffffffffff168273ffffffffffffffffffffffffffffffffffffffff1603610d0d576040517f08c379a0000000000000000000000000000000000000000000000000000000008152600401610d049061313c565b60405180910390fd5b600360008373ffffffffffffffffffffffffffffffffffffffff1673ffffffffffffffffffffffffffffffffffffffff168152602001908152602001600020549050919050565b600960009054906101000a900473ffffffffffffffffffffffffffffffffffffffff1681565b60006006600084815260200190815260200160002060000160008373ffffffffffffffffffffffffffffffffffffffff1673ffffffffffffffffffffffffffffffffffffffff16815260200190815260200160002060009054906101000a900460ff16905092915050565b606060018054610df490612b7d565b80601f0160208091040260200160405190810160405280929190818152602001828054610e2090612b7d565b8015610e6d5780601f10610e4257610100808354040283529160200191610e6d565b820191906000526020600020905b815481529060010190602001808311610e5057829003601f168201915b5050505050905090565b6000801b81565b610e90610e8961115c565b83836118df565b5050565b610ea5610e9f61115c565b83611265565b610ee4576040517f08c379a0000000000000000000000000000000000000000000000000000000008152600401610edb90612ef4565b60405180910390fd5b610ef084848484611a4b565b50505050565b6060610f01826110f0565b610f40576040517f08c379a0000000000000000000000000000000000000000000000000000000008152600401610f37906131ce565b60405180910390fd5b6000610f4a611aa7565b90506000815111610f6a5760405180602001604052806000815250610f95565b80610f7484611ae4565b604051602001610f8592919061322a565b6040516020818303038152906040525b915050919050565b7f9f2df0fed2c77648de5860a4cc508cd0818c85b8b8a1ab4ceeef8d981c8956a681565b610fca82610a2f565b610fd3816115a9565b610fdd838361169e565b505050565b6000600560008473ffffffffffffffffffffffffffffffffffffffff1673ffffffffffffffffffffffffffffffffffffffff16815260200190815260200160002060008373ffffffffffffffffffffffffffffffffffffffff1673ffffffffffffffffffffffffffffffffffffffff16815260200190815260200160002060009054906101000a900460ff16905092915050565b60007f7965db0b000000000000000000000000000000000000000000000000000000007bffffffffffffffffffffffffffffffffffffffffffffffffffffffff1916827bffffffffffffffffffffffffffffffffffffffffffffffffffffffff191614806110e957506110e882611c44565b5b9050919050565b60008073ffffffffffffffffffffffffffffffffffffffff166002600084815260200190815260200160002060009054906101000a900473ffffffffffffffffffffffffffffffffffffffff1673ffffffffffffffffffffffffffffffffffffffff1614159050919050565b600033905090565b816004600083815260200190815260200160002060006101000a81548173ffffffffffffffffffffffffffffffffffffffff021916908373ffffffffffffffffffffffffffffffffffffffff160217905550808273ffffffffffffffffffffffffffffffffffffffff166111d783610bec565b73ffffffffffffffffffffffffffffffffffffffff167f8c5be1e5ebec7d5bd14f71427d1e84f3dd0314c0f7b2291e5b200ac8c7c3b92560405160405180910390a45050565b6000343373ffffffffffffffffffffffffffffffffffffffff16311115611247576001905061124c565b600090505b90565b6000818361125d919061327d565b905092915050565b6000611270826110f0565b6112af576040517f08c379a00000000000000000000000000000000000000000000000000000000081526004016112a690613345565b60405180910390fd5b60006112ba83610bec565b90508073ffffffffffffffffffffffffffffffffffffffff168473ffffffffffffffffffffffffffffffffffffffff1614806112fc57506112fb8185610fe2565b5b8061133a57508373ffffffffffffffffffffffffffffffffffffffff16611322846106e1565b73ffffffffffffffffffffffffffffffffffffffff16145b91505092915050565b8273ffffffffffffffffffffffffffffffffffffffff1661136382610bec565b73ffffffffffffffffffffffffffffffffffffffff16146113b9576040517f08c379a00000000000000000000000000000000000000000000000000000000081526004016113b0906133d7565b60405180910390fd5b600073ffffffffffffffffffffffffffffffffffffffff168273ffffffffffffffffffffffffffffffffffffffff1603611428576040517f08c379a000000000000000000000000000000000000000000000000000000000815260040161141f90613469565b60405180910390fd5b611433838383611d26565b61143e600082611164565b6001600360008573ffffffffffffffffffffffffffffffffffffffff1673ffffffffffffffffffffffffffffffffffffffff168152602001908152602001600020600082825461148e9190613489565b925050819055506001600360008473ffffffffffffffffffffffffffffffffffffffff1673ffffffffffffffffffffffffffffffffffffffff16815260200190815260200160002060008282546114e5919061327d565b92505081905550816002600083815260200190815260200160002060006101000a81548173ffffffffffffffffffffffffffffffffffffffff021916908373ffffffffffffffffffffffffffffffffffffffff160217905550808273ffffffffffffffffffffffffffffffffffffffff168473ffffffffffffffffffffffffffffffffffffffff167fddf252ad1be2c89b69c2b068fc378daa952ba7f163c4a11628f55a4df523b3ef60405160405180910390a46115a4838383611d2b565b505050565b6115ba816115b561115c565b611d30565b50565b6115c78282610d7a565b61169a5760016006600084815260200190815260200160002060000160008373ffffffffffffffffffffffffffffffffffffffff1673ffffffffffffffffffffffffffffffffffffffff16815260200190815260200160002060006101000a81548160ff02191690831515021790555061163f61115c565b73ffffffffffffffffffffffffffffffffffffffff168173ffffffffffffffffffffffffffffffffffffffff16837f2f8788117e7eff1d82e926ec794901d17c78024a50270940304540a733656f0d60405160405180910390a45b5050565b6116a88282610d7a565b1561177c5760006006600084815260200190815260200160002060000160008373ffffffffffffffffffffffffffffffffffffffff1673ffffffffffffffffffffffffffffffffffffffff16815260200190815260200160002060006101000a81548160ff02191690831515021790555061172161115c565b73ffffffffffffffffffffffffffffffffffffffff168173ffffffffffffffffffffffffffffffffffffffff16837ff6391f5c32d9c69d2a47ea670b442974b53935d1edc7fd64eb21e047a839171b60405160405180910390a45b5050565b600081600001549050919050565b6001816000016000828254019250508190555050565b6117be828260405180602001604052806000815250611dcd565b5050565b60006117cd82610bec565b90506117db81600084611d26565b6117e6600083611164565b6001600360008373ffffffffffffffffffffffffffffffffffffffff1673ffffffffffffffffffffffffffffffffffffffff16815260200190815260200160002060008282546118369190613489565b925050819055506002600083815260200190815260200160002060006101000a81549073ffffffffffffffffffffffffffffffffffffffff021916905581600073ffffffffffffffffffffffffffffffffffffffff168273ffffffffffffffffffffffffffffffffffffffff167fddf252ad1be2c89b69c2b068fc378daa952ba7f163c4a11628f55a4df523b3ef60405160405180910390a46118db81600084611d2b565b5050565b8173ffffffffffffffffffffffffffffffffffffffff168373ffffffffffffffffffffffffffffffffffffffff160361194d576040517f08c379a000000000000000000000000000000000000000000000000000000000815260040161194490613509565b60405180910390fd5b80600560008573ffffffffffffffffffffffffffffffffffffffff1673ffffffffffffffffffffffffffffffffffffffff16815260200190815260200160002060008473ffffffffffffffffffffffffffffffffffffffff1673ffffffffffffffffffffffffffffffffffffffff16815260200190815260200160002060006101000a81548160ff0219169083151502179055508173ffffffffffffffffffffffffffffffffffffffff168373ffffffffffffffffffffffffffffffffffffffff167f17307eab39ab6107e8899845ad3d59bd9653f200f220920489ca2b5937696c3183604051611a3e9190612505565b60405180910390a3505050565b611a56848484611343565b611a6284848484611e28565b611aa1576040517f08c379a0000000000000000000000000000000000000000000000000000000008152600401611a989061359b565b60405180910390fd5b50505050565b60606040518060400160405280601181526020017f697066733a3a2f697066735f6c696e6b2f000000000000000000000000000000815250905090565b606060008203611b2b576040518060400160405280600181526020017f30000000000000000000000000000000000000000000000000000000000000008152509050611c3f565b600082905060005b60008214611b5d578080611b46906135bb565b915050600a82611b569190613632565b9150611b33565b60008167ffffffffffffffff811115611b7957611b78612960565b5b6040519080825280601f01601f191660200182016040528015611bab5781602001600182028036833780820191505090505b5090505b60008514611c3857600182611bc49190613489565b9150600a85611bd39190613663565b6030611bdf919061327d565b60f81b818381518110611bf557611bf4613694565b5b60200101907effffffffffffffffffffffffffffffffffffffffffffffffffffffffffffff1916908160001a905350600a85611c319190613632565b9450611baf565b8093505050505b919050565b60007f80ac58cd000000000000000000000000000000000000000000000000000000007bffffffffffffffffffffffffffffffffffffffffffffffffffffffff1916827bffffffffffffffffffffffffffffffffffffffffffffffffffffffff19161480611d0f57507f5b5e139f000000000000000000000000000000000000000000000000000000007bffffffffffffffffffffffffffffffffffffffffffffffffffffffff1916827bffffffffffffffffffffffffffffffffffffffffffffffffffffffff1916145b80611d1f5750611d1e82611faf565b5b9050919050565b505050565b505050565b611d3a8282610d7a565b611dc957611d5f8173ffffffffffffffffffffffffffffffffffffffff166014612019565b611d6d8360001c6020612019565b604051602001611d7e92919061375b565b6040516020818303038152906040526040517f08c379a0000000000000000000000000000000000000000000000000000000008152600401611dc091906125b9565b60405180910390fd5b5050565b611dd78383612255565b611de46000848484611e28565b611e23576040517f08c379a0000000000000000000000000000000000000000000000000000000008152600401611e1a9061359b565b60405180910390fd5b505050565b6000611e498473ffffffffffffffffffffffffffffffffffffffff1661242e565b15611fa2578373ffffffffffffffffffffffffffffffffffffffff1663150b7a02611e7261115c565b8786866040518563ffffffff1660e01b8152600401611e9494939291906137ea565b6020604051808303816000875af1925050508015611ed057506040513d601f19601f82011682018060405250810190611ecd919061384b565b60015b611f52573d8060008114611f00576040519150601f19603f3d011682016040523d82523d6000602084013e611f05565b606091505b506000815103611f4a576040517f08c379a0000000000000000000000000000000000000000000000000000000008152600401611f419061359b565b60405180910390fd5b805181602001fd5b63150b7a0260e01b7bffffffffffffffffffffffffffffffffffffffffffffffffffffffff1916817bffffffffffffffffffffffffffffffffffffffffffffffffffffffff191614915050611fa7565b600190505b949350505050565b60007f01ffc9a7000000000000000000000000000000000000000000000000000000007bffffffffffffffffffffffffffffffffffffffffffffffffffffffff1916827bffffffffffffffffffffffffffffffffffffffffffffffffffffffff1916149050919050565b60606000600283600261202c9190613878565b612036919061327d565b67ffffffffffffffff81111561204f5761204e612960565b5b6040519080825280601f01601f1916602001820160405280156120815781602001600182028036833780820191505090505b5090507f3000000000000000000000000000000000000000000000000000000000000000816000815181106120b9576120b8613694565b5b60200101907effffffffffffffffffffffffffffffffffffffffffffffffffffffffffffff1916908160001a9053507f78000000000000000000000000000000000000000000000000000000000000008160018151811061211d5761211c613694565b5b60200101907effffffffffffffffffffffffffffffffffffffffffffffffffffffffffffff1916908160001a9053506000600184600261215d9190613878565b612167919061327d565b90505b6001811115612207577f3031323334353637383961626364656600000000000000000000000000000000600f8616601081106121a9576121a8613694565b5b1a60f81b8282815181106121c0576121bf613694565b5b60200101907effffffffffffffffffffffffffffffffffffffffffffffffffffffffffffff1916908160001a905350600485901c945080612200906138d2565b905061216a565b506000841461224b576040517f08c379a000000000000000000000000000000000000000000000000000000000815260040161224290613947565b60405180910390fd5b8091505092915050565b600073ffffffffffffffffffffffffffffffffffffffff168273ffffffffffffffffffffffffffffffffffffffff16036122c4576040517f08c379a00000000000000000000000000000000000000000000000000000000081526004016122bb906139b3565b60405180910390fd5b6122cd816110f0565b1561230d576040517f08c379a000000000000000000000000000000000000000000000000000000000815260040161230490613a1f565b60405180910390fd5b61231960008383611d26565b6001600360008473ffffffffffffffffffffffffffffffffffffffff1673ffffffffffffffffffffffffffffffffffffffff1681526020019081526020016000206000828254612369919061327d565b92505081905550816002600083815260200190815260200160002060006101000a81548173ffffffffffffffffffffffffffffffffffffffff021916908373ffffffffffffffffffffffffffffffffffffffff160217905550808273ffffffffffffffffffffffffffffffffffffffff16600073ffffffffffffffffffffffffffffffffffffffff167fddf252ad1be2c89b69c2b068fc378daa952ba7f163c4a11628f55a4df523b3ef60405160405180910390a461242a60008383611d2b565b5050565b6000808273ffffffffffffffffffffffffffffffffffffffff163b119050919050565b6000604051905090565b600080fd5b600080fd5b60007fffffffff0000000000000000000000000000000000000000000000000000000082169050919050565b61249a81612465565b81146124a557600080fd5b50565b6000813590506124b781612491565b92915050565b6000602082840312156124d3576124d261245b565b5b60006124e1848285016124a8565b91505092915050565b60008115159050919050565b6124ff816124ea565b82525050565b600060208201905061251a60008301846124f6565b92915050565b600081519050919050565b600082825260208201905092915050565b60005b8381101561255a57808201518184015260208101905061253f565b83811115612569576000848401525b50505050565b6000601f19601f8301169050919050565b600061258b82612520565b612595818561252b565b93506125a581856020860161253c565b6125ae8161256f565b840191505092915050565b600060208201905081810360008301526125d38184612580565b905092915050565b6000819050919050565b6125ee816125db565b81146125f957600080fd5b50565b60008135905061260b816125e5565b92915050565b6000602082840312156126275761262661245b565b5b6000612635848285016125fc565b91505092915050565b600073ffffffffffffffffffffffffffffffffffffffff82169050919050565b60006126698261263e565b9050919050565b6126798161265e565b82525050565b60006020820190506126946000830184612670565b92915050565b6126a38161265e565b81146126ae57600080fd5b50565b6000813590506126c08161269a565b92915050565b600080604083850312156126dd576126dc61245b565b5b60006126eb858286016126b1565b92505060206126fc858286016125fc565b9150509250929050565b61270f816125db565b82525050565b600060208201905061272a6000830184612706565b92915050565b6000806000606084860312156127495761274861245b565b5b6000612757868287016126b1565b9350506020612768868287016126b1565b9250506040612779868287016125fc565b9150509250925092565b6000819050919050565b61279681612783565b81146127a157600080fd5b50565b6000813590506127b38161278d565b92915050565b6000602082840312156127cf576127ce61245b565b5b60006127dd848285016127a4565b91505092915050565b6127ef81612783565b82525050565b600060208201905061280a60008301846127e6565b92915050565b600080604083850312156128275761282661245b565b5b6000612835858286016127a4565b9250506020612846858286016126b1565b9150509250929050565b6000602082840312156128665761286561245b565b5b6000612874848285016126b1565b91505092915050565b600067ffffffffffffffff82169050919050565b61289a8161287d565b81146128a557600080fd5b50565b6000813590506128b781612891565b92915050565b6000602082840312156128d3576128d261245b565b5b60006128e1848285016128a8565b91505092915050565b6128f3816124ea565b81146128fe57600080fd5b50565b600081359050612910816128ea565b92915050565b6000806040838503121561292d5761292c61245b565b5b600061293b858286016126b1565b925050602061294c85828601612901565b9150509250929050565b600080fd5b600080fd5b7f4e487b7100000000000000000000000000000000000000000000000000000000600052604160045260246000fd5b6129988261256f565b810181811067ffffffffffffffff821117156129b7576129b6612960565b5b80604052505050565b60006129ca612451565b90506129d6828261298f565b919050565b600067ffffffffffffffff8211156129f6576129f5612960565b5b6129ff8261256f565b9050602081019050919050565b82818337600083830152505050565b6000612a2e612a29846129db565b6129c0565b905082815260208101848484011115612a4a57612a4961295b565b5b612a55848285612a0c565b509392505050565b600082601f830112612a7257612a71612956565b5b8135612a82848260208601612a1b565b91505092915050565b60008060008060808587031215612aa557612aa461245b565b5b6000612ab3878288016126b1565b9450506020612ac4878288016126b1565b9350506040612ad5878288016125fc565b925050606085013567ffffffffffffffff811115612af657612af5612460565b5b612b0287828801612a5d565b91505092959194509250565b60008060408385031215612b2557612b2461245b565b5b6000612b33858286016126b1565b9250506020612b44858286016126b1565b9150509250929050565b7f4e487b7100000000000000000000000000000000000000000000000000000000600052602260045260246000fd5b60006002820490506001821680612b9557607f821691505b602082108103612ba857612ba7612b4e565b5b50919050565b7f4552433732313a20617070726f76656420717565727920666f72206e6f6e657860008201527f697374656e7420746f6b656e0000000000000000000000000000000000000000602082015250565b6000612c0a602c8361252b565b9150612c1582612bae565b604082019050919050565b60006020820190508181036000830152612c3981612bfd565b9050919050565b7f4552433732313a20617070726f76616c20746f2063757272656e74206f776e6560008201527f7200000000000000000000000000000000000000000000000000000000000000602082015250565b6000612c9c60218361252b565b9150612ca782612c40565b604082019050919050565b60006020820190508181036000830152612ccb81612c8f565b9050919050565b7f4552433732313a20617070726f76652063616c6c6572206973206e6f74206f7760008201527f6e6572206e6f7220617070726f76656420666f7220616c6c0000000000000000602082015250565b6000612d2e60388361252b565b9150612d3982612cd2565b604082019050919050565b60006020820190508181036000830152612d5d81612d21565b9050919050565b7f62616c616e6365206e6f7420656e6f7567680000000000000000000000000000600082015250565b6000612d9a60128361252b565b9150612da582612d64565b602082019050919050565b60006020820190508181036000830152612dc981612d8d565b9050919050565b600081905092915050565b50565b6000612deb600083612dd0565b9150612df682612ddb565b600082019050919050565b6000612e0c82612dde565b9150819050919050565b7f4661696c656420746f2073656e64206d6f6e6579000000000000000000000000600082015250565b6000612e4c60148361252b565b9150612e5782612e16565b602082019050919050565b60006020820190508181036000830152612e7b81612e3f565b9050919050565b7f4552433732313a207472616e736665722063616c6c6572206973206e6f74206f60008201527f776e6572206e6f7220617070726f766564000000000000000000000000000000602082015250565b6000612ede60318361252b565b9150612ee982612e82565b604082019050919050565b60006020820190508181036000830152612f0d81612ed1565b9050919050565b7f416363657373436f6e74726f6c3a2063616e206f6e6c792072656e6f756e636560008201527f20726f6c657320666f722073656c660000000000000000000000000000000000602082015250565b6000612f70602f8361252b565b9150612f7b82612f14565b604082019050919050565b60006020820190508181036000830152612f9f81612f63565b9050919050565b7f4552433732314275726e61626c653a2063616c6c6572206973206e6f74206f7760008201527f6e6572206e6f7220617070726f76656400000000000000000000000000000000602082015250565b600061300260308361252b565b915061300d82612fa6565b604082019050919050565b6000602082019050818103600083015261303181612ff5565b9050919050565b7f4552433732313a206f776e657220717565727920666f72206e6f6e657869737460008201527f656e7420746f6b656e0000000000000000000000000000000000000000000000602082015250565b600061309460298361252b565b915061309f82613038565b604082019050919050565b600060208201905081810360008301526130c381613087565b9050919050565b7f4552433732313a2062616c616e636520717565727920666f7220746865207a6560008201527f726f206164647265737300000000000000000000000000000000000000000000602082015250565b6000613126602a8361252b565b9150613131826130ca565b604082019050919050565b6000602082019050818103600083015261315581613119565b9050919050565b7f4552433732314d657461646174613a2055524920717565727920666f72206e6f60008201527f6e6578697374656e7420746f6b656e0000000000000000000000000000000000602082015250565b60006131b8602f8361252b565b91506131c38261315c565b604082019050919050565b600060208201905081810360008301526131e7816131ab565b9050919050565b600081905092915050565b600061320482612520565b61320e81856131ee565b935061321e81856020860161253c565b80840191505092915050565b600061323682856131f9565b915061324282846131f9565b91508190509392505050565b7f4e487b7100000000000000000000000000000000000000000000000000000000600052601160045260246000fd5b6000613288826125db565b9150613293836125db565b9250827fffffffffffffffffffffffffffffffffffffffffffffffffffffffffffffffff038211156132c8576132c761324e565b5b828201905092915050565b7f4552433732313a206f70657261746f7220717565727920666f72206e6f6e657860008201527f697374656e7420746f6b656e0000000000000000000000000000000000000000602082015250565b600061332f602c8361252b565b915061333a826132d3565b604082019050919050565b6000602082019050818103600083015261335e81613322565b9050919050565b7f4552433732313a207472616e736665722066726f6d20696e636f72726563742060008201527f6f776e6572000000000000000000000000000000000000000000000000000000602082015250565b60006133c160258361252b565b91506133cc82613365565b604082019050919050565b600060208201905081810360008301526133f0816133b4565b9050919050565b7f4552433732313a207472616e7366657220746f20746865207a65726f2061646460008201527f7265737300000000000000000000000000000000000000000000000000000000602082015250565b600061345360248361252b565b915061345e826133f7565b604082019050919050565b6000602082019050818103600083015261348281613446565b9050919050565b6000613494826125db565b915061349f836125db565b9250828210156134b2576134b161324e565b5b828203905092915050565b7f4552433732313a20617070726f766520746f2063616c6c657200000000000000600082015250565b60006134f360198361252b565b91506134fe826134bd565b602082019050919050565b60006020820190508181036000830152613522816134e6565b9050919050565b7f4552433732313a207472616e7366657220746f206e6f6e20455243373231526560008201527f63656976657220696d706c656d656e7465720000000000000000000000000000602082015250565b600061358560328361252b565b915061359082613529565b604082019050919050565b600060208201905081810360008301526135b481613578565b9050919050565b60006135c6826125db565b91507fffffffffffffffffffffffffffffffffffffffffffffffffffffffffffffffff82036135f8576135f761324e565b5b600182019050919050565b7f4e487b7100000000000000000000000000000000000000000000000000000000600052601260045260246000fd5b600061363d826125db565b9150613648836125db565b92508261365857613657613603565b5b828204905092915050565b600061366e826125db565b9150613679836125db565b92508261368957613688613603565b5b828206905092915050565b7f4e487b7100000000000000000000000000000000000000000000000000000000600052603260045260246000fd5b7f416363657373436f6e74726f6c3a206163636f756e7420000000000000000000600082015250565b60006136f96017836131ee565b9150613704826136c3565b601782019050919050565b7f206973206d697373696e6720726f6c6520000000000000000000000000000000600082015250565b60006137456011836131ee565b91506137508261370f565b601182019050919050565b6000613766826136ec565b915061377282856131f9565b915061377d82613738565b915061378982846131f9565b91508190509392505050565b600081519050919050565b600082825260208201905092915050565b60006137bc82613795565b6137c681856137a0565b93506137d681856020860161253c565b6137df8161256f565b840191505092915050565b60006080820190506137ff6000830187612670565b61380c6020830186612670565b6138196040830185612706565b818103606083015261382b81846137b1565b905095945050505050565b60008151905061384581612491565b92915050565b6000602082840312156138615761386061245b565b5b600061386f84828501613836565b91505092915050565b6000613883826125db565b915061388e836125db565b9250817fffffffffffffffffffffffffffffffffffffffffffffffffffffffffffffffff04831182151516156138c7576138c661324e565b5b828202905092915050565b60006138dd826125db565b9150600082036138f0576138ef61324e565b5b600182039050919050565b7f537472696e67733a20686578206c656e67746820696e73756666696369656e74600082015250565b600061393160208361252b565b915061393c826138fb565b602082019050919050565b6000602082019050818103600083015261396081613924565b9050919050565b7f4552433732313a206d696e7420746f20746865207a65726f2061646472657373600082015250565b600061399d60208361252b565b91506139a882613967565b602082019050919050565b600060208201905081810360008301526139cc81613990565b9050919050565b7f4552433732313a20746f6b656e20616c7265616479206d696e74656400000000600082015250565b6000613a09601c8361252b565b9150613a14826139d3565b602082019050919050565b60006020820190508181036000830152613a38816139fc565b905091905056fea264697066735822122054fcf6a5d84533b37603134acfbd99ea8a2793cfeaeb30cd1d6e8f6d00b6c37364736f6c634300080e0033",
  "immutableReferences": {},
  "source": "// SPDX-License-Identifier: MIT\r\npragma solidity ^0.8.4;\r\n\r\nimport \"@openzeppelin/contracts/token/ERC20/ERC20.sol\";\r\nimport \"@openzeppelin/contracts/token/ERC721/ERC721.sol\";\r\nimport \"@openzeppelin/contracts/utils/math/SafeMath.sol\";\r\nimport \"@openzeppelin/contracts/token/ERC721/extensions/ERC721Burnable.sol\";\r\nimport \"@openzeppelin/contracts/access/AccessControl.sol\";\r\nimport \"@openzeppelin/contracts/utils/Counters.sol\";\r\n\r\n//   import \r\n// contract '0xce146236fe4e48240cd8f7d22c38c07c7a6bab0b'\r\n\r\ncontract RandomJolaman is ERC721, ERC721Burnable, AccessControl {\r\n    using SafeMath for uint256;\r\n    uint64 mintingPrice = 2*10**18;\r\n    using Counters for Counters.Counter;\r\n\r\n    bytes32 public constant MINTER_ROLE = keccak256(\"MINTER_ROLE\");\r\n    Counters.Counter private _tokenIdCounter;\r\n    address public owner;\r\n\r\n    uint totalIncome; // the amount of donations\r\n    \r\n    constructor() ERC721(\"Jolaman\", \"JL\") {\r\n        owner = msg.sender;\r\n        _grantRole(DEFAULT_ADMIN_ROLE, msg.sender);\r\n        _grantRole(MINTER_ROLE, msg.sender);\r\n    }\r\n\r\n    function _baseURI() internal pure override returns (string memory) {\r\n        return \"ipfs::/ipfs_link/\";\r\n    }\r\n\r\n    function safeMint(address to) public onlyRole(MINTER_ROLE) {\r\n        uint256 tokenId = _tokenIdCounter.current();\r\n        _tokenIdCounter.increment();\r\n        _safeMint(to, tokenId);\r\n    }\r\n\r\n    // The following functions are overrides required by Solidity.\r\n\r\n    function supportsInterface(bytes4 interfaceId)\r\n        public\r\n        view\r\n        override(ERC721, AccessControl)\r\n        returns (bool)\r\n    {\r\n        return super.supportsInterface(interfaceId);\r\n    }\r\n\r\n    function getBalance() public view returns (uint256) {\r\n        return msg.sender.balance;\r\n    }\r\n\r\n    function setMintingPrice(uint64 _price) public {\r\n        mintingPrice = _price;\r\n       \r\n    }\r\n\r\n  function checkBalance() internal returns (bool) {\r\n      if (msg.sender.balance > msg.value) {\r\n          return true;\r\n      } else {\r\n          return false;\r\n      }\r\n  }\r\n//   payment msg.value   caver.js .\r\n  function pay() public payable {\r\n    require(checkBalance(), \"balance not enough\");\r\n    (bool success,) = owner.call{value: msg.value}(\"\");\r\n    require(success, \"Failed to send money\");\r\n    totalIncome = totalIncome.add(msg.value);\r\n  }\r\n}",
  "sourcePath": "D:\\kyoungil\\Blockchain_based_Fintech\\workspace\\nft-defi-hashbrand\\nft-gusaguo\\contracts\\RandomJolaman.sol",
  "compiler": {
    "name": "solc",
    "version": "0.8.14+commit.80d49f37.Emscripten.clang"
  },
  "schemaVersion": "3.4.7",
  "updatedAt": "2022-06-03T13:18:48.525Z",
  "networkType": "ethereum",
  "devdoc": {
    "kind": "dev",
    "methods": {
      "approve(address,uint256)": {
        "details": "See {IERC721-approve}."
      },
      "balanceOf(address)": {
        "details": "See {IERC721-balanceOf}."
      },
      "burn(uint256)": {
        "details": "Burns `tokenId`. See {ERC721-_burn}. Requirements: - The caller must own `tokenId` or be an approved operator."
      },
      "getApproved(uint256)": {
        "details": "See {IERC721-getApproved}."
      },
      "getRoleAdmin(bytes32)": {
        "details": "Returns the admin role that controls `role`. See {grantRole} and {revokeRole}. To change a role's admin, use {_setRoleAdmin}."
      },
      "grantRole(bytes32,address)": {
        "details": "Grants `role` to `account`. If `account` had not been already granted `role`, emits a {RoleGranted} event. Requirements: - the caller must have ``role``'s admin role."
      },
      "hasRole(bytes32,address)": {
        "details": "Returns `true` if `account` has been granted `role`."
      },
      "isApprovedForAll(address,address)": {
        "details": "See {IERC721-isApprovedForAll}."
      },
      "name()": {
        "details": "See {IERC721Metadata-name}."
      },
      "ownerOf(uint256)": {
        "details": "See {IERC721-ownerOf}."
      },
      "renounceRole(bytes32,address)": {
        "details": "Revokes `role` from the calling account. Roles are often managed via {grantRole} and {revokeRole}: this function's purpose is to provide a mechanism for accounts to lose their privileges if they are compromised (such as when a trusted device is misplaced). If the calling account had been revoked `role`, emits a {RoleRevoked} event. Requirements: - the caller must be `account`."
      },
      "revokeRole(bytes32,address)": {
        "details": "Revokes `role` from `account`. If `account` had been granted `role`, emits a {RoleRevoked} event. Requirements: - the caller must have ``role``'s admin role."
      },
      "safeTransferFrom(address,address,uint256)": {
        "details": "See {IERC721-safeTransferFrom}."
      },
      "safeTransferFrom(address,address,uint256,bytes)": {
        "details": "See {IERC721-safeTransferFrom}."
      },
      "setApprovalForAll(address,bool)": {
        "details": "See {IERC721-setApprovalForAll}."
      },
      "symbol()": {
        "details": "See {IERC721Metadata-symbol}."
      },
      "tokenURI(uint256)": {
        "details": "See {IERC721Metadata-tokenURI}."
      },
      "transferFrom(address,address,uint256)": {
        "details": "See {IERC721-transferFrom}."
      }
    },
    "version": 1
  },
  "userdoc": {
    "kind": "user",
    "methods": {},
    "version": 1
  }
}