{
  "contractName": "RandomJolaman",
  "abi": [
    {
      "inputs": [
        {
          "internalType": "string",
          "name": "_metadataURI",
          "type": "string"
        }
      ],
      "stateMutability": "nonpayable",
      "type": "constructor"
    },
    {
      "anonymous": false,
      "inputs": [
        {
          "indexed": true,
          "internalType": "address",
          "name": "owner",
          "type": "address"
        },
        {
          "indexed": true,
          "internalType": "address",
          "name": "approved",
          "type": "address"
        },
        {
          "indexed": true,
          "internalType": "uint256",
          "name": "tokenId",
          "type": "uint256"
        }
      ],
      "name": "Approval",
      "type": "event"
    },
    {
      "anonymous": false,
      "inputs": [
        {
          "indexed": true,
          "internalType": "address",
          "name": "owner",
          "type": "address"
        },
        {
          "indexed": true,
          "internalType": "address",
          "name": "operator",
          "type": "address"
        },
        {
          "indexed": false,
          "internalType": "bool",
          "name": "approved",
          "type": "bool"
        }
      ],
      "name": "ApprovalForAll",
      "type": "event"
    },
    {
      "anonymous": false,
      "inputs": [
        {
          "indexed": true,
          "internalType": "address",
          "name": "previousOwner",
          "type": "address"
        },
        {
          "indexed": true,
          "internalType": "address",
          "name": "newOwner",
          "type": "address"
        }
      ],
      "name": "OwnershipTransferred",
      "type": "event"
    },
    {
      "anonymous": false,
      "inputs": [
        {
          "indexed": true,
          "internalType": "bytes32",
          "name": "role",
          "type": "bytes32"
        },
        {
          "indexed": true,
          "internalType": "bytes32",
          "name": "previousAdminRole",
          "type": "bytes32"
        },
        {
          "indexed": true,
          "internalType": "bytes32",
          "name": "newAdminRole",
          "type": "bytes32"
        }
      ],
      "name": "RoleAdminChanged",
      "type": "event"
    },
    {
      "anonymous": false,
      "inputs": [
        {
          "indexed": true,
          "internalType": "bytes32",
          "name": "role",
          "type": "bytes32"
        },
        {
          "indexed": true,
          "internalType": "address",
          "name": "account",
          "type": "address"
        },
        {
          "indexed": true,
          "internalType": "address",
          "name": "sender",
          "type": "address"
        }
      ],
      "name": "RoleGranted",
      "type": "event"
    },
    {
      "anonymous": false,
      "inputs": [
        {
          "indexed": true,
          "internalType": "bytes32",
          "name": "role",
          "type": "bytes32"
        },
        {
          "indexed": true,
          "internalType": "address",
          "name": "account",
          "type": "address"
        },
        {
          "indexed": true,
          "internalType": "address",
          "name": "sender",
          "type": "address"
        }
      ],
      "name": "RoleRevoked",
      "type": "event"
    },
    {
      "anonymous": false,
      "inputs": [
        {
          "indexed": true,
          "internalType": "address",
          "name": "from",
          "type": "address"
        },
        {
          "indexed": true,
          "internalType": "address",
          "name": "to",
          "type": "address"
        },
        {
          "indexed": true,
          "internalType": "uint256",
          "name": "tokenId",
          "type": "uint256"
        }
      ],
      "name": "Transfer",
      "type": "event"
    },
    {
      "inputs": [
        {
          "internalType": "uint256",
          "name": "",
          "type": "uint256"
        }
      ],
      "name": "AlreadyMint",
      "outputs": [
        {
          "internalType": "bool",
          "name": "",
          "type": "bool"
        }
      ],
      "stateMutability": "view",
      "type": "function"
    },
    {
      "inputs": [],
      "name": "DEFAULT_ADMIN_ROLE",
      "outputs": [
        {
          "internalType": "bytes32",
          "name": "",
          "type": "bytes32"
        }
      ],
      "stateMutability": "view",
      "type": "function"
    },
    {
      "inputs": [],
      "name": "MAX_NORMAL_TOKEN_COUNT",
      "outputs": [
        {
          "internalType": "uint256",
          "name": "",
          "type": "uint256"
        }
      ],
      "stateMutability": "view",
      "type": "function"
    },
    {
      "inputs": [],
      "name": "MAX_SPECIAL_TOKEN_COUNT",
      "outputs": [
        {
          "internalType": "uint256",
          "name": "",
          "type": "uint256"
        }
      ],
      "stateMutability": "view",
      "type": "function"
    },
    {
      "inputs": [],
      "name": "MINTER_ROLE",
      "outputs": [
        {
          "internalType": "bytes32",
          "name": "",
          "type": "bytes32"
        }
      ],
      "stateMutability": "view",
      "type": "function"
    },
    {
      "inputs": [],
      "name": "SPECIAL_MINTER_ROLE",
      "outputs": [
        {
          "internalType": "bytes32",
          "name": "",
          "type": "bytes32"
        }
      ],
      "stateMutability": "view",
      "type": "function"
    },
    {
      "inputs": [
        {
          "internalType": "uint256",
          "name": "",
          "type": "uint256"
        }
      ],
      "name": "SpecialAlreadyMint",
      "outputs": [
        {
          "internalType": "bool",
          "name": "",
          "type": "bool"
        }
      ],
      "stateMutability": "view",
      "type": "function"
    },
    {
      "inputs": [],
      "name": "_owner",
      "outputs": [
        {
          "internalType": "address",
          "name": "",
          "type": "address"
        }
      ],
      "stateMutability": "view",
      "type": "function"
    },
    {
      "inputs": [
        {
          "internalType": "address",
          "name": "to",
          "type": "address"
        },
        {
          "internalType": "uint256",
          "name": "tokenId",
          "type": "uint256"
        }
      ],
      "name": "approve",
      "outputs": [],
      "stateMutability": "nonpayable",
      "type": "function"
    },
    {
      "inputs": [
        {
          "internalType": "address",
          "name": "owner",
          "type": "address"
        }
      ],
      "name": "balanceOf",
      "outputs": [
        {
          "internalType": "uint256",
          "name": "",
          "type": "uint256"
        }
      ],
      "stateMutability": "view",
      "type": "function"
    },
    {
      "inputs": [
        {
          "internalType": "uint256",
          "name": "tokenId",
          "type": "uint256"
        }
      ],
      "name": "getApproved",
      "outputs": [
        {
          "internalType": "address",
          "name": "",
          "type": "address"
        }
      ],
      "stateMutability": "view",
      "type": "function"
    },
    {
      "inputs": [
        {
          "internalType": "bytes32",
          "name": "role",
          "type": "bytes32"
        }
      ],
      "name": "getRoleAdmin",
      "outputs": [
        {
          "internalType": "bytes32",
          "name": "",
          "type": "bytes32"
        }
      ],
      "stateMutability": "view",
      "type": "function"
    },
    {
      "inputs": [
        {
          "internalType": "bytes32",
          "name": "role",
          "type": "bytes32"
        },
        {
          "internalType": "address",
          "name": "account",
          "type": "address"
        }
      ],
      "name": "grantRole",
      "outputs": [],
      "stateMutability": "nonpayable",
      "type": "function"
    },
    {
      "inputs": [
        {
          "internalType": "bytes32",
          "name": "role",
          "type": "bytes32"
        },
        {
          "internalType": "address",
          "name": "account",
          "type": "address"
        }
      ],
      "name": "hasRole",
      "outputs": [
        {
          "internalType": "bool",
          "name": "",
          "type": "bool"
        }
      ],
      "stateMutability": "view",
      "type": "function"
    },
    {
      "inputs": [
        {
          "internalType": "address",
          "name": "owner",
          "type": "address"
        },
        {
          "internalType": "address",
          "name": "operator",
          "type": "address"
        }
      ],
      "name": "isApprovedForAll",
      "outputs": [
        {
          "internalType": "bool",
          "name": "",
          "type": "bool"
        }
      ],
      "stateMutability": "view",
      "type": "function"
    },
    {
      "inputs": [
        {
          "internalType": "address",
          "name": "",
          "type": "address"
        }
      ],
      "name": "isWhiteList",
      "outputs": [
        {
          "internalType": "bool",
          "name": "",
          "type": "bool"
        }
      ],
      "stateMutability": "view",
      "type": "function"
    },
    {
      "inputs": [
        {
          "internalType": "uint256",
          "name": "",
          "type": "uint256"
        }
      ],
      "name": "mappedJolamanTokenData",
      "outputs": [
        {
          "internalType": "uint256",
          "name": "jolamanTokenType",
          "type": "uint256"
        }
      ],
      "stateMutability": "view",
      "type": "function"
    },
    {
      "inputs": [],
      "name": "metadataURI",
      "outputs": [
        {
          "internalType": "string",
          "name": "",
          "type": "string"
        }
      ],
      "stateMutability": "view",
      "type": "function"
    },
    {
      "inputs": [],
      "name": "mintingPrice",
      "outputs": [
        {
          "internalType": "uint64",
          "name": "",
          "type": "uint64"
        }
      ],
      "stateMutability": "view",
      "type": "function"
    },
    {
      "inputs": [],
      "name": "name",
      "outputs": [
        {
          "internalType": "string",
          "name": "",
          "type": "string"
        }
      ],
      "stateMutability": "view",
      "type": "function"
    },
    {
      "inputs": [],
      "name": "owner",
      "outputs": [
        {
          "internalType": "address",
          "name": "",
          "type": "address"
        }
      ],
      "stateMutability": "view",
      "type": "function"
    },
    {
      "inputs": [
        {
          "internalType": "uint256",
          "name": "tokenId",
          "type": "uint256"
        }
      ],
      "name": "ownerOf",
      "outputs": [
        {
          "internalType": "address",
          "name": "",
          "type": "address"
        }
      ],
      "stateMutability": "view",
      "type": "function"
    },
    {
      "inputs": [],
      "name": "renounceOwnership",
      "outputs": [],
      "stateMutability": "nonpayable",
      "type": "function"
    },
    {
      "inputs": [
        {
          "internalType": "bytes32",
          "name": "role",
          "type": "bytes32"
        },
        {
          "internalType": "address",
          "name": "account",
          "type": "address"
        }
      ],
      "name": "renounceRole",
      "outputs": [],
      "stateMutability": "nonpayable",
      "type": "function"
    },
    {
      "inputs": [
        {
          "internalType": "bytes32",
          "name": "role",
          "type": "bytes32"
        },
        {
          "internalType": "address",
          "name": "account",
          "type": "address"
        }
      ],
      "name": "revokeRole",
      "outputs": [],
      "stateMutability": "nonpayable",
      "type": "function"
    },
    {
      "inputs": [
        {
          "internalType": "address",
          "name": "from",
          "type": "address"
        },
        {
          "internalType": "address",
          "name": "to",
          "type": "address"
        },
        {
          "internalType": "uint256",
          "name": "tokenId",
          "type": "uint256"
        }
      ],
      "name": "safeTransferFrom",
      "outputs": [],
      "stateMutability": "nonpayable",
      "type": "function"
    },
    {
      "inputs": [
        {
          "internalType": "address",
          "name": "from",
          "type": "address"
        },
        {
          "internalType": "address",
          "name": "to",
          "type": "address"
        },
        {
          "internalType": "uint256",
          "name": "tokenId",
          "type": "uint256"
        },
        {
          "internalType": "bytes",
          "name": "_data",
          "type": "bytes"
        }
      ],
      "name": "safeTransferFrom",
      "outputs": [],
      "stateMutability": "nonpayable",
      "type": "function"
    },
    {
      "inputs": [
        {
          "internalType": "address",
          "name": "operator",
          "type": "address"
        },
        {
          "internalType": "bool",
          "name": "approved",
          "type": "bool"
        }
      ],
      "name": "setApprovalForAll",
      "outputs": [],
      "stateMutability": "nonpayable",
      "type": "function"
    },
    {
      "inputs": [],
      "name": "symbol",
      "outputs": [
        {
          "internalType": "string",
          "name": "",
          "type": "string"
        }
      ],
      "stateMutability": "view",
      "type": "function"
    },
    {
      "inputs": [
        {
          "internalType": "uint256",
          "name": "index",
          "type": "uint256"
        }
      ],
      "name": "tokenByIndex",
      "outputs": [
        {
          "internalType": "uint256",
          "name": "",
          "type": "uint256"
        }
      ],
      "stateMutability": "view",
      "type": "function"
    },
    {
      "inputs": [
        {
          "internalType": "address",
          "name": "owner",
          "type": "address"
        },
        {
          "internalType": "uint256",
          "name": "index",
          "type": "uint256"
        }
      ],
      "name": "tokenOfOwnerByIndex",
      "outputs": [
        {
          "internalType": "uint256",
          "name": "",
          "type": "uint256"
        }
      ],
      "stateMutability": "view",
      "type": "function"
    },
    {
      "inputs": [
        {
          "internalType": "uint256",
          "name": "",
          "type": "uint256"
        }
      ],
      "name": "tokenOwner",
      "outputs": [
        {
          "internalType": "address",
          "name": "",
          "type": "address"
        }
      ],
      "stateMutability": "view",
      "type": "function"
    },
    {
      "inputs": [
        {
          "internalType": "address",
          "name": "",
          "type": "address"
        },
        {
          "internalType": "uint256",
          "name": "",
          "type": "uint256"
        }
      ],
      "name": "totalOwnedTokens",
      "outputs": [
        {
          "internalType": "uint256",
          "name": "",
          "type": "uint256"
        }
      ],
      "stateMutability": "view",
      "type": "function"
    },
    {
      "inputs": [],
      "name": "totalSupply",
      "outputs": [
        {
          "internalType": "uint256",
          "name": "",
          "type": "uint256"
        }
      ],
      "stateMutability": "view",
      "type": "function"
    },
    {
      "inputs": [
        {
          "internalType": "address",
          "name": "from",
          "type": "address"
        },
        {
          "internalType": "address",
          "name": "to",
          "type": "address"
        },
        {
          "internalType": "uint256",
          "name": "tokenId",
          "type": "uint256"
        }
      ],
      "name": "transferFrom",
      "outputs": [],
      "stateMutability": "nonpayable",
      "type": "function"
    },
    {
      "inputs": [
        {
          "internalType": "address",
          "name": "newOwner",
          "type": "address"
        }
      ],
      "name": "transferOwnership",
      "outputs": [],
      "stateMutability": "nonpayable",
      "type": "function"
    },
    {
      "inputs": [
        {
          "internalType": "uint256",
          "name": "_tokenId",
          "type": "uint256"
        }
      ],
      "name": "tokenURI",
      "outputs": [
        {
          "internalType": "string",
          "name": "",
          "type": "string"
        }
      ],
      "stateMutability": "view",
      "type": "function"
    },
    {
      "inputs": [
        {
          "internalType": "address",
          "name": "_toWhiteList",
          "type": "address"
        }
      ],
      "name": "addWhiteList",
      "outputs": [],
      "stateMutability": "nonpayable",
      "type": "function"
    },
    {
      "inputs": [
        {
          "internalType": "address",
          "name": "_toWhiteList",
          "type": "address"
        }
      ],
      "name": "removeWhiteList",
      "outputs": [],
      "stateMutability": "nonpayable",
      "type": "function"
    },
    {
      "inputs": [],
      "name": "payment",
      "outputs": [
        {
          "internalType": "bool",
          "name": "",
          "type": "bool"
        }
      ],
      "stateMutability": "payable",
      "type": "function"
    },
    {
      "inputs": [
        {
          "internalType": "address",
          "name": "to",
          "type": "address"
        }
      ],
      "name": "safeMint",
      "outputs": [],
      "stateMutability": "payable",
      "type": "function"
    },
    {
      "inputs": [],
      "name": "payandMint",
      "outputs": [],
      "stateMutability": "payable",
      "type": "function"
    },
    {
      "inputs": [
        {
          "internalType": "address",
          "name": "to",
          "type": "address"
        }
      ],
      "name": "safeMintforWhitelist",
      "outputs": [],
      "stateMutability": "payable",
      "type": "function"
    },
    {
      "inputs": [],
      "name": "specialPayandMint",
      "outputs": [],
      "stateMutability": "payable",
      "type": "function"
    },
    {
      "inputs": [
        {
          "internalType": "uint256",
          "name": "_tokenId",
          "type": "uint256"
        }
      ],
      "name": "getJolamanTokenType",
      "outputs": [
        {
          "internalType": "uint256",
          "name": "",
          "type": "uint256"
        }
      ],
      "stateMutability": "view",
      "type": "function"
    },
    {
      "inputs": [],
      "name": "getBalance",
      "outputs": [
        {
          "internalType": "uint256",
          "name": "",
          "type": "uint256"
        }
      ],
      "stateMutability": "view",
      "type": "function"
    },
    {
      "inputs": [
        {
          "internalType": "uint64",
          "name": "_price",
          "type": "uint64"
        }
      ],
      "name": "setMintingPrice",
      "outputs": [],
      "stateMutability": "nonpayable",
      "type": "function"
    },
    {
      "inputs": [],
      "name": "getCurrent",
      "outputs": [
        {
          "internalType": "uint256",
          "name": "",
          "type": "uint256"
        },
        {
          "internalType": "uint256",
          "name": "",
          "type": "uint256"
        },
        {
          "internalType": "uint256",
          "name": "",
          "type": "uint256"
        },
        {
          "internalType": "uint256",
          "name": "",
          "type": "uint256"
        }
      ],
      "stateMutability": "view",
      "type": "function"
    },
    {
      "inputs": [
        {
          "internalType": "bytes4",
          "name": "interfaceId",
          "type": "bytes4"
        }
      ],
      "name": "supportsInterface",
      "outputs": [
        {
          "internalType": "bool",
          "name": "",
          "type": "bool"
        }
      ],
      "stateMutability": "view",
      "type": "function"
    }
  ],
  "bytecode": "0x6080604052671bc16d674ec80000600e60006101000a81548167ffffffffffffffff021916908367ffffffffffffffff1602179055503480156200004257600080fd5b5060405162005ac338038062005ac383398181016040528101906200006891906200062f565b6040518060400160405280600781526020017f4a6f6c616d616e000000000000000000000000000000000000000000000000008152506040518060400160405280600281526020017f4a4c0000000000000000000000000000000000000000000000000000000000008152508160009080519060200190620000ec929190620003e2565b50806001908051906020019062000105929190620003e2565b505050620001286200011c620001b760201b60201c565b620001bf60201b60201c565b33601060006101000a81548173ffffffffffffffffffffffffffffffffffffffff021916908373ffffffffffffffffffffffffffffffffffffffff160217905550806011908051906020019062000181929190620003e2565b506000600f819055506000600c81905550612710600d81905550620001b06000801b336200028560201b60201c565b50620006e4565b600033905090565b6000600a60009054906101000a900473ffffffffffffffffffffffffffffffffffffffff16905081600a60006101000a81548173ffffffffffffffffffffffffffffffffffffffff021916908373ffffffffffffffffffffffffffffffffffffffff1602179055508173ffffffffffffffffffffffffffffffffffffffff168173ffffffffffffffffffffffffffffffffffffffff167f8be0079c531659141344cd1fd0a4f28419497f9722a3daafe3b4186f6b6457e060405160405180910390a35050565b6200029782826200037760201b60201c565b62000373576001600b600084815260200190815260200160002060000160008373ffffffffffffffffffffffffffffffffffffffff1673ffffffffffffffffffffffffffffffffffffffff16815260200190815260200160002060006101000a81548160ff02191690831515021790555062000318620001b760201b60201c565b73ffffffffffffffffffffffffffffffffffffffff168173ffffffffffffffffffffffffffffffffffffffff16837f2f8788117e7eff1d82e926ec794901d17c78024a50270940304540a733656f0d60405160405180910390a45b5050565b6000600b600084815260200190815260200160002060000160008373ffffffffffffffffffffffffffffffffffffffff1673ffffffffffffffffffffffffffffffffffffffff16815260200190815260200160002060009054906101000a900460ff16905092915050565b828054620003f090620006af565b90600052602060002090601f01602090048101928262000414576000855562000460565b82601f106200042f57805160ff191683800117855562000460565b8280016001018555821562000460579182015b828111156200045f57825182559160200191906001019062000442565b5b5090506200046f919062000473565b5090565b5b808211156200048e57600081600090555060010162000474565b5090565b6000604051905090565b600080fd5b600080fd5b600080fd5b600080fd5b6000601f19601f8301169050919050565b7f4e487b7100000000000000000000000000000000000000000000000000000000600052604160045260246000fd5b620004fb82620004b0565b810181811067ffffffffffffffff821117156200051d576200051c620004c1565b5b80604052505050565b60006200053262000492565b9050620005408282620004f0565b919050565b600067ffffffffffffffff821115620005635762000562620004c1565b5b6200056e82620004b0565b9050602081019050919050565b60005b838110156200059b5780820151818401526020810190506200057e565b83811115620005ab576000848401525b50505050565b6000620005c8620005c28462000545565b62000526565b905082815260208101848484011115620005e757620005e6620004ab565b5b620005f48482856200057b565b509392505050565b600082601f830112620006145762000613620004a6565b5b815162000626848260208601620005b1565b91505092915050565b6000602082840312156200064857620006476200049c565b5b600082015167ffffffffffffffff811115620006695762000668620004a1565b5b6200067784828501620005fc565b91505092915050565b7f4e487b7100000000000000000000000000000000000000000000000000000000600052602260045260246000fd5b60006002820490506001821680620006c857607f821691505b602082108103620006de57620006dd62000680565b5b50919050565b6153cf80620006f46000396000f3fe6080604052600436106102ae5760003560e01c80634f6ccce711610175578063a217fddf116100dc578063d2c4561811610095578063e7cd4a041161006f578063e7cd4a0414610abe578063e985e9c514610ae7578063f2fde38b14610b24578063f99031a714610b4d576102ae565b8063d2c4561814610a2d578063d539139314610a6a578063d547741f14610a95576102ae565b8063a217fddf1461092c578063a22cb46514610957578063b2bdfa7b14610980578063b88d4fde146109ab578063c1514d92146109d4578063c87b56dd146109f0576102ae565b8063715018a61161012e578063715018a61461084d57806373ff361b1461086457806374e3447a1461086e5780638da5cb5b1461089957806391d14854146108c457806395d89b4114610901576102ae565b80634f6ccce7146107385780635aa961e51461077557806362c9fe061461079e5780636352211e146107a857806370446bbe146107e557806370a0823114610810576102ae565b80632f08480d1161021957806337874127116101d257806337874127146106305780633e334cf01461066d57806340d097c3146106aa57806342842e0e146106c657806342f6487a146106ef5780634707a3891461070d576102ae565b80632f08480d1461050b5780632f2ff15d146105485780632f745c591461057157806335a5cfcb146105ae57806335db70b5146105dc57806336568abe14610607576102ae565b806312065fe01161026b57806312065fe0146103e957806318160ddd146104145780631caaa4871461043f5780632042e5c21461047c57806323b872dd146104a5578063248a9ca3146104ce576102ae565b806301ffc9a7146102b357806303ee438c146102f057806306fdde031461031b578063081812fc14610346578063095ea7b3146103835780630c401d7e146103ac575b600080fd5b3480156102bf57600080fd5b506102da60048036038101906102d5919061392e565b610b8a565b6040516102e79190613976565b60405180910390f35b3480156102fc57600080fd5b50610305610b9c565b6040516103129190613a2a565b60405180910390f35b34801561032757600080fd5b50610330610c2a565b60405161033d9190613a2a565b60405180910390f35b34801561035257600080fd5b5061036d60048036038101906103689190613a82565b610cbc565b60405161037a9190613af0565b60405180910390f35b34801561038f57600080fd5b506103aa60048036038101906103a59190613b37565b610d41565b005b3480156103b857600080fd5b506103d360048036038101906103ce9190613a82565b610e58565b6040516103e09190613976565b60405180910390f35b3480156103f557600080fd5b506103fe610e78565b60405161040b9190613b86565b60405180910390f35b34801561042057600080fd5b50610429610e97565b6040516104369190613b86565b60405180910390f35b34801561044b57600080fd5b5061046660048036038101906104619190613a82565b610ea4565b6040516104739190613af0565b60405180910390f35b34801561048857600080fd5b506104a3600480360381019061049e9190613ba1565b610ed7565b005b3480156104b157600080fd5b506104cc60048036038101906104c79190613bce565b610fd8565b005b3480156104da57600080fd5b506104f560048036038101906104f09190613c57565b611038565b6040516105029190613c93565b60405180910390f35b34801561051757600080fd5b50610532600480360381019061052d9190613b37565b611058565b60405161053f9190613b86565b60405180910390f35b34801561055457600080fd5b5061056f600480360381019061056a9190613cae565b611089565b005b34801561057d57600080fd5b5061059860048036038101906105939190613b37565b6110aa565b6040516105a59190613b86565b60405180910390f35b3480156105ba57600080fd5b506105c361114f565b6040516105d39493929190613cee565b60405180910390f35b3480156105e857600080fd5b506105f1611190565b6040516105fe9190613d56565b60405180910390f35b34801561061357600080fd5b5061062e60048036038101906106299190613cae565b6111aa565b005b34801561063c57600080fd5b5061065760048036038101906106529190613a82565b61122d565b6040516106649190613b86565b60405180910390f35b34801561067957600080fd5b50610694600480360381019061068f9190613a82565b61124b565b6040516106a19190613b86565b60405180910390f35b6106c460048036038101906106bf9190613ba1565b61126b565b005b3480156106d257600080fd5b506106ed60048036038101906106e89190613bce565b6113bc565b005b6106f76113dc565b6040516107049190613976565b60405180910390f35b34801561071957600080fd5b50610722611587565b60405161072f9190613b86565b60405180910390f35b34801561074457600080fd5b5061075f600480360381019061075a9190613a82565b61158d565b60405161076c9190613b86565b60405180910390f35b34801561078157600080fd5b5061079c60048036038101906107979190613d9d565b6115fe565b005b6107a661162a565b005b3480156107b457600080fd5b506107cf60048036038101906107ca9190613a82565b611649565b6040516107dc9190613af0565b60405180910390f35b3480156107f157600080fd5b506107fa6116fa565b6040516108079190613b86565b60405180910390f35b34801561081c57600080fd5b5061083760048036038101906108329190613ba1565b611700565b6040516108449190613b86565b60405180910390f35b34801561085957600080fd5b506108626117b7565b005b61086c61183f565b005b34801561087a57600080fd5b5061088361185e565b6040516108909190613c93565b60405180910390f35b3480156108a557600080fd5b506108ae611882565b6040516108bb9190613af0565b60405180910390f35b3480156108d057600080fd5b506108eb60048036038101906108e69190613cae565b6118ac565b6040516108f89190613976565b60405180910390f35b34801561090d57600080fd5b50610916611917565b6040516109239190613a2a565b60405180910390f35b34801561093857600080fd5b506109416119a9565b60405161094e9190613c93565b60405180910390f35b34801561096357600080fd5b5061097e60048036038101906109799190613df6565b6119b0565b005b34801561098c57600080fd5b506109956119c6565b6040516109a29190613af0565b60405180910390f35b3480156109b757600080fd5b506109d260048036038101906109cd9190613f6b565b6119ec565b005b6109ee60048036038101906109e99190613ba1565b611a4e565b005b3480156109fc57600080fd5b50610a176004803603810190610a129190613a82565b611bfc565b604051610a249190613a2a565b60405180910390f35b348015610a3957600080fd5b50610a546004803603810190610a4f9190613a82565b611c4c565b604051610a619190613976565b60405180910390f35b348015610a7657600080fd5b50610a7f611c6c565b604051610a8c9190613c93565b60405180910390f35b348015610aa157600080fd5b50610abc6004803603810190610ab79190613cae565b611c90565b005b348015610aca57600080fd5b50610ae56004803603810190610ae09190613ba1565b611cb1565b005b348015610af357600080fd5b50610b0e6004803603810190610b099190613fee565b611db2565b604051610b1b9190613976565b60405180910390f35b348015610b3057600080fd5b50610b4b6004803603810190610b469190613ba1565b611e46565b005b348015610b5957600080fd5b50610b746004803603810190610b6f9190613ba1565b611f3d565b604051610b819190613976565b60405180910390f35b6000610b9582611f5d565b9050919050565b60118054610ba99061405d565b80601f0160208091040260200160405190810160405280929190818152602001828054610bd59061405d565b8015610c225780601f10610bf757610100808354040283529160200191610c22565b820191906000526020600020905b815481529060010190602001808311610c0557829003601f168201915b505050505081565b606060008054610c399061405d565b80601f0160208091040260200160405190810160405280929190818152602001828054610c659061405d565b8015610cb25780601f10610c8757610100808354040283529160200191610cb2565b820191906000526020600020905b815481529060010190602001808311610c9557829003601f168201915b5050505050905090565b6000610cc782611fd7565b610d06576040517f08c379a0000000000000000000000000000000000000000000000000000000008152600401610cfd90614100565b60405180910390fd5b6004600083815260200190815260200160002060009054906101000a900473ffffffffffffffffffffffffffffffffffffffff169050919050565b6000610d4c82611649565b90508073ffffffffffffffffffffffffffffffffffffffff168373ffffffffffffffffffffffffffffffffffffffff1603610dbc576040517f08c379a0000000000000000000000000000000000000000000000000000000008152600401610db390614192565b60405180910390fd5b8073ffffffffffffffffffffffffffffffffffffffff16610ddb612043565b73ffffffffffffffffffffffffffffffffffffffff161480610e0a5750610e0981610e04612043565b611db2565b5b610e49576040517f08c379a0000000000000000000000000000000000000000000000000000000008152600401610e4090614224565b60405180910390fd5b610e53838361204b565b505050565b60126020528060005260406000206000915054906101000a900460ff1681565b60003373ffffffffffffffffffffffffffffffffffffffff1631905090565b6000600880549050905090565b60156020528060005260406000206000915054906101000a900473ffffffffffffffffffffffffffffffffffffffff1681565b610edf612043565b73ffffffffffffffffffffffffffffffffffffffff16610efd611882565b73ffffffffffffffffffffffffffffffffffffffff1614610f53576040517f08c379a0000000000000000000000000000000000000000000000000000000008152600401610f4a90614290565b60405180910390fd5b6000601760008373ffffffffffffffffffffffffffffffffffffffff1673ffffffffffffffffffffffffffffffffffffffff16815260200190815260200160002060006101000a81548160ff021916908315150217905550610fd57fb696df569c2dfecb5a24edfd39d7f55b0f442be14350cbc68dbe8eb35489d3a6336111aa565b50565b610fe9610fe3612043565b82612104565b611028576040517f08c379a000000000000000000000000000000000000000000000000000000000815260040161101f90614322565b60405180910390fd5b6110338383836121e2565b505050565b6000600b6000838152602001908152602001600020600101549050919050565b6016602052816000526040600020818154811061107457600080fd5b90600052602060002001600091509150505481565b61109282611038565b61109b81612448565b6110a5838361245c565b505050565b60006110b583611700565b82106110f6576040517f08c379a00000000000000000000000000000000000000000000000000000000081526004016110ed906143b4565b60405180910390fd5b600660008473ffffffffffffffffffffffffffffffffffffffff1673ffffffffffffffffffffffffffffffffffffffff168152602001908152602001600020600083815260200190815260200160002054905092915050565b600080600080600c54600d54600e60009054906101000a900467ffffffffffffffff16600f548167ffffffffffffffff169150935093509350935090919293565b600e60009054906101000a900467ffffffffffffffff1681565b6111b2612043565b73ffffffffffffffffffffffffffffffffffffffff168173ffffffffffffffffffffffffffffffffffffffff161461121f576040517f08c379a000000000000000000000000000000000000000000000000000000000815260040161121690614446565b60405180910390fd5b611229828261253d565b5050565b60146020528060005260406000206000915090508060000154905081565b600060146000838152602001908152602001600020600001549050919050565b7f9f2df0fed2c77648de5860a4cc508cd0818c85b8b8a1ab4ceeef8d981c8956a661129581612448565b600c546103e8116112db576040517f08c379a00000000000000000000000000000000000000000000000000000000081526004016112d2906144b2565b60405180910390fd5b34600e60009054906101000a900467ffffffffffffffff1667ffffffffffffffff16111561133e576040517f08c379a00000000000000000000000000000000000000000000000000000000081526004016113359061451e565b60405180910390fd5b6000600c54905061135b6001600c5461261f90919063ffffffff16565b600c81905550600061136d3383612635565b90506040518060200160405280826000015181525060146000848152602001908152602001600020600082015181600001559050506113ac8285612755565b6113b68483612811565b50505050565b6113d7838383604051806020016040528060008152506119ec565b505050565b60006113e66129ea565b611425576040517f08c379a000000000000000000000000000000000000000000000000000000000815260040161141c9061458a565b60405180910390fd5b61142d612a1c565b61146c576040517f08c379a0000000000000000000000000000000000000000000000000000000008152600401611463906145f6565b60405180910390fd5b6000601060009054906101000a900473ffffffffffffffffffffffffffffffffffffffff1673ffffffffffffffffffffffffffffffffffffffff16346040516114b490614647565b60006040518083038185875af1925050503d80600081146114f1576040519150601f19603f3d011682016040523d82523d6000602084013e6114f6565b606091505b505090508061153a576040517f08c379a0000000000000000000000000000000000000000000000000000000008152600401611531906146a8565b60405180910390fd5b61154f34600f5461261f90919063ffffffff16565b600f8190555061157f7f9f2df0fed2c77648de5860a4cc508cd0818c85b8b8a1ab4ceeef8d981c8956a63361245c565b600191505090565b61272481565b6000611597610e97565b82106115d8576040517f08c379a00000000000000000000000000000000000000000000000000000000081526004016115cf9061473a565b60405180910390fd5b600882815481106115ec576115eb61475a565b5b90600052602060002001549050919050565b80600e60006101000a81548167ffffffffffffffff021916908367ffffffffffffffff16021790555050565b60006116346113dc565b905080156116465761164533611a4e565b5b50565b6000806002600084815260200190815260200160002060009054906101000a900473ffffffffffffffffffffffffffffffffffffffff169050600073ffffffffffffffffffffffffffffffffffffffff168173ffffffffffffffffffffffffffffffffffffffff16036116f1576040517f08c379a00000000000000000000000000000000000000000000000000000000081526004016116e8906147fb565b60405180910390fd5b80915050919050565b6103e881565b60008073ffffffffffffffffffffffffffffffffffffffff168273ffffffffffffffffffffffffffffffffffffffff1603611770576040517f08c379a00000000000000000000000000000000000000000000000000000000081526004016117679061488d565b60405180910390fd5b600360008373ffffffffffffffffffffffffffffffffffffffff1673ffffffffffffffffffffffffffffffffffffffff168152602001908152602001600020549050919050565b6117bf612043565b73ffffffffffffffffffffffffffffffffffffffff166117dd611882565b73ffffffffffffffffffffffffffffffffffffffff1614611833576040517f08c379a000000000000000000000000000000000000000000000000000000000815260040161182a90614290565b60405180910390fd5b61183d6000612a56565b565b60006118496113dc565b9050801561185b5761185a3361126b565b5b50565b7fb696df569c2dfecb5a24edfd39d7f55b0f442be14350cbc68dbe8eb35489d3a681565b6000600a60009054906101000a900473ffffffffffffffffffffffffffffffffffffffff16905090565b6000600b600084815260200190815260200160002060000160008373ffffffffffffffffffffffffffffffffffffffff1673ffffffffffffffffffffffffffffffffffffffff16815260200190815260200160002060009054906101000a900460ff16905092915050565b6060600180546119269061405d565b80601f01602080910402602001604051908101604052809291908181526020018280546119529061405d565b801561199f5780601f106119745761010080835404028352916020019161199f565b820191906000526020600020905b81548152906001019060200180831161198257829003601f168201915b5050505050905090565b6000801b81565b6119c26119bb612043565b8383612b1c565b5050565b601060009054906101000a900473ffffffffffffffffffffffffffffffffffffffff1681565b6119fd6119f7612043565b83612104565b611a3c576040517f08c379a0000000000000000000000000000000000000000000000000000000008152600401611a3390614322565b60405180910390fd5b611a4884848484612c88565b50505050565b7fb696df569c2dfecb5a24edfd39d7f55b0f442be14350cbc68dbe8eb35489d3a6611a7881612448565b60011515601760003373ffffffffffffffffffffffffffffffffffffffff1673ffffffffffffffffffffffffffffffffffffffff16815260200190815260200160002060009054906101000a900460ff16151514611ad557600080fd5b600d5461272411611b1b576040517f08c379a0000000000000000000000000000000000000000000000000000000008152600401611b12906144b2565b60405180910390fd5b34600e60009054906101000a900467ffffffffffffffff1667ffffffffffffffff161115611b7e576040517f08c379a0000000000000000000000000000000000000000000000000000000008152600401611b759061451e565b60405180910390fd5b6000600d549050611b9b6001600d5461261f90919063ffffffff16565b600d819055506000611bad3383612635565b9050604051806020016040528082600001518152506014600084815260200190815260200160002060008201518160000155905050611bec8285612755565b611bf68483612811565b50505050565b60606000611c1f6014600085815260200190815260200160002060000154612ce4565b9050601181604051602001611c35929190614a15565b604051602081830303815290604052915050919050565b60136020528060005260406000206000915054906101000a900460ff1681565b7f9f2df0fed2c77648de5860a4cc508cd0818c85b8b8a1ab4ceeef8d981c8956a681565b611c9982611038565b611ca281612448565b611cac838361253d565b505050565b611cb9612043565b73ffffffffffffffffffffffffffffffffffffffff16611cd7611882565b73ffffffffffffffffffffffffffffffffffffffff1614611d2d576040517f08c379a0000000000000000000000000000000000000000000000000000000008152600401611d2490614290565b60405180910390fd5b6001601760008373ffffffffffffffffffffffffffffffffffffffff1673ffffffffffffffffffffffffffffffffffffffff16815260200190815260200160002060006101000a81548160ff021916908315150217905550611daf7fb696df569c2dfecb5a24edfd39d7f55b0f442be14350cbc68dbe8eb35489d3a63361245c565b50565b6000600560008473ffffffffffffffffffffffffffffffffffffffff1673ffffffffffffffffffffffffffffffffffffffff16815260200190815260200160002060008373ffffffffffffffffffffffffffffffffffffffff1673ffffffffffffffffffffffffffffffffffffffff16815260200190815260200160002060009054906101000a900460ff16905092915050565b611e4e612043565b73ffffffffffffffffffffffffffffffffffffffff16611e6c611882565b73ffffffffffffffffffffffffffffffffffffffff1614611ec2576040517f08c379a0000000000000000000000000000000000000000000000000000000008152600401611eb990614290565b60405180910390fd5b600073ffffffffffffffffffffffffffffffffffffffff168173ffffffffffffffffffffffffffffffffffffffff1603611f31576040517f08c379a0000000000000000000000000000000000000000000000000000000008152600401611f2890614ac1565b60405180910390fd5b611f3a81612a56565b50565b60176020528060005260406000206000915054906101000a900460ff1681565b60007f7965db0b000000000000000000000000000000000000000000000000000000007bffffffffffffffffffffffffffffffffffffffffffffffffffffffff1916827bffffffffffffffffffffffffffffffffffffffffffffffffffffffff19161480611fd05750611fcf82612e44565b5b9050919050565b60008073ffffffffffffffffffffffffffffffffffffffff166002600084815260200190815260200160002060009054906101000a900473ffffffffffffffffffffffffffffffffffffffff1673ffffffffffffffffffffffffffffffffffffffff1614159050919050565b600033905090565b816004600083815260200190815260200160002060006101000a81548173ffffffffffffffffffffffffffffffffffffffff021916908373ffffffffffffffffffffffffffffffffffffffff160217905550808273ffffffffffffffffffffffffffffffffffffffff166120be83611649565b73ffffffffffffffffffffffffffffffffffffffff167f8c5be1e5ebec7d5bd14f71427d1e84f3dd0314c0f7b2291e5b200ac8c7c3b92560405160405180910390a45050565b600061210f82611fd7565b61214e576040517f08c379a000000000000000000000000000000000000000000000000000000000815260040161214590614b53565b60405180910390fd5b600061215983611649565b90508073ffffffffffffffffffffffffffffffffffffffff168473ffffffffffffffffffffffffffffffffffffffff16148061219b575061219a8185611db2565b5b806121d957508373ffffffffffffffffffffffffffffffffffffffff166121c184610cbc565b73ffffffffffffffffffffffffffffffffffffffff16145b91505092915050565b8273ffffffffffffffffffffffffffffffffffffffff1661220282611649565b73ffffffffffffffffffffffffffffffffffffffff1614612258576040517f08c379a000000000000000000000000000000000000000000000000000000000815260040161224f90614be5565b60405180910390fd5b600073ffffffffffffffffffffffffffffffffffffffff168273ffffffffffffffffffffffffffffffffffffffff16036122c7576040517f08c379a00000000000000000000000000000000000000000000000000000000081526004016122be90614c77565b60405180910390fd5b6122d2838383612ebe565b6122dd60008261204b565b6001600360008573ffffffffffffffffffffffffffffffffffffffff1673ffffffffffffffffffffffffffffffffffffffff168152602001908152602001600020600082825461232d9190614cc6565b925050819055506001600360008473ffffffffffffffffffffffffffffffffffffffff1673ffffffffffffffffffffffffffffffffffffffff16815260200190815260200160002060008282546123849190614cfa565b92505081905550816002600083815260200190815260200160002060006101000a81548173ffffffffffffffffffffffffffffffffffffffff021916908373ffffffffffffffffffffffffffffffffffffffff160217905550808273ffffffffffffffffffffffffffffffffffffffff168473ffffffffffffffffffffffffffffffffffffffff167fddf252ad1be2c89b69c2b068fc378daa952ba7f163c4a11628f55a4df523b3ef60405160405180910390a4612443838383612fd0565b505050565b61245981612454612043565b612fd5565b50565b61246682826118ac565b612539576001600b600084815260200190815260200160002060000160008373ffffffffffffffffffffffffffffffffffffffff1673ffffffffffffffffffffffffffffffffffffffff16815260200190815260200160002060006101000a81548160ff0219169083151502179055506124de612043565b73ffffffffffffffffffffffffffffffffffffffff168173ffffffffffffffffffffffffffffffffffffffff16837f2f8788117e7eff1d82e926ec794901d17c78024a50270940304540a733656f0d60405160405180910390a45b5050565b61254782826118ac565b1561261b576000600b600084815260200190815260200160002060000160008373ffffffffffffffffffffffffffffffffffffffff1673ffffffffffffffffffffffffffffffffffffffff16815260200190815260200160002060006101000a81548160ff0219169083151502179055506125c0612043565b73ffffffffffffffffffffffffffffffffffffffff168173ffffffffffffffffffffffffffffffffffffffff16837ff6391f5c32d9c69d2a47ea670b442974b53935d1edc7fd64eb21e047a839171b60405160405180910390a45b5050565b6000818361262d9190614cfa565b905092915050565b61263d6138af565b6126456138af565b60006103e84240868660405160200161266093929190614dda565b6040516020818303038152906040528051906020012060001c6126839190614e46565b90505b6012600082815260200190815260200160002060009054906101000a900460ff166126ee576103e8424086866040516020016126c493929190614dda565b6040516020818303038152906040528051906020012060001c6126e79190614e46565b9050612686565b6012600082815260200190815260200160002060009054906101000a900460ff1661274a5760016012600083815260200190815260200160002060006101000a81548160ff021916908315150217905550808260000181815250505b819250505092915050565b806015600084815260200190815260200160002060006101000a81548173ffffffffffffffffffffffffffffffffffffffff021916908373ffffffffffffffffffffffffffffffffffffffff160217905550601660003373ffffffffffffffffffffffffffffffffffffffff1673ffffffffffffffffffffffffffffffffffffffff1681526020019081526020016000208290806001815401808255809150506001900390600052602060002001600090919091909150555050565b600073ffffffffffffffffffffffffffffffffffffffff168273ffffffffffffffffffffffffffffffffffffffff1603612880576040517f08c379a000000000000000000000000000000000000000000000000000000000815260040161287790614ec3565b60405180910390fd5b61288981611fd7565b156128c9576040517f08c379a00000000000000000000000000000000000000000000000000000000081526004016128c090614f2f565b60405180910390fd5b6128d560008383612ebe565b6001600360008473ffffffffffffffffffffffffffffffffffffffff1673ffffffffffffffffffffffffffffffffffffffff16815260200190815260200160002060008282546129259190614cfa565b92505081905550816002600083815260200190815260200160002060006101000a81548173ffffffffffffffffffffffffffffffffffffffff021916908373ffffffffffffffffffffffffffffffffffffffff160217905550808273ffffffffffffffffffffffffffffffffffffffff16600073ffffffffffffffffffffffffffffffffffffffff167fddf252ad1be2c89b69c2b068fc378daa952ba7f163c4a11628f55a4df523b3ef60405160405180910390a46129e660008383612fd0565b5050565b6000343373ffffffffffffffffffffffffffffffffffffffff16311015612a145760009050612a19565b600190505b90565b600034600e60009054906101000a900467ffffffffffffffff1667ffffffffffffffff1614612a4e5760009050612a53565b600190505b90565b6000600a60009054906101000a900473ffffffffffffffffffffffffffffffffffffffff16905081600a60006101000a81548173ffffffffffffffffffffffffffffffffffffffff021916908373ffffffffffffffffffffffffffffffffffffffff1602179055508173ffffffffffffffffffffffffffffffffffffffff168173ffffffffffffffffffffffffffffffffffffffff167f8be0079c531659141344cd1fd0a4f28419497f9722a3daafe3b4186f6b6457e060405160405180910390a35050565b8173ffffffffffffffffffffffffffffffffffffffff168373ffffffffffffffffffffffffffffffffffffffff1603612b8a576040517f08c379a0000000000000000000000000000000000000000000000000000000008152600401612b8190614f9b565b60405180910390fd5b80600560008573ffffffffffffffffffffffffffffffffffffffff1673ffffffffffffffffffffffffffffffffffffffff16815260200190815260200160002060008473ffffffffffffffffffffffffffffffffffffffff1673ffffffffffffffffffffffffffffffffffffffff16815260200190815260200160002060006101000a81548160ff0219169083151502179055508173ffffffffffffffffffffffffffffffffffffffff168373ffffffffffffffffffffffffffffffffffffffff167f17307eab39ab6107e8899845ad3d59bd9653f200f220920489ca2b5937696c3183604051612c7b9190613976565b60405180910390a3505050565b612c938484846121e2565b612c9f84848484613072565b612cde576040517f08c379a0000000000000000000000000000000000000000000000000000000008152600401612cd59061502d565b60405180910390fd5b50505050565b606060008203612d2b576040518060400160405280600181526020017f30000000000000000000000000000000000000000000000000000000000000008152509050612e3f565b600082905060005b60008214612d5d578080612d469061504d565b915050600a82612d569190615095565b9150612d33565b60008167ffffffffffffffff811115612d7957612d78613e40565b5b6040519080825280601f01601f191660200182016040528015612dab5781602001600182028036833780820191505090505b5090505b60008514612e3857600182612dc49190614cc6565b9150600a85612dd39190614e46565b6030612ddf9190614cfa565b60f81b818381518110612df557612df461475a565b5b60200101907effffffffffffffffffffffffffffffffffffffffffffffffffffffffffffff1916908160001a905350600a85612e319190615095565b9450612daf565b8093505050505b919050565b60007f780e9d63000000000000000000000000000000000000000000000000000000007bffffffffffffffffffffffffffffffffffffffffffffffffffffffff1916827bffffffffffffffffffffffffffffffffffffffffffffffffffffffff19161480612eb75750612eb6826131f9565b5b9050919050565b612ec98383836132db565b600073ffffffffffffffffffffffffffffffffffffffff168373ffffffffffffffffffffffffffffffffffffffff1603612f0b57612f06816132e0565b612f4a565b8173ffffffffffffffffffffffffffffffffffffffff168373ffffffffffffffffffffffffffffffffffffffff1614612f4957612f488382613329565b5b5b600073ffffffffffffffffffffffffffffffffffffffff168273ffffffffffffffffffffffffffffffffffffffff1603612f8c57612f8781613496565b612fcb565b8273ffffffffffffffffffffffffffffffffffffffff168273ffffffffffffffffffffffffffffffffffffffff1614612fca57612fc98282613567565b5b5b505050565b505050565b612fdf82826118ac565b61306e576130048173ffffffffffffffffffffffffffffffffffffffff1660146135e6565b6130128360001c60206135e6565b60405160200161302392919061515e565b6040516020818303038152906040526040517f08c379a00000000000000000000000000000000000000000000000000000000081526004016130659190613a2a565b60405180910390fd5b5050565b60006130938473ffffffffffffffffffffffffffffffffffffffff16613822565b156131ec578373ffffffffffffffffffffffffffffffffffffffff1663150b7a026130bc612043565b8786866040518563ffffffff1660e01b81526004016130de94939291906151ed565b6020604051808303816000875af192505050801561311a57506040513d601f19601f82011682018060405250810190613117919061524e565b60015b61319c573d806000811461314a576040519150601f19603f3d011682016040523d82523d6000602084013e61314f565b606091505b506000815103613194576040517f08c379a000000000000000000000000000000000000000000000000000000000815260040161318b9061502d565b60405180910390fd5b805181602001fd5b63150b7a0260e01b7bffffffffffffffffffffffffffffffffffffffffffffffffffffffff1916817bffffffffffffffffffffffffffffffffffffffffffffffffffffffff1916149150506131f1565b600190505b949350505050565b60007f80ac58cd000000000000000000000000000000000000000000000000000000007bffffffffffffffffffffffffffffffffffffffffffffffffffffffff1916827bffffffffffffffffffffffffffffffffffffffffffffffffffffffff191614806132c457507f5b5e139f000000000000000000000000000000000000000000000000000000007bffffffffffffffffffffffffffffffffffffffffffffffffffffffff1916827bffffffffffffffffffffffffffffffffffffffffffffffffffffffff1916145b806132d457506132d382613845565b5b9050919050565b505050565b6008805490506009600083815260200190815260200160002081905550600881908060018154018082558091505060019003906000526020600020016000909190919091505550565b6000600161333684611700565b6133409190614cc6565b9050600060076000848152602001908152602001600020549050818114613425576000600660008673ffffffffffffffffffffffffffffffffffffffff1673ffffffffffffffffffffffffffffffffffffffff168152602001908152602001600020600084815260200190815260200160002054905080600660008773ffffffffffffffffffffffffffffffffffffffff1673ffffffffffffffffffffffffffffffffffffffff168152602001908152602001600020600084815260200190815260200160002081905550816007600083815260200190815260200160002081905550505b6007600084815260200190815260200160002060009055600660008573ffffffffffffffffffffffffffffffffffffffff1673ffffffffffffffffffffffffffffffffffffffff16815260200190815260200160002060008381526020019081526020016000206000905550505050565b600060016008805490506134aa9190614cc6565b90506000600960008481526020019081526020016000205490506000600883815481106134da576134d961475a565b5b9060005260206000200154905080600883815481106134fc576134fb61475a565b5b90600052602060002001819055508160096000838152602001908152602001600020819055506009600085815260200190815260200160002060009055600880548061354b5761354a61527b565b5b6001900381819060005260206000200160009055905550505050565b600061357283611700565b905081600660008573ffffffffffffffffffffffffffffffffffffffff1673ffffffffffffffffffffffffffffffffffffffff168152602001908152602001600020600083815260200190815260200160002081905550806007600084815260200190815260200160002081905550505050565b6060600060028360026135f991906152aa565b6136039190614cfa565b67ffffffffffffffff81111561361c5761361b613e40565b5b6040519080825280601f01601f19166020018201604052801561364e5781602001600182028036833780820191505090505b5090507f3000000000000000000000000000000000000000000000000000000000000000816000815181106136865761368561475a565b5b60200101907effffffffffffffffffffffffffffffffffffffffffffffffffffffffffffff1916908160001a9053507f7800000000000000000000000000000000000000000000000000000000000000816001815181106136ea576136e961475a565b5b60200101907effffffffffffffffffffffffffffffffffffffffffffffffffffffffffffff1916908160001a9053506000600184600261372a91906152aa565b6137349190614cfa565b90505b60018111156137d4577f3031323334353637383961626364656600000000000000000000000000000000600f8616601081106137765761377561475a565b5b1a60f81b82828151811061378d5761378c61475a565b5b60200101907effffffffffffffffffffffffffffffffffffffffffffffffffffffffffffff1916908160001a905350600485901c9450806137cd90615304565b9050613737565b5060008414613818576040517f08c379a000000000000000000000000000000000000000000000000000000000815260040161380f90615379565b60405180910390fd5b8091505092915050565b6000808273ffffffffffffffffffffffffffffffffffffffff163b119050919050565b60007f01ffc9a7000000000000000000000000000000000000000000000000000000007bffffffffffffffffffffffffffffffffffffffffffffffffffffffff1916827bffffffffffffffffffffffffffffffffffffffffffffffffffffffff1916149050919050565b6040518060200160405280600081525090565b6000604051905090565b600080fd5b600080fd5b60007fffffffff0000000000000000000000000000000000000000000000000000000082169050919050565b61390b816138d6565b811461391657600080fd5b50565b60008135905061392881613902565b92915050565b600060208284031215613944576139436138cc565b5b600061395284828501613919565b91505092915050565b60008115159050919050565b6139708161395b565b82525050565b600060208201905061398b6000830184613967565b92915050565b600081519050919050565b600082825260208201905092915050565b60005b838110156139cb5780820151818401526020810190506139b0565b838111156139da576000848401525b50505050565b6000601f19601f8301169050919050565b60006139fc82613991565b613a06818561399c565b9350613a168185602086016139ad565b613a1f816139e0565b840191505092915050565b60006020820190508181036000830152613a4481846139f1565b905092915050565b6000819050919050565b613a5f81613a4c565b8114613a6a57600080fd5b50565b600081359050613a7c81613a56565b92915050565b600060208284031215613a9857613a976138cc565b5b6000613aa684828501613a6d565b91505092915050565b600073ffffffffffffffffffffffffffffffffffffffff82169050919050565b6000613ada82613aaf565b9050919050565b613aea81613acf565b82525050565b6000602082019050613b056000830184613ae1565b92915050565b613b1481613acf565b8114613b1f57600080fd5b50565b600081359050613b3181613b0b565b92915050565b60008060408385031215613b4e57613b4d6138cc565b5b6000613b5c85828601613b22565b9250506020613b6d85828601613a6d565b9150509250929050565b613b8081613a4c565b82525050565b6000602082019050613b9b6000830184613b77565b92915050565b600060208284031215613bb757613bb66138cc565b5b6000613bc584828501613b22565b91505092915050565b600080600060608486031215613be757613be66138cc565b5b6000613bf586828701613b22565b9350506020613c0686828701613b22565b9250506040613c1786828701613a6d565b9150509250925092565b6000819050919050565b613c3481613c21565b8114613c3f57600080fd5b50565b600081359050613c5181613c2b565b92915050565b600060208284031215613c6d57613c6c6138cc565b5b6000613c7b84828501613c42565b91505092915050565b613c8d81613c21565b82525050565b6000602082019050613ca86000830184613c84565b92915050565b60008060408385031215613cc557613cc46138cc565b5b6000613cd385828601613c42565b9250506020613ce485828601613b22565b9150509250929050565b6000608082019050613d036000830187613b77565b613d106020830186613b77565b613d1d6040830185613b77565b613d2a6060830184613b77565b95945050505050565b600067ffffffffffffffff82169050919050565b613d5081613d33565b82525050565b6000602082019050613d6b6000830184613d47565b92915050565b613d7a81613d33565b8114613d8557600080fd5b50565b600081359050613d9781613d71565b92915050565b600060208284031215613db357613db26138cc565b5b6000613dc184828501613d88565b91505092915050565b613dd38161395b565b8114613dde57600080fd5b50565b600081359050613df081613dca565b92915050565b60008060408385031215613e0d57613e0c6138cc565b5b6000613e1b85828601613b22565b9250506020613e2c85828601613de1565b9150509250929050565b600080fd5b600080fd5b7f4e487b7100000000000000000000000000000000000000000000000000000000600052604160045260246000fd5b613e78826139e0565b810181811067ffffffffffffffff82111715613e9757613e96613e40565b5b80604052505050565b6000613eaa6138c2565b9050613eb68282613e6f565b919050565b600067ffffffffffffffff821115613ed657613ed5613e40565b5b613edf826139e0565b9050602081019050919050565b82818337600083830152505050565b6000613f0e613f0984613ebb565b613ea0565b905082815260208101848484011115613f2a57613f29613e3b565b5b613f35848285613eec565b509392505050565b600082601f830112613f5257613f51613e36565b5b8135613f62848260208601613efb565b91505092915050565b60008060008060808587031215613f8557613f846138cc565b5b6000613f9387828801613b22565b9450506020613fa487828801613b22565b9350506040613fb587828801613a6d565b925050606085013567ffffffffffffffff811115613fd657613fd56138d1565b5b613fe287828801613f3d565b91505092959194509250565b60008060408385031215614005576140046138cc565b5b600061401385828601613b22565b925050602061402485828601613b22565b9150509250929050565b7f4e487b7100000000000000000000000000000000000000000000000000000000600052602260045260246000fd5b6000600282049050600182168061407557607f821691505b6020821081036140885761408761402e565b5b50919050565b7f4552433732313a20617070726f76656420717565727920666f72206e6f6e657860008201527f697374656e7420746f6b656e0000000000000000000000000000000000000000602082015250565b60006140ea602c8361399c565b91506140f58261408e565b604082019050919050565b60006020820190508181036000830152614119816140dd565b9050919050565b7f4552433732313a20617070726f76616c20746f2063757272656e74206f776e6560008201527f7200000000000000000000000000000000000000000000000000000000000000602082015250565b600061417c60218361399c565b915061418782614120565b604082019050919050565b600060208201905081810360008301526141ab8161416f565b9050919050565b7f4552433732313a20617070726f76652063616c6c6572206973206e6f74206f7760008201527f6e6572206e6f7220617070726f76656420666f7220616c6c0000000000000000602082015250565b600061420e60388361399c565b9150614219826141b2565b604082019050919050565b6000602082019050818103600083015261423d81614201565b9050919050565b7f4f776e61626c653a2063616c6c6572206973206e6f7420746865206f776e6572600082015250565b600061427a60208361399c565b915061428582614244565b602082019050919050565b600060208201905081810360008301526142a98161426d565b9050919050565b7f4552433732313a207472616e736665722063616c6c6572206973206e6f74206f60008201527f776e6572206e6f7220617070726f766564000000000000000000000000000000602082015250565b600061430c60318361399c565b9150614317826142b0565b604082019050919050565b6000602082019050818103600083015261433b816142ff565b9050919050565b7f455243373231456e756d657261626c653a206f776e657220696e646578206f7560008201527f74206f6620626f756e6473000000000000000000000000000000000000000000602082015250565b600061439e602b8361399c565b91506143a982614342565b604082019050919050565b600060208201905081810360008301526143cd81614391565b9050919050565b7f416363657373436f6e74726f6c3a2063616e206f6e6c792072656e6f756e636560008201527f20726f6c657320666f722073656c660000000000000000000000000000000000602082015250565b6000614430602f8361399c565b915061443b826143d4565b604082019050919050565b6000602082019050818103600083015261445f81614423565b9050919050565b7f4e6f206d6f7265206d696e74696e6720697320706f737369626c650000000000600082015250565b600061449c601b8361399c565b91506144a782614466565b602082019050919050565b600060208201905081810360008301526144cb8161448f565b9050919050565b7f4e6f7420656e6f756768206b6c61790000000000000000000000000000000000600082015250565b6000614508600f8361399c565b9150614513826144d2565b602082019050919050565b60006020820190508181036000830152614537816144fb565b9050919050565b7f636865636b2062616c616e636500000000000000000000000000000000000000600082015250565b6000614574600d8361399c565b915061457f8261453e565b602082019050919050565b600060208201905081810360008301526145a381614567565b9050919050565b7f636865636b207072696365000000000000000000000000000000000000000000600082015250565b60006145e0600b8361399c565b91506145eb826145aa565b602082019050919050565b6000602082019050818103600083015261460f816145d3565b9050919050565b600081905092915050565b50565b6000614631600083614616565b915061463c82614621565b600082019050919050565b600061465282614624565b9150819050919050565b7f4661696c656420746f2073656e64206d6f6e6579000000000000000000000000600082015250565b600061469260148361399c565b915061469d8261465c565b602082019050919050565b600060208201905081810360008301526146c181614685565b9050919050565b7f455243373231456e756d657261626c653a20676c6f62616c20696e646578206f60008201527f7574206f6620626f756e64730000000000000000000000000000000000000000602082015250565b6000614724602c8361399c565b915061472f826146c8565b604082019050919050565b6000602082019050818103600083015261475381614717565b9050919050565b7f4e487b7100000000000000000000000000000000000000000000000000000000600052603260045260246000fd5b7f4552433732313a206f776e657220717565727920666f72206e6f6e657869737460008201527f656e7420746f6b656e0000000000000000000000000000000000000000000000602082015250565b60006147e560298361399c565b91506147f082614789565b604082019050919050565b60006020820190508181036000830152614814816147d8565b9050919050565b7f4552433732313a2062616c616e636520717565727920666f7220746865207a6560008201527f726f206164647265737300000000000000000000000000000000000000000000602082015250565b6000614877602a8361399c565b91506148828261481b565b604082019050919050565b600060208201905081810360008301526148a68161486a565b9050919050565b600081905092915050565b60008190508160005260206000209050919050565b600081546148da8161405d565b6148e481866148ad565b945060018216600081146148ff576001811461491057614943565b60ff19831686528186019350614943565b614919856148b8565b60005b8381101561493b5781548189015260018201915060208101905061491c565b838801955050505b50505092915050565b7f2f00000000000000000000000000000000000000000000000000000000000000600082015250565b60006149826001836148ad565b915061498d8261494c565b600182019050919050565b60006149a382613991565b6149ad81856148ad565b93506149bd8185602086016139ad565b80840191505092915050565b7f2e6a736f6e000000000000000000000000000000000000000000000000000000600082015250565b60006149ff6005836148ad565b9150614a0a826149c9565b600582019050919050565b6000614a2182856148cd565b9150614a2c82614975565b9150614a388284614998565b9150614a43826149f2565b91508190509392505050565b7f4f776e61626c653a206e6577206f776e657220697320746865207a65726f206160008201527f6464726573730000000000000000000000000000000000000000000000000000602082015250565b6000614aab60268361399c565b9150614ab682614a4f565b604082019050919050565b60006020820190508181036000830152614ada81614a9e565b9050919050565b7f4552433732313a206f70657261746f7220717565727920666f72206e6f6e657860008201527f697374656e7420746f6b656e0000000000000000000000000000000000000000602082015250565b6000614b3d602c8361399c565b9150614b4882614ae1565b604082019050919050565b60006020820190508181036000830152614b6c81614b30565b9050919050565b7f4552433732313a207472616e736665722066726f6d20696e636f72726563742060008201527f6f776e6572000000000000000000000000000000000000000000000000000000602082015250565b6000614bcf60258361399c565b9150614bda82614b73565b604082019050919050565b60006020820190508181036000830152614bfe81614bc2565b9050919050565b7f4552433732313a207472616e7366657220746f20746865207a65726f2061646460008201527f7265737300000000000000000000000000000000000000000000000000000000602082015250565b6000614c6160248361399c565b9150614c6c82614c05565b604082019050919050565b60006020820190508181036000830152614c9081614c54565b9050919050565b7f4e487b7100000000000000000000000000000000000000000000000000000000600052601160045260246000fd5b6000614cd182613a4c565b9150614cdc83613a4c565b925082821015614cef57614cee614c97565b5b828203905092915050565b6000614d0582613a4c565b9150614d1083613a4c565b9250827fffffffffffffffffffffffffffffffffffffffffffffffffffffffffffffffff03821115614d4557614d44614c97565b5b828201905092915050565b6000819050919050565b614d6b614d6682613c21565b614d50565b82525050565b60008160601b9050919050565b6000614d8982614d71565b9050919050565b6000614d9b82614d7e565b9050919050565b614db3614dae82613acf565b614d90565b82525050565b6000819050919050565b614dd4614dcf82613a4c565b614db9565b82525050565b6000614de68286614d5a565b602082019150614df68285614da2565b601482019150614e068284614dc3565b602082019150819050949350505050565b7f4e487b7100000000000000000000000000000000000000000000000000000000600052601260045260246000fd5b6000614e5182613a4c565b9150614e5c83613a4c565b925082614e6c57614e6b614e17565b5b828206905092915050565b7f4552433732313a206d696e7420746f20746865207a65726f2061646472657373600082015250565b6000614ead60208361399c565b9150614eb882614e77565b602082019050919050565b60006020820190508181036000830152614edc81614ea0565b9050919050565b7f4552433732313a20746f6b656e20616c7265616479206d696e74656400000000600082015250565b6000614f19601c8361399c565b9150614f2482614ee3565b602082019050919050565b60006020820190508181036000830152614f4881614f0c565b9050919050565b7f4552433732313a20617070726f766520746f2063616c6c657200000000000000600082015250565b6000614f8560198361399c565b9150614f9082614f4f565b602082019050919050565b60006020820190508181036000830152614fb481614f78565b9050919050565b7f4552433732313a207472616e7366657220746f206e6f6e20455243373231526560008201527f63656976657220696d706c656d656e7465720000000000000000000000000000602082015250565b600061501760328361399c565b915061502282614fbb565b604082019050919050565b600060208201905081810360008301526150468161500a565b9050919050565b600061505882613a4c565b91507fffffffffffffffffffffffffffffffffffffffffffffffffffffffffffffffff820361508a57615089614c97565b5b600182019050919050565b60006150a082613a4c565b91506150ab83613a4c565b9250826150bb576150ba614e17565b5b828204905092915050565b7f416363657373436f6e74726f6c3a206163636f756e7420000000000000000000600082015250565b60006150fc6017836148ad565b9150615107826150c6565b601782019050919050565b7f206973206d697373696e6720726f6c6520000000000000000000000000000000600082015250565b60006151486011836148ad565b915061515382615112565b601182019050919050565b6000615169826150ef565b91506151758285614998565b91506151808261513b565b915061518c8284614998565b91508190509392505050565b600081519050919050565b600082825260208201905092915050565b60006151bf82615198565b6151c981856151a3565b93506151d98185602086016139ad565b6151e2816139e0565b840191505092915050565b60006080820190506152026000830187613ae1565b61520f6020830186613ae1565b61521c6040830185613b77565b818103606083015261522e81846151b4565b905095945050505050565b60008151905061524881613902565b92915050565b600060208284031215615264576152636138cc565b5b600061527284828501615239565b91505092915050565b7f4e487b7100000000000000000000000000000000000000000000000000000000600052603160045260246000fd5b60006152b582613a4c565b91506152c083613a4c565b9250817fffffffffffffffffffffffffffffffffffffffffffffffffffffffffffffffff04831182151516156152f9576152f8614c97565b5b828202905092915050565b600061530f82613a4c565b91506000820361532257615321614c97565b5b600182039050919050565b7f537472696e67733a20686578206c656e67746820696e73756666696369656e74600082015250565b600061536360208361399c565b915061536e8261532d565b602082019050919050565b6000602082019050818103600083015261539281615356565b905091905056fea264697066735822122024faa9e3bb9df7a800e99ff73d3f55e075661d532d77cb1024f18c1ff90dd62064736f6c634300080e0033",
  "immutableReferences": {},
  "source": "// SPDX-License-Identifier: MIT\r\npragma solidity ^0.8.4;\r\n\r\n// import \"@openzeppelin/contracts/token/ERC20/ERC20.sol\";\r\n// import \"@openzeppelin/contracts/token/ERC721/ERC721.sol\";\r\n// import \"@openzeppelin/contracts/token/ERC721/extensions/ERC721Burnable.sol\";\r\n\r\nimport \"@openzeppelin/contracts/token/ERC721/extensions/ERC721Enumerable.sol\";\r\nimport \"@openzeppelin/contracts/access/Ownable.sol\";\r\nimport \"@openzeppelin/contracts/access/AccessControl.sol\";\r\n\r\nimport \"@openzeppelin/contracts/utils/math/SafeMath.sol\";\r\nimport \"@openzeppelin/contracts/utils/Strings.sol\";\r\n// import \"@openzeppelin/contracts/utils/Counters.sol\";\r\n\r\n\r\n\r\n\r\n//   import \r\n// contract '0xce146236fe4e48240cd8f7d22c38c07c7a6bab0b'\r\n\r\ncontract RandomJolaman is ERC721Enumerable, Ownable, AccessControl {\r\n    using SafeMath for uint256;\r\n    \r\n    uint private _normalTokenIdCount;\r\n    uint private _specialTokenIdCount; // whitelist  token count\r\n\r\n    bytes32 public constant MINTER_ROLE = keccak256(\"MINTER_ROLE\");\r\n    bytes32 public constant SPECIAL_MINTER_ROLE = keccak256(\"SPECIAL_MINTER_ROLE\"); // whitelist  minter role\r\n\r\n    uint64 public mintingPrice = 2*10**18;\r\n    uint private totalIncome; //  \r\n\r\n    uint constant public MAX_NORMAL_TOKEN_COUNT = 1000;\r\n    uint constant public MAX_SPECIAL_TOKEN_COUNT = 10020;\r\n\r\n    //  \r\n    // uint constant public TOKEN_RANK_LENGTH = 4;\r\n    // uint constant public TOKEN_TYPE_LENGTH = 4;\r\n\r\n    address public _owner;\r\n\r\n    string public metadataURI; // metadata url public? or private?\r\n\r\n\r\n    mapping(uint => bool) public AlreadyMint;\r\n    mapping(uint => bool) public SpecialAlreadyMint;  \r\n\r\n    \r\n    constructor(string memory _metadataURI) ERC721(\"Jolaman\", \"JL\") {\r\n        _owner = msg.sender;\r\n        metadataURI = _metadataURI;\r\n        totalIncome = 0;\r\n        _normalTokenIdCount = 0;\r\n        _specialTokenIdCount = 10000;\r\n        _grantRole(DEFAULT_ADMIN_ROLE, msg.sender);\r\n        // _grantRole(MINTER_ROLE, msg.sender);\r\n        // _grantRole(SPECIAL_MINTER_ROLE, msg.sender);\r\n    }\r\n\r\n    struct JolamanTokenData {\r\n        uint jolamanTokenType; // 1~1000 , special 10000~10019\r\n    }\r\n\r\n    // tokenId   rank, type  \r\n    mapping(uint => JolamanTokenData) public mappedJolamanTokenData;\r\n    // tokenid    address \r\n    mapping(uint => address) public tokenOwner;\r\n    mapping(address => uint[]) public totalOwnedTokens;\r\n    mapping(address => bool) public isWhiteList;\r\n\r\n    // uint[TOKEN_RANK_LENGTH][TOKEN_TYPE_LENGTH] public gemTokenCount; // ?\r\n\r\n    // ERC721 tokenURI            \r\n    function tokenURI(uint _tokenId) override public view returns (string memory) {\r\n        // String.toString() openzeppelin   \r\n        string memory jolamanTokenType = Strings.toString(mappedJolamanTokenData[_tokenId].jolamanTokenType);\r\n\r\n        // abi.encodePacked(arg) arg   \r\n        // https://gateway.pinata.cloud/ipfs/QmT4Hef2VNKxr7fuJqZQMKfEPkm5jCLLPKraNrFJeSpg1s\r\n        return string(abi.encodePacked(metadataURI, '/', jolamanTokenType, '.json'));\r\n    }\r\n\r\n    function addWhiteList(address _toWhiteList) public onlyOwner{\r\n        isWhiteList[_toWhiteList] = true;\r\n        _grantRole(SPECIAL_MINTER_ROLE, msg.sender);\r\n    }\r\n    function removeWhiteList(address _toWhiteList) public onlyOwner{\r\n        isWhiteList[_toWhiteList] = false;\r\n        renounceRole(SPECIAL_MINTER_ROLE, msg.sender);\r\n    }\r\n    function mappingWrap(uint _tokenId, address to) private {\r\n        tokenOwner[_tokenId] = to;\r\n        totalOwnedTokens[msg.sender].push(_tokenId);\r\n    }\r\n\r\n    //   payment msg.value  \r\n    function payment() public payable returns (bool) {\r\n        require(checkBalance(), \"check balance\");\r\n        require(checkVal(), \"check price\");\r\n        (bool success,) = _owner.call{value: msg.value}(\"\"); //owner msg.sender msg.value \r\n        // payable(_owner).transfer(value);\r\n        require(success, \"Failed to send money\");\r\n\r\n        totalIncome = totalIncome.add(msg.value);\r\n\r\n        _grantRole(MINTER_ROLE, msg.sender);\r\n\r\n        return true;\r\n    }\r\n\r\n    function safeMint(address to) public payable onlyRole(MINTER_ROLE) {\r\n        require(MAX_NORMAL_TOKEN_COUNT > _normalTokenIdCount, \"No more minting is possible\");\r\n        require(mintingPrice <= msg.value, \"Not enough klay\");\r\n\r\n        uint256 tokenId = _normalTokenIdCount;\r\n        _normalTokenIdCount = _normalTokenIdCount.add(1);\r\n        JolamanTokenData memory randomTokenData = randomGenerator(msg.sender, tokenId);\r\n        mappedJolamanTokenData[tokenId] = JolamanTokenData(randomTokenData.jolamanTokenType);\r\n\r\n        mappingWrap(tokenId, to); // wrap  \r\n        // tokenOwner[tokenId] = to;\r\n        // totalOwnedTokens[msg.sender].push(tokenId);\r\n        _mint(to, tokenId);\r\n    }\r\n\r\n    function payandMint() public payable {\r\n        bool paymentStatus = payment();\r\n        if (paymentStatus) {\r\n            safeMint(msg.sender);\r\n            // renounceRole(MINTER_ROLE, msg.sender);\r\n        }\r\n    }\r\n\r\n    function safeMintforWhitelist(address to) public payable onlyRole(SPECIAL_MINTER_ROLE) {\r\n        require(isWhiteList[msg.sender] == true);\r\n        require(MAX_SPECIAL_TOKEN_COUNT > _specialTokenIdCount, \"No more minting is possible\");\r\n        require(mintingPrice <= msg.value, \"Not enough klay\");\r\n        \r\n\r\n        uint256 tokenId = _specialTokenIdCount;\r\n        _specialTokenIdCount = _specialTokenIdCount.add(1);\r\n        JolamanTokenData memory randomTokenData = randomGenerator(msg.sender, tokenId);\r\n        mappedJolamanTokenData[tokenId] = JolamanTokenData(randomTokenData.jolamanTokenType);\r\n\r\n        mappingWrap(tokenId, to);\r\n        _mint(to, tokenId);\r\n    }\r\n\r\n    function specialPayandMint() public payable {\r\n        bool paymentStatus = payment();\r\n        if (paymentStatus) {\r\n            safeMintforWhitelist(msg.sender);\r\n            // _revokeRole(SPECIAL_MINTER_ROLE, msg.sender); // removeWhiteList  Revoke\r\n            \r\n        }\r\n    }\r\n\r\n       //    NFT     \r\n    function getJolamanTokenType(uint _tokenId) public view returns(uint) {\r\n        return mappedJolamanTokenData[_tokenId].jolamanTokenType;\r\n    }\r\n\r\n    //  jolamanTokenType   => jolamanTokenType.toString().json == metadata\r\n    function randomGenerator(address _msgSender, uint _tokenId) private returns (JolamanTokenData memory) {\r\n\r\n        JolamanTokenData memory randomTokenData;\r\n        uint tempNumer = uint(keccak256(abi.encodePacked(blockhash(block.timestamp), _msgSender, _tokenId))) % 1000;\r\n        \r\n        while (!AlreadyMint[tempNumer]) {\r\n            tempNumer = uint(keccak256(abi.encodePacked(blockhash(block.timestamp), _msgSender, _tokenId))) % 1000;\r\n        }\r\n        if (!AlreadyMint[tempNumer]) {\r\n            AlreadyMint[tempNumer] = true;\r\n            randomTokenData.jolamanTokenType = tempNumer;\r\n        }\r\n        return randomTokenData;\r\n\r\n    }\r\n    function specialRandomGenerator(address _msgSender, uint _tokenId) private returns (JolamanTokenData memory) {\r\n        JolamanTokenData memory randomTokenData;\r\n        uint tempNumer = (uint(keccak256(abi.encodePacked(blockhash(block.timestamp), _msgSender, _tokenId))) % 20) + 10000;\r\n        \r\n        while (!SpecialAlreadyMint[tempNumer]) {\r\n            tempNumer = (uint(keccak256(abi.encodePacked(blockhash(block.timestamp), _msgSender, _tokenId))) % 20) + 10000;\r\n        }\r\n        if (!SpecialAlreadyMint[tempNumer]) {\r\n            SpecialAlreadyMint[tempNumer] = true;\r\n            randomTokenData.jolamanTokenType = tempNumer;\r\n        }\r\n        return randomTokenData;\r\n    }\r\n\r\n\r\n    function getBalance() public view returns (uint256) {\r\n        return msg.sender.balance;\r\n    }\r\n\r\n    function setMintingPrice(uint64 _price) public {\r\n        mintingPrice = _price;\r\n       \r\n    }\r\n\r\n    function checkBalance() private view returns (bool) {\r\n        if (msg.sender.balance < msg.value) {\r\n            return false;\r\n        } else {\r\n            return true;\r\n        }\r\n    }\r\n    function checkVal() private view returns (bool) {\r\n        if (mintingPrice != msg.value) {\r\n            return false;\r\n        } else {\r\n            return true;\r\n        }\r\n    }\r\n\r\n    function getCurrent() public view returns (uint, uint, uint, uint) {\r\n        return (\r\n            _normalTokenIdCount, \r\n            _specialTokenIdCount, \r\n            mintingPrice, \r\n            totalIncome\r\n        );\r\n    }\r\n\r\n    // The following functions are overrides required by Solidity.\r\n\r\n    function supportsInterface(bytes4 interfaceId)\r\n        public\r\n        view\r\n        override(ERC721Enumerable, AccessControl)\r\n        returns (bool)\r\n    {\r\n        return super.supportsInterface(interfaceId);\r\n    }\r\n}",
  "sourcePath": "D:\\kyoungil\\Blockchain_based_Fintech\\workspace\\nft-defi-hashbrand\\nft-gusaguo\\contracts\\RandomJolaman.sol",
  "compiler": {
    "name": "solc",
    "version": "0.8.14+commit.80d49f37.Emscripten.clang"
  },
  "schemaVersion": "3.4.7",
  "updatedAt": "2022-06-04T09:46:23.359Z",
  "devdoc": {
    "kind": "dev",
    "methods": {
      "approve(address,uint256)": {
        "details": "See {IERC721-approve}."
      },
      "balanceOf(address)": {
        "details": "See {IERC721-balanceOf}."
      },
      "getApproved(uint256)": {
        "details": "See {IERC721-getApproved}."
      },
      "getRoleAdmin(bytes32)": {
        "details": "Returns the admin role that controls `role`. See {grantRole} and {revokeRole}. To change a role's admin, use {_setRoleAdmin}."
      },
      "grantRole(bytes32,address)": {
        "details": "Grants `role` to `account`. If `account` had not been already granted `role`, emits a {RoleGranted} event. Requirements: - the caller must have ``role``'s admin role."
      },
      "hasRole(bytes32,address)": {
        "details": "Returns `true` if `account` has been granted `role`."
      },
      "isApprovedForAll(address,address)": {
        "details": "See {IERC721-isApprovedForAll}."
      },
      "name()": {
        "details": "See {IERC721Metadata-name}."
      },
      "owner()": {
        "details": "Returns the address of the current owner."
      },
      "ownerOf(uint256)": {
        "details": "See {IERC721-ownerOf}."
      },
      "renounceOwnership()": {
        "details": "Leaves the contract without owner. It will not be possible to call `onlyOwner` functions anymore. Can only be called by the current owner. NOTE: Renouncing ownership will leave the contract without an owner, thereby removing any functionality that is only available to the owner."
      },
      "renounceRole(bytes32,address)": {
        "details": "Revokes `role` from the calling account. Roles are often managed via {grantRole} and {revokeRole}: this function's purpose is to provide a mechanism for accounts to lose their privileges if they are compromised (such as when a trusted device is misplaced). If the calling account had been revoked `role`, emits a {RoleRevoked} event. Requirements: - the caller must be `account`."
      },
      "revokeRole(bytes32,address)": {
        "details": "Revokes `role` from `account`. If `account` had been granted `role`, emits a {RoleRevoked} event. Requirements: - the caller must have ``role``'s admin role."
      },
      "safeTransferFrom(address,address,uint256)": {
        "details": "See {IERC721-safeTransferFrom}."
      },
      "safeTransferFrom(address,address,uint256,bytes)": {
        "details": "See {IERC721-safeTransferFrom}."
      },
      "setApprovalForAll(address,bool)": {
        "details": "See {IERC721-setApprovalForAll}."
      },
      "symbol()": {
        "details": "See {IERC721Metadata-symbol}."
      },
      "tokenByIndex(uint256)": {
        "details": "See {IERC721Enumerable-tokenByIndex}."
      },
      "tokenOfOwnerByIndex(address,uint256)": {
        "details": "See {IERC721Enumerable-tokenOfOwnerByIndex}."
      },
      "totalSupply()": {
        "details": "See {IERC721Enumerable-totalSupply}."
      },
      "transferFrom(address,address,uint256)": {
        "details": "See {IERC721-transferFrom}."
      },
      "transferOwnership(address)": {
        "details": "Transfers ownership of the contract to a new account (`newOwner`). Can only be called by the current owner."
      }
    },
    "version": 1
  },
  "userdoc": {
    "kind": "user",
    "methods": {},
    "version": 1
  }
}