{
	"data": {
		"bytecode": {
			"linkReferences": {},
			"object": "608060405260b4600c553480156200001657600080fd5b50604051620040a6380380620040a683398181016040528101906200003c9190620002b0565b828281600090805190602001906200005692919062000182565b5080600190805190602001906200006f92919062000182565b5050506200009262000086620000b460201b60201c565b620000bc60201b60201c565b80600b9080519060200190620000aa92919062000182565b50505050620004ed565b600033905090565b6000600a60009054906101000a900473ffffffffffffffffffffffffffffffffffffffff16905081600a60006101000a81548173ffffffffffffffffffffffffffffffffffffffff021916908373ffffffffffffffffffffffffffffffffffffffff1602179055508173ffffffffffffffffffffffffffffffffffffffff168173ffffffffffffffffffffffffffffffffffffffff167f8be0079c531659141344cd1fd0a4f28419497f9722a3daafe3b4186f6b6457e060405160405180910390a35050565b8280546200019090620003fe565b90600052602060002090601f016020900481019282620001b4576000855562000200565b82601f10620001cf57805160ff191683800117855562000200565b8280016001018555821562000200579182015b82811115620001ff578251825591602001919060010190620001e2565b5b5090506200020f919062000213565b5090565b5b808211156200022e57600081600090555060010162000214565b5090565b600062000249620002438462000392565b62000369565b905082815260208101848484011115620002685762000267620004cd565b5b62000275848285620003c8565b509392505050565b600082601f830112620002955762000294620004c8565b5b8151620002a784826020860162000232565b91505092915050565b600080600060608486031215620002cc57620002cb620004d7565b5b600084015167ffffffffffffffff811115620002ed57620002ec620004d2565b5b620002fb868287016200027d565b935050602084015167ffffffffffffffff8111156200031f576200031e620004d2565b5b6200032d868287016200027d565b925050604084015167ffffffffffffffff811115620003515762000350620004d2565b5b6200035f868287016200027d565b9150509250925092565b60006200037562000388565b905062000383828262000434565b919050565b6000604051905090565b600067ffffffffffffffff821115620003b057620003af62000499565b5b620003bb82620004dc565b9050602081019050919050565b60005b83811015620003e8578082015181840152602081019050620003cb565b83811115620003f8576000848401525b50505050565b600060028204905060018216806200041757607f821691505b602082108114156200042e576200042d6200046a565b5b50919050565b6200043f82620004dc565b810181811067ffffffffffffffff8211171562000461576200046062000499565b5b80604052505050565b7f4e487b7100000000000000000000000000000000000000000000000000000000600052602260045260246000fd5b7f4e487b7100000000000000000000000000000000000000000000000000000000600052604160045260246000fd5b600080fd5b600080fd5b600080fd5b600080fd5b6000601f19601f8301169050919050565b613ba980620004fd6000396000f3fe608060405234801561001057600080fd5b50600436106101e55760003560e01c806364eeeb731161010f578063c87b56dd116100a2578063e985e9c511610071578063e985e9c514610582578063f2fde38b146105b2578063f99031a7146105ce578063fdef166b146105fe576101e5565b8063c87b56dd1461050e578063d0bbb0d71461053e578063d31cc7881461055c578063e0f67eb214610566576101e5565b806395d89b41116100de57806395d89b4114610488578063a22cb465146104a6578063a3805054146104c2578063b88d4fde146104f2576101e5565b806364eeeb731461041257806370a0823114610430578063715018a6146104605780638da5cb5b1461046a576101e5565b806318160ddd1161018757806333bea36b1161015657806333bea36b1461036657806342842e0e146103965780634f6ccce7146103b25780636352211e146103e2576101e5565b806318160ddd146102de57806323b872dd146102fc5780632f745c59146103185780633158357f14610348576101e5565b80630700bfef116101c35780630700bfef1461025657806307c7f4eb14610274578063081812fc14610292578063095ea7b3146102c2576101e5565b806301ffc9a7146101ea57806303ee438c1461021a57806306fdde0314610238575b600080fd5b61020460048036038101906101ff919061277b565b61062e565b6040516102119190612e79565b60405180910390f35b6102226106a8565b60405161022f9190612e94565b60405180910390f35b610240610736565b60405161024d9190612e94565b60405180910390f35b61025e6107c8565b60405161026b91906130f6565b60405180910390f35b61027c6107ce565b60405161028991906130f6565b60405180910390f35b6102ac60048036038101906102a791906127d5565b6107d3565b6040516102b99190612df6565b60405180910390f35b6102dc60048036038101906102d7919061273b565b610858565b005b6102e6610970565b6040516102f391906130f6565b60405180910390f35b61031660048036038101906103119190612625565b61097d565b005b610332600480360381019061032d919061273b565b6109dd565b60405161033f91906130f6565b60405180910390f35b610350610a82565b60405161035d9190612e5d565b60405180910390f35b610380600480360381019061037b9190612802565b610b05565b60405161038d91906130f6565b60405180910390f35b6103b060048036038101906103ab9190612625565b610b33565b005b6103cc60048036038101906103c791906127d5565b610b53565b6040516103d991906130f6565b60405180910390f35b6103fc60048036038101906103f791906127d5565b610bc4565b6040516104099190612df6565b60405180910390f35b61041a610c76565b60405161042791906130f6565b60405180910390f35b61044a600480360381019061044591906125b8565b610c7b565b60405161045791906130f6565b60405180910390f35b610468610d33565b005b610472610dbb565b60405161047f9190612df6565b60405180910390f35b610490610de5565b60405161049d9190612e94565b60405180910390f35b6104c060048036038101906104bb91906126fb565b610e77565b005b6104dc60048036038101906104d791906127d5565b610e8d565b6040516104e991906130f6565b60405180910390f35b61050c60048036038101906105079190612678565b610ead565b005b610528600480360381019061052391906127d5565b610f0f565b6040516105359190612e94565b60405180910390f35b610546610f5f565b60405161055391906130f6565b60405180910390f35b610564610f65565b005b610580600480360381019061057b91906125b8565b611017565b005b61059c600480360381019061059791906125e5565b6110ee565b6040516105a99190612e79565b60405180910390f35b6105cc60048036038101906105c791906125b8565b611182565b005b6105e860048036038101906105e391906125b8565b61127a565b6040516105f59190612e79565b60405180910390f35b610618600480360381019061061391906127d5565b61129a565b60405161062591906130f6565b60405180910390f35b60007f780e9d63000000000000000000000000000000000000000000000000000000007bffffffffffffffffffffffffffffffffffffffffffffffffffffffff1916827bffffffffffffffffffffffffffffffffffffffffffffffffffffffff191614806106a157506106a0826112b8565b5b9050919050565b600b80546106b590613394565b80601f01602080910402602001604051908101604052809291908181526020018280546106e190613394565b801561072e5780601f106107035761010080835404028352916020019161072e565b820191906000526020600020905b81548152906001019060200180831161071157829003601f168201915b505050505081565b60606000805461074590613394565b80601f016020809104026020016040519081016040528092919081815260200182805461077190613394565b80156107be5780601f10610793576101008083540402835291602001916107be565b820191906000526020600020905b8154815290600101906020018083116107a157829003601f168201915b5050505050905090565b600c5481565b600481565b60006107de8261139a565b61081d576040517f08c379a000000000000000000000000000000000000000000000000000000000815260040161081490613056565b60405180910390fd5b6004600083815260200190815260200160002060009054906101000a900473ffffffffffffffffffffffffffffffffffffffff169050919050565b600061086382610bc4565b90508073ffffffffffffffffffffffffffffffffffffffff168373ffffffffffffffffffffffffffffffffffffffff1614156108d4576040517f08c379a00000000000000000000000000000000000000000000000000000000081526004016108cb90613096565b60405180910390fd5b8073ffffffffffffffffffffffffffffffffffffffff166108f3611406565b73ffffffffffffffffffffffffffffffffffffffff16148061092257506109218161091c611406565b6110ee565b5b610961576040517f08c379a000000000000000000000000000000000000000000000000000000000815260040161095890612fb6565b60405180910390fd5b61096b838361140e565b505050565b6000600880549050905090565b61098e610988611406565b826114c7565b6109cd576040517f08c379a00000000000000000000000000000000000000000000000000000000081526004016109c4906130b6565b60405180910390fd5b6109d88383836115a5565b505050565b60006109e883610c7b565b8210610a29576040517f08c379a0000000000000000000000000000000000000000000000000000000008152600401610a2090612eb6565b60405180910390fd5b600660008473ffffffffffffffffffffffffffffffffffffffff1673ffffffffffffffffffffffffffffffffffffffff168152602001908152602001600020600083815260200190815260200160002054905092915050565b610a8a61247d565b600f600480602002604051908101604052809291906000905b82821015610afc57838260040201600480602002604051908101604052809291908260048015610ae8576020028201915b815481526020019060010190808311610ad4575b505050505081526020019060010190610aa3565b50505050905090565b600f8260048110610b1557600080fd5b600402018160048110610b2757600080fd5b01600091509150505481565b610b4e83838360405180602001604052806000815250610ead565b505050565b6000610b5d610970565b8210610b9e576040517f08c379a0000000000000000000000000000000000000000000000000000000008152600401610b95906130d6565b60405180910390fd5b60088281548110610bb257610bb1613565565b5b90600052602060002001549050919050565b6000806002600084815260200190815260200160002060009054906101000a900473ffffffffffffffffffffffffffffffffffffffff169050600073ffffffffffffffffffffffffffffffffffffffff168173ffffffffffffffffffffffffffffffffffffffff161415610c6d576040517f08c379a0000000000000000000000000000000000000000000000000000000008152600401610c6490612ff6565b60405180910390fd5b80915050919050565b600481565b60008073ffffffffffffffffffffffffffffffffffffffff168273ffffffffffffffffffffffffffffffffffffffff161415610cec576040517f08c379a0000000000000000000000000000000000000000000000000000000008152600401610ce390612fd6565b60405180910390fd5b600360008373ffffffffffffffffffffffffffffffffffffffff1673ffffffffffffffffffffffffffffffffffffffff168152602001908152602001600020549050919050565b610d3b611406565b73ffffffffffffffffffffffffffffffffffffffff16610d59610dbb565b73ffffffffffffffffffffffffffffffffffffffff1614610daf576040517f08c379a0000000000000000000000000000000000000000000000000000000008152600401610da690613076565b60405180910390fd5b610db9600061180c565b565b6000600a60009054906101000a900473ffffffffffffffffffffffffffffffffffffffff16905090565b606060018054610df490613394565b80601f0160208091040260200160405190810160405280929190818152602001828054610e2090613394565b8015610e6d5780601f10610e4257610100808354040283529160200191610e6d565b820191906000526020600020905b815481529060010190602001808311610e5057829003601f168201915b5050505050905090565b610e89610e82611406565b83836118d2565b5050565b6000600d6000838152602001908152602001600020600001549050919050565b610ebe610eb8611406565b836114c7565b610efd576040517f08c379a0000000000000000000000000000000000000000000000000000000008152600401610ef4906130b6565b60405180910390fd5b610f0984848484611a3f565b50505050565b60606000610f32600d600085815260200190815260200160002060000154611a9b565b9050600b81604051602001610f48929190612dbc565b604051602081830303815290604052915050919050565b6103e881565b610f6d610970565b6103e811610fb0576040517f08c379a0000000000000000000000000000000000000000000000000000000008152600401610fa790613036565b60405180910390fd5b60006001610fbc610970565b610fc69190613219565b90506000610fd43383611bfc565b905060405180602001604052808260000151815250600d6000848152602001908152602001600020600082015181600001559050506110133383611c5b565b5050565b61101f611406565b73ffffffffffffffffffffffffffffffffffffffff1661103d610dbb565b73ffffffffffffffffffffffffffffffffffffffff1614611093576040517f08c379a000000000000000000000000000000000000000000000000000000000815260040161108a90613076565b60405180910390fd5b6001600e60008373ffffffffffffffffffffffffffffffffffffffff1673ffffffffffffffffffffffffffffffffffffffff16815260200190815260200160002060006101000a81548160ff02191690831515021790555050565b6000600560008473ffffffffffffffffffffffffffffffffffffffff1673ffffffffffffffffffffffffffffffffffffffff16815260200190815260200160002060008373ffffffffffffffffffffffffffffffffffffffff1673ffffffffffffffffffffffffffffffffffffffff16815260200190815260200160002060009054906101000a900460ff16905092915050565b61118a611406565b73ffffffffffffffffffffffffffffffffffffffff166111a8610dbb565b73ffffffffffffffffffffffffffffffffffffffff16146111fe576040517f08c379a00000000000000000000000000000000000000000000000000000000081526004016111f590613076565b60405180910390fd5b600073ffffffffffffffffffffffffffffffffffffffff168173ffffffffffffffffffffffffffffffffffffffff16141561126e576040517f08c379a000000000000000000000000000000000000000000000000000000000815260040161126590612ef6565b60405180910390fd5b6112778161180c565b50565b600e6020528060005260406000206000915054906101000a900460ff1681565b600d6020528060005260406000206000915090508060000154905081565b60007f80ac58cd000000000000000000000000000000000000000000000000000000007bffffffffffffffffffffffffffffffffffffffffffffffffffffffff1916827bffffffffffffffffffffffffffffffffffffffffffffffffffffffff1916148061138357507f5b5e139f000000000000000000000000000000000000000000000000000000007bffffffffffffffffffffffffffffffffffffffffffffffffffffffff1916827bffffffffffffffffffffffffffffffffffffffffffffffffffffffff1916145b80611393575061139282611e35565b5b9050919050565b60008073ffffffffffffffffffffffffffffffffffffffff166002600084815260200190815260200160002060009054906101000a900473ffffffffffffffffffffffffffffffffffffffff1673ffffffffffffffffffffffffffffffffffffffff1614159050919050565b600033905090565b816004600083815260200190815260200160002060006101000a81548173ffffffffffffffffffffffffffffffffffffffff021916908373ffffffffffffffffffffffffffffffffffffffff160217905550808273ffffffffffffffffffffffffffffffffffffffff1661148183610bc4565b73ffffffffffffffffffffffffffffffffffffffff167f8c5be1e5ebec7d5bd14f71427d1e84f3dd0314c0f7b2291e5b200ac8c7c3b92560405160405180910390a45050565b60006114d28261139a565b611511576040517f08c379a000000000000000000000000000000000000000000000000000000000815260040161150890612f96565b60405180910390fd5b600061151c83610bc4565b90508073ffffffffffffffffffffffffffffffffffffffff168473ffffffffffffffffffffffffffffffffffffffff16148061155e575061155d81856110ee565b5b8061159c57508373ffffffffffffffffffffffffffffffffffffffff16611584846107d3565b73ffffffffffffffffffffffffffffffffffffffff16145b91505092915050565b8273ffffffffffffffffffffffffffffffffffffffff166115c582610bc4565b73ffffffffffffffffffffffffffffffffffffffff161461161b576040517f08c379a000000000000000000000000000000000000000000000000000000000815260040161161290612f16565b60405180910390fd5b600073ffffffffffffffffffffffffffffffffffffffff168273ffffffffffffffffffffffffffffffffffffffff16141561168b576040517f08c379a000000000000000000000000000000000000000000000000000000000815260040161168290612f56565b60405180910390fd5b611696838383611e9f565b6116a160008261140e565b6001600360008573ffffffffffffffffffffffffffffffffffffffff1673ffffffffffffffffffffffffffffffffffffffff16815260200190815260200160002060008282546116f191906132a0565b925050819055506001600360008473ffffffffffffffffffffffffffffffffffffffff1673ffffffffffffffffffffffffffffffffffffffff16815260200190815260200160002060008282546117489190613219565b92505081905550816002600083815260200190815260200160002060006101000a81548173ffffffffffffffffffffffffffffffffffffffff021916908373ffffffffffffffffffffffffffffffffffffffff160217905550808273ffffffffffffffffffffffffffffffffffffffff168473ffffffffffffffffffffffffffffffffffffffff167fddf252ad1be2c89b69c2b068fc378daa952ba7f163c4a11628f55a4df523b3ef60405160405180910390a4611807838383611fb3565b505050565b6000600a60009054906101000a900473ffffffffffffffffffffffffffffffffffffffff16905081600a60006101000a81548173ffffffffffffffffffffffffffffffffffffffff021916908373ffffffffffffffffffffffffffffffffffffffff1602179055508173ffffffffffffffffffffffffffffffffffffffff168173ffffffffffffffffffffffffffffffffffffffff167f8be0079c531659141344cd1fd0a4f28419497f9722a3daafe3b4186f6b6457e060405160405180910390a35050565b8173ffffffffffffffffffffffffffffffffffffffff168373ffffffffffffffffffffffffffffffffffffffff161415611941576040517f08c379a000000000000000000000000000000000000000000000000000000000815260040161193890612f76565b60405180910390fd5b80600560008573ffffffffffffffffffffffffffffffffffffffff1673ffffffffffffffffffffffffffffffffffffffff16815260200190815260200160002060008473ffffffffffffffffffffffffffffffffffffffff1673ffffffffffffffffffffffffffffffffffffffff16815260200190815260200160002060006101000a81548160ff0219169083151502179055508173ffffffffffffffffffffffffffffffffffffffff168373ffffffffffffffffffffffffffffffffffffffff167f17307eab39ab6107e8899845ad3d59bd9653f200f220920489ca2b5937696c3183604051611a329190612e79565b60405180910390a3505050565b611a4a8484846115a5565b611a5684848484611fb8565b611a95576040517f08c379a0000000000000000000000000000000000000000000000000000000008152600401611a8c90612ed6565b60405180910390fd5b50505050565b60606000821415611ae3576040518060400160405280600181526020017f30000000000000000000000000000000000000000000000000000000000000008152509050611bf7565b600082905060005b60008214611b15578080611afe906133f7565b915050600a82611b0e919061326f565b9150611aeb565b60008167ffffffffffffffff811115611b3157611b30613594565b5b6040519080825280601f01601f191660200182016040528015611b635781602001600182028036833780820191505090505b5090505b60008514611bf057600182611b7c91906132a0565b9150600a85611b8b9190613478565b6030611b979190613219565b60f81b818381518110611bad57611bac613565565b5b60200101907effffffffffffffffffffffffffffffffffffffffffffffffffffffffffffff1916908160001a905350600a85611be9919061326f565b9450611b67565b8093505050505b919050565b611c046124aa565b611c0c6124aa565b6103e842408585604051602001611c2593929190612d7f565b6040516020818303038152906040528051906020012060001c611c489190613478565b8160000181815250508091505092915050565b600073ffffffffffffffffffffffffffffffffffffffff168273ffffffffffffffffffffffffffffffffffffffff161415611ccb576040517f08c379a0000000000000000000000000000000000000000000000000000000008152600401611cc290613016565b60405180910390fd5b611cd48161139a565b15611d14576040517f08c379a0000000000000000000000000000000000000000000000000000000008152600401611d0b90612f36565b60405180910390fd5b611d2060008383611e9f565b6001600360008473ffffffffffffffffffffffffffffffffffffffff1673ffffffffffffffffffffffffffffffffffffffff1681526020019081526020016000206000828254611d709190613219565b92505081905550816002600083815260200190815260200160002060006101000a81548173ffffffffffffffffffffffffffffffffffffffff021916908373ffffffffffffffffffffffffffffffffffffffff160217905550808273ffffffffffffffffffffffffffffffffffffffff16600073ffffffffffffffffffffffffffffffffffffffff167fddf252ad1be2c89b69c2b068fc378daa952ba7f163c4a11628f55a4df523b3ef60405160405180910390a4611e3160008383611fb3565b5050565b60007f01ffc9a7000000000000000000000000000000000000000000000000000000007bffffffffffffffffffffffffffffffffffffffffffffffffffffffff1916827bffffffffffffffffffffffffffffffffffffffffffffffffffffffff1916149050919050565b611eaa83838361214f565b600073ffffffffffffffffffffffffffffffffffffffff168373ffffffffffffffffffffffffffffffffffffffff161415611eed57611ee881612154565b611f2c565b8173ffffffffffffffffffffffffffffffffffffffff168373ffffffffffffffffffffffffffffffffffffffff1614611f2b57611f2a838261219d565b5b5b600073ffffffffffffffffffffffffffffffffffffffff168273ffffffffffffffffffffffffffffffffffffffff161415611f6f57611f6a8161230a565b611fae565b8273ffffffffffffffffffffffffffffffffffffffff168273ffffffffffffffffffffffffffffffffffffffff1614611fad57611fac82826123db565b5b5b505050565b505050565b6000611fd98473ffffffffffffffffffffffffffffffffffffffff1661245a565b15612142578373ffffffffffffffffffffffffffffffffffffffff1663150b7a02612002611406565b8786866040518563ffffffff1660e01b81526004016120249493929190612e11565b602060405180830381600087803b15801561203e57600080fd5b505af192505050801561206f57506040513d601f19601f8201168201806040525081019061206c91906127a8565b60015b6120f2573d806000811461209f576040519150601f19603f3d011682016040523d82523d6000602084013e6120a4565b606091505b506000815114156120ea576040517f08c379a00000000000000000000000000000000000000000000000000000000081526004016120e190612ed6565b60405180910390fd5b805181602001fd5b63150b7a0260e01b7bffffffffffffffffffffffffffffffffffffffffffffffffffffffff1916817bffffffffffffffffffffffffffffffffffffffffffffffffffffffff191614915050612147565b600190505b949350505050565b505050565b6008805490506009600083815260200190815260200160002081905550600881908060018154018082558091505060019003906000526020600020016000909190919091505550565b600060016121aa84610c7b565b6121b491906132a0565b9050600060076000848152602001908152602001600020549050818114612299576000600660008673ffffffffffffffffffffffffffffffffffffffff1673ffffffffffffffffffffffffffffffffffffffff168152602001908152602001600020600084815260200190815260200160002054905080600660008773ffffffffffffffffffffffffffffffffffffffff1673ffffffffffffffffffffffffffffffffffffffff168152602001908152602001600020600084815260200190815260200160002081905550816007600083815260200190815260200160002081905550505b6007600084815260200190815260200160002060009055600660008573ffffffffffffffffffffffffffffffffffffffff1673ffffffffffffffffffffffffffffffffffffffff16815260200190815260200160002060008381526020019081526020016000206000905550505050565b6000600160088054905061231e91906132a0565b905060006009600084815260200190815260200160002054905060006008838154811061234e5761234d613565565b5b9060005260206000200154905080600883815481106123705761236f613565565b5b9060005260206000200181905550816009600083815260200190815260200160002081905550600960008581526020019081526020016000206000905560088054806123bf576123be613536565b5b6001900381819060005260206000200160009055905550505050565b60006123e683610c7b565b905081600660008573ffffffffffffffffffffffffffffffffffffffff1673ffffffffffffffffffffffffffffffffffffffff168152602001908152602001600020600083815260200190815260200160002081905550806007600084815260200190815260200160002081905550505050565b6000808273ffffffffffffffffffffffffffffffffffffffff163b119050919050565b60405180608001604052806004905b6124946124bd565b81526020019060019003908161248c5790505090565b6040518060200160405280600081525090565b6040518060800160405280600490602082028036833780820191505090505090565b60006124f26124ed84613136565b613111565b90508281526020810184848401111561250e5761250d6135c8565b5b612519848285613352565b509392505050565b60008135905061253081613b17565b92915050565b60008135905061254581613b2e565b92915050565b60008135905061255a81613b45565b92915050565b60008151905061256f81613b45565b92915050565b600082601f83011261258a576125896135c3565b5b813561259a8482602086016124df565b91505092915050565b6000813590506125b281613b5c565b92915050565b6000602082840312156125ce576125cd6135d2565b5b60006125dc84828501612521565b91505092915050565b600080604083850312156125fc576125fb6135d2565b5b600061260a85828601612521565b925050602061261b85828601612521565b9150509250929050565b60008060006060848603121561263e5761263d6135d2565b5b600061264c86828701612521565b935050602061265d86828701612521565b925050604061266e868287016125a3565b9150509250925092565b60008060008060808587031215612692576126916135d2565b5b60006126a087828801612521565b94505060206126b187828801612521565b93505060406126c2878288016125a3565b925050606085013567ffffffffffffffff8111156126e3576126e26135cd565b5b6126ef87828801612575565b91505092959194509250565b60008060408385031215612712576127116135d2565b5b600061272085828601612521565b925050602061273185828601612536565b9150509250929050565b60008060408385031215612752576127516135d2565b5b600061276085828601612521565b9250506020612771858286016125a3565b9150509250929050565b600060208284031215612791576127906135d2565b5b600061279f8482850161254b565b91505092915050565b6000602082840312156127be576127bd6135d2565b5b60006127cc84828501612560565b91505092915050565b6000602082840312156127eb576127ea6135d2565b5b60006127f9848285016125a3565b91505092915050565b60008060408385031215612819576128186135d2565b5b6000612827858286016125a3565b9250506020612838858286016125a3565b9150509250929050565b600061284e83836128ef565b60808301905092915050565b60006128668383612d4a565b60208301905092915050565b61287b816132d4565b82525050565b61289261288d826132d4565b613440565b82525050565b6128a181613190565b6128ab81846131d6565b92506128b682613167565b8060005b838110156128e75781516128ce8782612842565b96506128d9836131bc565b9250506001810190506128ba565b505050505050565b6128f88161319b565b61290281846131e1565b925061290d82613171565b8060005b8381101561293e578151612925878261285a565b9650612930836131c9565b925050600181019050612911565b505050505050565b61294f816132e6565b82525050565b612966612961826132f2565b613452565b82525050565b6000612977826131a6565b61298181856131ec565b9350612991818560208601613361565b61299a816135d7565b840191505092915050565b60006129b0826131b1565b6129ba81856131fd565b93506129ca818560208601613361565b6129d3816135d7565b840191505092915050565b60006129e9826131b1565b6129f3818561320e565b9350612a03818560208601613361565b80840191505092915050565b60008154612a1c81613394565b612a26818661320e565b94506001821660008114612a415760018114612a5257612a85565b60ff19831686528186019350612a85565b612a5b8561317b565b60005b83811015612a7d57815481890152600182019150602081019050612a5e565b838801955050505b50505092915050565b6000612a9b602b836131fd565b9150612aa6826135f5565b604082019050919050565b6000612abe6032836131fd565b9150612ac982613644565b604082019050919050565b6000612ae16026836131fd565b9150612aec82613693565b604082019050919050565b6000612b046025836131fd565b9150612b0f826136e2565b604082019050919050565b6000612b27601c836131fd565b9150612b3282613731565b602082019050919050565b6000612b4a6024836131fd565b9150612b558261375a565b604082019050919050565b6000612b6d6019836131fd565b9150612b78826137a9565b602082019050919050565b6000612b90602c836131fd565b9150612b9b826137d2565b604082019050919050565b6000612bb36038836131fd565b9150612bbe82613821565b604082019050919050565b6000612bd6602a836131fd565b9150612be182613870565b604082019050919050565b6000612bf96029836131fd565b9150612c04826138bf565b604082019050919050565b6000612c1c6020836131fd565b9150612c278261390e565b602082019050919050565b6000612c3f6019836131fd565b9150612c4a82613937565b602082019050919050565b6000612c62602c836131fd565b9150612c6d82613960565b604082019050919050565b6000612c8560058361320e565b9150612c90826139af565b600582019050919050565b6000612ca86020836131fd565b9150612cb3826139d8565b602082019050919050565b6000612ccb6021836131fd565b9150612cd682613a01565b604082019050919050565b6000612cee6031836131fd565b9150612cf982613a50565b604082019050919050565b6000612d11602c836131fd565b9150612d1c82613a9f565b604082019050919050565b6000612d3460018361320e565b9150612d3f82613aee565b600182019050919050565b612d5381613348565b82525050565b612d6281613348565b82525050565b612d79612d7482613348565b61346e565b82525050565b6000612d8b8286612955565b602082019150612d9b8285612881565b601482019150612dab8284612d68565b602082019150819050949350505050565b6000612dc88285612a0f565b9150612dd382612d27565b9150612ddf82846129de565b9150612dea82612c78565b91508190509392505050565b6000602082019050612e0b6000830184612872565b92915050565b6000608082019050612e266000830187612872565b612e336020830186612872565b612e406040830185612d59565b8181036060830152612e52818461296c565b905095945050505050565b600061020082019050612e736000830184612898565b92915050565b6000602082019050612e8e6000830184612946565b92915050565b60006020820190508181036000830152612eae81846129a5565b905092915050565b60006020820190508181036000830152612ecf81612a8e565b9050919050565b60006020820190508181036000830152612eef81612ab1565b9050919050565b60006020820190508181036000830152612f0f81612ad4565b9050919050565b60006020820190508181036000830152612f2f81612af7565b9050919050565b60006020820190508181036000830152612f4f81612b1a565b9050919050565b60006020820190508181036000830152612f6f81612b3d565b9050919050565b60006020820190508181036000830152612f8f81612b60565b9050919050565b60006020820190508181036000830152612faf81612b83565b9050919050565b60006020820190508181036000830152612fcf81612ba6565b9050919050565b60006020820190508181036000830152612fef81612bc9565b9050919050565b6000602082019050818103600083015261300f81612bec565b9050919050565b6000602082019050818103600083015261302f81612c0f565b9050919050565b6000602082019050818103600083015261304f81612c32565b9050919050565b6000602082019050818103600083015261306f81612c55565b9050919050565b6000602082019050818103600083015261308f81612c9b565b9050919050565b600060208201905081810360008301526130af81612cbe565b9050919050565b600060208201905081810360008301526130cf81612ce1565b9050919050565b600060208201905081810360008301526130ef81612d04565b9050919050565b600060208201905061310b6000830184612d59565b92915050565b600061311b61312c565b905061312782826133c6565b919050565b6000604051905090565b600067ffffffffffffffff82111561315157613150613594565b5b61315a826135d7565b9050602081019050919050565b6000819050919050565b6000819050919050565b60008190508160005260206000209050919050565b600060049050919050565b600060049050919050565b600081519050919050565b600081519050919050565b6000602082019050919050565b6000602082019050919050565b600081905092915050565b600081905092915050565b600082825260208201905092915050565b600082825260208201905092915050565b600081905092915050565b600061322482613348565b915061322f83613348565b9250827fffffffffffffffffffffffffffffffffffffffffffffffffffffffffffffffff03821115613264576132636134a9565b5b828201905092915050565b600061327a82613348565b915061328583613348565b925082613295576132946134d8565b5b828204905092915050565b60006132ab82613348565b91506132b683613348565b9250828210156132c9576132c86134a9565b5b828203905092915050565b60006132df82613328565b9050919050565b60008115159050919050565b6000819050919050565b60007fffffffff0000000000000000000000000000000000000000000000000000000082169050919050565b600073ffffffffffffffffffffffffffffffffffffffff82169050919050565b6000819050919050565b82818337600083830152505050565b60005b8381101561337f578082015181840152602081019050613364565b8381111561338e576000848401525b50505050565b600060028204905060018216806133ac57607f821691505b602082108114156133c0576133bf613507565b5b50919050565b6133cf826135d7565b810181811067ffffffffffffffff821117156133ee576133ed613594565b5b80604052505050565b600061340282613348565b91507fffffffffffffffffffffffffffffffffffffffffffffffffffffffffffffffff821415613435576134346134a9565b5b600182019050919050565b600061344b8261345c565b9050919050565b6000819050919050565b6000613467826135e8565b9050919050565b6000819050919050565b600061348382613348565b915061348e83613348565b92508261349e5761349d6134d8565b5b828206905092915050565b7f4e487b7100000000000000000000000000000000000000000000000000000000600052601160045260246000fd5b7f4e487b7100000000000000000000000000000000000000000000000000000000600052601260045260246000fd5b7f4e487b7100000000000000000000000000000000000000000000000000000000600052602260045260246000fd5b7f4e487b7100000000000000000000000000000000000000000000000000000000600052603160045260246000fd5b7f4e487b7100000000000000000000000000000000000000000000000000000000600052603260045260246000fd5b7f4e487b7100000000000000000000000000000000000000000000000000000000600052604160045260246000fd5b600080fd5b600080fd5b600080fd5b600080fd5b6000601f19601f8301169050919050565b60008160601b9050919050565b7f455243373231456e756d657261626c653a206f776e657220696e646578206f7560008201527f74206f6620626f756e6473000000000000000000000000000000000000000000602082015250565b7f4552433732313a207472616e7366657220746f206e6f6e20455243373231526560008201527f63656976657220696d706c656d656e7465720000000000000000000000000000602082015250565b7f4f776e61626c653a206e6577206f776e657220697320746865207a65726f206160008201527f6464726573730000000000000000000000000000000000000000000000000000602082015250565b7f4552433732313a207472616e736665722066726f6d20696e636f72726563742060008201527f6f776e6572000000000000000000000000000000000000000000000000000000602082015250565b7f4552433732313a20746f6b656e20616c7265616479206d696e74656400000000600082015250565b7f4552433732313a207472616e7366657220746f20746865207a65726f2061646460008201527f7265737300000000000000000000000000000000000000000000000000000000602082015250565b7f4552433732313a20617070726f766520746f2063616c6c657200000000000000600082015250565b7f4552433732313a206f70657261746f7220717565727920666f72206e6f6e657860008201527f697374656e7420746f6b656e0000000000000000000000000000000000000000602082015250565b7f4552433732313a20617070726f76652063616c6c6572206973206e6f74206f7760008201527f6e6572206e6f7220617070726f76656420666f7220616c6c0000000000000000602082015250565b7f4552433732313a2062616c616e636520717565727920666f7220746865207a6560008201527f726f206164647265737300000000000000000000000000000000000000000000602082015250565b7f4552433732313a206f776e657220717565727920666f72206e6f6e657869737460008201527f656e7420746f6b656e0000000000000000000000000000000000000000000000602082015250565b7f4552433732313a206d696e7420746f20746865207a65726f2061646472657373600082015250565b7f4e6f6d6f7265206d696e74696e20697320706f737369626c6500000000000000600082015250565b7f4552433732313a20617070726f76656420717565727920666f72206e6f6e657860008201527f697374656e7420746f6b656e0000000000000000000000000000000000000000602082015250565b7f2e6a736f6e000000000000000000000000000000000000000000000000000000600082015250565b7f4f776e61626c653a2063616c6c6572206973206e6f7420746865206f776e6572600082015250565b7f4552433732313a20617070726f76616c20746f2063757272656e74206f776e6560008201527f7200000000000000000000000000000000000000000000000000000000000000602082015250565b7f4552433732313a207472616e736665722063616c6c6572206973206e6f74206f60008201527f776e6572206e6f7220617070726f766564000000000000000000000000000000602082015250565b7f455243373231456e756d657261626c653a20676c6f62616c20696e646578206f60008201527f7574206f6620626f756e64730000000000000000000000000000000000000000602082015250565b7f2f00000000000000000000000000000000000000000000000000000000000000600082015250565b613b20816132d4565b8114613b2b57600080fd5b50565b613b37816132e6565b8114613b4257600080fd5b50565b613b4e816132fc565b8114613b5957600080fd5b50565b613b6581613348565b8114613b7057600080fd5b5056fea2646970667358221220662c1b5388dd477a085a8f82dcba8b254d01f7bcfb48ffd3f5d5f7f9c633404864736f6c63430008070033",
			"opcodes": "PUSH1 0x80 PUSH1 0x40 MSTORE PUSH1 0xB4 PUSH1 0xC SSTORE CALLVALUE DUP1 ISZERO PUSH3 0x16 JUMPI PUSH1 0x0 DUP1 REVERT JUMPDEST POP PUSH1 0x40 MLOAD PUSH3 0x40A6 CODESIZE SUB DUP1 PUSH3 0x40A6 DUP4 CODECOPY DUP2 DUP2 ADD PUSH1 0x40 MSTORE DUP2 ADD SWAP1 PUSH3 0x3C SWAP2 SWAP1 PUSH3 0x2B0 JUMP JUMPDEST DUP3 DUP3 DUP2 PUSH1 0x0 SWAP1 DUP1 MLOAD SWAP1 PUSH1 0x20 ADD SWAP1 PUSH3 0x56 SWAP3 SWAP2 SWAP1 PUSH3 0x182 JUMP JUMPDEST POP DUP1 PUSH1 0x1 SWAP1 DUP1 MLOAD SWAP1 PUSH1 0x20 ADD SWAP1 PUSH3 0x6F SWAP3 SWAP2 SWAP1 PUSH3 0x182 JUMP JUMPDEST POP POP POP PUSH3 0x92 PUSH3 0x86 PUSH3 0xB4 PUSH1 0x20 SHL PUSH1 0x20 SHR JUMP JUMPDEST PUSH3 0xBC PUSH1 0x20 SHL PUSH1 0x20 SHR JUMP JUMPDEST DUP1 PUSH1 0xB SWAP1 DUP1 MLOAD SWAP1 PUSH1 0x20 ADD SWAP1 PUSH3 0xAA SWAP3 SWAP2 SWAP1 PUSH3 0x182 JUMP JUMPDEST POP POP POP POP PUSH3 0x4ED JUMP JUMPDEST PUSH1 0x0 CALLER SWAP1 POP SWAP1 JUMP JUMPDEST PUSH1 0x0 PUSH1 0xA PUSH1 0x0 SWAP1 SLOAD SWAP1 PUSH2 0x100 EXP SWAP1 DIV PUSH20 0xFFFFFFFFFFFFFFFFFFFFFFFFFFFFFFFFFFFFFFFF AND SWAP1 POP DUP2 PUSH1 0xA PUSH1 0x0 PUSH2 0x100 EXP DUP2 SLOAD DUP2 PUSH20 0xFFFFFFFFFFFFFFFFFFFFFFFFFFFFFFFFFFFFFFFF MUL NOT AND SWAP1 DUP4 PUSH20 0xFFFFFFFFFFFFFFFFFFFFFFFFFFFFFFFFFFFFFFFF AND MUL OR SWAP1 SSTORE POP DUP2 PUSH20 0xFFFFFFFFFFFFFFFFFFFFFFFFFFFFFFFFFFFFFFFF AND DUP2 PUSH20 0xFFFFFFFFFFFFFFFFFFFFFFFFFFFFFFFFFFFFFFFF AND PUSH32 0x8BE0079C531659141344CD1FD0A4F28419497F9722A3DAAFE3B4186F6B6457E0 PUSH1 0x40 MLOAD PUSH1 0x40 MLOAD DUP1 SWAP2 SUB SWAP1 LOG3 POP POP JUMP JUMPDEST DUP3 DUP1 SLOAD PUSH3 0x190 SWAP1 PUSH3 0x3FE JUMP JUMPDEST SWAP1 PUSH1 0x0 MSTORE PUSH1 0x20 PUSH1 0x0 KECCAK256 SWAP1 PUSH1 0x1F ADD PUSH1 0x20 SWAP1 DIV DUP2 ADD SWAP3 DUP3 PUSH3 0x1B4 JUMPI PUSH1 0x0 DUP6 SSTORE PUSH3 0x200 JUMP JUMPDEST DUP3 PUSH1 0x1F LT PUSH3 0x1CF JUMPI DUP1 MLOAD PUSH1 0xFF NOT AND DUP4 DUP1 ADD OR DUP6 SSTORE PUSH3 0x200 JUMP JUMPDEST DUP3 DUP1 ADD PUSH1 0x1 ADD DUP6 SSTORE DUP3 ISZERO PUSH3 0x200 JUMPI SWAP2 DUP3 ADD JUMPDEST DUP3 DUP2 GT ISZERO PUSH3 0x1FF JUMPI DUP3 MLOAD DUP3 SSTORE SWAP2 PUSH1 0x20 ADD SWAP2 SWAP1 PUSH1 0x1 ADD SWAP1 PUSH3 0x1E2 JUMP JUMPDEST JUMPDEST POP SWAP1 POP PUSH3 0x20F SWAP2 SWAP1 PUSH3 0x213 JUMP JUMPDEST POP SWAP1 JUMP JUMPDEST JUMPDEST DUP1 DUP3 GT ISZERO PUSH3 0x22E JUMPI PUSH1 0x0 DUP2 PUSH1 0x0 SWAP1 SSTORE POP PUSH1 0x1 ADD PUSH3 0x214 JUMP JUMPDEST POP SWAP1 JUMP JUMPDEST PUSH1 0x0 PUSH3 0x249 PUSH3 0x243 DUP5 PUSH3 0x392 JUMP JUMPDEST PUSH3 0x369 JUMP JUMPDEST SWAP1 POP DUP3 DUP2 MSTORE PUSH1 0x20 DUP2 ADD DUP5 DUP5 DUP5 ADD GT ISZERO PUSH3 0x268 JUMPI PUSH3 0x267 PUSH3 0x4CD JUMP JUMPDEST JUMPDEST PUSH3 0x275 DUP5 DUP3 DUP6 PUSH3 0x3C8 JUMP JUMPDEST POP SWAP4 SWAP3 POP POP POP JUMP JUMPDEST PUSH1 0x0 DUP3 PUSH1 0x1F DUP4 ADD SLT PUSH3 0x295 JUMPI PUSH3 0x294 PUSH3 0x4C8 JUMP JUMPDEST JUMPDEST DUP2 MLOAD PUSH3 0x2A7 DUP5 DUP3 PUSH1 0x20 DUP7 ADD PUSH3 0x232 JUMP JUMPDEST SWAP2 POP POP SWAP3 SWAP2 POP POP JUMP JUMPDEST PUSH1 0x0 DUP1 PUSH1 0x0 PUSH1 0x60 DUP5 DUP7 SUB SLT ISZERO PUSH3 0x2CC JUMPI PUSH3 0x2CB PUSH3 0x4D7 JUMP JUMPDEST JUMPDEST PUSH1 0x0 DUP5 ADD MLOAD PUSH8 0xFFFFFFFFFFFFFFFF DUP2 GT ISZERO PUSH3 0x2ED JUMPI PUSH3 0x2EC PUSH3 0x4D2 JUMP JUMPDEST JUMPDEST PUSH3 0x2FB DUP7 DUP3 DUP8 ADD PUSH3 0x27D JUMP JUMPDEST SWAP4 POP POP PUSH1 0x20 DUP5 ADD MLOAD PUSH8 0xFFFFFFFFFFFFFFFF DUP2 GT ISZERO PUSH3 0x31F JUMPI PUSH3 0x31E PUSH3 0x4D2 JUMP JUMPDEST JUMPDEST PUSH3 0x32D DUP7 DUP3 DUP8 ADD PUSH3 0x27D JUMP JUMPDEST SWAP3 POP POP PUSH1 0x40 DUP5 ADD MLOAD PUSH8 0xFFFFFFFFFFFFFFFF DUP2 GT ISZERO PUSH3 0x351 JUMPI PUSH3 0x350 PUSH3 0x4D2 JUMP JUMPDEST JUMPDEST PUSH3 0x35F DUP7 DUP3 DUP8 ADD PUSH3 0x27D JUMP JUMPDEST SWAP2 POP POP SWAP3 POP SWAP3 POP SWAP3 JUMP JUMPDEST PUSH1 0x0 PUSH3 0x375 PUSH3 0x388 JUMP JUMPDEST SWAP1 POP PUSH3 0x383 DUP3 DUP3 PUSH3 0x434 JUMP JUMPDEST SWAP2 SWAP1 POP JUMP JUMPDEST PUSH1 0x0 PUSH1 0x40 MLOAD SWAP1 POP SWAP1 JUMP JUMPDEST PUSH1 0x0 PUSH8 0xFFFFFFFFFFFFFFFF DUP3 GT ISZERO PUSH3 0x3B0 JUMPI PUSH3 0x3AF PUSH3 0x499 JUMP JUMPDEST JUMPDEST PUSH3 0x3BB DUP3 PUSH3 0x4DC JUMP JUMPDEST SWAP1 POP PUSH1 0x20 DUP2 ADD SWAP1 POP SWAP2 SWAP1 POP JUMP JUMPDEST PUSH1 0x0 JUMPDEST DUP4 DUP2 LT ISZERO PUSH3 0x3E8 JUMPI DUP1 DUP3 ADD MLOAD DUP2 DUP5 ADD MSTORE PUSH1 0x20 DUP2 ADD SWAP1 POP PUSH3 0x3CB JUMP JUMPDEST DUP4 DUP2 GT ISZERO PUSH3 0x3F8 JUMPI PUSH1 0x0 DUP5 DUP5 ADD MSTORE JUMPDEST POP POP POP POP JUMP JUMPDEST PUSH1 0x0 PUSH1 0x2 DUP3 DIV SWAP1 POP PUSH1 0x1 DUP3 AND DUP1 PUSH3 0x417 JUMPI PUSH1 0x7F DUP3 AND SWAP2 POP JUMPDEST PUSH1 0x20 DUP3 LT DUP2 EQ ISZERO PUSH3 0x42E JUMPI PUSH3 0x42D PUSH3 0x46A JUMP JUMPDEST JUMPDEST POP SWAP2 SWAP1 POP JUMP JUMPDEST PUSH3 0x43F DUP3 PUSH3 0x4DC JUMP JUMPDEST DUP2 ADD DUP2 DUP2 LT PUSH8 0xFFFFFFFFFFFFFFFF DUP3 GT OR ISZERO PUSH3 0x461 JUMPI PUSH3 0x460 PUSH3 0x499 JUMP JUMPDEST JUMPDEST DUP1 PUSH1 0x40 MSTORE POP POP POP JUMP JUMPDEST PUSH32 0x4E487B7100000000000000000000000000000000000000000000000000000000 PUSH1 0x0 MSTORE PUSH1 0x22 PUSH1 0x4 MSTORE PUSH1 0x24 PUSH1 0x0 REVERT JUMPDEST PUSH32 0x4E487B7100000000000000000000000000000000000000000000000000000000 PUSH1 0x0 MSTORE PUSH1 0x41 PUSH1 0x4 MSTORE PUSH1 0x24 PUSH1 0x0 REVERT JUMPDEST PUSH1 0x0 DUP1 REVERT JUMPDEST PUSH1 0x0 DUP1 REVERT JUMPDEST PUSH1 0x0 DUP1 REVERT JUMPDEST PUSH1 0x0 DUP1 REVERT JUMPDEST PUSH1 0x0 PUSH1 0x1F NOT PUSH1 0x1F DUP4 ADD AND SWAP1 POP SWAP2 SWAP1 POP JUMP JUMPDEST PUSH2 0x3BA9 DUP1 PUSH3 0x4FD PUSH1 0x0 CODECOPY PUSH1 0x0 RETURN INVALID PUSH1 0x80 PUSH1 0x40 MSTORE CALLVALUE DUP1 ISZERO PUSH2 0x10 JUMPI PUSH1 0x0 DUP1 REVERT JUMPDEST POP PUSH1 0x4 CALLDATASIZE LT PUSH2 0x1E5 JUMPI PUSH1 0x0 CALLDATALOAD PUSH1 0xE0 SHR DUP1 PUSH4 0x64EEEB73 GT PUSH2 0x10F JUMPI DUP1 PUSH4 0xC87B56DD GT PUSH2 0xA2 JUMPI DUP1 PUSH4 0xE985E9C5 GT PUSH2 0x71 JUMPI DUP1 PUSH4 0xE985E9C5 EQ PUSH2 0x582 JUMPI DUP1 PUSH4 0xF2FDE38B EQ PUSH2 0x5B2 JUMPI DUP1 PUSH4 0xF99031A7 EQ PUSH2 0x5CE JUMPI DUP1 PUSH4 0xFDEF166B EQ PUSH2 0x5FE JUMPI PUSH2 0x1E5 JUMP JUMPDEST DUP1 PUSH4 0xC87B56DD EQ PUSH2 0x50E JUMPI DUP1 PUSH4 0xD0BBB0D7 EQ PUSH2 0x53E JUMPI DUP1 PUSH4 0xD31CC788 EQ PUSH2 0x55C JUMPI DUP1 PUSH4 0xE0F67EB2 EQ PUSH2 0x566 JUMPI PUSH2 0x1E5 JUMP JUMPDEST DUP1 PUSH4 0x95D89B41 GT PUSH2 0xDE JUMPI DUP1 PUSH4 0x95D89B41 EQ PUSH2 0x488 JUMPI DUP1 PUSH4 0xA22CB465 EQ PUSH2 0x4A6 JUMPI DUP1 PUSH4 0xA3805054 EQ PUSH2 0x4C2 JUMPI DUP1 PUSH4 0xB88D4FDE EQ PUSH2 0x4F2 JUMPI PUSH2 0x1E5 JUMP JUMPDEST DUP1 PUSH4 0x64EEEB73 EQ PUSH2 0x412 JUMPI DUP1 PUSH4 0x70A08231 EQ PUSH2 0x430 JUMPI DUP1 PUSH4 0x715018A6 EQ PUSH2 0x460 JUMPI DUP1 PUSH4 0x8DA5CB5B EQ PUSH2 0x46A JUMPI PUSH2 0x1E5 JUMP JUMPDEST DUP1 PUSH4 0x18160DDD GT PUSH2 0x187 JUMPI DUP1 PUSH4 0x33BEA36B GT PUSH2 0x156 JUMPI DUP1 PUSH4 0x33BEA36B EQ PUSH2 0x366 JUMPI DUP1 PUSH4 0x42842E0E EQ PUSH2 0x396 JUMPI DUP1 PUSH4 0x4F6CCCE7 EQ PUSH2 0x3B2 JUMPI DUP1 PUSH4 0x6352211E EQ PUSH2 0x3E2 JUMPI PUSH2 0x1E5 JUMP JUMPDEST DUP1 PUSH4 0x18160DDD EQ PUSH2 0x2DE JUMPI DUP1 PUSH4 0x23B872DD EQ PUSH2 0x2FC JUMPI DUP1 PUSH4 0x2F745C59 EQ PUSH2 0x318 JUMPI DUP1 PUSH4 0x3158357F EQ PUSH2 0x348 JUMPI PUSH2 0x1E5 JUMP JUMPDEST DUP1 PUSH4 0x700BFEF GT PUSH2 0x1C3 JUMPI DUP1 PUSH4 0x700BFEF EQ PUSH2 0x256 JUMPI DUP1 PUSH4 0x7C7F4EB EQ PUSH2 0x274 JUMPI DUP1 PUSH4 0x81812FC EQ PUSH2 0x292 JUMPI DUP1 PUSH4 0x95EA7B3 EQ PUSH2 0x2C2 JUMPI PUSH2 0x1E5 JUMP JUMPDEST DUP1 PUSH4 0x1FFC9A7 EQ PUSH2 0x1EA JUMPI DUP1 PUSH4 0x3EE438C EQ PUSH2 0x21A JUMPI DUP1 PUSH4 0x6FDDE03 EQ PUSH2 0x238 JUMPI JUMPDEST PUSH1 0x0 DUP1 REVERT JUMPDEST PUSH2 0x204 PUSH1 0x4 DUP1 CALLDATASIZE SUB DUP2 ADD SWAP1 PUSH2 0x1FF SWAP2 SWAP1 PUSH2 0x277B JUMP JUMPDEST PUSH2 0x62E JUMP JUMPDEST PUSH1 0x40 MLOAD PUSH2 0x211 SWAP2 SWAP1 PUSH2 0x2E79 JUMP JUMPDEST PUSH1 0x40 MLOAD DUP1 SWAP2 SUB SWAP1 RETURN JUMPDEST PUSH2 0x222 PUSH2 0x6A8 JUMP JUMPDEST PUSH1 0x40 MLOAD PUSH2 0x22F SWAP2 SWAP1 PUSH2 0x2E94 JUMP JUMPDEST PUSH1 0x40 MLOAD DUP1 SWAP2 SUB SWAP1 RETURN JUMPDEST PUSH2 0x240 PUSH2 0x736 JUMP JUMPDEST PUSH1 0x40 MLOAD PUSH2 0x24D SWAP2 SWAP1 PUSH2 0x2E94 JUMP JUMPDEST PUSH1 0x40 MLOAD DUP1 SWAP2 SUB SWAP1 RETURN JUMPDEST PUSH2 0x25E PUSH2 0x7C8 JUMP JUMPDEST PUSH1 0x40 MLOAD PUSH2 0x26B SWAP2 SWAP1 PUSH2 0x30F6 JUMP JUMPDEST PUSH1 0x40 MLOAD DUP1 SWAP2 SUB SWAP1 RETURN JUMPDEST PUSH2 0x27C PUSH2 0x7CE JUMP JUMPDEST PUSH1 0x40 MLOAD PUSH2 0x289 SWAP2 SWAP1 PUSH2 0x30F6 JUMP JUMPDEST PUSH1 0x40 MLOAD DUP1 SWAP2 SUB SWAP1 RETURN JUMPDEST PUSH2 0x2AC PUSH1 0x4 DUP1 CALLDATASIZE SUB DUP2 ADD SWAP1 PUSH2 0x2A7 SWAP2 SWAP1 PUSH2 0x27D5 JUMP JUMPDEST PUSH2 0x7D3 JUMP JUMPDEST PUSH1 0x40 MLOAD PUSH2 0x2B9 SWAP2 SWAP1 PUSH2 0x2DF6 JUMP JUMPDEST PUSH1 0x40 MLOAD DUP1 SWAP2 SUB SWAP1 RETURN JUMPDEST PUSH2 0x2DC PUSH1 0x4 DUP1 CALLDATASIZE SUB DUP2 ADD SWAP1 PUSH2 0x2D7 SWAP2 SWAP1 PUSH2 0x273B JUMP JUMPDEST PUSH2 0x858 JUMP JUMPDEST STOP JUMPDEST PUSH2 0x2E6 PUSH2 0x970 JUMP JUMPDEST PUSH1 0x40 MLOAD PUSH2 0x2F3 SWAP2 SWAP1 PUSH2 0x30F6 JUMP JUMPDEST PUSH1 0x40 MLOAD DUP1 SWAP2 SUB SWAP1 RETURN JUMPDEST PUSH2 0x316 PUSH1 0x4 DUP1 CALLDATASIZE SUB DUP2 ADD SWAP1 PUSH2 0x311 SWAP2 SWAP1 PUSH2 0x2625 JUMP JUMPDEST PUSH2 0x97D JUMP JUMPDEST STOP JUMPDEST PUSH2 0x332 PUSH1 0x4 DUP1 CALLDATASIZE SUB DUP2 ADD SWAP1 PUSH2 0x32D SWAP2 SWAP1 PUSH2 0x273B JUMP JUMPDEST PUSH2 0x9DD JUMP JUMPDEST PUSH1 0x40 MLOAD PUSH2 0x33F SWAP2 SWAP1 PUSH2 0x30F6 JUMP JUMPDEST PUSH1 0x40 MLOAD DUP1 SWAP2 SUB SWAP1 RETURN JUMPDEST PUSH2 0x350 PUSH2 0xA82 JUMP JUMPDEST PUSH1 0x40 MLOAD PUSH2 0x35D SWAP2 SWAP1 PUSH2 0x2E5D JUMP JUMPDEST PUSH1 0x40 MLOAD DUP1 SWAP2 SUB SWAP1 RETURN JUMPDEST PUSH2 0x380 PUSH1 0x4 DUP1 CALLDATASIZE SUB DUP2 ADD SWAP1 PUSH2 0x37B SWAP2 SWAP1 PUSH2 0x2802 JUMP JUMPDEST PUSH2 0xB05 JUMP JUMPDEST PUSH1 0x40 MLOAD PUSH2 0x38D SWAP2 SWAP1 PUSH2 0x30F6 JUMP JUMPDEST PUSH1 0x40 MLOAD DUP1 SWAP2 SUB SWAP1 RETURN JUMPDEST PUSH2 0x3B0 PUSH1 0x4 DUP1 CALLDATASIZE SUB DUP2 ADD SWAP1 PUSH2 0x3AB SWAP2 SWAP1 PUSH2 0x2625 JUMP JUMPDEST PUSH2 0xB33 JUMP JUMPDEST STOP JUMPDEST PUSH2 0x3CC PUSH1 0x4 DUP1 CALLDATASIZE SUB DUP2 ADD SWAP1 PUSH2 0x3C7 SWAP2 SWAP1 PUSH2 0x27D5 JUMP JUMPDEST PUSH2 0xB53 JUMP JUMPDEST PUSH1 0x40 MLOAD PUSH2 0x3D9 SWAP2 SWAP1 PUSH2 0x30F6 JUMP JUMPDEST PUSH1 0x40 MLOAD DUP1 SWAP2 SUB SWAP1 RETURN JUMPDEST PUSH2 0x3FC PUSH1 0x4 DUP1 CALLDATASIZE SUB DUP2 ADD SWAP1 PUSH2 0x3F7 SWAP2 SWAP1 PUSH2 0x27D5 JUMP JUMPDEST PUSH2 0xBC4 JUMP JUMPDEST PUSH1 0x40 MLOAD PUSH2 0x409 SWAP2 SWAP1 PUSH2 0x2DF6 JUMP JUMPDEST PUSH1 0x40 MLOAD DUP1 SWAP2 SUB SWAP1 RETURN JUMPDEST PUSH2 0x41A PUSH2 0xC76 JUMP JUMPDEST PUSH1 0x40 MLOAD PUSH2 0x427 SWAP2 SWAP1 PUSH2 0x30F6 JUMP JUMPDEST PUSH1 0x40 MLOAD DUP1 SWAP2 SUB SWAP1 RETURN JUMPDEST PUSH2 0x44A PUSH1 0x4 DUP1 CALLDATASIZE SUB DUP2 ADD SWAP1 PUSH2 0x445 SWAP2 SWAP1 PUSH2 0x25B8 JUMP JUMPDEST PUSH2 0xC7B JUMP JUMPDEST PUSH1 0x40 MLOAD PUSH2 0x457 SWAP2 SWAP1 PUSH2 0x30F6 JUMP JUMPDEST PUSH1 0x40 MLOAD DUP1 SWAP2 SUB SWAP1 RETURN JUMPDEST PUSH2 0x468 PUSH2 0xD33 JUMP JUMPDEST STOP JUMPDEST PUSH2 0x472 PUSH2 0xDBB JUMP JUMPDEST PUSH1 0x40 MLOAD PUSH2 0x47F SWAP2 SWAP1 PUSH2 0x2DF6 JUMP JUMPDEST PUSH1 0x40 MLOAD DUP1 SWAP2 SUB SWAP1 RETURN JUMPDEST PUSH2 0x490 PUSH2 0xDE5 JUMP JUMPDEST PUSH1 0x40 MLOAD PUSH2 0x49D SWAP2 SWAP1 PUSH2 0x2E94 JUMP JUMPDEST PUSH1 0x40 MLOAD DUP1 SWAP2 SUB SWAP1 RETURN JUMPDEST PUSH2 0x4C0 PUSH1 0x4 DUP1 CALLDATASIZE SUB DUP2 ADD SWAP1 PUSH2 0x4BB SWAP2 SWAP1 PUSH2 0x26FB JUMP JUMPDEST PUSH2 0xE77 JUMP JUMPDEST STOP JUMPDEST PUSH2 0x4DC PUSH1 0x4 DUP1 CALLDATASIZE SUB DUP2 ADD SWAP1 PUSH2 0x4D7 SWAP2 SWAP1 PUSH2 0x27D5 JUMP JUMPDEST PUSH2 0xE8D JUMP JUMPDEST PUSH1 0x40 MLOAD PUSH2 0x4E9 SWAP2 SWAP1 PUSH2 0x30F6 JUMP JUMPDEST PUSH1 0x40 MLOAD DUP1 SWAP2 SUB SWAP1 RETURN JUMPDEST PUSH2 0x50C PUSH1 0x4 DUP1 CALLDATASIZE SUB DUP2 ADD SWAP1 PUSH2 0x507 SWAP2 SWAP1 PUSH2 0x2678 JUMP JUMPDEST PUSH2 0xEAD JUMP JUMPDEST STOP JUMPDEST PUSH2 0x528 PUSH1 0x4 DUP1 CALLDATASIZE SUB DUP2 ADD SWAP1 PUSH2 0x523 SWAP2 SWAP1 PUSH2 0x27D5 JUMP JUMPDEST PUSH2 0xF0F JUMP JUMPDEST PUSH1 0x40 MLOAD PUSH2 0x535 SWAP2 SWAP1 PUSH2 0x2E94 JUMP JUMPDEST PUSH1 0x40 MLOAD DUP1 SWAP2 SUB SWAP1 RETURN JUMPDEST PUSH2 0x546 PUSH2 0xF5F JUMP JUMPDEST PUSH1 0x40 MLOAD PUSH2 0x553 SWAP2 SWAP1 PUSH2 0x30F6 JUMP JUMPDEST PUSH1 0x40 MLOAD DUP1 SWAP2 SUB SWAP1 RETURN JUMPDEST PUSH2 0x564 PUSH2 0xF65 JUMP JUMPDEST STOP JUMPDEST PUSH2 0x580 PUSH1 0x4 DUP1 CALLDATASIZE SUB DUP2 ADD SWAP1 PUSH2 0x57B SWAP2 SWAP1 PUSH2 0x25B8 JUMP JUMPDEST PUSH2 0x1017 JUMP JUMPDEST STOP JUMPDEST PUSH2 0x59C PUSH1 0x4 DUP1 CALLDATASIZE SUB DUP2 ADD SWAP1 PUSH2 0x597 SWAP2 SWAP1 PUSH2 0x25E5 JUMP JUMPDEST PUSH2 0x10EE JUMP JUMPDEST PUSH1 0x40 MLOAD PUSH2 0x5A9 SWAP2 SWAP1 PUSH2 0x2E79 JUMP JUMPDEST PUSH1 0x40 MLOAD DUP1 SWAP2 SUB SWAP1 RETURN JUMPDEST PUSH2 0x5CC PUSH1 0x4 DUP1 CALLDATASIZE SUB DUP2 ADD SWAP1 PUSH2 0x5C7 SWAP2 SWAP1 PUSH2 0x25B8 JUMP JUMPDEST PUSH2 0x1182 JUMP JUMPDEST STOP JUMPDEST PUSH2 0x5E8 PUSH1 0x4 DUP1 CALLDATASIZE SUB DUP2 ADD SWAP1 PUSH2 0x5E3 SWAP2 SWAP1 PUSH2 0x25B8 JUMP JUMPDEST PUSH2 0x127A JUMP JUMPDEST PUSH1 0x40 MLOAD PUSH2 0x5F5 SWAP2 SWAP1 PUSH2 0x2E79 JUMP JUMPDEST PUSH1 0x40 MLOAD DUP1 SWAP2 SUB SWAP1 RETURN JUMPDEST PUSH2 0x618 PUSH1 0x4 DUP1 CALLDATASIZE SUB DUP2 ADD SWAP1 PUSH2 0x613 SWAP2 SWAP1 PUSH2 0x27D5 JUMP JUMPDEST PUSH2 0x129A JUMP JUMPDEST PUSH1 0x40 MLOAD PUSH2 0x625 SWAP2 SWAP1 PUSH2 0x30F6 JUMP JUMPDEST PUSH1 0x40 MLOAD DUP1 SWAP2 SUB SWAP1 RETURN JUMPDEST PUSH1 0x0 PUSH32 0x780E9D6300000000000000000000000000000000000000000000000000000000 PUSH28 0xFFFFFFFFFFFFFFFFFFFFFFFFFFFFFFFFFFFFFFFFFFFFFFFFFFFFFFFF NOT AND DUP3 PUSH28 0xFFFFFFFFFFFFFFFFFFFFFFFFFFFFFFFFFFFFFFFFFFFFFFFFFFFFFFFF NOT AND EQ DUP1 PUSH2 0x6A1 JUMPI POP PUSH2 0x6A0 DUP3 PUSH2 0x12B8 JUMP JUMPDEST JUMPDEST SWAP1 POP SWAP2 SWAP1 POP JUMP JUMPDEST PUSH1 0xB DUP1 SLOAD PUSH2 0x6B5 SWAP1 PUSH2 0x3394 JUMP JUMPDEST DUP1 PUSH1 0x1F ADD PUSH1 0x20 DUP1 SWAP2 DIV MUL PUSH1 0x20 ADD PUSH1 0x40 MLOAD SWAP1 DUP2 ADD PUSH1 0x40 MSTORE DUP1 SWAP3 SWAP2 SWAP1 DUP2 DUP2 MSTORE PUSH1 0x20 ADD DUP3 DUP1 SLOAD PUSH2 0x6E1 SWAP1 PUSH2 0x3394 JUMP JUMPDEST DUP1 ISZERO PUSH2 0x72E JUMPI DUP1 PUSH1 0x1F LT PUSH2 0x703 JUMPI PUSH2 0x100 DUP1 DUP4 SLOAD DIV MUL DUP4 MSTORE SWAP2 PUSH1 0x20 ADD SWAP2 PUSH2 0x72E JUMP JUMPDEST DUP3 ADD SWAP2 SWAP1 PUSH1 0x0 MSTORE PUSH1 0x20 PUSH1 0x0 KECCAK256 SWAP1 JUMPDEST DUP2 SLOAD DUP2 MSTORE SWAP1 PUSH1 0x1 ADD SWAP1 PUSH1 0x20 ADD DUP1 DUP4 GT PUSH2 0x711 JUMPI DUP3 SWAP1 SUB PUSH1 0x1F AND DUP3 ADD SWAP2 JUMPDEST POP POP POP POP POP DUP2 JUMP JUMPDEST PUSH1 0x60 PUSH1 0x0 DUP1 SLOAD PUSH2 0x745 SWAP1 PUSH2 0x3394 JUMP JUMPDEST DUP1 PUSH1 0x1F ADD PUSH1 0x20 DUP1 SWAP2 DIV MUL PUSH1 0x20 ADD PUSH1 0x40 MLOAD SWAP1 DUP2 ADD PUSH1 0x40 MSTORE DUP1 SWAP3 SWAP2 SWAP1 DUP2 DUP2 MSTORE PUSH1 0x20 ADD DUP3 DUP1 SLOAD PUSH2 0x771 SWAP1 PUSH2 0x3394 JUMP JUMPDEST DUP1 ISZERO PUSH2 0x7BE JUMPI DUP1 PUSH1 0x1F LT PUSH2 0x793 JUMPI PUSH2 0x100 DUP1 DUP4 SLOAD DIV MUL DUP4 MSTORE SWAP2 PUSH1 0x20 ADD SWAP2 PUSH2 0x7BE JUMP JUMPDEST DUP3 ADD SWAP2 SWAP1 PUSH1 0x0 MSTORE PUSH1 0x20 PUSH1 0x0 KECCAK256 SWAP1 JUMPDEST DUP2 SLOAD DUP2 MSTORE SWAP1 PUSH1 0x1 ADD SWAP1 PUSH1 0x20 ADD DUP1 DUP4 GT PUSH2 0x7A1 JUMPI DUP3 SWAP1 SUB PUSH1 0x1F AND DUP3 ADD SWAP2 JUMPDEST POP POP POP POP POP SWAP1 POP SWAP1 JUMP JUMPDEST PUSH1 0xC SLOAD DUP2 JUMP JUMPDEST PUSH1 0x4 DUP2 JUMP JUMPDEST PUSH1 0x0 PUSH2 0x7DE DUP3 PUSH2 0x139A JUMP JUMPDEST PUSH2 0x81D JUMPI PUSH1 0x40 MLOAD PUSH32 0x8C379A000000000000000000000000000000000000000000000000000000000 DUP2 MSTORE PUSH1 0x4 ADD PUSH2 0x814 SWAP1 PUSH2 0x3056 JUMP JUMPDEST PUSH1 0x40 MLOAD DUP1 SWAP2 SUB SWAP1 REVERT JUMPDEST PUSH1 0x4 PUSH1 0x0 DUP4 DUP2 MSTORE PUSH1 0x20 ADD SWAP1 DUP2 MSTORE PUSH1 0x20 ADD PUSH1 0x0 KECCAK256 PUSH1 0x0 SWAP1 SLOAD SWAP1 PUSH2 0x100 EXP SWAP1 DIV PUSH20 0xFFFFFFFFFFFFFFFFFFFFFFFFFFFFFFFFFFFFFFFF AND SWAP1 POP SWAP2 SWAP1 POP JUMP JUMPDEST PUSH1 0x0 PUSH2 0x863 DUP3 PUSH2 0xBC4 JUMP JUMPDEST SWAP1 POP DUP1 PUSH20 0xFFFFFFFFFFFFFFFFFFFFFFFFFFFFFFFFFFFFFFFF AND DUP4 PUSH20 0xFFFFFFFFFFFFFFFFFFFFFFFFFFFFFFFFFFFFFFFF AND EQ ISZERO PUSH2 0x8D4 JUMPI PUSH1 0x40 MLOAD PUSH32 0x8C379A000000000000000000000000000000000000000000000000000000000 DUP2 MSTORE PUSH1 0x4 ADD PUSH2 0x8CB SWAP1 PUSH2 0x3096 JUMP JUMPDEST PUSH1 0x40 MLOAD DUP1 SWAP2 SUB SWAP1 REVERT JUMPDEST DUP1 PUSH20 0xFFFFFFFFFFFFFFFFFFFFFFFFFFFFFFFFFFFFFFFF AND PUSH2 0x8F3 PUSH2 0x1406 JUMP JUMPDEST PUSH20 0xFFFFFFFFFFFFFFFFFFFFFFFFFFFFFFFFFFFFFFFF AND EQ DUP1 PUSH2 0x922 JUMPI POP PUSH2 0x921 DUP2 PUSH2 0x91C PUSH2 0x1406 JUMP JUMPDEST PUSH2 0x10EE JUMP JUMPDEST JUMPDEST PUSH2 0x961 JUMPI PUSH1 0x40 MLOAD PUSH32 0x8C379A000000000000000000000000000000000000000000000000000000000 DUP2 MSTORE PUSH1 0x4 ADD PUSH2 0x958 SWAP1 PUSH2 0x2FB6 JUMP JUMPDEST PUSH1 0x40 MLOAD DUP1 SWAP2 SUB SWAP1 REVERT JUMPDEST PUSH2 0x96B DUP4 DUP4 PUSH2 0x140E JUMP JUMPDEST POP POP POP JUMP JUMPDEST PUSH1 0x0 PUSH1 0x8 DUP1 SLOAD SWAP1 POP SWAP1 POP SWAP1 JUMP JUMPDEST PUSH2 0x98E PUSH2 0x988 PUSH2 0x1406 JUMP JUMPDEST DUP3 PUSH2 0x14C7 JUMP JUMPDEST PUSH2 0x9CD JUMPI PUSH1 0x40 MLOAD PUSH32 0x8C379A000000000000000000000000000000000000000000000000000000000 DUP2 MSTORE PUSH1 0x4 ADD PUSH2 0x9C4 SWAP1 PUSH2 0x30B6 JUMP JUMPDEST PUSH1 0x40 MLOAD DUP1 SWAP2 SUB SWAP1 REVERT JUMPDEST PUSH2 0x9D8 DUP4 DUP4 DUP4 PUSH2 0x15A5 JUMP JUMPDEST POP POP POP JUMP JUMPDEST PUSH1 0x0 PUSH2 0x9E8 DUP4 PUSH2 0xC7B JUMP JUMPDEST DUP3 LT PUSH2 0xA29 JUMPI PUSH1 0x40 MLOAD PUSH32 0x8C379A000000000000000000000000000000000000000000000000000000000 DUP2 MSTORE PUSH1 0x4 ADD PUSH2 0xA20 SWAP1 PUSH2 0x2EB6 JUMP JUMPDEST PUSH1 0x40 MLOAD DUP1 SWAP2 SUB SWAP1 REVERT JUMPDEST PUSH1 0x6 PUSH1 0x0 DUP5 PUSH20 0xFFFFFFFFFFFFFFFFFFFFFFFFFFFFFFFFFFFFFFFF AND PUSH20 0xFFFFFFFFFFFFFFFFFFFFFFFFFFFFFFFFFFFFFFFF AND DUP2 MSTORE PUSH1 0x20 ADD SWAP1 DUP2 MSTORE PUSH1 0x20 ADD PUSH1 0x0 KECCAK256 PUSH1 0x0 DUP4 DUP2 MSTORE PUSH1 0x20 ADD SWAP1 DUP2 MSTORE PUSH1 0x20 ADD PUSH1 0x0 KECCAK256 SLOAD SWAP1 POP SWAP3 SWAP2 POP POP JUMP JUMPDEST PUSH2 0xA8A PUSH2 0x247D JUMP JUMPDEST PUSH1 0xF PUSH1 0x4 DUP1 PUSH1 0x20 MUL PUSH1 0x40 MLOAD SWAP1 DUP2 ADD PUSH1 0x40 MSTORE DUP1 SWAP3 SWAP2 SWAP1 PUSH1 0x0 SWAP1 JUMPDEST DUP3 DUP3 LT ISZERO PUSH2 0xAFC JUMPI DUP4 DUP3 PUSH1 0x4 MUL ADD PUSH1 0x4 DUP1 PUSH1 0x20 MUL PUSH1 0x40 MLOAD SWAP1 DUP2 ADD PUSH1 0x40 MSTORE DUP1 SWAP3 SWAP2 SWAP1 DUP3 PUSH1 0x4 DUP1 ISZERO PUSH2 0xAE8 JUMPI PUSH1 0x20 MUL DUP3 ADD SWAP2 JUMPDEST DUP2 SLOAD DUP2 MSTORE PUSH1 0x20 ADD SWAP1 PUSH1 0x1 ADD SWAP1 DUP1 DUP4 GT PUSH2 0xAD4 JUMPI JUMPDEST POP POP POP POP POP DUP2 MSTORE PUSH1 0x20 ADD SWAP1 PUSH1 0x1 ADD SWAP1 PUSH2 0xAA3 JUMP JUMPDEST POP POP POP POP SWAP1 POP SWAP1 JUMP JUMPDEST PUSH1 0xF DUP3 PUSH1 0x4 DUP2 LT PUSH2 0xB15 JUMPI PUSH1 0x0 DUP1 REVERT JUMPDEST PUSH1 0x4 MUL ADD DUP2 PUSH1 0x4 DUP2 LT PUSH2 0xB27 JUMPI PUSH1 0x0 DUP1 REVERT JUMPDEST ADD PUSH1 0x0 SWAP2 POP SWAP2 POP POP SLOAD DUP2 JUMP JUMPDEST PUSH2 0xB4E DUP4 DUP4 DUP4 PUSH1 0x40 MLOAD DUP1 PUSH1 0x20 ADD PUSH1 0x40 MSTORE DUP1 PUSH1 0x0 DUP2 MSTORE POP PUSH2 0xEAD JUMP JUMPDEST POP POP POP JUMP JUMPDEST PUSH1 0x0 PUSH2 0xB5D PUSH2 0x970 JUMP JUMPDEST DUP3 LT PUSH2 0xB9E JUMPI PUSH1 0x40 MLOAD PUSH32 0x8C379A000000000000000000000000000000000000000000000000000000000 DUP2 MSTORE PUSH1 0x4 ADD PUSH2 0xB95 SWAP1 PUSH2 0x30D6 JUMP JUMPDEST PUSH1 0x40 MLOAD DUP1 SWAP2 SUB SWAP1 REVERT JUMPDEST PUSH1 0x8 DUP3 DUP2 SLOAD DUP2 LT PUSH2 0xBB2 JUMPI PUSH2 0xBB1 PUSH2 0x3565 JUMP JUMPDEST JUMPDEST SWAP1 PUSH1 0x0 MSTORE PUSH1 0x20 PUSH1 0x0 KECCAK256 ADD SLOAD SWAP1 POP SWAP2 SWAP1 POP JUMP JUMPDEST PUSH1 0x0 DUP1 PUSH1 0x2 PUSH1 0x0 DUP5 DUP2 MSTORE PUSH1 0x20 ADD SWAP1 DUP2 MSTORE PUSH1 0x20 ADD PUSH1 0x0 KECCAK256 PUSH1 0x0 SWAP1 SLOAD SWAP1 PUSH2 0x100 EXP SWAP1 DIV PUSH20 0xFFFFFFFFFFFFFFFFFFFFFFFFFFFFFFFFFFFFFFFF AND SWAP1 POP PUSH1 0x0 PUSH20 0xFFFFFFFFFFFFFFFFFFFFFFFFFFFFFFFFFFFFFFFF AND DUP2 PUSH20 0xFFFFFFFFFFFFFFFFFFFFFFFFFFFFFFFFFFFFFFFF AND EQ ISZERO PUSH2 0xC6D JUMPI PUSH1 0x40 MLOAD PUSH32 0x8C379A000000000000000000000000000000000000000000000000000000000 DUP2 MSTORE PUSH1 0x4 ADD PUSH2 0xC64 SWAP1 PUSH2 0x2FF6 JUMP JUMPDEST PUSH1 0x40 MLOAD DUP1 SWAP2 SUB SWAP1 REVERT JUMPDEST DUP1 SWAP2 POP POP SWAP2 SWAP1 POP JUMP JUMPDEST PUSH1 0x4 DUP2 JUMP JUMPDEST PUSH1 0x0 DUP1 PUSH20 0xFFFFFFFFFFFFFFFFFFFFFFFFFFFFFFFFFFFFFFFF AND DUP3 PUSH20 0xFFFFFFFFFFFFFFFFFFFFFFFFFFFFFFFFFFFFFFFF AND EQ ISZERO PUSH2 0xCEC JUMPI PUSH1 0x40 MLOAD PUSH32 0x8C379A000000000000000000000000000000000000000000000000000000000 DUP2 MSTORE PUSH1 0x4 ADD PUSH2 0xCE3 SWAP1 PUSH2 0x2FD6 JUMP JUMPDEST PUSH1 0x40 MLOAD DUP1 SWAP2 SUB SWAP1 REVERT JUMPDEST PUSH1 0x3 PUSH1 0x0 DUP4 PUSH20 0xFFFFFFFFFFFFFFFFFFFFFFFFFFFFFFFFFFFFFFFF AND PUSH20 0xFFFFFFFFFFFFFFFFFFFFFFFFFFFFFFFFFFFFFFFF AND DUP2 MSTORE PUSH1 0x20 ADD SWAP1 DUP2 MSTORE PUSH1 0x20 ADD PUSH1 0x0 KECCAK256 SLOAD SWAP1 POP SWAP2 SWAP1 POP JUMP JUMPDEST PUSH2 0xD3B PUSH2 0x1406 JUMP JUMPDEST PUSH20 0xFFFFFFFFFFFFFFFFFFFFFFFFFFFFFFFFFFFFFFFF AND PUSH2 0xD59 PUSH2 0xDBB JUMP JUMPDEST PUSH20 0xFFFFFFFFFFFFFFFFFFFFFFFFFFFFFFFFFFFFFFFF AND EQ PUSH2 0xDAF JUMPI PUSH1 0x40 MLOAD PUSH32 0x8C379A000000000000000000000000000000000000000000000000000000000 DUP2 MSTORE PUSH1 0x4 ADD PUSH2 0xDA6 SWAP1 PUSH2 0x3076 JUMP JUMPDEST PUSH1 0x40 MLOAD DUP1 SWAP2 SUB SWAP1 REVERT JUMPDEST PUSH2 0xDB9 PUSH1 0x0 PUSH2 0x180C JUMP JUMPDEST JUMP JUMPDEST PUSH1 0x0 PUSH1 0xA PUSH1 0x0 SWAP1 SLOAD SWAP1 PUSH2 0x100 EXP SWAP1 DIV PUSH20 0xFFFFFFFFFFFFFFFFFFFFFFFFFFFFFFFFFFFFFFFF AND SWAP1 POP SWAP1 JUMP JUMPDEST PUSH1 0x60 PUSH1 0x1 DUP1 SLOAD PUSH2 0xDF4 SWAP1 PUSH2 0x3394 JUMP JUMPDEST DUP1 PUSH1 0x1F ADD PUSH1 0x20 DUP1 SWAP2 DIV MUL PUSH1 0x20 ADD PUSH1 0x40 MLOAD SWAP1 DUP2 ADD PUSH1 0x40 MSTORE DUP1 SWAP3 SWAP2 SWAP1 DUP2 DUP2 MSTORE PUSH1 0x20 ADD DUP3 DUP1 SLOAD PUSH2 0xE20 SWAP1 PUSH2 0x3394 JUMP JUMPDEST DUP1 ISZERO PUSH2 0xE6D JUMPI DUP1 PUSH1 0x1F LT PUSH2 0xE42 JUMPI PUSH2 0x100 DUP1 DUP4 SLOAD DIV MUL DUP4 MSTORE SWAP2 PUSH1 0x20 ADD SWAP2 PUSH2 0xE6D JUMP JUMPDEST DUP3 ADD SWAP2 SWAP1 PUSH1 0x0 MSTORE PUSH1 0x20 PUSH1 0x0 KECCAK256 SWAP1 JUMPDEST DUP2 SLOAD DUP2 MSTORE SWAP1 PUSH1 0x1 ADD SWAP1 PUSH1 0x20 ADD DUP1 DUP4 GT PUSH2 0xE50 JUMPI DUP3 SWAP1 SUB PUSH1 0x1F AND DUP3 ADD SWAP2 JUMPDEST POP POP POP POP POP SWAP1 POP SWAP1 JUMP JUMPDEST PUSH2 0xE89 PUSH2 0xE82 PUSH2 0x1406 JUMP JUMPDEST DUP4 DUP4 PUSH2 0x18D2 JUMP JUMPDEST POP POP JUMP JUMPDEST PUSH1 0x0 PUSH1 0xD PUSH1 0x0 DUP4 DUP2 MSTORE PUSH1 0x20 ADD SWAP1 DUP2 MSTORE PUSH1 0x20 ADD PUSH1 0x0 KECCAK256 PUSH1 0x0 ADD SLOAD SWAP1 POP SWAP2 SWAP1 POP JUMP JUMPDEST PUSH2 0xEBE PUSH2 0xEB8 PUSH2 0x1406 JUMP JUMPDEST DUP4 PUSH2 0x14C7 JUMP JUMPDEST PUSH2 0xEFD JUMPI PUSH1 0x40 MLOAD PUSH32 0x8C379A000000000000000000000000000000000000000000000000000000000 DUP2 MSTORE PUSH1 0x4 ADD PUSH2 0xEF4 SWAP1 PUSH2 0x30B6 JUMP JUMPDEST PUSH1 0x40 MLOAD DUP1 SWAP2 SUB SWAP1 REVERT JUMPDEST PUSH2 0xF09 DUP5 DUP5 DUP5 DUP5 PUSH2 0x1A3F JUMP JUMPDEST POP POP POP POP JUMP JUMPDEST PUSH1 0x60 PUSH1 0x0 PUSH2 0xF32 PUSH1 0xD PUSH1 0x0 DUP6 DUP2 MSTORE PUSH1 0x20 ADD SWAP1 DUP2 MSTORE PUSH1 0x20 ADD PUSH1 0x0 KECCAK256 PUSH1 0x0 ADD SLOAD PUSH2 0x1A9B JUMP JUMPDEST SWAP1 POP PUSH1 0xB DUP2 PUSH1 0x40 MLOAD PUSH1 0x20 ADD PUSH2 0xF48 SWAP3 SWAP2 SWAP1 PUSH2 0x2DBC JUMP JUMPDEST PUSH1 0x40 MLOAD PUSH1 0x20 DUP2 DUP4 SUB SUB DUP2 MSTORE SWAP1 PUSH1 0x40 MSTORE SWAP2 POP POP SWAP2 SWAP1 POP JUMP JUMPDEST PUSH2 0x3E8 DUP2 JUMP JUMPDEST PUSH2 0xF6D PUSH2 0x970 JUMP JUMPDEST PUSH2 0x3E8 GT PUSH2 0xFB0 JUMPI PUSH1 0x40 MLOAD PUSH32 0x8C379A000000000000000000000000000000000000000000000000000000000 DUP2 MSTORE PUSH1 0x4 ADD PUSH2 0xFA7 SWAP1 PUSH2 0x3036 JUMP JUMPDEST PUSH1 0x40 MLOAD DUP1 SWAP2 SUB SWAP1 REVERT JUMPDEST PUSH1 0x0 PUSH1 0x1 PUSH2 0xFBC PUSH2 0x970 JUMP JUMPDEST PUSH2 0xFC6 SWAP2 SWAP1 PUSH2 0x3219 JUMP JUMPDEST SWAP1 POP PUSH1 0x0 PUSH2 0xFD4 CALLER DUP4 PUSH2 0x1BFC JUMP JUMPDEST SWAP1 POP PUSH1 0x40 MLOAD DUP1 PUSH1 0x20 ADD PUSH1 0x40 MSTORE DUP1 DUP3 PUSH1 0x0 ADD MLOAD DUP2 MSTORE POP PUSH1 0xD PUSH1 0x0 DUP5 DUP2 MSTORE PUSH1 0x20 ADD SWAP1 DUP2 MSTORE PUSH1 0x20 ADD PUSH1 0x0 KECCAK256 PUSH1 0x0 DUP3 ADD MLOAD DUP2 PUSH1 0x0 ADD SSTORE SWAP1 POP POP PUSH2 0x1013 CALLER DUP4 PUSH2 0x1C5B JUMP JUMPDEST POP POP JUMP JUMPDEST PUSH2 0x101F PUSH2 0x1406 JUMP JUMPDEST PUSH20 0xFFFFFFFFFFFFFFFFFFFFFFFFFFFFFFFFFFFFFFFF AND PUSH2 0x103D PUSH2 0xDBB JUMP JUMPDEST PUSH20 0xFFFFFFFFFFFFFFFFFFFFFFFFFFFFFFFFFFFFFFFF AND EQ PUSH2 0x1093 JUMPI PUSH1 0x40 MLOAD PUSH32 0x8C379A000000000000000000000000000000000000000000000000000000000 DUP2 MSTORE PUSH1 0x4 ADD PUSH2 0x108A SWAP1 PUSH2 0x3076 JUMP JUMPDEST PUSH1 0x40 MLOAD DUP1 SWAP2 SUB SWAP1 REVERT JUMPDEST PUSH1 0x1 PUSH1 0xE PUSH1 0x0 DUP4 PUSH20 0xFFFFFFFFFFFFFFFFFFFFFFFFFFFFFFFFFFFFFFFF AND PUSH20 0xFFFFFFFFFFFFFFFFFFFFFFFFFFFFFFFFFFFFFFFF AND DUP2 MSTORE PUSH1 0x20 ADD SWAP1 DUP2 MSTORE PUSH1 0x20 ADD PUSH1 0x0 KECCAK256 PUSH1 0x0 PUSH2 0x100 EXP DUP2 SLOAD DUP2 PUSH1 0xFF MUL NOT AND SWAP1 DUP4 ISZERO ISZERO MUL OR SWAP1 SSTORE POP POP JUMP JUMPDEST PUSH1 0x0 PUSH1 0x5 PUSH1 0x0 DUP5 PUSH20 0xFFFFFFFFFFFFFFFFFFFFFFFFFFFFFFFFFFFFFFFF AND PUSH20 0xFFFFFFFFFFFFFFFFFFFFFFFFFFFFFFFFFFFFFFFF AND DUP2 MSTORE PUSH1 0x20 ADD SWAP1 DUP2 MSTORE PUSH1 0x20 ADD PUSH1 0x0 KECCAK256 PUSH1 0x0 DUP4 PUSH20 0xFFFFFFFFFFFFFFFFFFFFFFFFFFFFFFFFFFFFFFFF AND PUSH20 0xFFFFFFFFFFFFFFFFFFFFFFFFFFFFFFFFFFFFFFFF AND DUP2 MSTORE PUSH1 0x20 ADD SWAP1 DUP2 MSTORE PUSH1 0x20 ADD PUSH1 0x0 KECCAK256 PUSH1 0x0 SWAP1 SLOAD SWAP1 PUSH2 0x100 EXP SWAP1 DIV PUSH1 0xFF AND SWAP1 POP SWAP3 SWAP2 POP POP JUMP JUMPDEST PUSH2 0x118A PUSH2 0x1406 JUMP JUMPDEST PUSH20 0xFFFFFFFFFFFFFFFFFFFFFFFFFFFFFFFFFFFFFFFF AND PUSH2 0x11A8 PUSH2 0xDBB JUMP JUMPDEST PUSH20 0xFFFFFFFFFFFFFFFFFFFFFFFFFFFFFFFFFFFFFFFF AND EQ PUSH2 0x11FE JUMPI PUSH1 0x40 MLOAD PUSH32 0x8C379A000000000000000000000000000000000000000000000000000000000 DUP2 MSTORE PUSH1 0x4 ADD PUSH2 0x11F5 SWAP1 PUSH2 0x3076 JUMP JUMPDEST PUSH1 0x40 MLOAD DUP1 SWAP2 SUB SWAP1 REVERT JUMPDEST PUSH1 0x0 PUSH20 0xFFFFFFFFFFFFFFFFFFFFFFFFFFFFFFFFFFFFFFFF AND DUP2 PUSH20 0xFFFFFFFFFFFFFFFFFFFFFFFFFFFFFFFFFFFFFFFF AND EQ ISZERO PUSH2 0x126E JUMPI PUSH1 0x40 MLOAD PUSH32 0x8C379A000000000000000000000000000000000000000000000000000000000 DUP2 MSTORE PUSH1 0x4 ADD PUSH2 0x1265 SWAP1 PUSH2 0x2EF6 JUMP JUMPDEST PUSH1 0x40 MLOAD DUP1 SWAP2 SUB SWAP1 REVERT JUMPDEST PUSH2 0x1277 DUP2 PUSH2 0x180C JUMP JUMPDEST POP JUMP JUMPDEST PUSH1 0xE PUSH1 0x20 MSTORE DUP1 PUSH1 0x0 MSTORE PUSH1 0x40 PUSH1 0x0 KECCAK256 PUSH1 0x0 SWAP2 POP SLOAD SWAP1 PUSH2 0x100 EXP SWAP1 DIV PUSH1 0xFF AND DUP2 JUMP JUMPDEST PUSH1 0xD PUSH1 0x20 MSTORE DUP1 PUSH1 0x0 MSTORE PUSH1 0x40 PUSH1 0x0 KECCAK256 PUSH1 0x0 SWAP2 POP SWAP1 POP DUP1 PUSH1 0x0 ADD SLOAD SWAP1 POP DUP2 JUMP JUMPDEST PUSH1 0x0 PUSH32 0x80AC58CD00000000000000000000000000000000000000000000000000000000 PUSH28 0xFFFFFFFFFFFFFFFFFFFFFFFFFFFFFFFFFFFFFFFFFFFFFFFFFFFFFFFF NOT AND DUP3 PUSH28 0xFFFFFFFFFFFFFFFFFFFFFFFFFFFFFFFFFFFFFFFFFFFFFFFFFFFFFFFF NOT AND EQ DUP1 PUSH2 0x1383 JUMPI POP PUSH32 0x5B5E139F00000000000000000000000000000000000000000000000000000000 PUSH28 0xFFFFFFFFFFFFFFFFFFFFFFFFFFFFFFFFFFFFFFFFFFFFFFFFFFFFFFFF NOT AND DUP3 PUSH28 0xFFFFFFFFFFFFFFFFFFFFFFFFFFFFFFFFFFFFFFFFFFFFFFFFFFFFFFFF NOT AND EQ JUMPDEST DUP1 PUSH2 0x1393 JUMPI POP PUSH2 0x1392 DUP3 PUSH2 0x1E35 JUMP JUMPDEST JUMPDEST SWAP1 POP SWAP2 SWAP1 POP JUMP JUMPDEST PUSH1 0x0 DUP1 PUSH20 0xFFFFFFFFFFFFFFFFFFFFFFFFFFFFFFFFFFFFFFFF AND PUSH1 0x2 PUSH1 0x0 DUP5 DUP2 MSTORE PUSH1 0x20 ADD SWAP1 DUP2 MSTORE PUSH1 0x20 ADD PUSH1 0x0 KECCAK256 PUSH1 0x0 SWAP1 SLOAD SWAP1 PUSH2 0x100 EXP SWAP1 DIV PUSH20 0xFFFFFFFFFFFFFFFFFFFFFFFFFFFFFFFFFFFFFFFF AND PUSH20 0xFFFFFFFFFFFFFFFFFFFFFFFFFFFFFFFFFFFFFFFF AND EQ ISZERO SWAP1 POP SWAP2 SWAP1 POP JUMP JUMPDEST PUSH1 0x0 CALLER SWAP1 POP SWAP1 JUMP JUMPDEST DUP2 PUSH1 0x4 PUSH1 0x0 DUP4 DUP2 MSTORE PUSH1 0x20 ADD SWAP1 DUP2 MSTORE PUSH1 0x20 ADD PUSH1 0x0 KECCAK256 PUSH1 0x0 PUSH2 0x100 EXP DUP2 SLOAD DUP2 PUSH20 0xFFFFFFFFFFFFFFFFFFFFFFFFFFFFFFFFFFFFFFFF MUL NOT AND SWAP1 DUP4 PUSH20 0xFFFFFFFFFFFFFFFFFFFFFFFFFFFFFFFFFFFFFFFF AND MUL OR SWAP1 SSTORE POP DUP1 DUP3 PUSH20 0xFFFFFFFFFFFFFFFFFFFFFFFFFFFFFFFFFFFFFFFF AND PUSH2 0x1481 DUP4 PUSH2 0xBC4 JUMP JUMPDEST PUSH20 0xFFFFFFFFFFFFFFFFFFFFFFFFFFFFFFFFFFFFFFFF AND PUSH32 0x8C5BE1E5EBEC7D5BD14F71427D1E84F3DD0314C0F7B2291E5B200AC8C7C3B925 PUSH1 0x40 MLOAD PUSH1 0x40 MLOAD DUP1 SWAP2 SUB SWAP1 LOG4 POP POP JUMP JUMPDEST PUSH1 0x0 PUSH2 0x14D2 DUP3 PUSH2 0x139A JUMP JUMPDEST PUSH2 0x1511 JUMPI PUSH1 0x40 MLOAD PUSH32 0x8C379A000000000000000000000000000000000000000000000000000000000 DUP2 MSTORE PUSH1 0x4 ADD PUSH2 0x1508 SWAP1 PUSH2 0x2F96 JUMP JUMPDEST PUSH1 0x40 MLOAD DUP1 SWAP2 SUB SWAP1 REVERT JUMPDEST PUSH1 0x0 PUSH2 0x151C DUP4 PUSH2 0xBC4 JUMP JUMPDEST SWAP1 POP DUP1 PUSH20 0xFFFFFFFFFFFFFFFFFFFFFFFFFFFFFFFFFFFFFFFF AND DUP5 PUSH20 0xFFFFFFFFFFFFFFFFFFFFFFFFFFFFFFFFFFFFFFFF AND EQ DUP1 PUSH2 0x155E JUMPI POP PUSH2 0x155D DUP2 DUP6 PUSH2 0x10EE JUMP JUMPDEST JUMPDEST DUP1 PUSH2 0x159C JUMPI POP DUP4 PUSH20 0xFFFFFFFFFFFFFFFFFFFFFFFFFFFFFFFFFFFFFFFF AND PUSH2 0x1584 DUP5 PUSH2 0x7D3 JUMP JUMPDEST PUSH20 0xFFFFFFFFFFFFFFFFFFFFFFFFFFFFFFFFFFFFFFFF AND EQ JUMPDEST SWAP2 POP POP SWAP3 SWAP2 POP POP JUMP JUMPDEST DUP3 PUSH20 0xFFFFFFFFFFFFFFFFFFFFFFFFFFFFFFFFFFFFFFFF AND PUSH2 0x15C5 DUP3 PUSH2 0xBC4 JUMP JUMPDEST PUSH20 0xFFFFFFFFFFFFFFFFFFFFFFFFFFFFFFFFFFFFFFFF AND EQ PUSH2 0x161B JUMPI PUSH1 0x40 MLOAD PUSH32 0x8C379A000000000000000000000000000000000000000000000000000000000 DUP2 MSTORE PUSH1 0x4 ADD PUSH2 0x1612 SWAP1 PUSH2 0x2F16 JUMP JUMPDEST PUSH1 0x40 MLOAD DUP1 SWAP2 SUB SWAP1 REVERT JUMPDEST PUSH1 0x0 PUSH20 0xFFFFFFFFFFFFFFFFFFFFFFFFFFFFFFFFFFFFFFFF AND DUP3 PUSH20 0xFFFFFFFFFFFFFFFFFFFFFFFFFFFFFFFFFFFFFFFF AND EQ ISZERO PUSH2 0x168B JUMPI PUSH1 0x40 MLOAD PUSH32 0x8C379A000000000000000000000000000000000000000000000000000000000 DUP2 MSTORE PUSH1 0x4 ADD PUSH2 0x1682 SWAP1 PUSH2 0x2F56 JUMP JUMPDEST PUSH1 0x40 MLOAD DUP1 SWAP2 SUB SWAP1 REVERT JUMPDEST PUSH2 0x1696 DUP4 DUP4 DUP4 PUSH2 0x1E9F JUMP JUMPDEST PUSH2 0x16A1 PUSH1 0x0 DUP3 PUSH2 0x140E JUMP JUMPDEST PUSH1 0x1 PUSH1 0x3 PUSH1 0x0 DUP6 PUSH20 0xFFFFFFFFFFFFFFFFFFFFFFFFFFFFFFFFFFFFFFFF AND PUSH20 0xFFFFFFFFFFFFFFFFFFFFFFFFFFFFFFFFFFFFFFFF AND DUP2 MSTORE PUSH1 0x20 ADD SWAP1 DUP2 MSTORE PUSH1 0x20 ADD PUSH1 0x0 KECCAK256 PUSH1 0x0 DUP3 DUP3 SLOAD PUSH2 0x16F1 SWAP2 SWAP1 PUSH2 0x32A0 JUMP JUMPDEST SWAP3 POP POP DUP2 SWAP1 SSTORE POP PUSH1 0x1 PUSH1 0x3 PUSH1 0x0 DUP5 PUSH20 0xFFFFFFFFFFFFFFFFFFFFFFFFFFFFFFFFFFFFFFFF AND PUSH20 0xFFFFFFFFFFFFFFFFFFFFFFFFFFFFFFFFFFFFFFFF AND DUP2 MSTORE PUSH1 0x20 ADD SWAP1 DUP2 MSTORE PUSH1 0x20 ADD PUSH1 0x0 KECCAK256 PUSH1 0x0 DUP3 DUP3 SLOAD PUSH2 0x1748 SWAP2 SWAP1 PUSH2 0x3219 JUMP JUMPDEST SWAP3 POP POP DUP2 SWAP1 SSTORE POP DUP2 PUSH1 0x2 PUSH1 0x0 DUP4 DUP2 MSTORE PUSH1 0x20 ADD SWAP1 DUP2 MSTORE PUSH1 0x20 ADD PUSH1 0x0 KECCAK256 PUSH1 0x0 PUSH2 0x100 EXP DUP2 SLOAD DUP2 PUSH20 0xFFFFFFFFFFFFFFFFFFFFFFFFFFFFFFFFFFFFFFFF MUL NOT AND SWAP1 DUP4 PUSH20 0xFFFFFFFFFFFFFFFFFFFFFFFFFFFFFFFFFFFFFFFF AND MUL OR SWAP1 SSTORE POP DUP1 DUP3 PUSH20 0xFFFFFFFFFFFFFFFFFFFFFFFFFFFFFFFFFFFFFFFF AND DUP5 PUSH20 0xFFFFFFFFFFFFFFFFFFFFFFFFFFFFFFFFFFFFFFFF AND PUSH32 0xDDF252AD1BE2C89B69C2B068FC378DAA952BA7F163C4A11628F55A4DF523B3EF PUSH1 0x40 MLOAD PUSH1 0x40 MLOAD DUP1 SWAP2 SUB SWAP1 LOG4 PUSH2 0x1807 DUP4 DUP4 DUP4 PUSH2 0x1FB3 JUMP JUMPDEST POP POP POP JUMP JUMPDEST PUSH1 0x0 PUSH1 0xA PUSH1 0x0 SWAP1 SLOAD SWAP1 PUSH2 0x100 EXP SWAP1 DIV PUSH20 0xFFFFFFFFFFFFFFFFFFFFFFFFFFFFFFFFFFFFFFFF AND SWAP1 POP DUP2 PUSH1 0xA PUSH1 0x0 PUSH2 0x100 EXP DUP2 SLOAD DUP2 PUSH20 0xFFFFFFFFFFFFFFFFFFFFFFFFFFFFFFFFFFFFFFFF MUL NOT AND SWAP1 DUP4 PUSH20 0xFFFFFFFFFFFFFFFFFFFFFFFFFFFFFFFFFFFFFFFF AND MUL OR SWAP1 SSTORE POP DUP2 PUSH20 0xFFFFFFFFFFFFFFFFFFFFFFFFFFFFFFFFFFFFFFFF AND DUP2 PUSH20 0xFFFFFFFFFFFFFFFFFFFFFFFFFFFFFFFFFFFFFFFF AND PUSH32 0x8BE0079C531659141344CD1FD0A4F28419497F9722A3DAAFE3B4186F6B6457E0 PUSH1 0x40 MLOAD PUSH1 0x40 MLOAD DUP1 SWAP2 SUB SWAP1 LOG3 POP POP JUMP JUMPDEST DUP2 PUSH20 0xFFFFFFFFFFFFFFFFFFFFFFFFFFFFFFFFFFFFFFFF AND DUP4 PUSH20 0xFFFFFFFFFFFFFFFFFFFFFFFFFFFFFFFFFFFFFFFF AND EQ ISZERO PUSH2 0x1941 JUMPI PUSH1 0x40 MLOAD PUSH32 0x8C379A000000000000000000000000000000000000000000000000000000000 DUP2 MSTORE PUSH1 0x4 ADD PUSH2 0x1938 SWAP1 PUSH2 0x2F76 JUMP JUMPDEST PUSH1 0x40 MLOAD DUP1 SWAP2 SUB SWAP1 REVERT JUMPDEST DUP1 PUSH1 0x5 PUSH1 0x0 DUP6 PUSH20 0xFFFFFFFFFFFFFFFFFFFFFFFFFFFFFFFFFFFFFFFF AND PUSH20 0xFFFFFFFFFFFFFFFFFFFFFFFFFFFFFFFFFFFFFFFF AND DUP2 MSTORE PUSH1 0x20 ADD SWAP1 DUP2 MSTORE PUSH1 0x20 ADD PUSH1 0x0 KECCAK256 PUSH1 0x0 DUP5 PUSH20 0xFFFFFFFFFFFFFFFFFFFFFFFFFFFFFFFFFFFFFFFF AND PUSH20 0xFFFFFFFFFFFFFFFFFFFFFFFFFFFFFFFFFFFFFFFF AND DUP2 MSTORE PUSH1 0x20 ADD SWAP1 DUP2 MSTORE PUSH1 0x20 ADD PUSH1 0x0 KECCAK256 PUSH1 0x0 PUSH2 0x100 EXP DUP2 SLOAD DUP2 PUSH1 0xFF MUL NOT AND SWAP1 DUP4 ISZERO ISZERO MUL OR SWAP1 SSTORE POP DUP2 PUSH20 0xFFFFFFFFFFFFFFFFFFFFFFFFFFFFFFFFFFFFFFFF AND DUP4 PUSH20 0xFFFFFFFFFFFFFFFFFFFFFFFFFFFFFFFFFFFFFFFF AND PUSH32 0x17307EAB39AB6107E8899845AD3D59BD9653F200F220920489CA2B5937696C31 DUP4 PUSH1 0x40 MLOAD PUSH2 0x1A32 SWAP2 SWAP1 PUSH2 0x2E79 JUMP JUMPDEST PUSH1 0x40 MLOAD DUP1 SWAP2 SUB SWAP1 LOG3 POP POP POP JUMP JUMPDEST PUSH2 0x1A4A DUP5 DUP5 DUP5 PUSH2 0x15A5 JUMP JUMPDEST PUSH2 0x1A56 DUP5 DUP5 DUP5 DUP5 PUSH2 0x1FB8 JUMP JUMPDEST PUSH2 0x1A95 JUMPI PUSH1 0x40 MLOAD PUSH32 0x8C379A000000000000000000000000000000000000000000000000000000000 DUP2 MSTORE PUSH1 0x4 ADD PUSH2 0x1A8C SWAP1 PUSH2 0x2ED6 JUMP JUMPDEST PUSH1 0x40 MLOAD DUP1 SWAP2 SUB SWAP1 REVERT JUMPDEST POP POP POP POP JUMP JUMPDEST PUSH1 0x60 PUSH1 0x0 DUP3 EQ ISZERO PUSH2 0x1AE3 JUMPI PUSH1 0x40 MLOAD DUP1 PUSH1 0x40 ADD PUSH1 0x40 MSTORE DUP1 PUSH1 0x1 DUP2 MSTORE PUSH1 0x20 ADD PUSH32 0x3000000000000000000000000000000000000000000000000000000000000000 DUP2 MSTORE POP SWAP1 POP PUSH2 0x1BF7 JUMP JUMPDEST PUSH1 0x0 DUP3 SWAP1 POP PUSH1 0x0 JUMPDEST PUSH1 0x0 DUP3 EQ PUSH2 0x1B15 JUMPI DUP1 DUP1 PUSH2 0x1AFE SWAP1 PUSH2 0x33F7 JUMP JUMPDEST SWAP2 POP POP PUSH1 0xA DUP3 PUSH2 0x1B0E SWAP2 SWAP1 PUSH2 0x326F JUMP JUMPDEST SWAP2 POP PUSH2 0x1AEB JUMP JUMPDEST PUSH1 0x0 DUP2 PUSH8 0xFFFFFFFFFFFFFFFF DUP2 GT ISZERO PUSH2 0x1B31 JUMPI PUSH2 0x1B30 PUSH2 0x3594 JUMP JUMPDEST JUMPDEST PUSH1 0x40 MLOAD SWAP1 DUP1 DUP3 MSTORE DUP1 PUSH1 0x1F ADD PUSH1 0x1F NOT AND PUSH1 0x20 ADD DUP3 ADD PUSH1 0x40 MSTORE DUP1 ISZERO PUSH2 0x1B63 JUMPI DUP2 PUSH1 0x20 ADD PUSH1 0x1 DUP3 MUL DUP1 CALLDATASIZE DUP4 CALLDATACOPY DUP1 DUP3 ADD SWAP2 POP POP SWAP1 POP JUMPDEST POP SWAP1 POP JUMPDEST PUSH1 0x0 DUP6 EQ PUSH2 0x1BF0 JUMPI PUSH1 0x1 DUP3 PUSH2 0x1B7C SWAP2 SWAP1 PUSH2 0x32A0 JUMP JUMPDEST SWAP2 POP PUSH1 0xA DUP6 PUSH2 0x1B8B SWAP2 SWAP1 PUSH2 0x3478 JUMP JUMPDEST PUSH1 0x30 PUSH2 0x1B97 SWAP2 SWAP1 PUSH2 0x3219 JUMP JUMPDEST PUSH1 0xF8 SHL DUP2 DUP4 DUP2 MLOAD DUP2 LT PUSH2 0x1BAD JUMPI PUSH2 0x1BAC PUSH2 0x3565 JUMP JUMPDEST JUMPDEST PUSH1 0x20 ADD ADD SWAP1 PUSH31 0xFFFFFFFFFFFFFFFFFFFFFFFFFFFFFFFFFFFFFFFFFFFFFFFFFFFFFFFFFFFFFF NOT AND SWAP1 DUP2 PUSH1 0x0 BYTE SWAP1 MSTORE8 POP PUSH1 0xA DUP6 PUSH2 0x1BE9 SWAP2 SWAP1 PUSH2 0x326F JUMP JUMPDEST SWAP5 POP PUSH2 0x1B67 JUMP JUMPDEST DUP1 SWAP4 POP POP POP POP JUMPDEST SWAP2 SWAP1 POP JUMP JUMPDEST PUSH2 0x1C04 PUSH2 0x24AA JUMP JUMPDEST PUSH2 0x1C0C PUSH2 0x24AA JUMP JUMPDEST PUSH2 0x3E8 TIMESTAMP BLOCKHASH DUP6 DUP6 PUSH1 0x40 MLOAD PUSH1 0x20 ADD PUSH2 0x1C25 SWAP4 SWAP3 SWAP2 SWAP1 PUSH2 0x2D7F JUMP JUMPDEST PUSH1 0x40 MLOAD PUSH1 0x20 DUP2 DUP4 SUB SUB DUP2 MSTORE SWAP1 PUSH1 0x40 MSTORE DUP1 MLOAD SWAP1 PUSH1 0x20 ADD KECCAK256 PUSH1 0x0 SHR PUSH2 0x1C48 SWAP2 SWAP1 PUSH2 0x3478 JUMP JUMPDEST DUP2 PUSH1 0x0 ADD DUP2 DUP2 MSTORE POP POP DUP1 SWAP2 POP POP SWAP3 SWAP2 POP POP JUMP JUMPDEST PUSH1 0x0 PUSH20 0xFFFFFFFFFFFFFFFFFFFFFFFFFFFFFFFFFFFFFFFF AND DUP3 PUSH20 0xFFFFFFFFFFFFFFFFFFFFFFFFFFFFFFFFFFFFFFFF AND EQ ISZERO PUSH2 0x1CCB JUMPI PUSH1 0x40 MLOAD PUSH32 0x8C379A000000000000000000000000000000000000000000000000000000000 DUP2 MSTORE PUSH1 0x4 ADD PUSH2 0x1CC2 SWAP1 PUSH2 0x3016 JUMP JUMPDEST PUSH1 0x40 MLOAD DUP1 SWAP2 SUB SWAP1 REVERT JUMPDEST PUSH2 0x1CD4 DUP2 PUSH2 0x139A JUMP JUMPDEST ISZERO PUSH2 0x1D14 JUMPI PUSH1 0x40 MLOAD PUSH32 0x8C379A000000000000000000000000000000000000000000000000000000000 DUP2 MSTORE PUSH1 0x4 ADD PUSH2 0x1D0B SWAP1 PUSH2 0x2F36 JUMP JUMPDEST PUSH1 0x40 MLOAD DUP1 SWAP2 SUB SWAP1 REVERT JUMPDEST PUSH2 0x1D20 PUSH1 0x0 DUP4 DUP4 PUSH2 0x1E9F JUMP JUMPDEST PUSH1 0x1 PUSH1 0x3 PUSH1 0x0 DUP5 PUSH20 0xFFFFFFFFFFFFFFFFFFFFFFFFFFFFFFFFFFFFFFFF AND PUSH20 0xFFFFFFFFFFFFFFFFFFFFFFFFFFFFFFFFFFFFFFFF AND DUP2 MSTORE PUSH1 0x20 ADD SWAP1 DUP2 MSTORE PUSH1 0x20 ADD PUSH1 0x0 KECCAK256 PUSH1 0x0 DUP3 DUP3 SLOAD PUSH2 0x1D70 SWAP2 SWAP1 PUSH2 0x3219 JUMP JUMPDEST SWAP3 POP POP DUP2 SWAP1 SSTORE POP DUP2 PUSH1 0x2 PUSH1 0x0 DUP4 DUP2 MSTORE PUSH1 0x20 ADD SWAP1 DUP2 MSTORE PUSH1 0x20 ADD PUSH1 0x0 KECCAK256 PUSH1 0x0 PUSH2 0x100 EXP DUP2 SLOAD DUP2 PUSH20 0xFFFFFFFFFFFFFFFFFFFFFFFFFFFFFFFFFFFFFFFF MUL NOT AND SWAP1 DUP4 PUSH20 0xFFFFFFFFFFFFFFFFFFFFFFFFFFFFFFFFFFFFFFFF AND MUL OR SWAP1 SSTORE POP DUP1 DUP3 PUSH20 0xFFFFFFFFFFFFFFFFFFFFFFFFFFFFFFFFFFFFFFFF AND PUSH1 0x0 PUSH20 0xFFFFFFFFFFFFFFFFFFFFFFFFFFFFFFFFFFFFFFFF AND PUSH32 0xDDF252AD1BE2C89B69C2B068FC378DAA952BA7F163C4A11628F55A4DF523B3EF PUSH1 0x40 MLOAD PUSH1 0x40 MLOAD DUP1 SWAP2 SUB SWAP1 LOG4 PUSH2 0x1E31 PUSH1 0x0 DUP4 DUP4 PUSH2 0x1FB3 JUMP JUMPDEST POP POP JUMP JUMPDEST PUSH1 0x0 PUSH32 0x1FFC9A700000000000000000000000000000000000000000000000000000000 PUSH28 0xFFFFFFFFFFFFFFFFFFFFFFFFFFFFFFFFFFFFFFFFFFFFFFFFFFFFFFFF NOT AND DUP3 PUSH28 0xFFFFFFFFFFFFFFFFFFFFFFFFFFFFFFFFFFFFFFFFFFFFFFFFFFFFFFFF NOT AND EQ SWAP1 POP SWAP2 SWAP1 POP JUMP JUMPDEST PUSH2 0x1EAA DUP4 DUP4 DUP4 PUSH2 0x214F JUMP JUMPDEST PUSH1 0x0 PUSH20 0xFFFFFFFFFFFFFFFFFFFFFFFFFFFFFFFFFFFFFFFF AND DUP4 PUSH20 0xFFFFFFFFFFFFFFFFFFFFFFFFFFFFFFFFFFFFFFFF AND EQ ISZERO PUSH2 0x1EED JUMPI PUSH2 0x1EE8 DUP2 PUSH2 0x2154 JUMP JUMPDEST PUSH2 0x1F2C JUMP JUMPDEST DUP2 PUSH20 0xFFFFFFFFFFFFFFFFFFFFFFFFFFFFFFFFFFFFFFFF AND DUP4 PUSH20 0xFFFFFFFFFFFFFFFFFFFFFFFFFFFFFFFFFFFFFFFF AND EQ PUSH2 0x1F2B JUMPI PUSH2 0x1F2A DUP4 DUP3 PUSH2 0x219D JUMP JUMPDEST JUMPDEST JUMPDEST PUSH1 0x0 PUSH20 0xFFFFFFFFFFFFFFFFFFFFFFFFFFFFFFFFFFFFFFFF AND DUP3 PUSH20 0xFFFFFFFFFFFFFFFFFFFFFFFFFFFFFFFFFFFFFFFF AND EQ ISZERO PUSH2 0x1F6F JUMPI PUSH2 0x1F6A DUP2 PUSH2 0x230A JUMP JUMPDEST PUSH2 0x1FAE JUMP JUMPDEST DUP3 PUSH20 0xFFFFFFFFFFFFFFFFFFFFFFFFFFFFFFFFFFFFFFFF AND DUP3 PUSH20 0xFFFFFFFFFFFFFFFFFFFFFFFFFFFFFFFFFFFFFFFF AND EQ PUSH2 0x1FAD JUMPI PUSH2 0x1FAC DUP3 DUP3 PUSH2 0x23DB JUMP JUMPDEST JUMPDEST JUMPDEST POP POP POP JUMP JUMPDEST POP POP POP JUMP JUMPDEST PUSH1 0x0 PUSH2 0x1FD9 DUP5 PUSH20 0xFFFFFFFFFFFFFFFFFFFFFFFFFFFFFFFFFFFFFFFF AND PUSH2 0x245A JUMP JUMPDEST ISZERO PUSH2 0x2142 JUMPI DUP4 PUSH20 0xFFFFFFFFFFFFFFFFFFFFFFFFFFFFFFFFFFFFFFFF AND PUSH4 0x150B7A02 PUSH2 0x2002 PUSH2 0x1406 JUMP JUMPDEST DUP8 DUP7 DUP7 PUSH1 0x40 MLOAD DUP6 PUSH4 0xFFFFFFFF AND PUSH1 0xE0 SHL DUP2 MSTORE PUSH1 0x4 ADD PUSH2 0x2024 SWAP5 SWAP4 SWAP3 SWAP2 SWAP1 PUSH2 0x2E11 JUMP JUMPDEST PUSH1 0x20 PUSH1 0x40 MLOAD DUP1 DUP4 SUB DUP2 PUSH1 0x0 DUP8 DUP1 EXTCODESIZE ISZERO DUP1 ISZERO PUSH2 0x203E JUMPI PUSH1 0x0 DUP1 REVERT JUMPDEST POP GAS CALL SWAP3 POP POP POP DUP1 ISZERO PUSH2 0x206F JUMPI POP PUSH1 0x40 MLOAD RETURNDATASIZE PUSH1 0x1F NOT PUSH1 0x1F DUP3 ADD AND DUP3 ADD DUP1 PUSH1 0x40 MSTORE POP DUP2 ADD SWAP1 PUSH2 0x206C SWAP2 SWAP1 PUSH2 0x27A8 JUMP JUMPDEST PUSH1 0x1 JUMPDEST PUSH2 0x20F2 JUMPI RETURNDATASIZE DUP1 PUSH1 0x0 DUP2 EQ PUSH2 0x209F JUMPI PUSH1 0x40 MLOAD SWAP2 POP PUSH1 0x1F NOT PUSH1 0x3F RETURNDATASIZE ADD AND DUP3 ADD PUSH1 0x40 MSTORE RETURNDATASIZE DUP3 MSTORE RETURNDATASIZE PUSH1 0x0 PUSH1 0x20 DUP5 ADD RETURNDATACOPY PUSH2 0x20A4 JUMP JUMPDEST PUSH1 0x60 SWAP2 POP JUMPDEST POP PUSH1 0x0 DUP2 MLOAD EQ ISZERO PUSH2 0x20EA JUMPI PUSH1 0x40 MLOAD PUSH32 0x8C379A000000000000000000000000000000000000000000000000000000000 DUP2 MSTORE PUSH1 0x4 ADD PUSH2 0x20E1 SWAP1 PUSH2 0x2ED6 JUMP JUMPDEST PUSH1 0x40 MLOAD DUP1 SWAP2 SUB SWAP1 REVERT JUMPDEST DUP1 MLOAD DUP2 PUSH1 0x20 ADD REVERT JUMPDEST PUSH4 0x150B7A02 PUSH1 0xE0 SHL PUSH28 0xFFFFFFFFFFFFFFFFFFFFFFFFFFFFFFFFFFFFFFFFFFFFFFFFFFFFFFFF NOT AND DUP2 PUSH28 0xFFFFFFFFFFFFFFFFFFFFFFFFFFFFFFFFFFFFFFFFFFFFFFFFFFFFFFFF NOT AND EQ SWAP2 POP POP PUSH2 0x2147 JUMP JUMPDEST PUSH1 0x1 SWAP1 POP JUMPDEST SWAP5 SWAP4 POP POP POP POP JUMP JUMPDEST POP POP POP JUMP JUMPDEST PUSH1 0x8 DUP1 SLOAD SWAP1 POP PUSH1 0x9 PUSH1 0x0 DUP4 DUP2 MSTORE PUSH1 0x20 ADD SWAP1 DUP2 MSTORE PUSH1 0x20 ADD PUSH1 0x0 KECCAK256 DUP2 SWAP1 SSTORE POP PUSH1 0x8 DUP2 SWAP1 DUP1 PUSH1 0x1 DUP2 SLOAD ADD DUP1 DUP3 SSTORE DUP1 SWAP2 POP POP PUSH1 0x1 SWAP1 SUB SWAP1 PUSH1 0x0 MSTORE PUSH1 0x20 PUSH1 0x0 KECCAK256 ADD PUSH1 0x0 SWAP1 SWAP2 SWAP1 SWAP2 SWAP1 SWAP2 POP SSTORE POP JUMP JUMPDEST PUSH1 0x0 PUSH1 0x1 PUSH2 0x21AA DUP5 PUSH2 0xC7B JUMP JUMPDEST PUSH2 0x21B4 SWAP2 SWAP1 PUSH2 0x32A0 JUMP JUMPDEST SWAP1 POP PUSH1 0x0 PUSH1 0x7 PUSH1 0x0 DUP5 DUP2 MSTORE PUSH1 0x20 ADD SWAP1 DUP2 MSTORE PUSH1 0x20 ADD PUSH1 0x0 KECCAK256 SLOAD SWAP1 POP DUP2 DUP2 EQ PUSH2 0x2299 JUMPI PUSH1 0x0 PUSH1 0x6 PUSH1 0x0 DUP7 PUSH20 0xFFFFFFFFFFFFFFFFFFFFFFFFFFFFFFFFFFFFFFFF AND PUSH20 0xFFFFFFFFFFFFFFFFFFFFFFFFFFFFFFFFFFFFFFFF AND DUP2 MSTORE PUSH1 0x20 ADD SWAP1 DUP2 MSTORE PUSH1 0x20 ADD PUSH1 0x0 KECCAK256 PUSH1 0x0 DUP5 DUP2 MSTORE PUSH1 0x20 ADD SWAP1 DUP2 MSTORE PUSH1 0x20 ADD PUSH1 0x0 KECCAK256 SLOAD SWAP1 POP DUP1 PUSH1 0x6 PUSH1 0x0 DUP8 PUSH20 0xFFFFFFFFFFFFFFFFFFFFFFFFFFFFFFFFFFFFFFFF AND PUSH20 0xFFFFFFFFFFFFFFFFFFFFFFFFFFFFFFFFFFFFFFFF AND DUP2 MSTORE PUSH1 0x20 ADD SWAP1 DUP2 MSTORE PUSH1 0x20 ADD PUSH1 0x0 KECCAK256 PUSH1 0x0 DUP5 DUP2 MSTORE PUSH1 0x20 ADD SWAP1 DUP2 MSTORE PUSH1 0x20 ADD PUSH1 0x0 KECCAK256 DUP2 SWAP1 SSTORE POP DUP2 PUSH1 0x7 PUSH1 0x0 DUP4 DUP2 MSTORE PUSH1 0x20 ADD SWAP1 DUP2 MSTORE PUSH1 0x20 ADD PUSH1 0x0 KECCAK256 DUP2 SWAP1 SSTORE POP POP JUMPDEST PUSH1 0x7 PUSH1 0x0 DUP5 DUP2 MSTORE PUSH1 0x20 ADD SWAP1 DUP2 MSTORE PUSH1 0x20 ADD PUSH1 0x0 KECCAK256 PUSH1 0x0 SWAP1 SSTORE PUSH1 0x6 PUSH1 0x0 DUP6 PUSH20 0xFFFFFFFFFFFFFFFFFFFFFFFFFFFFFFFFFFFFFFFF AND PUSH20 0xFFFFFFFFFFFFFFFFFFFFFFFFFFFFFFFFFFFFFFFF AND DUP2 MSTORE PUSH1 0x20 ADD SWAP1 DUP2 MSTORE PUSH1 0x20 ADD PUSH1 0x0 KECCAK256 PUSH1 0x0 DUP4 DUP2 MSTORE PUSH1 0x20 ADD SWAP1 DUP2 MSTORE PUSH1 0x20 ADD PUSH1 0x0 KECCAK256 PUSH1 0x0 SWAP1 SSTORE POP POP POP POP JUMP JUMPDEST PUSH1 0x0 PUSH1 0x1 PUSH1 0x8 DUP1 SLOAD SWAP1 POP PUSH2 0x231E SWAP2 SWAP1 PUSH2 0x32A0 JUMP JUMPDEST SWAP1 POP PUSH1 0x0 PUSH1 0x9 PUSH1 0x0 DUP5 DUP2 MSTORE PUSH1 0x20 ADD SWAP1 DUP2 MSTORE PUSH1 0x20 ADD PUSH1 0x0 KECCAK256 SLOAD SWAP1 POP PUSH1 0x0 PUSH1 0x8 DUP4 DUP2 SLOAD DUP2 LT PUSH2 0x234E JUMPI PUSH2 0x234D PUSH2 0x3565 JUMP JUMPDEST JUMPDEST SWAP1 PUSH1 0x0 MSTORE PUSH1 0x20 PUSH1 0x0 KECCAK256 ADD SLOAD SWAP1 POP DUP1 PUSH1 0x8 DUP4 DUP2 SLOAD DUP2 LT PUSH2 0x2370 JUMPI PUSH2 0x236F PUSH2 0x3565 JUMP JUMPDEST JUMPDEST SWAP1 PUSH1 0x0 MSTORE PUSH1 0x20 PUSH1 0x0 KECCAK256 ADD DUP2 SWAP1 SSTORE POP DUP2 PUSH1 0x9 PUSH1 0x0 DUP4 DUP2 MSTORE PUSH1 0x20 ADD SWAP1 DUP2 MSTORE PUSH1 0x20 ADD PUSH1 0x0 KECCAK256 DUP2 SWAP1 SSTORE POP PUSH1 0x9 PUSH1 0x0 DUP6 DUP2 MSTORE PUSH1 0x20 ADD SWAP1 DUP2 MSTORE PUSH1 0x20 ADD PUSH1 0x0 KECCAK256 PUSH1 0x0 SWAP1 SSTORE PUSH1 0x8 DUP1 SLOAD DUP1 PUSH2 0x23BF JUMPI PUSH2 0x23BE PUSH2 0x3536 JUMP JUMPDEST JUMPDEST PUSH1 0x1 SWAP1 SUB DUP2 DUP2 SWAP1 PUSH1 0x0 MSTORE PUSH1 0x20 PUSH1 0x0 KECCAK256 ADD PUSH1 0x0 SWAP1 SSTORE SWAP1 SSTORE POP POP POP POP JUMP JUMPDEST PUSH1 0x0 PUSH2 0x23E6 DUP4 PUSH2 0xC7B JUMP JUMPDEST SWAP1 POP DUP2 PUSH1 0x6 PUSH1 0x0 DUP6 PUSH20 0xFFFFFFFFFFFFFFFFFFFFFFFFFFFFFFFFFFFFFFFF AND PUSH20 0xFFFFFFFFFFFFFFFFFFFFFFFFFFFFFFFFFFFFFFFF AND DUP2 MSTORE PUSH1 0x20 ADD SWAP1 DUP2 MSTORE PUSH1 0x20 ADD PUSH1 0x0 KECCAK256 PUSH1 0x0 DUP4 DUP2 MSTORE PUSH1 0x20 ADD SWAP1 DUP2 MSTORE PUSH1 0x20 ADD PUSH1 0x0 KECCAK256 DUP2 SWAP1 SSTORE POP DUP1 PUSH1 0x7 PUSH1 0x0 DUP5 DUP2 MSTORE PUSH1 0x20 ADD SWAP1 DUP2 MSTORE PUSH1 0x20 ADD PUSH1 0x0 KECCAK256 DUP2 SWAP1 SSTORE POP POP POP POP JUMP JUMPDEST PUSH1 0x0 DUP1 DUP3 PUSH20 0xFFFFFFFFFFFFFFFFFFFFFFFFFFFFFFFFFFFFFFFF AND EXTCODESIZE GT SWAP1 POP SWAP2 SWAP1 POP JUMP JUMPDEST PUSH1 0x40 MLOAD DUP1 PUSH1 0x80 ADD PUSH1 0x40 MSTORE DUP1 PUSH1 0x4 SWAP1 JUMPDEST PUSH2 0x2494 PUSH2 0x24BD JUMP JUMPDEST DUP2 MSTORE PUSH1 0x20 ADD SWAP1 PUSH1 0x1 SWAP1 SUB SWAP1 DUP2 PUSH2 0x248C JUMPI SWAP1 POP POP SWAP1 JUMP JUMPDEST PUSH1 0x40 MLOAD DUP1 PUSH1 0x20 ADD PUSH1 0x40 MSTORE DUP1 PUSH1 0x0 DUP2 MSTORE POP SWAP1 JUMP JUMPDEST PUSH1 0x40 MLOAD DUP1 PUSH1 0x80 ADD PUSH1 0x40 MSTORE DUP1 PUSH1 0x4 SWAP1 PUSH1 0x20 DUP3 MUL DUP1 CALLDATASIZE DUP4 CALLDATACOPY DUP1 DUP3 ADD SWAP2 POP POP SWAP1 POP POP SWAP1 JUMP JUMPDEST PUSH1 0x0 PUSH2 0x24F2 PUSH2 0x24ED DUP5 PUSH2 0x3136 JUMP JUMPDEST PUSH2 0x3111 JUMP JUMPDEST SWAP1 POP DUP3 DUP2 MSTORE PUSH1 0x20 DUP2 ADD DUP5 DUP5 DUP5 ADD GT ISZERO PUSH2 0x250E JUMPI PUSH2 0x250D PUSH2 0x35C8 JUMP JUMPDEST JUMPDEST PUSH2 0x2519 DUP5 DUP3 DUP6 PUSH2 0x3352 JUMP JUMPDEST POP SWAP4 SWAP3 POP POP POP JUMP JUMPDEST PUSH1 0x0 DUP2 CALLDATALOAD SWAP1 POP PUSH2 0x2530 DUP2 PUSH2 0x3B17 JUMP JUMPDEST SWAP3 SWAP2 POP POP JUMP JUMPDEST PUSH1 0x0 DUP2 CALLDATALOAD SWAP1 POP PUSH2 0x2545 DUP2 PUSH2 0x3B2E JUMP JUMPDEST SWAP3 SWAP2 POP POP JUMP JUMPDEST PUSH1 0x0 DUP2 CALLDATALOAD SWAP1 POP PUSH2 0x255A DUP2 PUSH2 0x3B45 JUMP JUMPDEST SWAP3 SWAP2 POP POP JUMP JUMPDEST PUSH1 0x0 DUP2 MLOAD SWAP1 POP PUSH2 0x256F DUP2 PUSH2 0x3B45 JUMP JUMPDEST SWAP3 SWAP2 POP POP JUMP JUMPDEST PUSH1 0x0 DUP3 PUSH1 0x1F DUP4 ADD SLT PUSH2 0x258A JUMPI PUSH2 0x2589 PUSH2 0x35C3 JUMP JUMPDEST JUMPDEST DUP2 CALLDATALOAD PUSH2 0x259A DUP5 DUP3 PUSH1 0x20 DUP7 ADD PUSH2 0x24DF JUMP JUMPDEST SWAP2 POP POP SWAP3 SWAP2 POP POP JUMP JUMPDEST PUSH1 0x0 DUP2 CALLDATALOAD SWAP1 POP PUSH2 0x25B2 DUP2 PUSH2 0x3B5C JUMP JUMPDEST SWAP3 SWAP2 POP POP JUMP JUMPDEST PUSH1 0x0 PUSH1 0x20 DUP3 DUP5 SUB SLT ISZERO PUSH2 0x25CE JUMPI PUSH2 0x25CD PUSH2 0x35D2 JUMP JUMPDEST JUMPDEST PUSH1 0x0 PUSH2 0x25DC DUP5 DUP3 DUP6 ADD PUSH2 0x2521 JUMP JUMPDEST SWAP2 POP POP SWAP3 SWAP2 POP POP JUMP JUMPDEST PUSH1 0x0 DUP1 PUSH1 0x40 DUP4 DUP6 SUB SLT ISZERO PUSH2 0x25FC JUMPI PUSH2 0x25FB PUSH2 0x35D2 JUMP JUMPDEST JUMPDEST PUSH1 0x0 PUSH2 0x260A DUP6 DUP3 DUP7 ADD PUSH2 0x2521 JUMP JUMPDEST SWAP3 POP POP PUSH1 0x20 PUSH2 0x261B DUP6 DUP3 DUP7 ADD PUSH2 0x2521 JUMP JUMPDEST SWAP2 POP POP SWAP3 POP SWAP3 SWAP1 POP JUMP JUMPDEST PUSH1 0x0 DUP1 PUSH1 0x0 PUSH1 0x60 DUP5 DUP7 SUB SLT ISZERO PUSH2 0x263E JUMPI PUSH2 0x263D PUSH2 0x35D2 JUMP JUMPDEST JUMPDEST PUSH1 0x0 PUSH2 0x264C DUP7 DUP3 DUP8 ADD PUSH2 0x2521 JUMP JUMPDEST SWAP4 POP POP PUSH1 0x20 PUSH2 0x265D DUP7 DUP3 DUP8 ADD PUSH2 0x2521 JUMP JUMPDEST SWAP3 POP POP PUSH1 0x40 PUSH2 0x266E DUP7 DUP3 DUP8 ADD PUSH2 0x25A3 JUMP JUMPDEST SWAP2 POP POP SWAP3 POP SWAP3 POP SWAP3 JUMP JUMPDEST PUSH1 0x0 DUP1 PUSH1 0x0 DUP1 PUSH1 0x80 DUP6 DUP8 SUB SLT ISZERO PUSH2 0x2692 JUMPI PUSH2 0x2691 PUSH2 0x35D2 JUMP JUMPDEST JUMPDEST PUSH1 0x0 PUSH2 0x26A0 DUP8 DUP3 DUP9 ADD PUSH2 0x2521 JUMP JUMPDEST SWAP5 POP POP PUSH1 0x20 PUSH2 0x26B1 DUP8 DUP3 DUP9 ADD PUSH2 0x2521 JUMP JUMPDEST SWAP4 POP POP PUSH1 0x40 PUSH2 0x26C2 DUP8 DUP3 DUP9 ADD PUSH2 0x25A3 JUMP JUMPDEST SWAP3 POP POP PUSH1 0x60 DUP6 ADD CALLDATALOAD PUSH8 0xFFFFFFFFFFFFFFFF DUP2 GT ISZERO PUSH2 0x26E3 JUMPI PUSH2 0x26E2 PUSH2 0x35CD JUMP JUMPDEST JUMPDEST PUSH2 0x26EF DUP8 DUP3 DUP9 ADD PUSH2 0x2575 JUMP JUMPDEST SWAP2 POP POP SWAP3 SWAP6 SWAP2 SWAP5 POP SWAP3 POP JUMP JUMPDEST PUSH1 0x0 DUP1 PUSH1 0x40 DUP4 DUP6 SUB SLT ISZERO PUSH2 0x2712 JUMPI PUSH2 0x2711 PUSH2 0x35D2 JUMP JUMPDEST JUMPDEST PUSH1 0x0 PUSH2 0x2720 DUP6 DUP3 DUP7 ADD PUSH2 0x2521 JUMP JUMPDEST SWAP3 POP POP PUSH1 0x20 PUSH2 0x2731 DUP6 DUP3 DUP7 ADD PUSH2 0x2536 JUMP JUMPDEST SWAP2 POP POP SWAP3 POP SWAP3 SWAP1 POP JUMP JUMPDEST PUSH1 0x0 DUP1 PUSH1 0x40 DUP4 DUP6 SUB SLT ISZERO PUSH2 0x2752 JUMPI PUSH2 0x2751 PUSH2 0x35D2 JUMP JUMPDEST JUMPDEST PUSH1 0x0 PUSH2 0x2760 DUP6 DUP3 DUP7 ADD PUSH2 0x2521 JUMP JUMPDEST SWAP3 POP POP PUSH1 0x20 PUSH2 0x2771 DUP6 DUP3 DUP7 ADD PUSH2 0x25A3 JUMP JUMPDEST SWAP2 POP POP SWAP3 POP SWAP3 SWAP1 POP JUMP JUMPDEST PUSH1 0x0 PUSH1 0x20 DUP3 DUP5 SUB SLT ISZERO PUSH2 0x2791 JUMPI PUSH2 0x2790 PUSH2 0x35D2 JUMP JUMPDEST JUMPDEST PUSH1 0x0 PUSH2 0x279F DUP5 DUP3 DUP6 ADD PUSH2 0x254B JUMP JUMPDEST SWAP2 POP POP SWAP3 SWAP2 POP POP JUMP JUMPDEST PUSH1 0x0 PUSH1 0x20 DUP3 DUP5 SUB SLT ISZERO PUSH2 0x27BE JUMPI PUSH2 0x27BD PUSH2 0x35D2 JUMP JUMPDEST JUMPDEST PUSH1 0x0 PUSH2 0x27CC DUP5 DUP3 DUP6 ADD PUSH2 0x2560 JUMP JUMPDEST SWAP2 POP POP SWAP3 SWAP2 POP POP JUMP JUMPDEST PUSH1 0x0 PUSH1 0x20 DUP3 DUP5 SUB SLT ISZERO PUSH2 0x27EB JUMPI PUSH2 0x27EA PUSH2 0x35D2 JUMP JUMPDEST JUMPDEST PUSH1 0x0 PUSH2 0x27F9 DUP5 DUP3 DUP6 ADD PUSH2 0x25A3 JUMP JUMPDEST SWAP2 POP POP SWAP3 SWAP2 POP POP JUMP JUMPDEST PUSH1 0x0 DUP1 PUSH1 0x40 DUP4 DUP6 SUB SLT ISZERO PUSH2 0x2819 JUMPI PUSH2 0x2818 PUSH2 0x35D2 JUMP JUMPDEST JUMPDEST PUSH1 0x0 PUSH2 0x2827 DUP6 DUP3 DUP7 ADD PUSH2 0x25A3 JUMP JUMPDEST SWAP3 POP POP PUSH1 0x20 PUSH2 0x2838 DUP6 DUP3 DUP7 ADD PUSH2 0x25A3 JUMP JUMPDEST SWAP2 POP POP SWAP3 POP SWAP3 SWAP1 POP JUMP JUMPDEST PUSH1 0x0 PUSH2 0x284E DUP4 DUP4 PUSH2 0x28EF JUMP JUMPDEST PUSH1 0x80 DUP4 ADD SWAP1 POP SWAP3 SWAP2 POP POP JUMP JUMPDEST PUSH1 0x0 PUSH2 0x2866 DUP4 DUP4 PUSH2 0x2D4A JUMP JUMPDEST PUSH1 0x20 DUP4 ADD SWAP1 POP SWAP3 SWAP2 POP POP JUMP JUMPDEST PUSH2 0x287B DUP2 PUSH2 0x32D4 JUMP JUMPDEST DUP3 MSTORE POP POP JUMP JUMPDEST PUSH2 0x2892 PUSH2 0x288D DUP3 PUSH2 0x32D4 JUMP JUMPDEST PUSH2 0x3440 JUMP JUMPDEST DUP3 MSTORE POP POP JUMP JUMPDEST PUSH2 0x28A1 DUP2 PUSH2 0x3190 JUMP JUMPDEST PUSH2 0x28AB DUP2 DUP5 PUSH2 0x31D6 JUMP JUMPDEST SWAP3 POP PUSH2 0x28B6 DUP3 PUSH2 0x3167 JUMP JUMPDEST DUP1 PUSH1 0x0 JUMPDEST DUP4 DUP2 LT ISZERO PUSH2 0x28E7 JUMPI DUP2 MLOAD PUSH2 0x28CE DUP8 DUP3 PUSH2 0x2842 JUMP JUMPDEST SWAP7 POP PUSH2 0x28D9 DUP4 PUSH2 0x31BC JUMP JUMPDEST SWAP3 POP POP PUSH1 0x1 DUP2 ADD SWAP1 POP PUSH2 0x28BA JUMP JUMPDEST POP POP POP POP POP POP JUMP JUMPDEST PUSH2 0x28F8 DUP2 PUSH2 0x319B JUMP JUMPDEST PUSH2 0x2902 DUP2 DUP5 PUSH2 0x31E1 JUMP JUMPDEST SWAP3 POP PUSH2 0x290D DUP3 PUSH2 0x3171 JUMP JUMPDEST DUP1 PUSH1 0x0 JUMPDEST DUP4 DUP2 LT ISZERO PUSH2 0x293E JUMPI DUP2 MLOAD PUSH2 0x2925 DUP8 DUP3 PUSH2 0x285A JUMP JUMPDEST SWAP7 POP PUSH2 0x2930 DUP4 PUSH2 0x31C9 JUMP JUMPDEST SWAP3 POP POP PUSH1 0x1 DUP2 ADD SWAP1 POP PUSH2 0x2911 JUMP JUMPDEST POP POP POP POP POP POP JUMP JUMPDEST PUSH2 0x294F DUP2 PUSH2 0x32E6 JUMP JUMPDEST DUP3 MSTORE POP POP JUMP JUMPDEST PUSH2 0x2966 PUSH2 0x2961 DUP3 PUSH2 0x32F2 JUMP JUMPDEST PUSH2 0x3452 JUMP JUMPDEST DUP3 MSTORE POP POP JUMP JUMPDEST PUSH1 0x0 PUSH2 0x2977 DUP3 PUSH2 0x31A6 JUMP JUMPDEST PUSH2 0x2981 DUP2 DUP6 PUSH2 0x31EC JUMP JUMPDEST SWAP4 POP PUSH2 0x2991 DUP2 DUP6 PUSH1 0x20 DUP7 ADD PUSH2 0x3361 JUMP JUMPDEST PUSH2 0x299A DUP2 PUSH2 0x35D7 JUMP JUMPDEST DUP5 ADD SWAP2 POP POP SWAP3 SWAP2 POP POP JUMP JUMPDEST PUSH1 0x0 PUSH2 0x29B0 DUP3 PUSH2 0x31B1 JUMP JUMPDEST PUSH2 0x29BA DUP2 DUP6 PUSH2 0x31FD JUMP JUMPDEST SWAP4 POP PUSH2 0x29CA DUP2 DUP6 PUSH1 0x20 DUP7 ADD PUSH2 0x3361 JUMP JUMPDEST PUSH2 0x29D3 DUP2 PUSH2 0x35D7 JUMP JUMPDEST DUP5 ADD SWAP2 POP POP SWAP3 SWAP2 POP POP JUMP JUMPDEST PUSH1 0x0 PUSH2 0x29E9 DUP3 PUSH2 0x31B1 JUMP JUMPDEST PUSH2 0x29F3 DUP2 DUP6 PUSH2 0x320E JUMP JUMPDEST SWAP4 POP PUSH2 0x2A03 DUP2 DUP6 PUSH1 0x20 DUP7 ADD PUSH2 0x3361 JUMP JUMPDEST DUP1 DUP5 ADD SWAP2 POP POP SWAP3 SWAP2 POP POP JUMP JUMPDEST PUSH1 0x0 DUP2 SLOAD PUSH2 0x2A1C DUP2 PUSH2 0x3394 JUMP JUMPDEST PUSH2 0x2A26 DUP2 DUP7 PUSH2 0x320E JUMP JUMPDEST SWAP5 POP PUSH1 0x1 DUP3 AND PUSH1 0x0 DUP2 EQ PUSH2 0x2A41 JUMPI PUSH1 0x1 DUP2 EQ PUSH2 0x2A52 JUMPI PUSH2 0x2A85 JUMP JUMPDEST PUSH1 0xFF NOT DUP4 AND DUP7 MSTORE DUP2 DUP7 ADD SWAP4 POP PUSH2 0x2A85 JUMP JUMPDEST PUSH2 0x2A5B DUP6 PUSH2 0x317B JUMP JUMPDEST PUSH1 0x0 JUMPDEST DUP4 DUP2 LT ISZERO PUSH2 0x2A7D JUMPI DUP2 SLOAD DUP2 DUP10 ADD MSTORE PUSH1 0x1 DUP3 ADD SWAP2 POP PUSH1 0x20 DUP2 ADD SWAP1 POP PUSH2 0x2A5E JUMP JUMPDEST DUP4 DUP9 ADD SWAP6 POP POP POP JUMPDEST POP POP POP SWAP3 SWAP2 POP POP JUMP JUMPDEST PUSH1 0x0 PUSH2 0x2A9B PUSH1 0x2B DUP4 PUSH2 0x31FD JUMP JUMPDEST SWAP2 POP PUSH2 0x2AA6 DUP3 PUSH2 0x35F5 JUMP JUMPDEST PUSH1 0x40 DUP3 ADD SWAP1 POP SWAP2 SWAP1 POP JUMP JUMPDEST PUSH1 0x0 PUSH2 0x2ABE PUSH1 0x32 DUP4 PUSH2 0x31FD JUMP JUMPDEST SWAP2 POP PUSH2 0x2AC9 DUP3 PUSH2 0x3644 JUMP JUMPDEST PUSH1 0x40 DUP3 ADD SWAP1 POP SWAP2 SWAP1 POP JUMP JUMPDEST PUSH1 0x0 PUSH2 0x2AE1 PUSH1 0x26 DUP4 PUSH2 0x31FD JUMP JUMPDEST SWAP2 POP PUSH2 0x2AEC DUP3 PUSH2 0x3693 JUMP JUMPDEST PUSH1 0x40 DUP3 ADD SWAP1 POP SWAP2 SWAP1 POP JUMP JUMPDEST PUSH1 0x0 PUSH2 0x2B04 PUSH1 0x25 DUP4 PUSH2 0x31FD JUMP JUMPDEST SWAP2 POP PUSH2 0x2B0F DUP3 PUSH2 0x36E2 JUMP JUMPDEST PUSH1 0x40 DUP3 ADD SWAP1 POP SWAP2 SWAP1 POP JUMP JUMPDEST PUSH1 0x0 PUSH2 0x2B27 PUSH1 0x1C DUP4 PUSH2 0x31FD JUMP JUMPDEST SWAP2 POP PUSH2 0x2B32 DUP3 PUSH2 0x3731 JUMP JUMPDEST PUSH1 0x20 DUP3 ADD SWAP1 POP SWAP2 SWAP1 POP JUMP JUMPDEST PUSH1 0x0 PUSH2 0x2B4A PUSH1 0x24 DUP4 PUSH2 0x31FD JUMP JUMPDEST SWAP2 POP PUSH2 0x2B55 DUP3 PUSH2 0x375A JUMP JUMPDEST PUSH1 0x40 DUP3 ADD SWAP1 POP SWAP2 SWAP1 POP JUMP JUMPDEST PUSH1 0x0 PUSH2 0x2B6D PUSH1 0x19 DUP4 PUSH2 0x31FD JUMP JUMPDEST SWAP2 POP PUSH2 0x2B78 DUP3 PUSH2 0x37A9 JUMP JUMPDEST PUSH1 0x20 DUP3 ADD SWAP1 POP SWAP2 SWAP1 POP JUMP JUMPDEST PUSH1 0x0 PUSH2 0x2B90 PUSH1 0x2C DUP4 PUSH2 0x31FD JUMP JUMPDEST SWAP2 POP PUSH2 0x2B9B DUP3 PUSH2 0x37D2 JUMP JUMPDEST PUSH1 0x40 DUP3 ADD SWAP1 POP SWAP2 SWAP1 POP JUMP JUMPDEST PUSH1 0x0 PUSH2 0x2BB3 PUSH1 0x38 DUP4 PUSH2 0x31FD JUMP JUMPDEST SWAP2 POP PUSH2 0x2BBE DUP3 PUSH2 0x3821 JUMP JUMPDEST PUSH1 0x40 DUP3 ADD SWAP1 POP SWAP2 SWAP1 POP JUMP JUMPDEST PUSH1 0x0 PUSH2 0x2BD6 PUSH1 0x2A DUP4 PUSH2 0x31FD JUMP JUMPDEST SWAP2 POP PUSH2 0x2BE1 DUP3 PUSH2 0x3870 JUMP JUMPDEST PUSH1 0x40 DUP3 ADD SWAP1 POP SWAP2 SWAP1 POP JUMP JUMPDEST PUSH1 0x0 PUSH2 0x2BF9 PUSH1 0x29 DUP4 PUSH2 0x31FD JUMP JUMPDEST SWAP2 POP PUSH2 0x2C04 DUP3 PUSH2 0x38BF JUMP JUMPDEST PUSH1 0x40 DUP3 ADD SWAP1 POP SWAP2 SWAP1 POP JUMP JUMPDEST PUSH1 0x0 PUSH2 0x2C1C PUSH1 0x20 DUP4 PUSH2 0x31FD JUMP JUMPDEST SWAP2 POP PUSH2 0x2C27 DUP3 PUSH2 0x390E JUMP JUMPDEST PUSH1 0x20 DUP3 ADD SWAP1 POP SWAP2 SWAP1 POP JUMP JUMPDEST PUSH1 0x0 PUSH2 0x2C3F PUSH1 0x19 DUP4 PUSH2 0x31FD JUMP JUMPDEST SWAP2 POP PUSH2 0x2C4A DUP3 PUSH2 0x3937 JUMP JUMPDEST PUSH1 0x20 DUP3 ADD SWAP1 POP SWAP2 SWAP1 POP JUMP JUMPDEST PUSH1 0x0 PUSH2 0x2C62 PUSH1 0x2C DUP4 PUSH2 0x31FD JUMP JUMPDEST SWAP2 POP PUSH2 0x2C6D DUP3 PUSH2 0x3960 JUMP JUMPDEST PUSH1 0x40 DUP3 ADD SWAP1 POP SWAP2 SWAP1 POP JUMP JUMPDEST PUSH1 0x0 PUSH2 0x2C85 PUSH1 0x5 DUP4 PUSH2 0x320E JUMP JUMPDEST SWAP2 POP PUSH2 0x2C90 DUP3 PUSH2 0x39AF JUMP JUMPDEST PUSH1 0x5 DUP3 ADD SWAP1 POP SWAP2 SWAP1 POP JUMP JUMPDEST PUSH1 0x0 PUSH2 0x2CA8 PUSH1 0x20 DUP4 PUSH2 0x31FD JUMP JUMPDEST SWAP2 POP PUSH2 0x2CB3 DUP3 PUSH2 0x39D8 JUMP JUMPDEST PUSH1 0x20 DUP3 ADD SWAP1 POP SWAP2 SWAP1 POP JUMP JUMPDEST PUSH1 0x0 PUSH2 0x2CCB PUSH1 0x21 DUP4 PUSH2 0x31FD JUMP JUMPDEST SWAP2 POP PUSH2 0x2CD6 DUP3 PUSH2 0x3A01 JUMP JUMPDEST PUSH1 0x40 DUP3 ADD SWAP1 POP SWAP2 SWAP1 POP JUMP JUMPDEST PUSH1 0x0 PUSH2 0x2CEE PUSH1 0x31 DUP4 PUSH2 0x31FD JUMP JUMPDEST SWAP2 POP PUSH2 0x2CF9 DUP3 PUSH2 0x3A50 JUMP JUMPDEST PUSH1 0x40 DUP3 ADD SWAP1 POP SWAP2 SWAP1 POP JUMP JUMPDEST PUSH1 0x0 PUSH2 0x2D11 PUSH1 0x2C DUP4 PUSH2 0x31FD JUMP JUMPDEST SWAP2 POP PUSH2 0x2D1C DUP3 PUSH2 0x3A9F JUMP JUMPDEST PUSH1 0x40 DUP3 ADD SWAP1 POP SWAP2 SWAP1 POP JUMP JUMPDEST PUSH1 0x0 PUSH2 0x2D34 PUSH1 0x1 DUP4 PUSH2 0x320E JUMP JUMPDEST SWAP2 POP PUSH2 0x2D3F DUP3 PUSH2 0x3AEE JUMP JUMPDEST PUSH1 0x1 DUP3 ADD SWAP1 POP SWAP2 SWAP1 POP JUMP JUMPDEST PUSH2 0x2D53 DUP2 PUSH2 0x3348 JUMP JUMPDEST DUP3 MSTORE POP POP JUMP JUMPDEST PUSH2 0x2D62 DUP2 PUSH2 0x3348 JUMP JUMPDEST DUP3 MSTORE POP POP JUMP JUMPDEST PUSH2 0x2D79 PUSH2 0x2D74 DUP3 PUSH2 0x3348 JUMP JUMPDEST PUSH2 0x346E JUMP JUMPDEST DUP3 MSTORE POP POP JUMP JUMPDEST PUSH1 0x0 PUSH2 0x2D8B DUP3 DUP7 PUSH2 0x2955 JUMP JUMPDEST PUSH1 0x20 DUP3 ADD SWAP2 POP PUSH2 0x2D9B DUP3 DUP6 PUSH2 0x2881 JUMP JUMPDEST PUSH1 0x14 DUP3 ADD SWAP2 POP PUSH2 0x2DAB DUP3 DUP5 PUSH2 0x2D68 JUMP JUMPDEST PUSH1 0x20 DUP3 ADD SWAP2 POP DUP2 SWAP1 POP SWAP5 SWAP4 POP POP POP POP JUMP JUMPDEST PUSH1 0x0 PUSH2 0x2DC8 DUP3 DUP6 PUSH2 0x2A0F JUMP JUMPDEST SWAP2 POP PUSH2 0x2DD3 DUP3 PUSH2 0x2D27 JUMP JUMPDEST SWAP2 POP PUSH2 0x2DDF DUP3 DUP5 PUSH2 0x29DE JUMP JUMPDEST SWAP2 POP PUSH2 0x2DEA DUP3 PUSH2 0x2C78 JUMP JUMPDEST SWAP2 POP DUP2 SWAP1 POP SWAP4 SWAP3 POP POP POP JUMP JUMPDEST PUSH1 0x0 PUSH1 0x20 DUP3 ADD SWAP1 POP PUSH2 0x2E0B PUSH1 0x0 DUP4 ADD DUP5 PUSH2 0x2872 JUMP JUMPDEST SWAP3 SWAP2 POP POP JUMP JUMPDEST PUSH1 0x0 PUSH1 0x80 DUP3 ADD SWAP1 POP PUSH2 0x2E26 PUSH1 0x0 DUP4 ADD DUP8 PUSH2 0x2872 JUMP JUMPDEST PUSH2 0x2E33 PUSH1 0x20 DUP4 ADD DUP7 PUSH2 0x2872 JUMP JUMPDEST PUSH2 0x2E40 PUSH1 0x40 DUP4 ADD DUP6 PUSH2 0x2D59 JUMP JUMPDEST DUP2 DUP2 SUB PUSH1 0x60 DUP4 ADD MSTORE PUSH2 0x2E52 DUP2 DUP5 PUSH2 0x296C JUMP JUMPDEST SWAP1 POP SWAP6 SWAP5 POP POP POP POP POP JUMP JUMPDEST PUSH1 0x0 PUSH2 0x200 DUP3 ADD SWAP1 POP PUSH2 0x2E73 PUSH1 0x0 DUP4 ADD DUP5 PUSH2 0x2898 JUMP JUMPDEST SWAP3 SWAP2 POP POP JUMP JUMPDEST PUSH1 0x0 PUSH1 0x20 DUP3 ADD SWAP1 POP PUSH2 0x2E8E PUSH1 0x0 DUP4 ADD DUP5 PUSH2 0x2946 JUMP JUMPDEST SWAP3 SWAP2 POP POP JUMP JUMPDEST PUSH1 0x0 PUSH1 0x20 DUP3 ADD SWAP1 POP DUP2 DUP2 SUB PUSH1 0x0 DUP4 ADD MSTORE PUSH2 0x2EAE DUP2 DUP5 PUSH2 0x29A5 JUMP JUMPDEST SWAP1 POP SWAP3 SWAP2 POP POP JUMP JUMPDEST PUSH1 0x0 PUSH1 0x20 DUP3 ADD SWAP1 POP DUP2 DUP2 SUB PUSH1 0x0 DUP4 ADD MSTORE PUSH2 0x2ECF DUP2 PUSH2 0x2A8E JUMP JUMPDEST SWAP1 POP SWAP2 SWAP1 POP JUMP JUMPDEST PUSH1 0x0 PUSH1 0x20 DUP3 ADD SWAP1 POP DUP2 DUP2 SUB PUSH1 0x0 DUP4 ADD MSTORE PUSH2 0x2EEF DUP2 PUSH2 0x2AB1 JUMP JUMPDEST SWAP1 POP SWAP2 SWAP1 POP JUMP JUMPDEST PUSH1 0x0 PUSH1 0x20 DUP3 ADD SWAP1 POP DUP2 DUP2 SUB PUSH1 0x0 DUP4 ADD MSTORE PUSH2 0x2F0F DUP2 PUSH2 0x2AD4 JUMP JUMPDEST SWAP1 POP SWAP2 SWAP1 POP JUMP JUMPDEST PUSH1 0x0 PUSH1 0x20 DUP3 ADD SWAP1 POP DUP2 DUP2 SUB PUSH1 0x0 DUP4 ADD MSTORE PUSH2 0x2F2F DUP2 PUSH2 0x2AF7 JUMP JUMPDEST SWAP1 POP SWAP2 SWAP1 POP JUMP JUMPDEST PUSH1 0x0 PUSH1 0x20 DUP3 ADD SWAP1 POP DUP2 DUP2 SUB PUSH1 0x0 DUP4 ADD MSTORE PUSH2 0x2F4F DUP2 PUSH2 0x2B1A JUMP JUMPDEST SWAP1 POP SWAP2 SWAP1 POP JUMP JUMPDEST PUSH1 0x0 PUSH1 0x20 DUP3 ADD SWAP1 POP DUP2 DUP2 SUB PUSH1 0x0 DUP4 ADD MSTORE PUSH2 0x2F6F DUP2 PUSH2 0x2B3D JUMP JUMPDEST SWAP1 POP SWAP2 SWAP1 POP JUMP JUMPDEST PUSH1 0x0 PUSH1 0x20 DUP3 ADD SWAP1 POP DUP2 DUP2 SUB PUSH1 0x0 DUP4 ADD MSTORE PUSH2 0x2F8F DUP2 PUSH2 0x2B60 JUMP JUMPDEST SWAP1 POP SWAP2 SWAP1 POP JUMP JUMPDEST PUSH1 0x0 PUSH1 0x20 DUP3 ADD SWAP1 POP DUP2 DUP2 SUB PUSH1 0x0 DUP4 ADD MSTORE PUSH2 0x2FAF DUP2 PUSH2 0x2B83 JUMP JUMPDEST SWAP1 POP SWAP2 SWAP1 POP JUMP JUMPDEST PUSH1 0x0 PUSH1 0x20 DUP3 ADD SWAP1 POP DUP2 DUP2 SUB PUSH1 0x0 DUP4 ADD MSTORE PUSH2 0x2FCF DUP2 PUSH2 0x2BA6 JUMP JUMPDEST SWAP1 POP SWAP2 SWAP1 POP JUMP JUMPDEST PUSH1 0x0 PUSH1 0x20 DUP3 ADD SWAP1 POP DUP2 DUP2 SUB PUSH1 0x0 DUP4 ADD MSTORE PUSH2 0x2FEF DUP2 PUSH2 0x2BC9 JUMP JUMPDEST SWAP1 POP SWAP2 SWAP1 POP JUMP JUMPDEST PUSH1 0x0 PUSH1 0x20 DUP3 ADD SWAP1 POP DUP2 DUP2 SUB PUSH1 0x0 DUP4 ADD MSTORE PUSH2 0x300F DUP2 PUSH2 0x2BEC JUMP JUMPDEST SWAP1 POP SWAP2 SWAP1 POP JUMP JUMPDEST PUSH1 0x0 PUSH1 0x20 DUP3 ADD SWAP1 POP DUP2 DUP2 SUB PUSH1 0x0 DUP4 ADD MSTORE PUSH2 0x302F DUP2 PUSH2 0x2C0F JUMP JUMPDEST SWAP1 POP SWAP2 SWAP1 POP JUMP JUMPDEST PUSH1 0x0 PUSH1 0x20 DUP3 ADD SWAP1 POP DUP2 DUP2 SUB PUSH1 0x0 DUP4 ADD MSTORE PUSH2 0x304F DUP2 PUSH2 0x2C32 JUMP JUMPDEST SWAP1 POP SWAP2 SWAP1 POP JUMP JUMPDEST PUSH1 0x0 PUSH1 0x20 DUP3 ADD SWAP1 POP DUP2 DUP2 SUB PUSH1 0x0 DUP4 ADD MSTORE PUSH2 0x306F DUP2 PUSH2 0x2C55 JUMP JUMPDEST SWAP1 POP SWAP2 SWAP1 POP JUMP JUMPDEST PUSH1 0x0 PUSH1 0x20 DUP3 ADD SWAP1 POP DUP2 DUP2 SUB PUSH1 0x0 DUP4 ADD MSTORE PUSH2 0x308F DUP2 PUSH2 0x2C9B JUMP JUMPDEST SWAP1 POP SWAP2 SWAP1 POP JUMP JUMPDEST PUSH1 0x0 PUSH1 0x20 DUP3 ADD SWAP1 POP DUP2 DUP2 SUB PUSH1 0x0 DUP4 ADD MSTORE PUSH2 0x30AF DUP2 PUSH2 0x2CBE JUMP JUMPDEST SWAP1 POP SWAP2 SWAP1 POP JUMP JUMPDEST PUSH1 0x0 PUSH1 0x20 DUP3 ADD SWAP1 POP DUP2 DUP2 SUB PUSH1 0x0 DUP4 ADD MSTORE PUSH2 0x30CF DUP2 PUSH2 0x2CE1 JUMP JUMPDEST SWAP1 POP SWAP2 SWAP1 POP JUMP JUMPDEST PUSH1 0x0 PUSH1 0x20 DUP3 ADD SWAP1 POP DUP2 DUP2 SUB PUSH1 0x0 DUP4 ADD MSTORE PUSH2 0x30EF DUP2 PUSH2 0x2D04 JUMP JUMPDEST SWAP1 POP SWAP2 SWAP1 POP JUMP JUMPDEST PUSH1 0x0 PUSH1 0x20 DUP3 ADD SWAP1 POP PUSH2 0x310B PUSH1 0x0 DUP4 ADD DUP5 PUSH2 0x2D59 JUMP JUMPDEST SWAP3 SWAP2 POP POP JUMP JUMPDEST PUSH1 0x0 PUSH2 0x311B PUSH2 0x312C JUMP JUMPDEST SWAP1 POP PUSH2 0x3127 DUP3 DUP3 PUSH2 0x33C6 JUMP JUMPDEST SWAP2 SWAP1 POP JUMP JUMPDEST PUSH1 0x0 PUSH1 0x40 MLOAD SWAP1 POP SWAP1 JUMP JUMPDEST PUSH1 0x0 PUSH8 0xFFFFFFFFFFFFFFFF DUP3 GT ISZERO PUSH2 0x3151 JUMPI PUSH2 0x3150 PUSH2 0x3594 JUMP JUMPDEST JUMPDEST PUSH2 0x315A DUP3 PUSH2 0x35D7 JUMP JUMPDEST SWAP1 POP PUSH1 0x20 DUP2 ADD SWAP1 POP SWAP2 SWAP1 POP JUMP JUMPDEST PUSH1 0x0 DUP2 SWAP1 POP SWAP2 SWAP1 POP JUMP JUMPDEST PUSH1 0x0 DUP2 SWAP1 POP SWAP2 SWAP1 POP JUMP JUMPDEST PUSH1 0x0 DUP2 SWAP1 POP DUP2 PUSH1 0x0 MSTORE PUSH1 0x20 PUSH1 0x0 KECCAK256 SWAP1 POP SWAP2 SWAP1 POP JUMP JUMPDEST PUSH1 0x0 PUSH1 0x4 SWAP1 POP SWAP2 SWAP1 POP JUMP JUMPDEST PUSH1 0x0 PUSH1 0x4 SWAP1 POP SWAP2 SWAP1 POP JUMP JUMPDEST PUSH1 0x0 DUP2 MLOAD SWAP1 POP SWAP2 SWAP1 POP JUMP JUMPDEST PUSH1 0x0 DUP2 MLOAD SWAP1 POP SWAP2 SWAP1 POP JUMP JUMPDEST PUSH1 0x0 PUSH1 0x20 DUP3 ADD SWAP1 POP SWAP2 SWAP1 POP JUMP JUMPDEST PUSH1 0x0 PUSH1 0x20 DUP3 ADD SWAP1 POP SWAP2 SWAP1 POP JUMP JUMPDEST PUSH1 0x0 DUP2 SWAP1 POP SWAP3 SWAP2 POP POP JUMP JUMPDEST PUSH1 0x0 DUP2 SWAP1 POP SWAP3 SWAP2 POP POP JUMP JUMPDEST PUSH1 0x0 DUP3 DUP3 MSTORE PUSH1 0x20 DUP3 ADD SWAP1 POP SWAP3 SWAP2 POP POP JUMP JUMPDEST PUSH1 0x0 DUP3 DUP3 MSTORE PUSH1 0x20 DUP3 ADD SWAP1 POP SWAP3 SWAP2 POP POP JUMP JUMPDEST PUSH1 0x0 DUP2 SWAP1 POP SWAP3 SWAP2 POP POP JUMP JUMPDEST PUSH1 0x0 PUSH2 0x3224 DUP3 PUSH2 0x3348 JUMP JUMPDEST SWAP2 POP PUSH2 0x322F DUP4 PUSH2 0x3348 JUMP JUMPDEST SWAP3 POP DUP3 PUSH32 0xFFFFFFFFFFFFFFFFFFFFFFFFFFFFFFFFFFFFFFFFFFFFFFFFFFFFFFFFFFFFFFFF SUB DUP3 GT ISZERO PUSH2 0x3264 JUMPI PUSH2 0x3263 PUSH2 0x34A9 JUMP JUMPDEST JUMPDEST DUP3 DUP3 ADD SWAP1 POP SWAP3 SWAP2 POP POP JUMP JUMPDEST PUSH1 0x0 PUSH2 0x327A DUP3 PUSH2 0x3348 JUMP JUMPDEST SWAP2 POP PUSH2 0x3285 DUP4 PUSH2 0x3348 JUMP JUMPDEST SWAP3 POP DUP3 PUSH2 0x3295 JUMPI PUSH2 0x3294 PUSH2 0x34D8 JUMP JUMPDEST JUMPDEST DUP3 DUP3 DIV SWAP1 POP SWAP3 SWAP2 POP POP JUMP JUMPDEST PUSH1 0x0 PUSH2 0x32AB DUP3 PUSH2 0x3348 JUMP JUMPDEST SWAP2 POP PUSH2 0x32B6 DUP4 PUSH2 0x3348 JUMP JUMPDEST SWAP3 POP DUP3 DUP3 LT ISZERO PUSH2 0x32C9 JUMPI PUSH2 0x32C8 PUSH2 0x34A9 JUMP JUMPDEST JUMPDEST DUP3 DUP3 SUB SWAP1 POP SWAP3 SWAP2 POP POP JUMP JUMPDEST PUSH1 0x0 PUSH2 0x32DF DUP3 PUSH2 0x3328 JUMP JUMPDEST SWAP1 POP SWAP2 SWAP1 POP JUMP JUMPDEST PUSH1 0x0 DUP2 ISZERO ISZERO SWAP1 POP SWAP2 SWAP1 POP JUMP JUMPDEST PUSH1 0x0 DUP2 SWAP1 POP SWAP2 SWAP1 POP JUMP JUMPDEST PUSH1 0x0 PUSH32 0xFFFFFFFF00000000000000000000000000000000000000000000000000000000 DUP3 AND SWAP1 POP SWAP2 SWAP1 POP JUMP JUMPDEST PUSH1 0x0 PUSH20 0xFFFFFFFFFFFFFFFFFFFFFFFFFFFFFFFFFFFFFFFF DUP3 AND SWAP1 POP SWAP2 SWAP1 POP JUMP JUMPDEST PUSH1 0x0 DUP2 SWAP1 POP SWAP2 SWAP1 POP JUMP JUMPDEST DUP3 DUP2 DUP4 CALLDATACOPY PUSH1 0x0 DUP4 DUP4 ADD MSTORE POP POP POP JUMP JUMPDEST PUSH1 0x0 JUMPDEST DUP4 DUP2 LT ISZERO PUSH2 0x337F JUMPI DUP1 DUP3 ADD MLOAD DUP2 DUP5 ADD MSTORE PUSH1 0x20 DUP2 ADD SWAP1 POP PUSH2 0x3364 JUMP JUMPDEST DUP4 DUP2 GT ISZERO PUSH2 0x338E JUMPI PUSH1 0x0 DUP5 DUP5 ADD MSTORE JUMPDEST POP POP POP POP JUMP JUMPDEST PUSH1 0x0 PUSH1 0x2 DUP3 DIV SWAP1 POP PUSH1 0x1 DUP3 AND DUP1 PUSH2 0x33AC JUMPI PUSH1 0x7F DUP3 AND SWAP2 POP JUMPDEST PUSH1 0x20 DUP3 LT DUP2 EQ ISZERO PUSH2 0x33C0 JUMPI PUSH2 0x33BF PUSH2 0x3507 JUMP JUMPDEST JUMPDEST POP SWAP2 SWAP1 POP JUMP JUMPDEST PUSH2 0x33CF DUP3 PUSH2 0x35D7 JUMP JUMPDEST DUP2 ADD DUP2 DUP2 LT PUSH8 0xFFFFFFFFFFFFFFFF DUP3 GT OR ISZERO PUSH2 0x33EE JUMPI PUSH2 0x33ED PUSH2 0x3594 JUMP JUMPDEST JUMPDEST DUP1 PUSH1 0x40 MSTORE POP POP POP JUMP JUMPDEST PUSH1 0x0 PUSH2 0x3402 DUP3 PUSH2 0x3348 JUMP JUMPDEST SWAP2 POP PUSH32 0xFFFFFFFFFFFFFFFFFFFFFFFFFFFFFFFFFFFFFFFFFFFFFFFFFFFFFFFFFFFFFFFF DUP3 EQ ISZERO PUSH2 0x3435 JUMPI PUSH2 0x3434 PUSH2 0x34A9 JUMP JUMPDEST JUMPDEST PUSH1 0x1 DUP3 ADD SWAP1 POP SWAP2 SWAP1 POP JUMP JUMPDEST PUSH1 0x0 PUSH2 0x344B DUP3 PUSH2 0x345C JUMP JUMPDEST SWAP1 POP SWAP2 SWAP1 POP JUMP JUMPDEST PUSH1 0x0 DUP2 SWAP1 POP SWAP2 SWAP1 POP JUMP JUMPDEST PUSH1 0x0 PUSH2 0x3467 DUP3 PUSH2 0x35E8 JUMP JUMPDEST SWAP1 POP SWAP2 SWAP1 POP JUMP JUMPDEST PUSH1 0x0 DUP2 SWAP1 POP SWAP2 SWAP1 POP JUMP JUMPDEST PUSH1 0x0 PUSH2 0x3483 DUP3 PUSH2 0x3348 JUMP JUMPDEST SWAP2 POP PUSH2 0x348E DUP4 PUSH2 0x3348 JUMP JUMPDEST SWAP3 POP DUP3 PUSH2 0x349E JUMPI PUSH2 0x349D PUSH2 0x34D8 JUMP JUMPDEST JUMPDEST DUP3 DUP3 MOD SWAP1 POP SWAP3 SWAP2 POP POP JUMP JUMPDEST PUSH32 0x4E487B7100000000000000000000000000000000000000000000000000000000 PUSH1 0x0 MSTORE PUSH1 0x11 PUSH1 0x4 MSTORE PUSH1 0x24 PUSH1 0x0 REVERT JUMPDEST PUSH32 0x4E487B7100000000000000000000000000000000000000000000000000000000 PUSH1 0x0 MSTORE PUSH1 0x12 PUSH1 0x4 MSTORE PUSH1 0x24 PUSH1 0x0 REVERT JUMPDEST PUSH32 0x4E487B7100000000000000000000000000000000000000000000000000000000 PUSH1 0x0 MSTORE PUSH1 0x22 PUSH1 0x4 MSTORE PUSH1 0x24 PUSH1 0x0 REVERT JUMPDEST PUSH32 0x4E487B7100000000000000000000000000000000000000000000000000000000 PUSH1 0x0 MSTORE PUSH1 0x31 PUSH1 0x4 MSTORE PUSH1 0x24 PUSH1 0x0 REVERT JUMPDEST PUSH32 0x4E487B7100000000000000000000000000000000000000000000000000000000 PUSH1 0x0 MSTORE PUSH1 0x32 PUSH1 0x4 MSTORE PUSH1 0x24 PUSH1 0x0 REVERT JUMPDEST PUSH32 0x4E487B7100000000000000000000000000000000000000000000000000000000 PUSH1 0x0 MSTORE PUSH1 0x41 PUSH1 0x4 MSTORE PUSH1 0x24 PUSH1 0x0 REVERT JUMPDEST PUSH1 0x0 DUP1 REVERT JUMPDEST PUSH1 0x0 DUP1 REVERT JUMPDEST PUSH1 0x0 DUP1 REVERT JUMPDEST PUSH1 0x0 DUP1 REVERT JUMPDEST PUSH1 0x0 PUSH1 0x1F NOT PUSH1 0x1F DUP4 ADD AND SWAP1 POP SWAP2 SWAP1 POP JUMP JUMPDEST PUSH1 0x0 DUP2 PUSH1 0x60 SHL SWAP1 POP SWAP2 SWAP1 POP JUMP JUMPDEST PUSH32 0x455243373231456E756D657261626C653A206F776E657220696E646578206F75 PUSH1 0x0 DUP3 ADD MSTORE PUSH32 0x74206F6620626F756E6473000000000000000000000000000000000000000000 PUSH1 0x20 DUP3 ADD MSTORE POP JUMP JUMPDEST PUSH32 0x4552433732313A207472616E7366657220746F206E6F6E204552433732315265 PUSH1 0x0 DUP3 ADD MSTORE PUSH32 0x63656976657220696D706C656D656E7465720000000000000000000000000000 PUSH1 0x20 DUP3 ADD MSTORE POP JUMP JUMPDEST PUSH32 0x4F776E61626C653A206E6577206F776E657220697320746865207A65726F2061 PUSH1 0x0 DUP3 ADD MSTORE PUSH32 0x6464726573730000000000000000000000000000000000000000000000000000 PUSH1 0x20 DUP3 ADD MSTORE POP JUMP JUMPDEST PUSH32 0x4552433732313A207472616E736665722066726F6D20696E636F727265637420 PUSH1 0x0 DUP3 ADD MSTORE PUSH32 0x6F776E6572000000000000000000000000000000000000000000000000000000 PUSH1 0x20 DUP3 ADD MSTORE POP JUMP JUMPDEST PUSH32 0x4552433732313A20746F6B656E20616C7265616479206D696E74656400000000 PUSH1 0x0 DUP3 ADD MSTORE POP JUMP JUMPDEST PUSH32 0x4552433732313A207472616E7366657220746F20746865207A65726F20616464 PUSH1 0x0 DUP3 ADD MSTORE PUSH32 0x7265737300000000000000000000000000000000000000000000000000000000 PUSH1 0x20 DUP3 ADD MSTORE POP JUMP JUMPDEST PUSH32 0x4552433732313A20617070726F766520746F2063616C6C657200000000000000 PUSH1 0x0 DUP3 ADD MSTORE POP JUMP JUMPDEST PUSH32 0x4552433732313A206F70657261746F7220717565727920666F72206E6F6E6578 PUSH1 0x0 DUP3 ADD MSTORE PUSH32 0x697374656E7420746F6B656E0000000000000000000000000000000000000000 PUSH1 0x20 DUP3 ADD MSTORE POP JUMP JUMPDEST PUSH32 0x4552433732313A20617070726F76652063616C6C6572206973206E6F74206F77 PUSH1 0x0 DUP3 ADD MSTORE PUSH32 0x6E6572206E6F7220617070726F76656420666F7220616C6C0000000000000000 PUSH1 0x20 DUP3 ADD MSTORE POP JUMP JUMPDEST PUSH32 0x4552433732313A2062616C616E636520717565727920666F7220746865207A65 PUSH1 0x0 DUP3 ADD MSTORE PUSH32 0x726F206164647265737300000000000000000000000000000000000000000000 PUSH1 0x20 DUP3 ADD MSTORE POP JUMP JUMPDEST PUSH32 0x4552433732313A206F776E657220717565727920666F72206E6F6E6578697374 PUSH1 0x0 DUP3 ADD MSTORE PUSH32 0x656E7420746F6B656E0000000000000000000000000000000000000000000000 PUSH1 0x20 DUP3 ADD MSTORE POP JUMP JUMPDEST PUSH32 0x4552433732313A206D696E7420746F20746865207A65726F2061646472657373 PUSH1 0x0 DUP3 ADD MSTORE POP JUMP JUMPDEST PUSH32 0x4E6F6D6F7265206D696E74696E20697320706F737369626C6500000000000000 PUSH1 0x0 DUP3 ADD MSTORE POP JUMP JUMPDEST PUSH32 0x4552433732313A20617070726F76656420717565727920666F72206E6F6E6578 PUSH1 0x0 DUP3 ADD MSTORE PUSH32 0x697374656E7420746F6B656E0000000000000000000000000000000000000000 PUSH1 0x20 DUP3 ADD MSTORE POP JUMP JUMPDEST PUSH32 0x2E6A736F6E000000000000000000000000000000000000000000000000000000 PUSH1 0x0 DUP3 ADD MSTORE POP JUMP JUMPDEST PUSH32 0x4F776E61626C653A2063616C6C6572206973206E6F7420746865206F776E6572 PUSH1 0x0 DUP3 ADD MSTORE POP JUMP JUMPDEST PUSH32 0x4552433732313A20617070726F76616C20746F2063757272656E74206F776E65 PUSH1 0x0 DUP3 ADD MSTORE PUSH32 0x7200000000000000000000000000000000000000000000000000000000000000 PUSH1 0x20 DUP3 ADD MSTORE POP JUMP JUMPDEST PUSH32 0x4552433732313A207472616E736665722063616C6C6572206973206E6F74206F PUSH1 0x0 DUP3 ADD MSTORE PUSH32 0x776E6572206E6F7220617070726F766564000000000000000000000000000000 PUSH1 0x20 DUP3 ADD MSTORE POP JUMP JUMPDEST PUSH32 0x455243373231456E756D657261626C653A20676C6F62616C20696E646578206F PUSH1 0x0 DUP3 ADD MSTORE PUSH32 0x7574206F6620626F756E64730000000000000000000000000000000000000000 PUSH1 0x20 DUP3 ADD MSTORE POP JUMP JUMPDEST PUSH32 0x2F00000000000000000000000000000000000000000000000000000000000000 PUSH1 0x0 DUP3 ADD MSTORE POP JUMP JUMPDEST PUSH2 0x3B20 DUP2 PUSH2 0x32D4 JUMP JUMPDEST DUP2 EQ PUSH2 0x3B2B JUMPI PUSH1 0x0 DUP1 REVERT JUMPDEST POP JUMP JUMPDEST PUSH2 0x3B37 DUP2 PUSH2 0x32E6 JUMP JUMPDEST DUP2 EQ PUSH2 0x3B42 JUMPI PUSH1 0x0 DUP1 REVERT JUMPDEST POP JUMP JUMPDEST PUSH2 0x3B4E DUP2 PUSH2 0x32FC JUMP JUMPDEST DUP2 EQ PUSH2 0x3B59 JUMPI PUSH1 0x0 DUP1 REVERT JUMPDEST POP JUMP JUMPDEST PUSH2 0x3B65 DUP2 PUSH2 0x3348 JUMP JUMPDEST DUP2 EQ PUSH2 0x3B70 JUMPI PUSH1 0x0 DUP1 REVERT JUMPDEST POP JUMP INVALID LOG2 PUSH5 0x6970667358 0x22 SLT KECCAK256 PUSH7 0x2C1B5388DD477A ADDMOD GAS DUP16 DUP3 0xDC 0xBA DUP12 0x25 0x4D ADD 0xF7 0xBC 0xFB BASEFEE SELFDESTRUCT 0xD3 CREATE2 0xD5 0xF7 0xF9 0xC6 CALLER BLOCKHASH BASEFEE PUSH5 0x736F6C6343 STOP ADDMOD SMOD STOP CALLER "
		},
		"gasEstimates": {
			"creation": {
				"codeDepositCost": "3054600",
				"executionCost": "infinite",
				"totalCost": "infinite"
			},
			"external": {
				"MAX_TOKEN_COUNT()": "396",
				"TOKEN_RANK_LENGTH()": "375",
				"TOKEN_TYPE_LENGTH()": "397",
				"approve(address,uint256)": "infinite",
				"balanceOf(address)": "2947",
				"gemTokenCount(uint256,uint256)": "infinite",
				"gemTokenData(uint256)": "infinite",
				"gemTokenPrice()": "2475",
				"getApproved(uint256)": "5250",
				"getGemTokenCount()": "infinite",
				"getGemTokenType(uint256)": "infinite",
				"giveWhiteList(address)": "27163",
				"isApprovedForAll(address,address)": "infinite",
				"isWhiteList(address)": "2933",
				"metadataURI()": "infinite",
				"mintGemToken()": "infinite",
				"name()": "infinite",
				"owner()": "2634",
				"ownerOf(uint256)": "3088",
				"renounceOwnership()": "30464",
				"safeTransferFrom(address,address,uint256)": "infinite",
				"safeTransferFrom(address,address,uint256,bytes)": "infinite",
				"setApprovalForAll(address,bool)": "infinite",
				"supportsInterface(bytes4)": "909",
				"symbol()": "infinite",
				"tokenByIndex(uint256)": "infinite",
				"tokenOfOwnerByIndex(address,uint256)": "infinite",
				"tokenURI(uint256)": "infinite",
				"totalSupply()": "2491",
				"transferFrom(address,address,uint256)": "infinite",
				"transferOwnership(address)": "30789"
			},
			"internal": {
				"randomGenerator(address,uint256)": "infinite"
			}
		},
		"methodIdentifiers": {
			"MAX_TOKEN_COUNT()": "d0bbb0d7",
			"TOKEN_RANK_LENGTH()": "64eeeb73",
			"TOKEN_TYPE_LENGTH()": "07c7f4eb",
			"approve(address,uint256)": "095ea7b3",
			"balanceOf(address)": "70a08231",
			"gemTokenCount(uint256,uint256)": "33bea36b",
			"gemTokenData(uint256)": "fdef166b",
			"gemTokenPrice()": "0700bfef",
			"getApproved(uint256)": "081812fc",
			"getGemTokenCount()": "3158357f",
			"getGemTokenType(uint256)": "a3805054",
			"giveWhiteList(address)": "e0f67eb2",
			"isApprovedForAll(address,address)": "e985e9c5",
			"isWhiteList(address)": "f99031a7",
			"metadataURI()": "03ee438c",
			"mintGemToken()": "d31cc788",
			"name()": "06fdde03",
			"owner()": "8da5cb5b",
			"ownerOf(uint256)": "6352211e",
			"renounceOwnership()": "715018a6",
			"safeTransferFrom(address,address,uint256)": "42842e0e",
			"safeTransferFrom(address,address,uint256,bytes)": "b88d4fde",
			"setApprovalForAll(address,bool)": "a22cb465",
			"supportsInterface(bytes4)": "01ffc9a7",
			"symbol()": "95d89b41",
			"tokenByIndex(uint256)": "4f6ccce7",
			"tokenOfOwnerByIndex(address,uint256)": "2f745c59",
			"tokenURI(uint256)": "c87b56dd",
			"totalSupply()": "18160ddd",
			"transferFrom(address,address,uint256)": "23b872dd",
			"transferOwnership(address)": "f2fde38b"
		}
	},
	"abi": [
		{
			"inputs": [
				{
					"internalType": "string",
					"name": "_name",
					"type": "string"
				},
				{
					"internalType": "string",
					"name": "_symbol",
					"type": "string"
				},
				{
					"internalType": "string",
					"name": "_metadataURI",
					"type": "string"
				}
			],
			"stateMutability": "nonpayable",
			"type": "constructor"
		},
		{
			"anonymous": false,
			"inputs": [
				{
					"indexed": true,
					"internalType": "address",
					"name": "owner",
					"type": "address"
				},
				{
					"indexed": true,
					"internalType": "address",
					"name": "approved",
					"type": "address"
				},
				{
					"indexed": true,
					"internalType": "uint256",
					"name": "tokenId",
					"type": "uint256"
				}
			],
			"name": "Approval",
			"type": "event"
		},
		{
			"anonymous": false,
			"inputs": [
				{
					"indexed": true,
					"internalType": "address",
					"name": "owner",
					"type": "address"
				},
				{
					"indexed": true,
					"internalType": "address",
					"name": "operator",
					"type": "address"
				},
				{
					"indexed": false,
					"internalType": "bool",
					"name": "approved",
					"type": "bool"
				}
			],
			"name": "ApprovalForAll",
			"type": "event"
		},
		{
			"anonymous": false,
			"inputs": [
				{
					"indexed": true,
					"internalType": "address",
					"name": "previousOwner",
					"type": "address"
				},
				{
					"indexed": true,
					"internalType": "address",
					"name": "newOwner",
					"type": "address"
				}
			],
			"name": "OwnershipTransferred",
			"type": "event"
		},
		{
			"anonymous": false,
			"inputs": [
				{
					"indexed": true,
					"internalType": "address",
					"name": "from",
					"type": "address"
				},
				{
					"indexed": true,
					"internalType": "address",
					"name": "to",
					"type": "address"
				},
				{
					"indexed": true,
					"internalType": "uint256",
					"name": "tokenId",
					"type": "uint256"
				}
			],
			"name": "Transfer",
			"type": "event"
		},
		{
			"inputs": [],
			"name": "MAX_TOKEN_COUNT",
			"outputs": [
				{
					"internalType": "uint256",
					"name": "",
					"type": "uint256"
				}
			],
			"stateMutability": "view",
			"type": "function"
		},
		{
			"inputs": [],
			"name": "TOKEN_RANK_LENGTH",
			"outputs": [
				{
					"internalType": "uint256",
					"name": "",
					"type": "uint256"
				}
			],
			"stateMutability": "view",
			"type": "function"
		},
		{
			"inputs": [],
			"name": "TOKEN_TYPE_LENGTH",
			"outputs": [
				{
					"internalType": "uint256",
					"name": "",
					"type": "uint256"
				}
			],
			"stateMutability": "view",
			"type": "function"
		},
		{
			"inputs": [
				{
					"internalType": "address",
					"name": "to",
					"type": "address"
				},
				{
					"internalType": "uint256",
					"name": "tokenId",
					"type": "uint256"
				}
			],
			"name": "approve",
			"outputs": [],
			"stateMutability": "nonpayable",
			"type": "function"
		},
		{
			"inputs": [
				{
					"internalType": "address",
					"name": "owner",
					"type": "address"
				}
			],
			"name": "balanceOf",
			"outputs": [
				{
					"internalType": "uint256",
					"name": "",
					"type": "uint256"
				}
			],
			"stateMutability": "view",
			"type": "function"
		},
		{
			"inputs": [
				{
					"internalType": "uint256",
					"name": "",
					"type": "uint256"
				},
				{
					"internalType": "uint256",
					"name": "",
					"type": "uint256"
				}
			],
			"name": "gemTokenCount",
			"outputs": [
				{
					"internalType": "uint256",
					"name": "",
					"type": "uint256"
				}
			],
			"stateMutability": "view",
			"type": "function"
		},
		{
			"inputs": [
				{
					"internalType": "uint256",
					"name": "",
					"type": "uint256"
				}
			],
			"name": "gemTokenData",
			"outputs": [
				{
					"internalType": "uint256",
					"name": "gemTokenType",
					"type": "uint256"
				}
			],
			"stateMutability": "view",
			"type": "function"
		},
		{
			"inputs": [],
			"name": "gemTokenPrice",
			"outputs": [
				{
					"internalType": "uint256",
					"name": "",
					"type": "uint256"
				}
			],
			"stateMutability": "view",
			"type": "function"
		},
		{
			"inputs": [
				{
					"internalType": "uint256",
					"name": "tokenId",
					"type": "uint256"
				}
			],
			"name": "getApproved",
			"outputs": [
				{
					"internalType": "address",
					"name": "",
					"type": "address"
				}
			],
			"stateMutability": "view",
			"type": "function"
		},
		{
			"inputs": [],
			"name": "getGemTokenCount",
			"outputs": [
				{
					"internalType": "uint256[4][4]",
					"name": "",
					"type": "uint256[4][4]"
				}
			],
			"stateMutability": "view",
			"type": "function"
		},
		{
			"inputs": [
				{
					"internalType": "uint256",
					"name": "_tokenId",
					"type": "uint256"
				}
			],
			"name": "getGemTokenType",
			"outputs": [
				{
					"internalType": "uint256",
					"name": "",
					"type": "uint256"
				}
			],
			"stateMutability": "view",
			"type": "function"
		},
		{
			"inputs": [
				{
					"internalType": "address",
					"name": "_toWhiteList",
					"type": "address"
				}
			],
			"name": "giveWhiteList",
			"outputs": [],
			"stateMutability": "nonpayable",
			"type": "function"
		},
		{
			"inputs": [
				{
					"internalType": "address",
					"name": "owner",
					"type": "address"
				},
				{
					"internalType": "address",
					"name": "operator",
					"type": "address"
				}
			],
			"name": "isApprovedForAll",
			"outputs": [
				{
					"internalType": "bool",
					"name": "",
					"type": "bool"
				}
			],
			"stateMutability": "view",
			"type": "function"
		},
		{
			"inputs": [
				{
					"internalType": "address",
					"name": "",
					"type": "address"
				}
			],
			"name": "isWhiteList",
			"outputs": [
				{
					"internalType": "bool",
					"name": "",
					"type": "bool"
				}
			],
			"stateMutability": "view",
			"type": "function"
		},
		{
			"inputs": [],
			"name": "metadataURI",
			"outputs": [
				{
					"internalType": "string",
					"name": "",
					"type": "string"
				}
			],
			"stateMutability": "view",
			"type": "function"
		},
		{
			"inputs": [],
			"name": "mintGemToken",
			"outputs": [],
			"stateMutability": "nonpayable",
			"type": "function"
		},
		{
			"inputs": [],
			"name": "name",
			"outputs": [
				{
					"internalType": "string",
					"name": "",
					"type": "string"
				}
			],
			"stateMutability": "view",
			"type": "function"
		},
		{
			"inputs": [],
			"name": "owner",
			"outputs": [
				{
					"internalType": "address",
					"name": "",
					"type": "address"
				}
			],
			"stateMutability": "view",
			"type": "function"
		},
		{
			"inputs": [
				{
					"internalType": "uint256",
					"name": "tokenId",
					"type": "uint256"
				}
			],
			"name": "ownerOf",
			"outputs": [
				{
					"internalType": "address",
					"name": "",
					"type": "address"
				}
			],
			"stateMutability": "view",
			"type": "function"
		},
		{
			"inputs": [],
			"name": "renounceOwnership",
			"outputs": [],
			"stateMutability": "nonpayable",
			"type": "function"
		},
		{
			"inputs": [
				{
					"internalType": "address",
					"name": "from",
					"type": "address"
				},
				{
					"internalType": "address",
					"name": "to",
					"type": "address"
				},
				{
					"internalType": "uint256",
					"name": "tokenId",
					"type": "uint256"
				}
			],
			"name": "safeTransferFrom",
			"outputs": [],
			"stateMutability": "nonpayable",
			"type": "function"
		},
		{
			"inputs": [
				{
					"internalType": "address",
					"name": "from",
					"type": "address"
				},
				{
					"internalType": "address",
					"name": "to",
					"type": "address"
				},
				{
					"internalType": "uint256",
					"name": "tokenId",
					"type": "uint256"
				},
				{
					"internalType": "bytes",
					"name": "_data",
					"type": "bytes"
				}
			],
			"name": "safeTransferFrom",
			"outputs": [],
			"stateMutability": "nonpayable",
			"type": "function"
		},
		{
			"inputs": [
				{
					"internalType": "address",
					"name": "operator",
					"type": "address"
				},
				{
					"internalType": "bool",
					"name": "approved",
					"type": "bool"
				}
			],
			"name": "setApprovalForAll",
			"outputs": [],
			"stateMutability": "nonpayable",
			"type": "function"
		},
		{
			"inputs": [
				{
					"internalType": "bytes4",
					"name": "interfaceId",
					"type": "bytes4"
				}
			],
			"name": "supportsInterface",
			"outputs": [
				{
					"internalType": "bool",
					"name": "",
					"type": "bool"
				}
			],
			"stateMutability": "view",
			"type": "function"
		},
		{
			"inputs": [],
			"name": "symbol",
			"outputs": [
				{
					"internalType": "string",
					"name": "",
					"type": "string"
				}
			],
			"stateMutability": "view",
			"type": "function"
		},
		{
			"inputs": [
				{
					"internalType": "uint256",
					"name": "index",
					"type": "uint256"
				}
			],
			"name": "tokenByIndex",
			"outputs": [
				{
					"internalType": "uint256",
					"name": "",
					"type": "uint256"
				}
			],
			"stateMutability": "view",
			"type": "function"
		},
		{
			"inputs": [
				{
					"internalType": "address",
					"name": "owner",
					"type": "address"
				},
				{
					"internalType": "uint256",
					"name": "index",
					"type": "uint256"
				}
			],
			"name": "tokenOfOwnerByIndex",
			"outputs": [
				{
					"internalType": "uint256",
					"name": "",
					"type": "uint256"
				}
			],
			"stateMutability": "view",
			"type": "function"
		},
		{
			"inputs": [
				{
					"internalType": "uint256",
					"name": "_tokenId",
					"type": "uint256"
				}
			],
			"name": "tokenURI",
			"outputs": [
				{
					"internalType": "string",
					"name": "",
					"type": "string"
				}
			],
			"stateMutability": "view",
			"type": "function"
		},
		{
			"inputs": [],
			"name": "totalSupply",
			"outputs": [
				{
					"internalType": "uint256",
					"name": "",
					"type": "uint256"
				}
			],
			"stateMutability": "view",
			"type": "function"
		},
		{
			"inputs": [
				{
					"internalType": "address",
					"name": "from",
					"type": "address"
				},
				{
					"internalType": "address",
					"name": "to",
					"type": "address"
				},
				{
					"internalType": "uint256",
					"name": "tokenId",
					"type": "uint256"
				}
			],
			"name": "transferFrom",
			"outputs": [],
			"stateMutability": "nonpayable",
			"type": "function"
		},
		{
			"inputs": [
				{
					"internalType": "address",
					"name": "newOwner",
					"type": "address"
				}
			],
			"name": "transferOwnership",
			"outputs": [],
			"stateMutability": "nonpayable",
			"type": "function"
		}
	]
}