{
	"data": {
		"bytecode": {
			"linkReferences": {},
			"object": "6080604052671bc16d674ec80000600d60006101000a81548167ffffffffffffffff021916908367ffffffffffffffff1602179055503480156200004257600080fd5b506040516200542338038062005423833981810160405281019062000068919062000529565b6040518060400160405280600781526020017f4a6f6c616d616e000000000000000000000000000000000000000000000000008152506040518060400160405280600281526020017f4a4c0000000000000000000000000000000000000000000000000000000000008152508160009080519060200190620000ec929190620003fb565b50806001908051906020019062000105929190620003fb565b505050620001286200011c620001d060201b60201c565b620001d860201b60201c565b33600f60006101000a81548173ffffffffffffffffffffffffffffffffffffffff021916908373ffffffffffffffffffffffffffffffffffffffff160217905550806010908051906020019062000181929190620003fb565b50620001976000801b336200029e60201b60201c565b620001c97f9f2df0fed2c77648de5860a4cc508cd0818c85b8b8a1ab4ceeef8d981c8956a6336200029e60201b60201c565b50620006fe565b600033905090565b6000600a60009054906101000a900473ffffffffffffffffffffffffffffffffffffffff16905081600a60006101000a81548173ffffffffffffffffffffffffffffffffffffffff021916908373ffffffffffffffffffffffffffffffffffffffff1602179055508173ffffffffffffffffffffffffffffffffffffffff168173ffffffffffffffffffffffffffffffffffffffff167f8be0079c531659141344cd1fd0a4f28419497f9722a3daafe3b4186f6b6457e060405160405180910390a35050565b620002b082826200039060201b60201c565b6200038c576001600b600084815260200190815260200160002060000160008373ffffffffffffffffffffffffffffffffffffffff1673ffffffffffffffffffffffffffffffffffffffff16815260200190815260200160002060006101000a81548160ff02191690831515021790555062000331620001d060201b60201c565b73ffffffffffffffffffffffffffffffffffffffff168173ffffffffffffffffffffffffffffffffffffffff16837f2f8788117e7eff1d82e926ec794901d17c78024a50270940304540a733656f0d60405160405180910390a45b5050565b6000600b600084815260200190815260200160002060000160008373ffffffffffffffffffffffffffffffffffffffff1673ffffffffffffffffffffffffffffffffffffffff16815260200190815260200160002060009054906101000a900460ff16905092915050565b82805462000409906200060f565b90600052602060002090601f0160209004810192826200042d576000855562000479565b82601f106200044857805160ff191683800117855562000479565b8280016001018555821562000479579182015b82811115620004785782518255916020019190600101906200045b565b5b5090506200048891906200048c565b5090565b5b80821115620004a75760008160009055506001016200048d565b5090565b6000620004c2620004bc84620005a3565b6200057a565b905082815260208101848484011115620004e157620004e0620006de565b5b620004ee848285620005d9565b509392505050565b600082601f8301126200050e576200050d620006d9565b5b815162000520848260208601620004ab565b91505092915050565b600060208284031215620005425762000541620006e8565b5b600082015167ffffffffffffffff811115620005635762000562620006e3565b5b6200057184828501620004f6565b91505092915050565b60006200058662000599565b905062000594828262000645565b919050565b6000604051905090565b600067ffffffffffffffff821115620005c157620005c0620006aa565b5b620005cc82620006ed565b9050602081019050919050565b60005b83811015620005f9578082015181840152602081019050620005dc565b8381111562000609576000848401525b50505050565b600060028204905060018216806200062857607f821691505b602082108114156200063f576200063e6200067b565b5b50919050565b6200065082620006ed565b810181811067ffffffffffffffff82111715620006725762000671620006aa565b5b80604052505050565b7f4e487b7100000000000000000000000000000000000000000000000000000000600052602260045260246000fd5b7f4e487b7100000000000000000000000000000000000000000000000000000000600052604160045260246000fd5b600080fd5b600080fd5b600080fd5b600080fd5b6000601f19601f8301169050919050565b614d15806200070e6000396000f3fe6080604052600436106102515760003560e01c80635aa961e511610139578063a22cb465116100b6578063d53913931161007a578063d5391393146108d9578063d547741f14610904578063e7cd4a041461092d578063e985e9c514610956578063f2fde38b14610993578063f99031a7146109bc57610251565b8063a22cb465146107f4578063b2bdfa7b1461081d578063b88d4fde14610848578063c87b56dd14610871578063d0bbb0d7146108ae57610251565b806373ff361b116100fd57806373ff361b1461072c5780638da5cb5b1461073657806391d148541461076157806395d89b411461079e578063a217fddf146107c957610251565b80635aa961e5146106475780636352211e1461067057806364eeeb73146106ad57806370a08231146106d8578063715018a61461071557610251565b8063248a9ca3116101d25780633787412711610196578063378741271461052d5780633e334cf01461056a57806340d097c3146105a757806342842e0e146105c357806342f6487a146105ec5780634f6ccce71461060a57610251565b8063248a9ca3146104365780632f2ff15d146104735780632f745c591461049c57806335db70b5146104d957806336568abe1461050457610251565b8063095ea7b311610219578063095ea7b3146103515780630c401d7e1461037a57806312065fe0146103b757806318160ddd146103e257806323b872dd1461040d57610251565b806301ffc9a71461025657806303ee438c1461029357806306fdde03146102be57806307c7f4eb146102e9578063081812fc14610314575b600080fd5b34801561026257600080fd5b5061027d6004803603810190610278919061357d565b6109f9565b60405161028a9190613d07565b60405180910390f35b34801561029f57600080fd5b506102a8610a0b565b6040516102b59190613d3d565b60405180910390f35b3480156102ca57600080fd5b506102d3610a99565b6040516102e09190613d3d565b60405180910390f35b3480156102f557600080fd5b506102fe610b2b565b60405161030b919061405f565b60405180910390f35b34801561032057600080fd5b5061033b600480360381019061033691906135d7565b610b30565b6040516103489190613ca0565b60405180910390f35b34801561035d57600080fd5b50610378600480360381019061037391906134d0565b610bb5565b005b34801561038657600080fd5b506103a1600480360381019061039c91906135d7565b610ccd565b6040516103ae919061405f565b60405180910390f35b3480156103c357600080fd5b506103cc610cf1565b6040516103d9919061405f565b60405180910390f35b3480156103ee57600080fd5b506103f7610d10565b604051610404919061405f565b60405180910390f35b34801561041957600080fd5b50610434600480360381019061042f91906133ba565b610d1d565b005b34801561044257600080fd5b5061045d60048036038101906104589190613510565b610d7d565b60405161046a9190613d22565b60405180910390f35b34801561047f57600080fd5b5061049a6004803603810190610495919061353d565b610d9d565b005b3480156104a857600080fd5b506104c360048036038101906104be91906134d0565b610dbe565b6040516104d0919061405f565b60405180910390f35b3480156104e557600080fd5b506104ee610e63565b6040516104fb919061407a565b60405180910390f35b34801561051057600080fd5b5061052b6004803603810190610526919061353d565b610e7d565b005b34801561053957600080fd5b50610554600480360381019061054f91906135d7565b610f00565b604051610561919061405f565b60405180910390f35b34801561057657600080fd5b50610591600480360381019061058c91906135d7565b610f1e565b60405161059e919061405f565b60405180910390f35b6105c160048036038101906105bc919061334d565b610f3e565b005b3480156105cf57600080fd5b506105ea60048036038101906105e591906133ba565b61107f565b005b6105f461109f565b6040516106019190613d07565b60405180910390f35b34801561061657600080fd5b50610631600480360381019061062c91906135d7565b61122f565b60405161063e919061405f565b60405180910390f35b34801561065357600080fd5b5061066e60048036038101906106699190613604565b6112a0565b005b34801561067c57600080fd5b50610697600480360381019061069291906135d7565b6112cc565b6040516106a49190613ca0565b60405180910390f35b3480156106b957600080fd5b506106c261137e565b6040516106cf919061405f565b60405180910390f35b3480156106e457600080fd5b506106ff60048036038101906106fa919061334d565b611383565b60405161070c919061405f565b60405180910390f35b34801561072157600080fd5b5061072a61143b565b005b6107346114c3565b005b34801561074257600080fd5b5061074b6114e2565b6040516107589190613ca0565b60405180910390f35b34801561076d57600080fd5b506107886004803603810190610783919061353d565b61150c565b6040516107959190613d07565b60405180910390f35b3480156107aa57600080fd5b506107b3611577565b6040516107c09190613d3d565b60405180910390f35b3480156107d557600080fd5b506107de611609565b6040516107eb9190613d22565b60405180910390f35b34801561080057600080fd5b5061081b60048036038101906108169190613490565b611610565b005b34801561082957600080fd5b50610832611626565b60405161083f9190613ca0565b60405180910390f35b34801561085457600080fd5b5061086f600480360381019061086a919061340d565b61164c565b005b34801561087d57600080fd5b50610898600480360381019061089391906135d7565b6116ae565b6040516108a59190613d3d565b60405180910390f35b3480156108ba57600080fd5b506108c36116fe565b6040516108d0919061405f565b60405180910390f35b3480156108e557600080fd5b506108ee611704565b6040516108fb9190613d22565b60405180910390f35b34801561091057600080fd5b5061092b6004803603810190610926919061353d565b611728565b005b34801561093957600080fd5b50610954600480360381019061094f919061334d565b611749565b005b34801561096257600080fd5b5061097d6004803603810190610978919061337a565b611820565b60405161098a9190613d07565b60405180910390f35b34801561099f57600080fd5b506109ba60048036038101906109b5919061334d565b6118b4565b005b3480156109c857600080fd5b506109e360048036038101906109de919061334d565b6119ac565b6040516109f09190613d07565b60405180910390f35b6000610a04826119cc565b9050919050565b60108054610a1890614361565b80601f0160208091040260200160405190810160405280929190818152602001828054610a4490614361565b8015610a915780601f10610a6657610100808354040283529160200191610a91565b820191906000526020600020905b815481529060010190602001808311610a7457829003601f168201915b505050505081565b606060008054610aa890614361565b80601f0160208091040260200160405190810160405280929190818152602001828054610ad490614361565b8015610b215780601f10610af657610100808354040283529160200191610b21565b820191906000526020600020905b815481529060010190602001808311610b0457829003601f168201915b5050505050905090565b600481565b6000610b3b82611a46565b610b7a576040517f08c379a0000000000000000000000000000000000000000000000000000000008152600401610b7190613f7f565b60405180910390fd5b6004600083815260200190815260200160002060009054906101000a900473ffffffffffffffffffffffffffffffffffffffff169050919050565b6000610bc0826112cc565b90508073ffffffffffffffffffffffffffffffffffffffff168373ffffffffffffffffffffffffffffffffffffffff161415610c31576040517f08c379a0000000000000000000000000000000000000000000000000000000008152600401610c2890613fbf565b60405180910390fd5b8073ffffffffffffffffffffffffffffffffffffffff16610c50611ab2565b73ffffffffffffffffffffffffffffffffffffffff161480610c7f5750610c7e81610c79611ab2565b611820565b5b610cbe576040517f08c379a0000000000000000000000000000000000000000000000000000000008152600401610cb590613edf565b60405180910390fd5b610cc88383611aba565b505050565b60118181548110610cdd57600080fd5b906000526020600020016000915090505481565b60003373ffffffffffffffffffffffffffffffffffffffff1631905090565b6000600880549050905090565b610d2e610d28611ab2565b82611b73565b610d6d576040517f08c379a0000000000000000000000000000000000000000000000000000000008152600401610d6490613fdf565b60405180910390fd5b610d78838383611c51565b505050565b6000600b6000838152602001908152602001600020600101549050919050565b610da682610d7d565b610daf81611eb8565b610db98383611ecc565b505050565b6000610dc983611383565b8210610e0a576040517f08c379a0000000000000000000000000000000000000000000000000000000008152600401610e0190613d7f565b60405180910390fd5b600660008473ffffffffffffffffffffffffffffffffffffffff1673ffffffffffffffffffffffffffffffffffffffff168152602001908152602001600020600083815260200190815260200160002054905092915050565b600d60009054906101000a900467ffffffffffffffff1681565b610e85611ab2565b73ffffffffffffffffffffffffffffffffffffffff168173ffffffffffffffffffffffffffffffffffffffff1614610ef2576040517f08c379a0000000000000000000000000000000000000000000000000000000008152600401610ee99061403f565b60405180910390fd5b610efc8282611fad565b5050565b60126020528060005260406000206000915090508060000154905081565b600060126000838152602001908152602001600020600001549050919050565b7f9f2df0fed2c77648de5860a4cc508cd0818c85b8b8a1ab4ceeef8d981c8956a6610f6881611eb8565b610f70610d10565b6103e811610fb3576040517f08c379a0000000000000000000000000000000000000000000000000000000008152600401610faa90613f5f565b60405180910390fd5b34600d60009054906101000a900467ffffffffffffffff1667ffffffffffffffff161115611016576040517f08c379a000000000000000000000000000000000000000000000000000000000815260040161100d90613ebf565b60405180910390fd5b6000611022600c61208f565b905061102e600c61209d565b600061103a33836120b3565b90506040518060200160405280826000015181525060126000848152602001908152602001600020600082015181600001559050506110798483612184565b50505050565b61109a8383836040518060200160405280600081525061164c565b505050565b60006110a961235e565b6110e8576040517f08c379a00000000000000000000000000000000000000000000000000000000081526004016110df9061401f565b60405180910390fd5b6110f0612390565b61112f576040517f08c379a000000000000000000000000000000000000000000000000000000000815260040161112690613dff565b60405180910390fd5b6000600f60009054906101000a900473ffffffffffffffffffffffffffffffffffffffff1673ffffffffffffffffffffffffffffffffffffffff163460405161117790613c51565b60006040518083038185875af1925050503d80600081146111b4576040519150601f19603f3d011682016040523d82523d6000602084013e6111b9565b606091505b50509050806111fd576040517f08c379a00000000000000000000000000000000000000000000000000000000081526004016111f490613e3f565b60405180910390fd5b6112277f9f2df0fed2c77648de5860a4cc508cd0818c85b8b8a1ab4ceeef8d981c8956a633611ecc565b600191505090565b6000611239610d10565b821061127a576040517f08c379a000000000000000000000000000000000000000000000000000000000815260040161127190613fff565b60405180910390fd5b6008828154811061128e5761128d614532565b5b90600052602060002001549050919050565b80600d60006101000a81548167ffffffffffffffff021916908367ffffffffffffffff16021790555050565b6000806002600084815260200190815260200160002060009054906101000a900473ffffffffffffffffffffffffffffffffffffffff169050600073ffffffffffffffffffffffffffffffffffffffff168173ffffffffffffffffffffffffffffffffffffffff161415611375576040517f08c379a000000000000000000000000000000000000000000000000000000000815260040161136c90613f1f565b60405180910390fd5b80915050919050565b600481565b60008073ffffffffffffffffffffffffffffffffffffffff168273ffffffffffffffffffffffffffffffffffffffff1614156113f4576040517f08c379a00000000000000000000000000000000000000000000000000000000081526004016113eb90613eff565b60405180910390fd5b600360008373ffffffffffffffffffffffffffffffffffffffff1673ffffffffffffffffffffffffffffffffffffffff168152602001908152602001600020549050919050565b611443611ab2565b73ffffffffffffffffffffffffffffffffffffffff166114616114e2565b73ffffffffffffffffffffffffffffffffffffffff16146114b7576040517f08c379a00000000000000000000000000000000000000000000000000000000081526004016114ae90613f9f565b60405180910390fd5b6114c160006123ca565b565b60006114cd61109f565b905080156114df576114de33610f3e565b5b50565b6000600a60009054906101000a900473ffffffffffffffffffffffffffffffffffffffff16905090565b6000600b600084815260200190815260200160002060000160008373ffffffffffffffffffffffffffffffffffffffff1673ffffffffffffffffffffffffffffffffffffffff16815260200190815260200160002060009054906101000a900460ff16905092915050565b60606001805461158690614361565b80601f01602080910402602001604051908101604052809291908181526020018280546115b290614361565b80156115ff5780601f106115d4576101008083540402835291602001916115ff565b820191906000526020600020905b8154815290600101906020018083116115e257829003601f168201915b5050505050905090565b6000801b81565b61162261161b611ab2565b8383612490565b5050565b600f60009054906101000a900473ffffffffffffffffffffffffffffffffffffffff1681565b61165d611657611ab2565b83611b73565b61169c576040517f08c379a000000000000000000000000000000000000000000000000000000000815260040161169390613fdf565b60405180910390fd5b6116a8848484846125fd565b50505050565b606060006116d16012600085815260200190815260200160002060000154612659565b90506010816040516020016116e7929190613c17565b604051602081830303815290604052915050919050565b6103e881565b7f9f2df0fed2c77648de5860a4cc508cd0818c85b8b8a1ab4ceeef8d981c8956a681565b61173182610d7d565b61173a81611eb8565b6117448383611fad565b505050565b611751611ab2565b73ffffffffffffffffffffffffffffffffffffffff1661176f6114e2565b73ffffffffffffffffffffffffffffffffffffffff16146117c5576040517f08c379a00000000000000000000000000000000000000000000000000000000081526004016117bc90613f9f565b60405180910390fd5b6001601360008373ffffffffffffffffffffffffffffffffffffffff1673ffffffffffffffffffffffffffffffffffffffff16815260200190815260200160002060006101000a81548160ff02191690831515021790555050565b6000600560008473ffffffffffffffffffffffffffffffffffffffff1673ffffffffffffffffffffffffffffffffffffffff16815260200190815260200160002060008373ffffffffffffffffffffffffffffffffffffffff1673ffffffffffffffffffffffffffffffffffffffff16815260200190815260200160002060009054906101000a900460ff16905092915050565b6118bc611ab2565b73ffffffffffffffffffffffffffffffffffffffff166118da6114e2565b73ffffffffffffffffffffffffffffffffffffffff1614611930576040517f08c379a000000000000000000000000000000000000000000000000000000000815260040161192790613f9f565b60405180910390fd5b600073ffffffffffffffffffffffffffffffffffffffff168173ffffffffffffffffffffffffffffffffffffffff1614156119a0576040517f08c379a000000000000000000000000000000000000000000000000000000000815260040161199790613dbf565b60405180910390fd5b6119a9816123ca565b50565b60136020528060005260406000206000915054906101000a900460ff1681565b60007f7965db0b000000000000000000000000000000000000000000000000000000007bffffffffffffffffffffffffffffffffffffffffffffffffffffffff1916827bffffffffffffffffffffffffffffffffffffffffffffffffffffffff19161480611a3f5750611a3e826127ba565b5b9050919050565b60008073ffffffffffffffffffffffffffffffffffffffff166002600084815260200190815260200160002060009054906101000a900473ffffffffffffffffffffffffffffffffffffffff1673ffffffffffffffffffffffffffffffffffffffff1614159050919050565b600033905090565b816004600083815260200190815260200160002060006101000a81548173ffffffffffffffffffffffffffffffffffffffff021916908373ffffffffffffffffffffffffffffffffffffffff160217905550808273ffffffffffffffffffffffffffffffffffffffff16611b2d836112cc565b73ffffffffffffffffffffffffffffffffffffffff167f8c5be1e5ebec7d5bd14f71427d1e84f3dd0314c0f7b2291e5b200ac8c7c3b92560405160405180910390a45050565b6000611b7e82611a46565b611bbd576040517f08c379a0000000000000000000000000000000000000000000000000000000008152600401611bb490613e9f565b60405180910390fd5b6000611bc8836112cc565b90508073ffffffffffffffffffffffffffffffffffffffff168473ffffffffffffffffffffffffffffffffffffffff161480611c0a5750611c098185611820565b5b80611c4857508373ffffffffffffffffffffffffffffffffffffffff16611c3084610b30565b73ffffffffffffffffffffffffffffffffffffffff16145b91505092915050565b8273ffffffffffffffffffffffffffffffffffffffff16611c71826112cc565b73ffffffffffffffffffffffffffffffffffffffff1614611cc7576040517f08c379a0000000000000000000000000000000000000000000000000000000008152600401611cbe90613ddf565b60405180910390fd5b600073ffffffffffffffffffffffffffffffffffffffff168273ffffffffffffffffffffffffffffffffffffffff161415611d37576040517f08c379a0000000000000000000000000000000000000000000000000000000008152600401611d2e90613e5f565b60405180910390fd5b611d42838383612834565b611d4d600082611aba565b6001600360008573ffffffffffffffffffffffffffffffffffffffff1673ffffffffffffffffffffffffffffffffffffffff1681526020019081526020016000206000828254611d9d919061422f565b925050819055506001600360008473ffffffffffffffffffffffffffffffffffffffff1673ffffffffffffffffffffffffffffffffffffffff1681526020019081526020016000206000828254611df4919061414e565b92505081905550816002600083815260200190815260200160002060006101000a81548173ffffffffffffffffffffffffffffffffffffffff021916908373ffffffffffffffffffffffffffffffffffffffff160217905550808273ffffffffffffffffffffffffffffffffffffffff168473ffffffffffffffffffffffffffffffffffffffff167fddf252ad1be2c89b69c2b068fc378daa952ba7f163c4a11628f55a4df523b3ef60405160405180910390a4611eb3838383612948565b505050565b611ec981611ec4611ab2565b61294d565b50565b611ed6828261150c565b611fa9576001600b600084815260200190815260200160002060000160008373ffffffffffffffffffffffffffffffffffffffff1673ffffffffffffffffffffffffffffffffffffffff16815260200190815260200160002060006101000a81548160ff021916908315150217905550611f4e611ab2565b73ffffffffffffffffffffffffffffffffffffffff168173ffffffffffffffffffffffffffffffffffffffff16837f2f8788117e7eff1d82e926ec794901d17c78024a50270940304540a733656f0d60405160405180910390a45b5050565b611fb7828261150c565b1561208b576000600b600084815260200190815260200160002060000160008373ffffffffffffffffffffffffffffffffffffffff1673ffffffffffffffffffffffffffffffffffffffff16815260200190815260200160002060006101000a81548160ff021916908315150217905550612030611ab2565b73ffffffffffffffffffffffffffffffffffffffff168173ffffffffffffffffffffffffffffffffffffffff16837ff6391f5c32d9c69d2a47ea670b442974b53935d1edc7fd64eb21e047a839171b60405160405180910390a45b5050565b600081600001549050919050565b6001816000016000828254019250508190555050565b6120bb613237565b6120c3613237565b6103e8424085856040516020016120dc93929190613bda565b6040516020818303038152906040528051906020012060001c6120ff9190614445565b8160000181815250506103e84240858560405160200161212193929190613bda565b6040516020818303038152906040528051906020012060001c6121449190614445565b8160000181815250506011816000015190806001815401808255809150506001900390600052602060002001600090919091909150558091505092915050565b600073ffffffffffffffffffffffffffffffffffffffff168273ffffffffffffffffffffffffffffffffffffffff1614156121f4576040517f08c379a00000000000000000000000000000000000000000000000000000000081526004016121eb90613f3f565b60405180910390fd5b6121fd81611a46565b1561223d576040517f08c379a000000000000000000000000000000000000000000000000000000000815260040161223490613e1f565b60405180910390fd5b61224960008383612834565b6001600360008473ffffffffffffffffffffffffffffffffffffffff1673ffffffffffffffffffffffffffffffffffffffff1681526020019081526020016000206000828254612299919061414e565b92505081905550816002600083815260200190815260200160002060006101000a81548173ffffffffffffffffffffffffffffffffffffffff021916908373ffffffffffffffffffffffffffffffffffffffff160217905550808273ffffffffffffffffffffffffffffffffffffffff16600073ffffffffffffffffffffffffffffffffffffffff167fddf252ad1be2c89b69c2b068fc378daa952ba7f163c4a11628f55a4df523b3ef60405160405180910390a461235a60008383612948565b5050565b6000343373ffffffffffffffffffffffffffffffffffffffff16311015612388576000905061238d565b600190505b90565b600034600d60009054906101000a900467ffffffffffffffff1667ffffffffffffffff16146123c257600090506123c7565b600190505b90565b6000600a60009054906101000a900473ffffffffffffffffffffffffffffffffffffffff16905081600a60006101000a81548173ffffffffffffffffffffffffffffffffffffffff021916908373ffffffffffffffffffffffffffffffffffffffff1602179055508173ffffffffffffffffffffffffffffffffffffffff168173ffffffffffffffffffffffffffffffffffffffff167f8be0079c531659141344cd1fd0a4f28419497f9722a3daafe3b4186f6b6457e060405160405180910390a35050565b8173ffffffffffffffffffffffffffffffffffffffff168373ffffffffffffffffffffffffffffffffffffffff1614156124ff576040517f08c379a00000000000000000000000000000000000000000000000000000000081526004016124f690613e7f565b60405180910390fd5b80600560008573ffffffffffffffffffffffffffffffffffffffff1673ffffffffffffffffffffffffffffffffffffffff16815260200190815260200160002060008473ffffffffffffffffffffffffffffffffffffffff1673ffffffffffffffffffffffffffffffffffffffff16815260200190815260200160002060006101000a81548160ff0219169083151502179055508173ffffffffffffffffffffffffffffffffffffffff168373ffffffffffffffffffffffffffffffffffffffff167f17307eab39ab6107e8899845ad3d59bd9653f200f220920489ca2b5937696c31836040516125f09190613d07565b60405180910390a3505050565b612608848484611c51565b612614848484846129ea565b612653576040517f08c379a000000000000000000000000000000000000000000000000000000000815260040161264a90613d9f565b60405180910390fd5b50505050565b606060008214156126a1576040518060400160405280600181526020017f300000000000000000000000000000000000000000000000000000000000000081525090506127b5565b600082905060005b600082146126d35780806126bc906143c4565b915050600a826126cc91906141a4565b91506126a9565b60008167ffffffffffffffff8111156126ef576126ee614561565b5b6040519080825280601f01601f1916602001820160405280156127215781602001600182028036833780820191505090505b5090505b600085146127ae5760018261273a919061422f565b9150600a856127499190614445565b6030612755919061414e565b60f81b81838151811061276b5761276a614532565b5b60200101907effffffffffffffffffffffffffffffffffffffffffffffffffffffffffffff1916908160001a905350600a856127a791906141a4565b9450612725565b8093505050505b919050565b60007f780e9d63000000000000000000000000000000000000000000000000000000007bffffffffffffffffffffffffffffffffffffffffffffffffffffffff1916827bffffffffffffffffffffffffffffffffffffffffffffffffffffffff1916148061282d575061282c82612b81565b5b9050919050565b61283f838383612c63565b600073ffffffffffffffffffffffffffffffffffffffff168373ffffffffffffffffffffffffffffffffffffffff1614156128825761287d81612c68565b6128c1565b8173ffffffffffffffffffffffffffffffffffffffff168373ffffffffffffffffffffffffffffffffffffffff16146128c0576128bf8382612cb1565b5b5b600073ffffffffffffffffffffffffffffffffffffffff168273ffffffffffffffffffffffffffffffffffffffff161415612904576128ff81612e1e565b612943565b8273ffffffffffffffffffffffffffffffffffffffff168273ffffffffffffffffffffffffffffffffffffffff1614612942576129418282612eef565b5b5b505050565b505050565b612957828261150c565b6129e65761297c8173ffffffffffffffffffffffffffffffffffffffff166014612f6e565b61298a8360001c6020612f6e565b60405160200161299b929190613c66565b6040516020818303038152906040526040517f08c379a00000000000000000000000000000000000000000000000000000000081526004016129dd9190613d3d565b60405180910390fd5b5050565b6000612a0b8473ffffffffffffffffffffffffffffffffffffffff166131aa565b15612b74578373ffffffffffffffffffffffffffffffffffffffff1663150b7a02612a34611ab2565b8786866040518563ffffffff1660e01b8152600401612a569493929190613cbb565b602060405180830381600087803b158015612a7057600080fd5b505af1925050508015612aa157506040513d601f19601f82011682018060405250810190612a9e91906135aa565b60015b612b24573d8060008114612ad1576040519150601f19603f3d011682016040523d82523d6000602084013e612ad6565b606091505b50600081511415612b1c576040517f08c379a0000000000000000000000000000000000000000000000000000000008152600401612b1390613d9f565b60405180910390fd5b805181602001fd5b63150b7a0260e01b7bffffffffffffffffffffffffffffffffffffffffffffffffffffffff1916817bffffffffffffffffffffffffffffffffffffffffffffffffffffffff191614915050612b79565b600190505b949350505050565b60007f80ac58cd000000000000000000000000000000000000000000000000000000007bffffffffffffffffffffffffffffffffffffffffffffffffffffffff1916827bffffffffffffffffffffffffffffffffffffffffffffffffffffffff19161480612c4c57507f5b5e139f000000000000000000000000000000000000000000000000000000007bffffffffffffffffffffffffffffffffffffffffffffffffffffffff1916827bffffffffffffffffffffffffffffffffffffffffffffffffffffffff1916145b80612c5c5750612c5b826131cd565b5b9050919050565b505050565b6008805490506009600083815260200190815260200160002081905550600881908060018154018082558091505060019003906000526020600020016000909190919091505550565b60006001612cbe84611383565b612cc8919061422f565b9050600060076000848152602001908152602001600020549050818114612dad576000600660008673ffffffffffffffffffffffffffffffffffffffff1673ffffffffffffffffffffffffffffffffffffffff168152602001908152602001600020600084815260200190815260200160002054905080600660008773ffffffffffffffffffffffffffffffffffffffff1673ffffffffffffffffffffffffffffffffffffffff168152602001908152602001600020600084815260200190815260200160002081905550816007600083815260200190815260200160002081905550505b6007600084815260200190815260200160002060009055600660008573ffffffffffffffffffffffffffffffffffffffff1673ffffffffffffffffffffffffffffffffffffffff16815260200190815260200160002060008381526020019081526020016000206000905550505050565b60006001600880549050612e32919061422f565b9050600060096000848152602001908152602001600020549050600060088381548110612e6257612e61614532565b5b906000526020600020015490508060088381548110612e8457612e83614532565b5b906000526020600020018190555081600960008381526020019081526020016000208190555060096000858152602001908152602001600020600090556008805480612ed357612ed2614503565b5b6001900381819060005260206000200160009055905550505050565b6000612efa83611383565b905081600660008573ffffffffffffffffffffffffffffffffffffffff1673ffffffffffffffffffffffffffffffffffffffff168152602001908152602001600020600083815260200190815260200160002081905550806007600084815260200190815260200160002081905550505050565b606060006002836002612f8191906141d5565b612f8b919061414e565b67ffffffffffffffff811115612fa457612fa3614561565b5b6040519080825280601f01601f191660200182016040528015612fd65781602001600182028036833780820191505090505b5090507f30000000000000000000000000000000000000000000000000000000000000008160008151811061300e5761300d614532565b5b60200101907effffffffffffffffffffffffffffffffffffffffffffffffffffffffffffff1916908160001a9053507f78000000000000000000000000000000000000000000000000000000000000008160018151811061307257613071614532565b5b60200101907effffffffffffffffffffffffffffffffffffffffffffffffffffffffffffff1916908160001a905350600060018460026130b291906141d5565b6130bc919061414e565b90505b600181111561315c577f3031323334353637383961626364656600000000000000000000000000000000600f8616601081106130fe576130fd614532565b5b1a60f81b82828151811061311557613114614532565b5b60200101907effffffffffffffffffffffffffffffffffffffffffffffffffffffffffffff1916908160001a905350600485901c94508061315590614337565b90506130bf565b50600084146131a0576040517f08c379a000000000000000000000000000000000000000000000000000000000815260040161319790613d5f565b60405180910390fd5b8091505092915050565b6000808273ffffffffffffffffffffffffffffffffffffffff163b119050919050565b60007f01ffc9a7000000000000000000000000000000000000000000000000000000007bffffffffffffffffffffffffffffffffffffffffffffffffffffffff1916827bffffffffffffffffffffffffffffffffffffffffffffffffffffffff1916149050919050565b6040518060200160405280600081525090565b600061325d613258846140ba565b614095565b90508281526020810184848401111561327957613278614595565b5b6132848482856142f5565b509392505050565b60008135905061329b81614c55565b92915050565b6000813590506132b081614c6c565b92915050565b6000813590506132c581614c83565b92915050565b6000813590506132da81614c9a565b92915050565b6000815190506132ef81614c9a565b92915050565b600082601f83011261330a57613309614590565b5b813561331a84826020860161324a565b91505092915050565b60008135905061333281614cb1565b92915050565b60008135905061334781614cc8565b92915050565b6000602082840312156133635761336261459f565b5b60006133718482850161328c565b91505092915050565b600080604083850312156133915761339061459f565b5b600061339f8582860161328c565b92505060206133b08582860161328c565b9150509250929050565b6000806000606084860312156133d3576133d261459f565b5b60006133e18682870161328c565b93505060206133f28682870161328c565b925050604061340386828701613323565b9150509250925092565b600080600080608085870312156134275761342661459f565b5b60006134358782880161328c565b94505060206134468782880161328c565b935050604061345787828801613323565b925050606085013567ffffffffffffffff8111156134785761347761459a565b5b613484878288016132f5565b91505092959194509250565b600080604083850312156134a7576134a661459f565b5b60006134b58582860161328c565b92505060206134c6858286016132a1565b9150509250929050565b600080604083850312156134e7576134e661459f565b5b60006134f58582860161328c565b925050602061350685828601613323565b9150509250929050565b6000602082840312156135265761352561459f565b5b6000613534848285016132b6565b91505092915050565b600080604083850312156135545761355361459f565b5b6000613562858286016132b6565b92505060206135738582860161328c565b9150509250929050565b6000602082840312156135935761359261459f565b5b60006135a1848285016132cb565b91505092915050565b6000602082840312156135c0576135bf61459f565b5b60006135ce848285016132e0565b91505092915050565b6000602082840312156135ed576135ec61459f565b5b60006135fb84828501613323565b91505092915050565b60006020828403121561361a5761361961459f565b5b600061362884828501613338565b91505092915050565b61363a81614263565b82525050565b61365161364c82614263565b61440d565b82525050565b61366081614275565b82525050565b61366f81614281565b82525050565b61368661368182614281565b61441f565b82525050565b600061369782614100565b6136a18185614116565b93506136b1818560208601614304565b6136ba816145a4565b840191505092915050565b60006136d08261410b565b6136da8185614132565b93506136ea818560208601614304565b6136f3816145a4565b840191505092915050565b60006137098261410b565b6137138185614143565b9350613723818560208601614304565b80840191505092915050565b6000815461373c81614361565b6137468186614143565b945060018216600081146137615760018114613772576137a5565b60ff198316865281860193506137a5565b61377b856140eb565b60005b8381101561379d5781548189015260018201915060208101905061377e565b838801955050505b50505092915050565b60006137bb602083614132565b91506137c6826145c2565b602082019050919050565b60006137de602b83614132565b91506137e9826145eb565b604082019050919050565b6000613801603283614132565b915061380c8261463a565b604082019050919050565b6000613824602683614132565b915061382f82614689565b604082019050919050565b6000613847602583614132565b9150613852826146d8565b604082019050919050565b600061386a600b83614132565b915061387582614727565b602082019050919050565b600061388d601c83614132565b915061389882614750565b602082019050919050565b60006138b0601483614132565b91506138bb82614779565b602082019050919050565b60006138d3602483614132565b91506138de826147a2565b604082019050919050565b60006138f6601983614132565b9150613901826147f1565b602082019050919050565b6000613919602c83614132565b91506139248261481a565b604082019050919050565b600061393c600f83614132565b915061394782614869565b602082019050919050565b600061395f603883614132565b915061396a82614892565b604082019050919050565b6000613982602a83614132565b915061398d826148e1565b604082019050919050565b60006139a5602983614132565b91506139b082614930565b604082019050919050565b60006139c8602083614132565b91506139d38261497f565b602082019050919050565b60006139eb601983614132565b91506139f6826149a8565b602082019050919050565b6000613a0e602c83614132565b9150613a19826149d1565b604082019050919050565b6000613a31600583614143565b9150613a3c82614a20565b600582019050919050565b6000613a54602083614132565b9150613a5f82614a49565b602082019050919050565b6000613a77602183614132565b9150613a8282614a72565b604082019050919050565b6000613a9a600083614127565b9150613aa582614ac1565b600082019050919050565b6000613abd603183614132565b9150613ac882614ac4565b604082019050919050565b6000613ae0602c83614132565b9150613aeb82614b13565b604082019050919050565b6000613b03601783614143565b9150613b0e82614b62565b601782019050919050565b6000613b26600d83614132565b9150613b3182614b8b565b602082019050919050565b6000613b49601183614143565b9150613b5482614bb4565b601182019050919050565b6000613b6c602f83614132565b9150613b7782614bdd565b604082019050919050565b6000613b8f600183614143565b9150613b9a82614c2c565b600182019050919050565b613bae816142d7565b82525050565b613bc5613bc0826142d7565b61443b565b82525050565b613bd4816142e1565b82525050565b6000613be68286613675565b602082019150613bf68285613640565b601482019150613c068284613bb4565b602082019150819050949350505050565b6000613c23828561372f565b9150613c2e82613b82565b9150613c3a82846136fe565b9150613c4582613a24565b91508190509392505050565b6000613c5c82613a8d565b9150819050919050565b6000613c7182613af6565b9150613c7d82856136fe565b9150613c8882613b3c565b9150613c9482846136fe565b91508190509392505050565b6000602082019050613cb56000830184613631565b92915050565b6000608082019050613cd06000830187613631565b613cdd6020830186613631565b613cea6040830185613ba5565b8181036060830152613cfc818461368c565b905095945050505050565b6000602082019050613d1c6000830184613657565b92915050565b6000602082019050613d376000830184613666565b92915050565b60006020820190508181036000830152613d5781846136c5565b905092915050565b60006020820190508181036000830152613d78816137ae565b9050919050565b60006020820190508181036000830152613d98816137d1565b9050919050565b60006020820190508181036000830152613db8816137f4565b9050919050565b60006020820190508181036000830152613dd881613817565b9050919050565b60006020820190508181036000830152613df88161383a565b9050919050565b60006020820190508181036000830152613e188161385d565b9050919050565b60006020820190508181036000830152613e3881613880565b9050919050565b60006020820190508181036000830152613e58816138a3565b9050919050565b60006020820190508181036000830152613e78816138c6565b9050919050565b60006020820190508181036000830152613e98816138e9565b9050919050565b60006020820190508181036000830152613eb88161390c565b9050919050565b60006020820190508181036000830152613ed88161392f565b9050919050565b60006020820190508181036000830152613ef881613952565b9050919050565b60006020820190508181036000830152613f1881613975565b9050919050565b60006020820190508181036000830152613f3881613998565b9050919050565b60006020820190508181036000830152613f58816139bb565b9050919050565b60006020820190508181036000830152613f78816139de565b9050919050565b60006020820190508181036000830152613f9881613a01565b9050919050565b60006020820190508181036000830152613fb881613a47565b9050919050565b60006020820190508181036000830152613fd881613a6a565b9050919050565b60006020820190508181036000830152613ff881613ab0565b9050919050565b6000602082019050818103600083015261401881613ad3565b9050919050565b6000602082019050818103600083015261403881613b19565b9050919050565b6000602082019050818103600083015261405881613b5f565b9050919050565b60006020820190506140746000830184613ba5565b92915050565b600060208201905061408f6000830184613bcb565b92915050565b600061409f6140b0565b90506140ab8282614393565b919050565b6000604051905090565b600067ffffffffffffffff8211156140d5576140d4614561565b5b6140de826145a4565b9050602081019050919050565b60008190508160005260206000209050919050565b600081519050919050565b600081519050919050565b600082825260208201905092915050565b600081905092915050565b600082825260208201905092915050565b600081905092915050565b6000614159826142d7565b9150614164836142d7565b9250827fffffffffffffffffffffffffffffffffffffffffffffffffffffffffffffffff0382111561419957614198614476565b5b828201905092915050565b60006141af826142d7565b91506141ba836142d7565b9250826141ca576141c96144a5565b5b828204905092915050565b60006141e0826142d7565b91506141eb836142d7565b9250817fffffffffffffffffffffffffffffffffffffffffffffffffffffffffffffffff048311821515161561422457614223614476565b5b828202905092915050565b600061423a826142d7565b9150614245836142d7565b92508282101561425857614257614476565b5b828203905092915050565b600061426e826142b7565b9050919050565b60008115159050919050565b6000819050919050565b60007fffffffff0000000000000000000000000000000000000000000000000000000082169050919050565b600073ffffffffffffffffffffffffffffffffffffffff82169050919050565b6000819050919050565b600067ffffffffffffffff82169050919050565b82818337600083830152505050565b60005b83811015614322578082015181840152602081019050614307565b83811115614331576000848401525b50505050565b6000614342826142d7565b9150600082141561435657614355614476565b5b600182039050919050565b6000600282049050600182168061437957607f821691505b6020821081141561438d5761438c6144d4565b5b50919050565b61439c826145a4565b810181811067ffffffffffffffff821117156143bb576143ba614561565b5b80604052505050565b60006143cf826142d7565b91507fffffffffffffffffffffffffffffffffffffffffffffffffffffffffffffffff82141561440257614401614476565b5b600182019050919050565b600061441882614429565b9050919050565b6000819050919050565b6000614434826145b5565b9050919050565b6000819050919050565b6000614450826142d7565b915061445b836142d7565b92508261446b5761446a6144a5565b5b828206905092915050565b7f4e487b7100000000000000000000000000000000000000000000000000000000600052601160045260246000fd5b7f4e487b7100000000000000000000000000000000000000000000000000000000600052601260045260246000fd5b7f4e487b7100000000000000000000000000000000000000000000000000000000600052602260045260246000fd5b7f4e487b7100000000000000000000000000000000000000000000000000000000600052603160045260246000fd5b7f4e487b7100000000000000000000000000000000000000000000000000000000600052603260045260246000fd5b7f4e487b7100000000000000000000000000000000000000000000000000000000600052604160045260246000fd5b600080fd5b600080fd5b600080fd5b600080fd5b6000601f19601f8301169050919050565b60008160601b9050919050565b7f537472696e67733a20686578206c656e67746820696e73756666696369656e74600082015250565b7f455243373231456e756d657261626c653a206f776e657220696e646578206f7560008201527f74206f6620626f756e6473000000000000000000000000000000000000000000602082015250565b7f4552433732313a207472616e7366657220746f206e6f6e20455243373231526560008201527f63656976657220696d706c656d656e7465720000000000000000000000000000602082015250565b7f4f776e61626c653a206e6577206f776e657220697320746865207a65726f206160008201527f6464726573730000000000000000000000000000000000000000000000000000602082015250565b7f4552433732313a207472616e736665722066726f6d20696e636f72726563742060008201527f6f776e6572000000000000000000000000000000000000000000000000000000602082015250565b7f636865636b207072696365000000000000000000000000000000000000000000600082015250565b7f4552433732313a20746f6b656e20616c7265616479206d696e74656400000000600082015250565b7f4661696c656420746f2073656e64206d6f6e6579000000000000000000000000600082015250565b7f4552433732313a207472616e7366657220746f20746865207a65726f2061646460008201527f7265737300000000000000000000000000000000000000000000000000000000602082015250565b7f4552433732313a20617070726f766520746f2063616c6c657200000000000000600082015250565b7f4552433732313a206f70657261746f7220717565727920666f72206e6f6e657860008201527f697374656e7420746f6b656e0000000000000000000000000000000000000000602082015250565b7f4e6f7420656e6f756768206b6c61790000000000000000000000000000000000600082015250565b7f4552433732313a20617070726f76652063616c6c6572206973206e6f74206f7760008201527f6e6572206e6f7220617070726f76656420666f7220616c6c0000000000000000602082015250565b7f4552433732313a2062616c616e636520717565727920666f7220746865207a6560008201527f726f206164647265737300000000000000000000000000000000000000000000602082015250565b7f4552433732313a206f776e657220717565727920666f72206e6f6e657869737460008201527f656e7420746f6b656e0000000000000000000000000000000000000000000000602082015250565b7f4552433732313a206d696e7420746f20746865207a65726f2061646472657373600082015250565b7f4e6f6d6f7265206d696e74696e20697320706f737369626c6500000000000000600082015250565b7f4552433732313a20617070726f76656420717565727920666f72206e6f6e657860008201527f697374656e7420746f6b656e0000000000000000000000000000000000000000602082015250565b7f2e6a736f6e000000000000000000000000000000000000000000000000000000600082015250565b7f4f776e61626c653a2063616c6c6572206973206e6f7420746865206f776e6572600082015250565b7f4552433732313a20617070726f76616c20746f2063757272656e74206f776e6560008201527f7200000000000000000000000000000000000000000000000000000000000000602082015250565b50565b7f4552433732313a207472616e736665722063616c6c6572206973206e6f74206f60008201527f776e6572206e6f7220617070726f766564000000000000000000000000000000602082015250565b7f455243373231456e756d657261626c653a20676c6f62616c20696e646578206f60008201527f7574206f6620626f756e64730000000000000000000000000000000000000000602082015250565b7f416363657373436f6e74726f6c3a206163636f756e7420000000000000000000600082015250565b7f636865636b2062616c616e636500000000000000000000000000000000000000600082015250565b7f206973206d697373696e6720726f6c6520000000000000000000000000000000600082015250565b7f416363657373436f6e74726f6c3a2063616e206f6e6c792072656e6f756e636560008201527f20726f6c657320666f722073656c660000000000000000000000000000000000602082015250565b7f2f00000000000000000000000000000000000000000000000000000000000000600082015250565b614c5e81614263565b8114614c6957600080fd5b50565b614c7581614275565b8114614c8057600080fd5b50565b614c8c81614281565b8114614c9757600080fd5b50565b614ca38161428b565b8114614cae57600080fd5b50565b614cba816142d7565b8114614cc557600080fd5b50565b614cd1816142e1565b8114614cdc57600080fd5b5056fea2646970667358221220ae1c880570886bd787e88a818c58ecf4953f9ae2939296e46a9f4c28a617ab9064736f6c63430008070033",
			"opcodes": "PUSH1 0x80 PUSH1 0x40 MSTORE PUSH8 0x1BC16D674EC80000 PUSH1 0xD PUSH1 0x0 PUSH2 0x100 EXP DUP2 SLOAD DUP2 PUSH8 0xFFFFFFFFFFFFFFFF MUL NOT AND SWAP1 DUP4 PUSH8 0xFFFFFFFFFFFFFFFF AND MUL OR SWAP1 SSTORE POP CALLVALUE DUP1 ISZERO PUSH3 0x42 JUMPI PUSH1 0x0 DUP1 REVERT JUMPDEST POP PUSH1 0x40 MLOAD PUSH3 0x5423 CODESIZE SUB DUP1 PUSH3 0x5423 DUP4 CODECOPY DUP2 DUP2 ADD PUSH1 0x40 MSTORE DUP2 ADD SWAP1 PUSH3 0x68 SWAP2 SWAP1 PUSH3 0x529 JUMP JUMPDEST PUSH1 0x40 MLOAD DUP1 PUSH1 0x40 ADD PUSH1 0x40 MSTORE DUP1 PUSH1 0x7 DUP2 MSTORE PUSH1 0x20 ADD PUSH32 0x4A6F6C616D616E00000000000000000000000000000000000000000000000000 DUP2 MSTORE POP PUSH1 0x40 MLOAD DUP1 PUSH1 0x40 ADD PUSH1 0x40 MSTORE DUP1 PUSH1 0x2 DUP2 MSTORE PUSH1 0x20 ADD PUSH32 0x4A4C000000000000000000000000000000000000000000000000000000000000 DUP2 MSTORE POP DUP2 PUSH1 0x0 SWAP1 DUP1 MLOAD SWAP1 PUSH1 0x20 ADD SWAP1 PUSH3 0xEC SWAP3 SWAP2 SWAP1 PUSH3 0x3FB JUMP JUMPDEST POP DUP1 PUSH1 0x1 SWAP1 DUP1 MLOAD SWAP1 PUSH1 0x20 ADD SWAP1 PUSH3 0x105 SWAP3 SWAP2 SWAP1 PUSH3 0x3FB JUMP JUMPDEST POP POP POP PUSH3 0x128 PUSH3 0x11C PUSH3 0x1D0 PUSH1 0x20 SHL PUSH1 0x20 SHR JUMP JUMPDEST PUSH3 0x1D8 PUSH1 0x20 SHL PUSH1 0x20 SHR JUMP JUMPDEST CALLER PUSH1 0xF PUSH1 0x0 PUSH2 0x100 EXP DUP2 SLOAD DUP2 PUSH20 0xFFFFFFFFFFFFFFFFFFFFFFFFFFFFFFFFFFFFFFFF MUL NOT AND SWAP1 DUP4 PUSH20 0xFFFFFFFFFFFFFFFFFFFFFFFFFFFFFFFFFFFFFFFF AND MUL OR SWAP1 SSTORE POP DUP1 PUSH1 0x10 SWAP1 DUP1 MLOAD SWAP1 PUSH1 0x20 ADD SWAP1 PUSH3 0x181 SWAP3 SWAP2 SWAP1 PUSH3 0x3FB JUMP JUMPDEST POP PUSH3 0x197 PUSH1 0x0 DUP1 SHL CALLER PUSH3 0x29E PUSH1 0x20 SHL PUSH1 0x20 SHR JUMP JUMPDEST PUSH3 0x1C9 PUSH32 0x9F2DF0FED2C77648DE5860A4CC508CD0818C85B8B8A1AB4CEEEF8D981C8956A6 CALLER PUSH3 0x29E PUSH1 0x20 SHL PUSH1 0x20 SHR JUMP JUMPDEST POP PUSH3 0x6FE JUMP JUMPDEST PUSH1 0x0 CALLER SWAP1 POP SWAP1 JUMP JUMPDEST PUSH1 0x0 PUSH1 0xA PUSH1 0x0 SWAP1 SLOAD SWAP1 PUSH2 0x100 EXP SWAP1 DIV PUSH20 0xFFFFFFFFFFFFFFFFFFFFFFFFFFFFFFFFFFFFFFFF AND SWAP1 POP DUP2 PUSH1 0xA PUSH1 0x0 PUSH2 0x100 EXP DUP2 SLOAD DUP2 PUSH20 0xFFFFFFFFFFFFFFFFFFFFFFFFFFFFFFFFFFFFFFFF MUL NOT AND SWAP1 DUP4 PUSH20 0xFFFFFFFFFFFFFFFFFFFFFFFFFFFFFFFFFFFFFFFF AND MUL OR SWAP1 SSTORE POP DUP2 PUSH20 0xFFFFFFFFFFFFFFFFFFFFFFFFFFFFFFFFFFFFFFFF AND DUP2 PUSH20 0xFFFFFFFFFFFFFFFFFFFFFFFFFFFFFFFFFFFFFFFF AND PUSH32 0x8BE0079C531659141344CD1FD0A4F28419497F9722A3DAAFE3B4186F6B6457E0 PUSH1 0x40 MLOAD PUSH1 0x40 MLOAD DUP1 SWAP2 SUB SWAP1 LOG3 POP POP JUMP JUMPDEST PUSH3 0x2B0 DUP3 DUP3 PUSH3 0x390 PUSH1 0x20 SHL PUSH1 0x20 SHR JUMP JUMPDEST PUSH3 0x38C JUMPI PUSH1 0x1 PUSH1 0xB PUSH1 0x0 DUP5 DUP2 MSTORE PUSH1 0x20 ADD SWAP1 DUP2 MSTORE PUSH1 0x20 ADD PUSH1 0x0 KECCAK256 PUSH1 0x0 ADD PUSH1 0x0 DUP4 PUSH20 0xFFFFFFFFFFFFFFFFFFFFFFFFFFFFFFFFFFFFFFFF AND PUSH20 0xFFFFFFFFFFFFFFFFFFFFFFFFFFFFFFFFFFFFFFFF AND DUP2 MSTORE PUSH1 0x20 ADD SWAP1 DUP2 MSTORE PUSH1 0x20 ADD PUSH1 0x0 KECCAK256 PUSH1 0x0 PUSH2 0x100 EXP DUP2 SLOAD DUP2 PUSH1 0xFF MUL NOT AND SWAP1 DUP4 ISZERO ISZERO MUL OR SWAP1 SSTORE POP PUSH3 0x331 PUSH3 0x1D0 PUSH1 0x20 SHL PUSH1 0x20 SHR JUMP JUMPDEST PUSH20 0xFFFFFFFFFFFFFFFFFFFFFFFFFFFFFFFFFFFFFFFF AND DUP2 PUSH20 0xFFFFFFFFFFFFFFFFFFFFFFFFFFFFFFFFFFFFFFFF AND DUP4 PUSH32 0x2F8788117E7EFF1D82E926EC794901D17C78024A50270940304540A733656F0D PUSH1 0x40 MLOAD PUSH1 0x40 MLOAD DUP1 SWAP2 SUB SWAP1 LOG4 JUMPDEST POP POP JUMP JUMPDEST PUSH1 0x0 PUSH1 0xB PUSH1 0x0 DUP5 DUP2 MSTORE PUSH1 0x20 ADD SWAP1 DUP2 MSTORE PUSH1 0x20 ADD PUSH1 0x0 KECCAK256 PUSH1 0x0 ADD PUSH1 0x0 DUP4 PUSH20 0xFFFFFFFFFFFFFFFFFFFFFFFFFFFFFFFFFFFFFFFF AND PUSH20 0xFFFFFFFFFFFFFFFFFFFFFFFFFFFFFFFFFFFFFFFF AND DUP2 MSTORE PUSH1 0x20 ADD SWAP1 DUP2 MSTORE PUSH1 0x20 ADD PUSH1 0x0 KECCAK256 PUSH1 0x0 SWAP1 SLOAD SWAP1 PUSH2 0x100 EXP SWAP1 DIV PUSH1 0xFF AND SWAP1 POP SWAP3 SWAP2 POP POP JUMP JUMPDEST DUP3 DUP1 SLOAD PUSH3 0x409 SWAP1 PUSH3 0x60F JUMP JUMPDEST SWAP1 PUSH1 0x0 MSTORE PUSH1 0x20 PUSH1 0x0 KECCAK256 SWAP1 PUSH1 0x1F ADD PUSH1 0x20 SWAP1 DIV DUP2 ADD SWAP3 DUP3 PUSH3 0x42D JUMPI PUSH1 0x0 DUP6 SSTORE PUSH3 0x479 JUMP JUMPDEST DUP3 PUSH1 0x1F LT PUSH3 0x448 JUMPI DUP1 MLOAD PUSH1 0xFF NOT AND DUP4 DUP1 ADD OR DUP6 SSTORE PUSH3 0x479 JUMP JUMPDEST DUP3 DUP1 ADD PUSH1 0x1 ADD DUP6 SSTORE DUP3 ISZERO PUSH3 0x479 JUMPI SWAP2 DUP3 ADD JUMPDEST DUP3 DUP2 GT ISZERO PUSH3 0x478 JUMPI DUP3 MLOAD DUP3 SSTORE SWAP2 PUSH1 0x20 ADD SWAP2 SWAP1 PUSH1 0x1 ADD SWAP1 PUSH3 0x45B JUMP JUMPDEST JUMPDEST POP SWAP1 POP PUSH3 0x488 SWAP2 SWAP1 PUSH3 0x48C JUMP JUMPDEST POP SWAP1 JUMP JUMPDEST JUMPDEST DUP1 DUP3 GT ISZERO PUSH3 0x4A7 JUMPI PUSH1 0x0 DUP2 PUSH1 0x0 SWAP1 SSTORE POP PUSH1 0x1 ADD PUSH3 0x48D JUMP JUMPDEST POP SWAP1 JUMP JUMPDEST PUSH1 0x0 PUSH3 0x4C2 PUSH3 0x4BC DUP5 PUSH3 0x5A3 JUMP JUMPDEST PUSH3 0x57A JUMP JUMPDEST SWAP1 POP DUP3 DUP2 MSTORE PUSH1 0x20 DUP2 ADD DUP5 DUP5 DUP5 ADD GT ISZERO PUSH3 0x4E1 JUMPI PUSH3 0x4E0 PUSH3 0x6DE JUMP JUMPDEST JUMPDEST PUSH3 0x4EE DUP5 DUP3 DUP6 PUSH3 0x5D9 JUMP JUMPDEST POP SWAP4 SWAP3 POP POP POP JUMP JUMPDEST PUSH1 0x0 DUP3 PUSH1 0x1F DUP4 ADD SLT PUSH3 0x50E JUMPI PUSH3 0x50D PUSH3 0x6D9 JUMP JUMPDEST JUMPDEST DUP2 MLOAD PUSH3 0x520 DUP5 DUP3 PUSH1 0x20 DUP7 ADD PUSH3 0x4AB JUMP JUMPDEST SWAP2 POP POP SWAP3 SWAP2 POP POP JUMP JUMPDEST PUSH1 0x0 PUSH1 0x20 DUP3 DUP5 SUB SLT ISZERO PUSH3 0x542 JUMPI PUSH3 0x541 PUSH3 0x6E8 JUMP JUMPDEST JUMPDEST PUSH1 0x0 DUP3 ADD MLOAD PUSH8 0xFFFFFFFFFFFFFFFF DUP2 GT ISZERO PUSH3 0x563 JUMPI PUSH3 0x562 PUSH3 0x6E3 JUMP JUMPDEST JUMPDEST PUSH3 0x571 DUP5 DUP3 DUP6 ADD PUSH3 0x4F6 JUMP JUMPDEST SWAP2 POP POP SWAP3 SWAP2 POP POP JUMP JUMPDEST PUSH1 0x0 PUSH3 0x586 PUSH3 0x599 JUMP JUMPDEST SWAP1 POP PUSH3 0x594 DUP3 DUP3 PUSH3 0x645 JUMP JUMPDEST SWAP2 SWAP1 POP JUMP JUMPDEST PUSH1 0x0 PUSH1 0x40 MLOAD SWAP1 POP SWAP1 JUMP JUMPDEST PUSH1 0x0 PUSH8 0xFFFFFFFFFFFFFFFF DUP3 GT ISZERO PUSH3 0x5C1 JUMPI PUSH3 0x5C0 PUSH3 0x6AA JUMP JUMPDEST JUMPDEST PUSH3 0x5CC DUP3 PUSH3 0x6ED JUMP JUMPDEST SWAP1 POP PUSH1 0x20 DUP2 ADD SWAP1 POP SWAP2 SWAP1 POP JUMP JUMPDEST PUSH1 0x0 JUMPDEST DUP4 DUP2 LT ISZERO PUSH3 0x5F9 JUMPI DUP1 DUP3 ADD MLOAD DUP2 DUP5 ADD MSTORE PUSH1 0x20 DUP2 ADD SWAP1 POP PUSH3 0x5DC JUMP JUMPDEST DUP4 DUP2 GT ISZERO PUSH3 0x609 JUMPI PUSH1 0x0 DUP5 DUP5 ADD MSTORE JUMPDEST POP POP POP POP JUMP JUMPDEST PUSH1 0x0 PUSH1 0x2 DUP3 DIV SWAP1 POP PUSH1 0x1 DUP3 AND DUP1 PUSH3 0x628 JUMPI PUSH1 0x7F DUP3 AND SWAP2 POP JUMPDEST PUSH1 0x20 DUP3 LT DUP2 EQ ISZERO PUSH3 0x63F JUMPI PUSH3 0x63E PUSH3 0x67B JUMP JUMPDEST JUMPDEST POP SWAP2 SWAP1 POP JUMP JUMPDEST PUSH3 0x650 DUP3 PUSH3 0x6ED JUMP JUMPDEST DUP2 ADD DUP2 DUP2 LT PUSH8 0xFFFFFFFFFFFFFFFF DUP3 GT OR ISZERO PUSH3 0x672 JUMPI PUSH3 0x671 PUSH3 0x6AA JUMP JUMPDEST JUMPDEST DUP1 PUSH1 0x40 MSTORE POP POP POP JUMP JUMPDEST PUSH32 0x4E487B7100000000000000000000000000000000000000000000000000000000 PUSH1 0x0 MSTORE PUSH1 0x22 PUSH1 0x4 MSTORE PUSH1 0x24 PUSH1 0x0 REVERT JUMPDEST PUSH32 0x4E487B7100000000000000000000000000000000000000000000000000000000 PUSH1 0x0 MSTORE PUSH1 0x41 PUSH1 0x4 MSTORE PUSH1 0x24 PUSH1 0x0 REVERT JUMPDEST PUSH1 0x0 DUP1 REVERT JUMPDEST PUSH1 0x0 DUP1 REVERT JUMPDEST PUSH1 0x0 DUP1 REVERT JUMPDEST PUSH1 0x0 DUP1 REVERT JUMPDEST PUSH1 0x0 PUSH1 0x1F NOT PUSH1 0x1F DUP4 ADD AND SWAP1 POP SWAP2 SWAP1 POP JUMP JUMPDEST PUSH2 0x4D15 DUP1 PUSH3 0x70E PUSH1 0x0 CODECOPY PUSH1 0x0 RETURN INVALID PUSH1 0x80 PUSH1 0x40 MSTORE PUSH1 0x4 CALLDATASIZE LT PUSH2 0x251 JUMPI PUSH1 0x0 CALLDATALOAD PUSH1 0xE0 SHR DUP1 PUSH4 0x5AA961E5 GT PUSH2 0x139 JUMPI DUP1 PUSH4 0xA22CB465 GT PUSH2 0xB6 JUMPI DUP1 PUSH4 0xD5391393 GT PUSH2 0x7A JUMPI DUP1 PUSH4 0xD5391393 EQ PUSH2 0x8D9 JUMPI DUP1 PUSH4 0xD547741F EQ PUSH2 0x904 JUMPI DUP1 PUSH4 0xE7CD4A04 EQ PUSH2 0x92D JUMPI DUP1 PUSH4 0xE985E9C5 EQ PUSH2 0x956 JUMPI DUP1 PUSH4 0xF2FDE38B EQ PUSH2 0x993 JUMPI DUP1 PUSH4 0xF99031A7 EQ PUSH2 0x9BC JUMPI PUSH2 0x251 JUMP JUMPDEST DUP1 PUSH4 0xA22CB465 EQ PUSH2 0x7F4 JUMPI DUP1 PUSH4 0xB2BDFA7B EQ PUSH2 0x81D JUMPI DUP1 PUSH4 0xB88D4FDE EQ PUSH2 0x848 JUMPI DUP1 PUSH4 0xC87B56DD EQ PUSH2 0x871 JUMPI DUP1 PUSH4 0xD0BBB0D7 EQ PUSH2 0x8AE JUMPI PUSH2 0x251 JUMP JUMPDEST DUP1 PUSH4 0x73FF361B GT PUSH2 0xFD JUMPI DUP1 PUSH4 0x73FF361B EQ PUSH2 0x72C JUMPI DUP1 PUSH4 0x8DA5CB5B EQ PUSH2 0x736 JUMPI DUP1 PUSH4 0x91D14854 EQ PUSH2 0x761 JUMPI DUP1 PUSH4 0x95D89B41 EQ PUSH2 0x79E JUMPI DUP1 PUSH4 0xA217FDDF EQ PUSH2 0x7C9 JUMPI PUSH2 0x251 JUMP JUMPDEST DUP1 PUSH4 0x5AA961E5 EQ PUSH2 0x647 JUMPI DUP1 PUSH4 0x6352211E EQ PUSH2 0x670 JUMPI DUP1 PUSH4 0x64EEEB73 EQ PUSH2 0x6AD JUMPI DUP1 PUSH4 0x70A08231 EQ PUSH2 0x6D8 JUMPI DUP1 PUSH4 0x715018A6 EQ PUSH2 0x715 JUMPI PUSH2 0x251 JUMP JUMPDEST DUP1 PUSH4 0x248A9CA3 GT PUSH2 0x1D2 JUMPI DUP1 PUSH4 0x37874127 GT PUSH2 0x196 JUMPI DUP1 PUSH4 0x37874127 EQ PUSH2 0x52D JUMPI DUP1 PUSH4 0x3E334CF0 EQ PUSH2 0x56A JUMPI DUP1 PUSH4 0x40D097C3 EQ PUSH2 0x5A7 JUMPI DUP1 PUSH4 0x42842E0E EQ PUSH2 0x5C3 JUMPI DUP1 PUSH4 0x42F6487A EQ PUSH2 0x5EC JUMPI DUP1 PUSH4 0x4F6CCCE7 EQ PUSH2 0x60A JUMPI PUSH2 0x251 JUMP JUMPDEST DUP1 PUSH4 0x248A9CA3 EQ PUSH2 0x436 JUMPI DUP1 PUSH4 0x2F2FF15D EQ PUSH2 0x473 JUMPI DUP1 PUSH4 0x2F745C59 EQ PUSH2 0x49C JUMPI DUP1 PUSH4 0x35DB70B5 EQ PUSH2 0x4D9 JUMPI DUP1 PUSH4 0x36568ABE EQ PUSH2 0x504 JUMPI PUSH2 0x251 JUMP JUMPDEST DUP1 PUSH4 0x95EA7B3 GT PUSH2 0x219 JUMPI DUP1 PUSH4 0x95EA7B3 EQ PUSH2 0x351 JUMPI DUP1 PUSH4 0xC401D7E EQ PUSH2 0x37A JUMPI DUP1 PUSH4 0x12065FE0 EQ PUSH2 0x3B7 JUMPI DUP1 PUSH4 0x18160DDD EQ PUSH2 0x3E2 JUMPI DUP1 PUSH4 0x23B872DD EQ PUSH2 0x40D JUMPI PUSH2 0x251 JUMP JUMPDEST DUP1 PUSH4 0x1FFC9A7 EQ PUSH2 0x256 JUMPI DUP1 PUSH4 0x3EE438C EQ PUSH2 0x293 JUMPI DUP1 PUSH4 0x6FDDE03 EQ PUSH2 0x2BE JUMPI DUP1 PUSH4 0x7C7F4EB EQ PUSH2 0x2E9 JUMPI DUP1 PUSH4 0x81812FC EQ PUSH2 0x314 JUMPI JUMPDEST PUSH1 0x0 DUP1 REVERT JUMPDEST CALLVALUE DUP1 ISZERO PUSH2 0x262 JUMPI PUSH1 0x0 DUP1 REVERT JUMPDEST POP PUSH2 0x27D PUSH1 0x4 DUP1 CALLDATASIZE SUB DUP2 ADD SWAP1 PUSH2 0x278 SWAP2 SWAP1 PUSH2 0x357D JUMP JUMPDEST PUSH2 0x9F9 JUMP JUMPDEST PUSH1 0x40 MLOAD PUSH2 0x28A SWAP2 SWAP1 PUSH2 0x3D07 JUMP JUMPDEST PUSH1 0x40 MLOAD DUP1 SWAP2 SUB SWAP1 RETURN JUMPDEST CALLVALUE DUP1 ISZERO PUSH2 0x29F JUMPI PUSH1 0x0 DUP1 REVERT JUMPDEST POP PUSH2 0x2A8 PUSH2 0xA0B JUMP JUMPDEST PUSH1 0x40 MLOAD PUSH2 0x2B5 SWAP2 SWAP1 PUSH2 0x3D3D JUMP JUMPDEST PUSH1 0x40 MLOAD DUP1 SWAP2 SUB SWAP1 RETURN JUMPDEST CALLVALUE DUP1 ISZERO PUSH2 0x2CA JUMPI PUSH1 0x0 DUP1 REVERT JUMPDEST POP PUSH2 0x2D3 PUSH2 0xA99 JUMP JUMPDEST PUSH1 0x40 MLOAD PUSH2 0x2E0 SWAP2 SWAP1 PUSH2 0x3D3D JUMP JUMPDEST PUSH1 0x40 MLOAD DUP1 SWAP2 SUB SWAP1 RETURN JUMPDEST CALLVALUE DUP1 ISZERO PUSH2 0x2F5 JUMPI PUSH1 0x0 DUP1 REVERT JUMPDEST POP PUSH2 0x2FE PUSH2 0xB2B JUMP JUMPDEST PUSH1 0x40 MLOAD PUSH2 0x30B SWAP2 SWAP1 PUSH2 0x405F JUMP JUMPDEST PUSH1 0x40 MLOAD DUP1 SWAP2 SUB SWAP1 RETURN JUMPDEST CALLVALUE DUP1 ISZERO PUSH2 0x320 JUMPI PUSH1 0x0 DUP1 REVERT JUMPDEST POP PUSH2 0x33B PUSH1 0x4 DUP1 CALLDATASIZE SUB DUP2 ADD SWAP1 PUSH2 0x336 SWAP2 SWAP1 PUSH2 0x35D7 JUMP JUMPDEST PUSH2 0xB30 JUMP JUMPDEST PUSH1 0x40 MLOAD PUSH2 0x348 SWAP2 SWAP1 PUSH2 0x3CA0 JUMP JUMPDEST PUSH1 0x40 MLOAD DUP1 SWAP2 SUB SWAP1 RETURN JUMPDEST CALLVALUE DUP1 ISZERO PUSH2 0x35D JUMPI PUSH1 0x0 DUP1 REVERT JUMPDEST POP PUSH2 0x378 PUSH1 0x4 DUP1 CALLDATASIZE SUB DUP2 ADD SWAP1 PUSH2 0x373 SWAP2 SWAP1 PUSH2 0x34D0 JUMP JUMPDEST PUSH2 0xBB5 JUMP JUMPDEST STOP JUMPDEST CALLVALUE DUP1 ISZERO PUSH2 0x386 JUMPI PUSH1 0x0 DUP1 REVERT JUMPDEST POP PUSH2 0x3A1 PUSH1 0x4 DUP1 CALLDATASIZE SUB DUP2 ADD SWAP1 PUSH2 0x39C SWAP2 SWAP1 PUSH2 0x35D7 JUMP JUMPDEST PUSH2 0xCCD JUMP JUMPDEST PUSH1 0x40 MLOAD PUSH2 0x3AE SWAP2 SWAP1 PUSH2 0x405F JUMP JUMPDEST PUSH1 0x40 MLOAD DUP1 SWAP2 SUB SWAP1 RETURN JUMPDEST CALLVALUE DUP1 ISZERO PUSH2 0x3C3 JUMPI PUSH1 0x0 DUP1 REVERT JUMPDEST POP PUSH2 0x3CC PUSH2 0xCF1 JUMP JUMPDEST PUSH1 0x40 MLOAD PUSH2 0x3D9 SWAP2 SWAP1 PUSH2 0x405F JUMP JUMPDEST PUSH1 0x40 MLOAD DUP1 SWAP2 SUB SWAP1 RETURN JUMPDEST CALLVALUE DUP1 ISZERO PUSH2 0x3EE JUMPI PUSH1 0x0 DUP1 REVERT JUMPDEST POP PUSH2 0x3F7 PUSH2 0xD10 JUMP JUMPDEST PUSH1 0x40 MLOAD PUSH2 0x404 SWAP2 SWAP1 PUSH2 0x405F JUMP JUMPDEST PUSH1 0x40 MLOAD DUP1 SWAP2 SUB SWAP1 RETURN JUMPDEST CALLVALUE DUP1 ISZERO PUSH2 0x419 JUMPI PUSH1 0x0 DUP1 REVERT JUMPDEST POP PUSH2 0x434 PUSH1 0x4 DUP1 CALLDATASIZE SUB DUP2 ADD SWAP1 PUSH2 0x42F SWAP2 SWAP1 PUSH2 0x33BA JUMP JUMPDEST PUSH2 0xD1D JUMP JUMPDEST STOP JUMPDEST CALLVALUE DUP1 ISZERO PUSH2 0x442 JUMPI PUSH1 0x0 DUP1 REVERT JUMPDEST POP PUSH2 0x45D PUSH1 0x4 DUP1 CALLDATASIZE SUB DUP2 ADD SWAP1 PUSH2 0x458 SWAP2 SWAP1 PUSH2 0x3510 JUMP JUMPDEST PUSH2 0xD7D JUMP JUMPDEST PUSH1 0x40 MLOAD PUSH2 0x46A SWAP2 SWAP1 PUSH2 0x3D22 JUMP JUMPDEST PUSH1 0x40 MLOAD DUP1 SWAP2 SUB SWAP1 RETURN JUMPDEST CALLVALUE DUP1 ISZERO PUSH2 0x47F JUMPI PUSH1 0x0 DUP1 REVERT JUMPDEST POP PUSH2 0x49A PUSH1 0x4 DUP1 CALLDATASIZE SUB DUP2 ADD SWAP1 PUSH2 0x495 SWAP2 SWAP1 PUSH2 0x353D JUMP JUMPDEST PUSH2 0xD9D JUMP JUMPDEST STOP JUMPDEST CALLVALUE DUP1 ISZERO PUSH2 0x4A8 JUMPI PUSH1 0x0 DUP1 REVERT JUMPDEST POP PUSH2 0x4C3 PUSH1 0x4 DUP1 CALLDATASIZE SUB DUP2 ADD SWAP1 PUSH2 0x4BE SWAP2 SWAP1 PUSH2 0x34D0 JUMP JUMPDEST PUSH2 0xDBE JUMP JUMPDEST PUSH1 0x40 MLOAD PUSH2 0x4D0 SWAP2 SWAP1 PUSH2 0x405F JUMP JUMPDEST PUSH1 0x40 MLOAD DUP1 SWAP2 SUB SWAP1 RETURN JUMPDEST CALLVALUE DUP1 ISZERO PUSH2 0x4E5 JUMPI PUSH1 0x0 DUP1 REVERT JUMPDEST POP PUSH2 0x4EE PUSH2 0xE63 JUMP JUMPDEST PUSH1 0x40 MLOAD PUSH2 0x4FB SWAP2 SWAP1 PUSH2 0x407A JUMP JUMPDEST PUSH1 0x40 MLOAD DUP1 SWAP2 SUB SWAP1 RETURN JUMPDEST CALLVALUE DUP1 ISZERO PUSH2 0x510 JUMPI PUSH1 0x0 DUP1 REVERT JUMPDEST POP PUSH2 0x52B PUSH1 0x4 DUP1 CALLDATASIZE SUB DUP2 ADD SWAP1 PUSH2 0x526 SWAP2 SWAP1 PUSH2 0x353D JUMP JUMPDEST PUSH2 0xE7D JUMP JUMPDEST STOP JUMPDEST CALLVALUE DUP1 ISZERO PUSH2 0x539 JUMPI PUSH1 0x0 DUP1 REVERT JUMPDEST POP PUSH2 0x554 PUSH1 0x4 DUP1 CALLDATASIZE SUB DUP2 ADD SWAP1 PUSH2 0x54F SWAP2 SWAP1 PUSH2 0x35D7 JUMP JUMPDEST PUSH2 0xF00 JUMP JUMPDEST PUSH1 0x40 MLOAD PUSH2 0x561 SWAP2 SWAP1 PUSH2 0x405F JUMP JUMPDEST PUSH1 0x40 MLOAD DUP1 SWAP2 SUB SWAP1 RETURN JUMPDEST CALLVALUE DUP1 ISZERO PUSH2 0x576 JUMPI PUSH1 0x0 DUP1 REVERT JUMPDEST POP PUSH2 0x591 PUSH1 0x4 DUP1 CALLDATASIZE SUB DUP2 ADD SWAP1 PUSH2 0x58C SWAP2 SWAP1 PUSH2 0x35D7 JUMP JUMPDEST PUSH2 0xF1E JUMP JUMPDEST PUSH1 0x40 MLOAD PUSH2 0x59E SWAP2 SWAP1 PUSH2 0x405F JUMP JUMPDEST PUSH1 0x40 MLOAD DUP1 SWAP2 SUB SWAP1 RETURN JUMPDEST PUSH2 0x5C1 PUSH1 0x4 DUP1 CALLDATASIZE SUB DUP2 ADD SWAP1 PUSH2 0x5BC SWAP2 SWAP1 PUSH2 0x334D JUMP JUMPDEST PUSH2 0xF3E JUMP JUMPDEST STOP JUMPDEST CALLVALUE DUP1 ISZERO PUSH2 0x5CF JUMPI PUSH1 0x0 DUP1 REVERT JUMPDEST POP PUSH2 0x5EA PUSH1 0x4 DUP1 CALLDATASIZE SUB DUP2 ADD SWAP1 PUSH2 0x5E5 SWAP2 SWAP1 PUSH2 0x33BA JUMP JUMPDEST PUSH2 0x107F JUMP JUMPDEST STOP JUMPDEST PUSH2 0x5F4 PUSH2 0x109F JUMP JUMPDEST PUSH1 0x40 MLOAD PUSH2 0x601 SWAP2 SWAP1 PUSH2 0x3D07 JUMP JUMPDEST PUSH1 0x40 MLOAD DUP1 SWAP2 SUB SWAP1 RETURN JUMPDEST CALLVALUE DUP1 ISZERO PUSH2 0x616 JUMPI PUSH1 0x0 DUP1 REVERT JUMPDEST POP PUSH2 0x631 PUSH1 0x4 DUP1 CALLDATASIZE SUB DUP2 ADD SWAP1 PUSH2 0x62C SWAP2 SWAP1 PUSH2 0x35D7 JUMP JUMPDEST PUSH2 0x122F JUMP JUMPDEST PUSH1 0x40 MLOAD PUSH2 0x63E SWAP2 SWAP1 PUSH2 0x405F JUMP JUMPDEST PUSH1 0x40 MLOAD DUP1 SWAP2 SUB SWAP1 RETURN JUMPDEST CALLVALUE DUP1 ISZERO PUSH2 0x653 JUMPI PUSH1 0x0 DUP1 REVERT JUMPDEST POP PUSH2 0x66E PUSH1 0x4 DUP1 CALLDATASIZE SUB DUP2 ADD SWAP1 PUSH2 0x669 SWAP2 SWAP1 PUSH2 0x3604 JUMP JUMPDEST PUSH2 0x12A0 JUMP JUMPDEST STOP JUMPDEST CALLVALUE DUP1 ISZERO PUSH2 0x67C JUMPI PUSH1 0x0 DUP1 REVERT JUMPDEST POP PUSH2 0x697 PUSH1 0x4 DUP1 CALLDATASIZE SUB DUP2 ADD SWAP1 PUSH2 0x692 SWAP2 SWAP1 PUSH2 0x35D7 JUMP JUMPDEST PUSH2 0x12CC JUMP JUMPDEST PUSH1 0x40 MLOAD PUSH2 0x6A4 SWAP2 SWAP1 PUSH2 0x3CA0 JUMP JUMPDEST PUSH1 0x40 MLOAD DUP1 SWAP2 SUB SWAP1 RETURN JUMPDEST CALLVALUE DUP1 ISZERO PUSH2 0x6B9 JUMPI PUSH1 0x0 DUP1 REVERT JUMPDEST POP PUSH2 0x6C2 PUSH2 0x137E JUMP JUMPDEST PUSH1 0x40 MLOAD PUSH2 0x6CF SWAP2 SWAP1 PUSH2 0x405F JUMP JUMPDEST PUSH1 0x40 MLOAD DUP1 SWAP2 SUB SWAP1 RETURN JUMPDEST CALLVALUE DUP1 ISZERO PUSH2 0x6E4 JUMPI PUSH1 0x0 DUP1 REVERT JUMPDEST POP PUSH2 0x6FF PUSH1 0x4 DUP1 CALLDATASIZE SUB DUP2 ADD SWAP1 PUSH2 0x6FA SWAP2 SWAP1 PUSH2 0x334D JUMP JUMPDEST PUSH2 0x1383 JUMP JUMPDEST PUSH1 0x40 MLOAD PUSH2 0x70C SWAP2 SWAP1 PUSH2 0x405F JUMP JUMPDEST PUSH1 0x40 MLOAD DUP1 SWAP2 SUB SWAP1 RETURN JUMPDEST CALLVALUE DUP1 ISZERO PUSH2 0x721 JUMPI PUSH1 0x0 DUP1 REVERT JUMPDEST POP PUSH2 0x72A PUSH2 0x143B JUMP JUMPDEST STOP JUMPDEST PUSH2 0x734 PUSH2 0x14C3 JUMP JUMPDEST STOP JUMPDEST CALLVALUE DUP1 ISZERO PUSH2 0x742 JUMPI PUSH1 0x0 DUP1 REVERT JUMPDEST POP PUSH2 0x74B PUSH2 0x14E2 JUMP JUMPDEST PUSH1 0x40 MLOAD PUSH2 0x758 SWAP2 SWAP1 PUSH2 0x3CA0 JUMP JUMPDEST PUSH1 0x40 MLOAD DUP1 SWAP2 SUB SWAP1 RETURN JUMPDEST CALLVALUE DUP1 ISZERO PUSH2 0x76D JUMPI PUSH1 0x0 DUP1 REVERT JUMPDEST POP PUSH2 0x788 PUSH1 0x4 DUP1 CALLDATASIZE SUB DUP2 ADD SWAP1 PUSH2 0x783 SWAP2 SWAP1 PUSH2 0x353D JUMP JUMPDEST PUSH2 0x150C JUMP JUMPDEST PUSH1 0x40 MLOAD PUSH2 0x795 SWAP2 SWAP1 PUSH2 0x3D07 JUMP JUMPDEST PUSH1 0x40 MLOAD DUP1 SWAP2 SUB SWAP1 RETURN JUMPDEST CALLVALUE DUP1 ISZERO PUSH2 0x7AA JUMPI PUSH1 0x0 DUP1 REVERT JUMPDEST POP PUSH2 0x7B3 PUSH2 0x1577 JUMP JUMPDEST PUSH1 0x40 MLOAD PUSH2 0x7C0 SWAP2 SWAP1 PUSH2 0x3D3D JUMP JUMPDEST PUSH1 0x40 MLOAD DUP1 SWAP2 SUB SWAP1 RETURN JUMPDEST CALLVALUE DUP1 ISZERO PUSH2 0x7D5 JUMPI PUSH1 0x0 DUP1 REVERT JUMPDEST POP PUSH2 0x7DE PUSH2 0x1609 JUMP JUMPDEST PUSH1 0x40 MLOAD PUSH2 0x7EB SWAP2 SWAP1 PUSH2 0x3D22 JUMP JUMPDEST PUSH1 0x40 MLOAD DUP1 SWAP2 SUB SWAP1 RETURN JUMPDEST CALLVALUE DUP1 ISZERO PUSH2 0x800 JUMPI PUSH1 0x0 DUP1 REVERT JUMPDEST POP PUSH2 0x81B PUSH1 0x4 DUP1 CALLDATASIZE SUB DUP2 ADD SWAP1 PUSH2 0x816 SWAP2 SWAP1 PUSH2 0x3490 JUMP JUMPDEST PUSH2 0x1610 JUMP JUMPDEST STOP JUMPDEST CALLVALUE DUP1 ISZERO PUSH2 0x829 JUMPI PUSH1 0x0 DUP1 REVERT JUMPDEST POP PUSH2 0x832 PUSH2 0x1626 JUMP JUMPDEST PUSH1 0x40 MLOAD PUSH2 0x83F SWAP2 SWAP1 PUSH2 0x3CA0 JUMP JUMPDEST PUSH1 0x40 MLOAD DUP1 SWAP2 SUB SWAP1 RETURN JUMPDEST CALLVALUE DUP1 ISZERO PUSH2 0x854 JUMPI PUSH1 0x0 DUP1 REVERT JUMPDEST POP PUSH2 0x86F PUSH1 0x4 DUP1 CALLDATASIZE SUB DUP2 ADD SWAP1 PUSH2 0x86A SWAP2 SWAP1 PUSH2 0x340D JUMP JUMPDEST PUSH2 0x164C JUMP JUMPDEST STOP JUMPDEST CALLVALUE DUP1 ISZERO PUSH2 0x87D JUMPI PUSH1 0x0 DUP1 REVERT JUMPDEST POP PUSH2 0x898 PUSH1 0x4 DUP1 CALLDATASIZE SUB DUP2 ADD SWAP1 PUSH2 0x893 SWAP2 SWAP1 PUSH2 0x35D7 JUMP JUMPDEST PUSH2 0x16AE JUMP JUMPDEST PUSH1 0x40 MLOAD PUSH2 0x8A5 SWAP2 SWAP1 PUSH2 0x3D3D JUMP JUMPDEST PUSH1 0x40 MLOAD DUP1 SWAP2 SUB SWAP1 RETURN JUMPDEST CALLVALUE DUP1 ISZERO PUSH2 0x8BA JUMPI PUSH1 0x0 DUP1 REVERT JUMPDEST POP PUSH2 0x8C3 PUSH2 0x16FE JUMP JUMPDEST PUSH1 0x40 MLOAD PUSH2 0x8D0 SWAP2 SWAP1 PUSH2 0x405F JUMP JUMPDEST PUSH1 0x40 MLOAD DUP1 SWAP2 SUB SWAP1 RETURN JUMPDEST CALLVALUE DUP1 ISZERO PUSH2 0x8E5 JUMPI PUSH1 0x0 DUP1 REVERT JUMPDEST POP PUSH2 0x8EE PUSH2 0x1704 JUMP JUMPDEST PUSH1 0x40 MLOAD PUSH2 0x8FB SWAP2 SWAP1 PUSH2 0x3D22 JUMP JUMPDEST PUSH1 0x40 MLOAD DUP1 SWAP2 SUB SWAP1 RETURN JUMPDEST CALLVALUE DUP1 ISZERO PUSH2 0x910 JUMPI PUSH1 0x0 DUP1 REVERT JUMPDEST POP PUSH2 0x92B PUSH1 0x4 DUP1 CALLDATASIZE SUB DUP2 ADD SWAP1 PUSH2 0x926 SWAP2 SWAP1 PUSH2 0x353D JUMP JUMPDEST PUSH2 0x1728 JUMP JUMPDEST STOP JUMPDEST CALLVALUE DUP1 ISZERO PUSH2 0x939 JUMPI PUSH1 0x0 DUP1 REVERT JUMPDEST POP PUSH2 0x954 PUSH1 0x4 DUP1 CALLDATASIZE SUB DUP2 ADD SWAP1 PUSH2 0x94F SWAP2 SWAP1 PUSH2 0x334D JUMP JUMPDEST PUSH2 0x1749 JUMP JUMPDEST STOP JUMPDEST CALLVALUE DUP1 ISZERO PUSH2 0x962 JUMPI PUSH1 0x0 DUP1 REVERT JUMPDEST POP PUSH2 0x97D PUSH1 0x4 DUP1 CALLDATASIZE SUB DUP2 ADD SWAP1 PUSH2 0x978 SWAP2 SWAP1 PUSH2 0x337A JUMP JUMPDEST PUSH2 0x1820 JUMP JUMPDEST PUSH1 0x40 MLOAD PUSH2 0x98A SWAP2 SWAP1 PUSH2 0x3D07 JUMP JUMPDEST PUSH1 0x40 MLOAD DUP1 SWAP2 SUB SWAP1 RETURN JUMPDEST CALLVALUE DUP1 ISZERO PUSH2 0x99F JUMPI PUSH1 0x0 DUP1 REVERT JUMPDEST POP PUSH2 0x9BA PUSH1 0x4 DUP1 CALLDATASIZE SUB DUP2 ADD SWAP1 PUSH2 0x9B5 SWAP2 SWAP1 PUSH2 0x334D JUMP JUMPDEST PUSH2 0x18B4 JUMP JUMPDEST STOP JUMPDEST CALLVALUE DUP1 ISZERO PUSH2 0x9C8 JUMPI PUSH1 0x0 DUP1 REVERT JUMPDEST POP PUSH2 0x9E3 PUSH1 0x4 DUP1 CALLDATASIZE SUB DUP2 ADD SWAP1 PUSH2 0x9DE SWAP2 SWAP1 PUSH2 0x334D JUMP JUMPDEST PUSH2 0x19AC JUMP JUMPDEST PUSH1 0x40 MLOAD PUSH2 0x9F0 SWAP2 SWAP1 PUSH2 0x3D07 JUMP JUMPDEST PUSH1 0x40 MLOAD DUP1 SWAP2 SUB SWAP1 RETURN JUMPDEST PUSH1 0x0 PUSH2 0xA04 DUP3 PUSH2 0x19CC JUMP JUMPDEST SWAP1 POP SWAP2 SWAP1 POP JUMP JUMPDEST PUSH1 0x10 DUP1 SLOAD PUSH2 0xA18 SWAP1 PUSH2 0x4361 JUMP JUMPDEST DUP1 PUSH1 0x1F ADD PUSH1 0x20 DUP1 SWAP2 DIV MUL PUSH1 0x20 ADD PUSH1 0x40 MLOAD SWAP1 DUP2 ADD PUSH1 0x40 MSTORE DUP1 SWAP3 SWAP2 SWAP1 DUP2 DUP2 MSTORE PUSH1 0x20 ADD DUP3 DUP1 SLOAD PUSH2 0xA44 SWAP1 PUSH2 0x4361 JUMP JUMPDEST DUP1 ISZERO PUSH2 0xA91 JUMPI DUP1 PUSH1 0x1F LT PUSH2 0xA66 JUMPI PUSH2 0x100 DUP1 DUP4 SLOAD DIV MUL DUP4 MSTORE SWAP2 PUSH1 0x20 ADD SWAP2 PUSH2 0xA91 JUMP JUMPDEST DUP3 ADD SWAP2 SWAP1 PUSH1 0x0 MSTORE PUSH1 0x20 PUSH1 0x0 KECCAK256 SWAP1 JUMPDEST DUP2 SLOAD DUP2 MSTORE SWAP1 PUSH1 0x1 ADD SWAP1 PUSH1 0x20 ADD DUP1 DUP4 GT PUSH2 0xA74 JUMPI DUP3 SWAP1 SUB PUSH1 0x1F AND DUP3 ADD SWAP2 JUMPDEST POP POP POP POP POP DUP2 JUMP JUMPDEST PUSH1 0x60 PUSH1 0x0 DUP1 SLOAD PUSH2 0xAA8 SWAP1 PUSH2 0x4361 JUMP JUMPDEST DUP1 PUSH1 0x1F ADD PUSH1 0x20 DUP1 SWAP2 DIV MUL PUSH1 0x20 ADD PUSH1 0x40 MLOAD SWAP1 DUP2 ADD PUSH1 0x40 MSTORE DUP1 SWAP3 SWAP2 SWAP1 DUP2 DUP2 MSTORE PUSH1 0x20 ADD DUP3 DUP1 SLOAD PUSH2 0xAD4 SWAP1 PUSH2 0x4361 JUMP JUMPDEST DUP1 ISZERO PUSH2 0xB21 JUMPI DUP1 PUSH1 0x1F LT PUSH2 0xAF6 JUMPI PUSH2 0x100 DUP1 DUP4 SLOAD DIV MUL DUP4 MSTORE SWAP2 PUSH1 0x20 ADD SWAP2 PUSH2 0xB21 JUMP JUMPDEST DUP3 ADD SWAP2 SWAP1 PUSH1 0x0 MSTORE PUSH1 0x20 PUSH1 0x0 KECCAK256 SWAP1 JUMPDEST DUP2 SLOAD DUP2 MSTORE SWAP1 PUSH1 0x1 ADD SWAP1 PUSH1 0x20 ADD DUP1 DUP4 GT PUSH2 0xB04 JUMPI DUP3 SWAP1 SUB PUSH1 0x1F AND DUP3 ADD SWAP2 JUMPDEST POP POP POP POP POP SWAP1 POP SWAP1 JUMP JUMPDEST PUSH1 0x4 DUP2 JUMP JUMPDEST PUSH1 0x0 PUSH2 0xB3B DUP3 PUSH2 0x1A46 JUMP JUMPDEST PUSH2 0xB7A JUMPI PUSH1 0x40 MLOAD PUSH32 0x8C379A000000000000000000000000000000000000000000000000000000000 DUP2 MSTORE PUSH1 0x4 ADD PUSH2 0xB71 SWAP1 PUSH2 0x3F7F JUMP JUMPDEST PUSH1 0x40 MLOAD DUP1 SWAP2 SUB SWAP1 REVERT JUMPDEST PUSH1 0x4 PUSH1 0x0 DUP4 DUP2 MSTORE PUSH1 0x20 ADD SWAP1 DUP2 MSTORE PUSH1 0x20 ADD PUSH1 0x0 KECCAK256 PUSH1 0x0 SWAP1 SLOAD SWAP1 PUSH2 0x100 EXP SWAP1 DIV PUSH20 0xFFFFFFFFFFFFFFFFFFFFFFFFFFFFFFFFFFFFFFFF AND SWAP1 POP SWAP2 SWAP1 POP JUMP JUMPDEST PUSH1 0x0 PUSH2 0xBC0 DUP3 PUSH2 0x12CC JUMP JUMPDEST SWAP1 POP DUP1 PUSH20 0xFFFFFFFFFFFFFFFFFFFFFFFFFFFFFFFFFFFFFFFF AND DUP4 PUSH20 0xFFFFFFFFFFFFFFFFFFFFFFFFFFFFFFFFFFFFFFFF AND EQ ISZERO PUSH2 0xC31 JUMPI PUSH1 0x40 MLOAD PUSH32 0x8C379A000000000000000000000000000000000000000000000000000000000 DUP2 MSTORE PUSH1 0x4 ADD PUSH2 0xC28 SWAP1 PUSH2 0x3FBF JUMP JUMPDEST PUSH1 0x40 MLOAD DUP1 SWAP2 SUB SWAP1 REVERT JUMPDEST DUP1 PUSH20 0xFFFFFFFFFFFFFFFFFFFFFFFFFFFFFFFFFFFFFFFF AND PUSH2 0xC50 PUSH2 0x1AB2 JUMP JUMPDEST PUSH20 0xFFFFFFFFFFFFFFFFFFFFFFFFFFFFFFFFFFFFFFFF AND EQ DUP1 PUSH2 0xC7F JUMPI POP PUSH2 0xC7E DUP2 PUSH2 0xC79 PUSH2 0x1AB2 JUMP JUMPDEST PUSH2 0x1820 JUMP JUMPDEST JUMPDEST PUSH2 0xCBE JUMPI PUSH1 0x40 MLOAD PUSH32 0x8C379A000000000000000000000000000000000000000000000000000000000 DUP2 MSTORE PUSH1 0x4 ADD PUSH2 0xCB5 SWAP1 PUSH2 0x3EDF JUMP JUMPDEST PUSH1 0x40 MLOAD DUP1 SWAP2 SUB SWAP1 REVERT JUMPDEST PUSH2 0xCC8 DUP4 DUP4 PUSH2 0x1ABA JUMP JUMPDEST POP POP POP JUMP JUMPDEST PUSH1 0x11 DUP2 DUP2 SLOAD DUP2 LT PUSH2 0xCDD JUMPI PUSH1 0x0 DUP1 REVERT JUMPDEST SWAP1 PUSH1 0x0 MSTORE PUSH1 0x20 PUSH1 0x0 KECCAK256 ADD PUSH1 0x0 SWAP2 POP SWAP1 POP SLOAD DUP2 JUMP JUMPDEST PUSH1 0x0 CALLER PUSH20 0xFFFFFFFFFFFFFFFFFFFFFFFFFFFFFFFFFFFFFFFF AND BALANCE SWAP1 POP SWAP1 JUMP JUMPDEST PUSH1 0x0 PUSH1 0x8 DUP1 SLOAD SWAP1 POP SWAP1 POP SWAP1 JUMP JUMPDEST PUSH2 0xD2E PUSH2 0xD28 PUSH2 0x1AB2 JUMP JUMPDEST DUP3 PUSH2 0x1B73 JUMP JUMPDEST PUSH2 0xD6D JUMPI PUSH1 0x40 MLOAD PUSH32 0x8C379A000000000000000000000000000000000000000000000000000000000 DUP2 MSTORE PUSH1 0x4 ADD PUSH2 0xD64 SWAP1 PUSH2 0x3FDF JUMP JUMPDEST PUSH1 0x40 MLOAD DUP1 SWAP2 SUB SWAP1 REVERT JUMPDEST PUSH2 0xD78 DUP4 DUP4 DUP4 PUSH2 0x1C51 JUMP JUMPDEST POP POP POP JUMP JUMPDEST PUSH1 0x0 PUSH1 0xB PUSH1 0x0 DUP4 DUP2 MSTORE PUSH1 0x20 ADD SWAP1 DUP2 MSTORE PUSH1 0x20 ADD PUSH1 0x0 KECCAK256 PUSH1 0x1 ADD SLOAD SWAP1 POP SWAP2 SWAP1 POP JUMP JUMPDEST PUSH2 0xDA6 DUP3 PUSH2 0xD7D JUMP JUMPDEST PUSH2 0xDAF DUP2 PUSH2 0x1EB8 JUMP JUMPDEST PUSH2 0xDB9 DUP4 DUP4 PUSH2 0x1ECC JUMP JUMPDEST POP POP POP JUMP JUMPDEST PUSH1 0x0 PUSH2 0xDC9 DUP4 PUSH2 0x1383 JUMP JUMPDEST DUP3 LT PUSH2 0xE0A JUMPI PUSH1 0x40 MLOAD PUSH32 0x8C379A000000000000000000000000000000000000000000000000000000000 DUP2 MSTORE PUSH1 0x4 ADD PUSH2 0xE01 SWAP1 PUSH2 0x3D7F JUMP JUMPDEST PUSH1 0x40 MLOAD DUP1 SWAP2 SUB SWAP1 REVERT JUMPDEST PUSH1 0x6 PUSH1 0x0 DUP5 PUSH20 0xFFFFFFFFFFFFFFFFFFFFFFFFFFFFFFFFFFFFFFFF AND PUSH20 0xFFFFFFFFFFFFFFFFFFFFFFFFFFFFFFFFFFFFFFFF AND DUP2 MSTORE PUSH1 0x20 ADD SWAP1 DUP2 MSTORE PUSH1 0x20 ADD PUSH1 0x0 KECCAK256 PUSH1 0x0 DUP4 DUP2 MSTORE PUSH1 0x20 ADD SWAP1 DUP2 MSTORE PUSH1 0x20 ADD PUSH1 0x0 KECCAK256 SLOAD SWAP1 POP SWAP3 SWAP2 POP POP JUMP JUMPDEST PUSH1 0xD PUSH1 0x0 SWAP1 SLOAD SWAP1 PUSH2 0x100 EXP SWAP1 DIV PUSH8 0xFFFFFFFFFFFFFFFF AND DUP2 JUMP JUMPDEST PUSH2 0xE85 PUSH2 0x1AB2 JUMP JUMPDEST PUSH20 0xFFFFFFFFFFFFFFFFFFFFFFFFFFFFFFFFFFFFFFFF AND DUP2 PUSH20 0xFFFFFFFFFFFFFFFFFFFFFFFFFFFFFFFFFFFFFFFF AND EQ PUSH2 0xEF2 JUMPI PUSH1 0x40 MLOAD PUSH32 0x8C379A000000000000000000000000000000000000000000000000000000000 DUP2 MSTORE PUSH1 0x4 ADD PUSH2 0xEE9 SWAP1 PUSH2 0x403F JUMP JUMPDEST PUSH1 0x40 MLOAD DUP1 SWAP2 SUB SWAP1 REVERT JUMPDEST PUSH2 0xEFC DUP3 DUP3 PUSH2 0x1FAD JUMP JUMPDEST POP POP JUMP JUMPDEST PUSH1 0x12 PUSH1 0x20 MSTORE DUP1 PUSH1 0x0 MSTORE PUSH1 0x40 PUSH1 0x0 KECCAK256 PUSH1 0x0 SWAP2 POP SWAP1 POP DUP1 PUSH1 0x0 ADD SLOAD SWAP1 POP DUP2 JUMP JUMPDEST PUSH1 0x0 PUSH1 0x12 PUSH1 0x0 DUP4 DUP2 MSTORE PUSH1 0x20 ADD SWAP1 DUP2 MSTORE PUSH1 0x20 ADD PUSH1 0x0 KECCAK256 PUSH1 0x0 ADD SLOAD SWAP1 POP SWAP2 SWAP1 POP JUMP JUMPDEST PUSH32 0x9F2DF0FED2C77648DE5860A4CC508CD0818C85B8B8A1AB4CEEEF8D981C8956A6 PUSH2 0xF68 DUP2 PUSH2 0x1EB8 JUMP JUMPDEST PUSH2 0xF70 PUSH2 0xD10 JUMP JUMPDEST PUSH2 0x3E8 GT PUSH2 0xFB3 JUMPI PUSH1 0x40 MLOAD PUSH32 0x8C379A000000000000000000000000000000000000000000000000000000000 DUP2 MSTORE PUSH1 0x4 ADD PUSH2 0xFAA SWAP1 PUSH2 0x3F5F JUMP JUMPDEST PUSH1 0x40 MLOAD DUP1 SWAP2 SUB SWAP1 REVERT JUMPDEST CALLVALUE PUSH1 0xD PUSH1 0x0 SWAP1 SLOAD SWAP1 PUSH2 0x100 EXP SWAP1 DIV PUSH8 0xFFFFFFFFFFFFFFFF AND PUSH8 0xFFFFFFFFFFFFFFFF AND GT ISZERO PUSH2 0x1016 JUMPI PUSH1 0x40 MLOAD PUSH32 0x8C379A000000000000000000000000000000000000000000000000000000000 DUP2 MSTORE PUSH1 0x4 ADD PUSH2 0x100D SWAP1 PUSH2 0x3EBF JUMP JUMPDEST PUSH1 0x40 MLOAD DUP1 SWAP2 SUB SWAP1 REVERT JUMPDEST PUSH1 0x0 PUSH2 0x1022 PUSH1 0xC PUSH2 0x208F JUMP JUMPDEST SWAP1 POP PUSH2 0x102E PUSH1 0xC PUSH2 0x209D JUMP JUMPDEST PUSH1 0x0 PUSH2 0x103A CALLER DUP4 PUSH2 0x20B3 JUMP JUMPDEST SWAP1 POP PUSH1 0x40 MLOAD DUP1 PUSH1 0x20 ADD PUSH1 0x40 MSTORE DUP1 DUP3 PUSH1 0x0 ADD MLOAD DUP2 MSTORE POP PUSH1 0x12 PUSH1 0x0 DUP5 DUP2 MSTORE PUSH1 0x20 ADD SWAP1 DUP2 MSTORE PUSH1 0x20 ADD PUSH1 0x0 KECCAK256 PUSH1 0x0 DUP3 ADD MLOAD DUP2 PUSH1 0x0 ADD SSTORE SWAP1 POP POP PUSH2 0x1079 DUP5 DUP4 PUSH2 0x2184 JUMP JUMPDEST POP POP POP POP JUMP JUMPDEST PUSH2 0x109A DUP4 DUP4 DUP4 PUSH1 0x40 MLOAD DUP1 PUSH1 0x20 ADD PUSH1 0x40 MSTORE DUP1 PUSH1 0x0 DUP2 MSTORE POP PUSH2 0x164C JUMP JUMPDEST POP POP POP JUMP JUMPDEST PUSH1 0x0 PUSH2 0x10A9 PUSH2 0x235E JUMP JUMPDEST PUSH2 0x10E8 JUMPI PUSH1 0x40 MLOAD PUSH32 0x8C379A000000000000000000000000000000000000000000000000000000000 DUP2 MSTORE PUSH1 0x4 ADD PUSH2 0x10DF SWAP1 PUSH2 0x401F JUMP JUMPDEST PUSH1 0x40 MLOAD DUP1 SWAP2 SUB SWAP1 REVERT JUMPDEST PUSH2 0x10F0 PUSH2 0x2390 JUMP JUMPDEST PUSH2 0x112F JUMPI PUSH1 0x40 MLOAD PUSH32 0x8C379A000000000000000000000000000000000000000000000000000000000 DUP2 MSTORE PUSH1 0x4 ADD PUSH2 0x1126 SWAP1 PUSH2 0x3DFF JUMP JUMPDEST PUSH1 0x40 MLOAD DUP1 SWAP2 SUB SWAP1 REVERT JUMPDEST PUSH1 0x0 PUSH1 0xF PUSH1 0x0 SWAP1 SLOAD SWAP1 PUSH2 0x100 EXP SWAP1 DIV PUSH20 0xFFFFFFFFFFFFFFFFFFFFFFFFFFFFFFFFFFFFFFFF AND PUSH20 0xFFFFFFFFFFFFFFFFFFFFFFFFFFFFFFFFFFFFFFFF AND CALLVALUE PUSH1 0x40 MLOAD PUSH2 0x1177 SWAP1 PUSH2 0x3C51 JUMP JUMPDEST PUSH1 0x0 PUSH1 0x40 MLOAD DUP1 DUP4 SUB DUP2 DUP6 DUP8 GAS CALL SWAP3 POP POP POP RETURNDATASIZE DUP1 PUSH1 0x0 DUP2 EQ PUSH2 0x11B4 JUMPI PUSH1 0x40 MLOAD SWAP2 POP PUSH1 0x1F NOT PUSH1 0x3F RETURNDATASIZE ADD AND DUP3 ADD PUSH1 0x40 MSTORE RETURNDATASIZE DUP3 MSTORE RETURNDATASIZE PUSH1 0x0 PUSH1 0x20 DUP5 ADD RETURNDATACOPY PUSH2 0x11B9 JUMP JUMPDEST PUSH1 0x60 SWAP2 POP JUMPDEST POP POP SWAP1 POP DUP1 PUSH2 0x11FD JUMPI PUSH1 0x40 MLOAD PUSH32 0x8C379A000000000000000000000000000000000000000000000000000000000 DUP2 MSTORE PUSH1 0x4 ADD PUSH2 0x11F4 SWAP1 PUSH2 0x3E3F JUMP JUMPDEST PUSH1 0x40 MLOAD DUP1 SWAP2 SUB SWAP1 REVERT JUMPDEST PUSH2 0x1227 PUSH32 0x9F2DF0FED2C77648DE5860A4CC508CD0818C85B8B8A1AB4CEEEF8D981C8956A6 CALLER PUSH2 0x1ECC JUMP JUMPDEST PUSH1 0x1 SWAP2 POP POP SWAP1 JUMP JUMPDEST PUSH1 0x0 PUSH2 0x1239 PUSH2 0xD10 JUMP JUMPDEST DUP3 LT PUSH2 0x127A JUMPI PUSH1 0x40 MLOAD PUSH32 0x8C379A000000000000000000000000000000000000000000000000000000000 DUP2 MSTORE PUSH1 0x4 ADD PUSH2 0x1271 SWAP1 PUSH2 0x3FFF JUMP JUMPDEST PUSH1 0x40 MLOAD DUP1 SWAP2 SUB SWAP1 REVERT JUMPDEST PUSH1 0x8 DUP3 DUP2 SLOAD DUP2 LT PUSH2 0x128E JUMPI PUSH2 0x128D PUSH2 0x4532 JUMP JUMPDEST JUMPDEST SWAP1 PUSH1 0x0 MSTORE PUSH1 0x20 PUSH1 0x0 KECCAK256 ADD SLOAD SWAP1 POP SWAP2 SWAP1 POP JUMP JUMPDEST DUP1 PUSH1 0xD PUSH1 0x0 PUSH2 0x100 EXP DUP2 SLOAD DUP2 PUSH8 0xFFFFFFFFFFFFFFFF MUL NOT AND SWAP1 DUP4 PUSH8 0xFFFFFFFFFFFFFFFF AND MUL OR SWAP1 SSTORE POP POP JUMP JUMPDEST PUSH1 0x0 DUP1 PUSH1 0x2 PUSH1 0x0 DUP5 DUP2 MSTORE PUSH1 0x20 ADD SWAP1 DUP2 MSTORE PUSH1 0x20 ADD PUSH1 0x0 KECCAK256 PUSH1 0x0 SWAP1 SLOAD SWAP1 PUSH2 0x100 EXP SWAP1 DIV PUSH20 0xFFFFFFFFFFFFFFFFFFFFFFFFFFFFFFFFFFFFFFFF AND SWAP1 POP PUSH1 0x0 PUSH20 0xFFFFFFFFFFFFFFFFFFFFFFFFFFFFFFFFFFFFFFFF AND DUP2 PUSH20 0xFFFFFFFFFFFFFFFFFFFFFFFFFFFFFFFFFFFFFFFF AND EQ ISZERO PUSH2 0x1375 JUMPI PUSH1 0x40 MLOAD PUSH32 0x8C379A000000000000000000000000000000000000000000000000000000000 DUP2 MSTORE PUSH1 0x4 ADD PUSH2 0x136C SWAP1 PUSH2 0x3F1F JUMP JUMPDEST PUSH1 0x40 MLOAD DUP1 SWAP2 SUB SWAP1 REVERT JUMPDEST DUP1 SWAP2 POP POP SWAP2 SWAP1 POP JUMP JUMPDEST PUSH1 0x4 DUP2 JUMP JUMPDEST PUSH1 0x0 DUP1 PUSH20 0xFFFFFFFFFFFFFFFFFFFFFFFFFFFFFFFFFFFFFFFF AND DUP3 PUSH20 0xFFFFFFFFFFFFFFFFFFFFFFFFFFFFFFFFFFFFFFFF AND EQ ISZERO PUSH2 0x13F4 JUMPI PUSH1 0x40 MLOAD PUSH32 0x8C379A000000000000000000000000000000000000000000000000000000000 DUP2 MSTORE PUSH1 0x4 ADD PUSH2 0x13EB SWAP1 PUSH2 0x3EFF JUMP JUMPDEST PUSH1 0x40 MLOAD DUP1 SWAP2 SUB SWAP1 REVERT JUMPDEST PUSH1 0x3 PUSH1 0x0 DUP4 PUSH20 0xFFFFFFFFFFFFFFFFFFFFFFFFFFFFFFFFFFFFFFFF AND PUSH20 0xFFFFFFFFFFFFFFFFFFFFFFFFFFFFFFFFFFFFFFFF AND DUP2 MSTORE PUSH1 0x20 ADD SWAP1 DUP2 MSTORE PUSH1 0x20 ADD PUSH1 0x0 KECCAK256 SLOAD SWAP1 POP SWAP2 SWAP1 POP JUMP JUMPDEST PUSH2 0x1443 PUSH2 0x1AB2 JUMP JUMPDEST PUSH20 0xFFFFFFFFFFFFFFFFFFFFFFFFFFFFFFFFFFFFFFFF AND PUSH2 0x1461 PUSH2 0x14E2 JUMP JUMPDEST PUSH20 0xFFFFFFFFFFFFFFFFFFFFFFFFFFFFFFFFFFFFFFFF AND EQ PUSH2 0x14B7 JUMPI PUSH1 0x40 MLOAD PUSH32 0x8C379A000000000000000000000000000000000000000000000000000000000 DUP2 MSTORE PUSH1 0x4 ADD PUSH2 0x14AE SWAP1 PUSH2 0x3F9F JUMP JUMPDEST PUSH1 0x40 MLOAD DUP1 SWAP2 SUB SWAP1 REVERT JUMPDEST PUSH2 0x14C1 PUSH1 0x0 PUSH2 0x23CA JUMP JUMPDEST JUMP JUMPDEST PUSH1 0x0 PUSH2 0x14CD PUSH2 0x109F JUMP JUMPDEST SWAP1 POP DUP1 ISZERO PUSH2 0x14DF JUMPI PUSH2 0x14DE CALLER PUSH2 0xF3E JUMP JUMPDEST JUMPDEST POP JUMP JUMPDEST PUSH1 0x0 PUSH1 0xA PUSH1 0x0 SWAP1 SLOAD SWAP1 PUSH2 0x100 EXP SWAP1 DIV PUSH20 0xFFFFFFFFFFFFFFFFFFFFFFFFFFFFFFFFFFFFFFFF AND SWAP1 POP SWAP1 JUMP JUMPDEST PUSH1 0x0 PUSH1 0xB PUSH1 0x0 DUP5 DUP2 MSTORE PUSH1 0x20 ADD SWAP1 DUP2 MSTORE PUSH1 0x20 ADD PUSH1 0x0 KECCAK256 PUSH1 0x0 ADD PUSH1 0x0 DUP4 PUSH20 0xFFFFFFFFFFFFFFFFFFFFFFFFFFFFFFFFFFFFFFFF AND PUSH20 0xFFFFFFFFFFFFFFFFFFFFFFFFFFFFFFFFFFFFFFFF AND DUP2 MSTORE PUSH1 0x20 ADD SWAP1 DUP2 MSTORE PUSH1 0x20 ADD PUSH1 0x0 KECCAK256 PUSH1 0x0 SWAP1 SLOAD SWAP1 PUSH2 0x100 EXP SWAP1 DIV PUSH1 0xFF AND SWAP1 POP SWAP3 SWAP2 POP POP JUMP JUMPDEST PUSH1 0x60 PUSH1 0x1 DUP1 SLOAD PUSH2 0x1586 SWAP1 PUSH2 0x4361 JUMP JUMPDEST DUP1 PUSH1 0x1F ADD PUSH1 0x20 DUP1 SWAP2 DIV MUL PUSH1 0x20 ADD PUSH1 0x40 MLOAD SWAP1 DUP2 ADD PUSH1 0x40 MSTORE DUP1 SWAP3 SWAP2 SWAP1 DUP2 DUP2 MSTORE PUSH1 0x20 ADD DUP3 DUP1 SLOAD PUSH2 0x15B2 SWAP1 PUSH2 0x4361 JUMP JUMPDEST DUP1 ISZERO PUSH2 0x15FF JUMPI DUP1 PUSH1 0x1F LT PUSH2 0x15D4 JUMPI PUSH2 0x100 DUP1 DUP4 SLOAD DIV MUL DUP4 MSTORE SWAP2 PUSH1 0x20 ADD SWAP2 PUSH2 0x15FF JUMP JUMPDEST DUP3 ADD SWAP2 SWAP1 PUSH1 0x0 MSTORE PUSH1 0x20 PUSH1 0x0 KECCAK256 SWAP1 JUMPDEST DUP2 SLOAD DUP2 MSTORE SWAP1 PUSH1 0x1 ADD SWAP1 PUSH1 0x20 ADD DUP1 DUP4 GT PUSH2 0x15E2 JUMPI DUP3 SWAP1 SUB PUSH1 0x1F AND DUP3 ADD SWAP2 JUMPDEST POP POP POP POP POP SWAP1 POP SWAP1 JUMP JUMPDEST PUSH1 0x0 DUP1 SHL DUP2 JUMP JUMPDEST PUSH2 0x1622 PUSH2 0x161B PUSH2 0x1AB2 JUMP JUMPDEST DUP4 DUP4 PUSH2 0x2490 JUMP JUMPDEST POP POP JUMP JUMPDEST PUSH1 0xF PUSH1 0x0 SWAP1 SLOAD SWAP1 PUSH2 0x100 EXP SWAP1 DIV PUSH20 0xFFFFFFFFFFFFFFFFFFFFFFFFFFFFFFFFFFFFFFFF AND DUP2 JUMP JUMPDEST PUSH2 0x165D PUSH2 0x1657 PUSH2 0x1AB2 JUMP JUMPDEST DUP4 PUSH2 0x1B73 JUMP JUMPDEST PUSH2 0x169C JUMPI PUSH1 0x40 MLOAD PUSH32 0x8C379A000000000000000000000000000000000000000000000000000000000 DUP2 MSTORE PUSH1 0x4 ADD PUSH2 0x1693 SWAP1 PUSH2 0x3FDF JUMP JUMPDEST PUSH1 0x40 MLOAD DUP1 SWAP2 SUB SWAP1 REVERT JUMPDEST PUSH2 0x16A8 DUP5 DUP5 DUP5 DUP5 PUSH2 0x25FD JUMP JUMPDEST POP POP POP POP JUMP JUMPDEST PUSH1 0x60 PUSH1 0x0 PUSH2 0x16D1 PUSH1 0x12 PUSH1 0x0 DUP6 DUP2 MSTORE PUSH1 0x20 ADD SWAP1 DUP2 MSTORE PUSH1 0x20 ADD PUSH1 0x0 KECCAK256 PUSH1 0x0 ADD SLOAD PUSH2 0x2659 JUMP JUMPDEST SWAP1 POP PUSH1 0x10 DUP2 PUSH1 0x40 MLOAD PUSH1 0x20 ADD PUSH2 0x16E7 SWAP3 SWAP2 SWAP1 PUSH2 0x3C17 JUMP JUMPDEST PUSH1 0x40 MLOAD PUSH1 0x20 DUP2 DUP4 SUB SUB DUP2 MSTORE SWAP1 PUSH1 0x40 MSTORE SWAP2 POP POP SWAP2 SWAP1 POP JUMP JUMPDEST PUSH2 0x3E8 DUP2 JUMP JUMPDEST PUSH32 0x9F2DF0FED2C77648DE5860A4CC508CD0818C85B8B8A1AB4CEEEF8D981C8956A6 DUP2 JUMP JUMPDEST PUSH2 0x1731 DUP3 PUSH2 0xD7D JUMP JUMPDEST PUSH2 0x173A DUP2 PUSH2 0x1EB8 JUMP JUMPDEST PUSH2 0x1744 DUP4 DUP4 PUSH2 0x1FAD JUMP JUMPDEST POP POP POP JUMP JUMPDEST PUSH2 0x1751 PUSH2 0x1AB2 JUMP JUMPDEST PUSH20 0xFFFFFFFFFFFFFFFFFFFFFFFFFFFFFFFFFFFFFFFF AND PUSH2 0x176F PUSH2 0x14E2 JUMP JUMPDEST PUSH20 0xFFFFFFFFFFFFFFFFFFFFFFFFFFFFFFFFFFFFFFFF AND EQ PUSH2 0x17C5 JUMPI PUSH1 0x40 MLOAD PUSH32 0x8C379A000000000000000000000000000000000000000000000000000000000 DUP2 MSTORE PUSH1 0x4 ADD PUSH2 0x17BC SWAP1 PUSH2 0x3F9F JUMP JUMPDEST PUSH1 0x40 MLOAD DUP1 SWAP2 SUB SWAP1 REVERT JUMPDEST PUSH1 0x1 PUSH1 0x13 PUSH1 0x0 DUP4 PUSH20 0xFFFFFFFFFFFFFFFFFFFFFFFFFFFFFFFFFFFFFFFF AND PUSH20 0xFFFFFFFFFFFFFFFFFFFFFFFFFFFFFFFFFFFFFFFF AND DUP2 MSTORE PUSH1 0x20 ADD SWAP1 DUP2 MSTORE PUSH1 0x20 ADD PUSH1 0x0 KECCAK256 PUSH1 0x0 PUSH2 0x100 EXP DUP2 SLOAD DUP2 PUSH1 0xFF MUL NOT AND SWAP1 DUP4 ISZERO ISZERO MUL OR SWAP1 SSTORE POP POP JUMP JUMPDEST PUSH1 0x0 PUSH1 0x5 PUSH1 0x0 DUP5 PUSH20 0xFFFFFFFFFFFFFFFFFFFFFFFFFFFFFFFFFFFFFFFF AND PUSH20 0xFFFFFFFFFFFFFFFFFFFFFFFFFFFFFFFFFFFFFFFF AND DUP2 MSTORE PUSH1 0x20 ADD SWAP1 DUP2 MSTORE PUSH1 0x20 ADD PUSH1 0x0 KECCAK256 PUSH1 0x0 DUP4 PUSH20 0xFFFFFFFFFFFFFFFFFFFFFFFFFFFFFFFFFFFFFFFF AND PUSH20 0xFFFFFFFFFFFFFFFFFFFFFFFFFFFFFFFFFFFFFFFF AND DUP2 MSTORE PUSH1 0x20 ADD SWAP1 DUP2 MSTORE PUSH1 0x20 ADD PUSH1 0x0 KECCAK256 PUSH1 0x0 SWAP1 SLOAD SWAP1 PUSH2 0x100 EXP SWAP1 DIV PUSH1 0xFF AND SWAP1 POP SWAP3 SWAP2 POP POP JUMP JUMPDEST PUSH2 0x18BC PUSH2 0x1AB2 JUMP JUMPDEST PUSH20 0xFFFFFFFFFFFFFFFFFFFFFFFFFFFFFFFFFFFFFFFF AND PUSH2 0x18DA PUSH2 0x14E2 JUMP JUMPDEST PUSH20 0xFFFFFFFFFFFFFFFFFFFFFFFFFFFFFFFFFFFFFFFF AND EQ PUSH2 0x1930 JUMPI PUSH1 0x40 MLOAD PUSH32 0x8C379A000000000000000000000000000000000000000000000000000000000 DUP2 MSTORE PUSH1 0x4 ADD PUSH2 0x1927 SWAP1 PUSH2 0x3F9F JUMP JUMPDEST PUSH1 0x40 MLOAD DUP1 SWAP2 SUB SWAP1 REVERT JUMPDEST PUSH1 0x0 PUSH20 0xFFFFFFFFFFFFFFFFFFFFFFFFFFFFFFFFFFFFFFFF AND DUP2 PUSH20 0xFFFFFFFFFFFFFFFFFFFFFFFFFFFFFFFFFFFFFFFF AND EQ ISZERO PUSH2 0x19A0 JUMPI PUSH1 0x40 MLOAD PUSH32 0x8C379A000000000000000000000000000000000000000000000000000000000 DUP2 MSTORE PUSH1 0x4 ADD PUSH2 0x1997 SWAP1 PUSH2 0x3DBF JUMP JUMPDEST PUSH1 0x40 MLOAD DUP1 SWAP2 SUB SWAP1 REVERT JUMPDEST PUSH2 0x19A9 DUP2 PUSH2 0x23CA JUMP JUMPDEST POP JUMP JUMPDEST PUSH1 0x13 PUSH1 0x20 MSTORE DUP1 PUSH1 0x0 MSTORE PUSH1 0x40 PUSH1 0x0 KECCAK256 PUSH1 0x0 SWAP2 POP SLOAD SWAP1 PUSH2 0x100 EXP SWAP1 DIV PUSH1 0xFF AND DUP2 JUMP JUMPDEST PUSH1 0x0 PUSH32 0x7965DB0B00000000000000000000000000000000000000000000000000000000 PUSH28 0xFFFFFFFFFFFFFFFFFFFFFFFFFFFFFFFFFFFFFFFFFFFFFFFFFFFFFFFF NOT AND DUP3 PUSH28 0xFFFFFFFFFFFFFFFFFFFFFFFFFFFFFFFFFFFFFFFFFFFFFFFFFFFFFFFF NOT AND EQ DUP1 PUSH2 0x1A3F JUMPI POP PUSH2 0x1A3E DUP3 PUSH2 0x27BA JUMP JUMPDEST JUMPDEST SWAP1 POP SWAP2 SWAP1 POP JUMP JUMPDEST PUSH1 0x0 DUP1 PUSH20 0xFFFFFFFFFFFFFFFFFFFFFFFFFFFFFFFFFFFFFFFF AND PUSH1 0x2 PUSH1 0x0 DUP5 DUP2 MSTORE PUSH1 0x20 ADD SWAP1 DUP2 MSTORE PUSH1 0x20 ADD PUSH1 0x0 KECCAK256 PUSH1 0x0 SWAP1 SLOAD SWAP1 PUSH2 0x100 EXP SWAP1 DIV PUSH20 0xFFFFFFFFFFFFFFFFFFFFFFFFFFFFFFFFFFFFFFFF AND PUSH20 0xFFFFFFFFFFFFFFFFFFFFFFFFFFFFFFFFFFFFFFFF AND EQ ISZERO SWAP1 POP SWAP2 SWAP1 POP JUMP JUMPDEST PUSH1 0x0 CALLER SWAP1 POP SWAP1 JUMP JUMPDEST DUP2 PUSH1 0x4 PUSH1 0x0 DUP4 DUP2 MSTORE PUSH1 0x20 ADD SWAP1 DUP2 MSTORE PUSH1 0x20 ADD PUSH1 0x0 KECCAK256 PUSH1 0x0 PUSH2 0x100 EXP DUP2 SLOAD DUP2 PUSH20 0xFFFFFFFFFFFFFFFFFFFFFFFFFFFFFFFFFFFFFFFF MUL NOT AND SWAP1 DUP4 PUSH20 0xFFFFFFFFFFFFFFFFFFFFFFFFFFFFFFFFFFFFFFFF AND MUL OR SWAP1 SSTORE POP DUP1 DUP3 PUSH20 0xFFFFFFFFFFFFFFFFFFFFFFFFFFFFFFFFFFFFFFFF AND PUSH2 0x1B2D DUP4 PUSH2 0x12CC JUMP JUMPDEST PUSH20 0xFFFFFFFFFFFFFFFFFFFFFFFFFFFFFFFFFFFFFFFF AND PUSH32 0x8C5BE1E5EBEC7D5BD14F71427D1E84F3DD0314C0F7B2291E5B200AC8C7C3B925 PUSH1 0x40 MLOAD PUSH1 0x40 MLOAD DUP1 SWAP2 SUB SWAP1 LOG4 POP POP JUMP JUMPDEST PUSH1 0x0 PUSH2 0x1B7E DUP3 PUSH2 0x1A46 JUMP JUMPDEST PUSH2 0x1BBD JUMPI PUSH1 0x40 MLOAD PUSH32 0x8C379A000000000000000000000000000000000000000000000000000000000 DUP2 MSTORE PUSH1 0x4 ADD PUSH2 0x1BB4 SWAP1 PUSH2 0x3E9F JUMP JUMPDEST PUSH1 0x40 MLOAD DUP1 SWAP2 SUB SWAP1 REVERT JUMPDEST PUSH1 0x0 PUSH2 0x1BC8 DUP4 PUSH2 0x12CC JUMP JUMPDEST SWAP1 POP DUP1 PUSH20 0xFFFFFFFFFFFFFFFFFFFFFFFFFFFFFFFFFFFFFFFF AND DUP5 PUSH20 0xFFFFFFFFFFFFFFFFFFFFFFFFFFFFFFFFFFFFFFFF AND EQ DUP1 PUSH2 0x1C0A JUMPI POP PUSH2 0x1C09 DUP2 DUP6 PUSH2 0x1820 JUMP JUMPDEST JUMPDEST DUP1 PUSH2 0x1C48 JUMPI POP DUP4 PUSH20 0xFFFFFFFFFFFFFFFFFFFFFFFFFFFFFFFFFFFFFFFF AND PUSH2 0x1C30 DUP5 PUSH2 0xB30 JUMP JUMPDEST PUSH20 0xFFFFFFFFFFFFFFFFFFFFFFFFFFFFFFFFFFFFFFFF AND EQ JUMPDEST SWAP2 POP POP SWAP3 SWAP2 POP POP JUMP JUMPDEST DUP3 PUSH20 0xFFFFFFFFFFFFFFFFFFFFFFFFFFFFFFFFFFFFFFFF AND PUSH2 0x1C71 DUP3 PUSH2 0x12CC JUMP JUMPDEST PUSH20 0xFFFFFFFFFFFFFFFFFFFFFFFFFFFFFFFFFFFFFFFF AND EQ PUSH2 0x1CC7 JUMPI PUSH1 0x40 MLOAD PUSH32 0x8C379A000000000000000000000000000000000000000000000000000000000 DUP2 MSTORE PUSH1 0x4 ADD PUSH2 0x1CBE SWAP1 PUSH2 0x3DDF JUMP JUMPDEST PUSH1 0x40 MLOAD DUP1 SWAP2 SUB SWAP1 REVERT JUMPDEST PUSH1 0x0 PUSH20 0xFFFFFFFFFFFFFFFFFFFFFFFFFFFFFFFFFFFFFFFF AND DUP3 PUSH20 0xFFFFFFFFFFFFFFFFFFFFFFFFFFFFFFFFFFFFFFFF AND EQ ISZERO PUSH2 0x1D37 JUMPI PUSH1 0x40 MLOAD PUSH32 0x8C379A000000000000000000000000000000000000000000000000000000000 DUP2 MSTORE PUSH1 0x4 ADD PUSH2 0x1D2E SWAP1 PUSH2 0x3E5F JUMP JUMPDEST PUSH1 0x40 MLOAD DUP1 SWAP2 SUB SWAP1 REVERT JUMPDEST PUSH2 0x1D42 DUP4 DUP4 DUP4 PUSH2 0x2834 JUMP JUMPDEST PUSH2 0x1D4D PUSH1 0x0 DUP3 PUSH2 0x1ABA JUMP JUMPDEST PUSH1 0x1 PUSH1 0x3 PUSH1 0x0 DUP6 PUSH20 0xFFFFFFFFFFFFFFFFFFFFFFFFFFFFFFFFFFFFFFFF AND PUSH20 0xFFFFFFFFFFFFFFFFFFFFFFFFFFFFFFFFFFFFFFFF AND DUP2 MSTORE PUSH1 0x20 ADD SWAP1 DUP2 MSTORE PUSH1 0x20 ADD PUSH1 0x0 KECCAK256 PUSH1 0x0 DUP3 DUP3 SLOAD PUSH2 0x1D9D SWAP2 SWAP1 PUSH2 0x422F JUMP JUMPDEST SWAP3 POP POP DUP2 SWAP1 SSTORE POP PUSH1 0x1 PUSH1 0x3 PUSH1 0x0 DUP5 PUSH20 0xFFFFFFFFFFFFFFFFFFFFFFFFFFFFFFFFFFFFFFFF AND PUSH20 0xFFFFFFFFFFFFFFFFFFFFFFFFFFFFFFFFFFFFFFFF AND DUP2 MSTORE PUSH1 0x20 ADD SWAP1 DUP2 MSTORE PUSH1 0x20 ADD PUSH1 0x0 KECCAK256 PUSH1 0x0 DUP3 DUP3 SLOAD PUSH2 0x1DF4 SWAP2 SWAP1 PUSH2 0x414E JUMP JUMPDEST SWAP3 POP POP DUP2 SWAP1 SSTORE POP DUP2 PUSH1 0x2 PUSH1 0x0 DUP4 DUP2 MSTORE PUSH1 0x20 ADD SWAP1 DUP2 MSTORE PUSH1 0x20 ADD PUSH1 0x0 KECCAK256 PUSH1 0x0 PUSH2 0x100 EXP DUP2 SLOAD DUP2 PUSH20 0xFFFFFFFFFFFFFFFFFFFFFFFFFFFFFFFFFFFFFFFF MUL NOT AND SWAP1 DUP4 PUSH20 0xFFFFFFFFFFFFFFFFFFFFFFFFFFFFFFFFFFFFFFFF AND MUL OR SWAP1 SSTORE POP DUP1 DUP3 PUSH20 0xFFFFFFFFFFFFFFFFFFFFFFFFFFFFFFFFFFFFFFFF AND DUP5 PUSH20 0xFFFFFFFFFFFFFFFFFFFFFFFFFFFFFFFFFFFFFFFF AND PUSH32 0xDDF252AD1BE2C89B69C2B068FC378DAA952BA7F163C4A11628F55A4DF523B3EF PUSH1 0x40 MLOAD PUSH1 0x40 MLOAD DUP1 SWAP2 SUB SWAP1 LOG4 PUSH2 0x1EB3 DUP4 DUP4 DUP4 PUSH2 0x2948 JUMP JUMPDEST POP POP POP JUMP JUMPDEST PUSH2 0x1EC9 DUP2 PUSH2 0x1EC4 PUSH2 0x1AB2 JUMP JUMPDEST PUSH2 0x294D JUMP JUMPDEST POP JUMP JUMPDEST PUSH2 0x1ED6 DUP3 DUP3 PUSH2 0x150C JUMP JUMPDEST PUSH2 0x1FA9 JUMPI PUSH1 0x1 PUSH1 0xB PUSH1 0x0 DUP5 DUP2 MSTORE PUSH1 0x20 ADD SWAP1 DUP2 MSTORE PUSH1 0x20 ADD PUSH1 0x0 KECCAK256 PUSH1 0x0 ADD PUSH1 0x0 DUP4 PUSH20 0xFFFFFFFFFFFFFFFFFFFFFFFFFFFFFFFFFFFFFFFF AND PUSH20 0xFFFFFFFFFFFFFFFFFFFFFFFFFFFFFFFFFFFFFFFF AND DUP2 MSTORE PUSH1 0x20 ADD SWAP1 DUP2 MSTORE PUSH1 0x20 ADD PUSH1 0x0 KECCAK256 PUSH1 0x0 PUSH2 0x100 EXP DUP2 SLOAD DUP2 PUSH1 0xFF MUL NOT AND SWAP1 DUP4 ISZERO ISZERO MUL OR SWAP1 SSTORE POP PUSH2 0x1F4E PUSH2 0x1AB2 JUMP JUMPDEST PUSH20 0xFFFFFFFFFFFFFFFFFFFFFFFFFFFFFFFFFFFFFFFF AND DUP2 PUSH20 0xFFFFFFFFFFFFFFFFFFFFFFFFFFFFFFFFFFFFFFFF AND DUP4 PUSH32 0x2F8788117E7EFF1D82E926EC794901D17C78024A50270940304540A733656F0D PUSH1 0x40 MLOAD PUSH1 0x40 MLOAD DUP1 SWAP2 SUB SWAP1 LOG4 JUMPDEST POP POP JUMP JUMPDEST PUSH2 0x1FB7 DUP3 DUP3 PUSH2 0x150C JUMP JUMPDEST ISZERO PUSH2 0x208B JUMPI PUSH1 0x0 PUSH1 0xB PUSH1 0x0 DUP5 DUP2 MSTORE PUSH1 0x20 ADD SWAP1 DUP2 MSTORE PUSH1 0x20 ADD PUSH1 0x0 KECCAK256 PUSH1 0x0 ADD PUSH1 0x0 DUP4 PUSH20 0xFFFFFFFFFFFFFFFFFFFFFFFFFFFFFFFFFFFFFFFF AND PUSH20 0xFFFFFFFFFFFFFFFFFFFFFFFFFFFFFFFFFFFFFFFF AND DUP2 MSTORE PUSH1 0x20 ADD SWAP1 DUP2 MSTORE PUSH1 0x20 ADD PUSH1 0x0 KECCAK256 PUSH1 0x0 PUSH2 0x100 EXP DUP2 SLOAD DUP2 PUSH1 0xFF MUL NOT AND SWAP1 DUP4 ISZERO ISZERO MUL OR SWAP1 SSTORE POP PUSH2 0x2030 PUSH2 0x1AB2 JUMP JUMPDEST PUSH20 0xFFFFFFFFFFFFFFFFFFFFFFFFFFFFFFFFFFFFFFFF AND DUP2 PUSH20 0xFFFFFFFFFFFFFFFFFFFFFFFFFFFFFFFFFFFFFFFF AND DUP4 PUSH32 0xF6391F5C32D9C69D2A47EA670B442974B53935D1EDC7FD64EB21E047A839171B PUSH1 0x40 MLOAD PUSH1 0x40 MLOAD DUP1 SWAP2 SUB SWAP1 LOG4 JUMPDEST POP POP JUMP JUMPDEST PUSH1 0x0 DUP2 PUSH1 0x0 ADD SLOAD SWAP1 POP SWAP2 SWAP1 POP JUMP JUMPDEST PUSH1 0x1 DUP2 PUSH1 0x0 ADD PUSH1 0x0 DUP3 DUP3 SLOAD ADD SWAP3 POP POP DUP2 SWAP1 SSTORE POP POP JUMP JUMPDEST PUSH2 0x20BB PUSH2 0x3237 JUMP JUMPDEST PUSH2 0x20C3 PUSH2 0x3237 JUMP JUMPDEST PUSH2 0x3E8 TIMESTAMP BLOCKHASH DUP6 DUP6 PUSH1 0x40 MLOAD PUSH1 0x20 ADD PUSH2 0x20DC SWAP4 SWAP3 SWAP2 SWAP1 PUSH2 0x3BDA JUMP JUMPDEST PUSH1 0x40 MLOAD PUSH1 0x20 DUP2 DUP4 SUB SUB DUP2 MSTORE SWAP1 PUSH1 0x40 MSTORE DUP1 MLOAD SWAP1 PUSH1 0x20 ADD KECCAK256 PUSH1 0x0 SHR PUSH2 0x20FF SWAP2 SWAP1 PUSH2 0x4445 JUMP JUMPDEST DUP2 PUSH1 0x0 ADD DUP2 DUP2 MSTORE POP POP PUSH2 0x3E8 TIMESTAMP BLOCKHASH DUP6 DUP6 PUSH1 0x40 MLOAD PUSH1 0x20 ADD PUSH2 0x2121 SWAP4 SWAP3 SWAP2 SWAP1 PUSH2 0x3BDA JUMP JUMPDEST PUSH1 0x40 MLOAD PUSH1 0x20 DUP2 DUP4 SUB SUB DUP2 MSTORE SWAP1 PUSH1 0x40 MSTORE DUP1 MLOAD SWAP1 PUSH1 0x20 ADD KECCAK256 PUSH1 0x0 SHR PUSH2 0x2144 SWAP2 SWAP1 PUSH2 0x4445 JUMP JUMPDEST DUP2 PUSH1 0x0 ADD DUP2 DUP2 MSTORE POP POP PUSH1 0x11 DUP2 PUSH1 0x0 ADD MLOAD SWAP1 DUP1 PUSH1 0x1 DUP2 SLOAD ADD DUP1 DUP3 SSTORE DUP1 SWAP2 POP POP PUSH1 0x1 SWAP1 SUB SWAP1 PUSH1 0x0 MSTORE PUSH1 0x20 PUSH1 0x0 KECCAK256 ADD PUSH1 0x0 SWAP1 SWAP2 SWAP1 SWAP2 SWAP1 SWAP2 POP SSTORE DUP1 SWAP2 POP POP SWAP3 SWAP2 POP POP JUMP JUMPDEST PUSH1 0x0 PUSH20 0xFFFFFFFFFFFFFFFFFFFFFFFFFFFFFFFFFFFFFFFF AND DUP3 PUSH20 0xFFFFFFFFFFFFFFFFFFFFFFFFFFFFFFFFFFFFFFFF AND EQ ISZERO PUSH2 0x21F4 JUMPI PUSH1 0x40 MLOAD PUSH32 0x8C379A000000000000000000000000000000000000000000000000000000000 DUP2 MSTORE PUSH1 0x4 ADD PUSH2 0x21EB SWAP1 PUSH2 0x3F3F JUMP JUMPDEST PUSH1 0x40 MLOAD DUP1 SWAP2 SUB SWAP1 REVERT JUMPDEST PUSH2 0x21FD DUP2 PUSH2 0x1A46 JUMP JUMPDEST ISZERO PUSH2 0x223D JUMPI PUSH1 0x40 MLOAD PUSH32 0x8C379A000000000000000000000000000000000000000000000000000000000 DUP2 MSTORE PUSH1 0x4 ADD PUSH2 0x2234 SWAP1 PUSH2 0x3E1F JUMP JUMPDEST PUSH1 0x40 MLOAD DUP1 SWAP2 SUB SWAP1 REVERT JUMPDEST PUSH2 0x2249 PUSH1 0x0 DUP4 DUP4 PUSH2 0x2834 JUMP JUMPDEST PUSH1 0x1 PUSH1 0x3 PUSH1 0x0 DUP5 PUSH20 0xFFFFFFFFFFFFFFFFFFFFFFFFFFFFFFFFFFFFFFFF AND PUSH20 0xFFFFFFFFFFFFFFFFFFFFFFFFFFFFFFFFFFFFFFFF AND DUP2 MSTORE PUSH1 0x20 ADD SWAP1 DUP2 MSTORE PUSH1 0x20 ADD PUSH1 0x0 KECCAK256 PUSH1 0x0 DUP3 DUP3 SLOAD PUSH2 0x2299 SWAP2 SWAP1 PUSH2 0x414E JUMP JUMPDEST SWAP3 POP POP DUP2 SWAP1 SSTORE POP DUP2 PUSH1 0x2 PUSH1 0x0 DUP4 DUP2 MSTORE PUSH1 0x20 ADD SWAP1 DUP2 MSTORE PUSH1 0x20 ADD PUSH1 0x0 KECCAK256 PUSH1 0x0 PUSH2 0x100 EXP DUP2 SLOAD DUP2 PUSH20 0xFFFFFFFFFFFFFFFFFFFFFFFFFFFFFFFFFFFFFFFF MUL NOT AND SWAP1 DUP4 PUSH20 0xFFFFFFFFFFFFFFFFFFFFFFFFFFFFFFFFFFFFFFFF AND MUL OR SWAP1 SSTORE POP DUP1 DUP3 PUSH20 0xFFFFFFFFFFFFFFFFFFFFFFFFFFFFFFFFFFFFFFFF AND PUSH1 0x0 PUSH20 0xFFFFFFFFFFFFFFFFFFFFFFFFFFFFFFFFFFFFFFFF AND PUSH32 0xDDF252AD1BE2C89B69C2B068FC378DAA952BA7F163C4A11628F55A4DF523B3EF PUSH1 0x40 MLOAD PUSH1 0x40 MLOAD DUP1 SWAP2 SUB SWAP1 LOG4 PUSH2 0x235A PUSH1 0x0 DUP4 DUP4 PUSH2 0x2948 JUMP JUMPDEST POP POP JUMP JUMPDEST PUSH1 0x0 CALLVALUE CALLER PUSH20 0xFFFFFFFFFFFFFFFFFFFFFFFFFFFFFFFFFFFFFFFF AND BALANCE LT ISZERO PUSH2 0x2388 JUMPI PUSH1 0x0 SWAP1 POP PUSH2 0x238D JUMP JUMPDEST PUSH1 0x1 SWAP1 POP JUMPDEST SWAP1 JUMP JUMPDEST PUSH1 0x0 CALLVALUE PUSH1 0xD PUSH1 0x0 SWAP1 SLOAD SWAP1 PUSH2 0x100 EXP SWAP1 DIV PUSH8 0xFFFFFFFFFFFFFFFF AND PUSH8 0xFFFFFFFFFFFFFFFF AND EQ PUSH2 0x23C2 JUMPI PUSH1 0x0 SWAP1 POP PUSH2 0x23C7 JUMP JUMPDEST PUSH1 0x1 SWAP1 POP JUMPDEST SWAP1 JUMP JUMPDEST PUSH1 0x0 PUSH1 0xA PUSH1 0x0 SWAP1 SLOAD SWAP1 PUSH2 0x100 EXP SWAP1 DIV PUSH20 0xFFFFFFFFFFFFFFFFFFFFFFFFFFFFFFFFFFFFFFFF AND SWAP1 POP DUP2 PUSH1 0xA PUSH1 0x0 PUSH2 0x100 EXP DUP2 SLOAD DUP2 PUSH20 0xFFFFFFFFFFFFFFFFFFFFFFFFFFFFFFFFFFFFFFFF MUL NOT AND SWAP1 DUP4 PUSH20 0xFFFFFFFFFFFFFFFFFFFFFFFFFFFFFFFFFFFFFFFF AND MUL OR SWAP1 SSTORE POP DUP2 PUSH20 0xFFFFFFFFFFFFFFFFFFFFFFFFFFFFFFFFFFFFFFFF AND DUP2 PUSH20 0xFFFFFFFFFFFFFFFFFFFFFFFFFFFFFFFFFFFFFFFF AND PUSH32 0x8BE0079C531659141344CD1FD0A4F28419497F9722A3DAAFE3B4186F6B6457E0 PUSH1 0x40 MLOAD PUSH1 0x40 MLOAD DUP1 SWAP2 SUB SWAP1 LOG3 POP POP JUMP JUMPDEST DUP2 PUSH20 0xFFFFFFFFFFFFFFFFFFFFFFFFFFFFFFFFFFFFFFFF AND DUP4 PUSH20 0xFFFFFFFFFFFFFFFFFFFFFFFFFFFFFFFFFFFFFFFF AND EQ ISZERO PUSH2 0x24FF JUMPI PUSH1 0x40 MLOAD PUSH32 0x8C379A000000000000000000000000000000000000000000000000000000000 DUP2 MSTORE PUSH1 0x4 ADD PUSH2 0x24F6 SWAP1 PUSH2 0x3E7F JUMP JUMPDEST PUSH1 0x40 MLOAD DUP1 SWAP2 SUB SWAP1 REVERT JUMPDEST DUP1 PUSH1 0x5 PUSH1 0x0 DUP6 PUSH20 0xFFFFFFFFFFFFFFFFFFFFFFFFFFFFFFFFFFFFFFFF AND PUSH20 0xFFFFFFFFFFFFFFFFFFFFFFFFFFFFFFFFFFFFFFFF AND DUP2 MSTORE PUSH1 0x20 ADD SWAP1 DUP2 MSTORE PUSH1 0x20 ADD PUSH1 0x0 KECCAK256 PUSH1 0x0 DUP5 PUSH20 0xFFFFFFFFFFFFFFFFFFFFFFFFFFFFFFFFFFFFFFFF AND PUSH20 0xFFFFFFFFFFFFFFFFFFFFFFFFFFFFFFFFFFFFFFFF AND DUP2 MSTORE PUSH1 0x20 ADD SWAP1 DUP2 MSTORE PUSH1 0x20 ADD PUSH1 0x0 KECCAK256 PUSH1 0x0 PUSH2 0x100 EXP DUP2 SLOAD DUP2 PUSH1 0xFF MUL NOT AND SWAP1 DUP4 ISZERO ISZERO MUL OR SWAP1 SSTORE POP DUP2 PUSH20 0xFFFFFFFFFFFFFFFFFFFFFFFFFFFFFFFFFFFFFFFF AND DUP4 PUSH20 0xFFFFFFFFFFFFFFFFFFFFFFFFFFFFFFFFFFFFFFFF AND PUSH32 0x17307EAB39AB6107E8899845AD3D59BD9653F200F220920489CA2B5937696C31 DUP4 PUSH1 0x40 MLOAD PUSH2 0x25F0 SWAP2 SWAP1 PUSH2 0x3D07 JUMP JUMPDEST PUSH1 0x40 MLOAD DUP1 SWAP2 SUB SWAP1 LOG3 POP POP POP JUMP JUMPDEST PUSH2 0x2608 DUP5 DUP5 DUP5 PUSH2 0x1C51 JUMP JUMPDEST PUSH2 0x2614 DUP5 DUP5 DUP5 DUP5 PUSH2 0x29EA JUMP JUMPDEST PUSH2 0x2653 JUMPI PUSH1 0x40 MLOAD PUSH32 0x8C379A000000000000000000000000000000000000000000000000000000000 DUP2 MSTORE PUSH1 0x4 ADD PUSH2 0x264A SWAP1 PUSH2 0x3D9F JUMP JUMPDEST PUSH1 0x40 MLOAD DUP1 SWAP2 SUB SWAP1 REVERT JUMPDEST POP POP POP POP JUMP JUMPDEST PUSH1 0x60 PUSH1 0x0 DUP3 EQ ISZERO PUSH2 0x26A1 JUMPI PUSH1 0x40 MLOAD DUP1 PUSH1 0x40 ADD PUSH1 0x40 MSTORE DUP1 PUSH1 0x1 DUP2 MSTORE PUSH1 0x20 ADD PUSH32 0x3000000000000000000000000000000000000000000000000000000000000000 DUP2 MSTORE POP SWAP1 POP PUSH2 0x27B5 JUMP JUMPDEST PUSH1 0x0 DUP3 SWAP1 POP PUSH1 0x0 JUMPDEST PUSH1 0x0 DUP3 EQ PUSH2 0x26D3 JUMPI DUP1 DUP1 PUSH2 0x26BC SWAP1 PUSH2 0x43C4 JUMP JUMPDEST SWAP2 POP POP PUSH1 0xA DUP3 PUSH2 0x26CC SWAP2 SWAP1 PUSH2 0x41A4 JUMP JUMPDEST SWAP2 POP PUSH2 0x26A9 JUMP JUMPDEST PUSH1 0x0 DUP2 PUSH8 0xFFFFFFFFFFFFFFFF DUP2 GT ISZERO PUSH2 0x26EF JUMPI PUSH2 0x26EE PUSH2 0x4561 JUMP JUMPDEST JUMPDEST PUSH1 0x40 MLOAD SWAP1 DUP1 DUP3 MSTORE DUP1 PUSH1 0x1F ADD PUSH1 0x1F NOT AND PUSH1 0x20 ADD DUP3 ADD PUSH1 0x40 MSTORE DUP1 ISZERO PUSH2 0x2721 JUMPI DUP2 PUSH1 0x20 ADD PUSH1 0x1 DUP3 MUL DUP1 CALLDATASIZE DUP4 CALLDATACOPY DUP1 DUP3 ADD SWAP2 POP POP SWAP1 POP JUMPDEST POP SWAP1 POP JUMPDEST PUSH1 0x0 DUP6 EQ PUSH2 0x27AE JUMPI PUSH1 0x1 DUP3 PUSH2 0x273A SWAP2 SWAP1 PUSH2 0x422F JUMP JUMPDEST SWAP2 POP PUSH1 0xA DUP6 PUSH2 0x2749 SWAP2 SWAP1 PUSH2 0x4445 JUMP JUMPDEST PUSH1 0x30 PUSH2 0x2755 SWAP2 SWAP1 PUSH2 0x414E JUMP JUMPDEST PUSH1 0xF8 SHL DUP2 DUP4 DUP2 MLOAD DUP2 LT PUSH2 0x276B JUMPI PUSH2 0x276A PUSH2 0x4532 JUMP JUMPDEST JUMPDEST PUSH1 0x20 ADD ADD SWAP1 PUSH31 0xFFFFFFFFFFFFFFFFFFFFFFFFFFFFFFFFFFFFFFFFFFFFFFFFFFFFFFFFFFFFFF NOT AND SWAP1 DUP2 PUSH1 0x0 BYTE SWAP1 MSTORE8 POP PUSH1 0xA DUP6 PUSH2 0x27A7 SWAP2 SWAP1 PUSH2 0x41A4 JUMP JUMPDEST SWAP5 POP PUSH2 0x2725 JUMP JUMPDEST DUP1 SWAP4 POP POP POP POP JUMPDEST SWAP2 SWAP1 POP JUMP JUMPDEST PUSH1 0x0 PUSH32 0x780E9D6300000000000000000000000000000000000000000000000000000000 PUSH28 0xFFFFFFFFFFFFFFFFFFFFFFFFFFFFFFFFFFFFFFFFFFFFFFFFFFFFFFFF NOT AND DUP3 PUSH28 0xFFFFFFFFFFFFFFFFFFFFFFFFFFFFFFFFFFFFFFFFFFFFFFFFFFFFFFFF NOT AND EQ DUP1 PUSH2 0x282D JUMPI POP PUSH2 0x282C DUP3 PUSH2 0x2B81 JUMP JUMPDEST JUMPDEST SWAP1 POP SWAP2 SWAP1 POP JUMP JUMPDEST PUSH2 0x283F DUP4 DUP4 DUP4 PUSH2 0x2C63 JUMP JUMPDEST PUSH1 0x0 PUSH20 0xFFFFFFFFFFFFFFFFFFFFFFFFFFFFFFFFFFFFFFFF AND DUP4 PUSH20 0xFFFFFFFFFFFFFFFFFFFFFFFFFFFFFFFFFFFFFFFF AND EQ ISZERO PUSH2 0x2882 JUMPI PUSH2 0x287D DUP2 PUSH2 0x2C68 JUMP JUMPDEST PUSH2 0x28C1 JUMP JUMPDEST DUP2 PUSH20 0xFFFFFFFFFFFFFFFFFFFFFFFFFFFFFFFFFFFFFFFF AND DUP4 PUSH20 0xFFFFFFFFFFFFFFFFFFFFFFFFFFFFFFFFFFFFFFFF AND EQ PUSH2 0x28C0 JUMPI PUSH2 0x28BF DUP4 DUP3 PUSH2 0x2CB1 JUMP JUMPDEST JUMPDEST JUMPDEST PUSH1 0x0 PUSH20 0xFFFFFFFFFFFFFFFFFFFFFFFFFFFFFFFFFFFFFFFF AND DUP3 PUSH20 0xFFFFFFFFFFFFFFFFFFFFFFFFFFFFFFFFFFFFFFFF AND EQ ISZERO PUSH2 0x2904 JUMPI PUSH2 0x28FF DUP2 PUSH2 0x2E1E JUMP JUMPDEST PUSH2 0x2943 JUMP JUMPDEST DUP3 PUSH20 0xFFFFFFFFFFFFFFFFFFFFFFFFFFFFFFFFFFFFFFFF AND DUP3 PUSH20 0xFFFFFFFFFFFFFFFFFFFFFFFFFFFFFFFFFFFFFFFF AND EQ PUSH2 0x2942 JUMPI PUSH2 0x2941 DUP3 DUP3 PUSH2 0x2EEF JUMP JUMPDEST JUMPDEST JUMPDEST POP POP POP JUMP JUMPDEST POP POP POP JUMP JUMPDEST PUSH2 0x2957 DUP3 DUP3 PUSH2 0x150C JUMP JUMPDEST PUSH2 0x29E6 JUMPI PUSH2 0x297C DUP2 PUSH20 0xFFFFFFFFFFFFFFFFFFFFFFFFFFFFFFFFFFFFFFFF AND PUSH1 0x14 PUSH2 0x2F6E JUMP JUMPDEST PUSH2 0x298A DUP4 PUSH1 0x0 SHR PUSH1 0x20 PUSH2 0x2F6E JUMP JUMPDEST PUSH1 0x40 MLOAD PUSH1 0x20 ADD PUSH2 0x299B SWAP3 SWAP2 SWAP1 PUSH2 0x3C66 JUMP JUMPDEST PUSH1 0x40 MLOAD PUSH1 0x20 DUP2 DUP4 SUB SUB DUP2 MSTORE SWAP1 PUSH1 0x40 MSTORE PUSH1 0x40 MLOAD PUSH32 0x8C379A000000000000000000000000000000000000000000000000000000000 DUP2 MSTORE PUSH1 0x4 ADD PUSH2 0x29DD SWAP2 SWAP1 PUSH2 0x3D3D JUMP JUMPDEST PUSH1 0x40 MLOAD DUP1 SWAP2 SUB SWAP1 REVERT JUMPDEST POP POP JUMP JUMPDEST PUSH1 0x0 PUSH2 0x2A0B DUP5 PUSH20 0xFFFFFFFFFFFFFFFFFFFFFFFFFFFFFFFFFFFFFFFF AND PUSH2 0x31AA JUMP JUMPDEST ISZERO PUSH2 0x2B74 JUMPI DUP4 PUSH20 0xFFFFFFFFFFFFFFFFFFFFFFFFFFFFFFFFFFFFFFFF AND PUSH4 0x150B7A02 PUSH2 0x2A34 PUSH2 0x1AB2 JUMP JUMPDEST DUP8 DUP7 DUP7 PUSH1 0x40 MLOAD DUP6 PUSH4 0xFFFFFFFF AND PUSH1 0xE0 SHL DUP2 MSTORE PUSH1 0x4 ADD PUSH2 0x2A56 SWAP5 SWAP4 SWAP3 SWAP2 SWAP1 PUSH2 0x3CBB JUMP JUMPDEST PUSH1 0x20 PUSH1 0x40 MLOAD DUP1 DUP4 SUB DUP2 PUSH1 0x0 DUP8 DUP1 EXTCODESIZE ISZERO DUP1 ISZERO PUSH2 0x2A70 JUMPI PUSH1 0x0 DUP1 REVERT JUMPDEST POP GAS CALL SWAP3 POP POP POP DUP1 ISZERO PUSH2 0x2AA1 JUMPI POP PUSH1 0x40 MLOAD RETURNDATASIZE PUSH1 0x1F NOT PUSH1 0x1F DUP3 ADD AND DUP3 ADD DUP1 PUSH1 0x40 MSTORE POP DUP2 ADD SWAP1 PUSH2 0x2A9E SWAP2 SWAP1 PUSH2 0x35AA JUMP JUMPDEST PUSH1 0x1 JUMPDEST PUSH2 0x2B24 JUMPI RETURNDATASIZE DUP1 PUSH1 0x0 DUP2 EQ PUSH2 0x2AD1 JUMPI PUSH1 0x40 MLOAD SWAP2 POP PUSH1 0x1F NOT PUSH1 0x3F RETURNDATASIZE ADD AND DUP3 ADD PUSH1 0x40 MSTORE RETURNDATASIZE DUP3 MSTORE RETURNDATASIZE PUSH1 0x0 PUSH1 0x20 DUP5 ADD RETURNDATACOPY PUSH2 0x2AD6 JUMP JUMPDEST PUSH1 0x60 SWAP2 POP JUMPDEST POP PUSH1 0x0 DUP2 MLOAD EQ ISZERO PUSH2 0x2B1C JUMPI PUSH1 0x40 MLOAD PUSH32 0x8C379A000000000000000000000000000000000000000000000000000000000 DUP2 MSTORE PUSH1 0x4 ADD PUSH2 0x2B13 SWAP1 PUSH2 0x3D9F JUMP JUMPDEST PUSH1 0x40 MLOAD DUP1 SWAP2 SUB SWAP1 REVERT JUMPDEST DUP1 MLOAD DUP2 PUSH1 0x20 ADD REVERT JUMPDEST PUSH4 0x150B7A02 PUSH1 0xE0 SHL PUSH28 0xFFFFFFFFFFFFFFFFFFFFFFFFFFFFFFFFFFFFFFFFFFFFFFFFFFFFFFFF NOT AND DUP2 PUSH28 0xFFFFFFFFFFFFFFFFFFFFFFFFFFFFFFFFFFFFFFFFFFFFFFFFFFFFFFFF NOT AND EQ SWAP2 POP POP PUSH2 0x2B79 JUMP JUMPDEST PUSH1 0x1 SWAP1 POP JUMPDEST SWAP5 SWAP4 POP POP POP POP JUMP JUMPDEST PUSH1 0x0 PUSH32 0x80AC58CD00000000000000000000000000000000000000000000000000000000 PUSH28 0xFFFFFFFFFFFFFFFFFFFFFFFFFFFFFFFFFFFFFFFFFFFFFFFFFFFFFFFF NOT AND DUP3 PUSH28 0xFFFFFFFFFFFFFFFFFFFFFFFFFFFFFFFFFFFFFFFFFFFFFFFFFFFFFFFF NOT AND EQ DUP1 PUSH2 0x2C4C JUMPI POP PUSH32 0x5B5E139F00000000000000000000000000000000000000000000000000000000 PUSH28 0xFFFFFFFFFFFFFFFFFFFFFFFFFFFFFFFFFFFFFFFFFFFFFFFFFFFFFFFF NOT AND DUP3 PUSH28 0xFFFFFFFFFFFFFFFFFFFFFFFFFFFFFFFFFFFFFFFFFFFFFFFFFFFFFFFF NOT AND EQ JUMPDEST DUP1 PUSH2 0x2C5C JUMPI POP PUSH2 0x2C5B DUP3 PUSH2 0x31CD JUMP JUMPDEST JUMPDEST SWAP1 POP SWAP2 SWAP1 POP JUMP JUMPDEST POP POP POP JUMP JUMPDEST PUSH1 0x8 DUP1 SLOAD SWAP1 POP PUSH1 0x9 PUSH1 0x0 DUP4 DUP2 MSTORE PUSH1 0x20 ADD SWAP1 DUP2 MSTORE PUSH1 0x20 ADD PUSH1 0x0 KECCAK256 DUP2 SWAP1 SSTORE POP PUSH1 0x8 DUP2 SWAP1 DUP1 PUSH1 0x1 DUP2 SLOAD ADD DUP1 DUP3 SSTORE DUP1 SWAP2 POP POP PUSH1 0x1 SWAP1 SUB SWAP1 PUSH1 0x0 MSTORE PUSH1 0x20 PUSH1 0x0 KECCAK256 ADD PUSH1 0x0 SWAP1 SWAP2 SWAP1 SWAP2 SWAP1 SWAP2 POP SSTORE POP JUMP JUMPDEST PUSH1 0x0 PUSH1 0x1 PUSH2 0x2CBE DUP5 PUSH2 0x1383 JUMP JUMPDEST PUSH2 0x2CC8 SWAP2 SWAP1 PUSH2 0x422F JUMP JUMPDEST SWAP1 POP PUSH1 0x0 PUSH1 0x7 PUSH1 0x0 DUP5 DUP2 MSTORE PUSH1 0x20 ADD SWAP1 DUP2 MSTORE PUSH1 0x20 ADD PUSH1 0x0 KECCAK256 SLOAD SWAP1 POP DUP2 DUP2 EQ PUSH2 0x2DAD JUMPI PUSH1 0x0 PUSH1 0x6 PUSH1 0x0 DUP7 PUSH20 0xFFFFFFFFFFFFFFFFFFFFFFFFFFFFFFFFFFFFFFFF AND PUSH20 0xFFFFFFFFFFFFFFFFFFFFFFFFFFFFFFFFFFFFFFFF AND DUP2 MSTORE PUSH1 0x20 ADD SWAP1 DUP2 MSTORE PUSH1 0x20 ADD PUSH1 0x0 KECCAK256 PUSH1 0x0 DUP5 DUP2 MSTORE PUSH1 0x20 ADD SWAP1 DUP2 MSTORE PUSH1 0x20 ADD PUSH1 0x0 KECCAK256 SLOAD SWAP1 POP DUP1 PUSH1 0x6 PUSH1 0x0 DUP8 PUSH20 0xFFFFFFFFFFFFFFFFFFFFFFFFFFFFFFFFFFFFFFFF AND PUSH20 0xFFFFFFFFFFFFFFFFFFFFFFFFFFFFFFFFFFFFFFFF AND DUP2 MSTORE PUSH1 0x20 ADD SWAP1 DUP2 MSTORE PUSH1 0x20 ADD PUSH1 0x0 KECCAK256 PUSH1 0x0 DUP5 DUP2 MSTORE PUSH1 0x20 ADD SWAP1 DUP2 MSTORE PUSH1 0x20 ADD PUSH1 0x0 KECCAK256 DUP2 SWAP1 SSTORE POP DUP2 PUSH1 0x7 PUSH1 0x0 DUP4 DUP2 MSTORE PUSH1 0x20 ADD SWAP1 DUP2 MSTORE PUSH1 0x20 ADD PUSH1 0x0 KECCAK256 DUP2 SWAP1 SSTORE POP POP JUMPDEST PUSH1 0x7 PUSH1 0x0 DUP5 DUP2 MSTORE PUSH1 0x20 ADD SWAP1 DUP2 MSTORE PUSH1 0x20 ADD PUSH1 0x0 KECCAK256 PUSH1 0x0 SWAP1 SSTORE PUSH1 0x6 PUSH1 0x0 DUP6 PUSH20 0xFFFFFFFFFFFFFFFFFFFFFFFFFFFFFFFFFFFFFFFF AND PUSH20 0xFFFFFFFFFFFFFFFFFFFFFFFFFFFFFFFFFFFFFFFF AND DUP2 MSTORE PUSH1 0x20 ADD SWAP1 DUP2 MSTORE PUSH1 0x20 ADD PUSH1 0x0 KECCAK256 PUSH1 0x0 DUP4 DUP2 MSTORE PUSH1 0x20 ADD SWAP1 DUP2 MSTORE PUSH1 0x20 ADD PUSH1 0x0 KECCAK256 PUSH1 0x0 SWAP1 SSTORE POP POP POP POP JUMP JUMPDEST PUSH1 0x0 PUSH1 0x1 PUSH1 0x8 DUP1 SLOAD SWAP1 POP PUSH2 0x2E32 SWAP2 SWAP1 PUSH2 0x422F JUMP JUMPDEST SWAP1 POP PUSH1 0x0 PUSH1 0x9 PUSH1 0x0 DUP5 DUP2 MSTORE PUSH1 0x20 ADD SWAP1 DUP2 MSTORE PUSH1 0x20 ADD PUSH1 0x0 KECCAK256 SLOAD SWAP1 POP PUSH1 0x0 PUSH1 0x8 DUP4 DUP2 SLOAD DUP2 LT PUSH2 0x2E62 JUMPI PUSH2 0x2E61 PUSH2 0x4532 JUMP JUMPDEST JUMPDEST SWAP1 PUSH1 0x0 MSTORE PUSH1 0x20 PUSH1 0x0 KECCAK256 ADD SLOAD SWAP1 POP DUP1 PUSH1 0x8 DUP4 DUP2 SLOAD DUP2 LT PUSH2 0x2E84 JUMPI PUSH2 0x2E83 PUSH2 0x4532 JUMP JUMPDEST JUMPDEST SWAP1 PUSH1 0x0 MSTORE PUSH1 0x20 PUSH1 0x0 KECCAK256 ADD DUP2 SWAP1 SSTORE POP DUP2 PUSH1 0x9 PUSH1 0x0 DUP4 DUP2 MSTORE PUSH1 0x20 ADD SWAP1 DUP2 MSTORE PUSH1 0x20 ADD PUSH1 0x0 KECCAK256 DUP2 SWAP1 SSTORE POP PUSH1 0x9 PUSH1 0x0 DUP6 DUP2 MSTORE PUSH1 0x20 ADD SWAP1 DUP2 MSTORE PUSH1 0x20 ADD PUSH1 0x0 KECCAK256 PUSH1 0x0 SWAP1 SSTORE PUSH1 0x8 DUP1 SLOAD DUP1 PUSH2 0x2ED3 JUMPI PUSH2 0x2ED2 PUSH2 0x4503 JUMP JUMPDEST JUMPDEST PUSH1 0x1 SWAP1 SUB DUP2 DUP2 SWAP1 PUSH1 0x0 MSTORE PUSH1 0x20 PUSH1 0x0 KECCAK256 ADD PUSH1 0x0 SWAP1 SSTORE SWAP1 SSTORE POP POP POP POP JUMP JUMPDEST PUSH1 0x0 PUSH2 0x2EFA DUP4 PUSH2 0x1383 JUMP JUMPDEST SWAP1 POP DUP2 PUSH1 0x6 PUSH1 0x0 DUP6 PUSH20 0xFFFFFFFFFFFFFFFFFFFFFFFFFFFFFFFFFFFFFFFF AND PUSH20 0xFFFFFFFFFFFFFFFFFFFFFFFFFFFFFFFFFFFFFFFF AND DUP2 MSTORE PUSH1 0x20 ADD SWAP1 DUP2 MSTORE PUSH1 0x20 ADD PUSH1 0x0 KECCAK256 PUSH1 0x0 DUP4 DUP2 MSTORE PUSH1 0x20 ADD SWAP1 DUP2 MSTORE PUSH1 0x20 ADD PUSH1 0x0 KECCAK256 DUP2 SWAP1 SSTORE POP DUP1 PUSH1 0x7 PUSH1 0x0 DUP5 DUP2 MSTORE PUSH1 0x20 ADD SWAP1 DUP2 MSTORE PUSH1 0x20 ADD PUSH1 0x0 KECCAK256 DUP2 SWAP1 SSTORE POP POP POP POP JUMP JUMPDEST PUSH1 0x60 PUSH1 0x0 PUSH1 0x2 DUP4 PUSH1 0x2 PUSH2 0x2F81 SWAP2 SWAP1 PUSH2 0x41D5 JUMP JUMPDEST PUSH2 0x2F8B SWAP2 SWAP1 PUSH2 0x414E JUMP JUMPDEST PUSH8 0xFFFFFFFFFFFFFFFF DUP2 GT ISZERO PUSH2 0x2FA4 JUMPI PUSH2 0x2FA3 PUSH2 0x4561 JUMP JUMPDEST JUMPDEST PUSH1 0x40 MLOAD SWAP1 DUP1 DUP3 MSTORE DUP1 PUSH1 0x1F ADD PUSH1 0x1F NOT AND PUSH1 0x20 ADD DUP3 ADD PUSH1 0x40 MSTORE DUP1 ISZERO PUSH2 0x2FD6 JUMPI DUP2 PUSH1 0x20 ADD PUSH1 0x1 DUP3 MUL DUP1 CALLDATASIZE DUP4 CALLDATACOPY DUP1 DUP3 ADD SWAP2 POP POP SWAP1 POP JUMPDEST POP SWAP1 POP PUSH32 0x3000000000000000000000000000000000000000000000000000000000000000 DUP2 PUSH1 0x0 DUP2 MLOAD DUP2 LT PUSH2 0x300E JUMPI PUSH2 0x300D PUSH2 0x4532 JUMP JUMPDEST JUMPDEST PUSH1 0x20 ADD ADD SWAP1 PUSH31 0xFFFFFFFFFFFFFFFFFFFFFFFFFFFFFFFFFFFFFFFFFFFFFFFFFFFFFFFFFFFFFF NOT AND SWAP1 DUP2 PUSH1 0x0 BYTE SWAP1 MSTORE8 POP PUSH32 0x7800000000000000000000000000000000000000000000000000000000000000 DUP2 PUSH1 0x1 DUP2 MLOAD DUP2 LT PUSH2 0x3072 JUMPI PUSH2 0x3071 PUSH2 0x4532 JUMP JUMPDEST JUMPDEST PUSH1 0x20 ADD ADD SWAP1 PUSH31 0xFFFFFFFFFFFFFFFFFFFFFFFFFFFFFFFFFFFFFFFFFFFFFFFFFFFFFFFFFFFFFF NOT AND SWAP1 DUP2 PUSH1 0x0 BYTE SWAP1 MSTORE8 POP PUSH1 0x0 PUSH1 0x1 DUP5 PUSH1 0x2 PUSH2 0x30B2 SWAP2 SWAP1 PUSH2 0x41D5 JUMP JUMPDEST PUSH2 0x30BC SWAP2 SWAP1 PUSH2 0x414E JUMP JUMPDEST SWAP1 POP JUMPDEST PUSH1 0x1 DUP2 GT ISZERO PUSH2 0x315C JUMPI PUSH32 0x3031323334353637383961626364656600000000000000000000000000000000 PUSH1 0xF DUP7 AND PUSH1 0x10 DUP2 LT PUSH2 0x30FE JUMPI PUSH2 0x30FD PUSH2 0x4532 JUMP JUMPDEST JUMPDEST BYTE PUSH1 0xF8 SHL DUP3 DUP3 DUP2 MLOAD DUP2 LT PUSH2 0x3115 JUMPI PUSH2 0x3114 PUSH2 0x4532 JUMP JUMPDEST JUMPDEST PUSH1 0x20 ADD ADD SWAP1 PUSH31 0xFFFFFFFFFFFFFFFFFFFFFFFFFFFFFFFFFFFFFFFFFFFFFFFFFFFFFFFFFFFFFF NOT AND SWAP1 DUP2 PUSH1 0x0 BYTE SWAP1 MSTORE8 POP PUSH1 0x4 DUP6 SWAP1 SHR SWAP5 POP DUP1 PUSH2 0x3155 SWAP1 PUSH2 0x4337 JUMP JUMPDEST SWAP1 POP PUSH2 0x30BF JUMP JUMPDEST POP PUSH1 0x0 DUP5 EQ PUSH2 0x31A0 JUMPI PUSH1 0x40 MLOAD PUSH32 0x8C379A000000000000000000000000000000000000000000000000000000000 DUP2 MSTORE PUSH1 0x4 ADD PUSH2 0x3197 SWAP1 PUSH2 0x3D5F JUMP JUMPDEST PUSH1 0x40 MLOAD DUP1 SWAP2 SUB SWAP1 REVERT JUMPDEST DUP1 SWAP2 POP POP SWAP3 SWAP2 POP POP JUMP JUMPDEST PUSH1 0x0 DUP1 DUP3 PUSH20 0xFFFFFFFFFFFFFFFFFFFFFFFFFFFFFFFFFFFFFFFF AND EXTCODESIZE GT SWAP1 POP SWAP2 SWAP1 POP JUMP JUMPDEST PUSH1 0x0 PUSH32 0x1FFC9A700000000000000000000000000000000000000000000000000000000 PUSH28 0xFFFFFFFFFFFFFFFFFFFFFFFFFFFFFFFFFFFFFFFFFFFFFFFFFFFFFFFF NOT AND DUP3 PUSH28 0xFFFFFFFFFFFFFFFFFFFFFFFFFFFFFFFFFFFFFFFFFFFFFFFFFFFFFFFF NOT AND EQ SWAP1 POP SWAP2 SWAP1 POP JUMP JUMPDEST PUSH1 0x40 MLOAD DUP1 PUSH1 0x20 ADD PUSH1 0x40 MSTORE DUP1 PUSH1 0x0 DUP2 MSTORE POP SWAP1 JUMP JUMPDEST PUSH1 0x0 PUSH2 0x325D PUSH2 0x3258 DUP5 PUSH2 0x40BA JUMP JUMPDEST PUSH2 0x4095 JUMP JUMPDEST SWAP1 POP DUP3 DUP2 MSTORE PUSH1 0x20 DUP2 ADD DUP5 DUP5 DUP5 ADD GT ISZERO PUSH2 0x3279 JUMPI PUSH2 0x3278 PUSH2 0x4595 JUMP JUMPDEST JUMPDEST PUSH2 0x3284 DUP5 DUP3 DUP6 PUSH2 0x42F5 JUMP JUMPDEST POP SWAP4 SWAP3 POP POP POP JUMP JUMPDEST PUSH1 0x0 DUP2 CALLDATALOAD SWAP1 POP PUSH2 0x329B DUP2 PUSH2 0x4C55 JUMP JUMPDEST SWAP3 SWAP2 POP POP JUMP JUMPDEST PUSH1 0x0 DUP2 CALLDATALOAD SWAP1 POP PUSH2 0x32B0 DUP2 PUSH2 0x4C6C JUMP JUMPDEST SWAP3 SWAP2 POP POP JUMP JUMPDEST PUSH1 0x0 DUP2 CALLDATALOAD SWAP1 POP PUSH2 0x32C5 DUP2 PUSH2 0x4C83 JUMP JUMPDEST SWAP3 SWAP2 POP POP JUMP JUMPDEST PUSH1 0x0 DUP2 CALLDATALOAD SWAP1 POP PUSH2 0x32DA DUP2 PUSH2 0x4C9A JUMP JUMPDEST SWAP3 SWAP2 POP POP JUMP JUMPDEST PUSH1 0x0 DUP2 MLOAD SWAP1 POP PUSH2 0x32EF DUP2 PUSH2 0x4C9A JUMP JUMPDEST SWAP3 SWAP2 POP POP JUMP JUMPDEST PUSH1 0x0 DUP3 PUSH1 0x1F DUP4 ADD SLT PUSH2 0x330A JUMPI PUSH2 0x3309 PUSH2 0x4590 JUMP JUMPDEST JUMPDEST DUP2 CALLDATALOAD PUSH2 0x331A DUP5 DUP3 PUSH1 0x20 DUP7 ADD PUSH2 0x324A JUMP JUMPDEST SWAP2 POP POP SWAP3 SWAP2 POP POP JUMP JUMPDEST PUSH1 0x0 DUP2 CALLDATALOAD SWAP1 POP PUSH2 0x3332 DUP2 PUSH2 0x4CB1 JUMP JUMPDEST SWAP3 SWAP2 POP POP JUMP JUMPDEST PUSH1 0x0 DUP2 CALLDATALOAD SWAP1 POP PUSH2 0x3347 DUP2 PUSH2 0x4CC8 JUMP JUMPDEST SWAP3 SWAP2 POP POP JUMP JUMPDEST PUSH1 0x0 PUSH1 0x20 DUP3 DUP5 SUB SLT ISZERO PUSH2 0x3363 JUMPI PUSH2 0x3362 PUSH2 0x459F JUMP JUMPDEST JUMPDEST PUSH1 0x0 PUSH2 0x3371 DUP5 DUP3 DUP6 ADD PUSH2 0x328C JUMP JUMPDEST SWAP2 POP POP SWAP3 SWAP2 POP POP JUMP JUMPDEST PUSH1 0x0 DUP1 PUSH1 0x40 DUP4 DUP6 SUB SLT ISZERO PUSH2 0x3391 JUMPI PUSH2 0x3390 PUSH2 0x459F JUMP JUMPDEST JUMPDEST PUSH1 0x0 PUSH2 0x339F DUP6 DUP3 DUP7 ADD PUSH2 0x328C JUMP JUMPDEST SWAP3 POP POP PUSH1 0x20 PUSH2 0x33B0 DUP6 DUP3 DUP7 ADD PUSH2 0x328C JUMP JUMPDEST SWAP2 POP POP SWAP3 POP SWAP3 SWAP1 POP JUMP JUMPDEST PUSH1 0x0 DUP1 PUSH1 0x0 PUSH1 0x60 DUP5 DUP7 SUB SLT ISZERO PUSH2 0x33D3 JUMPI PUSH2 0x33D2 PUSH2 0x459F JUMP JUMPDEST JUMPDEST PUSH1 0x0 PUSH2 0x33E1 DUP7 DUP3 DUP8 ADD PUSH2 0x328C JUMP JUMPDEST SWAP4 POP POP PUSH1 0x20 PUSH2 0x33F2 DUP7 DUP3 DUP8 ADD PUSH2 0x328C JUMP JUMPDEST SWAP3 POP POP PUSH1 0x40 PUSH2 0x3403 DUP7 DUP3 DUP8 ADD PUSH2 0x3323 JUMP JUMPDEST SWAP2 POP POP SWAP3 POP SWAP3 POP SWAP3 JUMP JUMPDEST PUSH1 0x0 DUP1 PUSH1 0x0 DUP1 PUSH1 0x80 DUP6 DUP8 SUB SLT ISZERO PUSH2 0x3427 JUMPI PUSH2 0x3426 PUSH2 0x459F JUMP JUMPDEST JUMPDEST PUSH1 0x0 PUSH2 0x3435 DUP8 DUP3 DUP9 ADD PUSH2 0x328C JUMP JUMPDEST SWAP5 POP POP PUSH1 0x20 PUSH2 0x3446 DUP8 DUP3 DUP9 ADD PUSH2 0x328C JUMP JUMPDEST SWAP4 POP POP PUSH1 0x40 PUSH2 0x3457 DUP8 DUP3 DUP9 ADD PUSH2 0x3323 JUMP JUMPDEST SWAP3 POP POP PUSH1 0x60 DUP6 ADD CALLDATALOAD PUSH8 0xFFFFFFFFFFFFFFFF DUP2 GT ISZERO PUSH2 0x3478 JUMPI PUSH2 0x3477 PUSH2 0x459A JUMP JUMPDEST JUMPDEST PUSH2 0x3484 DUP8 DUP3 DUP9 ADD PUSH2 0x32F5 JUMP JUMPDEST SWAP2 POP POP SWAP3 SWAP6 SWAP2 SWAP5 POP SWAP3 POP JUMP JUMPDEST PUSH1 0x0 DUP1 PUSH1 0x40 DUP4 DUP6 SUB SLT ISZERO PUSH2 0x34A7 JUMPI PUSH2 0x34A6 PUSH2 0x459F JUMP JUMPDEST JUMPDEST PUSH1 0x0 PUSH2 0x34B5 DUP6 DUP3 DUP7 ADD PUSH2 0x328C JUMP JUMPDEST SWAP3 POP POP PUSH1 0x20 PUSH2 0x34C6 DUP6 DUP3 DUP7 ADD PUSH2 0x32A1 JUMP JUMPDEST SWAP2 POP POP SWAP3 POP SWAP3 SWAP1 POP JUMP JUMPDEST PUSH1 0x0 DUP1 PUSH1 0x40 DUP4 DUP6 SUB SLT ISZERO PUSH2 0x34E7 JUMPI PUSH2 0x34E6 PUSH2 0x459F JUMP JUMPDEST JUMPDEST PUSH1 0x0 PUSH2 0x34F5 DUP6 DUP3 DUP7 ADD PUSH2 0x328C JUMP JUMPDEST SWAP3 POP POP PUSH1 0x20 PUSH2 0x3506 DUP6 DUP3 DUP7 ADD PUSH2 0x3323 JUMP JUMPDEST SWAP2 POP POP SWAP3 POP SWAP3 SWAP1 POP JUMP JUMPDEST PUSH1 0x0 PUSH1 0x20 DUP3 DUP5 SUB SLT ISZERO PUSH2 0x3526 JUMPI PUSH2 0x3525 PUSH2 0x459F JUMP JUMPDEST JUMPDEST PUSH1 0x0 PUSH2 0x3534 DUP5 DUP3 DUP6 ADD PUSH2 0x32B6 JUMP JUMPDEST SWAP2 POP POP SWAP3 SWAP2 POP POP JUMP JUMPDEST PUSH1 0x0 DUP1 PUSH1 0x40 DUP4 DUP6 SUB SLT ISZERO PUSH2 0x3554 JUMPI PUSH2 0x3553 PUSH2 0x459F JUMP JUMPDEST JUMPDEST PUSH1 0x0 PUSH2 0x3562 DUP6 DUP3 DUP7 ADD PUSH2 0x32B6 JUMP JUMPDEST SWAP3 POP POP PUSH1 0x20 PUSH2 0x3573 DUP6 DUP3 DUP7 ADD PUSH2 0x328C JUMP JUMPDEST SWAP2 POP POP SWAP3 POP SWAP3 SWAP1 POP JUMP JUMPDEST PUSH1 0x0 PUSH1 0x20 DUP3 DUP5 SUB SLT ISZERO PUSH2 0x3593 JUMPI PUSH2 0x3592 PUSH2 0x459F JUMP JUMPDEST JUMPDEST PUSH1 0x0 PUSH2 0x35A1 DUP5 DUP3 DUP6 ADD PUSH2 0x32CB JUMP JUMPDEST SWAP2 POP POP SWAP3 SWAP2 POP POP JUMP JUMPDEST PUSH1 0x0 PUSH1 0x20 DUP3 DUP5 SUB SLT ISZERO PUSH2 0x35C0 JUMPI PUSH2 0x35BF PUSH2 0x459F JUMP JUMPDEST JUMPDEST PUSH1 0x0 PUSH2 0x35CE DUP5 DUP3 DUP6 ADD PUSH2 0x32E0 JUMP JUMPDEST SWAP2 POP POP SWAP3 SWAP2 POP POP JUMP JUMPDEST PUSH1 0x0 PUSH1 0x20 DUP3 DUP5 SUB SLT ISZERO PUSH2 0x35ED JUMPI PUSH2 0x35EC PUSH2 0x459F JUMP JUMPDEST JUMPDEST PUSH1 0x0 PUSH2 0x35FB DUP5 DUP3 DUP6 ADD PUSH2 0x3323 JUMP JUMPDEST SWAP2 POP POP SWAP3 SWAP2 POP POP JUMP JUMPDEST PUSH1 0x0 PUSH1 0x20 DUP3 DUP5 SUB SLT ISZERO PUSH2 0x361A JUMPI PUSH2 0x3619 PUSH2 0x459F JUMP JUMPDEST JUMPDEST PUSH1 0x0 PUSH2 0x3628 DUP5 DUP3 DUP6 ADD PUSH2 0x3338 JUMP JUMPDEST SWAP2 POP POP SWAP3 SWAP2 POP POP JUMP JUMPDEST PUSH2 0x363A DUP2 PUSH2 0x4263 JUMP JUMPDEST DUP3 MSTORE POP POP JUMP JUMPDEST PUSH2 0x3651 PUSH2 0x364C DUP3 PUSH2 0x4263 JUMP JUMPDEST PUSH2 0x440D JUMP JUMPDEST DUP3 MSTORE POP POP JUMP JUMPDEST PUSH2 0x3660 DUP2 PUSH2 0x4275 JUMP JUMPDEST DUP3 MSTORE POP POP JUMP JUMPDEST PUSH2 0x366F DUP2 PUSH2 0x4281 JUMP JUMPDEST DUP3 MSTORE POP POP JUMP JUMPDEST PUSH2 0x3686 PUSH2 0x3681 DUP3 PUSH2 0x4281 JUMP JUMPDEST PUSH2 0x441F JUMP JUMPDEST DUP3 MSTORE POP POP JUMP JUMPDEST PUSH1 0x0 PUSH2 0x3697 DUP3 PUSH2 0x4100 JUMP JUMPDEST PUSH2 0x36A1 DUP2 DUP6 PUSH2 0x4116 JUMP JUMPDEST SWAP4 POP PUSH2 0x36B1 DUP2 DUP6 PUSH1 0x20 DUP7 ADD PUSH2 0x4304 JUMP JUMPDEST PUSH2 0x36BA DUP2 PUSH2 0x45A4 JUMP JUMPDEST DUP5 ADD SWAP2 POP POP SWAP3 SWAP2 POP POP JUMP JUMPDEST PUSH1 0x0 PUSH2 0x36D0 DUP3 PUSH2 0x410B JUMP JUMPDEST PUSH2 0x36DA DUP2 DUP6 PUSH2 0x4132 JUMP JUMPDEST SWAP4 POP PUSH2 0x36EA DUP2 DUP6 PUSH1 0x20 DUP7 ADD PUSH2 0x4304 JUMP JUMPDEST PUSH2 0x36F3 DUP2 PUSH2 0x45A4 JUMP JUMPDEST DUP5 ADD SWAP2 POP POP SWAP3 SWAP2 POP POP JUMP JUMPDEST PUSH1 0x0 PUSH2 0x3709 DUP3 PUSH2 0x410B JUMP JUMPDEST PUSH2 0x3713 DUP2 DUP6 PUSH2 0x4143 JUMP JUMPDEST SWAP4 POP PUSH2 0x3723 DUP2 DUP6 PUSH1 0x20 DUP7 ADD PUSH2 0x4304 JUMP JUMPDEST DUP1 DUP5 ADD SWAP2 POP POP SWAP3 SWAP2 POP POP JUMP JUMPDEST PUSH1 0x0 DUP2 SLOAD PUSH2 0x373C DUP2 PUSH2 0x4361 JUMP JUMPDEST PUSH2 0x3746 DUP2 DUP7 PUSH2 0x4143 JUMP JUMPDEST SWAP5 POP PUSH1 0x1 DUP3 AND PUSH1 0x0 DUP2 EQ PUSH2 0x3761 JUMPI PUSH1 0x1 DUP2 EQ PUSH2 0x3772 JUMPI PUSH2 0x37A5 JUMP JUMPDEST PUSH1 0xFF NOT DUP4 AND DUP7 MSTORE DUP2 DUP7 ADD SWAP4 POP PUSH2 0x37A5 JUMP JUMPDEST PUSH2 0x377B DUP6 PUSH2 0x40EB JUMP JUMPDEST PUSH1 0x0 JUMPDEST DUP4 DUP2 LT ISZERO PUSH2 0x379D JUMPI DUP2 SLOAD DUP2 DUP10 ADD MSTORE PUSH1 0x1 DUP3 ADD SWAP2 POP PUSH1 0x20 DUP2 ADD SWAP1 POP PUSH2 0x377E JUMP JUMPDEST DUP4 DUP9 ADD SWAP6 POP POP POP JUMPDEST POP POP POP SWAP3 SWAP2 POP POP JUMP JUMPDEST PUSH1 0x0 PUSH2 0x37BB PUSH1 0x20 DUP4 PUSH2 0x4132 JUMP JUMPDEST SWAP2 POP PUSH2 0x37C6 DUP3 PUSH2 0x45C2 JUMP JUMPDEST PUSH1 0x20 DUP3 ADD SWAP1 POP SWAP2 SWAP1 POP JUMP JUMPDEST PUSH1 0x0 PUSH2 0x37DE PUSH1 0x2B DUP4 PUSH2 0x4132 JUMP JUMPDEST SWAP2 POP PUSH2 0x37E9 DUP3 PUSH2 0x45EB JUMP JUMPDEST PUSH1 0x40 DUP3 ADD SWAP1 POP SWAP2 SWAP1 POP JUMP JUMPDEST PUSH1 0x0 PUSH2 0x3801 PUSH1 0x32 DUP4 PUSH2 0x4132 JUMP JUMPDEST SWAP2 POP PUSH2 0x380C DUP3 PUSH2 0x463A JUMP JUMPDEST PUSH1 0x40 DUP3 ADD SWAP1 POP SWAP2 SWAP1 POP JUMP JUMPDEST PUSH1 0x0 PUSH2 0x3824 PUSH1 0x26 DUP4 PUSH2 0x4132 JUMP JUMPDEST SWAP2 POP PUSH2 0x382F DUP3 PUSH2 0x4689 JUMP JUMPDEST PUSH1 0x40 DUP3 ADD SWAP1 POP SWAP2 SWAP1 POP JUMP JUMPDEST PUSH1 0x0 PUSH2 0x3847 PUSH1 0x25 DUP4 PUSH2 0x4132 JUMP JUMPDEST SWAP2 POP PUSH2 0x3852 DUP3 PUSH2 0x46D8 JUMP JUMPDEST PUSH1 0x40 DUP3 ADD SWAP1 POP SWAP2 SWAP1 POP JUMP JUMPDEST PUSH1 0x0 PUSH2 0x386A PUSH1 0xB DUP4 PUSH2 0x4132 JUMP JUMPDEST SWAP2 POP PUSH2 0x3875 DUP3 PUSH2 0x4727 JUMP JUMPDEST PUSH1 0x20 DUP3 ADD SWAP1 POP SWAP2 SWAP1 POP JUMP JUMPDEST PUSH1 0x0 PUSH2 0x388D PUSH1 0x1C DUP4 PUSH2 0x4132 JUMP JUMPDEST SWAP2 POP PUSH2 0x3898 DUP3 PUSH2 0x4750 JUMP JUMPDEST PUSH1 0x20 DUP3 ADD SWAP1 POP SWAP2 SWAP1 POP JUMP JUMPDEST PUSH1 0x0 PUSH2 0x38B0 PUSH1 0x14 DUP4 PUSH2 0x4132 JUMP JUMPDEST SWAP2 POP PUSH2 0x38BB DUP3 PUSH2 0x4779 JUMP JUMPDEST PUSH1 0x20 DUP3 ADD SWAP1 POP SWAP2 SWAP1 POP JUMP JUMPDEST PUSH1 0x0 PUSH2 0x38D3 PUSH1 0x24 DUP4 PUSH2 0x4132 JUMP JUMPDEST SWAP2 POP PUSH2 0x38DE DUP3 PUSH2 0x47A2 JUMP JUMPDEST PUSH1 0x40 DUP3 ADD SWAP1 POP SWAP2 SWAP1 POP JUMP JUMPDEST PUSH1 0x0 PUSH2 0x38F6 PUSH1 0x19 DUP4 PUSH2 0x4132 JUMP JUMPDEST SWAP2 POP PUSH2 0x3901 DUP3 PUSH2 0x47F1 JUMP JUMPDEST PUSH1 0x20 DUP3 ADD SWAP1 POP SWAP2 SWAP1 POP JUMP JUMPDEST PUSH1 0x0 PUSH2 0x3919 PUSH1 0x2C DUP4 PUSH2 0x4132 JUMP JUMPDEST SWAP2 POP PUSH2 0x3924 DUP3 PUSH2 0x481A JUMP JUMPDEST PUSH1 0x40 DUP3 ADD SWAP1 POP SWAP2 SWAP1 POP JUMP JUMPDEST PUSH1 0x0 PUSH2 0x393C PUSH1 0xF DUP4 PUSH2 0x4132 JUMP JUMPDEST SWAP2 POP PUSH2 0x3947 DUP3 PUSH2 0x4869 JUMP JUMPDEST PUSH1 0x20 DUP3 ADD SWAP1 POP SWAP2 SWAP1 POP JUMP JUMPDEST PUSH1 0x0 PUSH2 0x395F PUSH1 0x38 DUP4 PUSH2 0x4132 JUMP JUMPDEST SWAP2 POP PUSH2 0x396A DUP3 PUSH2 0x4892 JUMP JUMPDEST PUSH1 0x40 DUP3 ADD SWAP1 POP SWAP2 SWAP1 POP JUMP JUMPDEST PUSH1 0x0 PUSH2 0x3982 PUSH1 0x2A DUP4 PUSH2 0x4132 JUMP JUMPDEST SWAP2 POP PUSH2 0x398D DUP3 PUSH2 0x48E1 JUMP JUMPDEST PUSH1 0x40 DUP3 ADD SWAP1 POP SWAP2 SWAP1 POP JUMP JUMPDEST PUSH1 0x0 PUSH2 0x39A5 PUSH1 0x29 DUP4 PUSH2 0x4132 JUMP JUMPDEST SWAP2 POP PUSH2 0x39B0 DUP3 PUSH2 0x4930 JUMP JUMPDEST PUSH1 0x40 DUP3 ADD SWAP1 POP SWAP2 SWAP1 POP JUMP JUMPDEST PUSH1 0x0 PUSH2 0x39C8 PUSH1 0x20 DUP4 PUSH2 0x4132 JUMP JUMPDEST SWAP2 POP PUSH2 0x39D3 DUP3 PUSH2 0x497F JUMP JUMPDEST PUSH1 0x20 DUP3 ADD SWAP1 POP SWAP2 SWAP1 POP JUMP JUMPDEST PUSH1 0x0 PUSH2 0x39EB PUSH1 0x19 DUP4 PUSH2 0x4132 JUMP JUMPDEST SWAP2 POP PUSH2 0x39F6 DUP3 PUSH2 0x49A8 JUMP JUMPDEST PUSH1 0x20 DUP3 ADD SWAP1 POP SWAP2 SWAP1 POP JUMP JUMPDEST PUSH1 0x0 PUSH2 0x3A0E PUSH1 0x2C DUP4 PUSH2 0x4132 JUMP JUMPDEST SWAP2 POP PUSH2 0x3A19 DUP3 PUSH2 0x49D1 JUMP JUMPDEST PUSH1 0x40 DUP3 ADD SWAP1 POP SWAP2 SWAP1 POP JUMP JUMPDEST PUSH1 0x0 PUSH2 0x3A31 PUSH1 0x5 DUP4 PUSH2 0x4143 JUMP JUMPDEST SWAP2 POP PUSH2 0x3A3C DUP3 PUSH2 0x4A20 JUMP JUMPDEST PUSH1 0x5 DUP3 ADD SWAP1 POP SWAP2 SWAP1 POP JUMP JUMPDEST PUSH1 0x0 PUSH2 0x3A54 PUSH1 0x20 DUP4 PUSH2 0x4132 JUMP JUMPDEST SWAP2 POP PUSH2 0x3A5F DUP3 PUSH2 0x4A49 JUMP JUMPDEST PUSH1 0x20 DUP3 ADD SWAP1 POP SWAP2 SWAP1 POP JUMP JUMPDEST PUSH1 0x0 PUSH2 0x3A77 PUSH1 0x21 DUP4 PUSH2 0x4132 JUMP JUMPDEST SWAP2 POP PUSH2 0x3A82 DUP3 PUSH2 0x4A72 JUMP JUMPDEST PUSH1 0x40 DUP3 ADD SWAP1 POP SWAP2 SWAP1 POP JUMP JUMPDEST PUSH1 0x0 PUSH2 0x3A9A PUSH1 0x0 DUP4 PUSH2 0x4127 JUMP JUMPDEST SWAP2 POP PUSH2 0x3AA5 DUP3 PUSH2 0x4AC1 JUMP JUMPDEST PUSH1 0x0 DUP3 ADD SWAP1 POP SWAP2 SWAP1 POP JUMP JUMPDEST PUSH1 0x0 PUSH2 0x3ABD PUSH1 0x31 DUP4 PUSH2 0x4132 JUMP JUMPDEST SWAP2 POP PUSH2 0x3AC8 DUP3 PUSH2 0x4AC4 JUMP JUMPDEST PUSH1 0x40 DUP3 ADD SWAP1 POP SWAP2 SWAP1 POP JUMP JUMPDEST PUSH1 0x0 PUSH2 0x3AE0 PUSH1 0x2C DUP4 PUSH2 0x4132 JUMP JUMPDEST SWAP2 POP PUSH2 0x3AEB DUP3 PUSH2 0x4B13 JUMP JUMPDEST PUSH1 0x40 DUP3 ADD SWAP1 POP SWAP2 SWAP1 POP JUMP JUMPDEST PUSH1 0x0 PUSH2 0x3B03 PUSH1 0x17 DUP4 PUSH2 0x4143 JUMP JUMPDEST SWAP2 POP PUSH2 0x3B0E DUP3 PUSH2 0x4B62 JUMP JUMPDEST PUSH1 0x17 DUP3 ADD SWAP1 POP SWAP2 SWAP1 POP JUMP JUMPDEST PUSH1 0x0 PUSH2 0x3B26 PUSH1 0xD DUP4 PUSH2 0x4132 JUMP JUMPDEST SWAP2 POP PUSH2 0x3B31 DUP3 PUSH2 0x4B8B JUMP JUMPDEST PUSH1 0x20 DUP3 ADD SWAP1 POP SWAP2 SWAP1 POP JUMP JUMPDEST PUSH1 0x0 PUSH2 0x3B49 PUSH1 0x11 DUP4 PUSH2 0x4143 JUMP JUMPDEST SWAP2 POP PUSH2 0x3B54 DUP3 PUSH2 0x4BB4 JUMP JUMPDEST PUSH1 0x11 DUP3 ADD SWAP1 POP SWAP2 SWAP1 POP JUMP JUMPDEST PUSH1 0x0 PUSH2 0x3B6C PUSH1 0x2F DUP4 PUSH2 0x4132 JUMP JUMPDEST SWAP2 POP PUSH2 0x3B77 DUP3 PUSH2 0x4BDD JUMP JUMPDEST PUSH1 0x40 DUP3 ADD SWAP1 POP SWAP2 SWAP1 POP JUMP JUMPDEST PUSH1 0x0 PUSH2 0x3B8F PUSH1 0x1 DUP4 PUSH2 0x4143 JUMP JUMPDEST SWAP2 POP PUSH2 0x3B9A DUP3 PUSH2 0x4C2C JUMP JUMPDEST PUSH1 0x1 DUP3 ADD SWAP1 POP SWAP2 SWAP1 POP JUMP JUMPDEST PUSH2 0x3BAE DUP2 PUSH2 0x42D7 JUMP JUMPDEST DUP3 MSTORE POP POP JUMP JUMPDEST PUSH2 0x3BC5 PUSH2 0x3BC0 DUP3 PUSH2 0x42D7 JUMP JUMPDEST PUSH2 0x443B JUMP JUMPDEST DUP3 MSTORE POP POP JUMP JUMPDEST PUSH2 0x3BD4 DUP2 PUSH2 0x42E1 JUMP JUMPDEST DUP3 MSTORE POP POP JUMP JUMPDEST PUSH1 0x0 PUSH2 0x3BE6 DUP3 DUP7 PUSH2 0x3675 JUMP JUMPDEST PUSH1 0x20 DUP3 ADD SWAP2 POP PUSH2 0x3BF6 DUP3 DUP6 PUSH2 0x3640 JUMP JUMPDEST PUSH1 0x14 DUP3 ADD SWAP2 POP PUSH2 0x3C06 DUP3 DUP5 PUSH2 0x3BB4 JUMP JUMPDEST PUSH1 0x20 DUP3 ADD SWAP2 POP DUP2 SWAP1 POP SWAP5 SWAP4 POP POP POP POP JUMP JUMPDEST PUSH1 0x0 PUSH2 0x3C23 DUP3 DUP6 PUSH2 0x372F JUMP JUMPDEST SWAP2 POP PUSH2 0x3C2E DUP3 PUSH2 0x3B82 JUMP JUMPDEST SWAP2 POP PUSH2 0x3C3A DUP3 DUP5 PUSH2 0x36FE JUMP JUMPDEST SWAP2 POP PUSH2 0x3C45 DUP3 PUSH2 0x3A24 JUMP JUMPDEST SWAP2 POP DUP2 SWAP1 POP SWAP4 SWAP3 POP POP POP JUMP JUMPDEST PUSH1 0x0 PUSH2 0x3C5C DUP3 PUSH2 0x3A8D JUMP JUMPDEST SWAP2 POP DUP2 SWAP1 POP SWAP2 SWAP1 POP JUMP JUMPDEST PUSH1 0x0 PUSH2 0x3C71 DUP3 PUSH2 0x3AF6 JUMP JUMPDEST SWAP2 POP PUSH2 0x3C7D DUP3 DUP6 PUSH2 0x36FE JUMP JUMPDEST SWAP2 POP PUSH2 0x3C88 DUP3 PUSH2 0x3B3C JUMP JUMPDEST SWAP2 POP PUSH2 0x3C94 DUP3 DUP5 PUSH2 0x36FE JUMP JUMPDEST SWAP2 POP DUP2 SWAP1 POP SWAP4 SWAP3 POP POP POP JUMP JUMPDEST PUSH1 0x0 PUSH1 0x20 DUP3 ADD SWAP1 POP PUSH2 0x3CB5 PUSH1 0x0 DUP4 ADD DUP5 PUSH2 0x3631 JUMP JUMPDEST SWAP3 SWAP2 POP POP JUMP JUMPDEST PUSH1 0x0 PUSH1 0x80 DUP3 ADD SWAP1 POP PUSH2 0x3CD0 PUSH1 0x0 DUP4 ADD DUP8 PUSH2 0x3631 JUMP JUMPDEST PUSH2 0x3CDD PUSH1 0x20 DUP4 ADD DUP7 PUSH2 0x3631 JUMP JUMPDEST PUSH2 0x3CEA PUSH1 0x40 DUP4 ADD DUP6 PUSH2 0x3BA5 JUMP JUMPDEST DUP2 DUP2 SUB PUSH1 0x60 DUP4 ADD MSTORE PUSH2 0x3CFC DUP2 DUP5 PUSH2 0x368C JUMP JUMPDEST SWAP1 POP SWAP6 SWAP5 POP POP POP POP POP JUMP JUMPDEST PUSH1 0x0 PUSH1 0x20 DUP3 ADD SWAP1 POP PUSH2 0x3D1C PUSH1 0x0 DUP4 ADD DUP5 PUSH2 0x3657 JUMP JUMPDEST SWAP3 SWAP2 POP POP JUMP JUMPDEST PUSH1 0x0 PUSH1 0x20 DUP3 ADD SWAP1 POP PUSH2 0x3D37 PUSH1 0x0 DUP4 ADD DUP5 PUSH2 0x3666 JUMP JUMPDEST SWAP3 SWAP2 POP POP JUMP JUMPDEST PUSH1 0x0 PUSH1 0x20 DUP3 ADD SWAP1 POP DUP2 DUP2 SUB PUSH1 0x0 DUP4 ADD MSTORE PUSH2 0x3D57 DUP2 DUP5 PUSH2 0x36C5 JUMP JUMPDEST SWAP1 POP SWAP3 SWAP2 POP POP JUMP JUMPDEST PUSH1 0x0 PUSH1 0x20 DUP3 ADD SWAP1 POP DUP2 DUP2 SUB PUSH1 0x0 DUP4 ADD MSTORE PUSH2 0x3D78 DUP2 PUSH2 0x37AE JUMP JUMPDEST SWAP1 POP SWAP2 SWAP1 POP JUMP JUMPDEST PUSH1 0x0 PUSH1 0x20 DUP3 ADD SWAP1 POP DUP2 DUP2 SUB PUSH1 0x0 DUP4 ADD MSTORE PUSH2 0x3D98 DUP2 PUSH2 0x37D1 JUMP JUMPDEST SWAP1 POP SWAP2 SWAP1 POP JUMP JUMPDEST PUSH1 0x0 PUSH1 0x20 DUP3 ADD SWAP1 POP DUP2 DUP2 SUB PUSH1 0x0 DUP4 ADD MSTORE PUSH2 0x3DB8 DUP2 PUSH2 0x37F4 JUMP JUMPDEST SWAP1 POP SWAP2 SWAP1 POP JUMP JUMPDEST PUSH1 0x0 PUSH1 0x20 DUP3 ADD SWAP1 POP DUP2 DUP2 SUB PUSH1 0x0 DUP4 ADD MSTORE PUSH2 0x3DD8 DUP2 PUSH2 0x3817 JUMP JUMPDEST SWAP1 POP SWAP2 SWAP1 POP JUMP JUMPDEST PUSH1 0x0 PUSH1 0x20 DUP3 ADD SWAP1 POP DUP2 DUP2 SUB PUSH1 0x0 DUP4 ADD MSTORE PUSH2 0x3DF8 DUP2 PUSH2 0x383A JUMP JUMPDEST SWAP1 POP SWAP2 SWAP1 POP JUMP JUMPDEST PUSH1 0x0 PUSH1 0x20 DUP3 ADD SWAP1 POP DUP2 DUP2 SUB PUSH1 0x0 DUP4 ADD MSTORE PUSH2 0x3E18 DUP2 PUSH2 0x385D JUMP JUMPDEST SWAP1 POP SWAP2 SWAP1 POP JUMP JUMPDEST PUSH1 0x0 PUSH1 0x20 DUP3 ADD SWAP1 POP DUP2 DUP2 SUB PUSH1 0x0 DUP4 ADD MSTORE PUSH2 0x3E38 DUP2 PUSH2 0x3880 JUMP JUMPDEST SWAP1 POP SWAP2 SWAP1 POP JUMP JUMPDEST PUSH1 0x0 PUSH1 0x20 DUP3 ADD SWAP1 POP DUP2 DUP2 SUB PUSH1 0x0 DUP4 ADD MSTORE PUSH2 0x3E58 DUP2 PUSH2 0x38A3 JUMP JUMPDEST SWAP1 POP SWAP2 SWAP1 POP JUMP JUMPDEST PUSH1 0x0 PUSH1 0x20 DUP3 ADD SWAP1 POP DUP2 DUP2 SUB PUSH1 0x0 DUP4 ADD MSTORE PUSH2 0x3E78 DUP2 PUSH2 0x38C6 JUMP JUMPDEST SWAP1 POP SWAP2 SWAP1 POP JUMP JUMPDEST PUSH1 0x0 PUSH1 0x20 DUP3 ADD SWAP1 POP DUP2 DUP2 SUB PUSH1 0x0 DUP4 ADD MSTORE PUSH2 0x3E98 DUP2 PUSH2 0x38E9 JUMP JUMPDEST SWAP1 POP SWAP2 SWAP1 POP JUMP JUMPDEST PUSH1 0x0 PUSH1 0x20 DUP3 ADD SWAP1 POP DUP2 DUP2 SUB PUSH1 0x0 DUP4 ADD MSTORE PUSH2 0x3EB8 DUP2 PUSH2 0x390C JUMP JUMPDEST SWAP1 POP SWAP2 SWAP1 POP JUMP JUMPDEST PUSH1 0x0 PUSH1 0x20 DUP3 ADD SWAP1 POP DUP2 DUP2 SUB PUSH1 0x0 DUP4 ADD MSTORE PUSH2 0x3ED8 DUP2 PUSH2 0x392F JUMP JUMPDEST SWAP1 POP SWAP2 SWAP1 POP JUMP JUMPDEST PUSH1 0x0 PUSH1 0x20 DUP3 ADD SWAP1 POP DUP2 DUP2 SUB PUSH1 0x0 DUP4 ADD MSTORE PUSH2 0x3EF8 DUP2 PUSH2 0x3952 JUMP JUMPDEST SWAP1 POP SWAP2 SWAP1 POP JUMP JUMPDEST PUSH1 0x0 PUSH1 0x20 DUP3 ADD SWAP1 POP DUP2 DUP2 SUB PUSH1 0x0 DUP4 ADD MSTORE PUSH2 0x3F18 DUP2 PUSH2 0x3975 JUMP JUMPDEST SWAP1 POP SWAP2 SWAP1 POP JUMP JUMPDEST PUSH1 0x0 PUSH1 0x20 DUP3 ADD SWAP1 POP DUP2 DUP2 SUB PUSH1 0x0 DUP4 ADD MSTORE PUSH2 0x3F38 DUP2 PUSH2 0x3998 JUMP JUMPDEST SWAP1 POP SWAP2 SWAP1 POP JUMP JUMPDEST PUSH1 0x0 PUSH1 0x20 DUP3 ADD SWAP1 POP DUP2 DUP2 SUB PUSH1 0x0 DUP4 ADD MSTORE PUSH2 0x3F58 DUP2 PUSH2 0x39BB JUMP JUMPDEST SWAP1 POP SWAP2 SWAP1 POP JUMP JUMPDEST PUSH1 0x0 PUSH1 0x20 DUP3 ADD SWAP1 POP DUP2 DUP2 SUB PUSH1 0x0 DUP4 ADD MSTORE PUSH2 0x3F78 DUP2 PUSH2 0x39DE JUMP JUMPDEST SWAP1 POP SWAP2 SWAP1 POP JUMP JUMPDEST PUSH1 0x0 PUSH1 0x20 DUP3 ADD SWAP1 POP DUP2 DUP2 SUB PUSH1 0x0 DUP4 ADD MSTORE PUSH2 0x3F98 DUP2 PUSH2 0x3A01 JUMP JUMPDEST SWAP1 POP SWAP2 SWAP1 POP JUMP JUMPDEST PUSH1 0x0 PUSH1 0x20 DUP3 ADD SWAP1 POP DUP2 DUP2 SUB PUSH1 0x0 DUP4 ADD MSTORE PUSH2 0x3FB8 DUP2 PUSH2 0x3A47 JUMP JUMPDEST SWAP1 POP SWAP2 SWAP1 POP JUMP JUMPDEST PUSH1 0x0 PUSH1 0x20 DUP3 ADD SWAP1 POP DUP2 DUP2 SUB PUSH1 0x0 DUP4 ADD MSTORE PUSH2 0x3FD8 DUP2 PUSH2 0x3A6A JUMP JUMPDEST SWAP1 POP SWAP2 SWAP1 POP JUMP JUMPDEST PUSH1 0x0 PUSH1 0x20 DUP3 ADD SWAP1 POP DUP2 DUP2 SUB PUSH1 0x0 DUP4 ADD MSTORE PUSH2 0x3FF8 DUP2 PUSH2 0x3AB0 JUMP JUMPDEST SWAP1 POP SWAP2 SWAP1 POP JUMP JUMPDEST PUSH1 0x0 PUSH1 0x20 DUP3 ADD SWAP1 POP DUP2 DUP2 SUB PUSH1 0x0 DUP4 ADD MSTORE PUSH2 0x4018 DUP2 PUSH2 0x3AD3 JUMP JUMPDEST SWAP1 POP SWAP2 SWAP1 POP JUMP JUMPDEST PUSH1 0x0 PUSH1 0x20 DUP3 ADD SWAP1 POP DUP2 DUP2 SUB PUSH1 0x0 DUP4 ADD MSTORE PUSH2 0x4038 DUP2 PUSH2 0x3B19 JUMP JUMPDEST SWAP1 POP SWAP2 SWAP1 POP JUMP JUMPDEST PUSH1 0x0 PUSH1 0x20 DUP3 ADD SWAP1 POP DUP2 DUP2 SUB PUSH1 0x0 DUP4 ADD MSTORE PUSH2 0x4058 DUP2 PUSH2 0x3B5F JUMP JUMPDEST SWAP1 POP SWAP2 SWAP1 POP JUMP JUMPDEST PUSH1 0x0 PUSH1 0x20 DUP3 ADD SWAP1 POP PUSH2 0x4074 PUSH1 0x0 DUP4 ADD DUP5 PUSH2 0x3BA5 JUMP JUMPDEST SWAP3 SWAP2 POP POP JUMP JUMPDEST PUSH1 0x0 PUSH1 0x20 DUP3 ADD SWAP1 POP PUSH2 0x408F PUSH1 0x0 DUP4 ADD DUP5 PUSH2 0x3BCB JUMP JUMPDEST SWAP3 SWAP2 POP POP JUMP JUMPDEST PUSH1 0x0 PUSH2 0x409F PUSH2 0x40B0 JUMP JUMPDEST SWAP1 POP PUSH2 0x40AB DUP3 DUP3 PUSH2 0x4393 JUMP JUMPDEST SWAP2 SWAP1 POP JUMP JUMPDEST PUSH1 0x0 PUSH1 0x40 MLOAD SWAP1 POP SWAP1 JUMP JUMPDEST PUSH1 0x0 PUSH8 0xFFFFFFFFFFFFFFFF DUP3 GT ISZERO PUSH2 0x40D5 JUMPI PUSH2 0x40D4 PUSH2 0x4561 JUMP JUMPDEST JUMPDEST PUSH2 0x40DE DUP3 PUSH2 0x45A4 JUMP JUMPDEST SWAP1 POP PUSH1 0x20 DUP2 ADD SWAP1 POP SWAP2 SWAP1 POP JUMP JUMPDEST PUSH1 0x0 DUP2 SWAP1 POP DUP2 PUSH1 0x0 MSTORE PUSH1 0x20 PUSH1 0x0 KECCAK256 SWAP1 POP SWAP2 SWAP1 POP JUMP JUMPDEST PUSH1 0x0 DUP2 MLOAD SWAP1 POP SWAP2 SWAP1 POP JUMP JUMPDEST PUSH1 0x0 DUP2 MLOAD SWAP1 POP SWAP2 SWAP1 POP JUMP JUMPDEST PUSH1 0x0 DUP3 DUP3 MSTORE PUSH1 0x20 DUP3 ADD SWAP1 POP SWAP3 SWAP2 POP POP JUMP JUMPDEST PUSH1 0x0 DUP2 SWAP1 POP SWAP3 SWAP2 POP POP JUMP JUMPDEST PUSH1 0x0 DUP3 DUP3 MSTORE PUSH1 0x20 DUP3 ADD SWAP1 POP SWAP3 SWAP2 POP POP JUMP JUMPDEST PUSH1 0x0 DUP2 SWAP1 POP SWAP3 SWAP2 POP POP JUMP JUMPDEST PUSH1 0x0 PUSH2 0x4159 DUP3 PUSH2 0x42D7 JUMP JUMPDEST SWAP2 POP PUSH2 0x4164 DUP4 PUSH2 0x42D7 JUMP JUMPDEST SWAP3 POP DUP3 PUSH32 0xFFFFFFFFFFFFFFFFFFFFFFFFFFFFFFFFFFFFFFFFFFFFFFFFFFFFFFFFFFFFFFFF SUB DUP3 GT ISZERO PUSH2 0x4199 JUMPI PUSH2 0x4198 PUSH2 0x4476 JUMP JUMPDEST JUMPDEST DUP3 DUP3 ADD SWAP1 POP SWAP3 SWAP2 POP POP JUMP JUMPDEST PUSH1 0x0 PUSH2 0x41AF DUP3 PUSH2 0x42D7 JUMP JUMPDEST SWAP2 POP PUSH2 0x41BA DUP4 PUSH2 0x42D7 JUMP JUMPDEST SWAP3 POP DUP3 PUSH2 0x41CA JUMPI PUSH2 0x41C9 PUSH2 0x44A5 JUMP JUMPDEST JUMPDEST DUP3 DUP3 DIV SWAP1 POP SWAP3 SWAP2 POP POP JUMP JUMPDEST PUSH1 0x0 PUSH2 0x41E0 DUP3 PUSH2 0x42D7 JUMP JUMPDEST SWAP2 POP PUSH2 0x41EB DUP4 PUSH2 0x42D7 JUMP JUMPDEST SWAP3 POP DUP2 PUSH32 0xFFFFFFFFFFFFFFFFFFFFFFFFFFFFFFFFFFFFFFFFFFFFFFFFFFFFFFFFFFFFFFFF DIV DUP4 GT DUP3 ISZERO ISZERO AND ISZERO PUSH2 0x4224 JUMPI PUSH2 0x4223 PUSH2 0x4476 JUMP JUMPDEST JUMPDEST DUP3 DUP3 MUL SWAP1 POP SWAP3 SWAP2 POP POP JUMP JUMPDEST PUSH1 0x0 PUSH2 0x423A DUP3 PUSH2 0x42D7 JUMP JUMPDEST SWAP2 POP PUSH2 0x4245 DUP4 PUSH2 0x42D7 JUMP JUMPDEST SWAP3 POP DUP3 DUP3 LT ISZERO PUSH2 0x4258 JUMPI PUSH2 0x4257 PUSH2 0x4476 JUMP JUMPDEST JUMPDEST DUP3 DUP3 SUB SWAP1 POP SWAP3 SWAP2 POP POP JUMP JUMPDEST PUSH1 0x0 PUSH2 0x426E DUP3 PUSH2 0x42B7 JUMP JUMPDEST SWAP1 POP SWAP2 SWAP1 POP JUMP JUMPDEST PUSH1 0x0 DUP2 ISZERO ISZERO SWAP1 POP SWAP2 SWAP1 POP JUMP JUMPDEST PUSH1 0x0 DUP2 SWAP1 POP SWAP2 SWAP1 POP JUMP JUMPDEST PUSH1 0x0 PUSH32 0xFFFFFFFF00000000000000000000000000000000000000000000000000000000 DUP3 AND SWAP1 POP SWAP2 SWAP1 POP JUMP JUMPDEST PUSH1 0x0 PUSH20 0xFFFFFFFFFFFFFFFFFFFFFFFFFFFFFFFFFFFFFFFF DUP3 AND SWAP1 POP SWAP2 SWAP1 POP JUMP JUMPDEST PUSH1 0x0 DUP2 SWAP1 POP SWAP2 SWAP1 POP JUMP JUMPDEST PUSH1 0x0 PUSH8 0xFFFFFFFFFFFFFFFF DUP3 AND SWAP1 POP SWAP2 SWAP1 POP JUMP JUMPDEST DUP3 DUP2 DUP4 CALLDATACOPY PUSH1 0x0 DUP4 DUP4 ADD MSTORE POP POP POP JUMP JUMPDEST PUSH1 0x0 JUMPDEST DUP4 DUP2 LT ISZERO PUSH2 0x4322 JUMPI DUP1 DUP3 ADD MLOAD DUP2 DUP5 ADD MSTORE PUSH1 0x20 DUP2 ADD SWAP1 POP PUSH2 0x4307 JUMP JUMPDEST DUP4 DUP2 GT ISZERO PUSH2 0x4331 JUMPI PUSH1 0x0 DUP5 DUP5 ADD MSTORE JUMPDEST POP POP POP POP JUMP JUMPDEST PUSH1 0x0 PUSH2 0x4342 DUP3 PUSH2 0x42D7 JUMP JUMPDEST SWAP2 POP PUSH1 0x0 DUP3 EQ ISZERO PUSH2 0x4356 JUMPI PUSH2 0x4355 PUSH2 0x4476 JUMP JUMPDEST JUMPDEST PUSH1 0x1 DUP3 SUB SWAP1 POP SWAP2 SWAP1 POP JUMP JUMPDEST PUSH1 0x0 PUSH1 0x2 DUP3 DIV SWAP1 POP PUSH1 0x1 DUP3 AND DUP1 PUSH2 0x4379 JUMPI PUSH1 0x7F DUP3 AND SWAP2 POP JUMPDEST PUSH1 0x20 DUP3 LT DUP2 EQ ISZERO PUSH2 0x438D JUMPI PUSH2 0x438C PUSH2 0x44D4 JUMP JUMPDEST JUMPDEST POP SWAP2 SWAP1 POP JUMP JUMPDEST PUSH2 0x439C DUP3 PUSH2 0x45A4 JUMP JUMPDEST DUP2 ADD DUP2 DUP2 LT PUSH8 0xFFFFFFFFFFFFFFFF DUP3 GT OR ISZERO PUSH2 0x43BB JUMPI PUSH2 0x43BA PUSH2 0x4561 JUMP JUMPDEST JUMPDEST DUP1 PUSH1 0x40 MSTORE POP POP POP JUMP JUMPDEST PUSH1 0x0 PUSH2 0x43CF DUP3 PUSH2 0x42D7 JUMP JUMPDEST SWAP2 POP PUSH32 0xFFFFFFFFFFFFFFFFFFFFFFFFFFFFFFFFFFFFFFFFFFFFFFFFFFFFFFFFFFFFFFFF DUP3 EQ ISZERO PUSH2 0x4402 JUMPI PUSH2 0x4401 PUSH2 0x4476 JUMP JUMPDEST JUMPDEST PUSH1 0x1 DUP3 ADD SWAP1 POP SWAP2 SWAP1 POP JUMP JUMPDEST PUSH1 0x0 PUSH2 0x4418 DUP3 PUSH2 0x4429 JUMP JUMPDEST SWAP1 POP SWAP2 SWAP1 POP JUMP JUMPDEST PUSH1 0x0 DUP2 SWAP1 POP SWAP2 SWAP1 POP JUMP JUMPDEST PUSH1 0x0 PUSH2 0x4434 DUP3 PUSH2 0x45B5 JUMP JUMPDEST SWAP1 POP SWAP2 SWAP1 POP JUMP JUMPDEST PUSH1 0x0 DUP2 SWAP1 POP SWAP2 SWAP1 POP JUMP JUMPDEST PUSH1 0x0 PUSH2 0x4450 DUP3 PUSH2 0x42D7 JUMP JUMPDEST SWAP2 POP PUSH2 0x445B DUP4 PUSH2 0x42D7 JUMP JUMPDEST SWAP3 POP DUP3 PUSH2 0x446B JUMPI PUSH2 0x446A PUSH2 0x44A5 JUMP JUMPDEST JUMPDEST DUP3 DUP3 MOD SWAP1 POP SWAP3 SWAP2 POP POP JUMP JUMPDEST PUSH32 0x4E487B7100000000000000000000000000000000000000000000000000000000 PUSH1 0x0 MSTORE PUSH1 0x11 PUSH1 0x4 MSTORE PUSH1 0x24 PUSH1 0x0 REVERT JUMPDEST PUSH32 0x4E487B7100000000000000000000000000000000000000000000000000000000 PUSH1 0x0 MSTORE PUSH1 0x12 PUSH1 0x4 MSTORE PUSH1 0x24 PUSH1 0x0 REVERT JUMPDEST PUSH32 0x4E487B7100000000000000000000000000000000000000000000000000000000 PUSH1 0x0 MSTORE PUSH1 0x22 PUSH1 0x4 MSTORE PUSH1 0x24 PUSH1 0x0 REVERT JUMPDEST PUSH32 0x4E487B7100000000000000000000000000000000000000000000000000000000 PUSH1 0x0 MSTORE PUSH1 0x31 PUSH1 0x4 MSTORE PUSH1 0x24 PUSH1 0x0 REVERT JUMPDEST PUSH32 0x4E487B7100000000000000000000000000000000000000000000000000000000 PUSH1 0x0 MSTORE PUSH1 0x32 PUSH1 0x4 MSTORE PUSH1 0x24 PUSH1 0x0 REVERT JUMPDEST PUSH32 0x4E487B7100000000000000000000000000000000000000000000000000000000 PUSH1 0x0 MSTORE PUSH1 0x41 PUSH1 0x4 MSTORE PUSH1 0x24 PUSH1 0x0 REVERT JUMPDEST PUSH1 0x0 DUP1 REVERT JUMPDEST PUSH1 0x0 DUP1 REVERT JUMPDEST PUSH1 0x0 DUP1 REVERT JUMPDEST PUSH1 0x0 DUP1 REVERT JUMPDEST PUSH1 0x0 PUSH1 0x1F NOT PUSH1 0x1F DUP4 ADD AND SWAP1 POP SWAP2 SWAP1 POP JUMP JUMPDEST PUSH1 0x0 DUP2 PUSH1 0x60 SHL SWAP1 POP SWAP2 SWAP1 POP JUMP JUMPDEST PUSH32 0x537472696E67733A20686578206C656E67746820696E73756666696369656E74 PUSH1 0x0 DUP3 ADD MSTORE POP JUMP JUMPDEST PUSH32 0x455243373231456E756D657261626C653A206F776E657220696E646578206F75 PUSH1 0x0 DUP3 ADD MSTORE PUSH32 0x74206F6620626F756E6473000000000000000000000000000000000000000000 PUSH1 0x20 DUP3 ADD MSTORE POP JUMP JUMPDEST PUSH32 0x4552433732313A207472616E7366657220746F206E6F6E204552433732315265 PUSH1 0x0 DUP3 ADD MSTORE PUSH32 0x63656976657220696D706C656D656E7465720000000000000000000000000000 PUSH1 0x20 DUP3 ADD MSTORE POP JUMP JUMPDEST PUSH32 0x4F776E61626C653A206E6577206F776E657220697320746865207A65726F2061 PUSH1 0x0 DUP3 ADD MSTORE PUSH32 0x6464726573730000000000000000000000000000000000000000000000000000 PUSH1 0x20 DUP3 ADD MSTORE POP JUMP JUMPDEST PUSH32 0x4552433732313A207472616E736665722066726F6D20696E636F727265637420 PUSH1 0x0 DUP3 ADD MSTORE PUSH32 0x6F776E6572000000000000000000000000000000000000000000000000000000 PUSH1 0x20 DUP3 ADD MSTORE POP JUMP JUMPDEST PUSH32 0x636865636B207072696365000000000000000000000000000000000000000000 PUSH1 0x0 DUP3 ADD MSTORE POP JUMP JUMPDEST PUSH32 0x4552433732313A20746F6B656E20616C7265616479206D696E74656400000000 PUSH1 0x0 DUP3 ADD MSTORE POP JUMP JUMPDEST PUSH32 0x4661696C656420746F2073656E64206D6F6E6579000000000000000000000000 PUSH1 0x0 DUP3 ADD MSTORE POP JUMP JUMPDEST PUSH32 0x4552433732313A207472616E7366657220746F20746865207A65726F20616464 PUSH1 0x0 DUP3 ADD MSTORE PUSH32 0x7265737300000000000000000000000000000000000000000000000000000000 PUSH1 0x20 DUP3 ADD MSTORE POP JUMP JUMPDEST PUSH32 0x4552433732313A20617070726F766520746F2063616C6C657200000000000000 PUSH1 0x0 DUP3 ADD MSTORE POP JUMP JUMPDEST PUSH32 0x4552433732313A206F70657261746F7220717565727920666F72206E6F6E6578 PUSH1 0x0 DUP3 ADD MSTORE PUSH32 0x697374656E7420746F6B656E0000000000000000000000000000000000000000 PUSH1 0x20 DUP3 ADD MSTORE POP JUMP JUMPDEST PUSH32 0x4E6F7420656E6F756768206B6C61790000000000000000000000000000000000 PUSH1 0x0 DUP3 ADD MSTORE POP JUMP JUMPDEST PUSH32 0x4552433732313A20617070726F76652063616C6C6572206973206E6F74206F77 PUSH1 0x0 DUP3 ADD MSTORE PUSH32 0x6E6572206E6F7220617070726F76656420666F7220616C6C0000000000000000 PUSH1 0x20 DUP3 ADD MSTORE POP JUMP JUMPDEST PUSH32 0x4552433732313A2062616C616E636520717565727920666F7220746865207A65 PUSH1 0x0 DUP3 ADD MSTORE PUSH32 0x726F206164647265737300000000000000000000000000000000000000000000 PUSH1 0x20 DUP3 ADD MSTORE POP JUMP JUMPDEST PUSH32 0x4552433732313A206F776E657220717565727920666F72206E6F6E6578697374 PUSH1 0x0 DUP3 ADD MSTORE PUSH32 0x656E7420746F6B656E0000000000000000000000000000000000000000000000 PUSH1 0x20 DUP3 ADD MSTORE POP JUMP JUMPDEST PUSH32 0x4552433732313A206D696E7420746F20746865207A65726F2061646472657373 PUSH1 0x0 DUP3 ADD MSTORE POP JUMP JUMPDEST PUSH32 0x4E6F6D6F7265206D696E74696E20697320706F737369626C6500000000000000 PUSH1 0x0 DUP3 ADD MSTORE POP JUMP JUMPDEST PUSH32 0x4552433732313A20617070726F76656420717565727920666F72206E6F6E6578 PUSH1 0x0 DUP3 ADD MSTORE PUSH32 0x697374656E7420746F6B656E0000000000000000000000000000000000000000 PUSH1 0x20 DUP3 ADD MSTORE POP JUMP JUMPDEST PUSH32 0x2E6A736F6E000000000000000000000000000000000000000000000000000000 PUSH1 0x0 DUP3 ADD MSTORE POP JUMP JUMPDEST PUSH32 0x4F776E61626C653A2063616C6C6572206973206E6F7420746865206F776E6572 PUSH1 0x0 DUP3 ADD MSTORE POP JUMP JUMPDEST PUSH32 0x4552433732313A20617070726F76616C20746F2063757272656E74206F776E65 PUSH1 0x0 DUP3 ADD MSTORE PUSH32 0x7200000000000000000000000000000000000000000000000000000000000000 PUSH1 0x20 DUP3 ADD MSTORE POP JUMP JUMPDEST POP JUMP JUMPDEST PUSH32 0x4552433732313A207472616E736665722063616C6C6572206973206E6F74206F PUSH1 0x0 DUP3 ADD MSTORE PUSH32 0x776E6572206E6F7220617070726F766564000000000000000000000000000000 PUSH1 0x20 DUP3 ADD MSTORE POP JUMP JUMPDEST PUSH32 0x455243373231456E756D657261626C653A20676C6F62616C20696E646578206F PUSH1 0x0 DUP3 ADD MSTORE PUSH32 0x7574206F6620626F756E64730000000000000000000000000000000000000000 PUSH1 0x20 DUP3 ADD MSTORE POP JUMP JUMPDEST PUSH32 0x416363657373436F6E74726F6C3A206163636F756E7420000000000000000000 PUSH1 0x0 DUP3 ADD MSTORE POP JUMP JUMPDEST PUSH32 0x636865636B2062616C616E636500000000000000000000000000000000000000 PUSH1 0x0 DUP3 ADD MSTORE POP JUMP JUMPDEST PUSH32 0x206973206D697373696E6720726F6C6520000000000000000000000000000000 PUSH1 0x0 DUP3 ADD MSTORE POP JUMP JUMPDEST PUSH32 0x416363657373436F6E74726F6C3A2063616E206F6E6C792072656E6F756E6365 PUSH1 0x0 DUP3 ADD MSTORE PUSH32 0x20726F6C657320666F722073656C660000000000000000000000000000000000 PUSH1 0x20 DUP3 ADD MSTORE POP JUMP JUMPDEST PUSH32 0x2F00000000000000000000000000000000000000000000000000000000000000 PUSH1 0x0 DUP3 ADD MSTORE POP JUMP JUMPDEST PUSH2 0x4C5E DUP2 PUSH2 0x4263 JUMP JUMPDEST DUP2 EQ PUSH2 0x4C69 JUMPI PUSH1 0x0 DUP1 REVERT JUMPDEST POP JUMP JUMPDEST PUSH2 0x4C75 DUP2 PUSH2 0x4275 JUMP JUMPDEST DUP2 EQ PUSH2 0x4C80 JUMPI PUSH1 0x0 DUP1 REVERT JUMPDEST POP JUMP JUMPDEST PUSH2 0x4C8C DUP2 PUSH2 0x4281 JUMP JUMPDEST DUP2 EQ PUSH2 0x4C97 JUMPI PUSH1 0x0 DUP1 REVERT JUMPDEST POP JUMP JUMPDEST PUSH2 0x4CA3 DUP2 PUSH2 0x428B JUMP JUMPDEST DUP2 EQ PUSH2 0x4CAE JUMPI PUSH1 0x0 DUP1 REVERT JUMPDEST POP JUMP JUMPDEST PUSH2 0x4CBA DUP2 PUSH2 0x42D7 JUMP JUMPDEST DUP2 EQ PUSH2 0x4CC5 JUMPI PUSH1 0x0 DUP1 REVERT JUMPDEST POP JUMP JUMPDEST PUSH2 0x4CD1 DUP2 PUSH2 0x42E1 JUMP JUMPDEST DUP2 EQ PUSH2 0x4CDC JUMPI PUSH1 0x0 DUP1 REVERT JUMPDEST POP JUMP INVALID LOG2 PUSH5 0x6970667358 0x22 SLT KECCAK256 0xAE SHR DUP9 SDIV PUSH17 0x886BD787E88A818C58ECF4953F9AE29392 SWAP7 0xE4 PUSH11 0x9F4C28A617AB9064736F6C PUSH4 0x43000807 STOP CALLER "
		},
		"gasEstimates": {
			"creation": {
				"codeDepositCost": "3946600",
				"executionCost": "infinite",
				"totalCost": "infinite"
			},
			"external": {
				"AlreadyMint(uint256)": "infinite",
				"DEFAULT_ADMIN_ROLE()": "468",
				"MAX_TOKEN_COUNT()": "462",
				"MINTER_ROLE()": "373",
				"TOKEN_RANK_LENGTH()": "419",
				"TOKEN_TYPE_LENGTH()": "442",
				"_owner()": "2581",
				"addWhiteList(address)": "27140",
				"approve(address,uint256)": "infinite",
				"balanceOf(address)": "2991",
				"getApproved(uint256)": "5295",
				"getBalance()": "3032",
				"getJolamanTokenType(uint256)": "infinite",
				"getRoleAdmin(bytes32)": "infinite",
				"grantRole(bytes32,address)": "infinite",
				"hasRole(bytes32,address)": "3229",
				"isApprovedForAll(address,address)": "infinite",
				"isWhiteList(address)": "2999",
				"mappedJolamanTokenData(uint256)": "infinite",
				"metadataURI()": "infinite",
				"mintingPrice()": "2583",
				"name()": "infinite",
				"owner()": "2589",
				"ownerOf(uint256)": "3045",
				"payandMint()": "3168",
				"payment()": "3238",
				"renounceOwnership()": "30508",
				"renounceRole(bytes32,address)": "infinite",
				"revokeRole(bytes32,address)": "infinite",
				"safeMint(address)": "infinite",
				"safeTransferFrom(address,address,uint256)": "infinite",
				"safeTransferFrom(address,address,uint256,bytes)": "infinite",
				"setApprovalForAll(address,bool)": "infinite",
				"setMintingPrice(uint64)": "24725",
				"supportsInterface(bytes4)": "1041",
				"symbol()": "infinite",
				"tokenByIndex(uint256)": "infinite",
				"tokenOfOwnerByIndex(address,uint256)": "infinite",
				"tokenURI(uint256)": "infinite",
				"totalSupply()": "2557",
				"transferFrom(address,address,uint256)": "infinite",
				"transferOwnership(address)": "30855"
			},
			"internal": {
				"checkBalance()": "2664",
				"checkVal()": "2198",
				"randomGenerator(address,uint256)": "infinite"
			}
		},
		"methodIdentifiers": {
			"AlreadyMint(uint256)": "0c401d7e",
			"DEFAULT_ADMIN_ROLE()": "a217fddf",
			"MAX_TOKEN_COUNT()": "d0bbb0d7",
			"MINTER_ROLE()": "d5391393",
			"TOKEN_RANK_LENGTH()": "64eeeb73",
			"TOKEN_TYPE_LENGTH()": "07c7f4eb",
			"_owner()": "b2bdfa7b",
			"addWhiteList(address)": "e7cd4a04",
			"approve(address,uint256)": "095ea7b3",
			"balanceOf(address)": "70a08231",
			"getApproved(uint256)": "081812fc",
			"getBalance()": "12065fe0",
			"getJolamanTokenType(uint256)": "3e334cf0",
			"getRoleAdmin(bytes32)": "248a9ca3",
			"grantRole(bytes32,address)": "2f2ff15d",
			"hasRole(bytes32,address)": "91d14854",
			"isApprovedForAll(address,address)": "e985e9c5",
			"isWhiteList(address)": "f99031a7",
			"mappedJolamanTokenData(uint256)": "37874127",
			"metadataURI()": "03ee438c",
			"mintingPrice()": "35db70b5",
			"name()": "06fdde03",
			"owner()": "8da5cb5b",
			"ownerOf(uint256)": "6352211e",
			"payandMint()": "73ff361b",
			"payment()": "42f6487a",
			"renounceOwnership()": "715018a6",
			"renounceRole(bytes32,address)": "36568abe",
			"revokeRole(bytes32,address)": "d547741f",
			"safeMint(address)": "40d097c3",
			"safeTransferFrom(address,address,uint256)": "42842e0e",
			"safeTransferFrom(address,address,uint256,bytes)": "b88d4fde",
			"setApprovalForAll(address,bool)": "a22cb465",
			"setMintingPrice(uint64)": "5aa961e5",
			"supportsInterface(bytes4)": "01ffc9a7",
			"symbol()": "95d89b41",
			"tokenByIndex(uint256)": "4f6ccce7",
			"tokenOfOwnerByIndex(address,uint256)": "2f745c59",
			"tokenURI(uint256)": "c87b56dd",
			"totalSupply()": "18160ddd",
			"transferFrom(address,address,uint256)": "23b872dd",
			"transferOwnership(address)": "f2fde38b"
		}
	},
	"abi": [
		{
			"inputs": [
				{
					"internalType": "string",
					"name": "_metadataURI",
					"type": "string"
				}
			],
			"stateMutability": "nonpayable",
			"type": "constructor"
		},
		{
			"anonymous": false,
			"inputs": [
				{
					"indexed": true,
					"internalType": "address",
					"name": "owner",
					"type": "address"
				},
				{
					"indexed": true,
					"internalType": "address",
					"name": "approved",
					"type": "address"
				},
				{
					"indexed": true,
					"internalType": "uint256",
					"name": "tokenId",
					"type": "uint256"
				}
			],
			"name": "Approval",
			"type": "event"
		},
		{
			"anonymous": false,
			"inputs": [
				{
					"indexed": true,
					"internalType": "address",
					"name": "owner",
					"type": "address"
				},
				{
					"indexed": true,
					"internalType": "address",
					"name": "operator",
					"type": "address"
				},
				{
					"indexed": false,
					"internalType": "bool",
					"name": "approved",
					"type": "bool"
				}
			],
			"name": "ApprovalForAll",
			"type": "event"
		},
		{
			"anonymous": false,
			"inputs": [
				{
					"indexed": true,
					"internalType": "address",
					"name": "previousOwner",
					"type": "address"
				},
				{
					"indexed": true,
					"internalType": "address",
					"name": "newOwner",
					"type": "address"
				}
			],
			"name": "OwnershipTransferred",
			"type": "event"
		},
		{
			"anonymous": false,
			"inputs": [
				{
					"indexed": true,
					"internalType": "bytes32",
					"name": "role",
					"type": "bytes32"
				},
				{
					"indexed": true,
					"internalType": "bytes32",
					"name": "previousAdminRole",
					"type": "bytes32"
				},
				{
					"indexed": true,
					"internalType": "bytes32",
					"name": "newAdminRole",
					"type": "bytes32"
				}
			],
			"name": "RoleAdminChanged",
			"type": "event"
		},
		{
			"anonymous": false,
			"inputs": [
				{
					"indexed": true,
					"internalType": "bytes32",
					"name": "role",
					"type": "bytes32"
				},
				{
					"indexed": true,
					"internalType": "address",
					"name": "account",
					"type": "address"
				},
				{
					"indexed": true,
					"internalType": "address",
					"name": "sender",
					"type": "address"
				}
			],
			"name": "RoleGranted",
			"type": "event"
		},
		{
			"anonymous": false,
			"inputs": [
				{
					"indexed": true,
					"internalType": "bytes32",
					"name": "role",
					"type": "bytes32"
				},
				{
					"indexed": true,
					"internalType": "address",
					"name": "account",
					"type": "address"
				},
				{
					"indexed": true,
					"internalType": "address",
					"name": "sender",
					"type": "address"
				}
			],
			"name": "RoleRevoked",
			"type": "event"
		},
		{
			"anonymous": false,
			"inputs": [
				{
					"indexed": true,
					"internalType": "address",
					"name": "from",
					"type": "address"
				},
				{
					"indexed": true,
					"internalType": "address",
					"name": "to",
					"type": "address"
				},
				{
					"indexed": true,
					"internalType": "uint256",
					"name": "tokenId",
					"type": "uint256"
				}
			],
			"name": "Transfer",
			"type": "event"
		},
		{
			"inputs": [
				{
					"internalType": "uint256",
					"name": "",
					"type": "uint256"
				}
			],
			"name": "AlreadyMint",
			"outputs": [
				{
					"internalType": "uint256",
					"name": "",
					"type": "uint256"
				}
			],
			"stateMutability": "view",
			"type": "function"
		},
		{
			"inputs": [],
			"name": "DEFAULT_ADMIN_ROLE",
			"outputs": [
				{
					"internalType": "bytes32",
					"name": "",
					"type": "bytes32"
				}
			],
			"stateMutability": "view",
			"type": "function"
		},
		{
			"inputs": [],
			"name": "MAX_TOKEN_COUNT",
			"outputs": [
				{
					"internalType": "uint256",
					"name": "",
					"type": "uint256"
				}
			],
			"stateMutability": "view",
			"type": "function"
		},
		{
			"inputs": [],
			"name": "MINTER_ROLE",
			"outputs": [
				{
					"internalType": "bytes32",
					"name": "",
					"type": "bytes32"
				}
			],
			"stateMutability": "view",
			"type": "function"
		},
		{
			"inputs": [],
			"name": "TOKEN_RANK_LENGTH",
			"outputs": [
				{
					"internalType": "uint256",
					"name": "",
					"type": "uint256"
				}
			],
			"stateMutability": "view",
			"type": "function"
		},
		{
			"inputs": [],
			"name": "TOKEN_TYPE_LENGTH",
			"outputs": [
				{
					"internalType": "uint256",
					"name": "",
					"type": "uint256"
				}
			],
			"stateMutability": "view",
			"type": "function"
		},
		{
			"inputs": [],
			"name": "_owner",
			"outputs": [
				{
					"internalType": "address",
					"name": "",
					"type": "address"
				}
			],
			"stateMutability": "view",
			"type": "function"
		},
		{
			"inputs": [
				{
					"internalType": "address",
					"name": "_toWhiteList",
					"type": "address"
				}
			],
			"name": "addWhiteList",
			"outputs": [],
			"stateMutability": "nonpayable",
			"type": "function"
		},
		{
			"inputs": [
				{
					"internalType": "address",
					"name": "to",
					"type": "address"
				},
				{
					"internalType": "uint256",
					"name": "tokenId",
					"type": "uint256"
				}
			],
			"name": "approve",
			"outputs": [],
			"stateMutability": "nonpayable",
			"type": "function"
		},
		{
			"inputs": [
				{
					"internalType": "address",
					"name": "owner",
					"type": "address"
				}
			],
			"name": "balanceOf",
			"outputs": [
				{
					"internalType": "uint256",
					"name": "",
					"type": "uint256"
				}
			],
			"stateMutability": "view",
			"type": "function"
		},
		{
			"inputs": [
				{
					"internalType": "uint256",
					"name": "tokenId",
					"type": "uint256"
				}
			],
			"name": "getApproved",
			"outputs": [
				{
					"internalType": "address",
					"name": "",
					"type": "address"
				}
			],
			"stateMutability": "view",
			"type": "function"
		},
		{
			"inputs": [],
			"name": "getBalance",
			"outputs": [
				{
					"internalType": "uint256",
					"name": "",
					"type": "uint256"
				}
			],
			"stateMutability": "view",
			"type": "function"
		},
		{
			"inputs": [
				{
					"internalType": "uint256",
					"name": "_tokenId",
					"type": "uint256"
				}
			],
			"name": "getJolamanTokenType",
			"outputs": [
				{
					"internalType": "uint256",
					"name": "",
					"type": "uint256"
				}
			],
			"stateMutability": "view",
			"type": "function"
		},
		{
			"inputs": [
				{
					"internalType": "bytes32",
					"name": "role",
					"type": "bytes32"
				}
			],
			"name": "getRoleAdmin",
			"outputs": [
				{
					"internalType": "bytes32",
					"name": "",
					"type": "bytes32"
				}
			],
			"stateMutability": "view",
			"type": "function"
		},
		{
			"inputs": [
				{
					"internalType": "bytes32",
					"name": "role",
					"type": "bytes32"
				},
				{
					"internalType": "address",
					"name": "account",
					"type": "address"
				}
			],
			"name": "grantRole",
			"outputs": [],
			"stateMutability": "nonpayable",
			"type": "function"
		},
		{
			"inputs": [
				{
					"internalType": "bytes32",
					"name": "role",
					"type": "bytes32"
				},
				{
					"internalType": "address",
					"name": "account",
					"type": "address"
				}
			],
			"name": "hasRole",
			"outputs": [
				{
					"internalType": "bool",
					"name": "",
					"type": "bool"
				}
			],
			"stateMutability": "view",
			"type": "function"
		},
		{
			"inputs": [
				{
					"internalType": "address",
					"name": "owner",
					"type": "address"
				},
				{
					"internalType": "address",
					"name": "operator",
					"type": "address"
				}
			],
			"name": "isApprovedForAll",
			"outputs": [
				{
					"internalType": "bool",
					"name": "",
					"type": "bool"
				}
			],
			"stateMutability": "view",
			"type": "function"
		},
		{
			"inputs": [
				{
					"internalType": "address",
					"name": "",
					"type": "address"
				}
			],
			"name": "isWhiteList",
			"outputs": [
				{
					"internalType": "bool",
					"name": "",
					"type": "bool"
				}
			],
			"stateMutability": "view",
			"type": "function"
		},
		{
			"inputs": [
				{
					"internalType": "uint256",
					"name": "",
					"type": "uint256"
				}
			],
			"name": "mappedJolamanTokenData",
			"outputs": [
				{
					"internalType": "uint256",
					"name": "jolamanTokenType",
					"type": "uint256"
				}
			],
			"stateMutability": "view",
			"type": "function"
		},
		{
			"inputs": [],
			"name": "metadataURI",
			"outputs": [
				{
					"internalType": "string",
					"name": "",
					"type": "string"
				}
			],
			"stateMutability": "view",
			"type": "function"
		},
		{
			"inputs": [],
			"name": "mintingPrice",
			"outputs": [
				{
					"internalType": "uint64",
					"name": "",
					"type": "uint64"
				}
			],
			"stateMutability": "view",
			"type": "function"
		},
		{
			"inputs": [],
			"name": "name",
			"outputs": [
				{
					"internalType": "string",
					"name": "",
					"type": "string"
				}
			],
			"stateMutability": "view",
			"type": "function"
		},
		{
			"inputs": [],
			"name": "owner",
			"outputs": [
				{
					"internalType": "address",
					"name": "",
					"type": "address"
				}
			],
			"stateMutability": "view",
			"type": "function"
		},
		{
			"inputs": [
				{
					"internalType": "uint256",
					"name": "tokenId",
					"type": "uint256"
				}
			],
			"name": "ownerOf",
			"outputs": [
				{
					"internalType": "address",
					"name": "",
					"type": "address"
				}
			],
			"stateMutability": "view",
			"type": "function"
		},
		{
			"inputs": [],
			"name": "payandMint",
			"outputs": [],
			"stateMutability": "payable",
			"type": "function"
		},
		{
			"inputs": [],
			"name": "payment",
			"outputs": [
				{
					"internalType": "bool",
					"name": "",
					"type": "bool"
				}
			],
			"stateMutability": "payable",
			"type": "function"
		},
		{
			"inputs": [],
			"name": "renounceOwnership",
			"outputs": [],
			"stateMutability": "nonpayable",
			"type": "function"
		},
		{
			"inputs": [
				{
					"internalType": "bytes32",
					"name": "role",
					"type": "bytes32"
				},
				{
					"internalType": "address",
					"name": "account",
					"type": "address"
				}
			],
			"name": "renounceRole",
			"outputs": [],
			"stateMutability": "nonpayable",
			"type": "function"
		},
		{
			"inputs": [
				{
					"internalType": "bytes32",
					"name": "role",
					"type": "bytes32"
				},
				{
					"internalType": "address",
					"name": "account",
					"type": "address"
				}
			],
			"name": "revokeRole",
			"outputs": [],
			"stateMutability": "nonpayable",
			"type": "function"
		},
		{
			"inputs": [
				{
					"internalType": "address",
					"name": "to",
					"type": "address"
				}
			],
			"name": "safeMint",
			"outputs": [],
			"stateMutability": "payable",
			"type": "function"
		},
		{
			"inputs": [
				{
					"internalType": "address",
					"name": "from",
					"type": "address"
				},
				{
					"internalType": "address",
					"name": "to",
					"type": "address"
				},
				{
					"internalType": "uint256",
					"name": "tokenId",
					"type": "uint256"
				}
			],
			"name": "safeTransferFrom",
			"outputs": [],
			"stateMutability": "nonpayable",
			"type": "function"
		},
		{
			"inputs": [
				{
					"internalType": "address",
					"name": "from",
					"type": "address"
				},
				{
					"internalType": "address",
					"name": "to",
					"type": "address"
				},
				{
					"internalType": "uint256",
					"name": "tokenId",
					"type": "uint256"
				},
				{
					"internalType": "bytes",
					"name": "_data",
					"type": "bytes"
				}
			],
			"name": "safeTransferFrom",
			"outputs": [],
			"stateMutability": "nonpayable",
			"type": "function"
		},
		{
			"inputs": [
				{
					"internalType": "address",
					"name": "operator",
					"type": "address"
				},
				{
					"internalType": "bool",
					"name": "approved",
					"type": "bool"
				}
			],
			"name": "setApprovalForAll",
			"outputs": [],
			"stateMutability": "nonpayable",
			"type": "function"
		},
		{
			"inputs": [
				{
					"internalType": "uint64",
					"name": "_price",
					"type": "uint64"
				}
			],
			"name": "setMintingPrice",
			"outputs": [],
			"stateMutability": "nonpayable",
			"type": "function"
		},
		{
			"inputs": [
				{
					"internalType": "bytes4",
					"name": "interfaceId",
					"type": "bytes4"
				}
			],
			"name": "supportsInterface",
			"outputs": [
				{
					"internalType": "bool",
					"name": "",
					"type": "bool"
				}
			],
			"stateMutability": "view",
			"type": "function"
		},
		{
			"inputs": [],
			"name": "symbol",
			"outputs": [
				{
					"internalType": "string",
					"name": "",
					"type": "string"
				}
			],
			"stateMutability": "view",
			"type": "function"
		},
		{
			"inputs": [
				{
					"internalType": "uint256",
					"name": "index",
					"type": "uint256"
				}
			],
			"name": "tokenByIndex",
			"outputs": [
				{
					"internalType": "uint256",
					"name": "",
					"type": "uint256"
				}
			],
			"stateMutability": "view",
			"type": "function"
		},
		{
			"inputs": [
				{
					"internalType": "address",
					"name": "owner",
					"type": "address"
				},
				{
					"internalType": "uint256",
					"name": "index",
					"type": "uint256"
				}
			],
			"name": "tokenOfOwnerByIndex",
			"outputs": [
				{
					"internalType": "uint256",
					"name": "",
					"type": "uint256"
				}
			],
			"stateMutability": "view",
			"type": "function"
		},
		{
			"inputs": [
				{
					"internalType": "uint256",
					"name": "_tokenId",
					"type": "uint256"
				}
			],
			"name": "tokenURI",
			"outputs": [
				{
					"internalType": "string",
					"name": "",
					"type": "string"
				}
			],
			"stateMutability": "view",
			"type": "function"
		},
		{
			"inputs": [],
			"name": "totalSupply",
			"outputs": [
				{
					"internalType": "uint256",
					"name": "",
					"type": "uint256"
				}
			],
			"stateMutability": "view",
			"type": "function"
		},
		{
			"inputs": [
				{
					"internalType": "address",
					"name": "from",
					"type": "address"
				},
				{
					"internalType": "address",
					"name": "to",
					"type": "address"
				},
				{
					"internalType": "uint256",
					"name": "tokenId",
					"type": "uint256"
				}
			],
			"name": "transferFrom",
			"outputs": [],
			"stateMutability": "nonpayable",
			"type": "function"
		},
		{
			"inputs": [
				{
					"internalType": "address",
					"name": "newOwner",
					"type": "address"
				}
			],
			"name": "transferOwnership",
			"outputs": [],
			"stateMutability": "nonpayable",
			"type": "function"
		}
	]
}