{
	"data": {
		"bytecode": {
			"linkReferences": {},
			"object": "6080604052671bc16d674ec8000061040c60006101000a81548167ffffffffffffffff021916908367ffffffffffffffff1602179055503480156200004357600080fd5b50604051620066c7380380620066c7833981810160405281019062000069919062000516565b6040518060400160405280600781526020017f4a6f6c616d616e000000000000000000000000000000000000000000000000008152506040518060400160405280600381526020017f4a4c5400000000000000000000000000000000000000000000000000000000008152508160009080519060200190620000ed929190620003e8565b50806001908051906020019062000106929190620003e8565b505050620001296200011d620001bd60201b60201c565b620001c560201b60201c565b3361040e60006101000a81548173ffffffffffffffffffffffffffffffffffffffff021916908373ffffffffffffffffffffffffffffffffffffffff1602179055508061040f908051906020019062000184929190620003e8565b50600061040d81905550600061040a8190555061271061040b81905550620001b66000801b336200028b60201b60201c565b50620006eb565b600033905090565b6000600a60009054906101000a900473ffffffffffffffffffffffffffffffffffffffff16905081600a60006101000a81548173ffffffffffffffffffffffffffffffffffffffff021916908373ffffffffffffffffffffffffffffffffffffffff1602179055508173ffffffffffffffffffffffffffffffffffffffff168173ffffffffffffffffffffffffffffffffffffffff167f8be0079c531659141344cd1fd0a4f28419497f9722a3daafe3b4186f6b6457e060405160405180910390a35050565b6200029d82826200037d60201b60201c565b62000379576001600b600084815260200190815260200160002060000160008373ffffffffffffffffffffffffffffffffffffffff1673ffffffffffffffffffffffffffffffffffffffff16815260200190815260200160002060006101000a81548160ff0219169083151502179055506200031e620001bd60201b60201c565b73ffffffffffffffffffffffffffffffffffffffff168173ffffffffffffffffffffffffffffffffffffffff16837f2f8788117e7eff1d82e926ec794901d17c78024a50270940304540a733656f0d60405160405180910390a45b5050565b6000600b600084815260200190815260200160002060000160008373ffffffffffffffffffffffffffffffffffffffff1673ffffffffffffffffffffffffffffffffffffffff16815260200190815260200160002060009054906101000a900460ff16905092915050565b828054620003f690620005fc565b90600052602060002090601f0160209004810192826200041a576000855562000466565b82601f106200043557805160ff191683800117855562000466565b8280016001018555821562000466579182015b828111156200046557825182559160200191906001019062000448565b5b50905062000475919062000479565b5090565b5b80821115620004945760008160009055506001016200047a565b5090565b6000620004af620004a98462000590565b62000567565b905082815260208101848484011115620004ce57620004cd620006cb565b5b620004db848285620005c6565b509392505050565b600082601f830112620004fb57620004fa620006c6565b5b81516200050d84826020860162000498565b91505092915050565b6000602082840312156200052f576200052e620006d5565b5b600082015167ffffffffffffffff81111562000550576200054f620006d0565b5b6200055e84828501620004e3565b91505092915050565b60006200057362000586565b905062000581828262000632565b919050565b6000604051905090565b600067ffffffffffffffff821115620005ae57620005ad62000697565b5b620005b982620006da565b9050602081019050919050565b60005b83811015620005e6578082015181840152602081019050620005c9565b83811115620005f6576000848401525b50505050565b600060028204905060018216806200061557607f821691505b602082108114156200062c576200062b62000668565b5b50919050565b6200063d82620006da565b810181811067ffffffffffffffff821117156200065f576200065e62000697565b5b80604052505050565b7f4e487b7100000000000000000000000000000000000000000000000000000000600052602260045260246000fd5b7f4e487b7100000000000000000000000000000000000000000000000000000000600052604160045260246000fd5b600080fd5b600080fd5b600080fd5b600080fd5b6000601f19601f8301169050919050565b615fcc80620006fb6000396000f3fe60806040526004361061036b5760003560e01c80636352211e116101c6578063b88d4fde116100f7578063e8f7802611610095578063eecf20331161006f578063eecf203314610d23578063f2fde38b14610d4e578063f99031a714610d77578063fe43e1f014610db45761036b565b8063e8f7802614610c7e578063e985e9c514610cbb578063ed14d64014610cf85761036b565b8063d5391393116100d1578063d539139314610bc4578063d547741f14610bef578063d54f62b014610c18578063e7cd4a0414610c555761036b565b8063b88d4fde14610b42578063c1514d9214610b6b578063c87b56dd14610b875761036b565b806390e41b6e11610164578063a217fddf1161013e578063a217fddf14610a98578063a22cb46514610ac3578063b2bdfa7b14610aec578063b6612d7614610b175761036b565b806390e41b6e146109f357806391d1485414610a3057806395d89b4114610a6d5761036b565b8063715018a6116101a0578063715018a61461097c57806373ff361b1461099357806374e3447a1461099d5780638da5cb5b146109c85761036b565b80636352211e146108d757806370446bbe1461091457806370a082311461093f5761036b565b80632f08480d116102a057806340d097c31161023e57806345149f8d1161021857806345149f8d146108285780634707a389146108655780634f6ccce71461089057806362c9fe06146108cd5761036b565b806340d097c3146107c557806342842e0e146107e157806342f6487a1461080a5761036b565b806335db70b51161027a57806335db70b5146106f757806336568abe14610722578063378741271461074b5780633e334cf0146107885761036b565b80632f08480d146106545780632f2ff15d146106915780632f745c59146106ba5761036b565b806314ace8961161030d5780631d578013116102e75780631d578013146105885780632042e5c2146105c557806323b872dd146105ee578063248a9ca3146106175761036b565b806314ace896146104e357806318160ddd146105205780631caaa4871461054b5761036b565b8063081812fc11610349578063081812fc14610403578063095ea7b3146104405780630c401d7e146104695780630d4cc788146104a65761036b565b806301ffc9a71461037057806303ee438c146103ad57806306fdde03146103d8575b600080fd5b34801561037c57600080fd5b506103976004803603810190610392919061466f565b610df1565b6040516103a49190614f0a565b60405180910390f35b3480156103b957600080fd5b506103c2610e03565b6040516103cf9190614f40565b60405180910390f35b3480156103e457600080fd5b506103ed610e92565b6040516103fa9190614f40565b60405180910390f35b34801561040f57600080fd5b5061042a600480360381019061042591906146c9565b610f24565b6040516104379190614e81565b60405180910390f35b34801561044c57600080fd5b50610467600480360381019061046291906145c2565b610fa9565b005b34801561047557600080fd5b50610490600480360381019061048b91906146c9565b6110c1565b60405161049d9190614f0a565b60405180910390f35b3480156104b257600080fd5b506104cd60048036038101906104c891906146c9565b6110e2565b6040516104da9190614ee8565b60405180910390f35b3480156104ef57600080fd5b5061050a600480360381019061050591906146c9565b61114e565b6040516105179190614e81565b60405180910390f35b34801561052c57600080fd5b5061053561118c565b60405161054291906152a2565b60405180910390f35b34801561055757600080fd5b50610572600480360381019061056d91906146c9565b611199565b60405161057f9190614e81565b60405180910390f35b34801561059457600080fd5b506105af60048036038101906105aa91906146c9565b6111cd565b6040516105bc91906152a2565b60405180910390f35b3480156105d157600080fd5b506105ec60048036038101906105e7919061443f565b6111e6565b005b3480156105fa57600080fd5b50610615600480360381019061061091906144ac565b6112e8565b005b34801561062357600080fd5b5061063e60048036038101906106399190614602565b611348565b60405161064b9190614f25565b60405180910390f35b34801561066057600080fd5b5061067b600480360381019061067691906145c2565b611368565b60405161068891906152a2565b60405180910390f35b34801561069d57600080fd5b506106b860048036038101906106b3919061462f565b61139a565b005b3480156106c657600080fd5b506106e160048036038101906106dc91906145c2565b6113bb565b6040516106ee91906152a2565b60405180910390f35b34801561070357600080fd5b5061070c611460565b60405161071991906152bd565b60405180910390f35b34801561072e57600080fd5b506107496004803603810190610744919061462f565b61147b565b005b34801561075757600080fd5b50610772600480360381019061076d91906146c9565b6114fe565b60405161077f91906152a2565b60405180910390f35b34801561079457600080fd5b506107af60048036038101906107aa91906146c9565b61151d565b6040516107bc91906152a2565b60405180910390f35b6107df60048036038101906107da919061443f565b61153e565b005b3480156107ed57600080fd5b50610808600480360381019061080391906144ac565b6118c5565b005b6108126118e5565b60405161081f9190614f0a565b60405180910390f35b34801561083457600080fd5b5061084f600480360381019061084a91906146c9565b611ac2565b60405161085c91906152a2565b60405180910390f35b34801561087157600080fd5b5061087a611ae0565b60405161088791906152a2565b60405180910390f35b34801561089c57600080fd5b506108b760048036038101906108b291906146c9565b611ae6565b6040516108c491906152a2565b60405180910390f35b6108d5611b57565b005b3480156108e357600080fd5b506108fe60048036038101906108f991906146c9565b611b70565b60405161090b9190614e81565b60405180910390f35b34801561092057600080fd5b50610929611c22565b60405161093691906152a2565b60405180910390f35b34801561094b57600080fd5b506109666004803603810190610961919061443f565b611c28565b60405161097391906152a2565b60405180910390f35b34801561098857600080fd5b50610991611ce0565b005b61099b611d68565b005b3480156109a957600080fd5b506109b2611dab565b6040516109bf9190614f25565b60405180910390f35b3480156109d457600080fd5b506109dd611dcf565b6040516109ea9190614e81565b60405180910390f35b3480156109ff57600080fd5b50610a1a6004803603810190610a15919061443f565b611df9565b604051610a279190614ee8565b60405180910390f35b348015610a3c57600080fd5b50610a576004803603810190610a52919061462f565b611e91565b604051610a649190614f0a565b60405180910390f35b348015610a7957600080fd5b50610a82611efc565b604051610a8f9190614f40565b60405180910390f35b348015610aa457600080fd5b50610aad611f8e565b604051610aba9190614f25565b60405180910390f35b348015610acf57600080fd5b50610aea6004803603810190610ae59190614582565b611f95565b005b348015610af857600080fd5b50610b01611fab565b604051610b0e9190614e81565b60405180910390f35b348015610b2357600080fd5b50610b2c611fd2565b604051610b3991906152a2565b60405180910390f35b348015610b4e57600080fd5b50610b696004803603810190610b6491906144ff565b611fd9565b005b610b856004803603810190610b80919061443f565b61203b565b005b348015610b9357600080fd5b50610bae6004803603810190610ba991906146c9565b612420565b604051610bbb9190614f40565b60405180910390f35b348015610bd057600080fd5b50610bd9612472565b604051610be69190614f25565b60405180910390f35b348015610bfb57600080fd5b50610c166004803603810190610c11919061462f565b612496565b005b348015610c2457600080fd5b50610c3f6004803603810190610c3a91906146f6565b6124b7565b604051610c4c91906152a2565b60405180910390f35b348015610c6157600080fd5b50610c7c6004803603810190610c77919061443f565b6124e9565b005b348015610c8a57600080fd5b50610ca56004803603810190610ca091906146c9565b6125eb565b604051610cb291906152a2565b60405180910390f35b348015610cc757600080fd5b50610ce26004803603810190610cdd919061446c565b612610565b604051610cef9190614f0a565b60405180910390f35b348015610d0457600080fd5b50610d0d6126a4565b604051610d1a91906152a2565b60405180910390f35b348015610d2f57600080fd5b50610d386126dd565b604051610d4591906152a2565b60405180910390f35b348015610d5a57600080fd5b50610d756004803603810190610d70919061443f565b6126e4565b005b348015610d8357600080fd5b50610d9e6004803603810190610d99919061443f565b6127dc565b604051610dab9190614f0a565b60405180910390f35b348015610dc057600080fd5b50610ddb6004803603810190610dd691906146c9565b6127fd565b604051610de89190614e81565b60405180910390f35b6000610dfc82612831565b9050919050565b61040f8054610e11906155dd565b80601f0160208091040260200160405190810160405280929190818152602001828054610e3d906155dd565b8015610e8a5780601f10610e5f57610100808354040283529160200191610e8a565b820191906000526020600020905b815481529060010190602001808311610e6d57829003601f168201915b505050505081565b606060008054610ea1906155dd565b80601f0160208091040260200160405190810160405280929190818152602001828054610ecd906155dd565b8015610f1a5780601f10610eef57610100808354040283529160200191610f1a565b820191906000526020600020905b815481529060010190602001808311610efd57829003601f168201915b5050505050905090565b6000610f2f826128ab565b610f6e576040517f08c379a0000000000000000000000000000000000000000000000000000000008152600401610f6590615182565b60405180910390fd5b6004600083815260200190815260200160002060009054906101000a900473ffffffffffffffffffffffffffffffffffffffff169050919050565b6000610fb482611b70565b90508073ffffffffffffffffffffffffffffffffffffffff168373ffffffffffffffffffffffffffffffffffffffff161415611025576040517f08c379a000000000000000000000000000000000000000000000000000000000815260040161101c906151c2565b60405180910390fd5b8073ffffffffffffffffffffffffffffffffffffffff16611044612917565b73ffffffffffffffffffffffffffffffffffffffff16148061107357506110728161106d612917565b612610565b5b6110b2576040517f08c379a00000000000000000000000000000000000000000000000000000000081526004016110a9906150e2565b60405180910390fd5b6110bc838361291f565b505050565b6104186020528060005260406000206000915054906101000a900460ff1681565b6060610415600083815260200190815260200160002080548060200260200160405190810160405280929190818152602001828054801561114257602002820191906000526020600020905b81548152602001906001019080831161112e575b50505050509050919050565b6000610416600083815260200190815260200160002060009054906101000a900473ffffffffffffffffffffffffffffffffffffffff169050919050565b6000600880549050905090565b6104116020528060005260406000206000915054906101000a900473ffffffffffffffffffffffffffffffffffffffff1681565b6104176020528060005260406000206000915090505481565b6111ee612917565b73ffffffffffffffffffffffffffffffffffffffff1661120c611dcf565b73ffffffffffffffffffffffffffffffffffffffff1614611262576040517f08c379a0000000000000000000000000000000000000000000000000000000008152600401611259906151a2565b60405180910390fd5b600061041360008373ffffffffffffffffffffffffffffffffffffffff1673ffffffffffffffffffffffffffffffffffffffff16815260200190815260200160002060006101000a81548160ff0219169083151502179055506112e57fb696df569c2dfecb5a24edfd39d7f55b0f442be14350cbc68dbe8eb35489d3a6826129d8565b50565b6112f96112f3612917565b82612aba565b611338576040517f08c379a000000000000000000000000000000000000000000000000000000000815260040161132f906151e2565b60405180910390fd5b611343838383612b98565b505050565b6000600b6000838152602001908152602001600020600101549050919050565b610412602052816000526040600020818154811061138557600080fd5b90600052602060002001600091509150505481565b6113a382611348565b6113ac81612dff565b6113b68383612e13565b505050565b60006113c683611c28565b8210611407576040517f08c379a00000000000000000000000000000000000000000000000000000000081526004016113fe90614f82565b60405180910390fd5b600660008473ffffffffffffffffffffffffffffffffffffffff1673ffffffffffffffffffffffffffffffffffffffff168152602001908152602001600020600083815260200190815260200160002054905092915050565b61040c60009054906101000a900467ffffffffffffffff1681565b611483612917565b73ffffffffffffffffffffffffffffffffffffffff168173ffffffffffffffffffffffffffffffffffffffff16146114f0576040517f08c379a00000000000000000000000000000000000000000000000000000000081526004016114e790615282565b60405180910390fd5b6114fa82826129d8565b5050565b6104106020528060005260406000206000915090508060000154905081565b60006104106000838152602001908152602001600020600001549050919050565b7f9f2df0fed2c77648de5860a4cc508cd0818c85b8b8a1ab4ceeef8d981c8956a661156881612dff565b61040a546103e8116115af576040517f08c379a00000000000000000000000000000000000000000000000000000000081526004016115a690615162565b60405180910390fd5b3461040c60009054906101000a900467ffffffffffffffff1667ffffffffffffffff161115611613576040517f08c379a000000000000000000000000000000000000000000000000000000000815260040161160a906150c2565b60405180910390fd5b600061040a549050611632600161040a54612ef490919063ffffffff16565b61040a819055506000611643612f0a565b9050604051806020016040528082600001518152506104106000848152602001908152602001600020600082015181600001559050506000151561041860008360000151815260200190815260200160002060009054906101000a900460ff161515146116e5576040517f08c379a00000000000000000000000000000000000000000000000000000000081526004016116dc90615262565b60405180910390fd5b600161041860008360000151815260200190815260200160002060006101000a81548160ff02191690831515021790555083610411600084815260200190815260200160002060006101000a81548173ffffffffffffffffffffffffffffffffffffffff021916908373ffffffffffffffffffffffffffffffffffffffff16021790555061041260003373ffffffffffffffffffffffffffffffffffffffff1673ffffffffffffffffffffffffffffffffffffffff16815260200190815260200160002081600001519080600181540180825580915050600190039060005260206000200160009091909190915055610414816000015190806001815401808255809150506001900390600052602060002001600090919091909150556104156000808152602001908152602001600020816000015190806001815401808255809150506001900390600052602060002001600090919091909150553361041660008360000151815260200190815260200160002060006101000a81548173ffffffffffffffffffffffffffffffffffffffff021916908373ffffffffffffffffffffffffffffffffffffffff16021790555081610417600083600001518152602001908152602001600020819055506118bf8483612f7e565b50505050565b6118e083838360405180602001604052806000815250611fd9565b505050565b6000343373ffffffffffffffffffffffffffffffffffffffff16311015611941576040517f08c379a000000000000000000000000000000000000000000000000000000000815260040161193890615242565b60405180910390fd5b3461040c60009054906101000a900467ffffffffffffffff1667ffffffffffffffff16146119a4576040517f08c379a000000000000000000000000000000000000000000000000000000000815260040161199b90615002565b60405180910390fd5b600061040e60009054906101000a900473ffffffffffffffffffffffffffffffffffffffff1673ffffffffffffffffffffffffffffffffffffffff16346040516119ed90614de4565b60006040518083038185875af1925050503d8060008114611a2a576040519150601f19603f3d011682016040523d82523d6000602084013e611a2f565b606091505b5050905080611a73576040517f08c379a0000000000000000000000000000000000000000000000000000000008152600401611a6a90615042565b60405180910390fd5b611a893461040d54612ef490919063ffffffff16565b61040d81905550611aba7f9f2df0fed2c77648de5860a4cc508cd0818c85b8b8a1ab4ceeef8d981c8956a633612e13565b600191505090565b60006104176000838152602001908152602001600020549050919050565b61272481565b6000611af061118c565b8210611b31576040517f08c379a0000000000000000000000000000000000000000000000000000000008152600401611b2890615222565b60405180910390fd5b60088281548110611b4557611b446157ae565b5b90600052602060002001549050919050565b611b5f6118e5565b15611b6e57611b6d3361203b565b5b565b6000806002600084815260200190815260200160002060009054906101000a900473ffffffffffffffffffffffffffffffffffffffff169050600073ffffffffffffffffffffffffffffffffffffffff168173ffffffffffffffffffffffffffffffffffffffff161415611c19576040517f08c379a0000000000000000000000000000000000000000000000000000000008152600401611c1090615122565b60405180910390fd5b80915050919050565b6103e881565b60008073ffffffffffffffffffffffffffffffffffffffff168273ffffffffffffffffffffffffffffffffffffffff161415611c99576040517f08c379a0000000000000000000000000000000000000000000000000000000008152600401611c9090615102565b60405180910390fd5b600360008373ffffffffffffffffffffffffffffffffffffffff1673ffffffffffffffffffffffffffffffffffffffff168152602001908152602001600020549050919050565b611ce8612917565b73ffffffffffffffffffffffffffffffffffffffff16611d06611dcf565b73ffffffffffffffffffffffffffffffffffffffff1614611d5c576040517f08c379a0000000000000000000000000000000000000000000000000000000008152600401611d53906151a2565b60405180910390fd5b611d666000613158565b565b611d706118e5565b15611da957611d7e3361153e565b611da87f9f2df0fed2c77648de5860a4cc508cd0818c85b8b8a1ab4ceeef8d981c8956a63361147b565b5b565b7fb696df569c2dfecb5a24edfd39d7f55b0f442be14350cbc68dbe8eb35489d3a681565b6000600a60009054906101000a900473ffffffffffffffffffffffffffffffffffffffff16905090565b606061041260008373ffffffffffffffffffffffffffffffffffffffff1673ffffffffffffffffffffffffffffffffffffffff168152602001908152602001600020805480602002602001604051908101604052809291908181526020018280548015611e8557602002820191906000526020600020905b815481526020019060010190808311611e71575b50505050509050919050565b6000600b600084815260200190815260200160002060000160008373ffffffffffffffffffffffffffffffffffffffff1673ffffffffffffffffffffffffffffffffffffffff16815260200190815260200160002060009054906101000a900460ff16905092915050565b606060018054611f0b906155dd565b80601f0160208091040260200160405190810160405280929190818152602001828054611f37906155dd565b8015611f845780601f10611f5957610100808354040283529160200191611f84565b820191906000526020600020905b815481529060010190602001808311611f6757829003601f168201915b5050505050905090565b6000801b81565b611fa7611fa0612917565b838361321e565b5050565b61040e60009054906101000a900473ffffffffffffffffffffffffffffffffffffffff1681565b61040b5481565b611fea611fe4612917565b83612aba565b612029576040517f08c379a0000000000000000000000000000000000000000000000000000000008152600401612020906151e2565b60405180910390fd5b6120358484848461338b565b50505050565b7fb696df569c2dfecb5a24edfd39d7f55b0f442be14350cbc68dbe8eb35489d3a661206581612dff565b6001151561041360003373ffffffffffffffffffffffffffffffffffffffff1673ffffffffffffffffffffffffffffffffffffffff16815260200190815260200160002060009054906101000a900460ff161515146120c357600080fd5b61040b546127241161210a576040517f08c379a000000000000000000000000000000000000000000000000000000000815260040161210190615162565b60405180910390fd5b3461040c60009054906101000a900467ffffffffffffffff1667ffffffffffffffff16111561216e576040517f08c379a0000000000000000000000000000000000000000000000000000000008152600401612165906150c2565b60405180910390fd5b600061040b54905061218d600161040b54612ef490919063ffffffff16565b61040b81905550600061219e6133e7565b9050604051806020016040528082600001518152506104106000848152602001908152602001600020600082015181600001559050506000151561041860008360000151815260200190815260200160002060009054906101000a900460ff16151514612240576040517f08c379a000000000000000000000000000000000000000000000000000000000815260040161223790615262565b60405180910390fd5b600161041860008360000151815260200190815260200160002060006101000a81548160ff02191690831515021790555083610411600084815260200190815260200160002060006101000a81548173ffffffffffffffffffffffffffffffffffffffff021916908373ffffffffffffffffffffffffffffffffffffffff16021790555061041260003373ffffffffffffffffffffffffffffffffffffffff1673ffffffffffffffffffffffffffffffffffffffff16815260200190815260200160002081600001519080600181540180825580915050600190039060005260206000200160009091909190915055610415600080815260200190815260200160002081600001519080600181540180825580915050600190039060005260206000200160009091909190915055610414816000015190806001815401808255809150506001900390600052602060002001600090919091909150553361041660008360000151815260200190815260200160002060006101000a81548173ffffffffffffffffffffffffffffffffffffffff021916908373ffffffffffffffffffffffffffffffffffffffff160217905550816104176000836000015181526020019081526020016000208190555061241a8483612f7e565b50505050565b6060600061244461041060008581526020019081526020016000206000015461345b565b905061040f8160405160200161245b929190614daa565b604051602081830303815290604052915050919050565b7f9f2df0fed2c77648de5860a4cc508cd0818c85b8b8a1ab4ceeef8d981c8956a681565b61249f82611348565b6124a881612dff565b6124b283836129d8565b505050565b61041560205281600052604060002081815481106124d457600080fd5b90600052602060002001600091509150505481565b6124f1612917565b73ffffffffffffffffffffffffffffffffffffffff1661250f611dcf565b73ffffffffffffffffffffffffffffffffffffffff1614612565576040517f08c379a000000000000000000000000000000000000000000000000000000000815260040161255c906151a2565b60405180910390fd5b600161041360008373ffffffffffffffffffffffffffffffffffffffff1673ffffffffffffffffffffffffffffffffffffffff16815260200190815260200160002060006101000a81548160ff0219169083151502179055506125e87fb696df569c2dfecb5a24edfd39d7f55b0f442be14350cbc68dbe8eb35489d3a682612e13565b50565b61041481815481106125fc57600080fd5b906000526020600020016000915090505481565b6000600560008473ffffffffffffffffffffffffffffffffffffffff1673ffffffffffffffffffffffffffffffffffffffff16815260200190815260200160002060008373ffffffffffffffffffffffffffffffffffffffff1673ffffffffffffffffffffffffffffffffffffffff16815260200190815260200160002060009054906101000a900460ff16905092915050565b60006104146001610414805490506126bc91906154ab565b815481106126cd576126cc6157ae565b5b9060005260206000200154905090565b61040a5481565b6126ec612917565b73ffffffffffffffffffffffffffffffffffffffff1661270a611dcf565b73ffffffffffffffffffffffffffffffffffffffff1614612760576040517f08c379a0000000000000000000000000000000000000000000000000000000008152600401612757906151a2565b60405180910390fd5b600073ffffffffffffffffffffffffffffffffffffffff168173ffffffffffffffffffffffffffffffffffffffff1614156127d0576040517f08c379a00000000000000000000000000000000000000000000000000000000081526004016127c790614fc2565b60405180910390fd5b6127d981613158565b50565b6104136020528060005260406000206000915054906101000a900460ff1681565b6104166020528060005260406000206000915054906101000a900473ffffffffffffffffffffffffffffffffffffffff1681565b60007f7965db0b000000000000000000000000000000000000000000000000000000007bffffffffffffffffffffffffffffffffffffffffffffffffffffffff1916827bffffffffffffffffffffffffffffffffffffffffffffffffffffffff191614806128a457506128a3826135bc565b5b9050919050565b60008073ffffffffffffffffffffffffffffffffffffffff166002600084815260200190815260200160002060009054906101000a900473ffffffffffffffffffffffffffffffffffffffff1673ffffffffffffffffffffffffffffffffffffffff1614159050919050565b600033905090565b816004600083815260200190815260200160002060006101000a81548173ffffffffffffffffffffffffffffffffffffffff021916908373ffffffffffffffffffffffffffffffffffffffff160217905550808273ffffffffffffffffffffffffffffffffffffffff1661299283611b70565b73ffffffffffffffffffffffffffffffffffffffff167f8c5be1e5ebec7d5bd14f71427d1e84f3dd0314c0f7b2291e5b200ac8c7c3b92560405160405180910390a45050565b6129e28282611e91565b15612ab6576000600b600084815260200190815260200160002060000160008373ffffffffffffffffffffffffffffffffffffffff1673ffffffffffffffffffffffffffffffffffffffff16815260200190815260200160002060006101000a81548160ff021916908315150217905550612a5b612917565b73ffffffffffffffffffffffffffffffffffffffff168173ffffffffffffffffffffffffffffffffffffffff16837ff6391f5c32d9c69d2a47ea670b442974b53935d1edc7fd64eb21e047a839171b60405160405180910390a45b5050565b6000612ac5826128ab565b612b04576040517f08c379a0000000000000000000000000000000000000000000000000000000008152600401612afb906150a2565b60405180910390fd5b6000612b0f83611b70565b90508073ffffffffffffffffffffffffffffffffffffffff168473ffffffffffffffffffffffffffffffffffffffff161480612b515750612b508185612610565b5b80612b8f57508373ffffffffffffffffffffffffffffffffffffffff16612b7784610f24565b73ffffffffffffffffffffffffffffffffffffffff16145b91505092915050565b8273ffffffffffffffffffffffffffffffffffffffff16612bb882611b70565b73ffffffffffffffffffffffffffffffffffffffff1614612c0e576040517f08c379a0000000000000000000000000000000000000000000000000000000008152600401612c0590614fe2565b60405180910390fd5b600073ffffffffffffffffffffffffffffffffffffffff168273ffffffffffffffffffffffffffffffffffffffff161415612c7e576040517f08c379a0000000000000000000000000000000000000000000000000000000008152600401612c7590615062565b60405180910390fd5b612c89838383613636565b612c9460008261291f565b6001600360008573ffffffffffffffffffffffffffffffffffffffff1673ffffffffffffffffffffffffffffffffffffffff1681526020019081526020016000206000828254612ce491906154ab565b925050819055506001600360008473ffffffffffffffffffffffffffffffffffffffff1673ffffffffffffffffffffffffffffffffffffffff1681526020019081526020016000206000828254612d3b91906153ca565b92505081905550816002600083815260200190815260200160002060006101000a81548173ffffffffffffffffffffffffffffffffffffffff021916908373ffffffffffffffffffffffffffffffffffffffff160217905550808273ffffffffffffffffffffffffffffffffffffffff168473ffffffffffffffffffffffffffffffffffffffff167fddf252ad1be2c89b69c2b068fc378daa952ba7f163c4a11628f55a4df523b3ef60405160405180910390a4612dfa83838361374a565b505050565b612e1081612e0b612917565b61374f565b50565b612e1d8282611e91565b612ef0576001600b600084815260200190815260200160002060000160008373ffffffffffffffffffffffffffffffffffffffff1673ffffffffffffffffffffffffffffffffffffffff16815260200190815260200160002060006101000a81548160ff021916908315150217905550612e95612917565b73ffffffffffffffffffffffffffffffffffffffff168173ffffffffffffffffffffffffffffffffffffffff16837f2f8788117e7eff1d82e926ec794901d17c78024a50270940304540a733656f0d60405160405180910390a45b5050565b60008183612f0291906153ca565b905092915050565b612f1261433e565b612f1a61433e565b6000610408543342600143612f2f91906154ab565b40604051602001612f439493929190614e33565b6040516020818303038152906040528051906020012060001c90506000612f69826137ec565b90508083600001818152505082935050505090565b600073ffffffffffffffffffffffffffffffffffffffff168273ffffffffffffffffffffffffffffffffffffffff161415612fee576040517f08c379a0000000000000000000000000000000000000000000000000000000008152600401612fe590615142565b60405180910390fd5b612ff7816128ab565b15613037576040517f08c379a000000000000000000000000000000000000000000000000000000000815260040161302e90615022565b60405180910390fd5b61304360008383613636565b6001600360008473ffffffffffffffffffffffffffffffffffffffff1673ffffffffffffffffffffffffffffffffffffffff168152602001908152602001600020600082825461309391906153ca565b92505081905550816002600083815260200190815260200160002060006101000a81548173ffffffffffffffffffffffffffffffffffffffff021916908373ffffffffffffffffffffffffffffffffffffffff160217905550808273ffffffffffffffffffffffffffffffffffffffff16600073ffffffffffffffffffffffffffffffffffffffff167fddf252ad1be2c89b69c2b068fc378daa952ba7f163c4a11628f55a4df523b3ef60405160405180910390a46131546000838361374a565b5050565b6000600a60009054906101000a900473ffffffffffffffffffffffffffffffffffffffff16905081600a60006101000a81548173ffffffffffffffffffffffffffffffffffffffff021916908373ffffffffffffffffffffffffffffffffffffffff1602179055508173ffffffffffffffffffffffffffffffffffffffff168173ffffffffffffffffffffffffffffffffffffffff167f8be0079c531659141344cd1fd0a4f28419497f9722a3daafe3b4186f6b6457e060405160405180910390a35050565b8173ffffffffffffffffffffffffffffffffffffffff168373ffffffffffffffffffffffffffffffffffffffff16141561328d576040517f08c379a000000000000000000000000000000000000000000000000000000000815260040161328490615082565b60405180910390fd5b80600560008573ffffffffffffffffffffffffffffffffffffffff1673ffffffffffffffffffffffffffffffffffffffff16815260200190815260200160002060008473ffffffffffffffffffffffffffffffffffffffff1673ffffffffffffffffffffffffffffffffffffffff16815260200190815260200160002060006101000a81548160ff0219169083151502179055508173ffffffffffffffffffffffffffffffffffffffff168373ffffffffffffffffffffffffffffffffffffffff167f17307eab39ab6107e8899845ad3d59bd9653f200f220920489ca2b5937696c318360405161337e9190614f0a565b60405180910390a3505050565b613396848484612b98565b6133a28484848461396e565b6133e1576040517f08c379a00000000000000000000000000000000000000000000000000000000081526004016133d890614fa2565b60405180910390fd5b50505050565b6133ef61433e565b6133f761433e565b600061040954334260014361340c91906154ab565b406040516020016134209493929190614e33565b6040516020818303038152906040528051906020012060001c9050600061344682613b05565b90508083600001818152505082935050505090565b606060008214156134a3576040518060400160405280600181526020017f300000000000000000000000000000000000000000000000000000000000000081525090506135b7565b600082905060005b600082146134d55780806134be90615640565b915050600a826134ce9190615420565b91506134ab565b60008167ffffffffffffffff8111156134f1576134f06157dd565b5b6040519080825280601f01601f1916602001820160405280156135235781602001600182028036833780820191505090505b5090505b600085146135b05760018261353c91906154ab565b9150600a8561354b91906156c1565b603061355791906153ca565b60f81b81838151811061356d5761356c6157ae565b5b60200101907effffffffffffffffffffffffffffffffffffffffffffffffffffffffffffff1916908160001a905350600a856135a99190615420565b9450613527565b8093505050505b919050565b60007f780e9d63000000000000000000000000000000000000000000000000000000007bffffffffffffffffffffffffffffffffffffffffffffffffffffffff1916827bffffffffffffffffffffffffffffffffffffffffffffffffffffffff1916148061362f575061362e82613c88565b5b9050919050565b613641838383613d6a565b600073ffffffffffffffffffffffffffffffffffffffff168373ffffffffffffffffffffffffffffffffffffffff1614156136845761367f81613d6f565b6136c3565b8173ffffffffffffffffffffffffffffffffffffffff168373ffffffffffffffffffffffffffffffffffffffff16146136c2576136c18382613db8565b5b5b600073ffffffffffffffffffffffffffffffffffffffff168273ffffffffffffffffffffffffffffffffffffffff1614156137065761370181613f25565b613745565b8273ffffffffffffffffffffffffffffffffffffffff168273ffffffffffffffffffffffffffffffffffffffff1614613744576137438282613ff6565b5b5b505050565b505050565b6137598282611e91565b6137e85761377e8173ffffffffffffffffffffffffffffffffffffffff166014614075565b61378c8360001c6020614075565b60405160200161379d929190614df9565b6040516020818303038152906040526040517f08c379a00000000000000000000000000000000000000000000000000000000081526004016137df9190614f40565b60405180910390fd5b5050565b600080610408600081548092919061380390615640565b919050556103e861381491906154ab565b905060008111613859576040517f08c379a000000000000000000000000000000000000000000000000000000000815260040161385090615202565b60405180910390fd5b6000818461386791906156c1565b9050600080600c836103e88110613881576138806157ae565b5b0154141561389b5760018261389691906153ca565b6138bf565b6001600c836103e881106138b2576138b16157ae565b5b01546138be91906153ca565b5b90506000600c6001856138d291906154ab565b6103e881106138e4576138e36157ae565b5b01541461391357600c6001846138fa91906154ab565b6103e8811061390c5761390b6157ae565b5b0154613921565b60018361392091906154ab565b5b600c836103e88110613936576139356157ae565b5b01819055506000600c60018561394c91906154ab565b6103e8811061395e5761395d6157ae565b5b0181905550809350505050919050565b600061398f8473ffffffffffffffffffffffffffffffffffffffff166142b1565b15613af8578373ffffffffffffffffffffffffffffffffffffffff1663150b7a026139b8612917565b8786866040518563ffffffff1660e01b81526004016139da9493929190614e9c565b602060405180830381600087803b1580156139f457600080fd5b505af1925050508015613a2557506040513d601f19601f82011682018060405250810190613a22919061469c565b60015b613aa8573d8060008114613a55576040519150601f19603f3d011682016040523d82523d6000602084013e613a5a565b606091505b50600081511415613aa0576040517f08c379a0000000000000000000000000000000000000000000000000000000008152600401613a9790614fa2565b60405180910390fd5b805181602001fd5b63150b7a0260e01b7bffffffffffffffffffffffffffffffffffffffffffffffffffffffff1916817bffffffffffffffffffffffffffffffffffffffffffffffffffffffff191614915050613afd565b600190505b949350505050565b6000806104096000815480929190613b1c90615640565b919050556014613b2c91906154ab565b905060008111613b71576040517f08c379a0000000000000000000000000000000000000000000000000000000008152600401613b6890615202565b60405180910390fd5b60008184613b7f91906156c1565b90506000806103f48360148110613b9957613b986157ae565b5b01541415613bb45761271082613baf91906153ca565b613bd9565b6127106103f48360148110613bcc57613bcb6157ae565b5b0154613bd891906153ca565b5b905060006103f4600185613bed91906154ab565b60148110613bfe57613bfd6157ae565b5b015414613c2d576103f4600184613c1591906154ab565b60148110613c2657613c256157ae565b5b0154613c3b565b600183613c3a91906154ab565b5b6103f48360148110613c5057613c4f6157ae565b5b018190555060006103f4600185613c6791906154ab565b60148110613c7857613c776157ae565b5b0181905550809350505050919050565b60007f80ac58cd000000000000000000000000000000000000000000000000000000007bffffffffffffffffffffffffffffffffffffffffffffffffffffffff1916827bffffffffffffffffffffffffffffffffffffffffffffffffffffffff19161480613d5357507f5b5e139f000000000000000000000000000000000000000000000000000000007bffffffffffffffffffffffffffffffffffffffffffffffffffffffff1916827bffffffffffffffffffffffffffffffffffffffffffffffffffffffff1916145b80613d635750613d62826142d4565b5b9050919050565b505050565b6008805490506009600083815260200190815260200160002081905550600881908060018154018082558091505060019003906000526020600020016000909190919091505550565b60006001613dc584611c28565b613dcf91906154ab565b9050600060076000848152602001908152602001600020549050818114613eb4576000600660008673ffffffffffffffffffffffffffffffffffffffff1673ffffffffffffffffffffffffffffffffffffffff168152602001908152602001600020600084815260200190815260200160002054905080600660008773ffffffffffffffffffffffffffffffffffffffff1673ffffffffffffffffffffffffffffffffffffffff168152602001908152602001600020600084815260200190815260200160002081905550816007600083815260200190815260200160002081905550505b6007600084815260200190815260200160002060009055600660008573ffffffffffffffffffffffffffffffffffffffff1673ffffffffffffffffffffffffffffffffffffffff16815260200190815260200160002060008381526020019081526020016000206000905550505050565b60006001600880549050613f3991906154ab565b9050600060096000848152602001908152602001600020549050600060088381548110613f6957613f686157ae565b5b906000526020600020015490508060088381548110613f8b57613f8a6157ae565b5b906000526020600020018190555081600960008381526020019081526020016000208190555060096000858152602001908152602001600020600090556008805480613fda57613fd961577f565b5b6001900381819060005260206000200160009055905550505050565b600061400183611c28565b905081600660008573ffffffffffffffffffffffffffffffffffffffff1673ffffffffffffffffffffffffffffffffffffffff168152602001908152602001600020600083815260200190815260200160002081905550806007600084815260200190815260200160002081905550505050565b6060600060028360026140889190615451565b61409291906153ca565b67ffffffffffffffff8111156140ab576140aa6157dd565b5b6040519080825280601f01601f1916602001820160405280156140dd5781602001600182028036833780820191505090505b5090507f300000000000000000000000000000000000000000000000000000000000000081600081518110614115576141146157ae565b5b60200101907effffffffffffffffffffffffffffffffffffffffffffffffffffffffffffff1916908160001a9053507f780000000000000000000000000000000000000000000000000000000000000081600181518110614179576141786157ae565b5b60200101907effffffffffffffffffffffffffffffffffffffffffffffffffffffffffffff1916908160001a905350600060018460026141b99190615451565b6141c391906153ca565b90505b6001811115614263577f3031323334353637383961626364656600000000000000000000000000000000600f861660108110614205576142046157ae565b5b1a60f81b82828151811061421c5761421b6157ae565b5b60200101907effffffffffffffffffffffffffffffffffffffffffffffffffffffffffffff1916908160001a905350600485901c94508061425c906155b3565b90506141c6565b50600084146142a7576040517f08c379a000000000000000000000000000000000000000000000000000000000815260040161429e90614f62565b60405180910390fd5b8091505092915050565b6000808273ffffffffffffffffffffffffffffffffffffffff163b119050919050565b60007f01ffc9a7000000000000000000000000000000000000000000000000000000007bffffffffffffffffffffffffffffffffffffffffffffffffffffffff1916827bffffffffffffffffffffffffffffffffffffffffffffffffffffffff1916149050919050565b6040518060200160405280600081525090565b600061436461435f846152fd565b6152d8565b9050828152602081018484840111156143805761437f615811565b5b61438b848285615571565b509392505050565b6000813590506143a281615f23565b92915050565b6000813590506143b781615f3a565b92915050565b6000813590506143cc81615f51565b92915050565b6000813590506143e181615f68565b92915050565b6000815190506143f681615f68565b92915050565b600082601f8301126144115761441061580c565b5b8135614421848260208601614351565b91505092915050565b60008135905061443981615f7f565b92915050565b6000602082840312156144555761445461581b565b5b600061446384828501614393565b91505092915050565b600080604083850312156144835761448261581b565b5b600061449185828601614393565b92505060206144a285828601614393565b9150509250929050565b6000806000606084860312156144c5576144c461581b565b5b60006144d386828701614393565b93505060206144e486828701614393565b92505060406144f58682870161442a565b9150509250925092565b600080600080608085870312156145195761451861581b565b5b600061452787828801614393565b945050602061453887828801614393565b93505060406145498782880161442a565b925050606085013567ffffffffffffffff81111561456a57614569615816565b5b614576878288016143fc565b91505092959194509250565b600080604083850312156145995761459861581b565b5b60006145a785828601614393565b92505060206145b8858286016143a8565b9150509250929050565b600080604083850312156145d9576145d861581b565b5b60006145e785828601614393565b92505060206145f88582860161442a565b9150509250929050565b6000602082840312156146185761461761581b565b5b6000614626848285016143bd565b91505092915050565b600080604083850312156146465761464561581b565b5b6000614654858286016143bd565b925050602061466585828601614393565b9150509250929050565b6000602082840312156146855761468461581b565b5b6000614693848285016143d2565b91505092915050565b6000602082840312156146b2576146b161581b565b5b60006146c0848285016143e7565b91505092915050565b6000602082840312156146df576146de61581b565b5b60006146ed8482850161442a565b91505092915050565b6000806040838503121561470d5761470c61581b565b5b600061471b8582860161442a565b925050602061472c8582860161442a565b9150509250929050565b60006147428383614d66565b60208301905092915050565b614757816154df565b82525050565b61476e614769826154df565b615689565b82525050565b600061477f82615353565b6147898185615381565b93506147948361532e565b8060005b838110156147c55781516147ac8882614736565b97506147b783615374565b925050600181019050614798565b5085935050505092915050565b6147db816154f1565b82525050565b6147ea816154fd565b82525050565b6148016147fc826154fd565b61569b565b82525050565b60006148128261535e565b61481c8185615392565b935061482c818560208601615580565b61483581615820565b840191505092915050565b600061484b82615369565b61485581856153ae565b9350614865818560208601615580565b61486e81615820565b840191505092915050565b600061488482615369565b61488e81856153bf565b935061489e818560208601615580565b80840191505092915050565b600081546148b7816155dd565b6148c181866153bf565b945060018216600081146148dc57600181146148ed57614920565b60ff19831686528186019350614920565b6148f68561533e565b60005b83811015614918578154818901526001820191506020810190506148f9565b838801955050505b50505092915050565b60006149366020836153ae565b91506149418261583e565b602082019050919050565b6000614959602b836153ae565b915061496482615867565b604082019050919050565b600061497c6032836153ae565b9150614987826158b6565b604082019050919050565b600061499f6026836153ae565b91506149aa82615905565b604082019050919050565b60006149c26025836153ae565b91506149cd82615954565b604082019050919050565b60006149e5600b836153ae565b91506149f0826159a3565b602082019050919050565b6000614a08601c836153ae565b9150614a13826159cc565b602082019050919050565b6000614a2b6014836153ae565b9150614a36826159f5565b602082019050919050565b6000614a4e6024836153ae565b9150614a5982615a1e565b604082019050919050565b6000614a716019836153ae565b9150614a7c82615a6d565b602082019050919050565b6000614a94602c836153ae565b9150614a9f82615a96565b604082019050919050565b6000614ab7600f836153ae565b9150614ac282615ae5565b602082019050919050565b6000614ada6038836153ae565b9150614ae582615b0e565b604082019050919050565b6000614afd602a836153ae565b9150614b0882615b5d565b604082019050919050565b6000614b206029836153ae565b9150614b2b82615bac565b604082019050919050565b6000614b436020836153ae565b9150614b4e82615bfb565b602082019050919050565b6000614b66601b836153ae565b9150614b7182615c24565b602082019050919050565b6000614b89602c836153ae565b9150614b9482615c4d565b604082019050919050565b6000614bac6005836153bf565b9150614bb782615c9c565b600582019050919050565b6000614bcf6020836153ae565b9150614bda82615cc5565b602082019050919050565b6000614bf26021836153ae565b9150614bfd82615cee565b604082019050919050565b6000614c156000836153a3565b9150614c2082615d3d565b600082019050919050565b6000614c386031836153ae565b9150614c4382615d40565b604082019050919050565b6000614c5b600b836153ae565b9150614c6682615d8f565b602082019050919050565b6000614c7e602c836153ae565b9150614c8982615db8565b604082019050919050565b6000614ca16017836153bf565b9150614cac82615e07565b601782019050919050565b6000614cc4600d836153ae565b9150614ccf82615e30565b602082019050919050565b6000614ce7600c836153ae565b9150614cf282615e59565b602082019050919050565b6000614d0a6011836153bf565b9150614d1582615e82565b601182019050919050565b6000614d2d602f836153ae565b9150614d3882615eab565b604082019050919050565b6000614d506001836153bf565b9150614d5b82615efa565b600182019050919050565b614d6f81615553565b82525050565b614d7e81615553565b82525050565b614d95614d9082615553565b6156b7565b82525050565b614da48161555d565b82525050565b6000614db682856148aa565b9150614dc182614d43565b9150614dcd8284614879565b9150614dd882614b9f565b91508190509392505050565b6000614def82614c08565b9150819050919050565b6000614e0482614c94565b9150614e108285614879565b9150614e1b82614cfd565b9150614e278284614879565b91508190509392505050565b6000614e3f8287614d84565b602082019150614e4f828661475d565b601482019150614e5f8285614d84565b602082019150614e6f82846147f0565b60208201915081905095945050505050565b6000602082019050614e96600083018461474e565b92915050565b6000608082019050614eb1600083018761474e565b614ebe602083018661474e565b614ecb6040830185614d75565b8181036060830152614edd8184614807565b905095945050505050565b60006020820190508181036000830152614f028184614774565b905092915050565b6000602082019050614f1f60008301846147d2565b92915050565b6000602082019050614f3a60008301846147e1565b92915050565b60006020820190508181036000830152614f5a8184614840565b905092915050565b60006020820190508181036000830152614f7b81614929565b9050919050565b60006020820190508181036000830152614f9b8161494c565b9050919050565b60006020820190508181036000830152614fbb8161496f565b9050919050565b60006020820190508181036000830152614fdb81614992565b9050919050565b60006020820190508181036000830152614ffb816149b5565b9050919050565b6000602082019050818103600083015261501b816149d8565b9050919050565b6000602082019050818103600083015261503b816149fb565b9050919050565b6000602082019050818103600083015261505b81614a1e565b9050919050565b6000602082019050818103600083015261507b81614a41565b9050919050565b6000602082019050818103600083015261509b81614a64565b9050919050565b600060208201905081810360008301526150bb81614a87565b9050919050565b600060208201905081810360008301526150db81614aaa565b9050919050565b600060208201905081810360008301526150fb81614acd565b9050919050565b6000602082019050818103600083015261511b81614af0565b9050919050565b6000602082019050818103600083015261513b81614b13565b9050919050565b6000602082019050818103600083015261515b81614b36565b9050919050565b6000602082019050818103600083015261517b81614b59565b9050919050565b6000602082019050818103600083015261519b81614b7c565b9050919050565b600060208201905081810360008301526151bb81614bc2565b9050919050565b600060208201905081810360008301526151db81614be5565b9050919050565b600060208201905081810360008301526151fb81614c2b565b9050919050565b6000602082019050818103600083015261521b81614c4e565b9050919050565b6000602082019050818103600083015261523b81614c71565b9050919050565b6000602082019050818103600083015261525b81614cb7565b9050919050565b6000602082019050818103600083015261527b81614cda565b9050919050565b6000602082019050818103600083015261529b81614d20565b9050919050565b60006020820190506152b76000830184614d75565b92915050565b60006020820190506152d26000830184614d9b565b92915050565b60006152e26152f3565b90506152ee828261560f565b919050565b6000604051905090565b600067ffffffffffffffff821115615318576153176157dd565b5b61532182615820565b9050602081019050919050565b6000819050602082019050919050565b60008190508160005260206000209050919050565b600081519050919050565b600081519050919050565b600081519050919050565b6000602082019050919050565b600082825260208201905092915050565b600082825260208201905092915050565b600081905092915050565b600082825260208201905092915050565b600081905092915050565b60006153d582615553565b91506153e083615553565b9250827fffffffffffffffffffffffffffffffffffffffffffffffffffffffffffffffff03821115615415576154146156f2565b5b828201905092915050565b600061542b82615553565b915061543683615553565b92508261544657615445615721565b5b828204905092915050565b600061545c82615553565b915061546783615553565b9250817fffffffffffffffffffffffffffffffffffffffffffffffffffffffffffffffff04831182151516156154a05761549f6156f2565b5b828202905092915050565b60006154b682615553565b91506154c183615553565b9250828210156154d4576154d36156f2565b5b828203905092915050565b60006154ea82615533565b9050919050565b60008115159050919050565b6000819050919050565b60007fffffffff0000000000000000000000000000000000000000000000000000000082169050919050565b600073ffffffffffffffffffffffffffffffffffffffff82169050919050565b6000819050919050565b600067ffffffffffffffff82169050919050565b82818337600083830152505050565b60005b8381101561559e578082015181840152602081019050615583565b838111156155ad576000848401525b50505050565b60006155be82615553565b915060008214156155d2576155d16156f2565b5b600182039050919050565b600060028204905060018216806155f557607f821691505b6020821081141561560957615608615750565b5b50919050565b61561882615820565b810181811067ffffffffffffffff82111715615637576156366157dd565b5b80604052505050565b600061564b82615553565b91507fffffffffffffffffffffffffffffffffffffffffffffffffffffffffffffffff82141561567e5761567d6156f2565b5b600182019050919050565b6000615694826156a5565b9050919050565b6000819050919050565b60006156b082615831565b9050919050565b6000819050919050565b60006156cc82615553565b91506156d783615553565b9250826156e7576156e6615721565b5b828206905092915050565b7f4e487b7100000000000000000000000000000000000000000000000000000000600052601160045260246000fd5b7f4e487b7100000000000000000000000000000000000000000000000000000000600052601260045260246000fd5b7f4e487b7100000000000000000000000000000000000000000000000000000000600052602260045260246000fd5b7f4e487b7100000000000000000000000000000000000000000000000000000000600052603160045260246000fd5b7f4e487b7100000000000000000000000000000000000000000000000000000000600052603260045260246000fd5b7f4e487b7100000000000000000000000000000000000000000000000000000000600052604160045260246000fd5b600080fd5b600080fd5b600080fd5b600080fd5b6000601f19601f8301169050919050565b60008160601b9050919050565b7f537472696e67733a20686578206c656e67746820696e73756666696369656e74600082015250565b7f455243373231456e756d657261626c653a206f776e657220696e646578206f7560008201527f74206f6620626f756e6473000000000000000000000000000000000000000000602082015250565b7f4552433732313a207472616e7366657220746f206e6f6e20455243373231526560008201527f63656976657220696d706c656d656e7465720000000000000000000000000000602082015250565b7f4f776e61626c653a206e6577206f776e657220697320746865207a65726f206160008201527f6464726573730000000000000000000000000000000000000000000000000000602082015250565b7f4552433732313a207472616e736665722066726f6d20696e636f72726563742060008201527f6f776e6572000000000000000000000000000000000000000000000000000000602082015250565b7f636865636b207072696365000000000000000000000000000000000000000000600082015250565b7f4552433732313a20746f6b656e20616c7265616479206d696e74656400000000600082015250565b7f4661696c656420746f2073656e64206d6f6e6579000000000000000000000000600082015250565b7f4552433732313a207472616e7366657220746f20746865207a65726f2061646460008201527f7265737300000000000000000000000000000000000000000000000000000000602082015250565b7f4552433732313a20617070726f766520746f2063616c6c657200000000000000600082015250565b7f4552433732313a206f70657261746f7220717565727920666f72206e6f6e657860008201527f697374656e7420746f6b656e0000000000000000000000000000000000000000602082015250565b7f4e6f7420656e6f756768206b6c61790000000000000000000000000000000000600082015250565b7f4552433732313a20617070726f76652063616c6c6572206973206e6f74206f7760008201527f6e6572206e6f7220617070726f76656420666f7220616c6c0000000000000000602082015250565b7f4552433732313a2062616c616e636520717565727920666f7220746865207a6560008201527f726f206164647265737300000000000000000000000000000000000000000000602082015250565b7f4552433732313a206f776e657220717565727920666f72206e6f6e657869737460008201527f656e7420746f6b656e0000000000000000000000000000000000000000000000602082015250565b7f4552433732313a206d696e7420746f20746865207a65726f2061646472657373600082015250565b7f4e6f206d6f7265206d696e74696e6720697320706f737369626c650000000000600082015250565b7f4552433732313a20617070726f76656420717565727920666f72206e6f6e657860008201527f697374656e7420746f6b656e0000000000000000000000000000000000000000602082015250565b7f2e6a736f6e000000000000000000000000000000000000000000000000000000600082015250565b7f4f776e61626c653a2063616c6c6572206973206e6f7420746865206f776e6572600082015250565b7f4552433732313a20617070726f76616c20746f2063757272656e74206f776e6560008201527f7200000000000000000000000000000000000000000000000000000000000000602082015250565b50565b7f4552433732313a207472616e736665722063616c6c6572206973206e6f74206f60008201527f776e6572206e6f7220617070726f766564000000000000000000000000000000602082015250565b7f6e6f20696473206c656674000000000000000000000000000000000000000000600082015250565b7f455243373231456e756d657261626c653a20676c6f62616c20696e646578206f60008201527f7574206f6620626f756e64730000000000000000000000000000000000000000602082015250565b7f416363657373436f6e74726f6c3a206163636f756e7420000000000000000000600082015250565b7f636865636b2062616c616e636500000000000000000000000000000000000000600082015250565b7f416c7265616479204d696e740000000000000000000000000000000000000000600082015250565b7f206973206d697373696e6720726f6c6520000000000000000000000000000000600082015250565b7f416363657373436f6e74726f6c3a2063616e206f6e6c792072656e6f756e636560008201527f20726f6c657320666f722073656c660000000000000000000000000000000000602082015250565b7f2f00000000000000000000000000000000000000000000000000000000000000600082015250565b615f2c816154df565b8114615f3757600080fd5b50565b615f43816154f1565b8114615f4e57600080fd5b50565b615f5a816154fd565b8114615f6557600080fd5b50565b615f7181615507565b8114615f7c57600080fd5b50565b615f8881615553565b8114615f9357600080fd5b5056fea26469706673582212202d9aff7b426d84467ff573ca86b0bf54a0319bf8c83f70a9081a52b831d8b07964736f6c63430008070033",
			"opcodes": "PUSH1 0x80 PUSH1 0x40 MSTORE PUSH8 0x1BC16D674EC80000 PUSH2 0x40C PUSH1 0x0 PUSH2 0x100 EXP DUP2 SLOAD DUP2 PUSH8 0xFFFFFFFFFFFFFFFF MUL NOT AND SWAP1 DUP4 PUSH8 0xFFFFFFFFFFFFFFFF AND MUL OR SWAP1 SSTORE POP CALLVALUE DUP1 ISZERO PUSH3 0x43 JUMPI PUSH1 0x0 DUP1 REVERT JUMPDEST POP PUSH1 0x40 MLOAD PUSH3 0x66C7 CODESIZE SUB DUP1 PUSH3 0x66C7 DUP4 CODECOPY DUP2 DUP2 ADD PUSH1 0x40 MSTORE DUP2 ADD SWAP1 PUSH3 0x69 SWAP2 SWAP1 PUSH3 0x516 JUMP JUMPDEST PUSH1 0x40 MLOAD DUP1 PUSH1 0x40 ADD PUSH1 0x40 MSTORE DUP1 PUSH1 0x7 DUP2 MSTORE PUSH1 0x20 ADD PUSH32 0x4A6F6C616D616E00000000000000000000000000000000000000000000000000 DUP2 MSTORE POP PUSH1 0x40 MLOAD DUP1 PUSH1 0x40 ADD PUSH1 0x40 MSTORE DUP1 PUSH1 0x3 DUP2 MSTORE PUSH1 0x20 ADD PUSH32 0x4A4C540000000000000000000000000000000000000000000000000000000000 DUP2 MSTORE POP DUP2 PUSH1 0x0 SWAP1 DUP1 MLOAD SWAP1 PUSH1 0x20 ADD SWAP1 PUSH3 0xED SWAP3 SWAP2 SWAP1 PUSH3 0x3E8 JUMP JUMPDEST POP DUP1 PUSH1 0x1 SWAP1 DUP1 MLOAD SWAP1 PUSH1 0x20 ADD SWAP1 PUSH3 0x106 SWAP3 SWAP2 SWAP1 PUSH3 0x3E8 JUMP JUMPDEST POP POP POP PUSH3 0x129 PUSH3 0x11D PUSH3 0x1BD PUSH1 0x20 SHL PUSH1 0x20 SHR JUMP JUMPDEST PUSH3 0x1C5 PUSH1 0x20 SHL PUSH1 0x20 SHR JUMP JUMPDEST CALLER PUSH2 0x40E PUSH1 0x0 PUSH2 0x100 EXP DUP2 SLOAD DUP2 PUSH20 0xFFFFFFFFFFFFFFFFFFFFFFFFFFFFFFFFFFFFFFFF MUL NOT AND SWAP1 DUP4 PUSH20 0xFFFFFFFFFFFFFFFFFFFFFFFFFFFFFFFFFFFFFFFF AND MUL OR SWAP1 SSTORE POP DUP1 PUSH2 0x40F SWAP1 DUP1 MLOAD SWAP1 PUSH1 0x20 ADD SWAP1 PUSH3 0x184 SWAP3 SWAP2 SWAP1 PUSH3 0x3E8 JUMP JUMPDEST POP PUSH1 0x0 PUSH2 0x40D DUP2 SWAP1 SSTORE POP PUSH1 0x0 PUSH2 0x40A DUP2 SWAP1 SSTORE POP PUSH2 0x2710 PUSH2 0x40B DUP2 SWAP1 SSTORE POP PUSH3 0x1B6 PUSH1 0x0 DUP1 SHL CALLER PUSH3 0x28B PUSH1 0x20 SHL PUSH1 0x20 SHR JUMP JUMPDEST POP PUSH3 0x6EB JUMP JUMPDEST PUSH1 0x0 CALLER SWAP1 POP SWAP1 JUMP JUMPDEST PUSH1 0x0 PUSH1 0xA PUSH1 0x0 SWAP1 SLOAD SWAP1 PUSH2 0x100 EXP SWAP1 DIV PUSH20 0xFFFFFFFFFFFFFFFFFFFFFFFFFFFFFFFFFFFFFFFF AND SWAP1 POP DUP2 PUSH1 0xA PUSH1 0x0 PUSH2 0x100 EXP DUP2 SLOAD DUP2 PUSH20 0xFFFFFFFFFFFFFFFFFFFFFFFFFFFFFFFFFFFFFFFF MUL NOT AND SWAP1 DUP4 PUSH20 0xFFFFFFFFFFFFFFFFFFFFFFFFFFFFFFFFFFFFFFFF AND MUL OR SWAP1 SSTORE POP DUP2 PUSH20 0xFFFFFFFFFFFFFFFFFFFFFFFFFFFFFFFFFFFFFFFF AND DUP2 PUSH20 0xFFFFFFFFFFFFFFFFFFFFFFFFFFFFFFFFFFFFFFFF AND PUSH32 0x8BE0079C531659141344CD1FD0A4F28419497F9722A3DAAFE3B4186F6B6457E0 PUSH1 0x40 MLOAD PUSH1 0x40 MLOAD DUP1 SWAP2 SUB SWAP1 LOG3 POP POP JUMP JUMPDEST PUSH3 0x29D DUP3 DUP3 PUSH3 0x37D PUSH1 0x20 SHL PUSH1 0x20 SHR JUMP JUMPDEST PUSH3 0x379 JUMPI PUSH1 0x1 PUSH1 0xB PUSH1 0x0 DUP5 DUP2 MSTORE PUSH1 0x20 ADD SWAP1 DUP2 MSTORE PUSH1 0x20 ADD PUSH1 0x0 KECCAK256 PUSH1 0x0 ADD PUSH1 0x0 DUP4 PUSH20 0xFFFFFFFFFFFFFFFFFFFFFFFFFFFFFFFFFFFFFFFF AND PUSH20 0xFFFFFFFFFFFFFFFFFFFFFFFFFFFFFFFFFFFFFFFF AND DUP2 MSTORE PUSH1 0x20 ADD SWAP1 DUP2 MSTORE PUSH1 0x20 ADD PUSH1 0x0 KECCAK256 PUSH1 0x0 PUSH2 0x100 EXP DUP2 SLOAD DUP2 PUSH1 0xFF MUL NOT AND SWAP1 DUP4 ISZERO ISZERO MUL OR SWAP1 SSTORE POP PUSH3 0x31E PUSH3 0x1BD PUSH1 0x20 SHL PUSH1 0x20 SHR JUMP JUMPDEST PUSH20 0xFFFFFFFFFFFFFFFFFFFFFFFFFFFFFFFFFFFFFFFF AND DUP2 PUSH20 0xFFFFFFFFFFFFFFFFFFFFFFFFFFFFFFFFFFFFFFFF AND DUP4 PUSH32 0x2F8788117E7EFF1D82E926EC794901D17C78024A50270940304540A733656F0D PUSH1 0x40 MLOAD PUSH1 0x40 MLOAD DUP1 SWAP2 SUB SWAP1 LOG4 JUMPDEST POP POP JUMP JUMPDEST PUSH1 0x0 PUSH1 0xB PUSH1 0x0 DUP5 DUP2 MSTORE PUSH1 0x20 ADD SWAP1 DUP2 MSTORE PUSH1 0x20 ADD PUSH1 0x0 KECCAK256 PUSH1 0x0 ADD PUSH1 0x0 DUP4 PUSH20 0xFFFFFFFFFFFFFFFFFFFFFFFFFFFFFFFFFFFFFFFF AND PUSH20 0xFFFFFFFFFFFFFFFFFFFFFFFFFFFFFFFFFFFFFFFF AND DUP2 MSTORE PUSH1 0x20 ADD SWAP1 DUP2 MSTORE PUSH1 0x20 ADD PUSH1 0x0 KECCAK256 PUSH1 0x0 SWAP1 SLOAD SWAP1 PUSH2 0x100 EXP SWAP1 DIV PUSH1 0xFF AND SWAP1 POP SWAP3 SWAP2 POP POP JUMP JUMPDEST DUP3 DUP1 SLOAD PUSH3 0x3F6 SWAP1 PUSH3 0x5FC JUMP JUMPDEST SWAP1 PUSH1 0x0 MSTORE PUSH1 0x20 PUSH1 0x0 KECCAK256 SWAP1 PUSH1 0x1F ADD PUSH1 0x20 SWAP1 DIV DUP2 ADD SWAP3 DUP3 PUSH3 0x41A JUMPI PUSH1 0x0 DUP6 SSTORE PUSH3 0x466 JUMP JUMPDEST DUP3 PUSH1 0x1F LT PUSH3 0x435 JUMPI DUP1 MLOAD PUSH1 0xFF NOT AND DUP4 DUP1 ADD OR DUP6 SSTORE PUSH3 0x466 JUMP JUMPDEST DUP3 DUP1 ADD PUSH1 0x1 ADD DUP6 SSTORE DUP3 ISZERO PUSH3 0x466 JUMPI SWAP2 DUP3 ADD JUMPDEST DUP3 DUP2 GT ISZERO PUSH3 0x465 JUMPI DUP3 MLOAD DUP3 SSTORE SWAP2 PUSH1 0x20 ADD SWAP2 SWAP1 PUSH1 0x1 ADD SWAP1 PUSH3 0x448 JUMP JUMPDEST JUMPDEST POP SWAP1 POP PUSH3 0x475 SWAP2 SWAP1 PUSH3 0x479 JUMP JUMPDEST POP SWAP1 JUMP JUMPDEST JUMPDEST DUP1 DUP3 GT ISZERO PUSH3 0x494 JUMPI PUSH1 0x0 DUP2 PUSH1 0x0 SWAP1 SSTORE POP PUSH1 0x1 ADD PUSH3 0x47A JUMP JUMPDEST POP SWAP1 JUMP JUMPDEST PUSH1 0x0 PUSH3 0x4AF PUSH3 0x4A9 DUP5 PUSH3 0x590 JUMP JUMPDEST PUSH3 0x567 JUMP JUMPDEST SWAP1 POP DUP3 DUP2 MSTORE PUSH1 0x20 DUP2 ADD DUP5 DUP5 DUP5 ADD GT ISZERO PUSH3 0x4CE JUMPI PUSH3 0x4CD PUSH3 0x6CB JUMP JUMPDEST JUMPDEST PUSH3 0x4DB DUP5 DUP3 DUP6 PUSH3 0x5C6 JUMP JUMPDEST POP SWAP4 SWAP3 POP POP POP JUMP JUMPDEST PUSH1 0x0 DUP3 PUSH1 0x1F DUP4 ADD SLT PUSH3 0x4FB JUMPI PUSH3 0x4FA PUSH3 0x6C6 JUMP JUMPDEST JUMPDEST DUP2 MLOAD PUSH3 0x50D DUP5 DUP3 PUSH1 0x20 DUP7 ADD PUSH3 0x498 JUMP JUMPDEST SWAP2 POP POP SWAP3 SWAP2 POP POP JUMP JUMPDEST PUSH1 0x0 PUSH1 0x20 DUP3 DUP5 SUB SLT ISZERO PUSH3 0x52F JUMPI PUSH3 0x52E PUSH3 0x6D5 JUMP JUMPDEST JUMPDEST PUSH1 0x0 DUP3 ADD MLOAD PUSH8 0xFFFFFFFFFFFFFFFF DUP2 GT ISZERO PUSH3 0x550 JUMPI PUSH3 0x54F PUSH3 0x6D0 JUMP JUMPDEST JUMPDEST PUSH3 0x55E DUP5 DUP3 DUP6 ADD PUSH3 0x4E3 JUMP JUMPDEST SWAP2 POP POP SWAP3 SWAP2 POP POP JUMP JUMPDEST PUSH1 0x0 PUSH3 0x573 PUSH3 0x586 JUMP JUMPDEST SWAP1 POP PUSH3 0x581 DUP3 DUP3 PUSH3 0x632 JUMP JUMPDEST SWAP2 SWAP1 POP JUMP JUMPDEST PUSH1 0x0 PUSH1 0x40 MLOAD SWAP1 POP SWAP1 JUMP JUMPDEST PUSH1 0x0 PUSH8 0xFFFFFFFFFFFFFFFF DUP3 GT ISZERO PUSH3 0x5AE JUMPI PUSH3 0x5AD PUSH3 0x697 JUMP JUMPDEST JUMPDEST PUSH3 0x5B9 DUP3 PUSH3 0x6DA JUMP JUMPDEST SWAP1 POP PUSH1 0x20 DUP2 ADD SWAP1 POP SWAP2 SWAP1 POP JUMP JUMPDEST PUSH1 0x0 JUMPDEST DUP4 DUP2 LT ISZERO PUSH3 0x5E6 JUMPI DUP1 DUP3 ADD MLOAD DUP2 DUP5 ADD MSTORE PUSH1 0x20 DUP2 ADD SWAP1 POP PUSH3 0x5C9 JUMP JUMPDEST DUP4 DUP2 GT ISZERO PUSH3 0x5F6 JUMPI PUSH1 0x0 DUP5 DUP5 ADD MSTORE JUMPDEST POP POP POP POP JUMP JUMPDEST PUSH1 0x0 PUSH1 0x2 DUP3 DIV SWAP1 POP PUSH1 0x1 DUP3 AND DUP1 PUSH3 0x615 JUMPI PUSH1 0x7F DUP3 AND SWAP2 POP JUMPDEST PUSH1 0x20 DUP3 LT DUP2 EQ ISZERO PUSH3 0x62C JUMPI PUSH3 0x62B PUSH3 0x668 JUMP JUMPDEST JUMPDEST POP SWAP2 SWAP1 POP JUMP JUMPDEST PUSH3 0x63D DUP3 PUSH3 0x6DA JUMP JUMPDEST DUP2 ADD DUP2 DUP2 LT PUSH8 0xFFFFFFFFFFFFFFFF DUP3 GT OR ISZERO PUSH3 0x65F JUMPI PUSH3 0x65E PUSH3 0x697 JUMP JUMPDEST JUMPDEST DUP1 PUSH1 0x40 MSTORE POP POP POP JUMP JUMPDEST PUSH32 0x4E487B7100000000000000000000000000000000000000000000000000000000 PUSH1 0x0 MSTORE PUSH1 0x22 PUSH1 0x4 MSTORE PUSH1 0x24 PUSH1 0x0 REVERT JUMPDEST PUSH32 0x4E487B7100000000000000000000000000000000000000000000000000000000 PUSH1 0x0 MSTORE PUSH1 0x41 PUSH1 0x4 MSTORE PUSH1 0x24 PUSH1 0x0 REVERT JUMPDEST PUSH1 0x0 DUP1 REVERT JUMPDEST PUSH1 0x0 DUP1 REVERT JUMPDEST PUSH1 0x0 DUP1 REVERT JUMPDEST PUSH1 0x0 DUP1 REVERT JUMPDEST PUSH1 0x0 PUSH1 0x1F NOT PUSH1 0x1F DUP4 ADD AND SWAP1 POP SWAP2 SWAP1 POP JUMP JUMPDEST PUSH2 0x5FCC DUP1 PUSH3 0x6FB PUSH1 0x0 CODECOPY PUSH1 0x0 RETURN INVALID PUSH1 0x80 PUSH1 0x40 MSTORE PUSH1 0x4 CALLDATASIZE LT PUSH2 0x36B JUMPI PUSH1 0x0 CALLDATALOAD PUSH1 0xE0 SHR DUP1 PUSH4 0x6352211E GT PUSH2 0x1C6 JUMPI DUP1 PUSH4 0xB88D4FDE GT PUSH2 0xF7 JUMPI DUP1 PUSH4 0xE8F78026 GT PUSH2 0x95 JUMPI DUP1 PUSH4 0xEECF2033 GT PUSH2 0x6F JUMPI DUP1 PUSH4 0xEECF2033 EQ PUSH2 0xD23 JUMPI DUP1 PUSH4 0xF2FDE38B EQ PUSH2 0xD4E JUMPI DUP1 PUSH4 0xF99031A7 EQ PUSH2 0xD77 JUMPI DUP1 PUSH4 0xFE43E1F0 EQ PUSH2 0xDB4 JUMPI PUSH2 0x36B JUMP JUMPDEST DUP1 PUSH4 0xE8F78026 EQ PUSH2 0xC7E JUMPI DUP1 PUSH4 0xE985E9C5 EQ PUSH2 0xCBB JUMPI DUP1 PUSH4 0xED14D640 EQ PUSH2 0xCF8 JUMPI PUSH2 0x36B JUMP JUMPDEST DUP1 PUSH4 0xD5391393 GT PUSH2 0xD1 JUMPI DUP1 PUSH4 0xD5391393 EQ PUSH2 0xBC4 JUMPI DUP1 PUSH4 0xD547741F EQ PUSH2 0xBEF JUMPI DUP1 PUSH4 0xD54F62B0 EQ PUSH2 0xC18 JUMPI DUP1 PUSH4 0xE7CD4A04 EQ PUSH2 0xC55 JUMPI PUSH2 0x36B JUMP JUMPDEST DUP1 PUSH4 0xB88D4FDE EQ PUSH2 0xB42 JUMPI DUP1 PUSH4 0xC1514D92 EQ PUSH2 0xB6B JUMPI DUP1 PUSH4 0xC87B56DD EQ PUSH2 0xB87 JUMPI PUSH2 0x36B JUMP JUMPDEST DUP1 PUSH4 0x90E41B6E GT PUSH2 0x164 JUMPI DUP1 PUSH4 0xA217FDDF GT PUSH2 0x13E JUMPI DUP1 PUSH4 0xA217FDDF EQ PUSH2 0xA98 JUMPI DUP1 PUSH4 0xA22CB465 EQ PUSH2 0xAC3 JUMPI DUP1 PUSH4 0xB2BDFA7B EQ PUSH2 0xAEC JUMPI DUP1 PUSH4 0xB6612D76 EQ PUSH2 0xB17 JUMPI PUSH2 0x36B JUMP JUMPDEST DUP1 PUSH4 0x90E41B6E EQ PUSH2 0x9F3 JUMPI DUP1 PUSH4 0x91D14854 EQ PUSH2 0xA30 JUMPI DUP1 PUSH4 0x95D89B41 EQ PUSH2 0xA6D JUMPI PUSH2 0x36B JUMP JUMPDEST DUP1 PUSH4 0x715018A6 GT PUSH2 0x1A0 JUMPI DUP1 PUSH4 0x715018A6 EQ PUSH2 0x97C JUMPI DUP1 PUSH4 0x73FF361B EQ PUSH2 0x993 JUMPI DUP1 PUSH4 0x74E3447A EQ PUSH2 0x99D JUMPI DUP1 PUSH4 0x8DA5CB5B EQ PUSH2 0x9C8 JUMPI PUSH2 0x36B JUMP JUMPDEST DUP1 PUSH4 0x6352211E EQ PUSH2 0x8D7 JUMPI DUP1 PUSH4 0x70446BBE EQ PUSH2 0x914 JUMPI DUP1 PUSH4 0x70A08231 EQ PUSH2 0x93F JUMPI PUSH2 0x36B JUMP JUMPDEST DUP1 PUSH4 0x2F08480D GT PUSH2 0x2A0 JUMPI DUP1 PUSH4 0x40D097C3 GT PUSH2 0x23E JUMPI DUP1 PUSH4 0x45149F8D GT PUSH2 0x218 JUMPI DUP1 PUSH4 0x45149F8D EQ PUSH2 0x828 JUMPI DUP1 PUSH4 0x4707A389 EQ PUSH2 0x865 JUMPI DUP1 PUSH4 0x4F6CCCE7 EQ PUSH2 0x890 JUMPI DUP1 PUSH4 0x62C9FE06 EQ PUSH2 0x8CD JUMPI PUSH2 0x36B JUMP JUMPDEST DUP1 PUSH4 0x40D097C3 EQ PUSH2 0x7C5 JUMPI DUP1 PUSH4 0x42842E0E EQ PUSH2 0x7E1 JUMPI DUP1 PUSH4 0x42F6487A EQ PUSH2 0x80A JUMPI PUSH2 0x36B JUMP JUMPDEST DUP1 PUSH4 0x35DB70B5 GT PUSH2 0x27A JUMPI DUP1 PUSH4 0x35DB70B5 EQ PUSH2 0x6F7 JUMPI DUP1 PUSH4 0x36568ABE EQ PUSH2 0x722 JUMPI DUP1 PUSH4 0x37874127 EQ PUSH2 0x74B JUMPI DUP1 PUSH4 0x3E334CF0 EQ PUSH2 0x788 JUMPI PUSH2 0x36B JUMP JUMPDEST DUP1 PUSH4 0x2F08480D EQ PUSH2 0x654 JUMPI DUP1 PUSH4 0x2F2FF15D EQ PUSH2 0x691 JUMPI DUP1 PUSH4 0x2F745C59 EQ PUSH2 0x6BA JUMPI PUSH2 0x36B JUMP JUMPDEST DUP1 PUSH4 0x14ACE896 GT PUSH2 0x30D JUMPI DUP1 PUSH4 0x1D578013 GT PUSH2 0x2E7 JUMPI DUP1 PUSH4 0x1D578013 EQ PUSH2 0x588 JUMPI DUP1 PUSH4 0x2042E5C2 EQ PUSH2 0x5C5 JUMPI DUP1 PUSH4 0x23B872DD EQ PUSH2 0x5EE JUMPI DUP1 PUSH4 0x248A9CA3 EQ PUSH2 0x617 JUMPI PUSH2 0x36B JUMP JUMPDEST DUP1 PUSH4 0x14ACE896 EQ PUSH2 0x4E3 JUMPI DUP1 PUSH4 0x18160DDD EQ PUSH2 0x520 JUMPI DUP1 PUSH4 0x1CAAA487 EQ PUSH2 0x54B JUMPI PUSH2 0x36B JUMP JUMPDEST DUP1 PUSH4 0x81812FC GT PUSH2 0x349 JUMPI DUP1 PUSH4 0x81812FC EQ PUSH2 0x403 JUMPI DUP1 PUSH4 0x95EA7B3 EQ PUSH2 0x440 JUMPI DUP1 PUSH4 0xC401D7E EQ PUSH2 0x469 JUMPI DUP1 PUSH4 0xD4CC788 EQ PUSH2 0x4A6 JUMPI PUSH2 0x36B JUMP JUMPDEST DUP1 PUSH4 0x1FFC9A7 EQ PUSH2 0x370 JUMPI DUP1 PUSH4 0x3EE438C EQ PUSH2 0x3AD JUMPI DUP1 PUSH4 0x6FDDE03 EQ PUSH2 0x3D8 JUMPI JUMPDEST PUSH1 0x0 DUP1 REVERT JUMPDEST CALLVALUE DUP1 ISZERO PUSH2 0x37C JUMPI PUSH1 0x0 DUP1 REVERT JUMPDEST POP PUSH2 0x397 PUSH1 0x4 DUP1 CALLDATASIZE SUB DUP2 ADD SWAP1 PUSH2 0x392 SWAP2 SWAP1 PUSH2 0x466F JUMP JUMPDEST PUSH2 0xDF1 JUMP JUMPDEST PUSH1 0x40 MLOAD PUSH2 0x3A4 SWAP2 SWAP1 PUSH2 0x4F0A JUMP JUMPDEST PUSH1 0x40 MLOAD DUP1 SWAP2 SUB SWAP1 RETURN JUMPDEST CALLVALUE DUP1 ISZERO PUSH2 0x3B9 JUMPI PUSH1 0x0 DUP1 REVERT JUMPDEST POP PUSH2 0x3C2 PUSH2 0xE03 JUMP JUMPDEST PUSH1 0x40 MLOAD PUSH2 0x3CF SWAP2 SWAP1 PUSH2 0x4F40 JUMP JUMPDEST PUSH1 0x40 MLOAD DUP1 SWAP2 SUB SWAP1 RETURN JUMPDEST CALLVALUE DUP1 ISZERO PUSH2 0x3E4 JUMPI PUSH1 0x0 DUP1 REVERT JUMPDEST POP PUSH2 0x3ED PUSH2 0xE92 JUMP JUMPDEST PUSH1 0x40 MLOAD PUSH2 0x3FA SWAP2 SWAP1 PUSH2 0x4F40 JUMP JUMPDEST PUSH1 0x40 MLOAD DUP1 SWAP2 SUB SWAP1 RETURN JUMPDEST CALLVALUE DUP1 ISZERO PUSH2 0x40F JUMPI PUSH1 0x0 DUP1 REVERT JUMPDEST POP PUSH2 0x42A PUSH1 0x4 DUP1 CALLDATASIZE SUB DUP2 ADD SWAP1 PUSH2 0x425 SWAP2 SWAP1 PUSH2 0x46C9 JUMP JUMPDEST PUSH2 0xF24 JUMP JUMPDEST PUSH1 0x40 MLOAD PUSH2 0x437 SWAP2 SWAP1 PUSH2 0x4E81 JUMP JUMPDEST PUSH1 0x40 MLOAD DUP1 SWAP2 SUB SWAP1 RETURN JUMPDEST CALLVALUE DUP1 ISZERO PUSH2 0x44C JUMPI PUSH1 0x0 DUP1 REVERT JUMPDEST POP PUSH2 0x467 PUSH1 0x4 DUP1 CALLDATASIZE SUB DUP2 ADD SWAP1 PUSH2 0x462 SWAP2 SWAP1 PUSH2 0x45C2 JUMP JUMPDEST PUSH2 0xFA9 JUMP JUMPDEST STOP JUMPDEST CALLVALUE DUP1 ISZERO PUSH2 0x475 JUMPI PUSH1 0x0 DUP1 REVERT JUMPDEST POP PUSH2 0x490 PUSH1 0x4 DUP1 CALLDATASIZE SUB DUP2 ADD SWAP1 PUSH2 0x48B SWAP2 SWAP1 PUSH2 0x46C9 JUMP JUMPDEST PUSH2 0x10C1 JUMP JUMPDEST PUSH1 0x40 MLOAD PUSH2 0x49D SWAP2 SWAP1 PUSH2 0x4F0A JUMP JUMPDEST PUSH1 0x40 MLOAD DUP1 SWAP2 SUB SWAP1 RETURN JUMPDEST CALLVALUE DUP1 ISZERO PUSH2 0x4B2 JUMPI PUSH1 0x0 DUP1 REVERT JUMPDEST POP PUSH2 0x4CD PUSH1 0x4 DUP1 CALLDATASIZE SUB DUP2 ADD SWAP1 PUSH2 0x4C8 SWAP2 SWAP1 PUSH2 0x46C9 JUMP JUMPDEST PUSH2 0x10E2 JUMP JUMPDEST PUSH1 0x40 MLOAD PUSH2 0x4DA SWAP2 SWAP1 PUSH2 0x4EE8 JUMP JUMPDEST PUSH1 0x40 MLOAD DUP1 SWAP2 SUB SWAP1 RETURN JUMPDEST CALLVALUE DUP1 ISZERO PUSH2 0x4EF JUMPI PUSH1 0x0 DUP1 REVERT JUMPDEST POP PUSH2 0x50A PUSH1 0x4 DUP1 CALLDATASIZE SUB DUP2 ADD SWAP1 PUSH2 0x505 SWAP2 SWAP1 PUSH2 0x46C9 JUMP JUMPDEST PUSH2 0x114E JUMP JUMPDEST PUSH1 0x40 MLOAD PUSH2 0x517 SWAP2 SWAP1 PUSH2 0x4E81 JUMP JUMPDEST PUSH1 0x40 MLOAD DUP1 SWAP2 SUB SWAP1 RETURN JUMPDEST CALLVALUE DUP1 ISZERO PUSH2 0x52C JUMPI PUSH1 0x0 DUP1 REVERT JUMPDEST POP PUSH2 0x535 PUSH2 0x118C JUMP JUMPDEST PUSH1 0x40 MLOAD PUSH2 0x542 SWAP2 SWAP1 PUSH2 0x52A2 JUMP JUMPDEST PUSH1 0x40 MLOAD DUP1 SWAP2 SUB SWAP1 RETURN JUMPDEST CALLVALUE DUP1 ISZERO PUSH2 0x557 JUMPI PUSH1 0x0 DUP1 REVERT JUMPDEST POP PUSH2 0x572 PUSH1 0x4 DUP1 CALLDATASIZE SUB DUP2 ADD SWAP1 PUSH2 0x56D SWAP2 SWAP1 PUSH2 0x46C9 JUMP JUMPDEST PUSH2 0x1199 JUMP JUMPDEST PUSH1 0x40 MLOAD PUSH2 0x57F SWAP2 SWAP1 PUSH2 0x4E81 JUMP JUMPDEST PUSH1 0x40 MLOAD DUP1 SWAP2 SUB SWAP1 RETURN JUMPDEST CALLVALUE DUP1 ISZERO PUSH2 0x594 JUMPI PUSH1 0x0 DUP1 REVERT JUMPDEST POP PUSH2 0x5AF PUSH1 0x4 DUP1 CALLDATASIZE SUB DUP2 ADD SWAP1 PUSH2 0x5AA SWAP2 SWAP1 PUSH2 0x46C9 JUMP JUMPDEST PUSH2 0x11CD JUMP JUMPDEST PUSH1 0x40 MLOAD PUSH2 0x5BC SWAP2 SWAP1 PUSH2 0x52A2 JUMP JUMPDEST PUSH1 0x40 MLOAD DUP1 SWAP2 SUB SWAP1 RETURN JUMPDEST CALLVALUE DUP1 ISZERO PUSH2 0x5D1 JUMPI PUSH1 0x0 DUP1 REVERT JUMPDEST POP PUSH2 0x5EC PUSH1 0x4 DUP1 CALLDATASIZE SUB DUP2 ADD SWAP1 PUSH2 0x5E7 SWAP2 SWAP1 PUSH2 0x443F JUMP JUMPDEST PUSH2 0x11E6 JUMP JUMPDEST STOP JUMPDEST CALLVALUE DUP1 ISZERO PUSH2 0x5FA JUMPI PUSH1 0x0 DUP1 REVERT JUMPDEST POP PUSH2 0x615 PUSH1 0x4 DUP1 CALLDATASIZE SUB DUP2 ADD SWAP1 PUSH2 0x610 SWAP2 SWAP1 PUSH2 0x44AC JUMP JUMPDEST PUSH2 0x12E8 JUMP JUMPDEST STOP JUMPDEST CALLVALUE DUP1 ISZERO PUSH2 0x623 JUMPI PUSH1 0x0 DUP1 REVERT JUMPDEST POP PUSH2 0x63E PUSH1 0x4 DUP1 CALLDATASIZE SUB DUP2 ADD SWAP1 PUSH2 0x639 SWAP2 SWAP1 PUSH2 0x4602 JUMP JUMPDEST PUSH2 0x1348 JUMP JUMPDEST PUSH1 0x40 MLOAD PUSH2 0x64B SWAP2 SWAP1 PUSH2 0x4F25 JUMP JUMPDEST PUSH1 0x40 MLOAD DUP1 SWAP2 SUB SWAP1 RETURN JUMPDEST CALLVALUE DUP1 ISZERO PUSH2 0x660 JUMPI PUSH1 0x0 DUP1 REVERT JUMPDEST POP PUSH2 0x67B PUSH1 0x4 DUP1 CALLDATASIZE SUB DUP2 ADD SWAP1 PUSH2 0x676 SWAP2 SWAP1 PUSH2 0x45C2 JUMP JUMPDEST PUSH2 0x1368 JUMP JUMPDEST PUSH1 0x40 MLOAD PUSH2 0x688 SWAP2 SWAP1 PUSH2 0x52A2 JUMP JUMPDEST PUSH1 0x40 MLOAD DUP1 SWAP2 SUB SWAP1 RETURN JUMPDEST CALLVALUE DUP1 ISZERO PUSH2 0x69D JUMPI PUSH1 0x0 DUP1 REVERT JUMPDEST POP PUSH2 0x6B8 PUSH1 0x4 DUP1 CALLDATASIZE SUB DUP2 ADD SWAP1 PUSH2 0x6B3 SWAP2 SWAP1 PUSH2 0x462F JUMP JUMPDEST PUSH2 0x139A JUMP JUMPDEST STOP JUMPDEST CALLVALUE DUP1 ISZERO PUSH2 0x6C6 JUMPI PUSH1 0x0 DUP1 REVERT JUMPDEST POP PUSH2 0x6E1 PUSH1 0x4 DUP1 CALLDATASIZE SUB DUP2 ADD SWAP1 PUSH2 0x6DC SWAP2 SWAP1 PUSH2 0x45C2 JUMP JUMPDEST PUSH2 0x13BB JUMP JUMPDEST PUSH1 0x40 MLOAD PUSH2 0x6EE SWAP2 SWAP1 PUSH2 0x52A2 JUMP JUMPDEST PUSH1 0x40 MLOAD DUP1 SWAP2 SUB SWAP1 RETURN JUMPDEST CALLVALUE DUP1 ISZERO PUSH2 0x703 JUMPI PUSH1 0x0 DUP1 REVERT JUMPDEST POP PUSH2 0x70C PUSH2 0x1460 JUMP JUMPDEST PUSH1 0x40 MLOAD PUSH2 0x719 SWAP2 SWAP1 PUSH2 0x52BD JUMP JUMPDEST PUSH1 0x40 MLOAD DUP1 SWAP2 SUB SWAP1 RETURN JUMPDEST CALLVALUE DUP1 ISZERO PUSH2 0x72E JUMPI PUSH1 0x0 DUP1 REVERT JUMPDEST POP PUSH2 0x749 PUSH1 0x4 DUP1 CALLDATASIZE SUB DUP2 ADD SWAP1 PUSH2 0x744 SWAP2 SWAP1 PUSH2 0x462F JUMP JUMPDEST PUSH2 0x147B JUMP JUMPDEST STOP JUMPDEST CALLVALUE DUP1 ISZERO PUSH2 0x757 JUMPI PUSH1 0x0 DUP1 REVERT JUMPDEST POP PUSH2 0x772 PUSH1 0x4 DUP1 CALLDATASIZE SUB DUP2 ADD SWAP1 PUSH2 0x76D SWAP2 SWAP1 PUSH2 0x46C9 JUMP JUMPDEST PUSH2 0x14FE JUMP JUMPDEST PUSH1 0x40 MLOAD PUSH2 0x77F SWAP2 SWAP1 PUSH2 0x52A2 JUMP JUMPDEST PUSH1 0x40 MLOAD DUP1 SWAP2 SUB SWAP1 RETURN JUMPDEST CALLVALUE DUP1 ISZERO PUSH2 0x794 JUMPI PUSH1 0x0 DUP1 REVERT JUMPDEST POP PUSH2 0x7AF PUSH1 0x4 DUP1 CALLDATASIZE SUB DUP2 ADD SWAP1 PUSH2 0x7AA SWAP2 SWAP1 PUSH2 0x46C9 JUMP JUMPDEST PUSH2 0x151D JUMP JUMPDEST PUSH1 0x40 MLOAD PUSH2 0x7BC SWAP2 SWAP1 PUSH2 0x52A2 JUMP JUMPDEST PUSH1 0x40 MLOAD DUP1 SWAP2 SUB SWAP1 RETURN JUMPDEST PUSH2 0x7DF PUSH1 0x4 DUP1 CALLDATASIZE SUB DUP2 ADD SWAP1 PUSH2 0x7DA SWAP2 SWAP1 PUSH2 0x443F JUMP JUMPDEST PUSH2 0x153E JUMP JUMPDEST STOP JUMPDEST CALLVALUE DUP1 ISZERO PUSH2 0x7ED JUMPI PUSH1 0x0 DUP1 REVERT JUMPDEST POP PUSH2 0x808 PUSH1 0x4 DUP1 CALLDATASIZE SUB DUP2 ADD SWAP1 PUSH2 0x803 SWAP2 SWAP1 PUSH2 0x44AC JUMP JUMPDEST PUSH2 0x18C5 JUMP JUMPDEST STOP JUMPDEST PUSH2 0x812 PUSH2 0x18E5 JUMP JUMPDEST PUSH1 0x40 MLOAD PUSH2 0x81F SWAP2 SWAP1 PUSH2 0x4F0A JUMP JUMPDEST PUSH1 0x40 MLOAD DUP1 SWAP2 SUB SWAP1 RETURN JUMPDEST CALLVALUE DUP1 ISZERO PUSH2 0x834 JUMPI PUSH1 0x0 DUP1 REVERT JUMPDEST POP PUSH2 0x84F PUSH1 0x4 DUP1 CALLDATASIZE SUB DUP2 ADD SWAP1 PUSH2 0x84A SWAP2 SWAP1 PUSH2 0x46C9 JUMP JUMPDEST PUSH2 0x1AC2 JUMP JUMPDEST PUSH1 0x40 MLOAD PUSH2 0x85C SWAP2 SWAP1 PUSH2 0x52A2 JUMP JUMPDEST PUSH1 0x40 MLOAD DUP1 SWAP2 SUB SWAP1 RETURN JUMPDEST CALLVALUE DUP1 ISZERO PUSH2 0x871 JUMPI PUSH1 0x0 DUP1 REVERT JUMPDEST POP PUSH2 0x87A PUSH2 0x1AE0 JUMP JUMPDEST PUSH1 0x40 MLOAD PUSH2 0x887 SWAP2 SWAP1 PUSH2 0x52A2 JUMP JUMPDEST PUSH1 0x40 MLOAD DUP1 SWAP2 SUB SWAP1 RETURN JUMPDEST CALLVALUE DUP1 ISZERO PUSH2 0x89C JUMPI PUSH1 0x0 DUP1 REVERT JUMPDEST POP PUSH2 0x8B7 PUSH1 0x4 DUP1 CALLDATASIZE SUB DUP2 ADD SWAP1 PUSH2 0x8B2 SWAP2 SWAP1 PUSH2 0x46C9 JUMP JUMPDEST PUSH2 0x1AE6 JUMP JUMPDEST PUSH1 0x40 MLOAD PUSH2 0x8C4 SWAP2 SWAP1 PUSH2 0x52A2 JUMP JUMPDEST PUSH1 0x40 MLOAD DUP1 SWAP2 SUB SWAP1 RETURN JUMPDEST PUSH2 0x8D5 PUSH2 0x1B57 JUMP JUMPDEST STOP JUMPDEST CALLVALUE DUP1 ISZERO PUSH2 0x8E3 JUMPI PUSH1 0x0 DUP1 REVERT JUMPDEST POP PUSH2 0x8FE PUSH1 0x4 DUP1 CALLDATASIZE SUB DUP2 ADD SWAP1 PUSH2 0x8F9 SWAP2 SWAP1 PUSH2 0x46C9 JUMP JUMPDEST PUSH2 0x1B70 JUMP JUMPDEST PUSH1 0x40 MLOAD PUSH2 0x90B SWAP2 SWAP1 PUSH2 0x4E81 JUMP JUMPDEST PUSH1 0x40 MLOAD DUP1 SWAP2 SUB SWAP1 RETURN JUMPDEST CALLVALUE DUP1 ISZERO PUSH2 0x920 JUMPI PUSH1 0x0 DUP1 REVERT JUMPDEST POP PUSH2 0x929 PUSH2 0x1C22 JUMP JUMPDEST PUSH1 0x40 MLOAD PUSH2 0x936 SWAP2 SWAP1 PUSH2 0x52A2 JUMP JUMPDEST PUSH1 0x40 MLOAD DUP1 SWAP2 SUB SWAP1 RETURN JUMPDEST CALLVALUE DUP1 ISZERO PUSH2 0x94B JUMPI PUSH1 0x0 DUP1 REVERT JUMPDEST POP PUSH2 0x966 PUSH1 0x4 DUP1 CALLDATASIZE SUB DUP2 ADD SWAP1 PUSH2 0x961 SWAP2 SWAP1 PUSH2 0x443F JUMP JUMPDEST PUSH2 0x1C28 JUMP JUMPDEST PUSH1 0x40 MLOAD PUSH2 0x973 SWAP2 SWAP1 PUSH2 0x52A2 JUMP JUMPDEST PUSH1 0x40 MLOAD DUP1 SWAP2 SUB SWAP1 RETURN JUMPDEST CALLVALUE DUP1 ISZERO PUSH2 0x988 JUMPI PUSH1 0x0 DUP1 REVERT JUMPDEST POP PUSH2 0x991 PUSH2 0x1CE0 JUMP JUMPDEST STOP JUMPDEST PUSH2 0x99B PUSH2 0x1D68 JUMP JUMPDEST STOP JUMPDEST CALLVALUE DUP1 ISZERO PUSH2 0x9A9 JUMPI PUSH1 0x0 DUP1 REVERT JUMPDEST POP PUSH2 0x9B2 PUSH2 0x1DAB JUMP JUMPDEST PUSH1 0x40 MLOAD PUSH2 0x9BF SWAP2 SWAP1 PUSH2 0x4F25 JUMP JUMPDEST PUSH1 0x40 MLOAD DUP1 SWAP2 SUB SWAP1 RETURN JUMPDEST CALLVALUE DUP1 ISZERO PUSH2 0x9D4 JUMPI PUSH1 0x0 DUP1 REVERT JUMPDEST POP PUSH2 0x9DD PUSH2 0x1DCF JUMP JUMPDEST PUSH1 0x40 MLOAD PUSH2 0x9EA SWAP2 SWAP1 PUSH2 0x4E81 JUMP JUMPDEST PUSH1 0x40 MLOAD DUP1 SWAP2 SUB SWAP1 RETURN JUMPDEST CALLVALUE DUP1 ISZERO PUSH2 0x9FF JUMPI PUSH1 0x0 DUP1 REVERT JUMPDEST POP PUSH2 0xA1A PUSH1 0x4 DUP1 CALLDATASIZE SUB DUP2 ADD SWAP1 PUSH2 0xA15 SWAP2 SWAP1 PUSH2 0x443F JUMP JUMPDEST PUSH2 0x1DF9 JUMP JUMPDEST PUSH1 0x40 MLOAD PUSH2 0xA27 SWAP2 SWAP1 PUSH2 0x4EE8 JUMP JUMPDEST PUSH1 0x40 MLOAD DUP1 SWAP2 SUB SWAP1 RETURN JUMPDEST CALLVALUE DUP1 ISZERO PUSH2 0xA3C JUMPI PUSH1 0x0 DUP1 REVERT JUMPDEST POP PUSH2 0xA57 PUSH1 0x4 DUP1 CALLDATASIZE SUB DUP2 ADD SWAP1 PUSH2 0xA52 SWAP2 SWAP1 PUSH2 0x462F JUMP JUMPDEST PUSH2 0x1E91 JUMP JUMPDEST PUSH1 0x40 MLOAD PUSH2 0xA64 SWAP2 SWAP1 PUSH2 0x4F0A JUMP JUMPDEST PUSH1 0x40 MLOAD DUP1 SWAP2 SUB SWAP1 RETURN JUMPDEST CALLVALUE DUP1 ISZERO PUSH2 0xA79 JUMPI PUSH1 0x0 DUP1 REVERT JUMPDEST POP PUSH2 0xA82 PUSH2 0x1EFC JUMP JUMPDEST PUSH1 0x40 MLOAD PUSH2 0xA8F SWAP2 SWAP1 PUSH2 0x4F40 JUMP JUMPDEST PUSH1 0x40 MLOAD DUP1 SWAP2 SUB SWAP1 RETURN JUMPDEST CALLVALUE DUP1 ISZERO PUSH2 0xAA4 JUMPI PUSH1 0x0 DUP1 REVERT JUMPDEST POP PUSH2 0xAAD PUSH2 0x1F8E JUMP JUMPDEST PUSH1 0x40 MLOAD PUSH2 0xABA SWAP2 SWAP1 PUSH2 0x4F25 JUMP JUMPDEST PUSH1 0x40 MLOAD DUP1 SWAP2 SUB SWAP1 RETURN JUMPDEST CALLVALUE DUP1 ISZERO PUSH2 0xACF JUMPI PUSH1 0x0 DUP1 REVERT JUMPDEST POP PUSH2 0xAEA PUSH1 0x4 DUP1 CALLDATASIZE SUB DUP2 ADD SWAP1 PUSH2 0xAE5 SWAP2 SWAP1 PUSH2 0x4582 JUMP JUMPDEST PUSH2 0x1F95 JUMP JUMPDEST STOP JUMPDEST CALLVALUE DUP1 ISZERO PUSH2 0xAF8 JUMPI PUSH1 0x0 DUP1 REVERT JUMPDEST POP PUSH2 0xB01 PUSH2 0x1FAB JUMP JUMPDEST PUSH1 0x40 MLOAD PUSH2 0xB0E SWAP2 SWAP1 PUSH2 0x4E81 JUMP JUMPDEST PUSH1 0x40 MLOAD DUP1 SWAP2 SUB SWAP1 RETURN JUMPDEST CALLVALUE DUP1 ISZERO PUSH2 0xB23 JUMPI PUSH1 0x0 DUP1 REVERT JUMPDEST POP PUSH2 0xB2C PUSH2 0x1FD2 JUMP JUMPDEST PUSH1 0x40 MLOAD PUSH2 0xB39 SWAP2 SWAP1 PUSH2 0x52A2 JUMP JUMPDEST PUSH1 0x40 MLOAD DUP1 SWAP2 SUB SWAP1 RETURN JUMPDEST CALLVALUE DUP1 ISZERO PUSH2 0xB4E JUMPI PUSH1 0x0 DUP1 REVERT JUMPDEST POP PUSH2 0xB69 PUSH1 0x4 DUP1 CALLDATASIZE SUB DUP2 ADD SWAP1 PUSH2 0xB64 SWAP2 SWAP1 PUSH2 0x44FF JUMP JUMPDEST PUSH2 0x1FD9 JUMP JUMPDEST STOP JUMPDEST PUSH2 0xB85 PUSH1 0x4 DUP1 CALLDATASIZE SUB DUP2 ADD SWAP1 PUSH2 0xB80 SWAP2 SWAP1 PUSH2 0x443F JUMP JUMPDEST PUSH2 0x203B JUMP JUMPDEST STOP JUMPDEST CALLVALUE DUP1 ISZERO PUSH2 0xB93 JUMPI PUSH1 0x0 DUP1 REVERT JUMPDEST POP PUSH2 0xBAE PUSH1 0x4 DUP1 CALLDATASIZE SUB DUP2 ADD SWAP1 PUSH2 0xBA9 SWAP2 SWAP1 PUSH2 0x46C9 JUMP JUMPDEST PUSH2 0x2420 JUMP JUMPDEST PUSH1 0x40 MLOAD PUSH2 0xBBB SWAP2 SWAP1 PUSH2 0x4F40 JUMP JUMPDEST PUSH1 0x40 MLOAD DUP1 SWAP2 SUB SWAP1 RETURN JUMPDEST CALLVALUE DUP1 ISZERO PUSH2 0xBD0 JUMPI PUSH1 0x0 DUP1 REVERT JUMPDEST POP PUSH2 0xBD9 PUSH2 0x2472 JUMP JUMPDEST PUSH1 0x40 MLOAD PUSH2 0xBE6 SWAP2 SWAP1 PUSH2 0x4F25 JUMP JUMPDEST PUSH1 0x40 MLOAD DUP1 SWAP2 SUB SWAP1 RETURN JUMPDEST CALLVALUE DUP1 ISZERO PUSH2 0xBFB JUMPI PUSH1 0x0 DUP1 REVERT JUMPDEST POP PUSH2 0xC16 PUSH1 0x4 DUP1 CALLDATASIZE SUB DUP2 ADD SWAP1 PUSH2 0xC11 SWAP2 SWAP1 PUSH2 0x462F JUMP JUMPDEST PUSH2 0x2496 JUMP JUMPDEST STOP JUMPDEST CALLVALUE DUP1 ISZERO PUSH2 0xC24 JUMPI PUSH1 0x0 DUP1 REVERT JUMPDEST POP PUSH2 0xC3F PUSH1 0x4 DUP1 CALLDATASIZE SUB DUP2 ADD SWAP1 PUSH2 0xC3A SWAP2 SWAP1 PUSH2 0x46F6 JUMP JUMPDEST PUSH2 0x24B7 JUMP JUMPDEST PUSH1 0x40 MLOAD PUSH2 0xC4C SWAP2 SWAP1 PUSH2 0x52A2 JUMP JUMPDEST PUSH1 0x40 MLOAD DUP1 SWAP2 SUB SWAP1 RETURN JUMPDEST CALLVALUE DUP1 ISZERO PUSH2 0xC61 JUMPI PUSH1 0x0 DUP1 REVERT JUMPDEST POP PUSH2 0xC7C PUSH1 0x4 DUP1 CALLDATASIZE SUB DUP2 ADD SWAP1 PUSH2 0xC77 SWAP2 SWAP1 PUSH2 0x443F JUMP JUMPDEST PUSH2 0x24E9 JUMP JUMPDEST STOP JUMPDEST CALLVALUE DUP1 ISZERO PUSH2 0xC8A JUMPI PUSH1 0x0 DUP1 REVERT JUMPDEST POP PUSH2 0xCA5 PUSH1 0x4 DUP1 CALLDATASIZE SUB DUP2 ADD SWAP1 PUSH2 0xCA0 SWAP2 SWAP1 PUSH2 0x46C9 JUMP JUMPDEST PUSH2 0x25EB JUMP JUMPDEST PUSH1 0x40 MLOAD PUSH2 0xCB2 SWAP2 SWAP1 PUSH2 0x52A2 JUMP JUMPDEST PUSH1 0x40 MLOAD DUP1 SWAP2 SUB SWAP1 RETURN JUMPDEST CALLVALUE DUP1 ISZERO PUSH2 0xCC7 JUMPI PUSH1 0x0 DUP1 REVERT JUMPDEST POP PUSH2 0xCE2 PUSH1 0x4 DUP1 CALLDATASIZE SUB DUP2 ADD SWAP1 PUSH2 0xCDD SWAP2 SWAP1 PUSH2 0x446C JUMP JUMPDEST PUSH2 0x2610 JUMP JUMPDEST PUSH1 0x40 MLOAD PUSH2 0xCEF SWAP2 SWAP1 PUSH2 0x4F0A JUMP JUMPDEST PUSH1 0x40 MLOAD DUP1 SWAP2 SUB SWAP1 RETURN JUMPDEST CALLVALUE DUP1 ISZERO PUSH2 0xD04 JUMPI PUSH1 0x0 DUP1 REVERT JUMPDEST POP PUSH2 0xD0D PUSH2 0x26A4 JUMP JUMPDEST PUSH1 0x40 MLOAD PUSH2 0xD1A SWAP2 SWAP1 PUSH2 0x52A2 JUMP JUMPDEST PUSH1 0x40 MLOAD DUP1 SWAP2 SUB SWAP1 RETURN JUMPDEST CALLVALUE DUP1 ISZERO PUSH2 0xD2F JUMPI PUSH1 0x0 DUP1 REVERT JUMPDEST POP PUSH2 0xD38 PUSH2 0x26DD JUMP JUMPDEST PUSH1 0x40 MLOAD PUSH2 0xD45 SWAP2 SWAP1 PUSH2 0x52A2 JUMP JUMPDEST PUSH1 0x40 MLOAD DUP1 SWAP2 SUB SWAP1 RETURN JUMPDEST CALLVALUE DUP1 ISZERO PUSH2 0xD5A JUMPI PUSH1 0x0 DUP1 REVERT JUMPDEST POP PUSH2 0xD75 PUSH1 0x4 DUP1 CALLDATASIZE SUB DUP2 ADD SWAP1 PUSH2 0xD70 SWAP2 SWAP1 PUSH2 0x443F JUMP JUMPDEST PUSH2 0x26E4 JUMP JUMPDEST STOP JUMPDEST CALLVALUE DUP1 ISZERO PUSH2 0xD83 JUMPI PUSH1 0x0 DUP1 REVERT JUMPDEST POP PUSH2 0xD9E PUSH1 0x4 DUP1 CALLDATASIZE SUB DUP2 ADD SWAP1 PUSH2 0xD99 SWAP2 SWAP1 PUSH2 0x443F JUMP JUMPDEST PUSH2 0x27DC JUMP JUMPDEST PUSH1 0x40 MLOAD PUSH2 0xDAB SWAP2 SWAP1 PUSH2 0x4F0A JUMP JUMPDEST PUSH1 0x40 MLOAD DUP1 SWAP2 SUB SWAP1 RETURN JUMPDEST CALLVALUE DUP1 ISZERO PUSH2 0xDC0 JUMPI PUSH1 0x0 DUP1 REVERT JUMPDEST POP PUSH2 0xDDB PUSH1 0x4 DUP1 CALLDATASIZE SUB DUP2 ADD SWAP1 PUSH2 0xDD6 SWAP2 SWAP1 PUSH2 0x46C9 JUMP JUMPDEST PUSH2 0x27FD JUMP JUMPDEST PUSH1 0x40 MLOAD PUSH2 0xDE8 SWAP2 SWAP1 PUSH2 0x4E81 JUMP JUMPDEST PUSH1 0x40 MLOAD DUP1 SWAP2 SUB SWAP1 RETURN JUMPDEST PUSH1 0x0 PUSH2 0xDFC DUP3 PUSH2 0x2831 JUMP JUMPDEST SWAP1 POP SWAP2 SWAP1 POP JUMP JUMPDEST PUSH2 0x40F DUP1 SLOAD PUSH2 0xE11 SWAP1 PUSH2 0x55DD JUMP JUMPDEST DUP1 PUSH1 0x1F ADD PUSH1 0x20 DUP1 SWAP2 DIV MUL PUSH1 0x20 ADD PUSH1 0x40 MLOAD SWAP1 DUP2 ADD PUSH1 0x40 MSTORE DUP1 SWAP3 SWAP2 SWAP1 DUP2 DUP2 MSTORE PUSH1 0x20 ADD DUP3 DUP1 SLOAD PUSH2 0xE3D SWAP1 PUSH2 0x55DD JUMP JUMPDEST DUP1 ISZERO PUSH2 0xE8A JUMPI DUP1 PUSH1 0x1F LT PUSH2 0xE5F JUMPI PUSH2 0x100 DUP1 DUP4 SLOAD DIV MUL DUP4 MSTORE SWAP2 PUSH1 0x20 ADD SWAP2 PUSH2 0xE8A JUMP JUMPDEST DUP3 ADD SWAP2 SWAP1 PUSH1 0x0 MSTORE PUSH1 0x20 PUSH1 0x0 KECCAK256 SWAP1 JUMPDEST DUP2 SLOAD DUP2 MSTORE SWAP1 PUSH1 0x1 ADD SWAP1 PUSH1 0x20 ADD DUP1 DUP4 GT PUSH2 0xE6D JUMPI DUP3 SWAP1 SUB PUSH1 0x1F AND DUP3 ADD SWAP2 JUMPDEST POP POP POP POP POP DUP2 JUMP JUMPDEST PUSH1 0x60 PUSH1 0x0 DUP1 SLOAD PUSH2 0xEA1 SWAP1 PUSH2 0x55DD JUMP JUMPDEST DUP1 PUSH1 0x1F ADD PUSH1 0x20 DUP1 SWAP2 DIV MUL PUSH1 0x20 ADD PUSH1 0x40 MLOAD SWAP1 DUP2 ADD PUSH1 0x40 MSTORE DUP1 SWAP3 SWAP2 SWAP1 DUP2 DUP2 MSTORE PUSH1 0x20 ADD DUP3 DUP1 SLOAD PUSH2 0xECD SWAP1 PUSH2 0x55DD JUMP JUMPDEST DUP1 ISZERO PUSH2 0xF1A JUMPI DUP1 PUSH1 0x1F LT PUSH2 0xEEF JUMPI PUSH2 0x100 DUP1 DUP4 SLOAD DIV MUL DUP4 MSTORE SWAP2 PUSH1 0x20 ADD SWAP2 PUSH2 0xF1A JUMP JUMPDEST DUP3 ADD SWAP2 SWAP1 PUSH1 0x0 MSTORE PUSH1 0x20 PUSH1 0x0 KECCAK256 SWAP1 JUMPDEST DUP2 SLOAD DUP2 MSTORE SWAP1 PUSH1 0x1 ADD SWAP1 PUSH1 0x20 ADD DUP1 DUP4 GT PUSH2 0xEFD JUMPI DUP3 SWAP1 SUB PUSH1 0x1F AND DUP3 ADD SWAP2 JUMPDEST POP POP POP POP POP SWAP1 POP SWAP1 JUMP JUMPDEST PUSH1 0x0 PUSH2 0xF2F DUP3 PUSH2 0x28AB JUMP JUMPDEST PUSH2 0xF6E JUMPI PUSH1 0x40 MLOAD PUSH32 0x8C379A000000000000000000000000000000000000000000000000000000000 DUP2 MSTORE PUSH1 0x4 ADD PUSH2 0xF65 SWAP1 PUSH2 0x5182 JUMP JUMPDEST PUSH1 0x40 MLOAD DUP1 SWAP2 SUB SWAP1 REVERT JUMPDEST PUSH1 0x4 PUSH1 0x0 DUP4 DUP2 MSTORE PUSH1 0x20 ADD SWAP1 DUP2 MSTORE PUSH1 0x20 ADD PUSH1 0x0 KECCAK256 PUSH1 0x0 SWAP1 SLOAD SWAP1 PUSH2 0x100 EXP SWAP1 DIV PUSH20 0xFFFFFFFFFFFFFFFFFFFFFFFFFFFFFFFFFFFFFFFF AND SWAP1 POP SWAP2 SWAP1 POP JUMP JUMPDEST PUSH1 0x0 PUSH2 0xFB4 DUP3 PUSH2 0x1B70 JUMP JUMPDEST SWAP1 POP DUP1 PUSH20 0xFFFFFFFFFFFFFFFFFFFFFFFFFFFFFFFFFFFFFFFF AND DUP4 PUSH20 0xFFFFFFFFFFFFFFFFFFFFFFFFFFFFFFFFFFFFFFFF AND EQ ISZERO PUSH2 0x1025 JUMPI PUSH1 0x40 MLOAD PUSH32 0x8C379A000000000000000000000000000000000000000000000000000000000 DUP2 MSTORE PUSH1 0x4 ADD PUSH2 0x101C SWAP1 PUSH2 0x51C2 JUMP JUMPDEST PUSH1 0x40 MLOAD DUP1 SWAP2 SUB SWAP1 REVERT JUMPDEST DUP1 PUSH20 0xFFFFFFFFFFFFFFFFFFFFFFFFFFFFFFFFFFFFFFFF AND PUSH2 0x1044 PUSH2 0x2917 JUMP JUMPDEST PUSH20 0xFFFFFFFFFFFFFFFFFFFFFFFFFFFFFFFFFFFFFFFF AND EQ DUP1 PUSH2 0x1073 JUMPI POP PUSH2 0x1072 DUP2 PUSH2 0x106D PUSH2 0x2917 JUMP JUMPDEST PUSH2 0x2610 JUMP JUMPDEST JUMPDEST PUSH2 0x10B2 JUMPI PUSH1 0x40 MLOAD PUSH32 0x8C379A000000000000000000000000000000000000000000000000000000000 DUP2 MSTORE PUSH1 0x4 ADD PUSH2 0x10A9 SWAP1 PUSH2 0x50E2 JUMP JUMPDEST PUSH1 0x40 MLOAD DUP1 SWAP2 SUB SWAP1 REVERT JUMPDEST PUSH2 0x10BC DUP4 DUP4 PUSH2 0x291F JUMP JUMPDEST POP POP POP JUMP JUMPDEST PUSH2 0x418 PUSH1 0x20 MSTORE DUP1 PUSH1 0x0 MSTORE PUSH1 0x40 PUSH1 0x0 KECCAK256 PUSH1 0x0 SWAP2 POP SLOAD SWAP1 PUSH2 0x100 EXP SWAP1 DIV PUSH1 0xFF AND DUP2 JUMP JUMPDEST PUSH1 0x60 PUSH2 0x415 PUSH1 0x0 DUP4 DUP2 MSTORE PUSH1 0x20 ADD SWAP1 DUP2 MSTORE PUSH1 0x20 ADD PUSH1 0x0 KECCAK256 DUP1 SLOAD DUP1 PUSH1 0x20 MUL PUSH1 0x20 ADD PUSH1 0x40 MLOAD SWAP1 DUP2 ADD PUSH1 0x40 MSTORE DUP1 SWAP3 SWAP2 SWAP1 DUP2 DUP2 MSTORE PUSH1 0x20 ADD DUP3 DUP1 SLOAD DUP1 ISZERO PUSH2 0x1142 JUMPI PUSH1 0x20 MUL DUP3 ADD SWAP2 SWAP1 PUSH1 0x0 MSTORE PUSH1 0x20 PUSH1 0x0 KECCAK256 SWAP1 JUMPDEST DUP2 SLOAD DUP2 MSTORE PUSH1 0x20 ADD SWAP1 PUSH1 0x1 ADD SWAP1 DUP1 DUP4 GT PUSH2 0x112E JUMPI JUMPDEST POP POP POP POP POP SWAP1 POP SWAP2 SWAP1 POP JUMP JUMPDEST PUSH1 0x0 PUSH2 0x416 PUSH1 0x0 DUP4 DUP2 MSTORE PUSH1 0x20 ADD SWAP1 DUP2 MSTORE PUSH1 0x20 ADD PUSH1 0x0 KECCAK256 PUSH1 0x0 SWAP1 SLOAD SWAP1 PUSH2 0x100 EXP SWAP1 DIV PUSH20 0xFFFFFFFFFFFFFFFFFFFFFFFFFFFFFFFFFFFFFFFF AND SWAP1 POP SWAP2 SWAP1 POP JUMP JUMPDEST PUSH1 0x0 PUSH1 0x8 DUP1 SLOAD SWAP1 POP SWAP1 POP SWAP1 JUMP JUMPDEST PUSH2 0x411 PUSH1 0x20 MSTORE DUP1 PUSH1 0x0 MSTORE PUSH1 0x40 PUSH1 0x0 KECCAK256 PUSH1 0x0 SWAP2 POP SLOAD SWAP1 PUSH2 0x100 EXP SWAP1 DIV PUSH20 0xFFFFFFFFFFFFFFFFFFFFFFFFFFFFFFFFFFFFFFFF AND DUP2 JUMP JUMPDEST PUSH2 0x417 PUSH1 0x20 MSTORE DUP1 PUSH1 0x0 MSTORE PUSH1 0x40 PUSH1 0x0 KECCAK256 PUSH1 0x0 SWAP2 POP SWAP1 POP SLOAD DUP2 JUMP JUMPDEST PUSH2 0x11EE PUSH2 0x2917 JUMP JUMPDEST PUSH20 0xFFFFFFFFFFFFFFFFFFFFFFFFFFFFFFFFFFFFFFFF AND PUSH2 0x120C PUSH2 0x1DCF JUMP JUMPDEST PUSH20 0xFFFFFFFFFFFFFFFFFFFFFFFFFFFFFFFFFFFFFFFF AND EQ PUSH2 0x1262 JUMPI PUSH1 0x40 MLOAD PUSH32 0x8C379A000000000000000000000000000000000000000000000000000000000 DUP2 MSTORE PUSH1 0x4 ADD PUSH2 0x1259 SWAP1 PUSH2 0x51A2 JUMP JUMPDEST PUSH1 0x40 MLOAD DUP1 SWAP2 SUB SWAP1 REVERT JUMPDEST PUSH1 0x0 PUSH2 0x413 PUSH1 0x0 DUP4 PUSH20 0xFFFFFFFFFFFFFFFFFFFFFFFFFFFFFFFFFFFFFFFF AND PUSH20 0xFFFFFFFFFFFFFFFFFFFFFFFFFFFFFFFFFFFFFFFF AND DUP2 MSTORE PUSH1 0x20 ADD SWAP1 DUP2 MSTORE PUSH1 0x20 ADD PUSH1 0x0 KECCAK256 PUSH1 0x0 PUSH2 0x100 EXP DUP2 SLOAD DUP2 PUSH1 0xFF MUL NOT AND SWAP1 DUP4 ISZERO ISZERO MUL OR SWAP1 SSTORE POP PUSH2 0x12E5 PUSH32 0xB696DF569C2DFECB5A24EDFD39D7F55B0F442BE14350CBC68DBE8EB35489D3A6 DUP3 PUSH2 0x29D8 JUMP JUMPDEST POP JUMP JUMPDEST PUSH2 0x12F9 PUSH2 0x12F3 PUSH2 0x2917 JUMP JUMPDEST DUP3 PUSH2 0x2ABA JUMP JUMPDEST PUSH2 0x1338 JUMPI PUSH1 0x40 MLOAD PUSH32 0x8C379A000000000000000000000000000000000000000000000000000000000 DUP2 MSTORE PUSH1 0x4 ADD PUSH2 0x132F SWAP1 PUSH2 0x51E2 JUMP JUMPDEST PUSH1 0x40 MLOAD DUP1 SWAP2 SUB SWAP1 REVERT JUMPDEST PUSH2 0x1343 DUP4 DUP4 DUP4 PUSH2 0x2B98 JUMP JUMPDEST POP POP POP JUMP JUMPDEST PUSH1 0x0 PUSH1 0xB PUSH1 0x0 DUP4 DUP2 MSTORE PUSH1 0x20 ADD SWAP1 DUP2 MSTORE PUSH1 0x20 ADD PUSH1 0x0 KECCAK256 PUSH1 0x1 ADD SLOAD SWAP1 POP SWAP2 SWAP1 POP JUMP JUMPDEST PUSH2 0x412 PUSH1 0x20 MSTORE DUP2 PUSH1 0x0 MSTORE PUSH1 0x40 PUSH1 0x0 KECCAK256 DUP2 DUP2 SLOAD DUP2 LT PUSH2 0x1385 JUMPI PUSH1 0x0 DUP1 REVERT JUMPDEST SWAP1 PUSH1 0x0 MSTORE PUSH1 0x20 PUSH1 0x0 KECCAK256 ADD PUSH1 0x0 SWAP2 POP SWAP2 POP POP SLOAD DUP2 JUMP JUMPDEST PUSH2 0x13A3 DUP3 PUSH2 0x1348 JUMP JUMPDEST PUSH2 0x13AC DUP2 PUSH2 0x2DFF JUMP JUMPDEST PUSH2 0x13B6 DUP4 DUP4 PUSH2 0x2E13 JUMP JUMPDEST POP POP POP JUMP JUMPDEST PUSH1 0x0 PUSH2 0x13C6 DUP4 PUSH2 0x1C28 JUMP JUMPDEST DUP3 LT PUSH2 0x1407 JUMPI PUSH1 0x40 MLOAD PUSH32 0x8C379A000000000000000000000000000000000000000000000000000000000 DUP2 MSTORE PUSH1 0x4 ADD PUSH2 0x13FE SWAP1 PUSH2 0x4F82 JUMP JUMPDEST PUSH1 0x40 MLOAD DUP1 SWAP2 SUB SWAP1 REVERT JUMPDEST PUSH1 0x6 PUSH1 0x0 DUP5 PUSH20 0xFFFFFFFFFFFFFFFFFFFFFFFFFFFFFFFFFFFFFFFF AND PUSH20 0xFFFFFFFFFFFFFFFFFFFFFFFFFFFFFFFFFFFFFFFF AND DUP2 MSTORE PUSH1 0x20 ADD SWAP1 DUP2 MSTORE PUSH1 0x20 ADD PUSH1 0x0 KECCAK256 PUSH1 0x0 DUP4 DUP2 MSTORE PUSH1 0x20 ADD SWAP1 DUP2 MSTORE PUSH1 0x20 ADD PUSH1 0x0 KECCAK256 SLOAD SWAP1 POP SWAP3 SWAP2 POP POP JUMP JUMPDEST PUSH2 0x40C PUSH1 0x0 SWAP1 SLOAD SWAP1 PUSH2 0x100 EXP SWAP1 DIV PUSH8 0xFFFFFFFFFFFFFFFF AND DUP2 JUMP JUMPDEST PUSH2 0x1483 PUSH2 0x2917 JUMP JUMPDEST PUSH20 0xFFFFFFFFFFFFFFFFFFFFFFFFFFFFFFFFFFFFFFFF AND DUP2 PUSH20 0xFFFFFFFFFFFFFFFFFFFFFFFFFFFFFFFFFFFFFFFF AND EQ PUSH2 0x14F0 JUMPI PUSH1 0x40 MLOAD PUSH32 0x8C379A000000000000000000000000000000000000000000000000000000000 DUP2 MSTORE PUSH1 0x4 ADD PUSH2 0x14E7 SWAP1 PUSH2 0x5282 JUMP JUMPDEST PUSH1 0x40 MLOAD DUP1 SWAP2 SUB SWAP1 REVERT JUMPDEST PUSH2 0x14FA DUP3 DUP3 PUSH2 0x29D8 JUMP JUMPDEST POP POP JUMP JUMPDEST PUSH2 0x410 PUSH1 0x20 MSTORE DUP1 PUSH1 0x0 MSTORE PUSH1 0x40 PUSH1 0x0 KECCAK256 PUSH1 0x0 SWAP2 POP SWAP1 POP DUP1 PUSH1 0x0 ADD SLOAD SWAP1 POP DUP2 JUMP JUMPDEST PUSH1 0x0 PUSH2 0x410 PUSH1 0x0 DUP4 DUP2 MSTORE PUSH1 0x20 ADD SWAP1 DUP2 MSTORE PUSH1 0x20 ADD PUSH1 0x0 KECCAK256 PUSH1 0x0 ADD SLOAD SWAP1 POP SWAP2 SWAP1 POP JUMP JUMPDEST PUSH32 0x9F2DF0FED2C77648DE5860A4CC508CD0818C85B8B8A1AB4CEEEF8D981C8956A6 PUSH2 0x1568 DUP2 PUSH2 0x2DFF JUMP JUMPDEST PUSH2 0x40A SLOAD PUSH2 0x3E8 GT PUSH2 0x15AF JUMPI PUSH1 0x40 MLOAD PUSH32 0x8C379A000000000000000000000000000000000000000000000000000000000 DUP2 MSTORE PUSH1 0x4 ADD PUSH2 0x15A6 SWAP1 PUSH2 0x5162 JUMP JUMPDEST PUSH1 0x40 MLOAD DUP1 SWAP2 SUB SWAP1 REVERT JUMPDEST CALLVALUE PUSH2 0x40C PUSH1 0x0 SWAP1 SLOAD SWAP1 PUSH2 0x100 EXP SWAP1 DIV PUSH8 0xFFFFFFFFFFFFFFFF AND PUSH8 0xFFFFFFFFFFFFFFFF AND GT ISZERO PUSH2 0x1613 JUMPI PUSH1 0x40 MLOAD PUSH32 0x8C379A000000000000000000000000000000000000000000000000000000000 DUP2 MSTORE PUSH1 0x4 ADD PUSH2 0x160A SWAP1 PUSH2 0x50C2 JUMP JUMPDEST PUSH1 0x40 MLOAD DUP1 SWAP2 SUB SWAP1 REVERT JUMPDEST PUSH1 0x0 PUSH2 0x40A SLOAD SWAP1 POP PUSH2 0x1632 PUSH1 0x1 PUSH2 0x40A SLOAD PUSH2 0x2EF4 SWAP1 SWAP2 SWAP1 PUSH4 0xFFFFFFFF AND JUMP JUMPDEST PUSH2 0x40A DUP2 SWAP1 SSTORE POP PUSH1 0x0 PUSH2 0x1643 PUSH2 0x2F0A JUMP JUMPDEST SWAP1 POP PUSH1 0x40 MLOAD DUP1 PUSH1 0x20 ADD PUSH1 0x40 MSTORE DUP1 DUP3 PUSH1 0x0 ADD MLOAD DUP2 MSTORE POP PUSH2 0x410 PUSH1 0x0 DUP5 DUP2 MSTORE PUSH1 0x20 ADD SWAP1 DUP2 MSTORE PUSH1 0x20 ADD PUSH1 0x0 KECCAK256 PUSH1 0x0 DUP3 ADD MLOAD DUP2 PUSH1 0x0 ADD SSTORE SWAP1 POP POP PUSH1 0x0 ISZERO ISZERO PUSH2 0x418 PUSH1 0x0 DUP4 PUSH1 0x0 ADD MLOAD DUP2 MSTORE PUSH1 0x20 ADD SWAP1 DUP2 MSTORE PUSH1 0x20 ADD PUSH1 0x0 KECCAK256 PUSH1 0x0 SWAP1 SLOAD SWAP1 PUSH2 0x100 EXP SWAP1 DIV PUSH1 0xFF AND ISZERO ISZERO EQ PUSH2 0x16E5 JUMPI PUSH1 0x40 MLOAD PUSH32 0x8C379A000000000000000000000000000000000000000000000000000000000 DUP2 MSTORE PUSH1 0x4 ADD PUSH2 0x16DC SWAP1 PUSH2 0x5262 JUMP JUMPDEST PUSH1 0x40 MLOAD DUP1 SWAP2 SUB SWAP1 REVERT JUMPDEST PUSH1 0x1 PUSH2 0x418 PUSH1 0x0 DUP4 PUSH1 0x0 ADD MLOAD DUP2 MSTORE PUSH1 0x20 ADD SWAP1 DUP2 MSTORE PUSH1 0x20 ADD PUSH1 0x0 KECCAK256 PUSH1 0x0 PUSH2 0x100 EXP DUP2 SLOAD DUP2 PUSH1 0xFF MUL NOT AND SWAP1 DUP4 ISZERO ISZERO MUL OR SWAP1 SSTORE POP DUP4 PUSH2 0x411 PUSH1 0x0 DUP5 DUP2 MSTORE PUSH1 0x20 ADD SWAP1 DUP2 MSTORE PUSH1 0x20 ADD PUSH1 0x0 KECCAK256 PUSH1 0x0 PUSH2 0x100 EXP DUP2 SLOAD DUP2 PUSH20 0xFFFFFFFFFFFFFFFFFFFFFFFFFFFFFFFFFFFFFFFF MUL NOT AND SWAP1 DUP4 PUSH20 0xFFFFFFFFFFFFFFFFFFFFFFFFFFFFFFFFFFFFFFFF AND MUL OR SWAP1 SSTORE POP PUSH2 0x412 PUSH1 0x0 CALLER PUSH20 0xFFFFFFFFFFFFFFFFFFFFFFFFFFFFFFFFFFFFFFFF AND PUSH20 0xFFFFFFFFFFFFFFFFFFFFFFFFFFFFFFFFFFFFFFFF AND DUP2 MSTORE PUSH1 0x20 ADD SWAP1 DUP2 MSTORE PUSH1 0x20 ADD PUSH1 0x0 KECCAK256 DUP2 PUSH1 0x0 ADD MLOAD SWAP1 DUP1 PUSH1 0x1 DUP2 SLOAD ADD DUP1 DUP3 SSTORE DUP1 SWAP2 POP POP PUSH1 0x1 SWAP1 SUB SWAP1 PUSH1 0x0 MSTORE PUSH1 0x20 PUSH1 0x0 KECCAK256 ADD PUSH1 0x0 SWAP1 SWAP2 SWAP1 SWAP2 SWAP1 SWAP2 POP SSTORE PUSH2 0x414 DUP2 PUSH1 0x0 ADD MLOAD SWAP1 DUP1 PUSH1 0x1 DUP2 SLOAD ADD DUP1 DUP3 SSTORE DUP1 SWAP2 POP POP PUSH1 0x1 SWAP1 SUB SWAP1 PUSH1 0x0 MSTORE PUSH1 0x20 PUSH1 0x0 KECCAK256 ADD PUSH1 0x0 SWAP1 SWAP2 SWAP1 SWAP2 SWAP1 SWAP2 POP SSTORE PUSH2 0x415 PUSH1 0x0 DUP1 DUP2 MSTORE PUSH1 0x20 ADD SWAP1 DUP2 MSTORE PUSH1 0x20 ADD PUSH1 0x0 KECCAK256 DUP2 PUSH1 0x0 ADD MLOAD SWAP1 DUP1 PUSH1 0x1 DUP2 SLOAD ADD DUP1 DUP3 SSTORE DUP1 SWAP2 POP POP PUSH1 0x1 SWAP1 SUB SWAP1 PUSH1 0x0 MSTORE PUSH1 0x20 PUSH1 0x0 KECCAK256 ADD PUSH1 0x0 SWAP1 SWAP2 SWAP1 SWAP2 SWAP1 SWAP2 POP SSTORE CALLER PUSH2 0x416 PUSH1 0x0 DUP4 PUSH1 0x0 ADD MLOAD DUP2 MSTORE PUSH1 0x20 ADD SWAP1 DUP2 MSTORE PUSH1 0x20 ADD PUSH1 0x0 KECCAK256 PUSH1 0x0 PUSH2 0x100 EXP DUP2 SLOAD DUP2 PUSH20 0xFFFFFFFFFFFFFFFFFFFFFFFFFFFFFFFFFFFFFFFF MUL NOT AND SWAP1 DUP4 PUSH20 0xFFFFFFFFFFFFFFFFFFFFFFFFFFFFFFFFFFFFFFFF AND MUL OR SWAP1 SSTORE POP DUP2 PUSH2 0x417 PUSH1 0x0 DUP4 PUSH1 0x0 ADD MLOAD DUP2 MSTORE PUSH1 0x20 ADD SWAP1 DUP2 MSTORE PUSH1 0x20 ADD PUSH1 0x0 KECCAK256 DUP2 SWAP1 SSTORE POP PUSH2 0x18BF DUP5 DUP4 PUSH2 0x2F7E JUMP JUMPDEST POP POP POP POP JUMP JUMPDEST PUSH2 0x18E0 DUP4 DUP4 DUP4 PUSH1 0x40 MLOAD DUP1 PUSH1 0x20 ADD PUSH1 0x40 MSTORE DUP1 PUSH1 0x0 DUP2 MSTORE POP PUSH2 0x1FD9 JUMP JUMPDEST POP POP POP JUMP JUMPDEST PUSH1 0x0 CALLVALUE CALLER PUSH20 0xFFFFFFFFFFFFFFFFFFFFFFFFFFFFFFFFFFFFFFFF AND BALANCE LT ISZERO PUSH2 0x1941 JUMPI PUSH1 0x40 MLOAD PUSH32 0x8C379A000000000000000000000000000000000000000000000000000000000 DUP2 MSTORE PUSH1 0x4 ADD PUSH2 0x1938 SWAP1 PUSH2 0x5242 JUMP JUMPDEST PUSH1 0x40 MLOAD DUP1 SWAP2 SUB SWAP1 REVERT JUMPDEST CALLVALUE PUSH2 0x40C PUSH1 0x0 SWAP1 SLOAD SWAP1 PUSH2 0x100 EXP SWAP1 DIV PUSH8 0xFFFFFFFFFFFFFFFF AND PUSH8 0xFFFFFFFFFFFFFFFF AND EQ PUSH2 0x19A4 JUMPI PUSH1 0x40 MLOAD PUSH32 0x8C379A000000000000000000000000000000000000000000000000000000000 DUP2 MSTORE PUSH1 0x4 ADD PUSH2 0x199B SWAP1 PUSH2 0x5002 JUMP JUMPDEST PUSH1 0x40 MLOAD DUP1 SWAP2 SUB SWAP1 REVERT JUMPDEST PUSH1 0x0 PUSH2 0x40E PUSH1 0x0 SWAP1 SLOAD SWAP1 PUSH2 0x100 EXP SWAP1 DIV PUSH20 0xFFFFFFFFFFFFFFFFFFFFFFFFFFFFFFFFFFFFFFFF AND PUSH20 0xFFFFFFFFFFFFFFFFFFFFFFFFFFFFFFFFFFFFFFFF AND CALLVALUE PUSH1 0x40 MLOAD PUSH2 0x19ED SWAP1 PUSH2 0x4DE4 JUMP JUMPDEST PUSH1 0x0 PUSH1 0x40 MLOAD DUP1 DUP4 SUB DUP2 DUP6 DUP8 GAS CALL SWAP3 POP POP POP RETURNDATASIZE DUP1 PUSH1 0x0 DUP2 EQ PUSH2 0x1A2A JUMPI PUSH1 0x40 MLOAD SWAP2 POP PUSH1 0x1F NOT PUSH1 0x3F RETURNDATASIZE ADD AND DUP3 ADD PUSH1 0x40 MSTORE RETURNDATASIZE DUP3 MSTORE RETURNDATASIZE PUSH1 0x0 PUSH1 0x20 DUP5 ADD RETURNDATACOPY PUSH2 0x1A2F JUMP JUMPDEST PUSH1 0x60 SWAP2 POP JUMPDEST POP POP SWAP1 POP DUP1 PUSH2 0x1A73 JUMPI PUSH1 0x40 MLOAD PUSH32 0x8C379A000000000000000000000000000000000000000000000000000000000 DUP2 MSTORE PUSH1 0x4 ADD PUSH2 0x1A6A SWAP1 PUSH2 0x5042 JUMP JUMPDEST PUSH1 0x40 MLOAD DUP1 SWAP2 SUB SWAP1 REVERT JUMPDEST PUSH2 0x1A89 CALLVALUE PUSH2 0x40D SLOAD PUSH2 0x2EF4 SWAP1 SWAP2 SWAP1 PUSH4 0xFFFFFFFF AND JUMP JUMPDEST PUSH2 0x40D DUP2 SWAP1 SSTORE POP PUSH2 0x1ABA PUSH32 0x9F2DF0FED2C77648DE5860A4CC508CD0818C85B8B8A1AB4CEEEF8D981C8956A6 CALLER PUSH2 0x2E13 JUMP JUMPDEST PUSH1 0x1 SWAP2 POP POP SWAP1 JUMP JUMPDEST PUSH1 0x0 PUSH2 0x417 PUSH1 0x0 DUP4 DUP2 MSTORE PUSH1 0x20 ADD SWAP1 DUP2 MSTORE PUSH1 0x20 ADD PUSH1 0x0 KECCAK256 SLOAD SWAP1 POP SWAP2 SWAP1 POP JUMP JUMPDEST PUSH2 0x2724 DUP2 JUMP JUMPDEST PUSH1 0x0 PUSH2 0x1AF0 PUSH2 0x118C JUMP JUMPDEST DUP3 LT PUSH2 0x1B31 JUMPI PUSH1 0x40 MLOAD PUSH32 0x8C379A000000000000000000000000000000000000000000000000000000000 DUP2 MSTORE PUSH1 0x4 ADD PUSH2 0x1B28 SWAP1 PUSH2 0x5222 JUMP JUMPDEST PUSH1 0x40 MLOAD DUP1 SWAP2 SUB SWAP1 REVERT JUMPDEST PUSH1 0x8 DUP3 DUP2 SLOAD DUP2 LT PUSH2 0x1B45 JUMPI PUSH2 0x1B44 PUSH2 0x57AE JUMP JUMPDEST JUMPDEST SWAP1 PUSH1 0x0 MSTORE PUSH1 0x20 PUSH1 0x0 KECCAK256 ADD SLOAD SWAP1 POP SWAP2 SWAP1 POP JUMP JUMPDEST PUSH2 0x1B5F PUSH2 0x18E5 JUMP JUMPDEST ISZERO PUSH2 0x1B6E JUMPI PUSH2 0x1B6D CALLER PUSH2 0x203B JUMP JUMPDEST JUMPDEST JUMP JUMPDEST PUSH1 0x0 DUP1 PUSH1 0x2 PUSH1 0x0 DUP5 DUP2 MSTORE PUSH1 0x20 ADD SWAP1 DUP2 MSTORE PUSH1 0x20 ADD PUSH1 0x0 KECCAK256 PUSH1 0x0 SWAP1 SLOAD SWAP1 PUSH2 0x100 EXP SWAP1 DIV PUSH20 0xFFFFFFFFFFFFFFFFFFFFFFFFFFFFFFFFFFFFFFFF AND SWAP1 POP PUSH1 0x0 PUSH20 0xFFFFFFFFFFFFFFFFFFFFFFFFFFFFFFFFFFFFFFFF AND DUP2 PUSH20 0xFFFFFFFFFFFFFFFFFFFFFFFFFFFFFFFFFFFFFFFF AND EQ ISZERO PUSH2 0x1C19 JUMPI PUSH1 0x40 MLOAD PUSH32 0x8C379A000000000000000000000000000000000000000000000000000000000 DUP2 MSTORE PUSH1 0x4 ADD PUSH2 0x1C10 SWAP1 PUSH2 0x5122 JUMP JUMPDEST PUSH1 0x40 MLOAD DUP1 SWAP2 SUB SWAP1 REVERT JUMPDEST DUP1 SWAP2 POP POP SWAP2 SWAP1 POP JUMP JUMPDEST PUSH2 0x3E8 DUP2 JUMP JUMPDEST PUSH1 0x0 DUP1 PUSH20 0xFFFFFFFFFFFFFFFFFFFFFFFFFFFFFFFFFFFFFFFF AND DUP3 PUSH20 0xFFFFFFFFFFFFFFFFFFFFFFFFFFFFFFFFFFFFFFFF AND EQ ISZERO PUSH2 0x1C99 JUMPI PUSH1 0x40 MLOAD PUSH32 0x8C379A000000000000000000000000000000000000000000000000000000000 DUP2 MSTORE PUSH1 0x4 ADD PUSH2 0x1C90 SWAP1 PUSH2 0x5102 JUMP JUMPDEST PUSH1 0x40 MLOAD DUP1 SWAP2 SUB SWAP1 REVERT JUMPDEST PUSH1 0x3 PUSH1 0x0 DUP4 PUSH20 0xFFFFFFFFFFFFFFFFFFFFFFFFFFFFFFFFFFFFFFFF AND PUSH20 0xFFFFFFFFFFFFFFFFFFFFFFFFFFFFFFFFFFFFFFFF AND DUP2 MSTORE PUSH1 0x20 ADD SWAP1 DUP2 MSTORE PUSH1 0x20 ADD PUSH1 0x0 KECCAK256 SLOAD SWAP1 POP SWAP2 SWAP1 POP JUMP JUMPDEST PUSH2 0x1CE8 PUSH2 0x2917 JUMP JUMPDEST PUSH20 0xFFFFFFFFFFFFFFFFFFFFFFFFFFFFFFFFFFFFFFFF AND PUSH2 0x1D06 PUSH2 0x1DCF JUMP JUMPDEST PUSH20 0xFFFFFFFFFFFFFFFFFFFFFFFFFFFFFFFFFFFFFFFF AND EQ PUSH2 0x1D5C JUMPI PUSH1 0x40 MLOAD PUSH32 0x8C379A000000000000000000000000000000000000000000000000000000000 DUP2 MSTORE PUSH1 0x4 ADD PUSH2 0x1D53 SWAP1 PUSH2 0x51A2 JUMP JUMPDEST PUSH1 0x40 MLOAD DUP1 SWAP2 SUB SWAP1 REVERT JUMPDEST PUSH2 0x1D66 PUSH1 0x0 PUSH2 0x3158 JUMP JUMPDEST JUMP JUMPDEST PUSH2 0x1D70 PUSH2 0x18E5 JUMP JUMPDEST ISZERO PUSH2 0x1DA9 JUMPI PUSH2 0x1D7E CALLER PUSH2 0x153E JUMP JUMPDEST PUSH2 0x1DA8 PUSH32 0x9F2DF0FED2C77648DE5860A4CC508CD0818C85B8B8A1AB4CEEEF8D981C8956A6 CALLER PUSH2 0x147B JUMP JUMPDEST JUMPDEST JUMP JUMPDEST PUSH32 0xB696DF569C2DFECB5A24EDFD39D7F55B0F442BE14350CBC68DBE8EB35489D3A6 DUP2 JUMP JUMPDEST PUSH1 0x0 PUSH1 0xA PUSH1 0x0 SWAP1 SLOAD SWAP1 PUSH2 0x100 EXP SWAP1 DIV PUSH20 0xFFFFFFFFFFFFFFFFFFFFFFFFFFFFFFFFFFFFFFFF AND SWAP1 POP SWAP1 JUMP JUMPDEST PUSH1 0x60 PUSH2 0x412 PUSH1 0x0 DUP4 PUSH20 0xFFFFFFFFFFFFFFFFFFFFFFFFFFFFFFFFFFFFFFFF AND PUSH20 0xFFFFFFFFFFFFFFFFFFFFFFFFFFFFFFFFFFFFFFFF AND DUP2 MSTORE PUSH1 0x20 ADD SWAP1 DUP2 MSTORE PUSH1 0x20 ADD PUSH1 0x0 KECCAK256 DUP1 SLOAD DUP1 PUSH1 0x20 MUL PUSH1 0x20 ADD PUSH1 0x40 MLOAD SWAP1 DUP2 ADD PUSH1 0x40 MSTORE DUP1 SWAP3 SWAP2 SWAP1 DUP2 DUP2 MSTORE PUSH1 0x20 ADD DUP3 DUP1 SLOAD DUP1 ISZERO PUSH2 0x1E85 JUMPI PUSH1 0x20 MUL DUP3 ADD SWAP2 SWAP1 PUSH1 0x0 MSTORE PUSH1 0x20 PUSH1 0x0 KECCAK256 SWAP1 JUMPDEST DUP2 SLOAD DUP2 MSTORE PUSH1 0x20 ADD SWAP1 PUSH1 0x1 ADD SWAP1 DUP1 DUP4 GT PUSH2 0x1E71 JUMPI JUMPDEST POP POP POP POP POP SWAP1 POP SWAP2 SWAP1 POP JUMP JUMPDEST PUSH1 0x0 PUSH1 0xB PUSH1 0x0 DUP5 DUP2 MSTORE PUSH1 0x20 ADD SWAP1 DUP2 MSTORE PUSH1 0x20 ADD PUSH1 0x0 KECCAK256 PUSH1 0x0 ADD PUSH1 0x0 DUP4 PUSH20 0xFFFFFFFFFFFFFFFFFFFFFFFFFFFFFFFFFFFFFFFF AND PUSH20 0xFFFFFFFFFFFFFFFFFFFFFFFFFFFFFFFFFFFFFFFF AND DUP2 MSTORE PUSH1 0x20 ADD SWAP1 DUP2 MSTORE PUSH1 0x20 ADD PUSH1 0x0 KECCAK256 PUSH1 0x0 SWAP1 SLOAD SWAP1 PUSH2 0x100 EXP SWAP1 DIV PUSH1 0xFF AND SWAP1 POP SWAP3 SWAP2 POP POP JUMP JUMPDEST PUSH1 0x60 PUSH1 0x1 DUP1 SLOAD PUSH2 0x1F0B SWAP1 PUSH2 0x55DD JUMP JUMPDEST DUP1 PUSH1 0x1F ADD PUSH1 0x20 DUP1 SWAP2 DIV MUL PUSH1 0x20 ADD PUSH1 0x40 MLOAD SWAP1 DUP2 ADD PUSH1 0x40 MSTORE DUP1 SWAP3 SWAP2 SWAP1 DUP2 DUP2 MSTORE PUSH1 0x20 ADD DUP3 DUP1 SLOAD PUSH2 0x1F37 SWAP1 PUSH2 0x55DD JUMP JUMPDEST DUP1 ISZERO PUSH2 0x1F84 JUMPI DUP1 PUSH1 0x1F LT PUSH2 0x1F59 JUMPI PUSH2 0x100 DUP1 DUP4 SLOAD DIV MUL DUP4 MSTORE SWAP2 PUSH1 0x20 ADD SWAP2 PUSH2 0x1F84 JUMP JUMPDEST DUP3 ADD SWAP2 SWAP1 PUSH1 0x0 MSTORE PUSH1 0x20 PUSH1 0x0 KECCAK256 SWAP1 JUMPDEST DUP2 SLOAD DUP2 MSTORE SWAP1 PUSH1 0x1 ADD SWAP1 PUSH1 0x20 ADD DUP1 DUP4 GT PUSH2 0x1F67 JUMPI DUP3 SWAP1 SUB PUSH1 0x1F AND DUP3 ADD SWAP2 JUMPDEST POP POP POP POP POP SWAP1 POP SWAP1 JUMP JUMPDEST PUSH1 0x0 DUP1 SHL DUP2 JUMP JUMPDEST PUSH2 0x1FA7 PUSH2 0x1FA0 PUSH2 0x2917 JUMP JUMPDEST DUP4 DUP4 PUSH2 0x321E JUMP JUMPDEST POP POP JUMP JUMPDEST PUSH2 0x40E PUSH1 0x0 SWAP1 SLOAD SWAP1 PUSH2 0x100 EXP SWAP1 DIV PUSH20 0xFFFFFFFFFFFFFFFFFFFFFFFFFFFFFFFFFFFFFFFF AND DUP2 JUMP JUMPDEST PUSH2 0x40B SLOAD DUP2 JUMP JUMPDEST PUSH2 0x1FEA PUSH2 0x1FE4 PUSH2 0x2917 JUMP JUMPDEST DUP4 PUSH2 0x2ABA JUMP JUMPDEST PUSH2 0x2029 JUMPI PUSH1 0x40 MLOAD PUSH32 0x8C379A000000000000000000000000000000000000000000000000000000000 DUP2 MSTORE PUSH1 0x4 ADD PUSH2 0x2020 SWAP1 PUSH2 0x51E2 JUMP JUMPDEST PUSH1 0x40 MLOAD DUP1 SWAP2 SUB SWAP1 REVERT JUMPDEST PUSH2 0x2035 DUP5 DUP5 DUP5 DUP5 PUSH2 0x338B JUMP JUMPDEST POP POP POP POP JUMP JUMPDEST PUSH32 0xB696DF569C2DFECB5A24EDFD39D7F55B0F442BE14350CBC68DBE8EB35489D3A6 PUSH2 0x2065 DUP2 PUSH2 0x2DFF JUMP JUMPDEST PUSH1 0x1 ISZERO ISZERO PUSH2 0x413 PUSH1 0x0 CALLER PUSH20 0xFFFFFFFFFFFFFFFFFFFFFFFFFFFFFFFFFFFFFFFF AND PUSH20 0xFFFFFFFFFFFFFFFFFFFFFFFFFFFFFFFFFFFFFFFF AND DUP2 MSTORE PUSH1 0x20 ADD SWAP1 DUP2 MSTORE PUSH1 0x20 ADD PUSH1 0x0 KECCAK256 PUSH1 0x0 SWAP1 SLOAD SWAP1 PUSH2 0x100 EXP SWAP1 DIV PUSH1 0xFF AND ISZERO ISZERO EQ PUSH2 0x20C3 JUMPI PUSH1 0x0 DUP1 REVERT JUMPDEST PUSH2 0x40B SLOAD PUSH2 0x2724 GT PUSH2 0x210A JUMPI PUSH1 0x40 MLOAD PUSH32 0x8C379A000000000000000000000000000000000000000000000000000000000 DUP2 MSTORE PUSH1 0x4 ADD PUSH2 0x2101 SWAP1 PUSH2 0x5162 JUMP JUMPDEST PUSH1 0x40 MLOAD DUP1 SWAP2 SUB SWAP1 REVERT JUMPDEST CALLVALUE PUSH2 0x40C PUSH1 0x0 SWAP1 SLOAD SWAP1 PUSH2 0x100 EXP SWAP1 DIV PUSH8 0xFFFFFFFFFFFFFFFF AND PUSH8 0xFFFFFFFFFFFFFFFF AND GT ISZERO PUSH2 0x216E JUMPI PUSH1 0x40 MLOAD PUSH32 0x8C379A000000000000000000000000000000000000000000000000000000000 DUP2 MSTORE PUSH1 0x4 ADD PUSH2 0x2165 SWAP1 PUSH2 0x50C2 JUMP JUMPDEST PUSH1 0x40 MLOAD DUP1 SWAP2 SUB SWAP1 REVERT JUMPDEST PUSH1 0x0 PUSH2 0x40B SLOAD SWAP1 POP PUSH2 0x218D PUSH1 0x1 PUSH2 0x40B SLOAD PUSH2 0x2EF4 SWAP1 SWAP2 SWAP1 PUSH4 0xFFFFFFFF AND JUMP JUMPDEST PUSH2 0x40B DUP2 SWAP1 SSTORE POP PUSH1 0x0 PUSH2 0x219E PUSH2 0x33E7 JUMP JUMPDEST SWAP1 POP PUSH1 0x40 MLOAD DUP1 PUSH1 0x20 ADD PUSH1 0x40 MSTORE DUP1 DUP3 PUSH1 0x0 ADD MLOAD DUP2 MSTORE POP PUSH2 0x410 PUSH1 0x0 DUP5 DUP2 MSTORE PUSH1 0x20 ADD SWAP1 DUP2 MSTORE PUSH1 0x20 ADD PUSH1 0x0 KECCAK256 PUSH1 0x0 DUP3 ADD MLOAD DUP2 PUSH1 0x0 ADD SSTORE SWAP1 POP POP PUSH1 0x0 ISZERO ISZERO PUSH2 0x418 PUSH1 0x0 DUP4 PUSH1 0x0 ADD MLOAD DUP2 MSTORE PUSH1 0x20 ADD SWAP1 DUP2 MSTORE PUSH1 0x20 ADD PUSH1 0x0 KECCAK256 PUSH1 0x0 SWAP1 SLOAD SWAP1 PUSH2 0x100 EXP SWAP1 DIV PUSH1 0xFF AND ISZERO ISZERO EQ PUSH2 0x2240 JUMPI PUSH1 0x40 MLOAD PUSH32 0x8C379A000000000000000000000000000000000000000000000000000000000 DUP2 MSTORE PUSH1 0x4 ADD PUSH2 0x2237 SWAP1 PUSH2 0x5262 JUMP JUMPDEST PUSH1 0x40 MLOAD DUP1 SWAP2 SUB SWAP1 REVERT JUMPDEST PUSH1 0x1 PUSH2 0x418 PUSH1 0x0 DUP4 PUSH1 0x0 ADD MLOAD DUP2 MSTORE PUSH1 0x20 ADD SWAP1 DUP2 MSTORE PUSH1 0x20 ADD PUSH1 0x0 KECCAK256 PUSH1 0x0 PUSH2 0x100 EXP DUP2 SLOAD DUP2 PUSH1 0xFF MUL NOT AND SWAP1 DUP4 ISZERO ISZERO MUL OR SWAP1 SSTORE POP DUP4 PUSH2 0x411 PUSH1 0x0 DUP5 DUP2 MSTORE PUSH1 0x20 ADD SWAP1 DUP2 MSTORE PUSH1 0x20 ADD PUSH1 0x0 KECCAK256 PUSH1 0x0 PUSH2 0x100 EXP DUP2 SLOAD DUP2 PUSH20 0xFFFFFFFFFFFFFFFFFFFFFFFFFFFFFFFFFFFFFFFF MUL NOT AND SWAP1 DUP4 PUSH20 0xFFFFFFFFFFFFFFFFFFFFFFFFFFFFFFFFFFFFFFFF AND MUL OR SWAP1 SSTORE POP PUSH2 0x412 PUSH1 0x0 CALLER PUSH20 0xFFFFFFFFFFFFFFFFFFFFFFFFFFFFFFFFFFFFFFFF AND PUSH20 0xFFFFFFFFFFFFFFFFFFFFFFFFFFFFFFFFFFFFFFFF AND DUP2 MSTORE PUSH1 0x20 ADD SWAP1 DUP2 MSTORE PUSH1 0x20 ADD PUSH1 0x0 KECCAK256 DUP2 PUSH1 0x0 ADD MLOAD SWAP1 DUP1 PUSH1 0x1 DUP2 SLOAD ADD DUP1 DUP3 SSTORE DUP1 SWAP2 POP POP PUSH1 0x1 SWAP1 SUB SWAP1 PUSH1 0x0 MSTORE PUSH1 0x20 PUSH1 0x0 KECCAK256 ADD PUSH1 0x0 SWAP1 SWAP2 SWAP1 SWAP2 SWAP1 SWAP2 POP SSTORE PUSH2 0x415 PUSH1 0x0 DUP1 DUP2 MSTORE PUSH1 0x20 ADD SWAP1 DUP2 MSTORE PUSH1 0x20 ADD PUSH1 0x0 KECCAK256 DUP2 PUSH1 0x0 ADD MLOAD SWAP1 DUP1 PUSH1 0x1 DUP2 SLOAD ADD DUP1 DUP3 SSTORE DUP1 SWAP2 POP POP PUSH1 0x1 SWAP1 SUB SWAP1 PUSH1 0x0 MSTORE PUSH1 0x20 PUSH1 0x0 KECCAK256 ADD PUSH1 0x0 SWAP1 SWAP2 SWAP1 SWAP2 SWAP1 SWAP2 POP SSTORE PUSH2 0x414 DUP2 PUSH1 0x0 ADD MLOAD SWAP1 DUP1 PUSH1 0x1 DUP2 SLOAD ADD DUP1 DUP3 SSTORE DUP1 SWAP2 POP POP PUSH1 0x1 SWAP1 SUB SWAP1 PUSH1 0x0 MSTORE PUSH1 0x20 PUSH1 0x0 KECCAK256 ADD PUSH1 0x0 SWAP1 SWAP2 SWAP1 SWAP2 SWAP1 SWAP2 POP SSTORE CALLER PUSH2 0x416 PUSH1 0x0 DUP4 PUSH1 0x0 ADD MLOAD DUP2 MSTORE PUSH1 0x20 ADD SWAP1 DUP2 MSTORE PUSH1 0x20 ADD PUSH1 0x0 KECCAK256 PUSH1 0x0 PUSH2 0x100 EXP DUP2 SLOAD DUP2 PUSH20 0xFFFFFFFFFFFFFFFFFFFFFFFFFFFFFFFFFFFFFFFF MUL NOT AND SWAP1 DUP4 PUSH20 0xFFFFFFFFFFFFFFFFFFFFFFFFFFFFFFFFFFFFFFFF AND MUL OR SWAP1 SSTORE POP DUP2 PUSH2 0x417 PUSH1 0x0 DUP4 PUSH1 0x0 ADD MLOAD DUP2 MSTORE PUSH1 0x20 ADD SWAP1 DUP2 MSTORE PUSH1 0x20 ADD PUSH1 0x0 KECCAK256 DUP2 SWAP1 SSTORE POP PUSH2 0x241A DUP5 DUP4 PUSH2 0x2F7E JUMP JUMPDEST POP POP POP POP JUMP JUMPDEST PUSH1 0x60 PUSH1 0x0 PUSH2 0x2444 PUSH2 0x410 PUSH1 0x0 DUP6 DUP2 MSTORE PUSH1 0x20 ADD SWAP1 DUP2 MSTORE PUSH1 0x20 ADD PUSH1 0x0 KECCAK256 PUSH1 0x0 ADD SLOAD PUSH2 0x345B JUMP JUMPDEST SWAP1 POP PUSH2 0x40F DUP2 PUSH1 0x40 MLOAD PUSH1 0x20 ADD PUSH2 0x245B SWAP3 SWAP2 SWAP1 PUSH2 0x4DAA JUMP JUMPDEST PUSH1 0x40 MLOAD PUSH1 0x20 DUP2 DUP4 SUB SUB DUP2 MSTORE SWAP1 PUSH1 0x40 MSTORE SWAP2 POP POP SWAP2 SWAP1 POP JUMP JUMPDEST PUSH32 0x9F2DF0FED2C77648DE5860A4CC508CD0818C85B8B8A1AB4CEEEF8D981C8956A6 DUP2 JUMP JUMPDEST PUSH2 0x249F DUP3 PUSH2 0x1348 JUMP JUMPDEST PUSH2 0x24A8 DUP2 PUSH2 0x2DFF JUMP JUMPDEST PUSH2 0x24B2 DUP4 DUP4 PUSH2 0x29D8 JUMP JUMPDEST POP POP POP JUMP JUMPDEST PUSH2 0x415 PUSH1 0x20 MSTORE DUP2 PUSH1 0x0 MSTORE PUSH1 0x40 PUSH1 0x0 KECCAK256 DUP2 DUP2 SLOAD DUP2 LT PUSH2 0x24D4 JUMPI PUSH1 0x0 DUP1 REVERT JUMPDEST SWAP1 PUSH1 0x0 MSTORE PUSH1 0x20 PUSH1 0x0 KECCAK256 ADD PUSH1 0x0 SWAP2 POP SWAP2 POP POP SLOAD DUP2 JUMP JUMPDEST PUSH2 0x24F1 PUSH2 0x2917 JUMP JUMPDEST PUSH20 0xFFFFFFFFFFFFFFFFFFFFFFFFFFFFFFFFFFFFFFFF AND PUSH2 0x250F PUSH2 0x1DCF JUMP JUMPDEST PUSH20 0xFFFFFFFFFFFFFFFFFFFFFFFFFFFFFFFFFFFFFFFF AND EQ PUSH2 0x2565 JUMPI PUSH1 0x40 MLOAD PUSH32 0x8C379A000000000000000000000000000000000000000000000000000000000 DUP2 MSTORE PUSH1 0x4 ADD PUSH2 0x255C SWAP1 PUSH2 0x51A2 JUMP JUMPDEST PUSH1 0x40 MLOAD DUP1 SWAP2 SUB SWAP1 REVERT JUMPDEST PUSH1 0x1 PUSH2 0x413 PUSH1 0x0 DUP4 PUSH20 0xFFFFFFFFFFFFFFFFFFFFFFFFFFFFFFFFFFFFFFFF AND PUSH20 0xFFFFFFFFFFFFFFFFFFFFFFFFFFFFFFFFFFFFFFFF AND DUP2 MSTORE PUSH1 0x20 ADD SWAP1 DUP2 MSTORE PUSH1 0x20 ADD PUSH1 0x0 KECCAK256 PUSH1 0x0 PUSH2 0x100 EXP DUP2 SLOAD DUP2 PUSH1 0xFF MUL NOT AND SWAP1 DUP4 ISZERO ISZERO MUL OR SWAP1 SSTORE POP PUSH2 0x25E8 PUSH32 0xB696DF569C2DFECB5A24EDFD39D7F55B0F442BE14350CBC68DBE8EB35489D3A6 DUP3 PUSH2 0x2E13 JUMP JUMPDEST POP JUMP JUMPDEST PUSH2 0x414 DUP2 DUP2 SLOAD DUP2 LT PUSH2 0x25FC JUMPI PUSH1 0x0 DUP1 REVERT JUMPDEST SWAP1 PUSH1 0x0 MSTORE PUSH1 0x20 PUSH1 0x0 KECCAK256 ADD PUSH1 0x0 SWAP2 POP SWAP1 POP SLOAD DUP2 JUMP JUMPDEST PUSH1 0x0 PUSH1 0x5 PUSH1 0x0 DUP5 PUSH20 0xFFFFFFFFFFFFFFFFFFFFFFFFFFFFFFFFFFFFFFFF AND PUSH20 0xFFFFFFFFFFFFFFFFFFFFFFFFFFFFFFFFFFFFFFFF AND DUP2 MSTORE PUSH1 0x20 ADD SWAP1 DUP2 MSTORE PUSH1 0x20 ADD PUSH1 0x0 KECCAK256 PUSH1 0x0 DUP4 PUSH20 0xFFFFFFFFFFFFFFFFFFFFFFFFFFFFFFFFFFFFFFFF AND PUSH20 0xFFFFFFFFFFFFFFFFFFFFFFFFFFFFFFFFFFFFFFFF AND DUP2 MSTORE PUSH1 0x20 ADD SWAP1 DUP2 MSTORE PUSH1 0x20 ADD PUSH1 0x0 KECCAK256 PUSH1 0x0 SWAP1 SLOAD SWAP1 PUSH2 0x100 EXP SWAP1 DIV PUSH1 0xFF AND SWAP1 POP SWAP3 SWAP2 POP POP JUMP JUMPDEST PUSH1 0x0 PUSH2 0x414 PUSH1 0x1 PUSH2 0x414 DUP1 SLOAD SWAP1 POP PUSH2 0x26BC SWAP2 SWAP1 PUSH2 0x54AB JUMP JUMPDEST DUP2 SLOAD DUP2 LT PUSH2 0x26CD JUMPI PUSH2 0x26CC PUSH2 0x57AE JUMP JUMPDEST JUMPDEST SWAP1 PUSH1 0x0 MSTORE PUSH1 0x20 PUSH1 0x0 KECCAK256 ADD SLOAD SWAP1 POP SWAP1 JUMP JUMPDEST PUSH2 0x40A SLOAD DUP2 JUMP JUMPDEST PUSH2 0x26EC PUSH2 0x2917 JUMP JUMPDEST PUSH20 0xFFFFFFFFFFFFFFFFFFFFFFFFFFFFFFFFFFFFFFFF AND PUSH2 0x270A PUSH2 0x1DCF JUMP JUMPDEST PUSH20 0xFFFFFFFFFFFFFFFFFFFFFFFFFFFFFFFFFFFFFFFF AND EQ PUSH2 0x2760 JUMPI PUSH1 0x40 MLOAD PUSH32 0x8C379A000000000000000000000000000000000000000000000000000000000 DUP2 MSTORE PUSH1 0x4 ADD PUSH2 0x2757 SWAP1 PUSH2 0x51A2 JUMP JUMPDEST PUSH1 0x40 MLOAD DUP1 SWAP2 SUB SWAP1 REVERT JUMPDEST PUSH1 0x0 PUSH20 0xFFFFFFFFFFFFFFFFFFFFFFFFFFFFFFFFFFFFFFFF AND DUP2 PUSH20 0xFFFFFFFFFFFFFFFFFFFFFFFFFFFFFFFFFFFFFFFF AND EQ ISZERO PUSH2 0x27D0 JUMPI PUSH1 0x40 MLOAD PUSH32 0x8C379A000000000000000000000000000000000000000000000000000000000 DUP2 MSTORE PUSH1 0x4 ADD PUSH2 0x27C7 SWAP1 PUSH2 0x4FC2 JUMP JUMPDEST PUSH1 0x40 MLOAD DUP1 SWAP2 SUB SWAP1 REVERT JUMPDEST PUSH2 0x27D9 DUP2 PUSH2 0x3158 JUMP JUMPDEST POP JUMP JUMPDEST PUSH2 0x413 PUSH1 0x20 MSTORE DUP1 PUSH1 0x0 MSTORE PUSH1 0x40 PUSH1 0x0 KECCAK256 PUSH1 0x0 SWAP2 POP SLOAD SWAP1 PUSH2 0x100 EXP SWAP1 DIV PUSH1 0xFF AND DUP2 JUMP JUMPDEST PUSH2 0x416 PUSH1 0x20 MSTORE DUP1 PUSH1 0x0 MSTORE PUSH1 0x40 PUSH1 0x0 KECCAK256 PUSH1 0x0 SWAP2 POP SLOAD SWAP1 PUSH2 0x100 EXP SWAP1 DIV PUSH20 0xFFFFFFFFFFFFFFFFFFFFFFFFFFFFFFFFFFFFFFFF AND DUP2 JUMP JUMPDEST PUSH1 0x0 PUSH32 0x7965DB0B00000000000000000000000000000000000000000000000000000000 PUSH28 0xFFFFFFFFFFFFFFFFFFFFFFFFFFFFFFFFFFFFFFFFFFFFFFFFFFFFFFFF NOT AND DUP3 PUSH28 0xFFFFFFFFFFFFFFFFFFFFFFFFFFFFFFFFFFFFFFFFFFFFFFFFFFFFFFFF NOT AND EQ DUP1 PUSH2 0x28A4 JUMPI POP PUSH2 0x28A3 DUP3 PUSH2 0x35BC JUMP JUMPDEST JUMPDEST SWAP1 POP SWAP2 SWAP1 POP JUMP JUMPDEST PUSH1 0x0 DUP1 PUSH20 0xFFFFFFFFFFFFFFFFFFFFFFFFFFFFFFFFFFFFFFFF AND PUSH1 0x2 PUSH1 0x0 DUP5 DUP2 MSTORE PUSH1 0x20 ADD SWAP1 DUP2 MSTORE PUSH1 0x20 ADD PUSH1 0x0 KECCAK256 PUSH1 0x0 SWAP1 SLOAD SWAP1 PUSH2 0x100 EXP SWAP1 DIV PUSH20 0xFFFFFFFFFFFFFFFFFFFFFFFFFFFFFFFFFFFFFFFF AND PUSH20 0xFFFFFFFFFFFFFFFFFFFFFFFFFFFFFFFFFFFFFFFF AND EQ ISZERO SWAP1 POP SWAP2 SWAP1 POP JUMP JUMPDEST PUSH1 0x0 CALLER SWAP1 POP SWAP1 JUMP JUMPDEST DUP2 PUSH1 0x4 PUSH1 0x0 DUP4 DUP2 MSTORE PUSH1 0x20 ADD SWAP1 DUP2 MSTORE PUSH1 0x20 ADD PUSH1 0x0 KECCAK256 PUSH1 0x0 PUSH2 0x100 EXP DUP2 SLOAD DUP2 PUSH20 0xFFFFFFFFFFFFFFFFFFFFFFFFFFFFFFFFFFFFFFFF MUL NOT AND SWAP1 DUP4 PUSH20 0xFFFFFFFFFFFFFFFFFFFFFFFFFFFFFFFFFFFFFFFF AND MUL OR SWAP1 SSTORE POP DUP1 DUP3 PUSH20 0xFFFFFFFFFFFFFFFFFFFFFFFFFFFFFFFFFFFFFFFF AND PUSH2 0x2992 DUP4 PUSH2 0x1B70 JUMP JUMPDEST PUSH20 0xFFFFFFFFFFFFFFFFFFFFFFFFFFFFFFFFFFFFFFFF AND PUSH32 0x8C5BE1E5EBEC7D5BD14F71427D1E84F3DD0314C0F7B2291E5B200AC8C7C3B925 PUSH1 0x40 MLOAD PUSH1 0x40 MLOAD DUP1 SWAP2 SUB SWAP1 LOG4 POP POP JUMP JUMPDEST PUSH2 0x29E2 DUP3 DUP3 PUSH2 0x1E91 JUMP JUMPDEST ISZERO PUSH2 0x2AB6 JUMPI PUSH1 0x0 PUSH1 0xB PUSH1 0x0 DUP5 DUP2 MSTORE PUSH1 0x20 ADD SWAP1 DUP2 MSTORE PUSH1 0x20 ADD PUSH1 0x0 KECCAK256 PUSH1 0x0 ADD PUSH1 0x0 DUP4 PUSH20 0xFFFFFFFFFFFFFFFFFFFFFFFFFFFFFFFFFFFFFFFF AND PUSH20 0xFFFFFFFFFFFFFFFFFFFFFFFFFFFFFFFFFFFFFFFF AND DUP2 MSTORE PUSH1 0x20 ADD SWAP1 DUP2 MSTORE PUSH1 0x20 ADD PUSH1 0x0 KECCAK256 PUSH1 0x0 PUSH2 0x100 EXP DUP2 SLOAD DUP2 PUSH1 0xFF MUL NOT AND SWAP1 DUP4 ISZERO ISZERO MUL OR SWAP1 SSTORE POP PUSH2 0x2A5B PUSH2 0x2917 JUMP JUMPDEST PUSH20 0xFFFFFFFFFFFFFFFFFFFFFFFFFFFFFFFFFFFFFFFF AND DUP2 PUSH20 0xFFFFFFFFFFFFFFFFFFFFFFFFFFFFFFFFFFFFFFFF AND DUP4 PUSH32 0xF6391F5C32D9C69D2A47EA670B442974B53935D1EDC7FD64EB21E047A839171B PUSH1 0x40 MLOAD PUSH1 0x40 MLOAD DUP1 SWAP2 SUB SWAP1 LOG4 JUMPDEST POP POP JUMP JUMPDEST PUSH1 0x0 PUSH2 0x2AC5 DUP3 PUSH2 0x28AB JUMP JUMPDEST PUSH2 0x2B04 JUMPI PUSH1 0x40 MLOAD PUSH32 0x8C379A000000000000000000000000000000000000000000000000000000000 DUP2 MSTORE PUSH1 0x4 ADD PUSH2 0x2AFB SWAP1 PUSH2 0x50A2 JUMP JUMPDEST PUSH1 0x40 MLOAD DUP1 SWAP2 SUB SWAP1 REVERT JUMPDEST PUSH1 0x0 PUSH2 0x2B0F DUP4 PUSH2 0x1B70 JUMP JUMPDEST SWAP1 POP DUP1 PUSH20 0xFFFFFFFFFFFFFFFFFFFFFFFFFFFFFFFFFFFFFFFF AND DUP5 PUSH20 0xFFFFFFFFFFFFFFFFFFFFFFFFFFFFFFFFFFFFFFFF AND EQ DUP1 PUSH2 0x2B51 JUMPI POP PUSH2 0x2B50 DUP2 DUP6 PUSH2 0x2610 JUMP JUMPDEST JUMPDEST DUP1 PUSH2 0x2B8F JUMPI POP DUP4 PUSH20 0xFFFFFFFFFFFFFFFFFFFFFFFFFFFFFFFFFFFFFFFF AND PUSH2 0x2B77 DUP5 PUSH2 0xF24 JUMP JUMPDEST PUSH20 0xFFFFFFFFFFFFFFFFFFFFFFFFFFFFFFFFFFFFFFFF AND EQ JUMPDEST SWAP2 POP POP SWAP3 SWAP2 POP POP JUMP JUMPDEST DUP3 PUSH20 0xFFFFFFFFFFFFFFFFFFFFFFFFFFFFFFFFFFFFFFFF AND PUSH2 0x2BB8 DUP3 PUSH2 0x1B70 JUMP JUMPDEST PUSH20 0xFFFFFFFFFFFFFFFFFFFFFFFFFFFFFFFFFFFFFFFF AND EQ PUSH2 0x2C0E JUMPI PUSH1 0x40 MLOAD PUSH32 0x8C379A000000000000000000000000000000000000000000000000000000000 DUP2 MSTORE PUSH1 0x4 ADD PUSH2 0x2C05 SWAP1 PUSH2 0x4FE2 JUMP JUMPDEST PUSH1 0x40 MLOAD DUP1 SWAP2 SUB SWAP1 REVERT JUMPDEST PUSH1 0x0 PUSH20 0xFFFFFFFFFFFFFFFFFFFFFFFFFFFFFFFFFFFFFFFF AND DUP3 PUSH20 0xFFFFFFFFFFFFFFFFFFFFFFFFFFFFFFFFFFFFFFFF AND EQ ISZERO PUSH2 0x2C7E JUMPI PUSH1 0x40 MLOAD PUSH32 0x8C379A000000000000000000000000000000000000000000000000000000000 DUP2 MSTORE PUSH1 0x4 ADD PUSH2 0x2C75 SWAP1 PUSH2 0x5062 JUMP JUMPDEST PUSH1 0x40 MLOAD DUP1 SWAP2 SUB SWAP1 REVERT JUMPDEST PUSH2 0x2C89 DUP4 DUP4 DUP4 PUSH2 0x3636 JUMP JUMPDEST PUSH2 0x2C94 PUSH1 0x0 DUP3 PUSH2 0x291F JUMP JUMPDEST PUSH1 0x1 PUSH1 0x3 PUSH1 0x0 DUP6 PUSH20 0xFFFFFFFFFFFFFFFFFFFFFFFFFFFFFFFFFFFFFFFF AND PUSH20 0xFFFFFFFFFFFFFFFFFFFFFFFFFFFFFFFFFFFFFFFF AND DUP2 MSTORE PUSH1 0x20 ADD SWAP1 DUP2 MSTORE PUSH1 0x20 ADD PUSH1 0x0 KECCAK256 PUSH1 0x0 DUP3 DUP3 SLOAD PUSH2 0x2CE4 SWAP2 SWAP1 PUSH2 0x54AB JUMP JUMPDEST SWAP3 POP POP DUP2 SWAP1 SSTORE POP PUSH1 0x1 PUSH1 0x3 PUSH1 0x0 DUP5 PUSH20 0xFFFFFFFFFFFFFFFFFFFFFFFFFFFFFFFFFFFFFFFF AND PUSH20 0xFFFFFFFFFFFFFFFFFFFFFFFFFFFFFFFFFFFFFFFF AND DUP2 MSTORE PUSH1 0x20 ADD SWAP1 DUP2 MSTORE PUSH1 0x20 ADD PUSH1 0x0 KECCAK256 PUSH1 0x0 DUP3 DUP3 SLOAD PUSH2 0x2D3B SWAP2 SWAP1 PUSH2 0x53CA JUMP JUMPDEST SWAP3 POP POP DUP2 SWAP1 SSTORE POP DUP2 PUSH1 0x2 PUSH1 0x0 DUP4 DUP2 MSTORE PUSH1 0x20 ADD SWAP1 DUP2 MSTORE PUSH1 0x20 ADD PUSH1 0x0 KECCAK256 PUSH1 0x0 PUSH2 0x100 EXP DUP2 SLOAD DUP2 PUSH20 0xFFFFFFFFFFFFFFFFFFFFFFFFFFFFFFFFFFFFFFFF MUL NOT AND SWAP1 DUP4 PUSH20 0xFFFFFFFFFFFFFFFFFFFFFFFFFFFFFFFFFFFFFFFF AND MUL OR SWAP1 SSTORE POP DUP1 DUP3 PUSH20 0xFFFFFFFFFFFFFFFFFFFFFFFFFFFFFFFFFFFFFFFF AND DUP5 PUSH20 0xFFFFFFFFFFFFFFFFFFFFFFFFFFFFFFFFFFFFFFFF AND PUSH32 0xDDF252AD1BE2C89B69C2B068FC378DAA952BA7F163C4A11628F55A4DF523B3EF PUSH1 0x40 MLOAD PUSH1 0x40 MLOAD DUP1 SWAP2 SUB SWAP1 LOG4 PUSH2 0x2DFA DUP4 DUP4 DUP4 PUSH2 0x374A JUMP JUMPDEST POP POP POP JUMP JUMPDEST PUSH2 0x2E10 DUP2 PUSH2 0x2E0B PUSH2 0x2917 JUMP JUMPDEST PUSH2 0x374F JUMP JUMPDEST POP JUMP JUMPDEST PUSH2 0x2E1D DUP3 DUP3 PUSH2 0x1E91 JUMP JUMPDEST PUSH2 0x2EF0 JUMPI PUSH1 0x1 PUSH1 0xB PUSH1 0x0 DUP5 DUP2 MSTORE PUSH1 0x20 ADD SWAP1 DUP2 MSTORE PUSH1 0x20 ADD PUSH1 0x0 KECCAK256 PUSH1 0x0 ADD PUSH1 0x0 DUP4 PUSH20 0xFFFFFFFFFFFFFFFFFFFFFFFFFFFFFFFFFFFFFFFF AND PUSH20 0xFFFFFFFFFFFFFFFFFFFFFFFFFFFFFFFFFFFFFFFF AND DUP2 MSTORE PUSH1 0x20 ADD SWAP1 DUP2 MSTORE PUSH1 0x20 ADD PUSH1 0x0 KECCAK256 PUSH1 0x0 PUSH2 0x100 EXP DUP2 SLOAD DUP2 PUSH1 0xFF MUL NOT AND SWAP1 DUP4 ISZERO ISZERO MUL OR SWAP1 SSTORE POP PUSH2 0x2E95 PUSH2 0x2917 JUMP JUMPDEST PUSH20 0xFFFFFFFFFFFFFFFFFFFFFFFFFFFFFFFFFFFFFFFF AND DUP2 PUSH20 0xFFFFFFFFFFFFFFFFFFFFFFFFFFFFFFFFFFFFFFFF AND DUP4 PUSH32 0x2F8788117E7EFF1D82E926EC794901D17C78024A50270940304540A733656F0D PUSH1 0x40 MLOAD PUSH1 0x40 MLOAD DUP1 SWAP2 SUB SWAP1 LOG4 JUMPDEST POP POP JUMP JUMPDEST PUSH1 0x0 DUP2 DUP4 PUSH2 0x2F02 SWAP2 SWAP1 PUSH2 0x53CA JUMP JUMPDEST SWAP1 POP SWAP3 SWAP2 POP POP JUMP JUMPDEST PUSH2 0x2F12 PUSH2 0x433E JUMP JUMPDEST PUSH2 0x2F1A PUSH2 0x433E JUMP JUMPDEST PUSH1 0x0 PUSH2 0x408 SLOAD CALLER TIMESTAMP PUSH1 0x1 NUMBER PUSH2 0x2F2F SWAP2 SWAP1 PUSH2 0x54AB JUMP JUMPDEST BLOCKHASH PUSH1 0x40 MLOAD PUSH1 0x20 ADD PUSH2 0x2F43 SWAP5 SWAP4 SWAP3 SWAP2 SWAP1 PUSH2 0x4E33 JUMP JUMPDEST PUSH1 0x40 MLOAD PUSH1 0x20 DUP2 DUP4 SUB SUB DUP2 MSTORE SWAP1 PUSH1 0x40 MSTORE DUP1 MLOAD SWAP1 PUSH1 0x20 ADD KECCAK256 PUSH1 0x0 SHR SWAP1 POP PUSH1 0x0 PUSH2 0x2F69 DUP3 PUSH2 0x37EC JUMP JUMPDEST SWAP1 POP DUP1 DUP4 PUSH1 0x0 ADD DUP2 DUP2 MSTORE POP POP DUP3 SWAP4 POP POP POP POP SWAP1 JUMP JUMPDEST PUSH1 0x0 PUSH20 0xFFFFFFFFFFFFFFFFFFFFFFFFFFFFFFFFFFFFFFFF AND DUP3 PUSH20 0xFFFFFFFFFFFFFFFFFFFFFFFFFFFFFFFFFFFFFFFF AND EQ ISZERO PUSH2 0x2FEE JUMPI PUSH1 0x40 MLOAD PUSH32 0x8C379A000000000000000000000000000000000000000000000000000000000 DUP2 MSTORE PUSH1 0x4 ADD PUSH2 0x2FE5 SWAP1 PUSH2 0x5142 JUMP JUMPDEST PUSH1 0x40 MLOAD DUP1 SWAP2 SUB SWAP1 REVERT JUMPDEST PUSH2 0x2FF7 DUP2 PUSH2 0x28AB JUMP JUMPDEST ISZERO PUSH2 0x3037 JUMPI PUSH1 0x40 MLOAD PUSH32 0x8C379A000000000000000000000000000000000000000000000000000000000 DUP2 MSTORE PUSH1 0x4 ADD PUSH2 0x302E SWAP1 PUSH2 0x5022 JUMP JUMPDEST PUSH1 0x40 MLOAD DUP1 SWAP2 SUB SWAP1 REVERT JUMPDEST PUSH2 0x3043 PUSH1 0x0 DUP4 DUP4 PUSH2 0x3636 JUMP JUMPDEST PUSH1 0x1 PUSH1 0x3 PUSH1 0x0 DUP5 PUSH20 0xFFFFFFFFFFFFFFFFFFFFFFFFFFFFFFFFFFFFFFFF AND PUSH20 0xFFFFFFFFFFFFFFFFFFFFFFFFFFFFFFFFFFFFFFFF AND DUP2 MSTORE PUSH1 0x20 ADD SWAP1 DUP2 MSTORE PUSH1 0x20 ADD PUSH1 0x0 KECCAK256 PUSH1 0x0 DUP3 DUP3 SLOAD PUSH2 0x3093 SWAP2 SWAP1 PUSH2 0x53CA JUMP JUMPDEST SWAP3 POP POP DUP2 SWAP1 SSTORE POP DUP2 PUSH1 0x2 PUSH1 0x0 DUP4 DUP2 MSTORE PUSH1 0x20 ADD SWAP1 DUP2 MSTORE PUSH1 0x20 ADD PUSH1 0x0 KECCAK256 PUSH1 0x0 PUSH2 0x100 EXP DUP2 SLOAD DUP2 PUSH20 0xFFFFFFFFFFFFFFFFFFFFFFFFFFFFFFFFFFFFFFFF MUL NOT AND SWAP1 DUP4 PUSH20 0xFFFFFFFFFFFFFFFFFFFFFFFFFFFFFFFFFFFFFFFF AND MUL OR SWAP1 SSTORE POP DUP1 DUP3 PUSH20 0xFFFFFFFFFFFFFFFFFFFFFFFFFFFFFFFFFFFFFFFF AND PUSH1 0x0 PUSH20 0xFFFFFFFFFFFFFFFFFFFFFFFFFFFFFFFFFFFFFFFF AND PUSH32 0xDDF252AD1BE2C89B69C2B068FC378DAA952BA7F163C4A11628F55A4DF523B3EF PUSH1 0x40 MLOAD PUSH1 0x40 MLOAD DUP1 SWAP2 SUB SWAP1 LOG4 PUSH2 0x3154 PUSH1 0x0 DUP4 DUP4 PUSH2 0x374A JUMP JUMPDEST POP POP JUMP JUMPDEST PUSH1 0x0 PUSH1 0xA PUSH1 0x0 SWAP1 SLOAD SWAP1 PUSH2 0x100 EXP SWAP1 DIV PUSH20 0xFFFFFFFFFFFFFFFFFFFFFFFFFFFFFFFFFFFFFFFF AND SWAP1 POP DUP2 PUSH1 0xA PUSH1 0x0 PUSH2 0x100 EXP DUP2 SLOAD DUP2 PUSH20 0xFFFFFFFFFFFFFFFFFFFFFFFFFFFFFFFFFFFFFFFF MUL NOT AND SWAP1 DUP4 PUSH20 0xFFFFFFFFFFFFFFFFFFFFFFFFFFFFFFFFFFFFFFFF AND MUL OR SWAP1 SSTORE POP DUP2 PUSH20 0xFFFFFFFFFFFFFFFFFFFFFFFFFFFFFFFFFFFFFFFF AND DUP2 PUSH20 0xFFFFFFFFFFFFFFFFFFFFFFFFFFFFFFFFFFFFFFFF AND PUSH32 0x8BE0079C531659141344CD1FD0A4F28419497F9722A3DAAFE3B4186F6B6457E0 PUSH1 0x40 MLOAD PUSH1 0x40 MLOAD DUP1 SWAP2 SUB SWAP1 LOG3 POP POP JUMP JUMPDEST DUP2 PUSH20 0xFFFFFFFFFFFFFFFFFFFFFFFFFFFFFFFFFFFFFFFF AND DUP4 PUSH20 0xFFFFFFFFFFFFFFFFFFFFFFFFFFFFFFFFFFFFFFFF AND EQ ISZERO PUSH2 0x328D JUMPI PUSH1 0x40 MLOAD PUSH32 0x8C379A000000000000000000000000000000000000000000000000000000000 DUP2 MSTORE PUSH1 0x4 ADD PUSH2 0x3284 SWAP1 PUSH2 0x5082 JUMP JUMPDEST PUSH1 0x40 MLOAD DUP1 SWAP2 SUB SWAP1 REVERT JUMPDEST DUP1 PUSH1 0x5 PUSH1 0x0 DUP6 PUSH20 0xFFFFFFFFFFFFFFFFFFFFFFFFFFFFFFFFFFFFFFFF AND PUSH20 0xFFFFFFFFFFFFFFFFFFFFFFFFFFFFFFFFFFFFFFFF AND DUP2 MSTORE PUSH1 0x20 ADD SWAP1 DUP2 MSTORE PUSH1 0x20 ADD PUSH1 0x0 KECCAK256 PUSH1 0x0 DUP5 PUSH20 0xFFFFFFFFFFFFFFFFFFFFFFFFFFFFFFFFFFFFFFFF AND PUSH20 0xFFFFFFFFFFFFFFFFFFFFFFFFFFFFFFFFFFFFFFFF AND DUP2 MSTORE PUSH1 0x20 ADD SWAP1 DUP2 MSTORE PUSH1 0x20 ADD PUSH1 0x0 KECCAK256 PUSH1 0x0 PUSH2 0x100 EXP DUP2 SLOAD DUP2 PUSH1 0xFF MUL NOT AND SWAP1 DUP4 ISZERO ISZERO MUL OR SWAP1 SSTORE POP DUP2 PUSH20 0xFFFFFFFFFFFFFFFFFFFFFFFFFFFFFFFFFFFFFFFF AND DUP4 PUSH20 0xFFFFFFFFFFFFFFFFFFFFFFFFFFFFFFFFFFFFFFFF AND PUSH32 0x17307EAB39AB6107E8899845AD3D59BD9653F200F220920489CA2B5937696C31 DUP4 PUSH1 0x40 MLOAD PUSH2 0x337E SWAP2 SWAP1 PUSH2 0x4F0A JUMP JUMPDEST PUSH1 0x40 MLOAD DUP1 SWAP2 SUB SWAP1 LOG3 POP POP POP JUMP JUMPDEST PUSH2 0x3396 DUP5 DUP5 DUP5 PUSH2 0x2B98 JUMP JUMPDEST PUSH2 0x33A2 DUP5 DUP5 DUP5 DUP5 PUSH2 0x396E JUMP JUMPDEST PUSH2 0x33E1 JUMPI PUSH1 0x40 MLOAD PUSH32 0x8C379A000000000000000000000000000000000000000000000000000000000 DUP2 MSTORE PUSH1 0x4 ADD PUSH2 0x33D8 SWAP1 PUSH2 0x4FA2 JUMP JUMPDEST PUSH1 0x40 MLOAD DUP1 SWAP2 SUB SWAP1 REVERT JUMPDEST POP POP POP POP JUMP JUMPDEST PUSH2 0x33EF PUSH2 0x433E JUMP JUMPDEST PUSH2 0x33F7 PUSH2 0x433E JUMP JUMPDEST PUSH1 0x0 PUSH2 0x409 SLOAD CALLER TIMESTAMP PUSH1 0x1 NUMBER PUSH2 0x340C SWAP2 SWAP1 PUSH2 0x54AB JUMP JUMPDEST BLOCKHASH PUSH1 0x40 MLOAD PUSH1 0x20 ADD PUSH2 0x3420 SWAP5 SWAP4 SWAP3 SWAP2 SWAP1 PUSH2 0x4E33 JUMP JUMPDEST PUSH1 0x40 MLOAD PUSH1 0x20 DUP2 DUP4 SUB SUB DUP2 MSTORE SWAP1 PUSH1 0x40 MSTORE DUP1 MLOAD SWAP1 PUSH1 0x20 ADD KECCAK256 PUSH1 0x0 SHR SWAP1 POP PUSH1 0x0 PUSH2 0x3446 DUP3 PUSH2 0x3B05 JUMP JUMPDEST SWAP1 POP DUP1 DUP4 PUSH1 0x0 ADD DUP2 DUP2 MSTORE POP POP DUP3 SWAP4 POP POP POP POP SWAP1 JUMP JUMPDEST PUSH1 0x60 PUSH1 0x0 DUP3 EQ ISZERO PUSH2 0x34A3 JUMPI PUSH1 0x40 MLOAD DUP1 PUSH1 0x40 ADD PUSH1 0x40 MSTORE DUP1 PUSH1 0x1 DUP2 MSTORE PUSH1 0x20 ADD PUSH32 0x3000000000000000000000000000000000000000000000000000000000000000 DUP2 MSTORE POP SWAP1 POP PUSH2 0x35B7 JUMP JUMPDEST PUSH1 0x0 DUP3 SWAP1 POP PUSH1 0x0 JUMPDEST PUSH1 0x0 DUP3 EQ PUSH2 0x34D5 JUMPI DUP1 DUP1 PUSH2 0x34BE SWAP1 PUSH2 0x5640 JUMP JUMPDEST SWAP2 POP POP PUSH1 0xA DUP3 PUSH2 0x34CE SWAP2 SWAP1 PUSH2 0x5420 JUMP JUMPDEST SWAP2 POP PUSH2 0x34AB JUMP JUMPDEST PUSH1 0x0 DUP2 PUSH8 0xFFFFFFFFFFFFFFFF DUP2 GT ISZERO PUSH2 0x34F1 JUMPI PUSH2 0x34F0 PUSH2 0x57DD JUMP JUMPDEST JUMPDEST PUSH1 0x40 MLOAD SWAP1 DUP1 DUP3 MSTORE DUP1 PUSH1 0x1F ADD PUSH1 0x1F NOT AND PUSH1 0x20 ADD DUP3 ADD PUSH1 0x40 MSTORE DUP1 ISZERO PUSH2 0x3523 JUMPI DUP2 PUSH1 0x20 ADD PUSH1 0x1 DUP3 MUL DUP1 CALLDATASIZE DUP4 CALLDATACOPY DUP1 DUP3 ADD SWAP2 POP POP SWAP1 POP JUMPDEST POP SWAP1 POP JUMPDEST PUSH1 0x0 DUP6 EQ PUSH2 0x35B0 JUMPI PUSH1 0x1 DUP3 PUSH2 0x353C SWAP2 SWAP1 PUSH2 0x54AB JUMP JUMPDEST SWAP2 POP PUSH1 0xA DUP6 PUSH2 0x354B SWAP2 SWAP1 PUSH2 0x56C1 JUMP JUMPDEST PUSH1 0x30 PUSH2 0x3557 SWAP2 SWAP1 PUSH2 0x53CA JUMP JUMPDEST PUSH1 0xF8 SHL DUP2 DUP4 DUP2 MLOAD DUP2 LT PUSH2 0x356D JUMPI PUSH2 0x356C PUSH2 0x57AE JUMP JUMPDEST JUMPDEST PUSH1 0x20 ADD ADD SWAP1 PUSH31 0xFFFFFFFFFFFFFFFFFFFFFFFFFFFFFFFFFFFFFFFFFFFFFFFFFFFFFFFFFFFFFF NOT AND SWAP1 DUP2 PUSH1 0x0 BYTE SWAP1 MSTORE8 POP PUSH1 0xA DUP6 PUSH2 0x35A9 SWAP2 SWAP1 PUSH2 0x5420 JUMP JUMPDEST SWAP5 POP PUSH2 0x3527 JUMP JUMPDEST DUP1 SWAP4 POP POP POP POP JUMPDEST SWAP2 SWAP1 POP JUMP JUMPDEST PUSH1 0x0 PUSH32 0x780E9D6300000000000000000000000000000000000000000000000000000000 PUSH28 0xFFFFFFFFFFFFFFFFFFFFFFFFFFFFFFFFFFFFFFFFFFFFFFFFFFFFFFFF NOT AND DUP3 PUSH28 0xFFFFFFFFFFFFFFFFFFFFFFFFFFFFFFFFFFFFFFFFFFFFFFFFFFFFFFFF NOT AND EQ DUP1 PUSH2 0x362F JUMPI POP PUSH2 0x362E DUP3 PUSH2 0x3C88 JUMP JUMPDEST JUMPDEST SWAP1 POP SWAP2 SWAP1 POP JUMP JUMPDEST PUSH2 0x3641 DUP4 DUP4 DUP4 PUSH2 0x3D6A JUMP JUMPDEST PUSH1 0x0 PUSH20 0xFFFFFFFFFFFFFFFFFFFFFFFFFFFFFFFFFFFFFFFF AND DUP4 PUSH20 0xFFFFFFFFFFFFFFFFFFFFFFFFFFFFFFFFFFFFFFFF AND EQ ISZERO PUSH2 0x3684 JUMPI PUSH2 0x367F DUP2 PUSH2 0x3D6F JUMP JUMPDEST PUSH2 0x36C3 JUMP JUMPDEST DUP2 PUSH20 0xFFFFFFFFFFFFFFFFFFFFFFFFFFFFFFFFFFFFFFFF AND DUP4 PUSH20 0xFFFFFFFFFFFFFFFFFFFFFFFFFFFFFFFFFFFFFFFF AND EQ PUSH2 0x36C2 JUMPI PUSH2 0x36C1 DUP4 DUP3 PUSH2 0x3DB8 JUMP JUMPDEST JUMPDEST JUMPDEST PUSH1 0x0 PUSH20 0xFFFFFFFFFFFFFFFFFFFFFFFFFFFFFFFFFFFFFFFF AND DUP3 PUSH20 0xFFFFFFFFFFFFFFFFFFFFFFFFFFFFFFFFFFFFFFFF AND EQ ISZERO PUSH2 0x3706 JUMPI PUSH2 0x3701 DUP2 PUSH2 0x3F25 JUMP JUMPDEST PUSH2 0x3745 JUMP JUMPDEST DUP3 PUSH20 0xFFFFFFFFFFFFFFFFFFFFFFFFFFFFFFFFFFFFFFFF AND DUP3 PUSH20 0xFFFFFFFFFFFFFFFFFFFFFFFFFFFFFFFFFFFFFFFF AND EQ PUSH2 0x3744 JUMPI PUSH2 0x3743 DUP3 DUP3 PUSH2 0x3FF6 JUMP JUMPDEST JUMPDEST JUMPDEST POP POP POP JUMP JUMPDEST POP POP POP JUMP JUMPDEST PUSH2 0x3759 DUP3 DUP3 PUSH2 0x1E91 JUMP JUMPDEST PUSH2 0x37E8 JUMPI PUSH2 0x377E DUP2 PUSH20 0xFFFFFFFFFFFFFFFFFFFFFFFFFFFFFFFFFFFFFFFF AND PUSH1 0x14 PUSH2 0x4075 JUMP JUMPDEST PUSH2 0x378C DUP4 PUSH1 0x0 SHR PUSH1 0x20 PUSH2 0x4075 JUMP JUMPDEST PUSH1 0x40 MLOAD PUSH1 0x20 ADD PUSH2 0x379D SWAP3 SWAP2 SWAP1 PUSH2 0x4DF9 JUMP JUMPDEST PUSH1 0x40 MLOAD PUSH1 0x20 DUP2 DUP4 SUB SUB DUP2 MSTORE SWAP1 PUSH1 0x40 MSTORE PUSH1 0x40 MLOAD PUSH32 0x8C379A000000000000000000000000000000000000000000000000000000000 DUP2 MSTORE PUSH1 0x4 ADD PUSH2 0x37DF SWAP2 SWAP1 PUSH2 0x4F40 JUMP JUMPDEST PUSH1 0x40 MLOAD DUP1 SWAP2 SUB SWAP1 REVERT JUMPDEST POP POP JUMP JUMPDEST PUSH1 0x0 DUP1 PUSH2 0x408 PUSH1 0x0 DUP2 SLOAD DUP1 SWAP3 SWAP2 SWAP1 PUSH2 0x3803 SWAP1 PUSH2 0x5640 JUMP JUMPDEST SWAP2 SWAP1 POP SSTORE PUSH2 0x3E8 PUSH2 0x3814 SWAP2 SWAP1 PUSH2 0x54AB JUMP JUMPDEST SWAP1 POP PUSH1 0x0 DUP2 GT PUSH2 0x3859 JUMPI PUSH1 0x40 MLOAD PUSH32 0x8C379A000000000000000000000000000000000000000000000000000000000 DUP2 MSTORE PUSH1 0x4 ADD PUSH2 0x3850 SWAP1 PUSH2 0x5202 JUMP JUMPDEST PUSH1 0x40 MLOAD DUP1 SWAP2 SUB SWAP1 REVERT JUMPDEST PUSH1 0x0 DUP2 DUP5 PUSH2 0x3867 SWAP2 SWAP1 PUSH2 0x56C1 JUMP JUMPDEST SWAP1 POP PUSH1 0x0 DUP1 PUSH1 0xC DUP4 PUSH2 0x3E8 DUP2 LT PUSH2 0x3881 JUMPI PUSH2 0x3880 PUSH2 0x57AE JUMP JUMPDEST JUMPDEST ADD SLOAD EQ ISZERO PUSH2 0x389B JUMPI PUSH1 0x1 DUP3 PUSH2 0x3896 SWAP2 SWAP1 PUSH2 0x53CA JUMP JUMPDEST PUSH2 0x38BF JUMP JUMPDEST PUSH1 0x1 PUSH1 0xC DUP4 PUSH2 0x3E8 DUP2 LT PUSH2 0x38B2 JUMPI PUSH2 0x38B1 PUSH2 0x57AE JUMP JUMPDEST JUMPDEST ADD SLOAD PUSH2 0x38BE SWAP2 SWAP1 PUSH2 0x53CA JUMP JUMPDEST JUMPDEST SWAP1 POP PUSH1 0x0 PUSH1 0xC PUSH1 0x1 DUP6 PUSH2 0x38D2 SWAP2 SWAP1 PUSH2 0x54AB JUMP JUMPDEST PUSH2 0x3E8 DUP2 LT PUSH2 0x38E4 JUMPI PUSH2 0x38E3 PUSH2 0x57AE JUMP JUMPDEST JUMPDEST ADD SLOAD EQ PUSH2 0x3913 JUMPI PUSH1 0xC PUSH1 0x1 DUP5 PUSH2 0x38FA SWAP2 SWAP1 PUSH2 0x54AB JUMP JUMPDEST PUSH2 0x3E8 DUP2 LT PUSH2 0x390C JUMPI PUSH2 0x390B PUSH2 0x57AE JUMP JUMPDEST JUMPDEST ADD SLOAD PUSH2 0x3921 JUMP JUMPDEST PUSH1 0x1 DUP4 PUSH2 0x3920 SWAP2 SWAP1 PUSH2 0x54AB JUMP JUMPDEST JUMPDEST PUSH1 0xC DUP4 PUSH2 0x3E8 DUP2 LT PUSH2 0x3936 JUMPI PUSH2 0x3935 PUSH2 0x57AE JUMP JUMPDEST JUMPDEST ADD DUP2 SWAP1 SSTORE POP PUSH1 0x0 PUSH1 0xC PUSH1 0x1 DUP6 PUSH2 0x394C SWAP2 SWAP1 PUSH2 0x54AB JUMP JUMPDEST PUSH2 0x3E8 DUP2 LT PUSH2 0x395E JUMPI PUSH2 0x395D PUSH2 0x57AE JUMP JUMPDEST JUMPDEST ADD DUP2 SWAP1 SSTORE POP DUP1 SWAP4 POP POP POP POP SWAP2 SWAP1 POP JUMP JUMPDEST PUSH1 0x0 PUSH2 0x398F DUP5 PUSH20 0xFFFFFFFFFFFFFFFFFFFFFFFFFFFFFFFFFFFFFFFF AND PUSH2 0x42B1 JUMP JUMPDEST ISZERO PUSH2 0x3AF8 JUMPI DUP4 PUSH20 0xFFFFFFFFFFFFFFFFFFFFFFFFFFFFFFFFFFFFFFFF AND PUSH4 0x150B7A02 PUSH2 0x39B8 PUSH2 0x2917 JUMP JUMPDEST DUP8 DUP7 DUP7 PUSH1 0x40 MLOAD DUP6 PUSH4 0xFFFFFFFF AND PUSH1 0xE0 SHL DUP2 MSTORE PUSH1 0x4 ADD PUSH2 0x39DA SWAP5 SWAP4 SWAP3 SWAP2 SWAP1 PUSH2 0x4E9C JUMP JUMPDEST PUSH1 0x20 PUSH1 0x40 MLOAD DUP1 DUP4 SUB DUP2 PUSH1 0x0 DUP8 DUP1 EXTCODESIZE ISZERO DUP1 ISZERO PUSH2 0x39F4 JUMPI PUSH1 0x0 DUP1 REVERT JUMPDEST POP GAS CALL SWAP3 POP POP POP DUP1 ISZERO PUSH2 0x3A25 JUMPI POP PUSH1 0x40 MLOAD RETURNDATASIZE PUSH1 0x1F NOT PUSH1 0x1F DUP3 ADD AND DUP3 ADD DUP1 PUSH1 0x40 MSTORE POP DUP2 ADD SWAP1 PUSH2 0x3A22 SWAP2 SWAP1 PUSH2 0x469C JUMP JUMPDEST PUSH1 0x1 JUMPDEST PUSH2 0x3AA8 JUMPI RETURNDATASIZE DUP1 PUSH1 0x0 DUP2 EQ PUSH2 0x3A55 JUMPI PUSH1 0x40 MLOAD SWAP2 POP PUSH1 0x1F NOT PUSH1 0x3F RETURNDATASIZE ADD AND DUP3 ADD PUSH1 0x40 MSTORE RETURNDATASIZE DUP3 MSTORE RETURNDATASIZE PUSH1 0x0 PUSH1 0x20 DUP5 ADD RETURNDATACOPY PUSH2 0x3A5A JUMP JUMPDEST PUSH1 0x60 SWAP2 POP JUMPDEST POP PUSH1 0x0 DUP2 MLOAD EQ ISZERO PUSH2 0x3AA0 JUMPI PUSH1 0x40 MLOAD PUSH32 0x8C379A000000000000000000000000000000000000000000000000000000000 DUP2 MSTORE PUSH1 0x4 ADD PUSH2 0x3A97 SWAP1 PUSH2 0x4FA2 JUMP JUMPDEST PUSH1 0x40 MLOAD DUP1 SWAP2 SUB SWAP1 REVERT JUMPDEST DUP1 MLOAD DUP2 PUSH1 0x20 ADD REVERT JUMPDEST PUSH4 0x150B7A02 PUSH1 0xE0 SHL PUSH28 0xFFFFFFFFFFFFFFFFFFFFFFFFFFFFFFFFFFFFFFFFFFFFFFFFFFFFFFFF NOT AND DUP2 PUSH28 0xFFFFFFFFFFFFFFFFFFFFFFFFFFFFFFFFFFFFFFFFFFFFFFFFFFFFFFFF NOT AND EQ SWAP2 POP POP PUSH2 0x3AFD JUMP JUMPDEST PUSH1 0x1 SWAP1 POP JUMPDEST SWAP5 SWAP4 POP POP POP POP JUMP JUMPDEST PUSH1 0x0 DUP1 PUSH2 0x409 PUSH1 0x0 DUP2 SLOAD DUP1 SWAP3 SWAP2 SWAP1 PUSH2 0x3B1C SWAP1 PUSH2 0x5640 JUMP JUMPDEST SWAP2 SWAP1 POP SSTORE PUSH1 0x14 PUSH2 0x3B2C SWAP2 SWAP1 PUSH2 0x54AB JUMP JUMPDEST SWAP1 POP PUSH1 0x0 DUP2 GT PUSH2 0x3B71 JUMPI PUSH1 0x40 MLOAD PUSH32 0x8C379A000000000000000000000000000000000000000000000000000000000 DUP2 MSTORE PUSH1 0x4 ADD PUSH2 0x3B68 SWAP1 PUSH2 0x5202 JUMP JUMPDEST PUSH1 0x40 MLOAD DUP1 SWAP2 SUB SWAP1 REVERT JUMPDEST PUSH1 0x0 DUP2 DUP5 PUSH2 0x3B7F SWAP2 SWAP1 PUSH2 0x56C1 JUMP JUMPDEST SWAP1 POP PUSH1 0x0 DUP1 PUSH2 0x3F4 DUP4 PUSH1 0x14 DUP2 LT PUSH2 0x3B99 JUMPI PUSH2 0x3B98 PUSH2 0x57AE JUMP JUMPDEST JUMPDEST ADD SLOAD EQ ISZERO PUSH2 0x3BB4 JUMPI PUSH2 0x2710 DUP3 PUSH2 0x3BAF SWAP2 SWAP1 PUSH2 0x53CA JUMP JUMPDEST PUSH2 0x3BD9 JUMP JUMPDEST PUSH2 0x2710 PUSH2 0x3F4 DUP4 PUSH1 0x14 DUP2 LT PUSH2 0x3BCC JUMPI PUSH2 0x3BCB PUSH2 0x57AE JUMP JUMPDEST JUMPDEST ADD SLOAD PUSH2 0x3BD8 SWAP2 SWAP1 PUSH2 0x53CA JUMP JUMPDEST JUMPDEST SWAP1 POP PUSH1 0x0 PUSH2 0x3F4 PUSH1 0x1 DUP6 PUSH2 0x3BED SWAP2 SWAP1 PUSH2 0x54AB JUMP JUMPDEST PUSH1 0x14 DUP2 LT PUSH2 0x3BFE JUMPI PUSH2 0x3BFD PUSH2 0x57AE JUMP JUMPDEST JUMPDEST ADD SLOAD EQ PUSH2 0x3C2D JUMPI PUSH2 0x3F4 PUSH1 0x1 DUP5 PUSH2 0x3C15 SWAP2 SWAP1 PUSH2 0x54AB JUMP JUMPDEST PUSH1 0x14 DUP2 LT PUSH2 0x3C26 JUMPI PUSH2 0x3C25 PUSH2 0x57AE JUMP JUMPDEST JUMPDEST ADD SLOAD PUSH2 0x3C3B JUMP JUMPDEST PUSH1 0x1 DUP4 PUSH2 0x3C3A SWAP2 SWAP1 PUSH2 0x54AB JUMP JUMPDEST JUMPDEST PUSH2 0x3F4 DUP4 PUSH1 0x14 DUP2 LT PUSH2 0x3C50 JUMPI PUSH2 0x3C4F PUSH2 0x57AE JUMP JUMPDEST JUMPDEST ADD DUP2 SWAP1 SSTORE POP PUSH1 0x0 PUSH2 0x3F4 PUSH1 0x1 DUP6 PUSH2 0x3C67 SWAP2 SWAP1 PUSH2 0x54AB JUMP JUMPDEST PUSH1 0x14 DUP2 LT PUSH2 0x3C78 JUMPI PUSH2 0x3C77 PUSH2 0x57AE JUMP JUMPDEST JUMPDEST ADD DUP2 SWAP1 SSTORE POP DUP1 SWAP4 POP POP POP POP SWAP2 SWAP1 POP JUMP JUMPDEST PUSH1 0x0 PUSH32 0x80AC58CD00000000000000000000000000000000000000000000000000000000 PUSH28 0xFFFFFFFFFFFFFFFFFFFFFFFFFFFFFFFFFFFFFFFFFFFFFFFFFFFFFFFF NOT AND DUP3 PUSH28 0xFFFFFFFFFFFFFFFFFFFFFFFFFFFFFFFFFFFFFFFFFFFFFFFFFFFFFFFF NOT AND EQ DUP1 PUSH2 0x3D53 JUMPI POP PUSH32 0x5B5E139F00000000000000000000000000000000000000000000000000000000 PUSH28 0xFFFFFFFFFFFFFFFFFFFFFFFFFFFFFFFFFFFFFFFFFFFFFFFFFFFFFFFF NOT AND DUP3 PUSH28 0xFFFFFFFFFFFFFFFFFFFFFFFFFFFFFFFFFFFFFFFFFFFFFFFFFFFFFFFF NOT AND EQ JUMPDEST DUP1 PUSH2 0x3D63 JUMPI POP PUSH2 0x3D62 DUP3 PUSH2 0x42D4 JUMP JUMPDEST JUMPDEST SWAP1 POP SWAP2 SWAP1 POP JUMP JUMPDEST POP POP POP JUMP JUMPDEST PUSH1 0x8 DUP1 SLOAD SWAP1 POP PUSH1 0x9 PUSH1 0x0 DUP4 DUP2 MSTORE PUSH1 0x20 ADD SWAP1 DUP2 MSTORE PUSH1 0x20 ADD PUSH1 0x0 KECCAK256 DUP2 SWAP1 SSTORE POP PUSH1 0x8 DUP2 SWAP1 DUP1 PUSH1 0x1 DUP2 SLOAD ADD DUP1 DUP3 SSTORE DUP1 SWAP2 POP POP PUSH1 0x1 SWAP1 SUB SWAP1 PUSH1 0x0 MSTORE PUSH1 0x20 PUSH1 0x0 KECCAK256 ADD PUSH1 0x0 SWAP1 SWAP2 SWAP1 SWAP2 SWAP1 SWAP2 POP SSTORE POP JUMP JUMPDEST PUSH1 0x0 PUSH1 0x1 PUSH2 0x3DC5 DUP5 PUSH2 0x1C28 JUMP JUMPDEST PUSH2 0x3DCF SWAP2 SWAP1 PUSH2 0x54AB JUMP JUMPDEST SWAP1 POP PUSH1 0x0 PUSH1 0x7 PUSH1 0x0 DUP5 DUP2 MSTORE PUSH1 0x20 ADD SWAP1 DUP2 MSTORE PUSH1 0x20 ADD PUSH1 0x0 KECCAK256 SLOAD SWAP1 POP DUP2 DUP2 EQ PUSH2 0x3EB4 JUMPI PUSH1 0x0 PUSH1 0x6 PUSH1 0x0 DUP7 PUSH20 0xFFFFFFFFFFFFFFFFFFFFFFFFFFFFFFFFFFFFFFFF AND PUSH20 0xFFFFFFFFFFFFFFFFFFFFFFFFFFFFFFFFFFFFFFFF AND DUP2 MSTORE PUSH1 0x20 ADD SWAP1 DUP2 MSTORE PUSH1 0x20 ADD PUSH1 0x0 KECCAK256 PUSH1 0x0 DUP5 DUP2 MSTORE PUSH1 0x20 ADD SWAP1 DUP2 MSTORE PUSH1 0x20 ADD PUSH1 0x0 KECCAK256 SLOAD SWAP1 POP DUP1 PUSH1 0x6 PUSH1 0x0 DUP8 PUSH20 0xFFFFFFFFFFFFFFFFFFFFFFFFFFFFFFFFFFFFFFFF AND PUSH20 0xFFFFFFFFFFFFFFFFFFFFFFFFFFFFFFFFFFFFFFFF AND DUP2 MSTORE PUSH1 0x20 ADD SWAP1 DUP2 MSTORE PUSH1 0x20 ADD PUSH1 0x0 KECCAK256 PUSH1 0x0 DUP5 DUP2 MSTORE PUSH1 0x20 ADD SWAP1 DUP2 MSTORE PUSH1 0x20 ADD PUSH1 0x0 KECCAK256 DUP2 SWAP1 SSTORE POP DUP2 PUSH1 0x7 PUSH1 0x0 DUP4 DUP2 MSTORE PUSH1 0x20 ADD SWAP1 DUP2 MSTORE PUSH1 0x20 ADD PUSH1 0x0 KECCAK256 DUP2 SWAP1 SSTORE POP POP JUMPDEST PUSH1 0x7 PUSH1 0x0 DUP5 DUP2 MSTORE PUSH1 0x20 ADD SWAP1 DUP2 MSTORE PUSH1 0x20 ADD PUSH1 0x0 KECCAK256 PUSH1 0x0 SWAP1 SSTORE PUSH1 0x6 PUSH1 0x0 DUP6 PUSH20 0xFFFFFFFFFFFFFFFFFFFFFFFFFFFFFFFFFFFFFFFF AND PUSH20 0xFFFFFFFFFFFFFFFFFFFFFFFFFFFFFFFFFFFFFFFF AND DUP2 MSTORE PUSH1 0x20 ADD SWAP1 DUP2 MSTORE PUSH1 0x20 ADD PUSH1 0x0 KECCAK256 PUSH1 0x0 DUP4 DUP2 MSTORE PUSH1 0x20 ADD SWAP1 DUP2 MSTORE PUSH1 0x20 ADD PUSH1 0x0 KECCAK256 PUSH1 0x0 SWAP1 SSTORE POP POP POP POP JUMP JUMPDEST PUSH1 0x0 PUSH1 0x1 PUSH1 0x8 DUP1 SLOAD SWAP1 POP PUSH2 0x3F39 SWAP2 SWAP1 PUSH2 0x54AB JUMP JUMPDEST SWAP1 POP PUSH1 0x0 PUSH1 0x9 PUSH1 0x0 DUP5 DUP2 MSTORE PUSH1 0x20 ADD SWAP1 DUP2 MSTORE PUSH1 0x20 ADD PUSH1 0x0 KECCAK256 SLOAD SWAP1 POP PUSH1 0x0 PUSH1 0x8 DUP4 DUP2 SLOAD DUP2 LT PUSH2 0x3F69 JUMPI PUSH2 0x3F68 PUSH2 0x57AE JUMP JUMPDEST JUMPDEST SWAP1 PUSH1 0x0 MSTORE PUSH1 0x20 PUSH1 0x0 KECCAK256 ADD SLOAD SWAP1 POP DUP1 PUSH1 0x8 DUP4 DUP2 SLOAD DUP2 LT PUSH2 0x3F8B JUMPI PUSH2 0x3F8A PUSH2 0x57AE JUMP JUMPDEST JUMPDEST SWAP1 PUSH1 0x0 MSTORE PUSH1 0x20 PUSH1 0x0 KECCAK256 ADD DUP2 SWAP1 SSTORE POP DUP2 PUSH1 0x9 PUSH1 0x0 DUP4 DUP2 MSTORE PUSH1 0x20 ADD SWAP1 DUP2 MSTORE PUSH1 0x20 ADD PUSH1 0x0 KECCAK256 DUP2 SWAP1 SSTORE POP PUSH1 0x9 PUSH1 0x0 DUP6 DUP2 MSTORE PUSH1 0x20 ADD SWAP1 DUP2 MSTORE PUSH1 0x20 ADD PUSH1 0x0 KECCAK256 PUSH1 0x0 SWAP1 SSTORE PUSH1 0x8 DUP1 SLOAD DUP1 PUSH2 0x3FDA JUMPI PUSH2 0x3FD9 PUSH2 0x577F JUMP JUMPDEST JUMPDEST PUSH1 0x1 SWAP1 SUB DUP2 DUP2 SWAP1 PUSH1 0x0 MSTORE PUSH1 0x20 PUSH1 0x0 KECCAK256 ADD PUSH1 0x0 SWAP1 SSTORE SWAP1 SSTORE POP POP POP POP JUMP JUMPDEST PUSH1 0x0 PUSH2 0x4001 DUP4 PUSH2 0x1C28 JUMP JUMPDEST SWAP1 POP DUP2 PUSH1 0x6 PUSH1 0x0 DUP6 PUSH20 0xFFFFFFFFFFFFFFFFFFFFFFFFFFFFFFFFFFFFFFFF AND PUSH20 0xFFFFFFFFFFFFFFFFFFFFFFFFFFFFFFFFFFFFFFFF AND DUP2 MSTORE PUSH1 0x20 ADD SWAP1 DUP2 MSTORE PUSH1 0x20 ADD PUSH1 0x0 KECCAK256 PUSH1 0x0 DUP4 DUP2 MSTORE PUSH1 0x20 ADD SWAP1 DUP2 MSTORE PUSH1 0x20 ADD PUSH1 0x0 KECCAK256 DUP2 SWAP1 SSTORE POP DUP1 PUSH1 0x7 PUSH1 0x0 DUP5 DUP2 MSTORE PUSH1 0x20 ADD SWAP1 DUP2 MSTORE PUSH1 0x20 ADD PUSH1 0x0 KECCAK256 DUP2 SWAP1 SSTORE POP POP POP POP JUMP JUMPDEST PUSH1 0x60 PUSH1 0x0 PUSH1 0x2 DUP4 PUSH1 0x2 PUSH2 0x4088 SWAP2 SWAP1 PUSH2 0x5451 JUMP JUMPDEST PUSH2 0x4092 SWAP2 SWAP1 PUSH2 0x53CA JUMP JUMPDEST PUSH8 0xFFFFFFFFFFFFFFFF DUP2 GT ISZERO PUSH2 0x40AB JUMPI PUSH2 0x40AA PUSH2 0x57DD JUMP JUMPDEST JUMPDEST PUSH1 0x40 MLOAD SWAP1 DUP1 DUP3 MSTORE DUP1 PUSH1 0x1F ADD PUSH1 0x1F NOT AND PUSH1 0x20 ADD DUP3 ADD PUSH1 0x40 MSTORE DUP1 ISZERO PUSH2 0x40DD JUMPI DUP2 PUSH1 0x20 ADD PUSH1 0x1 DUP3 MUL DUP1 CALLDATASIZE DUP4 CALLDATACOPY DUP1 DUP3 ADD SWAP2 POP POP SWAP1 POP JUMPDEST POP SWAP1 POP PUSH32 0x3000000000000000000000000000000000000000000000000000000000000000 DUP2 PUSH1 0x0 DUP2 MLOAD DUP2 LT PUSH2 0x4115 JUMPI PUSH2 0x4114 PUSH2 0x57AE JUMP JUMPDEST JUMPDEST PUSH1 0x20 ADD ADD SWAP1 PUSH31 0xFFFFFFFFFFFFFFFFFFFFFFFFFFFFFFFFFFFFFFFFFFFFFFFFFFFFFFFFFFFFFF NOT AND SWAP1 DUP2 PUSH1 0x0 BYTE SWAP1 MSTORE8 POP PUSH32 0x7800000000000000000000000000000000000000000000000000000000000000 DUP2 PUSH1 0x1 DUP2 MLOAD DUP2 LT PUSH2 0x4179 JUMPI PUSH2 0x4178 PUSH2 0x57AE JUMP JUMPDEST JUMPDEST PUSH1 0x20 ADD ADD SWAP1 PUSH31 0xFFFFFFFFFFFFFFFFFFFFFFFFFFFFFFFFFFFFFFFFFFFFFFFFFFFFFFFFFFFFFF NOT AND SWAP1 DUP2 PUSH1 0x0 BYTE SWAP1 MSTORE8 POP PUSH1 0x0 PUSH1 0x1 DUP5 PUSH1 0x2 PUSH2 0x41B9 SWAP2 SWAP1 PUSH2 0x5451 JUMP JUMPDEST PUSH2 0x41C3 SWAP2 SWAP1 PUSH2 0x53CA JUMP JUMPDEST SWAP1 POP JUMPDEST PUSH1 0x1 DUP2 GT ISZERO PUSH2 0x4263 JUMPI PUSH32 0x3031323334353637383961626364656600000000000000000000000000000000 PUSH1 0xF DUP7 AND PUSH1 0x10 DUP2 LT PUSH2 0x4205 JUMPI PUSH2 0x4204 PUSH2 0x57AE JUMP JUMPDEST JUMPDEST BYTE PUSH1 0xF8 SHL DUP3 DUP3 DUP2 MLOAD DUP2 LT PUSH2 0x421C JUMPI PUSH2 0x421B PUSH2 0x57AE JUMP JUMPDEST JUMPDEST PUSH1 0x20 ADD ADD SWAP1 PUSH31 0xFFFFFFFFFFFFFFFFFFFFFFFFFFFFFFFFFFFFFFFFFFFFFFFFFFFFFFFFFFFFFF NOT AND SWAP1 DUP2 PUSH1 0x0 BYTE SWAP1 MSTORE8 POP PUSH1 0x4 DUP6 SWAP1 SHR SWAP5 POP DUP1 PUSH2 0x425C SWAP1 PUSH2 0x55B3 JUMP JUMPDEST SWAP1 POP PUSH2 0x41C6 JUMP JUMPDEST POP PUSH1 0x0 DUP5 EQ PUSH2 0x42A7 JUMPI PUSH1 0x40 MLOAD PUSH32 0x8C379A000000000000000000000000000000000000000000000000000000000 DUP2 MSTORE PUSH1 0x4 ADD PUSH2 0x429E SWAP1 PUSH2 0x4F62 JUMP JUMPDEST PUSH1 0x40 MLOAD DUP1 SWAP2 SUB SWAP1 REVERT JUMPDEST DUP1 SWAP2 POP POP SWAP3 SWAP2 POP POP JUMP JUMPDEST PUSH1 0x0 DUP1 DUP3 PUSH20 0xFFFFFFFFFFFFFFFFFFFFFFFFFFFFFFFFFFFFFFFF AND EXTCODESIZE GT SWAP1 POP SWAP2 SWAP1 POP JUMP JUMPDEST PUSH1 0x0 PUSH32 0x1FFC9A700000000000000000000000000000000000000000000000000000000 PUSH28 0xFFFFFFFFFFFFFFFFFFFFFFFFFFFFFFFFFFFFFFFFFFFFFFFFFFFFFFFF NOT AND DUP3 PUSH28 0xFFFFFFFFFFFFFFFFFFFFFFFFFFFFFFFFFFFFFFFFFFFFFFFFFFFFFFFF NOT AND EQ SWAP1 POP SWAP2 SWAP1 POP JUMP JUMPDEST PUSH1 0x40 MLOAD DUP1 PUSH1 0x20 ADD PUSH1 0x40 MSTORE DUP1 PUSH1 0x0 DUP2 MSTORE POP SWAP1 JUMP JUMPDEST PUSH1 0x0 PUSH2 0x4364 PUSH2 0x435F DUP5 PUSH2 0x52FD JUMP JUMPDEST PUSH2 0x52D8 JUMP JUMPDEST SWAP1 POP DUP3 DUP2 MSTORE PUSH1 0x20 DUP2 ADD DUP5 DUP5 DUP5 ADD GT ISZERO PUSH2 0x4380 JUMPI PUSH2 0x437F PUSH2 0x5811 JUMP JUMPDEST JUMPDEST PUSH2 0x438B DUP5 DUP3 DUP6 PUSH2 0x5571 JUMP JUMPDEST POP SWAP4 SWAP3 POP POP POP JUMP JUMPDEST PUSH1 0x0 DUP2 CALLDATALOAD SWAP1 POP PUSH2 0x43A2 DUP2 PUSH2 0x5F23 JUMP JUMPDEST SWAP3 SWAP2 POP POP JUMP JUMPDEST PUSH1 0x0 DUP2 CALLDATALOAD SWAP1 POP PUSH2 0x43B7 DUP2 PUSH2 0x5F3A JUMP JUMPDEST SWAP3 SWAP2 POP POP JUMP JUMPDEST PUSH1 0x0 DUP2 CALLDATALOAD SWAP1 POP PUSH2 0x43CC DUP2 PUSH2 0x5F51 JUMP JUMPDEST SWAP3 SWAP2 POP POP JUMP JUMPDEST PUSH1 0x0 DUP2 CALLDATALOAD SWAP1 POP PUSH2 0x43E1 DUP2 PUSH2 0x5F68 JUMP JUMPDEST SWAP3 SWAP2 POP POP JUMP JUMPDEST PUSH1 0x0 DUP2 MLOAD SWAP1 POP PUSH2 0x43F6 DUP2 PUSH2 0x5F68 JUMP JUMPDEST SWAP3 SWAP2 POP POP JUMP JUMPDEST PUSH1 0x0 DUP3 PUSH1 0x1F DUP4 ADD SLT PUSH2 0x4411 JUMPI PUSH2 0x4410 PUSH2 0x580C JUMP JUMPDEST JUMPDEST DUP2 CALLDATALOAD PUSH2 0x4421 DUP5 DUP3 PUSH1 0x20 DUP7 ADD PUSH2 0x4351 JUMP JUMPDEST SWAP2 POP POP SWAP3 SWAP2 POP POP JUMP JUMPDEST PUSH1 0x0 DUP2 CALLDATALOAD SWAP1 POP PUSH2 0x4439 DUP2 PUSH2 0x5F7F JUMP JUMPDEST SWAP3 SWAP2 POP POP JUMP JUMPDEST PUSH1 0x0 PUSH1 0x20 DUP3 DUP5 SUB SLT ISZERO PUSH2 0x4455 JUMPI PUSH2 0x4454 PUSH2 0x581B JUMP JUMPDEST JUMPDEST PUSH1 0x0 PUSH2 0x4463 DUP5 DUP3 DUP6 ADD PUSH2 0x4393 JUMP JUMPDEST SWAP2 POP POP SWAP3 SWAP2 POP POP JUMP JUMPDEST PUSH1 0x0 DUP1 PUSH1 0x40 DUP4 DUP6 SUB SLT ISZERO PUSH2 0x4483 JUMPI PUSH2 0x4482 PUSH2 0x581B JUMP JUMPDEST JUMPDEST PUSH1 0x0 PUSH2 0x4491 DUP6 DUP3 DUP7 ADD PUSH2 0x4393 JUMP JUMPDEST SWAP3 POP POP PUSH1 0x20 PUSH2 0x44A2 DUP6 DUP3 DUP7 ADD PUSH2 0x4393 JUMP JUMPDEST SWAP2 POP POP SWAP3 POP SWAP3 SWAP1 POP JUMP JUMPDEST PUSH1 0x0 DUP1 PUSH1 0x0 PUSH1 0x60 DUP5 DUP7 SUB SLT ISZERO PUSH2 0x44C5 JUMPI PUSH2 0x44C4 PUSH2 0x581B JUMP JUMPDEST JUMPDEST PUSH1 0x0 PUSH2 0x44D3 DUP7 DUP3 DUP8 ADD PUSH2 0x4393 JUMP JUMPDEST SWAP4 POP POP PUSH1 0x20 PUSH2 0x44E4 DUP7 DUP3 DUP8 ADD PUSH2 0x4393 JUMP JUMPDEST SWAP3 POP POP PUSH1 0x40 PUSH2 0x44F5 DUP7 DUP3 DUP8 ADD PUSH2 0x442A JUMP JUMPDEST SWAP2 POP POP SWAP3 POP SWAP3 POP SWAP3 JUMP JUMPDEST PUSH1 0x0 DUP1 PUSH1 0x0 DUP1 PUSH1 0x80 DUP6 DUP8 SUB SLT ISZERO PUSH2 0x4519 JUMPI PUSH2 0x4518 PUSH2 0x581B JUMP JUMPDEST JUMPDEST PUSH1 0x0 PUSH2 0x4527 DUP8 DUP3 DUP9 ADD PUSH2 0x4393 JUMP JUMPDEST SWAP5 POP POP PUSH1 0x20 PUSH2 0x4538 DUP8 DUP3 DUP9 ADD PUSH2 0x4393 JUMP JUMPDEST SWAP4 POP POP PUSH1 0x40 PUSH2 0x4549 DUP8 DUP3 DUP9 ADD PUSH2 0x442A JUMP JUMPDEST SWAP3 POP POP PUSH1 0x60 DUP6 ADD CALLDATALOAD PUSH8 0xFFFFFFFFFFFFFFFF DUP2 GT ISZERO PUSH2 0x456A JUMPI PUSH2 0x4569 PUSH2 0x5816 JUMP JUMPDEST JUMPDEST PUSH2 0x4576 DUP8 DUP3 DUP9 ADD PUSH2 0x43FC JUMP JUMPDEST SWAP2 POP POP SWAP3 SWAP6 SWAP2 SWAP5 POP SWAP3 POP JUMP JUMPDEST PUSH1 0x0 DUP1 PUSH1 0x40 DUP4 DUP6 SUB SLT ISZERO PUSH2 0x4599 JUMPI PUSH2 0x4598 PUSH2 0x581B JUMP JUMPDEST JUMPDEST PUSH1 0x0 PUSH2 0x45A7 DUP6 DUP3 DUP7 ADD PUSH2 0x4393 JUMP JUMPDEST SWAP3 POP POP PUSH1 0x20 PUSH2 0x45B8 DUP6 DUP3 DUP7 ADD PUSH2 0x43A8 JUMP JUMPDEST SWAP2 POP POP SWAP3 POP SWAP3 SWAP1 POP JUMP JUMPDEST PUSH1 0x0 DUP1 PUSH1 0x40 DUP4 DUP6 SUB SLT ISZERO PUSH2 0x45D9 JUMPI PUSH2 0x45D8 PUSH2 0x581B JUMP JUMPDEST JUMPDEST PUSH1 0x0 PUSH2 0x45E7 DUP6 DUP3 DUP7 ADD PUSH2 0x4393 JUMP JUMPDEST SWAP3 POP POP PUSH1 0x20 PUSH2 0x45F8 DUP6 DUP3 DUP7 ADD PUSH2 0x442A JUMP JUMPDEST SWAP2 POP POP SWAP3 POP SWAP3 SWAP1 POP JUMP JUMPDEST PUSH1 0x0 PUSH1 0x20 DUP3 DUP5 SUB SLT ISZERO PUSH2 0x4618 JUMPI PUSH2 0x4617 PUSH2 0x581B JUMP JUMPDEST JUMPDEST PUSH1 0x0 PUSH2 0x4626 DUP5 DUP3 DUP6 ADD PUSH2 0x43BD JUMP JUMPDEST SWAP2 POP POP SWAP3 SWAP2 POP POP JUMP JUMPDEST PUSH1 0x0 DUP1 PUSH1 0x40 DUP4 DUP6 SUB SLT ISZERO PUSH2 0x4646 JUMPI PUSH2 0x4645 PUSH2 0x581B JUMP JUMPDEST JUMPDEST PUSH1 0x0 PUSH2 0x4654 DUP6 DUP3 DUP7 ADD PUSH2 0x43BD JUMP JUMPDEST SWAP3 POP POP PUSH1 0x20 PUSH2 0x4665 DUP6 DUP3 DUP7 ADD PUSH2 0x4393 JUMP JUMPDEST SWAP2 POP POP SWAP3 POP SWAP3 SWAP1 POP JUMP JUMPDEST PUSH1 0x0 PUSH1 0x20 DUP3 DUP5 SUB SLT ISZERO PUSH2 0x4685 JUMPI PUSH2 0x4684 PUSH2 0x581B JUMP JUMPDEST JUMPDEST PUSH1 0x0 PUSH2 0x4693 DUP5 DUP3 DUP6 ADD PUSH2 0x43D2 JUMP JUMPDEST SWAP2 POP POP SWAP3 SWAP2 POP POP JUMP JUMPDEST PUSH1 0x0 PUSH1 0x20 DUP3 DUP5 SUB SLT ISZERO PUSH2 0x46B2 JUMPI PUSH2 0x46B1 PUSH2 0x581B JUMP JUMPDEST JUMPDEST PUSH1 0x0 PUSH2 0x46C0 DUP5 DUP3 DUP6 ADD PUSH2 0x43E7 JUMP JUMPDEST SWAP2 POP POP SWAP3 SWAP2 POP POP JUMP JUMPDEST PUSH1 0x0 PUSH1 0x20 DUP3 DUP5 SUB SLT ISZERO PUSH2 0x46DF JUMPI PUSH2 0x46DE PUSH2 0x581B JUMP JUMPDEST JUMPDEST PUSH1 0x0 PUSH2 0x46ED DUP5 DUP3 DUP6 ADD PUSH2 0x442A JUMP JUMPDEST SWAP2 POP POP SWAP3 SWAP2 POP POP JUMP JUMPDEST PUSH1 0x0 DUP1 PUSH1 0x40 DUP4 DUP6 SUB SLT ISZERO PUSH2 0x470D JUMPI PUSH2 0x470C PUSH2 0x581B JUMP JUMPDEST JUMPDEST PUSH1 0x0 PUSH2 0x471B DUP6 DUP3 DUP7 ADD PUSH2 0x442A JUMP JUMPDEST SWAP3 POP POP PUSH1 0x20 PUSH2 0x472C DUP6 DUP3 DUP7 ADD PUSH2 0x442A JUMP JUMPDEST SWAP2 POP POP SWAP3 POP SWAP3 SWAP1 POP JUMP JUMPDEST PUSH1 0x0 PUSH2 0x4742 DUP4 DUP4 PUSH2 0x4D66 JUMP JUMPDEST PUSH1 0x20 DUP4 ADD SWAP1 POP SWAP3 SWAP2 POP POP JUMP JUMPDEST PUSH2 0x4757 DUP2 PUSH2 0x54DF JUMP JUMPDEST DUP3 MSTORE POP POP JUMP JUMPDEST PUSH2 0x476E PUSH2 0x4769 DUP3 PUSH2 0x54DF JUMP JUMPDEST PUSH2 0x5689 JUMP JUMPDEST DUP3 MSTORE POP POP JUMP JUMPDEST PUSH1 0x0 PUSH2 0x477F DUP3 PUSH2 0x5353 JUMP JUMPDEST PUSH2 0x4789 DUP2 DUP6 PUSH2 0x5381 JUMP JUMPDEST SWAP4 POP PUSH2 0x4794 DUP4 PUSH2 0x532E JUMP JUMPDEST DUP1 PUSH1 0x0 JUMPDEST DUP4 DUP2 LT ISZERO PUSH2 0x47C5 JUMPI DUP2 MLOAD PUSH2 0x47AC DUP9 DUP3 PUSH2 0x4736 JUMP JUMPDEST SWAP8 POP PUSH2 0x47B7 DUP4 PUSH2 0x5374 JUMP JUMPDEST SWAP3 POP POP PUSH1 0x1 DUP2 ADD SWAP1 POP PUSH2 0x4798 JUMP JUMPDEST POP DUP6 SWAP4 POP POP POP POP SWAP3 SWAP2 POP POP JUMP JUMPDEST PUSH2 0x47DB DUP2 PUSH2 0x54F1 JUMP JUMPDEST DUP3 MSTORE POP POP JUMP JUMPDEST PUSH2 0x47EA DUP2 PUSH2 0x54FD JUMP JUMPDEST DUP3 MSTORE POP POP JUMP JUMPDEST PUSH2 0x4801 PUSH2 0x47FC DUP3 PUSH2 0x54FD JUMP JUMPDEST PUSH2 0x569B JUMP JUMPDEST DUP3 MSTORE POP POP JUMP JUMPDEST PUSH1 0x0 PUSH2 0x4812 DUP3 PUSH2 0x535E JUMP JUMPDEST PUSH2 0x481C DUP2 DUP6 PUSH2 0x5392 JUMP JUMPDEST SWAP4 POP PUSH2 0x482C DUP2 DUP6 PUSH1 0x20 DUP7 ADD PUSH2 0x5580 JUMP JUMPDEST PUSH2 0x4835 DUP2 PUSH2 0x5820 JUMP JUMPDEST DUP5 ADD SWAP2 POP POP SWAP3 SWAP2 POP POP JUMP JUMPDEST PUSH1 0x0 PUSH2 0x484B DUP3 PUSH2 0x5369 JUMP JUMPDEST PUSH2 0x4855 DUP2 DUP6 PUSH2 0x53AE JUMP JUMPDEST SWAP4 POP PUSH2 0x4865 DUP2 DUP6 PUSH1 0x20 DUP7 ADD PUSH2 0x5580 JUMP JUMPDEST PUSH2 0x486E DUP2 PUSH2 0x5820 JUMP JUMPDEST DUP5 ADD SWAP2 POP POP SWAP3 SWAP2 POP POP JUMP JUMPDEST PUSH1 0x0 PUSH2 0x4884 DUP3 PUSH2 0x5369 JUMP JUMPDEST PUSH2 0x488E DUP2 DUP6 PUSH2 0x53BF JUMP JUMPDEST SWAP4 POP PUSH2 0x489E DUP2 DUP6 PUSH1 0x20 DUP7 ADD PUSH2 0x5580 JUMP JUMPDEST DUP1 DUP5 ADD SWAP2 POP POP SWAP3 SWAP2 POP POP JUMP JUMPDEST PUSH1 0x0 DUP2 SLOAD PUSH2 0x48B7 DUP2 PUSH2 0x55DD JUMP JUMPDEST PUSH2 0x48C1 DUP2 DUP7 PUSH2 0x53BF JUMP JUMPDEST SWAP5 POP PUSH1 0x1 DUP3 AND PUSH1 0x0 DUP2 EQ PUSH2 0x48DC JUMPI PUSH1 0x1 DUP2 EQ PUSH2 0x48ED JUMPI PUSH2 0x4920 JUMP JUMPDEST PUSH1 0xFF NOT DUP4 AND DUP7 MSTORE DUP2 DUP7 ADD SWAP4 POP PUSH2 0x4920 JUMP JUMPDEST PUSH2 0x48F6 DUP6 PUSH2 0x533E JUMP JUMPDEST PUSH1 0x0 JUMPDEST DUP4 DUP2 LT ISZERO PUSH2 0x4918 JUMPI DUP2 SLOAD DUP2 DUP10 ADD MSTORE PUSH1 0x1 DUP3 ADD SWAP2 POP PUSH1 0x20 DUP2 ADD SWAP1 POP PUSH2 0x48F9 JUMP JUMPDEST DUP4 DUP9 ADD SWAP6 POP POP POP JUMPDEST POP POP POP SWAP3 SWAP2 POP POP JUMP JUMPDEST PUSH1 0x0 PUSH2 0x4936 PUSH1 0x20 DUP4 PUSH2 0x53AE JUMP JUMPDEST SWAP2 POP PUSH2 0x4941 DUP3 PUSH2 0x583E JUMP JUMPDEST PUSH1 0x20 DUP3 ADD SWAP1 POP SWAP2 SWAP1 POP JUMP JUMPDEST PUSH1 0x0 PUSH2 0x4959 PUSH1 0x2B DUP4 PUSH2 0x53AE JUMP JUMPDEST SWAP2 POP PUSH2 0x4964 DUP3 PUSH2 0x5867 JUMP JUMPDEST PUSH1 0x40 DUP3 ADD SWAP1 POP SWAP2 SWAP1 POP JUMP JUMPDEST PUSH1 0x0 PUSH2 0x497C PUSH1 0x32 DUP4 PUSH2 0x53AE JUMP JUMPDEST SWAP2 POP PUSH2 0x4987 DUP3 PUSH2 0x58B6 JUMP JUMPDEST PUSH1 0x40 DUP3 ADD SWAP1 POP SWAP2 SWAP1 POP JUMP JUMPDEST PUSH1 0x0 PUSH2 0x499F PUSH1 0x26 DUP4 PUSH2 0x53AE JUMP JUMPDEST SWAP2 POP PUSH2 0x49AA DUP3 PUSH2 0x5905 JUMP JUMPDEST PUSH1 0x40 DUP3 ADD SWAP1 POP SWAP2 SWAP1 POP JUMP JUMPDEST PUSH1 0x0 PUSH2 0x49C2 PUSH1 0x25 DUP4 PUSH2 0x53AE JUMP JUMPDEST SWAP2 POP PUSH2 0x49CD DUP3 PUSH2 0x5954 JUMP JUMPDEST PUSH1 0x40 DUP3 ADD SWAP1 POP SWAP2 SWAP1 POP JUMP JUMPDEST PUSH1 0x0 PUSH2 0x49E5 PUSH1 0xB DUP4 PUSH2 0x53AE JUMP JUMPDEST SWAP2 POP PUSH2 0x49F0 DUP3 PUSH2 0x59A3 JUMP JUMPDEST PUSH1 0x20 DUP3 ADD SWAP1 POP SWAP2 SWAP1 POP JUMP JUMPDEST PUSH1 0x0 PUSH2 0x4A08 PUSH1 0x1C DUP4 PUSH2 0x53AE JUMP JUMPDEST SWAP2 POP PUSH2 0x4A13 DUP3 PUSH2 0x59CC JUMP JUMPDEST PUSH1 0x20 DUP3 ADD SWAP1 POP SWAP2 SWAP1 POP JUMP JUMPDEST PUSH1 0x0 PUSH2 0x4A2B PUSH1 0x14 DUP4 PUSH2 0x53AE JUMP JUMPDEST SWAP2 POP PUSH2 0x4A36 DUP3 PUSH2 0x59F5 JUMP JUMPDEST PUSH1 0x20 DUP3 ADD SWAP1 POP SWAP2 SWAP1 POP JUMP JUMPDEST PUSH1 0x0 PUSH2 0x4A4E PUSH1 0x24 DUP4 PUSH2 0x53AE JUMP JUMPDEST SWAP2 POP PUSH2 0x4A59 DUP3 PUSH2 0x5A1E JUMP JUMPDEST PUSH1 0x40 DUP3 ADD SWAP1 POP SWAP2 SWAP1 POP JUMP JUMPDEST PUSH1 0x0 PUSH2 0x4A71 PUSH1 0x19 DUP4 PUSH2 0x53AE JUMP JUMPDEST SWAP2 POP PUSH2 0x4A7C DUP3 PUSH2 0x5A6D JUMP JUMPDEST PUSH1 0x20 DUP3 ADD SWAP1 POP SWAP2 SWAP1 POP JUMP JUMPDEST PUSH1 0x0 PUSH2 0x4A94 PUSH1 0x2C DUP4 PUSH2 0x53AE JUMP JUMPDEST SWAP2 POP PUSH2 0x4A9F DUP3 PUSH2 0x5A96 JUMP JUMPDEST PUSH1 0x40 DUP3 ADD SWAP1 POP SWAP2 SWAP1 POP JUMP JUMPDEST PUSH1 0x0 PUSH2 0x4AB7 PUSH1 0xF DUP4 PUSH2 0x53AE JUMP JUMPDEST SWAP2 POP PUSH2 0x4AC2 DUP3 PUSH2 0x5AE5 JUMP JUMPDEST PUSH1 0x20 DUP3 ADD SWAP1 POP SWAP2 SWAP1 POP JUMP JUMPDEST PUSH1 0x0 PUSH2 0x4ADA PUSH1 0x38 DUP4 PUSH2 0x53AE JUMP JUMPDEST SWAP2 POP PUSH2 0x4AE5 DUP3 PUSH2 0x5B0E JUMP JUMPDEST PUSH1 0x40 DUP3 ADD SWAP1 POP SWAP2 SWAP1 POP JUMP JUMPDEST PUSH1 0x0 PUSH2 0x4AFD PUSH1 0x2A DUP4 PUSH2 0x53AE JUMP JUMPDEST SWAP2 POP PUSH2 0x4B08 DUP3 PUSH2 0x5B5D JUMP JUMPDEST PUSH1 0x40 DUP3 ADD SWAP1 POP SWAP2 SWAP1 POP JUMP JUMPDEST PUSH1 0x0 PUSH2 0x4B20 PUSH1 0x29 DUP4 PUSH2 0x53AE JUMP JUMPDEST SWAP2 POP PUSH2 0x4B2B DUP3 PUSH2 0x5BAC JUMP JUMPDEST PUSH1 0x40 DUP3 ADD SWAP1 POP SWAP2 SWAP1 POP JUMP JUMPDEST PUSH1 0x0 PUSH2 0x4B43 PUSH1 0x20 DUP4 PUSH2 0x53AE JUMP JUMPDEST SWAP2 POP PUSH2 0x4B4E DUP3 PUSH2 0x5BFB JUMP JUMPDEST PUSH1 0x20 DUP3 ADD SWAP1 POP SWAP2 SWAP1 POP JUMP JUMPDEST PUSH1 0x0 PUSH2 0x4B66 PUSH1 0x1B DUP4 PUSH2 0x53AE JUMP JUMPDEST SWAP2 POP PUSH2 0x4B71 DUP3 PUSH2 0x5C24 JUMP JUMPDEST PUSH1 0x20 DUP3 ADD SWAP1 POP SWAP2 SWAP1 POP JUMP JUMPDEST PUSH1 0x0 PUSH2 0x4B89 PUSH1 0x2C DUP4 PUSH2 0x53AE JUMP JUMPDEST SWAP2 POP PUSH2 0x4B94 DUP3 PUSH2 0x5C4D JUMP JUMPDEST PUSH1 0x40 DUP3 ADD SWAP1 POP SWAP2 SWAP1 POP JUMP JUMPDEST PUSH1 0x0 PUSH2 0x4BAC PUSH1 0x5 DUP4 PUSH2 0x53BF JUMP JUMPDEST SWAP2 POP PUSH2 0x4BB7 DUP3 PUSH2 0x5C9C JUMP JUMPDEST PUSH1 0x5 DUP3 ADD SWAP1 POP SWAP2 SWAP1 POP JUMP JUMPDEST PUSH1 0x0 PUSH2 0x4BCF PUSH1 0x20 DUP4 PUSH2 0x53AE JUMP JUMPDEST SWAP2 POP PUSH2 0x4BDA DUP3 PUSH2 0x5CC5 JUMP JUMPDEST PUSH1 0x20 DUP3 ADD SWAP1 POP SWAP2 SWAP1 POP JUMP JUMPDEST PUSH1 0x0 PUSH2 0x4BF2 PUSH1 0x21 DUP4 PUSH2 0x53AE JUMP JUMPDEST SWAP2 POP PUSH2 0x4BFD DUP3 PUSH2 0x5CEE JUMP JUMPDEST PUSH1 0x40 DUP3 ADD SWAP1 POP SWAP2 SWAP1 POP JUMP JUMPDEST PUSH1 0x0 PUSH2 0x4C15 PUSH1 0x0 DUP4 PUSH2 0x53A3 JUMP JUMPDEST SWAP2 POP PUSH2 0x4C20 DUP3 PUSH2 0x5D3D JUMP JUMPDEST PUSH1 0x0 DUP3 ADD SWAP1 POP SWAP2 SWAP1 POP JUMP JUMPDEST PUSH1 0x0 PUSH2 0x4C38 PUSH1 0x31 DUP4 PUSH2 0x53AE JUMP JUMPDEST SWAP2 POP PUSH2 0x4C43 DUP3 PUSH2 0x5D40 JUMP JUMPDEST PUSH1 0x40 DUP3 ADD SWAP1 POP SWAP2 SWAP1 POP JUMP JUMPDEST PUSH1 0x0 PUSH2 0x4C5B PUSH1 0xB DUP4 PUSH2 0x53AE JUMP JUMPDEST SWAP2 POP PUSH2 0x4C66 DUP3 PUSH2 0x5D8F JUMP JUMPDEST PUSH1 0x20 DUP3 ADD SWAP1 POP SWAP2 SWAP1 POP JUMP JUMPDEST PUSH1 0x0 PUSH2 0x4C7E PUSH1 0x2C DUP4 PUSH2 0x53AE JUMP JUMPDEST SWAP2 POP PUSH2 0x4C89 DUP3 PUSH2 0x5DB8 JUMP JUMPDEST PUSH1 0x40 DUP3 ADD SWAP1 POP SWAP2 SWAP1 POP JUMP JUMPDEST PUSH1 0x0 PUSH2 0x4CA1 PUSH1 0x17 DUP4 PUSH2 0x53BF JUMP JUMPDEST SWAP2 POP PUSH2 0x4CAC DUP3 PUSH2 0x5E07 JUMP JUMPDEST PUSH1 0x17 DUP3 ADD SWAP1 POP SWAP2 SWAP1 POP JUMP JUMPDEST PUSH1 0x0 PUSH2 0x4CC4 PUSH1 0xD DUP4 PUSH2 0x53AE JUMP JUMPDEST SWAP2 POP PUSH2 0x4CCF DUP3 PUSH2 0x5E30 JUMP JUMPDEST PUSH1 0x20 DUP3 ADD SWAP1 POP SWAP2 SWAP1 POP JUMP JUMPDEST PUSH1 0x0 PUSH2 0x4CE7 PUSH1 0xC DUP4 PUSH2 0x53AE JUMP JUMPDEST SWAP2 POP PUSH2 0x4CF2 DUP3 PUSH2 0x5E59 JUMP JUMPDEST PUSH1 0x20 DUP3 ADD SWAP1 POP SWAP2 SWAP1 POP JUMP JUMPDEST PUSH1 0x0 PUSH2 0x4D0A PUSH1 0x11 DUP4 PUSH2 0x53BF JUMP JUMPDEST SWAP2 POP PUSH2 0x4D15 DUP3 PUSH2 0x5E82 JUMP JUMPDEST PUSH1 0x11 DUP3 ADD SWAP1 POP SWAP2 SWAP1 POP JUMP JUMPDEST PUSH1 0x0 PUSH2 0x4D2D PUSH1 0x2F DUP4 PUSH2 0x53AE JUMP JUMPDEST SWAP2 POP PUSH2 0x4D38 DUP3 PUSH2 0x5EAB JUMP JUMPDEST PUSH1 0x40 DUP3 ADD SWAP1 POP SWAP2 SWAP1 POP JUMP JUMPDEST PUSH1 0x0 PUSH2 0x4D50 PUSH1 0x1 DUP4 PUSH2 0x53BF JUMP JUMPDEST SWAP2 POP PUSH2 0x4D5B DUP3 PUSH2 0x5EFA JUMP JUMPDEST PUSH1 0x1 DUP3 ADD SWAP1 POP SWAP2 SWAP1 POP JUMP JUMPDEST PUSH2 0x4D6F DUP2 PUSH2 0x5553 JUMP JUMPDEST DUP3 MSTORE POP POP JUMP JUMPDEST PUSH2 0x4D7E DUP2 PUSH2 0x5553 JUMP JUMPDEST DUP3 MSTORE POP POP JUMP JUMPDEST PUSH2 0x4D95 PUSH2 0x4D90 DUP3 PUSH2 0x5553 JUMP JUMPDEST PUSH2 0x56B7 JUMP JUMPDEST DUP3 MSTORE POP POP JUMP JUMPDEST PUSH2 0x4DA4 DUP2 PUSH2 0x555D JUMP JUMPDEST DUP3 MSTORE POP POP JUMP JUMPDEST PUSH1 0x0 PUSH2 0x4DB6 DUP3 DUP6 PUSH2 0x48AA JUMP JUMPDEST SWAP2 POP PUSH2 0x4DC1 DUP3 PUSH2 0x4D43 JUMP JUMPDEST SWAP2 POP PUSH2 0x4DCD DUP3 DUP5 PUSH2 0x4879 JUMP JUMPDEST SWAP2 POP PUSH2 0x4DD8 DUP3 PUSH2 0x4B9F JUMP JUMPDEST SWAP2 POP DUP2 SWAP1 POP SWAP4 SWAP3 POP POP POP JUMP JUMPDEST PUSH1 0x0 PUSH2 0x4DEF DUP3 PUSH2 0x4C08 JUMP JUMPDEST SWAP2 POP DUP2 SWAP1 POP SWAP2 SWAP1 POP JUMP JUMPDEST PUSH1 0x0 PUSH2 0x4E04 DUP3 PUSH2 0x4C94 JUMP JUMPDEST SWAP2 POP PUSH2 0x4E10 DUP3 DUP6 PUSH2 0x4879 JUMP JUMPDEST SWAP2 POP PUSH2 0x4E1B DUP3 PUSH2 0x4CFD JUMP JUMPDEST SWAP2 POP PUSH2 0x4E27 DUP3 DUP5 PUSH2 0x4879 JUMP JUMPDEST SWAP2 POP DUP2 SWAP1 POP SWAP4 SWAP3 POP POP POP JUMP JUMPDEST PUSH1 0x0 PUSH2 0x4E3F DUP3 DUP8 PUSH2 0x4D84 JUMP JUMPDEST PUSH1 0x20 DUP3 ADD SWAP2 POP PUSH2 0x4E4F DUP3 DUP7 PUSH2 0x475D JUMP JUMPDEST PUSH1 0x14 DUP3 ADD SWAP2 POP PUSH2 0x4E5F DUP3 DUP6 PUSH2 0x4D84 JUMP JUMPDEST PUSH1 0x20 DUP3 ADD SWAP2 POP PUSH2 0x4E6F DUP3 DUP5 PUSH2 0x47F0 JUMP JUMPDEST PUSH1 0x20 DUP3 ADD SWAP2 POP DUP2 SWAP1 POP SWAP6 SWAP5 POP POP POP POP POP JUMP JUMPDEST PUSH1 0x0 PUSH1 0x20 DUP3 ADD SWAP1 POP PUSH2 0x4E96 PUSH1 0x0 DUP4 ADD DUP5 PUSH2 0x474E JUMP JUMPDEST SWAP3 SWAP2 POP POP JUMP JUMPDEST PUSH1 0x0 PUSH1 0x80 DUP3 ADD SWAP1 POP PUSH2 0x4EB1 PUSH1 0x0 DUP4 ADD DUP8 PUSH2 0x474E JUMP JUMPDEST PUSH2 0x4EBE PUSH1 0x20 DUP4 ADD DUP7 PUSH2 0x474E JUMP JUMPDEST PUSH2 0x4ECB PUSH1 0x40 DUP4 ADD DUP6 PUSH2 0x4D75 JUMP JUMPDEST DUP2 DUP2 SUB PUSH1 0x60 DUP4 ADD MSTORE PUSH2 0x4EDD DUP2 DUP5 PUSH2 0x4807 JUMP JUMPDEST SWAP1 POP SWAP6 SWAP5 POP POP POP POP POP JUMP JUMPDEST PUSH1 0x0 PUSH1 0x20 DUP3 ADD SWAP1 POP DUP2 DUP2 SUB PUSH1 0x0 DUP4 ADD MSTORE PUSH2 0x4F02 DUP2 DUP5 PUSH2 0x4774 JUMP JUMPDEST SWAP1 POP SWAP3 SWAP2 POP POP JUMP JUMPDEST PUSH1 0x0 PUSH1 0x20 DUP3 ADD SWAP1 POP PUSH2 0x4F1F PUSH1 0x0 DUP4 ADD DUP5 PUSH2 0x47D2 JUMP JUMPDEST SWAP3 SWAP2 POP POP JUMP JUMPDEST PUSH1 0x0 PUSH1 0x20 DUP3 ADD SWAP1 POP PUSH2 0x4F3A PUSH1 0x0 DUP4 ADD DUP5 PUSH2 0x47E1 JUMP JUMPDEST SWAP3 SWAP2 POP POP JUMP JUMPDEST PUSH1 0x0 PUSH1 0x20 DUP3 ADD SWAP1 POP DUP2 DUP2 SUB PUSH1 0x0 DUP4 ADD MSTORE PUSH2 0x4F5A DUP2 DUP5 PUSH2 0x4840 JUMP JUMPDEST SWAP1 POP SWAP3 SWAP2 POP POP JUMP JUMPDEST PUSH1 0x0 PUSH1 0x20 DUP3 ADD SWAP1 POP DUP2 DUP2 SUB PUSH1 0x0 DUP4 ADD MSTORE PUSH2 0x4F7B DUP2 PUSH2 0x4929 JUMP JUMPDEST SWAP1 POP SWAP2 SWAP1 POP JUMP JUMPDEST PUSH1 0x0 PUSH1 0x20 DUP3 ADD SWAP1 POP DUP2 DUP2 SUB PUSH1 0x0 DUP4 ADD MSTORE PUSH2 0x4F9B DUP2 PUSH2 0x494C JUMP JUMPDEST SWAP1 POP SWAP2 SWAP1 POP JUMP JUMPDEST PUSH1 0x0 PUSH1 0x20 DUP3 ADD SWAP1 POP DUP2 DUP2 SUB PUSH1 0x0 DUP4 ADD MSTORE PUSH2 0x4FBB DUP2 PUSH2 0x496F JUMP JUMPDEST SWAP1 POP SWAP2 SWAP1 POP JUMP JUMPDEST PUSH1 0x0 PUSH1 0x20 DUP3 ADD SWAP1 POP DUP2 DUP2 SUB PUSH1 0x0 DUP4 ADD MSTORE PUSH2 0x4FDB DUP2 PUSH2 0x4992 JUMP JUMPDEST SWAP1 POP SWAP2 SWAP1 POP JUMP JUMPDEST PUSH1 0x0 PUSH1 0x20 DUP3 ADD SWAP1 POP DUP2 DUP2 SUB PUSH1 0x0 DUP4 ADD MSTORE PUSH2 0x4FFB DUP2 PUSH2 0x49B5 JUMP JUMPDEST SWAP1 POP SWAP2 SWAP1 POP JUMP JUMPDEST PUSH1 0x0 PUSH1 0x20 DUP3 ADD SWAP1 POP DUP2 DUP2 SUB PUSH1 0x0 DUP4 ADD MSTORE PUSH2 0x501B DUP2 PUSH2 0x49D8 JUMP JUMPDEST SWAP1 POP SWAP2 SWAP1 POP JUMP JUMPDEST PUSH1 0x0 PUSH1 0x20 DUP3 ADD SWAP1 POP DUP2 DUP2 SUB PUSH1 0x0 DUP4 ADD MSTORE PUSH2 0x503B DUP2 PUSH2 0x49FB JUMP JUMPDEST SWAP1 POP SWAP2 SWAP1 POP JUMP JUMPDEST PUSH1 0x0 PUSH1 0x20 DUP3 ADD SWAP1 POP DUP2 DUP2 SUB PUSH1 0x0 DUP4 ADD MSTORE PUSH2 0x505B DUP2 PUSH2 0x4A1E JUMP JUMPDEST SWAP1 POP SWAP2 SWAP1 POP JUMP JUMPDEST PUSH1 0x0 PUSH1 0x20 DUP3 ADD SWAP1 POP DUP2 DUP2 SUB PUSH1 0x0 DUP4 ADD MSTORE PUSH2 0x507B DUP2 PUSH2 0x4A41 JUMP JUMPDEST SWAP1 POP SWAP2 SWAP1 POP JUMP JUMPDEST PUSH1 0x0 PUSH1 0x20 DUP3 ADD SWAP1 POP DUP2 DUP2 SUB PUSH1 0x0 DUP4 ADD MSTORE PUSH2 0x509B DUP2 PUSH2 0x4A64 JUMP JUMPDEST SWAP1 POP SWAP2 SWAP1 POP JUMP JUMPDEST PUSH1 0x0 PUSH1 0x20 DUP3 ADD SWAP1 POP DUP2 DUP2 SUB PUSH1 0x0 DUP4 ADD MSTORE PUSH2 0x50BB DUP2 PUSH2 0x4A87 JUMP JUMPDEST SWAP1 POP SWAP2 SWAP1 POP JUMP JUMPDEST PUSH1 0x0 PUSH1 0x20 DUP3 ADD SWAP1 POP DUP2 DUP2 SUB PUSH1 0x0 DUP4 ADD MSTORE PUSH2 0x50DB DUP2 PUSH2 0x4AAA JUMP JUMPDEST SWAP1 POP SWAP2 SWAP1 POP JUMP JUMPDEST PUSH1 0x0 PUSH1 0x20 DUP3 ADD SWAP1 POP DUP2 DUP2 SUB PUSH1 0x0 DUP4 ADD MSTORE PUSH2 0x50FB DUP2 PUSH2 0x4ACD JUMP JUMPDEST SWAP1 POP SWAP2 SWAP1 POP JUMP JUMPDEST PUSH1 0x0 PUSH1 0x20 DUP3 ADD SWAP1 POP DUP2 DUP2 SUB PUSH1 0x0 DUP4 ADD MSTORE PUSH2 0x511B DUP2 PUSH2 0x4AF0 JUMP JUMPDEST SWAP1 POP SWAP2 SWAP1 POP JUMP JUMPDEST PUSH1 0x0 PUSH1 0x20 DUP3 ADD SWAP1 POP DUP2 DUP2 SUB PUSH1 0x0 DUP4 ADD MSTORE PUSH2 0x513B DUP2 PUSH2 0x4B13 JUMP JUMPDEST SWAP1 POP SWAP2 SWAP1 POP JUMP JUMPDEST PUSH1 0x0 PUSH1 0x20 DUP3 ADD SWAP1 POP DUP2 DUP2 SUB PUSH1 0x0 DUP4 ADD MSTORE PUSH2 0x515B DUP2 PUSH2 0x4B36 JUMP JUMPDEST SWAP1 POP SWAP2 SWAP1 POP JUMP JUMPDEST PUSH1 0x0 PUSH1 0x20 DUP3 ADD SWAP1 POP DUP2 DUP2 SUB PUSH1 0x0 DUP4 ADD MSTORE PUSH2 0x517B DUP2 PUSH2 0x4B59 JUMP JUMPDEST SWAP1 POP SWAP2 SWAP1 POP JUMP JUMPDEST PUSH1 0x0 PUSH1 0x20 DUP3 ADD SWAP1 POP DUP2 DUP2 SUB PUSH1 0x0 DUP4 ADD MSTORE PUSH2 0x519B DUP2 PUSH2 0x4B7C JUMP JUMPDEST SWAP1 POP SWAP2 SWAP1 POP JUMP JUMPDEST PUSH1 0x0 PUSH1 0x20 DUP3 ADD SWAP1 POP DUP2 DUP2 SUB PUSH1 0x0 DUP4 ADD MSTORE PUSH2 0x51BB DUP2 PUSH2 0x4BC2 JUMP JUMPDEST SWAP1 POP SWAP2 SWAP1 POP JUMP JUMPDEST PUSH1 0x0 PUSH1 0x20 DUP3 ADD SWAP1 POP DUP2 DUP2 SUB PUSH1 0x0 DUP4 ADD MSTORE PUSH2 0x51DB DUP2 PUSH2 0x4BE5 JUMP JUMPDEST SWAP1 POP SWAP2 SWAP1 POP JUMP JUMPDEST PUSH1 0x0 PUSH1 0x20 DUP3 ADD SWAP1 POP DUP2 DUP2 SUB PUSH1 0x0 DUP4 ADD MSTORE PUSH2 0x51FB DUP2 PUSH2 0x4C2B JUMP JUMPDEST SWAP1 POP SWAP2 SWAP1 POP JUMP JUMPDEST PUSH1 0x0 PUSH1 0x20 DUP3 ADD SWAP1 POP DUP2 DUP2 SUB PUSH1 0x0 DUP4 ADD MSTORE PUSH2 0x521B DUP2 PUSH2 0x4C4E JUMP JUMPDEST SWAP1 POP SWAP2 SWAP1 POP JUMP JUMPDEST PUSH1 0x0 PUSH1 0x20 DUP3 ADD SWAP1 POP DUP2 DUP2 SUB PUSH1 0x0 DUP4 ADD MSTORE PUSH2 0x523B DUP2 PUSH2 0x4C71 JUMP JUMPDEST SWAP1 POP SWAP2 SWAP1 POP JUMP JUMPDEST PUSH1 0x0 PUSH1 0x20 DUP3 ADD SWAP1 POP DUP2 DUP2 SUB PUSH1 0x0 DUP4 ADD MSTORE PUSH2 0x525B DUP2 PUSH2 0x4CB7 JUMP JUMPDEST SWAP1 POP SWAP2 SWAP1 POP JUMP JUMPDEST PUSH1 0x0 PUSH1 0x20 DUP3 ADD SWAP1 POP DUP2 DUP2 SUB PUSH1 0x0 DUP4 ADD MSTORE PUSH2 0x527B DUP2 PUSH2 0x4CDA JUMP JUMPDEST SWAP1 POP SWAP2 SWAP1 POP JUMP JUMPDEST PUSH1 0x0 PUSH1 0x20 DUP3 ADD SWAP1 POP DUP2 DUP2 SUB PUSH1 0x0 DUP4 ADD MSTORE PUSH2 0x529B DUP2 PUSH2 0x4D20 JUMP JUMPDEST SWAP1 POP SWAP2 SWAP1 POP JUMP JUMPDEST PUSH1 0x0 PUSH1 0x20 DUP3 ADD SWAP1 POP PUSH2 0x52B7 PUSH1 0x0 DUP4 ADD DUP5 PUSH2 0x4D75 JUMP JUMPDEST SWAP3 SWAP2 POP POP JUMP JUMPDEST PUSH1 0x0 PUSH1 0x20 DUP3 ADD SWAP1 POP PUSH2 0x52D2 PUSH1 0x0 DUP4 ADD DUP5 PUSH2 0x4D9B JUMP JUMPDEST SWAP3 SWAP2 POP POP JUMP JUMPDEST PUSH1 0x0 PUSH2 0x52E2 PUSH2 0x52F3 JUMP JUMPDEST SWAP1 POP PUSH2 0x52EE DUP3 DUP3 PUSH2 0x560F JUMP JUMPDEST SWAP2 SWAP1 POP JUMP JUMPDEST PUSH1 0x0 PUSH1 0x40 MLOAD SWAP1 POP SWAP1 JUMP JUMPDEST PUSH1 0x0 PUSH8 0xFFFFFFFFFFFFFFFF DUP3 GT ISZERO PUSH2 0x5318 JUMPI PUSH2 0x5317 PUSH2 0x57DD JUMP JUMPDEST JUMPDEST PUSH2 0x5321 DUP3 PUSH2 0x5820 JUMP JUMPDEST SWAP1 POP PUSH1 0x20 DUP2 ADD SWAP1 POP SWAP2 SWAP1 POP JUMP JUMPDEST PUSH1 0x0 DUP2 SWAP1 POP PUSH1 0x20 DUP3 ADD SWAP1 POP SWAP2 SWAP1 POP JUMP JUMPDEST PUSH1 0x0 DUP2 SWAP1 POP DUP2 PUSH1 0x0 MSTORE PUSH1 0x20 PUSH1 0x0 KECCAK256 SWAP1 POP SWAP2 SWAP1 POP JUMP JUMPDEST PUSH1 0x0 DUP2 MLOAD SWAP1 POP SWAP2 SWAP1 POP JUMP JUMPDEST PUSH1 0x0 DUP2 MLOAD SWAP1 POP SWAP2 SWAP1 POP JUMP JUMPDEST PUSH1 0x0 DUP2 MLOAD SWAP1 POP SWAP2 SWAP1 POP JUMP JUMPDEST PUSH1 0x0 PUSH1 0x20 DUP3 ADD SWAP1 POP SWAP2 SWAP1 POP JUMP JUMPDEST PUSH1 0x0 DUP3 DUP3 MSTORE PUSH1 0x20 DUP3 ADD SWAP1 POP SWAP3 SWAP2 POP POP JUMP JUMPDEST PUSH1 0x0 DUP3 DUP3 MSTORE PUSH1 0x20 DUP3 ADD SWAP1 POP SWAP3 SWAP2 POP POP JUMP JUMPDEST PUSH1 0x0 DUP2 SWAP1 POP SWAP3 SWAP2 POP POP JUMP JUMPDEST PUSH1 0x0 DUP3 DUP3 MSTORE PUSH1 0x20 DUP3 ADD SWAP1 POP SWAP3 SWAP2 POP POP JUMP JUMPDEST PUSH1 0x0 DUP2 SWAP1 POP SWAP3 SWAP2 POP POP JUMP JUMPDEST PUSH1 0x0 PUSH2 0x53D5 DUP3 PUSH2 0x5553 JUMP JUMPDEST SWAP2 POP PUSH2 0x53E0 DUP4 PUSH2 0x5553 JUMP JUMPDEST SWAP3 POP DUP3 PUSH32 0xFFFFFFFFFFFFFFFFFFFFFFFFFFFFFFFFFFFFFFFFFFFFFFFFFFFFFFFFFFFFFFFF SUB DUP3 GT ISZERO PUSH2 0x5415 JUMPI PUSH2 0x5414 PUSH2 0x56F2 JUMP JUMPDEST JUMPDEST DUP3 DUP3 ADD SWAP1 POP SWAP3 SWAP2 POP POP JUMP JUMPDEST PUSH1 0x0 PUSH2 0x542B DUP3 PUSH2 0x5553 JUMP JUMPDEST SWAP2 POP PUSH2 0x5436 DUP4 PUSH2 0x5553 JUMP JUMPDEST SWAP3 POP DUP3 PUSH2 0x5446 JUMPI PUSH2 0x5445 PUSH2 0x5721 JUMP JUMPDEST JUMPDEST DUP3 DUP3 DIV SWAP1 POP SWAP3 SWAP2 POP POP JUMP JUMPDEST PUSH1 0x0 PUSH2 0x545C DUP3 PUSH2 0x5553 JUMP JUMPDEST SWAP2 POP PUSH2 0x5467 DUP4 PUSH2 0x5553 JUMP JUMPDEST SWAP3 POP DUP2 PUSH32 0xFFFFFFFFFFFFFFFFFFFFFFFFFFFFFFFFFFFFFFFFFFFFFFFFFFFFFFFFFFFFFFFF DIV DUP4 GT DUP3 ISZERO ISZERO AND ISZERO PUSH2 0x54A0 JUMPI PUSH2 0x549F PUSH2 0x56F2 JUMP JUMPDEST JUMPDEST DUP3 DUP3 MUL SWAP1 POP SWAP3 SWAP2 POP POP JUMP JUMPDEST PUSH1 0x0 PUSH2 0x54B6 DUP3 PUSH2 0x5553 JUMP JUMPDEST SWAP2 POP PUSH2 0x54C1 DUP4 PUSH2 0x5553 JUMP JUMPDEST SWAP3 POP DUP3 DUP3 LT ISZERO PUSH2 0x54D4 JUMPI PUSH2 0x54D3 PUSH2 0x56F2 JUMP JUMPDEST JUMPDEST DUP3 DUP3 SUB SWAP1 POP SWAP3 SWAP2 POP POP JUMP JUMPDEST PUSH1 0x0 PUSH2 0x54EA DUP3 PUSH2 0x5533 JUMP JUMPDEST SWAP1 POP SWAP2 SWAP1 POP JUMP JUMPDEST PUSH1 0x0 DUP2 ISZERO ISZERO SWAP1 POP SWAP2 SWAP1 POP JUMP JUMPDEST PUSH1 0x0 DUP2 SWAP1 POP SWAP2 SWAP1 POP JUMP JUMPDEST PUSH1 0x0 PUSH32 0xFFFFFFFF00000000000000000000000000000000000000000000000000000000 DUP3 AND SWAP1 POP SWAP2 SWAP1 POP JUMP JUMPDEST PUSH1 0x0 PUSH20 0xFFFFFFFFFFFFFFFFFFFFFFFFFFFFFFFFFFFFFFFF DUP3 AND SWAP1 POP SWAP2 SWAP1 POP JUMP JUMPDEST PUSH1 0x0 DUP2 SWAP1 POP SWAP2 SWAP1 POP JUMP JUMPDEST PUSH1 0x0 PUSH8 0xFFFFFFFFFFFFFFFF DUP3 AND SWAP1 POP SWAP2 SWAP1 POP JUMP JUMPDEST DUP3 DUP2 DUP4 CALLDATACOPY PUSH1 0x0 DUP4 DUP4 ADD MSTORE POP POP POP JUMP JUMPDEST PUSH1 0x0 JUMPDEST DUP4 DUP2 LT ISZERO PUSH2 0x559E JUMPI DUP1 DUP3 ADD MLOAD DUP2 DUP5 ADD MSTORE PUSH1 0x20 DUP2 ADD SWAP1 POP PUSH2 0x5583 JUMP JUMPDEST DUP4 DUP2 GT ISZERO PUSH2 0x55AD JUMPI PUSH1 0x0 DUP5 DUP5 ADD MSTORE JUMPDEST POP POP POP POP JUMP JUMPDEST PUSH1 0x0 PUSH2 0x55BE DUP3 PUSH2 0x5553 JUMP JUMPDEST SWAP2 POP PUSH1 0x0 DUP3 EQ ISZERO PUSH2 0x55D2 JUMPI PUSH2 0x55D1 PUSH2 0x56F2 JUMP JUMPDEST JUMPDEST PUSH1 0x1 DUP3 SUB SWAP1 POP SWAP2 SWAP1 POP JUMP JUMPDEST PUSH1 0x0 PUSH1 0x2 DUP3 DIV SWAP1 POP PUSH1 0x1 DUP3 AND DUP1 PUSH2 0x55F5 JUMPI PUSH1 0x7F DUP3 AND SWAP2 POP JUMPDEST PUSH1 0x20 DUP3 LT DUP2 EQ ISZERO PUSH2 0x5609 JUMPI PUSH2 0x5608 PUSH2 0x5750 JUMP JUMPDEST JUMPDEST POP SWAP2 SWAP1 POP JUMP JUMPDEST PUSH2 0x5618 DUP3 PUSH2 0x5820 JUMP JUMPDEST DUP2 ADD DUP2 DUP2 LT PUSH8 0xFFFFFFFFFFFFFFFF DUP3 GT OR ISZERO PUSH2 0x5637 JUMPI PUSH2 0x5636 PUSH2 0x57DD JUMP JUMPDEST JUMPDEST DUP1 PUSH1 0x40 MSTORE POP POP POP JUMP JUMPDEST PUSH1 0x0 PUSH2 0x564B DUP3 PUSH2 0x5553 JUMP JUMPDEST SWAP2 POP PUSH32 0xFFFFFFFFFFFFFFFFFFFFFFFFFFFFFFFFFFFFFFFFFFFFFFFFFFFFFFFFFFFFFFFF DUP3 EQ ISZERO PUSH2 0x567E JUMPI PUSH2 0x567D PUSH2 0x56F2 JUMP JUMPDEST JUMPDEST PUSH1 0x1 DUP3 ADD SWAP1 POP SWAP2 SWAP1 POP JUMP JUMPDEST PUSH1 0x0 PUSH2 0x5694 DUP3 PUSH2 0x56A5 JUMP JUMPDEST SWAP1 POP SWAP2 SWAP1 POP JUMP JUMPDEST PUSH1 0x0 DUP2 SWAP1 POP SWAP2 SWAP1 POP JUMP JUMPDEST PUSH1 0x0 PUSH2 0x56B0 DUP3 PUSH2 0x5831 JUMP JUMPDEST SWAP1 POP SWAP2 SWAP1 POP JUMP JUMPDEST PUSH1 0x0 DUP2 SWAP1 POP SWAP2 SWAP1 POP JUMP JUMPDEST PUSH1 0x0 PUSH2 0x56CC DUP3 PUSH2 0x5553 JUMP JUMPDEST SWAP2 POP PUSH2 0x56D7 DUP4 PUSH2 0x5553 JUMP JUMPDEST SWAP3 POP DUP3 PUSH2 0x56E7 JUMPI PUSH2 0x56E6 PUSH2 0x5721 JUMP JUMPDEST JUMPDEST DUP3 DUP3 MOD SWAP1 POP SWAP3 SWAP2 POP POP JUMP JUMPDEST PUSH32 0x4E487B7100000000000000000000000000000000000000000000000000000000 PUSH1 0x0 MSTORE PUSH1 0x11 PUSH1 0x4 MSTORE PUSH1 0x24 PUSH1 0x0 REVERT JUMPDEST PUSH32 0x4E487B7100000000000000000000000000000000000000000000000000000000 PUSH1 0x0 MSTORE PUSH1 0x12 PUSH1 0x4 MSTORE PUSH1 0x24 PUSH1 0x0 REVERT JUMPDEST PUSH32 0x4E487B7100000000000000000000000000000000000000000000000000000000 PUSH1 0x0 MSTORE PUSH1 0x22 PUSH1 0x4 MSTORE PUSH1 0x24 PUSH1 0x0 REVERT JUMPDEST PUSH32 0x4E487B7100000000000000000000000000000000000000000000000000000000 PUSH1 0x0 MSTORE PUSH1 0x31 PUSH1 0x4 MSTORE PUSH1 0x24 PUSH1 0x0 REVERT JUMPDEST PUSH32 0x4E487B7100000000000000000000000000000000000000000000000000000000 PUSH1 0x0 MSTORE PUSH1 0x32 PUSH1 0x4 MSTORE PUSH1 0x24 PUSH1 0x0 REVERT JUMPDEST PUSH32 0x4E487B7100000000000000000000000000000000000000000000000000000000 PUSH1 0x0 MSTORE PUSH1 0x41 PUSH1 0x4 MSTORE PUSH1 0x24 PUSH1 0x0 REVERT JUMPDEST PUSH1 0x0 DUP1 REVERT JUMPDEST PUSH1 0x0 DUP1 REVERT JUMPDEST PUSH1 0x0 DUP1 REVERT JUMPDEST PUSH1 0x0 DUP1 REVERT JUMPDEST PUSH1 0x0 PUSH1 0x1F NOT PUSH1 0x1F DUP4 ADD AND SWAP1 POP SWAP2 SWAP1 POP JUMP JUMPDEST PUSH1 0x0 DUP2 PUSH1 0x60 SHL SWAP1 POP SWAP2 SWAP1 POP JUMP JUMPDEST PUSH32 0x537472696E67733A20686578206C656E67746820696E73756666696369656E74 PUSH1 0x0 DUP3 ADD MSTORE POP JUMP JUMPDEST PUSH32 0x455243373231456E756D657261626C653A206F776E657220696E646578206F75 PUSH1 0x0 DUP3 ADD MSTORE PUSH32 0x74206F6620626F756E6473000000000000000000000000000000000000000000 PUSH1 0x20 DUP3 ADD MSTORE POP JUMP JUMPDEST PUSH32 0x4552433732313A207472616E7366657220746F206E6F6E204552433732315265 PUSH1 0x0 DUP3 ADD MSTORE PUSH32 0x63656976657220696D706C656D656E7465720000000000000000000000000000 PUSH1 0x20 DUP3 ADD MSTORE POP JUMP JUMPDEST PUSH32 0x4F776E61626C653A206E6577206F776E657220697320746865207A65726F2061 PUSH1 0x0 DUP3 ADD MSTORE PUSH32 0x6464726573730000000000000000000000000000000000000000000000000000 PUSH1 0x20 DUP3 ADD MSTORE POP JUMP JUMPDEST PUSH32 0x4552433732313A207472616E736665722066726F6D20696E636F727265637420 PUSH1 0x0 DUP3 ADD MSTORE PUSH32 0x6F776E6572000000000000000000000000000000000000000000000000000000 PUSH1 0x20 DUP3 ADD MSTORE POP JUMP JUMPDEST PUSH32 0x636865636B207072696365000000000000000000000000000000000000000000 PUSH1 0x0 DUP3 ADD MSTORE POP JUMP JUMPDEST PUSH32 0x4552433732313A20746F6B656E20616C7265616479206D696E74656400000000 PUSH1 0x0 DUP3 ADD MSTORE POP JUMP JUMPDEST PUSH32 0x4661696C656420746F2073656E64206D6F6E6579000000000000000000000000 PUSH1 0x0 DUP3 ADD MSTORE POP JUMP JUMPDEST PUSH32 0x4552433732313A207472616E7366657220746F20746865207A65726F20616464 PUSH1 0x0 DUP3 ADD MSTORE PUSH32 0x7265737300000000000000000000000000000000000000000000000000000000 PUSH1 0x20 DUP3 ADD MSTORE POP JUMP JUMPDEST PUSH32 0x4552433732313A20617070726F766520746F2063616C6C657200000000000000 PUSH1 0x0 DUP3 ADD MSTORE POP JUMP JUMPDEST PUSH32 0x4552433732313A206F70657261746F7220717565727920666F72206E6F6E6578 PUSH1 0x0 DUP3 ADD MSTORE PUSH32 0x697374656E7420746F6B656E0000000000000000000000000000000000000000 PUSH1 0x20 DUP3 ADD MSTORE POP JUMP JUMPDEST PUSH32 0x4E6F7420656E6F756768206B6C61790000000000000000000000000000000000 PUSH1 0x0 DUP3 ADD MSTORE POP JUMP JUMPDEST PUSH32 0x4552433732313A20617070726F76652063616C6C6572206973206E6F74206F77 PUSH1 0x0 DUP3 ADD MSTORE PUSH32 0x6E6572206E6F7220617070726F76656420666F7220616C6C0000000000000000 PUSH1 0x20 DUP3 ADD MSTORE POP JUMP JUMPDEST PUSH32 0x4552433732313A2062616C616E636520717565727920666F7220746865207A65 PUSH1 0x0 DUP3 ADD MSTORE PUSH32 0x726F206164647265737300000000000000000000000000000000000000000000 PUSH1 0x20 DUP3 ADD MSTORE POP JUMP JUMPDEST PUSH32 0x4552433732313A206F776E657220717565727920666F72206E6F6E6578697374 PUSH1 0x0 DUP3 ADD MSTORE PUSH32 0x656E7420746F6B656E0000000000000000000000000000000000000000000000 PUSH1 0x20 DUP3 ADD MSTORE POP JUMP JUMPDEST PUSH32 0x4552433732313A206D696E7420746F20746865207A65726F2061646472657373 PUSH1 0x0 DUP3 ADD MSTORE POP JUMP JUMPDEST PUSH32 0x4E6F206D6F7265206D696E74696E6720697320706F737369626C650000000000 PUSH1 0x0 DUP3 ADD MSTORE POP JUMP JUMPDEST PUSH32 0x4552433732313A20617070726F76656420717565727920666F72206E6F6E6578 PUSH1 0x0 DUP3 ADD MSTORE PUSH32 0x697374656E7420746F6B656E0000000000000000000000000000000000000000 PUSH1 0x20 DUP3 ADD MSTORE POP JUMP JUMPDEST PUSH32 0x2E6A736F6E000000000000000000000000000000000000000000000000000000 PUSH1 0x0 DUP3 ADD MSTORE POP JUMP JUMPDEST PUSH32 0x4F776E61626C653A2063616C6C6572206973206E6F7420746865206F776E6572 PUSH1 0x0 DUP3 ADD MSTORE POP JUMP JUMPDEST PUSH32 0x4552433732313A20617070726F76616C20746F2063757272656E74206F776E65 PUSH1 0x0 DUP3 ADD MSTORE PUSH32 0x7200000000000000000000000000000000000000000000000000000000000000 PUSH1 0x20 DUP3 ADD MSTORE POP JUMP JUMPDEST POP JUMP JUMPDEST PUSH32 0x4552433732313A207472616E736665722063616C6C6572206973206E6F74206F PUSH1 0x0 DUP3 ADD MSTORE PUSH32 0x776E6572206E6F7220617070726F766564000000000000000000000000000000 PUSH1 0x20 DUP3 ADD MSTORE POP JUMP JUMPDEST PUSH32 0x6E6F20696473206C656674000000000000000000000000000000000000000000 PUSH1 0x0 DUP3 ADD MSTORE POP JUMP JUMPDEST PUSH32 0x455243373231456E756D657261626C653A20676C6F62616C20696E646578206F PUSH1 0x0 DUP3 ADD MSTORE PUSH32 0x7574206F6620626F756E64730000000000000000000000000000000000000000 PUSH1 0x20 DUP3 ADD MSTORE POP JUMP JUMPDEST PUSH32 0x416363657373436F6E74726F6C3A206163636F756E7420000000000000000000 PUSH1 0x0 DUP3 ADD MSTORE POP JUMP JUMPDEST PUSH32 0x636865636B2062616C616E636500000000000000000000000000000000000000 PUSH1 0x0 DUP3 ADD MSTORE POP JUMP JUMPDEST PUSH32 0x416C7265616479204D696E740000000000000000000000000000000000000000 PUSH1 0x0 DUP3 ADD MSTORE POP JUMP JUMPDEST PUSH32 0x206973206D697373696E6720726F6C6520000000000000000000000000000000 PUSH1 0x0 DUP3 ADD MSTORE POP JUMP JUMPDEST PUSH32 0x416363657373436F6E74726F6C3A2063616E206F6E6C792072656E6F756E6365 PUSH1 0x0 DUP3 ADD MSTORE PUSH32 0x20726F6C657320666F722073656C660000000000000000000000000000000000 PUSH1 0x20 DUP3 ADD MSTORE POP JUMP JUMPDEST PUSH32 0x2F00000000000000000000000000000000000000000000000000000000000000 PUSH1 0x0 DUP3 ADD MSTORE POP JUMP JUMPDEST PUSH2 0x5F2C DUP2 PUSH2 0x54DF JUMP JUMPDEST DUP2 EQ PUSH2 0x5F37 JUMPI PUSH1 0x0 DUP1 REVERT JUMPDEST POP JUMP JUMPDEST PUSH2 0x5F43 DUP2 PUSH2 0x54F1 JUMP JUMPDEST DUP2 EQ PUSH2 0x5F4E JUMPI PUSH1 0x0 DUP1 REVERT JUMPDEST POP JUMP JUMPDEST PUSH2 0x5F5A DUP2 PUSH2 0x54FD JUMP JUMPDEST DUP2 EQ PUSH2 0x5F65 JUMPI PUSH1 0x0 DUP1 REVERT JUMPDEST POP JUMP JUMPDEST PUSH2 0x5F71 DUP2 PUSH2 0x5507 JUMP JUMPDEST DUP2 EQ PUSH2 0x5F7C JUMPI PUSH1 0x0 DUP1 REVERT JUMPDEST POP JUMP JUMPDEST PUSH2 0x5F88 DUP2 PUSH2 0x5553 JUMP JUMPDEST DUP2 EQ PUSH2 0x5F93 JUMPI PUSH1 0x0 DUP1 REVERT JUMPDEST POP JUMP INVALID LOG2 PUSH5 0x6970667358 0x22 SLT KECCAK256 0x2D SWAP11 SELFDESTRUCT PUSH28 0x426D84467FF573CA86B0BF54A0319BF8C83F70A9081A52B831D8B079 PUSH5 0x736F6C6343 STOP ADDMOD SMOD STOP CALLER "
		},
		"gasEstimates": {
			"creation": {
				"codeDepositCost": "4904800",
				"executionCost": "infinite",
				"totalCost": "infinite"
			},
			"external": {
				"AlreadyMint(uint256)": "2909",
				"DEFAULT_ADMIN_ROLE()": "402",
				"MAX_NORMAL_TOKEN_COUNT()": "420",
				"MAX_SPECIAL_TOKEN_COUNT()": "418",
				"MINTER_ROLE()": "396",
				"SPECIAL_MINTER_ROLE()": "441",
				"_normalTokenIdCount()": "2495",
				"_owner()": "2625",
				"_specialTokenIdCount()": "2562",
				"addWhiteList(address)": "infinite",
				"approve(address,uint256)": "infinite",
				"balanceOf(address)": "2992",
				"getApproved(uint256)": "5229",
				"getJolamanTokenType(uint256)": "infinite",
				"getLatestJolamanData()": "infinite",
				"getRoleAdmin(bytes32)": "infinite",
				"getTotalJolamanData(uint256)": "infinite",
				"getTotalOwnedTokens(address)": "infinite",
				"getjolamanTokenTypeOfOwner(uint256)": "2934",
				"gettypeToId(uint256)": "infinite",
				"grantRole(bytes32,address)": "infinite",
				"hasRole(bytes32,address)": "3230",
				"isApprovedForAll(address,address)": "infinite",
				"isWhiteList(address)": "2955",
				"jolamanTokenTypeOfOwner(uint256)": "2971",
				"latestJolamanData(uint256)": "infinite",
				"mappedJolamanTokenData(uint256)": "infinite",
				"metadataURI()": "infinite",
				"mintingPrice()": "2539",
				"name()": "infinite",
				"owner()": "2656",
				"ownerOf(uint256)": "3046",
				"payandMint()": "infinite",
				"payment()": "infinite",
				"removeWhiteList(address)": "infinite",
				"renounceOwnership()": "30442",
				"renounceRole(bytes32,address)": "infinite",
				"revokeRole(bytes32,address)": "infinite",
				"safeMint(address)": "infinite",
				"safeMintforWhitelist(address)": "infinite",
				"safeTransferFrom(address,address,uint256)": "infinite",
				"safeTransferFrom(address,address,uint256,bytes)": "infinite",
				"setApprovalForAll(address,bool)": "infinite",
				"specialPayandMint()": "infinite",
				"supportsInterface(bytes4)": "1064",
				"symbol()": "infinite",
				"tokenByIndex(uint256)": "infinite",
				"tokenOfOwnerByIndex(address,uint256)": "infinite",
				"tokenOwner(uint256)": "2952",
				"tokenURI(uint256)": "infinite",
				"totalJolamanData(uint256,uint256)": "infinite",
				"totalOwnedTokens(address,uint256)": "infinite",
				"totalSupply()": "2536",
				"transferFrom(address,address,uint256)": "infinite",
				"transferOwnership(address)": "30811",
				"typeToId(uint256)": "infinite"
			},
			"internal": {
				"getRandSpecialTokenType(uint256)": "infinite",
				"getRandTokenType(uint256)": "infinite",
				"mappingWrap(uint256,address)": "infinite",
				"randomGenerator()": "infinite",
				"specialRandomGenerator()": "infinite"
			}
		},
		"methodIdentifiers": {
			"AlreadyMint(uint256)": "0c401d7e",
			"DEFAULT_ADMIN_ROLE()": "a217fddf",
			"MAX_NORMAL_TOKEN_COUNT()": "70446bbe",
			"MAX_SPECIAL_TOKEN_COUNT()": "4707a389",
			"MINTER_ROLE()": "d5391393",
			"SPECIAL_MINTER_ROLE()": "74e3447a",
			"_normalTokenIdCount()": "eecf2033",
			"_owner()": "b2bdfa7b",
			"_specialTokenIdCount()": "b6612d76",
			"addWhiteList(address)": "e7cd4a04",
			"approve(address,uint256)": "095ea7b3",
			"balanceOf(address)": "70a08231",
			"getApproved(uint256)": "081812fc",
			"getJolamanTokenType(uint256)": "3e334cf0",
			"getLatestJolamanData()": "ed14d640",
			"getRoleAdmin(bytes32)": "248a9ca3",
			"getTotalJolamanData(uint256)": "0d4cc788",
			"getTotalOwnedTokens(address)": "90e41b6e",
			"getjolamanTokenTypeOfOwner(uint256)": "14ace896",
			"gettypeToId(uint256)": "45149f8d",
			"grantRole(bytes32,address)": "2f2ff15d",
			"hasRole(bytes32,address)": "91d14854",
			"isApprovedForAll(address,address)": "e985e9c5",
			"isWhiteList(address)": "f99031a7",
			"jolamanTokenTypeOfOwner(uint256)": "fe43e1f0",
			"latestJolamanData(uint256)": "e8f78026",
			"mappedJolamanTokenData(uint256)": "37874127",
			"metadataURI()": "03ee438c",
			"mintingPrice()": "35db70b5",
			"name()": "06fdde03",
			"owner()": "8da5cb5b",
			"ownerOf(uint256)": "6352211e",
			"payandMint()": "73ff361b",
			"payment()": "42f6487a",
			"removeWhiteList(address)": "2042e5c2",
			"renounceOwnership()": "715018a6",
			"renounceRole(bytes32,address)": "36568abe",
			"revokeRole(bytes32,address)": "d547741f",
			"safeMint(address)": "40d097c3",
			"safeMintforWhitelist(address)": "c1514d92",
			"safeTransferFrom(address,address,uint256)": "42842e0e",
			"safeTransferFrom(address,address,uint256,bytes)": "b88d4fde",
			"setApprovalForAll(address,bool)": "a22cb465",
			"specialPayandMint()": "62c9fe06",
			"supportsInterface(bytes4)": "01ffc9a7",
			"symbol()": "95d89b41",
			"tokenByIndex(uint256)": "4f6ccce7",
			"tokenOfOwnerByIndex(address,uint256)": "2f745c59",
			"tokenOwner(uint256)": "1caaa487",
			"tokenURI(uint256)": "c87b56dd",
			"totalJolamanData(uint256,uint256)": "d54f62b0",
			"totalOwnedTokens(address,uint256)": "2f08480d",
			"totalSupply()": "18160ddd",
			"transferFrom(address,address,uint256)": "23b872dd",
			"transferOwnership(address)": "f2fde38b",
			"typeToId(uint256)": "1d578013"
		}
	},
	"abi": [
		{
			"inputs": [
				{
					"internalType": "string",
					"name": "_metadataURI",
					"type": "string"
				}
			],
			"stateMutability": "nonpayable",
			"type": "constructor"
		},
		{
			"anonymous": false,
			"inputs": [
				{
					"indexed": true,
					"internalType": "address",
					"name": "owner",
					"type": "address"
				},
				{
					"indexed": true,
					"internalType": "address",
					"name": "approved",
					"type": "address"
				},
				{
					"indexed": true,
					"internalType": "uint256",
					"name": "tokenId",
					"type": "uint256"
				}
			],
			"name": "Approval",
			"type": "event"
		},
		{
			"anonymous": false,
			"inputs": [
				{
					"indexed": true,
					"internalType": "address",
					"name": "owner",
					"type": "address"
				},
				{
					"indexed": true,
					"internalType": "address",
					"name": "operator",
					"type": "address"
				},
				{
					"indexed": false,
					"internalType": "bool",
					"name": "approved",
					"type": "bool"
				}
			],
			"name": "ApprovalForAll",
			"type": "event"
		},
		{
			"anonymous": false,
			"inputs": [
				{
					"indexed": true,
					"internalType": "address",
					"name": "previousOwner",
					"type": "address"
				},
				{
					"indexed": true,
					"internalType": "address",
					"name": "newOwner",
					"type": "address"
				}
			],
			"name": "OwnershipTransferred",
			"type": "event"
		},
		{
			"anonymous": false,
			"inputs": [
				{
					"indexed": true,
					"internalType": "bytes32",
					"name": "role",
					"type": "bytes32"
				},
				{
					"indexed": true,
					"internalType": "bytes32",
					"name": "previousAdminRole",
					"type": "bytes32"
				},
				{
					"indexed": true,
					"internalType": "bytes32",
					"name": "newAdminRole",
					"type": "bytes32"
				}
			],
			"name": "RoleAdminChanged",
			"type": "event"
		},
		{
			"anonymous": false,
			"inputs": [
				{
					"indexed": true,
					"internalType": "bytes32",
					"name": "role",
					"type": "bytes32"
				},
				{
					"indexed": true,
					"internalType": "address",
					"name": "account",
					"type": "address"
				},
				{
					"indexed": true,
					"internalType": "address",
					"name": "sender",
					"type": "address"
				}
			],
			"name": "RoleGranted",
			"type": "event"
		},
		{
			"anonymous": false,
			"inputs": [
				{
					"indexed": true,
					"internalType": "bytes32",
					"name": "role",
					"type": "bytes32"
				},
				{
					"indexed": true,
					"internalType": "address",
					"name": "account",
					"type": "address"
				},
				{
					"indexed": true,
					"internalType": "address",
					"name": "sender",
					"type": "address"
				}
			],
			"name": "RoleRevoked",
			"type": "event"
		},
		{
			"anonymous": false,
			"inputs": [
				{
					"indexed": true,
					"internalType": "address",
					"name": "from",
					"type": "address"
				},
				{
					"indexed": true,
					"internalType": "address",
					"name": "to",
					"type": "address"
				},
				{
					"indexed": true,
					"internalType": "uint256",
					"name": "tokenId",
					"type": "uint256"
				}
			],
			"name": "Transfer",
			"type": "event"
		},
		{
			"inputs": [
				{
					"internalType": "uint256",
					"name": "",
					"type": "uint256"
				}
			],
			"name": "AlreadyMint",
			"outputs": [
				{
					"internalType": "bool",
					"name": "",
					"type": "bool"
				}
			],
			"stateMutability": "view",
			"type": "function"
		},
		{
			"inputs": [],
			"name": "DEFAULT_ADMIN_ROLE",
			"outputs": [
				{
					"internalType": "bytes32",
					"name": "",
					"type": "bytes32"
				}
			],
			"stateMutability": "view",
			"type": "function"
		},
		{
			"inputs": [],
			"name": "MAX_NORMAL_TOKEN_COUNT",
			"outputs": [
				{
					"internalType": "uint256",
					"name": "",
					"type": "uint256"
				}
			],
			"stateMutability": "view",
			"type": "function"
		},
		{
			"inputs": [],
			"name": "MAX_SPECIAL_TOKEN_COUNT",
			"outputs": [
				{
					"internalType": "uint256",
					"name": "",
					"type": "uint256"
				}
			],
			"stateMutability": "view",
			"type": "function"
		},
		{
			"inputs": [],
			"name": "MINTER_ROLE",
			"outputs": [
				{
					"internalType": "bytes32",
					"name": "",
					"type": "bytes32"
				}
			],
			"stateMutability": "view",
			"type": "function"
		},
		{
			"inputs": [],
			"name": "SPECIAL_MINTER_ROLE",
			"outputs": [
				{
					"internalType": "bytes32",
					"name": "",
					"type": "bytes32"
				}
			],
			"stateMutability": "view",
			"type": "function"
		},
		{
			"inputs": [],
			"name": "_normalTokenIdCount",
			"outputs": [
				{
					"internalType": "uint256",
					"name": "",
					"type": "uint256"
				}
			],
			"stateMutability": "view",
			"type": "function"
		},
		{
			"inputs": [],
			"name": "_owner",
			"outputs": [
				{
					"internalType": "address",
					"name": "",
					"type": "address"
				}
			],
			"stateMutability": "view",
			"type": "function"
		},
		{
			"inputs": [],
			"name": "_specialTokenIdCount",
			"outputs": [
				{
					"internalType": "uint256",
					"name": "",
					"type": "uint256"
				}
			],
			"stateMutability": "view",
			"type": "function"
		},
		{
			"inputs": [
				{
					"internalType": "address",
					"name": "_toWhiteList",
					"type": "address"
				}
			],
			"name": "addWhiteList",
			"outputs": [],
			"stateMutability": "nonpayable",
			"type": "function"
		},
		{
			"inputs": [
				{
					"internalType": "address",
					"name": "to",
					"type": "address"
				},
				{
					"internalType": "uint256",
					"name": "tokenId",
					"type": "uint256"
				}
			],
			"name": "approve",
			"outputs": [],
			"stateMutability": "nonpayable",
			"type": "function"
		},
		{
			"inputs": [
				{
					"internalType": "address",
					"name": "owner",
					"type": "address"
				}
			],
			"name": "balanceOf",
			"outputs": [
				{
					"internalType": "uint256",
					"name": "",
					"type": "uint256"
				}
			],
			"stateMutability": "view",
			"type": "function"
		},
		{
			"inputs": [
				{
					"internalType": "uint256",
					"name": "tokenId",
					"type": "uint256"
				}
			],
			"name": "getApproved",
			"outputs": [
				{
					"internalType": "address",
					"name": "",
					"type": "address"
				}
			],
			"stateMutability": "view",
			"type": "function"
		},
		{
			"inputs": [
				{
					"internalType": "uint256",
					"name": "_tokenId",
					"type": "uint256"
				}
			],
			"name": "getJolamanTokenType",
			"outputs": [
				{
					"internalType": "uint256",
					"name": "",
					"type": "uint256"
				}
			],
			"stateMutability": "view",
			"type": "function"
		},
		{
			"inputs": [],
			"name": "getLatestJolamanData",
			"outputs": [
				{
					"internalType": "uint256",
					"name": "",
					"type": "uint256"
				}
			],
			"stateMutability": "view",
			"type": "function"
		},
		{
			"inputs": [
				{
					"internalType": "bytes32",
					"name": "role",
					"type": "bytes32"
				}
			],
			"name": "getRoleAdmin",
			"outputs": [
				{
					"internalType": "bytes32",
					"name": "",
					"type": "bytes32"
				}
			],
			"stateMutability": "view",
			"type": "function"
		},
		{
			"inputs": [
				{
					"internalType": "uint256",
					"name": "x",
					"type": "uint256"
				}
			],
			"name": "getTotalJolamanData",
			"outputs": [
				{
					"internalType": "uint256[]",
					"name": "",
					"type": "uint256[]"
				}
			],
			"stateMutability": "view",
			"type": "function"
		},
		{
			"inputs": [
				{
					"internalType": "address",
					"name": "ownerAddress",
					"type": "address"
				}
			],
			"name": "getTotalOwnedTokens",
			"outputs": [
				{
					"internalType": "uint256[]",
					"name": "",
					"type": "uint256[]"
				}
			],
			"stateMutability": "view",
			"type": "function"
		},
		{
			"inputs": [
				{
					"internalType": "uint256",
					"name": "_jolType",
					"type": "uint256"
				}
			],
			"name": "getjolamanTokenTypeOfOwner",
			"outputs": [
				{
					"internalType": "address",
					"name": "",
					"type": "address"
				}
			],
			"stateMutability": "view",
			"type": "function"
		},
		{
			"inputs": [
				{
					"internalType": "uint256",
					"name": "joldata",
					"type": "uint256"
				}
			],
			"name": "gettypeToId",
			"outputs": [
				{
					"internalType": "uint256",
					"name": "",
					"type": "uint256"
				}
			],
			"stateMutability": "view",
			"type": "function"
		},
		{
			"inputs": [
				{
					"internalType": "bytes32",
					"name": "role",
					"type": "bytes32"
				},
				{
					"internalType": "address",
					"name": "account",
					"type": "address"
				}
			],
			"name": "grantRole",
			"outputs": [],
			"stateMutability": "nonpayable",
			"type": "function"
		},
		{
			"inputs": [
				{
					"internalType": "bytes32",
					"name": "role",
					"type": "bytes32"
				},
				{
					"internalType": "address",
					"name": "account",
					"type": "address"
				}
			],
			"name": "hasRole",
			"outputs": [
				{
					"internalType": "bool",
					"name": "",
					"type": "bool"
				}
			],
			"stateMutability": "view",
			"type": "function"
		},
		{
			"inputs": [
				{
					"internalType": "address",
					"name": "owner",
					"type": "address"
				},
				{
					"internalType": "address",
					"name": "operator",
					"type": "address"
				}
			],
			"name": "isApprovedForAll",
			"outputs": [
				{
					"internalType": "bool",
					"name": "",
					"type": "bool"
				}
			],
			"stateMutability": "view",
			"type": "function"
		},
		{
			"inputs": [
				{
					"internalType": "address",
					"name": "",
					"type": "address"
				}
			],
			"name": "isWhiteList",
			"outputs": [
				{
					"internalType": "bool",
					"name": "",
					"type": "bool"
				}
			],
			"stateMutability": "view",
			"type": "function"
		},
		{
			"inputs": [
				{
					"internalType": "uint256",
					"name": "",
					"type": "uint256"
				}
			],
			"name": "jolamanTokenTypeOfOwner",
			"outputs": [
				{
					"internalType": "address",
					"name": "",
					"type": "address"
				}
			],
			"stateMutability": "view",
			"type": "function"
		},
		{
			"inputs": [
				{
					"internalType": "uint256",
					"name": "",
					"type": "uint256"
				}
			],
			"name": "latestJolamanData",
			"outputs": [
				{
					"internalType": "uint256",
					"name": "",
					"type": "uint256"
				}
			],
			"stateMutability": "view",
			"type": "function"
		},
		{
			"inputs": [
				{
					"internalType": "uint256",
					"name": "",
					"type": "uint256"
				}
			],
			"name": "mappedJolamanTokenData",
			"outputs": [
				{
					"internalType": "uint256",
					"name": "jolamanTokenType",
					"type": "uint256"
				}
			],
			"stateMutability": "view",
			"type": "function"
		},
		{
			"inputs": [],
			"name": "metadataURI",
			"outputs": [
				{
					"internalType": "string",
					"name": "",
					"type": "string"
				}
			],
			"stateMutability": "view",
			"type": "function"
		},
		{
			"inputs": [],
			"name": "mintingPrice",
			"outputs": [
				{
					"internalType": "uint64",
					"name": "",
					"type": "uint64"
				}
			],
			"stateMutability": "view",
			"type": "function"
		},
		{
			"inputs": [],
			"name": "name",
			"outputs": [
				{
					"internalType": "string",
					"name": "",
					"type": "string"
				}
			],
			"stateMutability": "view",
			"type": "function"
		},
		{
			"inputs": [],
			"name": "owner",
			"outputs": [
				{
					"internalType": "address",
					"name": "",
					"type": "address"
				}
			],
			"stateMutability": "view",
			"type": "function"
		},
		{
			"inputs": [
				{
					"internalType": "uint256",
					"name": "tokenId",
					"type": "uint256"
				}
			],
			"name": "ownerOf",
			"outputs": [
				{
					"internalType": "address",
					"name": "",
					"type": "address"
				}
			],
			"stateMutability": "view",
			"type": "function"
		},
		{
			"inputs": [],
			"name": "payandMint",
			"outputs": [],
			"stateMutability": "payable",
			"type": "function"
		},
		{
			"inputs": [],
			"name": "payment",
			"outputs": [
				{
					"internalType": "bool",
					"name": "",
					"type": "bool"
				}
			],
			"stateMutability": "payable",
			"type": "function"
		},
		{
			"inputs": [
				{
					"internalType": "address",
					"name": "_toWhiteList",
					"type": "address"
				}
			],
			"name": "removeWhiteList",
			"outputs": [],
			"stateMutability": "nonpayable",
			"type": "function"
		},
		{
			"inputs": [],
			"name": "renounceOwnership",
			"outputs": [],
			"stateMutability": "nonpayable",
			"type": "function"
		},
		{
			"inputs": [
				{
					"internalType": "bytes32",
					"name": "role",
					"type": "bytes32"
				},
				{
					"internalType": "address",
					"name": "account",
					"type": "address"
				}
			],
			"name": "renounceRole",
			"outputs": [],
			"stateMutability": "nonpayable",
			"type": "function"
		},
		{
			"inputs": [
				{
					"internalType": "bytes32",
					"name": "role",
					"type": "bytes32"
				},
				{
					"internalType": "address",
					"name": "account",
					"type": "address"
				}
			],
			"name": "revokeRole",
			"outputs": [],
			"stateMutability": "nonpayable",
			"type": "function"
		},
		{
			"inputs": [
				{
					"internalType": "address",
					"name": "to",
					"type": "address"
				}
			],
			"name": "safeMint",
			"outputs": [],
			"stateMutability": "payable",
			"type": "function"
		},
		{
			"inputs": [
				{
					"internalType": "address",
					"name": "to",
					"type": "address"
				}
			],
			"name": "safeMintforWhitelist",
			"outputs": [],
			"stateMutability": "payable",
			"type": "function"
		},
		{
			"inputs": [
				{
					"internalType": "address",
					"name": "from",
					"type": "address"
				},
				{
					"internalType": "address",
					"name": "to",
					"type": "address"
				},
				{
					"internalType": "uint256",
					"name": "tokenId",
					"type": "uint256"
				}
			],
			"name": "safeTransferFrom",
			"outputs": [],
			"stateMutability": "nonpayable",
			"type": "function"
		},
		{
			"inputs": [
				{
					"internalType": "address",
					"name": "from",
					"type": "address"
				},
				{
					"internalType": "address",
					"name": "to",
					"type": "address"
				},
				{
					"internalType": "uint256",
					"name": "tokenId",
					"type": "uint256"
				},
				{
					"internalType": "bytes",
					"name": "_data",
					"type": "bytes"
				}
			],
			"name": "safeTransferFrom",
			"outputs": [],
			"stateMutability": "nonpayable",
			"type": "function"
		},
		{
			"inputs": [
				{
					"internalType": "address",
					"name": "operator",
					"type": "address"
				},
				{
					"internalType": "bool",
					"name": "approved",
					"type": "bool"
				}
			],
			"name": "setApprovalForAll",
			"outputs": [],
			"stateMutability": "nonpayable",
			"type": "function"
		},
		{
			"inputs": [],
			"name": "specialPayandMint",
			"outputs": [],
			"stateMutability": "payable",
			"type": "function"
		},
		{
			"inputs": [
				{
					"internalType": "bytes4",
					"name": "interfaceId",
					"type": "bytes4"
				}
			],
			"name": "supportsInterface",
			"outputs": [
				{
					"internalType": "bool",
					"name": "",
					"type": "bool"
				}
			],
			"stateMutability": "view",
			"type": "function"
		},
		{
			"inputs": [],
			"name": "symbol",
			"outputs": [
				{
					"internalType": "string",
					"name": "",
					"type": "string"
				}
			],
			"stateMutability": "view",
			"type": "function"
		},
		{
			"inputs": [
				{
					"internalType": "uint256",
					"name": "index",
					"type": "uint256"
				}
			],
			"name": "tokenByIndex",
			"outputs": [
				{
					"internalType": "uint256",
					"name": "",
					"type": "uint256"
				}
			],
			"stateMutability": "view",
			"type": "function"
		},
		{
			"inputs": [
				{
					"internalType": "address",
					"name": "owner",
					"type": "address"
				},
				{
					"internalType": "uint256",
					"name": "index",
					"type": "uint256"
				}
			],
			"name": "tokenOfOwnerByIndex",
			"outputs": [
				{
					"internalType": "uint256",
					"name": "",
					"type": "uint256"
				}
			],
			"stateMutability": "view",
			"type": "function"
		},
		{
			"inputs": [
				{
					"internalType": "uint256",
					"name": "",
					"type": "uint256"
				}
			],
			"name": "tokenOwner",
			"outputs": [
				{
					"internalType": "address",
					"name": "",
					"type": "address"
				}
			],
			"stateMutability": "view",
			"type": "function"
		},
		{
			"inputs": [
				{
					"internalType": "uint256",
					"name": "_tokenId",
					"type": "uint256"
				}
			],
			"name": "tokenURI",
			"outputs": [
				{
					"internalType": "string",
					"name": "",
					"type": "string"
				}
			],
			"stateMutability": "view",
			"type": "function"
		},
		{
			"inputs": [
				{
					"internalType": "uint256",
					"name": "",
					"type": "uint256"
				},
				{
					"internalType": "uint256",
					"name": "",
					"type": "uint256"
				}
			],
			"name": "totalJolamanData",
			"outputs": [
				{
					"internalType": "uint256",
					"name": "",
					"type": "uint256"
				}
			],
			"stateMutability": "view",
			"type": "function"
		},
		{
			"inputs": [
				{
					"internalType": "address",
					"name": "",
					"type": "address"
				},
				{
					"internalType": "uint256",
					"name": "",
					"type": "uint256"
				}
			],
			"name": "totalOwnedTokens",
			"outputs": [
				{
					"internalType": "uint256",
					"name": "",
					"type": "uint256"
				}
			],
			"stateMutability": "view",
			"type": "function"
		},
		{
			"inputs": [],
			"name": "totalSupply",
			"outputs": [
				{
					"internalType": "uint256",
					"name": "",
					"type": "uint256"
				}
			],
			"stateMutability": "view",
			"type": "function"
		},
		{
			"inputs": [
				{
					"internalType": "address",
					"name": "from",
					"type": "address"
				},
				{
					"internalType": "address",
					"name": "to",
					"type": "address"
				},
				{
					"internalType": "uint256",
					"name": "tokenId",
					"type": "uint256"
				}
			],
			"name": "transferFrom",
			"outputs": [],
			"stateMutability": "nonpayable",
			"type": "function"
		},
		{
			"inputs": [
				{
					"internalType": "address",
					"name": "newOwner",
					"type": "address"
				}
			],
			"name": "transferOwnership",
			"outputs": [],
			"stateMutability": "nonpayable",
			"type": "function"
		},
		{
			"inputs": [
				{
					"internalType": "uint256",
					"name": "",
					"type": "uint256"
				}
			],
			"name": "typeToId",
			"outputs": [
				{
					"internalType": "uint256",
					"name": "",
					"type": "uint256"
				}
			],
			"stateMutability": "view",
			"type": "function"
		}
	]
}