{
	"data": {
		"bytecode": {
			"linkReferences": {},
			"object": "6080604052671bc16d674ec8000061040c60006101000a81548167ffffffffffffffff021916908367ffffffffffffffff1602179055503480156200004357600080fd5b50604051620064b1380380620064b1833981810160405281019062000069919062000570565b6040518060400160405280600781526020017f4a6f6c616d616e000000000000000000000000000000000000000000000000008152506040518060400160405280600381526020017f4a4c5400000000000000000000000000000000000000000000000000000000008152508160009080519060200190620000ed9291906200042b565b508060019080519060200190620001069291906200042b565b505050620001296200011d6200020060201b60201c565b6200020860201b60201c565b3361040e60006101000a81548173ffffffffffffffffffffffffffffffffffffffff021916908373ffffffffffffffffffffffffffffffffffffffff1602179055508161040f9080519060200190620001849291906200042b565b508061041060006101000a81548173ffffffffffffffffffffffffffffffffffffffff021916908373ffffffffffffffffffffffffffffffffffffffff160217905550600061040d81905550600061040a8190555061271061040b81905550620001f86000801b33620002ce60201b60201c565b5050620007a8565b600033905090565b6000600a60009054906101000a900473ffffffffffffffffffffffffffffffffffffffff16905081600a60006101000a81548173ffffffffffffffffffffffffffffffffffffffff021916908373ffffffffffffffffffffffffffffffffffffffff1602179055508173ffffffffffffffffffffffffffffffffffffffff168173ffffffffffffffffffffffffffffffffffffffff167f8be0079c531659141344cd1fd0a4f28419497f9722a3daafe3b4186f6b6457e060405160405180910390a35050565b620002e08282620003c060201b60201c565b620003bc576001600b600084815260200190815260200160002060000160008373ffffffffffffffffffffffffffffffffffffffff1673ffffffffffffffffffffffffffffffffffffffff16815260200190815260200160002060006101000a81548160ff021916908315150217905550620003616200020060201b60201c565b73ffffffffffffffffffffffffffffffffffffffff168173ffffffffffffffffffffffffffffffffffffffff16837f2f8788117e7eff1d82e926ec794901d17c78024a50270940304540a733656f0d60405160405180910390a45b5050565b6000600b600084815260200190815260200160002060000160008373ffffffffffffffffffffffffffffffffffffffff1673ffffffffffffffffffffffffffffffffffffffff16815260200190815260200160002060009054906101000a900460ff16905092915050565b82805462000439906200069f565b90600052602060002090601f0160209004810192826200045d5760008555620004a9565b82601f106200047857805160ff1916838001178555620004a9565b82800160010185558215620004a9579182015b82811115620004a85782518255916020019190600101906200048b565b5b509050620004b89190620004bc565b5090565b5b80821115620004d7576000816000905550600101620004bd565b5090565b6000620004f2620004ec84620005ff565b620005d6565b9050828152602081018484840111156200051157620005106200076e565b5b6200051e84828562000669565b509392505050565b60008151905062000537816200078e565b92915050565b600082601f83011262000555576200055462000769565b5b815162000567848260208601620004db565b91505092915050565b600080604083850312156200058a576200058962000778565b5b600083015167ffffffffffffffff811115620005ab57620005aa62000773565b5b620005b9858286016200053d565b9250506020620005cc8582860162000526565b9150509250929050565b6000620005e2620005f5565b9050620005f08282620006d5565b919050565b6000604051905090565b600067ffffffffffffffff8211156200061d576200061c6200073a565b5b62000628826200077d565b9050602081019050919050565b6000620006428262000649565b9050919050565b600073ffffffffffffffffffffffffffffffffffffffff82169050919050565b60005b83811015620006895780820151818401526020810190506200066c565b8381111562000699576000848401525b50505050565b60006002820490506001821680620006b857607f821691505b60208210811415620006cf57620006ce6200070b565b5b50919050565b620006e0826200077d565b810181811067ffffffffffffffff821117156200070257620007016200073a565b5b80604052505050565b7f4e487b7100000000000000000000000000000000000000000000000000000000600052602260045260246000fd5b7f4e487b7100000000000000000000000000000000000000000000000000000000600052604160045260246000fd5b600080fd5b600080fd5b600080fd5b600080fd5b6000601f19601f8301169050919050565b620007998162000635565b8114620007a557600080fd5b50565b615cf980620007b86000396000f3fe6080604052600436106102885760003560e01c806362c9fe061161015a578063b2bdfa7b116100c1578063d547741f1161007a578063d547741f146109b5578063e7cd4a04146109de578063e985e9c514610a07578063eecf203314610a44578063f2fde38b14610a6f578063f99031a714610a9857610288565b8063b2bdfa7b146108b2578063b6612d76146108dd578063b88d4fde14610908578063c1514d9214610931578063c87b56dd1461094d578063d53913931461098a57610288565b806374e3447a1161011357806374e3447a146107a05780638da5cb5b146107cb57806391d14854146107f657806395d89b4114610833578063a217fddf1461085e578063a22cb4651461088957610288565b806362c9fe06146106d05780636352211e146106da57806370446bbe1461071757806370a0823114610742578063715018a61461077f57806373ff361b1461079657610288565b80632f745c59116101fe57806342842e0e116101b757806342842e0e146105cd57806342f6487a146105f65780634707a38914610614578063491041a41461063f5780634f6ccce71461066a5780635aa961e5146106a757610288565b80632f745c59146104a657806335db70b5146104e357806336568abe1461050e57806337874127146105375780633e334cf01461057457806340d097c3146105b157610288565b80630c401d7e116102505780630c401d7e1461038657806318160ddd146103c35780632042e5c2146103ee57806323b872dd14610417578063248a9ca3146104405780632f2ff15d1461047d57610288565b806301ffc9a71461028d57806303ee438c146102ca57806306fdde03146102f5578063081812fc14610320578063095ea7b31461035d575b600080fd5b34801561029957600080fd5b506102b460048036038101906102af919061439d565b610ad5565b6040516102c19190614bb6565b60405180910390f35b3480156102d657600080fd5b506102df610ae7565b6040516102ec9190614c07565b60405180910390f35b34801561030157600080fd5b5061030a610b76565b6040516103179190614c07565b60405180910390f35b34801561032c57600080fd5b50610347600480360381019061034291906143f7565b610c08565b6040516103549190614b26565b60405180910390f35b34801561036957600080fd5b50610384600480360381019061037f91906142f0565b610c8d565b005b34801561039257600080fd5b506103ad60048036038101906103a891906143f7565b610da5565b6040516103ba9190614bb6565b60405180910390f35b3480156103cf57600080fd5b506103d8610dc6565b6040516103e59190614f69565b60405180910390f35b3480156103fa57600080fd5b506104156004803603810190610410919061416d565b610dd3565b005b34801561042357600080fd5b5061043e600480360381019061043991906141da565b610ed5565b005b34801561044c57600080fd5b5061046760048036038101906104629190614330565b610f35565b6040516104749190614bd1565b60405180910390f35b34801561048957600080fd5b506104a4600480360381019061049f919061435d565b610f55565b005b3480156104b257600080fd5b506104cd60048036038101906104c891906142f0565b610f76565b6040516104da9190614f69565b60405180910390f35b3480156104ef57600080fd5b506104f861101b565b6040516105059190614fd6565b60405180910390f35b34801561051a57600080fd5b506105356004803603810190610530919061435d565b611036565b005b34801561054357600080fd5b5061055e600480360381019061055991906143f7565b6110b9565b60405161056b9190614f69565b60405180910390f35b34801561058057600080fd5b5061059b600480360381019061059691906143f7565b6110d8565b6040516105a89190614f69565b60405180910390f35b6105cb60048036038101906105c6919061416d565b6110f9565b005b3480156105d957600080fd5b506105f460048036038101906105ef91906141da565b6115bf565b005b6105fe6115df565b60405161060b9190614bb6565b60405180910390f35b34801561062057600080fd5b506106296117bc565b6040516106369190614f69565b60405180910390f35b34801561064b57600080fd5b506106546117c2565b6040516106619190614bec565b60405180910390f35b34801561067657600080fd5b50610691600480360381019061068c91906143f7565b6117e9565b60405161069e9190614f69565b60405180910390f35b3480156106b357600080fd5b506106ce60048036038101906106c99190614424565b61185a565b005b6106d8611887565b005b3480156106e657600080fd5b5061070160048036038101906106fc91906143f7565b6118a6565b60405161070e9190614b26565b60405180910390f35b34801561072357600080fd5b5061072c611958565b6040516107399190614f69565b60405180910390f35b34801561074e57600080fd5b506107696004803603810190610764919061416d565b61195e565b6040516107769190614f69565b60405180910390f35b34801561078b57600080fd5b50610794611a16565b005b61079e611a9e565b005b3480156107ac57600080fd5b506107b5611ae1565b6040516107c29190614bd1565b60405180910390f35b3480156107d757600080fd5b506107e0611b05565b6040516107ed9190614b26565b60405180910390f35b34801561080257600080fd5b5061081d6004803603810190610818919061435d565b611b2f565b60405161082a9190614bb6565b60405180910390f35b34801561083f57600080fd5b50610848611b9a565b6040516108559190614c07565b60405180910390f35b34801561086a57600080fd5b50610873611c2c565b6040516108809190614bd1565b60405180910390f35b34801561089557600080fd5b506108b060048036038101906108ab91906142b0565b611c33565b005b3480156108be57600080fd5b506108c7611c49565b6040516108d49190614b26565b60405180910390f35b3480156108e957600080fd5b506108f2611c70565b6040516108ff9190614f69565b60405180910390f35b34801561091457600080fd5b5061092f600480360381019061092a919061422d565b611c77565b005b61094b6004803603810190610946919061416d565b611cd9565b005b34801561095957600080fd5b50610974600480360381019061096f91906143f7565b6121fd565b6040516109819190614c07565b60405180910390f35b34801561099657600080fd5b5061099f61224f565b6040516109ac9190614bd1565b60405180910390f35b3480156109c157600080fd5b506109dc60048036038101906109d7919061435d565b612273565b005b3480156109ea57600080fd5b50610a056004803603810190610a00919061416d565b612294565b005b348015610a1357600080fd5b50610a2e6004803603810190610a29919061419a565b612396565b604051610a3b9190614bb6565b60405180910390f35b348015610a5057600080fd5b50610a5961242a565b604051610a669190614f69565b60405180910390f35b348015610a7b57600080fd5b50610a966004803603810190610a91919061416d565b612431565b005b348015610aa457600080fd5b50610abf6004803603810190610aba919061416d565b612529565b604051610acc9190614bb6565b60405180910390f35b6000610ae08261254a565b9050919050565b61040f8054610af5906152f3565b80601f0160208091040260200160405190810160405280929190818152602001828054610b21906152f3565b8015610b6e5780601f10610b4357610100808354040283529160200191610b6e565b820191906000526020600020905b815481529060010190602001808311610b5157829003601f168201915b505050505081565b606060008054610b85906152f3565b80601f0160208091040260200160405190810160405280929190818152602001828054610bb1906152f3565b8015610bfe5780601f10610bd357610100808354040283529160200191610bfe565b820191906000526020600020905b815481529060010190602001808311610be157829003601f168201915b5050505050905090565b6000610c13826125c4565b610c52576040517f08c379a0000000000000000000000000000000000000000000000000000000008152600401610c4990614e49565b60405180910390fd5b6004600083815260200190815260200160002060009054906101000a900473ffffffffffffffffffffffffffffffffffffffff169050919050565b6000610c98826118a6565b90508073ffffffffffffffffffffffffffffffffffffffff168373ffffffffffffffffffffffffffffffffffffffff161415610d09576040517f08c379a0000000000000000000000000000000000000000000000000000000008152600401610d0090614e89565b60405180910390fd5b8073ffffffffffffffffffffffffffffffffffffffff16610d28612630565b73ffffffffffffffffffffffffffffffffffffffff161480610d575750610d5681610d51612630565b612396565b5b610d96576040517f08c379a0000000000000000000000000000000000000000000000000000000008152600401610d8d90614da9565b60405180910390fd5b610da08383612638565b505050565b6104136020528060005260406000206000915054906101000a900460ff1681565b6000600880549050905090565b610ddb612630565b73ffffffffffffffffffffffffffffffffffffffff16610df9611b05565b73ffffffffffffffffffffffffffffffffffffffff1614610e4f576040517f08c379a0000000000000000000000000000000000000000000000000000000008152600401610e4690614e69565b60405180910390fd5b600061041260008373ffffffffffffffffffffffffffffffffffffffff1673ffffffffffffffffffffffffffffffffffffffff16815260200190815260200160002060006101000a81548160ff021916908315150217905550610ed27fb696df569c2dfecb5a24edfd39d7f55b0f442be14350cbc68dbe8eb35489d3a6826126f1565b50565b610ee6610ee0612630565b826127d3565b610f25576040517f08c379a0000000000000000000000000000000000000000000000000000000008152600401610f1c90614ea9565b60405180910390fd5b610f308383836128b1565b505050565b6000600b6000838152602001908152602001600020600101549050919050565b610f5e82610f35565b610f6781612b18565b610f718383612b2c565b505050565b6000610f818361195e565b8210610fc2576040517f08c379a0000000000000000000000000000000000000000000000000000000008152600401610fb990614c49565b60405180910390fd5b600660008473ffffffffffffffffffffffffffffffffffffffff1673ffffffffffffffffffffffffffffffffffffffff168152602001908152602001600020600083815260200190815260200160002054905092915050565b61040c60009054906101000a900467ffffffffffffffff1681565b61103e612630565b73ffffffffffffffffffffffffffffffffffffffff168173ffffffffffffffffffffffffffffffffffffffff16146110ab576040517f08c379a00000000000000000000000000000000000000000000000000000000081526004016110a290614f49565b60405180910390fd5b6110b582826126f1565b5050565b6104116020528060005260406000206000915090508060000154905081565b60006104116000838152602001908152602001600020600001549050919050565b7f9f2df0fed2c77648de5860a4cc508cd0818c85b8b8a1ab4ceeef8d981c8956a661112381612b18565b61040a546103e81161116a576040517f08c379a000000000000000000000000000000000000000000000000000000000815260040161116190614e29565b60405180910390fd5b3461040c60009054906101000a900467ffffffffffffffff1667ffffffffffffffff1611156111ce576040517f08c379a00000000000000000000000000000000000000000000000000000000081526004016111c590614d89565b60405180910390fd5b600061040a5490506111ed600161040a54612c0d90919063ffffffff16565b61040a8190555060006111fe612c23565b9050604051806020016040528082600001518152506104116000848152602001908152602001600020600082015181600001559050506000151561041360008360000151815260200190815260200160002060009054906101000a900460ff161515146112a0576040517f08c379a000000000000000000000000000000000000000000000000000000000815260040161129790614f29565b60405180910390fd5b600161041360008360000151815260200190815260200160002060006101000a81548160ff02191690831515021790555061041060009054906101000a900473ffffffffffffffffffffffffffffffffffffffff1673ffffffffffffffffffffffffffffffffffffffff166323eac4bd83866040518363ffffffff1660e01b815260040161132f929190614f84565b600060405180830381600087803b15801561134957600080fd5b505af115801561135d573d6000803e3d6000fd5b5050505061041060009054906101000a900473ffffffffffffffffffffffffffffffffffffffff1673ffffffffffffffffffffffffffffffffffffffff1663a92ae38a8583600001516040518363ffffffff1660e01b81526004016113c3929190614b8d565b600060405180830381600087803b1580156113dd57600080fd5b505af11580156113f1573d6000803e3d6000fd5b5050505061041060009054906101000a900473ffffffffffffffffffffffffffffffffffffffff1673ffffffffffffffffffffffffffffffffffffffff16639a944fdf82600001516040518263ffffffff1660e01b81526004016114559190614f69565b600060405180830381600087803b15801561146f57600080fd5b505af1158015611483573d6000803e3d6000fd5b5050505061041060009054906101000a900473ffffffffffffffffffffffffffffffffffffffff1673ffffffffffffffffffffffffffffffffffffffff16631b41b4768260000151866040518363ffffffff1660e01b81526004016114e9929190614f84565b600060405180830381600087803b15801561150357600080fd5b505af1158015611517573d6000803e3d6000fd5b5050505061041060009054906101000a900473ffffffffffffffffffffffffffffffffffffffff1673ffffffffffffffffffffffffffffffffffffffff1663e2bdb8808260000151846040518363ffffffff1660e01b815260040161157d929190614fad565b600060405180830381600087803b15801561159757600080fd5b505af11580156115ab573d6000803e3d6000fd5b505050506115b98483612c97565b50505050565b6115da83838360405180602001604052806000815250611c77565b505050565b6000343373ffffffffffffffffffffffffffffffffffffffff1631101561163b576040517f08c379a000000000000000000000000000000000000000000000000000000000815260040161163290614f09565b60405180910390fd5b3461040c60009054906101000a900467ffffffffffffffff1667ffffffffffffffff161461169e576040517f08c379a000000000000000000000000000000000000000000000000000000000815260040161169590614cc9565b60405180910390fd5b600061040e60009054906101000a900473ffffffffffffffffffffffffffffffffffffffff1673ffffffffffffffffffffffffffffffffffffffff16346040516116e790614a89565b60006040518083038185875af1925050503d8060008114611724576040519150601f19603f3d011682016040523d82523d6000602084013e611729565b606091505b505090508061176d576040517f08c379a000000000000000000000000000000000000000000000000000000000815260040161176490614d09565b60405180910390fd5b6117833461040d54612c0d90919063ffffffff16565b61040d819055506117b47f9f2df0fed2c77648de5860a4cc508cd0818c85b8b8a1ab4ceeef8d981c8956a633612b2c565b600191505090565b61272481565b61041060009054906101000a900473ffffffffffffffffffffffffffffffffffffffff1681565b60006117f3610dc6565b8210611834576040517f08c379a000000000000000000000000000000000000000000000000000000000815260040161182b90614ee9565b60405180910390fd5b60088281548110611848576118476154c4565b5b90600052602060002001549050919050565b8061040c60006101000a81548167ffffffffffffffff021916908367ffffffffffffffff16021790555050565b60006118916115df565b905080156118a3576118a233611cd9565b5b50565b6000806002600084815260200190815260200160002060009054906101000a900473ffffffffffffffffffffffffffffffffffffffff169050600073ffffffffffffffffffffffffffffffffffffffff168173ffffffffffffffffffffffffffffffffffffffff16141561194f576040517f08c379a000000000000000000000000000000000000000000000000000000000815260040161194690614de9565b60405180910390fd5b80915050919050565b6103e881565b60008073ffffffffffffffffffffffffffffffffffffffff168273ffffffffffffffffffffffffffffffffffffffff1614156119cf576040517f08c379a00000000000000000000000000000000000000000000000000000000081526004016119c690614dc9565b60405180910390fd5b600360008373ffffffffffffffffffffffffffffffffffffffff1673ffffffffffffffffffffffffffffffffffffffff168152602001908152602001600020549050919050565b611a1e612630565b73ffffffffffffffffffffffffffffffffffffffff16611a3c611b05565b73ffffffffffffffffffffffffffffffffffffffff1614611a92576040517f08c379a0000000000000000000000000000000000000000000000000000000008152600401611a8990614e69565b60405180910390fd5b611a9c6000612e71565b565b611aa66115df565b15611adf57611ab4336110f9565b611ade7f9f2df0fed2c77648de5860a4cc508cd0818c85b8b8a1ab4ceeef8d981c8956a633611036565b5b565b7fb696df569c2dfecb5a24edfd39d7f55b0f442be14350cbc68dbe8eb35489d3a681565b6000600a60009054906101000a900473ffffffffffffffffffffffffffffffffffffffff16905090565b6000600b600084815260200190815260200160002060000160008373ffffffffffffffffffffffffffffffffffffffff1673ffffffffffffffffffffffffffffffffffffffff16815260200190815260200160002060009054906101000a900460ff16905092915050565b606060018054611ba9906152f3565b80601f0160208091040260200160405190810160405280929190818152602001828054611bd5906152f3565b8015611c225780601f10611bf757610100808354040283529160200191611c22565b820191906000526020600020905b815481529060010190602001808311611c0557829003601f168201915b5050505050905090565b6000801b81565b611c45611c3e612630565b8383612f37565b5050565b61040e60009054906101000a900473ffffffffffffffffffffffffffffffffffffffff1681565b61040b5481565b611c88611c82612630565b836127d3565b611cc7576040517f08c379a0000000000000000000000000000000000000000000000000000000008152600401611cbe90614ea9565b60405180910390fd5b611cd3848484846130a4565b50505050565b7fb696df569c2dfecb5a24edfd39d7f55b0f442be14350cbc68dbe8eb35489d3a6611d0381612b18565b6001151561041260003373ffffffffffffffffffffffffffffffffffffffff1673ffffffffffffffffffffffffffffffffffffffff16815260200190815260200160002060009054906101000a900460ff16151514611d6157600080fd5b61040b5461272411611da8576040517f08c379a0000000000000000000000000000000000000000000000000000000008152600401611d9f90614e29565b60405180910390fd5b3461040c60009054906101000a900467ffffffffffffffff1667ffffffffffffffff161115611e0c576040517f08c379a0000000000000000000000000000000000000000000000000000000008152600401611e0390614d89565b60405180910390fd5b600061040b549050611e2b600161040b54612c0d90919063ffffffff16565b61040b819055506000611e3c613100565b9050604051806020016040528082600001518152506104116000848152602001908152602001600020600082015181600001559050506000151561041360008360000151815260200190815260200160002060009054906101000a900460ff16151514611ede576040517f08c379a0000000000000000000000000000000000000000000000000000000008152600401611ed590614f29565b60405180910390fd5b600161041360008360000151815260200190815260200160002060006101000a81548160ff02191690831515021790555061041060009054906101000a900473ffffffffffffffffffffffffffffffffffffffff1673ffffffffffffffffffffffffffffffffffffffff166323eac4bd83866040518363ffffffff1660e01b8152600401611f6d929190614f84565b600060405180830381600087803b158015611f8757600080fd5b505af1158015611f9b573d6000803e3d6000fd5b5050505061041060009054906101000a900473ffffffffffffffffffffffffffffffffffffffff1673ffffffffffffffffffffffffffffffffffffffff1663a92ae38a8583600001516040518363ffffffff1660e01b8152600401612001929190614b8d565b600060405180830381600087803b15801561201b57600080fd5b505af115801561202f573d6000803e3d6000fd5b5050505061041060009054906101000a900473ffffffffffffffffffffffffffffffffffffffff1673ffffffffffffffffffffffffffffffffffffffff16639a944fdf82600001516040518263ffffffff1660e01b81526004016120939190614f69565b600060405180830381600087803b1580156120ad57600080fd5b505af11580156120c1573d6000803e3d6000fd5b5050505061041060009054906101000a900473ffffffffffffffffffffffffffffffffffffffff1673ffffffffffffffffffffffffffffffffffffffff16631b41b4768260000151866040518363ffffffff1660e01b8152600401612127929190614f84565b600060405180830381600087803b15801561214157600080fd5b505af1158015612155573d6000803e3d6000fd5b5050505061041060009054906101000a900473ffffffffffffffffffffffffffffffffffffffff1673ffffffffffffffffffffffffffffffffffffffff1663e2bdb8808260000151846040518363ffffffff1660e01b81526004016121bb929190614fad565b600060405180830381600087803b1580156121d557600080fd5b505af11580156121e9573d6000803e3d6000fd5b505050506121f78483612c97565b50505050565b60606000612221610411600085815260200190815260200160002060000154613174565b905061040f81604051602001612238929190614a4f565b604051602081830303815290604052915050919050565b7f9f2df0fed2c77648de5860a4cc508cd0818c85b8b8a1ab4ceeef8d981c8956a681565b61227c82610f35565b61228581612b18565b61228f83836126f1565b505050565b61229c612630565b73ffffffffffffffffffffffffffffffffffffffff166122ba611b05565b73ffffffffffffffffffffffffffffffffffffffff1614612310576040517f08c379a000000000000000000000000000000000000000000000000000000000815260040161230790614e69565b60405180910390fd5b600161041260008373ffffffffffffffffffffffffffffffffffffffff1673ffffffffffffffffffffffffffffffffffffffff16815260200190815260200160002060006101000a81548160ff0219169083151502179055506123937fb696df569c2dfecb5a24edfd39d7f55b0f442be14350cbc68dbe8eb35489d3a682612b2c565b50565b6000600560008473ffffffffffffffffffffffffffffffffffffffff1673ffffffffffffffffffffffffffffffffffffffff16815260200190815260200160002060008373ffffffffffffffffffffffffffffffffffffffff1673ffffffffffffffffffffffffffffffffffffffff16815260200190815260200160002060009054906101000a900460ff16905092915050565b61040a5481565b612439612630565b73ffffffffffffffffffffffffffffffffffffffff16612457611b05565b73ffffffffffffffffffffffffffffffffffffffff16146124ad576040517f08c379a00000000000000000000000000000000000000000000000000000000081526004016124a490614e69565b60405180910390fd5b600073ffffffffffffffffffffffffffffffffffffffff168173ffffffffffffffffffffffffffffffffffffffff16141561251d576040517f08c379a000000000000000000000000000000000000000000000000000000000815260040161251490614c89565b60405180910390fd5b61252681612e71565b50565b6104126020528060005260406000206000915054906101000a900460ff1681565b60007f7965db0b000000000000000000000000000000000000000000000000000000007bffffffffffffffffffffffffffffffffffffffffffffffffffffffff1916827bffffffffffffffffffffffffffffffffffffffffffffffffffffffff191614806125bd57506125bc826132d5565b5b9050919050565b60008073ffffffffffffffffffffffffffffffffffffffff166002600084815260200190815260200160002060009054906101000a900473ffffffffffffffffffffffffffffffffffffffff1673ffffffffffffffffffffffffffffffffffffffff1614159050919050565b600033905090565b816004600083815260200190815260200160002060006101000a81548173ffffffffffffffffffffffffffffffffffffffff021916908373ffffffffffffffffffffffffffffffffffffffff160217905550808273ffffffffffffffffffffffffffffffffffffffff166126ab836118a6565b73ffffffffffffffffffffffffffffffffffffffff167f8c5be1e5ebec7d5bd14f71427d1e84f3dd0314c0f7b2291e5b200ac8c7c3b92560405160405180910390a45050565b6126fb8282611b2f565b156127cf576000600b600084815260200190815260200160002060000160008373ffffffffffffffffffffffffffffffffffffffff1673ffffffffffffffffffffffffffffffffffffffff16815260200190815260200160002060006101000a81548160ff021916908315150217905550612774612630565b73ffffffffffffffffffffffffffffffffffffffff168173ffffffffffffffffffffffffffffffffffffffff16837ff6391f5c32d9c69d2a47ea670b442974b53935d1edc7fd64eb21e047a839171b60405160405180910390a45b5050565b60006127de826125c4565b61281d576040517f08c379a000000000000000000000000000000000000000000000000000000000815260040161281490614d69565b60405180910390fd5b6000612828836118a6565b90508073ffffffffffffffffffffffffffffffffffffffff168473ffffffffffffffffffffffffffffffffffffffff16148061286a57506128698185612396565b5b806128a857508373ffffffffffffffffffffffffffffffffffffffff1661289084610c08565b73ffffffffffffffffffffffffffffffffffffffff16145b91505092915050565b8273ffffffffffffffffffffffffffffffffffffffff166128d1826118a6565b73ffffffffffffffffffffffffffffffffffffffff1614612927576040517f08c379a000000000000000000000000000000000000000000000000000000000815260040161291e90614ca9565b60405180910390fd5b600073ffffffffffffffffffffffffffffffffffffffff168273ffffffffffffffffffffffffffffffffffffffff161415612997576040517f08c379a000000000000000000000000000000000000000000000000000000000815260040161298e90614d29565b60405180910390fd5b6129a283838361334f565b6129ad600082612638565b6001600360008573ffffffffffffffffffffffffffffffffffffffff1673ffffffffffffffffffffffffffffffffffffffff16815260200190815260200160002060008282546129fd919061518b565b925050819055506001600360008473ffffffffffffffffffffffffffffffffffffffff1673ffffffffffffffffffffffffffffffffffffffff1681526020019081526020016000206000828254612a5491906150aa565b92505081905550816002600083815260200190815260200160002060006101000a81548173ffffffffffffffffffffffffffffffffffffffff021916908373ffffffffffffffffffffffffffffffffffffffff160217905550808273ffffffffffffffffffffffffffffffffffffffff168473ffffffffffffffffffffffffffffffffffffffff167fddf252ad1be2c89b69c2b068fc378daa952ba7f163c4a11628f55a4df523b3ef60405160405180910390a4612b13838383613463565b505050565b612b2981612b24612630565b613468565b50565b612b368282611b2f565b612c09576001600b600084815260200190815260200160002060000160008373ffffffffffffffffffffffffffffffffffffffff1673ffffffffffffffffffffffffffffffffffffffff16815260200190815260200160002060006101000a81548160ff021916908315150217905550612bae612630565b73ffffffffffffffffffffffffffffffffffffffff168173ffffffffffffffffffffffffffffffffffffffff16837f2f8788117e7eff1d82e926ec794901d17c78024a50270940304540a733656f0d60405160405180910390a45b5050565b60008183612c1b91906150aa565b905092915050565b612c2b614057565b612c33614057565b6000610408543342600143612c48919061518b565b40604051602001612c5c9493929190614ad8565b6040516020818303038152906040528051906020012060001c90506000612c8282613505565b90508083600001818152505082935050505090565b600073ffffffffffffffffffffffffffffffffffffffff168273ffffffffffffffffffffffffffffffffffffffff161415612d07576040517f08c379a0000000000000000000000000000000000000000000000000000000008152600401612cfe90614e09565b60405180910390fd5b612d10816125c4565b15612d50576040517f08c379a0000000000000000000000000000000000000000000000000000000008152600401612d4790614ce9565b60405180910390fd5b612d5c6000838361334f565b6001600360008473ffffffffffffffffffffffffffffffffffffffff1673ffffffffffffffffffffffffffffffffffffffff1681526020019081526020016000206000828254612dac91906150aa565b92505081905550816002600083815260200190815260200160002060006101000a81548173ffffffffffffffffffffffffffffffffffffffff021916908373ffffffffffffffffffffffffffffffffffffffff160217905550808273ffffffffffffffffffffffffffffffffffffffff16600073ffffffffffffffffffffffffffffffffffffffff167fddf252ad1be2c89b69c2b068fc378daa952ba7f163c4a11628f55a4df523b3ef60405160405180910390a4612e6d60008383613463565b5050565b6000600a60009054906101000a900473ffffffffffffffffffffffffffffffffffffffff16905081600a60006101000a81548173ffffffffffffffffffffffffffffffffffffffff021916908373ffffffffffffffffffffffffffffffffffffffff1602179055508173ffffffffffffffffffffffffffffffffffffffff168173ffffffffffffffffffffffffffffffffffffffff167f8be0079c531659141344cd1fd0a4f28419497f9722a3daafe3b4186f6b6457e060405160405180910390a35050565b8173ffffffffffffffffffffffffffffffffffffffff168373ffffffffffffffffffffffffffffffffffffffff161415612fa6576040517f08c379a0000000000000000000000000000000000000000000000000000000008152600401612f9d90614d49565b60405180910390fd5b80600560008573ffffffffffffffffffffffffffffffffffffffff1673ffffffffffffffffffffffffffffffffffffffff16815260200190815260200160002060008473ffffffffffffffffffffffffffffffffffffffff1673ffffffffffffffffffffffffffffffffffffffff16815260200190815260200160002060006101000a81548160ff0219169083151502179055508173ffffffffffffffffffffffffffffffffffffffff168373ffffffffffffffffffffffffffffffffffffffff167f17307eab39ab6107e8899845ad3d59bd9653f200f220920489ca2b5937696c31836040516130979190614bb6565b60405180910390a3505050565b6130af8484846128b1565b6130bb84848484613687565b6130fa576040517f08c379a00000000000000000000000000000000000000000000000000000000081526004016130f190614c69565b60405180910390fd5b50505050565b613108614057565b613110614057565b6000610409543342600143613125919061518b565b406040516020016131399493929190614ad8565b6040516020818303038152906040528051906020012060001c9050600061315f8261381e565b90508083600001818152505082935050505090565b606060008214156131bc576040518060400160405280600181526020017f300000000000000000000000000000000000000000000000000000000000000081525090506132d0565b600082905060005b600082146131ee5780806131d790615356565b915050600a826131e79190615100565b91506131c4565b60008167ffffffffffffffff81111561320a576132096154f3565b5b6040519080825280601f01601f19166020018201604052801561323c5781602001600182028036833780820191505090505b5090505b600085146132c957600182613255919061518b565b9150600a8561326491906153d7565b603061327091906150aa565b60f81b818381518110613286576132856154c4565b5b60200101907effffffffffffffffffffffffffffffffffffffffffffffffffffffffffffff1916908160001a905350600a856132c29190615100565b9450613240565b8093505050505b919050565b60007f780e9d63000000000000000000000000000000000000000000000000000000007bffffffffffffffffffffffffffffffffffffffffffffffffffffffff1916827bffffffffffffffffffffffffffffffffffffffffffffffffffffffff191614806133485750613347826139a1565b5b9050919050565b61335a838383613a83565b600073ffffffffffffffffffffffffffffffffffffffff168373ffffffffffffffffffffffffffffffffffffffff16141561339d5761339881613a88565b6133dc565b8173ffffffffffffffffffffffffffffffffffffffff168373ffffffffffffffffffffffffffffffffffffffff16146133db576133da8382613ad1565b5b5b600073ffffffffffffffffffffffffffffffffffffffff168273ffffffffffffffffffffffffffffffffffffffff16141561341f5761341a81613c3e565b61345e565b8273ffffffffffffffffffffffffffffffffffffffff168273ffffffffffffffffffffffffffffffffffffffff161461345d5761345c8282613d0f565b5b5b505050565b505050565b6134728282611b2f565b613501576134978173ffffffffffffffffffffffffffffffffffffffff166014613d8e565b6134a58360001c6020613d8e565b6040516020016134b6929190614a9e565b6040516020818303038152906040526040517f08c379a00000000000000000000000000000000000000000000000000000000081526004016134f89190614c07565b60405180910390fd5b5050565b600080610408600081548092919061351c90615356565b919050556103e861352d919061518b565b905060008111613572576040517f08c379a000000000000000000000000000000000000000000000000000000000815260040161356990614ec9565b60405180910390fd5b6000818461358091906153d7565b9050600080600c836103e8811061359a576135996154c4565b5b015414156135b4576001826135af91906150aa565b6135d8565b6001600c836103e881106135cb576135ca6154c4565b5b01546135d791906150aa565b5b90506000600c6001856135eb919061518b565b6103e881106135fd576135fc6154c4565b5b01541461362c57600c600184613613919061518b565b6103e88110613625576136246154c4565b5b015461363a565b600183613639919061518b565b5b600c836103e8811061364f5761364e6154c4565b5b01819055506000600c600185613665919061518b565b6103e88110613677576136766154c4565b5b0181905550809350505050919050565b60006136a88473ffffffffffffffffffffffffffffffffffffffff16613fca565b15613811578373ffffffffffffffffffffffffffffffffffffffff1663150b7a026136d1612630565b8786866040518563ffffffff1660e01b81526004016136f39493929190614b41565b602060405180830381600087803b15801561370d57600080fd5b505af192505050801561373e57506040513d601f19601f8201168201806040525081019061373b91906143ca565b60015b6137c1573d806000811461376e576040519150601f19603f3d011682016040523d82523d6000602084013e613773565b606091505b506000815114156137b9576040517f08c379a00000000000000000000000000000000000000000000000000000000081526004016137b090614c69565b60405180910390fd5b805181602001fd5b63150b7a0260e01b7bffffffffffffffffffffffffffffffffffffffffffffffffffffffff1916817bffffffffffffffffffffffffffffffffffffffffffffffffffffffff191614915050613816565b600190505b949350505050565b600080610409600081548092919061383590615356565b919050556014613845919061518b565b90506000811161388a576040517f08c379a000000000000000000000000000000000000000000000000000000000815260040161388190614ec9565b60405180910390fd5b6000818461389891906153d7565b90506000806103f483601481106138b2576138b16154c4565b5b015414156138cd57612710826138c891906150aa565b6138f2565b6127106103f483601481106138e5576138e46154c4565b5b01546138f191906150aa565b5b905060006103f4600185613906919061518b565b60148110613917576139166154c4565b5b015414613946576103f460018461392e919061518b565b6014811061393f5761393e6154c4565b5b0154613954565b600183613953919061518b565b5b6103f48360148110613969576139686154c4565b5b018190555060006103f4600185613980919061518b565b60148110613991576139906154c4565b5b0181905550809350505050919050565b60007f80ac58cd000000000000000000000000000000000000000000000000000000007bffffffffffffffffffffffffffffffffffffffffffffffffffffffff1916827bffffffffffffffffffffffffffffffffffffffffffffffffffffffff19161480613a6c57507f5b5e139f000000000000000000000000000000000000000000000000000000007bffffffffffffffffffffffffffffffffffffffffffffffffffffffff1916827bffffffffffffffffffffffffffffffffffffffffffffffffffffffff1916145b80613a7c5750613a7b82613fed565b5b9050919050565b505050565b6008805490506009600083815260200190815260200160002081905550600881908060018154018082558091505060019003906000526020600020016000909190919091505550565b60006001613ade8461195e565b613ae8919061518b565b9050600060076000848152602001908152602001600020549050818114613bcd576000600660008673ffffffffffffffffffffffffffffffffffffffff1673ffffffffffffffffffffffffffffffffffffffff168152602001908152602001600020600084815260200190815260200160002054905080600660008773ffffffffffffffffffffffffffffffffffffffff1673ffffffffffffffffffffffffffffffffffffffff168152602001908152602001600020600084815260200190815260200160002081905550816007600083815260200190815260200160002081905550505b6007600084815260200190815260200160002060009055600660008573ffffffffffffffffffffffffffffffffffffffff1673ffffffffffffffffffffffffffffffffffffffff16815260200190815260200160002060008381526020019081526020016000206000905550505050565b60006001600880549050613c52919061518b565b9050600060096000848152602001908152602001600020549050600060088381548110613c8257613c816154c4565b5b906000526020600020015490508060088381548110613ca457613ca36154c4565b5b906000526020600020018190555081600960008381526020019081526020016000208190555060096000858152602001908152602001600020600090556008805480613cf357613cf2615495565b5b6001900381819060005260206000200160009055905550505050565b6000613d1a8361195e565b905081600660008573ffffffffffffffffffffffffffffffffffffffff1673ffffffffffffffffffffffffffffffffffffffff168152602001908152602001600020600083815260200190815260200160002081905550806007600084815260200190815260200160002081905550505050565b606060006002836002613da19190615131565b613dab91906150aa565b67ffffffffffffffff811115613dc457613dc36154f3565b5b6040519080825280601f01601f191660200182016040528015613df65781602001600182028036833780820191505090505b5090507f300000000000000000000000000000000000000000000000000000000000000081600081518110613e2e57613e2d6154c4565b5b60200101907effffffffffffffffffffffffffffffffffffffffffffffffffffffffffffff1916908160001a9053507f780000000000000000000000000000000000000000000000000000000000000081600181518110613e9257613e916154c4565b5b60200101907effffffffffffffffffffffffffffffffffffffffffffffffffffffffffffff1916908160001a90535060006001846002613ed29190615131565b613edc91906150aa565b90505b6001811115613f7c577f3031323334353637383961626364656600000000000000000000000000000000600f861660108110613f1e57613f1d6154c4565b5b1a60f81b828281518110613f3557613f346154c4565b5b60200101907effffffffffffffffffffffffffffffffffffffffffffffffffffffffffffff1916908160001a905350600485901c945080613f75906152c9565b9050613edf565b5060008414613fc0576040517f08c379a0000000000000000000000000000000000000000000000000000000008152600401613fb790614c29565b60405180910390fd5b8091505092915050565b6000808273ffffffffffffffffffffffffffffffffffffffff163b119050919050565b60007f01ffc9a7000000000000000000000000000000000000000000000000000000007bffffffffffffffffffffffffffffffffffffffffffffffffffffffff1916827bffffffffffffffffffffffffffffffffffffffffffffffffffffffff1916149050919050565b6040518060200160405280600081525090565b600061407d61407884615016565b614ff1565b90508281526020810184848401111561409957614098615527565b5b6140a4848285615287565b509392505050565b6000813590506140bb81615c39565b92915050565b6000813590506140d081615c50565b92915050565b6000813590506140e581615c67565b92915050565b6000813590506140fa81615c7e565b92915050565b60008151905061410f81615c7e565b92915050565b600082601f83011261412a57614129615522565b5b813561413a84826020860161406a565b91505092915050565b60008135905061415281615c95565b92915050565b60008135905061416781615cac565b92915050565b60006020828403121561418357614182615531565b5b6000614191848285016140ac565b91505092915050565b600080604083850312156141b1576141b0615531565b5b60006141bf858286016140ac565b92505060206141d0858286016140ac565b9150509250929050565b6000806000606084860312156141f3576141f2615531565b5b6000614201868287016140ac565b9350506020614212868287016140ac565b925050604061422386828701614143565b9150509250925092565b6000806000806080858703121561424757614246615531565b5b6000614255878288016140ac565b9450506020614266878288016140ac565b935050604061427787828801614143565b925050606085013567ffffffffffffffff8111156142985761429761552c565b5b6142a487828801614115565b91505092959194509250565b600080604083850312156142c7576142c6615531565b5b60006142d5858286016140ac565b92505060206142e6858286016140c1565b9150509250929050565b6000806040838503121561430757614306615531565b5b6000614315858286016140ac565b925050602061432685828601614143565b9150509250929050565b60006020828403121561434657614345615531565b5b6000614354848285016140d6565b91505092915050565b6000806040838503121561437457614373615531565b5b6000614382858286016140d6565b9250506020614393858286016140ac565b9150509250929050565b6000602082840312156143b3576143b2615531565b5b60006143c1848285016140eb565b91505092915050565b6000602082840312156143e0576143df615531565b5b60006143ee84828501614100565b91505092915050565b60006020828403121561440d5761440c615531565b5b600061441b84828501614143565b91505092915050565b60006020828403121561443a57614439615531565b5b600061444884828501614158565b91505092915050565b61445a816151bf565b82525050565b61447161446c826151bf565b61539f565b82525050565b614480816151d1565b82525050565b61448f816151dd565b82525050565b6144a66144a1826151dd565b6153b1565b82525050565b60006144b78261505c565b6144c18185615072565b93506144d1818560208601615296565b6144da81615536565b840191505092915050565b6144ee81615251565b82525050565b60006144ff82615067565b614509818561508e565b9350614519818560208601615296565b61452281615536565b840191505092915050565b600061453882615067565b614542818561509f565b9350614552818560208601615296565b80840191505092915050565b6000815461456b816152f3565b614575818661509f565b9450600182166000811461459057600181146145a1576145d4565b60ff198316865281860193506145d4565b6145aa85615047565b60005b838110156145cc578154818901526001820191506020810190506145ad565b838801955050505b50505092915050565b60006145ea60208361508e565b91506145f582615554565b602082019050919050565b600061460d602b8361508e565b91506146188261557d565b604082019050919050565b600061463060328361508e565b915061463b826155cc565b604082019050919050565b600061465360268361508e565b915061465e8261561b565b604082019050919050565b600061467660258361508e565b91506146818261566a565b604082019050919050565b6000614699600b8361508e565b91506146a4826156b9565b602082019050919050565b60006146bc601c8361508e565b91506146c7826156e2565b602082019050919050565b60006146df60148361508e565b91506146ea8261570b565b602082019050919050565b600061470260248361508e565b915061470d82615734565b604082019050919050565b600061472560198361508e565b915061473082615783565b602082019050919050565b6000614748602c8361508e565b9150614753826157ac565b604082019050919050565b600061476b600f8361508e565b9150614776826157fb565b602082019050919050565b600061478e60388361508e565b915061479982615824565b604082019050919050565b60006147b1602a8361508e565b91506147bc82615873565b604082019050919050565b60006147d460298361508e565b91506147df826158c2565b604082019050919050565b60006147f760208361508e565b915061480282615911565b602082019050919050565b600061481a601b8361508e565b91506148258261593a565b602082019050919050565b600061483d602c8361508e565b915061484882615963565b604082019050919050565b600061486060058361509f565b915061486b826159b2565b600582019050919050565b600061488360208361508e565b915061488e826159db565b602082019050919050565b60006148a660218361508e565b91506148b182615a04565b604082019050919050565b60006148c9600083615083565b91506148d482615a53565b600082019050919050565b60006148ec60318361508e565b91506148f782615a56565b604082019050919050565b600061490f600b8361508e565b915061491a82615aa5565b602082019050919050565b6000614932602c8361508e565b915061493d82615ace565b604082019050919050565b600061495560178361509f565b915061496082615b1d565b601782019050919050565b6000614978600d8361508e565b915061498382615b46565b602082019050919050565b600061499b600c8361508e565b91506149a682615b6f565b602082019050919050565b60006149be60118361509f565b91506149c982615b98565b601182019050919050565b60006149e1602f8361508e565b91506149ec82615bc1565b604082019050919050565b6000614a0460018361509f565b9150614a0f82615c10565b600182019050919050565b614a2381615233565b82525050565b614a3a614a3582615233565b6153cd565b82525050565b614a498161523d565b82525050565b6000614a5b828561455e565b9150614a66826149f7565b9150614a72828461452d565b9150614a7d82614853565b91508190509392505050565b6000614a94826148bc565b9150819050919050565b6000614aa982614948565b9150614ab5828561452d565b9150614ac0826149b1565b9150614acc828461452d565b91508190509392505050565b6000614ae48287614a29565b602082019150614af48286614460565b601482019150614b048285614a29565b602082019150614b148284614495565b60208201915081905095945050505050565b6000602082019050614b3b6000830184614451565b92915050565b6000608082019050614b566000830187614451565b614b636020830186614451565b614b706040830185614a1a565b8181036060830152614b8281846144ac565b905095945050505050565b6000604082019050614ba26000830185614451565b614baf6020830184614a1a565b9392505050565b6000602082019050614bcb6000830184614477565b92915050565b6000602082019050614be66000830184614486565b92915050565b6000602082019050614c0160008301846144e5565b92915050565b60006020820190508181036000830152614c2181846144f4565b905092915050565b60006020820190508181036000830152614c42816145dd565b9050919050565b60006020820190508181036000830152614c6281614600565b9050919050565b60006020820190508181036000830152614c8281614623565b9050919050565b60006020820190508181036000830152614ca281614646565b9050919050565b60006020820190508181036000830152614cc281614669565b9050919050565b60006020820190508181036000830152614ce28161468c565b9050919050565b60006020820190508181036000830152614d02816146af565b9050919050565b60006020820190508181036000830152614d22816146d2565b9050919050565b60006020820190508181036000830152614d42816146f5565b9050919050565b60006020820190508181036000830152614d6281614718565b9050919050565b60006020820190508181036000830152614d828161473b565b9050919050565b60006020820190508181036000830152614da28161475e565b9050919050565b60006020820190508181036000830152614dc281614781565b9050919050565b60006020820190508181036000830152614de2816147a4565b9050919050565b60006020820190508181036000830152614e02816147c7565b9050919050565b60006020820190508181036000830152614e22816147ea565b9050919050565b60006020820190508181036000830152614e428161480d565b9050919050565b60006020820190508181036000830152614e6281614830565b9050919050565b60006020820190508181036000830152614e8281614876565b9050919050565b60006020820190508181036000830152614ea281614899565b9050919050565b60006020820190508181036000830152614ec2816148df565b9050919050565b60006020820190508181036000830152614ee281614902565b9050919050565b60006020820190508181036000830152614f0281614925565b9050919050565b60006020820190508181036000830152614f228161496b565b9050919050565b60006020820190508181036000830152614f428161498e565b9050919050565b60006020820190508181036000830152614f62816149d4565b9050919050565b6000602082019050614f7e6000830184614a1a565b92915050565b6000604082019050614f996000830185614a1a565b614fa66020830184614451565b9392505050565b6000604082019050614fc26000830185614a1a565b614fcf6020830184614a1a565b9392505050565b6000602082019050614feb6000830184614a40565b92915050565b6000614ffb61500c565b90506150078282615325565b919050565b6000604051905090565b600067ffffffffffffffff821115615031576150306154f3565b5b61503a82615536565b9050602081019050919050565b60008190508160005260206000209050919050565b600081519050919050565b600081519050919050565b600082825260208201905092915050565b600081905092915050565b600082825260208201905092915050565b600081905092915050565b60006150b582615233565b91506150c083615233565b9250827fffffffffffffffffffffffffffffffffffffffffffffffffffffffffffffffff038211156150f5576150f4615408565b5b828201905092915050565b600061510b82615233565b915061511683615233565b92508261512657615125615437565b5b828204905092915050565b600061513c82615233565b915061514783615233565b9250817fffffffffffffffffffffffffffffffffffffffffffffffffffffffffffffffff04831182151516156151805761517f615408565b5b828202905092915050565b600061519682615233565b91506151a183615233565b9250828210156151b4576151b3615408565b5b828203905092915050565b60006151ca82615213565b9050919050565b60008115159050919050565b6000819050919050565b60007fffffffff0000000000000000000000000000000000000000000000000000000082169050919050565b600073ffffffffffffffffffffffffffffffffffffffff82169050919050565b6000819050919050565b600067ffffffffffffffff82169050919050565b600061525c82615263565b9050919050565b600061526e82615275565b9050919050565b600061528082615213565b9050919050565b82818337600083830152505050565b60005b838110156152b4578082015181840152602081019050615299565b838111156152c3576000848401525b50505050565b60006152d482615233565b915060008214156152e8576152e7615408565b5b600182039050919050565b6000600282049050600182168061530b57607f821691505b6020821081141561531f5761531e615466565b5b50919050565b61532e82615536565b810181811067ffffffffffffffff8211171561534d5761534c6154f3565b5b80604052505050565b600061536182615233565b91507fffffffffffffffffffffffffffffffffffffffffffffffffffffffffffffffff82141561539457615393615408565b5b600182019050919050565b60006153aa826153bb565b9050919050565b6000819050919050565b60006153c682615547565b9050919050565b6000819050919050565b60006153e282615233565b91506153ed83615233565b9250826153fd576153fc615437565b5b828206905092915050565b7f4e487b7100000000000000000000000000000000000000000000000000000000600052601160045260246000fd5b7f4e487b7100000000000000000000000000000000000000000000000000000000600052601260045260246000fd5b7f4e487b7100000000000000000000000000000000000000000000000000000000600052602260045260246000fd5b7f4e487b7100000000000000000000000000000000000000000000000000000000600052603160045260246000fd5b7f4e487b7100000000000000000000000000000000000000000000000000000000600052603260045260246000fd5b7f4e487b7100000000000000000000000000000000000000000000000000000000600052604160045260246000fd5b600080fd5b600080fd5b600080fd5b600080fd5b6000601f19601f8301169050919050565b60008160601b9050919050565b7f537472696e67733a20686578206c656e67746820696e73756666696369656e74600082015250565b7f455243373231456e756d657261626c653a206f776e657220696e646578206f7560008201527f74206f6620626f756e6473000000000000000000000000000000000000000000602082015250565b7f4552433732313a207472616e7366657220746f206e6f6e20455243373231526560008201527f63656976657220696d706c656d656e7465720000000000000000000000000000602082015250565b7f4f776e61626c653a206e6577206f776e657220697320746865207a65726f206160008201527f6464726573730000000000000000000000000000000000000000000000000000602082015250565b7f4552433732313a207472616e736665722066726f6d20696e636f72726563742060008201527f6f776e6572000000000000000000000000000000000000000000000000000000602082015250565b7f636865636b207072696365000000000000000000000000000000000000000000600082015250565b7f4552433732313a20746f6b656e20616c7265616479206d696e74656400000000600082015250565b7f4661696c656420746f2073656e64206d6f6e6579000000000000000000000000600082015250565b7f4552433732313a207472616e7366657220746f20746865207a65726f2061646460008201527f7265737300000000000000000000000000000000000000000000000000000000602082015250565b7f4552433732313a20617070726f766520746f2063616c6c657200000000000000600082015250565b7f4552433732313a206f70657261746f7220717565727920666f72206e6f6e657860008201527f697374656e7420746f6b656e0000000000000000000000000000000000000000602082015250565b7f4e6f7420656e6f756768206b6c61790000000000000000000000000000000000600082015250565b7f4552433732313a20617070726f76652063616c6c6572206973206e6f74206f7760008201527f6e6572206e6f7220617070726f76656420666f7220616c6c0000000000000000602082015250565b7f4552433732313a2062616c616e636520717565727920666f7220746865207a6560008201527f726f206164647265737300000000000000000000000000000000000000000000602082015250565b7f4552433732313a206f776e657220717565727920666f72206e6f6e657869737460008201527f656e7420746f6b656e0000000000000000000000000000000000000000000000602082015250565b7f4552433732313a206d696e7420746f20746865207a65726f2061646472657373600082015250565b7f4e6f206d6f7265206d696e74696e6720697320706f737369626c650000000000600082015250565b7f4552433732313a20617070726f76656420717565727920666f72206e6f6e657860008201527f697374656e7420746f6b656e0000000000000000000000000000000000000000602082015250565b7f2e6a736f6e000000000000000000000000000000000000000000000000000000600082015250565b7f4f776e61626c653a2063616c6c6572206973206e6f7420746865206f776e6572600082015250565b7f4552433732313a20617070726f76616c20746f2063757272656e74206f776e6560008201527f7200000000000000000000000000000000000000000000000000000000000000602082015250565b50565b7f4552433732313a207472616e736665722063616c6c6572206973206e6f74206f60008201527f776e6572206e6f7220617070726f766564000000000000000000000000000000602082015250565b7f6e6f20696473206c656674000000000000000000000000000000000000000000600082015250565b7f455243373231456e756d657261626c653a20676c6f62616c20696e646578206f60008201527f7574206f6620626f756e64730000000000000000000000000000000000000000602082015250565b7f416363657373436f6e74726f6c3a206163636f756e7420000000000000000000600082015250565b7f636865636b2062616c616e636500000000000000000000000000000000000000600082015250565b7f416c7265616479204d696e740000000000000000000000000000000000000000600082015250565b7f206973206d697373696e6720726f6c6520000000000000000000000000000000600082015250565b7f416363657373436f6e74726f6c3a2063616e206f6e6c792072656e6f756e636560008201527f20726f6c657320666f722073656c660000000000000000000000000000000000602082015250565b7f2f00000000000000000000000000000000000000000000000000000000000000600082015250565b615c42816151bf565b8114615c4d57600080fd5b50565b615c59816151d1565b8114615c6457600080fd5b50565b615c70816151dd565b8114615c7b57600080fd5b50565b615c87816151e7565b8114615c9257600080fd5b50565b615c9e81615233565b8114615ca957600080fd5b50565b615cb58161523d565b8114615cc057600080fd5b5056fea26469706673582212205547025c461c7b36cbb4384a71856948b97d05affe0de0d4752b72abd40aad9264736f6c63430008070033",
			"opcodes": "PUSH1 0x80 PUSH1 0x40 MSTORE PUSH8 0x1BC16D674EC80000 PUSH2 0x40C PUSH1 0x0 PUSH2 0x100 EXP DUP2 SLOAD DUP2 PUSH8 0xFFFFFFFFFFFFFFFF MUL NOT AND SWAP1 DUP4 PUSH8 0xFFFFFFFFFFFFFFFF AND MUL OR SWAP1 SSTORE POP CALLVALUE DUP1 ISZERO PUSH3 0x43 JUMPI PUSH1 0x0 DUP1 REVERT JUMPDEST POP PUSH1 0x40 MLOAD PUSH3 0x64B1 CODESIZE SUB DUP1 PUSH3 0x64B1 DUP4 CODECOPY DUP2 DUP2 ADD PUSH1 0x40 MSTORE DUP2 ADD SWAP1 PUSH3 0x69 SWAP2 SWAP1 PUSH3 0x570 JUMP JUMPDEST PUSH1 0x40 MLOAD DUP1 PUSH1 0x40 ADD PUSH1 0x40 MSTORE DUP1 PUSH1 0x7 DUP2 MSTORE PUSH1 0x20 ADD PUSH32 0x4A6F6C616D616E00000000000000000000000000000000000000000000000000 DUP2 MSTORE POP PUSH1 0x40 MLOAD DUP1 PUSH1 0x40 ADD PUSH1 0x40 MSTORE DUP1 PUSH1 0x3 DUP2 MSTORE PUSH1 0x20 ADD PUSH32 0x4A4C540000000000000000000000000000000000000000000000000000000000 DUP2 MSTORE POP DUP2 PUSH1 0x0 SWAP1 DUP1 MLOAD SWAP1 PUSH1 0x20 ADD SWAP1 PUSH3 0xED SWAP3 SWAP2 SWAP1 PUSH3 0x42B JUMP JUMPDEST POP DUP1 PUSH1 0x1 SWAP1 DUP1 MLOAD SWAP1 PUSH1 0x20 ADD SWAP1 PUSH3 0x106 SWAP3 SWAP2 SWAP1 PUSH3 0x42B JUMP JUMPDEST POP POP POP PUSH3 0x129 PUSH3 0x11D PUSH3 0x200 PUSH1 0x20 SHL PUSH1 0x20 SHR JUMP JUMPDEST PUSH3 0x208 PUSH1 0x20 SHL PUSH1 0x20 SHR JUMP JUMPDEST CALLER PUSH2 0x40E PUSH1 0x0 PUSH2 0x100 EXP DUP2 SLOAD DUP2 PUSH20 0xFFFFFFFFFFFFFFFFFFFFFFFFFFFFFFFFFFFFFFFF MUL NOT AND SWAP1 DUP4 PUSH20 0xFFFFFFFFFFFFFFFFFFFFFFFFFFFFFFFFFFFFFFFF AND MUL OR SWAP1 SSTORE POP DUP2 PUSH2 0x40F SWAP1 DUP1 MLOAD SWAP1 PUSH1 0x20 ADD SWAP1 PUSH3 0x184 SWAP3 SWAP2 SWAP1 PUSH3 0x42B JUMP JUMPDEST POP DUP1 PUSH2 0x410 PUSH1 0x0 PUSH2 0x100 EXP DUP2 SLOAD DUP2 PUSH20 0xFFFFFFFFFFFFFFFFFFFFFFFFFFFFFFFFFFFFFFFF MUL NOT AND SWAP1 DUP4 PUSH20 0xFFFFFFFFFFFFFFFFFFFFFFFFFFFFFFFFFFFFFFFF AND MUL OR SWAP1 SSTORE POP PUSH1 0x0 PUSH2 0x40D DUP2 SWAP1 SSTORE POP PUSH1 0x0 PUSH2 0x40A DUP2 SWAP1 SSTORE POP PUSH2 0x2710 PUSH2 0x40B DUP2 SWAP1 SSTORE POP PUSH3 0x1F8 PUSH1 0x0 DUP1 SHL CALLER PUSH3 0x2CE PUSH1 0x20 SHL PUSH1 0x20 SHR JUMP JUMPDEST POP POP PUSH3 0x7A8 JUMP JUMPDEST PUSH1 0x0 CALLER SWAP1 POP SWAP1 JUMP JUMPDEST PUSH1 0x0 PUSH1 0xA PUSH1 0x0 SWAP1 SLOAD SWAP1 PUSH2 0x100 EXP SWAP1 DIV PUSH20 0xFFFFFFFFFFFFFFFFFFFFFFFFFFFFFFFFFFFFFFFF AND SWAP1 POP DUP2 PUSH1 0xA PUSH1 0x0 PUSH2 0x100 EXP DUP2 SLOAD DUP2 PUSH20 0xFFFFFFFFFFFFFFFFFFFFFFFFFFFFFFFFFFFFFFFF MUL NOT AND SWAP1 DUP4 PUSH20 0xFFFFFFFFFFFFFFFFFFFFFFFFFFFFFFFFFFFFFFFF AND MUL OR SWAP1 SSTORE POP DUP2 PUSH20 0xFFFFFFFFFFFFFFFFFFFFFFFFFFFFFFFFFFFFFFFF AND DUP2 PUSH20 0xFFFFFFFFFFFFFFFFFFFFFFFFFFFFFFFFFFFFFFFF AND PUSH32 0x8BE0079C531659141344CD1FD0A4F28419497F9722A3DAAFE3B4186F6B6457E0 PUSH1 0x40 MLOAD PUSH1 0x40 MLOAD DUP1 SWAP2 SUB SWAP1 LOG3 POP POP JUMP JUMPDEST PUSH3 0x2E0 DUP3 DUP3 PUSH3 0x3C0 PUSH1 0x20 SHL PUSH1 0x20 SHR JUMP JUMPDEST PUSH3 0x3BC JUMPI PUSH1 0x1 PUSH1 0xB PUSH1 0x0 DUP5 DUP2 MSTORE PUSH1 0x20 ADD SWAP1 DUP2 MSTORE PUSH1 0x20 ADD PUSH1 0x0 KECCAK256 PUSH1 0x0 ADD PUSH1 0x0 DUP4 PUSH20 0xFFFFFFFFFFFFFFFFFFFFFFFFFFFFFFFFFFFFFFFF AND PUSH20 0xFFFFFFFFFFFFFFFFFFFFFFFFFFFFFFFFFFFFFFFF AND DUP2 MSTORE PUSH1 0x20 ADD SWAP1 DUP2 MSTORE PUSH1 0x20 ADD PUSH1 0x0 KECCAK256 PUSH1 0x0 PUSH2 0x100 EXP DUP2 SLOAD DUP2 PUSH1 0xFF MUL NOT AND SWAP1 DUP4 ISZERO ISZERO MUL OR SWAP1 SSTORE POP PUSH3 0x361 PUSH3 0x200 PUSH1 0x20 SHL PUSH1 0x20 SHR JUMP JUMPDEST PUSH20 0xFFFFFFFFFFFFFFFFFFFFFFFFFFFFFFFFFFFFFFFF AND DUP2 PUSH20 0xFFFFFFFFFFFFFFFFFFFFFFFFFFFFFFFFFFFFFFFF AND DUP4 PUSH32 0x2F8788117E7EFF1D82E926EC794901D17C78024A50270940304540A733656F0D PUSH1 0x40 MLOAD PUSH1 0x40 MLOAD DUP1 SWAP2 SUB SWAP1 LOG4 JUMPDEST POP POP JUMP JUMPDEST PUSH1 0x0 PUSH1 0xB PUSH1 0x0 DUP5 DUP2 MSTORE PUSH1 0x20 ADD SWAP1 DUP2 MSTORE PUSH1 0x20 ADD PUSH1 0x0 KECCAK256 PUSH1 0x0 ADD PUSH1 0x0 DUP4 PUSH20 0xFFFFFFFFFFFFFFFFFFFFFFFFFFFFFFFFFFFFFFFF AND PUSH20 0xFFFFFFFFFFFFFFFFFFFFFFFFFFFFFFFFFFFFFFFF AND DUP2 MSTORE PUSH1 0x20 ADD SWAP1 DUP2 MSTORE PUSH1 0x20 ADD PUSH1 0x0 KECCAK256 PUSH1 0x0 SWAP1 SLOAD SWAP1 PUSH2 0x100 EXP SWAP1 DIV PUSH1 0xFF AND SWAP1 POP SWAP3 SWAP2 POP POP JUMP JUMPDEST DUP3 DUP1 SLOAD PUSH3 0x439 SWAP1 PUSH3 0x69F JUMP JUMPDEST SWAP1 PUSH1 0x0 MSTORE PUSH1 0x20 PUSH1 0x0 KECCAK256 SWAP1 PUSH1 0x1F ADD PUSH1 0x20 SWAP1 DIV DUP2 ADD SWAP3 DUP3 PUSH3 0x45D JUMPI PUSH1 0x0 DUP6 SSTORE PUSH3 0x4A9 JUMP JUMPDEST DUP3 PUSH1 0x1F LT PUSH3 0x478 JUMPI DUP1 MLOAD PUSH1 0xFF NOT AND DUP4 DUP1 ADD OR DUP6 SSTORE PUSH3 0x4A9 JUMP JUMPDEST DUP3 DUP1 ADD PUSH1 0x1 ADD DUP6 SSTORE DUP3 ISZERO PUSH3 0x4A9 JUMPI SWAP2 DUP3 ADD JUMPDEST DUP3 DUP2 GT ISZERO PUSH3 0x4A8 JUMPI DUP3 MLOAD DUP3 SSTORE SWAP2 PUSH1 0x20 ADD SWAP2 SWAP1 PUSH1 0x1 ADD SWAP1 PUSH3 0x48B JUMP JUMPDEST JUMPDEST POP SWAP1 POP PUSH3 0x4B8 SWAP2 SWAP1 PUSH3 0x4BC JUMP JUMPDEST POP SWAP1 JUMP JUMPDEST JUMPDEST DUP1 DUP3 GT ISZERO PUSH3 0x4D7 JUMPI PUSH1 0x0 DUP2 PUSH1 0x0 SWAP1 SSTORE POP PUSH1 0x1 ADD PUSH3 0x4BD JUMP JUMPDEST POP SWAP1 JUMP JUMPDEST PUSH1 0x0 PUSH3 0x4F2 PUSH3 0x4EC DUP5 PUSH3 0x5FF JUMP JUMPDEST PUSH3 0x5D6 JUMP JUMPDEST SWAP1 POP DUP3 DUP2 MSTORE PUSH1 0x20 DUP2 ADD DUP5 DUP5 DUP5 ADD GT ISZERO PUSH3 0x511 JUMPI PUSH3 0x510 PUSH3 0x76E JUMP JUMPDEST JUMPDEST PUSH3 0x51E DUP5 DUP3 DUP6 PUSH3 0x669 JUMP JUMPDEST POP SWAP4 SWAP3 POP POP POP JUMP JUMPDEST PUSH1 0x0 DUP2 MLOAD SWAP1 POP PUSH3 0x537 DUP2 PUSH3 0x78E JUMP JUMPDEST SWAP3 SWAP2 POP POP JUMP JUMPDEST PUSH1 0x0 DUP3 PUSH1 0x1F DUP4 ADD SLT PUSH3 0x555 JUMPI PUSH3 0x554 PUSH3 0x769 JUMP JUMPDEST JUMPDEST DUP2 MLOAD PUSH3 0x567 DUP5 DUP3 PUSH1 0x20 DUP7 ADD PUSH3 0x4DB JUMP JUMPDEST SWAP2 POP POP SWAP3 SWAP2 POP POP JUMP JUMPDEST PUSH1 0x0 DUP1 PUSH1 0x40 DUP4 DUP6 SUB SLT ISZERO PUSH3 0x58A JUMPI PUSH3 0x589 PUSH3 0x778 JUMP JUMPDEST JUMPDEST PUSH1 0x0 DUP4 ADD MLOAD PUSH8 0xFFFFFFFFFFFFFFFF DUP2 GT ISZERO PUSH3 0x5AB JUMPI PUSH3 0x5AA PUSH3 0x773 JUMP JUMPDEST JUMPDEST PUSH3 0x5B9 DUP6 DUP3 DUP7 ADD PUSH3 0x53D JUMP JUMPDEST SWAP3 POP POP PUSH1 0x20 PUSH3 0x5CC DUP6 DUP3 DUP7 ADD PUSH3 0x526 JUMP JUMPDEST SWAP2 POP POP SWAP3 POP SWAP3 SWAP1 POP JUMP JUMPDEST PUSH1 0x0 PUSH3 0x5E2 PUSH3 0x5F5 JUMP JUMPDEST SWAP1 POP PUSH3 0x5F0 DUP3 DUP3 PUSH3 0x6D5 JUMP JUMPDEST SWAP2 SWAP1 POP JUMP JUMPDEST PUSH1 0x0 PUSH1 0x40 MLOAD SWAP1 POP SWAP1 JUMP JUMPDEST PUSH1 0x0 PUSH8 0xFFFFFFFFFFFFFFFF DUP3 GT ISZERO PUSH3 0x61D JUMPI PUSH3 0x61C PUSH3 0x73A JUMP JUMPDEST JUMPDEST PUSH3 0x628 DUP3 PUSH3 0x77D JUMP JUMPDEST SWAP1 POP PUSH1 0x20 DUP2 ADD SWAP1 POP SWAP2 SWAP1 POP JUMP JUMPDEST PUSH1 0x0 PUSH3 0x642 DUP3 PUSH3 0x649 JUMP JUMPDEST SWAP1 POP SWAP2 SWAP1 POP JUMP JUMPDEST PUSH1 0x0 PUSH20 0xFFFFFFFFFFFFFFFFFFFFFFFFFFFFFFFFFFFFFFFF DUP3 AND SWAP1 POP SWAP2 SWAP1 POP JUMP JUMPDEST PUSH1 0x0 JUMPDEST DUP4 DUP2 LT ISZERO PUSH3 0x689 JUMPI DUP1 DUP3 ADD MLOAD DUP2 DUP5 ADD MSTORE PUSH1 0x20 DUP2 ADD SWAP1 POP PUSH3 0x66C JUMP JUMPDEST DUP4 DUP2 GT ISZERO PUSH3 0x699 JUMPI PUSH1 0x0 DUP5 DUP5 ADD MSTORE JUMPDEST POP POP POP POP JUMP JUMPDEST PUSH1 0x0 PUSH1 0x2 DUP3 DIV SWAP1 POP PUSH1 0x1 DUP3 AND DUP1 PUSH3 0x6B8 JUMPI PUSH1 0x7F DUP3 AND SWAP2 POP JUMPDEST PUSH1 0x20 DUP3 LT DUP2 EQ ISZERO PUSH3 0x6CF JUMPI PUSH3 0x6CE PUSH3 0x70B JUMP JUMPDEST JUMPDEST POP SWAP2 SWAP1 POP JUMP JUMPDEST PUSH3 0x6E0 DUP3 PUSH3 0x77D JUMP JUMPDEST DUP2 ADD DUP2 DUP2 LT PUSH8 0xFFFFFFFFFFFFFFFF DUP3 GT OR ISZERO PUSH3 0x702 JUMPI PUSH3 0x701 PUSH3 0x73A JUMP JUMPDEST JUMPDEST DUP1 PUSH1 0x40 MSTORE POP POP POP JUMP JUMPDEST PUSH32 0x4E487B7100000000000000000000000000000000000000000000000000000000 PUSH1 0x0 MSTORE PUSH1 0x22 PUSH1 0x4 MSTORE PUSH1 0x24 PUSH1 0x0 REVERT JUMPDEST PUSH32 0x4E487B7100000000000000000000000000000000000000000000000000000000 PUSH1 0x0 MSTORE PUSH1 0x41 PUSH1 0x4 MSTORE PUSH1 0x24 PUSH1 0x0 REVERT JUMPDEST PUSH1 0x0 DUP1 REVERT JUMPDEST PUSH1 0x0 DUP1 REVERT JUMPDEST PUSH1 0x0 DUP1 REVERT JUMPDEST PUSH1 0x0 DUP1 REVERT JUMPDEST PUSH1 0x0 PUSH1 0x1F NOT PUSH1 0x1F DUP4 ADD AND SWAP1 POP SWAP2 SWAP1 POP JUMP JUMPDEST PUSH3 0x799 DUP2 PUSH3 0x635 JUMP JUMPDEST DUP2 EQ PUSH3 0x7A5 JUMPI PUSH1 0x0 DUP1 REVERT JUMPDEST POP JUMP JUMPDEST PUSH2 0x5CF9 DUP1 PUSH3 0x7B8 PUSH1 0x0 CODECOPY PUSH1 0x0 RETURN INVALID PUSH1 0x80 PUSH1 0x40 MSTORE PUSH1 0x4 CALLDATASIZE LT PUSH2 0x288 JUMPI PUSH1 0x0 CALLDATALOAD PUSH1 0xE0 SHR DUP1 PUSH4 0x62C9FE06 GT PUSH2 0x15A JUMPI DUP1 PUSH4 0xB2BDFA7B GT PUSH2 0xC1 JUMPI DUP1 PUSH4 0xD547741F GT PUSH2 0x7A JUMPI DUP1 PUSH4 0xD547741F EQ PUSH2 0x9B5 JUMPI DUP1 PUSH4 0xE7CD4A04 EQ PUSH2 0x9DE JUMPI DUP1 PUSH4 0xE985E9C5 EQ PUSH2 0xA07 JUMPI DUP1 PUSH4 0xEECF2033 EQ PUSH2 0xA44 JUMPI DUP1 PUSH4 0xF2FDE38B EQ PUSH2 0xA6F JUMPI DUP1 PUSH4 0xF99031A7 EQ PUSH2 0xA98 JUMPI PUSH2 0x288 JUMP JUMPDEST DUP1 PUSH4 0xB2BDFA7B EQ PUSH2 0x8B2 JUMPI DUP1 PUSH4 0xB6612D76 EQ PUSH2 0x8DD JUMPI DUP1 PUSH4 0xB88D4FDE EQ PUSH2 0x908 JUMPI DUP1 PUSH4 0xC1514D92 EQ PUSH2 0x931 JUMPI DUP1 PUSH4 0xC87B56DD EQ PUSH2 0x94D JUMPI DUP1 PUSH4 0xD5391393 EQ PUSH2 0x98A JUMPI PUSH2 0x288 JUMP JUMPDEST DUP1 PUSH4 0x74E3447A GT PUSH2 0x113 JUMPI DUP1 PUSH4 0x74E3447A EQ PUSH2 0x7A0 JUMPI DUP1 PUSH4 0x8DA5CB5B EQ PUSH2 0x7CB JUMPI DUP1 PUSH4 0x91D14854 EQ PUSH2 0x7F6 JUMPI DUP1 PUSH4 0x95D89B41 EQ PUSH2 0x833 JUMPI DUP1 PUSH4 0xA217FDDF EQ PUSH2 0x85E JUMPI DUP1 PUSH4 0xA22CB465 EQ PUSH2 0x889 JUMPI PUSH2 0x288 JUMP JUMPDEST DUP1 PUSH4 0x62C9FE06 EQ PUSH2 0x6D0 JUMPI DUP1 PUSH4 0x6352211E EQ PUSH2 0x6DA JUMPI DUP1 PUSH4 0x70446BBE EQ PUSH2 0x717 JUMPI DUP1 PUSH4 0x70A08231 EQ PUSH2 0x742 JUMPI DUP1 PUSH4 0x715018A6 EQ PUSH2 0x77F JUMPI DUP1 PUSH4 0x73FF361B EQ PUSH2 0x796 JUMPI PUSH2 0x288 JUMP JUMPDEST DUP1 PUSH4 0x2F745C59 GT PUSH2 0x1FE JUMPI DUP1 PUSH4 0x42842E0E GT PUSH2 0x1B7 JUMPI DUP1 PUSH4 0x42842E0E EQ PUSH2 0x5CD JUMPI DUP1 PUSH4 0x42F6487A EQ PUSH2 0x5F6 JUMPI DUP1 PUSH4 0x4707A389 EQ PUSH2 0x614 JUMPI DUP1 PUSH4 0x491041A4 EQ PUSH2 0x63F JUMPI DUP1 PUSH4 0x4F6CCCE7 EQ PUSH2 0x66A JUMPI DUP1 PUSH4 0x5AA961E5 EQ PUSH2 0x6A7 JUMPI PUSH2 0x288 JUMP JUMPDEST DUP1 PUSH4 0x2F745C59 EQ PUSH2 0x4A6 JUMPI DUP1 PUSH4 0x35DB70B5 EQ PUSH2 0x4E3 JUMPI DUP1 PUSH4 0x36568ABE EQ PUSH2 0x50E JUMPI DUP1 PUSH4 0x37874127 EQ PUSH2 0x537 JUMPI DUP1 PUSH4 0x3E334CF0 EQ PUSH2 0x574 JUMPI DUP1 PUSH4 0x40D097C3 EQ PUSH2 0x5B1 JUMPI PUSH2 0x288 JUMP JUMPDEST DUP1 PUSH4 0xC401D7E GT PUSH2 0x250 JUMPI DUP1 PUSH4 0xC401D7E EQ PUSH2 0x386 JUMPI DUP1 PUSH4 0x18160DDD EQ PUSH2 0x3C3 JUMPI DUP1 PUSH4 0x2042E5C2 EQ PUSH2 0x3EE JUMPI DUP1 PUSH4 0x23B872DD EQ PUSH2 0x417 JUMPI DUP1 PUSH4 0x248A9CA3 EQ PUSH2 0x440 JUMPI DUP1 PUSH4 0x2F2FF15D EQ PUSH2 0x47D JUMPI PUSH2 0x288 JUMP JUMPDEST DUP1 PUSH4 0x1FFC9A7 EQ PUSH2 0x28D JUMPI DUP1 PUSH4 0x3EE438C EQ PUSH2 0x2CA JUMPI DUP1 PUSH4 0x6FDDE03 EQ PUSH2 0x2F5 JUMPI DUP1 PUSH4 0x81812FC EQ PUSH2 0x320 JUMPI DUP1 PUSH4 0x95EA7B3 EQ PUSH2 0x35D JUMPI JUMPDEST PUSH1 0x0 DUP1 REVERT JUMPDEST CALLVALUE DUP1 ISZERO PUSH2 0x299 JUMPI PUSH1 0x0 DUP1 REVERT JUMPDEST POP PUSH2 0x2B4 PUSH1 0x4 DUP1 CALLDATASIZE SUB DUP2 ADD SWAP1 PUSH2 0x2AF SWAP2 SWAP1 PUSH2 0x439D JUMP JUMPDEST PUSH2 0xAD5 JUMP JUMPDEST PUSH1 0x40 MLOAD PUSH2 0x2C1 SWAP2 SWAP1 PUSH2 0x4BB6 JUMP JUMPDEST PUSH1 0x40 MLOAD DUP1 SWAP2 SUB SWAP1 RETURN JUMPDEST CALLVALUE DUP1 ISZERO PUSH2 0x2D6 JUMPI PUSH1 0x0 DUP1 REVERT JUMPDEST POP PUSH2 0x2DF PUSH2 0xAE7 JUMP JUMPDEST PUSH1 0x40 MLOAD PUSH2 0x2EC SWAP2 SWAP1 PUSH2 0x4C07 JUMP JUMPDEST PUSH1 0x40 MLOAD DUP1 SWAP2 SUB SWAP1 RETURN JUMPDEST CALLVALUE DUP1 ISZERO PUSH2 0x301 JUMPI PUSH1 0x0 DUP1 REVERT JUMPDEST POP PUSH2 0x30A PUSH2 0xB76 JUMP JUMPDEST PUSH1 0x40 MLOAD PUSH2 0x317 SWAP2 SWAP1 PUSH2 0x4C07 JUMP JUMPDEST PUSH1 0x40 MLOAD DUP1 SWAP2 SUB SWAP1 RETURN JUMPDEST CALLVALUE DUP1 ISZERO PUSH2 0x32C JUMPI PUSH1 0x0 DUP1 REVERT JUMPDEST POP PUSH2 0x347 PUSH1 0x4 DUP1 CALLDATASIZE SUB DUP2 ADD SWAP1 PUSH2 0x342 SWAP2 SWAP1 PUSH2 0x43F7 JUMP JUMPDEST PUSH2 0xC08 JUMP JUMPDEST PUSH1 0x40 MLOAD PUSH2 0x354 SWAP2 SWAP1 PUSH2 0x4B26 JUMP JUMPDEST PUSH1 0x40 MLOAD DUP1 SWAP2 SUB SWAP1 RETURN JUMPDEST CALLVALUE DUP1 ISZERO PUSH2 0x369 JUMPI PUSH1 0x0 DUP1 REVERT JUMPDEST POP PUSH2 0x384 PUSH1 0x4 DUP1 CALLDATASIZE SUB DUP2 ADD SWAP1 PUSH2 0x37F SWAP2 SWAP1 PUSH2 0x42F0 JUMP JUMPDEST PUSH2 0xC8D JUMP JUMPDEST STOP JUMPDEST CALLVALUE DUP1 ISZERO PUSH2 0x392 JUMPI PUSH1 0x0 DUP1 REVERT JUMPDEST POP PUSH2 0x3AD PUSH1 0x4 DUP1 CALLDATASIZE SUB DUP2 ADD SWAP1 PUSH2 0x3A8 SWAP2 SWAP1 PUSH2 0x43F7 JUMP JUMPDEST PUSH2 0xDA5 JUMP JUMPDEST PUSH1 0x40 MLOAD PUSH2 0x3BA SWAP2 SWAP1 PUSH2 0x4BB6 JUMP JUMPDEST PUSH1 0x40 MLOAD DUP1 SWAP2 SUB SWAP1 RETURN JUMPDEST CALLVALUE DUP1 ISZERO PUSH2 0x3CF JUMPI PUSH1 0x0 DUP1 REVERT JUMPDEST POP PUSH2 0x3D8 PUSH2 0xDC6 JUMP JUMPDEST PUSH1 0x40 MLOAD PUSH2 0x3E5 SWAP2 SWAP1 PUSH2 0x4F69 JUMP JUMPDEST PUSH1 0x40 MLOAD DUP1 SWAP2 SUB SWAP1 RETURN JUMPDEST CALLVALUE DUP1 ISZERO PUSH2 0x3FA JUMPI PUSH1 0x0 DUP1 REVERT JUMPDEST POP PUSH2 0x415 PUSH1 0x4 DUP1 CALLDATASIZE SUB DUP2 ADD SWAP1 PUSH2 0x410 SWAP2 SWAP1 PUSH2 0x416D JUMP JUMPDEST PUSH2 0xDD3 JUMP JUMPDEST STOP JUMPDEST CALLVALUE DUP1 ISZERO PUSH2 0x423 JUMPI PUSH1 0x0 DUP1 REVERT JUMPDEST POP PUSH2 0x43E PUSH1 0x4 DUP1 CALLDATASIZE SUB DUP2 ADD SWAP1 PUSH2 0x439 SWAP2 SWAP1 PUSH2 0x41DA JUMP JUMPDEST PUSH2 0xED5 JUMP JUMPDEST STOP JUMPDEST CALLVALUE DUP1 ISZERO PUSH2 0x44C JUMPI PUSH1 0x0 DUP1 REVERT JUMPDEST POP PUSH2 0x467 PUSH1 0x4 DUP1 CALLDATASIZE SUB DUP2 ADD SWAP1 PUSH2 0x462 SWAP2 SWAP1 PUSH2 0x4330 JUMP JUMPDEST PUSH2 0xF35 JUMP JUMPDEST PUSH1 0x40 MLOAD PUSH2 0x474 SWAP2 SWAP1 PUSH2 0x4BD1 JUMP JUMPDEST PUSH1 0x40 MLOAD DUP1 SWAP2 SUB SWAP1 RETURN JUMPDEST CALLVALUE DUP1 ISZERO PUSH2 0x489 JUMPI PUSH1 0x0 DUP1 REVERT JUMPDEST POP PUSH2 0x4A4 PUSH1 0x4 DUP1 CALLDATASIZE SUB DUP2 ADD SWAP1 PUSH2 0x49F SWAP2 SWAP1 PUSH2 0x435D JUMP JUMPDEST PUSH2 0xF55 JUMP JUMPDEST STOP JUMPDEST CALLVALUE DUP1 ISZERO PUSH2 0x4B2 JUMPI PUSH1 0x0 DUP1 REVERT JUMPDEST POP PUSH2 0x4CD PUSH1 0x4 DUP1 CALLDATASIZE SUB DUP2 ADD SWAP1 PUSH2 0x4C8 SWAP2 SWAP1 PUSH2 0x42F0 JUMP JUMPDEST PUSH2 0xF76 JUMP JUMPDEST PUSH1 0x40 MLOAD PUSH2 0x4DA SWAP2 SWAP1 PUSH2 0x4F69 JUMP JUMPDEST PUSH1 0x40 MLOAD DUP1 SWAP2 SUB SWAP1 RETURN JUMPDEST CALLVALUE DUP1 ISZERO PUSH2 0x4EF JUMPI PUSH1 0x0 DUP1 REVERT JUMPDEST POP PUSH2 0x4F8 PUSH2 0x101B JUMP JUMPDEST PUSH1 0x40 MLOAD PUSH2 0x505 SWAP2 SWAP1 PUSH2 0x4FD6 JUMP JUMPDEST PUSH1 0x40 MLOAD DUP1 SWAP2 SUB SWAP1 RETURN JUMPDEST CALLVALUE DUP1 ISZERO PUSH2 0x51A JUMPI PUSH1 0x0 DUP1 REVERT JUMPDEST POP PUSH2 0x535 PUSH1 0x4 DUP1 CALLDATASIZE SUB DUP2 ADD SWAP1 PUSH2 0x530 SWAP2 SWAP1 PUSH2 0x435D JUMP JUMPDEST PUSH2 0x1036 JUMP JUMPDEST STOP JUMPDEST CALLVALUE DUP1 ISZERO PUSH2 0x543 JUMPI PUSH1 0x0 DUP1 REVERT JUMPDEST POP PUSH2 0x55E PUSH1 0x4 DUP1 CALLDATASIZE SUB DUP2 ADD SWAP1 PUSH2 0x559 SWAP2 SWAP1 PUSH2 0x43F7 JUMP JUMPDEST PUSH2 0x10B9 JUMP JUMPDEST PUSH1 0x40 MLOAD PUSH2 0x56B SWAP2 SWAP1 PUSH2 0x4F69 JUMP JUMPDEST PUSH1 0x40 MLOAD DUP1 SWAP2 SUB SWAP1 RETURN JUMPDEST CALLVALUE DUP1 ISZERO PUSH2 0x580 JUMPI PUSH1 0x0 DUP1 REVERT JUMPDEST POP PUSH2 0x59B PUSH1 0x4 DUP1 CALLDATASIZE SUB DUP2 ADD SWAP1 PUSH2 0x596 SWAP2 SWAP1 PUSH2 0x43F7 JUMP JUMPDEST PUSH2 0x10D8 JUMP JUMPDEST PUSH1 0x40 MLOAD PUSH2 0x5A8 SWAP2 SWAP1 PUSH2 0x4F69 JUMP JUMPDEST PUSH1 0x40 MLOAD DUP1 SWAP2 SUB SWAP1 RETURN JUMPDEST PUSH2 0x5CB PUSH1 0x4 DUP1 CALLDATASIZE SUB DUP2 ADD SWAP1 PUSH2 0x5C6 SWAP2 SWAP1 PUSH2 0x416D JUMP JUMPDEST PUSH2 0x10F9 JUMP JUMPDEST STOP JUMPDEST CALLVALUE DUP1 ISZERO PUSH2 0x5D9 JUMPI PUSH1 0x0 DUP1 REVERT JUMPDEST POP PUSH2 0x5F4 PUSH1 0x4 DUP1 CALLDATASIZE SUB DUP2 ADD SWAP1 PUSH2 0x5EF SWAP2 SWAP1 PUSH2 0x41DA JUMP JUMPDEST PUSH2 0x15BF JUMP JUMPDEST STOP JUMPDEST PUSH2 0x5FE PUSH2 0x15DF JUMP JUMPDEST PUSH1 0x40 MLOAD PUSH2 0x60B SWAP2 SWAP1 PUSH2 0x4BB6 JUMP JUMPDEST PUSH1 0x40 MLOAD DUP1 SWAP2 SUB SWAP1 RETURN JUMPDEST CALLVALUE DUP1 ISZERO PUSH2 0x620 JUMPI PUSH1 0x0 DUP1 REVERT JUMPDEST POP PUSH2 0x629 PUSH2 0x17BC JUMP JUMPDEST PUSH1 0x40 MLOAD PUSH2 0x636 SWAP2 SWAP1 PUSH2 0x4F69 JUMP JUMPDEST PUSH1 0x40 MLOAD DUP1 SWAP2 SUB SWAP1 RETURN JUMPDEST CALLVALUE DUP1 ISZERO PUSH2 0x64B JUMPI PUSH1 0x0 DUP1 REVERT JUMPDEST POP PUSH2 0x654 PUSH2 0x17C2 JUMP JUMPDEST PUSH1 0x40 MLOAD PUSH2 0x661 SWAP2 SWAP1 PUSH2 0x4BEC JUMP JUMPDEST PUSH1 0x40 MLOAD DUP1 SWAP2 SUB SWAP1 RETURN JUMPDEST CALLVALUE DUP1 ISZERO PUSH2 0x676 JUMPI PUSH1 0x0 DUP1 REVERT JUMPDEST POP PUSH2 0x691 PUSH1 0x4 DUP1 CALLDATASIZE SUB DUP2 ADD SWAP1 PUSH2 0x68C SWAP2 SWAP1 PUSH2 0x43F7 JUMP JUMPDEST PUSH2 0x17E9 JUMP JUMPDEST PUSH1 0x40 MLOAD PUSH2 0x69E SWAP2 SWAP1 PUSH2 0x4F69 JUMP JUMPDEST PUSH1 0x40 MLOAD DUP1 SWAP2 SUB SWAP1 RETURN JUMPDEST CALLVALUE DUP1 ISZERO PUSH2 0x6B3 JUMPI PUSH1 0x0 DUP1 REVERT JUMPDEST POP PUSH2 0x6CE PUSH1 0x4 DUP1 CALLDATASIZE SUB DUP2 ADD SWAP1 PUSH2 0x6C9 SWAP2 SWAP1 PUSH2 0x4424 JUMP JUMPDEST PUSH2 0x185A JUMP JUMPDEST STOP JUMPDEST PUSH2 0x6D8 PUSH2 0x1887 JUMP JUMPDEST STOP JUMPDEST CALLVALUE DUP1 ISZERO PUSH2 0x6E6 JUMPI PUSH1 0x0 DUP1 REVERT JUMPDEST POP PUSH2 0x701 PUSH1 0x4 DUP1 CALLDATASIZE SUB DUP2 ADD SWAP1 PUSH2 0x6FC SWAP2 SWAP1 PUSH2 0x43F7 JUMP JUMPDEST PUSH2 0x18A6 JUMP JUMPDEST PUSH1 0x40 MLOAD PUSH2 0x70E SWAP2 SWAP1 PUSH2 0x4B26 JUMP JUMPDEST PUSH1 0x40 MLOAD DUP1 SWAP2 SUB SWAP1 RETURN JUMPDEST CALLVALUE DUP1 ISZERO PUSH2 0x723 JUMPI PUSH1 0x0 DUP1 REVERT JUMPDEST POP PUSH2 0x72C PUSH2 0x1958 JUMP JUMPDEST PUSH1 0x40 MLOAD PUSH2 0x739 SWAP2 SWAP1 PUSH2 0x4F69 JUMP JUMPDEST PUSH1 0x40 MLOAD DUP1 SWAP2 SUB SWAP1 RETURN JUMPDEST CALLVALUE DUP1 ISZERO PUSH2 0x74E JUMPI PUSH1 0x0 DUP1 REVERT JUMPDEST POP PUSH2 0x769 PUSH1 0x4 DUP1 CALLDATASIZE SUB DUP2 ADD SWAP1 PUSH2 0x764 SWAP2 SWAP1 PUSH2 0x416D JUMP JUMPDEST PUSH2 0x195E JUMP JUMPDEST PUSH1 0x40 MLOAD PUSH2 0x776 SWAP2 SWAP1 PUSH2 0x4F69 JUMP JUMPDEST PUSH1 0x40 MLOAD DUP1 SWAP2 SUB SWAP1 RETURN JUMPDEST CALLVALUE DUP1 ISZERO PUSH2 0x78B JUMPI PUSH1 0x0 DUP1 REVERT JUMPDEST POP PUSH2 0x794 PUSH2 0x1A16 JUMP JUMPDEST STOP JUMPDEST PUSH2 0x79E PUSH2 0x1A9E JUMP JUMPDEST STOP JUMPDEST CALLVALUE DUP1 ISZERO PUSH2 0x7AC JUMPI PUSH1 0x0 DUP1 REVERT JUMPDEST POP PUSH2 0x7B5 PUSH2 0x1AE1 JUMP JUMPDEST PUSH1 0x40 MLOAD PUSH2 0x7C2 SWAP2 SWAP1 PUSH2 0x4BD1 JUMP JUMPDEST PUSH1 0x40 MLOAD DUP1 SWAP2 SUB SWAP1 RETURN JUMPDEST CALLVALUE DUP1 ISZERO PUSH2 0x7D7 JUMPI PUSH1 0x0 DUP1 REVERT JUMPDEST POP PUSH2 0x7E0 PUSH2 0x1B05 JUMP JUMPDEST PUSH1 0x40 MLOAD PUSH2 0x7ED SWAP2 SWAP1 PUSH2 0x4B26 JUMP JUMPDEST PUSH1 0x40 MLOAD DUP1 SWAP2 SUB SWAP1 RETURN JUMPDEST CALLVALUE DUP1 ISZERO PUSH2 0x802 JUMPI PUSH1 0x0 DUP1 REVERT JUMPDEST POP PUSH2 0x81D PUSH1 0x4 DUP1 CALLDATASIZE SUB DUP2 ADD SWAP1 PUSH2 0x818 SWAP2 SWAP1 PUSH2 0x435D JUMP JUMPDEST PUSH2 0x1B2F JUMP JUMPDEST PUSH1 0x40 MLOAD PUSH2 0x82A SWAP2 SWAP1 PUSH2 0x4BB6 JUMP JUMPDEST PUSH1 0x40 MLOAD DUP1 SWAP2 SUB SWAP1 RETURN JUMPDEST CALLVALUE DUP1 ISZERO PUSH2 0x83F JUMPI PUSH1 0x0 DUP1 REVERT JUMPDEST POP PUSH2 0x848 PUSH2 0x1B9A JUMP JUMPDEST PUSH1 0x40 MLOAD PUSH2 0x855 SWAP2 SWAP1 PUSH2 0x4C07 JUMP JUMPDEST PUSH1 0x40 MLOAD DUP1 SWAP2 SUB SWAP1 RETURN JUMPDEST CALLVALUE DUP1 ISZERO PUSH2 0x86A JUMPI PUSH1 0x0 DUP1 REVERT JUMPDEST POP PUSH2 0x873 PUSH2 0x1C2C JUMP JUMPDEST PUSH1 0x40 MLOAD PUSH2 0x880 SWAP2 SWAP1 PUSH2 0x4BD1 JUMP JUMPDEST PUSH1 0x40 MLOAD DUP1 SWAP2 SUB SWAP1 RETURN JUMPDEST CALLVALUE DUP1 ISZERO PUSH2 0x895 JUMPI PUSH1 0x0 DUP1 REVERT JUMPDEST POP PUSH2 0x8B0 PUSH1 0x4 DUP1 CALLDATASIZE SUB DUP2 ADD SWAP1 PUSH2 0x8AB SWAP2 SWAP1 PUSH2 0x42B0 JUMP JUMPDEST PUSH2 0x1C33 JUMP JUMPDEST STOP JUMPDEST CALLVALUE DUP1 ISZERO PUSH2 0x8BE JUMPI PUSH1 0x0 DUP1 REVERT JUMPDEST POP PUSH2 0x8C7 PUSH2 0x1C49 JUMP JUMPDEST PUSH1 0x40 MLOAD PUSH2 0x8D4 SWAP2 SWAP1 PUSH2 0x4B26 JUMP JUMPDEST PUSH1 0x40 MLOAD DUP1 SWAP2 SUB SWAP1 RETURN JUMPDEST CALLVALUE DUP1 ISZERO PUSH2 0x8E9 JUMPI PUSH1 0x0 DUP1 REVERT JUMPDEST POP PUSH2 0x8F2 PUSH2 0x1C70 JUMP JUMPDEST PUSH1 0x40 MLOAD PUSH2 0x8FF SWAP2 SWAP1 PUSH2 0x4F69 JUMP JUMPDEST PUSH1 0x40 MLOAD DUP1 SWAP2 SUB SWAP1 RETURN JUMPDEST CALLVALUE DUP1 ISZERO PUSH2 0x914 JUMPI PUSH1 0x0 DUP1 REVERT JUMPDEST POP PUSH2 0x92F PUSH1 0x4 DUP1 CALLDATASIZE SUB DUP2 ADD SWAP1 PUSH2 0x92A SWAP2 SWAP1 PUSH2 0x422D JUMP JUMPDEST PUSH2 0x1C77 JUMP JUMPDEST STOP JUMPDEST PUSH2 0x94B PUSH1 0x4 DUP1 CALLDATASIZE SUB DUP2 ADD SWAP1 PUSH2 0x946 SWAP2 SWAP1 PUSH2 0x416D JUMP JUMPDEST PUSH2 0x1CD9 JUMP JUMPDEST STOP JUMPDEST CALLVALUE DUP1 ISZERO PUSH2 0x959 JUMPI PUSH1 0x0 DUP1 REVERT JUMPDEST POP PUSH2 0x974 PUSH1 0x4 DUP1 CALLDATASIZE SUB DUP2 ADD SWAP1 PUSH2 0x96F SWAP2 SWAP1 PUSH2 0x43F7 JUMP JUMPDEST PUSH2 0x21FD JUMP JUMPDEST PUSH1 0x40 MLOAD PUSH2 0x981 SWAP2 SWAP1 PUSH2 0x4C07 JUMP JUMPDEST PUSH1 0x40 MLOAD DUP1 SWAP2 SUB SWAP1 RETURN JUMPDEST CALLVALUE DUP1 ISZERO PUSH2 0x996 JUMPI PUSH1 0x0 DUP1 REVERT JUMPDEST POP PUSH2 0x99F PUSH2 0x224F JUMP JUMPDEST PUSH1 0x40 MLOAD PUSH2 0x9AC SWAP2 SWAP1 PUSH2 0x4BD1 JUMP JUMPDEST PUSH1 0x40 MLOAD DUP1 SWAP2 SUB SWAP1 RETURN JUMPDEST CALLVALUE DUP1 ISZERO PUSH2 0x9C1 JUMPI PUSH1 0x0 DUP1 REVERT JUMPDEST POP PUSH2 0x9DC PUSH1 0x4 DUP1 CALLDATASIZE SUB DUP2 ADD SWAP1 PUSH2 0x9D7 SWAP2 SWAP1 PUSH2 0x435D JUMP JUMPDEST PUSH2 0x2273 JUMP JUMPDEST STOP JUMPDEST CALLVALUE DUP1 ISZERO PUSH2 0x9EA JUMPI PUSH1 0x0 DUP1 REVERT JUMPDEST POP PUSH2 0xA05 PUSH1 0x4 DUP1 CALLDATASIZE SUB DUP2 ADD SWAP1 PUSH2 0xA00 SWAP2 SWAP1 PUSH2 0x416D JUMP JUMPDEST PUSH2 0x2294 JUMP JUMPDEST STOP JUMPDEST CALLVALUE DUP1 ISZERO PUSH2 0xA13 JUMPI PUSH1 0x0 DUP1 REVERT JUMPDEST POP PUSH2 0xA2E PUSH1 0x4 DUP1 CALLDATASIZE SUB DUP2 ADD SWAP1 PUSH2 0xA29 SWAP2 SWAP1 PUSH2 0x419A JUMP JUMPDEST PUSH2 0x2396 JUMP JUMPDEST PUSH1 0x40 MLOAD PUSH2 0xA3B SWAP2 SWAP1 PUSH2 0x4BB6 JUMP JUMPDEST PUSH1 0x40 MLOAD DUP1 SWAP2 SUB SWAP1 RETURN JUMPDEST CALLVALUE DUP1 ISZERO PUSH2 0xA50 JUMPI PUSH1 0x0 DUP1 REVERT JUMPDEST POP PUSH2 0xA59 PUSH2 0x242A JUMP JUMPDEST PUSH1 0x40 MLOAD PUSH2 0xA66 SWAP2 SWAP1 PUSH2 0x4F69 JUMP JUMPDEST PUSH1 0x40 MLOAD DUP1 SWAP2 SUB SWAP1 RETURN JUMPDEST CALLVALUE DUP1 ISZERO PUSH2 0xA7B JUMPI PUSH1 0x0 DUP1 REVERT JUMPDEST POP PUSH2 0xA96 PUSH1 0x4 DUP1 CALLDATASIZE SUB DUP2 ADD SWAP1 PUSH2 0xA91 SWAP2 SWAP1 PUSH2 0x416D JUMP JUMPDEST PUSH2 0x2431 JUMP JUMPDEST STOP JUMPDEST CALLVALUE DUP1 ISZERO PUSH2 0xAA4 JUMPI PUSH1 0x0 DUP1 REVERT JUMPDEST POP PUSH2 0xABF PUSH1 0x4 DUP1 CALLDATASIZE SUB DUP2 ADD SWAP1 PUSH2 0xABA SWAP2 SWAP1 PUSH2 0x416D JUMP JUMPDEST PUSH2 0x2529 JUMP JUMPDEST PUSH1 0x40 MLOAD PUSH2 0xACC SWAP2 SWAP1 PUSH2 0x4BB6 JUMP JUMPDEST PUSH1 0x40 MLOAD DUP1 SWAP2 SUB SWAP1 RETURN JUMPDEST PUSH1 0x0 PUSH2 0xAE0 DUP3 PUSH2 0x254A JUMP JUMPDEST SWAP1 POP SWAP2 SWAP1 POP JUMP JUMPDEST PUSH2 0x40F DUP1 SLOAD PUSH2 0xAF5 SWAP1 PUSH2 0x52F3 JUMP JUMPDEST DUP1 PUSH1 0x1F ADD PUSH1 0x20 DUP1 SWAP2 DIV MUL PUSH1 0x20 ADD PUSH1 0x40 MLOAD SWAP1 DUP2 ADD PUSH1 0x40 MSTORE DUP1 SWAP3 SWAP2 SWAP1 DUP2 DUP2 MSTORE PUSH1 0x20 ADD DUP3 DUP1 SLOAD PUSH2 0xB21 SWAP1 PUSH2 0x52F3 JUMP JUMPDEST DUP1 ISZERO PUSH2 0xB6E JUMPI DUP1 PUSH1 0x1F LT PUSH2 0xB43 JUMPI PUSH2 0x100 DUP1 DUP4 SLOAD DIV MUL DUP4 MSTORE SWAP2 PUSH1 0x20 ADD SWAP2 PUSH2 0xB6E JUMP JUMPDEST DUP3 ADD SWAP2 SWAP1 PUSH1 0x0 MSTORE PUSH1 0x20 PUSH1 0x0 KECCAK256 SWAP1 JUMPDEST DUP2 SLOAD DUP2 MSTORE SWAP1 PUSH1 0x1 ADD SWAP1 PUSH1 0x20 ADD DUP1 DUP4 GT PUSH2 0xB51 JUMPI DUP3 SWAP1 SUB PUSH1 0x1F AND DUP3 ADD SWAP2 JUMPDEST POP POP POP POP POP DUP2 JUMP JUMPDEST PUSH1 0x60 PUSH1 0x0 DUP1 SLOAD PUSH2 0xB85 SWAP1 PUSH2 0x52F3 JUMP JUMPDEST DUP1 PUSH1 0x1F ADD PUSH1 0x20 DUP1 SWAP2 DIV MUL PUSH1 0x20 ADD PUSH1 0x40 MLOAD SWAP1 DUP2 ADD PUSH1 0x40 MSTORE DUP1 SWAP3 SWAP2 SWAP1 DUP2 DUP2 MSTORE PUSH1 0x20 ADD DUP3 DUP1 SLOAD PUSH2 0xBB1 SWAP1 PUSH2 0x52F3 JUMP JUMPDEST DUP1 ISZERO PUSH2 0xBFE JUMPI DUP1 PUSH1 0x1F LT PUSH2 0xBD3 JUMPI PUSH2 0x100 DUP1 DUP4 SLOAD DIV MUL DUP4 MSTORE SWAP2 PUSH1 0x20 ADD SWAP2 PUSH2 0xBFE JUMP JUMPDEST DUP3 ADD SWAP2 SWAP1 PUSH1 0x0 MSTORE PUSH1 0x20 PUSH1 0x0 KECCAK256 SWAP1 JUMPDEST DUP2 SLOAD DUP2 MSTORE SWAP1 PUSH1 0x1 ADD SWAP1 PUSH1 0x20 ADD DUP1 DUP4 GT PUSH2 0xBE1 JUMPI DUP3 SWAP1 SUB PUSH1 0x1F AND DUP3 ADD SWAP2 JUMPDEST POP POP POP POP POP SWAP1 POP SWAP1 JUMP JUMPDEST PUSH1 0x0 PUSH2 0xC13 DUP3 PUSH2 0x25C4 JUMP JUMPDEST PUSH2 0xC52 JUMPI PUSH1 0x40 MLOAD PUSH32 0x8C379A000000000000000000000000000000000000000000000000000000000 DUP2 MSTORE PUSH1 0x4 ADD PUSH2 0xC49 SWAP1 PUSH2 0x4E49 JUMP JUMPDEST PUSH1 0x40 MLOAD DUP1 SWAP2 SUB SWAP1 REVERT JUMPDEST PUSH1 0x4 PUSH1 0x0 DUP4 DUP2 MSTORE PUSH1 0x20 ADD SWAP1 DUP2 MSTORE PUSH1 0x20 ADD PUSH1 0x0 KECCAK256 PUSH1 0x0 SWAP1 SLOAD SWAP1 PUSH2 0x100 EXP SWAP1 DIV PUSH20 0xFFFFFFFFFFFFFFFFFFFFFFFFFFFFFFFFFFFFFFFF AND SWAP1 POP SWAP2 SWAP1 POP JUMP JUMPDEST PUSH1 0x0 PUSH2 0xC98 DUP3 PUSH2 0x18A6 JUMP JUMPDEST SWAP1 POP DUP1 PUSH20 0xFFFFFFFFFFFFFFFFFFFFFFFFFFFFFFFFFFFFFFFF AND DUP4 PUSH20 0xFFFFFFFFFFFFFFFFFFFFFFFFFFFFFFFFFFFFFFFF AND EQ ISZERO PUSH2 0xD09 JUMPI PUSH1 0x40 MLOAD PUSH32 0x8C379A000000000000000000000000000000000000000000000000000000000 DUP2 MSTORE PUSH1 0x4 ADD PUSH2 0xD00 SWAP1 PUSH2 0x4E89 JUMP JUMPDEST PUSH1 0x40 MLOAD DUP1 SWAP2 SUB SWAP1 REVERT JUMPDEST DUP1 PUSH20 0xFFFFFFFFFFFFFFFFFFFFFFFFFFFFFFFFFFFFFFFF AND PUSH2 0xD28 PUSH2 0x2630 JUMP JUMPDEST PUSH20 0xFFFFFFFFFFFFFFFFFFFFFFFFFFFFFFFFFFFFFFFF AND EQ DUP1 PUSH2 0xD57 JUMPI POP PUSH2 0xD56 DUP2 PUSH2 0xD51 PUSH2 0x2630 JUMP JUMPDEST PUSH2 0x2396 JUMP JUMPDEST JUMPDEST PUSH2 0xD96 JUMPI PUSH1 0x40 MLOAD PUSH32 0x8C379A000000000000000000000000000000000000000000000000000000000 DUP2 MSTORE PUSH1 0x4 ADD PUSH2 0xD8D SWAP1 PUSH2 0x4DA9 JUMP JUMPDEST PUSH1 0x40 MLOAD DUP1 SWAP2 SUB SWAP1 REVERT JUMPDEST PUSH2 0xDA0 DUP4 DUP4 PUSH2 0x2638 JUMP JUMPDEST POP POP POP JUMP JUMPDEST PUSH2 0x413 PUSH1 0x20 MSTORE DUP1 PUSH1 0x0 MSTORE PUSH1 0x40 PUSH1 0x0 KECCAK256 PUSH1 0x0 SWAP2 POP SLOAD SWAP1 PUSH2 0x100 EXP SWAP1 DIV PUSH1 0xFF AND DUP2 JUMP JUMPDEST PUSH1 0x0 PUSH1 0x8 DUP1 SLOAD SWAP1 POP SWAP1 POP SWAP1 JUMP JUMPDEST PUSH2 0xDDB PUSH2 0x2630 JUMP JUMPDEST PUSH20 0xFFFFFFFFFFFFFFFFFFFFFFFFFFFFFFFFFFFFFFFF AND PUSH2 0xDF9 PUSH2 0x1B05 JUMP JUMPDEST PUSH20 0xFFFFFFFFFFFFFFFFFFFFFFFFFFFFFFFFFFFFFFFF AND EQ PUSH2 0xE4F JUMPI PUSH1 0x40 MLOAD PUSH32 0x8C379A000000000000000000000000000000000000000000000000000000000 DUP2 MSTORE PUSH1 0x4 ADD PUSH2 0xE46 SWAP1 PUSH2 0x4E69 JUMP JUMPDEST PUSH1 0x40 MLOAD DUP1 SWAP2 SUB SWAP1 REVERT JUMPDEST PUSH1 0x0 PUSH2 0x412 PUSH1 0x0 DUP4 PUSH20 0xFFFFFFFFFFFFFFFFFFFFFFFFFFFFFFFFFFFFFFFF AND PUSH20 0xFFFFFFFFFFFFFFFFFFFFFFFFFFFFFFFFFFFFFFFF AND DUP2 MSTORE PUSH1 0x20 ADD SWAP1 DUP2 MSTORE PUSH1 0x20 ADD PUSH1 0x0 KECCAK256 PUSH1 0x0 PUSH2 0x100 EXP DUP2 SLOAD DUP2 PUSH1 0xFF MUL NOT AND SWAP1 DUP4 ISZERO ISZERO MUL OR SWAP1 SSTORE POP PUSH2 0xED2 PUSH32 0xB696DF569C2DFECB5A24EDFD39D7F55B0F442BE14350CBC68DBE8EB35489D3A6 DUP3 PUSH2 0x26F1 JUMP JUMPDEST POP JUMP JUMPDEST PUSH2 0xEE6 PUSH2 0xEE0 PUSH2 0x2630 JUMP JUMPDEST DUP3 PUSH2 0x27D3 JUMP JUMPDEST PUSH2 0xF25 JUMPI PUSH1 0x40 MLOAD PUSH32 0x8C379A000000000000000000000000000000000000000000000000000000000 DUP2 MSTORE PUSH1 0x4 ADD PUSH2 0xF1C SWAP1 PUSH2 0x4EA9 JUMP JUMPDEST PUSH1 0x40 MLOAD DUP1 SWAP2 SUB SWAP1 REVERT JUMPDEST PUSH2 0xF30 DUP4 DUP4 DUP4 PUSH2 0x28B1 JUMP JUMPDEST POP POP POP JUMP JUMPDEST PUSH1 0x0 PUSH1 0xB PUSH1 0x0 DUP4 DUP2 MSTORE PUSH1 0x20 ADD SWAP1 DUP2 MSTORE PUSH1 0x20 ADD PUSH1 0x0 KECCAK256 PUSH1 0x1 ADD SLOAD SWAP1 POP SWAP2 SWAP1 POP JUMP JUMPDEST PUSH2 0xF5E DUP3 PUSH2 0xF35 JUMP JUMPDEST PUSH2 0xF67 DUP2 PUSH2 0x2B18 JUMP JUMPDEST PUSH2 0xF71 DUP4 DUP4 PUSH2 0x2B2C JUMP JUMPDEST POP POP POP JUMP JUMPDEST PUSH1 0x0 PUSH2 0xF81 DUP4 PUSH2 0x195E JUMP JUMPDEST DUP3 LT PUSH2 0xFC2 JUMPI PUSH1 0x40 MLOAD PUSH32 0x8C379A000000000000000000000000000000000000000000000000000000000 DUP2 MSTORE PUSH1 0x4 ADD PUSH2 0xFB9 SWAP1 PUSH2 0x4C49 JUMP JUMPDEST PUSH1 0x40 MLOAD DUP1 SWAP2 SUB SWAP1 REVERT JUMPDEST PUSH1 0x6 PUSH1 0x0 DUP5 PUSH20 0xFFFFFFFFFFFFFFFFFFFFFFFFFFFFFFFFFFFFFFFF AND PUSH20 0xFFFFFFFFFFFFFFFFFFFFFFFFFFFFFFFFFFFFFFFF AND DUP2 MSTORE PUSH1 0x20 ADD SWAP1 DUP2 MSTORE PUSH1 0x20 ADD PUSH1 0x0 KECCAK256 PUSH1 0x0 DUP4 DUP2 MSTORE PUSH1 0x20 ADD SWAP1 DUP2 MSTORE PUSH1 0x20 ADD PUSH1 0x0 KECCAK256 SLOAD SWAP1 POP SWAP3 SWAP2 POP POP JUMP JUMPDEST PUSH2 0x40C PUSH1 0x0 SWAP1 SLOAD SWAP1 PUSH2 0x100 EXP SWAP1 DIV PUSH8 0xFFFFFFFFFFFFFFFF AND DUP2 JUMP JUMPDEST PUSH2 0x103E PUSH2 0x2630 JUMP JUMPDEST PUSH20 0xFFFFFFFFFFFFFFFFFFFFFFFFFFFFFFFFFFFFFFFF AND DUP2 PUSH20 0xFFFFFFFFFFFFFFFFFFFFFFFFFFFFFFFFFFFFFFFF AND EQ PUSH2 0x10AB JUMPI PUSH1 0x40 MLOAD PUSH32 0x8C379A000000000000000000000000000000000000000000000000000000000 DUP2 MSTORE PUSH1 0x4 ADD PUSH2 0x10A2 SWAP1 PUSH2 0x4F49 JUMP JUMPDEST PUSH1 0x40 MLOAD DUP1 SWAP2 SUB SWAP1 REVERT JUMPDEST PUSH2 0x10B5 DUP3 DUP3 PUSH2 0x26F1 JUMP JUMPDEST POP POP JUMP JUMPDEST PUSH2 0x411 PUSH1 0x20 MSTORE DUP1 PUSH1 0x0 MSTORE PUSH1 0x40 PUSH1 0x0 KECCAK256 PUSH1 0x0 SWAP2 POP SWAP1 POP DUP1 PUSH1 0x0 ADD SLOAD SWAP1 POP DUP2 JUMP JUMPDEST PUSH1 0x0 PUSH2 0x411 PUSH1 0x0 DUP4 DUP2 MSTORE PUSH1 0x20 ADD SWAP1 DUP2 MSTORE PUSH1 0x20 ADD PUSH1 0x0 KECCAK256 PUSH1 0x0 ADD SLOAD SWAP1 POP SWAP2 SWAP1 POP JUMP JUMPDEST PUSH32 0x9F2DF0FED2C77648DE5860A4CC508CD0818C85B8B8A1AB4CEEEF8D981C8956A6 PUSH2 0x1123 DUP2 PUSH2 0x2B18 JUMP JUMPDEST PUSH2 0x40A SLOAD PUSH2 0x3E8 GT PUSH2 0x116A JUMPI PUSH1 0x40 MLOAD PUSH32 0x8C379A000000000000000000000000000000000000000000000000000000000 DUP2 MSTORE PUSH1 0x4 ADD PUSH2 0x1161 SWAP1 PUSH2 0x4E29 JUMP JUMPDEST PUSH1 0x40 MLOAD DUP1 SWAP2 SUB SWAP1 REVERT JUMPDEST CALLVALUE PUSH2 0x40C PUSH1 0x0 SWAP1 SLOAD SWAP1 PUSH2 0x100 EXP SWAP1 DIV PUSH8 0xFFFFFFFFFFFFFFFF AND PUSH8 0xFFFFFFFFFFFFFFFF AND GT ISZERO PUSH2 0x11CE JUMPI PUSH1 0x40 MLOAD PUSH32 0x8C379A000000000000000000000000000000000000000000000000000000000 DUP2 MSTORE PUSH1 0x4 ADD PUSH2 0x11C5 SWAP1 PUSH2 0x4D89 JUMP JUMPDEST PUSH1 0x40 MLOAD DUP1 SWAP2 SUB SWAP1 REVERT JUMPDEST PUSH1 0x0 PUSH2 0x40A SLOAD SWAP1 POP PUSH2 0x11ED PUSH1 0x1 PUSH2 0x40A SLOAD PUSH2 0x2C0D SWAP1 SWAP2 SWAP1 PUSH4 0xFFFFFFFF AND JUMP JUMPDEST PUSH2 0x40A DUP2 SWAP1 SSTORE POP PUSH1 0x0 PUSH2 0x11FE PUSH2 0x2C23 JUMP JUMPDEST SWAP1 POP PUSH1 0x40 MLOAD DUP1 PUSH1 0x20 ADD PUSH1 0x40 MSTORE DUP1 DUP3 PUSH1 0x0 ADD MLOAD DUP2 MSTORE POP PUSH2 0x411 PUSH1 0x0 DUP5 DUP2 MSTORE PUSH1 0x20 ADD SWAP1 DUP2 MSTORE PUSH1 0x20 ADD PUSH1 0x0 KECCAK256 PUSH1 0x0 DUP3 ADD MLOAD DUP2 PUSH1 0x0 ADD SSTORE SWAP1 POP POP PUSH1 0x0 ISZERO ISZERO PUSH2 0x413 PUSH1 0x0 DUP4 PUSH1 0x0 ADD MLOAD DUP2 MSTORE PUSH1 0x20 ADD SWAP1 DUP2 MSTORE PUSH1 0x20 ADD PUSH1 0x0 KECCAK256 PUSH1 0x0 SWAP1 SLOAD SWAP1 PUSH2 0x100 EXP SWAP1 DIV PUSH1 0xFF AND ISZERO ISZERO EQ PUSH2 0x12A0 JUMPI PUSH1 0x40 MLOAD PUSH32 0x8C379A000000000000000000000000000000000000000000000000000000000 DUP2 MSTORE PUSH1 0x4 ADD PUSH2 0x1297 SWAP1 PUSH2 0x4F29 JUMP JUMPDEST PUSH1 0x40 MLOAD DUP1 SWAP2 SUB SWAP1 REVERT JUMPDEST PUSH1 0x1 PUSH2 0x413 PUSH1 0x0 DUP4 PUSH1 0x0 ADD MLOAD DUP2 MSTORE PUSH1 0x20 ADD SWAP1 DUP2 MSTORE PUSH1 0x20 ADD PUSH1 0x0 KECCAK256 PUSH1 0x0 PUSH2 0x100 EXP DUP2 SLOAD DUP2 PUSH1 0xFF MUL NOT AND SWAP1 DUP4 ISZERO ISZERO MUL OR SWAP1 SSTORE POP PUSH2 0x410 PUSH1 0x0 SWAP1 SLOAD SWAP1 PUSH2 0x100 EXP SWAP1 DIV PUSH20 0xFFFFFFFFFFFFFFFFFFFFFFFFFFFFFFFFFFFFFFFF AND PUSH20 0xFFFFFFFFFFFFFFFFFFFFFFFFFFFFFFFFFFFFFFFF AND PUSH4 0x23EAC4BD DUP4 DUP7 PUSH1 0x40 MLOAD DUP4 PUSH4 0xFFFFFFFF AND PUSH1 0xE0 SHL DUP2 MSTORE PUSH1 0x4 ADD PUSH2 0x132F SWAP3 SWAP2 SWAP1 PUSH2 0x4F84 JUMP JUMPDEST PUSH1 0x0 PUSH1 0x40 MLOAD DUP1 DUP4 SUB DUP2 PUSH1 0x0 DUP8 DUP1 EXTCODESIZE ISZERO DUP1 ISZERO PUSH2 0x1349 JUMPI PUSH1 0x0 DUP1 REVERT JUMPDEST POP GAS CALL ISZERO DUP1 ISZERO PUSH2 0x135D JUMPI RETURNDATASIZE PUSH1 0x0 DUP1 RETURNDATACOPY RETURNDATASIZE PUSH1 0x0 REVERT JUMPDEST POP POP POP POP PUSH2 0x410 PUSH1 0x0 SWAP1 SLOAD SWAP1 PUSH2 0x100 EXP SWAP1 DIV PUSH20 0xFFFFFFFFFFFFFFFFFFFFFFFFFFFFFFFFFFFFFFFF AND PUSH20 0xFFFFFFFFFFFFFFFFFFFFFFFFFFFFFFFFFFFFFFFF AND PUSH4 0xA92AE38A DUP6 DUP4 PUSH1 0x0 ADD MLOAD PUSH1 0x40 MLOAD DUP4 PUSH4 0xFFFFFFFF AND PUSH1 0xE0 SHL DUP2 MSTORE PUSH1 0x4 ADD PUSH2 0x13C3 SWAP3 SWAP2 SWAP1 PUSH2 0x4B8D JUMP JUMPDEST PUSH1 0x0 PUSH1 0x40 MLOAD DUP1 DUP4 SUB DUP2 PUSH1 0x0 DUP8 DUP1 EXTCODESIZE ISZERO DUP1 ISZERO PUSH2 0x13DD JUMPI PUSH1 0x0 DUP1 REVERT JUMPDEST POP GAS CALL ISZERO DUP1 ISZERO PUSH2 0x13F1 JUMPI RETURNDATASIZE PUSH1 0x0 DUP1 RETURNDATACOPY RETURNDATASIZE PUSH1 0x0 REVERT JUMPDEST POP POP POP POP PUSH2 0x410 PUSH1 0x0 SWAP1 SLOAD SWAP1 PUSH2 0x100 EXP SWAP1 DIV PUSH20 0xFFFFFFFFFFFFFFFFFFFFFFFFFFFFFFFFFFFFFFFF AND PUSH20 0xFFFFFFFFFFFFFFFFFFFFFFFFFFFFFFFFFFFFFFFF AND PUSH4 0x9A944FDF DUP3 PUSH1 0x0 ADD MLOAD PUSH1 0x40 MLOAD DUP3 PUSH4 0xFFFFFFFF AND PUSH1 0xE0 SHL DUP2 MSTORE PUSH1 0x4 ADD PUSH2 0x1455 SWAP2 SWAP1 PUSH2 0x4F69 JUMP JUMPDEST PUSH1 0x0 PUSH1 0x40 MLOAD DUP1 DUP4 SUB DUP2 PUSH1 0x0 DUP8 DUP1 EXTCODESIZE ISZERO DUP1 ISZERO PUSH2 0x146F JUMPI PUSH1 0x0 DUP1 REVERT JUMPDEST POP GAS CALL ISZERO DUP1 ISZERO PUSH2 0x1483 JUMPI RETURNDATASIZE PUSH1 0x0 DUP1 RETURNDATACOPY RETURNDATASIZE PUSH1 0x0 REVERT JUMPDEST POP POP POP POP PUSH2 0x410 PUSH1 0x0 SWAP1 SLOAD SWAP1 PUSH2 0x100 EXP SWAP1 DIV PUSH20 0xFFFFFFFFFFFFFFFFFFFFFFFFFFFFFFFFFFFFFFFF AND PUSH20 0xFFFFFFFFFFFFFFFFFFFFFFFFFFFFFFFFFFFFFFFF AND PUSH4 0x1B41B476 DUP3 PUSH1 0x0 ADD MLOAD DUP7 PUSH1 0x40 MLOAD DUP4 PUSH4 0xFFFFFFFF AND PUSH1 0xE0 SHL DUP2 MSTORE PUSH1 0x4 ADD PUSH2 0x14E9 SWAP3 SWAP2 SWAP1 PUSH2 0x4F84 JUMP JUMPDEST PUSH1 0x0 PUSH1 0x40 MLOAD DUP1 DUP4 SUB DUP2 PUSH1 0x0 DUP8 DUP1 EXTCODESIZE ISZERO DUP1 ISZERO PUSH2 0x1503 JUMPI PUSH1 0x0 DUP1 REVERT JUMPDEST POP GAS CALL ISZERO DUP1 ISZERO PUSH2 0x1517 JUMPI RETURNDATASIZE PUSH1 0x0 DUP1 RETURNDATACOPY RETURNDATASIZE PUSH1 0x0 REVERT JUMPDEST POP POP POP POP PUSH2 0x410 PUSH1 0x0 SWAP1 SLOAD SWAP1 PUSH2 0x100 EXP SWAP1 DIV PUSH20 0xFFFFFFFFFFFFFFFFFFFFFFFFFFFFFFFFFFFFFFFF AND PUSH20 0xFFFFFFFFFFFFFFFFFFFFFFFFFFFFFFFFFFFFFFFF AND PUSH4 0xE2BDB880 DUP3 PUSH1 0x0 ADD MLOAD DUP5 PUSH1 0x40 MLOAD DUP4 PUSH4 0xFFFFFFFF AND PUSH1 0xE0 SHL DUP2 MSTORE PUSH1 0x4 ADD PUSH2 0x157D SWAP3 SWAP2 SWAP1 PUSH2 0x4FAD JUMP JUMPDEST PUSH1 0x0 PUSH1 0x40 MLOAD DUP1 DUP4 SUB DUP2 PUSH1 0x0 DUP8 DUP1 EXTCODESIZE ISZERO DUP1 ISZERO PUSH2 0x1597 JUMPI PUSH1 0x0 DUP1 REVERT JUMPDEST POP GAS CALL ISZERO DUP1 ISZERO PUSH2 0x15AB JUMPI RETURNDATASIZE PUSH1 0x0 DUP1 RETURNDATACOPY RETURNDATASIZE PUSH1 0x0 REVERT JUMPDEST POP POP POP POP PUSH2 0x15B9 DUP5 DUP4 PUSH2 0x2C97 JUMP JUMPDEST POP POP POP POP JUMP JUMPDEST PUSH2 0x15DA DUP4 DUP4 DUP4 PUSH1 0x40 MLOAD DUP1 PUSH1 0x20 ADD PUSH1 0x40 MSTORE DUP1 PUSH1 0x0 DUP2 MSTORE POP PUSH2 0x1C77 JUMP JUMPDEST POP POP POP JUMP JUMPDEST PUSH1 0x0 CALLVALUE CALLER PUSH20 0xFFFFFFFFFFFFFFFFFFFFFFFFFFFFFFFFFFFFFFFF AND BALANCE LT ISZERO PUSH2 0x163B JUMPI PUSH1 0x40 MLOAD PUSH32 0x8C379A000000000000000000000000000000000000000000000000000000000 DUP2 MSTORE PUSH1 0x4 ADD PUSH2 0x1632 SWAP1 PUSH2 0x4F09 JUMP JUMPDEST PUSH1 0x40 MLOAD DUP1 SWAP2 SUB SWAP1 REVERT JUMPDEST CALLVALUE PUSH2 0x40C PUSH1 0x0 SWAP1 SLOAD SWAP1 PUSH2 0x100 EXP SWAP1 DIV PUSH8 0xFFFFFFFFFFFFFFFF AND PUSH8 0xFFFFFFFFFFFFFFFF AND EQ PUSH2 0x169E JUMPI PUSH1 0x40 MLOAD PUSH32 0x8C379A000000000000000000000000000000000000000000000000000000000 DUP2 MSTORE PUSH1 0x4 ADD PUSH2 0x1695 SWAP1 PUSH2 0x4CC9 JUMP JUMPDEST PUSH1 0x40 MLOAD DUP1 SWAP2 SUB SWAP1 REVERT JUMPDEST PUSH1 0x0 PUSH2 0x40E PUSH1 0x0 SWAP1 SLOAD SWAP1 PUSH2 0x100 EXP SWAP1 DIV PUSH20 0xFFFFFFFFFFFFFFFFFFFFFFFFFFFFFFFFFFFFFFFF AND PUSH20 0xFFFFFFFFFFFFFFFFFFFFFFFFFFFFFFFFFFFFFFFF AND CALLVALUE PUSH1 0x40 MLOAD PUSH2 0x16E7 SWAP1 PUSH2 0x4A89 JUMP JUMPDEST PUSH1 0x0 PUSH1 0x40 MLOAD DUP1 DUP4 SUB DUP2 DUP6 DUP8 GAS CALL SWAP3 POP POP POP RETURNDATASIZE DUP1 PUSH1 0x0 DUP2 EQ PUSH2 0x1724 JUMPI PUSH1 0x40 MLOAD SWAP2 POP PUSH1 0x1F NOT PUSH1 0x3F RETURNDATASIZE ADD AND DUP3 ADD PUSH1 0x40 MSTORE RETURNDATASIZE DUP3 MSTORE RETURNDATASIZE PUSH1 0x0 PUSH1 0x20 DUP5 ADD RETURNDATACOPY PUSH2 0x1729 JUMP JUMPDEST PUSH1 0x60 SWAP2 POP JUMPDEST POP POP SWAP1 POP DUP1 PUSH2 0x176D JUMPI PUSH1 0x40 MLOAD PUSH32 0x8C379A000000000000000000000000000000000000000000000000000000000 DUP2 MSTORE PUSH1 0x4 ADD PUSH2 0x1764 SWAP1 PUSH2 0x4D09 JUMP JUMPDEST PUSH1 0x40 MLOAD DUP1 SWAP2 SUB SWAP1 REVERT JUMPDEST PUSH2 0x1783 CALLVALUE PUSH2 0x40D SLOAD PUSH2 0x2C0D SWAP1 SWAP2 SWAP1 PUSH4 0xFFFFFFFF AND JUMP JUMPDEST PUSH2 0x40D DUP2 SWAP1 SSTORE POP PUSH2 0x17B4 PUSH32 0x9F2DF0FED2C77648DE5860A4CC508CD0818C85B8B8A1AB4CEEEF8D981C8956A6 CALLER PUSH2 0x2B2C JUMP JUMPDEST PUSH1 0x1 SWAP2 POP POP SWAP1 JUMP JUMPDEST PUSH2 0x2724 DUP2 JUMP JUMPDEST PUSH2 0x410 PUSH1 0x0 SWAP1 SLOAD SWAP1 PUSH2 0x100 EXP SWAP1 DIV PUSH20 0xFFFFFFFFFFFFFFFFFFFFFFFFFFFFFFFFFFFFFFFF AND DUP2 JUMP JUMPDEST PUSH1 0x0 PUSH2 0x17F3 PUSH2 0xDC6 JUMP JUMPDEST DUP3 LT PUSH2 0x1834 JUMPI PUSH1 0x40 MLOAD PUSH32 0x8C379A000000000000000000000000000000000000000000000000000000000 DUP2 MSTORE PUSH1 0x4 ADD PUSH2 0x182B SWAP1 PUSH2 0x4EE9 JUMP JUMPDEST PUSH1 0x40 MLOAD DUP1 SWAP2 SUB SWAP1 REVERT JUMPDEST PUSH1 0x8 DUP3 DUP2 SLOAD DUP2 LT PUSH2 0x1848 JUMPI PUSH2 0x1847 PUSH2 0x54C4 JUMP JUMPDEST JUMPDEST SWAP1 PUSH1 0x0 MSTORE PUSH1 0x20 PUSH1 0x0 KECCAK256 ADD SLOAD SWAP1 POP SWAP2 SWAP1 POP JUMP JUMPDEST DUP1 PUSH2 0x40C PUSH1 0x0 PUSH2 0x100 EXP DUP2 SLOAD DUP2 PUSH8 0xFFFFFFFFFFFFFFFF MUL NOT AND SWAP1 DUP4 PUSH8 0xFFFFFFFFFFFFFFFF AND MUL OR SWAP1 SSTORE POP POP JUMP JUMPDEST PUSH1 0x0 PUSH2 0x1891 PUSH2 0x15DF JUMP JUMPDEST SWAP1 POP DUP1 ISZERO PUSH2 0x18A3 JUMPI PUSH2 0x18A2 CALLER PUSH2 0x1CD9 JUMP JUMPDEST JUMPDEST POP JUMP JUMPDEST PUSH1 0x0 DUP1 PUSH1 0x2 PUSH1 0x0 DUP5 DUP2 MSTORE PUSH1 0x20 ADD SWAP1 DUP2 MSTORE PUSH1 0x20 ADD PUSH1 0x0 KECCAK256 PUSH1 0x0 SWAP1 SLOAD SWAP1 PUSH2 0x100 EXP SWAP1 DIV PUSH20 0xFFFFFFFFFFFFFFFFFFFFFFFFFFFFFFFFFFFFFFFF AND SWAP1 POP PUSH1 0x0 PUSH20 0xFFFFFFFFFFFFFFFFFFFFFFFFFFFFFFFFFFFFFFFF AND DUP2 PUSH20 0xFFFFFFFFFFFFFFFFFFFFFFFFFFFFFFFFFFFFFFFF AND EQ ISZERO PUSH2 0x194F JUMPI PUSH1 0x40 MLOAD PUSH32 0x8C379A000000000000000000000000000000000000000000000000000000000 DUP2 MSTORE PUSH1 0x4 ADD PUSH2 0x1946 SWAP1 PUSH2 0x4DE9 JUMP JUMPDEST PUSH1 0x40 MLOAD DUP1 SWAP2 SUB SWAP1 REVERT JUMPDEST DUP1 SWAP2 POP POP SWAP2 SWAP1 POP JUMP JUMPDEST PUSH2 0x3E8 DUP2 JUMP JUMPDEST PUSH1 0x0 DUP1 PUSH20 0xFFFFFFFFFFFFFFFFFFFFFFFFFFFFFFFFFFFFFFFF AND DUP3 PUSH20 0xFFFFFFFFFFFFFFFFFFFFFFFFFFFFFFFFFFFFFFFF AND EQ ISZERO PUSH2 0x19CF JUMPI PUSH1 0x40 MLOAD PUSH32 0x8C379A000000000000000000000000000000000000000000000000000000000 DUP2 MSTORE PUSH1 0x4 ADD PUSH2 0x19C6 SWAP1 PUSH2 0x4DC9 JUMP JUMPDEST PUSH1 0x40 MLOAD DUP1 SWAP2 SUB SWAP1 REVERT JUMPDEST PUSH1 0x3 PUSH1 0x0 DUP4 PUSH20 0xFFFFFFFFFFFFFFFFFFFFFFFFFFFFFFFFFFFFFFFF AND PUSH20 0xFFFFFFFFFFFFFFFFFFFFFFFFFFFFFFFFFFFFFFFF AND DUP2 MSTORE PUSH1 0x20 ADD SWAP1 DUP2 MSTORE PUSH1 0x20 ADD PUSH1 0x0 KECCAK256 SLOAD SWAP1 POP SWAP2 SWAP1 POP JUMP JUMPDEST PUSH2 0x1A1E PUSH2 0x2630 JUMP JUMPDEST PUSH20 0xFFFFFFFFFFFFFFFFFFFFFFFFFFFFFFFFFFFFFFFF AND PUSH2 0x1A3C PUSH2 0x1B05 JUMP JUMPDEST PUSH20 0xFFFFFFFFFFFFFFFFFFFFFFFFFFFFFFFFFFFFFFFF AND EQ PUSH2 0x1A92 JUMPI PUSH1 0x40 MLOAD PUSH32 0x8C379A000000000000000000000000000000000000000000000000000000000 DUP2 MSTORE PUSH1 0x4 ADD PUSH2 0x1A89 SWAP1 PUSH2 0x4E69 JUMP JUMPDEST PUSH1 0x40 MLOAD DUP1 SWAP2 SUB SWAP1 REVERT JUMPDEST PUSH2 0x1A9C PUSH1 0x0 PUSH2 0x2E71 JUMP JUMPDEST JUMP JUMPDEST PUSH2 0x1AA6 PUSH2 0x15DF JUMP JUMPDEST ISZERO PUSH2 0x1ADF JUMPI PUSH2 0x1AB4 CALLER PUSH2 0x10F9 JUMP JUMPDEST PUSH2 0x1ADE PUSH32 0x9F2DF0FED2C77648DE5860A4CC508CD0818C85B8B8A1AB4CEEEF8D981C8956A6 CALLER PUSH2 0x1036 JUMP JUMPDEST JUMPDEST JUMP JUMPDEST PUSH32 0xB696DF569C2DFECB5A24EDFD39D7F55B0F442BE14350CBC68DBE8EB35489D3A6 DUP2 JUMP JUMPDEST PUSH1 0x0 PUSH1 0xA PUSH1 0x0 SWAP1 SLOAD SWAP1 PUSH2 0x100 EXP SWAP1 DIV PUSH20 0xFFFFFFFFFFFFFFFFFFFFFFFFFFFFFFFFFFFFFFFF AND SWAP1 POP SWAP1 JUMP JUMPDEST PUSH1 0x0 PUSH1 0xB PUSH1 0x0 DUP5 DUP2 MSTORE PUSH1 0x20 ADD SWAP1 DUP2 MSTORE PUSH1 0x20 ADD PUSH1 0x0 KECCAK256 PUSH1 0x0 ADD PUSH1 0x0 DUP4 PUSH20 0xFFFFFFFFFFFFFFFFFFFFFFFFFFFFFFFFFFFFFFFF AND PUSH20 0xFFFFFFFFFFFFFFFFFFFFFFFFFFFFFFFFFFFFFFFF AND DUP2 MSTORE PUSH1 0x20 ADD SWAP1 DUP2 MSTORE PUSH1 0x20 ADD PUSH1 0x0 KECCAK256 PUSH1 0x0 SWAP1 SLOAD SWAP1 PUSH2 0x100 EXP SWAP1 DIV PUSH1 0xFF AND SWAP1 POP SWAP3 SWAP2 POP POP JUMP JUMPDEST PUSH1 0x60 PUSH1 0x1 DUP1 SLOAD PUSH2 0x1BA9 SWAP1 PUSH2 0x52F3 JUMP JUMPDEST DUP1 PUSH1 0x1F ADD PUSH1 0x20 DUP1 SWAP2 DIV MUL PUSH1 0x20 ADD PUSH1 0x40 MLOAD SWAP1 DUP2 ADD PUSH1 0x40 MSTORE DUP1 SWAP3 SWAP2 SWAP1 DUP2 DUP2 MSTORE PUSH1 0x20 ADD DUP3 DUP1 SLOAD PUSH2 0x1BD5 SWAP1 PUSH2 0x52F3 JUMP JUMPDEST DUP1 ISZERO PUSH2 0x1C22 JUMPI DUP1 PUSH1 0x1F LT PUSH2 0x1BF7 JUMPI PUSH2 0x100 DUP1 DUP4 SLOAD DIV MUL DUP4 MSTORE SWAP2 PUSH1 0x20 ADD SWAP2 PUSH2 0x1C22 JUMP JUMPDEST DUP3 ADD SWAP2 SWAP1 PUSH1 0x0 MSTORE PUSH1 0x20 PUSH1 0x0 KECCAK256 SWAP1 JUMPDEST DUP2 SLOAD DUP2 MSTORE SWAP1 PUSH1 0x1 ADD SWAP1 PUSH1 0x20 ADD DUP1 DUP4 GT PUSH2 0x1C05 JUMPI DUP3 SWAP1 SUB PUSH1 0x1F AND DUP3 ADD SWAP2 JUMPDEST POP POP POP POP POP SWAP1 POP SWAP1 JUMP JUMPDEST PUSH1 0x0 DUP1 SHL DUP2 JUMP JUMPDEST PUSH2 0x1C45 PUSH2 0x1C3E PUSH2 0x2630 JUMP JUMPDEST DUP4 DUP4 PUSH2 0x2F37 JUMP JUMPDEST POP POP JUMP JUMPDEST PUSH2 0x40E PUSH1 0x0 SWAP1 SLOAD SWAP1 PUSH2 0x100 EXP SWAP1 DIV PUSH20 0xFFFFFFFFFFFFFFFFFFFFFFFFFFFFFFFFFFFFFFFF AND DUP2 JUMP JUMPDEST PUSH2 0x40B SLOAD DUP2 JUMP JUMPDEST PUSH2 0x1C88 PUSH2 0x1C82 PUSH2 0x2630 JUMP JUMPDEST DUP4 PUSH2 0x27D3 JUMP JUMPDEST PUSH2 0x1CC7 JUMPI PUSH1 0x40 MLOAD PUSH32 0x8C379A000000000000000000000000000000000000000000000000000000000 DUP2 MSTORE PUSH1 0x4 ADD PUSH2 0x1CBE SWAP1 PUSH2 0x4EA9 JUMP JUMPDEST PUSH1 0x40 MLOAD DUP1 SWAP2 SUB SWAP1 REVERT JUMPDEST PUSH2 0x1CD3 DUP5 DUP5 DUP5 DUP5 PUSH2 0x30A4 JUMP JUMPDEST POP POP POP POP JUMP JUMPDEST PUSH32 0xB696DF569C2DFECB5A24EDFD39D7F55B0F442BE14350CBC68DBE8EB35489D3A6 PUSH2 0x1D03 DUP2 PUSH2 0x2B18 JUMP JUMPDEST PUSH1 0x1 ISZERO ISZERO PUSH2 0x412 PUSH1 0x0 CALLER PUSH20 0xFFFFFFFFFFFFFFFFFFFFFFFFFFFFFFFFFFFFFFFF AND PUSH20 0xFFFFFFFFFFFFFFFFFFFFFFFFFFFFFFFFFFFFFFFF AND DUP2 MSTORE PUSH1 0x20 ADD SWAP1 DUP2 MSTORE PUSH1 0x20 ADD PUSH1 0x0 KECCAK256 PUSH1 0x0 SWAP1 SLOAD SWAP1 PUSH2 0x100 EXP SWAP1 DIV PUSH1 0xFF AND ISZERO ISZERO EQ PUSH2 0x1D61 JUMPI PUSH1 0x0 DUP1 REVERT JUMPDEST PUSH2 0x40B SLOAD PUSH2 0x2724 GT PUSH2 0x1DA8 JUMPI PUSH1 0x40 MLOAD PUSH32 0x8C379A000000000000000000000000000000000000000000000000000000000 DUP2 MSTORE PUSH1 0x4 ADD PUSH2 0x1D9F SWAP1 PUSH2 0x4E29 JUMP JUMPDEST PUSH1 0x40 MLOAD DUP1 SWAP2 SUB SWAP1 REVERT JUMPDEST CALLVALUE PUSH2 0x40C PUSH1 0x0 SWAP1 SLOAD SWAP1 PUSH2 0x100 EXP SWAP1 DIV PUSH8 0xFFFFFFFFFFFFFFFF AND PUSH8 0xFFFFFFFFFFFFFFFF AND GT ISZERO PUSH2 0x1E0C JUMPI PUSH1 0x40 MLOAD PUSH32 0x8C379A000000000000000000000000000000000000000000000000000000000 DUP2 MSTORE PUSH1 0x4 ADD PUSH2 0x1E03 SWAP1 PUSH2 0x4D89 JUMP JUMPDEST PUSH1 0x40 MLOAD DUP1 SWAP2 SUB SWAP1 REVERT JUMPDEST PUSH1 0x0 PUSH2 0x40B SLOAD SWAP1 POP PUSH2 0x1E2B PUSH1 0x1 PUSH2 0x40B SLOAD PUSH2 0x2C0D SWAP1 SWAP2 SWAP1 PUSH4 0xFFFFFFFF AND JUMP JUMPDEST PUSH2 0x40B DUP2 SWAP1 SSTORE POP PUSH1 0x0 PUSH2 0x1E3C PUSH2 0x3100 JUMP JUMPDEST SWAP1 POP PUSH1 0x40 MLOAD DUP1 PUSH1 0x20 ADD PUSH1 0x40 MSTORE DUP1 DUP3 PUSH1 0x0 ADD MLOAD DUP2 MSTORE POP PUSH2 0x411 PUSH1 0x0 DUP5 DUP2 MSTORE PUSH1 0x20 ADD SWAP1 DUP2 MSTORE PUSH1 0x20 ADD PUSH1 0x0 KECCAK256 PUSH1 0x0 DUP3 ADD MLOAD DUP2 PUSH1 0x0 ADD SSTORE SWAP1 POP POP PUSH1 0x0 ISZERO ISZERO PUSH2 0x413 PUSH1 0x0 DUP4 PUSH1 0x0 ADD MLOAD DUP2 MSTORE PUSH1 0x20 ADD SWAP1 DUP2 MSTORE PUSH1 0x20 ADD PUSH1 0x0 KECCAK256 PUSH1 0x0 SWAP1 SLOAD SWAP1 PUSH2 0x100 EXP SWAP1 DIV PUSH1 0xFF AND ISZERO ISZERO EQ PUSH2 0x1EDE JUMPI PUSH1 0x40 MLOAD PUSH32 0x8C379A000000000000000000000000000000000000000000000000000000000 DUP2 MSTORE PUSH1 0x4 ADD PUSH2 0x1ED5 SWAP1 PUSH2 0x4F29 JUMP JUMPDEST PUSH1 0x40 MLOAD DUP1 SWAP2 SUB SWAP1 REVERT JUMPDEST PUSH1 0x1 PUSH2 0x413 PUSH1 0x0 DUP4 PUSH1 0x0 ADD MLOAD DUP2 MSTORE PUSH1 0x20 ADD SWAP1 DUP2 MSTORE PUSH1 0x20 ADD PUSH1 0x0 KECCAK256 PUSH1 0x0 PUSH2 0x100 EXP DUP2 SLOAD DUP2 PUSH1 0xFF MUL NOT AND SWAP1 DUP4 ISZERO ISZERO MUL OR SWAP1 SSTORE POP PUSH2 0x410 PUSH1 0x0 SWAP1 SLOAD SWAP1 PUSH2 0x100 EXP SWAP1 DIV PUSH20 0xFFFFFFFFFFFFFFFFFFFFFFFFFFFFFFFFFFFFFFFF AND PUSH20 0xFFFFFFFFFFFFFFFFFFFFFFFFFFFFFFFFFFFFFFFF AND PUSH4 0x23EAC4BD DUP4 DUP7 PUSH1 0x40 MLOAD DUP4 PUSH4 0xFFFFFFFF AND PUSH1 0xE0 SHL DUP2 MSTORE PUSH1 0x4 ADD PUSH2 0x1F6D SWAP3 SWAP2 SWAP1 PUSH2 0x4F84 JUMP JUMPDEST PUSH1 0x0 PUSH1 0x40 MLOAD DUP1 DUP4 SUB DUP2 PUSH1 0x0 DUP8 DUP1 EXTCODESIZE ISZERO DUP1 ISZERO PUSH2 0x1F87 JUMPI PUSH1 0x0 DUP1 REVERT JUMPDEST POP GAS CALL ISZERO DUP1 ISZERO PUSH2 0x1F9B JUMPI RETURNDATASIZE PUSH1 0x0 DUP1 RETURNDATACOPY RETURNDATASIZE PUSH1 0x0 REVERT JUMPDEST POP POP POP POP PUSH2 0x410 PUSH1 0x0 SWAP1 SLOAD SWAP1 PUSH2 0x100 EXP SWAP1 DIV PUSH20 0xFFFFFFFFFFFFFFFFFFFFFFFFFFFFFFFFFFFFFFFF AND PUSH20 0xFFFFFFFFFFFFFFFFFFFFFFFFFFFFFFFFFFFFFFFF AND PUSH4 0xA92AE38A DUP6 DUP4 PUSH1 0x0 ADD MLOAD PUSH1 0x40 MLOAD DUP4 PUSH4 0xFFFFFFFF AND PUSH1 0xE0 SHL DUP2 MSTORE PUSH1 0x4 ADD PUSH2 0x2001 SWAP3 SWAP2 SWAP1 PUSH2 0x4B8D JUMP JUMPDEST PUSH1 0x0 PUSH1 0x40 MLOAD DUP1 DUP4 SUB DUP2 PUSH1 0x0 DUP8 DUP1 EXTCODESIZE ISZERO DUP1 ISZERO PUSH2 0x201B JUMPI PUSH1 0x0 DUP1 REVERT JUMPDEST POP GAS CALL ISZERO DUP1 ISZERO PUSH2 0x202F JUMPI RETURNDATASIZE PUSH1 0x0 DUP1 RETURNDATACOPY RETURNDATASIZE PUSH1 0x0 REVERT JUMPDEST POP POP POP POP PUSH2 0x410 PUSH1 0x0 SWAP1 SLOAD SWAP1 PUSH2 0x100 EXP SWAP1 DIV PUSH20 0xFFFFFFFFFFFFFFFFFFFFFFFFFFFFFFFFFFFFFFFF AND PUSH20 0xFFFFFFFFFFFFFFFFFFFFFFFFFFFFFFFFFFFFFFFF AND PUSH4 0x9A944FDF DUP3 PUSH1 0x0 ADD MLOAD PUSH1 0x40 MLOAD DUP3 PUSH4 0xFFFFFFFF AND PUSH1 0xE0 SHL DUP2 MSTORE PUSH1 0x4 ADD PUSH2 0x2093 SWAP2 SWAP1 PUSH2 0x4F69 JUMP JUMPDEST PUSH1 0x0 PUSH1 0x40 MLOAD DUP1 DUP4 SUB DUP2 PUSH1 0x0 DUP8 DUP1 EXTCODESIZE ISZERO DUP1 ISZERO PUSH2 0x20AD JUMPI PUSH1 0x0 DUP1 REVERT JUMPDEST POP GAS CALL ISZERO DUP1 ISZERO PUSH2 0x20C1 JUMPI RETURNDATASIZE PUSH1 0x0 DUP1 RETURNDATACOPY RETURNDATASIZE PUSH1 0x0 REVERT JUMPDEST POP POP POP POP PUSH2 0x410 PUSH1 0x0 SWAP1 SLOAD SWAP1 PUSH2 0x100 EXP SWAP1 DIV PUSH20 0xFFFFFFFFFFFFFFFFFFFFFFFFFFFFFFFFFFFFFFFF AND PUSH20 0xFFFFFFFFFFFFFFFFFFFFFFFFFFFFFFFFFFFFFFFF AND PUSH4 0x1B41B476 DUP3 PUSH1 0x0 ADD MLOAD DUP7 PUSH1 0x40 MLOAD DUP4 PUSH4 0xFFFFFFFF AND PUSH1 0xE0 SHL DUP2 MSTORE PUSH1 0x4 ADD PUSH2 0x2127 SWAP3 SWAP2 SWAP1 PUSH2 0x4F84 JUMP JUMPDEST PUSH1 0x0 PUSH1 0x40 MLOAD DUP1 DUP4 SUB DUP2 PUSH1 0x0 DUP8 DUP1 EXTCODESIZE ISZERO DUP1 ISZERO PUSH2 0x2141 JUMPI PUSH1 0x0 DUP1 REVERT JUMPDEST POP GAS CALL ISZERO DUP1 ISZERO PUSH2 0x2155 JUMPI RETURNDATASIZE PUSH1 0x0 DUP1 RETURNDATACOPY RETURNDATASIZE PUSH1 0x0 REVERT JUMPDEST POP POP POP POP PUSH2 0x410 PUSH1 0x0 SWAP1 SLOAD SWAP1 PUSH2 0x100 EXP SWAP1 DIV PUSH20 0xFFFFFFFFFFFFFFFFFFFFFFFFFFFFFFFFFFFFFFFF AND PUSH20 0xFFFFFFFFFFFFFFFFFFFFFFFFFFFFFFFFFFFFFFFF AND PUSH4 0xE2BDB880 DUP3 PUSH1 0x0 ADD MLOAD DUP5 PUSH1 0x40 MLOAD DUP4 PUSH4 0xFFFFFFFF AND PUSH1 0xE0 SHL DUP2 MSTORE PUSH1 0x4 ADD PUSH2 0x21BB SWAP3 SWAP2 SWAP1 PUSH2 0x4FAD JUMP JUMPDEST PUSH1 0x0 PUSH1 0x40 MLOAD DUP1 DUP4 SUB DUP2 PUSH1 0x0 DUP8 DUP1 EXTCODESIZE ISZERO DUP1 ISZERO PUSH2 0x21D5 JUMPI PUSH1 0x0 DUP1 REVERT JUMPDEST POP GAS CALL ISZERO DUP1 ISZERO PUSH2 0x21E9 JUMPI RETURNDATASIZE PUSH1 0x0 DUP1 RETURNDATACOPY RETURNDATASIZE PUSH1 0x0 REVERT JUMPDEST POP POP POP POP PUSH2 0x21F7 DUP5 DUP4 PUSH2 0x2C97 JUMP JUMPDEST POP POP POP POP JUMP JUMPDEST PUSH1 0x60 PUSH1 0x0 PUSH2 0x2221 PUSH2 0x411 PUSH1 0x0 DUP6 DUP2 MSTORE PUSH1 0x20 ADD SWAP1 DUP2 MSTORE PUSH1 0x20 ADD PUSH1 0x0 KECCAK256 PUSH1 0x0 ADD SLOAD PUSH2 0x3174 JUMP JUMPDEST SWAP1 POP PUSH2 0x40F DUP2 PUSH1 0x40 MLOAD PUSH1 0x20 ADD PUSH2 0x2238 SWAP3 SWAP2 SWAP1 PUSH2 0x4A4F JUMP JUMPDEST PUSH1 0x40 MLOAD PUSH1 0x20 DUP2 DUP4 SUB SUB DUP2 MSTORE SWAP1 PUSH1 0x40 MSTORE SWAP2 POP POP SWAP2 SWAP1 POP JUMP JUMPDEST PUSH32 0x9F2DF0FED2C77648DE5860A4CC508CD0818C85B8B8A1AB4CEEEF8D981C8956A6 DUP2 JUMP JUMPDEST PUSH2 0x227C DUP3 PUSH2 0xF35 JUMP JUMPDEST PUSH2 0x2285 DUP2 PUSH2 0x2B18 JUMP JUMPDEST PUSH2 0x228F DUP4 DUP4 PUSH2 0x26F1 JUMP JUMPDEST POP POP POP JUMP JUMPDEST PUSH2 0x229C PUSH2 0x2630 JUMP JUMPDEST PUSH20 0xFFFFFFFFFFFFFFFFFFFFFFFFFFFFFFFFFFFFFFFF AND PUSH2 0x22BA PUSH2 0x1B05 JUMP JUMPDEST PUSH20 0xFFFFFFFFFFFFFFFFFFFFFFFFFFFFFFFFFFFFFFFF AND EQ PUSH2 0x2310 JUMPI PUSH1 0x40 MLOAD PUSH32 0x8C379A000000000000000000000000000000000000000000000000000000000 DUP2 MSTORE PUSH1 0x4 ADD PUSH2 0x2307 SWAP1 PUSH2 0x4E69 JUMP JUMPDEST PUSH1 0x40 MLOAD DUP1 SWAP2 SUB SWAP1 REVERT JUMPDEST PUSH1 0x1 PUSH2 0x412 PUSH1 0x0 DUP4 PUSH20 0xFFFFFFFFFFFFFFFFFFFFFFFFFFFFFFFFFFFFFFFF AND PUSH20 0xFFFFFFFFFFFFFFFFFFFFFFFFFFFFFFFFFFFFFFFF AND DUP2 MSTORE PUSH1 0x20 ADD SWAP1 DUP2 MSTORE PUSH1 0x20 ADD PUSH1 0x0 KECCAK256 PUSH1 0x0 PUSH2 0x100 EXP DUP2 SLOAD DUP2 PUSH1 0xFF MUL NOT AND SWAP1 DUP4 ISZERO ISZERO MUL OR SWAP1 SSTORE POP PUSH2 0x2393 PUSH32 0xB696DF569C2DFECB5A24EDFD39D7F55B0F442BE14350CBC68DBE8EB35489D3A6 DUP3 PUSH2 0x2B2C JUMP JUMPDEST POP JUMP JUMPDEST PUSH1 0x0 PUSH1 0x5 PUSH1 0x0 DUP5 PUSH20 0xFFFFFFFFFFFFFFFFFFFFFFFFFFFFFFFFFFFFFFFF AND PUSH20 0xFFFFFFFFFFFFFFFFFFFFFFFFFFFFFFFFFFFFFFFF AND DUP2 MSTORE PUSH1 0x20 ADD SWAP1 DUP2 MSTORE PUSH1 0x20 ADD PUSH1 0x0 KECCAK256 PUSH1 0x0 DUP4 PUSH20 0xFFFFFFFFFFFFFFFFFFFFFFFFFFFFFFFFFFFFFFFF AND PUSH20 0xFFFFFFFFFFFFFFFFFFFFFFFFFFFFFFFFFFFFFFFF AND DUP2 MSTORE PUSH1 0x20 ADD SWAP1 DUP2 MSTORE PUSH1 0x20 ADD PUSH1 0x0 KECCAK256 PUSH1 0x0 SWAP1 SLOAD SWAP1 PUSH2 0x100 EXP SWAP1 DIV PUSH1 0xFF AND SWAP1 POP SWAP3 SWAP2 POP POP JUMP JUMPDEST PUSH2 0x40A SLOAD DUP2 JUMP JUMPDEST PUSH2 0x2439 PUSH2 0x2630 JUMP JUMPDEST PUSH20 0xFFFFFFFFFFFFFFFFFFFFFFFFFFFFFFFFFFFFFFFF AND PUSH2 0x2457 PUSH2 0x1B05 JUMP JUMPDEST PUSH20 0xFFFFFFFFFFFFFFFFFFFFFFFFFFFFFFFFFFFFFFFF AND EQ PUSH2 0x24AD JUMPI PUSH1 0x40 MLOAD PUSH32 0x8C379A000000000000000000000000000000000000000000000000000000000 DUP2 MSTORE PUSH1 0x4 ADD PUSH2 0x24A4 SWAP1 PUSH2 0x4E69 JUMP JUMPDEST PUSH1 0x40 MLOAD DUP1 SWAP2 SUB SWAP1 REVERT JUMPDEST PUSH1 0x0 PUSH20 0xFFFFFFFFFFFFFFFFFFFFFFFFFFFFFFFFFFFFFFFF AND DUP2 PUSH20 0xFFFFFFFFFFFFFFFFFFFFFFFFFFFFFFFFFFFFFFFF AND EQ ISZERO PUSH2 0x251D JUMPI PUSH1 0x40 MLOAD PUSH32 0x8C379A000000000000000000000000000000000000000000000000000000000 DUP2 MSTORE PUSH1 0x4 ADD PUSH2 0x2514 SWAP1 PUSH2 0x4C89 JUMP JUMPDEST PUSH1 0x40 MLOAD DUP1 SWAP2 SUB SWAP1 REVERT JUMPDEST PUSH2 0x2526 DUP2 PUSH2 0x2E71 JUMP JUMPDEST POP JUMP JUMPDEST PUSH2 0x412 PUSH1 0x20 MSTORE DUP1 PUSH1 0x0 MSTORE PUSH1 0x40 PUSH1 0x0 KECCAK256 PUSH1 0x0 SWAP2 POP SLOAD SWAP1 PUSH2 0x100 EXP SWAP1 DIV PUSH1 0xFF AND DUP2 JUMP JUMPDEST PUSH1 0x0 PUSH32 0x7965DB0B00000000000000000000000000000000000000000000000000000000 PUSH28 0xFFFFFFFFFFFFFFFFFFFFFFFFFFFFFFFFFFFFFFFFFFFFFFFFFFFFFFFF NOT AND DUP3 PUSH28 0xFFFFFFFFFFFFFFFFFFFFFFFFFFFFFFFFFFFFFFFFFFFFFFFFFFFFFFFF NOT AND EQ DUP1 PUSH2 0x25BD JUMPI POP PUSH2 0x25BC DUP3 PUSH2 0x32D5 JUMP JUMPDEST JUMPDEST SWAP1 POP SWAP2 SWAP1 POP JUMP JUMPDEST PUSH1 0x0 DUP1 PUSH20 0xFFFFFFFFFFFFFFFFFFFFFFFFFFFFFFFFFFFFFFFF AND PUSH1 0x2 PUSH1 0x0 DUP5 DUP2 MSTORE PUSH1 0x20 ADD SWAP1 DUP2 MSTORE PUSH1 0x20 ADD PUSH1 0x0 KECCAK256 PUSH1 0x0 SWAP1 SLOAD SWAP1 PUSH2 0x100 EXP SWAP1 DIV PUSH20 0xFFFFFFFFFFFFFFFFFFFFFFFFFFFFFFFFFFFFFFFF AND PUSH20 0xFFFFFFFFFFFFFFFFFFFFFFFFFFFFFFFFFFFFFFFF AND EQ ISZERO SWAP1 POP SWAP2 SWAP1 POP JUMP JUMPDEST PUSH1 0x0 CALLER SWAP1 POP SWAP1 JUMP JUMPDEST DUP2 PUSH1 0x4 PUSH1 0x0 DUP4 DUP2 MSTORE PUSH1 0x20 ADD SWAP1 DUP2 MSTORE PUSH1 0x20 ADD PUSH1 0x0 KECCAK256 PUSH1 0x0 PUSH2 0x100 EXP DUP2 SLOAD DUP2 PUSH20 0xFFFFFFFFFFFFFFFFFFFFFFFFFFFFFFFFFFFFFFFF MUL NOT AND SWAP1 DUP4 PUSH20 0xFFFFFFFFFFFFFFFFFFFFFFFFFFFFFFFFFFFFFFFF AND MUL OR SWAP1 SSTORE POP DUP1 DUP3 PUSH20 0xFFFFFFFFFFFFFFFFFFFFFFFFFFFFFFFFFFFFFFFF AND PUSH2 0x26AB DUP4 PUSH2 0x18A6 JUMP JUMPDEST PUSH20 0xFFFFFFFFFFFFFFFFFFFFFFFFFFFFFFFFFFFFFFFF AND PUSH32 0x8C5BE1E5EBEC7D5BD14F71427D1E84F3DD0314C0F7B2291E5B200AC8C7C3B925 PUSH1 0x40 MLOAD PUSH1 0x40 MLOAD DUP1 SWAP2 SUB SWAP1 LOG4 POP POP JUMP JUMPDEST PUSH2 0x26FB DUP3 DUP3 PUSH2 0x1B2F JUMP JUMPDEST ISZERO PUSH2 0x27CF JUMPI PUSH1 0x0 PUSH1 0xB PUSH1 0x0 DUP5 DUP2 MSTORE PUSH1 0x20 ADD SWAP1 DUP2 MSTORE PUSH1 0x20 ADD PUSH1 0x0 KECCAK256 PUSH1 0x0 ADD PUSH1 0x0 DUP4 PUSH20 0xFFFFFFFFFFFFFFFFFFFFFFFFFFFFFFFFFFFFFFFF AND PUSH20 0xFFFFFFFFFFFFFFFFFFFFFFFFFFFFFFFFFFFFFFFF AND DUP2 MSTORE PUSH1 0x20 ADD SWAP1 DUP2 MSTORE PUSH1 0x20 ADD PUSH1 0x0 KECCAK256 PUSH1 0x0 PUSH2 0x100 EXP DUP2 SLOAD DUP2 PUSH1 0xFF MUL NOT AND SWAP1 DUP4 ISZERO ISZERO MUL OR SWAP1 SSTORE POP PUSH2 0x2774 PUSH2 0x2630 JUMP JUMPDEST PUSH20 0xFFFFFFFFFFFFFFFFFFFFFFFFFFFFFFFFFFFFFFFF AND DUP2 PUSH20 0xFFFFFFFFFFFFFFFFFFFFFFFFFFFFFFFFFFFFFFFF AND DUP4 PUSH32 0xF6391F5C32D9C69D2A47EA670B442974B53935D1EDC7FD64EB21E047A839171B PUSH1 0x40 MLOAD PUSH1 0x40 MLOAD DUP1 SWAP2 SUB SWAP1 LOG4 JUMPDEST POP POP JUMP JUMPDEST PUSH1 0x0 PUSH2 0x27DE DUP3 PUSH2 0x25C4 JUMP JUMPDEST PUSH2 0x281D JUMPI PUSH1 0x40 MLOAD PUSH32 0x8C379A000000000000000000000000000000000000000000000000000000000 DUP2 MSTORE PUSH1 0x4 ADD PUSH2 0x2814 SWAP1 PUSH2 0x4D69 JUMP JUMPDEST PUSH1 0x40 MLOAD DUP1 SWAP2 SUB SWAP1 REVERT JUMPDEST PUSH1 0x0 PUSH2 0x2828 DUP4 PUSH2 0x18A6 JUMP JUMPDEST SWAP1 POP DUP1 PUSH20 0xFFFFFFFFFFFFFFFFFFFFFFFFFFFFFFFFFFFFFFFF AND DUP5 PUSH20 0xFFFFFFFFFFFFFFFFFFFFFFFFFFFFFFFFFFFFFFFF AND EQ DUP1 PUSH2 0x286A JUMPI POP PUSH2 0x2869 DUP2 DUP6 PUSH2 0x2396 JUMP JUMPDEST JUMPDEST DUP1 PUSH2 0x28A8 JUMPI POP DUP4 PUSH20 0xFFFFFFFFFFFFFFFFFFFFFFFFFFFFFFFFFFFFFFFF AND PUSH2 0x2890 DUP5 PUSH2 0xC08 JUMP JUMPDEST PUSH20 0xFFFFFFFFFFFFFFFFFFFFFFFFFFFFFFFFFFFFFFFF AND EQ JUMPDEST SWAP2 POP POP SWAP3 SWAP2 POP POP JUMP JUMPDEST DUP3 PUSH20 0xFFFFFFFFFFFFFFFFFFFFFFFFFFFFFFFFFFFFFFFF AND PUSH2 0x28D1 DUP3 PUSH2 0x18A6 JUMP JUMPDEST PUSH20 0xFFFFFFFFFFFFFFFFFFFFFFFFFFFFFFFFFFFFFFFF AND EQ PUSH2 0x2927 JUMPI PUSH1 0x40 MLOAD PUSH32 0x8C379A000000000000000000000000000000000000000000000000000000000 DUP2 MSTORE PUSH1 0x4 ADD PUSH2 0x291E SWAP1 PUSH2 0x4CA9 JUMP JUMPDEST PUSH1 0x40 MLOAD DUP1 SWAP2 SUB SWAP1 REVERT JUMPDEST PUSH1 0x0 PUSH20 0xFFFFFFFFFFFFFFFFFFFFFFFFFFFFFFFFFFFFFFFF AND DUP3 PUSH20 0xFFFFFFFFFFFFFFFFFFFFFFFFFFFFFFFFFFFFFFFF AND EQ ISZERO PUSH2 0x2997 JUMPI PUSH1 0x40 MLOAD PUSH32 0x8C379A000000000000000000000000000000000000000000000000000000000 DUP2 MSTORE PUSH1 0x4 ADD PUSH2 0x298E SWAP1 PUSH2 0x4D29 JUMP JUMPDEST PUSH1 0x40 MLOAD DUP1 SWAP2 SUB SWAP1 REVERT JUMPDEST PUSH2 0x29A2 DUP4 DUP4 DUP4 PUSH2 0x334F JUMP JUMPDEST PUSH2 0x29AD PUSH1 0x0 DUP3 PUSH2 0x2638 JUMP JUMPDEST PUSH1 0x1 PUSH1 0x3 PUSH1 0x0 DUP6 PUSH20 0xFFFFFFFFFFFFFFFFFFFFFFFFFFFFFFFFFFFFFFFF AND PUSH20 0xFFFFFFFFFFFFFFFFFFFFFFFFFFFFFFFFFFFFFFFF AND DUP2 MSTORE PUSH1 0x20 ADD SWAP1 DUP2 MSTORE PUSH1 0x20 ADD PUSH1 0x0 KECCAK256 PUSH1 0x0 DUP3 DUP3 SLOAD PUSH2 0x29FD SWAP2 SWAP1 PUSH2 0x518B JUMP JUMPDEST SWAP3 POP POP DUP2 SWAP1 SSTORE POP PUSH1 0x1 PUSH1 0x3 PUSH1 0x0 DUP5 PUSH20 0xFFFFFFFFFFFFFFFFFFFFFFFFFFFFFFFFFFFFFFFF AND PUSH20 0xFFFFFFFFFFFFFFFFFFFFFFFFFFFFFFFFFFFFFFFF AND DUP2 MSTORE PUSH1 0x20 ADD SWAP1 DUP2 MSTORE PUSH1 0x20 ADD PUSH1 0x0 KECCAK256 PUSH1 0x0 DUP3 DUP3 SLOAD PUSH2 0x2A54 SWAP2 SWAP1 PUSH2 0x50AA JUMP JUMPDEST SWAP3 POP POP DUP2 SWAP1 SSTORE POP DUP2 PUSH1 0x2 PUSH1 0x0 DUP4 DUP2 MSTORE PUSH1 0x20 ADD SWAP1 DUP2 MSTORE PUSH1 0x20 ADD PUSH1 0x0 KECCAK256 PUSH1 0x0 PUSH2 0x100 EXP DUP2 SLOAD DUP2 PUSH20 0xFFFFFFFFFFFFFFFFFFFFFFFFFFFFFFFFFFFFFFFF MUL NOT AND SWAP1 DUP4 PUSH20 0xFFFFFFFFFFFFFFFFFFFFFFFFFFFFFFFFFFFFFFFF AND MUL OR SWAP1 SSTORE POP DUP1 DUP3 PUSH20 0xFFFFFFFFFFFFFFFFFFFFFFFFFFFFFFFFFFFFFFFF AND DUP5 PUSH20 0xFFFFFFFFFFFFFFFFFFFFFFFFFFFFFFFFFFFFFFFF AND PUSH32 0xDDF252AD1BE2C89B69C2B068FC378DAA952BA7F163C4A11628F55A4DF523B3EF PUSH1 0x40 MLOAD PUSH1 0x40 MLOAD DUP1 SWAP2 SUB SWAP1 LOG4 PUSH2 0x2B13 DUP4 DUP4 DUP4 PUSH2 0x3463 JUMP JUMPDEST POP POP POP JUMP JUMPDEST PUSH2 0x2B29 DUP2 PUSH2 0x2B24 PUSH2 0x2630 JUMP JUMPDEST PUSH2 0x3468 JUMP JUMPDEST POP JUMP JUMPDEST PUSH2 0x2B36 DUP3 DUP3 PUSH2 0x1B2F JUMP JUMPDEST PUSH2 0x2C09 JUMPI PUSH1 0x1 PUSH1 0xB PUSH1 0x0 DUP5 DUP2 MSTORE PUSH1 0x20 ADD SWAP1 DUP2 MSTORE PUSH1 0x20 ADD PUSH1 0x0 KECCAK256 PUSH1 0x0 ADD PUSH1 0x0 DUP4 PUSH20 0xFFFFFFFFFFFFFFFFFFFFFFFFFFFFFFFFFFFFFFFF AND PUSH20 0xFFFFFFFFFFFFFFFFFFFFFFFFFFFFFFFFFFFFFFFF AND DUP2 MSTORE PUSH1 0x20 ADD SWAP1 DUP2 MSTORE PUSH1 0x20 ADD PUSH1 0x0 KECCAK256 PUSH1 0x0 PUSH2 0x100 EXP DUP2 SLOAD DUP2 PUSH1 0xFF MUL NOT AND SWAP1 DUP4 ISZERO ISZERO MUL OR SWAP1 SSTORE POP PUSH2 0x2BAE PUSH2 0x2630 JUMP JUMPDEST PUSH20 0xFFFFFFFFFFFFFFFFFFFFFFFFFFFFFFFFFFFFFFFF AND DUP2 PUSH20 0xFFFFFFFFFFFFFFFFFFFFFFFFFFFFFFFFFFFFFFFF AND DUP4 PUSH32 0x2F8788117E7EFF1D82E926EC794901D17C78024A50270940304540A733656F0D PUSH1 0x40 MLOAD PUSH1 0x40 MLOAD DUP1 SWAP2 SUB SWAP1 LOG4 JUMPDEST POP POP JUMP JUMPDEST PUSH1 0x0 DUP2 DUP4 PUSH2 0x2C1B SWAP2 SWAP1 PUSH2 0x50AA JUMP JUMPDEST SWAP1 POP SWAP3 SWAP2 POP POP JUMP JUMPDEST PUSH2 0x2C2B PUSH2 0x4057 JUMP JUMPDEST PUSH2 0x2C33 PUSH2 0x4057 JUMP JUMPDEST PUSH1 0x0 PUSH2 0x408 SLOAD CALLER TIMESTAMP PUSH1 0x1 NUMBER PUSH2 0x2C48 SWAP2 SWAP1 PUSH2 0x518B JUMP JUMPDEST BLOCKHASH PUSH1 0x40 MLOAD PUSH1 0x20 ADD PUSH2 0x2C5C SWAP5 SWAP4 SWAP3 SWAP2 SWAP1 PUSH2 0x4AD8 JUMP JUMPDEST PUSH1 0x40 MLOAD PUSH1 0x20 DUP2 DUP4 SUB SUB DUP2 MSTORE SWAP1 PUSH1 0x40 MSTORE DUP1 MLOAD SWAP1 PUSH1 0x20 ADD KECCAK256 PUSH1 0x0 SHR SWAP1 POP PUSH1 0x0 PUSH2 0x2C82 DUP3 PUSH2 0x3505 JUMP JUMPDEST SWAP1 POP DUP1 DUP4 PUSH1 0x0 ADD DUP2 DUP2 MSTORE POP POP DUP3 SWAP4 POP POP POP POP SWAP1 JUMP JUMPDEST PUSH1 0x0 PUSH20 0xFFFFFFFFFFFFFFFFFFFFFFFFFFFFFFFFFFFFFFFF AND DUP3 PUSH20 0xFFFFFFFFFFFFFFFFFFFFFFFFFFFFFFFFFFFFFFFF AND EQ ISZERO PUSH2 0x2D07 JUMPI PUSH1 0x40 MLOAD PUSH32 0x8C379A000000000000000000000000000000000000000000000000000000000 DUP2 MSTORE PUSH1 0x4 ADD PUSH2 0x2CFE SWAP1 PUSH2 0x4E09 JUMP JUMPDEST PUSH1 0x40 MLOAD DUP1 SWAP2 SUB SWAP1 REVERT JUMPDEST PUSH2 0x2D10 DUP2 PUSH2 0x25C4 JUMP JUMPDEST ISZERO PUSH2 0x2D50 JUMPI PUSH1 0x40 MLOAD PUSH32 0x8C379A000000000000000000000000000000000000000000000000000000000 DUP2 MSTORE PUSH1 0x4 ADD PUSH2 0x2D47 SWAP1 PUSH2 0x4CE9 JUMP JUMPDEST PUSH1 0x40 MLOAD DUP1 SWAP2 SUB SWAP1 REVERT JUMPDEST PUSH2 0x2D5C PUSH1 0x0 DUP4 DUP4 PUSH2 0x334F JUMP JUMPDEST PUSH1 0x1 PUSH1 0x3 PUSH1 0x0 DUP5 PUSH20 0xFFFFFFFFFFFFFFFFFFFFFFFFFFFFFFFFFFFFFFFF AND PUSH20 0xFFFFFFFFFFFFFFFFFFFFFFFFFFFFFFFFFFFFFFFF AND DUP2 MSTORE PUSH1 0x20 ADD SWAP1 DUP2 MSTORE PUSH1 0x20 ADD PUSH1 0x0 KECCAK256 PUSH1 0x0 DUP3 DUP3 SLOAD PUSH2 0x2DAC SWAP2 SWAP1 PUSH2 0x50AA JUMP JUMPDEST SWAP3 POP POP DUP2 SWAP1 SSTORE POP DUP2 PUSH1 0x2 PUSH1 0x0 DUP4 DUP2 MSTORE PUSH1 0x20 ADD SWAP1 DUP2 MSTORE PUSH1 0x20 ADD PUSH1 0x0 KECCAK256 PUSH1 0x0 PUSH2 0x100 EXP DUP2 SLOAD DUP2 PUSH20 0xFFFFFFFFFFFFFFFFFFFFFFFFFFFFFFFFFFFFFFFF MUL NOT AND SWAP1 DUP4 PUSH20 0xFFFFFFFFFFFFFFFFFFFFFFFFFFFFFFFFFFFFFFFF AND MUL OR SWAP1 SSTORE POP DUP1 DUP3 PUSH20 0xFFFFFFFFFFFFFFFFFFFFFFFFFFFFFFFFFFFFFFFF AND PUSH1 0x0 PUSH20 0xFFFFFFFFFFFFFFFFFFFFFFFFFFFFFFFFFFFFFFFF AND PUSH32 0xDDF252AD1BE2C89B69C2B068FC378DAA952BA7F163C4A11628F55A4DF523B3EF PUSH1 0x40 MLOAD PUSH1 0x40 MLOAD DUP1 SWAP2 SUB SWAP1 LOG4 PUSH2 0x2E6D PUSH1 0x0 DUP4 DUP4 PUSH2 0x3463 JUMP JUMPDEST POP POP JUMP JUMPDEST PUSH1 0x0 PUSH1 0xA PUSH1 0x0 SWAP1 SLOAD SWAP1 PUSH2 0x100 EXP SWAP1 DIV PUSH20 0xFFFFFFFFFFFFFFFFFFFFFFFFFFFFFFFFFFFFFFFF AND SWAP1 POP DUP2 PUSH1 0xA PUSH1 0x0 PUSH2 0x100 EXP DUP2 SLOAD DUP2 PUSH20 0xFFFFFFFFFFFFFFFFFFFFFFFFFFFFFFFFFFFFFFFF MUL NOT AND SWAP1 DUP4 PUSH20 0xFFFFFFFFFFFFFFFFFFFFFFFFFFFFFFFFFFFFFFFF AND MUL OR SWAP1 SSTORE POP DUP2 PUSH20 0xFFFFFFFFFFFFFFFFFFFFFFFFFFFFFFFFFFFFFFFF AND DUP2 PUSH20 0xFFFFFFFFFFFFFFFFFFFFFFFFFFFFFFFFFFFFFFFF AND PUSH32 0x8BE0079C531659141344CD1FD0A4F28419497F9722A3DAAFE3B4186F6B6457E0 PUSH1 0x40 MLOAD PUSH1 0x40 MLOAD DUP1 SWAP2 SUB SWAP1 LOG3 POP POP JUMP JUMPDEST DUP2 PUSH20 0xFFFFFFFFFFFFFFFFFFFFFFFFFFFFFFFFFFFFFFFF AND DUP4 PUSH20 0xFFFFFFFFFFFFFFFFFFFFFFFFFFFFFFFFFFFFFFFF AND EQ ISZERO PUSH2 0x2FA6 JUMPI PUSH1 0x40 MLOAD PUSH32 0x8C379A000000000000000000000000000000000000000000000000000000000 DUP2 MSTORE PUSH1 0x4 ADD PUSH2 0x2F9D SWAP1 PUSH2 0x4D49 JUMP JUMPDEST PUSH1 0x40 MLOAD DUP1 SWAP2 SUB SWAP1 REVERT JUMPDEST DUP1 PUSH1 0x5 PUSH1 0x0 DUP6 PUSH20 0xFFFFFFFFFFFFFFFFFFFFFFFFFFFFFFFFFFFFFFFF AND PUSH20 0xFFFFFFFFFFFFFFFFFFFFFFFFFFFFFFFFFFFFFFFF AND DUP2 MSTORE PUSH1 0x20 ADD SWAP1 DUP2 MSTORE PUSH1 0x20 ADD PUSH1 0x0 KECCAK256 PUSH1 0x0 DUP5 PUSH20 0xFFFFFFFFFFFFFFFFFFFFFFFFFFFFFFFFFFFFFFFF AND PUSH20 0xFFFFFFFFFFFFFFFFFFFFFFFFFFFFFFFFFFFFFFFF AND DUP2 MSTORE PUSH1 0x20 ADD SWAP1 DUP2 MSTORE PUSH1 0x20 ADD PUSH1 0x0 KECCAK256 PUSH1 0x0 PUSH2 0x100 EXP DUP2 SLOAD DUP2 PUSH1 0xFF MUL NOT AND SWAP1 DUP4 ISZERO ISZERO MUL OR SWAP1 SSTORE POP DUP2 PUSH20 0xFFFFFFFFFFFFFFFFFFFFFFFFFFFFFFFFFFFFFFFF AND DUP4 PUSH20 0xFFFFFFFFFFFFFFFFFFFFFFFFFFFFFFFFFFFFFFFF AND PUSH32 0x17307EAB39AB6107E8899845AD3D59BD9653F200F220920489CA2B5937696C31 DUP4 PUSH1 0x40 MLOAD PUSH2 0x3097 SWAP2 SWAP1 PUSH2 0x4BB6 JUMP JUMPDEST PUSH1 0x40 MLOAD DUP1 SWAP2 SUB SWAP1 LOG3 POP POP POP JUMP JUMPDEST PUSH2 0x30AF DUP5 DUP5 DUP5 PUSH2 0x28B1 JUMP JUMPDEST PUSH2 0x30BB DUP5 DUP5 DUP5 DUP5 PUSH2 0x3687 JUMP JUMPDEST PUSH2 0x30FA JUMPI PUSH1 0x40 MLOAD PUSH32 0x8C379A000000000000000000000000000000000000000000000000000000000 DUP2 MSTORE PUSH1 0x4 ADD PUSH2 0x30F1 SWAP1 PUSH2 0x4C69 JUMP JUMPDEST PUSH1 0x40 MLOAD DUP1 SWAP2 SUB SWAP1 REVERT JUMPDEST POP POP POP POP JUMP JUMPDEST PUSH2 0x3108 PUSH2 0x4057 JUMP JUMPDEST PUSH2 0x3110 PUSH2 0x4057 JUMP JUMPDEST PUSH1 0x0 PUSH2 0x409 SLOAD CALLER TIMESTAMP PUSH1 0x1 NUMBER PUSH2 0x3125 SWAP2 SWAP1 PUSH2 0x518B JUMP JUMPDEST BLOCKHASH PUSH1 0x40 MLOAD PUSH1 0x20 ADD PUSH2 0x3139 SWAP5 SWAP4 SWAP3 SWAP2 SWAP1 PUSH2 0x4AD8 JUMP JUMPDEST PUSH1 0x40 MLOAD PUSH1 0x20 DUP2 DUP4 SUB SUB DUP2 MSTORE SWAP1 PUSH1 0x40 MSTORE DUP1 MLOAD SWAP1 PUSH1 0x20 ADD KECCAK256 PUSH1 0x0 SHR SWAP1 POP PUSH1 0x0 PUSH2 0x315F DUP3 PUSH2 0x381E JUMP JUMPDEST SWAP1 POP DUP1 DUP4 PUSH1 0x0 ADD DUP2 DUP2 MSTORE POP POP DUP3 SWAP4 POP POP POP POP SWAP1 JUMP JUMPDEST PUSH1 0x60 PUSH1 0x0 DUP3 EQ ISZERO PUSH2 0x31BC JUMPI PUSH1 0x40 MLOAD DUP1 PUSH1 0x40 ADD PUSH1 0x40 MSTORE DUP1 PUSH1 0x1 DUP2 MSTORE PUSH1 0x20 ADD PUSH32 0x3000000000000000000000000000000000000000000000000000000000000000 DUP2 MSTORE POP SWAP1 POP PUSH2 0x32D0 JUMP JUMPDEST PUSH1 0x0 DUP3 SWAP1 POP PUSH1 0x0 JUMPDEST PUSH1 0x0 DUP3 EQ PUSH2 0x31EE JUMPI DUP1 DUP1 PUSH2 0x31D7 SWAP1 PUSH2 0x5356 JUMP JUMPDEST SWAP2 POP POP PUSH1 0xA DUP3 PUSH2 0x31E7 SWAP2 SWAP1 PUSH2 0x5100 JUMP JUMPDEST SWAP2 POP PUSH2 0x31C4 JUMP JUMPDEST PUSH1 0x0 DUP2 PUSH8 0xFFFFFFFFFFFFFFFF DUP2 GT ISZERO PUSH2 0x320A JUMPI PUSH2 0x3209 PUSH2 0x54F3 JUMP JUMPDEST JUMPDEST PUSH1 0x40 MLOAD SWAP1 DUP1 DUP3 MSTORE DUP1 PUSH1 0x1F ADD PUSH1 0x1F NOT AND PUSH1 0x20 ADD DUP3 ADD PUSH1 0x40 MSTORE DUP1 ISZERO PUSH2 0x323C JUMPI DUP2 PUSH1 0x20 ADD PUSH1 0x1 DUP3 MUL DUP1 CALLDATASIZE DUP4 CALLDATACOPY DUP1 DUP3 ADD SWAP2 POP POP SWAP1 POP JUMPDEST POP SWAP1 POP JUMPDEST PUSH1 0x0 DUP6 EQ PUSH2 0x32C9 JUMPI PUSH1 0x1 DUP3 PUSH2 0x3255 SWAP2 SWAP1 PUSH2 0x518B JUMP JUMPDEST SWAP2 POP PUSH1 0xA DUP6 PUSH2 0x3264 SWAP2 SWAP1 PUSH2 0x53D7 JUMP JUMPDEST PUSH1 0x30 PUSH2 0x3270 SWAP2 SWAP1 PUSH2 0x50AA JUMP JUMPDEST PUSH1 0xF8 SHL DUP2 DUP4 DUP2 MLOAD DUP2 LT PUSH2 0x3286 JUMPI PUSH2 0x3285 PUSH2 0x54C4 JUMP JUMPDEST JUMPDEST PUSH1 0x20 ADD ADD SWAP1 PUSH31 0xFFFFFFFFFFFFFFFFFFFFFFFFFFFFFFFFFFFFFFFFFFFFFFFFFFFFFFFFFFFFFF NOT AND SWAP1 DUP2 PUSH1 0x0 BYTE SWAP1 MSTORE8 POP PUSH1 0xA DUP6 PUSH2 0x32C2 SWAP2 SWAP1 PUSH2 0x5100 JUMP JUMPDEST SWAP5 POP PUSH2 0x3240 JUMP JUMPDEST DUP1 SWAP4 POP POP POP POP JUMPDEST SWAP2 SWAP1 POP JUMP JUMPDEST PUSH1 0x0 PUSH32 0x780E9D6300000000000000000000000000000000000000000000000000000000 PUSH28 0xFFFFFFFFFFFFFFFFFFFFFFFFFFFFFFFFFFFFFFFFFFFFFFFFFFFFFFFF NOT AND DUP3 PUSH28 0xFFFFFFFFFFFFFFFFFFFFFFFFFFFFFFFFFFFFFFFFFFFFFFFFFFFFFFFF NOT AND EQ DUP1 PUSH2 0x3348 JUMPI POP PUSH2 0x3347 DUP3 PUSH2 0x39A1 JUMP JUMPDEST JUMPDEST SWAP1 POP SWAP2 SWAP1 POP JUMP JUMPDEST PUSH2 0x335A DUP4 DUP4 DUP4 PUSH2 0x3A83 JUMP JUMPDEST PUSH1 0x0 PUSH20 0xFFFFFFFFFFFFFFFFFFFFFFFFFFFFFFFFFFFFFFFF AND DUP4 PUSH20 0xFFFFFFFFFFFFFFFFFFFFFFFFFFFFFFFFFFFFFFFF AND EQ ISZERO PUSH2 0x339D JUMPI PUSH2 0x3398 DUP2 PUSH2 0x3A88 JUMP JUMPDEST PUSH2 0x33DC JUMP JUMPDEST DUP2 PUSH20 0xFFFFFFFFFFFFFFFFFFFFFFFFFFFFFFFFFFFFFFFF AND DUP4 PUSH20 0xFFFFFFFFFFFFFFFFFFFFFFFFFFFFFFFFFFFFFFFF AND EQ PUSH2 0x33DB JUMPI PUSH2 0x33DA DUP4 DUP3 PUSH2 0x3AD1 JUMP JUMPDEST JUMPDEST JUMPDEST PUSH1 0x0 PUSH20 0xFFFFFFFFFFFFFFFFFFFFFFFFFFFFFFFFFFFFFFFF AND DUP3 PUSH20 0xFFFFFFFFFFFFFFFFFFFFFFFFFFFFFFFFFFFFFFFF AND EQ ISZERO PUSH2 0x341F JUMPI PUSH2 0x341A DUP2 PUSH2 0x3C3E JUMP JUMPDEST PUSH2 0x345E JUMP JUMPDEST DUP3 PUSH20 0xFFFFFFFFFFFFFFFFFFFFFFFFFFFFFFFFFFFFFFFF AND DUP3 PUSH20 0xFFFFFFFFFFFFFFFFFFFFFFFFFFFFFFFFFFFFFFFF AND EQ PUSH2 0x345D JUMPI PUSH2 0x345C DUP3 DUP3 PUSH2 0x3D0F JUMP JUMPDEST JUMPDEST JUMPDEST POP POP POP JUMP JUMPDEST POP POP POP JUMP JUMPDEST PUSH2 0x3472 DUP3 DUP3 PUSH2 0x1B2F JUMP JUMPDEST PUSH2 0x3501 JUMPI PUSH2 0x3497 DUP2 PUSH20 0xFFFFFFFFFFFFFFFFFFFFFFFFFFFFFFFFFFFFFFFF AND PUSH1 0x14 PUSH2 0x3D8E JUMP JUMPDEST PUSH2 0x34A5 DUP4 PUSH1 0x0 SHR PUSH1 0x20 PUSH2 0x3D8E JUMP JUMPDEST PUSH1 0x40 MLOAD PUSH1 0x20 ADD PUSH2 0x34B6 SWAP3 SWAP2 SWAP1 PUSH2 0x4A9E JUMP JUMPDEST PUSH1 0x40 MLOAD PUSH1 0x20 DUP2 DUP4 SUB SUB DUP2 MSTORE SWAP1 PUSH1 0x40 MSTORE PUSH1 0x40 MLOAD PUSH32 0x8C379A000000000000000000000000000000000000000000000000000000000 DUP2 MSTORE PUSH1 0x4 ADD PUSH2 0x34F8 SWAP2 SWAP1 PUSH2 0x4C07 JUMP JUMPDEST PUSH1 0x40 MLOAD DUP1 SWAP2 SUB SWAP1 REVERT JUMPDEST POP POP JUMP JUMPDEST PUSH1 0x0 DUP1 PUSH2 0x408 PUSH1 0x0 DUP2 SLOAD DUP1 SWAP3 SWAP2 SWAP1 PUSH2 0x351C SWAP1 PUSH2 0x5356 JUMP JUMPDEST SWAP2 SWAP1 POP SSTORE PUSH2 0x3E8 PUSH2 0x352D SWAP2 SWAP1 PUSH2 0x518B JUMP JUMPDEST SWAP1 POP PUSH1 0x0 DUP2 GT PUSH2 0x3572 JUMPI PUSH1 0x40 MLOAD PUSH32 0x8C379A000000000000000000000000000000000000000000000000000000000 DUP2 MSTORE PUSH1 0x4 ADD PUSH2 0x3569 SWAP1 PUSH2 0x4EC9 JUMP JUMPDEST PUSH1 0x40 MLOAD DUP1 SWAP2 SUB SWAP1 REVERT JUMPDEST PUSH1 0x0 DUP2 DUP5 PUSH2 0x3580 SWAP2 SWAP1 PUSH2 0x53D7 JUMP JUMPDEST SWAP1 POP PUSH1 0x0 DUP1 PUSH1 0xC DUP4 PUSH2 0x3E8 DUP2 LT PUSH2 0x359A JUMPI PUSH2 0x3599 PUSH2 0x54C4 JUMP JUMPDEST JUMPDEST ADD SLOAD EQ ISZERO PUSH2 0x35B4 JUMPI PUSH1 0x1 DUP3 PUSH2 0x35AF SWAP2 SWAP1 PUSH2 0x50AA JUMP JUMPDEST PUSH2 0x35D8 JUMP JUMPDEST PUSH1 0x1 PUSH1 0xC DUP4 PUSH2 0x3E8 DUP2 LT PUSH2 0x35CB JUMPI PUSH2 0x35CA PUSH2 0x54C4 JUMP JUMPDEST JUMPDEST ADD SLOAD PUSH2 0x35D7 SWAP2 SWAP1 PUSH2 0x50AA JUMP JUMPDEST JUMPDEST SWAP1 POP PUSH1 0x0 PUSH1 0xC PUSH1 0x1 DUP6 PUSH2 0x35EB SWAP2 SWAP1 PUSH2 0x518B JUMP JUMPDEST PUSH2 0x3E8 DUP2 LT PUSH2 0x35FD JUMPI PUSH2 0x35FC PUSH2 0x54C4 JUMP JUMPDEST JUMPDEST ADD SLOAD EQ PUSH2 0x362C JUMPI PUSH1 0xC PUSH1 0x1 DUP5 PUSH2 0x3613 SWAP2 SWAP1 PUSH2 0x518B JUMP JUMPDEST PUSH2 0x3E8 DUP2 LT PUSH2 0x3625 JUMPI PUSH2 0x3624 PUSH2 0x54C4 JUMP JUMPDEST JUMPDEST ADD SLOAD PUSH2 0x363A JUMP JUMPDEST PUSH1 0x1 DUP4 PUSH2 0x3639 SWAP2 SWAP1 PUSH2 0x518B JUMP JUMPDEST JUMPDEST PUSH1 0xC DUP4 PUSH2 0x3E8 DUP2 LT PUSH2 0x364F JUMPI PUSH2 0x364E PUSH2 0x54C4 JUMP JUMPDEST JUMPDEST ADD DUP2 SWAP1 SSTORE POP PUSH1 0x0 PUSH1 0xC PUSH1 0x1 DUP6 PUSH2 0x3665 SWAP2 SWAP1 PUSH2 0x518B JUMP JUMPDEST PUSH2 0x3E8 DUP2 LT PUSH2 0x3677 JUMPI PUSH2 0x3676 PUSH2 0x54C4 JUMP JUMPDEST JUMPDEST ADD DUP2 SWAP1 SSTORE POP DUP1 SWAP4 POP POP POP POP SWAP2 SWAP1 POP JUMP JUMPDEST PUSH1 0x0 PUSH2 0x36A8 DUP5 PUSH20 0xFFFFFFFFFFFFFFFFFFFFFFFFFFFFFFFFFFFFFFFF AND PUSH2 0x3FCA JUMP JUMPDEST ISZERO PUSH2 0x3811 JUMPI DUP4 PUSH20 0xFFFFFFFFFFFFFFFFFFFFFFFFFFFFFFFFFFFFFFFF AND PUSH4 0x150B7A02 PUSH2 0x36D1 PUSH2 0x2630 JUMP JUMPDEST DUP8 DUP7 DUP7 PUSH1 0x40 MLOAD DUP6 PUSH4 0xFFFFFFFF AND PUSH1 0xE0 SHL DUP2 MSTORE PUSH1 0x4 ADD PUSH2 0x36F3 SWAP5 SWAP4 SWAP3 SWAP2 SWAP1 PUSH2 0x4B41 JUMP JUMPDEST PUSH1 0x20 PUSH1 0x40 MLOAD DUP1 DUP4 SUB DUP2 PUSH1 0x0 DUP8 DUP1 EXTCODESIZE ISZERO DUP1 ISZERO PUSH2 0x370D JUMPI PUSH1 0x0 DUP1 REVERT JUMPDEST POP GAS CALL SWAP3 POP POP POP DUP1 ISZERO PUSH2 0x373E JUMPI POP PUSH1 0x40 MLOAD RETURNDATASIZE PUSH1 0x1F NOT PUSH1 0x1F DUP3 ADD AND DUP3 ADD DUP1 PUSH1 0x40 MSTORE POP DUP2 ADD SWAP1 PUSH2 0x373B SWAP2 SWAP1 PUSH2 0x43CA JUMP JUMPDEST PUSH1 0x1 JUMPDEST PUSH2 0x37C1 JUMPI RETURNDATASIZE DUP1 PUSH1 0x0 DUP2 EQ PUSH2 0x376E JUMPI PUSH1 0x40 MLOAD SWAP2 POP PUSH1 0x1F NOT PUSH1 0x3F RETURNDATASIZE ADD AND DUP3 ADD PUSH1 0x40 MSTORE RETURNDATASIZE DUP3 MSTORE RETURNDATASIZE PUSH1 0x0 PUSH1 0x20 DUP5 ADD RETURNDATACOPY PUSH2 0x3773 JUMP JUMPDEST PUSH1 0x60 SWAP2 POP JUMPDEST POP PUSH1 0x0 DUP2 MLOAD EQ ISZERO PUSH2 0x37B9 JUMPI PUSH1 0x40 MLOAD PUSH32 0x8C379A000000000000000000000000000000000000000000000000000000000 DUP2 MSTORE PUSH1 0x4 ADD PUSH2 0x37B0 SWAP1 PUSH2 0x4C69 JUMP JUMPDEST PUSH1 0x40 MLOAD DUP1 SWAP2 SUB SWAP1 REVERT JUMPDEST DUP1 MLOAD DUP2 PUSH1 0x20 ADD REVERT JUMPDEST PUSH4 0x150B7A02 PUSH1 0xE0 SHL PUSH28 0xFFFFFFFFFFFFFFFFFFFFFFFFFFFFFFFFFFFFFFFFFFFFFFFFFFFFFFFF NOT AND DUP2 PUSH28 0xFFFFFFFFFFFFFFFFFFFFFFFFFFFFFFFFFFFFFFFFFFFFFFFFFFFFFFFF NOT AND EQ SWAP2 POP POP PUSH2 0x3816 JUMP JUMPDEST PUSH1 0x1 SWAP1 POP JUMPDEST SWAP5 SWAP4 POP POP POP POP JUMP JUMPDEST PUSH1 0x0 DUP1 PUSH2 0x409 PUSH1 0x0 DUP2 SLOAD DUP1 SWAP3 SWAP2 SWAP1 PUSH2 0x3835 SWAP1 PUSH2 0x5356 JUMP JUMPDEST SWAP2 SWAP1 POP SSTORE PUSH1 0x14 PUSH2 0x3845 SWAP2 SWAP1 PUSH2 0x518B JUMP JUMPDEST SWAP1 POP PUSH1 0x0 DUP2 GT PUSH2 0x388A JUMPI PUSH1 0x40 MLOAD PUSH32 0x8C379A000000000000000000000000000000000000000000000000000000000 DUP2 MSTORE PUSH1 0x4 ADD PUSH2 0x3881 SWAP1 PUSH2 0x4EC9 JUMP JUMPDEST PUSH1 0x40 MLOAD DUP1 SWAP2 SUB SWAP1 REVERT JUMPDEST PUSH1 0x0 DUP2 DUP5 PUSH2 0x3898 SWAP2 SWAP1 PUSH2 0x53D7 JUMP JUMPDEST SWAP1 POP PUSH1 0x0 DUP1 PUSH2 0x3F4 DUP4 PUSH1 0x14 DUP2 LT PUSH2 0x38B2 JUMPI PUSH2 0x38B1 PUSH2 0x54C4 JUMP JUMPDEST JUMPDEST ADD SLOAD EQ ISZERO PUSH2 0x38CD JUMPI PUSH2 0x2710 DUP3 PUSH2 0x38C8 SWAP2 SWAP1 PUSH2 0x50AA JUMP JUMPDEST PUSH2 0x38F2 JUMP JUMPDEST PUSH2 0x2710 PUSH2 0x3F4 DUP4 PUSH1 0x14 DUP2 LT PUSH2 0x38E5 JUMPI PUSH2 0x38E4 PUSH2 0x54C4 JUMP JUMPDEST JUMPDEST ADD SLOAD PUSH2 0x38F1 SWAP2 SWAP1 PUSH2 0x50AA JUMP JUMPDEST JUMPDEST SWAP1 POP PUSH1 0x0 PUSH2 0x3F4 PUSH1 0x1 DUP6 PUSH2 0x3906 SWAP2 SWAP1 PUSH2 0x518B JUMP JUMPDEST PUSH1 0x14 DUP2 LT PUSH2 0x3917 JUMPI PUSH2 0x3916 PUSH2 0x54C4 JUMP JUMPDEST JUMPDEST ADD SLOAD EQ PUSH2 0x3946 JUMPI PUSH2 0x3F4 PUSH1 0x1 DUP5 PUSH2 0x392E SWAP2 SWAP1 PUSH2 0x518B JUMP JUMPDEST PUSH1 0x14 DUP2 LT PUSH2 0x393F JUMPI PUSH2 0x393E PUSH2 0x54C4 JUMP JUMPDEST JUMPDEST ADD SLOAD PUSH2 0x3954 JUMP JUMPDEST PUSH1 0x1 DUP4 PUSH2 0x3953 SWAP2 SWAP1 PUSH2 0x518B JUMP JUMPDEST JUMPDEST PUSH2 0x3F4 DUP4 PUSH1 0x14 DUP2 LT PUSH2 0x3969 JUMPI PUSH2 0x3968 PUSH2 0x54C4 JUMP JUMPDEST JUMPDEST ADD DUP2 SWAP1 SSTORE POP PUSH1 0x0 PUSH2 0x3F4 PUSH1 0x1 DUP6 PUSH2 0x3980 SWAP2 SWAP1 PUSH2 0x518B JUMP JUMPDEST PUSH1 0x14 DUP2 LT PUSH2 0x3991 JUMPI PUSH2 0x3990 PUSH2 0x54C4 JUMP JUMPDEST JUMPDEST ADD DUP2 SWAP1 SSTORE POP DUP1 SWAP4 POP POP POP POP SWAP2 SWAP1 POP JUMP JUMPDEST PUSH1 0x0 PUSH32 0x80AC58CD00000000000000000000000000000000000000000000000000000000 PUSH28 0xFFFFFFFFFFFFFFFFFFFFFFFFFFFFFFFFFFFFFFFFFFFFFFFFFFFFFFFF NOT AND DUP3 PUSH28 0xFFFFFFFFFFFFFFFFFFFFFFFFFFFFFFFFFFFFFFFFFFFFFFFFFFFFFFFF NOT AND EQ DUP1 PUSH2 0x3A6C JUMPI POP PUSH32 0x5B5E139F00000000000000000000000000000000000000000000000000000000 PUSH28 0xFFFFFFFFFFFFFFFFFFFFFFFFFFFFFFFFFFFFFFFFFFFFFFFFFFFFFFFF NOT AND DUP3 PUSH28 0xFFFFFFFFFFFFFFFFFFFFFFFFFFFFFFFFFFFFFFFFFFFFFFFFFFFFFFFF NOT AND EQ JUMPDEST DUP1 PUSH2 0x3A7C JUMPI POP PUSH2 0x3A7B DUP3 PUSH2 0x3FED JUMP JUMPDEST JUMPDEST SWAP1 POP SWAP2 SWAP1 POP JUMP JUMPDEST POP POP POP JUMP JUMPDEST PUSH1 0x8 DUP1 SLOAD SWAP1 POP PUSH1 0x9 PUSH1 0x0 DUP4 DUP2 MSTORE PUSH1 0x20 ADD SWAP1 DUP2 MSTORE PUSH1 0x20 ADD PUSH1 0x0 KECCAK256 DUP2 SWAP1 SSTORE POP PUSH1 0x8 DUP2 SWAP1 DUP1 PUSH1 0x1 DUP2 SLOAD ADD DUP1 DUP3 SSTORE DUP1 SWAP2 POP POP PUSH1 0x1 SWAP1 SUB SWAP1 PUSH1 0x0 MSTORE PUSH1 0x20 PUSH1 0x0 KECCAK256 ADD PUSH1 0x0 SWAP1 SWAP2 SWAP1 SWAP2 SWAP1 SWAP2 POP SSTORE POP JUMP JUMPDEST PUSH1 0x0 PUSH1 0x1 PUSH2 0x3ADE DUP5 PUSH2 0x195E JUMP JUMPDEST PUSH2 0x3AE8 SWAP2 SWAP1 PUSH2 0x518B JUMP JUMPDEST SWAP1 POP PUSH1 0x0 PUSH1 0x7 PUSH1 0x0 DUP5 DUP2 MSTORE PUSH1 0x20 ADD SWAP1 DUP2 MSTORE PUSH1 0x20 ADD PUSH1 0x0 KECCAK256 SLOAD SWAP1 POP DUP2 DUP2 EQ PUSH2 0x3BCD JUMPI PUSH1 0x0 PUSH1 0x6 PUSH1 0x0 DUP7 PUSH20 0xFFFFFFFFFFFFFFFFFFFFFFFFFFFFFFFFFFFFFFFF AND PUSH20 0xFFFFFFFFFFFFFFFFFFFFFFFFFFFFFFFFFFFFFFFF AND DUP2 MSTORE PUSH1 0x20 ADD SWAP1 DUP2 MSTORE PUSH1 0x20 ADD PUSH1 0x0 KECCAK256 PUSH1 0x0 DUP5 DUP2 MSTORE PUSH1 0x20 ADD SWAP1 DUP2 MSTORE PUSH1 0x20 ADD PUSH1 0x0 KECCAK256 SLOAD SWAP1 POP DUP1 PUSH1 0x6 PUSH1 0x0 DUP8 PUSH20 0xFFFFFFFFFFFFFFFFFFFFFFFFFFFFFFFFFFFFFFFF AND PUSH20 0xFFFFFFFFFFFFFFFFFFFFFFFFFFFFFFFFFFFFFFFF AND DUP2 MSTORE PUSH1 0x20 ADD SWAP1 DUP2 MSTORE PUSH1 0x20 ADD PUSH1 0x0 KECCAK256 PUSH1 0x0 DUP5 DUP2 MSTORE PUSH1 0x20 ADD SWAP1 DUP2 MSTORE PUSH1 0x20 ADD PUSH1 0x0 KECCAK256 DUP2 SWAP1 SSTORE POP DUP2 PUSH1 0x7 PUSH1 0x0 DUP4 DUP2 MSTORE PUSH1 0x20 ADD SWAP1 DUP2 MSTORE PUSH1 0x20 ADD PUSH1 0x0 KECCAK256 DUP2 SWAP1 SSTORE POP POP JUMPDEST PUSH1 0x7 PUSH1 0x0 DUP5 DUP2 MSTORE PUSH1 0x20 ADD SWAP1 DUP2 MSTORE PUSH1 0x20 ADD PUSH1 0x0 KECCAK256 PUSH1 0x0 SWAP1 SSTORE PUSH1 0x6 PUSH1 0x0 DUP6 PUSH20 0xFFFFFFFFFFFFFFFFFFFFFFFFFFFFFFFFFFFFFFFF AND PUSH20 0xFFFFFFFFFFFFFFFFFFFFFFFFFFFFFFFFFFFFFFFF AND DUP2 MSTORE PUSH1 0x20 ADD SWAP1 DUP2 MSTORE PUSH1 0x20 ADD PUSH1 0x0 KECCAK256 PUSH1 0x0 DUP4 DUP2 MSTORE PUSH1 0x20 ADD SWAP1 DUP2 MSTORE PUSH1 0x20 ADD PUSH1 0x0 KECCAK256 PUSH1 0x0 SWAP1 SSTORE POP POP POP POP JUMP JUMPDEST PUSH1 0x0 PUSH1 0x1 PUSH1 0x8 DUP1 SLOAD SWAP1 POP PUSH2 0x3C52 SWAP2 SWAP1 PUSH2 0x518B JUMP JUMPDEST SWAP1 POP PUSH1 0x0 PUSH1 0x9 PUSH1 0x0 DUP5 DUP2 MSTORE PUSH1 0x20 ADD SWAP1 DUP2 MSTORE PUSH1 0x20 ADD PUSH1 0x0 KECCAK256 SLOAD SWAP1 POP PUSH1 0x0 PUSH1 0x8 DUP4 DUP2 SLOAD DUP2 LT PUSH2 0x3C82 JUMPI PUSH2 0x3C81 PUSH2 0x54C4 JUMP JUMPDEST JUMPDEST SWAP1 PUSH1 0x0 MSTORE PUSH1 0x20 PUSH1 0x0 KECCAK256 ADD SLOAD SWAP1 POP DUP1 PUSH1 0x8 DUP4 DUP2 SLOAD DUP2 LT PUSH2 0x3CA4 JUMPI PUSH2 0x3CA3 PUSH2 0x54C4 JUMP JUMPDEST JUMPDEST SWAP1 PUSH1 0x0 MSTORE PUSH1 0x20 PUSH1 0x0 KECCAK256 ADD DUP2 SWAP1 SSTORE POP DUP2 PUSH1 0x9 PUSH1 0x0 DUP4 DUP2 MSTORE PUSH1 0x20 ADD SWAP1 DUP2 MSTORE PUSH1 0x20 ADD PUSH1 0x0 KECCAK256 DUP2 SWAP1 SSTORE POP PUSH1 0x9 PUSH1 0x0 DUP6 DUP2 MSTORE PUSH1 0x20 ADD SWAP1 DUP2 MSTORE PUSH1 0x20 ADD PUSH1 0x0 KECCAK256 PUSH1 0x0 SWAP1 SSTORE PUSH1 0x8 DUP1 SLOAD DUP1 PUSH2 0x3CF3 JUMPI PUSH2 0x3CF2 PUSH2 0x5495 JUMP JUMPDEST JUMPDEST PUSH1 0x1 SWAP1 SUB DUP2 DUP2 SWAP1 PUSH1 0x0 MSTORE PUSH1 0x20 PUSH1 0x0 KECCAK256 ADD PUSH1 0x0 SWAP1 SSTORE SWAP1 SSTORE POP POP POP POP JUMP JUMPDEST PUSH1 0x0 PUSH2 0x3D1A DUP4 PUSH2 0x195E JUMP JUMPDEST SWAP1 POP DUP2 PUSH1 0x6 PUSH1 0x0 DUP6 PUSH20 0xFFFFFFFFFFFFFFFFFFFFFFFFFFFFFFFFFFFFFFFF AND PUSH20 0xFFFFFFFFFFFFFFFFFFFFFFFFFFFFFFFFFFFFFFFF AND DUP2 MSTORE PUSH1 0x20 ADD SWAP1 DUP2 MSTORE PUSH1 0x20 ADD PUSH1 0x0 KECCAK256 PUSH1 0x0 DUP4 DUP2 MSTORE PUSH1 0x20 ADD SWAP1 DUP2 MSTORE PUSH1 0x20 ADD PUSH1 0x0 KECCAK256 DUP2 SWAP1 SSTORE POP DUP1 PUSH1 0x7 PUSH1 0x0 DUP5 DUP2 MSTORE PUSH1 0x20 ADD SWAP1 DUP2 MSTORE PUSH1 0x20 ADD PUSH1 0x0 KECCAK256 DUP2 SWAP1 SSTORE POP POP POP POP JUMP JUMPDEST PUSH1 0x60 PUSH1 0x0 PUSH1 0x2 DUP4 PUSH1 0x2 PUSH2 0x3DA1 SWAP2 SWAP1 PUSH2 0x5131 JUMP JUMPDEST PUSH2 0x3DAB SWAP2 SWAP1 PUSH2 0x50AA JUMP JUMPDEST PUSH8 0xFFFFFFFFFFFFFFFF DUP2 GT ISZERO PUSH2 0x3DC4 JUMPI PUSH2 0x3DC3 PUSH2 0x54F3 JUMP JUMPDEST JUMPDEST PUSH1 0x40 MLOAD SWAP1 DUP1 DUP3 MSTORE DUP1 PUSH1 0x1F ADD PUSH1 0x1F NOT AND PUSH1 0x20 ADD DUP3 ADD PUSH1 0x40 MSTORE DUP1 ISZERO PUSH2 0x3DF6 JUMPI DUP2 PUSH1 0x20 ADD PUSH1 0x1 DUP3 MUL DUP1 CALLDATASIZE DUP4 CALLDATACOPY DUP1 DUP3 ADD SWAP2 POP POP SWAP1 POP JUMPDEST POP SWAP1 POP PUSH32 0x3000000000000000000000000000000000000000000000000000000000000000 DUP2 PUSH1 0x0 DUP2 MLOAD DUP2 LT PUSH2 0x3E2E JUMPI PUSH2 0x3E2D PUSH2 0x54C4 JUMP JUMPDEST JUMPDEST PUSH1 0x20 ADD ADD SWAP1 PUSH31 0xFFFFFFFFFFFFFFFFFFFFFFFFFFFFFFFFFFFFFFFFFFFFFFFFFFFFFFFFFFFFFF NOT AND SWAP1 DUP2 PUSH1 0x0 BYTE SWAP1 MSTORE8 POP PUSH32 0x7800000000000000000000000000000000000000000000000000000000000000 DUP2 PUSH1 0x1 DUP2 MLOAD DUP2 LT PUSH2 0x3E92 JUMPI PUSH2 0x3E91 PUSH2 0x54C4 JUMP JUMPDEST JUMPDEST PUSH1 0x20 ADD ADD SWAP1 PUSH31 0xFFFFFFFFFFFFFFFFFFFFFFFFFFFFFFFFFFFFFFFFFFFFFFFFFFFFFFFFFFFFFF NOT AND SWAP1 DUP2 PUSH1 0x0 BYTE SWAP1 MSTORE8 POP PUSH1 0x0 PUSH1 0x1 DUP5 PUSH1 0x2 PUSH2 0x3ED2 SWAP2 SWAP1 PUSH2 0x5131 JUMP JUMPDEST PUSH2 0x3EDC SWAP2 SWAP1 PUSH2 0x50AA JUMP JUMPDEST SWAP1 POP JUMPDEST PUSH1 0x1 DUP2 GT ISZERO PUSH2 0x3F7C JUMPI PUSH32 0x3031323334353637383961626364656600000000000000000000000000000000 PUSH1 0xF DUP7 AND PUSH1 0x10 DUP2 LT PUSH2 0x3F1E JUMPI PUSH2 0x3F1D PUSH2 0x54C4 JUMP JUMPDEST JUMPDEST BYTE PUSH1 0xF8 SHL DUP3 DUP3 DUP2 MLOAD DUP2 LT PUSH2 0x3F35 JUMPI PUSH2 0x3F34 PUSH2 0x54C4 JUMP JUMPDEST JUMPDEST PUSH1 0x20 ADD ADD SWAP1 PUSH31 0xFFFFFFFFFFFFFFFFFFFFFFFFFFFFFFFFFFFFFFFFFFFFFFFFFFFFFFFFFFFFFF NOT AND SWAP1 DUP2 PUSH1 0x0 BYTE SWAP1 MSTORE8 POP PUSH1 0x4 DUP6 SWAP1 SHR SWAP5 POP DUP1 PUSH2 0x3F75 SWAP1 PUSH2 0x52C9 JUMP JUMPDEST SWAP1 POP PUSH2 0x3EDF JUMP JUMPDEST POP PUSH1 0x0 DUP5 EQ PUSH2 0x3FC0 JUMPI PUSH1 0x40 MLOAD PUSH32 0x8C379A000000000000000000000000000000000000000000000000000000000 DUP2 MSTORE PUSH1 0x4 ADD PUSH2 0x3FB7 SWAP1 PUSH2 0x4C29 JUMP JUMPDEST PUSH1 0x40 MLOAD DUP1 SWAP2 SUB SWAP1 REVERT JUMPDEST DUP1 SWAP2 POP POP SWAP3 SWAP2 POP POP JUMP JUMPDEST PUSH1 0x0 DUP1 DUP3 PUSH20 0xFFFFFFFFFFFFFFFFFFFFFFFFFFFFFFFFFFFFFFFF AND EXTCODESIZE GT SWAP1 POP SWAP2 SWAP1 POP JUMP JUMPDEST PUSH1 0x0 PUSH32 0x1FFC9A700000000000000000000000000000000000000000000000000000000 PUSH28 0xFFFFFFFFFFFFFFFFFFFFFFFFFFFFFFFFFFFFFFFFFFFFFFFFFFFFFFFF NOT AND DUP3 PUSH28 0xFFFFFFFFFFFFFFFFFFFFFFFFFFFFFFFFFFFFFFFFFFFFFFFFFFFFFFFF NOT AND EQ SWAP1 POP SWAP2 SWAP1 POP JUMP JUMPDEST PUSH1 0x40 MLOAD DUP1 PUSH1 0x20 ADD PUSH1 0x40 MSTORE DUP1 PUSH1 0x0 DUP2 MSTORE POP SWAP1 JUMP JUMPDEST PUSH1 0x0 PUSH2 0x407D PUSH2 0x4078 DUP5 PUSH2 0x5016 JUMP JUMPDEST PUSH2 0x4FF1 JUMP JUMPDEST SWAP1 POP DUP3 DUP2 MSTORE PUSH1 0x20 DUP2 ADD DUP5 DUP5 DUP5 ADD GT ISZERO PUSH2 0x4099 JUMPI PUSH2 0x4098 PUSH2 0x5527 JUMP JUMPDEST JUMPDEST PUSH2 0x40A4 DUP5 DUP3 DUP6 PUSH2 0x5287 JUMP JUMPDEST POP SWAP4 SWAP3 POP POP POP JUMP JUMPDEST PUSH1 0x0 DUP2 CALLDATALOAD SWAP1 POP PUSH2 0x40BB DUP2 PUSH2 0x5C39 JUMP JUMPDEST SWAP3 SWAP2 POP POP JUMP JUMPDEST PUSH1 0x0 DUP2 CALLDATALOAD SWAP1 POP PUSH2 0x40D0 DUP2 PUSH2 0x5C50 JUMP JUMPDEST SWAP3 SWAP2 POP POP JUMP JUMPDEST PUSH1 0x0 DUP2 CALLDATALOAD SWAP1 POP PUSH2 0x40E5 DUP2 PUSH2 0x5C67 JUMP JUMPDEST SWAP3 SWAP2 POP POP JUMP JUMPDEST PUSH1 0x0 DUP2 CALLDATALOAD SWAP1 POP PUSH2 0x40FA DUP2 PUSH2 0x5C7E JUMP JUMPDEST SWAP3 SWAP2 POP POP JUMP JUMPDEST PUSH1 0x0 DUP2 MLOAD SWAP1 POP PUSH2 0x410F DUP2 PUSH2 0x5C7E JUMP JUMPDEST SWAP3 SWAP2 POP POP JUMP JUMPDEST PUSH1 0x0 DUP3 PUSH1 0x1F DUP4 ADD SLT PUSH2 0x412A JUMPI PUSH2 0x4129 PUSH2 0x5522 JUMP JUMPDEST JUMPDEST DUP2 CALLDATALOAD PUSH2 0x413A DUP5 DUP3 PUSH1 0x20 DUP7 ADD PUSH2 0x406A JUMP JUMPDEST SWAP2 POP POP SWAP3 SWAP2 POP POP JUMP JUMPDEST PUSH1 0x0 DUP2 CALLDATALOAD SWAP1 POP PUSH2 0x4152 DUP2 PUSH2 0x5C95 JUMP JUMPDEST SWAP3 SWAP2 POP POP JUMP JUMPDEST PUSH1 0x0 DUP2 CALLDATALOAD SWAP1 POP PUSH2 0x4167 DUP2 PUSH2 0x5CAC JUMP JUMPDEST SWAP3 SWAP2 POP POP JUMP JUMPDEST PUSH1 0x0 PUSH1 0x20 DUP3 DUP5 SUB SLT ISZERO PUSH2 0x4183 JUMPI PUSH2 0x4182 PUSH2 0x5531 JUMP JUMPDEST JUMPDEST PUSH1 0x0 PUSH2 0x4191 DUP5 DUP3 DUP6 ADD PUSH2 0x40AC JUMP JUMPDEST SWAP2 POP POP SWAP3 SWAP2 POP POP JUMP JUMPDEST PUSH1 0x0 DUP1 PUSH1 0x40 DUP4 DUP6 SUB SLT ISZERO PUSH2 0x41B1 JUMPI PUSH2 0x41B0 PUSH2 0x5531 JUMP JUMPDEST JUMPDEST PUSH1 0x0 PUSH2 0x41BF DUP6 DUP3 DUP7 ADD PUSH2 0x40AC JUMP JUMPDEST SWAP3 POP POP PUSH1 0x20 PUSH2 0x41D0 DUP6 DUP3 DUP7 ADD PUSH2 0x40AC JUMP JUMPDEST SWAP2 POP POP SWAP3 POP SWAP3 SWAP1 POP JUMP JUMPDEST PUSH1 0x0 DUP1 PUSH1 0x0 PUSH1 0x60 DUP5 DUP7 SUB SLT ISZERO PUSH2 0x41F3 JUMPI PUSH2 0x41F2 PUSH2 0x5531 JUMP JUMPDEST JUMPDEST PUSH1 0x0 PUSH2 0x4201 DUP7 DUP3 DUP8 ADD PUSH2 0x40AC JUMP JUMPDEST SWAP4 POP POP PUSH1 0x20 PUSH2 0x4212 DUP7 DUP3 DUP8 ADD PUSH2 0x40AC JUMP JUMPDEST SWAP3 POP POP PUSH1 0x40 PUSH2 0x4223 DUP7 DUP3 DUP8 ADD PUSH2 0x4143 JUMP JUMPDEST SWAP2 POP POP SWAP3 POP SWAP3 POP SWAP3 JUMP JUMPDEST PUSH1 0x0 DUP1 PUSH1 0x0 DUP1 PUSH1 0x80 DUP6 DUP8 SUB SLT ISZERO PUSH2 0x4247 JUMPI PUSH2 0x4246 PUSH2 0x5531 JUMP JUMPDEST JUMPDEST PUSH1 0x0 PUSH2 0x4255 DUP8 DUP3 DUP9 ADD PUSH2 0x40AC JUMP JUMPDEST SWAP5 POP POP PUSH1 0x20 PUSH2 0x4266 DUP8 DUP3 DUP9 ADD PUSH2 0x40AC JUMP JUMPDEST SWAP4 POP POP PUSH1 0x40 PUSH2 0x4277 DUP8 DUP3 DUP9 ADD PUSH2 0x4143 JUMP JUMPDEST SWAP3 POP POP PUSH1 0x60 DUP6 ADD CALLDATALOAD PUSH8 0xFFFFFFFFFFFFFFFF DUP2 GT ISZERO PUSH2 0x4298 JUMPI PUSH2 0x4297 PUSH2 0x552C JUMP JUMPDEST JUMPDEST PUSH2 0x42A4 DUP8 DUP3 DUP9 ADD PUSH2 0x4115 JUMP JUMPDEST SWAP2 POP POP SWAP3 SWAP6 SWAP2 SWAP5 POP SWAP3 POP JUMP JUMPDEST PUSH1 0x0 DUP1 PUSH1 0x40 DUP4 DUP6 SUB SLT ISZERO PUSH2 0x42C7 JUMPI PUSH2 0x42C6 PUSH2 0x5531 JUMP JUMPDEST JUMPDEST PUSH1 0x0 PUSH2 0x42D5 DUP6 DUP3 DUP7 ADD PUSH2 0x40AC JUMP JUMPDEST SWAP3 POP POP PUSH1 0x20 PUSH2 0x42E6 DUP6 DUP3 DUP7 ADD PUSH2 0x40C1 JUMP JUMPDEST SWAP2 POP POP SWAP3 POP SWAP3 SWAP1 POP JUMP JUMPDEST PUSH1 0x0 DUP1 PUSH1 0x40 DUP4 DUP6 SUB SLT ISZERO PUSH2 0x4307 JUMPI PUSH2 0x4306 PUSH2 0x5531 JUMP JUMPDEST JUMPDEST PUSH1 0x0 PUSH2 0x4315 DUP6 DUP3 DUP7 ADD PUSH2 0x40AC JUMP JUMPDEST SWAP3 POP POP PUSH1 0x20 PUSH2 0x4326 DUP6 DUP3 DUP7 ADD PUSH2 0x4143 JUMP JUMPDEST SWAP2 POP POP SWAP3 POP SWAP3 SWAP1 POP JUMP JUMPDEST PUSH1 0x0 PUSH1 0x20 DUP3 DUP5 SUB SLT ISZERO PUSH2 0x4346 JUMPI PUSH2 0x4345 PUSH2 0x5531 JUMP JUMPDEST JUMPDEST PUSH1 0x0 PUSH2 0x4354 DUP5 DUP3 DUP6 ADD PUSH2 0x40D6 JUMP JUMPDEST SWAP2 POP POP SWAP3 SWAP2 POP POP JUMP JUMPDEST PUSH1 0x0 DUP1 PUSH1 0x40 DUP4 DUP6 SUB SLT ISZERO PUSH2 0x4374 JUMPI PUSH2 0x4373 PUSH2 0x5531 JUMP JUMPDEST JUMPDEST PUSH1 0x0 PUSH2 0x4382 DUP6 DUP3 DUP7 ADD PUSH2 0x40D6 JUMP JUMPDEST SWAP3 POP POP PUSH1 0x20 PUSH2 0x4393 DUP6 DUP3 DUP7 ADD PUSH2 0x40AC JUMP JUMPDEST SWAP2 POP POP SWAP3 POP SWAP3 SWAP1 POP JUMP JUMPDEST PUSH1 0x0 PUSH1 0x20 DUP3 DUP5 SUB SLT ISZERO PUSH2 0x43B3 JUMPI PUSH2 0x43B2 PUSH2 0x5531 JUMP JUMPDEST JUMPDEST PUSH1 0x0 PUSH2 0x43C1 DUP5 DUP3 DUP6 ADD PUSH2 0x40EB JUMP JUMPDEST SWAP2 POP POP SWAP3 SWAP2 POP POP JUMP JUMPDEST PUSH1 0x0 PUSH1 0x20 DUP3 DUP5 SUB SLT ISZERO PUSH2 0x43E0 JUMPI PUSH2 0x43DF PUSH2 0x5531 JUMP JUMPDEST JUMPDEST PUSH1 0x0 PUSH2 0x43EE DUP5 DUP3 DUP6 ADD PUSH2 0x4100 JUMP JUMPDEST SWAP2 POP POP SWAP3 SWAP2 POP POP JUMP JUMPDEST PUSH1 0x0 PUSH1 0x20 DUP3 DUP5 SUB SLT ISZERO PUSH2 0x440D JUMPI PUSH2 0x440C PUSH2 0x5531 JUMP JUMPDEST JUMPDEST PUSH1 0x0 PUSH2 0x441B DUP5 DUP3 DUP6 ADD PUSH2 0x4143 JUMP JUMPDEST SWAP2 POP POP SWAP3 SWAP2 POP POP JUMP JUMPDEST PUSH1 0x0 PUSH1 0x20 DUP3 DUP5 SUB SLT ISZERO PUSH2 0x443A JUMPI PUSH2 0x4439 PUSH2 0x5531 JUMP JUMPDEST JUMPDEST PUSH1 0x0 PUSH2 0x4448 DUP5 DUP3 DUP6 ADD PUSH2 0x4158 JUMP JUMPDEST SWAP2 POP POP SWAP3 SWAP2 POP POP JUMP JUMPDEST PUSH2 0x445A DUP2 PUSH2 0x51BF JUMP JUMPDEST DUP3 MSTORE POP POP JUMP JUMPDEST PUSH2 0x4471 PUSH2 0x446C DUP3 PUSH2 0x51BF JUMP JUMPDEST PUSH2 0x539F JUMP JUMPDEST DUP3 MSTORE POP POP JUMP JUMPDEST PUSH2 0x4480 DUP2 PUSH2 0x51D1 JUMP JUMPDEST DUP3 MSTORE POP POP JUMP JUMPDEST PUSH2 0x448F DUP2 PUSH2 0x51DD JUMP JUMPDEST DUP3 MSTORE POP POP JUMP JUMPDEST PUSH2 0x44A6 PUSH2 0x44A1 DUP3 PUSH2 0x51DD JUMP JUMPDEST PUSH2 0x53B1 JUMP JUMPDEST DUP3 MSTORE POP POP JUMP JUMPDEST PUSH1 0x0 PUSH2 0x44B7 DUP3 PUSH2 0x505C JUMP JUMPDEST PUSH2 0x44C1 DUP2 DUP6 PUSH2 0x5072 JUMP JUMPDEST SWAP4 POP PUSH2 0x44D1 DUP2 DUP6 PUSH1 0x20 DUP7 ADD PUSH2 0x5296 JUMP JUMPDEST PUSH2 0x44DA DUP2 PUSH2 0x5536 JUMP JUMPDEST DUP5 ADD SWAP2 POP POP SWAP3 SWAP2 POP POP JUMP JUMPDEST PUSH2 0x44EE DUP2 PUSH2 0x5251 JUMP JUMPDEST DUP3 MSTORE POP POP JUMP JUMPDEST PUSH1 0x0 PUSH2 0x44FF DUP3 PUSH2 0x5067 JUMP JUMPDEST PUSH2 0x4509 DUP2 DUP6 PUSH2 0x508E JUMP JUMPDEST SWAP4 POP PUSH2 0x4519 DUP2 DUP6 PUSH1 0x20 DUP7 ADD PUSH2 0x5296 JUMP JUMPDEST PUSH2 0x4522 DUP2 PUSH2 0x5536 JUMP JUMPDEST DUP5 ADD SWAP2 POP POP SWAP3 SWAP2 POP POP JUMP JUMPDEST PUSH1 0x0 PUSH2 0x4538 DUP3 PUSH2 0x5067 JUMP JUMPDEST PUSH2 0x4542 DUP2 DUP6 PUSH2 0x509F JUMP JUMPDEST SWAP4 POP PUSH2 0x4552 DUP2 DUP6 PUSH1 0x20 DUP7 ADD PUSH2 0x5296 JUMP JUMPDEST DUP1 DUP5 ADD SWAP2 POP POP SWAP3 SWAP2 POP POP JUMP JUMPDEST PUSH1 0x0 DUP2 SLOAD PUSH2 0x456B DUP2 PUSH2 0x52F3 JUMP JUMPDEST PUSH2 0x4575 DUP2 DUP7 PUSH2 0x509F JUMP JUMPDEST SWAP5 POP PUSH1 0x1 DUP3 AND PUSH1 0x0 DUP2 EQ PUSH2 0x4590 JUMPI PUSH1 0x1 DUP2 EQ PUSH2 0x45A1 JUMPI PUSH2 0x45D4 JUMP JUMPDEST PUSH1 0xFF NOT DUP4 AND DUP7 MSTORE DUP2 DUP7 ADD SWAP4 POP PUSH2 0x45D4 JUMP JUMPDEST PUSH2 0x45AA DUP6 PUSH2 0x5047 JUMP JUMPDEST PUSH1 0x0 JUMPDEST DUP4 DUP2 LT ISZERO PUSH2 0x45CC JUMPI DUP2 SLOAD DUP2 DUP10 ADD MSTORE PUSH1 0x1 DUP3 ADD SWAP2 POP PUSH1 0x20 DUP2 ADD SWAP1 POP PUSH2 0x45AD JUMP JUMPDEST DUP4 DUP9 ADD SWAP6 POP POP POP JUMPDEST POP POP POP SWAP3 SWAP2 POP POP JUMP JUMPDEST PUSH1 0x0 PUSH2 0x45EA PUSH1 0x20 DUP4 PUSH2 0x508E JUMP JUMPDEST SWAP2 POP PUSH2 0x45F5 DUP3 PUSH2 0x5554 JUMP JUMPDEST PUSH1 0x20 DUP3 ADD SWAP1 POP SWAP2 SWAP1 POP JUMP JUMPDEST PUSH1 0x0 PUSH2 0x460D PUSH1 0x2B DUP4 PUSH2 0x508E JUMP JUMPDEST SWAP2 POP PUSH2 0x4618 DUP3 PUSH2 0x557D JUMP JUMPDEST PUSH1 0x40 DUP3 ADD SWAP1 POP SWAP2 SWAP1 POP JUMP JUMPDEST PUSH1 0x0 PUSH2 0x4630 PUSH1 0x32 DUP4 PUSH2 0x508E JUMP JUMPDEST SWAP2 POP PUSH2 0x463B DUP3 PUSH2 0x55CC JUMP JUMPDEST PUSH1 0x40 DUP3 ADD SWAP1 POP SWAP2 SWAP1 POP JUMP JUMPDEST PUSH1 0x0 PUSH2 0x4653 PUSH1 0x26 DUP4 PUSH2 0x508E JUMP JUMPDEST SWAP2 POP PUSH2 0x465E DUP3 PUSH2 0x561B JUMP JUMPDEST PUSH1 0x40 DUP3 ADD SWAP1 POP SWAP2 SWAP1 POP JUMP JUMPDEST PUSH1 0x0 PUSH2 0x4676 PUSH1 0x25 DUP4 PUSH2 0x508E JUMP JUMPDEST SWAP2 POP PUSH2 0x4681 DUP3 PUSH2 0x566A JUMP JUMPDEST PUSH1 0x40 DUP3 ADD SWAP1 POP SWAP2 SWAP1 POP JUMP JUMPDEST PUSH1 0x0 PUSH2 0x4699 PUSH1 0xB DUP4 PUSH2 0x508E JUMP JUMPDEST SWAP2 POP PUSH2 0x46A4 DUP3 PUSH2 0x56B9 JUMP JUMPDEST PUSH1 0x20 DUP3 ADD SWAP1 POP SWAP2 SWAP1 POP JUMP JUMPDEST PUSH1 0x0 PUSH2 0x46BC PUSH1 0x1C DUP4 PUSH2 0x508E JUMP JUMPDEST SWAP2 POP PUSH2 0x46C7 DUP3 PUSH2 0x56E2 JUMP JUMPDEST PUSH1 0x20 DUP3 ADD SWAP1 POP SWAP2 SWAP1 POP JUMP JUMPDEST PUSH1 0x0 PUSH2 0x46DF PUSH1 0x14 DUP4 PUSH2 0x508E JUMP JUMPDEST SWAP2 POP PUSH2 0x46EA DUP3 PUSH2 0x570B JUMP JUMPDEST PUSH1 0x20 DUP3 ADD SWAP1 POP SWAP2 SWAP1 POP JUMP JUMPDEST PUSH1 0x0 PUSH2 0x4702 PUSH1 0x24 DUP4 PUSH2 0x508E JUMP JUMPDEST SWAP2 POP PUSH2 0x470D DUP3 PUSH2 0x5734 JUMP JUMPDEST PUSH1 0x40 DUP3 ADD SWAP1 POP SWAP2 SWAP1 POP JUMP JUMPDEST PUSH1 0x0 PUSH2 0x4725 PUSH1 0x19 DUP4 PUSH2 0x508E JUMP JUMPDEST SWAP2 POP PUSH2 0x4730 DUP3 PUSH2 0x5783 JUMP JUMPDEST PUSH1 0x20 DUP3 ADD SWAP1 POP SWAP2 SWAP1 POP JUMP JUMPDEST PUSH1 0x0 PUSH2 0x4748 PUSH1 0x2C DUP4 PUSH2 0x508E JUMP JUMPDEST SWAP2 POP PUSH2 0x4753 DUP3 PUSH2 0x57AC JUMP JUMPDEST PUSH1 0x40 DUP3 ADD SWAP1 POP SWAP2 SWAP1 POP JUMP JUMPDEST PUSH1 0x0 PUSH2 0x476B PUSH1 0xF DUP4 PUSH2 0x508E JUMP JUMPDEST SWAP2 POP PUSH2 0x4776 DUP3 PUSH2 0x57FB JUMP JUMPDEST PUSH1 0x20 DUP3 ADD SWAP1 POP SWAP2 SWAP1 POP JUMP JUMPDEST PUSH1 0x0 PUSH2 0x478E PUSH1 0x38 DUP4 PUSH2 0x508E JUMP JUMPDEST SWAP2 POP PUSH2 0x4799 DUP3 PUSH2 0x5824 JUMP JUMPDEST PUSH1 0x40 DUP3 ADD SWAP1 POP SWAP2 SWAP1 POP JUMP JUMPDEST PUSH1 0x0 PUSH2 0x47B1 PUSH1 0x2A DUP4 PUSH2 0x508E JUMP JUMPDEST SWAP2 POP PUSH2 0x47BC DUP3 PUSH2 0x5873 JUMP JUMPDEST PUSH1 0x40 DUP3 ADD SWAP1 POP SWAP2 SWAP1 POP JUMP JUMPDEST PUSH1 0x0 PUSH2 0x47D4 PUSH1 0x29 DUP4 PUSH2 0x508E JUMP JUMPDEST SWAP2 POP PUSH2 0x47DF DUP3 PUSH2 0x58C2 JUMP JUMPDEST PUSH1 0x40 DUP3 ADD SWAP1 POP SWAP2 SWAP1 POP JUMP JUMPDEST PUSH1 0x0 PUSH2 0x47F7 PUSH1 0x20 DUP4 PUSH2 0x508E JUMP JUMPDEST SWAP2 POP PUSH2 0x4802 DUP3 PUSH2 0x5911 JUMP JUMPDEST PUSH1 0x20 DUP3 ADD SWAP1 POP SWAP2 SWAP1 POP JUMP JUMPDEST PUSH1 0x0 PUSH2 0x481A PUSH1 0x1B DUP4 PUSH2 0x508E JUMP JUMPDEST SWAP2 POP PUSH2 0x4825 DUP3 PUSH2 0x593A JUMP JUMPDEST PUSH1 0x20 DUP3 ADD SWAP1 POP SWAP2 SWAP1 POP JUMP JUMPDEST PUSH1 0x0 PUSH2 0x483D PUSH1 0x2C DUP4 PUSH2 0x508E JUMP JUMPDEST SWAP2 POP PUSH2 0x4848 DUP3 PUSH2 0x5963 JUMP JUMPDEST PUSH1 0x40 DUP3 ADD SWAP1 POP SWAP2 SWAP1 POP JUMP JUMPDEST PUSH1 0x0 PUSH2 0x4860 PUSH1 0x5 DUP4 PUSH2 0x509F JUMP JUMPDEST SWAP2 POP PUSH2 0x486B DUP3 PUSH2 0x59B2 JUMP JUMPDEST PUSH1 0x5 DUP3 ADD SWAP1 POP SWAP2 SWAP1 POP JUMP JUMPDEST PUSH1 0x0 PUSH2 0x4883 PUSH1 0x20 DUP4 PUSH2 0x508E JUMP JUMPDEST SWAP2 POP PUSH2 0x488E DUP3 PUSH2 0x59DB JUMP JUMPDEST PUSH1 0x20 DUP3 ADD SWAP1 POP SWAP2 SWAP1 POP JUMP JUMPDEST PUSH1 0x0 PUSH2 0x48A6 PUSH1 0x21 DUP4 PUSH2 0x508E JUMP JUMPDEST SWAP2 POP PUSH2 0x48B1 DUP3 PUSH2 0x5A04 JUMP JUMPDEST PUSH1 0x40 DUP3 ADD SWAP1 POP SWAP2 SWAP1 POP JUMP JUMPDEST PUSH1 0x0 PUSH2 0x48C9 PUSH1 0x0 DUP4 PUSH2 0x5083 JUMP JUMPDEST SWAP2 POP PUSH2 0x48D4 DUP3 PUSH2 0x5A53 JUMP JUMPDEST PUSH1 0x0 DUP3 ADD SWAP1 POP SWAP2 SWAP1 POP JUMP JUMPDEST PUSH1 0x0 PUSH2 0x48EC PUSH1 0x31 DUP4 PUSH2 0x508E JUMP JUMPDEST SWAP2 POP PUSH2 0x48F7 DUP3 PUSH2 0x5A56 JUMP JUMPDEST PUSH1 0x40 DUP3 ADD SWAP1 POP SWAP2 SWAP1 POP JUMP JUMPDEST PUSH1 0x0 PUSH2 0x490F PUSH1 0xB DUP4 PUSH2 0x508E JUMP JUMPDEST SWAP2 POP PUSH2 0x491A DUP3 PUSH2 0x5AA5 JUMP JUMPDEST PUSH1 0x20 DUP3 ADD SWAP1 POP SWAP2 SWAP1 POP JUMP JUMPDEST PUSH1 0x0 PUSH2 0x4932 PUSH1 0x2C DUP4 PUSH2 0x508E JUMP JUMPDEST SWAP2 POP PUSH2 0x493D DUP3 PUSH2 0x5ACE JUMP JUMPDEST PUSH1 0x40 DUP3 ADD SWAP1 POP SWAP2 SWAP1 POP JUMP JUMPDEST PUSH1 0x0 PUSH2 0x4955 PUSH1 0x17 DUP4 PUSH2 0x509F JUMP JUMPDEST SWAP2 POP PUSH2 0x4960 DUP3 PUSH2 0x5B1D JUMP JUMPDEST PUSH1 0x17 DUP3 ADD SWAP1 POP SWAP2 SWAP1 POP JUMP JUMPDEST PUSH1 0x0 PUSH2 0x4978 PUSH1 0xD DUP4 PUSH2 0x508E JUMP JUMPDEST SWAP2 POP PUSH2 0x4983 DUP3 PUSH2 0x5B46 JUMP JUMPDEST PUSH1 0x20 DUP3 ADD SWAP1 POP SWAP2 SWAP1 POP JUMP JUMPDEST PUSH1 0x0 PUSH2 0x499B PUSH1 0xC DUP4 PUSH2 0x508E JUMP JUMPDEST SWAP2 POP PUSH2 0x49A6 DUP3 PUSH2 0x5B6F JUMP JUMPDEST PUSH1 0x20 DUP3 ADD SWAP1 POP SWAP2 SWAP1 POP JUMP JUMPDEST PUSH1 0x0 PUSH2 0x49BE PUSH1 0x11 DUP4 PUSH2 0x509F JUMP JUMPDEST SWAP2 POP PUSH2 0x49C9 DUP3 PUSH2 0x5B98 JUMP JUMPDEST PUSH1 0x11 DUP3 ADD SWAP1 POP SWAP2 SWAP1 POP JUMP JUMPDEST PUSH1 0x0 PUSH2 0x49E1 PUSH1 0x2F DUP4 PUSH2 0x508E JUMP JUMPDEST SWAP2 POP PUSH2 0x49EC DUP3 PUSH2 0x5BC1 JUMP JUMPDEST PUSH1 0x40 DUP3 ADD SWAP1 POP SWAP2 SWAP1 POP JUMP JUMPDEST PUSH1 0x0 PUSH2 0x4A04 PUSH1 0x1 DUP4 PUSH2 0x509F JUMP JUMPDEST SWAP2 POP PUSH2 0x4A0F DUP3 PUSH2 0x5C10 JUMP JUMPDEST PUSH1 0x1 DUP3 ADD SWAP1 POP SWAP2 SWAP1 POP JUMP JUMPDEST PUSH2 0x4A23 DUP2 PUSH2 0x5233 JUMP JUMPDEST DUP3 MSTORE POP POP JUMP JUMPDEST PUSH2 0x4A3A PUSH2 0x4A35 DUP3 PUSH2 0x5233 JUMP JUMPDEST PUSH2 0x53CD JUMP JUMPDEST DUP3 MSTORE POP POP JUMP JUMPDEST PUSH2 0x4A49 DUP2 PUSH2 0x523D JUMP JUMPDEST DUP3 MSTORE POP POP JUMP JUMPDEST PUSH1 0x0 PUSH2 0x4A5B DUP3 DUP6 PUSH2 0x455E JUMP JUMPDEST SWAP2 POP PUSH2 0x4A66 DUP3 PUSH2 0x49F7 JUMP JUMPDEST SWAP2 POP PUSH2 0x4A72 DUP3 DUP5 PUSH2 0x452D JUMP JUMPDEST SWAP2 POP PUSH2 0x4A7D DUP3 PUSH2 0x4853 JUMP JUMPDEST SWAP2 POP DUP2 SWAP1 POP SWAP4 SWAP3 POP POP POP JUMP JUMPDEST PUSH1 0x0 PUSH2 0x4A94 DUP3 PUSH2 0x48BC JUMP JUMPDEST SWAP2 POP DUP2 SWAP1 POP SWAP2 SWAP1 POP JUMP JUMPDEST PUSH1 0x0 PUSH2 0x4AA9 DUP3 PUSH2 0x4948 JUMP JUMPDEST SWAP2 POP PUSH2 0x4AB5 DUP3 DUP6 PUSH2 0x452D JUMP JUMPDEST SWAP2 POP PUSH2 0x4AC0 DUP3 PUSH2 0x49B1 JUMP JUMPDEST SWAP2 POP PUSH2 0x4ACC DUP3 DUP5 PUSH2 0x452D JUMP JUMPDEST SWAP2 POP DUP2 SWAP1 POP SWAP4 SWAP3 POP POP POP JUMP JUMPDEST PUSH1 0x0 PUSH2 0x4AE4 DUP3 DUP8 PUSH2 0x4A29 JUMP JUMPDEST PUSH1 0x20 DUP3 ADD SWAP2 POP PUSH2 0x4AF4 DUP3 DUP7 PUSH2 0x4460 JUMP JUMPDEST PUSH1 0x14 DUP3 ADD SWAP2 POP PUSH2 0x4B04 DUP3 DUP6 PUSH2 0x4A29 JUMP JUMPDEST PUSH1 0x20 DUP3 ADD SWAP2 POP PUSH2 0x4B14 DUP3 DUP5 PUSH2 0x4495 JUMP JUMPDEST PUSH1 0x20 DUP3 ADD SWAP2 POP DUP2 SWAP1 POP SWAP6 SWAP5 POP POP POP POP POP JUMP JUMPDEST PUSH1 0x0 PUSH1 0x20 DUP3 ADD SWAP1 POP PUSH2 0x4B3B PUSH1 0x0 DUP4 ADD DUP5 PUSH2 0x4451 JUMP JUMPDEST SWAP3 SWAP2 POP POP JUMP JUMPDEST PUSH1 0x0 PUSH1 0x80 DUP3 ADD SWAP1 POP PUSH2 0x4B56 PUSH1 0x0 DUP4 ADD DUP8 PUSH2 0x4451 JUMP JUMPDEST PUSH2 0x4B63 PUSH1 0x20 DUP4 ADD DUP7 PUSH2 0x4451 JUMP JUMPDEST PUSH2 0x4B70 PUSH1 0x40 DUP4 ADD DUP6 PUSH2 0x4A1A JUMP JUMPDEST DUP2 DUP2 SUB PUSH1 0x60 DUP4 ADD MSTORE PUSH2 0x4B82 DUP2 DUP5 PUSH2 0x44AC JUMP JUMPDEST SWAP1 POP SWAP6 SWAP5 POP POP POP POP POP JUMP JUMPDEST PUSH1 0x0 PUSH1 0x40 DUP3 ADD SWAP1 POP PUSH2 0x4BA2 PUSH1 0x0 DUP4 ADD DUP6 PUSH2 0x4451 JUMP JUMPDEST PUSH2 0x4BAF PUSH1 0x20 DUP4 ADD DUP5 PUSH2 0x4A1A JUMP JUMPDEST SWAP4 SWAP3 POP POP POP JUMP JUMPDEST PUSH1 0x0 PUSH1 0x20 DUP3 ADD SWAP1 POP PUSH2 0x4BCB PUSH1 0x0 DUP4 ADD DUP5 PUSH2 0x4477 JUMP JUMPDEST SWAP3 SWAP2 POP POP JUMP JUMPDEST PUSH1 0x0 PUSH1 0x20 DUP3 ADD SWAP1 POP PUSH2 0x4BE6 PUSH1 0x0 DUP4 ADD DUP5 PUSH2 0x4486 JUMP JUMPDEST SWAP3 SWAP2 POP POP JUMP JUMPDEST PUSH1 0x0 PUSH1 0x20 DUP3 ADD SWAP1 POP PUSH2 0x4C01 PUSH1 0x0 DUP4 ADD DUP5 PUSH2 0x44E5 JUMP JUMPDEST SWAP3 SWAP2 POP POP JUMP JUMPDEST PUSH1 0x0 PUSH1 0x20 DUP3 ADD SWAP1 POP DUP2 DUP2 SUB PUSH1 0x0 DUP4 ADD MSTORE PUSH2 0x4C21 DUP2 DUP5 PUSH2 0x44F4 JUMP JUMPDEST SWAP1 POP SWAP3 SWAP2 POP POP JUMP JUMPDEST PUSH1 0x0 PUSH1 0x20 DUP3 ADD SWAP1 POP DUP2 DUP2 SUB PUSH1 0x0 DUP4 ADD MSTORE PUSH2 0x4C42 DUP2 PUSH2 0x45DD JUMP JUMPDEST SWAP1 POP SWAP2 SWAP1 POP JUMP JUMPDEST PUSH1 0x0 PUSH1 0x20 DUP3 ADD SWAP1 POP DUP2 DUP2 SUB PUSH1 0x0 DUP4 ADD MSTORE PUSH2 0x4C62 DUP2 PUSH2 0x4600 JUMP JUMPDEST SWAP1 POP SWAP2 SWAP1 POP JUMP JUMPDEST PUSH1 0x0 PUSH1 0x20 DUP3 ADD SWAP1 POP DUP2 DUP2 SUB PUSH1 0x0 DUP4 ADD MSTORE PUSH2 0x4C82 DUP2 PUSH2 0x4623 JUMP JUMPDEST SWAP1 POP SWAP2 SWAP1 POP JUMP JUMPDEST PUSH1 0x0 PUSH1 0x20 DUP3 ADD SWAP1 POP DUP2 DUP2 SUB PUSH1 0x0 DUP4 ADD MSTORE PUSH2 0x4CA2 DUP2 PUSH2 0x4646 JUMP JUMPDEST SWAP1 POP SWAP2 SWAP1 POP JUMP JUMPDEST PUSH1 0x0 PUSH1 0x20 DUP3 ADD SWAP1 POP DUP2 DUP2 SUB PUSH1 0x0 DUP4 ADD MSTORE PUSH2 0x4CC2 DUP2 PUSH2 0x4669 JUMP JUMPDEST SWAP1 POP SWAP2 SWAP1 POP JUMP JUMPDEST PUSH1 0x0 PUSH1 0x20 DUP3 ADD SWAP1 POP DUP2 DUP2 SUB PUSH1 0x0 DUP4 ADD MSTORE PUSH2 0x4CE2 DUP2 PUSH2 0x468C JUMP JUMPDEST SWAP1 POP SWAP2 SWAP1 POP JUMP JUMPDEST PUSH1 0x0 PUSH1 0x20 DUP3 ADD SWAP1 POP DUP2 DUP2 SUB PUSH1 0x0 DUP4 ADD MSTORE PUSH2 0x4D02 DUP2 PUSH2 0x46AF JUMP JUMPDEST SWAP1 POP SWAP2 SWAP1 POP JUMP JUMPDEST PUSH1 0x0 PUSH1 0x20 DUP3 ADD SWAP1 POP DUP2 DUP2 SUB PUSH1 0x0 DUP4 ADD MSTORE PUSH2 0x4D22 DUP2 PUSH2 0x46D2 JUMP JUMPDEST SWAP1 POP SWAP2 SWAP1 POP JUMP JUMPDEST PUSH1 0x0 PUSH1 0x20 DUP3 ADD SWAP1 POP DUP2 DUP2 SUB PUSH1 0x0 DUP4 ADD MSTORE PUSH2 0x4D42 DUP2 PUSH2 0x46F5 JUMP JUMPDEST SWAP1 POP SWAP2 SWAP1 POP JUMP JUMPDEST PUSH1 0x0 PUSH1 0x20 DUP3 ADD SWAP1 POP DUP2 DUP2 SUB PUSH1 0x0 DUP4 ADD MSTORE PUSH2 0x4D62 DUP2 PUSH2 0x4718 JUMP JUMPDEST SWAP1 POP SWAP2 SWAP1 POP JUMP JUMPDEST PUSH1 0x0 PUSH1 0x20 DUP3 ADD SWAP1 POP DUP2 DUP2 SUB PUSH1 0x0 DUP4 ADD MSTORE PUSH2 0x4D82 DUP2 PUSH2 0x473B JUMP JUMPDEST SWAP1 POP SWAP2 SWAP1 POP JUMP JUMPDEST PUSH1 0x0 PUSH1 0x20 DUP3 ADD SWAP1 POP DUP2 DUP2 SUB PUSH1 0x0 DUP4 ADD MSTORE PUSH2 0x4DA2 DUP2 PUSH2 0x475E JUMP JUMPDEST SWAP1 POP SWAP2 SWAP1 POP JUMP JUMPDEST PUSH1 0x0 PUSH1 0x20 DUP3 ADD SWAP1 POP DUP2 DUP2 SUB PUSH1 0x0 DUP4 ADD MSTORE PUSH2 0x4DC2 DUP2 PUSH2 0x4781 JUMP JUMPDEST SWAP1 POP SWAP2 SWAP1 POP JUMP JUMPDEST PUSH1 0x0 PUSH1 0x20 DUP3 ADD SWAP1 POP DUP2 DUP2 SUB PUSH1 0x0 DUP4 ADD MSTORE PUSH2 0x4DE2 DUP2 PUSH2 0x47A4 JUMP JUMPDEST SWAP1 POP SWAP2 SWAP1 POP JUMP JUMPDEST PUSH1 0x0 PUSH1 0x20 DUP3 ADD SWAP1 POP DUP2 DUP2 SUB PUSH1 0x0 DUP4 ADD MSTORE PUSH2 0x4E02 DUP2 PUSH2 0x47C7 JUMP JUMPDEST SWAP1 POP SWAP2 SWAP1 POP JUMP JUMPDEST PUSH1 0x0 PUSH1 0x20 DUP3 ADD SWAP1 POP DUP2 DUP2 SUB PUSH1 0x0 DUP4 ADD MSTORE PUSH2 0x4E22 DUP2 PUSH2 0x47EA JUMP JUMPDEST SWAP1 POP SWAP2 SWAP1 POP JUMP JUMPDEST PUSH1 0x0 PUSH1 0x20 DUP3 ADD SWAP1 POP DUP2 DUP2 SUB PUSH1 0x0 DUP4 ADD MSTORE PUSH2 0x4E42 DUP2 PUSH2 0x480D JUMP JUMPDEST SWAP1 POP SWAP2 SWAP1 POP JUMP JUMPDEST PUSH1 0x0 PUSH1 0x20 DUP3 ADD SWAP1 POP DUP2 DUP2 SUB PUSH1 0x0 DUP4 ADD MSTORE PUSH2 0x4E62 DUP2 PUSH2 0x4830 JUMP JUMPDEST SWAP1 POP SWAP2 SWAP1 POP JUMP JUMPDEST PUSH1 0x0 PUSH1 0x20 DUP3 ADD SWAP1 POP DUP2 DUP2 SUB PUSH1 0x0 DUP4 ADD MSTORE PUSH2 0x4E82 DUP2 PUSH2 0x4876 JUMP JUMPDEST SWAP1 POP SWAP2 SWAP1 POP JUMP JUMPDEST PUSH1 0x0 PUSH1 0x20 DUP3 ADD SWAP1 POP DUP2 DUP2 SUB PUSH1 0x0 DUP4 ADD MSTORE PUSH2 0x4EA2 DUP2 PUSH2 0x4899 JUMP JUMPDEST SWAP1 POP SWAP2 SWAP1 POP JUMP JUMPDEST PUSH1 0x0 PUSH1 0x20 DUP3 ADD SWAP1 POP DUP2 DUP2 SUB PUSH1 0x0 DUP4 ADD MSTORE PUSH2 0x4EC2 DUP2 PUSH2 0x48DF JUMP JUMPDEST SWAP1 POP SWAP2 SWAP1 POP JUMP JUMPDEST PUSH1 0x0 PUSH1 0x20 DUP3 ADD SWAP1 POP DUP2 DUP2 SUB PUSH1 0x0 DUP4 ADD MSTORE PUSH2 0x4EE2 DUP2 PUSH2 0x4902 JUMP JUMPDEST SWAP1 POP SWAP2 SWAP1 POP JUMP JUMPDEST PUSH1 0x0 PUSH1 0x20 DUP3 ADD SWAP1 POP DUP2 DUP2 SUB PUSH1 0x0 DUP4 ADD MSTORE PUSH2 0x4F02 DUP2 PUSH2 0x4925 JUMP JUMPDEST SWAP1 POP SWAP2 SWAP1 POP JUMP JUMPDEST PUSH1 0x0 PUSH1 0x20 DUP3 ADD SWAP1 POP DUP2 DUP2 SUB PUSH1 0x0 DUP4 ADD MSTORE PUSH2 0x4F22 DUP2 PUSH2 0x496B JUMP JUMPDEST SWAP1 POP SWAP2 SWAP1 POP JUMP JUMPDEST PUSH1 0x0 PUSH1 0x20 DUP3 ADD SWAP1 POP DUP2 DUP2 SUB PUSH1 0x0 DUP4 ADD MSTORE PUSH2 0x4F42 DUP2 PUSH2 0x498E JUMP JUMPDEST SWAP1 POP SWAP2 SWAP1 POP JUMP JUMPDEST PUSH1 0x0 PUSH1 0x20 DUP3 ADD SWAP1 POP DUP2 DUP2 SUB PUSH1 0x0 DUP4 ADD MSTORE PUSH2 0x4F62 DUP2 PUSH2 0x49D4 JUMP JUMPDEST SWAP1 POP SWAP2 SWAP1 POP JUMP JUMPDEST PUSH1 0x0 PUSH1 0x20 DUP3 ADD SWAP1 POP PUSH2 0x4F7E PUSH1 0x0 DUP4 ADD DUP5 PUSH2 0x4A1A JUMP JUMPDEST SWAP3 SWAP2 POP POP JUMP JUMPDEST PUSH1 0x0 PUSH1 0x40 DUP3 ADD SWAP1 POP PUSH2 0x4F99 PUSH1 0x0 DUP4 ADD DUP6 PUSH2 0x4A1A JUMP JUMPDEST PUSH2 0x4FA6 PUSH1 0x20 DUP4 ADD DUP5 PUSH2 0x4451 JUMP JUMPDEST SWAP4 SWAP3 POP POP POP JUMP JUMPDEST PUSH1 0x0 PUSH1 0x40 DUP3 ADD SWAP1 POP PUSH2 0x4FC2 PUSH1 0x0 DUP4 ADD DUP6 PUSH2 0x4A1A JUMP JUMPDEST PUSH2 0x4FCF PUSH1 0x20 DUP4 ADD DUP5 PUSH2 0x4A1A JUMP JUMPDEST SWAP4 SWAP3 POP POP POP JUMP JUMPDEST PUSH1 0x0 PUSH1 0x20 DUP3 ADD SWAP1 POP PUSH2 0x4FEB PUSH1 0x0 DUP4 ADD DUP5 PUSH2 0x4A40 JUMP JUMPDEST SWAP3 SWAP2 POP POP JUMP JUMPDEST PUSH1 0x0 PUSH2 0x4FFB PUSH2 0x500C JUMP JUMPDEST SWAP1 POP PUSH2 0x5007 DUP3 DUP3 PUSH2 0x5325 JUMP JUMPDEST SWAP2 SWAP1 POP JUMP JUMPDEST PUSH1 0x0 PUSH1 0x40 MLOAD SWAP1 POP SWAP1 JUMP JUMPDEST PUSH1 0x0 PUSH8 0xFFFFFFFFFFFFFFFF DUP3 GT ISZERO PUSH2 0x5031 JUMPI PUSH2 0x5030 PUSH2 0x54F3 JUMP JUMPDEST JUMPDEST PUSH2 0x503A DUP3 PUSH2 0x5536 JUMP JUMPDEST SWAP1 POP PUSH1 0x20 DUP2 ADD SWAP1 POP SWAP2 SWAP1 POP JUMP JUMPDEST PUSH1 0x0 DUP2 SWAP1 POP DUP2 PUSH1 0x0 MSTORE PUSH1 0x20 PUSH1 0x0 KECCAK256 SWAP1 POP SWAP2 SWAP1 POP JUMP JUMPDEST PUSH1 0x0 DUP2 MLOAD SWAP1 POP SWAP2 SWAP1 POP JUMP JUMPDEST PUSH1 0x0 DUP2 MLOAD SWAP1 POP SWAP2 SWAP1 POP JUMP JUMPDEST PUSH1 0x0 DUP3 DUP3 MSTORE PUSH1 0x20 DUP3 ADD SWAP1 POP SWAP3 SWAP2 POP POP JUMP JUMPDEST PUSH1 0x0 DUP2 SWAP1 POP SWAP3 SWAP2 POP POP JUMP JUMPDEST PUSH1 0x0 DUP3 DUP3 MSTORE PUSH1 0x20 DUP3 ADD SWAP1 POP SWAP3 SWAP2 POP POP JUMP JUMPDEST PUSH1 0x0 DUP2 SWAP1 POP SWAP3 SWAP2 POP POP JUMP JUMPDEST PUSH1 0x0 PUSH2 0x50B5 DUP3 PUSH2 0x5233 JUMP JUMPDEST SWAP2 POP PUSH2 0x50C0 DUP4 PUSH2 0x5233 JUMP JUMPDEST SWAP3 POP DUP3 PUSH32 0xFFFFFFFFFFFFFFFFFFFFFFFFFFFFFFFFFFFFFFFFFFFFFFFFFFFFFFFFFFFFFFFF SUB DUP3 GT ISZERO PUSH2 0x50F5 JUMPI PUSH2 0x50F4 PUSH2 0x5408 JUMP JUMPDEST JUMPDEST DUP3 DUP3 ADD SWAP1 POP SWAP3 SWAP2 POP POP JUMP JUMPDEST PUSH1 0x0 PUSH2 0x510B DUP3 PUSH2 0x5233 JUMP JUMPDEST SWAP2 POP PUSH2 0x5116 DUP4 PUSH2 0x5233 JUMP JUMPDEST SWAP3 POP DUP3 PUSH2 0x5126 JUMPI PUSH2 0x5125 PUSH2 0x5437 JUMP JUMPDEST JUMPDEST DUP3 DUP3 DIV SWAP1 POP SWAP3 SWAP2 POP POP JUMP JUMPDEST PUSH1 0x0 PUSH2 0x513C DUP3 PUSH2 0x5233 JUMP JUMPDEST SWAP2 POP PUSH2 0x5147 DUP4 PUSH2 0x5233 JUMP JUMPDEST SWAP3 POP DUP2 PUSH32 0xFFFFFFFFFFFFFFFFFFFFFFFFFFFFFFFFFFFFFFFFFFFFFFFFFFFFFFFFFFFFFFFF DIV DUP4 GT DUP3 ISZERO ISZERO AND ISZERO PUSH2 0x5180 JUMPI PUSH2 0x517F PUSH2 0x5408 JUMP JUMPDEST JUMPDEST DUP3 DUP3 MUL SWAP1 POP SWAP3 SWAP2 POP POP JUMP JUMPDEST PUSH1 0x0 PUSH2 0x5196 DUP3 PUSH2 0x5233 JUMP JUMPDEST SWAP2 POP PUSH2 0x51A1 DUP4 PUSH2 0x5233 JUMP JUMPDEST SWAP3 POP DUP3 DUP3 LT ISZERO PUSH2 0x51B4 JUMPI PUSH2 0x51B3 PUSH2 0x5408 JUMP JUMPDEST JUMPDEST DUP3 DUP3 SUB SWAP1 POP SWAP3 SWAP2 POP POP JUMP JUMPDEST PUSH1 0x0 PUSH2 0x51CA DUP3 PUSH2 0x5213 JUMP JUMPDEST SWAP1 POP SWAP2 SWAP1 POP JUMP JUMPDEST PUSH1 0x0 DUP2 ISZERO ISZERO SWAP1 POP SWAP2 SWAP1 POP JUMP JUMPDEST PUSH1 0x0 DUP2 SWAP1 POP SWAP2 SWAP1 POP JUMP JUMPDEST PUSH1 0x0 PUSH32 0xFFFFFFFF00000000000000000000000000000000000000000000000000000000 DUP3 AND SWAP1 POP SWAP2 SWAP1 POP JUMP JUMPDEST PUSH1 0x0 PUSH20 0xFFFFFFFFFFFFFFFFFFFFFFFFFFFFFFFFFFFFFFFF DUP3 AND SWAP1 POP SWAP2 SWAP1 POP JUMP JUMPDEST PUSH1 0x0 DUP2 SWAP1 POP SWAP2 SWAP1 POP JUMP JUMPDEST PUSH1 0x0 PUSH8 0xFFFFFFFFFFFFFFFF DUP3 AND SWAP1 POP SWAP2 SWAP1 POP JUMP JUMPDEST PUSH1 0x0 PUSH2 0x525C DUP3 PUSH2 0x5263 JUMP JUMPDEST SWAP1 POP SWAP2 SWAP1 POP JUMP JUMPDEST PUSH1 0x0 PUSH2 0x526E DUP3 PUSH2 0x5275 JUMP JUMPDEST SWAP1 POP SWAP2 SWAP1 POP JUMP JUMPDEST PUSH1 0x0 PUSH2 0x5280 DUP3 PUSH2 0x5213 JUMP JUMPDEST SWAP1 POP SWAP2 SWAP1 POP JUMP JUMPDEST DUP3 DUP2 DUP4 CALLDATACOPY PUSH1 0x0 DUP4 DUP4 ADD MSTORE POP POP POP JUMP JUMPDEST PUSH1 0x0 JUMPDEST DUP4 DUP2 LT ISZERO PUSH2 0x52B4 JUMPI DUP1 DUP3 ADD MLOAD DUP2 DUP5 ADD MSTORE PUSH1 0x20 DUP2 ADD SWAP1 POP PUSH2 0x5299 JUMP JUMPDEST DUP4 DUP2 GT ISZERO PUSH2 0x52C3 JUMPI PUSH1 0x0 DUP5 DUP5 ADD MSTORE JUMPDEST POP POP POP POP JUMP JUMPDEST PUSH1 0x0 PUSH2 0x52D4 DUP3 PUSH2 0x5233 JUMP JUMPDEST SWAP2 POP PUSH1 0x0 DUP3 EQ ISZERO PUSH2 0x52E8 JUMPI PUSH2 0x52E7 PUSH2 0x5408 JUMP JUMPDEST JUMPDEST PUSH1 0x1 DUP3 SUB SWAP1 POP SWAP2 SWAP1 POP JUMP JUMPDEST PUSH1 0x0 PUSH1 0x2 DUP3 DIV SWAP1 POP PUSH1 0x1 DUP3 AND DUP1 PUSH2 0x530B JUMPI PUSH1 0x7F DUP3 AND SWAP2 POP JUMPDEST PUSH1 0x20 DUP3 LT DUP2 EQ ISZERO PUSH2 0x531F JUMPI PUSH2 0x531E PUSH2 0x5466 JUMP JUMPDEST JUMPDEST POP SWAP2 SWAP1 POP JUMP JUMPDEST PUSH2 0x532E DUP3 PUSH2 0x5536 JUMP JUMPDEST DUP2 ADD DUP2 DUP2 LT PUSH8 0xFFFFFFFFFFFFFFFF DUP3 GT OR ISZERO PUSH2 0x534D JUMPI PUSH2 0x534C PUSH2 0x54F3 JUMP JUMPDEST JUMPDEST DUP1 PUSH1 0x40 MSTORE POP POP POP JUMP JUMPDEST PUSH1 0x0 PUSH2 0x5361 DUP3 PUSH2 0x5233 JUMP JUMPDEST SWAP2 POP PUSH32 0xFFFFFFFFFFFFFFFFFFFFFFFFFFFFFFFFFFFFFFFFFFFFFFFFFFFFFFFFFFFFFFFF DUP3 EQ ISZERO PUSH2 0x5394 JUMPI PUSH2 0x5393 PUSH2 0x5408 JUMP JUMPDEST JUMPDEST PUSH1 0x1 DUP3 ADD SWAP1 POP SWAP2 SWAP1 POP JUMP JUMPDEST PUSH1 0x0 PUSH2 0x53AA DUP3 PUSH2 0x53BB JUMP JUMPDEST SWAP1 POP SWAP2 SWAP1 POP JUMP JUMPDEST PUSH1 0x0 DUP2 SWAP1 POP SWAP2 SWAP1 POP JUMP JUMPDEST PUSH1 0x0 PUSH2 0x53C6 DUP3 PUSH2 0x5547 JUMP JUMPDEST SWAP1 POP SWAP2 SWAP1 POP JUMP JUMPDEST PUSH1 0x0 DUP2 SWAP1 POP SWAP2 SWAP1 POP JUMP JUMPDEST PUSH1 0x0 PUSH2 0x53E2 DUP3 PUSH2 0x5233 JUMP JUMPDEST SWAP2 POP PUSH2 0x53ED DUP4 PUSH2 0x5233 JUMP JUMPDEST SWAP3 POP DUP3 PUSH2 0x53FD JUMPI PUSH2 0x53FC PUSH2 0x5437 JUMP JUMPDEST JUMPDEST DUP3 DUP3 MOD SWAP1 POP SWAP3 SWAP2 POP POP JUMP JUMPDEST PUSH32 0x4E487B7100000000000000000000000000000000000000000000000000000000 PUSH1 0x0 MSTORE PUSH1 0x11 PUSH1 0x4 MSTORE PUSH1 0x24 PUSH1 0x0 REVERT JUMPDEST PUSH32 0x4E487B7100000000000000000000000000000000000000000000000000000000 PUSH1 0x0 MSTORE PUSH1 0x12 PUSH1 0x4 MSTORE PUSH1 0x24 PUSH1 0x0 REVERT JUMPDEST PUSH32 0x4E487B7100000000000000000000000000000000000000000000000000000000 PUSH1 0x0 MSTORE PUSH1 0x22 PUSH1 0x4 MSTORE PUSH1 0x24 PUSH1 0x0 REVERT JUMPDEST PUSH32 0x4E487B7100000000000000000000000000000000000000000000000000000000 PUSH1 0x0 MSTORE PUSH1 0x31 PUSH1 0x4 MSTORE PUSH1 0x24 PUSH1 0x0 REVERT JUMPDEST PUSH32 0x4E487B7100000000000000000000000000000000000000000000000000000000 PUSH1 0x0 MSTORE PUSH1 0x32 PUSH1 0x4 MSTORE PUSH1 0x24 PUSH1 0x0 REVERT JUMPDEST PUSH32 0x4E487B7100000000000000000000000000000000000000000000000000000000 PUSH1 0x0 MSTORE PUSH1 0x41 PUSH1 0x4 MSTORE PUSH1 0x24 PUSH1 0x0 REVERT JUMPDEST PUSH1 0x0 DUP1 REVERT JUMPDEST PUSH1 0x0 DUP1 REVERT JUMPDEST PUSH1 0x0 DUP1 REVERT JUMPDEST PUSH1 0x0 DUP1 REVERT JUMPDEST PUSH1 0x0 PUSH1 0x1F NOT PUSH1 0x1F DUP4 ADD AND SWAP1 POP SWAP2 SWAP1 POP JUMP JUMPDEST PUSH1 0x0 DUP2 PUSH1 0x60 SHL SWAP1 POP SWAP2 SWAP1 POP JUMP JUMPDEST PUSH32 0x537472696E67733A20686578206C656E67746820696E73756666696369656E74 PUSH1 0x0 DUP3 ADD MSTORE POP JUMP JUMPDEST PUSH32 0x455243373231456E756D657261626C653A206F776E657220696E646578206F75 PUSH1 0x0 DUP3 ADD MSTORE PUSH32 0x74206F6620626F756E6473000000000000000000000000000000000000000000 PUSH1 0x20 DUP3 ADD MSTORE POP JUMP JUMPDEST PUSH32 0x4552433732313A207472616E7366657220746F206E6F6E204552433732315265 PUSH1 0x0 DUP3 ADD MSTORE PUSH32 0x63656976657220696D706C656D656E7465720000000000000000000000000000 PUSH1 0x20 DUP3 ADD MSTORE POP JUMP JUMPDEST PUSH32 0x4F776E61626C653A206E6577206F776E657220697320746865207A65726F2061 PUSH1 0x0 DUP3 ADD MSTORE PUSH32 0x6464726573730000000000000000000000000000000000000000000000000000 PUSH1 0x20 DUP3 ADD MSTORE POP JUMP JUMPDEST PUSH32 0x4552433732313A207472616E736665722066726F6D20696E636F727265637420 PUSH1 0x0 DUP3 ADD MSTORE PUSH32 0x6F776E6572000000000000000000000000000000000000000000000000000000 PUSH1 0x20 DUP3 ADD MSTORE POP JUMP JUMPDEST PUSH32 0x636865636B207072696365000000000000000000000000000000000000000000 PUSH1 0x0 DUP3 ADD MSTORE POP JUMP JUMPDEST PUSH32 0x4552433732313A20746F6B656E20616C7265616479206D696E74656400000000 PUSH1 0x0 DUP3 ADD MSTORE POP JUMP JUMPDEST PUSH32 0x4661696C656420746F2073656E64206D6F6E6579000000000000000000000000 PUSH1 0x0 DUP3 ADD MSTORE POP JUMP JUMPDEST PUSH32 0x4552433732313A207472616E7366657220746F20746865207A65726F20616464 PUSH1 0x0 DUP3 ADD MSTORE PUSH32 0x7265737300000000000000000000000000000000000000000000000000000000 PUSH1 0x20 DUP3 ADD MSTORE POP JUMP JUMPDEST PUSH32 0x4552433732313A20617070726F766520746F2063616C6C657200000000000000 PUSH1 0x0 DUP3 ADD MSTORE POP JUMP JUMPDEST PUSH32 0x4552433732313A206F70657261746F7220717565727920666F72206E6F6E6578 PUSH1 0x0 DUP3 ADD MSTORE PUSH32 0x697374656E7420746F6B656E0000000000000000000000000000000000000000 PUSH1 0x20 DUP3 ADD MSTORE POP JUMP JUMPDEST PUSH32 0x4E6F7420656E6F756768206B6C61790000000000000000000000000000000000 PUSH1 0x0 DUP3 ADD MSTORE POP JUMP JUMPDEST PUSH32 0x4552433732313A20617070726F76652063616C6C6572206973206E6F74206F77 PUSH1 0x0 DUP3 ADD MSTORE PUSH32 0x6E6572206E6F7220617070726F76656420666F7220616C6C0000000000000000 PUSH1 0x20 DUP3 ADD MSTORE POP JUMP JUMPDEST PUSH32 0x4552433732313A2062616C616E636520717565727920666F7220746865207A65 PUSH1 0x0 DUP3 ADD MSTORE PUSH32 0x726F206164647265737300000000000000000000000000000000000000000000 PUSH1 0x20 DUP3 ADD MSTORE POP JUMP JUMPDEST PUSH32 0x4552433732313A206F776E657220717565727920666F72206E6F6E6578697374 PUSH1 0x0 DUP3 ADD MSTORE PUSH32 0x656E7420746F6B656E0000000000000000000000000000000000000000000000 PUSH1 0x20 DUP3 ADD MSTORE POP JUMP JUMPDEST PUSH32 0x4552433732313A206D696E7420746F20746865207A65726F2061646472657373 PUSH1 0x0 DUP3 ADD MSTORE POP JUMP JUMPDEST PUSH32 0x4E6F206D6F7265206D696E74696E6720697320706F737369626C650000000000 PUSH1 0x0 DUP3 ADD MSTORE POP JUMP JUMPDEST PUSH32 0x4552433732313A20617070726F76656420717565727920666F72206E6F6E6578 PUSH1 0x0 DUP3 ADD MSTORE PUSH32 0x697374656E7420746F6B656E0000000000000000000000000000000000000000 PUSH1 0x20 DUP3 ADD MSTORE POP JUMP JUMPDEST PUSH32 0x2E6A736F6E000000000000000000000000000000000000000000000000000000 PUSH1 0x0 DUP3 ADD MSTORE POP JUMP JUMPDEST PUSH32 0x4F776E61626C653A2063616C6C6572206973206E6F7420746865206F776E6572 PUSH1 0x0 DUP3 ADD MSTORE POP JUMP JUMPDEST PUSH32 0x4552433732313A20617070726F76616C20746F2063757272656E74206F776E65 PUSH1 0x0 DUP3 ADD MSTORE PUSH32 0x7200000000000000000000000000000000000000000000000000000000000000 PUSH1 0x20 DUP3 ADD MSTORE POP JUMP JUMPDEST POP JUMP JUMPDEST PUSH32 0x4552433732313A207472616E736665722063616C6C6572206973206E6F74206F PUSH1 0x0 DUP3 ADD MSTORE PUSH32 0x776E6572206E6F7220617070726F766564000000000000000000000000000000 PUSH1 0x20 DUP3 ADD MSTORE POP JUMP JUMPDEST PUSH32 0x6E6F20696473206C656674000000000000000000000000000000000000000000 PUSH1 0x0 DUP3 ADD MSTORE POP JUMP JUMPDEST PUSH32 0x455243373231456E756D657261626C653A20676C6F62616C20696E646578206F PUSH1 0x0 DUP3 ADD MSTORE PUSH32 0x7574206F6620626F756E64730000000000000000000000000000000000000000 PUSH1 0x20 DUP3 ADD MSTORE POP JUMP JUMPDEST PUSH32 0x416363657373436F6E74726F6C3A206163636F756E7420000000000000000000 PUSH1 0x0 DUP3 ADD MSTORE POP JUMP JUMPDEST PUSH32 0x636865636B2062616C616E636500000000000000000000000000000000000000 PUSH1 0x0 DUP3 ADD MSTORE POP JUMP JUMPDEST PUSH32 0x416C7265616479204D696E740000000000000000000000000000000000000000 PUSH1 0x0 DUP3 ADD MSTORE POP JUMP JUMPDEST PUSH32 0x206973206D697373696E6720726F6C6520000000000000000000000000000000 PUSH1 0x0 DUP3 ADD MSTORE POP JUMP JUMPDEST PUSH32 0x416363657373436F6E74726F6C3A2063616E206F6E6C792072656E6F756E6365 PUSH1 0x0 DUP3 ADD MSTORE PUSH32 0x20726F6C657320666F722073656C660000000000000000000000000000000000 PUSH1 0x20 DUP3 ADD MSTORE POP JUMP JUMPDEST PUSH32 0x2F00000000000000000000000000000000000000000000000000000000000000 PUSH1 0x0 DUP3 ADD MSTORE POP JUMP JUMPDEST PUSH2 0x5C42 DUP2 PUSH2 0x51BF JUMP JUMPDEST DUP2 EQ PUSH2 0x5C4D JUMPI PUSH1 0x0 DUP1 REVERT JUMPDEST POP JUMP JUMPDEST PUSH2 0x5C59 DUP2 PUSH2 0x51D1 JUMP JUMPDEST DUP2 EQ PUSH2 0x5C64 JUMPI PUSH1 0x0 DUP1 REVERT JUMPDEST POP JUMP JUMPDEST PUSH2 0x5C70 DUP2 PUSH2 0x51DD JUMP JUMPDEST DUP2 EQ PUSH2 0x5C7B JUMPI PUSH1 0x0 DUP1 REVERT JUMPDEST POP JUMP JUMPDEST PUSH2 0x5C87 DUP2 PUSH2 0x51E7 JUMP JUMPDEST DUP2 EQ PUSH2 0x5C92 JUMPI PUSH1 0x0 DUP1 REVERT JUMPDEST POP JUMP JUMPDEST PUSH2 0x5C9E DUP2 PUSH2 0x5233 JUMP JUMPDEST DUP2 EQ PUSH2 0x5CA9 JUMPI PUSH1 0x0 DUP1 REVERT JUMPDEST POP JUMP JUMPDEST PUSH2 0x5CB5 DUP2 PUSH2 0x523D JUMP JUMPDEST DUP2 EQ PUSH2 0x5CC0 JUMPI PUSH1 0x0 DUP1 REVERT JUMPDEST POP JUMP INVALID LOG2 PUSH5 0x6970667358 0x22 SLT KECCAK256 SSTORE SELFBALANCE MUL 0x5C CHAINID SHR PUSH28 0x36CBB4384A71856948B97D05AFFE0DE0D4752B72ABD40AAD9264736F PUSH13 0x63430008070033000000000000 "
		},
		"gasEstimates": {
			"creation": {
				"codeDepositCost": "4760200",
				"executionCost": "infinite",
				"totalCost": "infinite"
			},
			"external": {
				"AlreadyMint(uint256)": "2842",
				"DEFAULT_ADMIN_ROLE()": "468",
				"MAX_NORMAL_TOKEN_COUNT()": "419",
				"MAX_SPECIAL_TOKEN_COUNT()": "418",
				"MINTER_ROLE()": "484",
				"SPECIAL_MINTER_ROLE()": "374",
				"_normalTokenIdCount()": "2539",
				"_owner()": "2559",
				"_specialTokenIdCount()": "2496",
				"addWhiteList(address)": "infinite",
				"approve(address,uint256)": "infinite",
				"balanceOf(address)": "2991",
				"getApproved(uint256)": "5273",
				"getJolamanTokenType(uint256)": "infinite",
				"getRoleAdmin(bytes32)": "infinite",
				"grantRole(bytes32,address)": "infinite",
				"hasRole(bytes32,address)": "3229",
				"isApprovedForAll(address,address)": "infinite",
				"isWhiteList(address)": "2999",
				"mappedJolamanTokenData(uint256)": "infinite",
				"metadataURI()": "infinite",
				"mintingPrice()": "2539",
				"name()": "infinite",
				"owner()": "2589",
				"ownerOf(uint256)": "3045",
				"payandMint()": "infinite",
				"payment()": "infinite",
				"removeWhiteList(address)": "infinite",
				"renounceOwnership()": "30508",
				"renounceRole(bytes32,address)": "infinite",
				"revokeRole(bytes32,address)": "infinite",
				"safeMint(address)": "infinite",
				"safeMintforWhitelist(address)": "infinite",
				"safeTransferFrom(address,address,uint256)": "infinite",
				"safeTransferFrom(address,address,uint256,bytes)": "infinite",
				"setApprovalForAll(address,bool)": "infinite",
				"setMintingPrice(uint64)": "24834",
				"setdata()": "2711",
				"specialPayandMint()": "infinite",
				"supportsInterface(bytes4)": "1041",
				"symbol()": "infinite",
				"tokenByIndex(uint256)": "infinite",
				"tokenOfOwnerByIndex(address,uint256)": "infinite",
				"tokenURI(uint256)": "infinite",
				"totalSupply()": "2513",
				"transferFrom(address,address,uint256)": "infinite",
				"transferOwnership(address)": "30855"
			},
			"internal": {
				"getRandSpecialTokenType(uint256)": "infinite",
				"getRandTokenType(uint256)": "infinite",
				"randomGenerator()": "infinite",
				"specialRandomGenerator()": "infinite"
			}
		},
		"methodIdentifiers": {
			"AlreadyMint(uint256)": "0c401d7e",
			"DEFAULT_ADMIN_ROLE()": "a217fddf",
			"MAX_NORMAL_TOKEN_COUNT()": "70446bbe",
			"MAX_SPECIAL_TOKEN_COUNT()": "4707a389",
			"MINTER_ROLE()": "d5391393",
			"SPECIAL_MINTER_ROLE()": "74e3447a",
			"_normalTokenIdCount()": "eecf2033",
			"_owner()": "b2bdfa7b",
			"_specialTokenIdCount()": "b6612d76",
			"addWhiteList(address)": "e7cd4a04",
			"approve(address,uint256)": "095ea7b3",
			"balanceOf(address)": "70a08231",
			"getApproved(uint256)": "081812fc",
			"getJolamanTokenType(uint256)": "3e334cf0",
			"getRoleAdmin(bytes32)": "248a9ca3",
			"grantRole(bytes32,address)": "2f2ff15d",
			"hasRole(bytes32,address)": "91d14854",
			"isApprovedForAll(address,address)": "e985e9c5",
			"isWhiteList(address)": "f99031a7",
			"mappedJolamanTokenData(uint256)": "37874127",
			"metadataURI()": "03ee438c",
			"mintingPrice()": "35db70b5",
			"name()": "06fdde03",
			"owner()": "8da5cb5b",
			"ownerOf(uint256)": "6352211e",
			"payandMint()": "73ff361b",
			"payment()": "42f6487a",
			"removeWhiteList(address)": "2042e5c2",
			"renounceOwnership()": "715018a6",
			"renounceRole(bytes32,address)": "36568abe",
			"revokeRole(bytes32,address)": "d547741f",
			"safeMint(address)": "40d097c3",
			"safeMintforWhitelist(address)": "c1514d92",
			"safeTransferFrom(address,address,uint256)": "42842e0e",
			"safeTransferFrom(address,address,uint256,bytes)": "b88d4fde",
			"setApprovalForAll(address,bool)": "a22cb465",
			"setMintingPrice(uint64)": "5aa961e5",
			"setdata()": "491041a4",
			"specialPayandMint()": "62c9fe06",
			"supportsInterface(bytes4)": "01ffc9a7",
			"symbol()": "95d89b41",
			"tokenByIndex(uint256)": "4f6ccce7",
			"tokenOfOwnerByIndex(address,uint256)": "2f745c59",
			"tokenURI(uint256)": "c87b56dd",
			"totalSupply()": "18160ddd",
			"transferFrom(address,address,uint256)": "23b872dd",
			"transferOwnership(address)": "f2fde38b"
		}
	},
	"abi": [
		{
			"inputs": [
				{
					"internalType": "string",
					"name": "_metadataURI",
					"type": "string"
				},
				{
					"internalType": "address",
					"name": "_setdata",
					"type": "address"
				}
			],
			"stateMutability": "nonpayable",
			"type": "constructor"
		},
		{
			"anonymous": false,
			"inputs": [
				{
					"indexed": true,
					"internalType": "address",
					"name": "owner",
					"type": "address"
				},
				{
					"indexed": true,
					"internalType": "address",
					"name": "approved",
					"type": "address"
				},
				{
					"indexed": true,
					"internalType": "uint256",
					"name": "tokenId",
					"type": "uint256"
				}
			],
			"name": "Approval",
			"type": "event"
		},
		{
			"anonymous": false,
			"inputs": [
				{
					"indexed": true,
					"internalType": "address",
					"name": "owner",
					"type": "address"
				},
				{
					"indexed": true,
					"internalType": "address",
					"name": "operator",
					"type": "address"
				},
				{
					"indexed": false,
					"internalType": "bool",
					"name": "approved",
					"type": "bool"
				}
			],
			"name": "ApprovalForAll",
			"type": "event"
		},
		{
			"anonymous": false,
			"inputs": [
				{
					"indexed": true,
					"internalType": "address",
					"name": "previousOwner",
					"type": "address"
				},
				{
					"indexed": true,
					"internalType": "address",
					"name": "newOwner",
					"type": "address"
				}
			],
			"name": "OwnershipTransferred",
			"type": "event"
		},
		{
			"anonymous": false,
			"inputs": [
				{
					"indexed": true,
					"internalType": "bytes32",
					"name": "role",
					"type": "bytes32"
				},
				{
					"indexed": true,
					"internalType": "bytes32",
					"name": "previousAdminRole",
					"type": "bytes32"
				},
				{
					"indexed": true,
					"internalType": "bytes32",
					"name": "newAdminRole",
					"type": "bytes32"
				}
			],
			"name": "RoleAdminChanged",
			"type": "event"
		},
		{
			"anonymous": false,
			"inputs": [
				{
					"indexed": true,
					"internalType": "bytes32",
					"name": "role",
					"type": "bytes32"
				},
				{
					"indexed": true,
					"internalType": "address",
					"name": "account",
					"type": "address"
				},
				{
					"indexed": true,
					"internalType": "address",
					"name": "sender",
					"type": "address"
				}
			],
			"name": "RoleGranted",
			"type": "event"
		},
		{
			"anonymous": false,
			"inputs": [
				{
					"indexed": true,
					"internalType": "bytes32",
					"name": "role",
					"type": "bytes32"
				},
				{
					"indexed": true,
					"internalType": "address",
					"name": "account",
					"type": "address"
				},
				{
					"indexed": true,
					"internalType": "address",
					"name": "sender",
					"type": "address"
				}
			],
			"name": "RoleRevoked",
			"type": "event"
		},
		{
			"anonymous": false,
			"inputs": [
				{
					"indexed": true,
					"internalType": "address",
					"name": "from",
					"type": "address"
				},
				{
					"indexed": true,
					"internalType": "address",
					"name": "to",
					"type": "address"
				},
				{
					"indexed": true,
					"internalType": "uint256",
					"name": "tokenId",
					"type": "uint256"
				}
			],
			"name": "Transfer",
			"type": "event"
		},
		{
			"inputs": [
				{
					"internalType": "uint256",
					"name": "",
					"type": "uint256"
				}
			],
			"name": "AlreadyMint",
			"outputs": [
				{
					"internalType": "bool",
					"name": "",
					"type": "bool"
				}
			],
			"stateMutability": "view",
			"type": "function"
		},
		{
			"inputs": [],
			"name": "DEFAULT_ADMIN_ROLE",
			"outputs": [
				{
					"internalType": "bytes32",
					"name": "",
					"type": "bytes32"
				}
			],
			"stateMutability": "view",
			"type": "function"
		},
		{
			"inputs": [],
			"name": "MAX_NORMAL_TOKEN_COUNT",
			"outputs": [
				{
					"internalType": "uint256",
					"name": "",
					"type": "uint256"
				}
			],
			"stateMutability": "view",
			"type": "function"
		},
		{
			"inputs": [],
			"name": "MAX_SPECIAL_TOKEN_COUNT",
			"outputs": [
				{
					"internalType": "uint256",
					"name": "",
					"type": "uint256"
				}
			],
			"stateMutability": "view",
			"type": "function"
		},
		{
			"inputs": [],
			"name": "MINTER_ROLE",
			"outputs": [
				{
					"internalType": "bytes32",
					"name": "",
					"type": "bytes32"
				}
			],
			"stateMutability": "view",
			"type": "function"
		},
		{
			"inputs": [],
			"name": "SPECIAL_MINTER_ROLE",
			"outputs": [
				{
					"internalType": "bytes32",
					"name": "",
					"type": "bytes32"
				}
			],
			"stateMutability": "view",
			"type": "function"
		},
		{
			"inputs": [],
			"name": "_normalTokenIdCount",
			"outputs": [
				{
					"internalType": "uint256",
					"name": "",
					"type": "uint256"
				}
			],
			"stateMutability": "view",
			"type": "function"
		},
		{
			"inputs": [],
			"name": "_owner",
			"outputs": [
				{
					"internalType": "address",
					"name": "",
					"type": "address"
				}
			],
			"stateMutability": "view",
			"type": "function"
		},
		{
			"inputs": [],
			"name": "_specialTokenIdCount",
			"outputs": [
				{
					"internalType": "uint256",
					"name": "",
					"type": "uint256"
				}
			],
			"stateMutability": "view",
			"type": "function"
		},
		{
			"inputs": [
				{
					"internalType": "address",
					"name": "_toWhiteList",
					"type": "address"
				}
			],
			"name": "addWhiteList",
			"outputs": [],
			"stateMutability": "nonpayable",
			"type": "function"
		},
		{
			"inputs": [
				{
					"internalType": "address",
					"name": "to",
					"type": "address"
				},
				{
					"internalType": "uint256",
					"name": "tokenId",
					"type": "uint256"
				}
			],
			"name": "approve",
			"outputs": [],
			"stateMutability": "nonpayable",
			"type": "function"
		},
		{
			"inputs": [
				{
					"internalType": "address",
					"name": "owner",
					"type": "address"
				}
			],
			"name": "balanceOf",
			"outputs": [
				{
					"internalType": "uint256",
					"name": "",
					"type": "uint256"
				}
			],
			"stateMutability": "view",
			"type": "function"
		},
		{
			"inputs": [
				{
					"internalType": "uint256",
					"name": "tokenId",
					"type": "uint256"
				}
			],
			"name": "getApproved",
			"outputs": [
				{
					"internalType": "address",
					"name": "",
					"type": "address"
				}
			],
			"stateMutability": "view",
			"type": "function"
		},
		{
			"inputs": [
				{
					"internalType": "uint256",
					"name": "_tokenId",
					"type": "uint256"
				}
			],
			"name": "getJolamanTokenType",
			"outputs": [
				{
					"internalType": "uint256",
					"name": "",
					"type": "uint256"
				}
			],
			"stateMutability": "view",
			"type": "function"
		},
		{
			"inputs": [
				{
					"internalType": "bytes32",
					"name": "role",
					"type": "bytes32"
				}
			],
			"name": "getRoleAdmin",
			"outputs": [
				{
					"internalType": "bytes32",
					"name": "",
					"type": "bytes32"
				}
			],
			"stateMutability": "view",
			"type": "function"
		},
		{
			"inputs": [
				{
					"internalType": "bytes32",
					"name": "role",
					"type": "bytes32"
				},
				{
					"internalType": "address",
					"name": "account",
					"type": "address"
				}
			],
			"name": "grantRole",
			"outputs": [],
			"stateMutability": "nonpayable",
			"type": "function"
		},
		{
			"inputs": [
				{
					"internalType": "bytes32",
					"name": "role",
					"type": "bytes32"
				},
				{
					"internalType": "address",
					"name": "account",
					"type": "address"
				}
			],
			"name": "hasRole",
			"outputs": [
				{
					"internalType": "bool",
					"name": "",
					"type": "bool"
				}
			],
			"stateMutability": "view",
			"type": "function"
		},
		{
			"inputs": [
				{
					"internalType": "address",
					"name": "owner",
					"type": "address"
				},
				{
					"internalType": "address",
					"name": "operator",
					"type": "address"
				}
			],
			"name": "isApprovedForAll",
			"outputs": [
				{
					"internalType": "bool",
					"name": "",
					"type": "bool"
				}
			],
			"stateMutability": "view",
			"type": "function"
		},
		{
			"inputs": [
				{
					"internalType": "address",
					"name": "",
					"type": "address"
				}
			],
			"name": "isWhiteList",
			"outputs": [
				{
					"internalType": "bool",
					"name": "",
					"type": "bool"
				}
			],
			"stateMutability": "view",
			"type": "function"
		},
		{
			"inputs": [
				{
					"internalType": "uint256",
					"name": "",
					"type": "uint256"
				}
			],
			"name": "mappedJolamanTokenData",
			"outputs": [
				{
					"internalType": "uint256",
					"name": "jolamanTokenType",
					"type": "uint256"
				}
			],
			"stateMutability": "view",
			"type": "function"
		},
		{
			"inputs": [],
			"name": "metadataURI",
			"outputs": [
				{
					"internalType": "string",
					"name": "",
					"type": "string"
				}
			],
			"stateMutability": "view",
			"type": "function"
		},
		{
			"inputs": [],
			"name": "mintingPrice",
			"outputs": [
				{
					"internalType": "uint64",
					"name": "",
					"type": "uint64"
				}
			],
			"stateMutability": "view",
			"type": "function"
		},
		{
			"inputs": [],
			"name": "name",
			"outputs": [
				{
					"internalType": "string",
					"name": "",
					"type": "string"
				}
			],
			"stateMutability": "view",
			"type": "function"
		},
		{
			"inputs": [],
			"name": "owner",
			"outputs": [
				{
					"internalType": "address",
					"name": "",
					"type": "address"
				}
			],
			"stateMutability": "view",
			"type": "function"
		},
		{
			"inputs": [
				{
					"internalType": "uint256",
					"name": "tokenId",
					"type": "uint256"
				}
			],
			"name": "ownerOf",
			"outputs": [
				{
					"internalType": "address",
					"name": "",
					"type": "address"
				}
			],
			"stateMutability": "view",
			"type": "function"
		},
		{
			"inputs": [],
			"name": "payandMint",
			"outputs": [],
			"stateMutability": "payable",
			"type": "function"
		},
		{
			"inputs": [],
			"name": "payment",
			"outputs": [
				{
					"internalType": "bool",
					"name": "",
					"type": "bool"
				}
			],
			"stateMutability": "payable",
			"type": "function"
		},
		{
			"inputs": [
				{
					"internalType": "address",
					"name": "_toWhiteList",
					"type": "address"
				}
			],
			"name": "removeWhiteList",
			"outputs": [],
			"stateMutability": "nonpayable",
			"type": "function"
		},
		{
			"inputs": [],
			"name": "renounceOwnership",
			"outputs": [],
			"stateMutability": "nonpayable",
			"type": "function"
		},
		{
			"inputs": [
				{
					"internalType": "bytes32",
					"name": "role",
					"type": "bytes32"
				},
				{
					"internalType": "address",
					"name": "account",
					"type": "address"
				}
			],
			"name": "renounceRole",
			"outputs": [],
			"stateMutability": "nonpayable",
			"type": "function"
		},
		{
			"inputs": [
				{
					"internalType": "bytes32",
					"name": "role",
					"type": "bytes32"
				},
				{
					"internalType": "address",
					"name": "account",
					"type": "address"
				}
			],
			"name": "revokeRole",
			"outputs": [],
			"stateMutability": "nonpayable",
			"type": "function"
		},
		{
			"inputs": [
				{
					"internalType": "address",
					"name": "to",
					"type": "address"
				}
			],
			"name": "safeMint",
			"outputs": [],
			"stateMutability": "payable",
			"type": "function"
		},
		{
			"inputs": [
				{
					"internalType": "address",
					"name": "to",
					"type": "address"
				}
			],
			"name": "safeMintforWhitelist",
			"outputs": [],
			"stateMutability": "payable",
			"type": "function"
		},
		{
			"inputs": [
				{
					"internalType": "address",
					"name": "from",
					"type": "address"
				},
				{
					"internalType": "address",
					"name": "to",
					"type": "address"
				},
				{
					"internalType": "uint256",
					"name": "tokenId",
					"type": "uint256"
				}
			],
			"name": "safeTransferFrom",
			"outputs": [],
			"stateMutability": "nonpayable",
			"type": "function"
		},
		{
			"inputs": [
				{
					"internalType": "address",
					"name": "from",
					"type": "address"
				},
				{
					"internalType": "address",
					"name": "to",
					"type": "address"
				},
				{
					"internalType": "uint256",
					"name": "tokenId",
					"type": "uint256"
				},
				{
					"internalType": "bytes",
					"name": "_data",
					"type": "bytes"
				}
			],
			"name": "safeTransferFrom",
			"outputs": [],
			"stateMutability": "nonpayable",
			"type": "function"
		},
		{
			"inputs": [
				{
					"internalType": "address",
					"name": "operator",
					"type": "address"
				},
				{
					"internalType": "bool",
					"name": "approved",
					"type": "bool"
				}
			],
			"name": "setApprovalForAll",
			"outputs": [],
			"stateMutability": "nonpayable",
			"type": "function"
		},
		{
			"inputs": [
				{
					"internalType": "uint64",
					"name": "_price",
					"type": "uint64"
				}
			],
			"name": "setMintingPrice",
			"outputs": [],
			"stateMutability": "nonpayable",
			"type": "function"
		},
		{
			"inputs": [],
			"name": "setdata",
			"outputs": [
				{
					"internalType": "contract SetData",
					"name": "",
					"type": "address"
				}
			],
			"stateMutability": "view",
			"type": "function"
		},
		{
			"inputs": [],
			"name": "specialPayandMint",
			"outputs": [],
			"stateMutability": "payable",
			"type": "function"
		},
		{
			"inputs": [
				{
					"internalType": "bytes4",
					"name": "interfaceId",
					"type": "bytes4"
				}
			],
			"name": "supportsInterface",
			"outputs": [
				{
					"internalType": "bool",
					"name": "",
					"type": "bool"
				}
			],
			"stateMutability": "view",
			"type": "function"
		},
		{
			"inputs": [],
			"name": "symbol",
			"outputs": [
				{
					"internalType": "string",
					"name": "",
					"type": "string"
				}
			],
			"stateMutability": "view",
			"type": "function"
		},
		{
			"inputs": [
				{
					"internalType": "uint256",
					"name": "index",
					"type": "uint256"
				}
			],
			"name": "tokenByIndex",
			"outputs": [
				{
					"internalType": "uint256",
					"name": "",
					"type": "uint256"
				}
			],
			"stateMutability": "view",
			"type": "function"
		},
		{
			"inputs": [
				{
					"internalType": "address",
					"name": "owner",
					"type": "address"
				},
				{
					"internalType": "uint256",
					"name": "index",
					"type": "uint256"
				}
			],
			"name": "tokenOfOwnerByIndex",
			"outputs": [
				{
					"internalType": "uint256",
					"name": "",
					"type": "uint256"
				}
			],
			"stateMutability": "view",
			"type": "function"
		},
		{
			"inputs": [
				{
					"internalType": "uint256",
					"name": "_tokenId",
					"type": "uint256"
				}
			],
			"name": "tokenURI",
			"outputs": [
				{
					"internalType": "string",
					"name": "",
					"type": "string"
				}
			],
			"stateMutability": "view",
			"type": "function"
		},
		{
			"inputs": [],
			"name": "totalSupply",
			"outputs": [
				{
					"internalType": "uint256",
					"name": "",
					"type": "uint256"
				}
			],
			"stateMutability": "view",
			"type": "function"
		},
		{
			"inputs": [
				{
					"internalType": "address",
					"name": "from",
					"type": "address"
				},
				{
					"internalType": "address",
					"name": "to",
					"type": "address"
				},
				{
					"internalType": "uint256",
					"name": "tokenId",
					"type": "uint256"
				}
			],
			"name": "transferFrom",
			"outputs": [],
			"stateMutability": "nonpayable",
			"type": "function"
		},
		{
			"inputs": [
				{
					"internalType": "address",
					"name": "newOwner",
					"type": "address"
				}
			],
			"name": "transferOwnership",
			"outputs": [],
			"stateMutability": "nonpayable",
			"type": "function"
		}
	]
}