{
	"data": {
		"bytecode": {
			"linkReferences": {},
			"object": "608060405234801561001057600080fd5b50611518806100206000396000f3fe608060405234801561001057600080fd5b50600436106101a95760003560e01c80639a944fdf116100f9578063ce8cceb011610097578063e2bdb88011610071578063e2bdb88014610538578063ed14d64014610554578063f1e0cb0514610572578063fe43e1f0146105a2576101a9565b8063ce8cceb0146104bc578063d5538b27146104ec578063db12b4501461051c576101a9565b8063a5cd761f116100d3578063a5cd761f14610424578063a92ae38a14610454578063b6fece2d14610470578063b7ec93fa146104a0576101a9565b80639a944fdf146103bc578063a137d919146103d8578063a35b3d8914610408576101a9565b80634290482a1161016657806345149f8d1161014057806345149f8d146102fc5780634df9de761461032c57806350b959701461035c57806390e41b6e1461038c576101a9565b80634290482a1461029257806343d67fb2146102c25780634401f991146102e0576101a9565b806316b2e21e146101ae5780631b41b476146101ca5780631caaa487146101e65780631d5780131461021657806323eac4bd146102465780632f08480d14610262575b600080fd5b6101c860048036038101906101c391906110bb565b6105d2565b005b6101e460048036038101906101df9190611128565b61063c565b005b61020060048036038101906101fb91906110fb565b610692565b60405161020d919061129a565b60405180910390f35b610230600480360381019061022b91906110fb565b6106c5565b60405161023d91906112f2565b60405180910390f35b610260600480360381019061025b9190611128565b6106dd565b005b61027c600480360381019061027791906110bb565b610732565b60405161028991906112f2565b60405180910390f35b6102ac60048036038101906102a7919061108e565b610763565b6040516102b991906112b5565b60405180910390f35b6102ca6107fa565b6040516102d791906112b5565b60405180910390f35b6102fa60048036038101906102f591906110bb565b610852565b005b610316600480360381019061031191906110fb565b610a88565b60405161032391906112f2565b60405180910390f35b610346600480360381019061034191906110fb565b610aa5565b60405161035391906112d7565b60405180910390f35b610376600480360381019061037191906110fb565b610ac5565b604051610383919061129a565b60405180910390f35b6103a660048036038101906103a1919061108e565b610b02565b6040516103b391906112b5565b60405180910390f35b6103d660048036038101906103d191906110fb565b610b99565b005b6103f260048036038101906103ed91906110fb565b610bc5565b6040516103ff91906112d7565b60405180910390f35b610422600480360381019061041d9190611168565b610be5565b005b61043e600480360381019061043991906110fb565b610c14565b60405161044b919061129a565b60405180910390f35b61046e600480360381019061046991906110bb565b610c50565b005b61048a600480360381019061048591906110fb565b610cba565b60405161049791906112d7565b60405180910390f35b6104ba60048036038101906104b59190611168565b610ce4565b005b6104d660048036038101906104d191906110fb565b610d13565b6040516104e391906112d7565b60405180910390f35b610506600480360381019061050191906110bb565b610d3d565b60405161051391906112f2565b60405180910390f35b610536600480360381019061053191906110bb565b610d6e565b005b610552600480360381019061054d91906111a8565b610fa5565b005b61055c610fc1565b60405161056991906112f2565b60405180910390f35b61058c600480360381019061058791906110fb565b610ff8565b60405161059991906112f2565b60405180910390f35b6105bc60048036038101906105b791906110fb565b61101c565b6040516105c9919061129a565b60405180910390f35b600760008373ffffffffffffffffffffffffffffffffffffffff1673ffffffffffffffffffffffffffffffffffffffff1681526020019081526020016000208190806001815401808255809150506001900390600052602060002001600090919091909150555050565b806003600084815260200190815260200160002060006101000a81548173ffffffffffffffffffffffffffffffffffffffff021916908373ffffffffffffffffffffffffffffffffffffffff1602179055505050565b60006020528060005260406000206000915054906101000a900473ffffffffffffffffffffffffffffffffffffffff1681565b60046020528060005260406000206000915090505481565b8060008084815260200190815260200160002060006101000a81548173ffffffffffffffffffffffffffffffffffffffff021916908373ffffffffffffffffffffffffffffffffffffffff1602179055505050565b6001602052816000526040600020818154811061074e57600080fd5b90600052602060002001600091509150505481565b6060600760008373ffffffffffffffffffffffffffffffffffffffff1673ffffffffffffffffffffffffffffffffffffffff1681526020019081526020016000208054806020026020016040519081016040528092919081815260200182805480156107ee57602002820191906000526020600020905b8154815260200190600101908083116107da575b50505050509050919050565b6060600280548060200260200160405190810160405280929190818152602001828054801561084857602002820191906000526020600020905b815481526020019060010190808311610834575b5050505050905090565b60005b600160008473ffffffffffffffffffffffffffffffffffffffff1673ffffffffffffffffffffffffffffffffffffffff16815260200190815260200160002080549050811015610a835781600160008573ffffffffffffffffffffffffffffffffffffffff1673ffffffffffffffffffffffffffffffffffffffff16815260200190815260200160002082815481106108f1576108f0611469565b5b90600052602060002001541415610a0b57600160008473ffffffffffffffffffffffffffffffffffffffff1673ffffffffffffffffffffffffffffffffffffffff16815260200190815260200160002060018060008673ffffffffffffffffffffffffffffffffffffffff1673ffffffffffffffffffffffffffffffffffffffff1681526020019081526020016000208054905061098f9190611346565b815481106109a05761099f611469565b5b9060005260206000200154600160008573ffffffffffffffffffffffffffffffffffffffff1673ffffffffffffffffffffffffffffffffffffffff16815260200190815260200160002082815481106109fc576109fb611469565b5b90600052602060002001819055505b600160008473ffffffffffffffffffffffffffffffffffffffff1673ffffffffffffffffffffffffffffffffffffffff168152602001908152602001600020805480610a5a57610a5961143a565b5b600190038181906000526020600020016000905590558080610a7b906113c2565b915050610855565b505050565b600060046000838152602001908152602001600020549050919050565b60056020528060005260406000206000915054906101000a900460ff1681565b60006003600083815260200190815260200160002060009054906101000a900473ffffffffffffffffffffffffffffffffffffffff169050919050565b6060600160008373ffffffffffffffffffffffffffffffffffffffff1673ffffffffffffffffffffffffffffffffffffffff168152602001908152602001600020805480602002602001604051908101604052809291908181526020018280548015610b8d57602002820191906000526020600020905b815481526020019060010190808311610b79575b50505050509050919050565b600281908060018154018082558091505060019003906000526020600020016000909190919091505550565b60066020528060005260406000206000915054906101000a900460ff1681565b806005600084815260200190815260200160002060006101000a81548160ff0219169083151502179055505050565b600080600083815260200190815260200160002060009054906101000a900473ffffffffffffffffffffffffffffffffffffffff169050919050565b600160008373ffffffffffffffffffffffffffffffffffffffff1673ffffffffffffffffffffffffffffffffffffffff1681526020019081526020016000208190806001815401808255809150506001900390600052602060002001600090919091909150555050565b60006005600083815260200190815260200160002060009054906101000a900460ff169050919050565b806006600084815260200190815260200160002060006101000a81548160ff0219169083151502179055505050565b60006006600083815260200190815260200160002060009054906101000a900460ff169050919050565b60076020528160005260406000208181548110610d5957600080fd5b90600052602060002001600091509150505481565b60005b600760008473ffffffffffffffffffffffffffffffffffffffff1673ffffffffffffffffffffffffffffffffffffffff16815260200190815260200160002080549050811015610fa05781600760008573ffffffffffffffffffffffffffffffffffffffff1673ffffffffffffffffffffffffffffffffffffffff1681526020019081526020016000208281548110610e0d57610e0c611469565b5b90600052602060002001541415610f8d57600760008473ffffffffffffffffffffffffffffffffffffffff1673ffffffffffffffffffffffffffffffffffffffff1681526020019081526020016000206001600760008673ffffffffffffffffffffffffffffffffffffffff1673ffffffffffffffffffffffffffffffffffffffff16815260200190815260200160002080549050610eac9190611346565b81548110610ebd57610ebc611469565b5b9060005260206000200154600760008573ffffffffffffffffffffffffffffffffffffffff1673ffffffffffffffffffffffffffffffffffffffff1681526020019081526020016000208281548110610f1957610f18611469565b5b9060005260206000200181905550600760008473ffffffffffffffffffffffffffffffffffffffff1673ffffffffffffffffffffffffffffffffffffffff168152602001908152602001600020805480610f7657610f7561143a565b5b600190038181906000526020600020016000905590555b8080610f98906113c2565b915050610d71565b505050565b8060046000848152602001908152602001600020819055505050565b600060026001600280549050610fd79190611346565b81548110610fe857610fe7611469565b5b9060005260206000200154905090565b6002818154811061100857600080fd5b906000526020600020016000915090505481565b60036020528060005260406000206000915054906101000a900473ffffffffffffffffffffffffffffffffffffffff1681565b60008135905061105e8161149d565b92915050565b600081359050611073816114b4565b92915050565b600081359050611088816114cb565b92915050565b6000602082840312156110a4576110a3611498565b5b60006110b28482850161104f565b91505092915050565b600080604083850312156110d2576110d1611498565b5b60006110e08582860161104f565b92505060206110f185828601611079565b9150509250929050565b60006020828403121561111157611110611498565b5b600061111f84828501611079565b91505092915050565b6000806040838503121561113f5761113e611498565b5b600061114d85828601611079565b925050602061115e8582860161104f565b9150509250929050565b6000806040838503121561117f5761117e611498565b5b600061118d85828601611079565b925050602061119e85828601611064565b9150509250929050565b600080604083850312156111bf576111be611498565b5b60006111cd85828601611079565b92505060206111de85828601611079565b9150509250929050565b60006111f4838361127c565b60208301905092915050565b6112098161137a565b82525050565b600061121a8261131d565b6112248185611335565b935061122f8361130d565b8060005b8381101561126057815161124788826111e8565b975061125283611328565b925050600181019050611233565b5085935050505092915050565b6112768161138c565b82525050565b611285816113b8565b82525050565b611294816113b8565b82525050565b60006020820190506112af6000830184611200565b92915050565b600060208201905081810360008301526112cf818461120f565b905092915050565b60006020820190506112ec600083018461126d565b92915050565b6000602082019050611307600083018461128b565b92915050565b6000819050602082019050919050565b600081519050919050565b6000602082019050919050565b600082825260208201905092915050565b6000611351826113b8565b915061135c836113b8565b92508282101561136f5761136e61140b565b5b828203905092915050565b600061138582611398565b9050919050565b60008115159050919050565b600073ffffffffffffffffffffffffffffffffffffffff82169050919050565b6000819050919050565b60006113cd826113b8565b91507fffffffffffffffffffffffffffffffffffffffffffffffffffffffffffffffff821415611400576113ff61140b565b5b600182019050919050565b7f4e487b7100000000000000000000000000000000000000000000000000000000600052601160045260246000fd5b7f4e487b7100000000000000000000000000000000000000000000000000000000600052603160045260246000fd5b7f4e487b7100000000000000000000000000000000000000000000000000000000600052603260045260246000fd5b600080fd5b6114a68161137a565b81146114b157600080fd5b50565b6114bd8161138c565b81146114c857600080fd5b50565b6114d4816113b8565b81146114df57600080fd5b5056fea2646970667358221220dec2563c8e9a3334830aae91b550a2b7bc9fc8f6cbce112928e0a36165aaf8bb64736f6c63430008070033",
			"opcodes": "PUSH1 0x80 PUSH1 0x40 MSTORE CALLVALUE DUP1 ISZERO PUSH2 0x10 JUMPI PUSH1 0x0 DUP1 REVERT JUMPDEST POP PUSH2 0x1518 DUP1 PUSH2 0x20 PUSH1 0x0 CODECOPY PUSH1 0x0 RETURN INVALID PUSH1 0x80 PUSH1 0x40 MSTORE CALLVALUE DUP1 ISZERO PUSH2 0x10 JUMPI PUSH1 0x0 DUP1 REVERT JUMPDEST POP PUSH1 0x4 CALLDATASIZE LT PUSH2 0x1A9 JUMPI PUSH1 0x0 CALLDATALOAD PUSH1 0xE0 SHR DUP1 PUSH4 0x9A944FDF GT PUSH2 0xF9 JUMPI DUP1 PUSH4 0xCE8CCEB0 GT PUSH2 0x97 JUMPI DUP1 PUSH4 0xE2BDB880 GT PUSH2 0x71 JUMPI DUP1 PUSH4 0xE2BDB880 EQ PUSH2 0x538 JUMPI DUP1 PUSH4 0xED14D640 EQ PUSH2 0x554 JUMPI DUP1 PUSH4 0xF1E0CB05 EQ PUSH2 0x572 JUMPI DUP1 PUSH4 0xFE43E1F0 EQ PUSH2 0x5A2 JUMPI PUSH2 0x1A9 JUMP JUMPDEST DUP1 PUSH4 0xCE8CCEB0 EQ PUSH2 0x4BC JUMPI DUP1 PUSH4 0xD5538B27 EQ PUSH2 0x4EC JUMPI DUP1 PUSH4 0xDB12B450 EQ PUSH2 0x51C JUMPI PUSH2 0x1A9 JUMP JUMPDEST DUP1 PUSH4 0xA5CD761F GT PUSH2 0xD3 JUMPI DUP1 PUSH4 0xA5CD761F EQ PUSH2 0x424 JUMPI DUP1 PUSH4 0xA92AE38A EQ PUSH2 0x454 JUMPI DUP1 PUSH4 0xB6FECE2D EQ PUSH2 0x470 JUMPI DUP1 PUSH4 0xB7EC93FA EQ PUSH2 0x4A0 JUMPI PUSH2 0x1A9 JUMP JUMPDEST DUP1 PUSH4 0x9A944FDF EQ PUSH2 0x3BC JUMPI DUP1 PUSH4 0xA137D919 EQ PUSH2 0x3D8 JUMPI DUP1 PUSH4 0xA35B3D89 EQ PUSH2 0x408 JUMPI PUSH2 0x1A9 JUMP JUMPDEST DUP1 PUSH4 0x4290482A GT PUSH2 0x166 JUMPI DUP1 PUSH4 0x45149F8D GT PUSH2 0x140 JUMPI DUP1 PUSH4 0x45149F8D EQ PUSH2 0x2FC JUMPI DUP1 PUSH4 0x4DF9DE76 EQ PUSH2 0x32C JUMPI DUP1 PUSH4 0x50B95970 EQ PUSH2 0x35C JUMPI DUP1 PUSH4 0x90E41B6E EQ PUSH2 0x38C JUMPI PUSH2 0x1A9 JUMP JUMPDEST DUP1 PUSH4 0x4290482A EQ PUSH2 0x292 JUMPI DUP1 PUSH4 0x43D67FB2 EQ PUSH2 0x2C2 JUMPI DUP1 PUSH4 0x4401F991 EQ PUSH2 0x2E0 JUMPI PUSH2 0x1A9 JUMP JUMPDEST DUP1 PUSH4 0x16B2E21E EQ PUSH2 0x1AE JUMPI DUP1 PUSH4 0x1B41B476 EQ PUSH2 0x1CA JUMPI DUP1 PUSH4 0x1CAAA487 EQ PUSH2 0x1E6 JUMPI DUP1 PUSH4 0x1D578013 EQ PUSH2 0x216 JUMPI DUP1 PUSH4 0x23EAC4BD EQ PUSH2 0x246 JUMPI DUP1 PUSH4 0x2F08480D EQ PUSH2 0x262 JUMPI JUMPDEST PUSH1 0x0 DUP1 REVERT JUMPDEST PUSH2 0x1C8 PUSH1 0x4 DUP1 CALLDATASIZE SUB DUP2 ADD SWAP1 PUSH2 0x1C3 SWAP2 SWAP1 PUSH2 0x10BB JUMP JUMPDEST PUSH2 0x5D2 JUMP JUMPDEST STOP JUMPDEST PUSH2 0x1E4 PUSH1 0x4 DUP1 CALLDATASIZE SUB DUP2 ADD SWAP1 PUSH2 0x1DF SWAP2 SWAP1 PUSH2 0x1128 JUMP JUMPDEST PUSH2 0x63C JUMP JUMPDEST STOP JUMPDEST PUSH2 0x200 PUSH1 0x4 DUP1 CALLDATASIZE SUB DUP2 ADD SWAP1 PUSH2 0x1FB SWAP2 SWAP1 PUSH2 0x10FB JUMP JUMPDEST PUSH2 0x692 JUMP JUMPDEST PUSH1 0x40 MLOAD PUSH2 0x20D SWAP2 SWAP1 PUSH2 0x129A JUMP JUMPDEST PUSH1 0x40 MLOAD DUP1 SWAP2 SUB SWAP1 RETURN JUMPDEST PUSH2 0x230 PUSH1 0x4 DUP1 CALLDATASIZE SUB DUP2 ADD SWAP1 PUSH2 0x22B SWAP2 SWAP1 PUSH2 0x10FB JUMP JUMPDEST PUSH2 0x6C5 JUMP JUMPDEST PUSH1 0x40 MLOAD PUSH2 0x23D SWAP2 SWAP1 PUSH2 0x12F2 JUMP JUMPDEST PUSH1 0x40 MLOAD DUP1 SWAP2 SUB SWAP1 RETURN JUMPDEST PUSH2 0x260 PUSH1 0x4 DUP1 CALLDATASIZE SUB DUP2 ADD SWAP1 PUSH2 0x25B SWAP2 SWAP1 PUSH2 0x1128 JUMP JUMPDEST PUSH2 0x6DD JUMP JUMPDEST STOP JUMPDEST PUSH2 0x27C PUSH1 0x4 DUP1 CALLDATASIZE SUB DUP2 ADD SWAP1 PUSH2 0x277 SWAP2 SWAP1 PUSH2 0x10BB JUMP JUMPDEST PUSH2 0x732 JUMP JUMPDEST PUSH1 0x40 MLOAD PUSH2 0x289 SWAP2 SWAP1 PUSH2 0x12F2 JUMP JUMPDEST PUSH1 0x40 MLOAD DUP1 SWAP2 SUB SWAP1 RETURN JUMPDEST PUSH2 0x2AC PUSH1 0x4 DUP1 CALLDATASIZE SUB DUP2 ADD SWAP1 PUSH2 0x2A7 SWAP2 SWAP1 PUSH2 0x108E JUMP JUMPDEST PUSH2 0x763 JUMP JUMPDEST PUSH1 0x40 MLOAD PUSH2 0x2B9 SWAP2 SWAP1 PUSH2 0x12B5 JUMP JUMPDEST PUSH1 0x40 MLOAD DUP1 SWAP2 SUB SWAP1 RETURN JUMPDEST PUSH2 0x2CA PUSH2 0x7FA JUMP JUMPDEST PUSH1 0x40 MLOAD PUSH2 0x2D7 SWAP2 SWAP1 PUSH2 0x12B5 JUMP JUMPDEST PUSH1 0x40 MLOAD DUP1 SWAP2 SUB SWAP1 RETURN JUMPDEST PUSH2 0x2FA PUSH1 0x4 DUP1 CALLDATASIZE SUB DUP2 ADD SWAP1 PUSH2 0x2F5 SWAP2 SWAP1 PUSH2 0x10BB JUMP JUMPDEST PUSH2 0x852 JUMP JUMPDEST STOP JUMPDEST PUSH2 0x316 PUSH1 0x4 DUP1 CALLDATASIZE SUB DUP2 ADD SWAP1 PUSH2 0x311 SWAP2 SWAP1 PUSH2 0x10FB JUMP JUMPDEST PUSH2 0xA88 JUMP JUMPDEST PUSH1 0x40 MLOAD PUSH2 0x323 SWAP2 SWAP1 PUSH2 0x12F2 JUMP JUMPDEST PUSH1 0x40 MLOAD DUP1 SWAP2 SUB SWAP1 RETURN JUMPDEST PUSH2 0x346 PUSH1 0x4 DUP1 CALLDATASIZE SUB DUP2 ADD SWAP1 PUSH2 0x341 SWAP2 SWAP1 PUSH2 0x10FB JUMP JUMPDEST PUSH2 0xAA5 JUMP JUMPDEST PUSH1 0x40 MLOAD PUSH2 0x353 SWAP2 SWAP1 PUSH2 0x12D7 JUMP JUMPDEST PUSH1 0x40 MLOAD DUP1 SWAP2 SUB SWAP1 RETURN JUMPDEST PUSH2 0x376 PUSH1 0x4 DUP1 CALLDATASIZE SUB DUP2 ADD SWAP1 PUSH2 0x371 SWAP2 SWAP1 PUSH2 0x10FB JUMP JUMPDEST PUSH2 0xAC5 JUMP JUMPDEST PUSH1 0x40 MLOAD PUSH2 0x383 SWAP2 SWAP1 PUSH2 0x129A JUMP JUMPDEST PUSH1 0x40 MLOAD DUP1 SWAP2 SUB SWAP1 RETURN JUMPDEST PUSH2 0x3A6 PUSH1 0x4 DUP1 CALLDATASIZE SUB DUP2 ADD SWAP1 PUSH2 0x3A1 SWAP2 SWAP1 PUSH2 0x108E JUMP JUMPDEST PUSH2 0xB02 JUMP JUMPDEST PUSH1 0x40 MLOAD PUSH2 0x3B3 SWAP2 SWAP1 PUSH2 0x12B5 JUMP JUMPDEST PUSH1 0x40 MLOAD DUP1 SWAP2 SUB SWAP1 RETURN JUMPDEST PUSH2 0x3D6 PUSH1 0x4 DUP1 CALLDATASIZE SUB DUP2 ADD SWAP1 PUSH2 0x3D1 SWAP2 SWAP1 PUSH2 0x10FB JUMP JUMPDEST PUSH2 0xB99 JUMP JUMPDEST STOP JUMPDEST PUSH2 0x3F2 PUSH1 0x4 DUP1 CALLDATASIZE SUB DUP2 ADD SWAP1 PUSH2 0x3ED SWAP2 SWAP1 PUSH2 0x10FB JUMP JUMPDEST PUSH2 0xBC5 JUMP JUMPDEST PUSH1 0x40 MLOAD PUSH2 0x3FF SWAP2 SWAP1 PUSH2 0x12D7 JUMP JUMPDEST PUSH1 0x40 MLOAD DUP1 SWAP2 SUB SWAP1 RETURN JUMPDEST PUSH2 0x422 PUSH1 0x4 DUP1 CALLDATASIZE SUB DUP2 ADD SWAP1 PUSH2 0x41D SWAP2 SWAP1 PUSH2 0x1168 JUMP JUMPDEST PUSH2 0xBE5 JUMP JUMPDEST STOP JUMPDEST PUSH2 0x43E PUSH1 0x4 DUP1 CALLDATASIZE SUB DUP2 ADD SWAP1 PUSH2 0x439 SWAP2 SWAP1 PUSH2 0x10FB JUMP JUMPDEST PUSH2 0xC14 JUMP JUMPDEST PUSH1 0x40 MLOAD PUSH2 0x44B SWAP2 SWAP1 PUSH2 0x129A JUMP JUMPDEST PUSH1 0x40 MLOAD DUP1 SWAP2 SUB SWAP1 RETURN JUMPDEST PUSH2 0x46E PUSH1 0x4 DUP1 CALLDATASIZE SUB DUP2 ADD SWAP1 PUSH2 0x469 SWAP2 SWAP1 PUSH2 0x10BB JUMP JUMPDEST PUSH2 0xC50 JUMP JUMPDEST STOP JUMPDEST PUSH2 0x48A PUSH1 0x4 DUP1 CALLDATASIZE SUB DUP2 ADD SWAP1 PUSH2 0x485 SWAP2 SWAP1 PUSH2 0x10FB JUMP JUMPDEST PUSH2 0xCBA JUMP JUMPDEST PUSH1 0x40 MLOAD PUSH2 0x497 SWAP2 SWAP1 PUSH2 0x12D7 JUMP JUMPDEST PUSH1 0x40 MLOAD DUP1 SWAP2 SUB SWAP1 RETURN JUMPDEST PUSH2 0x4BA PUSH1 0x4 DUP1 CALLDATASIZE SUB DUP2 ADD SWAP1 PUSH2 0x4B5 SWAP2 SWAP1 PUSH2 0x1168 JUMP JUMPDEST PUSH2 0xCE4 JUMP JUMPDEST STOP JUMPDEST PUSH2 0x4D6 PUSH1 0x4 DUP1 CALLDATASIZE SUB DUP2 ADD SWAP1 PUSH2 0x4D1 SWAP2 SWAP1 PUSH2 0x10FB JUMP JUMPDEST PUSH2 0xD13 JUMP JUMPDEST PUSH1 0x40 MLOAD PUSH2 0x4E3 SWAP2 SWAP1 PUSH2 0x12D7 JUMP JUMPDEST PUSH1 0x40 MLOAD DUP1 SWAP2 SUB SWAP1 RETURN JUMPDEST PUSH2 0x506 PUSH1 0x4 DUP1 CALLDATASIZE SUB DUP2 ADD SWAP1 PUSH2 0x501 SWAP2 SWAP1 PUSH2 0x10BB JUMP JUMPDEST PUSH2 0xD3D JUMP JUMPDEST PUSH1 0x40 MLOAD PUSH2 0x513 SWAP2 SWAP1 PUSH2 0x12F2 JUMP JUMPDEST PUSH1 0x40 MLOAD DUP1 SWAP2 SUB SWAP1 RETURN JUMPDEST PUSH2 0x536 PUSH1 0x4 DUP1 CALLDATASIZE SUB DUP2 ADD SWAP1 PUSH2 0x531 SWAP2 SWAP1 PUSH2 0x10BB JUMP JUMPDEST PUSH2 0xD6E JUMP JUMPDEST STOP JUMPDEST PUSH2 0x552 PUSH1 0x4 DUP1 CALLDATASIZE SUB DUP2 ADD SWAP1 PUSH2 0x54D SWAP2 SWAP1 PUSH2 0x11A8 JUMP JUMPDEST PUSH2 0xFA5 JUMP JUMPDEST STOP JUMPDEST PUSH2 0x55C PUSH2 0xFC1 JUMP JUMPDEST PUSH1 0x40 MLOAD PUSH2 0x569 SWAP2 SWAP1 PUSH2 0x12F2 JUMP JUMPDEST PUSH1 0x40 MLOAD DUP1 SWAP2 SUB SWAP1 RETURN JUMPDEST PUSH2 0x58C PUSH1 0x4 DUP1 CALLDATASIZE SUB DUP2 ADD SWAP1 PUSH2 0x587 SWAP2 SWAP1 PUSH2 0x10FB JUMP JUMPDEST PUSH2 0xFF8 JUMP JUMPDEST PUSH1 0x40 MLOAD PUSH2 0x599 SWAP2 SWAP1 PUSH2 0x12F2 JUMP JUMPDEST PUSH1 0x40 MLOAD DUP1 SWAP2 SUB SWAP1 RETURN JUMPDEST PUSH2 0x5BC PUSH1 0x4 DUP1 CALLDATASIZE SUB DUP2 ADD SWAP1 PUSH2 0x5B7 SWAP2 SWAP1 PUSH2 0x10FB JUMP JUMPDEST PUSH2 0x101C JUMP JUMPDEST PUSH1 0x40 MLOAD PUSH2 0x5C9 SWAP2 SWAP1 PUSH2 0x129A JUMP JUMPDEST PUSH1 0x40 MLOAD DUP1 SWAP2 SUB SWAP1 RETURN JUMPDEST PUSH1 0x7 PUSH1 0x0 DUP4 PUSH20 0xFFFFFFFFFFFFFFFFFFFFFFFFFFFFFFFFFFFFFFFF AND PUSH20 0xFFFFFFFFFFFFFFFFFFFFFFFFFFFFFFFFFFFFFFFF AND DUP2 MSTORE PUSH1 0x20 ADD SWAP1 DUP2 MSTORE PUSH1 0x20 ADD PUSH1 0x0 KECCAK256 DUP2 SWAP1 DUP1 PUSH1 0x1 DUP2 SLOAD ADD DUP1 DUP3 SSTORE DUP1 SWAP2 POP POP PUSH1 0x1 SWAP1 SUB SWAP1 PUSH1 0x0 MSTORE PUSH1 0x20 PUSH1 0x0 KECCAK256 ADD PUSH1 0x0 SWAP1 SWAP2 SWAP1 SWAP2 SWAP1 SWAP2 POP SSTORE POP POP JUMP JUMPDEST DUP1 PUSH1 0x3 PUSH1 0x0 DUP5 DUP2 MSTORE PUSH1 0x20 ADD SWAP1 DUP2 MSTORE PUSH1 0x20 ADD PUSH1 0x0 KECCAK256 PUSH1 0x0 PUSH2 0x100 EXP DUP2 SLOAD DUP2 PUSH20 0xFFFFFFFFFFFFFFFFFFFFFFFFFFFFFFFFFFFFFFFF MUL NOT AND SWAP1 DUP4 PUSH20 0xFFFFFFFFFFFFFFFFFFFFFFFFFFFFFFFFFFFFFFFF AND MUL OR SWAP1 SSTORE POP POP POP JUMP JUMPDEST PUSH1 0x0 PUSH1 0x20 MSTORE DUP1 PUSH1 0x0 MSTORE PUSH1 0x40 PUSH1 0x0 KECCAK256 PUSH1 0x0 SWAP2 POP SLOAD SWAP1 PUSH2 0x100 EXP SWAP1 DIV PUSH20 0xFFFFFFFFFFFFFFFFFFFFFFFFFFFFFFFFFFFFFFFF AND DUP2 JUMP JUMPDEST PUSH1 0x4 PUSH1 0x20 MSTORE DUP1 PUSH1 0x0 MSTORE PUSH1 0x40 PUSH1 0x0 KECCAK256 PUSH1 0x0 SWAP2 POP SWAP1 POP SLOAD DUP2 JUMP JUMPDEST DUP1 PUSH1 0x0 DUP1 DUP5 DUP2 MSTORE PUSH1 0x20 ADD SWAP1 DUP2 MSTORE PUSH1 0x20 ADD PUSH1 0x0 KECCAK256 PUSH1 0x0 PUSH2 0x100 EXP DUP2 SLOAD DUP2 PUSH20 0xFFFFFFFFFFFFFFFFFFFFFFFFFFFFFFFFFFFFFFFF MUL NOT AND SWAP1 DUP4 PUSH20 0xFFFFFFFFFFFFFFFFFFFFFFFFFFFFFFFFFFFFFFFF AND MUL OR SWAP1 SSTORE POP POP POP JUMP JUMPDEST PUSH1 0x1 PUSH1 0x20 MSTORE DUP2 PUSH1 0x0 MSTORE PUSH1 0x40 PUSH1 0x0 KECCAK256 DUP2 DUP2 SLOAD DUP2 LT PUSH2 0x74E JUMPI PUSH1 0x0 DUP1 REVERT JUMPDEST SWAP1 PUSH1 0x0 MSTORE PUSH1 0x20 PUSH1 0x0 KECCAK256 ADD PUSH1 0x0 SWAP2 POP SWAP2 POP POP SLOAD DUP2 JUMP JUMPDEST PUSH1 0x60 PUSH1 0x7 PUSH1 0x0 DUP4 PUSH20 0xFFFFFFFFFFFFFFFFFFFFFFFFFFFFFFFFFFFFFFFF AND PUSH20 0xFFFFFFFFFFFFFFFFFFFFFFFFFFFFFFFFFFFFFFFF AND DUP2 MSTORE PUSH1 0x20 ADD SWAP1 DUP2 MSTORE PUSH1 0x20 ADD PUSH1 0x0 KECCAK256 DUP1 SLOAD DUP1 PUSH1 0x20 MUL PUSH1 0x20 ADD PUSH1 0x40 MLOAD SWAP1 DUP2 ADD PUSH1 0x40 MSTORE DUP1 SWAP3 SWAP2 SWAP1 DUP2 DUP2 MSTORE PUSH1 0x20 ADD DUP3 DUP1 SLOAD DUP1 ISZERO PUSH2 0x7EE JUMPI PUSH1 0x20 MUL DUP3 ADD SWAP2 SWAP1 PUSH1 0x0 MSTORE PUSH1 0x20 PUSH1 0x0 KECCAK256 SWAP1 JUMPDEST DUP2 SLOAD DUP2 MSTORE PUSH1 0x20 ADD SWAP1 PUSH1 0x1 ADD SWAP1 DUP1 DUP4 GT PUSH2 0x7DA JUMPI JUMPDEST POP POP POP POP POP SWAP1 POP SWAP2 SWAP1 POP JUMP JUMPDEST PUSH1 0x60 PUSH1 0x2 DUP1 SLOAD DUP1 PUSH1 0x20 MUL PUSH1 0x20 ADD PUSH1 0x40 MLOAD SWAP1 DUP2 ADD PUSH1 0x40 MSTORE DUP1 SWAP3 SWAP2 SWAP1 DUP2 DUP2 MSTORE PUSH1 0x20 ADD DUP3 DUP1 SLOAD DUP1 ISZERO PUSH2 0x848 JUMPI PUSH1 0x20 MUL DUP3 ADD SWAP2 SWAP1 PUSH1 0x0 MSTORE PUSH1 0x20 PUSH1 0x0 KECCAK256 SWAP1 JUMPDEST DUP2 SLOAD DUP2 MSTORE PUSH1 0x20 ADD SWAP1 PUSH1 0x1 ADD SWAP1 DUP1 DUP4 GT PUSH2 0x834 JUMPI JUMPDEST POP POP POP POP POP SWAP1 POP SWAP1 JUMP JUMPDEST PUSH1 0x0 JUMPDEST PUSH1 0x1 PUSH1 0x0 DUP5 PUSH20 0xFFFFFFFFFFFFFFFFFFFFFFFFFFFFFFFFFFFFFFFF AND PUSH20 0xFFFFFFFFFFFFFFFFFFFFFFFFFFFFFFFFFFFFFFFF AND DUP2 MSTORE PUSH1 0x20 ADD SWAP1 DUP2 MSTORE PUSH1 0x20 ADD PUSH1 0x0 KECCAK256 DUP1 SLOAD SWAP1 POP DUP2 LT ISZERO PUSH2 0xA83 JUMPI DUP2 PUSH1 0x1 PUSH1 0x0 DUP6 PUSH20 0xFFFFFFFFFFFFFFFFFFFFFFFFFFFFFFFFFFFFFFFF AND PUSH20 0xFFFFFFFFFFFFFFFFFFFFFFFFFFFFFFFFFFFFFFFF AND DUP2 MSTORE PUSH1 0x20 ADD SWAP1 DUP2 MSTORE PUSH1 0x20 ADD PUSH1 0x0 KECCAK256 DUP3 DUP2 SLOAD DUP2 LT PUSH2 0x8F1 JUMPI PUSH2 0x8F0 PUSH2 0x1469 JUMP JUMPDEST JUMPDEST SWAP1 PUSH1 0x0 MSTORE PUSH1 0x20 PUSH1 0x0 KECCAK256 ADD SLOAD EQ ISZERO PUSH2 0xA0B JUMPI PUSH1 0x1 PUSH1 0x0 DUP5 PUSH20 0xFFFFFFFFFFFFFFFFFFFFFFFFFFFFFFFFFFFFFFFF AND PUSH20 0xFFFFFFFFFFFFFFFFFFFFFFFFFFFFFFFFFFFFFFFF AND DUP2 MSTORE PUSH1 0x20 ADD SWAP1 DUP2 MSTORE PUSH1 0x20 ADD PUSH1 0x0 KECCAK256 PUSH1 0x1 DUP1 PUSH1 0x0 DUP7 PUSH20 0xFFFFFFFFFFFFFFFFFFFFFFFFFFFFFFFFFFFFFFFF AND PUSH20 0xFFFFFFFFFFFFFFFFFFFFFFFFFFFFFFFFFFFFFFFF AND DUP2 MSTORE PUSH1 0x20 ADD SWAP1 DUP2 MSTORE PUSH1 0x20 ADD PUSH1 0x0 KECCAK256 DUP1 SLOAD SWAP1 POP PUSH2 0x98F SWAP2 SWAP1 PUSH2 0x1346 JUMP JUMPDEST DUP2 SLOAD DUP2 LT PUSH2 0x9A0 JUMPI PUSH2 0x99F PUSH2 0x1469 JUMP JUMPDEST JUMPDEST SWAP1 PUSH1 0x0 MSTORE PUSH1 0x20 PUSH1 0x0 KECCAK256 ADD SLOAD PUSH1 0x1 PUSH1 0x0 DUP6 PUSH20 0xFFFFFFFFFFFFFFFFFFFFFFFFFFFFFFFFFFFFFFFF AND PUSH20 0xFFFFFFFFFFFFFFFFFFFFFFFFFFFFFFFFFFFFFFFF AND DUP2 MSTORE PUSH1 0x20 ADD SWAP1 DUP2 MSTORE PUSH1 0x20 ADD PUSH1 0x0 KECCAK256 DUP3 DUP2 SLOAD DUP2 LT PUSH2 0x9FC JUMPI PUSH2 0x9FB PUSH2 0x1469 JUMP JUMPDEST JUMPDEST SWAP1 PUSH1 0x0 MSTORE PUSH1 0x20 PUSH1 0x0 KECCAK256 ADD DUP2 SWAP1 SSTORE POP JUMPDEST PUSH1 0x1 PUSH1 0x0 DUP5 PUSH20 0xFFFFFFFFFFFFFFFFFFFFFFFFFFFFFFFFFFFFFFFF AND PUSH20 0xFFFFFFFFFFFFFFFFFFFFFFFFFFFFFFFFFFFFFFFF AND DUP2 MSTORE PUSH1 0x20 ADD SWAP1 DUP2 MSTORE PUSH1 0x20 ADD PUSH1 0x0 KECCAK256 DUP1 SLOAD DUP1 PUSH2 0xA5A JUMPI PUSH2 0xA59 PUSH2 0x143A JUMP JUMPDEST JUMPDEST PUSH1 0x1 SWAP1 SUB DUP2 DUP2 SWAP1 PUSH1 0x0 MSTORE PUSH1 0x20 PUSH1 0x0 KECCAK256 ADD PUSH1 0x0 SWAP1 SSTORE SWAP1 SSTORE DUP1 DUP1 PUSH2 0xA7B SWAP1 PUSH2 0x13C2 JUMP JUMPDEST SWAP2 POP POP PUSH2 0x855 JUMP JUMPDEST POP POP POP JUMP JUMPDEST PUSH1 0x0 PUSH1 0x4 PUSH1 0x0 DUP4 DUP2 MSTORE PUSH1 0x20 ADD SWAP1 DUP2 MSTORE PUSH1 0x20 ADD PUSH1 0x0 KECCAK256 SLOAD SWAP1 POP SWAP2 SWAP1 POP JUMP JUMPDEST PUSH1 0x5 PUSH1 0x20 MSTORE DUP1 PUSH1 0x0 MSTORE PUSH1 0x40 PUSH1 0x0 KECCAK256 PUSH1 0x0 SWAP2 POP SLOAD SWAP1 PUSH2 0x100 EXP SWAP1 DIV PUSH1 0xFF AND DUP2 JUMP JUMPDEST PUSH1 0x0 PUSH1 0x3 PUSH1 0x0 DUP4 DUP2 MSTORE PUSH1 0x20 ADD SWAP1 DUP2 MSTORE PUSH1 0x20 ADD PUSH1 0x0 KECCAK256 PUSH1 0x0 SWAP1 SLOAD SWAP1 PUSH2 0x100 EXP SWAP1 DIV PUSH20 0xFFFFFFFFFFFFFFFFFFFFFFFFFFFFFFFFFFFFFFFF AND SWAP1 POP SWAP2 SWAP1 POP JUMP JUMPDEST PUSH1 0x60 PUSH1 0x1 PUSH1 0x0 DUP4 PUSH20 0xFFFFFFFFFFFFFFFFFFFFFFFFFFFFFFFFFFFFFFFF AND PUSH20 0xFFFFFFFFFFFFFFFFFFFFFFFFFFFFFFFFFFFFFFFF AND DUP2 MSTORE PUSH1 0x20 ADD SWAP1 DUP2 MSTORE PUSH1 0x20 ADD PUSH1 0x0 KECCAK256 DUP1 SLOAD DUP1 PUSH1 0x20 MUL PUSH1 0x20 ADD PUSH1 0x40 MLOAD SWAP1 DUP2 ADD PUSH1 0x40 MSTORE DUP1 SWAP3 SWAP2 SWAP1 DUP2 DUP2 MSTORE PUSH1 0x20 ADD DUP3 DUP1 SLOAD DUP1 ISZERO PUSH2 0xB8D JUMPI PUSH1 0x20 MUL DUP3 ADD SWAP2 SWAP1 PUSH1 0x0 MSTORE PUSH1 0x20 PUSH1 0x0 KECCAK256 SWAP1 JUMPDEST DUP2 SLOAD DUP2 MSTORE PUSH1 0x20 ADD SWAP1 PUSH1 0x1 ADD SWAP1 DUP1 DUP4 GT PUSH2 0xB79 JUMPI JUMPDEST POP POP POP POP POP SWAP1 POP SWAP2 SWAP1 POP JUMP JUMPDEST PUSH1 0x2 DUP2 SWAP1 DUP1 PUSH1 0x1 DUP2 SLOAD ADD DUP1 DUP3 SSTORE DUP1 SWAP2 POP POP PUSH1 0x1 SWAP1 SUB SWAP1 PUSH1 0x0 MSTORE PUSH1 0x20 PUSH1 0x0 KECCAK256 ADD PUSH1 0x0 SWAP1 SWAP2 SWAP1 SWAP2 SWAP1 SWAP2 POP SSTORE POP JUMP JUMPDEST PUSH1 0x6 PUSH1 0x20 MSTORE DUP1 PUSH1 0x0 MSTORE PUSH1 0x40 PUSH1 0x0 KECCAK256 PUSH1 0x0 SWAP2 POP SLOAD SWAP1 PUSH2 0x100 EXP SWAP1 DIV PUSH1 0xFF AND DUP2 JUMP JUMPDEST DUP1 PUSH1 0x5 PUSH1 0x0 DUP5 DUP2 MSTORE PUSH1 0x20 ADD SWAP1 DUP2 MSTORE PUSH1 0x20 ADD PUSH1 0x0 KECCAK256 PUSH1 0x0 PUSH2 0x100 EXP DUP2 SLOAD DUP2 PUSH1 0xFF MUL NOT AND SWAP1 DUP4 ISZERO ISZERO MUL OR SWAP1 SSTORE POP POP POP JUMP JUMPDEST PUSH1 0x0 DUP1 PUSH1 0x0 DUP4 DUP2 MSTORE PUSH1 0x20 ADD SWAP1 DUP2 MSTORE PUSH1 0x20 ADD PUSH1 0x0 KECCAK256 PUSH1 0x0 SWAP1 SLOAD SWAP1 PUSH2 0x100 EXP SWAP1 DIV PUSH20 0xFFFFFFFFFFFFFFFFFFFFFFFFFFFFFFFFFFFFFFFF AND SWAP1 POP SWAP2 SWAP1 POP JUMP JUMPDEST PUSH1 0x1 PUSH1 0x0 DUP4 PUSH20 0xFFFFFFFFFFFFFFFFFFFFFFFFFFFFFFFFFFFFFFFF AND PUSH20 0xFFFFFFFFFFFFFFFFFFFFFFFFFFFFFFFFFFFFFFFF AND DUP2 MSTORE PUSH1 0x20 ADD SWAP1 DUP2 MSTORE PUSH1 0x20 ADD PUSH1 0x0 KECCAK256 DUP2 SWAP1 DUP1 PUSH1 0x1 DUP2 SLOAD ADD DUP1 DUP3 SSTORE DUP1 SWAP2 POP POP PUSH1 0x1 SWAP1 SUB SWAP1 PUSH1 0x0 MSTORE PUSH1 0x20 PUSH1 0x0 KECCAK256 ADD PUSH1 0x0 SWAP1 SWAP2 SWAP1 SWAP2 SWAP1 SWAP2 POP SSTORE POP POP JUMP JUMPDEST PUSH1 0x0 PUSH1 0x5 PUSH1 0x0 DUP4 DUP2 MSTORE PUSH1 0x20 ADD SWAP1 DUP2 MSTORE PUSH1 0x20 ADD PUSH1 0x0 KECCAK256 PUSH1 0x0 SWAP1 SLOAD SWAP1 PUSH2 0x100 EXP SWAP1 DIV PUSH1 0xFF AND SWAP1 POP SWAP2 SWAP1 POP JUMP JUMPDEST DUP1 PUSH1 0x6 PUSH1 0x0 DUP5 DUP2 MSTORE PUSH1 0x20 ADD SWAP1 DUP2 MSTORE PUSH1 0x20 ADD PUSH1 0x0 KECCAK256 PUSH1 0x0 PUSH2 0x100 EXP DUP2 SLOAD DUP2 PUSH1 0xFF MUL NOT AND SWAP1 DUP4 ISZERO ISZERO MUL OR SWAP1 SSTORE POP POP POP JUMP JUMPDEST PUSH1 0x0 PUSH1 0x6 PUSH1 0x0 DUP4 DUP2 MSTORE PUSH1 0x20 ADD SWAP1 DUP2 MSTORE PUSH1 0x20 ADD PUSH1 0x0 KECCAK256 PUSH1 0x0 SWAP1 SLOAD SWAP1 PUSH2 0x100 EXP SWAP1 DIV PUSH1 0xFF AND SWAP1 POP SWAP2 SWAP1 POP JUMP JUMPDEST PUSH1 0x7 PUSH1 0x20 MSTORE DUP2 PUSH1 0x0 MSTORE PUSH1 0x40 PUSH1 0x0 KECCAK256 DUP2 DUP2 SLOAD DUP2 LT PUSH2 0xD59 JUMPI PUSH1 0x0 DUP1 REVERT JUMPDEST SWAP1 PUSH1 0x0 MSTORE PUSH1 0x20 PUSH1 0x0 KECCAK256 ADD PUSH1 0x0 SWAP2 POP SWAP2 POP POP SLOAD DUP2 JUMP JUMPDEST PUSH1 0x0 JUMPDEST PUSH1 0x7 PUSH1 0x0 DUP5 PUSH20 0xFFFFFFFFFFFFFFFFFFFFFFFFFFFFFFFFFFFFFFFF AND PUSH20 0xFFFFFFFFFFFFFFFFFFFFFFFFFFFFFFFFFFFFFFFF AND DUP2 MSTORE PUSH1 0x20 ADD SWAP1 DUP2 MSTORE PUSH1 0x20 ADD PUSH1 0x0 KECCAK256 DUP1 SLOAD SWAP1 POP DUP2 LT ISZERO PUSH2 0xFA0 JUMPI DUP2 PUSH1 0x7 PUSH1 0x0 DUP6 PUSH20 0xFFFFFFFFFFFFFFFFFFFFFFFFFFFFFFFFFFFFFFFF AND PUSH20 0xFFFFFFFFFFFFFFFFFFFFFFFFFFFFFFFFFFFFFFFF AND DUP2 MSTORE PUSH1 0x20 ADD SWAP1 DUP2 MSTORE PUSH1 0x20 ADD PUSH1 0x0 KECCAK256 DUP3 DUP2 SLOAD DUP2 LT PUSH2 0xE0D JUMPI PUSH2 0xE0C PUSH2 0x1469 JUMP JUMPDEST JUMPDEST SWAP1 PUSH1 0x0 MSTORE PUSH1 0x20 PUSH1 0x0 KECCAK256 ADD SLOAD EQ ISZERO PUSH2 0xF8D JUMPI PUSH1 0x7 PUSH1 0x0 DUP5 PUSH20 0xFFFFFFFFFFFFFFFFFFFFFFFFFFFFFFFFFFFFFFFF AND PUSH20 0xFFFFFFFFFFFFFFFFFFFFFFFFFFFFFFFFFFFFFFFF AND DUP2 MSTORE PUSH1 0x20 ADD SWAP1 DUP2 MSTORE PUSH1 0x20 ADD PUSH1 0x0 KECCAK256 PUSH1 0x1 PUSH1 0x7 PUSH1 0x0 DUP7 PUSH20 0xFFFFFFFFFFFFFFFFFFFFFFFFFFFFFFFFFFFFFFFF AND PUSH20 0xFFFFFFFFFFFFFFFFFFFFFFFFFFFFFFFFFFFFFFFF AND DUP2 MSTORE PUSH1 0x20 ADD SWAP1 DUP2 MSTORE PUSH1 0x20 ADD PUSH1 0x0 KECCAK256 DUP1 SLOAD SWAP1 POP PUSH2 0xEAC SWAP2 SWAP1 PUSH2 0x1346 JUMP JUMPDEST DUP2 SLOAD DUP2 LT PUSH2 0xEBD JUMPI PUSH2 0xEBC PUSH2 0x1469 JUMP JUMPDEST JUMPDEST SWAP1 PUSH1 0x0 MSTORE PUSH1 0x20 PUSH1 0x0 KECCAK256 ADD SLOAD PUSH1 0x7 PUSH1 0x0 DUP6 PUSH20 0xFFFFFFFFFFFFFFFFFFFFFFFFFFFFFFFFFFFFFFFF AND PUSH20 0xFFFFFFFFFFFFFFFFFFFFFFFFFFFFFFFFFFFFFFFF AND DUP2 MSTORE PUSH1 0x20 ADD SWAP1 DUP2 MSTORE PUSH1 0x20 ADD PUSH1 0x0 KECCAK256 DUP3 DUP2 SLOAD DUP2 LT PUSH2 0xF19 JUMPI PUSH2 0xF18 PUSH2 0x1469 JUMP JUMPDEST JUMPDEST SWAP1 PUSH1 0x0 MSTORE PUSH1 0x20 PUSH1 0x0 KECCAK256 ADD DUP2 SWAP1 SSTORE POP PUSH1 0x7 PUSH1 0x0 DUP5 PUSH20 0xFFFFFFFFFFFFFFFFFFFFFFFFFFFFFFFFFFFFFFFF AND PUSH20 0xFFFFFFFFFFFFFFFFFFFFFFFFFFFFFFFFFFFFFFFF AND DUP2 MSTORE PUSH1 0x20 ADD SWAP1 DUP2 MSTORE PUSH1 0x20 ADD PUSH1 0x0 KECCAK256 DUP1 SLOAD DUP1 PUSH2 0xF76 JUMPI PUSH2 0xF75 PUSH2 0x143A JUMP JUMPDEST JUMPDEST PUSH1 0x1 SWAP1 SUB DUP2 DUP2 SWAP1 PUSH1 0x0 MSTORE PUSH1 0x20 PUSH1 0x0 KECCAK256 ADD PUSH1 0x0 SWAP1 SSTORE SWAP1 SSTORE JUMPDEST DUP1 DUP1 PUSH2 0xF98 SWAP1 PUSH2 0x13C2 JUMP JUMPDEST SWAP2 POP POP PUSH2 0xD71 JUMP JUMPDEST POP POP POP JUMP JUMPDEST DUP1 PUSH1 0x4 PUSH1 0x0 DUP5 DUP2 MSTORE PUSH1 0x20 ADD SWAP1 DUP2 MSTORE PUSH1 0x20 ADD PUSH1 0x0 KECCAK256 DUP2 SWAP1 SSTORE POP POP POP JUMP JUMPDEST PUSH1 0x0 PUSH1 0x2 PUSH1 0x1 PUSH1 0x2 DUP1 SLOAD SWAP1 POP PUSH2 0xFD7 SWAP2 SWAP1 PUSH2 0x1346 JUMP JUMPDEST DUP2 SLOAD DUP2 LT PUSH2 0xFE8 JUMPI PUSH2 0xFE7 PUSH2 0x1469 JUMP JUMPDEST JUMPDEST SWAP1 PUSH1 0x0 MSTORE PUSH1 0x20 PUSH1 0x0 KECCAK256 ADD SLOAD SWAP1 POP SWAP1 JUMP JUMPDEST PUSH1 0x2 DUP2 DUP2 SLOAD DUP2 LT PUSH2 0x1008 JUMPI PUSH1 0x0 DUP1 REVERT JUMPDEST SWAP1 PUSH1 0x0 MSTORE PUSH1 0x20 PUSH1 0x0 KECCAK256 ADD PUSH1 0x0 SWAP2 POP SWAP1 POP SLOAD DUP2 JUMP JUMPDEST PUSH1 0x3 PUSH1 0x20 MSTORE DUP1 PUSH1 0x0 MSTORE PUSH1 0x40 PUSH1 0x0 KECCAK256 PUSH1 0x0 SWAP2 POP SLOAD SWAP1 PUSH2 0x100 EXP SWAP1 DIV PUSH20 0xFFFFFFFFFFFFFFFFFFFFFFFFFFFFFFFFFFFFFFFF AND DUP2 JUMP JUMPDEST PUSH1 0x0 DUP2 CALLDATALOAD SWAP1 POP PUSH2 0x105E DUP2 PUSH2 0x149D JUMP JUMPDEST SWAP3 SWAP2 POP POP JUMP JUMPDEST PUSH1 0x0 DUP2 CALLDATALOAD SWAP1 POP PUSH2 0x1073 DUP2 PUSH2 0x14B4 JUMP JUMPDEST SWAP3 SWAP2 POP POP JUMP JUMPDEST PUSH1 0x0 DUP2 CALLDATALOAD SWAP1 POP PUSH2 0x1088 DUP2 PUSH2 0x14CB JUMP JUMPDEST SWAP3 SWAP2 POP POP JUMP JUMPDEST PUSH1 0x0 PUSH1 0x20 DUP3 DUP5 SUB SLT ISZERO PUSH2 0x10A4 JUMPI PUSH2 0x10A3 PUSH2 0x1498 JUMP JUMPDEST JUMPDEST PUSH1 0x0 PUSH2 0x10B2 DUP5 DUP3 DUP6 ADD PUSH2 0x104F JUMP JUMPDEST SWAP2 POP POP SWAP3 SWAP2 POP POP JUMP JUMPDEST PUSH1 0x0 DUP1 PUSH1 0x40 DUP4 DUP6 SUB SLT ISZERO PUSH2 0x10D2 JUMPI PUSH2 0x10D1 PUSH2 0x1498 JUMP JUMPDEST JUMPDEST PUSH1 0x0 PUSH2 0x10E0 DUP6 DUP3 DUP7 ADD PUSH2 0x104F JUMP JUMPDEST SWAP3 POP POP PUSH1 0x20 PUSH2 0x10F1 DUP6 DUP3 DUP7 ADD PUSH2 0x1079 JUMP JUMPDEST SWAP2 POP POP SWAP3 POP SWAP3 SWAP1 POP JUMP JUMPDEST PUSH1 0x0 PUSH1 0x20 DUP3 DUP5 SUB SLT ISZERO PUSH2 0x1111 JUMPI PUSH2 0x1110 PUSH2 0x1498 JUMP JUMPDEST JUMPDEST PUSH1 0x0 PUSH2 0x111F DUP5 DUP3 DUP6 ADD PUSH2 0x1079 JUMP JUMPDEST SWAP2 POP POP SWAP3 SWAP2 POP POP JUMP JUMPDEST PUSH1 0x0 DUP1 PUSH1 0x40 DUP4 DUP6 SUB SLT ISZERO PUSH2 0x113F JUMPI PUSH2 0x113E PUSH2 0x1498 JUMP JUMPDEST JUMPDEST PUSH1 0x0 PUSH2 0x114D DUP6 DUP3 DUP7 ADD PUSH2 0x1079 JUMP JUMPDEST SWAP3 POP POP PUSH1 0x20 PUSH2 0x115E DUP6 DUP3 DUP7 ADD PUSH2 0x104F JUMP JUMPDEST SWAP2 POP POP SWAP3 POP SWAP3 SWAP1 POP JUMP JUMPDEST PUSH1 0x0 DUP1 PUSH1 0x40 DUP4 DUP6 SUB SLT ISZERO PUSH2 0x117F JUMPI PUSH2 0x117E PUSH2 0x1498 JUMP JUMPDEST JUMPDEST PUSH1 0x0 PUSH2 0x118D DUP6 DUP3 DUP7 ADD PUSH2 0x1079 JUMP JUMPDEST SWAP3 POP POP PUSH1 0x20 PUSH2 0x119E DUP6 DUP3 DUP7 ADD PUSH2 0x1064 JUMP JUMPDEST SWAP2 POP POP SWAP3 POP SWAP3 SWAP1 POP JUMP JUMPDEST PUSH1 0x0 DUP1 PUSH1 0x40 DUP4 DUP6 SUB SLT ISZERO PUSH2 0x11BF JUMPI PUSH2 0x11BE PUSH2 0x1498 JUMP JUMPDEST JUMPDEST PUSH1 0x0 PUSH2 0x11CD DUP6 DUP3 DUP7 ADD PUSH2 0x1079 JUMP JUMPDEST SWAP3 POP POP PUSH1 0x20 PUSH2 0x11DE DUP6 DUP3 DUP7 ADD PUSH2 0x1079 JUMP JUMPDEST SWAP2 POP POP SWAP3 POP SWAP3 SWAP1 POP JUMP JUMPDEST PUSH1 0x0 PUSH2 0x11F4 DUP4 DUP4 PUSH2 0x127C JUMP JUMPDEST PUSH1 0x20 DUP4 ADD SWAP1 POP SWAP3 SWAP2 POP POP JUMP JUMPDEST PUSH2 0x1209 DUP2 PUSH2 0x137A JUMP JUMPDEST DUP3 MSTORE POP POP JUMP JUMPDEST PUSH1 0x0 PUSH2 0x121A DUP3 PUSH2 0x131D JUMP JUMPDEST PUSH2 0x1224 DUP2 DUP6 PUSH2 0x1335 JUMP JUMPDEST SWAP4 POP PUSH2 0x122F DUP4 PUSH2 0x130D JUMP JUMPDEST DUP1 PUSH1 0x0 JUMPDEST DUP4 DUP2 LT ISZERO PUSH2 0x1260 JUMPI DUP2 MLOAD PUSH2 0x1247 DUP9 DUP3 PUSH2 0x11E8 JUMP JUMPDEST SWAP8 POP PUSH2 0x1252 DUP4 PUSH2 0x1328 JUMP JUMPDEST SWAP3 POP POP PUSH1 0x1 DUP2 ADD SWAP1 POP PUSH2 0x1233 JUMP JUMPDEST POP DUP6 SWAP4 POP POP POP POP SWAP3 SWAP2 POP POP JUMP JUMPDEST PUSH2 0x1276 DUP2 PUSH2 0x138C JUMP JUMPDEST DUP3 MSTORE POP POP JUMP JUMPDEST PUSH2 0x1285 DUP2 PUSH2 0x13B8 JUMP JUMPDEST DUP3 MSTORE POP POP JUMP JUMPDEST PUSH2 0x1294 DUP2 PUSH2 0x13B8 JUMP JUMPDEST DUP3 MSTORE POP POP JUMP JUMPDEST PUSH1 0x0 PUSH1 0x20 DUP3 ADD SWAP1 POP PUSH2 0x12AF PUSH1 0x0 DUP4 ADD DUP5 PUSH2 0x1200 JUMP JUMPDEST SWAP3 SWAP2 POP POP JUMP JUMPDEST PUSH1 0x0 PUSH1 0x20 DUP3 ADD SWAP1 POP DUP2 DUP2 SUB PUSH1 0x0 DUP4 ADD MSTORE PUSH2 0x12CF DUP2 DUP5 PUSH2 0x120F JUMP JUMPDEST SWAP1 POP SWAP3 SWAP2 POP POP JUMP JUMPDEST PUSH1 0x0 PUSH1 0x20 DUP3 ADD SWAP1 POP PUSH2 0x12EC PUSH1 0x0 DUP4 ADD DUP5 PUSH2 0x126D JUMP JUMPDEST SWAP3 SWAP2 POP POP JUMP JUMPDEST PUSH1 0x0 PUSH1 0x20 DUP3 ADD SWAP1 POP PUSH2 0x1307 PUSH1 0x0 DUP4 ADD DUP5 PUSH2 0x128B JUMP JUMPDEST SWAP3 SWAP2 POP POP JUMP JUMPDEST PUSH1 0x0 DUP2 SWAP1 POP PUSH1 0x20 DUP3 ADD SWAP1 POP SWAP2 SWAP1 POP JUMP JUMPDEST PUSH1 0x0 DUP2 MLOAD SWAP1 POP SWAP2 SWAP1 POP JUMP JUMPDEST PUSH1 0x0 PUSH1 0x20 DUP3 ADD SWAP1 POP SWAP2 SWAP1 POP JUMP JUMPDEST PUSH1 0x0 DUP3 DUP3 MSTORE PUSH1 0x20 DUP3 ADD SWAP1 POP SWAP3 SWAP2 POP POP JUMP JUMPDEST PUSH1 0x0 PUSH2 0x1351 DUP3 PUSH2 0x13B8 JUMP JUMPDEST SWAP2 POP PUSH2 0x135C DUP4 PUSH2 0x13B8 JUMP JUMPDEST SWAP3 POP DUP3 DUP3 LT ISZERO PUSH2 0x136F JUMPI PUSH2 0x136E PUSH2 0x140B JUMP JUMPDEST JUMPDEST DUP3 DUP3 SUB SWAP1 POP SWAP3 SWAP2 POP POP JUMP JUMPDEST PUSH1 0x0 PUSH2 0x1385 DUP3 PUSH2 0x1398 JUMP JUMPDEST SWAP1 POP SWAP2 SWAP1 POP JUMP JUMPDEST PUSH1 0x0 DUP2 ISZERO ISZERO SWAP1 POP SWAP2 SWAP1 POP JUMP JUMPDEST PUSH1 0x0 PUSH20 0xFFFFFFFFFFFFFFFFFFFFFFFFFFFFFFFFFFFFFFFF DUP3 AND SWAP1 POP SWAP2 SWAP1 POP JUMP JUMPDEST PUSH1 0x0 DUP2 SWAP1 POP SWAP2 SWAP1 POP JUMP JUMPDEST PUSH1 0x0 PUSH2 0x13CD DUP3 PUSH2 0x13B8 JUMP JUMPDEST SWAP2 POP PUSH32 0xFFFFFFFFFFFFFFFFFFFFFFFFFFFFFFFFFFFFFFFFFFFFFFFFFFFFFFFFFFFFFFFF DUP3 EQ ISZERO PUSH2 0x1400 JUMPI PUSH2 0x13FF PUSH2 0x140B JUMP JUMPDEST JUMPDEST PUSH1 0x1 DUP3 ADD SWAP1 POP SWAP2 SWAP1 POP JUMP JUMPDEST PUSH32 0x4E487B7100000000000000000000000000000000000000000000000000000000 PUSH1 0x0 MSTORE PUSH1 0x11 PUSH1 0x4 MSTORE PUSH1 0x24 PUSH1 0x0 REVERT JUMPDEST PUSH32 0x4E487B7100000000000000000000000000000000000000000000000000000000 PUSH1 0x0 MSTORE PUSH1 0x31 PUSH1 0x4 MSTORE PUSH1 0x24 PUSH1 0x0 REVERT JUMPDEST PUSH32 0x4E487B7100000000000000000000000000000000000000000000000000000000 PUSH1 0x0 MSTORE PUSH1 0x32 PUSH1 0x4 MSTORE PUSH1 0x24 PUSH1 0x0 REVERT JUMPDEST PUSH1 0x0 DUP1 REVERT JUMPDEST PUSH2 0x14A6 DUP2 PUSH2 0x137A JUMP JUMPDEST DUP2 EQ PUSH2 0x14B1 JUMPI PUSH1 0x0 DUP1 REVERT JUMPDEST POP JUMP JUMPDEST PUSH2 0x14BD DUP2 PUSH2 0x138C JUMP JUMPDEST DUP2 EQ PUSH2 0x14C8 JUMPI PUSH1 0x0 DUP1 REVERT JUMPDEST POP JUMP JUMPDEST PUSH2 0x14D4 DUP2 PUSH2 0x13B8 JUMP JUMPDEST DUP2 EQ PUSH2 0x14DF JUMPI PUSH1 0x0 DUP1 REVERT JUMPDEST POP JUMP INVALID LOG2 PUSH5 0x6970667358 0x22 SLT KECCAK256 0xDE 0xC2 JUMP EXTCODECOPY DUP15 SWAP11 CALLER CALLVALUE DUP4 EXP 0xAE SWAP2 0xB5 POP LOG2 0xB7 0xBC SWAP16 0xC8 0xF6 0xCB 0xCE GT 0x29 0x28 0xE0 LOG3 PUSH2 0x65AA 0xF8 0xBB PUSH5 0x736F6C6343 STOP ADDMOD SMOD STOP CALLER "
		},
		"gasEstimates": {
			"creation": {
				"codeDepositCost": "1080000",
				"executionCost": "1120",
				"totalCost": "1081120"
			},
			"external": {
				"SellOwnedToken(address,uint256)": "infinite",
				"SellingJol(uint256)": "2863",
				"StakedJolamanType(uint256)": "2864",
				"exceptSellOwnedJolamanType(address,uint256)": "infinite",
				"getExceptSellOwnedJolamanType(address)": "infinite",
				"getJolamanTokenTypeOfOnwer(uint256)": "2954",
				"getLatestJolamanData()": "infinite",
				"getSellingJolTypeToBool(uint256)": "2911",
				"getStakedJolamanType(uint256)": "2867",
				"getTokenOwner(uint256)": "2910",
				"getTotalJolamanData()": "infinite",
				"getTotalOwnedTokens(address)": "infinite",
				"gettypeToId(uint256)": "infinite",
				"jolamanTokenTypeOfOwner(uint256)": "2949",
				"setDeleteExceptSellOwnedJolamanType(address,uint256)": "infinite",
				"setExceptSellOwnedJolamanType(address,uint256)": "47165",
				"setJolamanTokenTypeOfOwner(uint256,address)": "25019",
				"setSellingJolTypeToBool(uint256,bool)": "25020",
				"setStakedJolamanType(uint256,bool)": "25041",
				"setTokenOwner(uint256,address)": "25085",
				"setTotalJolamanData(uint256)": "46875",
				"setTotalOwnedTokens(address,uint256)": "47208",
				"setTypeToId(uint256,uint256)": "infinite",
				"tokenOwner(uint256)": "2907",
				"totalJolamanData(uint256)": "infinite",
				"totalOwnedTokens(address,uint256)": "infinite",
				"typeToId(uint256)": "infinite"
			}
		},
		"methodIdentifiers": {
			"SellOwnedToken(address,uint256)": "4401f991",
			"SellingJol(uint256)": "4df9de76",
			"StakedJolamanType(uint256)": "a137d919",
			"exceptSellOwnedJolamanType(address,uint256)": "d5538b27",
			"getExceptSellOwnedJolamanType(address)": "4290482a",
			"getJolamanTokenTypeOfOnwer(uint256)": "50b95970",
			"getLatestJolamanData()": "ed14d640",
			"getSellingJolTypeToBool(uint256)": "b6fece2d",
			"getStakedJolamanType(uint256)": "ce8cceb0",
			"getTokenOwner(uint256)": "a5cd761f",
			"getTotalJolamanData()": "43d67fb2",
			"getTotalOwnedTokens(address)": "90e41b6e",
			"gettypeToId(uint256)": "45149f8d",
			"jolamanTokenTypeOfOwner(uint256)": "fe43e1f0",
			"setDeleteExceptSellOwnedJolamanType(address,uint256)": "db12b450",
			"setExceptSellOwnedJolamanType(address,uint256)": "16b2e21e",
			"setJolamanTokenTypeOfOwner(uint256,address)": "1b41b476",
			"setSellingJolTypeToBool(uint256,bool)": "a35b3d89",
			"setStakedJolamanType(uint256,bool)": "b7ec93fa",
			"setTokenOwner(uint256,address)": "23eac4bd",
			"setTotalJolamanData(uint256)": "9a944fdf",
			"setTotalOwnedTokens(address,uint256)": "a92ae38a",
			"setTypeToId(uint256,uint256)": "e2bdb880",
			"tokenOwner(uint256)": "1caaa487",
			"totalJolamanData(uint256)": "f1e0cb05",
			"totalOwnedTokens(address,uint256)": "2f08480d",
			"typeToId(uint256)": "1d578013"
		}
	},
	"abi": [
		{
			"inputs": [
				{
					"internalType": "address",
					"name": "sellOwnerAddress",
					"type": "address"
				},
				{
					"internalType": "uint256",
					"name": "_JolamanType",
					"type": "uint256"
				}
			],
			"name": "SellOwnedToken",
			"outputs": [],
			"stateMutability": "nonpayable",
			"type": "function"
		},
		{
			"inputs": [
				{
					"internalType": "uint256",
					"name": "",
					"type": "uint256"
				}
			],
			"name": "SellingJol",
			"outputs": [
				{
					"internalType": "bool",
					"name": "",
					"type": "bool"
				}
			],
			"stateMutability": "view",
			"type": "function"
		},
		{
			"inputs": [
				{
					"internalType": "uint256",
					"name": "",
					"type": "uint256"
				}
			],
			"name": "StakedJolamanType",
			"outputs": [
				{
					"internalType": "bool",
					"name": "",
					"type": "bool"
				}
			],
			"stateMutability": "view",
			"type": "function"
		},
		{
			"inputs": [
				{
					"internalType": "address",
					"name": "",
					"type": "address"
				},
				{
					"internalType": "uint256",
					"name": "",
					"type": "uint256"
				}
			],
			"name": "exceptSellOwnedJolamanType",
			"outputs": [
				{
					"internalType": "uint256",
					"name": "",
					"type": "uint256"
				}
			],
			"stateMutability": "view",
			"type": "function"
		},
		{
			"inputs": [
				{
					"internalType": "address",
					"name": "_tokenOwner",
					"type": "address"
				}
			],
			"name": "getExceptSellOwnedJolamanType",
			"outputs": [
				{
					"internalType": "uint256[]",
					"name": "",
					"type": "uint256[]"
				}
			],
			"stateMutability": "view",
			"type": "function"
		},
		{
			"inputs": [
				{
					"internalType": "uint256",
					"name": "_JolType",
					"type": "uint256"
				}
			],
			"name": "getJolamanTokenTypeOfOnwer",
			"outputs": [
				{
					"internalType": "address",
					"name": "",
					"type": "address"
				}
			],
			"stateMutability": "view",
			"type": "function"
		},
		{
			"inputs": [],
			"name": "getLatestJolamanData",
			"outputs": [
				{
					"internalType": "uint256",
					"name": "",
					"type": "uint256"
				}
			],
			"stateMutability": "view",
			"type": "function"
		},
		{
			"inputs": [
				{
					"internalType": "uint256",
					"name": "_JolamanType",
					"type": "uint256"
				}
			],
			"name": "getSellingJolTypeToBool",
			"outputs": [
				{
					"internalType": "bool",
					"name": "",
					"type": "bool"
				}
			],
			"stateMutability": "view",
			"type": "function"
		},
		{
			"inputs": [
				{
					"internalType": "uint256",
					"name": "_JolamanType",
					"type": "uint256"
				}
			],
			"name": "getStakedJolamanType",
			"outputs": [
				{
					"internalType": "bool",
					"name": "",
					"type": "bool"
				}
			],
			"stateMutability": "view",
			"type": "function"
		},
		{
			"inputs": [
				{
					"internalType": "uint256",
					"name": "_TokenId",
					"type": "uint256"
				}
			],
			"name": "getTokenOwner",
			"outputs": [
				{
					"internalType": "address",
					"name": "",
					"type": "address"
				}
			],
			"stateMutability": "view",
			"type": "function"
		},
		{
			"inputs": [],
			"name": "getTotalJolamanData",
			"outputs": [
				{
					"internalType": "uint256[]",
					"name": "",
					"type": "uint256[]"
				}
			],
			"stateMutability": "view",
			"type": "function"
		},
		{
			"inputs": [
				{
					"internalType": "address",
					"name": "_ownerAddress",
					"type": "address"
				}
			],
			"name": "getTotalOwnedTokens",
			"outputs": [
				{
					"internalType": "uint256[]",
					"name": "",
					"type": "uint256[]"
				}
			],
			"stateMutability": "view",
			"type": "function"
		},
		{
			"inputs": [
				{
					"internalType": "uint256",
					"name": "joldata",
					"type": "uint256"
				}
			],
			"name": "gettypeToId",
			"outputs": [
				{
					"internalType": "uint256",
					"name": "",
					"type": "uint256"
				}
			],
			"stateMutability": "view",
			"type": "function"
		},
		{
			"inputs": [
				{
					"internalType": "uint256",
					"name": "",
					"type": "uint256"
				}
			],
			"name": "jolamanTokenTypeOfOwner",
			"outputs": [
				{
					"internalType": "address",
					"name": "",
					"type": "address"
				}
			],
			"stateMutability": "view",
			"type": "function"
		},
		{
			"inputs": [
				{
					"internalType": "address",
					"name": "_tokenOwner",
					"type": "address"
				},
				{
					"internalType": "uint256",
					"name": "_JolType",
					"type": "uint256"
				}
			],
			"name": "setDeleteExceptSellOwnedJolamanType",
			"outputs": [],
			"stateMutability": "nonpayable",
			"type": "function"
		},
		{
			"inputs": [
				{
					"internalType": "address",
					"name": "_tokenOwner",
					"type": "address"
				},
				{
					"internalType": "uint256",
					"name": "_JolType",
					"type": "uint256"
				}
			],
			"name": "setExceptSellOwnedJolamanType",
			"outputs": [],
			"stateMutability": "nonpayable",
			"type": "function"
		},
		{
			"inputs": [
				{
					"internalType": "uint256",
					"name": "_JolType",
					"type": "uint256"
				},
				{
					"internalType": "address",
					"name": "_tokenOwner",
					"type": "address"
				}
			],
			"name": "setJolamanTokenTypeOfOwner",
			"outputs": [],
			"stateMutability": "nonpayable",
			"type": "function"
		},
		{
			"inputs": [
				{
					"internalType": "uint256",
					"name": "_JolamanType",
					"type": "uint256"
				},
				{
					"internalType": "bool",
					"name": "boolean",
					"type": "bool"
				}
			],
			"name": "setSellingJolTypeToBool",
			"outputs": [],
			"stateMutability": "nonpayable",
			"type": "function"
		},
		{
			"inputs": [
				{
					"internalType": "uint256",
					"name": "_JolamanType",
					"type": "uint256"
				},
				{
					"internalType": "bool",
					"name": "boolean",
					"type": "bool"
				}
			],
			"name": "setStakedJolamanType",
			"outputs": [],
			"stateMutability": "nonpayable",
			"type": "function"
		},
		{
			"inputs": [
				{
					"internalType": "uint256",
					"name": "_TokenId",
					"type": "uint256"
				},
				{
					"internalType": "address",
					"name": "_to",
					"type": "address"
				}
			],
			"name": "setTokenOwner",
			"outputs": [],
			"stateMutability": "nonpayable",
			"type": "function"
		},
		{
			"inputs": [
				{
					"internalType": "uint256",
					"name": "_JolType",
					"type": "uint256"
				}
			],
			"name": "setTotalJolamanData",
			"outputs": [],
			"stateMutability": "nonpayable",
			"type": "function"
		},
		{
			"inputs": [
				{
					"internalType": "address",
					"name": "_tokenOwner",
					"type": "address"
				},
				{
					"internalType": "uint256",
					"name": "_JolType",
					"type": "uint256"
				}
			],
			"name": "setTotalOwnedTokens",
			"outputs": [],
			"stateMutability": "nonpayable",
			"type": "function"
		},
		{
			"inputs": [
				{
					"internalType": "uint256",
					"name": "_joldata",
					"type": "uint256"
				},
				{
					"internalType": "uint256",
					"name": "_tokenId",
					"type": "uint256"
				}
			],
			"name": "setTypeToId",
			"outputs": [],
			"stateMutability": "nonpayable",
			"type": "function"
		},
		{
			"inputs": [
				{
					"internalType": "uint256",
					"name": "",
					"type": "uint256"
				}
			],
			"name": "tokenOwner",
			"outputs": [
				{
					"internalType": "address",
					"name": "",
					"type": "address"
				}
			],
			"stateMutability": "view",
			"type": "function"
		},
		{
			"inputs": [
				{
					"internalType": "uint256",
					"name": "",
					"type": "uint256"
				}
			],
			"name": "totalJolamanData",
			"outputs": [
				{
					"internalType": "uint256",
					"name": "",
					"type": "uint256"
				}
			],
			"stateMutability": "view",
			"type": "function"
		},
		{
			"inputs": [
				{
					"internalType": "address",
					"name": "",
					"type": "address"
				},
				{
					"internalType": "uint256",
					"name": "",
					"type": "uint256"
				}
			],
			"name": "totalOwnedTokens",
			"outputs": [
				{
					"internalType": "uint256",
					"name": "",
					"type": "uint256"
				}
			],
			"stateMutability": "view",
			"type": "function"
		},
		{
			"inputs": [
				{
					"internalType": "uint256",
					"name": "",
					"type": "uint256"
				}
			],
			"name": "typeToId",
			"outputs": [
				{
					"internalType": "uint256",
					"name": "",
					"type": "uint256"
				}
			],
			"stateMutability": "view",
			"type": "function"
		}
	]
}