{
	"data": {
		"bytecode": {
			"linkReferences": {},
			"object": "60a060405234801561001057600080fd5b5060405162002fb738038062002fb7833981810160405281019061003491906100c7565b80604051610041906100a4565b61004b9190610103565b604051809103906000f080158015610067573d6000803e3d6000fd5b5073ffffffffffffffffffffffffffffffffffffffff1660808173ffffffffffffffffffffffffffffffffffffffff1660601b815250505061016c565b61161680620019a183390190565b6000815190506100c181610155565b92915050565b6000602082840312156100dd576100dc610150565b5b60006100eb848285016100b2565b91505092915050565b6100fd8161011e565b82525050565b600060208201905061011860008301846100f4565b92915050565b600061012982610130565b9050919050565b600073ffffffffffffffffffffffffffffffffffffffff82169050919050565b600080fd5b61015e8161011e565b811461016957600080fd5b50565b60805160601c611808620001996000396000818161010b01528181610134015261027401526118086000f3fe60806040523480156200001157600080fd5b5060043610620000525760003560e01c80632d6b3a6b1462000057578063a2ffabcb1462000079578063aaf10f4214620000af578063f0cc31f514620000d1575b600080fd5b6200006162000107565b604051620000709190620005b5565b60405180910390f35b62000097600480360381019062000091919062000464565b6200012f565b604051620000a69190620005b5565b60405180910390f35b620000b962000270565b604051620000c89190620005b5565b60405180910390f35b620000ef6004803603810190620000e99190620004df565b62000319565b604051620000fe9190620005b5565b60405180910390f35b60007f0000000000000000000000000000000000000000000000000000000000000000905090565b6000807f0000000000000000000000000000000000000000000000000000000000000000638beaf7d760e01b86866040516024016200017092919062000606565b604051602081830303815290604052907bffffffffffffffffffffffffffffffffffffffffffffffffffffffff19166020820180517bffffffffffffffffffffffffffffffffffffffffffffffffffffffff8381831617835250505050604051620001db9062000361565b620001e8929190620005d2565b604051809103906000f08015801562000205573d6000803e3d6000fd5b509050806000808563ffffffff1663ffffffff16815260200190815260200160002060006101000a81548173ffffffffffffffffffffffffffffffffffffffff021916908373ffffffffffffffffffffffffffffffffffffffff160217905550809150509392505050565b60007f000000000000000000000000000000000000000000000000000000000000000073ffffffffffffffffffffffffffffffffffffffff16635c60da1b6040518163ffffffff1660e01b815260040160206040518083038186803b158015620002d957600080fd5b505afa158015620002ee573d6000803e3d6000fd5b505050506040513d601f19601f8201168201806040525081019062000314919062000432565b905090565b60008060008363ffffffff1663ffffffff16815260200190815260200160002060009054906101000a900473ffffffffffffffffffffffffffffffffffffffff169050919050565b610f96806200083d83390190565b600062000386620003808462000663565b6200063a565b905082815260208101848484011115620003a557620003a4620007ce565b5b620003b28482856200071f565b509392505050565b600081519050620003cb81620007ee565b92915050565b600082601f830112620003e957620003e8620007c9565b5b8135620003fb8482602086016200036f565b91505092915050565b600081359050620004158162000808565b92915050565b6000813590506200042c8162000822565b92915050565b6000602082840312156200044b576200044a620007d8565b5b60006200045b84828501620003ba565b91505092915050565b60008060006060848603121562000480576200047f620007d8565b5b600084013567ffffffffffffffff811115620004a157620004a0620007d3565b5b620004af86828701620003d1565b9350506020620004c28682870162000404565b9250506040620004d5868287016200041b565b9150509250925092565b600060208284031215620004f857620004f7620007d8565b5b600062000508848285016200041b565b91505092915050565b6200051c81620006d1565b82525050565b60006200052f8262000699565b6200053b8185620006af565b93506200054d8185602086016200072e565b6200055881620007dd565b840191505092915050565b60006200057082620006a4565b6200057c8185620006c0565b93506200058e8185602086016200072e565b6200059981620007dd565b840191505092915050565b620005af8162000705565b82525050565b6000602082019050620005cc600083018462000511565b92915050565b6000604082019050620005e9600083018562000511565b8181036020830152620005fd818462000522565b90509392505050565b6000604082019050818103600083015262000622818562000563565b9050620006336020830184620005a4565b9392505050565b60006200064662000659565b905062000654828262000764565b919050565b6000604051905090565b600067ffffffffffffffff8211156200068157620006806200079a565b5b6200068c82620007dd565b9050602081019050919050565b600081519050919050565b600081519050919050565b600082825260208201905092915050565b600082825260208201905092915050565b6000620006de82620006e5565b9050919050565b600073ffffffffffffffffffffffffffffffffffffffff82169050919050565b6000819050919050565b600063ffffffff82169050919050565b82818337600083830152505050565b60005b838110156200074e57808201518184015260208101905062000731565b838111156200075e576000848401525b50505050565b6200076f82620007dd565b810181811067ffffffffffffffff821117156200079157620007906200079a565b5b80604052505050565b7f4e487b7100000000000000000000000000000000000000000000000000000000600052604160045260246000fd5b600080fd5b600080fd5b600080fd5b600080fd5b6000601f19601f8301169050919050565b620007f981620006d1565b81146200080557600080fd5b50565b620008138162000705565b81146200081f57600080fd5b50565b6200082d816200070f565b81146200083957600080fd5b5056fe608060405260405162000f9638038062000f96833981810160405281019062000029919062000575565b6200003d828260006200004560201b60201c565b5050620009f7565b62000056836200014c60201b60201c565b8273ffffffffffffffffffffffffffffffffffffffff167f1cf3b03a6cf19fa2baba4df148e9dcabedea7f8a5c07840e207e5c089be95d3e60405160405180910390a2600082511180620000a75750805b156200014757620001458373ffffffffffffffffffffffffffffffffffffffff16635c60da1b6040518163ffffffff1660e01b815260040160206040518083038186803b158015620000f857600080fd5b505afa1580156200010d573d6000803e3d6000fd5b505050506040513d601f19601f8201168201806040525081019062000133919062000543565b83620002fb60201b620000371760201c565b505b505050565b62000162816200033160201b620000641760201c565b620001a4576040517f08c379a00000000000000000000000000000000000000000000000000000000081526004016200019b9062000705565b60405180910390fd5b6200023b8173ffffffffffffffffffffffffffffffffffffffff16635c60da1b6040518163ffffffff1660e01b815260040160206040518083038186803b158015620001ef57600080fd5b505afa15801562000204573d6000803e3d6000fd5b505050506040513d601f19601f820116820180604052508101906200022a919062000543565b6200033160201b620000641760201c565b6200027d576040517f08c379a0000000000000000000000000000000000000000000000000000000008152600401620002749062000749565b60405180910390fd5b80620002b77fa3f0ad74e5423aebfd80d3ef4346578335a9a72aeaee59ff6cb3582b35133d5060001b6200035460201b620000871760201c565b60000160006101000a81548173ffffffffffffffffffffffffffffffffffffffff021916908373ffffffffffffffffffffffffffffffffffffffff16021790555050565b606062000329838360405180606001604052806027815260200162000f6f602791396200035e60201b60201c565b905092915050565b6000808273ffffffffffffffffffffffffffffffffffffffff163b119050919050565b6000819050919050565b606062000371846200033160201b60201c565b620003b3576040517f08c379a0000000000000000000000000000000000000000000000000000000008152600401620003aa9062000727565b60405180910390fd5b6000808573ffffffffffffffffffffffffffffffffffffffff1685604051620003dd9190620006c8565b600060405180830381855af49150503d80600081146200041a576040519150601f19603f3d011682016040523d82523d6000602084013e6200041f565b606091505b5091509150620004378282866200044260201b60201c565b925050509392505050565b606083156200045457829050620004a7565b600083511115620004685782518084602001fd5b816040517f08c379a00000000000000000000000000000000000000000000000000000000081526004016200049e9190620006e1565b60405180910390fd5b9392505050565b6000620004c5620004bf8462000794565b6200076b565b905082815260208101848484011115620004e457620004e3620008d0565b5b620004f184828562000830565b509392505050565b6000815190506200050a81620009dd565b92915050565b600082601f830112620005285762000527620008cb565b5b81516200053a848260208601620004ae565b91505092915050565b6000602082840312156200055c576200055b620008da565b5b60006200056c84828501620004f9565b91505092915050565b600080604083850312156200058f576200058e620008da565b5b60006200059f85828601620004f9565b925050602083015167ffffffffffffffff811115620005c357620005c2620008d5565b5b620005d18582860162000510565b9150509250929050565b6000620005e882620007ca565b620005f48185620007e0565b93506200060681856020860162000830565b80840191505092915050565b60006200061f82620007d5565b6200062b8185620007eb565b93506200063d81856020860162000830565b6200064881620008df565b840191505092915050565b600062000662602583620007eb565b91506200066f82620008f0565b604082019050919050565b600062000689602683620007eb565b915062000696826200093f565b604082019050919050565b6000620006b0603083620007eb565b9150620006bd826200098e565b604082019050919050565b6000620006d68284620005db565b915081905092915050565b60006020820190508181036000830152620006fd818462000612565b905092915050565b60006020820190508181036000830152620007208162000653565b9050919050565b6000602082019050818103600083015262000742816200067a565b9050919050565b600060208201905081810360008301526200076481620006a1565b9050919050565b6000620007776200078a565b905062000785828262000866565b919050565b6000604051905090565b600067ffffffffffffffff821115620007b257620007b16200089c565b5b620007bd82620008df565b9050602081019050919050565b600081519050919050565b600081519050919050565b600081905092915050565b600082825260208201905092915050565b6000620008098262000810565b9050919050565b600073ffffffffffffffffffffffffffffffffffffffff82169050919050565b60005b838110156200085057808201518184015260208101905062000833565b8381111562000860576000848401525b50505050565b6200087182620008df565b810181811067ffffffffffffffff821117156200089357620008926200089c565b5b80604052505050565b7f4e487b7100000000000000000000000000000000000000000000000000000000600052604160045260246000fd5b600080fd5b600080fd5b600080fd5b600080fd5b6000601f19601f8301169050919050565b7f455243313936373a206e657720626561636f6e206973206e6f74206120636f6e60008201527f7472616374000000000000000000000000000000000000000000000000000000602082015250565b7f416464726573733a2064656c65676174652063616c6c20746f206e6f6e2d636f60008201527f6e74726163740000000000000000000000000000000000000000000000000000602082015250565b7f455243313936373a20626561636f6e20696d706c656d656e746174696f6e206960008201527f73206e6f74206120636f6e747261637400000000000000000000000000000000602082015250565b620009e881620007fc565b8114620009f457600080fd5b50565b6105688062000a076000396000f3fe6080604052366100135761001161001d565b005b61001b61001d565b005b610025610091565b610035610030610093565b61011f565b565b606061005c838360405180606001604052806027815260200161050c60279139610145565b905092915050565b6000808273ffffffffffffffffffffffffffffffffffffffff163b119050919050565b6000819050919050565b565b600061009d610212565b73ffffffffffffffffffffffffffffffffffffffff16635c60da1b6040518163ffffffff1660e01b815260040160206040518083038186803b1580156100e257600080fd5b505afa1580156100f6573d6000803e3d6000fd5b505050506040513d601f19601f8201168201806040525081019061011a91906102e5565b905090565b3660008037600080366000845af43d6000803e8060008114610140573d6000f35b3d6000fd5b606061015084610064565b61018f576040517f08c379a0000000000000000000000000000000000000000000000000000000008152600401610186906103d8565b60405180910390fd5b6000808573ffffffffffffffffffffffffffffffffffffffff16856040516101b7919061039f565b600060405180830381855af49150503d80600081146101f2576040519150601f19603f3d011682016040523d82523d6000602084013e6101f7565b606091505b5091509150610207828286610269565b925050509392505050565b60006102407fa3f0ad74e5423aebfd80d3ef4346578335a9a72aeaee59ff6cb3582b35133d5060001b610087565b60000160009054906101000a900473ffffffffffffffffffffffffffffffffffffffff16905090565b60608315610279578290506102c9565b60008351111561028c5782518084602001fd5b816040517f08c379a00000000000000000000000000000000000000000000000000000000081526004016102c091906103b6565b60405180910390fd5b9392505050565b6000815190506102df816104f4565b92915050565b6000602082840312156102fb576102fa61048f565b5b6000610309848285016102d0565b91505092915050565b600061031d826103f8565b610327818561040e565b935061033781856020860161045c565b80840191505092915050565b600061034e82610403565b6103588185610419565b935061036881856020860161045c565b61037181610494565b840191505092915050565b6000610389602683610419565b9150610394826104a5565b604082019050919050565b60006103ab8284610312565b915081905092915050565b600060208201905081810360008301526103d08184610343565b905092915050565b600060208201905081810360008301526103f18161037c565b9050919050565b600081519050919050565b600081519050919050565b600081905092915050565b600082825260208201905092915050565b60006104358261043c565b9050919050565b600073ffffffffffffffffffffffffffffffffffffffff82169050919050565b60005b8381101561047a57808201518184015260208101905061045f565b83811115610489576000848401525b50505050565b600080fd5b6000601f19601f8301169050919050565b7f416464726573733a2064656c65676174652063616c6c20746f206e6f6e2d636f60008201527f6e74726163740000000000000000000000000000000000000000000000000000602082015250565b6104fd8161042a565b811461050857600080fd5b5056fe416464726573733a206c6f772d6c6576656c2064656c65676174652063616c6c206661696c6564a2646970667358221220466b76f5b825dbfb94e0d28bffbfa1b669606a9b4e0b60d7b98a53c79357e39764736f6c63430008070033416464726573733a206c6f772d6c6576656c2064656c65676174652063616c6c206661696c6564a264697066735822122076a90cde9a2c6b0d51f7adb4055f23f75d473ef28ce1a11b15d22e740e91ac0964736f6c6343000807003360a06040523480156200001157600080fd5b506040516200161638038062001616833981810160405281019062000037919062000361565b620000576200004b6200011f60201b60201c565b6200012760201b60201c565b8060405162000066906200033c565b620000729190620003f2565b604051809103906000f0801580156200008f573d6000803e3d6000fd5b5073ffffffffffffffffffffffffffffffffffffffff1660808173ffffffffffffffffffffffffffffffffffffffff1660601b8152505080600160006101000a81548173ffffffffffffffffffffffffffffffffffffffff021916908373ffffffffffffffffffffffffffffffffffffffff1602179055506200011832620001eb60201b60201c565b506200052f565b600033905090565b60008060009054906101000a900473ffffffffffffffffffffffffffffffffffffffff169050816000806101000a81548173ffffffffffffffffffffffffffffffffffffffff021916908373ffffffffffffffffffffffffffffffffffffffff1602179055508173ffffffffffffffffffffffffffffffffffffffff168173ffffffffffffffffffffffffffffffffffffffff167f8be0079c531659141344cd1fd0a4f28419497f9722a3daafe3b4186f6b6457e060405160405180910390a35050565b620001fb6200028260201b60201c565b600073ffffffffffffffffffffffffffffffffffffffff168173ffffffffffffffffffffffffffffffffffffffff1614156200026e576040517f08c379a000000000000000000000000000000000000000000000000000000000815260040162000265906200040f565b60405180910390fd5b6200027f816200012760201b60201c565b50565b620002926200011f60201b60201c565b73ffffffffffffffffffffffffffffffffffffffff16620002b86200031360201b60201c565b73ffffffffffffffffffffffffffffffffffffffff161462000311576040517f08c379a0000000000000000000000000000000000000000000000000000000008152600401620003089062000431565b60405180910390fd5b565b60008060009054906101000a900473ffffffffffffffffffffffffffffffffffffffff16905090565b6109d08062000c4683390190565b6000815190506200035b8162000515565b92915050565b6000602082840312156200037a576200037962000498565b5b60006200038a848285016200034a565b91505092915050565b6200039e8162000464565b82525050565b6000620003b360268362000453565b9150620003c0826200049d565b604082019050919050565b6000620003da60208362000453565b9150620003e782620004ec565b602082019050919050565b600060208201905062000409600083018462000393565b92915050565b600060208201905081810360008301526200042a81620003a4565b9050919050565b600060208201905081810360008301526200044c81620003cb565b9050919050565b600082825260208201905092915050565b6000620004718262000478565b9050919050565b600073ffffffffffffffffffffffffffffffffffffffff82169050919050565b600080fd5b7f4f776e61626c653a206e6577206f776e657220697320746865207a65726f206160008201527f6464726573730000000000000000000000000000000000000000000000000000602082015250565b7f4f776e61626c653a2063616c6c6572206973206e6f7420746865206f776e6572600082015250565b620005208162000464565b81146200052c57600080fd5b50565b60805160601c6106f1620005556000396000818161010d01526101de01526106f16000f3fe608060405234801561001057600080fd5b50600436106100625760003560e01c80631c1b8772146100675780635c60da1b14610083578063715018a6146100a15780638da5cb5b146100ab578063c05efa15146100c9578063f2fde38b146100e7575b600080fd5b610081600480360381019061007c91906104da565b610103565b005b61008b6101da565b6040516100989190610589565b60405180910390f35b6100a961027f565b005b6100b3610293565b6040516100c09190610589565b60405180910390f35b6100d16102bc565b6040516100de9190610589565b60405180910390f35b61010160048036038101906100fc91906104da565b6102e2565b005b61010b610366565b7f000000000000000000000000000000000000000000000000000000000000000073ffffffffffffffffffffffffffffffffffffffff16633659cfe6826040518263ffffffff1660e01b81526004016101649190610589565b600060405180830381600087803b15801561017e57600080fd5b505af1158015610192573d6000803e3d6000fd5b5050505080600160006101000a81548173ffffffffffffffffffffffffffffffffffffffff021916908373ffffffffffffffffffffffffffffffffffffffff16021790555050565b60007f000000000000000000000000000000000000000000000000000000000000000073ffffffffffffffffffffffffffffffffffffffff16635c60da1b6040518163ffffffff1660e01b815260040160206040518083038186803b15801561024257600080fd5b505afa158015610256573d6000803e3d6000fd5b505050506040513d601f19601f8201168201806040525081019061027a9190610507565b905090565b610287610366565b61029160006103e4565b565b60008060009054906101000a900473ffffffffffffffffffffffffffffffffffffffff16905090565b600160009054906101000a900473ffffffffffffffffffffffffffffffffffffffff1681565b6102ea610366565b600073ffffffffffffffffffffffffffffffffffffffff168173ffffffffffffffffffffffffffffffffffffffff16141561035a576040517f08c379a0000000000000000000000000000000000000000000000000000000008152600401610351906105a4565b60405180910390fd5b610363816103e4565b50565b61036e6104a8565b73ffffffffffffffffffffffffffffffffffffffff1661038c610293565b73ffffffffffffffffffffffffffffffffffffffff16146103e2576040517f08c379a00000000000000000000000000000000000000000000000000000000081526004016103d9906105c4565b60405180910390fd5b565b60008060009054906101000a900473ffffffffffffffffffffffffffffffffffffffff169050816000806101000a81548173ffffffffffffffffffffffffffffffffffffffff021916908373ffffffffffffffffffffffffffffffffffffffff1602179055508173ffffffffffffffffffffffffffffffffffffffff168173ffffffffffffffffffffffffffffffffffffffff167f8be0079c531659141344cd1fd0a4f28419497f9722a3daafe3b4186f6b6457e060405160405180910390a35050565b600033905090565b6000813590506104bf816106a4565b92915050565b6000815190506104d4816106a4565b92915050565b6000602082840312156104f0576104ef610627565b5b60006104fe848285016104b0565b91505092915050565b60006020828403121561051d5761051c610627565b5b600061052b848285016104c5565b91505092915050565b61053d816105f5565b82525050565b60006105506026836105e4565b915061055b8261062c565b604082019050919050565b60006105736020836105e4565b915061057e8261067b565b602082019050919050565b600060208201905061059e6000830184610534565b92915050565b600060208201905081810360008301526105bd81610543565b9050919050565b600060208201905081810360008301526105dd81610566565b9050919050565b600082825260208201905092915050565b600061060082610607565b9050919050565b600073ffffffffffffffffffffffffffffffffffffffff82169050919050565b600080fd5b7f4f776e61626c653a206e6577206f776e657220697320746865207a65726f206160008201527f6464726573730000000000000000000000000000000000000000000000000000602082015250565b7f4f776e61626c653a2063616c6c6572206973206e6f7420746865206f776e6572600082015250565b6106ad816105f5565b81146106b857600080fd5b5056fea2646970667358221220eebf845bdf1707137c99e9aec7b447ea7f3f14c31ae08a7da58392c2389f302a64736f6c63430008070033608060405234801561001057600080fd5b506040516109d03803806109d0833981810160405281019061003291906101fd565b61004e61004361006360201b60201c565b61006b60201b60201c565b61005d8161012f60201b60201c565b5061031b565b600033905090565b60008060009054906101000a900473ffffffffffffffffffffffffffffffffffffffff169050816000806101000a81548173ffffffffffffffffffffffffffffffffffffffff021916908373ffffffffffffffffffffffffffffffffffffffff1602179055508173ffffffffffffffffffffffffffffffffffffffff168173ffffffffffffffffffffffffffffffffffffffff167f8be0079c531659141344cd1fd0a4f28419497f9722a3daafe3b4186f6b6457e060405160405180910390a35050565b610142816101c560201b61021c1760201c565b610181576040517f08c379a00000000000000000000000000000000000000000000000000000000081526004016101789061024d565b60405180910390fd5b80600160006101000a81548173ffffffffffffffffffffffffffffffffffffffff021916908373ffffffffffffffffffffffffffffffffffffffff16021790555050565b6000808273ffffffffffffffffffffffffffffffffffffffff163b119050919050565b6000815190506101f781610304565b92915050565b600060208284031215610213576102126102b0565b5b6000610221848285016101e8565b91505092915050565b600061023760338361026d565b9150610242826102b5565b604082019050919050565b600060208201905081810360008301526102668161022a565b9050919050565b600082825260208201905092915050565b600061028982610290565b9050919050565b600073ffffffffffffffffffffffffffffffffffffffff82169050919050565b600080fd5b7f5570677261646561626c65426561636f6e3a20696d706c656d656e746174696f60008201527f6e206973206e6f74206120636f6e747261637400000000000000000000000000602082015250565b61030d8161027e565b811461031857600080fd5b50565b6106a68061032a6000396000f3fe608060405234801561001057600080fd5b50600436106100575760003560e01c80633659cfe61461005c5780635c60da1b14610078578063715018a6146100965780638da5cb5b146100a0578063f2fde38b146100be575b600080fd5b6100766004803603810190610071919061042a565b6100da565b005b610080610131565b60405161008d91906104cf565b60405180910390f35b61009e61015b565b005b6100a861016f565b6040516100b591906104cf565b60405180910390f35b6100d860048036038101906100d3919061042a565b610198565b005b6100e261023f565b6100eb816102bd565b8073ffffffffffffffffffffffffffffffffffffffff167fbc7cd75a20ee27fd9adebab32041f755214dbc6bffa90cc0225b39da2e5c2d3b60405160405180910390a250565b6000600160009054906101000a900473ffffffffffffffffffffffffffffffffffffffff16905090565b61016361023f565b61016d6000610349565b565b60008060009054906101000a900473ffffffffffffffffffffffffffffffffffffffff16905090565b6101a061023f565b600073ffffffffffffffffffffffffffffffffffffffff168173ffffffffffffffffffffffffffffffffffffffff161415610210576040517f08c379a0000000000000000000000000000000000000000000000000000000008152600401610207906104ea565b60405180910390fd5b61021981610349565b50565b6000808273ffffffffffffffffffffffffffffffffffffffff163b119050919050565b61024761040d565b73ffffffffffffffffffffffffffffffffffffffff1661026561016f565b73ffffffffffffffffffffffffffffffffffffffff16146102bb576040517f08c379a00000000000000000000000000000000000000000000000000000000081526004016102b29061052a565b60405180910390fd5b565b6102c68161021c565b610305576040517f08c379a00000000000000000000000000000000000000000000000000000000081526004016102fc9061050a565b60405180910390fd5b80600160006101000a81548173ffffffffffffffffffffffffffffffffffffffff021916908373ffffffffffffffffffffffffffffffffffffffff16021790555050565b60008060009054906101000a900473ffffffffffffffffffffffffffffffffffffffff169050816000806101000a81548173ffffffffffffffffffffffffffffffffffffffff021916908373ffffffffffffffffffffffffffffffffffffffff1602179055508173ffffffffffffffffffffffffffffffffffffffff168173ffffffffffffffffffffffffffffffffffffffff167f8be0079c531659141344cd1fd0a4f28419497f9722a3daafe3b4186f6b6457e060405160405180910390a35050565b600033905090565b60008135905061042481610659565b92915050565b6000602082840312156104405761043f61058d565b5b600061044e84828501610415565b91505092915050565b6104608161055b565b82525050565b600061047360268361054a565b915061047e82610592565b604082019050919050565b600061049660338361054a565b91506104a1826105e1565b604082019050919050565b60006104b960208361054a565b91506104c482610630565b602082019050919050565b60006020820190506104e46000830184610457565b92915050565b6000602082019050818103600083015261050381610466565b9050919050565b6000602082019050818103600083015261052381610489565b9050919050565b60006020820190508181036000830152610543816104ac565b9050919050565b600082825260208201905092915050565b60006105668261056d565b9050919050565b600073ffffffffffffffffffffffffffffffffffffffff82169050919050565b600080fd5b7f4f776e61626c653a206e6577206f776e657220697320746865207a65726f206160008201527f6464726573730000000000000000000000000000000000000000000000000000602082015250565b7f5570677261646561626c65426561636f6e3a20696d706c656d656e746174696f60008201527f6e206973206e6f74206120636f6e747261637400000000000000000000000000602082015250565b7f4f776e61626c653a2063616c6c6572206973206e6f7420746865206f776e6572600082015250565b6106628161055b565b811461066d57600080fd5b5056fea264697066735822122052595c6618c746a592c7bd9e3af63a86e92936a1423d668cdb420347443ec85764736f6c63430008070033",
			"opcodes": "PUSH1 0xA0 PUSH1 0x40 MSTORE CALLVALUE DUP1 ISZERO PUSH2 0x10 JUMPI PUSH1 0x0 DUP1 REVERT JUMPDEST POP PUSH1 0x40 MLOAD PUSH3 0x2FB7 CODESIZE SUB DUP1 PUSH3 0x2FB7 DUP4 CODECOPY DUP2 DUP2 ADD PUSH1 0x40 MSTORE DUP2 ADD SWAP1 PUSH2 0x34 SWAP2 SWAP1 PUSH2 0xC7 JUMP JUMPDEST DUP1 PUSH1 0x40 MLOAD PUSH2 0x41 SWAP1 PUSH2 0xA4 JUMP JUMPDEST PUSH2 0x4B SWAP2 SWAP1 PUSH2 0x103 JUMP JUMPDEST PUSH1 0x40 MLOAD DUP1 SWAP2 SUB SWAP1 PUSH1 0x0 CREATE DUP1 ISZERO DUP1 ISZERO PUSH2 0x67 JUMPI RETURNDATASIZE PUSH1 0x0 DUP1 RETURNDATACOPY RETURNDATASIZE PUSH1 0x0 REVERT JUMPDEST POP PUSH20 0xFFFFFFFFFFFFFFFFFFFFFFFFFFFFFFFFFFFFFFFF AND PUSH1 0x80 DUP2 PUSH20 0xFFFFFFFFFFFFFFFFFFFFFFFFFFFFFFFFFFFFFFFF AND PUSH1 0x60 SHL DUP2 MSTORE POP POP POP PUSH2 0x16C JUMP JUMPDEST PUSH2 0x1616 DUP1 PUSH3 0x19A1 DUP4 CODECOPY ADD SWAP1 JUMP JUMPDEST PUSH1 0x0 DUP2 MLOAD SWAP1 POP PUSH2 0xC1 DUP2 PUSH2 0x155 JUMP JUMPDEST SWAP3 SWAP2 POP POP JUMP JUMPDEST PUSH1 0x0 PUSH1 0x20 DUP3 DUP5 SUB SLT ISZERO PUSH2 0xDD JUMPI PUSH2 0xDC PUSH2 0x150 JUMP JUMPDEST JUMPDEST PUSH1 0x0 PUSH2 0xEB DUP5 DUP3 DUP6 ADD PUSH2 0xB2 JUMP JUMPDEST SWAP2 POP POP SWAP3 SWAP2 POP POP JUMP JUMPDEST PUSH2 0xFD DUP2 PUSH2 0x11E JUMP JUMPDEST DUP3 MSTORE POP POP JUMP JUMPDEST PUSH1 0x0 PUSH1 0x20 DUP3 ADD SWAP1 POP PUSH2 0x118 PUSH1 0x0 DUP4 ADD DUP5 PUSH2 0xF4 JUMP JUMPDEST SWAP3 SWAP2 POP POP JUMP JUMPDEST PUSH1 0x0 PUSH2 0x129 DUP3 PUSH2 0x130 JUMP JUMPDEST SWAP1 POP SWAP2 SWAP1 POP JUMP JUMPDEST PUSH1 0x0 PUSH20 0xFFFFFFFFFFFFFFFFFFFFFFFFFFFFFFFFFFFFFFFF DUP3 AND SWAP1 POP SWAP2 SWAP1 POP JUMP JUMPDEST PUSH1 0x0 DUP1 REVERT JUMPDEST PUSH2 0x15E DUP2 PUSH2 0x11E JUMP JUMPDEST DUP2 EQ PUSH2 0x169 JUMPI PUSH1 0x0 DUP1 REVERT JUMPDEST POP JUMP JUMPDEST PUSH1 0x80 MLOAD PUSH1 0x60 SHR PUSH2 0x1808 PUSH3 0x199 PUSH1 0x0 CODECOPY PUSH1 0x0 DUP2 DUP2 PUSH2 0x10B ADD MSTORE DUP2 DUP2 PUSH2 0x134 ADD MSTORE PUSH2 0x274 ADD MSTORE PUSH2 0x1808 PUSH1 0x0 RETURN INVALID PUSH1 0x80 PUSH1 0x40 MSTORE CALLVALUE DUP1 ISZERO PUSH3 0x11 JUMPI PUSH1 0x0 DUP1 REVERT JUMPDEST POP PUSH1 0x4 CALLDATASIZE LT PUSH3 0x52 JUMPI PUSH1 0x0 CALLDATALOAD PUSH1 0xE0 SHR DUP1 PUSH4 0x2D6B3A6B EQ PUSH3 0x57 JUMPI DUP1 PUSH4 0xA2FFABCB EQ PUSH3 0x79 JUMPI DUP1 PUSH4 0xAAF10F42 EQ PUSH3 0xAF JUMPI DUP1 PUSH4 0xF0CC31F5 EQ PUSH3 0xD1 JUMPI JUMPDEST PUSH1 0x0 DUP1 REVERT JUMPDEST PUSH3 0x61 PUSH3 0x107 JUMP JUMPDEST PUSH1 0x40 MLOAD PUSH3 0x70 SWAP2 SWAP1 PUSH3 0x5B5 JUMP JUMPDEST PUSH1 0x40 MLOAD DUP1 SWAP2 SUB SWAP1 RETURN JUMPDEST PUSH3 0x97 PUSH1 0x4 DUP1 CALLDATASIZE SUB DUP2 ADD SWAP1 PUSH3 0x91 SWAP2 SWAP1 PUSH3 0x464 JUMP JUMPDEST PUSH3 0x12F JUMP JUMPDEST PUSH1 0x40 MLOAD PUSH3 0xA6 SWAP2 SWAP1 PUSH3 0x5B5 JUMP JUMPDEST PUSH1 0x40 MLOAD DUP1 SWAP2 SUB SWAP1 RETURN JUMPDEST PUSH3 0xB9 PUSH3 0x270 JUMP JUMPDEST PUSH1 0x40 MLOAD PUSH3 0xC8 SWAP2 SWAP1 PUSH3 0x5B5 JUMP JUMPDEST PUSH1 0x40 MLOAD DUP1 SWAP2 SUB SWAP1 RETURN JUMPDEST PUSH3 0xEF PUSH1 0x4 DUP1 CALLDATASIZE SUB DUP2 ADD SWAP1 PUSH3 0xE9 SWAP2 SWAP1 PUSH3 0x4DF JUMP JUMPDEST PUSH3 0x319 JUMP JUMPDEST PUSH1 0x40 MLOAD PUSH3 0xFE SWAP2 SWAP1 PUSH3 0x5B5 JUMP JUMPDEST PUSH1 0x40 MLOAD DUP1 SWAP2 SUB SWAP1 RETURN JUMPDEST PUSH1 0x0 PUSH32 0x0 SWAP1 POP SWAP1 JUMP JUMPDEST PUSH1 0x0 DUP1 PUSH32 0x0 PUSH4 0x8BEAF7D7 PUSH1 0xE0 SHL DUP7 DUP7 PUSH1 0x40 MLOAD PUSH1 0x24 ADD PUSH3 0x170 SWAP3 SWAP2 SWAP1 PUSH3 0x606 JUMP JUMPDEST PUSH1 0x40 MLOAD PUSH1 0x20 DUP2 DUP4 SUB SUB DUP2 MSTORE SWAP1 PUSH1 0x40 MSTORE SWAP1 PUSH28 0xFFFFFFFFFFFFFFFFFFFFFFFFFFFFFFFFFFFFFFFFFFFFFFFFFFFFFFFF NOT AND PUSH1 0x20 DUP3 ADD DUP1 MLOAD PUSH28 0xFFFFFFFFFFFFFFFFFFFFFFFFFFFFFFFFFFFFFFFFFFFFFFFFFFFFFFFF DUP4 DUP2 DUP4 AND OR DUP4 MSTORE POP POP POP POP PUSH1 0x40 MLOAD PUSH3 0x1DB SWAP1 PUSH3 0x361 JUMP JUMPDEST PUSH3 0x1E8 SWAP3 SWAP2 SWAP1 PUSH3 0x5D2 JUMP JUMPDEST PUSH1 0x40 MLOAD DUP1 SWAP2 SUB SWAP1 PUSH1 0x0 CREATE DUP1 ISZERO DUP1 ISZERO PUSH3 0x205 JUMPI RETURNDATASIZE PUSH1 0x0 DUP1 RETURNDATACOPY RETURNDATASIZE PUSH1 0x0 REVERT JUMPDEST POP SWAP1 POP DUP1 PUSH1 0x0 DUP1 DUP6 PUSH4 0xFFFFFFFF AND PUSH4 0xFFFFFFFF AND DUP2 MSTORE PUSH1 0x20 ADD SWAP1 DUP2 MSTORE PUSH1 0x20 ADD PUSH1 0x0 KECCAK256 PUSH1 0x0 PUSH2 0x100 EXP DUP2 SLOAD DUP2 PUSH20 0xFFFFFFFFFFFFFFFFFFFFFFFFFFFFFFFFFFFFFFFF MUL NOT AND SWAP1 DUP4 PUSH20 0xFFFFFFFFFFFFFFFFFFFFFFFFFFFFFFFFFFFFFFFF AND MUL OR SWAP1 SSTORE POP DUP1 SWAP2 POP POP SWAP4 SWAP3 POP POP POP JUMP JUMPDEST PUSH1 0x0 PUSH32 0x0 PUSH20 0xFFFFFFFFFFFFFFFFFFFFFFFFFFFFFFFFFFFFFFFF AND PUSH4 0x5C60DA1B PUSH1 0x40 MLOAD DUP2 PUSH4 0xFFFFFFFF AND PUSH1 0xE0 SHL DUP2 MSTORE PUSH1 0x4 ADD PUSH1 0x20 PUSH1 0x40 MLOAD DUP1 DUP4 SUB DUP2 DUP7 DUP1 EXTCODESIZE ISZERO DUP1 ISZERO PUSH3 0x2D9 JUMPI PUSH1 0x0 DUP1 REVERT JUMPDEST POP GAS STATICCALL ISZERO DUP1 ISZERO PUSH3 0x2EE JUMPI RETURNDATASIZE PUSH1 0x0 DUP1 RETURNDATACOPY RETURNDATASIZE PUSH1 0x0 REVERT JUMPDEST POP POP POP POP PUSH1 0x40 MLOAD RETURNDATASIZE PUSH1 0x1F NOT PUSH1 0x1F DUP3 ADD AND DUP3 ADD DUP1 PUSH1 0x40 MSTORE POP DUP2 ADD SWAP1 PUSH3 0x314 SWAP2 SWAP1 PUSH3 0x432 JUMP JUMPDEST SWAP1 POP SWAP1 JUMP JUMPDEST PUSH1 0x0 DUP1 PUSH1 0x0 DUP4 PUSH4 0xFFFFFFFF AND PUSH4 0xFFFFFFFF AND DUP2 MSTORE PUSH1 0x20 ADD SWAP1 DUP2 MSTORE PUSH1 0x20 ADD PUSH1 0x0 KECCAK256 PUSH1 0x0 SWAP1 SLOAD SWAP1 PUSH2 0x100 EXP SWAP1 DIV PUSH20 0xFFFFFFFFFFFFFFFFFFFFFFFFFFFFFFFFFFFFFFFF AND SWAP1 POP SWAP2 SWAP1 POP JUMP JUMPDEST PUSH2 0xF96 DUP1 PUSH3 0x83D DUP4 CODECOPY ADD SWAP1 JUMP JUMPDEST PUSH1 0x0 PUSH3 0x386 PUSH3 0x380 DUP5 PUSH3 0x663 JUMP JUMPDEST PUSH3 0x63A JUMP JUMPDEST SWAP1 POP DUP3 DUP2 MSTORE PUSH1 0x20 DUP2 ADD DUP5 DUP5 DUP5 ADD GT ISZERO PUSH3 0x3A5 JUMPI PUSH3 0x3A4 PUSH3 0x7CE JUMP JUMPDEST JUMPDEST PUSH3 0x3B2 DUP5 DUP3 DUP6 PUSH3 0x71F JUMP JUMPDEST POP SWAP4 SWAP3 POP POP POP JUMP JUMPDEST PUSH1 0x0 DUP2 MLOAD SWAP1 POP PUSH3 0x3CB DUP2 PUSH3 0x7EE JUMP JUMPDEST SWAP3 SWAP2 POP POP JUMP JUMPDEST PUSH1 0x0 DUP3 PUSH1 0x1F DUP4 ADD SLT PUSH3 0x3E9 JUMPI PUSH3 0x3E8 PUSH3 0x7C9 JUMP JUMPDEST JUMPDEST DUP2 CALLDATALOAD PUSH3 0x3FB DUP5 DUP3 PUSH1 0x20 DUP7 ADD PUSH3 0x36F JUMP JUMPDEST SWAP2 POP POP SWAP3 SWAP2 POP POP JUMP JUMPDEST PUSH1 0x0 DUP2 CALLDATALOAD SWAP1 POP PUSH3 0x415 DUP2 PUSH3 0x808 JUMP JUMPDEST SWAP3 SWAP2 POP POP JUMP JUMPDEST PUSH1 0x0 DUP2 CALLDATALOAD SWAP1 POP PUSH3 0x42C DUP2 PUSH3 0x822 JUMP JUMPDEST SWAP3 SWAP2 POP POP JUMP JUMPDEST PUSH1 0x0 PUSH1 0x20 DUP3 DUP5 SUB SLT ISZERO PUSH3 0x44B JUMPI PUSH3 0x44A PUSH3 0x7D8 JUMP JUMPDEST JUMPDEST PUSH1 0x0 PUSH3 0x45B DUP5 DUP3 DUP6 ADD PUSH3 0x3BA JUMP JUMPDEST SWAP2 POP POP SWAP3 SWAP2 POP POP JUMP JUMPDEST PUSH1 0x0 DUP1 PUSH1 0x0 PUSH1 0x60 DUP5 DUP7 SUB SLT ISZERO PUSH3 0x480 JUMPI PUSH3 0x47F PUSH3 0x7D8 JUMP JUMPDEST JUMPDEST PUSH1 0x0 DUP5 ADD CALLDATALOAD PUSH8 0xFFFFFFFFFFFFFFFF DUP2 GT ISZERO PUSH3 0x4A1 JUMPI PUSH3 0x4A0 PUSH3 0x7D3 JUMP JUMPDEST JUMPDEST PUSH3 0x4AF DUP7 DUP3 DUP8 ADD PUSH3 0x3D1 JUMP JUMPDEST SWAP4 POP POP PUSH1 0x20 PUSH3 0x4C2 DUP7 DUP3 DUP8 ADD PUSH3 0x404 JUMP JUMPDEST SWAP3 POP POP PUSH1 0x40 PUSH3 0x4D5 DUP7 DUP3 DUP8 ADD PUSH3 0x41B JUMP JUMPDEST SWAP2 POP POP SWAP3 POP SWAP3 POP SWAP3 JUMP JUMPDEST PUSH1 0x0 PUSH1 0x20 DUP3 DUP5 SUB SLT ISZERO PUSH3 0x4F8 JUMPI PUSH3 0x4F7 PUSH3 0x7D8 JUMP JUMPDEST JUMPDEST PUSH1 0x0 PUSH3 0x508 DUP5 DUP3 DUP6 ADD PUSH3 0x41B JUMP JUMPDEST SWAP2 POP POP SWAP3 SWAP2 POP POP JUMP JUMPDEST PUSH3 0x51C DUP2 PUSH3 0x6D1 JUMP JUMPDEST DUP3 MSTORE POP POP JUMP JUMPDEST PUSH1 0x0 PUSH3 0x52F DUP3 PUSH3 0x699 JUMP JUMPDEST PUSH3 0x53B DUP2 DUP6 PUSH3 0x6AF JUMP JUMPDEST SWAP4 POP PUSH3 0x54D DUP2 DUP6 PUSH1 0x20 DUP7 ADD PUSH3 0x72E JUMP JUMPDEST PUSH3 0x558 DUP2 PUSH3 0x7DD JUMP JUMPDEST DUP5 ADD SWAP2 POP POP SWAP3 SWAP2 POP POP JUMP JUMPDEST PUSH1 0x0 PUSH3 0x570 DUP3 PUSH3 0x6A4 JUMP JUMPDEST PUSH3 0x57C DUP2 DUP6 PUSH3 0x6C0 JUMP JUMPDEST SWAP4 POP PUSH3 0x58E DUP2 DUP6 PUSH1 0x20 DUP7 ADD PUSH3 0x72E JUMP JUMPDEST PUSH3 0x599 DUP2 PUSH3 0x7DD JUMP JUMPDEST DUP5 ADD SWAP2 POP POP SWAP3 SWAP2 POP POP JUMP JUMPDEST PUSH3 0x5AF DUP2 PUSH3 0x705 JUMP JUMPDEST DUP3 MSTORE POP POP JUMP JUMPDEST PUSH1 0x0 PUSH1 0x20 DUP3 ADD SWAP1 POP PUSH3 0x5CC PUSH1 0x0 DUP4 ADD DUP5 PUSH3 0x511 JUMP JUMPDEST SWAP3 SWAP2 POP POP JUMP JUMPDEST PUSH1 0x0 PUSH1 0x40 DUP3 ADD SWAP1 POP PUSH3 0x5E9 PUSH1 0x0 DUP4 ADD DUP6 PUSH3 0x511 JUMP JUMPDEST DUP2 DUP2 SUB PUSH1 0x20 DUP4 ADD MSTORE PUSH3 0x5FD DUP2 DUP5 PUSH3 0x522 JUMP JUMPDEST SWAP1 POP SWAP4 SWAP3 POP POP POP JUMP JUMPDEST PUSH1 0x0 PUSH1 0x40 DUP3 ADD SWAP1 POP DUP2 DUP2 SUB PUSH1 0x0 DUP4 ADD MSTORE PUSH3 0x622 DUP2 DUP6 PUSH3 0x563 JUMP JUMPDEST SWAP1 POP PUSH3 0x633 PUSH1 0x20 DUP4 ADD DUP5 PUSH3 0x5A4 JUMP JUMPDEST SWAP4 SWAP3 POP POP POP JUMP JUMPDEST PUSH1 0x0 PUSH3 0x646 PUSH3 0x659 JUMP JUMPDEST SWAP1 POP PUSH3 0x654 DUP3 DUP3 PUSH3 0x764 JUMP JUMPDEST SWAP2 SWAP1 POP JUMP JUMPDEST PUSH1 0x0 PUSH1 0x40 MLOAD SWAP1 POP SWAP1 JUMP JUMPDEST PUSH1 0x0 PUSH8 0xFFFFFFFFFFFFFFFF DUP3 GT ISZERO PUSH3 0x681 JUMPI PUSH3 0x680 PUSH3 0x79A JUMP JUMPDEST JUMPDEST PUSH3 0x68C DUP3 PUSH3 0x7DD JUMP JUMPDEST SWAP1 POP PUSH1 0x20 DUP2 ADD SWAP1 POP SWAP2 SWAP1 POP JUMP JUMPDEST PUSH1 0x0 DUP2 MLOAD SWAP1 POP SWAP2 SWAP1 POP JUMP JUMPDEST PUSH1 0x0 DUP2 MLOAD SWAP1 POP SWAP2 SWAP1 POP JUMP JUMPDEST PUSH1 0x0 DUP3 DUP3 MSTORE PUSH1 0x20 DUP3 ADD SWAP1 POP SWAP3 SWAP2 POP POP JUMP JUMPDEST PUSH1 0x0 DUP3 DUP3 MSTORE PUSH1 0x20 DUP3 ADD SWAP1 POP SWAP3 SWAP2 POP POP JUMP JUMPDEST PUSH1 0x0 PUSH3 0x6DE DUP3 PUSH3 0x6E5 JUMP JUMPDEST SWAP1 POP SWAP2 SWAP1 POP JUMP JUMPDEST PUSH1 0x0 PUSH20 0xFFFFFFFFFFFFFFFFFFFFFFFFFFFFFFFFFFFFFFFF DUP3 AND SWAP1 POP SWAP2 SWAP1 POP JUMP JUMPDEST PUSH1 0x0 DUP2 SWAP1 POP SWAP2 SWAP1 POP JUMP JUMPDEST PUSH1 0x0 PUSH4 0xFFFFFFFF DUP3 AND SWAP1 POP SWAP2 SWAP1 POP JUMP JUMPDEST DUP3 DUP2 DUP4 CALLDATACOPY PUSH1 0x0 DUP4 DUP4 ADD MSTORE POP POP POP JUMP JUMPDEST PUSH1 0x0 JUMPDEST DUP4 DUP2 LT ISZERO PUSH3 0x74E JUMPI DUP1 DUP3 ADD MLOAD DUP2 DUP5 ADD MSTORE PUSH1 0x20 DUP2 ADD SWAP1 POP PUSH3 0x731 JUMP JUMPDEST DUP4 DUP2 GT ISZERO PUSH3 0x75E JUMPI PUSH1 0x0 DUP5 DUP5 ADD MSTORE JUMPDEST POP POP POP POP JUMP JUMPDEST PUSH3 0x76F DUP3 PUSH3 0x7DD JUMP JUMPDEST DUP2 ADD DUP2 DUP2 LT PUSH8 0xFFFFFFFFFFFFFFFF DUP3 GT OR ISZERO PUSH3 0x791 JUMPI PUSH3 0x790 PUSH3 0x79A JUMP JUMPDEST JUMPDEST DUP1 PUSH1 0x40 MSTORE POP POP POP JUMP JUMPDEST PUSH32 0x4E487B7100000000000000000000000000000000000000000000000000000000 PUSH1 0x0 MSTORE PUSH1 0x41 PUSH1 0x4 MSTORE PUSH1 0x24 PUSH1 0x0 REVERT JUMPDEST PUSH1 0x0 DUP1 REVERT JUMPDEST PUSH1 0x0 DUP1 REVERT JUMPDEST PUSH1 0x0 DUP1 REVERT JUMPDEST PUSH1 0x0 DUP1 REVERT JUMPDEST PUSH1 0x0 PUSH1 0x1F NOT PUSH1 0x1F DUP4 ADD AND SWAP1 POP SWAP2 SWAP1 POP JUMP JUMPDEST PUSH3 0x7F9 DUP2 PUSH3 0x6D1 JUMP JUMPDEST DUP2 EQ PUSH3 0x805 JUMPI PUSH1 0x0 DUP1 REVERT JUMPDEST POP JUMP JUMPDEST PUSH3 0x813 DUP2 PUSH3 0x705 JUMP JUMPDEST DUP2 EQ PUSH3 0x81F JUMPI PUSH1 0x0 DUP1 REVERT JUMPDEST POP JUMP JUMPDEST PUSH3 0x82D DUP2 PUSH3 0x70F JUMP JUMPDEST DUP2 EQ PUSH3 0x839 JUMPI PUSH1 0x0 DUP1 REVERT JUMPDEST POP JUMP INVALID PUSH1 0x80 PUSH1 0x40 MSTORE PUSH1 0x40 MLOAD PUSH3 0xF96 CODESIZE SUB DUP1 PUSH3 0xF96 DUP4 CODECOPY DUP2 DUP2 ADD PUSH1 0x40 MSTORE DUP2 ADD SWAP1 PUSH3 0x29 SWAP2 SWAP1 PUSH3 0x575 JUMP JUMPDEST PUSH3 0x3D DUP3 DUP3 PUSH1 0x0 PUSH3 0x45 PUSH1 0x20 SHL PUSH1 0x20 SHR JUMP JUMPDEST POP POP PUSH3 0x9F7 JUMP JUMPDEST PUSH3 0x56 DUP4 PUSH3 0x14C PUSH1 0x20 SHL PUSH1 0x20 SHR JUMP JUMPDEST DUP3 PUSH20 0xFFFFFFFFFFFFFFFFFFFFFFFFFFFFFFFFFFFFFFFF AND PUSH32 0x1CF3B03A6CF19FA2BABA4DF148E9DCABEDEA7F8A5C07840E207E5C089BE95D3E PUSH1 0x40 MLOAD PUSH1 0x40 MLOAD DUP1 SWAP2 SUB SWAP1 LOG2 PUSH1 0x0 DUP3 MLOAD GT DUP1 PUSH3 0xA7 JUMPI POP DUP1 JUMPDEST ISZERO PUSH3 0x147 JUMPI PUSH3 0x145 DUP4 PUSH20 0xFFFFFFFFFFFFFFFFFFFFFFFFFFFFFFFFFFFFFFFF AND PUSH4 0x5C60DA1B PUSH1 0x40 MLOAD DUP2 PUSH4 0xFFFFFFFF AND PUSH1 0xE0 SHL DUP2 MSTORE PUSH1 0x4 ADD PUSH1 0x20 PUSH1 0x40 MLOAD DUP1 DUP4 SUB DUP2 DUP7 DUP1 EXTCODESIZE ISZERO DUP1 ISZERO PUSH3 0xF8 JUMPI PUSH1 0x0 DUP1 REVERT JUMPDEST POP GAS STATICCALL ISZERO DUP1 ISZERO PUSH3 0x10D JUMPI RETURNDATASIZE PUSH1 0x0 DUP1 RETURNDATACOPY RETURNDATASIZE PUSH1 0x0 REVERT JUMPDEST POP POP POP POP PUSH1 0x40 MLOAD RETURNDATASIZE PUSH1 0x1F NOT PUSH1 0x1F DUP3 ADD AND DUP3 ADD DUP1 PUSH1 0x40 MSTORE POP DUP2 ADD SWAP1 PUSH3 0x133 SWAP2 SWAP1 PUSH3 0x543 JUMP JUMPDEST DUP4 PUSH3 0x2FB PUSH1 0x20 SHL PUSH3 0x37 OR PUSH1 0x20 SHR JUMP JUMPDEST POP JUMPDEST POP POP POP JUMP JUMPDEST PUSH3 0x162 DUP2 PUSH3 0x331 PUSH1 0x20 SHL PUSH3 0x64 OR PUSH1 0x20 SHR JUMP JUMPDEST PUSH3 0x1A4 JUMPI PUSH1 0x40 MLOAD PUSH32 0x8C379A000000000000000000000000000000000000000000000000000000000 DUP2 MSTORE PUSH1 0x4 ADD PUSH3 0x19B SWAP1 PUSH3 0x705 JUMP JUMPDEST PUSH1 0x40 MLOAD DUP1 SWAP2 SUB SWAP1 REVERT JUMPDEST PUSH3 0x23B DUP2 PUSH20 0xFFFFFFFFFFFFFFFFFFFFFFFFFFFFFFFFFFFFFFFF AND PUSH4 0x5C60DA1B PUSH1 0x40 MLOAD DUP2 PUSH4 0xFFFFFFFF AND PUSH1 0xE0 SHL DUP2 MSTORE PUSH1 0x4 ADD PUSH1 0x20 PUSH1 0x40 MLOAD DUP1 DUP4 SUB DUP2 DUP7 DUP1 EXTCODESIZE ISZERO DUP1 ISZERO PUSH3 0x1EF JUMPI PUSH1 0x0 DUP1 REVERT JUMPDEST POP GAS STATICCALL ISZERO DUP1 ISZERO PUSH3 0x204 JUMPI RETURNDATASIZE PUSH1 0x0 DUP1 RETURNDATACOPY RETURNDATASIZE PUSH1 0x0 REVERT JUMPDEST POP POP POP POP PUSH1 0x40 MLOAD RETURNDATASIZE PUSH1 0x1F NOT PUSH1 0x1F DUP3 ADD AND DUP3 ADD DUP1 PUSH1 0x40 MSTORE POP DUP2 ADD SWAP1 PUSH3 0x22A SWAP2 SWAP1 PUSH3 0x543 JUMP JUMPDEST PUSH3 0x331 PUSH1 0x20 SHL PUSH3 0x64 OR PUSH1 0x20 SHR JUMP JUMPDEST PUSH3 0x27D JUMPI PUSH1 0x40 MLOAD PUSH32 0x8C379A000000000000000000000000000000000000000000000000000000000 DUP2 MSTORE PUSH1 0x4 ADD PUSH3 0x274 SWAP1 PUSH3 0x749 JUMP JUMPDEST PUSH1 0x40 MLOAD DUP1 SWAP2 SUB SWAP1 REVERT JUMPDEST DUP1 PUSH3 0x2B7 PUSH32 0xA3F0AD74E5423AEBFD80D3EF4346578335A9A72AEAEE59FF6CB3582B35133D50 PUSH1 0x0 SHL PUSH3 0x354 PUSH1 0x20 SHL PUSH3 0x87 OR PUSH1 0x20 SHR JUMP JUMPDEST PUSH1 0x0 ADD PUSH1 0x0 PUSH2 0x100 EXP DUP2 SLOAD DUP2 PUSH20 0xFFFFFFFFFFFFFFFFFFFFFFFFFFFFFFFFFFFFFFFF MUL NOT AND SWAP1 DUP4 PUSH20 0xFFFFFFFFFFFFFFFFFFFFFFFFFFFFFFFFFFFFFFFF AND MUL OR SWAP1 SSTORE POP POP JUMP JUMPDEST PUSH1 0x60 PUSH3 0x329 DUP4 DUP4 PUSH1 0x40 MLOAD DUP1 PUSH1 0x60 ADD PUSH1 0x40 MSTORE DUP1 PUSH1 0x27 DUP2 MSTORE PUSH1 0x20 ADD PUSH3 0xF6F PUSH1 0x27 SWAP2 CODECOPY PUSH3 0x35E PUSH1 0x20 SHL PUSH1 0x20 SHR JUMP JUMPDEST SWAP1 POP SWAP3 SWAP2 POP POP JUMP JUMPDEST PUSH1 0x0 DUP1 DUP3 PUSH20 0xFFFFFFFFFFFFFFFFFFFFFFFFFFFFFFFFFFFFFFFF AND EXTCODESIZE GT SWAP1 POP SWAP2 SWAP1 POP JUMP JUMPDEST PUSH1 0x0 DUP2 SWAP1 POP SWAP2 SWAP1 POP JUMP JUMPDEST PUSH1 0x60 PUSH3 0x371 DUP5 PUSH3 0x331 PUSH1 0x20 SHL PUSH1 0x20 SHR JUMP JUMPDEST PUSH3 0x3B3 JUMPI PUSH1 0x40 MLOAD PUSH32 0x8C379A000000000000000000000000000000000000000000000000000000000 DUP2 MSTORE PUSH1 0x4 ADD PUSH3 0x3AA SWAP1 PUSH3 0x727 JUMP JUMPDEST PUSH1 0x40 MLOAD DUP1 SWAP2 SUB SWAP1 REVERT JUMPDEST PUSH1 0x0 DUP1 DUP6 PUSH20 0xFFFFFFFFFFFFFFFFFFFFFFFFFFFFFFFFFFFFFFFF AND DUP6 PUSH1 0x40 MLOAD PUSH3 0x3DD SWAP2 SWAP1 PUSH3 0x6C8 JUMP JUMPDEST PUSH1 0x0 PUSH1 0x40 MLOAD DUP1 DUP4 SUB DUP2 DUP6 GAS DELEGATECALL SWAP2 POP POP RETURNDATASIZE DUP1 PUSH1 0x0 DUP2 EQ PUSH3 0x41A JUMPI PUSH1 0x40 MLOAD SWAP2 POP PUSH1 0x1F NOT PUSH1 0x3F RETURNDATASIZE ADD AND DUP3 ADD PUSH1 0x40 MSTORE RETURNDATASIZE DUP3 MSTORE RETURNDATASIZE PUSH1 0x0 PUSH1 0x20 DUP5 ADD RETURNDATACOPY PUSH3 0x41F JUMP JUMPDEST PUSH1 0x60 SWAP2 POP JUMPDEST POP SWAP2 POP SWAP2 POP PUSH3 0x437 DUP3 DUP3 DUP7 PUSH3 0x442 PUSH1 0x20 SHL PUSH1 0x20 SHR JUMP JUMPDEST SWAP3 POP POP POP SWAP4 SWAP3 POP POP POP JUMP JUMPDEST PUSH1 0x60 DUP4 ISZERO PUSH3 0x454 JUMPI DUP3 SWAP1 POP PUSH3 0x4A7 JUMP JUMPDEST PUSH1 0x0 DUP4 MLOAD GT ISZERO PUSH3 0x468 JUMPI DUP3 MLOAD DUP1 DUP5 PUSH1 0x20 ADD REVERT JUMPDEST DUP2 PUSH1 0x40 MLOAD PUSH32 0x8C379A000000000000000000000000000000000000000000000000000000000 DUP2 MSTORE PUSH1 0x4 ADD PUSH3 0x49E SWAP2 SWAP1 PUSH3 0x6E1 JUMP JUMPDEST PUSH1 0x40 MLOAD DUP1 SWAP2 SUB SWAP1 REVERT JUMPDEST SWAP4 SWAP3 POP POP POP JUMP JUMPDEST PUSH1 0x0 PUSH3 0x4C5 PUSH3 0x4BF DUP5 PUSH3 0x794 JUMP JUMPDEST PUSH3 0x76B JUMP JUMPDEST SWAP1 POP DUP3 DUP2 MSTORE PUSH1 0x20 DUP2 ADD DUP5 DUP5 DUP5 ADD GT ISZERO PUSH3 0x4E4 JUMPI PUSH3 0x4E3 PUSH3 0x8D0 JUMP JUMPDEST JUMPDEST PUSH3 0x4F1 DUP5 DUP3 DUP6 PUSH3 0x830 JUMP JUMPDEST POP SWAP4 SWAP3 POP POP POP JUMP JUMPDEST PUSH1 0x0 DUP2 MLOAD SWAP1 POP PUSH3 0x50A DUP2 PUSH3 0x9DD JUMP JUMPDEST SWAP3 SWAP2 POP POP JUMP JUMPDEST PUSH1 0x0 DUP3 PUSH1 0x1F DUP4 ADD SLT PUSH3 0x528 JUMPI PUSH3 0x527 PUSH3 0x8CB JUMP JUMPDEST JUMPDEST DUP2 MLOAD PUSH3 0x53A DUP5 DUP3 PUSH1 0x20 DUP7 ADD PUSH3 0x4AE JUMP JUMPDEST SWAP2 POP POP SWAP3 SWAP2 POP POP JUMP JUMPDEST PUSH1 0x0 PUSH1 0x20 DUP3 DUP5 SUB SLT ISZERO PUSH3 0x55C JUMPI PUSH3 0x55B PUSH3 0x8DA JUMP JUMPDEST JUMPDEST PUSH1 0x0 PUSH3 0x56C DUP5 DUP3 DUP6 ADD PUSH3 0x4F9 JUMP JUMPDEST SWAP2 POP POP SWAP3 SWAP2 POP POP JUMP JUMPDEST PUSH1 0x0 DUP1 PUSH1 0x40 DUP4 DUP6 SUB SLT ISZERO PUSH3 0x58F JUMPI PUSH3 0x58E PUSH3 0x8DA JUMP JUMPDEST JUMPDEST PUSH1 0x0 PUSH3 0x59F DUP6 DUP3 DUP7 ADD PUSH3 0x4F9 JUMP JUMPDEST SWAP3 POP POP PUSH1 0x20 DUP4 ADD MLOAD PUSH8 0xFFFFFFFFFFFFFFFF DUP2 GT ISZERO PUSH3 0x5C3 JUMPI PUSH3 0x5C2 PUSH3 0x8D5 JUMP JUMPDEST JUMPDEST PUSH3 0x5D1 DUP6 DUP3 DUP7 ADD PUSH3 0x510 JUMP JUMPDEST SWAP2 POP POP SWAP3 POP SWAP3 SWAP1 POP JUMP JUMPDEST PUSH1 0x0 PUSH3 0x5E8 DUP3 PUSH3 0x7CA JUMP JUMPDEST PUSH3 0x5F4 DUP2 DUP6 PUSH3 0x7E0 JUMP JUMPDEST SWAP4 POP PUSH3 0x606 DUP2 DUP6 PUSH1 0x20 DUP7 ADD PUSH3 0x830 JUMP JUMPDEST DUP1 DUP5 ADD SWAP2 POP POP SWAP3 SWAP2 POP POP JUMP JUMPDEST PUSH1 0x0 PUSH3 0x61F DUP3 PUSH3 0x7D5 JUMP JUMPDEST PUSH3 0x62B DUP2 DUP6 PUSH3 0x7EB JUMP JUMPDEST SWAP4 POP PUSH3 0x63D DUP2 DUP6 PUSH1 0x20 DUP7 ADD PUSH3 0x830 JUMP JUMPDEST PUSH3 0x648 DUP2 PUSH3 0x8DF JUMP JUMPDEST DUP5 ADD SWAP2 POP POP SWAP3 SWAP2 POP POP JUMP JUMPDEST PUSH1 0x0 PUSH3 0x662 PUSH1 0x25 DUP4 PUSH3 0x7EB JUMP JUMPDEST SWAP2 POP PUSH3 0x66F DUP3 PUSH3 0x8F0 JUMP JUMPDEST PUSH1 0x40 DUP3 ADD SWAP1 POP SWAP2 SWAP1 POP JUMP JUMPDEST PUSH1 0x0 PUSH3 0x689 PUSH1 0x26 DUP4 PUSH3 0x7EB JUMP JUMPDEST SWAP2 POP PUSH3 0x696 DUP3 PUSH3 0x93F JUMP JUMPDEST PUSH1 0x40 DUP3 ADD SWAP1 POP SWAP2 SWAP1 POP JUMP JUMPDEST PUSH1 0x0 PUSH3 0x6B0 PUSH1 0x30 DUP4 PUSH3 0x7EB JUMP JUMPDEST SWAP2 POP PUSH3 0x6BD DUP3 PUSH3 0x98E JUMP JUMPDEST PUSH1 0x40 DUP3 ADD SWAP1 POP SWAP2 SWAP1 POP JUMP JUMPDEST PUSH1 0x0 PUSH3 0x6D6 DUP3 DUP5 PUSH3 0x5DB JUMP JUMPDEST SWAP2 POP DUP2 SWAP1 POP SWAP3 SWAP2 POP POP JUMP JUMPDEST PUSH1 0x0 PUSH1 0x20 DUP3 ADD SWAP1 POP DUP2 DUP2 SUB PUSH1 0x0 DUP4 ADD MSTORE PUSH3 0x6FD DUP2 DUP5 PUSH3 0x612 JUMP JUMPDEST SWAP1 POP SWAP3 SWAP2 POP POP JUMP JUMPDEST PUSH1 0x0 PUSH1 0x20 DUP3 ADD SWAP1 POP DUP2 DUP2 SUB PUSH1 0x0 DUP4 ADD MSTORE PUSH3 0x720 DUP2 PUSH3 0x653 JUMP JUMPDEST SWAP1 POP SWAP2 SWAP1 POP JUMP JUMPDEST PUSH1 0x0 PUSH1 0x20 DUP3 ADD SWAP1 POP DUP2 DUP2 SUB PUSH1 0x0 DUP4 ADD MSTORE PUSH3 0x742 DUP2 PUSH3 0x67A JUMP JUMPDEST SWAP1 POP SWAP2 SWAP1 POP JUMP JUMPDEST PUSH1 0x0 PUSH1 0x20 DUP3 ADD SWAP1 POP DUP2 DUP2 SUB PUSH1 0x0 DUP4 ADD MSTORE PUSH3 0x764 DUP2 PUSH3 0x6A1 JUMP JUMPDEST SWAP1 POP SWAP2 SWAP1 POP JUMP JUMPDEST PUSH1 0x0 PUSH3 0x777 PUSH3 0x78A JUMP JUMPDEST SWAP1 POP PUSH3 0x785 DUP3 DUP3 PUSH3 0x866 JUMP JUMPDEST SWAP2 SWAP1 POP JUMP JUMPDEST PUSH1 0x0 PUSH1 0x40 MLOAD SWAP1 POP SWAP1 JUMP JUMPDEST PUSH1 0x0 PUSH8 0xFFFFFFFFFFFFFFFF DUP3 GT ISZERO PUSH3 0x7B2 JUMPI PUSH3 0x7B1 PUSH3 0x89C JUMP JUMPDEST JUMPDEST PUSH3 0x7BD DUP3 PUSH3 0x8DF JUMP JUMPDEST SWAP1 POP PUSH1 0x20 DUP2 ADD SWAP1 POP SWAP2 SWAP1 POP JUMP JUMPDEST PUSH1 0x0 DUP2 MLOAD SWAP1 POP SWAP2 SWAP1 POP JUMP JUMPDEST PUSH1 0x0 DUP2 MLOAD SWAP1 POP SWAP2 SWAP1 POP JUMP JUMPDEST PUSH1 0x0 DUP2 SWAP1 POP SWAP3 SWAP2 POP POP JUMP JUMPDEST PUSH1 0x0 DUP3 DUP3 MSTORE PUSH1 0x20 DUP3 ADD SWAP1 POP SWAP3 SWAP2 POP POP JUMP JUMPDEST PUSH1 0x0 PUSH3 0x809 DUP3 PUSH3 0x810 JUMP JUMPDEST SWAP1 POP SWAP2 SWAP1 POP JUMP JUMPDEST PUSH1 0x0 PUSH20 0xFFFFFFFFFFFFFFFFFFFFFFFFFFFFFFFFFFFFFFFF DUP3 AND SWAP1 POP SWAP2 SWAP1 POP JUMP JUMPDEST PUSH1 0x0 JUMPDEST DUP4 DUP2 LT ISZERO PUSH3 0x850 JUMPI DUP1 DUP3 ADD MLOAD DUP2 DUP5 ADD MSTORE PUSH1 0x20 DUP2 ADD SWAP1 POP PUSH3 0x833 JUMP JUMPDEST DUP4 DUP2 GT ISZERO PUSH3 0x860 JUMPI PUSH1 0x0 DUP5 DUP5 ADD MSTORE JUMPDEST POP POP POP POP JUMP JUMPDEST PUSH3 0x871 DUP3 PUSH3 0x8DF JUMP JUMPDEST DUP2 ADD DUP2 DUP2 LT PUSH8 0xFFFFFFFFFFFFFFFF DUP3 GT OR ISZERO PUSH3 0x893 JUMPI PUSH3 0x892 PUSH3 0x89C JUMP JUMPDEST JUMPDEST DUP1 PUSH1 0x40 MSTORE POP POP POP JUMP JUMPDEST PUSH32 0x4E487B7100000000000000000000000000000000000000000000000000000000 PUSH1 0x0 MSTORE PUSH1 0x41 PUSH1 0x4 MSTORE PUSH1 0x24 PUSH1 0x0 REVERT JUMPDEST PUSH1 0x0 DUP1 REVERT JUMPDEST PUSH1 0x0 DUP1 REVERT JUMPDEST PUSH1 0x0 DUP1 REVERT JUMPDEST PUSH1 0x0 DUP1 REVERT JUMPDEST PUSH1 0x0 PUSH1 0x1F NOT PUSH1 0x1F DUP4 ADD AND SWAP1 POP SWAP2 SWAP1 POP JUMP JUMPDEST PUSH32 0x455243313936373A206E657720626561636F6E206973206E6F74206120636F6E PUSH1 0x0 DUP3 ADD MSTORE PUSH32 0x7472616374000000000000000000000000000000000000000000000000000000 PUSH1 0x20 DUP3 ADD MSTORE POP JUMP JUMPDEST PUSH32 0x416464726573733A2064656C65676174652063616C6C20746F206E6F6E2D636F PUSH1 0x0 DUP3 ADD MSTORE PUSH32 0x6E74726163740000000000000000000000000000000000000000000000000000 PUSH1 0x20 DUP3 ADD MSTORE POP JUMP JUMPDEST PUSH32 0x455243313936373A20626561636F6E20696D706C656D656E746174696F6E2069 PUSH1 0x0 DUP3 ADD MSTORE PUSH32 0x73206E6F74206120636F6E747261637400000000000000000000000000000000 PUSH1 0x20 DUP3 ADD MSTORE POP JUMP JUMPDEST PUSH3 0x9E8 DUP2 PUSH3 0x7FC JUMP JUMPDEST DUP2 EQ PUSH3 0x9F4 JUMPI PUSH1 0x0 DUP1 REVERT JUMPDEST POP JUMP JUMPDEST PUSH2 0x568 DUP1 PUSH3 0xA07 PUSH1 0x0 CODECOPY PUSH1 0x0 RETURN INVALID PUSH1 0x80 PUSH1 0x40 MSTORE CALLDATASIZE PUSH2 0x13 JUMPI PUSH2 0x11 PUSH2 0x1D JUMP JUMPDEST STOP JUMPDEST PUSH2 0x1B PUSH2 0x1D JUMP JUMPDEST STOP JUMPDEST PUSH2 0x25 PUSH2 0x91 JUMP JUMPDEST PUSH2 0x35 PUSH2 0x30 PUSH2 0x93 JUMP JUMPDEST PUSH2 0x11F JUMP JUMPDEST JUMP JUMPDEST PUSH1 0x60 PUSH2 0x5C DUP4 DUP4 PUSH1 0x40 MLOAD DUP1 PUSH1 0x60 ADD PUSH1 0x40 MSTORE DUP1 PUSH1 0x27 DUP2 MSTORE PUSH1 0x20 ADD PUSH2 0x50C PUSH1 0x27 SWAP2 CODECOPY PUSH2 0x145 JUMP JUMPDEST SWAP1 POP SWAP3 SWAP2 POP POP JUMP JUMPDEST PUSH1 0x0 DUP1 DUP3 PUSH20 0xFFFFFFFFFFFFFFFFFFFFFFFFFFFFFFFFFFFFFFFF AND EXTCODESIZE GT SWAP1 POP SWAP2 SWAP1 POP JUMP JUMPDEST PUSH1 0x0 DUP2 SWAP1 POP SWAP2 SWAP1 POP JUMP JUMPDEST JUMP JUMPDEST PUSH1 0x0 PUSH2 0x9D PUSH2 0x212 JUMP JUMPDEST PUSH20 0xFFFFFFFFFFFFFFFFFFFFFFFFFFFFFFFFFFFFFFFF AND PUSH4 0x5C60DA1B PUSH1 0x40 MLOAD DUP2 PUSH4 0xFFFFFFFF AND PUSH1 0xE0 SHL DUP2 MSTORE PUSH1 0x4 ADD PUSH1 0x20 PUSH1 0x40 MLOAD DUP1 DUP4 SUB DUP2 DUP7 DUP1 EXTCODESIZE ISZERO DUP1 ISZERO PUSH2 0xE2 JUMPI PUSH1 0x0 DUP1 REVERT JUMPDEST POP GAS STATICCALL ISZERO DUP1 ISZERO PUSH2 0xF6 JUMPI RETURNDATASIZE PUSH1 0x0 DUP1 RETURNDATACOPY RETURNDATASIZE PUSH1 0x0 REVERT JUMPDEST POP POP POP POP PUSH1 0x40 MLOAD RETURNDATASIZE PUSH1 0x1F NOT PUSH1 0x1F DUP3 ADD AND DUP3 ADD DUP1 PUSH1 0x40 MSTORE POP DUP2 ADD SWAP1 PUSH2 0x11A SWAP2 SWAP1 PUSH2 0x2E5 JUMP JUMPDEST SWAP1 POP SWAP1 JUMP JUMPDEST CALLDATASIZE PUSH1 0x0 DUP1 CALLDATACOPY PUSH1 0x0 DUP1 CALLDATASIZE PUSH1 0x0 DUP5 GAS DELEGATECALL RETURNDATASIZE PUSH1 0x0 DUP1 RETURNDATACOPY DUP1 PUSH1 0x0 DUP2 EQ PUSH2 0x140 JUMPI RETURNDATASIZE PUSH1 0x0 RETURN JUMPDEST RETURNDATASIZE PUSH1 0x0 REVERT JUMPDEST PUSH1 0x60 PUSH2 0x150 DUP5 PUSH2 0x64 JUMP JUMPDEST PUSH2 0x18F JUMPI PUSH1 0x40 MLOAD PUSH32 0x8C379A000000000000000000000000000000000000000000000000000000000 DUP2 MSTORE PUSH1 0x4 ADD PUSH2 0x186 SWAP1 PUSH2 0x3D8 JUMP JUMPDEST PUSH1 0x40 MLOAD DUP1 SWAP2 SUB SWAP1 REVERT JUMPDEST PUSH1 0x0 DUP1 DUP6 PUSH20 0xFFFFFFFFFFFFFFFFFFFFFFFFFFFFFFFFFFFFFFFF AND DUP6 PUSH1 0x40 MLOAD PUSH2 0x1B7 SWAP2 SWAP1 PUSH2 0x39F JUMP JUMPDEST PUSH1 0x0 PUSH1 0x40 MLOAD DUP1 DUP4 SUB DUP2 DUP6 GAS DELEGATECALL SWAP2 POP POP RETURNDATASIZE DUP1 PUSH1 0x0 DUP2 EQ PUSH2 0x1F2 JUMPI PUSH1 0x40 MLOAD SWAP2 POP PUSH1 0x1F NOT PUSH1 0x3F RETURNDATASIZE ADD AND DUP3 ADD PUSH1 0x40 MSTORE RETURNDATASIZE DUP3 MSTORE RETURNDATASIZE PUSH1 0x0 PUSH1 0x20 DUP5 ADD RETURNDATACOPY PUSH2 0x1F7 JUMP JUMPDEST PUSH1 0x60 SWAP2 POP JUMPDEST POP SWAP2 POP SWAP2 POP PUSH2 0x207 DUP3 DUP3 DUP7 PUSH2 0x269 JUMP JUMPDEST SWAP3 POP POP POP SWAP4 SWAP3 POP POP POP JUMP JUMPDEST PUSH1 0x0 PUSH2 0x240 PUSH32 0xA3F0AD74E5423AEBFD80D3EF4346578335A9A72AEAEE59FF6CB3582B35133D50 PUSH1 0x0 SHL PUSH2 0x87 JUMP JUMPDEST PUSH1 0x0 ADD PUSH1 0x0 SWAP1 SLOAD SWAP1 PUSH2 0x100 EXP SWAP1 DIV PUSH20 0xFFFFFFFFFFFFFFFFFFFFFFFFFFFFFFFFFFFFFFFF AND SWAP1 POP SWAP1 JUMP JUMPDEST PUSH1 0x60 DUP4 ISZERO PUSH2 0x279 JUMPI DUP3 SWAP1 POP PUSH2 0x2C9 JUMP JUMPDEST PUSH1 0x0 DUP4 MLOAD GT ISZERO PUSH2 0x28C JUMPI DUP3 MLOAD DUP1 DUP5 PUSH1 0x20 ADD REVERT JUMPDEST DUP2 PUSH1 0x40 MLOAD PUSH32 0x8C379A000000000000000000000000000000000000000000000000000000000 DUP2 MSTORE PUSH1 0x4 ADD PUSH2 0x2C0 SWAP2 SWAP1 PUSH2 0x3B6 JUMP JUMPDEST PUSH1 0x40 MLOAD DUP1 SWAP2 SUB SWAP1 REVERT JUMPDEST SWAP4 SWAP3 POP POP POP JUMP JUMPDEST PUSH1 0x0 DUP2 MLOAD SWAP1 POP PUSH2 0x2DF DUP2 PUSH2 0x4F4 JUMP JUMPDEST SWAP3 SWAP2 POP POP JUMP JUMPDEST PUSH1 0x0 PUSH1 0x20 DUP3 DUP5 SUB SLT ISZERO PUSH2 0x2FB JUMPI PUSH2 0x2FA PUSH2 0x48F JUMP JUMPDEST JUMPDEST PUSH1 0x0 PUSH2 0x309 DUP5 DUP3 DUP6 ADD PUSH2 0x2D0 JUMP JUMPDEST SWAP2 POP POP SWAP3 SWAP2 POP POP JUMP JUMPDEST PUSH1 0x0 PUSH2 0x31D DUP3 PUSH2 0x3F8 JUMP JUMPDEST PUSH2 0x327 DUP2 DUP6 PUSH2 0x40E JUMP JUMPDEST SWAP4 POP PUSH2 0x337 DUP2 DUP6 PUSH1 0x20 DUP7 ADD PUSH2 0x45C JUMP JUMPDEST DUP1 DUP5 ADD SWAP2 POP POP SWAP3 SWAP2 POP POP JUMP JUMPDEST PUSH1 0x0 PUSH2 0x34E DUP3 PUSH2 0x403 JUMP JUMPDEST PUSH2 0x358 DUP2 DUP6 PUSH2 0x419 JUMP JUMPDEST SWAP4 POP PUSH2 0x368 DUP2 DUP6 PUSH1 0x20 DUP7 ADD PUSH2 0x45C JUMP JUMPDEST PUSH2 0x371 DUP2 PUSH2 0x494 JUMP JUMPDEST DUP5 ADD SWAP2 POP POP SWAP3 SWAP2 POP POP JUMP JUMPDEST PUSH1 0x0 PUSH2 0x389 PUSH1 0x26 DUP4 PUSH2 0x419 JUMP JUMPDEST SWAP2 POP PUSH2 0x394 DUP3 PUSH2 0x4A5 JUMP JUMPDEST PUSH1 0x40 DUP3 ADD SWAP1 POP SWAP2 SWAP1 POP JUMP JUMPDEST PUSH1 0x0 PUSH2 0x3AB DUP3 DUP5 PUSH2 0x312 JUMP JUMPDEST SWAP2 POP DUP2 SWAP1 POP SWAP3 SWAP2 POP POP JUMP JUMPDEST PUSH1 0x0 PUSH1 0x20 DUP3 ADD SWAP1 POP DUP2 DUP2 SUB PUSH1 0x0 DUP4 ADD MSTORE PUSH2 0x3D0 DUP2 DUP5 PUSH2 0x343 JUMP JUMPDEST SWAP1 POP SWAP3 SWAP2 POP POP JUMP JUMPDEST PUSH1 0x0 PUSH1 0x20 DUP3 ADD SWAP1 POP DUP2 DUP2 SUB PUSH1 0x0 DUP4 ADD MSTORE PUSH2 0x3F1 DUP2 PUSH2 0x37C JUMP JUMPDEST SWAP1 POP SWAP2 SWAP1 POP JUMP JUMPDEST PUSH1 0x0 DUP2 MLOAD SWAP1 POP SWAP2 SWAP1 POP JUMP JUMPDEST PUSH1 0x0 DUP2 MLOAD SWAP1 POP SWAP2 SWAP1 POP JUMP JUMPDEST PUSH1 0x0 DUP2 SWAP1 POP SWAP3 SWAP2 POP POP JUMP JUMPDEST PUSH1 0x0 DUP3 DUP3 MSTORE PUSH1 0x20 DUP3 ADD SWAP1 POP SWAP3 SWAP2 POP POP JUMP JUMPDEST PUSH1 0x0 PUSH2 0x435 DUP3 PUSH2 0x43C JUMP JUMPDEST SWAP1 POP SWAP2 SWAP1 POP JUMP JUMPDEST PUSH1 0x0 PUSH20 0xFFFFFFFFFFFFFFFFFFFFFFFFFFFFFFFFFFFFFFFF DUP3 AND SWAP1 POP SWAP2 SWAP1 POP JUMP JUMPDEST PUSH1 0x0 JUMPDEST DUP4 DUP2 LT ISZERO PUSH2 0x47A JUMPI DUP1 DUP3 ADD MLOAD DUP2 DUP5 ADD MSTORE PUSH1 0x20 DUP2 ADD SWAP1 POP PUSH2 0x45F JUMP JUMPDEST DUP4 DUP2 GT ISZERO PUSH2 0x489 JUMPI PUSH1 0x0 DUP5 DUP5 ADD MSTORE JUMPDEST POP POP POP POP JUMP JUMPDEST PUSH1 0x0 DUP1 REVERT JUMPDEST PUSH1 0x0 PUSH1 0x1F NOT PUSH1 0x1F DUP4 ADD AND SWAP1 POP SWAP2 SWAP1 POP JUMP JUMPDEST PUSH32 0x416464726573733A2064656C65676174652063616C6C20746F206E6F6E2D636F PUSH1 0x0 DUP3 ADD MSTORE PUSH32 0x6E74726163740000000000000000000000000000000000000000000000000000 PUSH1 0x20 DUP3 ADD MSTORE POP JUMP JUMPDEST PUSH2 0x4FD DUP2 PUSH2 0x42A JUMP JUMPDEST DUP2 EQ PUSH2 0x508 JUMPI PUSH1 0x0 DUP1 REVERT JUMPDEST POP JUMP INVALID COINBASE PUSH5 0x6472657373 GASPRICE KECCAK256 PUSH13 0x6F772D6C6576656C2064656C65 PUSH8 0x6174652063616C6C KECCAK256 PUSH7 0x61696C6564A264 PUSH10 0x70667358221220466B76 CREATE2 0xB8 0x25 0xDB 0xFB SWAP5 0xE0 0xD2 DUP12 SELFDESTRUCT 0xBF LOG1 0xB6 PUSH10 0x606A9B4E0B60D7B98A53 0xC7 SWAP4 JUMPI 0xE3 SWAP8 PUSH5 0x736F6C6343 STOP ADDMOD SMOD STOP CALLER COINBASE PUSH5 0x6472657373 GASPRICE KECCAK256 PUSH13 0x6F772D6C6576656C2064656C65 PUSH8 0x6174652063616C6C KECCAK256 PUSH7 0x61696C6564A264 PUSH10 0x7066735822122076A90C 0xDE SWAP11 0x2C PUSH12 0xD51F7ADB4055F23F75D473E CALLCODE DUP13 0xE1 LOG1 SHL ISZERO 0xD2 0x2E PUSH21 0xE91AC0964736F6C6343000807003360A060405234 DUP1 ISZERO PUSH3 0x11 JUMPI PUSH1 0x0 DUP1 REVERT JUMPDEST POP PUSH1 0x40 MLOAD PUSH3 0x1616 CODESIZE SUB DUP1 PUSH3 0x1616 DUP4 CODECOPY DUP2 DUP2 ADD PUSH1 0x40 MSTORE DUP2 ADD SWAP1 PUSH3 0x37 SWAP2 SWAP1 PUSH3 0x361 JUMP JUMPDEST PUSH3 0x57 PUSH3 0x4B PUSH3 0x11F PUSH1 0x20 SHL PUSH1 0x20 SHR JUMP JUMPDEST PUSH3 0x127 PUSH1 0x20 SHL PUSH1 0x20 SHR JUMP JUMPDEST DUP1 PUSH1 0x40 MLOAD PUSH3 0x66 SWAP1 PUSH3 0x33C JUMP JUMPDEST PUSH3 0x72 SWAP2 SWAP1 PUSH3 0x3F2 JUMP JUMPDEST PUSH1 0x40 MLOAD DUP1 SWAP2 SUB SWAP1 PUSH1 0x0 CREATE DUP1 ISZERO DUP1 ISZERO PUSH3 0x8F JUMPI RETURNDATASIZE PUSH1 0x0 DUP1 RETURNDATACOPY RETURNDATASIZE PUSH1 0x0 REVERT JUMPDEST POP PUSH20 0xFFFFFFFFFFFFFFFFFFFFFFFFFFFFFFFFFFFFFFFF AND PUSH1 0x80 DUP2 PUSH20 0xFFFFFFFFFFFFFFFFFFFFFFFFFFFFFFFFFFFFFFFF AND PUSH1 0x60 SHL DUP2 MSTORE POP POP DUP1 PUSH1 0x1 PUSH1 0x0 PUSH2 0x100 EXP DUP2 SLOAD DUP2 PUSH20 0xFFFFFFFFFFFFFFFFFFFFFFFFFFFFFFFFFFFFFFFF MUL NOT AND SWAP1 DUP4 PUSH20 0xFFFFFFFFFFFFFFFFFFFFFFFFFFFFFFFFFFFFFFFF AND MUL OR SWAP1 SSTORE POP PUSH3 0x118 ORIGIN PUSH3 0x1EB PUSH1 0x20 SHL PUSH1 0x20 SHR JUMP JUMPDEST POP PUSH3 0x52F JUMP JUMPDEST PUSH1 0x0 CALLER SWAP1 POP SWAP1 JUMP JUMPDEST PUSH1 0x0 DUP1 PUSH1 0x0 SWAP1 SLOAD SWAP1 PUSH2 0x100 EXP SWAP1 DIV PUSH20 0xFFFFFFFFFFFFFFFFFFFFFFFFFFFFFFFFFFFFFFFF AND SWAP1 POP DUP2 PUSH1 0x0 DUP1 PUSH2 0x100 EXP DUP2 SLOAD DUP2 PUSH20 0xFFFFFFFFFFFFFFFFFFFFFFFFFFFFFFFFFFFFFFFF MUL NOT AND SWAP1 DUP4 PUSH20 0xFFFFFFFFFFFFFFFFFFFFFFFFFFFFFFFFFFFFFFFF AND MUL OR SWAP1 SSTORE POP DUP2 PUSH20 0xFFFFFFFFFFFFFFFFFFFFFFFFFFFFFFFFFFFFFFFF AND DUP2 PUSH20 0xFFFFFFFFFFFFFFFFFFFFFFFFFFFFFFFFFFFFFFFF AND PUSH32 0x8BE0079C531659141344CD1FD0A4F28419497F9722A3DAAFE3B4186F6B6457E0 PUSH1 0x40 MLOAD PUSH1 0x40 MLOAD DUP1 SWAP2 SUB SWAP1 LOG3 POP POP JUMP JUMPDEST PUSH3 0x1FB PUSH3 0x282 PUSH1 0x20 SHL PUSH1 0x20 SHR JUMP JUMPDEST PUSH1 0x0 PUSH20 0xFFFFFFFFFFFFFFFFFFFFFFFFFFFFFFFFFFFFFFFF AND DUP2 PUSH20 0xFFFFFFFFFFFFFFFFFFFFFFFFFFFFFFFFFFFFFFFF AND EQ ISZERO PUSH3 0x26E JUMPI PUSH1 0x40 MLOAD PUSH32 0x8C379A000000000000000000000000000000000000000000000000000000000 DUP2 MSTORE PUSH1 0x4 ADD PUSH3 0x265 SWAP1 PUSH3 0x40F JUMP JUMPDEST PUSH1 0x40 MLOAD DUP1 SWAP2 SUB SWAP1 REVERT JUMPDEST PUSH3 0x27F DUP2 PUSH3 0x127 PUSH1 0x20 SHL PUSH1 0x20 SHR JUMP JUMPDEST POP JUMP JUMPDEST PUSH3 0x292 PUSH3 0x11F PUSH1 0x20 SHL PUSH1 0x20 SHR JUMP JUMPDEST PUSH20 0xFFFFFFFFFFFFFFFFFFFFFFFFFFFFFFFFFFFFFFFF AND PUSH3 0x2B8 PUSH3 0x313 PUSH1 0x20 SHL PUSH1 0x20 SHR JUMP JUMPDEST PUSH20 0xFFFFFFFFFFFFFFFFFFFFFFFFFFFFFFFFFFFFFFFF AND EQ PUSH3 0x311 JUMPI PUSH1 0x40 MLOAD PUSH32 0x8C379A000000000000000000000000000000000000000000000000000000000 DUP2 MSTORE PUSH1 0x4 ADD PUSH3 0x308 SWAP1 PUSH3 0x431 JUMP JUMPDEST PUSH1 0x40 MLOAD DUP1 SWAP2 SUB SWAP1 REVERT JUMPDEST JUMP JUMPDEST PUSH1 0x0 DUP1 PUSH1 0x0 SWAP1 SLOAD SWAP1 PUSH2 0x100 EXP SWAP1 DIV PUSH20 0xFFFFFFFFFFFFFFFFFFFFFFFFFFFFFFFFFFFFFFFF AND SWAP1 POP SWAP1 JUMP JUMPDEST PUSH2 0x9D0 DUP1 PUSH3 0xC46 DUP4 CODECOPY ADD SWAP1 JUMP JUMPDEST PUSH1 0x0 DUP2 MLOAD SWAP1 POP PUSH3 0x35B DUP2 PUSH3 0x515 JUMP JUMPDEST SWAP3 SWAP2 POP POP JUMP JUMPDEST PUSH1 0x0 PUSH1 0x20 DUP3 DUP5 SUB SLT ISZERO PUSH3 0x37A JUMPI PUSH3 0x379 PUSH3 0x498 JUMP JUMPDEST JUMPDEST PUSH1 0x0 PUSH3 0x38A DUP5 DUP3 DUP6 ADD PUSH3 0x34A JUMP JUMPDEST SWAP2 POP POP SWAP3 SWAP2 POP POP JUMP JUMPDEST PUSH3 0x39E DUP2 PUSH3 0x464 JUMP JUMPDEST DUP3 MSTORE POP POP JUMP JUMPDEST PUSH1 0x0 PUSH3 0x3B3 PUSH1 0x26 DUP4 PUSH3 0x453 JUMP JUMPDEST SWAP2 POP PUSH3 0x3C0 DUP3 PUSH3 0x49D JUMP JUMPDEST PUSH1 0x40 DUP3 ADD SWAP1 POP SWAP2 SWAP1 POP JUMP JUMPDEST PUSH1 0x0 PUSH3 0x3DA PUSH1 0x20 DUP4 PUSH3 0x453 JUMP JUMPDEST SWAP2 POP PUSH3 0x3E7 DUP3 PUSH3 0x4EC JUMP JUMPDEST PUSH1 0x20 DUP3 ADD SWAP1 POP SWAP2 SWAP1 POP JUMP JUMPDEST PUSH1 0x0 PUSH1 0x20 DUP3 ADD SWAP1 POP PUSH3 0x409 PUSH1 0x0 DUP4 ADD DUP5 PUSH3 0x393 JUMP JUMPDEST SWAP3 SWAP2 POP POP JUMP JUMPDEST PUSH1 0x0 PUSH1 0x20 DUP3 ADD SWAP1 POP DUP2 DUP2 SUB PUSH1 0x0 DUP4 ADD MSTORE PUSH3 0x42A DUP2 PUSH3 0x3A4 JUMP JUMPDEST SWAP1 POP SWAP2 SWAP1 POP JUMP JUMPDEST PUSH1 0x0 PUSH1 0x20 DUP3 ADD SWAP1 POP DUP2 DUP2 SUB PUSH1 0x0 DUP4 ADD MSTORE PUSH3 0x44C DUP2 PUSH3 0x3CB JUMP JUMPDEST SWAP1 POP SWAP2 SWAP1 POP JUMP JUMPDEST PUSH1 0x0 DUP3 DUP3 MSTORE PUSH1 0x20 DUP3 ADD SWAP1 POP SWAP3 SWAP2 POP POP JUMP JUMPDEST PUSH1 0x0 PUSH3 0x471 DUP3 PUSH3 0x478 JUMP JUMPDEST SWAP1 POP SWAP2 SWAP1 POP JUMP JUMPDEST PUSH1 0x0 PUSH20 0xFFFFFFFFFFFFFFFFFFFFFFFFFFFFFFFFFFFFFFFF DUP3 AND SWAP1 POP SWAP2 SWAP1 POP JUMP JUMPDEST PUSH1 0x0 DUP1 REVERT JUMPDEST PUSH32 0x4F776E61626C653A206E6577206F776E657220697320746865207A65726F2061 PUSH1 0x0 DUP3 ADD MSTORE PUSH32 0x6464726573730000000000000000000000000000000000000000000000000000 PUSH1 0x20 DUP3 ADD MSTORE POP JUMP JUMPDEST PUSH32 0x4F776E61626C653A2063616C6C6572206973206E6F7420746865206F776E6572 PUSH1 0x0 DUP3 ADD MSTORE POP JUMP JUMPDEST PUSH3 0x520 DUP2 PUSH3 0x464 JUMP JUMPDEST DUP2 EQ PUSH3 0x52C JUMPI PUSH1 0x0 DUP1 REVERT JUMPDEST POP JUMP JUMPDEST PUSH1 0x80 MLOAD PUSH1 0x60 SHR PUSH2 0x6F1 PUSH3 0x555 PUSH1 0x0 CODECOPY PUSH1 0x0 DUP2 DUP2 PUSH2 0x10D ADD MSTORE PUSH2 0x1DE ADD MSTORE PUSH2 0x6F1 PUSH1 0x0 RETURN INVALID PUSH1 0x80 PUSH1 0x40 MSTORE CALLVALUE DUP1 ISZERO PUSH2 0x10 JUMPI PUSH1 0x0 DUP1 REVERT JUMPDEST POP PUSH1 0x4 CALLDATASIZE LT PUSH2 0x62 JUMPI PUSH1 0x0 CALLDATALOAD PUSH1 0xE0 SHR DUP1 PUSH4 0x1C1B8772 EQ PUSH2 0x67 JUMPI DUP1 PUSH4 0x5C60DA1B EQ PUSH2 0x83 JUMPI DUP1 PUSH4 0x715018A6 EQ PUSH2 0xA1 JUMPI DUP1 PUSH4 0x8DA5CB5B EQ PUSH2 0xAB JUMPI DUP1 PUSH4 0xC05EFA15 EQ PUSH2 0xC9 JUMPI DUP1 PUSH4 0xF2FDE38B EQ PUSH2 0xE7 JUMPI JUMPDEST PUSH1 0x0 DUP1 REVERT JUMPDEST PUSH2 0x81 PUSH1 0x4 DUP1 CALLDATASIZE SUB DUP2 ADD SWAP1 PUSH2 0x7C SWAP2 SWAP1 PUSH2 0x4DA JUMP JUMPDEST PUSH2 0x103 JUMP JUMPDEST STOP JUMPDEST PUSH2 0x8B PUSH2 0x1DA JUMP JUMPDEST PUSH1 0x40 MLOAD PUSH2 0x98 SWAP2 SWAP1 PUSH2 0x589 JUMP JUMPDEST PUSH1 0x40 MLOAD DUP1 SWAP2 SUB SWAP1 RETURN JUMPDEST PUSH2 0xA9 PUSH2 0x27F JUMP JUMPDEST STOP JUMPDEST PUSH2 0xB3 PUSH2 0x293 JUMP JUMPDEST PUSH1 0x40 MLOAD PUSH2 0xC0 SWAP2 SWAP1 PUSH2 0x589 JUMP JUMPDEST PUSH1 0x40 MLOAD DUP1 SWAP2 SUB SWAP1 RETURN JUMPDEST PUSH2 0xD1 PUSH2 0x2BC JUMP JUMPDEST PUSH1 0x40 MLOAD PUSH2 0xDE SWAP2 SWAP1 PUSH2 0x589 JUMP JUMPDEST PUSH1 0x40 MLOAD DUP1 SWAP2 SUB SWAP1 RETURN JUMPDEST PUSH2 0x101 PUSH1 0x4 DUP1 CALLDATASIZE SUB DUP2 ADD SWAP1 PUSH2 0xFC SWAP2 SWAP1 PUSH2 0x4DA JUMP JUMPDEST PUSH2 0x2E2 JUMP JUMPDEST STOP JUMPDEST PUSH2 0x10B PUSH2 0x366 JUMP JUMPDEST PUSH32 0x0 PUSH20 0xFFFFFFFFFFFFFFFFFFFFFFFFFFFFFFFFFFFFFFFF AND PUSH4 0x3659CFE6 DUP3 PUSH1 0x40 MLOAD DUP3 PUSH4 0xFFFFFFFF AND PUSH1 0xE0 SHL DUP2 MSTORE PUSH1 0x4 ADD PUSH2 0x164 SWAP2 SWAP1 PUSH2 0x589 JUMP JUMPDEST PUSH1 0x0 PUSH1 0x40 MLOAD DUP1 DUP4 SUB DUP2 PUSH1 0x0 DUP8 DUP1 EXTCODESIZE ISZERO DUP1 ISZERO PUSH2 0x17E JUMPI PUSH1 0x0 DUP1 REVERT JUMPDEST POP GAS CALL ISZERO DUP1 ISZERO PUSH2 0x192 JUMPI RETURNDATASIZE PUSH1 0x0 DUP1 RETURNDATACOPY RETURNDATASIZE PUSH1 0x0 REVERT JUMPDEST POP POP POP POP DUP1 PUSH1 0x1 PUSH1 0x0 PUSH2 0x100 EXP DUP2 SLOAD DUP2 PUSH20 0xFFFFFFFFFFFFFFFFFFFFFFFFFFFFFFFFFFFFFFFF MUL NOT AND SWAP1 DUP4 PUSH20 0xFFFFFFFFFFFFFFFFFFFFFFFFFFFFFFFFFFFFFFFF AND MUL OR SWAP1 SSTORE POP POP JUMP JUMPDEST PUSH1 0x0 PUSH32 0x0 PUSH20 0xFFFFFFFFFFFFFFFFFFFFFFFFFFFFFFFFFFFFFFFF AND PUSH4 0x5C60DA1B PUSH1 0x40 MLOAD DUP2 PUSH4 0xFFFFFFFF AND PUSH1 0xE0 SHL DUP2 MSTORE PUSH1 0x4 ADD PUSH1 0x20 PUSH1 0x40 MLOAD DUP1 DUP4 SUB DUP2 DUP7 DUP1 EXTCODESIZE ISZERO DUP1 ISZERO PUSH2 0x242 JUMPI PUSH1 0x0 DUP1 REVERT JUMPDEST POP GAS STATICCALL ISZERO DUP1 ISZERO PUSH2 0x256 JUMPI RETURNDATASIZE PUSH1 0x0 DUP1 RETURNDATACOPY RETURNDATASIZE PUSH1 0x0 REVERT JUMPDEST POP POP POP POP PUSH1 0x40 MLOAD RETURNDATASIZE PUSH1 0x1F NOT PUSH1 0x1F DUP3 ADD AND DUP3 ADD DUP1 PUSH1 0x40 MSTORE POP DUP2 ADD SWAP1 PUSH2 0x27A SWAP2 SWAP1 PUSH2 0x507 JUMP JUMPDEST SWAP1 POP SWAP1 JUMP JUMPDEST PUSH2 0x287 PUSH2 0x366 JUMP JUMPDEST PUSH2 0x291 PUSH1 0x0 PUSH2 0x3E4 JUMP JUMPDEST JUMP JUMPDEST PUSH1 0x0 DUP1 PUSH1 0x0 SWAP1 SLOAD SWAP1 PUSH2 0x100 EXP SWAP1 DIV PUSH20 0xFFFFFFFFFFFFFFFFFFFFFFFFFFFFFFFFFFFFFFFF AND SWAP1 POP SWAP1 JUMP JUMPDEST PUSH1 0x1 PUSH1 0x0 SWAP1 SLOAD SWAP1 PUSH2 0x100 EXP SWAP1 DIV PUSH20 0xFFFFFFFFFFFFFFFFFFFFFFFFFFFFFFFFFFFFFFFF AND DUP2 JUMP JUMPDEST PUSH2 0x2EA PUSH2 0x366 JUMP JUMPDEST PUSH1 0x0 PUSH20 0xFFFFFFFFFFFFFFFFFFFFFFFFFFFFFFFFFFFFFFFF AND DUP2 PUSH20 0xFFFFFFFFFFFFFFFFFFFFFFFFFFFFFFFFFFFFFFFF AND EQ ISZERO PUSH2 0x35A JUMPI PUSH1 0x40 MLOAD PUSH32 0x8C379A000000000000000000000000000000000000000000000000000000000 DUP2 MSTORE PUSH1 0x4 ADD PUSH2 0x351 SWAP1 PUSH2 0x5A4 JUMP JUMPDEST PUSH1 0x40 MLOAD DUP1 SWAP2 SUB SWAP1 REVERT JUMPDEST PUSH2 0x363 DUP2 PUSH2 0x3E4 JUMP JUMPDEST POP JUMP JUMPDEST PUSH2 0x36E PUSH2 0x4A8 JUMP JUMPDEST PUSH20 0xFFFFFFFFFFFFFFFFFFFFFFFFFFFFFFFFFFFFFFFF AND PUSH2 0x38C PUSH2 0x293 JUMP JUMPDEST PUSH20 0xFFFFFFFFFFFFFFFFFFFFFFFFFFFFFFFFFFFFFFFF AND EQ PUSH2 0x3E2 JUMPI PUSH1 0x40 MLOAD PUSH32 0x8C379A000000000000000000000000000000000000000000000000000000000 DUP2 MSTORE PUSH1 0x4 ADD PUSH2 0x3D9 SWAP1 PUSH2 0x5C4 JUMP JUMPDEST PUSH1 0x40 MLOAD DUP1 SWAP2 SUB SWAP1 REVERT JUMPDEST JUMP JUMPDEST PUSH1 0x0 DUP1 PUSH1 0x0 SWAP1 SLOAD SWAP1 PUSH2 0x100 EXP SWAP1 DIV PUSH20 0xFFFFFFFFFFFFFFFFFFFFFFFFFFFFFFFFFFFFFFFF AND SWAP1 POP DUP2 PUSH1 0x0 DUP1 PUSH2 0x100 EXP DUP2 SLOAD DUP2 PUSH20 0xFFFFFFFFFFFFFFFFFFFFFFFFFFFFFFFFFFFFFFFF MUL NOT AND SWAP1 DUP4 PUSH20 0xFFFFFFFFFFFFFFFFFFFFFFFFFFFFFFFFFFFFFFFF AND MUL OR SWAP1 SSTORE POP DUP2 PUSH20 0xFFFFFFFFFFFFFFFFFFFFFFFFFFFFFFFFFFFFFFFF AND DUP2 PUSH20 0xFFFFFFFFFFFFFFFFFFFFFFFFFFFFFFFFFFFFFFFF AND PUSH32 0x8BE0079C531659141344CD1FD0A4F28419497F9722A3DAAFE3B4186F6B6457E0 PUSH1 0x40 MLOAD PUSH1 0x40 MLOAD DUP1 SWAP2 SUB SWAP1 LOG3 POP POP JUMP JUMPDEST PUSH1 0x0 CALLER SWAP1 POP SWAP1 JUMP JUMPDEST PUSH1 0x0 DUP2 CALLDATALOAD SWAP1 POP PUSH2 0x4BF DUP2 PUSH2 0x6A4 JUMP JUMPDEST SWAP3 SWAP2 POP POP JUMP JUMPDEST PUSH1 0x0 DUP2 MLOAD SWAP1 POP PUSH2 0x4D4 DUP2 PUSH2 0x6A4 JUMP JUMPDEST SWAP3 SWAP2 POP POP JUMP JUMPDEST PUSH1 0x0 PUSH1 0x20 DUP3 DUP5 SUB SLT ISZERO PUSH2 0x4F0 JUMPI PUSH2 0x4EF PUSH2 0x627 JUMP JUMPDEST JUMPDEST PUSH1 0x0 PUSH2 0x4FE DUP5 DUP3 DUP6 ADD PUSH2 0x4B0 JUMP JUMPDEST SWAP2 POP POP SWAP3 SWAP2 POP POP JUMP JUMPDEST PUSH1 0x0 PUSH1 0x20 DUP3 DUP5 SUB SLT ISZERO PUSH2 0x51D JUMPI PUSH2 0x51C PUSH2 0x627 JUMP JUMPDEST JUMPDEST PUSH1 0x0 PUSH2 0x52B DUP5 DUP3 DUP6 ADD PUSH2 0x4C5 JUMP JUMPDEST SWAP2 POP POP SWAP3 SWAP2 POP POP JUMP JUMPDEST PUSH2 0x53D DUP2 PUSH2 0x5F5 JUMP JUMPDEST DUP3 MSTORE POP POP JUMP JUMPDEST PUSH1 0x0 PUSH2 0x550 PUSH1 0x26 DUP4 PUSH2 0x5E4 JUMP JUMPDEST SWAP2 POP PUSH2 0x55B DUP3 PUSH2 0x62C JUMP JUMPDEST PUSH1 0x40 DUP3 ADD SWAP1 POP SWAP2 SWAP1 POP JUMP JUMPDEST PUSH1 0x0 PUSH2 0x573 PUSH1 0x20 DUP4 PUSH2 0x5E4 JUMP JUMPDEST SWAP2 POP PUSH2 0x57E DUP3 PUSH2 0x67B JUMP JUMPDEST PUSH1 0x20 DUP3 ADD SWAP1 POP SWAP2 SWAP1 POP JUMP JUMPDEST PUSH1 0x0 PUSH1 0x20 DUP3 ADD SWAP1 POP PUSH2 0x59E PUSH1 0x0 DUP4 ADD DUP5 PUSH2 0x534 JUMP JUMPDEST SWAP3 SWAP2 POP POP JUMP JUMPDEST PUSH1 0x0 PUSH1 0x20 DUP3 ADD SWAP1 POP DUP2 DUP2 SUB PUSH1 0x0 DUP4 ADD MSTORE PUSH2 0x5BD DUP2 PUSH2 0x543 JUMP JUMPDEST SWAP1 POP SWAP2 SWAP1 POP JUMP JUMPDEST PUSH1 0x0 PUSH1 0x20 DUP3 ADD SWAP1 POP DUP2 DUP2 SUB PUSH1 0x0 DUP4 ADD MSTORE PUSH2 0x5DD DUP2 PUSH2 0x566 JUMP JUMPDEST SWAP1 POP SWAP2 SWAP1 POP JUMP JUMPDEST PUSH1 0x0 DUP3 DUP3 MSTORE PUSH1 0x20 DUP3 ADD SWAP1 POP SWAP3 SWAP2 POP POP JUMP JUMPDEST PUSH1 0x0 PUSH2 0x600 DUP3 PUSH2 0x607 JUMP JUMPDEST SWAP1 POP SWAP2 SWAP1 POP JUMP JUMPDEST PUSH1 0x0 PUSH20 0xFFFFFFFFFFFFFFFFFFFFFFFFFFFFFFFFFFFFFFFF DUP3 AND SWAP1 POP SWAP2 SWAP1 POP JUMP JUMPDEST PUSH1 0x0 DUP1 REVERT JUMPDEST PUSH32 0x4F776E61626C653A206E6577206F776E657220697320746865207A65726F2061 PUSH1 0x0 DUP3 ADD MSTORE PUSH32 0x6464726573730000000000000000000000000000000000000000000000000000 PUSH1 0x20 DUP3 ADD MSTORE POP JUMP JUMPDEST PUSH32 0x4F776E61626C653A2063616C6C6572206973206E6F7420746865206F776E6572 PUSH1 0x0 DUP3 ADD MSTORE POP JUMP JUMPDEST PUSH2 0x6AD DUP2 PUSH2 0x5F5 JUMP JUMPDEST DUP2 EQ PUSH2 0x6B8 JUMPI PUSH1 0x0 DUP1 REVERT JUMPDEST POP JUMP INVALID LOG2 PUSH5 0x6970667358 0x22 SLT KECCAK256 0xEE 0xBF DUP5 JUMPDEST 0xDF OR SMOD SGT PUSH29 0x99E9AEC7B447EA7F3F14C31AE08A7DA58392C2389F302A64736F6C6343 STOP ADDMOD SMOD STOP CALLER PUSH1 0x80 PUSH1 0x40 MSTORE CALLVALUE DUP1 ISZERO PUSH2 0x10 JUMPI PUSH1 0x0 DUP1 REVERT JUMPDEST POP PUSH1 0x40 MLOAD PUSH2 0x9D0 CODESIZE SUB DUP1 PUSH2 0x9D0 DUP4 CODECOPY DUP2 DUP2 ADD PUSH1 0x40 MSTORE DUP2 ADD SWAP1 PUSH2 0x32 SWAP2 SWAP1 PUSH2 0x1FD JUMP JUMPDEST PUSH2 0x4E PUSH2 0x43 PUSH2 0x63 PUSH1 0x20 SHL PUSH1 0x20 SHR JUMP JUMPDEST PUSH2 0x6B PUSH1 0x20 SHL PUSH1 0x20 SHR JUMP JUMPDEST PUSH2 0x5D DUP2 PUSH2 0x12F PUSH1 0x20 SHL PUSH1 0x20 SHR JUMP JUMPDEST POP PUSH2 0x31B JUMP JUMPDEST PUSH1 0x0 CALLER SWAP1 POP SWAP1 JUMP JUMPDEST PUSH1 0x0 DUP1 PUSH1 0x0 SWAP1 SLOAD SWAP1 PUSH2 0x100 EXP SWAP1 DIV PUSH20 0xFFFFFFFFFFFFFFFFFFFFFFFFFFFFFFFFFFFFFFFF AND SWAP1 POP DUP2 PUSH1 0x0 DUP1 PUSH2 0x100 EXP DUP2 SLOAD DUP2 PUSH20 0xFFFFFFFFFFFFFFFFFFFFFFFFFFFFFFFFFFFFFFFF MUL NOT AND SWAP1 DUP4 PUSH20 0xFFFFFFFFFFFFFFFFFFFFFFFFFFFFFFFFFFFFFFFF AND MUL OR SWAP1 SSTORE POP DUP2 PUSH20 0xFFFFFFFFFFFFFFFFFFFFFFFFFFFFFFFFFFFFFFFF AND DUP2 PUSH20 0xFFFFFFFFFFFFFFFFFFFFFFFFFFFFFFFFFFFFFFFF AND PUSH32 0x8BE0079C531659141344CD1FD0A4F28419497F9722A3DAAFE3B4186F6B6457E0 PUSH1 0x40 MLOAD PUSH1 0x40 MLOAD DUP1 SWAP2 SUB SWAP1 LOG3 POP POP JUMP JUMPDEST PUSH2 0x142 DUP2 PUSH2 0x1C5 PUSH1 0x20 SHL PUSH2 0x21C OR PUSH1 0x20 SHR JUMP JUMPDEST PUSH2 0x181 JUMPI PUSH1 0x40 MLOAD PUSH32 0x8C379A000000000000000000000000000000000000000000000000000000000 DUP2 MSTORE PUSH1 0x4 ADD PUSH2 0x178 SWAP1 PUSH2 0x24D JUMP JUMPDEST PUSH1 0x40 MLOAD DUP1 SWAP2 SUB SWAP1 REVERT JUMPDEST DUP1 PUSH1 0x1 PUSH1 0x0 PUSH2 0x100 EXP DUP2 SLOAD DUP2 PUSH20 0xFFFFFFFFFFFFFFFFFFFFFFFFFFFFFFFFFFFFFFFF MUL NOT AND SWAP1 DUP4 PUSH20 0xFFFFFFFFFFFFFFFFFFFFFFFFFFFFFFFFFFFFFFFF AND MUL OR SWAP1 SSTORE POP POP JUMP JUMPDEST PUSH1 0x0 DUP1 DUP3 PUSH20 0xFFFFFFFFFFFFFFFFFFFFFFFFFFFFFFFFFFFFFFFF AND EXTCODESIZE GT SWAP1 POP SWAP2 SWAP1 POP JUMP JUMPDEST PUSH1 0x0 DUP2 MLOAD SWAP1 POP PUSH2 0x1F7 DUP2 PUSH2 0x304 JUMP JUMPDEST SWAP3 SWAP2 POP POP JUMP JUMPDEST PUSH1 0x0 PUSH1 0x20 DUP3 DUP5 SUB SLT ISZERO PUSH2 0x213 JUMPI PUSH2 0x212 PUSH2 0x2B0 JUMP JUMPDEST JUMPDEST PUSH1 0x0 PUSH2 0x221 DUP5 DUP3 DUP6 ADD PUSH2 0x1E8 JUMP JUMPDEST SWAP2 POP POP SWAP3 SWAP2 POP POP JUMP JUMPDEST PUSH1 0x0 PUSH2 0x237 PUSH1 0x33 DUP4 PUSH2 0x26D JUMP JUMPDEST SWAP2 POP PUSH2 0x242 DUP3 PUSH2 0x2B5 JUMP JUMPDEST PUSH1 0x40 DUP3 ADD SWAP1 POP SWAP2 SWAP1 POP JUMP JUMPDEST PUSH1 0x0 PUSH1 0x20 DUP3 ADD SWAP1 POP DUP2 DUP2 SUB PUSH1 0x0 DUP4 ADD MSTORE PUSH2 0x266 DUP2 PUSH2 0x22A JUMP JUMPDEST SWAP1 POP SWAP2 SWAP1 POP JUMP JUMPDEST PUSH1 0x0 DUP3 DUP3 MSTORE PUSH1 0x20 DUP3 ADD SWAP1 POP SWAP3 SWAP2 POP POP JUMP JUMPDEST PUSH1 0x0 PUSH2 0x289 DUP3 PUSH2 0x290 JUMP JUMPDEST SWAP1 POP SWAP2 SWAP1 POP JUMP JUMPDEST PUSH1 0x0 PUSH20 0xFFFFFFFFFFFFFFFFFFFFFFFFFFFFFFFFFFFFFFFF DUP3 AND SWAP1 POP SWAP2 SWAP1 POP JUMP JUMPDEST PUSH1 0x0 DUP1 REVERT JUMPDEST PUSH32 0x5570677261646561626C65426561636F6E3A20696D706C656D656E746174696F PUSH1 0x0 DUP3 ADD MSTORE PUSH32 0x6E206973206E6F74206120636F6E747261637400000000000000000000000000 PUSH1 0x20 DUP3 ADD MSTORE POP JUMP JUMPDEST PUSH2 0x30D DUP2 PUSH2 0x27E JUMP JUMPDEST DUP2 EQ PUSH2 0x318 JUMPI PUSH1 0x0 DUP1 REVERT JUMPDEST POP JUMP JUMPDEST PUSH2 0x6A6 DUP1 PUSH2 0x32A PUSH1 0x0 CODECOPY PUSH1 0x0 RETURN INVALID PUSH1 0x80 PUSH1 0x40 MSTORE CALLVALUE DUP1 ISZERO PUSH2 0x10 JUMPI PUSH1 0x0 DUP1 REVERT JUMPDEST POP PUSH1 0x4 CALLDATASIZE LT PUSH2 0x57 JUMPI PUSH1 0x0 CALLDATALOAD PUSH1 0xE0 SHR DUP1 PUSH4 0x3659CFE6 EQ PUSH2 0x5C JUMPI DUP1 PUSH4 0x5C60DA1B EQ PUSH2 0x78 JUMPI DUP1 PUSH4 0x715018A6 EQ PUSH2 0x96 JUMPI DUP1 PUSH4 0x8DA5CB5B EQ PUSH2 0xA0 JUMPI DUP1 PUSH4 0xF2FDE38B EQ PUSH2 0xBE JUMPI JUMPDEST PUSH1 0x0 DUP1 REVERT JUMPDEST PUSH2 0x76 PUSH1 0x4 DUP1 CALLDATASIZE SUB DUP2 ADD SWAP1 PUSH2 0x71 SWAP2 SWAP1 PUSH2 0x42A JUMP JUMPDEST PUSH2 0xDA JUMP JUMPDEST STOP JUMPDEST PUSH2 0x80 PUSH2 0x131 JUMP JUMPDEST PUSH1 0x40 MLOAD PUSH2 0x8D SWAP2 SWAP1 PUSH2 0x4CF JUMP JUMPDEST PUSH1 0x40 MLOAD DUP1 SWAP2 SUB SWAP1 RETURN JUMPDEST PUSH2 0x9E PUSH2 0x15B JUMP JUMPDEST STOP JUMPDEST PUSH2 0xA8 PUSH2 0x16F JUMP JUMPDEST PUSH1 0x40 MLOAD PUSH2 0xB5 SWAP2 SWAP1 PUSH2 0x4CF JUMP JUMPDEST PUSH1 0x40 MLOAD DUP1 SWAP2 SUB SWAP1 RETURN JUMPDEST PUSH2 0xD8 PUSH1 0x4 DUP1 CALLDATASIZE SUB DUP2 ADD SWAP1 PUSH2 0xD3 SWAP2 SWAP1 PUSH2 0x42A JUMP JUMPDEST PUSH2 0x198 JUMP JUMPDEST STOP JUMPDEST PUSH2 0xE2 PUSH2 0x23F JUMP JUMPDEST PUSH2 0xEB DUP2 PUSH2 0x2BD JUMP JUMPDEST DUP1 PUSH20 0xFFFFFFFFFFFFFFFFFFFFFFFFFFFFFFFFFFFFFFFF AND PUSH32 0xBC7CD75A20EE27FD9ADEBAB32041F755214DBC6BFFA90CC0225B39DA2E5C2D3B PUSH1 0x40 MLOAD PUSH1 0x40 MLOAD DUP1 SWAP2 SUB SWAP1 LOG2 POP JUMP JUMPDEST PUSH1 0x0 PUSH1 0x1 PUSH1 0x0 SWAP1 SLOAD SWAP1 PUSH2 0x100 EXP SWAP1 DIV PUSH20 0xFFFFFFFFFFFFFFFFFFFFFFFFFFFFFFFFFFFFFFFF AND SWAP1 POP SWAP1 JUMP JUMPDEST PUSH2 0x163 PUSH2 0x23F JUMP JUMPDEST PUSH2 0x16D PUSH1 0x0 PUSH2 0x349 JUMP JUMPDEST JUMP JUMPDEST PUSH1 0x0 DUP1 PUSH1 0x0 SWAP1 SLOAD SWAP1 PUSH2 0x100 EXP SWAP1 DIV PUSH20 0xFFFFFFFFFFFFFFFFFFFFFFFFFFFFFFFFFFFFFFFF AND SWAP1 POP SWAP1 JUMP JUMPDEST PUSH2 0x1A0 PUSH2 0x23F JUMP JUMPDEST PUSH1 0x0 PUSH20 0xFFFFFFFFFFFFFFFFFFFFFFFFFFFFFFFFFFFFFFFF AND DUP2 PUSH20 0xFFFFFFFFFFFFFFFFFFFFFFFFFFFFFFFFFFFFFFFF AND EQ ISZERO PUSH2 0x210 JUMPI PUSH1 0x40 MLOAD PUSH32 0x8C379A000000000000000000000000000000000000000000000000000000000 DUP2 MSTORE PUSH1 0x4 ADD PUSH2 0x207 SWAP1 PUSH2 0x4EA JUMP JUMPDEST PUSH1 0x40 MLOAD DUP1 SWAP2 SUB SWAP1 REVERT JUMPDEST PUSH2 0x219 DUP2 PUSH2 0x349 JUMP JUMPDEST POP JUMP JUMPDEST PUSH1 0x0 DUP1 DUP3 PUSH20 0xFFFFFFFFFFFFFFFFFFFFFFFFFFFFFFFFFFFFFFFF AND EXTCODESIZE GT SWAP1 POP SWAP2 SWAP1 POP JUMP JUMPDEST PUSH2 0x247 PUSH2 0x40D JUMP JUMPDEST PUSH20 0xFFFFFFFFFFFFFFFFFFFFFFFFFFFFFFFFFFFFFFFF AND PUSH2 0x265 PUSH2 0x16F JUMP JUMPDEST PUSH20 0xFFFFFFFFFFFFFFFFFFFFFFFFFFFFFFFFFFFFFFFF AND EQ PUSH2 0x2BB JUMPI PUSH1 0x40 MLOAD PUSH32 0x8C379A000000000000000000000000000000000000000000000000000000000 DUP2 MSTORE PUSH1 0x4 ADD PUSH2 0x2B2 SWAP1 PUSH2 0x52A JUMP JUMPDEST PUSH1 0x40 MLOAD DUP1 SWAP2 SUB SWAP1 REVERT JUMPDEST JUMP JUMPDEST PUSH2 0x2C6 DUP2 PUSH2 0x21C JUMP JUMPDEST PUSH2 0x305 JUMPI PUSH1 0x40 MLOAD PUSH32 0x8C379A000000000000000000000000000000000000000000000000000000000 DUP2 MSTORE PUSH1 0x4 ADD PUSH2 0x2FC SWAP1 PUSH2 0x50A JUMP JUMPDEST PUSH1 0x40 MLOAD DUP1 SWAP2 SUB SWAP1 REVERT JUMPDEST DUP1 PUSH1 0x1 PUSH1 0x0 PUSH2 0x100 EXP DUP2 SLOAD DUP2 PUSH20 0xFFFFFFFFFFFFFFFFFFFFFFFFFFFFFFFFFFFFFFFF MUL NOT AND SWAP1 DUP4 PUSH20 0xFFFFFFFFFFFFFFFFFFFFFFFFFFFFFFFFFFFFFFFF AND MUL OR SWAP1 SSTORE POP POP JUMP JUMPDEST PUSH1 0x0 DUP1 PUSH1 0x0 SWAP1 SLOAD SWAP1 PUSH2 0x100 EXP SWAP1 DIV PUSH20 0xFFFFFFFFFFFFFFFFFFFFFFFFFFFFFFFFFFFFFFFF AND SWAP1 POP DUP2 PUSH1 0x0 DUP1 PUSH2 0x100 EXP DUP2 SLOAD DUP2 PUSH20 0xFFFFFFFFFFFFFFFFFFFFFFFFFFFFFFFFFFFFFFFF MUL NOT AND SWAP1 DUP4 PUSH20 0xFFFFFFFFFFFFFFFFFFFFFFFFFFFFFFFFFFFFFFFF AND MUL OR SWAP1 SSTORE POP DUP2 PUSH20 0xFFFFFFFFFFFFFFFFFFFFFFFFFFFFFFFFFFFFFFFF AND DUP2 PUSH20 0xFFFFFFFFFFFFFFFFFFFFFFFFFFFFFFFFFFFFFFFF AND PUSH32 0x8BE0079C531659141344CD1FD0A4F28419497F9722A3DAAFE3B4186F6B6457E0 PUSH1 0x40 MLOAD PUSH1 0x40 MLOAD DUP1 SWAP2 SUB SWAP1 LOG3 POP POP JUMP JUMPDEST PUSH1 0x0 CALLER SWAP1 POP SWAP1 JUMP JUMPDEST PUSH1 0x0 DUP2 CALLDATALOAD SWAP1 POP PUSH2 0x424 DUP2 PUSH2 0x659 JUMP JUMPDEST SWAP3 SWAP2 POP POP JUMP JUMPDEST PUSH1 0x0 PUSH1 0x20 DUP3 DUP5 SUB SLT ISZERO PUSH2 0x440 JUMPI PUSH2 0x43F PUSH2 0x58D JUMP JUMPDEST JUMPDEST PUSH1 0x0 PUSH2 0x44E DUP5 DUP3 DUP6 ADD PUSH2 0x415 JUMP JUMPDEST SWAP2 POP POP SWAP3 SWAP2 POP POP JUMP JUMPDEST PUSH2 0x460 DUP2 PUSH2 0x55B JUMP JUMPDEST DUP3 MSTORE POP POP JUMP JUMPDEST PUSH1 0x0 PUSH2 0x473 PUSH1 0x26 DUP4 PUSH2 0x54A JUMP JUMPDEST SWAP2 POP PUSH2 0x47E DUP3 PUSH2 0x592 JUMP JUMPDEST PUSH1 0x40 DUP3 ADD SWAP1 POP SWAP2 SWAP1 POP JUMP JUMPDEST PUSH1 0x0 PUSH2 0x496 PUSH1 0x33 DUP4 PUSH2 0x54A JUMP JUMPDEST SWAP2 POP PUSH2 0x4A1 DUP3 PUSH2 0x5E1 JUMP JUMPDEST PUSH1 0x40 DUP3 ADD SWAP1 POP SWAP2 SWAP1 POP JUMP JUMPDEST PUSH1 0x0 PUSH2 0x4B9 PUSH1 0x20 DUP4 PUSH2 0x54A JUMP JUMPDEST SWAP2 POP PUSH2 0x4C4 DUP3 PUSH2 0x630 JUMP JUMPDEST PUSH1 0x20 DUP3 ADD SWAP1 POP SWAP2 SWAP1 POP JUMP JUMPDEST PUSH1 0x0 PUSH1 0x20 DUP3 ADD SWAP1 POP PUSH2 0x4E4 PUSH1 0x0 DUP4 ADD DUP5 PUSH2 0x457 JUMP JUMPDEST SWAP3 SWAP2 POP POP JUMP JUMPDEST PUSH1 0x0 PUSH1 0x20 DUP3 ADD SWAP1 POP DUP2 DUP2 SUB PUSH1 0x0 DUP4 ADD MSTORE PUSH2 0x503 DUP2 PUSH2 0x466 JUMP JUMPDEST SWAP1 POP SWAP2 SWAP1 POP JUMP JUMPDEST PUSH1 0x0 PUSH1 0x20 DUP3 ADD SWAP1 POP DUP2 DUP2 SUB PUSH1 0x0 DUP4 ADD MSTORE PUSH2 0x523 DUP2 PUSH2 0x489 JUMP JUMPDEST SWAP1 POP SWAP2 SWAP1 POP JUMP JUMPDEST PUSH1 0x0 PUSH1 0x20 DUP3 ADD SWAP1 POP DUP2 DUP2 SUB PUSH1 0x0 DUP4 ADD MSTORE PUSH2 0x543 DUP2 PUSH2 0x4AC JUMP JUMPDEST SWAP1 POP SWAP2 SWAP1 POP JUMP JUMPDEST PUSH1 0x0 DUP3 DUP3 MSTORE PUSH1 0x20 DUP3 ADD SWAP1 POP SWAP3 SWAP2 POP POP JUMP JUMPDEST PUSH1 0x0 PUSH2 0x566 DUP3 PUSH2 0x56D JUMP JUMPDEST SWAP1 POP SWAP2 SWAP1 POP JUMP JUMPDEST PUSH1 0x0 PUSH20 0xFFFFFFFFFFFFFFFFFFFFFFFFFFFFFFFFFFFFFFFF DUP3 AND SWAP1 POP SWAP2 SWAP1 POP JUMP JUMPDEST PUSH1 0x0 DUP1 REVERT JUMPDEST PUSH32 0x4F776E61626C653A206E6577206F776E657220697320746865207A65726F2061 PUSH1 0x0 DUP3 ADD MSTORE PUSH32 0x6464726573730000000000000000000000000000000000000000000000000000 PUSH1 0x20 DUP3 ADD MSTORE POP JUMP JUMPDEST PUSH32 0x5570677261646561626C65426561636F6E3A20696D706C656D656E746174696F PUSH1 0x0 DUP3 ADD MSTORE PUSH32 0x6E206973206E6F74206120636F6E747261637400000000000000000000000000 PUSH1 0x20 DUP3 ADD MSTORE POP JUMP JUMPDEST PUSH32 0x4F776E61626C653A2063616C6C6572206973206E6F7420746865206F776E6572 PUSH1 0x0 DUP3 ADD MSTORE POP JUMP JUMPDEST PUSH2 0x662 DUP2 PUSH2 0x55B JUMP JUMPDEST DUP2 EQ PUSH2 0x66D JUMPI PUSH1 0x0 DUP1 REVERT JUMPDEST POP JUMP INVALID LOG2 PUSH5 0x6970667358 0x22 SLT KECCAK256 MSTORE MSIZE 0x5C PUSH7 0x18C746A592C7BD SWAP15 GASPRICE 0xF6 GASPRICE DUP7 0xE9 0x29 CALLDATASIZE LOG1 TIMESTAMP RETURNDATASIZE PUSH7 0x8CDB420347443E 0xC8 JUMPI PUSH5 0x736F6C6343 STOP ADDMOD SMOD STOP CALLER "
		},
		"gasEstimates": {
			"creation": {
				"codeDepositCost": "1230400",
				"executionCost": "infinite",
				"totalCost": "infinite"
			},
			"external": {
				"buildShip(string,uint256,uint32)": "infinite",
				"getBeacon()": "infinite",
				"getImplementation()": "infinite",
				"getShipAddress(uint32)": "2927"
			}
		},
		"methodIdentifiers": {
			"buildShip(string,uint256,uint32)": "a2ffabcb",
			"getBeacon()": "2d6b3a6b",
			"getImplementation()": "aaf10f42",
			"getShipAddress(uint32)": "f0cc31f5"
		}
	},
	"abi": [
		{
			"inputs": [
				{
					"internalType": "address",
					"name": "_initBlueprint",
					"type": "address"
				}
			],
			"stateMutability": "nonpayable",
			"type": "constructor"
		},
		{
			"inputs": [
				{
					"internalType": "string",
					"name": "_name",
					"type": "string"
				},
				{
					"internalType": "uint256",
					"name": "_fuel",
					"type": "uint256"
				},
				{
					"internalType": "uint32",
					"name": "shipId",
					"type": "uint32"
				}
			],
			"name": "buildShip",
			"outputs": [
				{
					"internalType": "address",
					"name": "",
					"type": "address"
				}
			],
			"stateMutability": "nonpayable",
			"type": "function"
		},
		{
			"inputs": [],
			"name": "getBeacon",
			"outputs": [
				{
					"internalType": "address",
					"name": "",
					"type": "address"
				}
			],
			"stateMutability": "view",
			"type": "function"
		},
		{
			"inputs": [],
			"name": "getImplementation",
			"outputs": [
				{
					"internalType": "address",
					"name": "",
					"type": "address"
				}
			],
			"stateMutability": "view",
			"type": "function"
		},
		{
			"inputs": [
				{
					"internalType": "uint32",
					"name": "shipId",
					"type": "uint32"
				}
			],
			"name": "getShipAddress",
			"outputs": [
				{
					"internalType": "address",
					"name": "",
					"type": "address"
				}
			],
			"stateMutability": "view",
			"type": "function"
		}
	]
}