{
	"data": {
		"bytecode": {
			"linkReferences": {},
			"object": "60806040523480156200001157600080fd5b50604051620050e6380380620050e68339818101604052810190620000379190620004cf565b6040518060400160405280600c81526020017f4a6f6c6d616e20546f6b656e00000000000000000000000000000000000000008152506040518060400160405280600381526020017f4a4c540000000000000000000000000000000000000000000000000000000000815250620000c3620000b7620001c860201b60201c565b620001d060201b60201c565b8160049080519060200190620000db929190620003f1565b508060059080519060200190620000f4929190620003f1565b5050506200010c6000801b336200029460201b60201c565b6200013e7f9f2df0fed2c77648de5860a4cc508cd0818c85b8b8a1ab4ceeef8d981c8956a6336200029460201b60201c565b81600760006101000a81548173ffffffffffffffffffffffffffffffffffffffff021916908373ffffffffffffffffffffffffffffffffffffffff16021790555080600860006101000a81548173ffffffffffffffffffffffffffffffffffffffff021916908373ffffffffffffffffffffffffffffffffffffffff160217905550505062000610565b600033905090565b60008060009054906101000a900473ffffffffffffffffffffffffffffffffffffffff169050816000806101000a81548173ffffffffffffffffffffffffffffffffffffffff021916908373ffffffffffffffffffffffffffffffffffffffff1602179055508173ffffffffffffffffffffffffffffffffffffffff168173ffffffffffffffffffffffffffffffffffffffff167f8be0079c531659141344cd1fd0a4f28419497f9722a3daafe3b4186f6b6457e060405160405180910390a35050565b620002a682826200038660201b60201c565b620003825760016006600084815260200190815260200160002060000160008373ffffffffffffffffffffffffffffffffffffffff1673ffffffffffffffffffffffffffffffffffffffff16815260200190815260200160002060006101000a81548160ff02191690831515021790555062000327620001c860201b60201c565b73ffffffffffffffffffffffffffffffffffffffff168173ffffffffffffffffffffffffffffffffffffffff16837f2f8788117e7eff1d82e926ec794901d17c78024a50270940304540a733656f0d60405160405180910390a45b5050565b60006006600084815260200190815260200160002060000160008373ffffffffffffffffffffffffffffffffffffffff1673ffffffffffffffffffffffffffffffffffffffff16815260200190815260200160002060009054906101000a900460ff16905092915050565b828054620003ff9062000572565b90600052602060002090601f0160209004810192826200042357600085556200046f565b82601f106200043e57805160ff19168380011785556200046f565b828001600101855582156200046f579182015b828111156200046e57825182559160200191906001019062000451565b5b5090506200047e919062000482565b5090565b5b808211156200049d57600081600090555060010162000483565b5090565b600081519050620004b281620005dc565b92915050565b600081519050620004c981620005f6565b92915050565b60008060408385031215620004e957620004e8620005d7565b5b6000620004f985828601620004a1565b92505060206200050c85828601620004b8565b9150509250929050565b6000620005238262000552565b9050919050565b6000620005378262000516565b9050919050565b60006200054b8262000516565b9050919050565b600073ffffffffffffffffffffffffffffffffffffffff82169050919050565b600060028204905060018216806200058b57607f821691505b60208210811415620005a257620005a1620005a8565b5b50919050565b7f4e487b7100000000000000000000000000000000000000000000000000000000600052602260045260246000fd5b600080fd5b620005e7816200052a565b8114620005f357600080fd5b50565b62000601816200053e565b81146200060d57600080fd5b50565b614ac680620006206000396000f3fe608060405234801561001057600080fd5b50600436106102535760003560e01c80636abfd18311610146578063a694fc3a116100c3578063d539139311610087578063d539139314610733578063d547741f14610751578063d66692a71461076d578063dd62ed3e1461078b578063e64a21f3146107bb578063f2fde38b146107d757610253565b8063a694fc3a146106a3578063a9059cbb146106bf578063b4efa66d146106ef578063cf39bc8c146106f9578063d279c1911461071757610253565b80639168ae721161010a5780639168ae72146105d657806391d148541461060757806395d89b4114610637578063a217fddf14610655578063a457c2d71461067357610253565b80636abfd1831461054457806370a0823114610562578063715018a61461059257806379cc67901461059c5780638da5cb5b146105b857610253565b80632f2ff15d116101d457806342966c681161019857806342966c681461048e578063491041a4146104aa578063632447c9146104c857806363c28db1146104e45780636a54b9421461051457610253565b80632f2ff15d146103ec578063313ce5671461040857806336568abe14610426578063395093511461044257806340c10f191461047257610253565b80631caaa4871161021b5780631caaa48714610324578063230f436d1461035457806323b872dd14610370578063248a9ca3146103a05780632e17de78146103d057610253565b806301ffc9a71461025857806306fdde0314610288578063095ea7b3146102a6578063150b7a02146102d657806318160ddd14610306575b600080fd5b610272600480360381019061026d9190613646565b6107f3565b60405161027f9190613bea565b60405180910390f35b61029061086d565b60405161029d9190613c71565b60405180910390f35b6102c060048036038101906102bb9190613523565b6108ff565b6040516102cd9190613bea565b60405180910390f35b6102f060048036038101906102eb91906134a0565b610922565b6040516102fd9190613c20565b60405180910390f35b61030e610936565b60405161031b9190613ef3565b60405180910390f35b61033e60048036038101906103399190613673565b610940565b60405161034b9190613b4d565b60405180910390f35b61036e60048036038101906103699190613563565b610973565b005b61038a6004803603810190610385919061344d565b6109ba565b6040516103979190613bea565b60405180910390f35b6103ba60048036038101906103b591906135d9565b6109e9565b6040516103c79190613c05565b60405180910390f35b6103ea60048036038101906103e59190613673565b610a09565b005b61040660048036038101906104019190613606565b610a1f565b005b610410610a40565b60405161041d9190613f60565b60405180910390f35b610440600480360381019061043b9190613606565b610a49565b005b61045c60048036038101906104579190613523565b610acc565b6040516104699190613bea565b60405180910390f35b61048c60048036038101906104879190613523565b610b03565b005b6104a860048036038101906104a39190613673565b610b3c565b005b6104b2610b50565b6040516104bf9190613c56565b60405180910390f35b6104e260048036038101906104dd91906133b3565b610b76565b005b6104fe60048036038101906104f991906133b3565b610d7c565b60405161050b9190613bc8565b60405180910390f35b61052e600480360381019061052991906133b3565b610e16565b60405161053b9190613bc8565b60405180910390f35b61054c610eb6565b6040516105599190613ef3565b60405180910390f35b61057c600480360381019061057791906133b3565b610ebc565b6040516105899190613ef3565b60405180910390f35b61059a610f05565b005b6105b660048036038101906105b19190613523565b610f8d565b005b6105c0610fad565b6040516105cd9190613b4d565b60405180910390f35b6105f060048036038101906105eb91906133b3565b610fd6565b6040516105fe929190613f37565b60405180910390f35b610621600480360381019061061c9190613606565b610ffa565b60405161062e9190613bea565b60405180910390f35b61063f611065565b60405161064c9190613c71565b60405180910390f35b61065d6110f7565b60405161066a9190613c05565b60405180910390f35b61068d60048036038101906106889190613523565b6110fe565b60405161069a9190613bea565b60405180910390f35b6106bd60048036038101906106b89190613673565b611175565b005b6106d960048036038101906106d49190613523565b611182565b6040516106e69190613bea565b60405180910390f35b6106f76111a5565b005b610701611295565b60405161070e9190613c3b565b60405180910390f35b610731600480360381019061072c91906133b3565b6112bb565b005b61073b611644565b6040516107489190613c05565b60405180910390f35b61076b60048036038101906107669190613606565b611668565b005b610775611689565b6040516107829190613ef3565b60405180910390f35b6107a560048036038101906107a0919061340d565b61168f565b6040516107b29190613ef3565b60405180910390f35b6107d560048036038101906107d09190613563565b611716565b005b6107f160048036038101906107ec91906133b3565b6117e8565b005b60007f7965db0b000000000000000000000000000000000000000000000000000000007bffffffffffffffffffffffffffffffffffffffffffffffffffffffff1916827bffffffffffffffffffffffffffffffffffffffffffffffffffffffff191614806108665750610865826118e0565b5b9050919050565b60606004805461087c906142b1565b80601f01602080910402602001604051908101604052809291908181526020018280546108a8906142b1565b80156108f55780601f106108ca576101008083540402835291602001916108f5565b820191906000526020600020905b8154815290600101906020018083116108d857829003601f168201915b5050505050905090565b60008061090a61194a565b9050610917818585611952565b600191505092915050565b600063150b7a0260e01b9050949350505050565b6000600354905090565b600c6020528060005260406000206000915054906101000a900473ffffffffffffffffffffffffffffffffffffffff1681565b60005b81518110156109b6576109a3338383815181106109965761099561444a565b5b6020026020010151611b1d565b80806109ae90614314565b915050610976565b5050565b6000806109c561194a565b90506109d2858285612176565b6109dd858585612202565b60019150509392505050565b600060066000838152602001908152602001600020600101549050919050565b610a12336112bb565b610a1c3382612486565b50565b610a28826109e9565b610a3181612852565b610a3b8383612866565b505050565b60006012905090565b610a5161194a565b73ffffffffffffffffffffffffffffffffffffffff168173ffffffffffffffffffffffffffffffffffffffff1614610abe576040517f08c379a0000000000000000000000000000000000000000000000000000000008152600401610ab590613e93565b60405180910390fd5b610ac88282612947565b5050565b600080610ad761194a565b9050610af8818585610ae9858961168f565b610af3919061405d565b611952565b600191505092915050565b7f9f2df0fed2c77648de5860a4cc508cd0818c85b8b8a1ab4ceeef8d981c8956a6610b2d81612852565b610b378383612a29565b505050565b610b4d610b4761194a565b82612b8a565b50565b600860009054906101000a900473ffffffffffffffffffffffffffffffffffffffff1681565b6000600b60008373ffffffffffffffffffffffffffffffffffffffff1673ffffffffffffffffffffffffffffffffffffffff1681526020019081526020016000209050600081600001905060005b8180549050811015610d7657600a42610bdd919061405d565b836001016000848481548110610bf657610bf561444a565b5b9060005260206000200154815260200190815260200160002054108015610c4f57506000836001016000848481548110610c3357610c3261444a565b5b9060005260206000200154815260200190815260200160002054115b15610d63576000600a846001016000858581548110610c7157610c7061444a565b5b906000526020600020015481526020019081526020016000205442610c96919061413e565b610ca091906140b3565b90506000600a856001016000868681548110610cbf57610cbe61444a565b5b906000526020600020015481526020019081526020016000205442610ce4919061413e565b610cee919061435d565b905081678ac7230489e80000610d0491906140e4565b856002016000828254610d17919061405d565b925050819055508042610d2a919061413e565b856001016000868681548110610d4357610d4261444a565b5b906000526020600020015481526020019081526020016000208190555050505b8080610d6e90614314565b915050610bc4565b50505050565b6060600b60008373ffffffffffffffffffffffffffffffffffffffff1673ffffffffffffffffffffffffffffffffffffffff168152602001908152602001600020600001805480602002602001604051908101604052809291908181526020018280548015610e0a57602002820191906000526020600020905b815481526020019060010190808311610df6575b50505050509050919050565b60606000600b60008473ffffffffffffffffffffffffffffffffffffffff1673ffffffffffffffffffffffffffffffffffffffff168152602001908152602001600020905080600001805480602002602001604051908101604052809291908181526020018280548015610ea957602002820191906000526020600020905b815481526020019060010190808311610e95575b5050505050915050919050565b600a5481565b6000600160008373ffffffffffffffffffffffffffffffffffffffff1673ffffffffffffffffffffffffffffffffffffffff168152602001908152602001600020549050919050565b610f0d61194a565b73ffffffffffffffffffffffffffffffffffffffff16610f2b610fad565b73ffffffffffffffffffffffffffffffffffffffff1614610f81576040517f08c379a0000000000000000000000000000000000000000000000000000000008152600401610f7890613dd3565b60405180910390fd5b610f8b6000612d63565b565b610f9f82610f9961194a565b83612176565b610fa98282612b8a565b5050565b60008060009054906101000a900473ffffffffffffffffffffffffffffffffffffffff16905090565b600b6020528060005260406000206000915090508060020154908060030154905082565b60006006600084815260200190815260200160002060000160008373ffffffffffffffffffffffffffffffffffffffff1673ffffffffffffffffffffffffffffffffffffffff16815260200190815260200160002060009054906101000a900460ff16905092915050565b606060058054611074906142b1565b80601f01602080910402602001604051908101604052809291908181526020018280546110a0906142b1565b80156110ed5780601f106110c2576101008083540402835291602001916110ed565b820191906000526020600020905b8154815290600101906020018083116110d057829003601f168201915b5050505050905090565b6000801b81565b60008061110961194a565b90506000611117828661168f565b90508381101561115c576040517f08c379a000000000000000000000000000000000000000000000000000000000815260040161115390613e73565b60405180910390fd5b6111698286868403611952565b60019250505092915050565b61117f3382611b1d565b50565b60008061118d61194a565b905061119a818585612202565b600191505092915050565b6111ad61194a565b73ffffffffffffffffffffffffffffffffffffffff166111cb610fad565b73ffffffffffffffffffffffffffffffffffffffff1614611221576040517f08c379a000000000000000000000000000000000000000000000000000000000815260040161121890613dd3565b60405180910390fd5b600d60009054906101000a900460ff1615611271576040517f08c379a000000000000000000000000000000000000000000000000000000000815260040161126890613c93565b60405180910390fd5b42600a819055506001600d60006101000a81548160ff021916908315150217905550565b600760009054906101000a900473ffffffffffffffffffffffffffffffffffffffff1681565b6000600b60008373ffffffffffffffffffffffffffffffffffffffff1673ffffffffffffffffffffffffffffffffffffffff1681526020019081526020016000209050600081600001905060005b81805490508110156114bb57600a42611322919061405d565b83600101600084848154811061133b5761133a61444a565b5b9060005260206000200154815260200190815260200160002054108015611394575060008360010160008484815481106113785761137761444a565b5b9060005260206000200154815260200190815260200160002054115b156114a8576000600a8460010160008585815481106113b6576113b561444a565b5b9060005260206000200154815260200190815260200160002054426113db919061413e565b6113e591906140b3565b90506000600a8560010160008686815481106114045761140361444a565b5b906000526020600020015481526020019081526020016000205442611429919061413e565b611433919061435d565b905081678ac7230489e8000061144991906140e4565b85600201600082825461145c919061405d565b92505081905550804261146f919061413e565b8560010160008686815481106114885761148761444a565b5b906000526020600020015481526020019081526020016000208190555050505b80806114b390614314565b915050611309565b50600b60008473ffffffffffffffffffffffffffffffffffffffff1673ffffffffffffffffffffffffffffffffffffffff16815260200190815260200160002060020154600b60008573ffffffffffffffffffffffffffffffffffffffff1673ffffffffffffffffffffffffffffffffffffffff1681526020019081526020016000206003016000828254611550919061405d565b925050819055506115817f9f2df0fed2c77648de5860a4cc508cd0818c85b8b8a1ab4ceeef8d981c8956a633612866565b6115cd83600b60008673ffffffffffffffffffffffffffffffffffffffff1673ffffffffffffffffffffffffffffffffffffffff16815260200190815260200160002060020154610b03565b6115f77f9f2df0fed2c77648de5860a4cc508cd0818c85b8b8a1ab4ceeef8d981c8956a633612947565b6000600b60008573ffffffffffffffffffffffffffffffffffffffff1673ffffffffffffffffffffffffffffffffffffffff16815260200190815260200160002060020181905550505050565b7f9f2df0fed2c77648de5860a4cc508cd0818c85b8b8a1ab4ceeef8d981c8956a681565b611671826109e9565b61167a81612852565b6116848383612947565b505050565b60095481565b6000600260008473ffffffffffffffffffffffffffffffffffffffff1673ffffffffffffffffffffffffffffffffffffffff16815260200190815260200160002060008373ffffffffffffffffffffffffffffffffffffffff1673ffffffffffffffffffffffffffffffffffffffff16815260200190815260200160002054905092915050565b61171f336112bb565b60005b81518110156117e4573373ffffffffffffffffffffffffffffffffffffffff16600c60008484815181106117595761175861444a565b5b6020026020010151815260200190815260200160002060009054906101000a900473ffffffffffffffffffffffffffffffffffffffff1673ffffffffffffffffffffffffffffffffffffffff1614156117d1576117d0338383815181106117c3576117c261444a565b5b6020026020010151612486565b5b80806117dc90614314565b915050611722565b5050565b6117f061194a565b73ffffffffffffffffffffffffffffffffffffffff1661180e610fad565b73ffffffffffffffffffffffffffffffffffffffff1614611864576040517f08c379a000000000000000000000000000000000000000000000000000000000815260040161185b90613dd3565b60405180910390fd5b600073ffffffffffffffffffffffffffffffffffffffff168173ffffffffffffffffffffffffffffffffffffffff1614156118d4576040517f08c379a00000000000000000000000000000000000000000000000000000000081526004016118cb90613d33565b60405180910390fd5b6118dd81612d63565b50565b60007f01ffc9a7000000000000000000000000000000000000000000000000000000007bffffffffffffffffffffffffffffffffffffffffffffffffffffffff1916827bffffffffffffffffffffffffffffffffffffffffffffffffffffffff1916149050919050565b600033905090565b600073ffffffffffffffffffffffffffffffffffffffff168373ffffffffffffffffffffffffffffffffffffffff1614156119c2576040517f08c379a00000000000000000000000000000000000000000000000000000000081526004016119b990613e33565b60405180910390fd5b600073ffffffffffffffffffffffffffffffffffffffff168273ffffffffffffffffffffffffffffffffffffffff161415611a32576040517f08c379a0000000000000000000000000000000000000000000000000000000008152600401611a2990613d53565b60405180910390fd5b80600260008573ffffffffffffffffffffffffffffffffffffffff1673ffffffffffffffffffffffffffffffffffffffff16815260200190815260200160002060008473ffffffffffffffffffffffffffffffffffffffff1673ffffffffffffffffffffffffffffffffffffffff168152602001908152602001600020819055508173ffffffffffffffffffffffffffffffffffffffff168373ffffffffffffffffffffffffffffffffffffffff167f8c5be1e5ebec7d5bd14f71427d1e84f3dd0314c0f7b2291e5b200ac8c7c3b92583604051611b109190613ef3565b60405180910390a3505050565b600060019050600d60009054906101000a900460ff16611b72576040517f08c379a0000000000000000000000000000000000000000000000000000000008152600401611b6990613e53565b60405180910390fd5b8273ffffffffffffffffffffffffffffffffffffffff16600760009054906101000a900473ffffffffffffffffffffffffffffffffffffffff1673ffffffffffffffffffffffffffffffffffffffff16636352211e600860009054906101000a900473ffffffffffffffffffffffffffffffffffffffff1673ffffffffffffffffffffffffffffffffffffffff166345149f8d866040518263ffffffff1660e01b8152600401611c229190613ef3565b60206040518083038186803b158015611c3a57600080fd5b505afa158015611c4e573d6000803e3d6000fd5b505050506040513d601f19601f82011682018060405250810190611c7291906136a0565b6040518263ffffffff1660e01b8152600401611c8e9190613ef3565b60206040518083038186803b158015611ca657600080fd5b505afa158015611cba573d6000803e3d6000fd5b505050506040513d601f19601f82011682018060405250810190611cde91906133e0565b73ffffffffffffffffffffffffffffffffffffffff1614611d34576040517f08c379a0000000000000000000000000000000000000000000000000000000008152600401611d2b90613db3565b60405180910390fd5b60001515600860009054906101000a900473ffffffffffffffffffffffffffffffffffffffff1673ffffffffffffffffffffffffffffffffffffffff1663b6fece2d846040518263ffffffff1660e01b8152600401611d939190613ef3565b60206040518083038186803b158015611dab57600080fd5b505afa158015611dbf573d6000803e3d6000fd5b505050506040513d601f19601f82011682018060405250810190611de391906135ac565b151514611e25576040517f08c379a0000000000000000000000000000000000000000000000000000000008152600401611e1c90613ed3565b60405180910390fd5b6000600b60008573ffffffffffffffffffffffffffffffffffffffff1673ffffffffffffffffffffffffffffffffffffffff1681526020019081526020016000209050600860009054906101000a900473ffffffffffffffffffffffffffffffffffffffff1673ffffffffffffffffffffffffffffffffffffffff1663db12b45085856040518363ffffffff1660e01b8152600401611ec5929190613b9f565b600060405180830381600087803b158015611edf57600080fd5b505af1158015611ef3573d6000803e3d6000fd5b5050505080600001839080600181540180825580915050600190039060005260206000200160009091909190915055428160010160008581526020019081526020016000208190555083600c600085815260200190815260200160002060006101000a81548173ffffffffffffffffffffffffffffffffffffffff021916908373ffffffffffffffffffffffffffffffffffffffff160217905550600860009054906101000a900473ffffffffffffffffffffffffffffffffffffffff1673ffffffffffffffffffffffffffffffffffffffff1663b7ec93fa84846040518363ffffffff1660e01b8152600401611feb929190613f0e565b600060405180830381600087803b15801561200557600080fd5b505af1158015612019573d6000803e3d6000fd5b50505050600760009054906101000a900473ffffffffffffffffffffffffffffffffffffffff1673ffffffffffffffffffffffffffffffffffffffff166342842e0e8530600860009054906101000a900473ffffffffffffffffffffffffffffffffffffffff1673ffffffffffffffffffffffffffffffffffffffff166345149f8d886040518263ffffffff1660e01b81526004016120b89190613ef3565b60206040518083038186803b1580156120d057600080fd5b505afa1580156120e4573d6000803e3d6000fd5b505050506040513d601f19601f8201168201806040525081019061210891906136a0565b6040518463ffffffff1660e01b815260040161212693929190613b68565b600060405180830381600087803b15801561214057600080fd5b505af1158015612154573d6000803e3d6000fd5b505050506009600081548092919061216b90614314565b919050555050505050565b6000612182848461168f565b90507fffffffffffffffffffffffffffffffffffffffffffffffffffffffffffffffff81146121fc57818110156121ee576040517f08c379a00000000000000000000000000000000000000000000000000000000081526004016121e590613d73565b60405180910390fd5b6121fb8484848403611952565b5b50505050565b600073ffffffffffffffffffffffffffffffffffffffff168373ffffffffffffffffffffffffffffffffffffffff161415612272576040517f08c379a000000000000000000000000000000000000000000000000000000000815260040161226990613e13565b60405180910390fd5b600073ffffffffffffffffffffffffffffffffffffffff168273ffffffffffffffffffffffffffffffffffffffff1614156122e2576040517f08c379a00000000000000000000000000000000000000000000000000000000081526004016122d990613cd3565b60405180910390fd5b6122ed838383612e27565b6000600160008573ffffffffffffffffffffffffffffffffffffffff1673ffffffffffffffffffffffffffffffffffffffff16815260200190815260200160002054905081811015612374576040517f08c379a000000000000000000000000000000000000000000000000000000000815260040161236b90613d93565b60405180910390fd5b818103600160008673ffffffffffffffffffffffffffffffffffffffff1673ffffffffffffffffffffffffffffffffffffffff1681526020019081526020016000208190555081600160008573ffffffffffffffffffffffffffffffffffffffff1673ffffffffffffffffffffffffffffffffffffffff1681526020019081526020016000206000828254612409919061405d565b925050819055508273ffffffffffffffffffffffffffffffffffffffff168473ffffffffffffffffffffffffffffffffffffffff167fddf252ad1be2c89b69c2b068fc378daa952ba7f163c4a11628f55a4df523b3ef8460405161246d9190613ef3565b60405180910390a3612480848484612e2c565b50505050565b60008273ffffffffffffffffffffffffffffffffffffffff16600c600084815260200190815260200160002060009054906101000a900473ffffffffffffffffffffffffffffffffffffffff1673ffffffffffffffffffffffffffffffffffffffff1614612529576040517f08c379a000000000000000000000000000000000000000000000000000000000815260040161252090613d13565b60405180910390fd5b6000600b60008573ffffffffffffffffffffffffffffffffffffffff1673ffffffffffffffffffffffffffffffffffffffff168152602001908152602001600020905060008160000180549050111561258a576125898382600001612e31565b5b600081600101600085815260200190815260200160002081905550600c600084815260200190815260200160002060006101000a81549073ffffffffffffffffffffffffffffffffffffffff0219169055600860009054906101000a900473ffffffffffffffffffffffffffffffffffffffff1673ffffffffffffffffffffffffffffffffffffffff166316b2e21e85856040518363ffffffff1660e01b8152600401612638929190613b9f565b600060405180830381600087803b15801561265257600080fd5b505af1158015612666573d6000803e3d6000fd5b50505050600860009054906101000a900473ffffffffffffffffffffffffffffffffffffffff1673ffffffffffffffffffffffffffffffffffffffff1663b7ec93fa84846040518363ffffffff1660e01b81526004016126c7929190613f0e565b600060405180830381600087803b1580156126e157600080fd5b505af11580156126f5573d6000803e3d6000fd5b50505050600760009054906101000a900473ffffffffffffffffffffffffffffffffffffffff1673ffffffffffffffffffffffffffffffffffffffff166342842e0e3086600860009054906101000a900473ffffffffffffffffffffffffffffffffffffffff1673ffffffffffffffffffffffffffffffffffffffff166345149f8d886040518263ffffffff1660e01b81526004016127949190613ef3565b60206040518083038186803b1580156127ac57600080fd5b505afa1580156127c0573d6000803e3d6000fd5b505050506040513d601f19601f820116820180604052508101906127e491906136a0565b6040518463ffffffff1660e01b815260040161280293929190613b68565b600060405180830381600087803b15801561281c57600080fd5b505af1158015612830573d6000803e3d6000fd5b505050506009600081548092919061284790614287565b919050555050505050565b6128638161285e61194a565b612e4e565b50565b6128708282610ffa565b6129435760016006600084815260200190815260200160002060000160008373ffffffffffffffffffffffffffffffffffffffff1673ffffffffffffffffffffffffffffffffffffffff16815260200190815260200160002060006101000a81548160ff0219169083151502179055506128e861194a565b73ffffffffffffffffffffffffffffffffffffffff168173ffffffffffffffffffffffffffffffffffffffff16837f2f8788117e7eff1d82e926ec794901d17c78024a50270940304540a733656f0d60405160405180910390a45b5050565b6129518282610ffa565b15612a255760006006600084815260200190815260200160002060000160008373ffffffffffffffffffffffffffffffffffffffff1673ffffffffffffffffffffffffffffffffffffffff16815260200190815260200160002060006101000a81548160ff0219169083151502179055506129ca61194a565b73ffffffffffffffffffffffffffffffffffffffff168173ffffffffffffffffffffffffffffffffffffffff16837ff6391f5c32d9c69d2a47ea670b442974b53935d1edc7fd64eb21e047a839171b60405160405180910390a45b5050565b600073ffffffffffffffffffffffffffffffffffffffff168273ffffffffffffffffffffffffffffffffffffffff161415612a99576040517f08c379a0000000000000000000000000000000000000000000000000000000008152600401612a9090613eb3565b60405180910390fd5b612aa560008383612e27565b8060036000828254612ab7919061405d565b9250508190555080600160008473ffffffffffffffffffffffffffffffffffffffff1673ffffffffffffffffffffffffffffffffffffffff1681526020019081526020016000206000828254612b0d919061405d565b925050819055508173ffffffffffffffffffffffffffffffffffffffff16600073ffffffffffffffffffffffffffffffffffffffff167fddf252ad1be2c89b69c2b068fc378daa952ba7f163c4a11628f55a4df523b3ef83604051612b729190613ef3565b60405180910390a3612b8660008383612e2c565b5050565b600073ffffffffffffffffffffffffffffffffffffffff168273ffffffffffffffffffffffffffffffffffffffff161415612bfa576040517f08c379a0000000000000000000000000000000000000000000000000000000008152600401612bf190613df3565b60405180910390fd5b612c0682600083612e27565b6000600160008473ffffffffffffffffffffffffffffffffffffffff1673ffffffffffffffffffffffffffffffffffffffff16815260200190815260200160002054905081811015612c8d576040517f08c379a0000000000000000000000000000000000000000000000000000000008152600401612c8490613cf3565b60405180910390fd5b818103600160008573ffffffffffffffffffffffffffffffffffffffff1673ffffffffffffffffffffffffffffffffffffffff168152602001908152602001600020819055508160036000828254612ce5919061413e565b92505081905550600073ffffffffffffffffffffffffffffffffffffffff168373ffffffffffffffffffffffffffffffffffffffff167fddf252ad1be2c89b69c2b068fc378daa952ba7f163c4a11628f55a4df523b3ef84604051612d4a9190613ef3565b60405180910390a3612d5e83600084612e2c565b505050565b60008060009054906101000a900473ffffffffffffffffffffffffffffffffffffffff169050816000806101000a81548173ffffffffffffffffffffffffffffffffffffffff021916908373ffffffffffffffffffffffffffffffffffffffff1602179055508173ffffffffffffffffffffffffffffffffffffffff168173ffffffffffffffffffffffffffffffffffffffff167f8be0079c531659141344cd1fd0a4f28419497f9722a3daafe3b4186f6b6457e060405160405180910390a35050565b505050565b505050565b6000612e3d8383612eeb565b9050612e498183612f34565b505050565b612e588282610ffa565b612ee757612e7d8173ffffffffffffffffffffffffffffffffffffffff166014612fd6565b612e8b8360001c6020612fd6565b604051602001612e9c929190613b13565b6040516020818303038152906040526040517f08c379a0000000000000000000000000000000000000000000000000000000008152600401612ede9190613c71565b60405180910390fd5b5050565b600080600090505b83838281548110612f0757612f0661444a565b5b906000526020600020015414612f2a578080612f2290614314565b915050612ef3565b8091505092915050565b5b60018180549050612f46919061413e565b821015612fab5780600183612f5b919061405d565b81548110612f6c57612f6b61444a565b5b9060005260206000200154818381548110612f8a57612f8961444a565b5b90600052602060002001819055508180612fa390614314565b925050612f35565b80805480612fbc57612fbb61441b565b5b600190038181906000526020600020016000905590555050565b606060006002836002612fe991906140e4565b612ff3919061405d565b67ffffffffffffffff81111561300c5761300b614479565b5b6040519080825280601f01601f19166020018201604052801561303e5781602001600182028036833780820191505090505b5090507f3000000000000000000000000000000000000000000000000000000000000000816000815181106130765761307561444a565b5b60200101907effffffffffffffffffffffffffffffffffffffffffffffffffffffffffffff1916908160001a9053507f7800000000000000000000000000000000000000000000000000000000000000816001815181106130da576130d961444a565b5b60200101907effffffffffffffffffffffffffffffffffffffffffffffffffffffffffffff1916908160001a9053506000600184600261311a91906140e4565b613124919061405d565b90505b60018111156131c4577f3031323334353637383961626364656600000000000000000000000000000000600f8616601081106131665761316561444a565b5b1a60f81b82828151811061317d5761317c61444a565b5b60200101907effffffffffffffffffffffffffffffffffffffffffffffffffffffffffffff1916908160001a905350600485901c9450806131bd90614287565b9050613127565b5060008414613208576040517f08c379a00000000000000000000000000000000000000000000000000000000081526004016131ff90613cb3565b60405180910390fd5b8091505092915050565b600061322561322084613fa0565b613f7b565b90508083825260208201905082856020860282011115613248576132476144ad565b5b60005b85811015613278578161325e8882613389565b84526020840193506020830192505060018101905061324b565b5050509392505050565b600061329561329084613fcc565b613f7b565b9050828152602081018484840111156132b1576132b06144b2565b5b6132bc848285614245565b509392505050565b6000813590506132d381614a1d565b92915050565b6000815190506132e881614a1d565b92915050565b600082601f830112613303576133026144a8565b5b8135613313848260208601613212565b91505092915050565b60008151905061332b81614a34565b92915050565b60008135905061334081614a4b565b92915050565b60008135905061335581614a62565b92915050565b600082601f8301126133705761336f6144a8565b5b8135613380848260208601613282565b91505092915050565b60008135905061339881614a79565b92915050565b6000815190506133ad81614a79565b92915050565b6000602082840312156133c9576133c86144bc565b5b60006133d7848285016132c4565b91505092915050565b6000602082840312156133f6576133f56144bc565b5b6000613404848285016132d9565b91505092915050565b60008060408385031215613424576134236144bc565b5b6000613432858286016132c4565b9250506020613443858286016132c4565b9150509250929050565b600080600060608486031215613466576134656144bc565b5b6000613474868287016132c4565b9350506020613485868287016132c4565b925050604061349686828701613389565b9150509250925092565b600080600080608085870312156134ba576134b96144bc565b5b60006134c8878288016132c4565b94505060206134d9878288016132c4565b93505060406134ea87828801613389565b925050606085013567ffffffffffffffff81111561350b5761350a6144b7565b5b6135178782880161335b565b91505092959194509250565b6000806040838503121561353a576135396144bc565b5b6000613548858286016132c4565b925050602061355985828601613389565b9150509250929050565b600060208284031215613579576135786144bc565b5b600082013567ffffffffffffffff811115613597576135966144b7565b5b6135a3848285016132ee565b91505092915050565b6000602082840312156135c2576135c16144bc565b5b60006135d08482850161331c565b91505092915050565b6000602082840312156135ef576135ee6144bc565b5b60006135fd84828501613331565b91505092915050565b6000806040838503121561361d5761361c6144bc565b5b600061362b85828601613331565b925050602061363c858286016132c4565b9150509250929050565b60006020828403121561365c5761365b6144bc565b5b600061366a84828501613346565b91505092915050565b600060208284031215613689576136886144bc565b5b600061369784828501613389565b91505092915050565b6000602082840312156136b6576136b56144bc565b5b60006136c48482850161339e565b91505092915050565b60006136d98383613ae6565b60208301905092915050565b6136ee81614172565b82525050565b60006136ff8261400d565b6137098185614030565b935061371483613ffd565b8060005b8381101561374557815161372c88826136cd565b975061373783614023565b925050600181019050613718565b5085935050505092915050565b61375b81614184565b82525050565b61376a81614190565b82525050565b6137798161419a565b82525050565b613788816141fd565b82525050565b6137978161420f565b82525050565b60006137a882614018565b6137b28185614041565b93506137c2818560208601614254565b6137cb816144c1565b840191505092915050565b60006137e182614018565b6137eb8185614052565b93506137fb818560208601614254565b80840191505092915050565b6000613814601383614041565b915061381f826144d2565b602082019050919050565b6000613837602083614041565b9150613842826144fb565b602082019050919050565b600061385a602383614041565b915061386582614524565b604082019050919050565b600061387d602283614041565b915061388882614573565b604082019050919050565b60006138a0603c83614041565b91506138ab826145c2565b604082019050919050565b60006138c3602683614041565b91506138ce82614611565b604082019050919050565b60006138e6602283614041565b91506138f182614660565b604082019050919050565b6000613909601d83614041565b9150613914826146af565b602082019050919050565b600061392c602683614041565b9150613937826146d8565b604082019050919050565b600061394f602383614041565b915061395a82614727565b604082019050919050565b6000613972602083614041565b915061397d82614776565b602082019050919050565b6000613995602183614041565b91506139a08261479f565b604082019050919050565b60006139b8602583614041565b91506139c3826147ee565b604082019050919050565b60006139db602483614041565b91506139e68261483d565b604082019050919050565b60006139fe602b83614041565b9150613a098261488c565b604082019050919050565b6000613a21601783614052565b9150613a2c826148db565b601782019050919050565b6000613a44602583614041565b9150613a4f82614904565b604082019050919050565b6000613a67601183614052565b9150613a7282614953565b601182019050919050565b6000613a8a602f83614041565b9150613a958261497c565b604082019050919050565b6000613aad601f83614041565b9150613ab8826149cb565b602082019050919050565b6000613ad0601783614041565b9150613adb826149f4565b602082019050919050565b613aef816141e6565b82525050565b613afe816141e6565b82525050565b613b0d816141f0565b82525050565b6000613b1e82613a14565b9150613b2a82856137d6565b9150613b3582613a5a565b9150613b4182846137d6565b91508190509392505050565b6000602082019050613b6260008301846136e5565b92915050565b6000606082019050613b7d60008301866136e5565b613b8a60208301856136e5565b613b976040830184613af5565b949350505050565b6000604082019050613bb460008301856136e5565b613bc16020830184613af5565b9392505050565b60006020820190508181036000830152613be281846136f4565b905092915050565b6000602082019050613bff6000830184613752565b92915050565b6000602082019050613c1a6000830184613761565b92915050565b6000602082019050613c356000830184613770565b92915050565b6000602082019050613c50600083018461377f565b92915050565b6000602082019050613c6b600083018461378e565b92915050565b60006020820190508181036000830152613c8b818461379d565b905092915050565b60006020820190508181036000830152613cac81613807565b9050919050565b60006020820190508181036000830152613ccc8161382a565b9050919050565b60006020820190508181036000830152613cec8161384d565b9050919050565b60006020820190508181036000830152613d0c81613870565b9050919050565b60006020820190508181036000830152613d2c81613893565b9050919050565b60006020820190508181036000830152613d4c816138b6565b9050919050565b60006020820190508181036000830152613d6c816138d9565b9050919050565b60006020820190508181036000830152613d8c816138fc565b9050919050565b60006020820190508181036000830152613dac8161391f565b9050919050565b60006020820190508181036000830152613dcc81613942565b9050919050565b60006020820190508181036000830152613dec81613965565b9050919050565b60006020820190508181036000830152613e0c81613988565b9050919050565b60006020820190508181036000830152613e2c816139ab565b9050919050565b60006020820190508181036000830152613e4c816139ce565b9050919050565b60006020820190508181036000830152613e6c816139f1565b9050919050565b60006020820190508181036000830152613e8c81613a37565b9050919050565b60006020820190508181036000830152613eac81613a7d565b9050919050565b60006020820190508181036000830152613ecc81613aa0565b9050919050565b60006020820190508181036000830152613eec81613ac3565b9050919050565b6000602082019050613f086000830184613af5565b92915050565b6000604082019050613f236000830185613af5565b613f306020830184613752565b9392505050565b6000604082019050613f4c6000830185613af5565b613f596020830184613af5565b9392505050565b6000602082019050613f756000830184613b04565b92915050565b6000613f85613f96565b9050613f9182826142e3565b919050565b6000604051905090565b600067ffffffffffffffff821115613fbb57613fba614479565b5b602082029050602081019050919050565b600067ffffffffffffffff821115613fe757613fe6614479565b5b613ff0826144c1565b9050602081019050919050565b6000819050602082019050919050565b600081519050919050565b600081519050919050565b6000602082019050919050565b600082825260208201905092915050565b600082825260208201905092915050565b600081905092915050565b6000614068826141e6565b9150614073836141e6565b9250827fffffffffffffffffffffffffffffffffffffffffffffffffffffffffffffffff038211156140a8576140a761438e565b5b828201905092915050565b60006140be826141e6565b91506140c9836141e6565b9250826140d9576140d86143bd565b5b828204905092915050565b60006140ef826141e6565b91506140fa836141e6565b9250817fffffffffffffffffffffffffffffffffffffffffffffffffffffffffffffffff04831182151516156141335761413261438e565b5b828202905092915050565b6000614149826141e6565b9150614154836141e6565b9250828210156141675761416661438e565b5b828203905092915050565b600061417d826141c6565b9050919050565b60008115159050919050565b6000819050919050565b60007fffffffff0000000000000000000000000000000000000000000000000000000082169050919050565b600073ffffffffffffffffffffffffffffffffffffffff82169050919050565b6000819050919050565b600060ff82169050919050565b600061420882614221565b9050919050565b600061421a82614221565b9050919050565b600061422c82614233565b9050919050565b600061423e826141c6565b9050919050565b82818337600083830152505050565b60005b83811015614272578082015181840152602081019050614257565b83811115614281576000848401525b50505050565b6000614292826141e6565b915060008214156142a6576142a561438e565b5b600182039050919050565b600060028204905060018216806142c957607f821691505b602082108114156142dd576142dc6143ec565b5b50919050565b6142ec826144c1565b810181811067ffffffffffffffff8211171561430b5761430a614479565b5b80604052505050565b600061431f826141e6565b91507fffffffffffffffffffffffffffffffffffffffffffffffffffffffffffffffff8214156143525761435161438e565b5b600182019050919050565b6000614368826141e6565b9150614373836141e6565b925082614383576143826143bd565b5b828206905092915050565b7f4e487b7100000000000000000000000000000000000000000000000000000000600052601160045260246000fd5b7f4e487b7100000000000000000000000000000000000000000000000000000000600052601260045260246000fd5b7f4e487b7100000000000000000000000000000000000000000000000000000000600052602260045260246000fd5b7f4e487b7100000000000000000000000000000000000000000000000000000000600052603160045260246000fd5b7f4e487b7100000000000000000000000000000000000000000000000000000000600052603260045260246000fd5b7f4e487b7100000000000000000000000000000000000000000000000000000000600052604160045260246000fd5b600080fd5b600080fd5b600080fd5b600080fd5b600080fd5b6000601f19601f8301169050919050565b7f416c726561647920696e697469616c6973656400000000000000000000000000600082015250565b7f537472696e67733a20686578206c656e67746820696e73756666696369656e74600082015250565b7f45524332303a207472616e7366657220746f20746865207a65726f206164647260008201527f6573730000000000000000000000000000000000000000000000000000000000602082015250565b7f45524332303a206275726e20616d6f756e7420657863656564732062616c616e60008201527f6365000000000000000000000000000000000000000000000000000000000000602082015250565b7f4e6674205374616b696e672053797374656d3a2075736572206d75737420626560008201527f20746865206f776e6572206f6620746865207374616b6564206e667400000000602082015250565b7f4f776e61626c653a206e6577206f776e657220697320746865207a65726f206160008201527f6464726573730000000000000000000000000000000000000000000000000000602082015250565b7f45524332303a20617070726f766520746f20746865207a65726f20616464726560008201527f7373000000000000000000000000000000000000000000000000000000000000602082015250565b7f45524332303a20696e73756666696369656e7420616c6c6f77616e6365000000600082015250565b7f45524332303a207472616e7366657220616d6f756e742065786365656473206260008201527f616c616e63650000000000000000000000000000000000000000000000000000602082015250565b7f75736572206d75737420626520746865206f776e6572206f662074686520746f60008201527f6b656e0000000000000000000000000000000000000000000000000000000000602082015250565b7f4f776e61626c653a2063616c6c6572206973206e6f7420746865206f776e6572600082015250565b7f45524332303a206275726e2066726f6d20746865207a65726f2061646472657360008201527f7300000000000000000000000000000000000000000000000000000000000000602082015250565b7f45524332303a207472616e736665722066726f6d20746865207a65726f20616460008201527f6472657373000000000000000000000000000000000000000000000000000000602082015250565b7f45524332303a20617070726f76652066726f6d20746865207a65726f2061646460008201527f7265737300000000000000000000000000000000000000000000000000000000602082015250565b7f5374616b696e672053797374656d3a20746865207374616b696e67206861732060008201527f6e6f742073746172746564000000000000000000000000000000000000000000602082015250565b7f416363657373436f6e74726f6c3a206163636f756e7420000000000000000000600082015250565b7f45524332303a2064656372656173656420616c6c6f77616e63652062656c6f7760008201527f207a65726f000000000000000000000000000000000000000000000000000000602082015250565b7f206973206d697373696e6720726f6c6520000000000000000000000000000000600082015250565b7f416363657373436f6e74726f6c3a2063616e206f6e6c792072656e6f756e636560008201527f20726f6c657320666f722073656c660000000000000000000000000000000000602082015250565b7f45524332303a206d696e7420746f20746865207a65726f206164647265737300600082015250565b7f5468697320746f6b656e20616c72656164792053616c65000000000000000000600082015250565b614a2681614172565b8114614a3157600080fd5b50565b614a3d81614184565b8114614a4857600080fd5b50565b614a5481614190565b8114614a5f57600080fd5b50565b614a6b8161419a565b8114614a7657600080fd5b50565b614a82816141e6565b8114614a8d57600080fd5b5056fea264697066735822122009f57b8614f923754be68fe5aede3f5f7303d77762e77db2813e034651794cbe64736f6c63430008070033",
			"opcodes": "PUSH1 0x80 PUSH1 0x40 MSTORE CALLVALUE DUP1 ISZERO PUSH3 0x11 JUMPI PUSH1 0x0 DUP1 REVERT JUMPDEST POP PUSH1 0x40 MLOAD PUSH3 0x50E6 CODESIZE SUB DUP1 PUSH3 0x50E6 DUP4 CODECOPY DUP2 DUP2 ADD PUSH1 0x40 MSTORE DUP2 ADD SWAP1 PUSH3 0x37 SWAP2 SWAP1 PUSH3 0x4CF JUMP JUMPDEST PUSH1 0x40 MLOAD DUP1 PUSH1 0x40 ADD PUSH1 0x40 MSTORE DUP1 PUSH1 0xC DUP2 MSTORE PUSH1 0x20 ADD PUSH32 0x4A6F6C6D616E20546F6B656E0000000000000000000000000000000000000000 DUP2 MSTORE POP PUSH1 0x40 MLOAD DUP1 PUSH1 0x40 ADD PUSH1 0x40 MSTORE DUP1 PUSH1 0x3 DUP2 MSTORE PUSH1 0x20 ADD PUSH32 0x4A4C540000000000000000000000000000000000000000000000000000000000 DUP2 MSTORE POP PUSH3 0xC3 PUSH3 0xB7 PUSH3 0x1C8 PUSH1 0x20 SHL PUSH1 0x20 SHR JUMP JUMPDEST PUSH3 0x1D0 PUSH1 0x20 SHL PUSH1 0x20 SHR JUMP JUMPDEST DUP2 PUSH1 0x4 SWAP1 DUP1 MLOAD SWAP1 PUSH1 0x20 ADD SWAP1 PUSH3 0xDB SWAP3 SWAP2 SWAP1 PUSH3 0x3F1 JUMP JUMPDEST POP DUP1 PUSH1 0x5 SWAP1 DUP1 MLOAD SWAP1 PUSH1 0x20 ADD SWAP1 PUSH3 0xF4 SWAP3 SWAP2 SWAP1 PUSH3 0x3F1 JUMP JUMPDEST POP POP POP PUSH3 0x10C PUSH1 0x0 DUP1 SHL CALLER PUSH3 0x294 PUSH1 0x20 SHL PUSH1 0x20 SHR JUMP JUMPDEST PUSH3 0x13E PUSH32 0x9F2DF0FED2C77648DE5860A4CC508CD0818C85B8B8A1AB4CEEEF8D981C8956A6 CALLER PUSH3 0x294 PUSH1 0x20 SHL PUSH1 0x20 SHR JUMP JUMPDEST DUP2 PUSH1 0x7 PUSH1 0x0 PUSH2 0x100 EXP DUP2 SLOAD DUP2 PUSH20 0xFFFFFFFFFFFFFFFFFFFFFFFFFFFFFFFFFFFFFFFF MUL NOT AND SWAP1 DUP4 PUSH20 0xFFFFFFFFFFFFFFFFFFFFFFFFFFFFFFFFFFFFFFFF AND MUL OR SWAP1 SSTORE POP DUP1 PUSH1 0x8 PUSH1 0x0 PUSH2 0x100 EXP DUP2 SLOAD DUP2 PUSH20 0xFFFFFFFFFFFFFFFFFFFFFFFFFFFFFFFFFFFFFFFF MUL NOT AND SWAP1 DUP4 PUSH20 0xFFFFFFFFFFFFFFFFFFFFFFFFFFFFFFFFFFFFFFFF AND MUL OR SWAP1 SSTORE POP POP POP PUSH3 0x610 JUMP JUMPDEST PUSH1 0x0 CALLER SWAP1 POP SWAP1 JUMP JUMPDEST PUSH1 0x0 DUP1 PUSH1 0x0 SWAP1 SLOAD SWAP1 PUSH2 0x100 EXP SWAP1 DIV PUSH20 0xFFFFFFFFFFFFFFFFFFFFFFFFFFFFFFFFFFFFFFFF AND SWAP1 POP DUP2 PUSH1 0x0 DUP1 PUSH2 0x100 EXP DUP2 SLOAD DUP2 PUSH20 0xFFFFFFFFFFFFFFFFFFFFFFFFFFFFFFFFFFFFFFFF MUL NOT AND SWAP1 DUP4 PUSH20 0xFFFFFFFFFFFFFFFFFFFFFFFFFFFFFFFFFFFFFFFF AND MUL OR SWAP1 SSTORE POP DUP2 PUSH20 0xFFFFFFFFFFFFFFFFFFFFFFFFFFFFFFFFFFFFFFFF AND DUP2 PUSH20 0xFFFFFFFFFFFFFFFFFFFFFFFFFFFFFFFFFFFFFFFF AND PUSH32 0x8BE0079C531659141344CD1FD0A4F28419497F9722A3DAAFE3B4186F6B6457E0 PUSH1 0x40 MLOAD PUSH1 0x40 MLOAD DUP1 SWAP2 SUB SWAP1 LOG3 POP POP JUMP JUMPDEST PUSH3 0x2A6 DUP3 DUP3 PUSH3 0x386 PUSH1 0x20 SHL PUSH1 0x20 SHR JUMP JUMPDEST PUSH3 0x382 JUMPI PUSH1 0x1 PUSH1 0x6 PUSH1 0x0 DUP5 DUP2 MSTORE PUSH1 0x20 ADD SWAP1 DUP2 MSTORE PUSH1 0x20 ADD PUSH1 0x0 KECCAK256 PUSH1 0x0 ADD PUSH1 0x0 DUP4 PUSH20 0xFFFFFFFFFFFFFFFFFFFFFFFFFFFFFFFFFFFFFFFF AND PUSH20 0xFFFFFFFFFFFFFFFFFFFFFFFFFFFFFFFFFFFFFFFF AND DUP2 MSTORE PUSH1 0x20 ADD SWAP1 DUP2 MSTORE PUSH1 0x20 ADD PUSH1 0x0 KECCAK256 PUSH1 0x0 PUSH2 0x100 EXP DUP2 SLOAD DUP2 PUSH1 0xFF MUL NOT AND SWAP1 DUP4 ISZERO ISZERO MUL OR SWAP1 SSTORE POP PUSH3 0x327 PUSH3 0x1C8 PUSH1 0x20 SHL PUSH1 0x20 SHR JUMP JUMPDEST PUSH20 0xFFFFFFFFFFFFFFFFFFFFFFFFFFFFFFFFFFFFFFFF AND DUP2 PUSH20 0xFFFFFFFFFFFFFFFFFFFFFFFFFFFFFFFFFFFFFFFF AND DUP4 PUSH32 0x2F8788117E7EFF1D82E926EC794901D17C78024A50270940304540A733656F0D PUSH1 0x40 MLOAD PUSH1 0x40 MLOAD DUP1 SWAP2 SUB SWAP1 LOG4 JUMPDEST POP POP JUMP JUMPDEST PUSH1 0x0 PUSH1 0x6 PUSH1 0x0 DUP5 DUP2 MSTORE PUSH1 0x20 ADD SWAP1 DUP2 MSTORE PUSH1 0x20 ADD PUSH1 0x0 KECCAK256 PUSH1 0x0 ADD PUSH1 0x0 DUP4 PUSH20 0xFFFFFFFFFFFFFFFFFFFFFFFFFFFFFFFFFFFFFFFF AND PUSH20 0xFFFFFFFFFFFFFFFFFFFFFFFFFFFFFFFFFFFFFFFF AND DUP2 MSTORE PUSH1 0x20 ADD SWAP1 DUP2 MSTORE PUSH1 0x20 ADD PUSH1 0x0 KECCAK256 PUSH1 0x0 SWAP1 SLOAD SWAP1 PUSH2 0x100 EXP SWAP1 DIV PUSH1 0xFF AND SWAP1 POP SWAP3 SWAP2 POP POP JUMP JUMPDEST DUP3 DUP1 SLOAD PUSH3 0x3FF SWAP1 PUSH3 0x572 JUMP JUMPDEST SWAP1 PUSH1 0x0 MSTORE PUSH1 0x20 PUSH1 0x0 KECCAK256 SWAP1 PUSH1 0x1F ADD PUSH1 0x20 SWAP1 DIV DUP2 ADD SWAP3 DUP3 PUSH3 0x423 JUMPI PUSH1 0x0 DUP6 SSTORE PUSH3 0x46F JUMP JUMPDEST DUP3 PUSH1 0x1F LT PUSH3 0x43E JUMPI DUP1 MLOAD PUSH1 0xFF NOT AND DUP4 DUP1 ADD OR DUP6 SSTORE PUSH3 0x46F JUMP JUMPDEST DUP3 DUP1 ADD PUSH1 0x1 ADD DUP6 SSTORE DUP3 ISZERO PUSH3 0x46F JUMPI SWAP2 DUP3 ADD JUMPDEST DUP3 DUP2 GT ISZERO PUSH3 0x46E JUMPI DUP3 MLOAD DUP3 SSTORE SWAP2 PUSH1 0x20 ADD SWAP2 SWAP1 PUSH1 0x1 ADD SWAP1 PUSH3 0x451 JUMP JUMPDEST JUMPDEST POP SWAP1 POP PUSH3 0x47E SWAP2 SWAP1 PUSH3 0x482 JUMP JUMPDEST POP SWAP1 JUMP JUMPDEST JUMPDEST DUP1 DUP3 GT ISZERO PUSH3 0x49D JUMPI PUSH1 0x0 DUP2 PUSH1 0x0 SWAP1 SSTORE POP PUSH1 0x1 ADD PUSH3 0x483 JUMP JUMPDEST POP SWAP1 JUMP JUMPDEST PUSH1 0x0 DUP2 MLOAD SWAP1 POP PUSH3 0x4B2 DUP2 PUSH3 0x5DC JUMP JUMPDEST SWAP3 SWAP2 POP POP JUMP JUMPDEST PUSH1 0x0 DUP2 MLOAD SWAP1 POP PUSH3 0x4C9 DUP2 PUSH3 0x5F6 JUMP JUMPDEST SWAP3 SWAP2 POP POP JUMP JUMPDEST PUSH1 0x0 DUP1 PUSH1 0x40 DUP4 DUP6 SUB SLT ISZERO PUSH3 0x4E9 JUMPI PUSH3 0x4E8 PUSH3 0x5D7 JUMP JUMPDEST JUMPDEST PUSH1 0x0 PUSH3 0x4F9 DUP6 DUP3 DUP7 ADD PUSH3 0x4A1 JUMP JUMPDEST SWAP3 POP POP PUSH1 0x20 PUSH3 0x50C DUP6 DUP3 DUP7 ADD PUSH3 0x4B8 JUMP JUMPDEST SWAP2 POP POP SWAP3 POP SWAP3 SWAP1 POP JUMP JUMPDEST PUSH1 0x0 PUSH3 0x523 DUP3 PUSH3 0x552 JUMP JUMPDEST SWAP1 POP SWAP2 SWAP1 POP JUMP JUMPDEST PUSH1 0x0 PUSH3 0x537 DUP3 PUSH3 0x516 JUMP JUMPDEST SWAP1 POP SWAP2 SWAP1 POP JUMP JUMPDEST PUSH1 0x0 PUSH3 0x54B DUP3 PUSH3 0x516 JUMP JUMPDEST SWAP1 POP SWAP2 SWAP1 POP JUMP JUMPDEST PUSH1 0x0 PUSH20 0xFFFFFFFFFFFFFFFFFFFFFFFFFFFFFFFFFFFFFFFF DUP3 AND SWAP1 POP SWAP2 SWAP1 POP JUMP JUMPDEST PUSH1 0x0 PUSH1 0x2 DUP3 DIV SWAP1 POP PUSH1 0x1 DUP3 AND DUP1 PUSH3 0x58B JUMPI PUSH1 0x7F DUP3 AND SWAP2 POP JUMPDEST PUSH1 0x20 DUP3 LT DUP2 EQ ISZERO PUSH3 0x5A2 JUMPI PUSH3 0x5A1 PUSH3 0x5A8 JUMP JUMPDEST JUMPDEST POP SWAP2 SWAP1 POP JUMP JUMPDEST PUSH32 0x4E487B7100000000000000000000000000000000000000000000000000000000 PUSH1 0x0 MSTORE PUSH1 0x22 PUSH1 0x4 MSTORE PUSH1 0x24 PUSH1 0x0 REVERT JUMPDEST PUSH1 0x0 DUP1 REVERT JUMPDEST PUSH3 0x5E7 DUP2 PUSH3 0x52A JUMP JUMPDEST DUP2 EQ PUSH3 0x5F3 JUMPI PUSH1 0x0 DUP1 REVERT JUMPDEST POP JUMP JUMPDEST PUSH3 0x601 DUP2 PUSH3 0x53E JUMP JUMPDEST DUP2 EQ PUSH3 0x60D JUMPI PUSH1 0x0 DUP1 REVERT JUMPDEST POP JUMP JUMPDEST PUSH2 0x4AC6 DUP1 PUSH3 0x620 PUSH1 0x0 CODECOPY PUSH1 0x0 RETURN INVALID PUSH1 0x80 PUSH1 0x40 MSTORE CALLVALUE DUP1 ISZERO PUSH2 0x10 JUMPI PUSH1 0x0 DUP1 REVERT JUMPDEST POP PUSH1 0x4 CALLDATASIZE LT PUSH2 0x253 JUMPI PUSH1 0x0 CALLDATALOAD PUSH1 0xE0 SHR DUP1 PUSH4 0x6ABFD183 GT PUSH2 0x146 JUMPI DUP1 PUSH4 0xA694FC3A GT PUSH2 0xC3 JUMPI DUP1 PUSH4 0xD5391393 GT PUSH2 0x87 JUMPI DUP1 PUSH4 0xD5391393 EQ PUSH2 0x733 JUMPI DUP1 PUSH4 0xD547741F EQ PUSH2 0x751 JUMPI DUP1 PUSH4 0xD66692A7 EQ PUSH2 0x76D JUMPI DUP1 PUSH4 0xDD62ED3E EQ PUSH2 0x78B JUMPI DUP1 PUSH4 0xE64A21F3 EQ PUSH2 0x7BB JUMPI DUP1 PUSH4 0xF2FDE38B EQ PUSH2 0x7D7 JUMPI PUSH2 0x253 JUMP JUMPDEST DUP1 PUSH4 0xA694FC3A EQ PUSH2 0x6A3 JUMPI DUP1 PUSH4 0xA9059CBB EQ PUSH2 0x6BF JUMPI DUP1 PUSH4 0xB4EFA66D EQ PUSH2 0x6EF JUMPI DUP1 PUSH4 0xCF39BC8C EQ PUSH2 0x6F9 JUMPI DUP1 PUSH4 0xD279C191 EQ PUSH2 0x717 JUMPI PUSH2 0x253 JUMP JUMPDEST DUP1 PUSH4 0x9168AE72 GT PUSH2 0x10A JUMPI DUP1 PUSH4 0x9168AE72 EQ PUSH2 0x5D6 JUMPI DUP1 PUSH4 0x91D14854 EQ PUSH2 0x607 JUMPI DUP1 PUSH4 0x95D89B41 EQ PUSH2 0x637 JUMPI DUP1 PUSH4 0xA217FDDF EQ PUSH2 0x655 JUMPI DUP1 PUSH4 0xA457C2D7 EQ PUSH2 0x673 JUMPI PUSH2 0x253 JUMP JUMPDEST DUP1 PUSH4 0x6ABFD183 EQ PUSH2 0x544 JUMPI DUP1 PUSH4 0x70A08231 EQ PUSH2 0x562 JUMPI DUP1 PUSH4 0x715018A6 EQ PUSH2 0x592 JUMPI DUP1 PUSH4 0x79CC6790 EQ PUSH2 0x59C JUMPI DUP1 PUSH4 0x8DA5CB5B EQ PUSH2 0x5B8 JUMPI PUSH2 0x253 JUMP JUMPDEST DUP1 PUSH4 0x2F2FF15D GT PUSH2 0x1D4 JUMPI DUP1 PUSH4 0x42966C68 GT PUSH2 0x198 JUMPI DUP1 PUSH4 0x42966C68 EQ PUSH2 0x48E JUMPI DUP1 PUSH4 0x491041A4 EQ PUSH2 0x4AA JUMPI DUP1 PUSH4 0x632447C9 EQ PUSH2 0x4C8 JUMPI DUP1 PUSH4 0x63C28DB1 EQ PUSH2 0x4E4 JUMPI DUP1 PUSH4 0x6A54B942 EQ PUSH2 0x514 JUMPI PUSH2 0x253 JUMP JUMPDEST DUP1 PUSH4 0x2F2FF15D EQ PUSH2 0x3EC JUMPI DUP1 PUSH4 0x313CE567 EQ PUSH2 0x408 JUMPI DUP1 PUSH4 0x36568ABE EQ PUSH2 0x426 JUMPI DUP1 PUSH4 0x39509351 EQ PUSH2 0x442 JUMPI DUP1 PUSH4 0x40C10F19 EQ PUSH2 0x472 JUMPI PUSH2 0x253 JUMP JUMPDEST DUP1 PUSH4 0x1CAAA487 GT PUSH2 0x21B JUMPI DUP1 PUSH4 0x1CAAA487 EQ PUSH2 0x324 JUMPI DUP1 PUSH4 0x230F436D EQ PUSH2 0x354 JUMPI DUP1 PUSH4 0x23B872DD EQ PUSH2 0x370 JUMPI DUP1 PUSH4 0x248A9CA3 EQ PUSH2 0x3A0 JUMPI DUP1 PUSH4 0x2E17DE78 EQ PUSH2 0x3D0 JUMPI PUSH2 0x253 JUMP JUMPDEST DUP1 PUSH4 0x1FFC9A7 EQ PUSH2 0x258 JUMPI DUP1 PUSH4 0x6FDDE03 EQ PUSH2 0x288 JUMPI DUP1 PUSH4 0x95EA7B3 EQ PUSH2 0x2A6 JUMPI DUP1 PUSH4 0x150B7A02 EQ PUSH2 0x2D6 JUMPI DUP1 PUSH4 0x18160DDD EQ PUSH2 0x306 JUMPI JUMPDEST PUSH1 0x0 DUP1 REVERT JUMPDEST PUSH2 0x272 PUSH1 0x4 DUP1 CALLDATASIZE SUB DUP2 ADD SWAP1 PUSH2 0x26D SWAP2 SWAP1 PUSH2 0x3646 JUMP JUMPDEST PUSH2 0x7F3 JUMP JUMPDEST PUSH1 0x40 MLOAD PUSH2 0x27F SWAP2 SWAP1 PUSH2 0x3BEA JUMP JUMPDEST PUSH1 0x40 MLOAD DUP1 SWAP2 SUB SWAP1 RETURN JUMPDEST PUSH2 0x290 PUSH2 0x86D JUMP JUMPDEST PUSH1 0x40 MLOAD PUSH2 0x29D SWAP2 SWAP1 PUSH2 0x3C71 JUMP JUMPDEST PUSH1 0x40 MLOAD DUP1 SWAP2 SUB SWAP1 RETURN JUMPDEST PUSH2 0x2C0 PUSH1 0x4 DUP1 CALLDATASIZE SUB DUP2 ADD SWAP1 PUSH2 0x2BB SWAP2 SWAP1 PUSH2 0x3523 JUMP JUMPDEST PUSH2 0x8FF JUMP JUMPDEST PUSH1 0x40 MLOAD PUSH2 0x2CD SWAP2 SWAP1 PUSH2 0x3BEA JUMP JUMPDEST PUSH1 0x40 MLOAD DUP1 SWAP2 SUB SWAP1 RETURN JUMPDEST PUSH2 0x2F0 PUSH1 0x4 DUP1 CALLDATASIZE SUB DUP2 ADD SWAP1 PUSH2 0x2EB SWAP2 SWAP1 PUSH2 0x34A0 JUMP JUMPDEST PUSH2 0x922 JUMP JUMPDEST PUSH1 0x40 MLOAD PUSH2 0x2FD SWAP2 SWAP1 PUSH2 0x3C20 JUMP JUMPDEST PUSH1 0x40 MLOAD DUP1 SWAP2 SUB SWAP1 RETURN JUMPDEST PUSH2 0x30E PUSH2 0x936 JUMP JUMPDEST PUSH1 0x40 MLOAD PUSH2 0x31B SWAP2 SWAP1 PUSH2 0x3EF3 JUMP JUMPDEST PUSH1 0x40 MLOAD DUP1 SWAP2 SUB SWAP1 RETURN JUMPDEST PUSH2 0x33E PUSH1 0x4 DUP1 CALLDATASIZE SUB DUP2 ADD SWAP1 PUSH2 0x339 SWAP2 SWAP1 PUSH2 0x3673 JUMP JUMPDEST PUSH2 0x940 JUMP JUMPDEST PUSH1 0x40 MLOAD PUSH2 0x34B SWAP2 SWAP1 PUSH2 0x3B4D JUMP JUMPDEST PUSH1 0x40 MLOAD DUP1 SWAP2 SUB SWAP1 RETURN JUMPDEST PUSH2 0x36E PUSH1 0x4 DUP1 CALLDATASIZE SUB DUP2 ADD SWAP1 PUSH2 0x369 SWAP2 SWAP1 PUSH2 0x3563 JUMP JUMPDEST PUSH2 0x973 JUMP JUMPDEST STOP JUMPDEST PUSH2 0x38A PUSH1 0x4 DUP1 CALLDATASIZE SUB DUP2 ADD SWAP1 PUSH2 0x385 SWAP2 SWAP1 PUSH2 0x344D JUMP JUMPDEST PUSH2 0x9BA JUMP JUMPDEST PUSH1 0x40 MLOAD PUSH2 0x397 SWAP2 SWAP1 PUSH2 0x3BEA JUMP JUMPDEST PUSH1 0x40 MLOAD DUP1 SWAP2 SUB SWAP1 RETURN JUMPDEST PUSH2 0x3BA PUSH1 0x4 DUP1 CALLDATASIZE SUB DUP2 ADD SWAP1 PUSH2 0x3B5 SWAP2 SWAP1 PUSH2 0x35D9 JUMP JUMPDEST PUSH2 0x9E9 JUMP JUMPDEST PUSH1 0x40 MLOAD PUSH2 0x3C7 SWAP2 SWAP1 PUSH2 0x3C05 JUMP JUMPDEST PUSH1 0x40 MLOAD DUP1 SWAP2 SUB SWAP1 RETURN JUMPDEST PUSH2 0x3EA PUSH1 0x4 DUP1 CALLDATASIZE SUB DUP2 ADD SWAP1 PUSH2 0x3E5 SWAP2 SWAP1 PUSH2 0x3673 JUMP JUMPDEST PUSH2 0xA09 JUMP JUMPDEST STOP JUMPDEST PUSH2 0x406 PUSH1 0x4 DUP1 CALLDATASIZE SUB DUP2 ADD SWAP1 PUSH2 0x401 SWAP2 SWAP1 PUSH2 0x3606 JUMP JUMPDEST PUSH2 0xA1F JUMP JUMPDEST STOP JUMPDEST PUSH2 0x410 PUSH2 0xA40 JUMP JUMPDEST PUSH1 0x40 MLOAD PUSH2 0x41D SWAP2 SWAP1 PUSH2 0x3F60 JUMP JUMPDEST PUSH1 0x40 MLOAD DUP1 SWAP2 SUB SWAP1 RETURN JUMPDEST PUSH2 0x440 PUSH1 0x4 DUP1 CALLDATASIZE SUB DUP2 ADD SWAP1 PUSH2 0x43B SWAP2 SWAP1 PUSH2 0x3606 JUMP JUMPDEST PUSH2 0xA49 JUMP JUMPDEST STOP JUMPDEST PUSH2 0x45C PUSH1 0x4 DUP1 CALLDATASIZE SUB DUP2 ADD SWAP1 PUSH2 0x457 SWAP2 SWAP1 PUSH2 0x3523 JUMP JUMPDEST PUSH2 0xACC JUMP JUMPDEST PUSH1 0x40 MLOAD PUSH2 0x469 SWAP2 SWAP1 PUSH2 0x3BEA JUMP JUMPDEST PUSH1 0x40 MLOAD DUP1 SWAP2 SUB SWAP1 RETURN JUMPDEST PUSH2 0x48C PUSH1 0x4 DUP1 CALLDATASIZE SUB DUP2 ADD SWAP1 PUSH2 0x487 SWAP2 SWAP1 PUSH2 0x3523 JUMP JUMPDEST PUSH2 0xB03 JUMP JUMPDEST STOP JUMPDEST PUSH2 0x4A8 PUSH1 0x4 DUP1 CALLDATASIZE SUB DUP2 ADD SWAP1 PUSH2 0x4A3 SWAP2 SWAP1 PUSH2 0x3673 JUMP JUMPDEST PUSH2 0xB3C JUMP JUMPDEST STOP JUMPDEST PUSH2 0x4B2 PUSH2 0xB50 JUMP JUMPDEST PUSH1 0x40 MLOAD PUSH2 0x4BF SWAP2 SWAP1 PUSH2 0x3C56 JUMP JUMPDEST PUSH1 0x40 MLOAD DUP1 SWAP2 SUB SWAP1 RETURN JUMPDEST PUSH2 0x4E2 PUSH1 0x4 DUP1 CALLDATASIZE SUB DUP2 ADD SWAP1 PUSH2 0x4DD SWAP2 SWAP1 PUSH2 0x33B3 JUMP JUMPDEST PUSH2 0xB76 JUMP JUMPDEST STOP JUMPDEST PUSH2 0x4FE PUSH1 0x4 DUP1 CALLDATASIZE SUB DUP2 ADD SWAP1 PUSH2 0x4F9 SWAP2 SWAP1 PUSH2 0x33B3 JUMP JUMPDEST PUSH2 0xD7C JUMP JUMPDEST PUSH1 0x40 MLOAD PUSH2 0x50B SWAP2 SWAP1 PUSH2 0x3BC8 JUMP JUMPDEST PUSH1 0x40 MLOAD DUP1 SWAP2 SUB SWAP1 RETURN JUMPDEST PUSH2 0x52E PUSH1 0x4 DUP1 CALLDATASIZE SUB DUP2 ADD SWAP1 PUSH2 0x529 SWAP2 SWAP1 PUSH2 0x33B3 JUMP JUMPDEST PUSH2 0xE16 JUMP JUMPDEST PUSH1 0x40 MLOAD PUSH2 0x53B SWAP2 SWAP1 PUSH2 0x3BC8 JUMP JUMPDEST PUSH1 0x40 MLOAD DUP1 SWAP2 SUB SWAP1 RETURN JUMPDEST PUSH2 0x54C PUSH2 0xEB6 JUMP JUMPDEST PUSH1 0x40 MLOAD PUSH2 0x559 SWAP2 SWAP1 PUSH2 0x3EF3 JUMP JUMPDEST PUSH1 0x40 MLOAD DUP1 SWAP2 SUB SWAP1 RETURN JUMPDEST PUSH2 0x57C PUSH1 0x4 DUP1 CALLDATASIZE SUB DUP2 ADD SWAP1 PUSH2 0x577 SWAP2 SWAP1 PUSH2 0x33B3 JUMP JUMPDEST PUSH2 0xEBC JUMP JUMPDEST PUSH1 0x40 MLOAD PUSH2 0x589 SWAP2 SWAP1 PUSH2 0x3EF3 JUMP JUMPDEST PUSH1 0x40 MLOAD DUP1 SWAP2 SUB SWAP1 RETURN JUMPDEST PUSH2 0x59A PUSH2 0xF05 JUMP JUMPDEST STOP JUMPDEST PUSH2 0x5B6 PUSH1 0x4 DUP1 CALLDATASIZE SUB DUP2 ADD SWAP1 PUSH2 0x5B1 SWAP2 SWAP1 PUSH2 0x3523 JUMP JUMPDEST PUSH2 0xF8D JUMP JUMPDEST STOP JUMPDEST PUSH2 0x5C0 PUSH2 0xFAD JUMP JUMPDEST PUSH1 0x40 MLOAD PUSH2 0x5CD SWAP2 SWAP1 PUSH2 0x3B4D JUMP JUMPDEST PUSH1 0x40 MLOAD DUP1 SWAP2 SUB SWAP1 RETURN JUMPDEST PUSH2 0x5F0 PUSH1 0x4 DUP1 CALLDATASIZE SUB DUP2 ADD SWAP1 PUSH2 0x5EB SWAP2 SWAP1 PUSH2 0x33B3 JUMP JUMPDEST PUSH2 0xFD6 JUMP JUMPDEST PUSH1 0x40 MLOAD PUSH2 0x5FE SWAP3 SWAP2 SWAP1 PUSH2 0x3F37 JUMP JUMPDEST PUSH1 0x40 MLOAD DUP1 SWAP2 SUB SWAP1 RETURN JUMPDEST PUSH2 0x621 PUSH1 0x4 DUP1 CALLDATASIZE SUB DUP2 ADD SWAP1 PUSH2 0x61C SWAP2 SWAP1 PUSH2 0x3606 JUMP JUMPDEST PUSH2 0xFFA JUMP JUMPDEST PUSH1 0x40 MLOAD PUSH2 0x62E SWAP2 SWAP1 PUSH2 0x3BEA JUMP JUMPDEST PUSH1 0x40 MLOAD DUP1 SWAP2 SUB SWAP1 RETURN JUMPDEST PUSH2 0x63F PUSH2 0x1065 JUMP JUMPDEST PUSH1 0x40 MLOAD PUSH2 0x64C SWAP2 SWAP1 PUSH2 0x3C71 JUMP JUMPDEST PUSH1 0x40 MLOAD DUP1 SWAP2 SUB SWAP1 RETURN JUMPDEST PUSH2 0x65D PUSH2 0x10F7 JUMP JUMPDEST PUSH1 0x40 MLOAD PUSH2 0x66A SWAP2 SWAP1 PUSH2 0x3C05 JUMP JUMPDEST PUSH1 0x40 MLOAD DUP1 SWAP2 SUB SWAP1 RETURN JUMPDEST PUSH2 0x68D PUSH1 0x4 DUP1 CALLDATASIZE SUB DUP2 ADD SWAP1 PUSH2 0x688 SWAP2 SWAP1 PUSH2 0x3523 JUMP JUMPDEST PUSH2 0x10FE JUMP JUMPDEST PUSH1 0x40 MLOAD PUSH2 0x69A SWAP2 SWAP1 PUSH2 0x3BEA JUMP JUMPDEST PUSH1 0x40 MLOAD DUP1 SWAP2 SUB SWAP1 RETURN JUMPDEST PUSH2 0x6BD PUSH1 0x4 DUP1 CALLDATASIZE SUB DUP2 ADD SWAP1 PUSH2 0x6B8 SWAP2 SWAP1 PUSH2 0x3673 JUMP JUMPDEST PUSH2 0x1175 JUMP JUMPDEST STOP JUMPDEST PUSH2 0x6D9 PUSH1 0x4 DUP1 CALLDATASIZE SUB DUP2 ADD SWAP1 PUSH2 0x6D4 SWAP2 SWAP1 PUSH2 0x3523 JUMP JUMPDEST PUSH2 0x1182 JUMP JUMPDEST PUSH1 0x40 MLOAD PUSH2 0x6E6 SWAP2 SWAP1 PUSH2 0x3BEA JUMP JUMPDEST PUSH1 0x40 MLOAD DUP1 SWAP2 SUB SWAP1 RETURN JUMPDEST PUSH2 0x6F7 PUSH2 0x11A5 JUMP JUMPDEST STOP JUMPDEST PUSH2 0x701 PUSH2 0x1295 JUMP JUMPDEST PUSH1 0x40 MLOAD PUSH2 0x70E SWAP2 SWAP1 PUSH2 0x3C3B JUMP JUMPDEST PUSH1 0x40 MLOAD DUP1 SWAP2 SUB SWAP1 RETURN JUMPDEST PUSH2 0x731 PUSH1 0x4 DUP1 CALLDATASIZE SUB DUP2 ADD SWAP1 PUSH2 0x72C SWAP2 SWAP1 PUSH2 0x33B3 JUMP JUMPDEST PUSH2 0x12BB JUMP JUMPDEST STOP JUMPDEST PUSH2 0x73B PUSH2 0x1644 JUMP JUMPDEST PUSH1 0x40 MLOAD PUSH2 0x748 SWAP2 SWAP1 PUSH2 0x3C05 JUMP JUMPDEST PUSH1 0x40 MLOAD DUP1 SWAP2 SUB SWAP1 RETURN JUMPDEST PUSH2 0x76B PUSH1 0x4 DUP1 CALLDATASIZE SUB DUP2 ADD SWAP1 PUSH2 0x766 SWAP2 SWAP1 PUSH2 0x3606 JUMP JUMPDEST PUSH2 0x1668 JUMP JUMPDEST STOP JUMPDEST PUSH2 0x775 PUSH2 0x1689 JUMP JUMPDEST PUSH1 0x40 MLOAD PUSH2 0x782 SWAP2 SWAP1 PUSH2 0x3EF3 JUMP JUMPDEST PUSH1 0x40 MLOAD DUP1 SWAP2 SUB SWAP1 RETURN JUMPDEST PUSH2 0x7A5 PUSH1 0x4 DUP1 CALLDATASIZE SUB DUP2 ADD SWAP1 PUSH2 0x7A0 SWAP2 SWAP1 PUSH2 0x340D JUMP JUMPDEST PUSH2 0x168F JUMP JUMPDEST PUSH1 0x40 MLOAD PUSH2 0x7B2 SWAP2 SWAP1 PUSH2 0x3EF3 JUMP JUMPDEST PUSH1 0x40 MLOAD DUP1 SWAP2 SUB SWAP1 RETURN JUMPDEST PUSH2 0x7D5 PUSH1 0x4 DUP1 CALLDATASIZE SUB DUP2 ADD SWAP1 PUSH2 0x7D0 SWAP2 SWAP1 PUSH2 0x3563 JUMP JUMPDEST PUSH2 0x1716 JUMP JUMPDEST STOP JUMPDEST PUSH2 0x7F1 PUSH1 0x4 DUP1 CALLDATASIZE SUB DUP2 ADD SWAP1 PUSH2 0x7EC SWAP2 SWAP1 PUSH2 0x33B3 JUMP JUMPDEST PUSH2 0x17E8 JUMP JUMPDEST STOP JUMPDEST PUSH1 0x0 PUSH32 0x7965DB0B00000000000000000000000000000000000000000000000000000000 PUSH28 0xFFFFFFFFFFFFFFFFFFFFFFFFFFFFFFFFFFFFFFFFFFFFFFFFFFFFFFFF NOT AND DUP3 PUSH28 0xFFFFFFFFFFFFFFFFFFFFFFFFFFFFFFFFFFFFFFFFFFFFFFFFFFFFFFFF NOT AND EQ DUP1 PUSH2 0x866 JUMPI POP PUSH2 0x865 DUP3 PUSH2 0x18E0 JUMP JUMPDEST JUMPDEST SWAP1 POP SWAP2 SWAP1 POP JUMP JUMPDEST PUSH1 0x60 PUSH1 0x4 DUP1 SLOAD PUSH2 0x87C SWAP1 PUSH2 0x42B1 JUMP JUMPDEST DUP1 PUSH1 0x1F ADD PUSH1 0x20 DUP1 SWAP2 DIV MUL PUSH1 0x20 ADD PUSH1 0x40 MLOAD SWAP1 DUP2 ADD PUSH1 0x40 MSTORE DUP1 SWAP3 SWAP2 SWAP1 DUP2 DUP2 MSTORE PUSH1 0x20 ADD DUP3 DUP1 SLOAD PUSH2 0x8A8 SWAP1 PUSH2 0x42B1 JUMP JUMPDEST DUP1 ISZERO PUSH2 0x8F5 JUMPI DUP1 PUSH1 0x1F LT PUSH2 0x8CA JUMPI PUSH2 0x100 DUP1 DUP4 SLOAD DIV MUL DUP4 MSTORE SWAP2 PUSH1 0x20 ADD SWAP2 PUSH2 0x8F5 JUMP JUMPDEST DUP3 ADD SWAP2 SWAP1 PUSH1 0x0 MSTORE PUSH1 0x20 PUSH1 0x0 KECCAK256 SWAP1 JUMPDEST DUP2 SLOAD DUP2 MSTORE SWAP1 PUSH1 0x1 ADD SWAP1 PUSH1 0x20 ADD DUP1 DUP4 GT PUSH2 0x8D8 JUMPI DUP3 SWAP1 SUB PUSH1 0x1F AND DUP3 ADD SWAP2 JUMPDEST POP POP POP POP POP SWAP1 POP SWAP1 JUMP JUMPDEST PUSH1 0x0 DUP1 PUSH2 0x90A PUSH2 0x194A JUMP JUMPDEST SWAP1 POP PUSH2 0x917 DUP2 DUP6 DUP6 PUSH2 0x1952 JUMP JUMPDEST PUSH1 0x1 SWAP2 POP POP SWAP3 SWAP2 POP POP JUMP JUMPDEST PUSH1 0x0 PUSH4 0x150B7A02 PUSH1 0xE0 SHL SWAP1 POP SWAP5 SWAP4 POP POP POP POP JUMP JUMPDEST PUSH1 0x0 PUSH1 0x3 SLOAD SWAP1 POP SWAP1 JUMP JUMPDEST PUSH1 0xC PUSH1 0x20 MSTORE DUP1 PUSH1 0x0 MSTORE PUSH1 0x40 PUSH1 0x0 KECCAK256 PUSH1 0x0 SWAP2 POP SLOAD SWAP1 PUSH2 0x100 EXP SWAP1 DIV PUSH20 0xFFFFFFFFFFFFFFFFFFFFFFFFFFFFFFFFFFFFFFFF AND DUP2 JUMP JUMPDEST PUSH1 0x0 JUMPDEST DUP2 MLOAD DUP2 LT ISZERO PUSH2 0x9B6 JUMPI PUSH2 0x9A3 CALLER DUP4 DUP4 DUP2 MLOAD DUP2 LT PUSH2 0x996 JUMPI PUSH2 0x995 PUSH2 0x444A JUMP JUMPDEST JUMPDEST PUSH1 0x20 MUL PUSH1 0x20 ADD ADD MLOAD PUSH2 0x1B1D JUMP JUMPDEST DUP1 DUP1 PUSH2 0x9AE SWAP1 PUSH2 0x4314 JUMP JUMPDEST SWAP2 POP POP PUSH2 0x976 JUMP JUMPDEST POP POP JUMP JUMPDEST PUSH1 0x0 DUP1 PUSH2 0x9C5 PUSH2 0x194A JUMP JUMPDEST SWAP1 POP PUSH2 0x9D2 DUP6 DUP3 DUP6 PUSH2 0x2176 JUMP JUMPDEST PUSH2 0x9DD DUP6 DUP6 DUP6 PUSH2 0x2202 JUMP JUMPDEST PUSH1 0x1 SWAP2 POP POP SWAP4 SWAP3 POP POP POP JUMP JUMPDEST PUSH1 0x0 PUSH1 0x6 PUSH1 0x0 DUP4 DUP2 MSTORE PUSH1 0x20 ADD SWAP1 DUP2 MSTORE PUSH1 0x20 ADD PUSH1 0x0 KECCAK256 PUSH1 0x1 ADD SLOAD SWAP1 POP SWAP2 SWAP1 POP JUMP JUMPDEST PUSH2 0xA12 CALLER PUSH2 0x12BB JUMP JUMPDEST PUSH2 0xA1C CALLER DUP3 PUSH2 0x2486 JUMP JUMPDEST POP JUMP JUMPDEST PUSH2 0xA28 DUP3 PUSH2 0x9E9 JUMP JUMPDEST PUSH2 0xA31 DUP2 PUSH2 0x2852 JUMP JUMPDEST PUSH2 0xA3B DUP4 DUP4 PUSH2 0x2866 JUMP JUMPDEST POP POP POP JUMP JUMPDEST PUSH1 0x0 PUSH1 0x12 SWAP1 POP SWAP1 JUMP JUMPDEST PUSH2 0xA51 PUSH2 0x194A JUMP JUMPDEST PUSH20 0xFFFFFFFFFFFFFFFFFFFFFFFFFFFFFFFFFFFFFFFF AND DUP2 PUSH20 0xFFFFFFFFFFFFFFFFFFFFFFFFFFFFFFFFFFFFFFFF AND EQ PUSH2 0xABE JUMPI PUSH1 0x40 MLOAD PUSH32 0x8C379A000000000000000000000000000000000000000000000000000000000 DUP2 MSTORE PUSH1 0x4 ADD PUSH2 0xAB5 SWAP1 PUSH2 0x3E93 JUMP JUMPDEST PUSH1 0x40 MLOAD DUP1 SWAP2 SUB SWAP1 REVERT JUMPDEST PUSH2 0xAC8 DUP3 DUP3 PUSH2 0x2947 JUMP JUMPDEST POP POP JUMP JUMPDEST PUSH1 0x0 DUP1 PUSH2 0xAD7 PUSH2 0x194A JUMP JUMPDEST SWAP1 POP PUSH2 0xAF8 DUP2 DUP6 DUP6 PUSH2 0xAE9 DUP6 DUP10 PUSH2 0x168F JUMP JUMPDEST PUSH2 0xAF3 SWAP2 SWAP1 PUSH2 0x405D JUMP JUMPDEST PUSH2 0x1952 JUMP JUMPDEST PUSH1 0x1 SWAP2 POP POP SWAP3 SWAP2 POP POP JUMP JUMPDEST PUSH32 0x9F2DF0FED2C77648DE5860A4CC508CD0818C85B8B8A1AB4CEEEF8D981C8956A6 PUSH2 0xB2D DUP2 PUSH2 0x2852 JUMP JUMPDEST PUSH2 0xB37 DUP4 DUP4 PUSH2 0x2A29 JUMP JUMPDEST POP POP POP JUMP JUMPDEST PUSH2 0xB4D PUSH2 0xB47 PUSH2 0x194A JUMP JUMPDEST DUP3 PUSH2 0x2B8A JUMP JUMPDEST POP JUMP JUMPDEST PUSH1 0x8 PUSH1 0x0 SWAP1 SLOAD SWAP1 PUSH2 0x100 EXP SWAP1 DIV PUSH20 0xFFFFFFFFFFFFFFFFFFFFFFFFFFFFFFFFFFFFFFFF AND DUP2 JUMP JUMPDEST PUSH1 0x0 PUSH1 0xB PUSH1 0x0 DUP4 PUSH20 0xFFFFFFFFFFFFFFFFFFFFFFFFFFFFFFFFFFFFFFFF AND PUSH20 0xFFFFFFFFFFFFFFFFFFFFFFFFFFFFFFFFFFFFFFFF AND DUP2 MSTORE PUSH1 0x20 ADD SWAP1 DUP2 MSTORE PUSH1 0x20 ADD PUSH1 0x0 KECCAK256 SWAP1 POP PUSH1 0x0 DUP2 PUSH1 0x0 ADD SWAP1 POP PUSH1 0x0 JUMPDEST DUP2 DUP1 SLOAD SWAP1 POP DUP2 LT ISZERO PUSH2 0xD76 JUMPI PUSH1 0xA TIMESTAMP PUSH2 0xBDD SWAP2 SWAP1 PUSH2 0x405D JUMP JUMPDEST DUP4 PUSH1 0x1 ADD PUSH1 0x0 DUP5 DUP5 DUP2 SLOAD DUP2 LT PUSH2 0xBF6 JUMPI PUSH2 0xBF5 PUSH2 0x444A JUMP JUMPDEST JUMPDEST SWAP1 PUSH1 0x0 MSTORE PUSH1 0x20 PUSH1 0x0 KECCAK256 ADD SLOAD DUP2 MSTORE PUSH1 0x20 ADD SWAP1 DUP2 MSTORE PUSH1 0x20 ADD PUSH1 0x0 KECCAK256 SLOAD LT DUP1 ISZERO PUSH2 0xC4F JUMPI POP PUSH1 0x0 DUP4 PUSH1 0x1 ADD PUSH1 0x0 DUP5 DUP5 DUP2 SLOAD DUP2 LT PUSH2 0xC33 JUMPI PUSH2 0xC32 PUSH2 0x444A JUMP JUMPDEST JUMPDEST SWAP1 PUSH1 0x0 MSTORE PUSH1 0x20 PUSH1 0x0 KECCAK256 ADD SLOAD DUP2 MSTORE PUSH1 0x20 ADD SWAP1 DUP2 MSTORE PUSH1 0x20 ADD PUSH1 0x0 KECCAK256 SLOAD GT JUMPDEST ISZERO PUSH2 0xD63 JUMPI PUSH1 0x0 PUSH1 0xA DUP5 PUSH1 0x1 ADD PUSH1 0x0 DUP6 DUP6 DUP2 SLOAD DUP2 LT PUSH2 0xC71 JUMPI PUSH2 0xC70 PUSH2 0x444A JUMP JUMPDEST JUMPDEST SWAP1 PUSH1 0x0 MSTORE PUSH1 0x20 PUSH1 0x0 KECCAK256 ADD SLOAD DUP2 MSTORE PUSH1 0x20 ADD SWAP1 DUP2 MSTORE PUSH1 0x20 ADD PUSH1 0x0 KECCAK256 SLOAD TIMESTAMP PUSH2 0xC96 SWAP2 SWAP1 PUSH2 0x413E JUMP JUMPDEST PUSH2 0xCA0 SWAP2 SWAP1 PUSH2 0x40B3 JUMP JUMPDEST SWAP1 POP PUSH1 0x0 PUSH1 0xA DUP6 PUSH1 0x1 ADD PUSH1 0x0 DUP7 DUP7 DUP2 SLOAD DUP2 LT PUSH2 0xCBF JUMPI PUSH2 0xCBE PUSH2 0x444A JUMP JUMPDEST JUMPDEST SWAP1 PUSH1 0x0 MSTORE PUSH1 0x20 PUSH1 0x0 KECCAK256 ADD SLOAD DUP2 MSTORE PUSH1 0x20 ADD SWAP1 DUP2 MSTORE PUSH1 0x20 ADD PUSH1 0x0 KECCAK256 SLOAD TIMESTAMP PUSH2 0xCE4 SWAP2 SWAP1 PUSH2 0x413E JUMP JUMPDEST PUSH2 0xCEE SWAP2 SWAP1 PUSH2 0x435D JUMP JUMPDEST SWAP1 POP DUP2 PUSH8 0x8AC7230489E80000 PUSH2 0xD04 SWAP2 SWAP1 PUSH2 0x40E4 JUMP JUMPDEST DUP6 PUSH1 0x2 ADD PUSH1 0x0 DUP3 DUP3 SLOAD PUSH2 0xD17 SWAP2 SWAP1 PUSH2 0x405D JUMP JUMPDEST SWAP3 POP POP DUP2 SWAP1 SSTORE POP DUP1 TIMESTAMP PUSH2 0xD2A SWAP2 SWAP1 PUSH2 0x413E JUMP JUMPDEST DUP6 PUSH1 0x1 ADD PUSH1 0x0 DUP7 DUP7 DUP2 SLOAD DUP2 LT PUSH2 0xD43 JUMPI PUSH2 0xD42 PUSH2 0x444A JUMP JUMPDEST JUMPDEST SWAP1 PUSH1 0x0 MSTORE PUSH1 0x20 PUSH1 0x0 KECCAK256 ADD SLOAD DUP2 MSTORE PUSH1 0x20 ADD SWAP1 DUP2 MSTORE PUSH1 0x20 ADD PUSH1 0x0 KECCAK256 DUP2 SWAP1 SSTORE POP POP POP JUMPDEST DUP1 DUP1 PUSH2 0xD6E SWAP1 PUSH2 0x4314 JUMP JUMPDEST SWAP2 POP POP PUSH2 0xBC4 JUMP JUMPDEST POP POP POP POP JUMP JUMPDEST PUSH1 0x60 PUSH1 0xB PUSH1 0x0 DUP4 PUSH20 0xFFFFFFFFFFFFFFFFFFFFFFFFFFFFFFFFFFFFFFFF AND PUSH20 0xFFFFFFFFFFFFFFFFFFFFFFFFFFFFFFFFFFFFFFFF AND DUP2 MSTORE PUSH1 0x20 ADD SWAP1 DUP2 MSTORE PUSH1 0x20 ADD PUSH1 0x0 KECCAK256 PUSH1 0x0 ADD DUP1 SLOAD DUP1 PUSH1 0x20 MUL PUSH1 0x20 ADD PUSH1 0x40 MLOAD SWAP1 DUP2 ADD PUSH1 0x40 MSTORE DUP1 SWAP3 SWAP2 SWAP1 DUP2 DUP2 MSTORE PUSH1 0x20 ADD DUP3 DUP1 SLOAD DUP1 ISZERO PUSH2 0xE0A JUMPI PUSH1 0x20 MUL DUP3 ADD SWAP2 SWAP1 PUSH1 0x0 MSTORE PUSH1 0x20 PUSH1 0x0 KECCAK256 SWAP1 JUMPDEST DUP2 SLOAD DUP2 MSTORE PUSH1 0x20 ADD SWAP1 PUSH1 0x1 ADD SWAP1 DUP1 DUP4 GT PUSH2 0xDF6 JUMPI JUMPDEST POP POP POP POP POP SWAP1 POP SWAP2 SWAP1 POP JUMP JUMPDEST PUSH1 0x60 PUSH1 0x0 PUSH1 0xB PUSH1 0x0 DUP5 PUSH20 0xFFFFFFFFFFFFFFFFFFFFFFFFFFFFFFFFFFFFFFFF AND PUSH20 0xFFFFFFFFFFFFFFFFFFFFFFFFFFFFFFFFFFFFFFFF AND DUP2 MSTORE PUSH1 0x20 ADD SWAP1 DUP2 MSTORE PUSH1 0x20 ADD PUSH1 0x0 KECCAK256 SWAP1 POP DUP1 PUSH1 0x0 ADD DUP1 SLOAD DUP1 PUSH1 0x20 MUL PUSH1 0x20 ADD PUSH1 0x40 MLOAD SWAP1 DUP2 ADD PUSH1 0x40 MSTORE DUP1 SWAP3 SWAP2 SWAP1 DUP2 DUP2 MSTORE PUSH1 0x20 ADD DUP3 DUP1 SLOAD DUP1 ISZERO PUSH2 0xEA9 JUMPI PUSH1 0x20 MUL DUP3 ADD SWAP2 SWAP1 PUSH1 0x0 MSTORE PUSH1 0x20 PUSH1 0x0 KECCAK256 SWAP1 JUMPDEST DUP2 SLOAD DUP2 MSTORE PUSH1 0x20 ADD SWAP1 PUSH1 0x1 ADD SWAP1 DUP1 DUP4 GT PUSH2 0xE95 JUMPI JUMPDEST POP POP POP POP POP SWAP2 POP POP SWAP2 SWAP1 POP JUMP JUMPDEST PUSH1 0xA SLOAD DUP2 JUMP JUMPDEST PUSH1 0x0 PUSH1 0x1 PUSH1 0x0 DUP4 PUSH20 0xFFFFFFFFFFFFFFFFFFFFFFFFFFFFFFFFFFFFFFFF AND PUSH20 0xFFFFFFFFFFFFFFFFFFFFFFFFFFFFFFFFFFFFFFFF AND DUP2 MSTORE PUSH1 0x20 ADD SWAP1 DUP2 MSTORE PUSH1 0x20 ADD PUSH1 0x0 KECCAK256 SLOAD SWAP1 POP SWAP2 SWAP1 POP JUMP JUMPDEST PUSH2 0xF0D PUSH2 0x194A JUMP JUMPDEST PUSH20 0xFFFFFFFFFFFFFFFFFFFFFFFFFFFFFFFFFFFFFFFF AND PUSH2 0xF2B PUSH2 0xFAD JUMP JUMPDEST PUSH20 0xFFFFFFFFFFFFFFFFFFFFFFFFFFFFFFFFFFFFFFFF AND EQ PUSH2 0xF81 JUMPI PUSH1 0x40 MLOAD PUSH32 0x8C379A000000000000000000000000000000000000000000000000000000000 DUP2 MSTORE PUSH1 0x4 ADD PUSH2 0xF78 SWAP1 PUSH2 0x3DD3 JUMP JUMPDEST PUSH1 0x40 MLOAD DUP1 SWAP2 SUB SWAP1 REVERT JUMPDEST PUSH2 0xF8B PUSH1 0x0 PUSH2 0x2D63 JUMP JUMPDEST JUMP JUMPDEST PUSH2 0xF9F DUP3 PUSH2 0xF99 PUSH2 0x194A JUMP JUMPDEST DUP4 PUSH2 0x2176 JUMP JUMPDEST PUSH2 0xFA9 DUP3 DUP3 PUSH2 0x2B8A JUMP JUMPDEST POP POP JUMP JUMPDEST PUSH1 0x0 DUP1 PUSH1 0x0 SWAP1 SLOAD SWAP1 PUSH2 0x100 EXP SWAP1 DIV PUSH20 0xFFFFFFFFFFFFFFFFFFFFFFFFFFFFFFFFFFFFFFFF AND SWAP1 POP SWAP1 JUMP JUMPDEST PUSH1 0xB PUSH1 0x20 MSTORE DUP1 PUSH1 0x0 MSTORE PUSH1 0x40 PUSH1 0x0 KECCAK256 PUSH1 0x0 SWAP2 POP SWAP1 POP DUP1 PUSH1 0x2 ADD SLOAD SWAP1 DUP1 PUSH1 0x3 ADD SLOAD SWAP1 POP DUP3 JUMP JUMPDEST PUSH1 0x0 PUSH1 0x6 PUSH1 0x0 DUP5 DUP2 MSTORE PUSH1 0x20 ADD SWAP1 DUP2 MSTORE PUSH1 0x20 ADD PUSH1 0x0 KECCAK256 PUSH1 0x0 ADD PUSH1 0x0 DUP4 PUSH20 0xFFFFFFFFFFFFFFFFFFFFFFFFFFFFFFFFFFFFFFFF AND PUSH20 0xFFFFFFFFFFFFFFFFFFFFFFFFFFFFFFFFFFFFFFFF AND DUP2 MSTORE PUSH1 0x20 ADD SWAP1 DUP2 MSTORE PUSH1 0x20 ADD PUSH1 0x0 KECCAK256 PUSH1 0x0 SWAP1 SLOAD SWAP1 PUSH2 0x100 EXP SWAP1 DIV PUSH1 0xFF AND SWAP1 POP SWAP3 SWAP2 POP POP JUMP JUMPDEST PUSH1 0x60 PUSH1 0x5 DUP1 SLOAD PUSH2 0x1074 SWAP1 PUSH2 0x42B1 JUMP JUMPDEST DUP1 PUSH1 0x1F ADD PUSH1 0x20 DUP1 SWAP2 DIV MUL PUSH1 0x20 ADD PUSH1 0x40 MLOAD SWAP1 DUP2 ADD PUSH1 0x40 MSTORE DUP1 SWAP3 SWAP2 SWAP1 DUP2 DUP2 MSTORE PUSH1 0x20 ADD DUP3 DUP1 SLOAD PUSH2 0x10A0 SWAP1 PUSH2 0x42B1 JUMP JUMPDEST DUP1 ISZERO PUSH2 0x10ED JUMPI DUP1 PUSH1 0x1F LT PUSH2 0x10C2 JUMPI PUSH2 0x100 DUP1 DUP4 SLOAD DIV MUL DUP4 MSTORE SWAP2 PUSH1 0x20 ADD SWAP2 PUSH2 0x10ED JUMP JUMPDEST DUP3 ADD SWAP2 SWAP1 PUSH1 0x0 MSTORE PUSH1 0x20 PUSH1 0x0 KECCAK256 SWAP1 JUMPDEST DUP2 SLOAD DUP2 MSTORE SWAP1 PUSH1 0x1 ADD SWAP1 PUSH1 0x20 ADD DUP1 DUP4 GT PUSH2 0x10D0 JUMPI DUP3 SWAP1 SUB PUSH1 0x1F AND DUP3 ADD SWAP2 JUMPDEST POP POP POP POP POP SWAP1 POP SWAP1 JUMP JUMPDEST PUSH1 0x0 DUP1 SHL DUP2 JUMP JUMPDEST PUSH1 0x0 DUP1 PUSH2 0x1109 PUSH2 0x194A JUMP JUMPDEST SWAP1 POP PUSH1 0x0 PUSH2 0x1117 DUP3 DUP7 PUSH2 0x168F JUMP JUMPDEST SWAP1 POP DUP4 DUP2 LT ISZERO PUSH2 0x115C JUMPI PUSH1 0x40 MLOAD PUSH32 0x8C379A000000000000000000000000000000000000000000000000000000000 DUP2 MSTORE PUSH1 0x4 ADD PUSH2 0x1153 SWAP1 PUSH2 0x3E73 JUMP JUMPDEST PUSH1 0x40 MLOAD DUP1 SWAP2 SUB SWAP1 REVERT JUMPDEST PUSH2 0x1169 DUP3 DUP7 DUP7 DUP5 SUB PUSH2 0x1952 JUMP JUMPDEST PUSH1 0x1 SWAP3 POP POP POP SWAP3 SWAP2 POP POP JUMP JUMPDEST PUSH2 0x117F CALLER DUP3 PUSH2 0x1B1D JUMP JUMPDEST POP JUMP JUMPDEST PUSH1 0x0 DUP1 PUSH2 0x118D PUSH2 0x194A JUMP JUMPDEST SWAP1 POP PUSH2 0x119A DUP2 DUP6 DUP6 PUSH2 0x2202 JUMP JUMPDEST PUSH1 0x1 SWAP2 POP POP SWAP3 SWAP2 POP POP JUMP JUMPDEST PUSH2 0x11AD PUSH2 0x194A JUMP JUMPDEST PUSH20 0xFFFFFFFFFFFFFFFFFFFFFFFFFFFFFFFFFFFFFFFF AND PUSH2 0x11CB PUSH2 0xFAD JUMP JUMPDEST PUSH20 0xFFFFFFFFFFFFFFFFFFFFFFFFFFFFFFFFFFFFFFFF AND EQ PUSH2 0x1221 JUMPI PUSH1 0x40 MLOAD PUSH32 0x8C379A000000000000000000000000000000000000000000000000000000000 DUP2 MSTORE PUSH1 0x4 ADD PUSH2 0x1218 SWAP1 PUSH2 0x3DD3 JUMP JUMPDEST PUSH1 0x40 MLOAD DUP1 SWAP2 SUB SWAP1 REVERT JUMPDEST PUSH1 0xD PUSH1 0x0 SWAP1 SLOAD SWAP1 PUSH2 0x100 EXP SWAP1 DIV PUSH1 0xFF AND ISZERO PUSH2 0x1271 JUMPI PUSH1 0x40 MLOAD PUSH32 0x8C379A000000000000000000000000000000000000000000000000000000000 DUP2 MSTORE PUSH1 0x4 ADD PUSH2 0x1268 SWAP1 PUSH2 0x3C93 JUMP JUMPDEST PUSH1 0x40 MLOAD DUP1 SWAP2 SUB SWAP1 REVERT JUMPDEST TIMESTAMP PUSH1 0xA DUP2 SWAP1 SSTORE POP PUSH1 0x1 PUSH1 0xD PUSH1 0x0 PUSH2 0x100 EXP DUP2 SLOAD DUP2 PUSH1 0xFF MUL NOT AND SWAP1 DUP4 ISZERO ISZERO MUL OR SWAP1 SSTORE POP JUMP JUMPDEST PUSH1 0x7 PUSH1 0x0 SWAP1 SLOAD SWAP1 PUSH2 0x100 EXP SWAP1 DIV PUSH20 0xFFFFFFFFFFFFFFFFFFFFFFFFFFFFFFFFFFFFFFFF AND DUP2 JUMP JUMPDEST PUSH1 0x0 PUSH1 0xB PUSH1 0x0 DUP4 PUSH20 0xFFFFFFFFFFFFFFFFFFFFFFFFFFFFFFFFFFFFFFFF AND PUSH20 0xFFFFFFFFFFFFFFFFFFFFFFFFFFFFFFFFFFFFFFFF AND DUP2 MSTORE PUSH1 0x20 ADD SWAP1 DUP2 MSTORE PUSH1 0x20 ADD PUSH1 0x0 KECCAK256 SWAP1 POP PUSH1 0x0 DUP2 PUSH1 0x0 ADD SWAP1 POP PUSH1 0x0 JUMPDEST DUP2 DUP1 SLOAD SWAP1 POP DUP2 LT ISZERO PUSH2 0x14BB JUMPI PUSH1 0xA TIMESTAMP PUSH2 0x1322 SWAP2 SWAP1 PUSH2 0x405D JUMP JUMPDEST DUP4 PUSH1 0x1 ADD PUSH1 0x0 DUP5 DUP5 DUP2 SLOAD DUP2 LT PUSH2 0x133B JUMPI PUSH2 0x133A PUSH2 0x444A JUMP JUMPDEST JUMPDEST SWAP1 PUSH1 0x0 MSTORE PUSH1 0x20 PUSH1 0x0 KECCAK256 ADD SLOAD DUP2 MSTORE PUSH1 0x20 ADD SWAP1 DUP2 MSTORE PUSH1 0x20 ADD PUSH1 0x0 KECCAK256 SLOAD LT DUP1 ISZERO PUSH2 0x1394 JUMPI POP PUSH1 0x0 DUP4 PUSH1 0x1 ADD PUSH1 0x0 DUP5 DUP5 DUP2 SLOAD DUP2 LT PUSH2 0x1378 JUMPI PUSH2 0x1377 PUSH2 0x444A JUMP JUMPDEST JUMPDEST SWAP1 PUSH1 0x0 MSTORE PUSH1 0x20 PUSH1 0x0 KECCAK256 ADD SLOAD DUP2 MSTORE PUSH1 0x20 ADD SWAP1 DUP2 MSTORE PUSH1 0x20 ADD PUSH1 0x0 KECCAK256 SLOAD GT JUMPDEST ISZERO PUSH2 0x14A8 JUMPI PUSH1 0x0 PUSH1 0xA DUP5 PUSH1 0x1 ADD PUSH1 0x0 DUP6 DUP6 DUP2 SLOAD DUP2 LT PUSH2 0x13B6 JUMPI PUSH2 0x13B5 PUSH2 0x444A JUMP JUMPDEST JUMPDEST SWAP1 PUSH1 0x0 MSTORE PUSH1 0x20 PUSH1 0x0 KECCAK256 ADD SLOAD DUP2 MSTORE PUSH1 0x20 ADD SWAP1 DUP2 MSTORE PUSH1 0x20 ADD PUSH1 0x0 KECCAK256 SLOAD TIMESTAMP PUSH2 0x13DB SWAP2 SWAP1 PUSH2 0x413E JUMP JUMPDEST PUSH2 0x13E5 SWAP2 SWAP1 PUSH2 0x40B3 JUMP JUMPDEST SWAP1 POP PUSH1 0x0 PUSH1 0xA DUP6 PUSH1 0x1 ADD PUSH1 0x0 DUP7 DUP7 DUP2 SLOAD DUP2 LT PUSH2 0x1404 JUMPI PUSH2 0x1403 PUSH2 0x444A JUMP JUMPDEST JUMPDEST SWAP1 PUSH1 0x0 MSTORE PUSH1 0x20 PUSH1 0x0 KECCAK256 ADD SLOAD DUP2 MSTORE PUSH1 0x20 ADD SWAP1 DUP2 MSTORE PUSH1 0x20 ADD PUSH1 0x0 KECCAK256 SLOAD TIMESTAMP PUSH2 0x1429 SWAP2 SWAP1 PUSH2 0x413E JUMP JUMPDEST PUSH2 0x1433 SWAP2 SWAP1 PUSH2 0x435D JUMP JUMPDEST SWAP1 POP DUP2 PUSH8 0x8AC7230489E80000 PUSH2 0x1449 SWAP2 SWAP1 PUSH2 0x40E4 JUMP JUMPDEST DUP6 PUSH1 0x2 ADD PUSH1 0x0 DUP3 DUP3 SLOAD PUSH2 0x145C SWAP2 SWAP1 PUSH2 0x405D JUMP JUMPDEST SWAP3 POP POP DUP2 SWAP1 SSTORE POP DUP1 TIMESTAMP PUSH2 0x146F SWAP2 SWAP1 PUSH2 0x413E JUMP JUMPDEST DUP6 PUSH1 0x1 ADD PUSH1 0x0 DUP7 DUP7 DUP2 SLOAD DUP2 LT PUSH2 0x1488 JUMPI PUSH2 0x1487 PUSH2 0x444A JUMP JUMPDEST JUMPDEST SWAP1 PUSH1 0x0 MSTORE PUSH1 0x20 PUSH1 0x0 KECCAK256 ADD SLOAD DUP2 MSTORE PUSH1 0x20 ADD SWAP1 DUP2 MSTORE PUSH1 0x20 ADD PUSH1 0x0 KECCAK256 DUP2 SWAP1 SSTORE POP POP POP JUMPDEST DUP1 DUP1 PUSH2 0x14B3 SWAP1 PUSH2 0x4314 JUMP JUMPDEST SWAP2 POP POP PUSH2 0x1309 JUMP JUMPDEST POP PUSH1 0xB PUSH1 0x0 DUP5 PUSH20 0xFFFFFFFFFFFFFFFFFFFFFFFFFFFFFFFFFFFFFFFF AND PUSH20 0xFFFFFFFFFFFFFFFFFFFFFFFFFFFFFFFFFFFFFFFF AND DUP2 MSTORE PUSH1 0x20 ADD SWAP1 DUP2 MSTORE PUSH1 0x20 ADD PUSH1 0x0 KECCAK256 PUSH1 0x2 ADD SLOAD PUSH1 0xB PUSH1 0x0 DUP6 PUSH20 0xFFFFFFFFFFFFFFFFFFFFFFFFFFFFFFFFFFFFFFFF AND PUSH20 0xFFFFFFFFFFFFFFFFFFFFFFFFFFFFFFFFFFFFFFFF AND DUP2 MSTORE PUSH1 0x20 ADD SWAP1 DUP2 MSTORE PUSH1 0x20 ADD PUSH1 0x0 KECCAK256 PUSH1 0x3 ADD PUSH1 0x0 DUP3 DUP3 SLOAD PUSH2 0x1550 SWAP2 SWAP1 PUSH2 0x405D JUMP JUMPDEST SWAP3 POP POP DUP2 SWAP1 SSTORE POP PUSH2 0x1581 PUSH32 0x9F2DF0FED2C77648DE5860A4CC508CD0818C85B8B8A1AB4CEEEF8D981C8956A6 CALLER PUSH2 0x2866 JUMP JUMPDEST PUSH2 0x15CD DUP4 PUSH1 0xB PUSH1 0x0 DUP7 PUSH20 0xFFFFFFFFFFFFFFFFFFFFFFFFFFFFFFFFFFFFFFFF AND PUSH20 0xFFFFFFFFFFFFFFFFFFFFFFFFFFFFFFFFFFFFFFFF AND DUP2 MSTORE PUSH1 0x20 ADD SWAP1 DUP2 MSTORE PUSH1 0x20 ADD PUSH1 0x0 KECCAK256 PUSH1 0x2 ADD SLOAD PUSH2 0xB03 JUMP JUMPDEST PUSH2 0x15F7 PUSH32 0x9F2DF0FED2C77648DE5860A4CC508CD0818C85B8B8A1AB4CEEEF8D981C8956A6 CALLER PUSH2 0x2947 JUMP JUMPDEST PUSH1 0x0 PUSH1 0xB PUSH1 0x0 DUP6 PUSH20 0xFFFFFFFFFFFFFFFFFFFFFFFFFFFFFFFFFFFFFFFF AND PUSH20 0xFFFFFFFFFFFFFFFFFFFFFFFFFFFFFFFFFFFFFFFF AND DUP2 MSTORE PUSH1 0x20 ADD SWAP1 DUP2 MSTORE PUSH1 0x20 ADD PUSH1 0x0 KECCAK256 PUSH1 0x2 ADD DUP2 SWAP1 SSTORE POP POP POP POP JUMP JUMPDEST PUSH32 0x9F2DF0FED2C77648DE5860A4CC508CD0818C85B8B8A1AB4CEEEF8D981C8956A6 DUP2 JUMP JUMPDEST PUSH2 0x1671 DUP3 PUSH2 0x9E9 JUMP JUMPDEST PUSH2 0x167A DUP2 PUSH2 0x2852 JUMP JUMPDEST PUSH2 0x1684 DUP4 DUP4 PUSH2 0x2947 JUMP JUMPDEST POP POP POP JUMP JUMPDEST PUSH1 0x9 SLOAD DUP2 JUMP JUMPDEST PUSH1 0x0 PUSH1 0x2 PUSH1 0x0 DUP5 PUSH20 0xFFFFFFFFFFFFFFFFFFFFFFFFFFFFFFFFFFFFFFFF AND PUSH20 0xFFFFFFFFFFFFFFFFFFFFFFFFFFFFFFFFFFFFFFFF AND DUP2 MSTORE PUSH1 0x20 ADD SWAP1 DUP2 MSTORE PUSH1 0x20 ADD PUSH1 0x0 KECCAK256 PUSH1 0x0 DUP4 PUSH20 0xFFFFFFFFFFFFFFFFFFFFFFFFFFFFFFFFFFFFFFFF AND PUSH20 0xFFFFFFFFFFFFFFFFFFFFFFFFFFFFFFFFFFFFFFFF AND DUP2 MSTORE PUSH1 0x20 ADD SWAP1 DUP2 MSTORE PUSH1 0x20 ADD PUSH1 0x0 KECCAK256 SLOAD SWAP1 POP SWAP3 SWAP2 POP POP JUMP JUMPDEST PUSH2 0x171F CALLER PUSH2 0x12BB JUMP JUMPDEST PUSH1 0x0 JUMPDEST DUP2 MLOAD DUP2 LT ISZERO PUSH2 0x17E4 JUMPI CALLER PUSH20 0xFFFFFFFFFFFFFFFFFFFFFFFFFFFFFFFFFFFFFFFF AND PUSH1 0xC PUSH1 0x0 DUP5 DUP5 DUP2 MLOAD DUP2 LT PUSH2 0x1759 JUMPI PUSH2 0x1758 PUSH2 0x444A JUMP JUMPDEST JUMPDEST PUSH1 0x20 MUL PUSH1 0x20 ADD ADD MLOAD DUP2 MSTORE PUSH1 0x20 ADD SWAP1 DUP2 MSTORE PUSH1 0x20 ADD PUSH1 0x0 KECCAK256 PUSH1 0x0 SWAP1 SLOAD SWAP1 PUSH2 0x100 EXP SWAP1 DIV PUSH20 0xFFFFFFFFFFFFFFFFFFFFFFFFFFFFFFFFFFFFFFFF AND PUSH20 0xFFFFFFFFFFFFFFFFFFFFFFFFFFFFFFFFFFFFFFFF AND EQ ISZERO PUSH2 0x17D1 JUMPI PUSH2 0x17D0 CALLER DUP4 DUP4 DUP2 MLOAD DUP2 LT PUSH2 0x17C3 JUMPI PUSH2 0x17C2 PUSH2 0x444A JUMP JUMPDEST JUMPDEST PUSH1 0x20 MUL PUSH1 0x20 ADD ADD MLOAD PUSH2 0x2486 JUMP JUMPDEST JUMPDEST DUP1 DUP1 PUSH2 0x17DC SWAP1 PUSH2 0x4314 JUMP JUMPDEST SWAP2 POP POP PUSH2 0x1722 JUMP JUMPDEST POP POP JUMP JUMPDEST PUSH2 0x17F0 PUSH2 0x194A JUMP JUMPDEST PUSH20 0xFFFFFFFFFFFFFFFFFFFFFFFFFFFFFFFFFFFFFFFF AND PUSH2 0x180E PUSH2 0xFAD JUMP JUMPDEST PUSH20 0xFFFFFFFFFFFFFFFFFFFFFFFFFFFFFFFFFFFFFFFF AND EQ PUSH2 0x1864 JUMPI PUSH1 0x40 MLOAD PUSH32 0x8C379A000000000000000000000000000000000000000000000000000000000 DUP2 MSTORE PUSH1 0x4 ADD PUSH2 0x185B SWAP1 PUSH2 0x3DD3 JUMP JUMPDEST PUSH1 0x40 MLOAD DUP1 SWAP2 SUB SWAP1 REVERT JUMPDEST PUSH1 0x0 PUSH20 0xFFFFFFFFFFFFFFFFFFFFFFFFFFFFFFFFFFFFFFFF AND DUP2 PUSH20 0xFFFFFFFFFFFFFFFFFFFFFFFFFFFFFFFFFFFFFFFF AND EQ ISZERO PUSH2 0x18D4 JUMPI PUSH1 0x40 MLOAD PUSH32 0x8C379A000000000000000000000000000000000000000000000000000000000 DUP2 MSTORE PUSH1 0x4 ADD PUSH2 0x18CB SWAP1 PUSH2 0x3D33 JUMP JUMPDEST PUSH1 0x40 MLOAD DUP1 SWAP2 SUB SWAP1 REVERT JUMPDEST PUSH2 0x18DD DUP2 PUSH2 0x2D63 JUMP JUMPDEST POP JUMP JUMPDEST PUSH1 0x0 PUSH32 0x1FFC9A700000000000000000000000000000000000000000000000000000000 PUSH28 0xFFFFFFFFFFFFFFFFFFFFFFFFFFFFFFFFFFFFFFFFFFFFFFFFFFFFFFFF NOT AND DUP3 PUSH28 0xFFFFFFFFFFFFFFFFFFFFFFFFFFFFFFFFFFFFFFFFFFFFFFFFFFFFFFFF NOT AND EQ SWAP1 POP SWAP2 SWAP1 POP JUMP JUMPDEST PUSH1 0x0 CALLER SWAP1 POP SWAP1 JUMP JUMPDEST PUSH1 0x0 PUSH20 0xFFFFFFFFFFFFFFFFFFFFFFFFFFFFFFFFFFFFFFFF AND DUP4 PUSH20 0xFFFFFFFFFFFFFFFFFFFFFFFFFFFFFFFFFFFFFFFF AND EQ ISZERO PUSH2 0x19C2 JUMPI PUSH1 0x40 MLOAD PUSH32 0x8C379A000000000000000000000000000000000000000000000000000000000 DUP2 MSTORE PUSH1 0x4 ADD PUSH2 0x19B9 SWAP1 PUSH2 0x3E33 JUMP JUMPDEST PUSH1 0x40 MLOAD DUP1 SWAP2 SUB SWAP1 REVERT JUMPDEST PUSH1 0x0 PUSH20 0xFFFFFFFFFFFFFFFFFFFFFFFFFFFFFFFFFFFFFFFF AND DUP3 PUSH20 0xFFFFFFFFFFFFFFFFFFFFFFFFFFFFFFFFFFFFFFFF AND EQ ISZERO PUSH2 0x1A32 JUMPI PUSH1 0x40 MLOAD PUSH32 0x8C379A000000000000000000000000000000000000000000000000000000000 DUP2 MSTORE PUSH1 0x4 ADD PUSH2 0x1A29 SWAP1 PUSH2 0x3D53 JUMP JUMPDEST PUSH1 0x40 MLOAD DUP1 SWAP2 SUB SWAP1 REVERT JUMPDEST DUP1 PUSH1 0x2 PUSH1 0x0 DUP6 PUSH20 0xFFFFFFFFFFFFFFFFFFFFFFFFFFFFFFFFFFFFFFFF AND PUSH20 0xFFFFFFFFFFFFFFFFFFFFFFFFFFFFFFFFFFFFFFFF AND DUP2 MSTORE PUSH1 0x20 ADD SWAP1 DUP2 MSTORE PUSH1 0x20 ADD PUSH1 0x0 KECCAK256 PUSH1 0x0 DUP5 PUSH20 0xFFFFFFFFFFFFFFFFFFFFFFFFFFFFFFFFFFFFFFFF AND PUSH20 0xFFFFFFFFFFFFFFFFFFFFFFFFFFFFFFFFFFFFFFFF AND DUP2 MSTORE PUSH1 0x20 ADD SWAP1 DUP2 MSTORE PUSH1 0x20 ADD PUSH1 0x0 KECCAK256 DUP2 SWAP1 SSTORE POP DUP2 PUSH20 0xFFFFFFFFFFFFFFFFFFFFFFFFFFFFFFFFFFFFFFFF AND DUP4 PUSH20 0xFFFFFFFFFFFFFFFFFFFFFFFFFFFFFFFFFFFFFFFF AND PUSH32 0x8C5BE1E5EBEC7D5BD14F71427D1E84F3DD0314C0F7B2291E5B200AC8C7C3B925 DUP4 PUSH1 0x40 MLOAD PUSH2 0x1B10 SWAP2 SWAP1 PUSH2 0x3EF3 JUMP JUMPDEST PUSH1 0x40 MLOAD DUP1 SWAP2 SUB SWAP1 LOG3 POP POP POP JUMP JUMPDEST PUSH1 0x0 PUSH1 0x1 SWAP1 POP PUSH1 0xD PUSH1 0x0 SWAP1 SLOAD SWAP1 PUSH2 0x100 EXP SWAP1 DIV PUSH1 0xFF AND PUSH2 0x1B72 JUMPI PUSH1 0x40 MLOAD PUSH32 0x8C379A000000000000000000000000000000000000000000000000000000000 DUP2 MSTORE PUSH1 0x4 ADD PUSH2 0x1B69 SWAP1 PUSH2 0x3E53 JUMP JUMPDEST PUSH1 0x40 MLOAD DUP1 SWAP2 SUB SWAP1 REVERT JUMPDEST DUP3 PUSH20 0xFFFFFFFFFFFFFFFFFFFFFFFFFFFFFFFFFFFFFFFF AND PUSH1 0x7 PUSH1 0x0 SWAP1 SLOAD SWAP1 PUSH2 0x100 EXP SWAP1 DIV PUSH20 0xFFFFFFFFFFFFFFFFFFFFFFFFFFFFFFFFFFFFFFFF AND PUSH20 0xFFFFFFFFFFFFFFFFFFFFFFFFFFFFFFFFFFFFFFFF AND PUSH4 0x6352211E PUSH1 0x8 PUSH1 0x0 SWAP1 SLOAD SWAP1 PUSH2 0x100 EXP SWAP1 DIV PUSH20 0xFFFFFFFFFFFFFFFFFFFFFFFFFFFFFFFFFFFFFFFF AND PUSH20 0xFFFFFFFFFFFFFFFFFFFFFFFFFFFFFFFFFFFFFFFF AND PUSH4 0x45149F8D DUP7 PUSH1 0x40 MLOAD DUP3 PUSH4 0xFFFFFFFF AND PUSH1 0xE0 SHL DUP2 MSTORE PUSH1 0x4 ADD PUSH2 0x1C22 SWAP2 SWAP1 PUSH2 0x3EF3 JUMP JUMPDEST PUSH1 0x20 PUSH1 0x40 MLOAD DUP1 DUP4 SUB DUP2 DUP7 DUP1 EXTCODESIZE ISZERO DUP1 ISZERO PUSH2 0x1C3A JUMPI PUSH1 0x0 DUP1 REVERT JUMPDEST POP GAS STATICCALL ISZERO DUP1 ISZERO PUSH2 0x1C4E JUMPI RETURNDATASIZE PUSH1 0x0 DUP1 RETURNDATACOPY RETURNDATASIZE PUSH1 0x0 REVERT JUMPDEST POP POP POP POP PUSH1 0x40 MLOAD RETURNDATASIZE PUSH1 0x1F NOT PUSH1 0x1F DUP3 ADD AND DUP3 ADD DUP1 PUSH1 0x40 MSTORE POP DUP2 ADD SWAP1 PUSH2 0x1C72 SWAP2 SWAP1 PUSH2 0x36A0 JUMP JUMPDEST PUSH1 0x40 MLOAD DUP3 PUSH4 0xFFFFFFFF AND PUSH1 0xE0 SHL DUP2 MSTORE PUSH1 0x4 ADD PUSH2 0x1C8E SWAP2 SWAP1 PUSH2 0x3EF3 JUMP JUMPDEST PUSH1 0x20 PUSH1 0x40 MLOAD DUP1 DUP4 SUB DUP2 DUP7 DUP1 EXTCODESIZE ISZERO DUP1 ISZERO PUSH2 0x1CA6 JUMPI PUSH1 0x0 DUP1 REVERT JUMPDEST POP GAS STATICCALL ISZERO DUP1 ISZERO PUSH2 0x1CBA JUMPI RETURNDATASIZE PUSH1 0x0 DUP1 RETURNDATACOPY RETURNDATASIZE PUSH1 0x0 REVERT JUMPDEST POP POP POP POP PUSH1 0x40 MLOAD RETURNDATASIZE PUSH1 0x1F NOT PUSH1 0x1F DUP3 ADD AND DUP3 ADD DUP1 PUSH1 0x40 MSTORE POP DUP2 ADD SWAP1 PUSH2 0x1CDE SWAP2 SWAP1 PUSH2 0x33E0 JUMP JUMPDEST PUSH20 0xFFFFFFFFFFFFFFFFFFFFFFFFFFFFFFFFFFFFFFFF AND EQ PUSH2 0x1D34 JUMPI PUSH1 0x40 MLOAD PUSH32 0x8C379A000000000000000000000000000000000000000000000000000000000 DUP2 MSTORE PUSH1 0x4 ADD PUSH2 0x1D2B SWAP1 PUSH2 0x3DB3 JUMP JUMPDEST PUSH1 0x40 MLOAD DUP1 SWAP2 SUB SWAP1 REVERT JUMPDEST PUSH1 0x0 ISZERO ISZERO PUSH1 0x8 PUSH1 0x0 SWAP1 SLOAD SWAP1 PUSH2 0x100 EXP SWAP1 DIV PUSH20 0xFFFFFFFFFFFFFFFFFFFFFFFFFFFFFFFFFFFFFFFF AND PUSH20 0xFFFFFFFFFFFFFFFFFFFFFFFFFFFFFFFFFFFFFFFF AND PUSH4 0xB6FECE2D DUP5 PUSH1 0x40 MLOAD DUP3 PUSH4 0xFFFFFFFF AND PUSH1 0xE0 SHL DUP2 MSTORE PUSH1 0x4 ADD PUSH2 0x1D93 SWAP2 SWAP1 PUSH2 0x3EF3 JUMP JUMPDEST PUSH1 0x20 PUSH1 0x40 MLOAD DUP1 DUP4 SUB DUP2 DUP7 DUP1 EXTCODESIZE ISZERO DUP1 ISZERO PUSH2 0x1DAB JUMPI PUSH1 0x0 DUP1 REVERT JUMPDEST POP GAS STATICCALL ISZERO DUP1 ISZERO PUSH2 0x1DBF JUMPI RETURNDATASIZE PUSH1 0x0 DUP1 RETURNDATACOPY RETURNDATASIZE PUSH1 0x0 REVERT JUMPDEST POP POP POP POP PUSH1 0x40 MLOAD RETURNDATASIZE PUSH1 0x1F NOT PUSH1 0x1F DUP3 ADD AND DUP3 ADD DUP1 PUSH1 0x40 MSTORE POP DUP2 ADD SWAP1 PUSH2 0x1DE3 SWAP2 SWAP1 PUSH2 0x35AC JUMP JUMPDEST ISZERO ISZERO EQ PUSH2 0x1E25 JUMPI PUSH1 0x40 MLOAD PUSH32 0x8C379A000000000000000000000000000000000000000000000000000000000 DUP2 MSTORE PUSH1 0x4 ADD PUSH2 0x1E1C SWAP1 PUSH2 0x3ED3 JUMP JUMPDEST PUSH1 0x40 MLOAD DUP1 SWAP2 SUB SWAP1 REVERT JUMPDEST PUSH1 0x0 PUSH1 0xB PUSH1 0x0 DUP6 PUSH20 0xFFFFFFFFFFFFFFFFFFFFFFFFFFFFFFFFFFFFFFFF AND PUSH20 0xFFFFFFFFFFFFFFFFFFFFFFFFFFFFFFFFFFFFFFFF AND DUP2 MSTORE PUSH1 0x20 ADD SWAP1 DUP2 MSTORE PUSH1 0x20 ADD PUSH1 0x0 KECCAK256 SWAP1 POP PUSH1 0x8 PUSH1 0x0 SWAP1 SLOAD SWAP1 PUSH2 0x100 EXP SWAP1 DIV PUSH20 0xFFFFFFFFFFFFFFFFFFFFFFFFFFFFFFFFFFFFFFFF AND PUSH20 0xFFFFFFFFFFFFFFFFFFFFFFFFFFFFFFFFFFFFFFFF AND PUSH4 0xDB12B450 DUP6 DUP6 PUSH1 0x40 MLOAD DUP4 PUSH4 0xFFFFFFFF AND PUSH1 0xE0 SHL DUP2 MSTORE PUSH1 0x4 ADD PUSH2 0x1EC5 SWAP3 SWAP2 SWAP1 PUSH2 0x3B9F JUMP JUMPDEST PUSH1 0x0 PUSH1 0x40 MLOAD DUP1 DUP4 SUB DUP2 PUSH1 0x0 DUP8 DUP1 EXTCODESIZE ISZERO DUP1 ISZERO PUSH2 0x1EDF JUMPI PUSH1 0x0 DUP1 REVERT JUMPDEST POP GAS CALL ISZERO DUP1 ISZERO PUSH2 0x1EF3 JUMPI RETURNDATASIZE PUSH1 0x0 DUP1 RETURNDATACOPY RETURNDATASIZE PUSH1 0x0 REVERT JUMPDEST POP POP POP POP DUP1 PUSH1 0x0 ADD DUP4 SWAP1 DUP1 PUSH1 0x1 DUP2 SLOAD ADD DUP1 DUP3 SSTORE DUP1 SWAP2 POP POP PUSH1 0x1 SWAP1 SUB SWAP1 PUSH1 0x0 MSTORE PUSH1 0x20 PUSH1 0x0 KECCAK256 ADD PUSH1 0x0 SWAP1 SWAP2 SWAP1 SWAP2 SWAP1 SWAP2 POP SSTORE TIMESTAMP DUP2 PUSH1 0x1 ADD PUSH1 0x0 DUP6 DUP2 MSTORE PUSH1 0x20 ADD SWAP1 DUP2 MSTORE PUSH1 0x20 ADD PUSH1 0x0 KECCAK256 DUP2 SWAP1 SSTORE POP DUP4 PUSH1 0xC PUSH1 0x0 DUP6 DUP2 MSTORE PUSH1 0x20 ADD SWAP1 DUP2 MSTORE PUSH1 0x20 ADD PUSH1 0x0 KECCAK256 PUSH1 0x0 PUSH2 0x100 EXP DUP2 SLOAD DUP2 PUSH20 0xFFFFFFFFFFFFFFFFFFFFFFFFFFFFFFFFFFFFFFFF MUL NOT AND SWAP1 DUP4 PUSH20 0xFFFFFFFFFFFFFFFFFFFFFFFFFFFFFFFFFFFFFFFF AND MUL OR SWAP1 SSTORE POP PUSH1 0x8 PUSH1 0x0 SWAP1 SLOAD SWAP1 PUSH2 0x100 EXP SWAP1 DIV PUSH20 0xFFFFFFFFFFFFFFFFFFFFFFFFFFFFFFFFFFFFFFFF AND PUSH20 0xFFFFFFFFFFFFFFFFFFFFFFFFFFFFFFFFFFFFFFFF AND PUSH4 0xB7EC93FA DUP5 DUP5 PUSH1 0x40 MLOAD DUP4 PUSH4 0xFFFFFFFF AND PUSH1 0xE0 SHL DUP2 MSTORE PUSH1 0x4 ADD PUSH2 0x1FEB SWAP3 SWAP2 SWAP1 PUSH2 0x3F0E JUMP JUMPDEST PUSH1 0x0 PUSH1 0x40 MLOAD DUP1 DUP4 SUB DUP2 PUSH1 0x0 DUP8 DUP1 EXTCODESIZE ISZERO DUP1 ISZERO PUSH2 0x2005 JUMPI PUSH1 0x0 DUP1 REVERT JUMPDEST POP GAS CALL ISZERO DUP1 ISZERO PUSH2 0x2019 JUMPI RETURNDATASIZE PUSH1 0x0 DUP1 RETURNDATACOPY RETURNDATASIZE PUSH1 0x0 REVERT JUMPDEST POP POP POP POP PUSH1 0x7 PUSH1 0x0 SWAP1 SLOAD SWAP1 PUSH2 0x100 EXP SWAP1 DIV PUSH20 0xFFFFFFFFFFFFFFFFFFFFFFFFFFFFFFFFFFFFFFFF AND PUSH20 0xFFFFFFFFFFFFFFFFFFFFFFFFFFFFFFFFFFFFFFFF AND PUSH4 0x42842E0E DUP6 ADDRESS PUSH1 0x8 PUSH1 0x0 SWAP1 SLOAD SWAP1 PUSH2 0x100 EXP SWAP1 DIV PUSH20 0xFFFFFFFFFFFFFFFFFFFFFFFFFFFFFFFFFFFFFFFF AND PUSH20 0xFFFFFFFFFFFFFFFFFFFFFFFFFFFFFFFFFFFFFFFF AND PUSH4 0x45149F8D DUP9 PUSH1 0x40 MLOAD DUP3 PUSH4 0xFFFFFFFF AND PUSH1 0xE0 SHL DUP2 MSTORE PUSH1 0x4 ADD PUSH2 0x20B8 SWAP2 SWAP1 PUSH2 0x3EF3 JUMP JUMPDEST PUSH1 0x20 PUSH1 0x40 MLOAD DUP1 DUP4 SUB DUP2 DUP7 DUP1 EXTCODESIZE ISZERO DUP1 ISZERO PUSH2 0x20D0 JUMPI PUSH1 0x0 DUP1 REVERT JUMPDEST POP GAS STATICCALL ISZERO DUP1 ISZERO PUSH2 0x20E4 JUMPI RETURNDATASIZE PUSH1 0x0 DUP1 RETURNDATACOPY RETURNDATASIZE PUSH1 0x0 REVERT JUMPDEST POP POP POP POP PUSH1 0x40 MLOAD RETURNDATASIZE PUSH1 0x1F NOT PUSH1 0x1F DUP3 ADD AND DUP3 ADD DUP1 PUSH1 0x40 MSTORE POP DUP2 ADD SWAP1 PUSH2 0x2108 SWAP2 SWAP1 PUSH2 0x36A0 JUMP JUMPDEST PUSH1 0x40 MLOAD DUP5 PUSH4 0xFFFFFFFF AND PUSH1 0xE0 SHL DUP2 MSTORE PUSH1 0x4 ADD PUSH2 0x2126 SWAP4 SWAP3 SWAP2 SWAP1 PUSH2 0x3B68 JUMP JUMPDEST PUSH1 0x0 PUSH1 0x40 MLOAD DUP1 DUP4 SUB DUP2 PUSH1 0x0 DUP8 DUP1 EXTCODESIZE ISZERO DUP1 ISZERO PUSH2 0x2140 JUMPI PUSH1 0x0 DUP1 REVERT JUMPDEST POP GAS CALL ISZERO DUP1 ISZERO PUSH2 0x2154 JUMPI RETURNDATASIZE PUSH1 0x0 DUP1 RETURNDATACOPY RETURNDATASIZE PUSH1 0x0 REVERT JUMPDEST POP POP POP POP PUSH1 0x9 PUSH1 0x0 DUP2 SLOAD DUP1 SWAP3 SWAP2 SWAP1 PUSH2 0x216B SWAP1 PUSH2 0x4314 JUMP JUMPDEST SWAP2 SWAP1 POP SSTORE POP POP POP POP POP JUMP JUMPDEST PUSH1 0x0 PUSH2 0x2182 DUP5 DUP5 PUSH2 0x168F JUMP JUMPDEST SWAP1 POP PUSH32 0xFFFFFFFFFFFFFFFFFFFFFFFFFFFFFFFFFFFFFFFFFFFFFFFFFFFFFFFFFFFFFFFF DUP2 EQ PUSH2 0x21FC JUMPI DUP2 DUP2 LT ISZERO PUSH2 0x21EE JUMPI PUSH1 0x40 MLOAD PUSH32 0x8C379A000000000000000000000000000000000000000000000000000000000 DUP2 MSTORE PUSH1 0x4 ADD PUSH2 0x21E5 SWAP1 PUSH2 0x3D73 JUMP JUMPDEST PUSH1 0x40 MLOAD DUP1 SWAP2 SUB SWAP1 REVERT JUMPDEST PUSH2 0x21FB DUP5 DUP5 DUP5 DUP5 SUB PUSH2 0x1952 JUMP JUMPDEST JUMPDEST POP POP POP POP JUMP JUMPDEST PUSH1 0x0 PUSH20 0xFFFFFFFFFFFFFFFFFFFFFFFFFFFFFFFFFFFFFFFF AND DUP4 PUSH20 0xFFFFFFFFFFFFFFFFFFFFFFFFFFFFFFFFFFFFFFFF AND EQ ISZERO PUSH2 0x2272 JUMPI PUSH1 0x40 MLOAD PUSH32 0x8C379A000000000000000000000000000000000000000000000000000000000 DUP2 MSTORE PUSH1 0x4 ADD PUSH2 0x2269 SWAP1 PUSH2 0x3E13 JUMP JUMPDEST PUSH1 0x40 MLOAD DUP1 SWAP2 SUB SWAP1 REVERT JUMPDEST PUSH1 0x0 PUSH20 0xFFFFFFFFFFFFFFFFFFFFFFFFFFFFFFFFFFFFFFFF AND DUP3 PUSH20 0xFFFFFFFFFFFFFFFFFFFFFFFFFFFFFFFFFFFFFFFF AND EQ ISZERO PUSH2 0x22E2 JUMPI PUSH1 0x40 MLOAD PUSH32 0x8C379A000000000000000000000000000000000000000000000000000000000 DUP2 MSTORE PUSH1 0x4 ADD PUSH2 0x22D9 SWAP1 PUSH2 0x3CD3 JUMP JUMPDEST PUSH1 0x40 MLOAD DUP1 SWAP2 SUB SWAP1 REVERT JUMPDEST PUSH2 0x22ED DUP4 DUP4 DUP4 PUSH2 0x2E27 JUMP JUMPDEST PUSH1 0x0 PUSH1 0x1 PUSH1 0x0 DUP6 PUSH20 0xFFFFFFFFFFFFFFFFFFFFFFFFFFFFFFFFFFFFFFFF AND PUSH20 0xFFFFFFFFFFFFFFFFFFFFFFFFFFFFFFFFFFFFFFFF AND DUP2 MSTORE PUSH1 0x20 ADD SWAP1 DUP2 MSTORE PUSH1 0x20 ADD PUSH1 0x0 KECCAK256 SLOAD SWAP1 POP DUP2 DUP2 LT ISZERO PUSH2 0x2374 JUMPI PUSH1 0x40 MLOAD PUSH32 0x8C379A000000000000000000000000000000000000000000000000000000000 DUP2 MSTORE PUSH1 0x4 ADD PUSH2 0x236B SWAP1 PUSH2 0x3D93 JUMP JUMPDEST PUSH1 0x40 MLOAD DUP1 SWAP2 SUB SWAP1 REVERT JUMPDEST DUP2 DUP2 SUB PUSH1 0x1 PUSH1 0x0 DUP7 PUSH20 0xFFFFFFFFFFFFFFFFFFFFFFFFFFFFFFFFFFFFFFFF AND PUSH20 0xFFFFFFFFFFFFFFFFFFFFFFFFFFFFFFFFFFFFFFFF AND DUP2 MSTORE PUSH1 0x20 ADD SWAP1 DUP2 MSTORE PUSH1 0x20 ADD PUSH1 0x0 KECCAK256 DUP2 SWAP1 SSTORE POP DUP2 PUSH1 0x1 PUSH1 0x0 DUP6 PUSH20 0xFFFFFFFFFFFFFFFFFFFFFFFFFFFFFFFFFFFFFFFF AND PUSH20 0xFFFFFFFFFFFFFFFFFFFFFFFFFFFFFFFFFFFFFFFF AND DUP2 MSTORE PUSH1 0x20 ADD SWAP1 DUP2 MSTORE PUSH1 0x20 ADD PUSH1 0x0 KECCAK256 PUSH1 0x0 DUP3 DUP3 SLOAD PUSH2 0x2409 SWAP2 SWAP1 PUSH2 0x405D JUMP JUMPDEST SWAP3 POP POP DUP2 SWAP1 SSTORE POP DUP3 PUSH20 0xFFFFFFFFFFFFFFFFFFFFFFFFFFFFFFFFFFFFFFFF AND DUP5 PUSH20 0xFFFFFFFFFFFFFFFFFFFFFFFFFFFFFFFFFFFFFFFF AND PUSH32 0xDDF252AD1BE2C89B69C2B068FC378DAA952BA7F163C4A11628F55A4DF523B3EF DUP5 PUSH1 0x40 MLOAD PUSH2 0x246D SWAP2 SWAP1 PUSH2 0x3EF3 JUMP JUMPDEST PUSH1 0x40 MLOAD DUP1 SWAP2 SUB SWAP1 LOG3 PUSH2 0x2480 DUP5 DUP5 DUP5 PUSH2 0x2E2C JUMP JUMPDEST POP POP POP POP JUMP JUMPDEST PUSH1 0x0 DUP3 PUSH20 0xFFFFFFFFFFFFFFFFFFFFFFFFFFFFFFFFFFFFFFFF AND PUSH1 0xC PUSH1 0x0 DUP5 DUP2 MSTORE PUSH1 0x20 ADD SWAP1 DUP2 MSTORE PUSH1 0x20 ADD PUSH1 0x0 KECCAK256 PUSH1 0x0 SWAP1 SLOAD SWAP1 PUSH2 0x100 EXP SWAP1 DIV PUSH20 0xFFFFFFFFFFFFFFFFFFFFFFFFFFFFFFFFFFFFFFFF AND PUSH20 0xFFFFFFFFFFFFFFFFFFFFFFFFFFFFFFFFFFFFFFFF AND EQ PUSH2 0x2529 JUMPI PUSH1 0x40 MLOAD PUSH32 0x8C379A000000000000000000000000000000000000000000000000000000000 DUP2 MSTORE PUSH1 0x4 ADD PUSH2 0x2520 SWAP1 PUSH2 0x3D13 JUMP JUMPDEST PUSH1 0x40 MLOAD DUP1 SWAP2 SUB SWAP1 REVERT JUMPDEST PUSH1 0x0 PUSH1 0xB PUSH1 0x0 DUP6 PUSH20 0xFFFFFFFFFFFFFFFFFFFFFFFFFFFFFFFFFFFFFFFF AND PUSH20 0xFFFFFFFFFFFFFFFFFFFFFFFFFFFFFFFFFFFFFFFF AND DUP2 MSTORE PUSH1 0x20 ADD SWAP1 DUP2 MSTORE PUSH1 0x20 ADD PUSH1 0x0 KECCAK256 SWAP1 POP PUSH1 0x0 DUP2 PUSH1 0x0 ADD DUP1 SLOAD SWAP1 POP GT ISZERO PUSH2 0x258A JUMPI PUSH2 0x2589 DUP4 DUP3 PUSH1 0x0 ADD PUSH2 0x2E31 JUMP JUMPDEST JUMPDEST PUSH1 0x0 DUP2 PUSH1 0x1 ADD PUSH1 0x0 DUP6 DUP2 MSTORE PUSH1 0x20 ADD SWAP1 DUP2 MSTORE PUSH1 0x20 ADD PUSH1 0x0 KECCAK256 DUP2 SWAP1 SSTORE POP PUSH1 0xC PUSH1 0x0 DUP5 DUP2 MSTORE PUSH1 0x20 ADD SWAP1 DUP2 MSTORE PUSH1 0x20 ADD PUSH1 0x0 KECCAK256 PUSH1 0x0 PUSH2 0x100 EXP DUP2 SLOAD SWAP1 PUSH20 0xFFFFFFFFFFFFFFFFFFFFFFFFFFFFFFFFFFFFFFFF MUL NOT AND SWAP1 SSTORE PUSH1 0x8 PUSH1 0x0 SWAP1 SLOAD SWAP1 PUSH2 0x100 EXP SWAP1 DIV PUSH20 0xFFFFFFFFFFFFFFFFFFFFFFFFFFFFFFFFFFFFFFFF AND PUSH20 0xFFFFFFFFFFFFFFFFFFFFFFFFFFFFFFFFFFFFFFFF AND PUSH4 0x16B2E21E DUP6 DUP6 PUSH1 0x40 MLOAD DUP4 PUSH4 0xFFFFFFFF AND PUSH1 0xE0 SHL DUP2 MSTORE PUSH1 0x4 ADD PUSH2 0x2638 SWAP3 SWAP2 SWAP1 PUSH2 0x3B9F JUMP JUMPDEST PUSH1 0x0 PUSH1 0x40 MLOAD DUP1 DUP4 SUB DUP2 PUSH1 0x0 DUP8 DUP1 EXTCODESIZE ISZERO DUP1 ISZERO PUSH2 0x2652 JUMPI PUSH1 0x0 DUP1 REVERT JUMPDEST POP GAS CALL ISZERO DUP1 ISZERO PUSH2 0x2666 JUMPI RETURNDATASIZE PUSH1 0x0 DUP1 RETURNDATACOPY RETURNDATASIZE PUSH1 0x0 REVERT JUMPDEST POP POP POP POP PUSH1 0x8 PUSH1 0x0 SWAP1 SLOAD SWAP1 PUSH2 0x100 EXP SWAP1 DIV PUSH20 0xFFFFFFFFFFFFFFFFFFFFFFFFFFFFFFFFFFFFFFFF AND PUSH20 0xFFFFFFFFFFFFFFFFFFFFFFFFFFFFFFFFFFFFFFFF AND PUSH4 0xB7EC93FA DUP5 DUP5 PUSH1 0x40 MLOAD DUP4 PUSH4 0xFFFFFFFF AND PUSH1 0xE0 SHL DUP2 MSTORE PUSH1 0x4 ADD PUSH2 0x26C7 SWAP3 SWAP2 SWAP1 PUSH2 0x3F0E JUMP JUMPDEST PUSH1 0x0 PUSH1 0x40 MLOAD DUP1 DUP4 SUB DUP2 PUSH1 0x0 DUP8 DUP1 EXTCODESIZE ISZERO DUP1 ISZERO PUSH2 0x26E1 JUMPI PUSH1 0x0 DUP1 REVERT JUMPDEST POP GAS CALL ISZERO DUP1 ISZERO PUSH2 0x26F5 JUMPI RETURNDATASIZE PUSH1 0x0 DUP1 RETURNDATACOPY RETURNDATASIZE PUSH1 0x0 REVERT JUMPDEST POP POP POP POP PUSH1 0x7 PUSH1 0x0 SWAP1 SLOAD SWAP1 PUSH2 0x100 EXP SWAP1 DIV PUSH20 0xFFFFFFFFFFFFFFFFFFFFFFFFFFFFFFFFFFFFFFFF AND PUSH20 0xFFFFFFFFFFFFFFFFFFFFFFFFFFFFFFFFFFFFFFFF AND PUSH4 0x42842E0E ADDRESS DUP7 PUSH1 0x8 PUSH1 0x0 SWAP1 SLOAD SWAP1 PUSH2 0x100 EXP SWAP1 DIV PUSH20 0xFFFFFFFFFFFFFFFFFFFFFFFFFFFFFFFFFFFFFFFF AND PUSH20 0xFFFFFFFFFFFFFFFFFFFFFFFFFFFFFFFFFFFFFFFF AND PUSH4 0x45149F8D DUP9 PUSH1 0x40 MLOAD DUP3 PUSH4 0xFFFFFFFF AND PUSH1 0xE0 SHL DUP2 MSTORE PUSH1 0x4 ADD PUSH2 0x2794 SWAP2 SWAP1 PUSH2 0x3EF3 JUMP JUMPDEST PUSH1 0x20 PUSH1 0x40 MLOAD DUP1 DUP4 SUB DUP2 DUP7 DUP1 EXTCODESIZE ISZERO DUP1 ISZERO PUSH2 0x27AC JUMPI PUSH1 0x0 DUP1 REVERT JUMPDEST POP GAS STATICCALL ISZERO DUP1 ISZERO PUSH2 0x27C0 JUMPI RETURNDATASIZE PUSH1 0x0 DUP1 RETURNDATACOPY RETURNDATASIZE PUSH1 0x0 REVERT JUMPDEST POP POP POP POP PUSH1 0x40 MLOAD RETURNDATASIZE PUSH1 0x1F NOT PUSH1 0x1F DUP3 ADD AND DUP3 ADD DUP1 PUSH1 0x40 MSTORE POP DUP2 ADD SWAP1 PUSH2 0x27E4 SWAP2 SWAP1 PUSH2 0x36A0 JUMP JUMPDEST PUSH1 0x40 MLOAD DUP5 PUSH4 0xFFFFFFFF AND PUSH1 0xE0 SHL DUP2 MSTORE PUSH1 0x4 ADD PUSH2 0x2802 SWAP4 SWAP3 SWAP2 SWAP1 PUSH2 0x3B68 JUMP JUMPDEST PUSH1 0x0 PUSH1 0x40 MLOAD DUP1 DUP4 SUB DUP2 PUSH1 0x0 DUP8 DUP1 EXTCODESIZE ISZERO DUP1 ISZERO PUSH2 0x281C JUMPI PUSH1 0x0 DUP1 REVERT JUMPDEST POP GAS CALL ISZERO DUP1 ISZERO PUSH2 0x2830 JUMPI RETURNDATASIZE PUSH1 0x0 DUP1 RETURNDATACOPY RETURNDATASIZE PUSH1 0x0 REVERT JUMPDEST POP POP POP POP PUSH1 0x9 PUSH1 0x0 DUP2 SLOAD DUP1 SWAP3 SWAP2 SWAP1 PUSH2 0x2847 SWAP1 PUSH2 0x4287 JUMP JUMPDEST SWAP2 SWAP1 POP SSTORE POP POP POP POP POP JUMP JUMPDEST PUSH2 0x2863 DUP2 PUSH2 0x285E PUSH2 0x194A JUMP JUMPDEST PUSH2 0x2E4E JUMP JUMPDEST POP JUMP JUMPDEST PUSH2 0x2870 DUP3 DUP3 PUSH2 0xFFA JUMP JUMPDEST PUSH2 0x2943 JUMPI PUSH1 0x1 PUSH1 0x6 PUSH1 0x0 DUP5 DUP2 MSTORE PUSH1 0x20 ADD SWAP1 DUP2 MSTORE PUSH1 0x20 ADD PUSH1 0x0 KECCAK256 PUSH1 0x0 ADD PUSH1 0x0 DUP4 PUSH20 0xFFFFFFFFFFFFFFFFFFFFFFFFFFFFFFFFFFFFFFFF AND PUSH20 0xFFFFFFFFFFFFFFFFFFFFFFFFFFFFFFFFFFFFFFFF AND DUP2 MSTORE PUSH1 0x20 ADD SWAP1 DUP2 MSTORE PUSH1 0x20 ADD PUSH1 0x0 KECCAK256 PUSH1 0x0 PUSH2 0x100 EXP DUP2 SLOAD DUP2 PUSH1 0xFF MUL NOT AND SWAP1 DUP4 ISZERO ISZERO MUL OR SWAP1 SSTORE POP PUSH2 0x28E8 PUSH2 0x194A JUMP JUMPDEST PUSH20 0xFFFFFFFFFFFFFFFFFFFFFFFFFFFFFFFFFFFFFFFF AND DUP2 PUSH20 0xFFFFFFFFFFFFFFFFFFFFFFFFFFFFFFFFFFFFFFFF AND DUP4 PUSH32 0x2F8788117E7EFF1D82E926EC794901D17C78024A50270940304540A733656F0D PUSH1 0x40 MLOAD PUSH1 0x40 MLOAD DUP1 SWAP2 SUB SWAP1 LOG4 JUMPDEST POP POP JUMP JUMPDEST PUSH2 0x2951 DUP3 DUP3 PUSH2 0xFFA JUMP JUMPDEST ISZERO PUSH2 0x2A25 JUMPI PUSH1 0x0 PUSH1 0x6 PUSH1 0x0 DUP5 DUP2 MSTORE PUSH1 0x20 ADD SWAP1 DUP2 MSTORE PUSH1 0x20 ADD PUSH1 0x0 KECCAK256 PUSH1 0x0 ADD PUSH1 0x0 DUP4 PUSH20 0xFFFFFFFFFFFFFFFFFFFFFFFFFFFFFFFFFFFFFFFF AND PUSH20 0xFFFFFFFFFFFFFFFFFFFFFFFFFFFFFFFFFFFFFFFF AND DUP2 MSTORE PUSH1 0x20 ADD SWAP1 DUP2 MSTORE PUSH1 0x20 ADD PUSH1 0x0 KECCAK256 PUSH1 0x0 PUSH2 0x100 EXP DUP2 SLOAD DUP2 PUSH1 0xFF MUL NOT AND SWAP1 DUP4 ISZERO ISZERO MUL OR SWAP1 SSTORE POP PUSH2 0x29CA PUSH2 0x194A JUMP JUMPDEST PUSH20 0xFFFFFFFFFFFFFFFFFFFFFFFFFFFFFFFFFFFFFFFF AND DUP2 PUSH20 0xFFFFFFFFFFFFFFFFFFFFFFFFFFFFFFFFFFFFFFFF AND DUP4 PUSH32 0xF6391F5C32D9C69D2A47EA670B442974B53935D1EDC7FD64EB21E047A839171B PUSH1 0x40 MLOAD PUSH1 0x40 MLOAD DUP1 SWAP2 SUB SWAP1 LOG4 JUMPDEST POP POP JUMP JUMPDEST PUSH1 0x0 PUSH20 0xFFFFFFFFFFFFFFFFFFFFFFFFFFFFFFFFFFFFFFFF AND DUP3 PUSH20 0xFFFFFFFFFFFFFFFFFFFFFFFFFFFFFFFFFFFFFFFF AND EQ ISZERO PUSH2 0x2A99 JUMPI PUSH1 0x40 MLOAD PUSH32 0x8C379A000000000000000000000000000000000000000000000000000000000 DUP2 MSTORE PUSH1 0x4 ADD PUSH2 0x2A90 SWAP1 PUSH2 0x3EB3 JUMP JUMPDEST PUSH1 0x40 MLOAD DUP1 SWAP2 SUB SWAP1 REVERT JUMPDEST PUSH2 0x2AA5 PUSH1 0x0 DUP4 DUP4 PUSH2 0x2E27 JUMP JUMPDEST DUP1 PUSH1 0x3 PUSH1 0x0 DUP3 DUP3 SLOAD PUSH2 0x2AB7 SWAP2 SWAP1 PUSH2 0x405D JUMP JUMPDEST SWAP3 POP POP DUP2 SWAP1 SSTORE POP DUP1 PUSH1 0x1 PUSH1 0x0 DUP5 PUSH20 0xFFFFFFFFFFFFFFFFFFFFFFFFFFFFFFFFFFFFFFFF AND PUSH20 0xFFFFFFFFFFFFFFFFFFFFFFFFFFFFFFFFFFFFFFFF AND DUP2 MSTORE PUSH1 0x20 ADD SWAP1 DUP2 MSTORE PUSH1 0x20 ADD PUSH1 0x0 KECCAK256 PUSH1 0x0 DUP3 DUP3 SLOAD PUSH2 0x2B0D SWAP2 SWAP1 PUSH2 0x405D JUMP JUMPDEST SWAP3 POP POP DUP2 SWAP1 SSTORE POP DUP2 PUSH20 0xFFFFFFFFFFFFFFFFFFFFFFFFFFFFFFFFFFFFFFFF AND PUSH1 0x0 PUSH20 0xFFFFFFFFFFFFFFFFFFFFFFFFFFFFFFFFFFFFFFFF AND PUSH32 0xDDF252AD1BE2C89B69C2B068FC378DAA952BA7F163C4A11628F55A4DF523B3EF DUP4 PUSH1 0x40 MLOAD PUSH2 0x2B72 SWAP2 SWAP1 PUSH2 0x3EF3 JUMP JUMPDEST PUSH1 0x40 MLOAD DUP1 SWAP2 SUB SWAP1 LOG3 PUSH2 0x2B86 PUSH1 0x0 DUP4 DUP4 PUSH2 0x2E2C JUMP JUMPDEST POP POP JUMP JUMPDEST PUSH1 0x0 PUSH20 0xFFFFFFFFFFFFFFFFFFFFFFFFFFFFFFFFFFFFFFFF AND DUP3 PUSH20 0xFFFFFFFFFFFFFFFFFFFFFFFFFFFFFFFFFFFFFFFF AND EQ ISZERO PUSH2 0x2BFA JUMPI PUSH1 0x40 MLOAD PUSH32 0x8C379A000000000000000000000000000000000000000000000000000000000 DUP2 MSTORE PUSH1 0x4 ADD PUSH2 0x2BF1 SWAP1 PUSH2 0x3DF3 JUMP JUMPDEST PUSH1 0x40 MLOAD DUP1 SWAP2 SUB SWAP1 REVERT JUMPDEST PUSH2 0x2C06 DUP3 PUSH1 0x0 DUP4 PUSH2 0x2E27 JUMP JUMPDEST PUSH1 0x0 PUSH1 0x1 PUSH1 0x0 DUP5 PUSH20 0xFFFFFFFFFFFFFFFFFFFFFFFFFFFFFFFFFFFFFFFF AND PUSH20 0xFFFFFFFFFFFFFFFFFFFFFFFFFFFFFFFFFFFFFFFF AND DUP2 MSTORE PUSH1 0x20 ADD SWAP1 DUP2 MSTORE PUSH1 0x20 ADD PUSH1 0x0 KECCAK256 SLOAD SWAP1 POP DUP2 DUP2 LT ISZERO PUSH2 0x2C8D JUMPI PUSH1 0x40 MLOAD PUSH32 0x8C379A000000000000000000000000000000000000000000000000000000000 DUP2 MSTORE PUSH1 0x4 ADD PUSH2 0x2C84 SWAP1 PUSH2 0x3CF3 JUMP JUMPDEST PUSH1 0x40 MLOAD DUP1 SWAP2 SUB SWAP1 REVERT JUMPDEST DUP2 DUP2 SUB PUSH1 0x1 PUSH1 0x0 DUP6 PUSH20 0xFFFFFFFFFFFFFFFFFFFFFFFFFFFFFFFFFFFFFFFF AND PUSH20 0xFFFFFFFFFFFFFFFFFFFFFFFFFFFFFFFFFFFFFFFF AND DUP2 MSTORE PUSH1 0x20 ADD SWAP1 DUP2 MSTORE PUSH1 0x20 ADD PUSH1 0x0 KECCAK256 DUP2 SWAP1 SSTORE POP DUP2 PUSH1 0x3 PUSH1 0x0 DUP3 DUP3 SLOAD PUSH2 0x2CE5 SWAP2 SWAP1 PUSH2 0x413E JUMP JUMPDEST SWAP3 POP POP DUP2 SWAP1 SSTORE POP PUSH1 0x0 PUSH20 0xFFFFFFFFFFFFFFFFFFFFFFFFFFFFFFFFFFFFFFFF AND DUP4 PUSH20 0xFFFFFFFFFFFFFFFFFFFFFFFFFFFFFFFFFFFFFFFF AND PUSH32 0xDDF252AD1BE2C89B69C2B068FC378DAA952BA7F163C4A11628F55A4DF523B3EF DUP5 PUSH1 0x40 MLOAD PUSH2 0x2D4A SWAP2 SWAP1 PUSH2 0x3EF3 JUMP JUMPDEST PUSH1 0x40 MLOAD DUP1 SWAP2 SUB SWAP1 LOG3 PUSH2 0x2D5E DUP4 PUSH1 0x0 DUP5 PUSH2 0x2E2C JUMP JUMPDEST POP POP POP JUMP JUMPDEST PUSH1 0x0 DUP1 PUSH1 0x0 SWAP1 SLOAD SWAP1 PUSH2 0x100 EXP SWAP1 DIV PUSH20 0xFFFFFFFFFFFFFFFFFFFFFFFFFFFFFFFFFFFFFFFF AND SWAP1 POP DUP2 PUSH1 0x0 DUP1 PUSH2 0x100 EXP DUP2 SLOAD DUP2 PUSH20 0xFFFFFFFFFFFFFFFFFFFFFFFFFFFFFFFFFFFFFFFF MUL NOT AND SWAP1 DUP4 PUSH20 0xFFFFFFFFFFFFFFFFFFFFFFFFFFFFFFFFFFFFFFFF AND MUL OR SWAP1 SSTORE POP DUP2 PUSH20 0xFFFFFFFFFFFFFFFFFFFFFFFFFFFFFFFFFFFFFFFF AND DUP2 PUSH20 0xFFFFFFFFFFFFFFFFFFFFFFFFFFFFFFFFFFFFFFFF AND PUSH32 0x8BE0079C531659141344CD1FD0A4F28419497F9722A3DAAFE3B4186F6B6457E0 PUSH1 0x40 MLOAD PUSH1 0x40 MLOAD DUP1 SWAP2 SUB SWAP1 LOG3 POP POP JUMP JUMPDEST POP POP POP JUMP JUMPDEST POP POP POP JUMP JUMPDEST PUSH1 0x0 PUSH2 0x2E3D DUP4 DUP4 PUSH2 0x2EEB JUMP JUMPDEST SWAP1 POP PUSH2 0x2E49 DUP2 DUP4 PUSH2 0x2F34 JUMP JUMPDEST POP POP POP JUMP JUMPDEST PUSH2 0x2E58 DUP3 DUP3 PUSH2 0xFFA JUMP JUMPDEST PUSH2 0x2EE7 JUMPI PUSH2 0x2E7D DUP2 PUSH20 0xFFFFFFFFFFFFFFFFFFFFFFFFFFFFFFFFFFFFFFFF AND PUSH1 0x14 PUSH2 0x2FD6 JUMP JUMPDEST PUSH2 0x2E8B DUP4 PUSH1 0x0 SHR PUSH1 0x20 PUSH2 0x2FD6 JUMP JUMPDEST PUSH1 0x40 MLOAD PUSH1 0x20 ADD PUSH2 0x2E9C SWAP3 SWAP2 SWAP1 PUSH2 0x3B13 JUMP JUMPDEST PUSH1 0x40 MLOAD PUSH1 0x20 DUP2 DUP4 SUB SUB DUP2 MSTORE SWAP1 PUSH1 0x40 MSTORE PUSH1 0x40 MLOAD PUSH32 0x8C379A000000000000000000000000000000000000000000000000000000000 DUP2 MSTORE PUSH1 0x4 ADD PUSH2 0x2EDE SWAP2 SWAP1 PUSH2 0x3C71 JUMP JUMPDEST PUSH1 0x40 MLOAD DUP1 SWAP2 SUB SWAP1 REVERT JUMPDEST POP POP JUMP JUMPDEST PUSH1 0x0 DUP1 PUSH1 0x0 SWAP1 POP JUMPDEST DUP4 DUP4 DUP3 DUP2 SLOAD DUP2 LT PUSH2 0x2F07 JUMPI PUSH2 0x2F06 PUSH2 0x444A JUMP JUMPDEST JUMPDEST SWAP1 PUSH1 0x0 MSTORE PUSH1 0x20 PUSH1 0x0 KECCAK256 ADD SLOAD EQ PUSH2 0x2F2A JUMPI DUP1 DUP1 PUSH2 0x2F22 SWAP1 PUSH2 0x4314 JUMP JUMPDEST SWAP2 POP POP PUSH2 0x2EF3 JUMP JUMPDEST DUP1 SWAP2 POP POP SWAP3 SWAP2 POP POP JUMP JUMPDEST JUMPDEST PUSH1 0x1 DUP2 DUP1 SLOAD SWAP1 POP PUSH2 0x2F46 SWAP2 SWAP1 PUSH2 0x413E JUMP JUMPDEST DUP3 LT ISZERO PUSH2 0x2FAB JUMPI DUP1 PUSH1 0x1 DUP4 PUSH2 0x2F5B SWAP2 SWAP1 PUSH2 0x405D JUMP JUMPDEST DUP2 SLOAD DUP2 LT PUSH2 0x2F6C JUMPI PUSH2 0x2F6B PUSH2 0x444A JUMP JUMPDEST JUMPDEST SWAP1 PUSH1 0x0 MSTORE PUSH1 0x20 PUSH1 0x0 KECCAK256 ADD SLOAD DUP2 DUP4 DUP2 SLOAD DUP2 LT PUSH2 0x2F8A JUMPI PUSH2 0x2F89 PUSH2 0x444A JUMP JUMPDEST JUMPDEST SWAP1 PUSH1 0x0 MSTORE PUSH1 0x20 PUSH1 0x0 KECCAK256 ADD DUP2 SWAP1 SSTORE POP DUP2 DUP1 PUSH2 0x2FA3 SWAP1 PUSH2 0x4314 JUMP JUMPDEST SWAP3 POP POP PUSH2 0x2F35 JUMP JUMPDEST DUP1 DUP1 SLOAD DUP1 PUSH2 0x2FBC JUMPI PUSH2 0x2FBB PUSH2 0x441B JUMP JUMPDEST JUMPDEST PUSH1 0x1 SWAP1 SUB DUP2 DUP2 SWAP1 PUSH1 0x0 MSTORE PUSH1 0x20 PUSH1 0x0 KECCAK256 ADD PUSH1 0x0 SWAP1 SSTORE SWAP1 SSTORE POP POP JUMP JUMPDEST PUSH1 0x60 PUSH1 0x0 PUSH1 0x2 DUP4 PUSH1 0x2 PUSH2 0x2FE9 SWAP2 SWAP1 PUSH2 0x40E4 JUMP JUMPDEST PUSH2 0x2FF3 SWAP2 SWAP1 PUSH2 0x405D JUMP JUMPDEST PUSH8 0xFFFFFFFFFFFFFFFF DUP2 GT ISZERO PUSH2 0x300C JUMPI PUSH2 0x300B PUSH2 0x4479 JUMP JUMPDEST JUMPDEST PUSH1 0x40 MLOAD SWAP1 DUP1 DUP3 MSTORE DUP1 PUSH1 0x1F ADD PUSH1 0x1F NOT AND PUSH1 0x20 ADD DUP3 ADD PUSH1 0x40 MSTORE DUP1 ISZERO PUSH2 0x303E JUMPI DUP2 PUSH1 0x20 ADD PUSH1 0x1 DUP3 MUL DUP1 CALLDATASIZE DUP4 CALLDATACOPY DUP1 DUP3 ADD SWAP2 POP POP SWAP1 POP JUMPDEST POP SWAP1 POP PUSH32 0x3000000000000000000000000000000000000000000000000000000000000000 DUP2 PUSH1 0x0 DUP2 MLOAD DUP2 LT PUSH2 0x3076 JUMPI PUSH2 0x3075 PUSH2 0x444A JUMP JUMPDEST JUMPDEST PUSH1 0x20 ADD ADD SWAP1 PUSH31 0xFFFFFFFFFFFFFFFFFFFFFFFFFFFFFFFFFFFFFFFFFFFFFFFFFFFFFFFFFFFFFF NOT AND SWAP1 DUP2 PUSH1 0x0 BYTE SWAP1 MSTORE8 POP PUSH32 0x7800000000000000000000000000000000000000000000000000000000000000 DUP2 PUSH1 0x1 DUP2 MLOAD DUP2 LT PUSH2 0x30DA JUMPI PUSH2 0x30D9 PUSH2 0x444A JUMP JUMPDEST JUMPDEST PUSH1 0x20 ADD ADD SWAP1 PUSH31 0xFFFFFFFFFFFFFFFFFFFFFFFFFFFFFFFFFFFFFFFFFFFFFFFFFFFFFFFFFFFFFF NOT AND SWAP1 DUP2 PUSH1 0x0 BYTE SWAP1 MSTORE8 POP PUSH1 0x0 PUSH1 0x1 DUP5 PUSH1 0x2 PUSH2 0x311A SWAP2 SWAP1 PUSH2 0x40E4 JUMP JUMPDEST PUSH2 0x3124 SWAP2 SWAP1 PUSH2 0x405D JUMP JUMPDEST SWAP1 POP JUMPDEST PUSH1 0x1 DUP2 GT ISZERO PUSH2 0x31C4 JUMPI PUSH32 0x3031323334353637383961626364656600000000000000000000000000000000 PUSH1 0xF DUP7 AND PUSH1 0x10 DUP2 LT PUSH2 0x3166 JUMPI PUSH2 0x3165 PUSH2 0x444A JUMP JUMPDEST JUMPDEST BYTE PUSH1 0xF8 SHL DUP3 DUP3 DUP2 MLOAD DUP2 LT PUSH2 0x317D JUMPI PUSH2 0x317C PUSH2 0x444A JUMP JUMPDEST JUMPDEST PUSH1 0x20 ADD ADD SWAP1 PUSH31 0xFFFFFFFFFFFFFFFFFFFFFFFFFFFFFFFFFFFFFFFFFFFFFFFFFFFFFFFFFFFFFF NOT AND SWAP1 DUP2 PUSH1 0x0 BYTE SWAP1 MSTORE8 POP PUSH1 0x4 DUP6 SWAP1 SHR SWAP5 POP DUP1 PUSH2 0x31BD SWAP1 PUSH2 0x4287 JUMP JUMPDEST SWAP1 POP PUSH2 0x3127 JUMP JUMPDEST POP PUSH1 0x0 DUP5 EQ PUSH2 0x3208 JUMPI PUSH1 0x40 MLOAD PUSH32 0x8C379A000000000000000000000000000000000000000000000000000000000 DUP2 MSTORE PUSH1 0x4 ADD PUSH2 0x31FF SWAP1 PUSH2 0x3CB3 JUMP JUMPDEST PUSH1 0x40 MLOAD DUP1 SWAP2 SUB SWAP1 REVERT JUMPDEST DUP1 SWAP2 POP POP SWAP3 SWAP2 POP POP JUMP JUMPDEST PUSH1 0x0 PUSH2 0x3225 PUSH2 0x3220 DUP5 PUSH2 0x3FA0 JUMP JUMPDEST PUSH2 0x3F7B JUMP JUMPDEST SWAP1 POP DUP1 DUP4 DUP3 MSTORE PUSH1 0x20 DUP3 ADD SWAP1 POP DUP3 DUP6 PUSH1 0x20 DUP7 MUL DUP3 ADD GT ISZERO PUSH2 0x3248 JUMPI PUSH2 0x3247 PUSH2 0x44AD JUMP JUMPDEST JUMPDEST PUSH1 0x0 JUMPDEST DUP6 DUP2 LT ISZERO PUSH2 0x3278 JUMPI DUP2 PUSH2 0x325E DUP9 DUP3 PUSH2 0x3389 JUMP JUMPDEST DUP5 MSTORE PUSH1 0x20 DUP5 ADD SWAP4 POP PUSH1 0x20 DUP4 ADD SWAP3 POP POP PUSH1 0x1 DUP2 ADD SWAP1 POP PUSH2 0x324B JUMP JUMPDEST POP POP POP SWAP4 SWAP3 POP POP POP JUMP JUMPDEST PUSH1 0x0 PUSH2 0x3295 PUSH2 0x3290 DUP5 PUSH2 0x3FCC JUMP JUMPDEST PUSH2 0x3F7B JUMP JUMPDEST SWAP1 POP DUP3 DUP2 MSTORE PUSH1 0x20 DUP2 ADD DUP5 DUP5 DUP5 ADD GT ISZERO PUSH2 0x32B1 JUMPI PUSH2 0x32B0 PUSH2 0x44B2 JUMP JUMPDEST JUMPDEST PUSH2 0x32BC DUP5 DUP3 DUP6 PUSH2 0x4245 JUMP JUMPDEST POP SWAP4 SWAP3 POP POP POP JUMP JUMPDEST PUSH1 0x0 DUP2 CALLDATALOAD SWAP1 POP PUSH2 0x32D3 DUP2 PUSH2 0x4A1D JUMP JUMPDEST SWAP3 SWAP2 POP POP JUMP JUMPDEST PUSH1 0x0 DUP2 MLOAD SWAP1 POP PUSH2 0x32E8 DUP2 PUSH2 0x4A1D JUMP JUMPDEST SWAP3 SWAP2 POP POP JUMP JUMPDEST PUSH1 0x0 DUP3 PUSH1 0x1F DUP4 ADD SLT PUSH2 0x3303 JUMPI PUSH2 0x3302 PUSH2 0x44A8 JUMP JUMPDEST JUMPDEST DUP2 CALLDATALOAD PUSH2 0x3313 DUP5 DUP3 PUSH1 0x20 DUP7 ADD PUSH2 0x3212 JUMP JUMPDEST SWAP2 POP POP SWAP3 SWAP2 POP POP JUMP JUMPDEST PUSH1 0x0 DUP2 MLOAD SWAP1 POP PUSH2 0x332B DUP2 PUSH2 0x4A34 JUMP JUMPDEST SWAP3 SWAP2 POP POP JUMP JUMPDEST PUSH1 0x0 DUP2 CALLDATALOAD SWAP1 POP PUSH2 0x3340 DUP2 PUSH2 0x4A4B JUMP JUMPDEST SWAP3 SWAP2 POP POP JUMP JUMPDEST PUSH1 0x0 DUP2 CALLDATALOAD SWAP1 POP PUSH2 0x3355 DUP2 PUSH2 0x4A62 JUMP JUMPDEST SWAP3 SWAP2 POP POP JUMP JUMPDEST PUSH1 0x0 DUP3 PUSH1 0x1F DUP4 ADD SLT PUSH2 0x3370 JUMPI PUSH2 0x336F PUSH2 0x44A8 JUMP JUMPDEST JUMPDEST DUP2 CALLDATALOAD PUSH2 0x3380 DUP5 DUP3 PUSH1 0x20 DUP7 ADD PUSH2 0x3282 JUMP JUMPDEST SWAP2 POP POP SWAP3 SWAP2 POP POP JUMP JUMPDEST PUSH1 0x0 DUP2 CALLDATALOAD SWAP1 POP PUSH2 0x3398 DUP2 PUSH2 0x4A79 JUMP JUMPDEST SWAP3 SWAP2 POP POP JUMP JUMPDEST PUSH1 0x0 DUP2 MLOAD SWAP1 POP PUSH2 0x33AD DUP2 PUSH2 0x4A79 JUMP JUMPDEST SWAP3 SWAP2 POP POP JUMP JUMPDEST PUSH1 0x0 PUSH1 0x20 DUP3 DUP5 SUB SLT ISZERO PUSH2 0x33C9 JUMPI PUSH2 0x33C8 PUSH2 0x44BC JUMP JUMPDEST JUMPDEST PUSH1 0x0 PUSH2 0x33D7 DUP5 DUP3 DUP6 ADD PUSH2 0x32C4 JUMP JUMPDEST SWAP2 POP POP SWAP3 SWAP2 POP POP JUMP JUMPDEST PUSH1 0x0 PUSH1 0x20 DUP3 DUP5 SUB SLT ISZERO PUSH2 0x33F6 JUMPI PUSH2 0x33F5 PUSH2 0x44BC JUMP JUMPDEST JUMPDEST PUSH1 0x0 PUSH2 0x3404 DUP5 DUP3 DUP6 ADD PUSH2 0x32D9 JUMP JUMPDEST SWAP2 POP POP SWAP3 SWAP2 POP POP JUMP JUMPDEST PUSH1 0x0 DUP1 PUSH1 0x40 DUP4 DUP6 SUB SLT ISZERO PUSH2 0x3424 JUMPI PUSH2 0x3423 PUSH2 0x44BC JUMP JUMPDEST JUMPDEST PUSH1 0x0 PUSH2 0x3432 DUP6 DUP3 DUP7 ADD PUSH2 0x32C4 JUMP JUMPDEST SWAP3 POP POP PUSH1 0x20 PUSH2 0x3443 DUP6 DUP3 DUP7 ADD PUSH2 0x32C4 JUMP JUMPDEST SWAP2 POP POP SWAP3 POP SWAP3 SWAP1 POP JUMP JUMPDEST PUSH1 0x0 DUP1 PUSH1 0x0 PUSH1 0x60 DUP5 DUP7 SUB SLT ISZERO PUSH2 0x3466 JUMPI PUSH2 0x3465 PUSH2 0x44BC JUMP JUMPDEST JUMPDEST PUSH1 0x0 PUSH2 0x3474 DUP7 DUP3 DUP8 ADD PUSH2 0x32C4 JUMP JUMPDEST SWAP4 POP POP PUSH1 0x20 PUSH2 0x3485 DUP7 DUP3 DUP8 ADD PUSH2 0x32C4 JUMP JUMPDEST SWAP3 POP POP PUSH1 0x40 PUSH2 0x3496 DUP7 DUP3 DUP8 ADD PUSH2 0x3389 JUMP JUMPDEST SWAP2 POP POP SWAP3 POP SWAP3 POP SWAP3 JUMP JUMPDEST PUSH1 0x0 DUP1 PUSH1 0x0 DUP1 PUSH1 0x80 DUP6 DUP8 SUB SLT ISZERO PUSH2 0x34BA JUMPI PUSH2 0x34B9 PUSH2 0x44BC JUMP JUMPDEST JUMPDEST PUSH1 0x0 PUSH2 0x34C8 DUP8 DUP3 DUP9 ADD PUSH2 0x32C4 JUMP JUMPDEST SWAP5 POP POP PUSH1 0x20 PUSH2 0x34D9 DUP8 DUP3 DUP9 ADD PUSH2 0x32C4 JUMP JUMPDEST SWAP4 POP POP PUSH1 0x40 PUSH2 0x34EA DUP8 DUP3 DUP9 ADD PUSH2 0x3389 JUMP JUMPDEST SWAP3 POP POP PUSH1 0x60 DUP6 ADD CALLDATALOAD PUSH8 0xFFFFFFFFFFFFFFFF DUP2 GT ISZERO PUSH2 0x350B JUMPI PUSH2 0x350A PUSH2 0x44B7 JUMP JUMPDEST JUMPDEST PUSH2 0x3517 DUP8 DUP3 DUP9 ADD PUSH2 0x335B JUMP JUMPDEST SWAP2 POP POP SWAP3 SWAP6 SWAP2 SWAP5 POP SWAP3 POP JUMP JUMPDEST PUSH1 0x0 DUP1 PUSH1 0x40 DUP4 DUP6 SUB SLT ISZERO PUSH2 0x353A JUMPI PUSH2 0x3539 PUSH2 0x44BC JUMP JUMPDEST JUMPDEST PUSH1 0x0 PUSH2 0x3548 DUP6 DUP3 DUP7 ADD PUSH2 0x32C4 JUMP JUMPDEST SWAP3 POP POP PUSH1 0x20 PUSH2 0x3559 DUP6 DUP3 DUP7 ADD PUSH2 0x3389 JUMP JUMPDEST SWAP2 POP POP SWAP3 POP SWAP3 SWAP1 POP JUMP JUMPDEST PUSH1 0x0 PUSH1 0x20 DUP3 DUP5 SUB SLT ISZERO PUSH2 0x3579 JUMPI PUSH2 0x3578 PUSH2 0x44BC JUMP JUMPDEST JUMPDEST PUSH1 0x0 DUP3 ADD CALLDATALOAD PUSH8 0xFFFFFFFFFFFFFFFF DUP2 GT ISZERO PUSH2 0x3597 JUMPI PUSH2 0x3596 PUSH2 0x44B7 JUMP JUMPDEST JUMPDEST PUSH2 0x35A3 DUP5 DUP3 DUP6 ADD PUSH2 0x32EE JUMP JUMPDEST SWAP2 POP POP SWAP3 SWAP2 POP POP JUMP JUMPDEST PUSH1 0x0 PUSH1 0x20 DUP3 DUP5 SUB SLT ISZERO PUSH2 0x35C2 JUMPI PUSH2 0x35C1 PUSH2 0x44BC JUMP JUMPDEST JUMPDEST PUSH1 0x0 PUSH2 0x35D0 DUP5 DUP3 DUP6 ADD PUSH2 0x331C JUMP JUMPDEST SWAP2 POP POP SWAP3 SWAP2 POP POP JUMP JUMPDEST PUSH1 0x0 PUSH1 0x20 DUP3 DUP5 SUB SLT ISZERO PUSH2 0x35EF JUMPI PUSH2 0x35EE PUSH2 0x44BC JUMP JUMPDEST JUMPDEST PUSH1 0x0 PUSH2 0x35FD DUP5 DUP3 DUP6 ADD PUSH2 0x3331 JUMP JUMPDEST SWAP2 POP POP SWAP3 SWAP2 POP POP JUMP JUMPDEST PUSH1 0x0 DUP1 PUSH1 0x40 DUP4 DUP6 SUB SLT ISZERO PUSH2 0x361D JUMPI PUSH2 0x361C PUSH2 0x44BC JUMP JUMPDEST JUMPDEST PUSH1 0x0 PUSH2 0x362B DUP6 DUP3 DUP7 ADD PUSH2 0x3331 JUMP JUMPDEST SWAP3 POP POP PUSH1 0x20 PUSH2 0x363C DUP6 DUP3 DUP7 ADD PUSH2 0x32C4 JUMP JUMPDEST SWAP2 POP POP SWAP3 POP SWAP3 SWAP1 POP JUMP JUMPDEST PUSH1 0x0 PUSH1 0x20 DUP3 DUP5 SUB SLT ISZERO PUSH2 0x365C JUMPI PUSH2 0x365B PUSH2 0x44BC JUMP JUMPDEST JUMPDEST PUSH1 0x0 PUSH2 0x366A DUP5 DUP3 DUP6 ADD PUSH2 0x3346 JUMP JUMPDEST SWAP2 POP POP SWAP3 SWAP2 POP POP JUMP JUMPDEST PUSH1 0x0 PUSH1 0x20 DUP3 DUP5 SUB SLT ISZERO PUSH2 0x3689 JUMPI PUSH2 0x3688 PUSH2 0x44BC JUMP JUMPDEST JUMPDEST PUSH1 0x0 PUSH2 0x3697 DUP5 DUP3 DUP6 ADD PUSH2 0x3389 JUMP JUMPDEST SWAP2 POP POP SWAP3 SWAP2 POP POP JUMP JUMPDEST PUSH1 0x0 PUSH1 0x20 DUP3 DUP5 SUB SLT ISZERO PUSH2 0x36B6 JUMPI PUSH2 0x36B5 PUSH2 0x44BC JUMP JUMPDEST JUMPDEST PUSH1 0x0 PUSH2 0x36C4 DUP5 DUP3 DUP6 ADD PUSH2 0x339E JUMP JUMPDEST SWAP2 POP POP SWAP3 SWAP2 POP POP JUMP JUMPDEST PUSH1 0x0 PUSH2 0x36D9 DUP4 DUP4 PUSH2 0x3AE6 JUMP JUMPDEST PUSH1 0x20 DUP4 ADD SWAP1 POP SWAP3 SWAP2 POP POP JUMP JUMPDEST PUSH2 0x36EE DUP2 PUSH2 0x4172 JUMP JUMPDEST DUP3 MSTORE POP POP JUMP JUMPDEST PUSH1 0x0 PUSH2 0x36FF DUP3 PUSH2 0x400D JUMP JUMPDEST PUSH2 0x3709 DUP2 DUP6 PUSH2 0x4030 JUMP JUMPDEST SWAP4 POP PUSH2 0x3714 DUP4 PUSH2 0x3FFD JUMP JUMPDEST DUP1 PUSH1 0x0 JUMPDEST DUP4 DUP2 LT ISZERO PUSH2 0x3745 JUMPI DUP2 MLOAD PUSH2 0x372C DUP9 DUP3 PUSH2 0x36CD JUMP JUMPDEST SWAP8 POP PUSH2 0x3737 DUP4 PUSH2 0x4023 JUMP JUMPDEST SWAP3 POP POP PUSH1 0x1 DUP2 ADD SWAP1 POP PUSH2 0x3718 JUMP JUMPDEST POP DUP6 SWAP4 POP POP POP POP SWAP3 SWAP2 POP POP JUMP JUMPDEST PUSH2 0x375B DUP2 PUSH2 0x4184 JUMP JUMPDEST DUP3 MSTORE POP POP JUMP JUMPDEST PUSH2 0x376A DUP2 PUSH2 0x4190 JUMP JUMPDEST DUP3 MSTORE POP POP JUMP JUMPDEST PUSH2 0x3779 DUP2 PUSH2 0x419A JUMP JUMPDEST DUP3 MSTORE POP POP JUMP JUMPDEST PUSH2 0x3788 DUP2 PUSH2 0x41FD JUMP JUMPDEST DUP3 MSTORE POP POP JUMP JUMPDEST PUSH2 0x3797 DUP2 PUSH2 0x420F JUMP JUMPDEST DUP3 MSTORE POP POP JUMP JUMPDEST PUSH1 0x0 PUSH2 0x37A8 DUP3 PUSH2 0x4018 JUMP JUMPDEST PUSH2 0x37B2 DUP2 DUP6 PUSH2 0x4041 JUMP JUMPDEST SWAP4 POP PUSH2 0x37C2 DUP2 DUP6 PUSH1 0x20 DUP7 ADD PUSH2 0x4254 JUMP JUMPDEST PUSH2 0x37CB DUP2 PUSH2 0x44C1 JUMP JUMPDEST DUP5 ADD SWAP2 POP POP SWAP3 SWAP2 POP POP JUMP JUMPDEST PUSH1 0x0 PUSH2 0x37E1 DUP3 PUSH2 0x4018 JUMP JUMPDEST PUSH2 0x37EB DUP2 DUP6 PUSH2 0x4052 JUMP JUMPDEST SWAP4 POP PUSH2 0x37FB DUP2 DUP6 PUSH1 0x20 DUP7 ADD PUSH2 0x4254 JUMP JUMPDEST DUP1 DUP5 ADD SWAP2 POP POP SWAP3 SWAP2 POP POP JUMP JUMPDEST PUSH1 0x0 PUSH2 0x3814 PUSH1 0x13 DUP4 PUSH2 0x4041 JUMP JUMPDEST SWAP2 POP PUSH2 0x381F DUP3 PUSH2 0x44D2 JUMP JUMPDEST PUSH1 0x20 DUP3 ADD SWAP1 POP SWAP2 SWAP1 POP JUMP JUMPDEST PUSH1 0x0 PUSH2 0x3837 PUSH1 0x20 DUP4 PUSH2 0x4041 JUMP JUMPDEST SWAP2 POP PUSH2 0x3842 DUP3 PUSH2 0x44FB JUMP JUMPDEST PUSH1 0x20 DUP3 ADD SWAP1 POP SWAP2 SWAP1 POP JUMP JUMPDEST PUSH1 0x0 PUSH2 0x385A PUSH1 0x23 DUP4 PUSH2 0x4041 JUMP JUMPDEST SWAP2 POP PUSH2 0x3865 DUP3 PUSH2 0x4524 JUMP JUMPDEST PUSH1 0x40 DUP3 ADD SWAP1 POP SWAP2 SWAP1 POP JUMP JUMPDEST PUSH1 0x0 PUSH2 0x387D PUSH1 0x22 DUP4 PUSH2 0x4041 JUMP JUMPDEST SWAP2 POP PUSH2 0x3888 DUP3 PUSH2 0x4573 JUMP JUMPDEST PUSH1 0x40 DUP3 ADD SWAP1 POP SWAP2 SWAP1 POP JUMP JUMPDEST PUSH1 0x0 PUSH2 0x38A0 PUSH1 0x3C DUP4 PUSH2 0x4041 JUMP JUMPDEST SWAP2 POP PUSH2 0x38AB DUP3 PUSH2 0x45C2 JUMP JUMPDEST PUSH1 0x40 DUP3 ADD SWAP1 POP SWAP2 SWAP1 POP JUMP JUMPDEST PUSH1 0x0 PUSH2 0x38C3 PUSH1 0x26 DUP4 PUSH2 0x4041 JUMP JUMPDEST SWAP2 POP PUSH2 0x38CE DUP3 PUSH2 0x4611 JUMP JUMPDEST PUSH1 0x40 DUP3 ADD SWAP1 POP SWAP2 SWAP1 POP JUMP JUMPDEST PUSH1 0x0 PUSH2 0x38E6 PUSH1 0x22 DUP4 PUSH2 0x4041 JUMP JUMPDEST SWAP2 POP PUSH2 0x38F1 DUP3 PUSH2 0x4660 JUMP JUMPDEST PUSH1 0x40 DUP3 ADD SWAP1 POP SWAP2 SWAP1 POP JUMP JUMPDEST PUSH1 0x0 PUSH2 0x3909 PUSH1 0x1D DUP4 PUSH2 0x4041 JUMP JUMPDEST SWAP2 POP PUSH2 0x3914 DUP3 PUSH2 0x46AF JUMP JUMPDEST PUSH1 0x20 DUP3 ADD SWAP1 POP SWAP2 SWAP1 POP JUMP JUMPDEST PUSH1 0x0 PUSH2 0x392C PUSH1 0x26 DUP4 PUSH2 0x4041 JUMP JUMPDEST SWAP2 POP PUSH2 0x3937 DUP3 PUSH2 0x46D8 JUMP JUMPDEST PUSH1 0x40 DUP3 ADD SWAP1 POP SWAP2 SWAP1 POP JUMP JUMPDEST PUSH1 0x0 PUSH2 0x394F PUSH1 0x23 DUP4 PUSH2 0x4041 JUMP JUMPDEST SWAP2 POP PUSH2 0x395A DUP3 PUSH2 0x4727 JUMP JUMPDEST PUSH1 0x40 DUP3 ADD SWAP1 POP SWAP2 SWAP1 POP JUMP JUMPDEST PUSH1 0x0 PUSH2 0x3972 PUSH1 0x20 DUP4 PUSH2 0x4041 JUMP JUMPDEST SWAP2 POP PUSH2 0x397D DUP3 PUSH2 0x4776 JUMP JUMPDEST PUSH1 0x20 DUP3 ADD SWAP1 POP SWAP2 SWAP1 POP JUMP JUMPDEST PUSH1 0x0 PUSH2 0x3995 PUSH1 0x21 DUP4 PUSH2 0x4041 JUMP JUMPDEST SWAP2 POP PUSH2 0x39A0 DUP3 PUSH2 0x479F JUMP JUMPDEST PUSH1 0x40 DUP3 ADD SWAP1 POP SWAP2 SWAP1 POP JUMP JUMPDEST PUSH1 0x0 PUSH2 0x39B8 PUSH1 0x25 DUP4 PUSH2 0x4041 JUMP JUMPDEST SWAP2 POP PUSH2 0x39C3 DUP3 PUSH2 0x47EE JUMP JUMPDEST PUSH1 0x40 DUP3 ADD SWAP1 POP SWAP2 SWAP1 POP JUMP JUMPDEST PUSH1 0x0 PUSH2 0x39DB PUSH1 0x24 DUP4 PUSH2 0x4041 JUMP JUMPDEST SWAP2 POP PUSH2 0x39E6 DUP3 PUSH2 0x483D JUMP JUMPDEST PUSH1 0x40 DUP3 ADD SWAP1 POP SWAP2 SWAP1 POP JUMP JUMPDEST PUSH1 0x0 PUSH2 0x39FE PUSH1 0x2B DUP4 PUSH2 0x4041 JUMP JUMPDEST SWAP2 POP PUSH2 0x3A09 DUP3 PUSH2 0x488C JUMP JUMPDEST PUSH1 0x40 DUP3 ADD SWAP1 POP SWAP2 SWAP1 POP JUMP JUMPDEST PUSH1 0x0 PUSH2 0x3A21 PUSH1 0x17 DUP4 PUSH2 0x4052 JUMP JUMPDEST SWAP2 POP PUSH2 0x3A2C DUP3 PUSH2 0x48DB JUMP JUMPDEST PUSH1 0x17 DUP3 ADD SWAP1 POP SWAP2 SWAP1 POP JUMP JUMPDEST PUSH1 0x0 PUSH2 0x3A44 PUSH1 0x25 DUP4 PUSH2 0x4041 JUMP JUMPDEST SWAP2 POP PUSH2 0x3A4F DUP3 PUSH2 0x4904 JUMP JUMPDEST PUSH1 0x40 DUP3 ADD SWAP1 POP SWAP2 SWAP1 POP JUMP JUMPDEST PUSH1 0x0 PUSH2 0x3A67 PUSH1 0x11 DUP4 PUSH2 0x4052 JUMP JUMPDEST SWAP2 POP PUSH2 0x3A72 DUP3 PUSH2 0x4953 JUMP JUMPDEST PUSH1 0x11 DUP3 ADD SWAP1 POP SWAP2 SWAP1 POP JUMP JUMPDEST PUSH1 0x0 PUSH2 0x3A8A PUSH1 0x2F DUP4 PUSH2 0x4041 JUMP JUMPDEST SWAP2 POP PUSH2 0x3A95 DUP3 PUSH2 0x497C JUMP JUMPDEST PUSH1 0x40 DUP3 ADD SWAP1 POP SWAP2 SWAP1 POP JUMP JUMPDEST PUSH1 0x0 PUSH2 0x3AAD PUSH1 0x1F DUP4 PUSH2 0x4041 JUMP JUMPDEST SWAP2 POP PUSH2 0x3AB8 DUP3 PUSH2 0x49CB JUMP JUMPDEST PUSH1 0x20 DUP3 ADD SWAP1 POP SWAP2 SWAP1 POP JUMP JUMPDEST PUSH1 0x0 PUSH2 0x3AD0 PUSH1 0x17 DUP4 PUSH2 0x4041 JUMP JUMPDEST SWAP2 POP PUSH2 0x3ADB DUP3 PUSH2 0x49F4 JUMP JUMPDEST PUSH1 0x20 DUP3 ADD SWAP1 POP SWAP2 SWAP1 POP JUMP JUMPDEST PUSH2 0x3AEF DUP2 PUSH2 0x41E6 JUMP JUMPDEST DUP3 MSTORE POP POP JUMP JUMPDEST PUSH2 0x3AFE DUP2 PUSH2 0x41E6 JUMP JUMPDEST DUP3 MSTORE POP POP JUMP JUMPDEST PUSH2 0x3B0D DUP2 PUSH2 0x41F0 JUMP JUMPDEST DUP3 MSTORE POP POP JUMP JUMPDEST PUSH1 0x0 PUSH2 0x3B1E DUP3 PUSH2 0x3A14 JUMP JUMPDEST SWAP2 POP PUSH2 0x3B2A DUP3 DUP6 PUSH2 0x37D6 JUMP JUMPDEST SWAP2 POP PUSH2 0x3B35 DUP3 PUSH2 0x3A5A JUMP JUMPDEST SWAP2 POP PUSH2 0x3B41 DUP3 DUP5 PUSH2 0x37D6 JUMP JUMPDEST SWAP2 POP DUP2 SWAP1 POP SWAP4 SWAP3 POP POP POP JUMP JUMPDEST PUSH1 0x0 PUSH1 0x20 DUP3 ADD SWAP1 POP PUSH2 0x3B62 PUSH1 0x0 DUP4 ADD DUP5 PUSH2 0x36E5 JUMP JUMPDEST SWAP3 SWAP2 POP POP JUMP JUMPDEST PUSH1 0x0 PUSH1 0x60 DUP3 ADD SWAP1 POP PUSH2 0x3B7D PUSH1 0x0 DUP4 ADD DUP7 PUSH2 0x36E5 JUMP JUMPDEST PUSH2 0x3B8A PUSH1 0x20 DUP4 ADD DUP6 PUSH2 0x36E5 JUMP JUMPDEST PUSH2 0x3B97 PUSH1 0x40 DUP4 ADD DUP5 PUSH2 0x3AF5 JUMP JUMPDEST SWAP5 SWAP4 POP POP POP POP JUMP JUMPDEST PUSH1 0x0 PUSH1 0x40 DUP3 ADD SWAP1 POP PUSH2 0x3BB4 PUSH1 0x0 DUP4 ADD DUP6 PUSH2 0x36E5 JUMP JUMPDEST PUSH2 0x3BC1 PUSH1 0x20 DUP4 ADD DUP5 PUSH2 0x3AF5 JUMP JUMPDEST SWAP4 SWAP3 POP POP POP JUMP JUMPDEST PUSH1 0x0 PUSH1 0x20 DUP3 ADD SWAP1 POP DUP2 DUP2 SUB PUSH1 0x0 DUP4 ADD MSTORE PUSH2 0x3BE2 DUP2 DUP5 PUSH2 0x36F4 JUMP JUMPDEST SWAP1 POP SWAP3 SWAP2 POP POP JUMP JUMPDEST PUSH1 0x0 PUSH1 0x20 DUP3 ADD SWAP1 POP PUSH2 0x3BFF PUSH1 0x0 DUP4 ADD DUP5 PUSH2 0x3752 JUMP JUMPDEST SWAP3 SWAP2 POP POP JUMP JUMPDEST PUSH1 0x0 PUSH1 0x20 DUP3 ADD SWAP1 POP PUSH2 0x3C1A PUSH1 0x0 DUP4 ADD DUP5 PUSH2 0x3761 JUMP JUMPDEST SWAP3 SWAP2 POP POP JUMP JUMPDEST PUSH1 0x0 PUSH1 0x20 DUP3 ADD SWAP1 POP PUSH2 0x3C35 PUSH1 0x0 DUP4 ADD DUP5 PUSH2 0x3770 JUMP JUMPDEST SWAP3 SWAP2 POP POP JUMP JUMPDEST PUSH1 0x0 PUSH1 0x20 DUP3 ADD SWAP1 POP PUSH2 0x3C50 PUSH1 0x0 DUP4 ADD DUP5 PUSH2 0x377F JUMP JUMPDEST SWAP3 SWAP2 POP POP JUMP JUMPDEST PUSH1 0x0 PUSH1 0x20 DUP3 ADD SWAP1 POP PUSH2 0x3C6B PUSH1 0x0 DUP4 ADD DUP5 PUSH2 0x378E JUMP JUMPDEST SWAP3 SWAP2 POP POP JUMP JUMPDEST PUSH1 0x0 PUSH1 0x20 DUP3 ADD SWAP1 POP DUP2 DUP2 SUB PUSH1 0x0 DUP4 ADD MSTORE PUSH2 0x3C8B DUP2 DUP5 PUSH2 0x379D JUMP JUMPDEST SWAP1 POP SWAP3 SWAP2 POP POP JUMP JUMPDEST PUSH1 0x0 PUSH1 0x20 DUP3 ADD SWAP1 POP DUP2 DUP2 SUB PUSH1 0x0 DUP4 ADD MSTORE PUSH2 0x3CAC DUP2 PUSH2 0x3807 JUMP JUMPDEST SWAP1 POP SWAP2 SWAP1 POP JUMP JUMPDEST PUSH1 0x0 PUSH1 0x20 DUP3 ADD SWAP1 POP DUP2 DUP2 SUB PUSH1 0x0 DUP4 ADD MSTORE PUSH2 0x3CCC DUP2 PUSH2 0x382A JUMP JUMPDEST SWAP1 POP SWAP2 SWAP1 POP JUMP JUMPDEST PUSH1 0x0 PUSH1 0x20 DUP3 ADD SWAP1 POP DUP2 DUP2 SUB PUSH1 0x0 DUP4 ADD MSTORE PUSH2 0x3CEC DUP2 PUSH2 0x384D JUMP JUMPDEST SWAP1 POP SWAP2 SWAP1 POP JUMP JUMPDEST PUSH1 0x0 PUSH1 0x20 DUP3 ADD SWAP1 POP DUP2 DUP2 SUB PUSH1 0x0 DUP4 ADD MSTORE PUSH2 0x3D0C DUP2 PUSH2 0x3870 JUMP JUMPDEST SWAP1 POP SWAP2 SWAP1 POP JUMP JUMPDEST PUSH1 0x0 PUSH1 0x20 DUP3 ADD SWAP1 POP DUP2 DUP2 SUB PUSH1 0x0 DUP4 ADD MSTORE PUSH2 0x3D2C DUP2 PUSH2 0x3893 JUMP JUMPDEST SWAP1 POP SWAP2 SWAP1 POP JUMP JUMPDEST PUSH1 0x0 PUSH1 0x20 DUP3 ADD SWAP1 POP DUP2 DUP2 SUB PUSH1 0x0 DUP4 ADD MSTORE PUSH2 0x3D4C DUP2 PUSH2 0x38B6 JUMP JUMPDEST SWAP1 POP SWAP2 SWAP1 POP JUMP JUMPDEST PUSH1 0x0 PUSH1 0x20 DUP3 ADD SWAP1 POP DUP2 DUP2 SUB PUSH1 0x0 DUP4 ADD MSTORE PUSH2 0x3D6C DUP2 PUSH2 0x38D9 JUMP JUMPDEST SWAP1 POP SWAP2 SWAP1 POP JUMP JUMPDEST PUSH1 0x0 PUSH1 0x20 DUP3 ADD SWAP1 POP DUP2 DUP2 SUB PUSH1 0x0 DUP4 ADD MSTORE PUSH2 0x3D8C DUP2 PUSH2 0x38FC JUMP JUMPDEST SWAP1 POP SWAP2 SWAP1 POP JUMP JUMPDEST PUSH1 0x0 PUSH1 0x20 DUP3 ADD SWAP1 POP DUP2 DUP2 SUB PUSH1 0x0 DUP4 ADD MSTORE PUSH2 0x3DAC DUP2 PUSH2 0x391F JUMP JUMPDEST SWAP1 POP SWAP2 SWAP1 POP JUMP JUMPDEST PUSH1 0x0 PUSH1 0x20 DUP3 ADD SWAP1 POP DUP2 DUP2 SUB PUSH1 0x0 DUP4 ADD MSTORE PUSH2 0x3DCC DUP2 PUSH2 0x3942 JUMP JUMPDEST SWAP1 POP SWAP2 SWAP1 POP JUMP JUMPDEST PUSH1 0x0 PUSH1 0x20 DUP3 ADD SWAP1 POP DUP2 DUP2 SUB PUSH1 0x0 DUP4 ADD MSTORE PUSH2 0x3DEC DUP2 PUSH2 0x3965 JUMP JUMPDEST SWAP1 POP SWAP2 SWAP1 POP JUMP JUMPDEST PUSH1 0x0 PUSH1 0x20 DUP3 ADD SWAP1 POP DUP2 DUP2 SUB PUSH1 0x0 DUP4 ADD MSTORE PUSH2 0x3E0C DUP2 PUSH2 0x3988 JUMP JUMPDEST SWAP1 POP SWAP2 SWAP1 POP JUMP JUMPDEST PUSH1 0x0 PUSH1 0x20 DUP3 ADD SWAP1 POP DUP2 DUP2 SUB PUSH1 0x0 DUP4 ADD MSTORE PUSH2 0x3E2C DUP2 PUSH2 0x39AB JUMP JUMPDEST SWAP1 POP SWAP2 SWAP1 POP JUMP JUMPDEST PUSH1 0x0 PUSH1 0x20 DUP3 ADD SWAP1 POP DUP2 DUP2 SUB PUSH1 0x0 DUP4 ADD MSTORE PUSH2 0x3E4C DUP2 PUSH2 0x39CE JUMP JUMPDEST SWAP1 POP SWAP2 SWAP1 POP JUMP JUMPDEST PUSH1 0x0 PUSH1 0x20 DUP3 ADD SWAP1 POP DUP2 DUP2 SUB PUSH1 0x0 DUP4 ADD MSTORE PUSH2 0x3E6C DUP2 PUSH2 0x39F1 JUMP JUMPDEST SWAP1 POP SWAP2 SWAP1 POP JUMP JUMPDEST PUSH1 0x0 PUSH1 0x20 DUP3 ADD SWAP1 POP DUP2 DUP2 SUB PUSH1 0x0 DUP4 ADD MSTORE PUSH2 0x3E8C DUP2 PUSH2 0x3A37 JUMP JUMPDEST SWAP1 POP SWAP2 SWAP1 POP JUMP JUMPDEST PUSH1 0x0 PUSH1 0x20 DUP3 ADD SWAP1 POP DUP2 DUP2 SUB PUSH1 0x0 DUP4 ADD MSTORE PUSH2 0x3EAC DUP2 PUSH2 0x3A7D JUMP JUMPDEST SWAP1 POP SWAP2 SWAP1 POP JUMP JUMPDEST PUSH1 0x0 PUSH1 0x20 DUP3 ADD SWAP1 POP DUP2 DUP2 SUB PUSH1 0x0 DUP4 ADD MSTORE PUSH2 0x3ECC DUP2 PUSH2 0x3AA0 JUMP JUMPDEST SWAP1 POP SWAP2 SWAP1 POP JUMP JUMPDEST PUSH1 0x0 PUSH1 0x20 DUP3 ADD SWAP1 POP DUP2 DUP2 SUB PUSH1 0x0 DUP4 ADD MSTORE PUSH2 0x3EEC DUP2 PUSH2 0x3AC3 JUMP JUMPDEST SWAP1 POP SWAP2 SWAP1 POP JUMP JUMPDEST PUSH1 0x0 PUSH1 0x20 DUP3 ADD SWAP1 POP PUSH2 0x3F08 PUSH1 0x0 DUP4 ADD DUP5 PUSH2 0x3AF5 JUMP JUMPDEST SWAP3 SWAP2 POP POP JUMP JUMPDEST PUSH1 0x0 PUSH1 0x40 DUP3 ADD SWAP1 POP PUSH2 0x3F23 PUSH1 0x0 DUP4 ADD DUP6 PUSH2 0x3AF5 JUMP JUMPDEST PUSH2 0x3F30 PUSH1 0x20 DUP4 ADD DUP5 PUSH2 0x3752 JUMP JUMPDEST SWAP4 SWAP3 POP POP POP JUMP JUMPDEST PUSH1 0x0 PUSH1 0x40 DUP3 ADD SWAP1 POP PUSH2 0x3F4C PUSH1 0x0 DUP4 ADD DUP6 PUSH2 0x3AF5 JUMP JUMPDEST PUSH2 0x3F59 PUSH1 0x20 DUP4 ADD DUP5 PUSH2 0x3AF5 JUMP JUMPDEST SWAP4 SWAP3 POP POP POP JUMP JUMPDEST PUSH1 0x0 PUSH1 0x20 DUP3 ADD SWAP1 POP PUSH2 0x3F75 PUSH1 0x0 DUP4 ADD DUP5 PUSH2 0x3B04 JUMP JUMPDEST SWAP3 SWAP2 POP POP JUMP JUMPDEST PUSH1 0x0 PUSH2 0x3F85 PUSH2 0x3F96 JUMP JUMPDEST SWAP1 POP PUSH2 0x3F91 DUP3 DUP3 PUSH2 0x42E3 JUMP JUMPDEST SWAP2 SWAP1 POP JUMP JUMPDEST PUSH1 0x0 PUSH1 0x40 MLOAD SWAP1 POP SWAP1 JUMP JUMPDEST PUSH1 0x0 PUSH8 0xFFFFFFFFFFFFFFFF DUP3 GT ISZERO PUSH2 0x3FBB JUMPI PUSH2 0x3FBA PUSH2 0x4479 JUMP JUMPDEST JUMPDEST PUSH1 0x20 DUP3 MUL SWAP1 POP PUSH1 0x20 DUP2 ADD SWAP1 POP SWAP2 SWAP1 POP JUMP JUMPDEST PUSH1 0x0 PUSH8 0xFFFFFFFFFFFFFFFF DUP3 GT ISZERO PUSH2 0x3FE7 JUMPI PUSH2 0x3FE6 PUSH2 0x4479 JUMP JUMPDEST JUMPDEST PUSH2 0x3FF0 DUP3 PUSH2 0x44C1 JUMP JUMPDEST SWAP1 POP PUSH1 0x20 DUP2 ADD SWAP1 POP SWAP2 SWAP1 POP JUMP JUMPDEST PUSH1 0x0 DUP2 SWAP1 POP PUSH1 0x20 DUP3 ADD SWAP1 POP SWAP2 SWAP1 POP JUMP JUMPDEST PUSH1 0x0 DUP2 MLOAD SWAP1 POP SWAP2 SWAP1 POP JUMP JUMPDEST PUSH1 0x0 DUP2 MLOAD SWAP1 POP SWAP2 SWAP1 POP JUMP JUMPDEST PUSH1 0x0 PUSH1 0x20 DUP3 ADD SWAP1 POP SWAP2 SWAP1 POP JUMP JUMPDEST PUSH1 0x0 DUP3 DUP3 MSTORE PUSH1 0x20 DUP3 ADD SWAP1 POP SWAP3 SWAP2 POP POP JUMP JUMPDEST PUSH1 0x0 DUP3 DUP3 MSTORE PUSH1 0x20 DUP3 ADD SWAP1 POP SWAP3 SWAP2 POP POP JUMP JUMPDEST PUSH1 0x0 DUP2 SWAP1 POP SWAP3 SWAP2 POP POP JUMP JUMPDEST PUSH1 0x0 PUSH2 0x4068 DUP3 PUSH2 0x41E6 JUMP JUMPDEST SWAP2 POP PUSH2 0x4073 DUP4 PUSH2 0x41E6 JUMP JUMPDEST SWAP3 POP DUP3 PUSH32 0xFFFFFFFFFFFFFFFFFFFFFFFFFFFFFFFFFFFFFFFFFFFFFFFFFFFFFFFFFFFFFFFF SUB DUP3 GT ISZERO PUSH2 0x40A8 JUMPI PUSH2 0x40A7 PUSH2 0x438E JUMP JUMPDEST JUMPDEST DUP3 DUP3 ADD SWAP1 POP SWAP3 SWAP2 POP POP JUMP JUMPDEST PUSH1 0x0 PUSH2 0x40BE DUP3 PUSH2 0x41E6 JUMP JUMPDEST SWAP2 POP PUSH2 0x40C9 DUP4 PUSH2 0x41E6 JUMP JUMPDEST SWAP3 POP DUP3 PUSH2 0x40D9 JUMPI PUSH2 0x40D8 PUSH2 0x43BD JUMP JUMPDEST JUMPDEST DUP3 DUP3 DIV SWAP1 POP SWAP3 SWAP2 POP POP JUMP JUMPDEST PUSH1 0x0 PUSH2 0x40EF DUP3 PUSH2 0x41E6 JUMP JUMPDEST SWAP2 POP PUSH2 0x40FA DUP4 PUSH2 0x41E6 JUMP JUMPDEST SWAP3 POP DUP2 PUSH32 0xFFFFFFFFFFFFFFFFFFFFFFFFFFFFFFFFFFFFFFFFFFFFFFFFFFFFFFFFFFFFFFFF DIV DUP4 GT DUP3 ISZERO ISZERO AND ISZERO PUSH2 0x4133 JUMPI PUSH2 0x4132 PUSH2 0x438E JUMP JUMPDEST JUMPDEST DUP3 DUP3 MUL SWAP1 POP SWAP3 SWAP2 POP POP JUMP JUMPDEST PUSH1 0x0 PUSH2 0x4149 DUP3 PUSH2 0x41E6 JUMP JUMPDEST SWAP2 POP PUSH2 0x4154 DUP4 PUSH2 0x41E6 JUMP JUMPDEST SWAP3 POP DUP3 DUP3 LT ISZERO PUSH2 0x4167 JUMPI PUSH2 0x4166 PUSH2 0x438E JUMP JUMPDEST JUMPDEST DUP3 DUP3 SUB SWAP1 POP SWAP3 SWAP2 POP POP JUMP JUMPDEST PUSH1 0x0 PUSH2 0x417D DUP3 PUSH2 0x41C6 JUMP JUMPDEST SWAP1 POP SWAP2 SWAP1 POP JUMP JUMPDEST PUSH1 0x0 DUP2 ISZERO ISZERO SWAP1 POP SWAP2 SWAP1 POP JUMP JUMPDEST PUSH1 0x0 DUP2 SWAP1 POP SWAP2 SWAP1 POP JUMP JUMPDEST PUSH1 0x0 PUSH32 0xFFFFFFFF00000000000000000000000000000000000000000000000000000000 DUP3 AND SWAP1 POP SWAP2 SWAP1 POP JUMP JUMPDEST PUSH1 0x0 PUSH20 0xFFFFFFFFFFFFFFFFFFFFFFFFFFFFFFFFFFFFFFFF DUP3 AND SWAP1 POP SWAP2 SWAP1 POP JUMP JUMPDEST PUSH1 0x0 DUP2 SWAP1 POP SWAP2 SWAP1 POP JUMP JUMPDEST PUSH1 0x0 PUSH1 0xFF DUP3 AND SWAP1 POP SWAP2 SWAP1 POP JUMP JUMPDEST PUSH1 0x0 PUSH2 0x4208 DUP3 PUSH2 0x4221 JUMP JUMPDEST SWAP1 POP SWAP2 SWAP1 POP JUMP JUMPDEST PUSH1 0x0 PUSH2 0x421A DUP3 PUSH2 0x4221 JUMP JUMPDEST SWAP1 POP SWAP2 SWAP1 POP JUMP JUMPDEST PUSH1 0x0 PUSH2 0x422C DUP3 PUSH2 0x4233 JUMP JUMPDEST SWAP1 POP SWAP2 SWAP1 POP JUMP JUMPDEST PUSH1 0x0 PUSH2 0x423E DUP3 PUSH2 0x41C6 JUMP JUMPDEST SWAP1 POP SWAP2 SWAP1 POP JUMP JUMPDEST DUP3 DUP2 DUP4 CALLDATACOPY PUSH1 0x0 DUP4 DUP4 ADD MSTORE POP POP POP JUMP JUMPDEST PUSH1 0x0 JUMPDEST DUP4 DUP2 LT ISZERO PUSH2 0x4272 JUMPI DUP1 DUP3 ADD MLOAD DUP2 DUP5 ADD MSTORE PUSH1 0x20 DUP2 ADD SWAP1 POP PUSH2 0x4257 JUMP JUMPDEST DUP4 DUP2 GT ISZERO PUSH2 0x4281 JUMPI PUSH1 0x0 DUP5 DUP5 ADD MSTORE JUMPDEST POP POP POP POP JUMP JUMPDEST PUSH1 0x0 PUSH2 0x4292 DUP3 PUSH2 0x41E6 JUMP JUMPDEST SWAP2 POP PUSH1 0x0 DUP3 EQ ISZERO PUSH2 0x42A6 JUMPI PUSH2 0x42A5 PUSH2 0x438E JUMP JUMPDEST JUMPDEST PUSH1 0x1 DUP3 SUB SWAP1 POP SWAP2 SWAP1 POP JUMP JUMPDEST PUSH1 0x0 PUSH1 0x2 DUP3 DIV SWAP1 POP PUSH1 0x1 DUP3 AND DUP1 PUSH2 0x42C9 JUMPI PUSH1 0x7F DUP3 AND SWAP2 POP JUMPDEST PUSH1 0x20 DUP3 LT DUP2 EQ ISZERO PUSH2 0x42DD JUMPI PUSH2 0x42DC PUSH2 0x43EC JUMP JUMPDEST JUMPDEST POP SWAP2 SWAP1 POP JUMP JUMPDEST PUSH2 0x42EC DUP3 PUSH2 0x44C1 JUMP JUMPDEST DUP2 ADD DUP2 DUP2 LT PUSH8 0xFFFFFFFFFFFFFFFF DUP3 GT OR ISZERO PUSH2 0x430B JUMPI PUSH2 0x430A PUSH2 0x4479 JUMP JUMPDEST JUMPDEST DUP1 PUSH1 0x40 MSTORE POP POP POP JUMP JUMPDEST PUSH1 0x0 PUSH2 0x431F DUP3 PUSH2 0x41E6 JUMP JUMPDEST SWAP2 POP PUSH32 0xFFFFFFFFFFFFFFFFFFFFFFFFFFFFFFFFFFFFFFFFFFFFFFFFFFFFFFFFFFFFFFFF DUP3 EQ ISZERO PUSH2 0x4352 JUMPI PUSH2 0x4351 PUSH2 0x438E JUMP JUMPDEST JUMPDEST PUSH1 0x1 DUP3 ADD SWAP1 POP SWAP2 SWAP1 POP JUMP JUMPDEST PUSH1 0x0 PUSH2 0x4368 DUP3 PUSH2 0x41E6 JUMP JUMPDEST SWAP2 POP PUSH2 0x4373 DUP4 PUSH2 0x41E6 JUMP JUMPDEST SWAP3 POP DUP3 PUSH2 0x4383 JUMPI PUSH2 0x4382 PUSH2 0x43BD JUMP JUMPDEST JUMPDEST DUP3 DUP3 MOD SWAP1 POP SWAP3 SWAP2 POP POP JUMP JUMPDEST PUSH32 0x4E487B7100000000000000000000000000000000000000000000000000000000 PUSH1 0x0 MSTORE PUSH1 0x11 PUSH1 0x4 MSTORE PUSH1 0x24 PUSH1 0x0 REVERT JUMPDEST PUSH32 0x4E487B7100000000000000000000000000000000000000000000000000000000 PUSH1 0x0 MSTORE PUSH1 0x12 PUSH1 0x4 MSTORE PUSH1 0x24 PUSH1 0x0 REVERT JUMPDEST PUSH32 0x4E487B7100000000000000000000000000000000000000000000000000000000 PUSH1 0x0 MSTORE PUSH1 0x22 PUSH1 0x4 MSTORE PUSH1 0x24 PUSH1 0x0 REVERT JUMPDEST PUSH32 0x4E487B7100000000000000000000000000000000000000000000000000000000 PUSH1 0x0 MSTORE PUSH1 0x31 PUSH1 0x4 MSTORE PUSH1 0x24 PUSH1 0x0 REVERT JUMPDEST PUSH32 0x4E487B7100000000000000000000000000000000000000000000000000000000 PUSH1 0x0 MSTORE PUSH1 0x32 PUSH1 0x4 MSTORE PUSH1 0x24 PUSH1 0x0 REVERT JUMPDEST PUSH32 0x4E487B7100000000000000000000000000000000000000000000000000000000 PUSH1 0x0 MSTORE PUSH1 0x41 PUSH1 0x4 MSTORE PUSH1 0x24 PUSH1 0x0 REVERT JUMPDEST PUSH1 0x0 DUP1 REVERT JUMPDEST PUSH1 0x0 DUP1 REVERT JUMPDEST PUSH1 0x0 DUP1 REVERT JUMPDEST PUSH1 0x0 DUP1 REVERT JUMPDEST PUSH1 0x0 DUP1 REVERT JUMPDEST PUSH1 0x0 PUSH1 0x1F NOT PUSH1 0x1F DUP4 ADD AND SWAP1 POP SWAP2 SWAP1 POP JUMP JUMPDEST PUSH32 0x416C726561647920696E697469616C6973656400000000000000000000000000 PUSH1 0x0 DUP3 ADD MSTORE POP JUMP JUMPDEST PUSH32 0x537472696E67733A20686578206C656E67746820696E73756666696369656E74 PUSH1 0x0 DUP3 ADD MSTORE POP JUMP JUMPDEST PUSH32 0x45524332303A207472616E7366657220746F20746865207A65726F2061646472 PUSH1 0x0 DUP3 ADD MSTORE PUSH32 0x6573730000000000000000000000000000000000000000000000000000000000 PUSH1 0x20 DUP3 ADD MSTORE POP JUMP JUMPDEST PUSH32 0x45524332303A206275726E20616D6F756E7420657863656564732062616C616E PUSH1 0x0 DUP3 ADD MSTORE PUSH32 0x6365000000000000000000000000000000000000000000000000000000000000 PUSH1 0x20 DUP3 ADD MSTORE POP JUMP JUMPDEST PUSH32 0x4E6674205374616B696E672053797374656D3A2075736572206D757374206265 PUSH1 0x0 DUP3 ADD MSTORE PUSH32 0x20746865206F776E6572206F6620746865207374616B6564206E667400000000 PUSH1 0x20 DUP3 ADD MSTORE POP JUMP JUMPDEST PUSH32 0x4F776E61626C653A206E6577206F776E657220697320746865207A65726F2061 PUSH1 0x0 DUP3 ADD MSTORE PUSH32 0x6464726573730000000000000000000000000000000000000000000000000000 PUSH1 0x20 DUP3 ADD MSTORE POP JUMP JUMPDEST PUSH32 0x45524332303A20617070726F766520746F20746865207A65726F206164647265 PUSH1 0x0 DUP3 ADD MSTORE PUSH32 0x7373000000000000000000000000000000000000000000000000000000000000 PUSH1 0x20 DUP3 ADD MSTORE POP JUMP JUMPDEST PUSH32 0x45524332303A20696E73756666696369656E7420616C6C6F77616E6365000000 PUSH1 0x0 DUP3 ADD MSTORE POP JUMP JUMPDEST PUSH32 0x45524332303A207472616E7366657220616D6F756E7420657863656564732062 PUSH1 0x0 DUP3 ADD MSTORE PUSH32 0x616C616E63650000000000000000000000000000000000000000000000000000 PUSH1 0x20 DUP3 ADD MSTORE POP JUMP JUMPDEST PUSH32 0x75736572206D75737420626520746865206F776E6572206F662074686520746F PUSH1 0x0 DUP3 ADD MSTORE PUSH32 0x6B656E0000000000000000000000000000000000000000000000000000000000 PUSH1 0x20 DUP3 ADD MSTORE POP JUMP JUMPDEST PUSH32 0x4F776E61626C653A2063616C6C6572206973206E6F7420746865206F776E6572 PUSH1 0x0 DUP3 ADD MSTORE POP JUMP JUMPDEST PUSH32 0x45524332303A206275726E2066726F6D20746865207A65726F20616464726573 PUSH1 0x0 DUP3 ADD MSTORE PUSH32 0x7300000000000000000000000000000000000000000000000000000000000000 PUSH1 0x20 DUP3 ADD MSTORE POP JUMP JUMPDEST PUSH32 0x45524332303A207472616E736665722066726F6D20746865207A65726F206164 PUSH1 0x0 DUP3 ADD MSTORE PUSH32 0x6472657373000000000000000000000000000000000000000000000000000000 PUSH1 0x20 DUP3 ADD MSTORE POP JUMP JUMPDEST PUSH32 0x45524332303A20617070726F76652066726F6D20746865207A65726F20616464 PUSH1 0x0 DUP3 ADD MSTORE PUSH32 0x7265737300000000000000000000000000000000000000000000000000000000 PUSH1 0x20 DUP3 ADD MSTORE POP JUMP JUMPDEST PUSH32 0x5374616B696E672053797374656D3A20746865207374616B696E672068617320 PUSH1 0x0 DUP3 ADD MSTORE PUSH32 0x6E6F742073746172746564000000000000000000000000000000000000000000 PUSH1 0x20 DUP3 ADD MSTORE POP JUMP JUMPDEST PUSH32 0x416363657373436F6E74726F6C3A206163636F756E7420000000000000000000 PUSH1 0x0 DUP3 ADD MSTORE POP JUMP JUMPDEST PUSH32 0x45524332303A2064656372656173656420616C6C6F77616E63652062656C6F77 PUSH1 0x0 DUP3 ADD MSTORE PUSH32 0x207A65726F000000000000000000000000000000000000000000000000000000 PUSH1 0x20 DUP3 ADD MSTORE POP JUMP JUMPDEST PUSH32 0x206973206D697373696E6720726F6C6520000000000000000000000000000000 PUSH1 0x0 DUP3 ADD MSTORE POP JUMP JUMPDEST PUSH32 0x416363657373436F6E74726F6C3A2063616E206F6E6C792072656E6F756E6365 PUSH1 0x0 DUP3 ADD MSTORE PUSH32 0x20726F6C657320666F722073656C660000000000000000000000000000000000 PUSH1 0x20 DUP3 ADD MSTORE POP JUMP JUMPDEST PUSH32 0x45524332303A206D696E7420746F20746865207A65726F206164647265737300 PUSH1 0x0 DUP3 ADD MSTORE POP JUMP JUMPDEST PUSH32 0x5468697320746F6B656E20616C72656164792053616C65000000000000000000 PUSH1 0x0 DUP3 ADD MSTORE POP JUMP JUMPDEST PUSH2 0x4A26 DUP2 PUSH2 0x4172 JUMP JUMPDEST DUP2 EQ PUSH2 0x4A31 JUMPI PUSH1 0x0 DUP1 REVERT JUMPDEST POP JUMP JUMPDEST PUSH2 0x4A3D DUP2 PUSH2 0x4184 JUMP JUMPDEST DUP2 EQ PUSH2 0x4A48 JUMPI PUSH1 0x0 DUP1 REVERT JUMPDEST POP JUMP JUMPDEST PUSH2 0x4A54 DUP2 PUSH2 0x4190 JUMP JUMPDEST DUP2 EQ PUSH2 0x4A5F JUMPI PUSH1 0x0 DUP1 REVERT JUMPDEST POP JUMP JUMPDEST PUSH2 0x4A6B DUP2 PUSH2 0x419A JUMP JUMPDEST DUP2 EQ PUSH2 0x4A76 JUMPI PUSH1 0x0 DUP1 REVERT JUMPDEST POP JUMP JUMPDEST PUSH2 0x4A82 DUP2 PUSH2 0x41E6 JUMP JUMPDEST DUP2 EQ PUSH2 0x4A8D JUMPI PUSH1 0x0 DUP1 REVERT JUMPDEST POP JUMP INVALID LOG2 PUSH5 0x6970667358 0x22 SLT KECCAK256 MULMOD CREATE2 PUSH28 0x8614F923754BE68FE5AEDE3F5F7303D77762E77DB2813E034651794C 0xBE PUSH5 0x736F6C6343 STOP ADDMOD SMOD STOP CALLER "
		},
		"gasEstimates": {
			"creation": {
				"codeDepositCost": "3828400",
				"executionCost": "infinite",
				"totalCost": "infinite"
			},
			"external": {
				"DEFAULT_ADMIN_ROLE()": "446",
				"MINTER_ROLE()": "373",
				"allowance(address,address)": "infinite",
				"approve(address,uint256)": "infinite",
				"balanceOf(address)": "2909",
				"burn(uint256)": "infinite",
				"burnFrom(address,uint256)": "infinite",
				"claimReward(address)": "infinite",
				"decimals()": "411",
				"decreaseAllowance(address,uint256)": "infinite",
				"getOwnedStakedJolamanType(address)": "infinite",
				"getRoleAdmin(bytes32)": "infinite",
				"getStakedTokens(address)": "infinite",
				"grantRole(bytes32,address)": "infinite",
				"hasRole(bytes32,address)": "3207",
				"increaseAllowance(address,uint256)": "infinite",
				"initStaking()": "51009",
				"mint(address,uint256)": "infinite",
				"name()": "infinite",
				"onERC721Received(address,address,uint256,bytes)": "infinite",
				"owner()": "2656",
				"randomJolaman()": "2711",
				"renounceOwnership()": "30464",
				"renounceRole(bytes32,address)": "infinite",
				"revokeRole(bytes32,address)": "infinite",
				"setdata()": "2667",
				"stake(uint256)": "infinite",
				"stakeBatch(uint256[])": "infinite",
				"stakedTotal()": "2517",
				"stakers(address)": "infinite",
				"stakingStartTime()": "2475",
				"supportsInterface(bytes4)": "774",
				"symbol()": "infinite",
				"tokenOwner(uint256)": "2885",
				"totalSupply()": "2572",
				"transfer(address,uint256)": "infinite",
				"transferFrom(address,address,uint256)": "infinite",
				"transferOwnership(address)": "30877",
				"unstake(uint256)": "infinite",
				"unstakeBatch(uint256[])": "infinite",
				"updateReward(address)": "infinite"
			},
			"internal": {
				"_stake(address,uint256)": "infinite",
				"_unstake(address,uint256)": "infinite",
				"find(uint256,uint256[] storage pointer)": "infinite",
				"removeByIndex(uint256,uint256[] storage pointer)": "infinite",
				"removeByValue(uint256,uint256[] storage pointer)": "infinite"
			}
		},
		"methodIdentifiers": {
			"DEFAULT_ADMIN_ROLE()": "a217fddf",
			"MINTER_ROLE()": "d5391393",
			"allowance(address,address)": "dd62ed3e",
			"approve(address,uint256)": "095ea7b3",
			"balanceOf(address)": "70a08231",
			"burn(uint256)": "42966c68",
			"burnFrom(address,uint256)": "79cc6790",
			"claimReward(address)": "d279c191",
			"decimals()": "313ce567",
			"decreaseAllowance(address,uint256)": "a457c2d7",
			"getOwnedStakedJolamanType(address)": "6a54b942",
			"getRoleAdmin(bytes32)": "248a9ca3",
			"getStakedTokens(address)": "63c28db1",
			"grantRole(bytes32,address)": "2f2ff15d",
			"hasRole(bytes32,address)": "91d14854",
			"increaseAllowance(address,uint256)": "39509351",
			"initStaking()": "b4efa66d",
			"mint(address,uint256)": "40c10f19",
			"name()": "06fdde03",
			"onERC721Received(address,address,uint256,bytes)": "150b7a02",
			"owner()": "8da5cb5b",
			"randomJolaman()": "cf39bc8c",
			"renounceOwnership()": "715018a6",
			"renounceRole(bytes32,address)": "36568abe",
			"revokeRole(bytes32,address)": "d547741f",
			"setdata()": "491041a4",
			"stake(uint256)": "a694fc3a",
			"stakeBatch(uint256[])": "230f436d",
			"stakedTotal()": "d66692a7",
			"stakers(address)": "9168ae72",
			"stakingStartTime()": "6abfd183",
			"supportsInterface(bytes4)": "01ffc9a7",
			"symbol()": "95d89b41",
			"tokenOwner(uint256)": "1caaa487",
			"totalSupply()": "18160ddd",
			"transfer(address,uint256)": "a9059cbb",
			"transferFrom(address,address,uint256)": "23b872dd",
			"transferOwnership(address)": "f2fde38b",
			"unstake(uint256)": "2e17de78",
			"unstakeBatch(uint256[])": "e64a21f3",
			"updateReward(address)": "632447c9"
		}
	},
	"abi": [
		{
			"inputs": [
				{
					"internalType": "contract IERC721",
					"name": "_randomJolaman",
					"type": "address"
				},
				{
					"internalType": "contract SetData",
					"name": "_setdata",
					"type": "address"
				}
			],
			"stateMutability": "nonpayable",
			"type": "constructor"
		},
		{
			"anonymous": false,
			"inputs": [
				{
					"indexed": true,
					"internalType": "address",
					"name": "owner",
					"type": "address"
				},
				{
					"indexed": true,
					"internalType": "address",
					"name": "spender",
					"type": "address"
				},
				{
					"indexed": false,
					"internalType": "uint256",
					"name": "value",
					"type": "uint256"
				}
			],
			"name": "Approval",
			"type": "event"
		},
		{
			"anonymous": false,
			"inputs": [
				{
					"indexed": true,
					"internalType": "address",
					"name": "previousOwner",
					"type": "address"
				},
				{
					"indexed": true,
					"internalType": "address",
					"name": "newOwner",
					"type": "address"
				}
			],
			"name": "OwnershipTransferred",
			"type": "event"
		},
		{
			"anonymous": false,
			"inputs": [
				{
					"indexed": true,
					"internalType": "bytes32",
					"name": "role",
					"type": "bytes32"
				},
				{
					"indexed": true,
					"internalType": "bytes32",
					"name": "previousAdminRole",
					"type": "bytes32"
				},
				{
					"indexed": true,
					"internalType": "bytes32",
					"name": "newAdminRole",
					"type": "bytes32"
				}
			],
			"name": "RoleAdminChanged",
			"type": "event"
		},
		{
			"anonymous": false,
			"inputs": [
				{
					"indexed": true,
					"internalType": "bytes32",
					"name": "role",
					"type": "bytes32"
				},
				{
					"indexed": true,
					"internalType": "address",
					"name": "account",
					"type": "address"
				},
				{
					"indexed": true,
					"internalType": "address",
					"name": "sender",
					"type": "address"
				}
			],
			"name": "RoleGranted",
			"type": "event"
		},
		{
			"anonymous": false,
			"inputs": [
				{
					"indexed": true,
					"internalType": "bytes32",
					"name": "role",
					"type": "bytes32"
				},
				{
					"indexed": true,
					"internalType": "address",
					"name": "account",
					"type": "address"
				},
				{
					"indexed": true,
					"internalType": "address",
					"name": "sender",
					"type": "address"
				}
			],
			"name": "RoleRevoked",
			"type": "event"
		},
		{
			"anonymous": false,
			"inputs": [
				{
					"indexed": true,
					"internalType": "address",
					"name": "from",
					"type": "address"
				},
				{
					"indexed": true,
					"internalType": "address",
					"name": "to",
					"type": "address"
				},
				{
					"indexed": false,
					"internalType": "uint256",
					"name": "value",
					"type": "uint256"
				}
			],
			"name": "Transfer",
			"type": "event"
		},
		{
			"inputs": [],
			"name": "DEFAULT_ADMIN_ROLE",
			"outputs": [
				{
					"internalType": "bytes32",
					"name": "",
					"type": "bytes32"
				}
			],
			"stateMutability": "view",
			"type": "function"
		},
		{
			"inputs": [],
			"name": "MINTER_ROLE",
			"outputs": [
				{
					"internalType": "bytes32",
					"name": "",
					"type": "bytes32"
				}
			],
			"stateMutability": "view",
			"type": "function"
		},
		{
			"inputs": [
				{
					"internalType": "address",
					"name": "owner",
					"type": "address"
				},
				{
					"internalType": "address",
					"name": "spender",
					"type": "address"
				}
			],
			"name": "allowance",
			"outputs": [
				{
					"internalType": "uint256",
					"name": "",
					"type": "uint256"
				}
			],
			"stateMutability": "view",
			"type": "function"
		},
		{
			"inputs": [
				{
					"internalType": "address",
					"name": "spender",
					"type": "address"
				},
				{
					"internalType": "uint256",
					"name": "amount",
					"type": "uint256"
				}
			],
			"name": "approve",
			"outputs": [
				{
					"internalType": "bool",
					"name": "",
					"type": "bool"
				}
			],
			"stateMutability": "nonpayable",
			"type": "function"
		},
		{
			"inputs": [
				{
					"internalType": "address",
					"name": "account",
					"type": "address"
				}
			],
			"name": "balanceOf",
			"outputs": [
				{
					"internalType": "uint256",
					"name": "",
					"type": "uint256"
				}
			],
			"stateMutability": "view",
			"type": "function"
		},
		{
			"inputs": [
				{
					"internalType": "uint256",
					"name": "amount",
					"type": "uint256"
				}
			],
			"name": "burn",
			"outputs": [],
			"stateMutability": "nonpayable",
			"type": "function"
		},
		{
			"inputs": [
				{
					"internalType": "address",
					"name": "account",
					"type": "address"
				},
				{
					"internalType": "uint256",
					"name": "amount",
					"type": "uint256"
				}
			],
			"name": "burnFrom",
			"outputs": [],
			"stateMutability": "nonpayable",
			"type": "function"
		},
		{
			"inputs": [
				{
					"internalType": "address",
					"name": "_user",
					"type": "address"
				}
			],
			"name": "claimReward",
			"outputs": [],
			"stateMutability": "nonpayable",
			"type": "function"
		},
		{
			"inputs": [],
			"name": "decimals",
			"outputs": [
				{
					"internalType": "uint8",
					"name": "",
					"type": "uint8"
				}
			],
			"stateMutability": "view",
			"type": "function"
		},
		{
			"inputs": [
				{
					"internalType": "address",
					"name": "spender",
					"type": "address"
				},
				{
					"internalType": "uint256",
					"name": "subtractedValue",
					"type": "uint256"
				}
			],
			"name": "decreaseAllowance",
			"outputs": [
				{
					"internalType": "bool",
					"name": "",
					"type": "bool"
				}
			],
			"stateMutability": "nonpayable",
			"type": "function"
		},
		{
			"inputs": [
				{
					"internalType": "address",
					"name": "_user",
					"type": "address"
				}
			],
			"name": "getOwnedStakedJolamanType",
			"outputs": [
				{
					"internalType": "uint256[]",
					"name": "",
					"type": "uint256[]"
				}
			],
			"stateMutability": "view",
			"type": "function"
		},
		{
			"inputs": [
				{
					"internalType": "bytes32",
					"name": "role",
					"type": "bytes32"
				}
			],
			"name": "getRoleAdmin",
			"outputs": [
				{
					"internalType": "bytes32",
					"name": "",
					"type": "bytes32"
				}
			],
			"stateMutability": "view",
			"type": "function"
		},
		{
			"inputs": [
				{
					"internalType": "address",
					"name": "_user",
					"type": "address"
				}
			],
			"name": "getStakedTokens",
			"outputs": [
				{
					"internalType": "uint256[]",
					"name": "JolamanType",
					"type": "uint256[]"
				}
			],
			"stateMutability": "view",
			"type": "function"
		},
		{
			"inputs": [
				{
					"internalType": "bytes32",
					"name": "role",
					"type": "bytes32"
				},
				{
					"internalType": "address",
					"name": "account",
					"type": "address"
				}
			],
			"name": "grantRole",
			"outputs": [],
			"stateMutability": "nonpayable",
			"type": "function"
		},
		{
			"inputs": [
				{
					"internalType": "bytes32",
					"name": "role",
					"type": "bytes32"
				},
				{
					"internalType": "address",
					"name": "account",
					"type": "address"
				}
			],
			"name": "hasRole",
			"outputs": [
				{
					"internalType": "bool",
					"name": "",
					"type": "bool"
				}
			],
			"stateMutability": "view",
			"type": "function"
		},
		{
			"inputs": [
				{
					"internalType": "address",
					"name": "spender",
					"type": "address"
				},
				{
					"internalType": "uint256",
					"name": "addedValue",
					"type": "uint256"
				}
			],
			"name": "increaseAllowance",
			"outputs": [
				{
					"internalType": "bool",
					"name": "",
					"type": "bool"
				}
			],
			"stateMutability": "nonpayable",
			"type": "function"
		},
		{
			"inputs": [],
			"name": "initStaking",
			"outputs": [],
			"stateMutability": "nonpayable",
			"type": "function"
		},
		{
			"inputs": [
				{
					"internalType": "address",
					"name": "to",
					"type": "address"
				},
				{
					"internalType": "uint256",
					"name": "amount",
					"type": "uint256"
				}
			],
			"name": "mint",
			"outputs": [],
			"stateMutability": "nonpayable",
			"type": "function"
		},
		{
			"inputs": [],
			"name": "name",
			"outputs": [
				{
					"internalType": "string",
					"name": "",
					"type": "string"
				}
			],
			"stateMutability": "view",
			"type": "function"
		},
		{
			"inputs": [
				{
					"internalType": "address",
					"name": "",
					"type": "address"
				},
				{
					"internalType": "address",
					"name": "",
					"type": "address"
				},
				{
					"internalType": "uint256",
					"name": "",
					"type": "uint256"
				},
				{
					"internalType": "bytes",
					"name": "",
					"type": "bytes"
				}
			],
			"name": "onERC721Received",
			"outputs": [
				{
					"internalType": "bytes4",
					"name": "",
					"type": "bytes4"
				}
			],
			"stateMutability": "nonpayable",
			"type": "function"
		},
		{
			"inputs": [],
			"name": "owner",
			"outputs": [
				{
					"internalType": "address",
					"name": "",
					"type": "address"
				}
			],
			"stateMutability": "view",
			"type": "function"
		},
		{
			"inputs": [],
			"name": "randomJolaman",
			"outputs": [
				{
					"internalType": "contract IERC721",
					"name": "",
					"type": "address"
				}
			],
			"stateMutability": "view",
			"type": "function"
		},
		{
			"inputs": [],
			"name": "renounceOwnership",
			"outputs": [],
			"stateMutability": "nonpayable",
			"type": "function"
		},
		{
			"inputs": [
				{
					"internalType": "bytes32",
					"name": "role",
					"type": "bytes32"
				},
				{
					"internalType": "address",
					"name": "account",
					"type": "address"
				}
			],
			"name": "renounceRole",
			"outputs": [],
			"stateMutability": "nonpayable",
			"type": "function"
		},
		{
			"inputs": [
				{
					"internalType": "bytes32",
					"name": "role",
					"type": "bytes32"
				},
				{
					"internalType": "address",
					"name": "account",
					"type": "address"
				}
			],
			"name": "revokeRole",
			"outputs": [],
			"stateMutability": "nonpayable",
			"type": "function"
		},
		{
			"inputs": [],
			"name": "setdata",
			"outputs": [
				{
					"internalType": "contract SetData",
					"name": "",
					"type": "address"
				}
			],
			"stateMutability": "view",
			"type": "function"
		},
		{
			"inputs": [
				{
					"internalType": "uint256",
					"name": "_JolamanType",
					"type": "uint256"
				}
			],
			"name": "stake",
			"outputs": [],
			"stateMutability": "nonpayable",
			"type": "function"
		},
		{
			"inputs": [
				{
					"internalType": "uint256[]",
					"name": "JolamanType",
					"type": "uint256[]"
				}
			],
			"name": "stakeBatch",
			"outputs": [],
			"stateMutability": "nonpayable",
			"type": "function"
		},
		{
			"inputs": [],
			"name": "stakedTotal",
			"outputs": [
				{
					"internalType": "uint256",
					"name": "",
					"type": "uint256"
				}
			],
			"stateMutability": "view",
			"type": "function"
		},
		{
			"inputs": [
				{
					"internalType": "address",
					"name": "",
					"type": "address"
				}
			],
			"name": "stakers",
			"outputs": [
				{
					"internalType": "uint256",
					"name": "balance",
					"type": "uint256"
				},
				{
					"internalType": "uint256",
					"name": "rewardsReleased",
					"type": "uint256"
				}
			],
			"stateMutability": "view",
			"type": "function"
		},
		{
			"inputs": [],
			"name": "stakingStartTime",
			"outputs": [
				{
					"internalType": "uint256",
					"name": "",
					"type": "uint256"
				}
			],
			"stateMutability": "view",
			"type": "function"
		},
		{
			"inputs": [
				{
					"internalType": "bytes4",
					"name": "interfaceId",
					"type": "bytes4"
				}
			],
			"name": "supportsInterface",
			"outputs": [
				{
					"internalType": "bool",
					"name": "",
					"type": "bool"
				}
			],
			"stateMutability": "view",
			"type": "function"
		},
		{
			"inputs": [],
			"name": "symbol",
			"outputs": [
				{
					"internalType": "string",
					"name": "",
					"type": "string"
				}
			],
			"stateMutability": "view",
			"type": "function"
		},
		{
			"inputs": [
				{
					"internalType": "uint256",
					"name": "",
					"type": "uint256"
				}
			],
			"name": "tokenOwner",
			"outputs": [
				{
					"internalType": "address",
					"name": "",
					"type": "address"
				}
			],
			"stateMutability": "view",
			"type": "function"
		},
		{
			"inputs": [],
			"name": "totalSupply",
			"outputs": [
				{
					"internalType": "uint256",
					"name": "",
					"type": "uint256"
				}
			],
			"stateMutability": "view",
			"type": "function"
		},
		{
			"inputs": [
				{
					"internalType": "address",
					"name": "to",
					"type": "address"
				},
				{
					"internalType": "uint256",
					"name": "amount",
					"type": "uint256"
				}
			],
			"name": "transfer",
			"outputs": [
				{
					"internalType": "bool",
					"name": "",
					"type": "bool"
				}
			],
			"stateMutability": "nonpayable",
			"type": "function"
		},
		{
			"inputs": [
				{
					"internalType": "address",
					"name": "from",
					"type": "address"
				},
				{
					"internalType": "address",
					"name": "to",
					"type": "address"
				},
				{
					"internalType": "uint256",
					"name": "amount",
					"type": "uint256"
				}
			],
			"name": "transferFrom",
			"outputs": [
				{
					"internalType": "bool",
					"name": "",
					"type": "bool"
				}
			],
			"stateMutability": "nonpayable",
			"type": "function"
		},
		{
			"inputs": [
				{
					"internalType": "address",
					"name": "newOwner",
					"type": "address"
				}
			],
			"name": "transferOwnership",
			"outputs": [],
			"stateMutability": "nonpayable",
			"type": "function"
		},
		{
			"inputs": [
				{
					"internalType": "uint256",
					"name": "_JolamanType",
					"type": "uint256"
				}
			],
			"name": "unstake",
			"outputs": [],
			"stateMutability": "nonpayable",
			"type": "function"
		},
		{
			"inputs": [
				{
					"internalType": "uint256[]",
					"name": "JolamanType",
					"type": "uint256[]"
				}
			],
			"name": "unstakeBatch",
			"outputs": [],
			"stateMutability": "nonpayable",
			"type": "function"
		},
		{
			"inputs": [
				{
					"internalType": "address",
					"name": "_user",
					"type": "address"
				}
			],
			"name": "updateReward",
			"outputs": [],
			"stateMutability": "nonpayable",
			"type": "function"
		}
	]
}